{
	"contracts/QuailFinance.sol": {
		"QuailFinance": {
			"abi": [
				{
					"inputs": [],
					"stateMutability": "nonpayable",
					"type": "constructor"
				},
				{
					"anonymous": false,
					"inputs": [
						{
							"indexed": false,
							"internalType": "uint256",
							"name": "potId",
							"type": "uint256"
						},
						{
							"indexed": false,
							"internalType": "address",
							"name": "participant",
							"type": "address"
						}
					],
					"name": "ParticipantJoined",
					"type": "event"
				},
				{
					"anonymous": false,
					"inputs": [
						{
							"indexed": false,
							"internalType": "uint256",
							"name": "potId",
							"type": "uint256"
						},
						{
							"indexed": false,
							"internalType": "address",
							"name": "creator",
							"type": "address"
						},
						{
							"indexed": false,
							"internalType": "uint256",
							"name": "amount",
							"type": "uint256"
						},
						{
							"indexed": false,
							"internalType": "uint256",
							"name": "rotationCycleInSeconds",
							"type": "uint256"
						},
						{
							"indexed": false,
							"internalType": "uint256",
							"name": "_interestDenominator",
							"type": "uint256"
						},
						{
							"indexed": false,
							"internalType": "uint256",
							"name": "_interestNumerator",
							"type": "uint256"
						},
						{
							"indexed": false,
							"internalType": "uint256",
							"name": "_numParticipants",
							"type": "uint256"
						}
					],
					"name": "PotCreated",
					"type": "event"
				},
				{
					"anonymous": false,
					"inputs": [
						{
							"indexed": false,
							"internalType": "uint256",
							"name": "potId",
							"type": "uint256"
						},
						{
							"indexed": false,
							"internalType": "address",
							"name": "winner",
							"type": "address"
						},
						{
							"indexed": false,
							"internalType": "uint256",
							"name": "round",
							"type": "uint256"
						}
					],
					"name": "RotationCompleted",
					"type": "event"
				},
				{
					"inputs": [],
					"name": "BLAST",
					"outputs": [
						{
							"internalType": "contract IBlast",
							"name": "",
							"type": "address"
						}
					],
					"stateMutability": "view",
					"type": "function"
				},
				{
					"inputs": [],
					"name": "USDB",
					"outputs": [
						{
							"internalType": "contract IERC20Rebasing",
							"name": "",
							"type": "address"
						}
					],
					"stateMutability": "view",
					"type": "function"
				},
				{
					"inputs": [
						{
							"internalType": "uint256",
							"name": "_potId",
							"type": "uint256"
						},
						{
							"internalType": "uint256",
							"name": "_amount",
							"type": "uint256"
						}
					],
					"name": "calculateInterest",
					"outputs": [
						{
							"internalType": "uint256",
							"name": "",
							"type": "uint256"
						}
					],
					"stateMutability": "view",
					"type": "function"
				},
				{
					"inputs": [],
					"name": "claimMyContractsGas",
					"outputs": [],
					"stateMutability": "nonpayable",
					"type": "function"
				},
				{
					"inputs": [
						{
							"internalType": "uint256",
							"name": "_rotationCycleInSeconds",
							"type": "uint256"
						},
						{
							"internalType": "uint256",
							"name": "_interestDenominator",
							"type": "uint256"
						},
						{
							"internalType": "uint256",
							"name": "_interestNumerator",
							"type": "uint256"
						},
						{
							"internalType": "uint256",
							"name": "_numParticipants",
							"type": "uint256"
						},
						{
							"internalType": "uint256",
							"name": "_amount",
							"type": "uint256"
						}
					],
					"name": "createPot",
					"outputs": [],
					"stateMutability": "nonpayable",
					"type": "function"
				},
				{
					"inputs": [
						{
							"internalType": "uint256",
							"name": "_potId",
							"type": "uint256"
						}
					],
					"name": "joinPot",
					"outputs": [],
					"stateMutability": "payable",
					"type": "function"
				},
				{
					"inputs": [
						{
							"internalType": "uint256",
							"name": "",
							"type": "uint256"
						}
					],
					"name": "pots",
					"outputs": [
						{
							"internalType": "uint256",
							"name": "amount",
							"type": "uint256"
						},
						{
							"internalType": "uint256",
							"name": "rotationCycleInSeconds",
							"type": "uint256"
						},
						{
							"internalType": "uint256",
							"name": "lastRotationTime",
							"type": "uint256"
						},
						{
							"internalType": "uint256",
							"name": "interestNumerator",
							"type": "uint256"
						},
						{
							"internalType": "uint256",
							"name": "interestDenominator",
							"type": "uint256"
						},
						{
							"internalType": "uint256",
							"name": "numParticipants",
							"type": "uint256"
						},
						{
							"internalType": "uint256",
							"name": "currentRound",
							"type": "uint256"
						},
						{
							"internalType": "address",
							"name": "potCreator",
							"type": "address"
						}
					],
					"stateMutability": "view",
					"type": "function"
				},
				{
					"inputs": [
						{
							"internalType": "uint256",
							"name": "_potId",
							"type": "uint256"
						}
					],
					"name": "rotateLiquidity",
					"outputs": [],
					"stateMutability": "nonpayable",
					"type": "function"
				},
				{
					"inputs": [],
					"name": "totalRevenue",
					"outputs": [
						{
							"internalType": "uint256",
							"name": "",
							"type": "uint256"
						}
					],
					"stateMutability": "view",
					"type": "function"
				},
				{
					"inputs": [],
					"name": "usdbToken",
					"outputs": [
						{
							"internalType": "contract IERC20",
							"name": "",
							"type": "address"
						}
					],
					"stateMutability": "view",
					"type": "function"
				}
			],
			"devdoc": {
				"kind": "dev",
				"methods": {},
				"version": 1
			},
			"evm": {
				"assembly": "    /* \"contracts/QuailFinance.sol\":169:7797  contract QuailFinance{... */\n  mstore(0x40, 0x80)\n    /* \"contracts/QuailFinance.sol\":224:225  1 */\n  0x01\n    /* \"contracts/QuailFinance.sol\":196:225  uint256 private nextPotId = 1 */\n  0x00\n  sstore\n    /* \"contracts/QuailFinance.sol\":3290:3501  constructor() {... */\n  callvalue\n  dup1\n  iszero\n  tag_1\n  jumpi\n  0x00\n  dup1\n  revert\ntag_1:\n  pop\n    /* \"contracts/QuailFinance.sol\":3240:3282  0x4200000000000000000000000000000000000022 */\n  0x4200000000000000000000000000000000000022\n    /* \"contracts/QuailFinance.sol\":3314:3328  USDB.configure */\n  0xffffffffffffffffffffffffffffffffffffffff\n  and\n  0x1a33757d\n    /* \"contracts/QuailFinance.sol\":3329:3348  YieldMode.CLAIMABLE */\n  0x02\n    /* \"contracts/QuailFinance.sol\":3314:3349  USDB.configure(YieldMode.CLAIMABLE) */\n  mload(0x40)\n  dup3\n  0xffffffff\n  and\n  0xe0\n  shl\n  dup2\n  mstore\n  0x04\n  add\n  tag_4\n  swap2\n  swap1\n  tag_5\n  jump\t// in\ntag_4:\n  0x20\n  mload(0x40)\n  dup1\n  dup4\n  sub\n  dup2\n  0x00\n  dup8\n  gas\n  call\n  iszero\n  dup1\n  iszero\n  tag_7\n  jumpi\n  returndatasize\n  0x00\n  dup1\n  returndatacopy\n  revert(0x00, returndatasize)\ntag_7:\n  pop\n  pop\n  pop\n  pop\n  mload(0x40)\n  returndatasize\n  not(0x1f)\n  0x1f\n  dup3\n  add\n  and\n  dup3\n  add\n  dup1\n  0x40\n  mstore\n  pop\n  dup2\n  add\n  swap1\n  tag_8\n  swap2\n  swap1\n  tag_9\n  jump\t// in\ntag_8:\n  pop\n    /* \"contracts/QuailFinance.sol\":3415:3457  0x4200000000000000000000000000000000000022 */\n  0x4200000000000000000000000000000000000022\n    /* \"contracts/QuailFinance.sol\":3396:3405  usdbToken */\n  0x02\n  0x00\n    /* \"contracts/QuailFinance.sol\":3396:3458  usdbToken = IERC20(0x4200000000000000000000000000000000000022) */\n  0x0100\n  exp\n  dup2\n  sload\n  dup2\n  0xffffffffffffffffffffffffffffffffffffffff\n  mul\n  not\n  and\n  swap1\n  dup4\n  0xffffffffffffffffffffffffffffffffffffffff\n  and\n  mul\n  or\n  swap1\n  sstore\n  pop\n    /* \"contracts/QuailFinance.sol\":291:333  0x4300000000000000000000000000000000000002 */\n  0x4300000000000000000000000000000000000002\n    /* \"contracts/QuailFinance.sol\":3468:3495  BLAST.configureClaimableGas */\n  0xffffffffffffffffffffffffffffffffffffffff\n  and\n  0x4e606c47\n    /* \"contracts/QuailFinance.sol\":3468:3497  BLAST.configureClaimableGas() */\n  mload(0x40)\n  dup2\n  0xffffffff\n  and\n  0xe0\n  shl\n  dup2\n  mstore\n  0x04\n  add\n  0x00\n  mload(0x40)\n  dup1\n  dup4\n  sub\n  dup2\n  0x00\n  dup8\n  dup1\n  extcodesize\n  iszero\n  dup1\n  iszero\n  tag_10\n  jumpi\n  0x00\n  dup1\n  revert\ntag_10:\n  pop\n  gas\n  call\n  iszero\n  dup1\n  iszero\n  tag_12\n  jumpi\n  returndatasize\n  0x00\n  dup1\n  returndatacopy\n  revert(0x00, returndatasize)\ntag_12:\n  pop\n  pop\n  pop\n  pop\n    /* \"contracts/QuailFinance.sol\":169:7797  contract QuailFinance{... */\n  jump(tag_13)\n    /* \"#utility.yul\":7:187   */\ntag_14:\n    /* \"#utility.yul\":55:132   */\n  0x4e487b7100000000000000000000000000000000000000000000000000000000\n    /* \"#utility.yul\":52:53   */\n  0x00\n    /* \"#utility.yul\":45:133   */\n  mstore\n    /* \"#utility.yul\":152:156   */\n  0x21\n    /* \"#utility.yul\":149:150   */\n  0x04\n    /* \"#utility.yul\":142:157   */\n  mstore\n    /* \"#utility.yul\":176:180   */\n  0x24\n    /* \"#utility.yul\":173:174   */\n  0x00\n    /* \"#utility.yul\":166:181   */\n  revert\n    /* \"#utility.yul\":193:310   */\ntag_15:\n    /* \"#utility.yul\":278:279   */\n  0x03\n    /* \"#utility.yul\":271:276   */\n  dup2\n    /* \"#utility.yul\":268:280   */\n  lt\n    /* \"#utility.yul\":258:304   */\n  tag_28\n  jumpi\n    /* \"#utility.yul\":284:302   */\n  tag_29\n  tag_14\n  jump\t// in\ntag_29:\n    /* \"#utility.yul\":258:304   */\ntag_28:\n    /* \"#utility.yul\":193:310   */\n  pop\n  jump\t// out\n    /* \"#utility.yul\":316:451   */\ntag_16:\n    /* \"#utility.yul\":365:372   */\n  0x00\n    /* \"#utility.yul\":394:399   */\n  dup2\n    /* \"#utility.yul\":383:399   */\n  swap1\n  pop\n    /* \"#utility.yul\":400:445   */\n  tag_31\n    /* \"#utility.yul\":439:444   */\n  dup3\n    /* \"#utility.yul\":400:445   */\n  tag_15\n  jump\t// in\ntag_31:\n    /* \"#utility.yul\":316:451   */\n  swap2\n  swap1\n  pop\n  jump\t// out\n    /* \"#utility.yul\":457:592   */\ntag_17:\n    /* \"#utility.yul\":517:526   */\n  0x00\n    /* \"#utility.yul\":550:586   */\n  tag_33\n    /* \"#utility.yul\":580:585   */\n  dup3\n    /* \"#utility.yul\":550:586   */\n  tag_16\n  jump\t// in\ntag_33:\n    /* \"#utility.yul\":537:586   */\n  swap1\n  pop\n    /* \"#utility.yul\":457:592   */\n  swap2\n  swap1\n  pop\n  jump\t// out\n    /* \"#utility.yul\":598:749   */\ntag_18:\n    /* \"#utility.yul\":695:742   */\n  tag_35\n    /* \"#utility.yul\":736:741   */\n  dup2\n    /* \"#utility.yul\":695:742   */\n  tag_17\n  jump\t// in\ntag_35:\n    /* \"#utility.yul\":690:693   */\n  dup3\n    /* \"#utility.yul\":683:743   */\n  mstore\n    /* \"#utility.yul\":598:749   */\n  pop\n  pop\n  jump\t// out\n    /* \"#utility.yul\":755:997   */\ntag_5:\n    /* \"#utility.yul\":858:862   */\n  0x00\n    /* \"#utility.yul\":896:898   */\n  0x20\n    /* \"#utility.yul\":885:894   */\n  dup3\n    /* \"#utility.yul\":881:899   */\n  add\n    /* \"#utility.yul\":873:899   */\n  swap1\n  pop\n    /* \"#utility.yul\":909:990   */\n  tag_37\n    /* \"#utility.yul\":987:988   */\n  0x00\n    /* \"#utility.yul\":976:985   */\n  dup4\n    /* \"#utility.yul\":972:989   */\n  add\n    /* \"#utility.yul\":963:969   */\n  dup5\n    /* \"#utility.yul\":909:990   */\n  tag_18\n  jump\t// in\ntag_37:\n    /* \"#utility.yul\":755:997   */\n  swap3\n  swap2\n  pop\n  pop\n  jump\t// out\n    /* \"#utility.yul\":1084:1201   */\ntag_20:\n    /* \"#utility.yul\":1193:1194   */\n  0x00\n    /* \"#utility.yul\":1190:1191   */\n  dup1\n    /* \"#utility.yul\":1183:1195   */\n  revert\n    /* \"#utility.yul\":1330:1407   */\ntag_22:\n    /* \"#utility.yul\":1367:1374   */\n  0x00\n    /* \"#utility.yul\":1396:1401   */\n  dup2\n    /* \"#utility.yul\":1385:1401   */\n  swap1\n  pop\n    /* \"#utility.yul\":1330:1407   */\n  swap2\n  swap1\n  pop\n  jump\t// out\n    /* \"#utility.yul\":1413:1535   */\ntag_23:\n    /* \"#utility.yul\":1486:1510   */\n  tag_43\n    /* \"#utility.yul\":1504:1509   */\n  dup2\n    /* \"#utility.yul\":1486:1510   */\n  tag_22\n  jump\t// in\ntag_43:\n    /* \"#utility.yul\":1479:1484   */\n  dup2\n    /* \"#utility.yul\":1476:1511   */\n  eq\n    /* \"#utility.yul\":1466:1529   */\n  tag_44\n  jumpi\n    /* \"#utility.yul\":1525:1526   */\n  0x00\n    /* \"#utility.yul\":1522:1523   */\n  dup1\n    /* \"#utility.yul\":1515:1527   */\n  revert\n    /* \"#utility.yul\":1466:1529   */\ntag_44:\n    /* \"#utility.yul\":1413:1535   */\n  pop\n  jump\t// out\n    /* \"#utility.yul\":1541:1684   */\ntag_24:\n    /* \"#utility.yul\":1598:1603   */\n  0x00\n    /* \"#utility.yul\":1629:1635   */\n  dup2\n    /* \"#utility.yul\":1623:1636   */\n  mload\n    /* \"#utility.yul\":1614:1636   */\n  swap1\n  pop\n    /* \"#utility.yul\":1645:1678   */\n  tag_46\n    /* \"#utility.yul\":1672:1677   */\n  dup2\n    /* \"#utility.yul\":1645:1678   */\n  tag_23\n  jump\t// in\ntag_46:\n    /* \"#utility.yul\":1541:1684   */\n  swap3\n  swap2\n  pop\n  pop\n  jump\t// out\n    /* \"#utility.yul\":1690:2041   */\ntag_9:\n    /* \"#utility.yul\":1760:1766   */\n  0x00\n    /* \"#utility.yul\":1809:1811   */\n  0x20\n    /* \"#utility.yul\":1797:1806   */\n  dup3\n    /* \"#utility.yul\":1788:1795   */\n  dup5\n    /* \"#utility.yul\":1784:1807   */\n  sub\n    /* \"#utility.yul\":1780:1812   */\n  slt\n    /* \"#utility.yul\":1777:1896   */\n  iszero\n  tag_48\n  jumpi\n    /* \"#utility.yul\":1815:1894   */\n  tag_49\n  tag_20\n  jump\t// in\ntag_49:\n    /* \"#utility.yul\":1777:1896   */\ntag_48:\n    /* \"#utility.yul\":1935:1936   */\n  0x00\n    /* \"#utility.yul\":1960:2024   */\n  tag_50\n    /* \"#utility.yul\":2016:2023   */\n  dup5\n    /* \"#utility.yul\":2007:2013   */\n  dup3\n    /* \"#utility.yul\":1996:2005   */\n  dup6\n    /* \"#utility.yul\":1992:2014   */\n  add\n    /* \"#utility.yul\":1960:2024   */\n  tag_24\n  jump\t// in\ntag_50:\n    /* \"#utility.yul\":1950:2024   */\n  swap2\n  pop\n    /* \"#utility.yul\":1906:2034   */\n  pop\n    /* \"#utility.yul\":1690:2041   */\n  swap3\n  swap2\n  pop\n  pop\n  jump\t// out\n    /* \"contracts/QuailFinance.sol\":169:7797  contract QuailFinance{... */\ntag_13:\n  dataSize(sub_0)\n  dup1\n  dataOffset(sub_0)\n  0x00\n  codecopy\n  0x00\n  return\nstop\n\nsub_0: assembly {\n        /* \"contracts/QuailFinance.sol\":169:7797  contract QuailFinance{... */\n      mstore(0x40, 0x80)\n      jumpi(tag_1, lt(calldatasize, 0x04))\n      shr(0xe0, calldataload(0x00))\n      dup1\n      0xbf2d9e0b\n      gt\n      tag_12\n      jumpi\n      dup1\n      0xbf2d9e0b\n      eq\n      tag_7\n      jumpi\n      dup1\n      0xc3c3df4f\n      eq\n      tag_8\n      jumpi\n      dup1\n      0xca0ea3d1\n      eq\n      tag_9\n      jumpi\n      dup1\n      0xef922b87\n      eq\n      tag_10\n      jumpi\n      dup1\n      0xefdd7c07\n      eq\n      tag_11\n      jumpi\n      jump(tag_1)\n    tag_12:\n      dup1\n      0x31a0edec\n      eq\n      tag_2\n      jumpi\n      dup1\n      0x4a80409e\n      eq\n      tag_3\n      jumpi\n      dup1\n      0x77d5d2dc\n      eq\n      tag_4\n      jumpi\n      dup1\n      0x831d49ef\n      eq\n      tag_5\n      jumpi\n      dup1\n      0x97d75776\n      eq\n      tag_6\n      jumpi\n    tag_1:\n      0x00\n      dup1\n      revert\n        /* \"contracts/QuailFinance.sol\":3187:3283  IERC20Rebasing public constant USDB = IERC20Rebasing(0x4200000000000000000000000000000000000022) */\n    tag_2:\n      callvalue\n      dup1\n      iszero\n      tag_13\n      jumpi\n      0x00\n      dup1\n      revert\n    tag_13:\n      pop\n      tag_14\n      tag_15\n      jump\t// in\n    tag_14:\n      mload(0x40)\n      tag_16\n      swap2\n      swap1\n      tag_17\n      jump\t// in\n    tag_16:\n      mload(0x40)\n      dup1\n      swap2\n      sub\n      swap1\n      return\n        /* \"contracts/QuailFinance.sol\":373:396  IERC20 public usdbToken */\n    tag_3:\n      callvalue\n      dup1\n      iszero\n      tag_18\n      jumpi\n      0x00\n      dup1\n      revert\n    tag_18:\n      pop\n      tag_19\n      tag_20\n      jump\t// in\n    tag_19:\n      mload(0x40)\n      tag_21\n      swap2\n      swap1\n      tag_22\n      jump\t// in\n    tag_21:\n      mload(0x40)\n      dup1\n      swap2\n      sub\n      swap1\n      return\n        /* \"contracts/QuailFinance.sol\":7694:7795  function claimMyContractsGas() external {... */\n    tag_4:\n      callvalue\n      dup1\n      iszero\n      tag_23\n      jumpi\n      0x00\n      dup1\n      revert\n    tag_23:\n      pop\n      tag_24\n      tag_25\n      jump\t// in\n    tag_24:\n      stop\n        /* \"contracts/QuailFinance.sol\":4984:5689  function joinPot(uint256 _potId) external payable {... */\n    tag_5:\n      tag_26\n      0x04\n      dup1\n      calldatasize\n      sub\n      dup2\n      add\n      swap1\n      tag_27\n      swap2\n      swap1\n      tag_28\n      jump\t// in\n    tag_27:\n      tag_29\n      jump\t// in\n    tag_26:\n      stop\n        /* \"contracts/QuailFinance.sol\":253:334  IBlast public constant BLAST = IBlast(0x4300000000000000000000000000000000000002) */\n    tag_6:\n      callvalue\n      dup1\n      iszero\n      tag_30\n      jumpi\n      0x00\n      dup1\n      revert\n    tag_30:\n      pop\n      tag_31\n      tag_32\n      jump\t// in\n    tag_31:\n      mload(0x40)\n      tag_33\n      swap2\n      swap1\n      tag_34\n      jump\t// in\n    tag_33:\n      mload(0x40)\n      dup1\n      swap2\n      sub\n      swap1\n      return\n        /* \"contracts/QuailFinance.sol\":340:367  uint256 public totalRevenue */\n    tag_7:\n      callvalue\n      dup1\n      iszero\n      tag_35\n      jumpi\n      0x00\n      dup1\n      revert\n    tag_35:\n      pop\n      tag_36\n      tag_37\n      jump\t// in\n    tag_36:\n      mload(0x40)\n      tag_38\n      swap2\n      swap1\n      tag_39\n      jump\t// in\n    tag_38:\n      mload(0x40)\n      dup1\n      swap2\n      sub\n      swap1\n      return\n        /* \"contracts/QuailFinance.sol\":426:461  mapping(uint256 => Pot) public pots */\n    tag_8:\n      callvalue\n      dup1\n      iszero\n      tag_40\n      jumpi\n      0x00\n      dup1\n      revert\n    tag_40:\n      pop\n      tag_41\n      0x04\n      dup1\n      calldatasize\n      sub\n      dup2\n      add\n      swap1\n      tag_42\n      swap2\n      swap1\n      tag_28\n      jump\t// in\n    tag_42:\n      tag_43\n      jump\t// in\n    tag_41:\n      mload(0x40)\n      tag_44\n      swap9\n      swap8\n      swap7\n      swap6\n      swap5\n      swap4\n      swap3\n      swap2\n      swap1\n      tag_45\n      jump\t// in\n    tag_44:\n      mload(0x40)\n      dup1\n      swap2\n      sub\n      swap1\n      return\n        /* \"contracts/QuailFinance.sol\":3536:4902  function createPot(uint256 _rotationCycleInSeconds, uint256 _interestDenominator, uint256 _interestNumerator, uint256 _numParticipants, uint256 _amount) public{... */\n    tag_9:\n      callvalue\n      dup1\n      iszero\n      tag_46\n      jumpi\n      0x00\n      dup1\n      revert\n    tag_46:\n      pop\n      tag_47\n      0x04\n      dup1\n      calldatasize\n      sub\n      dup2\n      add\n      swap1\n      tag_48\n      swap2\n      swap1\n      tag_49\n      jump\t// in\n    tag_48:\n      tag_50\n      jump\t// in\n    tag_47:\n      stop\n        /* \"contracts/QuailFinance.sol\":5869:6916  function rotateLiquidity(uint256 _potId) public {... */\n    tag_10:\n      callvalue\n      dup1\n      iszero\n      tag_51\n      jumpi\n      0x00\n      dup1\n      revert\n    tag_51:\n      pop\n      tag_52\n      0x04\n      dup1\n      calldatasize\n      sub\n      dup2\n      add\n      swap1\n      tag_53\n      swap2\n      swap1\n      tag_28\n      jump\t// in\n    tag_53:\n      tag_54\n      jump\t// in\n    tag_52:\n      stop\n        /* \"contracts/QuailFinance.sol\":7149:7360  function calculateInterest(uint256 _potId, uint256 _amount) public view returns (uint256) {... */\n    tag_11:\n      callvalue\n      dup1\n      iszero\n      tag_55\n      jumpi\n      0x00\n      dup1\n      revert\n    tag_55:\n      pop\n      tag_56\n      0x04\n      dup1\n      calldatasize\n      sub\n      dup2\n      add\n      swap1\n      tag_57\n      swap2\n      swap1\n      tag_58\n      jump\t// in\n    tag_57:\n      tag_59\n      jump\t// in\n    tag_56:\n      mload(0x40)\n      tag_60\n      swap2\n      swap1\n      tag_39\n      jump\t// in\n    tag_60:\n      mload(0x40)\n      dup1\n      swap2\n      sub\n      swap1\n      return\n        /* \"contracts/QuailFinance.sol\":3187:3283  IERC20Rebasing public constant USDB = IERC20Rebasing(0x4200000000000000000000000000000000000022) */\n    tag_15:\n        /* \"contracts/QuailFinance.sol\":3240:3282  0x4200000000000000000000000000000000000022 */\n      0x4200000000000000000000000000000000000022\n        /* \"contracts/QuailFinance.sol\":3187:3283  IERC20Rebasing public constant USDB = IERC20Rebasing(0x4200000000000000000000000000000000000022) */\n      dup2\n      jump\t// out\n        /* \"contracts/QuailFinance.sol\":373:396  IERC20 public usdbToken */\n    tag_20:\n      0x02\n      0x00\n      swap1\n      sload\n      swap1\n      0x0100\n      exp\n      swap1\n      div\n      0xffffffffffffffffffffffffffffffffffffffff\n      and\n      dup2\n      jump\t// out\n        /* \"contracts/QuailFinance.sol\":7694:7795  function claimMyContractsGas() external {... */\n    tag_25:\n        /* \"contracts/QuailFinance.sol\":291:333  0x4300000000000000000000000000000000000002 */\n      0x4300000000000000000000000000000000000002\n        /* \"contracts/QuailFinance.sol\":7744:7761  BLAST.claimAllGas */\n      0xffffffffffffffffffffffffffffffffffffffff\n      and\n      0x954fa5ee\n        /* \"contracts/QuailFinance.sol\":7770:7774  this */\n      address\n        /* \"contracts/QuailFinance.sol\":7777:7787  msg.sender */\n      caller\n        /* \"contracts/QuailFinance.sol\":7744:7788  BLAST.claimAllGas(address(this), msg.sender) */\n      mload(0x40)\n      dup4\n      0xffffffff\n      and\n      0xe0\n      shl\n      dup2\n      mstore\n      0x04\n      add\n      tag_62\n      swap3\n      swap2\n      swap1\n      tag_63\n      jump\t// in\n    tag_62:\n      0x20\n      mload(0x40)\n      dup1\n      dup4\n      sub\n      dup2\n      0x00\n      dup8\n      gas\n      call\n      iszero\n      dup1\n      iszero\n      tag_65\n      jumpi\n      returndatasize\n      0x00\n      dup1\n      returndatacopy\n      revert(0x00, returndatasize)\n    tag_65:\n      pop\n      pop\n      pop\n      pop\n      mload(0x40)\n      returndatasize\n      not(0x1f)\n      0x1f\n      dup3\n      add\n      and\n      dup3\n      add\n      dup1\n      0x40\n      mstore\n      pop\n      dup2\n      add\n      swap1\n      tag_66\n      swap2\n      swap1\n      tag_67\n      jump\t// in\n    tag_66:\n      pop\n        /* \"contracts/QuailFinance.sol\":7694:7795  function claimMyContractsGas() external {... */\n      jump\t// out\n        /* \"contracts/QuailFinance.sol\":4984:5689  function joinPot(uint256 _potId) external payable {... */\n    tag_29:\n        /* \"contracts/QuailFinance.sol\":5044:5059  Pot storage pot */\n      0x00\n        /* \"contracts/QuailFinance.sol\":5062:5066  pots */\n      0x03\n        /* \"contracts/QuailFinance.sol\":5062:5074  pots[_potId] */\n      0x00\n        /* \"contracts/QuailFinance.sol\":5067:5073  _potId */\n      dup4\n        /* \"contracts/QuailFinance.sol\":5062:5074  pots[_potId] */\n      dup2\n      mstore\n      0x20\n      add\n      swap1\n      dup2\n      mstore\n      0x20\n      add\n      0x00\n      keccak256\n        /* \"contracts/QuailFinance.sol\":5044:5074  Pot storage pot = pots[_potId] */\n      swap1\n      pop\n        /* \"contracts/QuailFinance.sol\":5118:5121  pot */\n      dup1\n        /* \"contracts/QuailFinance.sol\":5118:5137  pot.numParticipants */\n      0x05\n      add\n      sload\n        /* \"contracts/QuailFinance.sol\":5092:5095  pot */\n      dup2\n        /* \"contracts/QuailFinance.sol\":5092:5108  pot.participants */\n      0x08\n      add\n        /* \"contracts/QuailFinance.sol\":5092:5115  pot.participants.length */\n      dup1\n      sload\n      swap1\n      pop\n        /* \"contracts/QuailFinance.sol\":5092:5137  pot.participants.length < pot.numParticipants */\n      lt\n        /* \"contracts/QuailFinance.sol\":5084:5153  require(pot.participants.length < pot.numParticipants, \"Pot is full\") */\n      tag_69\n      jumpi\n      mload(0x40)\n      0x08c379a000000000000000000000000000000000000000000000000000000000\n      dup2\n      mstore\n      0x04\n      add\n      tag_70\n      swap1\n      tag_71\n      jump\t// in\n    tag_70:\n      mload(0x40)\n      dup1\n      swap2\n      sub\n      swap1\n      revert\n    tag_69:\n        /* \"contracts/QuailFinance.sol\":5190:5191  1 */\n      0x01\n        /* \"contracts/QuailFinance.sol\":5171:5174  pot */\n      dup2\n        /* \"contracts/QuailFinance.sol\":5171:5187  pot.currentRound */\n      0x06\n      add\n      sload\n        /* \"contracts/QuailFinance.sol\":5171:5191  pot.currentRound < 1 */\n      lt\n        /* \"contracts/QuailFinance.sol\":5163:5226  require(pot.currentRound < 1, \"Rotating pots cannot be joined\") */\n      tag_72\n      jumpi\n      mload(0x40)\n      0x08c379a000000000000000000000000000000000000000000000000000000000\n      dup2\n      mstore\n      0x04\n      add\n      tag_73\n      swap1\n      tag_74\n      jump\t// in\n    tag_73:\n      mload(0x40)\n      dup1\n      swap2\n      sub\n      swap1\n      revert\n    tag_72:\n        /* \"contracts/QuailFinance.sol\":5277:5278  0 */\n      0x00\n        /* \"contracts/QuailFinance.sol\":5244:5247  pot */\n      dup2\n        /* \"contracts/QuailFinance.sol\":5244:5261  pot.contributions */\n      0x09\n      add\n        /* \"contracts/QuailFinance.sol\":5244:5273  pot.contributions[msg.sender] */\n      0x00\n        /* \"contracts/QuailFinance.sol\":5262:5272  msg.sender */\n      caller\n        /* \"contracts/QuailFinance.sol\":5244:5273  pot.contributions[msg.sender] */\n      0xffffffffffffffffffffffffffffffffffffffff\n      and\n      0xffffffffffffffffffffffffffffffffffffffff\n      and\n      dup2\n      mstore\n      0x20\n      add\n      swap1\n      dup2\n      mstore\n      0x20\n      add\n      0x00\n      keccak256\n      sload\n        /* \"contracts/QuailFinance.sol\":5244:5278  pot.contributions[msg.sender] == 0 */\n      eq\n        /* \"contracts/QuailFinance.sol\":5236:5297  require(pot.contributions[msg.sender] == 0, \"Already joined\") */\n      tag_75\n      jumpi\n      mload(0x40)\n      0x08c379a000000000000000000000000000000000000000000000000000000000\n      dup2\n      mstore\n      0x04\n      add\n      tag_76\n      swap1\n      tag_77\n      jump\t// in\n    tag_76:\n      mload(0x40)\n      dup1\n      swap2\n      sub\n      swap1\n      revert\n    tag_75:\n        /* \"contracts/QuailFinance.sol\":5357:5383  uint256 amountAfterRevenue */\n      0x00\n        /* \"contracts/QuailFinance.sol\":5386:5411  deductRevenue(pot.amount) */\n      tag_78\n        /* \"contracts/QuailFinance.sol\":5400:5403  pot */\n      dup3\n        /* \"contracts/QuailFinance.sol\":5400:5410  pot.amount */\n      0x00\n      add\n      sload\n        /* \"contracts/QuailFinance.sol\":5386:5399  deductRevenue */\n      tag_79\n        /* \"contracts/QuailFinance.sol\":5386:5411  deductRevenue(pot.amount) */\n      jump\t// in\n    tag_78:\n        /* \"contracts/QuailFinance.sol\":5357:5411  uint256 amountAfterRevenue = deductRevenue(pot.amount) */\n      swap1\n      pop\n        /* \"contracts/QuailFinance.sol\":5429:5438  usdbToken */\n      0x02\n      0x00\n      swap1\n      sload\n      swap1\n      0x0100\n      exp\n      swap1\n      div\n      0xffffffffffffffffffffffffffffffffffffffff\n      and\n        /* \"contracts/QuailFinance.sol\":5429:5451  usdbToken.transferFrom */\n      0xffffffffffffffffffffffffffffffffffffffff\n      and\n      0x23b872dd\n        /* \"contracts/QuailFinance.sol\":5452:5462  msg.sender */\n      caller\n        /* \"contracts/QuailFinance.sol\":5472:5476  this */\n      address\n        /* \"contracts/QuailFinance.sol\":5479:5497  amountAfterRevenue */\n      dup5\n        /* \"contracts/QuailFinance.sol\":5429:5498  usdbToken.transferFrom(msg.sender, address(this), amountAfterRevenue) */\n      mload(0x40)\n      dup5\n      0xffffffff\n      and\n      0xe0\n      shl\n      dup2\n      mstore\n      0x04\n      add\n      tag_80\n      swap4\n      swap3\n      swap2\n      swap1\n      tag_81\n      jump\t// in\n    tag_80:\n      0x20\n      mload(0x40)\n      dup1\n      dup4\n      sub\n      dup2\n      0x00\n      dup8\n      gas\n      call\n      iszero\n      dup1\n      iszero\n      tag_83\n      jumpi\n      returndatasize\n      0x00\n      dup1\n      returndatacopy\n      revert(0x00, returndatasize)\n    tag_83:\n      pop\n      pop\n      pop\n      pop\n      mload(0x40)\n      returndatasize\n      not(0x1f)\n      0x1f\n      dup3\n      add\n      and\n      dup3\n      add\n      dup1\n      0x40\n      mstore\n      pop\n      dup2\n      add\n      swap1\n      tag_84\n      swap2\n      swap1\n      tag_85\n      jump\t// in\n    tag_84:\n        /* \"contracts/QuailFinance.sol\":5421:5518  require(usdbToken.transferFrom(msg.sender, address(this), amountAfterRevenue), \"Transfer failed\") */\n      tag_86\n      jumpi\n      mload(0x40)\n      0x08c379a000000000000000000000000000000000000000000000000000000000\n      dup2\n      mstore\n      0x04\n      add\n      tag_87\n      swap1\n      tag_88\n      jump\t// in\n    tag_87:\n      mload(0x40)\n      dup1\n      swap2\n      sub\n      swap1\n      revert\n    tag_86:\n        /* \"contracts/QuailFinance.sol\":5560:5578  amountAfterRevenue */\n      dup1\n        /* \"contracts/QuailFinance.sol\":5528:5531  pot */\n      dup3\n        /* \"contracts/QuailFinance.sol\":5528:5545  pot.contributions */\n      0x09\n      add\n        /* \"contracts/QuailFinance.sol\":5528:5557  pot.contributions[msg.sender] */\n      0x00\n        /* \"contracts/QuailFinance.sol\":5546:5556  msg.sender */\n      caller\n        /* \"contracts/QuailFinance.sol\":5528:5557  pot.contributions[msg.sender] */\n      0xffffffffffffffffffffffffffffffffffffffff\n      and\n      0xffffffffffffffffffffffffffffffffffffffff\n      and\n      dup2\n      mstore\n      0x20\n      add\n      swap1\n      dup2\n      mstore\n      0x20\n      add\n      0x00\n      keccak256\n        /* \"contracts/QuailFinance.sol\":5528:5578  pot.contributions[msg.sender] = amountAfterRevenue */\n      dup2\n      swap1\n      sstore\n      pop\n        /* \"contracts/QuailFinance.sol\":5588:5591  pot */\n      dup2\n        /* \"contracts/QuailFinance.sol\":5588:5604  pot.participants */\n      0x08\n      add\n        /* \"contracts/QuailFinance.sol\":5610:5620  msg.sender */\n      caller\n        /* \"contracts/QuailFinance.sol\":5588:5621  pot.participants.push(msg.sender) */\n      swap1\n      dup1\n      0x01\n      dup2\n      sload\n      add\n      dup1\n      dup3\n      sstore\n      dup1\n      swap2\n      pop\n      pop\n      0x01\n      swap1\n      sub\n      swap1\n      0x00\n      mstore\n      keccak256(0x00, 0x20)\n      add\n      0x00\n      swap1\n      swap2\n      swap1\n      swap2\n      swap1\n      swap2\n      0x0100\n      exp\n      dup2\n      sload\n      dup2\n      0xffffffffffffffffffffffffffffffffffffffff\n      mul\n      not\n      and\n      swap1\n      dup4\n      0xffffffffffffffffffffffffffffffffffffffff\n      and\n      mul\n      or\n      swap1\n      sstore\n      pop\n        /* \"contracts/QuailFinance.sol\":5645:5682  ParticipantJoined(_potId, msg.sender) */\n      0x7dd8cb04159701bc1976c246434d7d96812782e7489e6c5c34db49a388fe9e80\n        /* \"contracts/QuailFinance.sol\":5663:5669  _potId */\n      dup4\n        /* \"contracts/QuailFinance.sol\":5671:5681  msg.sender */\n      caller\n        /* \"contracts/QuailFinance.sol\":5645:5682  ParticipantJoined(_potId, msg.sender) */\n      mload(0x40)\n      tag_90\n      swap3\n      swap2\n      swap1\n      tag_91\n      jump\t// in\n    tag_90:\n      mload(0x40)\n      dup1\n      swap2\n      sub\n      swap1\n      log1\n        /* \"contracts/QuailFinance.sol\":5034:5689  {... */\n      pop\n      pop\n        /* \"contracts/QuailFinance.sol\":4984:5689  function joinPot(uint256 _potId) external payable {... */\n      pop\n      jump\t// out\n        /* \"contracts/QuailFinance.sol\":253:334  IBlast public constant BLAST = IBlast(0x4300000000000000000000000000000000000002) */\n    tag_32:\n        /* \"contracts/QuailFinance.sol\":291:333  0x4300000000000000000000000000000000000002 */\n      0x4300000000000000000000000000000000000002\n        /* \"contracts/QuailFinance.sol\":253:334  IBlast public constant BLAST = IBlast(0x4300000000000000000000000000000000000002) */\n      dup2\n      jump\t// out\n        /* \"contracts/QuailFinance.sol\":340:367  uint256 public totalRevenue */\n    tag_37:\n      sload(0x01)\n      dup2\n      jump\t// out\n        /* \"contracts/QuailFinance.sol\":426:461  mapping(uint256 => Pot) public pots */\n    tag_43:\n      mstore(0x20, 0x03)\n      dup1\n      0x00\n      mstore\n      keccak256(0x00, 0x40)\n      0x00\n      swap2\n      pop\n      swap1\n      pop\n      dup1\n      0x00\n      add\n      sload\n      swap1\n      dup1\n      0x01\n      add\n      sload\n      swap1\n      dup1\n      0x02\n      add\n      sload\n      swap1\n      dup1\n      0x03\n      add\n      sload\n      swap1\n      dup1\n      0x04\n      add\n      sload\n      swap1\n      dup1\n      0x05\n      add\n      sload\n      swap1\n      dup1\n      0x06\n      add\n      sload\n      swap1\n      dup1\n      0x07\n      add\n      0x00\n      swap1\n      sload\n      swap1\n      0x0100\n      exp\n      swap1\n      div\n      0xffffffffffffffffffffffffffffffffffffffff\n      and\n      swap1\n      pop\n      dup9\n      jump\t// out\n        /* \"contracts/QuailFinance.sol\":3536:4902  function createPot(uint256 _rotationCycleInSeconds, uint256 _interestDenominator, uint256 _interestNumerator, uint256 _numParticipants, uint256 _amount) public{... */\n    tag_50:\n        /* \"contracts/QuailFinance.sol\":3739:3740  0 */\n      0x00\n        /* \"contracts/QuailFinance.sol\":3713:3736  _rotationCycleInSeconds */\n      dup6\n        /* \"contracts/QuailFinance.sol\":3713:3740  _rotationCycleInSeconds > 0 */\n      gt\n        /* \"contracts/QuailFinance.sol\":3705:3776  require(_rotationCycleInSeconds > 0, \"Rotation cycle must be positive\") */\n      tag_93\n      jumpi\n      mload(0x40)\n      0x08c379a000000000000000000000000000000000000000000000000000000000\n      dup2\n      mstore\n      0x04\n      add\n      tag_94\n      swap1\n      tag_95\n      jump\t// in\n    tag_94:\n      mload(0x40)\n      dup1\n      swap2\n      sub\n      swap1\n      revert\n    tag_93:\n        /* \"contracts/QuailFinance.sol\":3817:3818  0 */\n      0x00\n        /* \"contracts/QuailFinance.sol\":3794:3814  _interestDenominator */\n      dup5\n        /* \"contracts/QuailFinance.sol\":3794:3818  _interestDenominator > 0 */\n      gt\n        /* \"contracts/QuailFinance.sol\":3786:3860  require(_interestDenominator > 0, \"Interest denominator must be positive\") */\n      tag_96\n      jumpi\n      mload(0x40)\n      0x08c379a000000000000000000000000000000000000000000000000000000000\n      dup2\n      mstore\n      0x04\n      add\n      tag_97\n      swap1\n      tag_98\n      jump\t// in\n    tag_97:\n      mload(0x40)\n      dup1\n      swap2\n      sub\n      swap1\n      revert\n    tag_96:\n        /* \"contracts/QuailFinance.sol\":3900:3920  _interestDenominator */\n      dup4\n        /* \"contracts/QuailFinance.sol\":3878:3896  _interestNumerator */\n      dup4\n        /* \"contracts/QuailFinance.sol\":3878:3920  _interestNumerator <= _interestDenominator */\n      gt\n      iszero\n        /* \"contracts/QuailFinance.sol\":3870:3976  require(_interestNumerator <= _interestDenominator, \"Numerator must be less than or equal to denominator\") */\n      tag_99\n      jumpi\n      mload(0x40)\n      0x08c379a000000000000000000000000000000000000000000000000000000000\n      dup2\n      mstore\n      0x04\n      add\n      tag_100\n      swap1\n      tag_101\n      jump\t// in\n    tag_100:\n      mload(0x40)\n      dup1\n      swap2\n      sub\n      swap1\n      revert\n    tag_99:\n        /* \"contracts/QuailFinance.sol\":3986:3999  uint256 potId */\n      0x00\n        /* \"contracts/QuailFinance.sol\":4002:4011  nextPotId */\n      dup1\n      0x00\n        /* \"contracts/QuailFinance.sol\":4002:4013  nextPotId++ */\n      dup2\n      sload\n      dup1\n      swap3\n      swap2\n      swap1\n      tag_102\n      swap1\n      tag_103\n      jump\t// in\n    tag_102:\n      swap2\n      swap1\n      pop\n      sstore\n        /* \"contracts/QuailFinance.sol\":3986:4013  uint256 potId = nextPotId++ */\n      swap1\n      pop\n        /* \"contracts/QuailFinance.sol\":4023:4052  address[] memory participants */\n      0x60\n        /* \"contracts/QuailFinance.sol\":4062:4088  uint256 amountAfterRevenue */\n      0x00\n        /* \"contracts/QuailFinance.sol\":4091:4113  deductRevenue(_amount) */\n      tag_104\n        /* \"contracts/QuailFinance.sol\":4105:4112  _amount */\n      dup5\n        /* \"contracts/QuailFinance.sol\":4091:4104  deductRevenue */\n      tag_79\n        /* \"contracts/QuailFinance.sol\":4091:4113  deductRevenue(_amount) */\n      jump\t// in\n    tag_104:\n        /* \"contracts/QuailFinance.sol\":4062:4113  uint256 amountAfterRevenue = deductRevenue(_amount) */\n      swap1\n      pop\n        /* \"contracts/QuailFinance.sol\":4131:4140  usdbToken */\n      0x02\n      0x00\n      swap1\n      sload\n      swap1\n      0x0100\n      exp\n      swap1\n      div\n      0xffffffffffffffffffffffffffffffffffffffff\n      and\n        /* \"contracts/QuailFinance.sol\":4131:4153  usdbToken.transferFrom */\n      0xffffffffffffffffffffffffffffffffffffffff\n      and\n      0x23b872dd\n        /* \"contracts/QuailFinance.sol\":4154:4164  msg.sender */\n      caller\n        /* \"contracts/QuailFinance.sol\":4174:4178  this */\n      address\n        /* \"contracts/QuailFinance.sol\":4181:4199  amountAfterRevenue */\n      dup5\n        /* \"contracts/QuailFinance.sol\":4131:4200  usdbToken.transferFrom(msg.sender, address(this), amountAfterRevenue) */\n      mload(0x40)\n      dup5\n      0xffffffff\n      and\n      0xe0\n      shl\n      dup2\n      mstore\n      0x04\n      add\n      tag_105\n      swap4\n      swap3\n      swap2\n      swap1\n      tag_81\n      jump\t// in\n    tag_105:\n      0x20\n      mload(0x40)\n      dup1\n      dup4\n      sub\n      dup2\n      0x00\n      dup8\n      gas\n      call\n      iszero\n      dup1\n      iszero\n      tag_107\n      jumpi\n      returndatasize\n      0x00\n      dup1\n      returndatacopy\n      revert(0x00, returndatasize)\n    tag_107:\n      pop\n      pop\n      pop\n      pop\n      mload(0x40)\n      returndatasize\n      not(0x1f)\n      0x1f\n      dup3\n      add\n      and\n      dup3\n      add\n      dup1\n      0x40\n      mstore\n      pop\n      dup2\n      add\n      swap1\n      tag_108\n      swap2\n      swap1\n      tag_85\n      jump\t// in\n    tag_108:\n        /* \"contracts/QuailFinance.sol\":4123:4246  require(usdbToken.transferFrom(msg.sender, address(this), amountAfterRevenue), \"Creator should deposit the initial amount\") */\n      tag_109\n      jumpi\n      mload(0x40)\n      0x08c379a000000000000000000000000000000000000000000000000000000000\n      dup2\n      mstore\n      0x04\n      add\n      tag_110\n      swap1\n      tag_111\n      jump\t// in\n    tag_110:\n      mload(0x40)\n      dup1\n      swap2\n      sub\n      swap1\n      revert\n    tag_109:\n        /* \"contracts/QuailFinance.sol\":4294:4312  Pot storage newPot */\n      0x00\n        /* \"contracts/QuailFinance.sol\":4315:4319  pots */\n      0x03\n        /* \"contracts/QuailFinance.sol\":4315:4326  pots[potId] */\n      0x00\n        /* \"contracts/QuailFinance.sol\":4320:4325  potId */\n      dup6\n        /* \"contracts/QuailFinance.sol\":4315:4326  pots[potId] */\n      dup2\n      mstore\n      0x20\n      add\n      swap1\n      dup2\n      mstore\n      0x20\n      add\n      0x00\n      keccak256\n        /* \"contracts/QuailFinance.sol\":4294:4326  Pot storage newPot = pots[potId] */\n      swap1\n      pop\n        /* \"contracts/QuailFinance.sol\":4352:4359  _amount */\n      dup5\n        /* \"contracts/QuailFinance.sol\":4336:4342  newPot */\n      dup2\n        /* \"contracts/QuailFinance.sol\":4336:4349  newPot.amount */\n      0x00\n      add\n        /* \"contracts/QuailFinance.sol\":4336:4359  newPot.amount = _amount */\n      dup2\n      swap1\n      sstore\n      pop\n        /* \"contracts/QuailFinance.sol\":4389:4399  msg.sender */\n      caller\n        /* \"contracts/QuailFinance.sol\":4369:4375  newPot */\n      dup2\n        /* \"contracts/QuailFinance.sol\":4369:4386  newPot.potCreator */\n      0x07\n      add\n      0x00\n        /* \"contracts/QuailFinance.sol\":4369:4399  newPot.potCreator = msg.sender */\n      0x0100\n      exp\n      dup2\n      sload\n      dup2\n      0xffffffffffffffffffffffffffffffffffffffff\n      mul\n      not\n      and\n      swap1\n      dup4\n      0xffffffffffffffffffffffffffffffffffffffff\n      and\n      mul\n      or\n      swap1\n      sstore\n      pop\n        /* \"contracts/QuailFinance.sol\":4441:4464  _rotationCycleInSeconds */\n      dup9\n        /* \"contracts/QuailFinance.sol\":4409:4415  newPot */\n      dup2\n        /* \"contracts/QuailFinance.sol\":4409:4438  newPot.rotationCycleInSeconds */\n      0x01\n      add\n        /* \"contracts/QuailFinance.sol\":4409:4464  newPot.rotationCycleInSeconds = _rotationCycleInSeconds */\n      dup2\n      swap1\n      sstore\n      pop\n        /* \"contracts/QuailFinance.sol\":4501:4519  _interestNumerator */\n      dup7\n        /* \"contracts/QuailFinance.sol\":4474:4480  newPot */\n      dup2\n        /* \"contracts/QuailFinance.sol\":4474:4498  newPot.interestNumerator */\n      0x03\n      add\n        /* \"contracts/QuailFinance.sol\":4474:4519  newPot.interestNumerator = _interestNumerator */\n      dup2\n      swap1\n      sstore\n      pop\n        /* \"contracts/QuailFinance.sol\":4558:4578  _interestDenominator */\n      dup8\n        /* \"contracts/QuailFinance.sol\":4529:4535  newPot */\n      dup2\n        /* \"contracts/QuailFinance.sol\":4529:4555  newPot.interestDenominator */\n      0x04\n      add\n        /* \"contracts/QuailFinance.sol\":4529:4578  newPot.interestDenominator = _interestDenominator */\n      dup2\n      swap1\n      sstore\n      pop\n        /* \"contracts/QuailFinance.sol\":4614:4629  block.timestamp */\n      timestamp\n        /* \"contracts/QuailFinance.sol\":4588:4594  newPot */\n      dup2\n        /* \"contracts/QuailFinance.sol\":4588:4611  newPot.lastRotationTime */\n      0x02\n      add\n        /* \"contracts/QuailFinance.sol\":4588:4629  newPot.lastRotationTime = block.timestamp */\n      dup2\n      swap1\n      sstore\n      pop\n        /* \"contracts/QuailFinance.sol\":4664:4680  _numParticipants */\n      dup6\n        /* \"contracts/QuailFinance.sol\":4639:4645  newPot */\n      dup2\n        /* \"contracts/QuailFinance.sol\":4639:4661  newPot.numParticipants */\n      0x05\n      add\n        /* \"contracts/QuailFinance.sol\":4639:4680  newPot.numParticipants = _numParticipants */\n      dup2\n      swap1\n      sstore\n      pop\n        /* \"contracts/QuailFinance.sol\":4712:4713  0 */\n      0x00\n        /* \"contracts/QuailFinance.sol\":4690:4696  newPot */\n      dup2\n        /* \"contracts/QuailFinance.sol\":4690:4709  newPot.currentRound */\n      0x06\n      add\n        /* \"contracts/QuailFinance.sol\":4690:4713  newPot.currentRound = 0 */\n      dup2\n      swap1\n      sstore\n      pop\n        /* \"contracts/QuailFinance.sol\":4745:4757  participants */\n      dup3\n        /* \"contracts/QuailFinance.sol\":4723:4729  newPot */\n      dup2\n        /* \"contracts/QuailFinance.sol\":4723:4742  newPot.participants */\n      0x08\n      add\n        /* \"contracts/QuailFinance.sol\":4723:4757  newPot.participants = participants */\n      swap1\n      dup1\n      mload\n      swap1\n      0x20\n      add\n      swap1\n      tag_112\n      swap3\n      swap2\n      swap1\n      tag_113\n      jump\t// in\n    tag_112:\n      pop\n        /* \"contracts/QuailFinance.sol\":4773:4895  PotCreated(potId, msg.sender, _amount, _rotationCycleInSeconds, _interestNumerator, _interestDenominator,_numParticipants) */\n      0xbf5a50c239a5f6ef5cf2dcc347e3402e3b8ca1424a9e01c38ec78d2406cbd8e0\n        /* \"contracts/QuailFinance.sol\":4784:4789  potId */\n      dup5\n        /* \"contracts/QuailFinance.sol\":4791:4801  msg.sender */\n      caller\n        /* \"contracts/QuailFinance.sol\":4803:4810  _amount */\n      dup8\n        /* \"contracts/QuailFinance.sol\":4812:4835  _rotationCycleInSeconds */\n      dup13\n        /* \"contracts/QuailFinance.sol\":4837:4855  _interestNumerator */\n      dup12\n        /* \"contracts/QuailFinance.sol\":4857:4877  _interestDenominator */\n      dup14\n        /* \"contracts/QuailFinance.sol\":4878:4894  _numParticipants */\n      dup13\n        /* \"contracts/QuailFinance.sol\":4773:4895  PotCreated(potId, msg.sender, _amount, _rotationCycleInSeconds, _interestNumerator, _interestDenominator,_numParticipants) */\n      mload(0x40)\n      tag_114\n      swap8\n      swap7\n      swap6\n      swap5\n      swap4\n      swap3\n      swap2\n      swap1\n      tag_115\n      jump\t// in\n    tag_114:\n      mload(0x40)\n      dup1\n      swap2\n      sub\n      swap1\n      log1\n        /* \"contracts/QuailFinance.sol\":3695:4902  {... */\n      pop\n      pop\n      pop\n      pop\n        /* \"contracts/QuailFinance.sol\":3536:4902  function createPot(uint256 _rotationCycleInSeconds, uint256 _interestDenominator, uint256 _interestNumerator, uint256 _numParticipants, uint256 _amount) public{... */\n      pop\n      pop\n      pop\n      pop\n      pop\n      jump\t// out\n        /* \"contracts/QuailFinance.sol\":5869:6916  function rotateLiquidity(uint256 _potId) public {... */\n    tag_54:\n        /* \"contracts/QuailFinance.sol\":5962:5972  msg.sender */\n      caller\n        /* \"contracts/QuailFinance.sol\":5935:5972  pots[_potId].potCreator == msg.sender */\n      0xffffffffffffffffffffffffffffffffffffffff\n      and\n        /* \"contracts/QuailFinance.sol\":5935:5939  pots */\n      0x03\n        /* \"contracts/QuailFinance.sol\":5935:5947  pots[_potId] */\n      0x00\n        /* \"contracts/QuailFinance.sol\":5940:5946  _potId */\n      dup4\n        /* \"contracts/QuailFinance.sol\":5935:5947  pots[_potId] */\n      dup2\n      mstore\n      0x20\n      add\n      swap1\n      dup2\n      mstore\n      0x20\n      add\n      0x00\n      keccak256\n        /* \"contracts/QuailFinance.sol\":5935:5958  pots[_potId].potCreator */\n      0x07\n      add\n      0x00\n      swap1\n      sload\n      swap1\n      0x0100\n      exp\n      swap1\n      div\n      0xffffffffffffffffffffffffffffffffffffffff\n      and\n        /* \"contracts/QuailFinance.sol\":5935:5972  pots[_potId].potCreator == msg.sender */\n      0xffffffffffffffffffffffffffffffffffffffff\n      and\n      eq\n        /* \"contracts/QuailFinance.sol\":5927:6019  require(pots[_potId].potCreator == msg.sender, \"Only the pot creator can reveal the winner\") */\n      tag_117\n      jumpi\n      mload(0x40)\n      0x08c379a000000000000000000000000000000000000000000000000000000000\n      dup2\n      mstore\n      0x04\n      add\n      tag_118\n      swap1\n      tag_119\n      jump\t// in\n    tag_118:\n      mload(0x40)\n      dup1\n      swap2\n      sub\n      swap1\n      revert\n    tag_117:\n        /* \"contracts/QuailFinance.sol\":6029:6044  Pot storage pot */\n      0x00\n        /* \"contracts/QuailFinance.sol\":6047:6051  pots */\n      0x03\n        /* \"contracts/QuailFinance.sol\":6047:6059  pots[_potId] */\n      0x00\n        /* \"contracts/QuailFinance.sol\":6052:6058  _potId */\n      dup4\n        /* \"contracts/QuailFinance.sol\":6047:6059  pots[_potId] */\n      dup2\n      mstore\n      0x20\n      add\n      swap1\n      dup2\n      mstore\n      0x20\n      add\n      0x00\n      keccak256\n        /* \"contracts/QuailFinance.sol\":6029:6059  Pot storage pot = pots[_potId] */\n      swap1\n      pop\n        /* \"contracts/QuailFinance.sol\":6119:6122  pot */\n      dup1\n        /* \"contracts/QuailFinance.sol\":6119:6145  pot.rotationCycleInSeconds */\n      0x01\n      add\n      sload\n        /* \"contracts/QuailFinance.sol\":6096:6099  pot */\n      dup2\n        /* \"contracts/QuailFinance.sol\":6096:6116  pot.lastRotationTime */\n      0x02\n      add\n      sload\n        /* \"contracts/QuailFinance.sol\":6096:6145  pot.lastRotationTime + pot.rotationCycleInSeconds */\n      tag_120\n      swap2\n      swap1\n      tag_121\n      jump\t// in\n    tag_120:\n        /* \"contracts/QuailFinance.sol\":6077:6092  block.timestamp */\n      timestamp\n        /* \"contracts/QuailFinance.sol\":6077:6145  block.timestamp >= pot.lastRotationTime + pot.rotationCycleInSeconds */\n      lt\n      iszero\n        /* \"contracts/QuailFinance.sol\":6069:6175  require(block.timestamp >= pot.lastRotationTime + pot.rotationCycleInSeconds, \"Next rotation not yet due\") */\n      tag_122\n      jumpi\n      mload(0x40)\n      0x08c379a000000000000000000000000000000000000000000000000000000000\n      dup2\n      mstore\n      0x04\n      add\n      tag_123\n      swap1\n      tag_124\n      jump\t// in\n    tag_123:\n      mload(0x40)\n      dup1\n      swap2\n      sub\n      swap1\n      revert\n    tag_122:\n        /* \"contracts/QuailFinance.sol\":6185:6204  uint256 winnerIndex */\n      0x00\n        /* \"contracts/QuailFinance.sol\":6227:6230  pot */\n      dup2\n        /* \"contracts/QuailFinance.sol\":6227:6246  pot.numParticipants */\n      0x05\n      add\n      sload\n        /* \"contracts/QuailFinance.sol\":6208:6211  pot */\n      dup3\n        /* \"contracts/QuailFinance.sol\":6208:6224  pot.currentRound */\n      0x06\n      add\n      sload\n        /* \"contracts/QuailFinance.sol\":6208:6246  pot.currentRound % pot.numParticipants */\n      tag_125\n      swap2\n      swap1\n      tag_126\n      jump\t// in\n    tag_125:\n        /* \"contracts/QuailFinance.sol\":6185:6247  uint256 winnerIndex = (pot.currentRound % pot.numParticipants) */\n      swap1\n      pop\n        /* \"contracts/QuailFinance.sol\":6300:6314  address winner */\n      0x00\n        /* \"contracts/QuailFinance.sol\":6317:6320  pot */\n      dup3\n        /* \"contracts/QuailFinance.sol\":6317:6333  pot.participants */\n      0x08\n      add\n        /* \"contracts/QuailFinance.sol\":6334:6345  winnerIndex */\n      dup3\n        /* \"contracts/QuailFinance.sol\":6317:6346  pot.participants[winnerIndex] */\n      dup2\n      sload\n      dup2\n      lt\n      tag_127\n      jumpi\n      tag_128\n      tag_129\n      jump\t// in\n    tag_128:\n    tag_127:\n      swap1\n      0x00\n      mstore\n      keccak256(0x00, 0x20)\n      add\n      0x00\n      swap1\n      sload\n      swap1\n      0x0100\n      exp\n      swap1\n      div\n      0xffffffffffffffffffffffffffffffffffffffff\n      and\n        /* \"contracts/QuailFinance.sol\":6300:6346  address winner = pot.participants[winnerIndex] */\n      swap1\n      pop\n        /* \"contracts/QuailFinance.sol\":6460:6482  uint256 totalPotAmount */\n      0x00\n        /* \"contracts/QuailFinance.sol\":6511:6514  pot */\n      dup4\n        /* \"contracts/QuailFinance.sol\":6511:6521  pot.amount */\n      0x00\n      add\n      sload\n        /* \"contracts/QuailFinance.sol\":6485:6488  pot */\n      dup5\n        /* \"contracts/QuailFinance.sol\":6485:6501  pot.participants */\n      0x08\n      add\n        /* \"contracts/QuailFinance.sol\":6485:6508  pot.participants.length */\n      dup1\n      sload\n      swap1\n      pop\n        /* \"contracts/QuailFinance.sol\":6485:6521  pot.participants.length * pot.amount */\n      tag_131\n      swap2\n      swap1\n      tag_132\n      jump\t// in\n    tag_131:\n        /* \"contracts/QuailFinance.sol\":6460:6521  uint256 totalPotAmount = pot.participants.length * pot.amount */\n      swap1\n      pop\n        /* \"contracts/QuailFinance.sol\":6531:6561  uint256 totalPotAmountInterest */\n      0x00\n        /* \"contracts/QuailFinance.sol\":6564:6604  calculateInterest(_potId,totalPotAmount) */\n      tag_133\n        /* \"contracts/QuailFinance.sol\":6582:6588  _potId */\n      dup7\n        /* \"contracts/QuailFinance.sol\":6589:6603  totalPotAmount */\n      dup4\n        /* \"contracts/QuailFinance.sol\":6564:6581  calculateInterest */\n      tag_59\n        /* \"contracts/QuailFinance.sol\":6564:6604  calculateInterest(_potId,totalPotAmount) */\n      jump\t// in\n    tag_133:\n        /* \"contracts/QuailFinance.sol\":6531:6604  uint256 totalPotAmountInterest = calculateInterest(_potId,totalPotAmount) */\n      swap1\n      pop\n        /* \"contracts/QuailFinance.sol\":6622:6631  usdbToken */\n      0x02\n      0x00\n      swap1\n      sload\n      swap1\n      0x0100\n      exp\n      swap1\n      div\n      0xffffffffffffffffffffffffffffffffffffffff\n      and\n        /* \"contracts/QuailFinance.sol\":6622:6640  usdbToken.transfer */\n      0xffffffffffffffffffffffffffffffffffffffff\n      and\n      0xa9059cbb\n        /* \"contracts/QuailFinance.sol\":6641:6651  msg.sender */\n      caller\n        /* \"contracts/QuailFinance.sol\":6668:6690  totalPotAmountInterest */\n      dup4\n        /* \"contracts/QuailFinance.sol\":6653:6667  totalPotAmount */\n      dup6\n        /* \"contracts/QuailFinance.sol\":6653:6690  totalPotAmount-totalPotAmountInterest */\n      tag_134\n      swap2\n      swap1\n      tag_135\n      jump\t// in\n    tag_134:\n        /* \"contracts/QuailFinance.sol\":6622:6691  usdbToken.transfer(msg.sender, totalPotAmount-totalPotAmountInterest) */\n      mload(0x40)\n      dup4\n      0xffffffff\n      and\n      0xe0\n      shl\n      dup2\n      mstore\n      0x04\n      add\n      tag_136\n      swap3\n      swap2\n      swap1\n      tag_137\n      jump\t// in\n    tag_136:\n      0x20\n      mload(0x40)\n      dup1\n      dup4\n      sub\n      dup2\n      0x00\n      dup8\n      gas\n      call\n      iszero\n      dup1\n      iszero\n      tag_139\n      jumpi\n      returndatasize\n      0x00\n      dup1\n      returndatacopy\n      revert(0x00, returndatasize)\n    tag_139:\n      pop\n      pop\n      pop\n      pop\n      mload(0x40)\n      returndatasize\n      not(0x1f)\n      0x1f\n      dup3\n      add\n      and\n      dup3\n      add\n      dup1\n      0x40\n      mstore\n      pop\n      dup2\n      add\n      swap1\n      tag_140\n      swap2\n      swap1\n      tag_85\n      jump\t// in\n    tag_140:\n        /* \"contracts/QuailFinance.sol\":6614:6717  require(usdbToken.transfer(msg.sender, totalPotAmount-totalPotAmountInterest), \"Yield transfer failed\") */\n      tag_141\n      jumpi\n      mload(0x40)\n      0x08c379a000000000000000000000000000000000000000000000000000000000\n      dup2\n      mstore\n      0x04\n      add\n      tag_142\n      swap1\n      tag_143\n      jump\t// in\n    tag_142:\n      mload(0x40)\n      dup1\n      swap2\n      sub\n      swap1\n      revert\n    tag_141:\n        /* \"contracts/QuailFinance.sol\":6750:6765  block.timestamp */\n      timestamp\n        /* \"contracts/QuailFinance.sol\":6727:6730  pot */\n      dup6\n        /* \"contracts/QuailFinance.sol\":6727:6747  pot.lastRotationTime */\n      0x02\n      add\n        /* \"contracts/QuailFinance.sol\":6727:6765  pot.lastRotationTime = block.timestamp */\n      dup2\n      swap1\n      sstore\n      pop\n        /* \"contracts/QuailFinance.sol\":6780:6831  RotationCompleted(_potId, winner, pot.currentRound) */\n      0x35cb3811461cb824b245820eee97ab50ee1cc609f2bdd3bb10f5f0010184a7d3\n        /* \"contracts/QuailFinance.sol\":6798:6804  _potId */\n      dup7\n        /* \"contracts/QuailFinance.sol\":6806:6812  winner */\n      dup5\n        /* \"contracts/QuailFinance.sol\":6814:6817  pot */\n      dup8\n        /* \"contracts/QuailFinance.sol\":6814:6830  pot.currentRound */\n      0x06\n      add\n      sload\n        /* \"contracts/QuailFinance.sol\":6780:6831  RotationCompleted(_potId, winner, pot.currentRound) */\n      mload(0x40)\n      tag_144\n      swap4\n      swap3\n      swap2\n      swap1\n      tag_145\n      jump\t// in\n    tag_144:\n      mload(0x40)\n      dup1\n      swap2\n      sub\n      swap1\n      log1\n        /* \"contracts/QuailFinance.sol\":6891:6894  pot */\n      dup5\n        /* \"contracts/QuailFinance.sol\":6891:6907  pot.currentRound */\n      0x06\n      add\n      0x00\n        /* \"contracts/QuailFinance.sol\":6891:6909  pot.currentRound++ */\n      dup2\n      sload\n      dup1\n      swap3\n      swap2\n      swap1\n      tag_146\n      swap1\n      tag_103\n      jump\t// in\n    tag_146:\n      swap2\n      swap1\n      pop\n      sstore\n      pop\n        /* \"contracts/QuailFinance.sol\":5917:6916  {... */\n      pop\n      pop\n      pop\n      pop\n      pop\n        /* \"contracts/QuailFinance.sol\":5869:6916  function rotateLiquidity(uint256 _potId) public {... */\n      pop\n      jump\t// out\n        /* \"contracts/QuailFinance.sol\":7149:7360  function calculateInterest(uint256 _potId, uint256 _amount) public view returns (uint256) {... */\n    tag_59:\n        /* \"contracts/QuailFinance.sol\":7230:7237  uint256 */\n      0x00\n        /* \"contracts/QuailFinance.sol\":7249:7264  Pot storage pot */\n      dup1\n        /* \"contracts/QuailFinance.sol\":7267:7271  pots */\n      0x03\n        /* \"contracts/QuailFinance.sol\":7267:7279  pots[_potId] */\n      0x00\n        /* \"contracts/QuailFinance.sol\":7272:7278  _potId */\n      dup6\n        /* \"contracts/QuailFinance.sol\":7267:7279  pots[_potId] */\n      dup2\n      mstore\n      0x20\n      add\n      swap1\n      dup2\n      mstore\n      0x20\n      add\n      0x00\n      keccak256\n        /* \"contracts/QuailFinance.sol\":7249:7279  Pot storage pot = pots[_potId] */\n      swap1\n      pop\n        /* \"contracts/QuailFinance.sol\":7330:7333  pot */\n      dup1\n        /* \"contracts/QuailFinance.sol\":7330:7353  pot.interestDenominator */\n      0x04\n      add\n      sload\n        /* \"contracts/QuailFinance.sol\":7306:7309  pot */\n      dup2\n        /* \"contracts/QuailFinance.sol\":7306:7327  pot.interestNumerator */\n      0x03\n      add\n      sload\n        /* \"contracts/QuailFinance.sol\":7296:7303  _amount */\n      dup5\n        /* \"contracts/QuailFinance.sol\":7296:7327  _amount * pot.interestNumerator */\n      tag_148\n      swap2\n      swap1\n      tag_132\n      jump\t// in\n    tag_148:\n        /* \"contracts/QuailFinance.sol\":7296:7353  _amount * pot.interestNumerator / pot.interestDenominator */\n      tag_149\n      swap2\n      swap1\n      tag_150\n      jump\t// in\n    tag_149:\n        /* \"contracts/QuailFinance.sol\":7289:7353  return _amount * pot.interestNumerator / pot.interestDenominator */\n      swap2\n      pop\n      pop\n        /* \"contracts/QuailFinance.sol\":7149:7360  function calculateInterest(uint256 _potId, uint256 _amount) public view returns (uint256) {... */\n      swap3\n      swap2\n      pop\n      pop\n      jump\t// out\n        /* \"contracts/QuailFinance.sol\":7366:7590  function deductRevenue(uint256 _amount) private returns (uint256 netAmount) {... */\n    tag_79:\n        /* \"contracts/QuailFinance.sol\":7423:7440  uint256 netAmount */\n      0x00\n        /* \"contracts/QuailFinance.sol\":7452:7467  uint256 revenue */\n      dup1\n        /* \"contracts/QuailFinance.sol\":7480:7483  100 */\n      0x64\n        /* \"contracts/QuailFinance.sol\":7470:7477  _amount */\n      dup4\n        /* \"contracts/QuailFinance.sol\":7470:7483  _amount / 100 */\n      tag_152\n      swap2\n      swap1\n      tag_150\n      jump\t// in\n    tag_152:\n        /* \"contracts/QuailFinance.sol\":7452:7483  uint256 revenue = _amount / 100 */\n      swap1\n      pop\n        /* \"contracts/QuailFinance.sol\":7515:7522  revenue */\n      dup1\n        /* \"contracts/QuailFinance.sol\":7505:7512  _amount */\n      dup4\n        /* \"contracts/QuailFinance.sol\":7505:7522  _amount - revenue */\n      tag_153\n      swap2\n      swap1\n      tag_135\n      jump\t// in\n    tag_153:\n        /* \"contracts/QuailFinance.sol\":7493:7522  netAmount = _amount - revenue */\n      swap2\n      pop\n        /* \"contracts/QuailFinance.sol\":7548:7555  revenue */\n      dup1\n        /* \"contracts/QuailFinance.sol\":7532:7544  totalRevenue */\n      0x01\n      0x00\n        /* \"contracts/QuailFinance.sol\":7532:7555  totalRevenue += revenue */\n      dup3\n      dup3\n      sload\n      tag_154\n      swap2\n      swap1\n      tag_121\n      jump\t// in\n    tag_154:\n      swap3\n      pop\n      pop\n      dup2\n      swap1\n      sstore\n      pop\n        /* \"contracts/QuailFinance.sol\":7565:7583  return (netAmount) */\n      pop\n        /* \"contracts/QuailFinance.sol\":7366:7590  function deductRevenue(uint256 _amount) private returns (uint256 netAmount) {... */\n      swap2\n      swap1\n      pop\n      jump\t// out\n    tag_113:\n      dup3\n      dup1\n      sload\n      dup3\n      dup3\n      sstore\n      swap1\n      0x00\n      mstore\n      keccak256(0x00, 0x20)\n      swap1\n      dup2\n      add\n      swap3\n      dup3\n      iszero\n      tag_155\n      jumpi\n      swap2\n      0x20\n      mul\n      dup3\n      add\n    tag_156:\n      dup3\n      dup2\n      gt\n      iszero\n      tag_157\n      jumpi\n      dup3\n      mload\n      dup3\n      exp(0x0100, 0x00)\n      dup2\n      sload\n      dup2\n      0xffffffffffffffffffffffffffffffffffffffff\n      mul\n      not\n      and\n      swap1\n      dup4\n      0xffffffffffffffffffffffffffffffffffffffff\n      and\n      mul\n      or\n      swap1\n      sstore\n      pop\n      swap2\n      0x20\n      add\n      swap2\n      swap1\n      0x01\n      add\n      swap1\n      jump(tag_156)\n    tag_157:\n    tag_155:\n      pop\n      swap1\n      pop\n      tag_158\n      swap2\n      swap1\n      tag_159\n      jump\t// in\n    tag_158:\n      pop\n      swap1\n      jump\t// out\n    tag_159:\n    tag_160:\n      dup1\n      dup3\n      gt\n      iszero\n      tag_161\n      jumpi\n      0x00\n      dup2\n      0x00\n      swap1\n      sstore\n      pop\n      0x01\n      add\n      jump(tag_160)\n    tag_161:\n      pop\n      swap1\n      jump\t// out\n        /* \"#utility.yul\":7:133   */\n    tag_162:\n        /* \"#utility.yul\":44:51   */\n      0x00\n        /* \"#utility.yul\":84:126   */\n      0xffffffffffffffffffffffffffffffffffffffff\n        /* \"#utility.yul\":77:82   */\n      dup3\n        /* \"#utility.yul\":73:127   */\n      and\n        /* \"#utility.yul\":62:127   */\n      swap1\n      pop\n        /* \"#utility.yul\":7:133   */\n      swap2\n      swap1\n      pop\n      jump\t// out\n        /* \"#utility.yul\":139:199   */\n    tag_163:\n        /* \"#utility.yul\":167:170   */\n      0x00\n        /* \"#utility.yul\":188:193   */\n      dup2\n        /* \"#utility.yul\":181:193   */\n      swap1\n      pop\n        /* \"#utility.yul\":139:199   */\n      swap2\n      swap1\n      pop\n      jump\t// out\n        /* \"#utility.yul\":205:347   */\n    tag_164:\n        /* \"#utility.yul\":255:264   */\n      0x00\n        /* \"#utility.yul\":288:341   */\n      tag_214\n        /* \"#utility.yul\":306:340   */\n      tag_215\n        /* \"#utility.yul\":315:339   */\n      tag_216\n        /* \"#utility.yul\":333:338   */\n      dup5\n        /* \"#utility.yul\":315:339   */\n      tag_162\n      jump\t// in\n    tag_216:\n        /* \"#utility.yul\":306:340   */\n      tag_163\n      jump\t// in\n    tag_215:\n        /* \"#utility.yul\":288:341   */\n      tag_162\n      jump\t// in\n    tag_214:\n        /* \"#utility.yul\":275:341   */\n      swap1\n      pop\n        /* \"#utility.yul\":205:347   */\n      swap2\n      swap1\n      pop\n      jump\t// out\n        /* \"#utility.yul\":353:479   */\n    tag_165:\n        /* \"#utility.yul\":403:412   */\n      0x00\n        /* \"#utility.yul\":436:473   */\n      tag_218\n        /* \"#utility.yul\":467:472   */\n      dup3\n        /* \"#utility.yul\":436:473   */\n      tag_164\n      jump\t// in\n    tag_218:\n        /* \"#utility.yul\":423:473   */\n      swap1\n      pop\n        /* \"#utility.yul\":353:479   */\n      swap2\n      swap1\n      pop\n      jump\t// out\n        /* \"#utility.yul\":485:633   */\n    tag_166:\n        /* \"#utility.yul\":557:566   */\n      0x00\n        /* \"#utility.yul\":590:627   */\n      tag_220\n        /* \"#utility.yul\":621:626   */\n      dup3\n        /* \"#utility.yul\":590:627   */\n      tag_165\n      jump\t// in\n    tag_220:\n        /* \"#utility.yul\":577:627   */\n      swap1\n      pop\n        /* \"#utility.yul\":485:633   */\n      swap2\n      swap1\n      pop\n      jump\t// out\n        /* \"#utility.yul\":639:814   */\n    tag_167:\n        /* \"#utility.yul\":748:807   */\n      tag_222\n        /* \"#utility.yul\":801:806   */\n      dup2\n        /* \"#utility.yul\":748:807   */\n      tag_166\n      jump\t// in\n    tag_222:\n        /* \"#utility.yul\":743:746   */\n      dup3\n        /* \"#utility.yul\":736:808   */\n      mstore\n        /* \"#utility.yul\":639:814   */\n      pop\n      pop\n      jump\t// out\n        /* \"#utility.yul\":820:1086   */\n    tag_17:\n        /* \"#utility.yul\":935:939   */\n      0x00\n        /* \"#utility.yul\":973:975   */\n      0x20\n        /* \"#utility.yul\":962:971   */\n      dup3\n        /* \"#utility.yul\":958:976   */\n      add\n        /* \"#utility.yul\":950:976   */\n      swap1\n      pop\n        /* \"#utility.yul\":986:1079   */\n      tag_224\n        /* \"#utility.yul\":1076:1077   */\n      0x00\n        /* \"#utility.yul\":1065:1074   */\n      dup4\n        /* \"#utility.yul\":1061:1078   */\n      add\n        /* \"#utility.yul\":1052:1058   */\n      dup5\n        /* \"#utility.yul\":986:1079   */\n      tag_167\n      jump\t// in\n    tag_224:\n        /* \"#utility.yul\":820:1086   */\n      swap3\n      swap2\n      pop\n      pop\n      jump\t// out\n        /* \"#utility.yul\":1092:1231   */\n    tag_168:\n        /* \"#utility.yul\":1155:1164   */\n      0x00\n        /* \"#utility.yul\":1188:1225   */\n      tag_226\n        /* \"#utility.yul\":1219:1224   */\n      dup3\n        /* \"#utility.yul\":1188:1225   */\n      tag_165\n      jump\t// in\n    tag_226:\n        /* \"#utility.yul\":1175:1225   */\n      swap1\n      pop\n        /* \"#utility.yul\":1092:1231   */\n      swap2\n      swap1\n      pop\n      jump\t// out\n        /* \"#utility.yul\":1237:1394   */\n    tag_169:\n        /* \"#utility.yul\":1337:1387   */\n      tag_228\n        /* \"#utility.yul\":1381:1386   */\n      dup2\n        /* \"#utility.yul\":1337:1387   */\n      tag_168\n      jump\t// in\n    tag_228:\n        /* \"#utility.yul\":1332:1335   */\n      dup3\n        /* \"#utility.yul\":1325:1388   */\n      mstore\n        /* \"#utility.yul\":1237:1394   */\n      pop\n      pop\n      jump\t// out\n        /* \"#utility.yul\":1400:1648   */\n    tag_22:\n        /* \"#utility.yul\":1506:1510   */\n      0x00\n        /* \"#utility.yul\":1544:1546   */\n      0x20\n        /* \"#utility.yul\":1533:1542   */\n      dup3\n        /* \"#utility.yul\":1529:1547   */\n      add\n        /* \"#utility.yul\":1521:1547   */\n      swap1\n      pop\n        /* \"#utility.yul\":1557:1641   */\n      tag_230\n        /* \"#utility.yul\":1638:1639   */\n      0x00\n        /* \"#utility.yul\":1627:1636   */\n      dup4\n        /* \"#utility.yul\":1623:1640   */\n      add\n        /* \"#utility.yul\":1614:1620   */\n      dup5\n        /* \"#utility.yul\":1557:1641   */\n      tag_169\n      jump\t// in\n    tag_230:\n        /* \"#utility.yul\":1400:1648   */\n      swap3\n      swap2\n      pop\n      pop\n      jump\t// out\n        /* \"#utility.yul\":1735:1852   */\n    tag_171:\n        /* \"#utility.yul\":1844:1845   */\n      0x00\n        /* \"#utility.yul\":1841:1842   */\n      dup1\n        /* \"#utility.yul\":1834:1846   */\n      revert\n        /* \"#utility.yul\":1981:2058   */\n    tag_173:\n        /* \"#utility.yul\":2018:2025   */\n      0x00\n        /* \"#utility.yul\":2047:2052   */\n      dup2\n        /* \"#utility.yul\":2036:2052   */\n      swap1\n      pop\n        /* \"#utility.yul\":1981:2058   */\n      swap2\n      swap1\n      pop\n      jump\t// out\n        /* \"#utility.yul\":2064:2186   */\n    tag_174:\n        /* \"#utility.yul\":2137:2161   */\n      tag_236\n        /* \"#utility.yul\":2155:2160   */\n      dup2\n        /* \"#utility.yul\":2137:2161   */\n      tag_173\n      jump\t// in\n    tag_236:\n        /* \"#utility.yul\":2130:2135   */\n      dup2\n        /* \"#utility.yul\":2127:2162   */\n      eq\n        /* \"#utility.yul\":2117:2180   */\n      tag_237\n      jumpi\n        /* \"#utility.yul\":2176:2177   */\n      0x00\n        /* \"#utility.yul\":2173:2174   */\n      dup1\n        /* \"#utility.yul\":2166:2178   */\n      revert\n        /* \"#utility.yul\":2117:2180   */\n    tag_237:\n        /* \"#utility.yul\":2064:2186   */\n      pop\n      jump\t// out\n        /* \"#utility.yul\":2192:2331   */\n    tag_175:\n        /* \"#utility.yul\":2238:2243   */\n      0x00\n        /* \"#utility.yul\":2276:2282   */\n      dup2\n        /* \"#utility.yul\":2263:2283   */\n      calldataload\n        /* \"#utility.yul\":2254:2283   */\n      swap1\n      pop\n        /* \"#utility.yul\":2292:2325   */\n      tag_239\n        /* \"#utility.yul\":2319:2324   */\n      dup2\n        /* \"#utility.yul\":2292:2325   */\n      tag_174\n      jump\t// in\n    tag_239:\n        /* \"#utility.yul\":2192:2331   */\n      swap3\n      swap2\n      pop\n      pop\n      jump\t// out\n        /* \"#utility.yul\":2337:2666   */\n    tag_28:\n        /* \"#utility.yul\":2396:2402   */\n      0x00\n        /* \"#utility.yul\":2445:2447   */\n      0x20\n        /* \"#utility.yul\":2433:2442   */\n      dup3\n        /* \"#utility.yul\":2424:2431   */\n      dup5\n        /* \"#utility.yul\":2420:2443   */\n      sub\n        /* \"#utility.yul\":2416:2448   */\n      slt\n        /* \"#utility.yul\":2413:2532   */\n      iszero\n      tag_241\n      jumpi\n        /* \"#utility.yul\":2451:2530   */\n      tag_242\n      tag_171\n      jump\t// in\n    tag_242:\n        /* \"#utility.yul\":2413:2532   */\n    tag_241:\n        /* \"#utility.yul\":2571:2572   */\n      0x00\n        /* \"#utility.yul\":2596:2649   */\n      tag_243\n        /* \"#utility.yul\":2641:2648   */\n      dup5\n        /* \"#utility.yul\":2632:2638   */\n      dup3\n        /* \"#utility.yul\":2621:2630   */\n      dup6\n        /* \"#utility.yul\":2617:2639   */\n      add\n        /* \"#utility.yul\":2596:2649   */\n      tag_175\n      jump\t// in\n    tag_243:\n        /* \"#utility.yul\":2586:2649   */\n      swap2\n      pop\n        /* \"#utility.yul\":2542:2659   */\n      pop\n        /* \"#utility.yul\":2337:2666   */\n      swap3\n      swap2\n      pop\n      pop\n      jump\t// out\n        /* \"#utility.yul\":2672:2811   */\n    tag_176:\n        /* \"#utility.yul\":2735:2744   */\n      0x00\n        /* \"#utility.yul\":2768:2805   */\n      tag_245\n        /* \"#utility.yul\":2799:2804   */\n      dup3\n        /* \"#utility.yul\":2768:2805   */\n      tag_165\n      jump\t// in\n    tag_245:\n        /* \"#utility.yul\":2755:2805   */\n      swap1\n      pop\n        /* \"#utility.yul\":2672:2811   */\n      swap2\n      swap1\n      pop\n      jump\t// out\n        /* \"#utility.yul\":2817:2974   */\n    tag_177:\n        /* \"#utility.yul\":2917:2967   */\n      tag_247\n        /* \"#utility.yul\":2961:2966   */\n      dup2\n        /* \"#utility.yul\":2917:2967   */\n      tag_176\n      jump\t// in\n    tag_247:\n        /* \"#utility.yul\":2912:2915   */\n      dup3\n        /* \"#utility.yul\":2905:2968   */\n      mstore\n        /* \"#utility.yul\":2817:2974   */\n      pop\n      pop\n      jump\t// out\n        /* \"#utility.yul\":2980:3228   */\n    tag_34:\n        /* \"#utility.yul\":3086:3090   */\n      0x00\n        /* \"#utility.yul\":3124:3126   */\n      0x20\n        /* \"#utility.yul\":3113:3122   */\n      dup3\n        /* \"#utility.yul\":3109:3127   */\n      add\n        /* \"#utility.yul\":3101:3127   */\n      swap1\n      pop\n        /* \"#utility.yul\":3137:3221   */\n      tag_249\n        /* \"#utility.yul\":3218:3219   */\n      0x00\n        /* \"#utility.yul\":3207:3216   */\n      dup4\n        /* \"#utility.yul\":3203:3220   */\n      add\n        /* \"#utility.yul\":3194:3200   */\n      dup5\n        /* \"#utility.yul\":3137:3221   */\n      tag_177\n      jump\t// in\n    tag_249:\n        /* \"#utility.yul\":2980:3228   */\n      swap3\n      swap2\n      pop\n      pop\n      jump\t// out\n        /* \"#utility.yul\":3234:3352   */\n    tag_178:\n        /* \"#utility.yul\":3321:3345   */\n      tag_251\n        /* \"#utility.yul\":3339:3344   */\n      dup2\n        /* \"#utility.yul\":3321:3345   */\n      tag_173\n      jump\t// in\n    tag_251:\n        /* \"#utility.yul\":3316:3319   */\n      dup3\n        /* \"#utility.yul\":3309:3346   */\n      mstore\n        /* \"#utility.yul\":3234:3352   */\n      pop\n      pop\n      jump\t// out\n        /* \"#utility.yul\":3358:3580   */\n    tag_39:\n        /* \"#utility.yul\":3451:3455   */\n      0x00\n        /* \"#utility.yul\":3489:3491   */\n      0x20\n        /* \"#utility.yul\":3478:3487   */\n      dup3\n        /* \"#utility.yul\":3474:3492   */\n      add\n        /* \"#utility.yul\":3466:3492   */\n      swap1\n      pop\n        /* \"#utility.yul\":3502:3573   */\n      tag_253\n        /* \"#utility.yul\":3570:3571   */\n      0x00\n        /* \"#utility.yul\":3559:3568   */\n      dup4\n        /* \"#utility.yul\":3555:3572   */\n      add\n        /* \"#utility.yul\":3546:3552   */\n      dup5\n        /* \"#utility.yul\":3502:3573   */\n      tag_178\n      jump\t// in\n    tag_253:\n        /* \"#utility.yul\":3358:3580   */\n      swap3\n      swap2\n      pop\n      pop\n      jump\t// out\n        /* \"#utility.yul\":3586:3682   */\n    tag_179:\n        /* \"#utility.yul\":3623:3630   */\n      0x00\n        /* \"#utility.yul\":3652:3676   */\n      tag_255\n        /* \"#utility.yul\":3670:3675   */\n      dup3\n        /* \"#utility.yul\":3652:3676   */\n      tag_162\n      jump\t// in\n    tag_255:\n        /* \"#utility.yul\":3641:3676   */\n      swap1\n      pop\n        /* \"#utility.yul\":3586:3682   */\n      swap2\n      swap1\n      pop\n      jump\t// out\n        /* \"#utility.yul\":3688:3806   */\n    tag_180:\n        /* \"#utility.yul\":3775:3799   */\n      tag_257\n        /* \"#utility.yul\":3793:3798   */\n      dup2\n        /* \"#utility.yul\":3775:3799   */\n      tag_179\n      jump\t// in\n    tag_257:\n        /* \"#utility.yul\":3770:3773   */\n      dup3\n        /* \"#utility.yul\":3763:3800   */\n      mstore\n        /* \"#utility.yul\":3688:3806   */\n      pop\n      pop\n      jump\t// out\n        /* \"#utility.yul\":3812:4809   */\n    tag_45:\n        /* \"#utility.yul\":4101:4105   */\n      0x00\n        /* \"#utility.yul\":4139:4142   */\n      0x0100\n        /* \"#utility.yul\":4128:4137   */\n      dup3\n        /* \"#utility.yul\":4124:4143   */\n      add\n        /* \"#utility.yul\":4116:4143   */\n      swap1\n      pop\n        /* \"#utility.yul\":4153:4224   */\n      tag_259\n        /* \"#utility.yul\":4221:4222   */\n      0x00\n        /* \"#utility.yul\":4210:4219   */\n      dup4\n        /* \"#utility.yul\":4206:4223   */\n      add\n        /* \"#utility.yul\":4197:4203   */\n      dup12\n        /* \"#utility.yul\":4153:4224   */\n      tag_178\n      jump\t// in\n    tag_259:\n        /* \"#utility.yul\":4234:4306   */\n      tag_260\n        /* \"#utility.yul\":4302:4304   */\n      0x20\n        /* \"#utility.yul\":4291:4300   */\n      dup4\n        /* \"#utility.yul\":4287:4305   */\n      add\n        /* \"#utility.yul\":4278:4284   */\n      dup11\n        /* \"#utility.yul\":4234:4306   */\n      tag_178\n      jump\t// in\n    tag_260:\n        /* \"#utility.yul\":4316:4388   */\n      tag_261\n        /* \"#utility.yul\":4384:4386   */\n      0x40\n        /* \"#utility.yul\":4373:4382   */\n      dup4\n        /* \"#utility.yul\":4369:4387   */\n      add\n        /* \"#utility.yul\":4360:4366   */\n      dup10\n        /* \"#utility.yul\":4316:4388   */\n      tag_178\n      jump\t// in\n    tag_261:\n        /* \"#utility.yul\":4398:4470   */\n      tag_262\n        /* \"#utility.yul\":4466:4468   */\n      0x60\n        /* \"#utility.yul\":4455:4464   */\n      dup4\n        /* \"#utility.yul\":4451:4469   */\n      add\n        /* \"#utility.yul\":4442:4448   */\n      dup9\n        /* \"#utility.yul\":4398:4470   */\n      tag_178\n      jump\t// in\n    tag_262:\n        /* \"#utility.yul\":4480:4553   */\n      tag_263\n        /* \"#utility.yul\":4548:4551   */\n      0x80\n        /* \"#utility.yul\":4537:4546   */\n      dup4\n        /* \"#utility.yul\":4533:4552   */\n      add\n        /* \"#utility.yul\":4524:4530   */\n      dup8\n        /* \"#utility.yul\":4480:4553   */\n      tag_178\n      jump\t// in\n    tag_263:\n        /* \"#utility.yul\":4563:4636   */\n      tag_264\n        /* \"#utility.yul\":4631:4634   */\n      0xa0\n        /* \"#utility.yul\":4620:4629   */\n      dup4\n        /* \"#utility.yul\":4616:4635   */\n      add\n        /* \"#utility.yul\":4607:4613   */\n      dup7\n        /* \"#utility.yul\":4563:4636   */\n      tag_178\n      jump\t// in\n    tag_264:\n        /* \"#utility.yul\":4646:4719   */\n      tag_265\n        /* \"#utility.yul\":4714:4717   */\n      0xc0\n        /* \"#utility.yul\":4703:4712   */\n      dup4\n        /* \"#utility.yul\":4699:4718   */\n      add\n        /* \"#utility.yul\":4690:4696   */\n      dup6\n        /* \"#utility.yul\":4646:4719   */\n      tag_178\n      jump\t// in\n    tag_265:\n        /* \"#utility.yul\":4729:4802   */\n      tag_266\n        /* \"#utility.yul\":4797:4800   */\n      0xe0\n        /* \"#utility.yul\":4786:4795   */\n      dup4\n        /* \"#utility.yul\":4782:4801   */\n      add\n        /* \"#utility.yul\":4773:4779   */\n      dup5\n        /* \"#utility.yul\":4729:4802   */\n      tag_180\n      jump\t// in\n    tag_266:\n        /* \"#utility.yul\":3812:4809   */\n      swap10\n      swap9\n      pop\n      pop\n      pop\n      pop\n      pop\n      pop\n      pop\n      pop\n      pop\n      jump\t// out\n        /* \"#utility.yul\":4815:5726   */\n    tag_49:\n        /* \"#utility.yul\":4910:4916   */\n      0x00\n        /* \"#utility.yul\":4918:4924   */\n      dup1\n        /* \"#utility.yul\":4926:4932   */\n      0x00\n        /* \"#utility.yul\":4934:4940   */\n      dup1\n        /* \"#utility.yul\":4942:4948   */\n      0x00\n        /* \"#utility.yul\":4991:4994   */\n      0xa0\n        /* \"#utility.yul\":4979:4988   */\n      dup7\n        /* \"#utility.yul\":4970:4977   */\n      dup9\n        /* \"#utility.yul\":4966:4989   */\n      sub\n        /* \"#utility.yul\":4962:4995   */\n      slt\n        /* \"#utility.yul\":4959:5079   */\n      iszero\n      tag_268\n      jumpi\n        /* \"#utility.yul\":4998:5077   */\n      tag_269\n      tag_171\n      jump\t// in\n    tag_269:\n        /* \"#utility.yul\":4959:5079   */\n    tag_268:\n        /* \"#utility.yul\":5118:5119   */\n      0x00\n        /* \"#utility.yul\":5143:5196   */\n      tag_270\n        /* \"#utility.yul\":5188:5195   */\n      dup9\n        /* \"#utility.yul\":5179:5185   */\n      dup3\n        /* \"#utility.yul\":5168:5177   */\n      dup10\n        /* \"#utility.yul\":5164:5186   */\n      add\n        /* \"#utility.yul\":5143:5196   */\n      tag_175\n      jump\t// in\n    tag_270:\n        /* \"#utility.yul\":5133:5196   */\n      swap6\n      pop\n        /* \"#utility.yul\":5089:5206   */\n      pop\n        /* \"#utility.yul\":5245:5247   */\n      0x20\n        /* \"#utility.yul\":5271:5324   */\n      tag_271\n        /* \"#utility.yul\":5316:5323   */\n      dup9\n        /* \"#utility.yul\":5307:5313   */\n      dup3\n        /* \"#utility.yul\":5296:5305   */\n      dup10\n        /* \"#utility.yul\":5292:5314   */\n      add\n        /* \"#utility.yul\":5271:5324   */\n      tag_175\n      jump\t// in\n    tag_271:\n        /* \"#utility.yul\":5261:5324   */\n      swap5\n      pop\n        /* \"#utility.yul\":5216:5334   */\n      pop\n        /* \"#utility.yul\":5373:5375   */\n      0x40\n        /* \"#utility.yul\":5399:5452   */\n      tag_272\n        /* \"#utility.yul\":5444:5451   */\n      dup9\n        /* \"#utility.yul\":5435:5441   */\n      dup3\n        /* \"#utility.yul\":5424:5433   */\n      dup10\n        /* \"#utility.yul\":5420:5442   */\n      add\n        /* \"#utility.yul\":5399:5452   */\n      tag_175\n      jump\t// in\n    tag_272:\n        /* \"#utility.yul\":5389:5452   */\n      swap4\n      pop\n        /* \"#utility.yul\":5344:5462   */\n      pop\n        /* \"#utility.yul\":5501:5503   */\n      0x60\n        /* \"#utility.yul\":5527:5580   */\n      tag_273\n        /* \"#utility.yul\":5572:5579   */\n      dup9\n        /* \"#utility.yul\":5563:5569   */\n      dup3\n        /* \"#utility.yul\":5552:5561   */\n      dup10\n        /* \"#utility.yul\":5548:5570   */\n      add\n        /* \"#utility.yul\":5527:5580   */\n      tag_175\n      jump\t// in\n    tag_273:\n        /* \"#utility.yul\":5517:5580   */\n      swap3\n      pop\n        /* \"#utility.yul\":5472:5590   */\n      pop\n        /* \"#utility.yul\":5629:5632   */\n      0x80\n        /* \"#utility.yul\":5656:5709   */\n      tag_274\n        /* \"#utility.yul\":5701:5708   */\n      dup9\n        /* \"#utility.yul\":5692:5698   */\n      dup3\n        /* \"#utility.yul\":5681:5690   */\n      dup10\n        /* \"#utility.yul\":5677:5699   */\n      add\n        /* \"#utility.yul\":5656:5709   */\n      tag_175\n      jump\t// in\n    tag_274:\n        /* \"#utility.yul\":5646:5709   */\n      swap2\n      pop\n        /* \"#utility.yul\":5600:5719   */\n      pop\n        /* \"#utility.yul\":4815:5726   */\n      swap3\n      swap6\n      pop\n      swap3\n      swap6\n      swap1\n      swap4\n      pop\n      jump\t// out\n        /* \"#utility.yul\":5732:6206   */\n    tag_58:\n        /* \"#utility.yul\":5800:5806   */\n      0x00\n        /* \"#utility.yul\":5808:5814   */\n      dup1\n        /* \"#utility.yul\":5857:5859   */\n      0x40\n        /* \"#utility.yul\":5845:5854   */\n      dup4\n        /* \"#utility.yul\":5836:5843   */\n      dup6\n        /* \"#utility.yul\":5832:5855   */\n      sub\n        /* \"#utility.yul\":5828:5860   */\n      slt\n        /* \"#utility.yul\":5825:5944   */\n      iszero\n      tag_276\n      jumpi\n        /* \"#utility.yul\":5863:5942   */\n      tag_277\n      tag_171\n      jump\t// in\n    tag_277:\n        /* \"#utility.yul\":5825:5944   */\n    tag_276:\n        /* \"#utility.yul\":5983:5984   */\n      0x00\n        /* \"#utility.yul\":6008:6061   */\n      tag_278\n        /* \"#utility.yul\":6053:6060   */\n      dup6\n        /* \"#utility.yul\":6044:6050   */\n      dup3\n        /* \"#utility.yul\":6033:6042   */\n      dup7\n        /* \"#utility.yul\":6029:6051   */\n      add\n        /* \"#utility.yul\":6008:6061   */\n      tag_175\n      jump\t// in\n    tag_278:\n        /* \"#utility.yul\":5998:6061   */\n      swap3\n      pop\n        /* \"#utility.yul\":5954:6071   */\n      pop\n        /* \"#utility.yul\":6110:6112   */\n      0x20\n        /* \"#utility.yul\":6136:6189   */\n      tag_279\n        /* \"#utility.yul\":6181:6188   */\n      dup6\n        /* \"#utility.yul\":6172:6178   */\n      dup3\n        /* \"#utility.yul\":6161:6170   */\n      dup7\n        /* \"#utility.yul\":6157:6179   */\n      add\n        /* \"#utility.yul\":6136:6189   */\n      tag_175\n      jump\t// in\n    tag_279:\n        /* \"#utility.yul\":6126:6189   */\n      swap2\n      pop\n        /* \"#utility.yul\":6081:6199   */\n      pop\n        /* \"#utility.yul\":5732:6206   */\n      swap3\n      pop\n      swap3\n      swap1\n      pop\n      jump\t// out\n        /* \"#utility.yul\":6212:6544   */\n    tag_63:\n        /* \"#utility.yul\":6333:6337   */\n      0x00\n        /* \"#utility.yul\":6371:6373   */\n      0x40\n        /* \"#utility.yul\":6360:6369   */\n      dup3\n        /* \"#utility.yul\":6356:6374   */\n      add\n        /* \"#utility.yul\":6348:6374   */\n      swap1\n      pop\n        /* \"#utility.yul\":6384:6455   */\n      tag_281\n        /* \"#utility.yul\":6452:6453   */\n      0x00\n        /* \"#utility.yul\":6441:6450   */\n      dup4\n        /* \"#utility.yul\":6437:6454   */\n      add\n        /* \"#utility.yul\":6428:6434   */\n      dup6\n        /* \"#utility.yul\":6384:6455   */\n      tag_180\n      jump\t// in\n    tag_281:\n        /* \"#utility.yul\":6465:6537   */\n      tag_282\n        /* \"#utility.yul\":6533:6535   */\n      0x20\n        /* \"#utility.yul\":6522:6531   */\n      dup4\n        /* \"#utility.yul\":6518:6536   */\n      add\n        /* \"#utility.yul\":6509:6515   */\n      dup5\n        /* \"#utility.yul\":6465:6537   */\n      tag_180\n      jump\t// in\n    tag_282:\n        /* \"#utility.yul\":6212:6544   */\n      swap4\n      swap3\n      pop\n      pop\n      pop\n      jump\t// out\n        /* \"#utility.yul\":6550:6693   */\n    tag_181:\n        /* \"#utility.yul\":6607:6612   */\n      0x00\n        /* \"#utility.yul\":6638:6644   */\n      dup2\n        /* \"#utility.yul\":6632:6645   */\n      mload\n        /* \"#utility.yul\":6623:6645   */\n      swap1\n      pop\n        /* \"#utility.yul\":6654:6687   */\n      tag_284\n        /* \"#utility.yul\":6681:6686   */\n      dup2\n        /* \"#utility.yul\":6654:6687   */\n      tag_174\n      jump\t// in\n    tag_284:\n        /* \"#utility.yul\":6550:6693   */\n      swap3\n      swap2\n      pop\n      pop\n      jump\t// out\n        /* \"#utility.yul\":6699:7050   */\n    tag_67:\n        /* \"#utility.yul\":6769:6775   */\n      0x00\n        /* \"#utility.yul\":6818:6820   */\n      0x20\n        /* \"#utility.yul\":6806:6815   */\n      dup3\n        /* \"#utility.yul\":6797:6804   */\n      dup5\n        /* \"#utility.yul\":6793:6816   */\n      sub\n        /* \"#utility.yul\":6789:6821   */\n      slt\n        /* \"#utility.yul\":6786:6905   */\n      iszero\n      tag_286\n      jumpi\n        /* \"#utility.yul\":6824:6903   */\n      tag_287\n      tag_171\n      jump\t// in\n    tag_287:\n        /* \"#utility.yul\":6786:6905   */\n    tag_286:\n        /* \"#utility.yul\":6944:6945   */\n      0x00\n        /* \"#utility.yul\":6969:7033   */\n      tag_288\n        /* \"#utility.yul\":7025:7032   */\n      dup5\n        /* \"#utility.yul\":7016:7022   */\n      dup3\n        /* \"#utility.yul\":7005:7014   */\n      dup6\n        /* \"#utility.yul\":7001:7023   */\n      add\n        /* \"#utility.yul\":6969:7033   */\n      tag_181\n      jump\t// in\n    tag_288:\n        /* \"#utility.yul\":6959:7033   */\n      swap2\n      pop\n        /* \"#utility.yul\":6915:7043   */\n      pop\n        /* \"#utility.yul\":6699:7050   */\n      swap3\n      swap2\n      pop\n      pop\n      jump\t// out\n        /* \"#utility.yul\":7056:7225   */\n    tag_182:\n        /* \"#utility.yul\":7140:7151   */\n      0x00\n        /* \"#utility.yul\":7174:7180   */\n      dup3\n        /* \"#utility.yul\":7169:7172   */\n      dup3\n        /* \"#utility.yul\":7162:7181   */\n      mstore\n        /* \"#utility.yul\":7214:7218   */\n      0x20\n        /* \"#utility.yul\":7209:7212   */\n      dup3\n        /* \"#utility.yul\":7205:7219   */\n      add\n        /* \"#utility.yul\":7190:7219   */\n      swap1\n      pop\n        /* \"#utility.yul\":7056:7225   */\n      swap3\n      swap2\n      pop\n      pop\n      jump\t// out\n        /* \"#utility.yul\":7231:7392   */\n    tag_183:\n        /* \"#utility.yul\":7371:7384   */\n      0x506f742069732066756c6c000000000000000000000000000000000000000000\n        /* \"#utility.yul\":7367:7368   */\n      0x00\n        /* \"#utility.yul\":7359:7365   */\n      dup3\n        /* \"#utility.yul\":7355:7369   */\n      add\n        /* \"#utility.yul\":7348:7385   */\n      mstore\n        /* \"#utility.yul\":7231:7392   */\n      pop\n      jump\t// out\n        /* \"#utility.yul\":7398:7764   */\n    tag_184:\n        /* \"#utility.yul\":7540:7543   */\n      0x00\n        /* \"#utility.yul\":7561:7628   */\n      tag_292\n        /* \"#utility.yul\":7625:7627   */\n      0x0b\n        /* \"#utility.yul\":7620:7623   */\n      dup4\n        /* \"#utility.yul\":7561:7628   */\n      tag_182\n      jump\t// in\n    tag_292:\n        /* \"#utility.yul\":7554:7628   */\n      swap2\n      pop\n        /* \"#utility.yul\":7637:7730   */\n      tag_293\n        /* \"#utility.yul\":7726:7729   */\n      dup3\n        /* \"#utility.yul\":7637:7730   */\n      tag_183\n      jump\t// in\n    tag_293:\n        /* \"#utility.yul\":7755:7757   */\n      0x20\n        /* \"#utility.yul\":7750:7753   */\n      dup3\n        /* \"#utility.yul\":7746:7758   */\n      add\n        /* \"#utility.yul\":7739:7758   */\n      swap1\n      pop\n        /* \"#utility.yul\":7398:7764   */\n      swap2\n      swap1\n      pop\n      jump\t// out\n        /* \"#utility.yul\":7770:8189   */\n    tag_71:\n        /* \"#utility.yul\":7936:7940   */\n      0x00\n        /* \"#utility.yul\":7974:7976   */\n      0x20\n        /* \"#utility.yul\":7963:7972   */\n      dup3\n        /* \"#utility.yul\":7959:7977   */\n      add\n        /* \"#utility.yul\":7951:7977   */\n      swap1\n      pop\n        /* \"#utility.yul\":8023:8032   */\n      dup2\n        /* \"#utility.yul\":8017:8021   */\n      dup2\n        /* \"#utility.yul\":8013:8033   */\n      sub\n        /* \"#utility.yul\":8009:8010   */\n      0x00\n        /* \"#utility.yul\":7998:8007   */\n      dup4\n        /* \"#utility.yul\":7994:8011   */\n      add\n        /* \"#utility.yul\":7987:8034   */\n      mstore\n        /* \"#utility.yul\":8051:8182   */\n      tag_295\n        /* \"#utility.yul\":8177:8181   */\n      dup2\n        /* \"#utility.yul\":8051:8182   */\n      tag_184\n      jump\t// in\n    tag_295:\n        /* \"#utility.yul\":8043:8182   */\n      swap1\n      pop\n        /* \"#utility.yul\":7770:8189   */\n      swap2\n      swap1\n      pop\n      jump\t// out\n        /* \"#utility.yul\":8195:8375   */\n    tag_185:\n        /* \"#utility.yul\":8335:8367   */\n      0x526f746174696e6720706f74732063616e6e6f74206265206a6f696e65640000\n        /* \"#utility.yul\":8331:8332   */\n      0x00\n        /* \"#utility.yul\":8323:8329   */\n      dup3\n        /* \"#utility.yul\":8319:8333   */\n      add\n        /* \"#utility.yul\":8312:8368   */\n      mstore\n        /* \"#utility.yul\":8195:8375   */\n      pop\n      jump\t// out\n        /* \"#utility.yul\":8381:8747   */\n    tag_186:\n        /* \"#utility.yul\":8523:8526   */\n      0x00\n        /* \"#utility.yul\":8544:8611   */\n      tag_298\n        /* \"#utility.yul\":8608:8610   */\n      0x1e\n        /* \"#utility.yul\":8603:8606   */\n      dup4\n        /* \"#utility.yul\":8544:8611   */\n      tag_182\n      jump\t// in\n    tag_298:\n        /* \"#utility.yul\":8537:8611   */\n      swap2\n      pop\n        /* \"#utility.yul\":8620:8713   */\n      tag_299\n        /* \"#utility.yul\":8709:8712   */\n      dup3\n        /* \"#utility.yul\":8620:8713   */\n      tag_185\n      jump\t// in\n    tag_299:\n        /* \"#utility.yul\":8738:8740   */\n      0x20\n        /* \"#utility.yul\":8733:8736   */\n      dup3\n        /* \"#utility.yul\":8729:8741   */\n      add\n        /* \"#utility.yul\":8722:8741   */\n      swap1\n      pop\n        /* \"#utility.yul\":8381:8747   */\n      swap2\n      swap1\n      pop\n      jump\t// out\n        /* \"#utility.yul\":8753:9172   */\n    tag_74:\n        /* \"#utility.yul\":8919:8923   */\n      0x00\n        /* \"#utility.yul\":8957:8959   */\n      0x20\n        /* \"#utility.yul\":8946:8955   */\n      dup3\n        /* \"#utility.yul\":8942:8960   */\n      add\n        /* \"#utility.yul\":8934:8960   */\n      swap1\n      pop\n        /* \"#utility.yul\":9006:9015   */\n      dup2\n        /* \"#utility.yul\":9000:9004   */\n      dup2\n        /* \"#utility.yul\":8996:9016   */\n      sub\n        /* \"#utility.yul\":8992:8993   */\n      0x00\n        /* \"#utility.yul\":8981:8990   */\n      dup4\n        /* \"#utility.yul\":8977:8994   */\n      add\n        /* \"#utility.yul\":8970:9017   */\n      mstore\n        /* \"#utility.yul\":9034:9165   */\n      tag_301\n        /* \"#utility.yul\":9160:9164   */\n      dup2\n        /* \"#utility.yul\":9034:9165   */\n      tag_186\n      jump\t// in\n    tag_301:\n        /* \"#utility.yul\":9026:9165   */\n      swap1\n      pop\n        /* \"#utility.yul\":8753:9172   */\n      swap2\n      swap1\n      pop\n      jump\t// out\n        /* \"#utility.yul\":9178:9342   */\n    tag_187:\n        /* \"#utility.yul\":9318:9334   */\n      0x416c7265616479206a6f696e6564000000000000000000000000000000000000\n        /* \"#utility.yul\":9314:9315   */\n      0x00\n        /* \"#utility.yul\":9306:9312   */\n      dup3\n        /* \"#utility.yul\":9302:9316   */\n      add\n        /* \"#utility.yul\":9295:9335   */\n      mstore\n        /* \"#utility.yul\":9178:9342   */\n      pop\n      jump\t// out\n        /* \"#utility.yul\":9348:9714   */\n    tag_188:\n        /* \"#utility.yul\":9490:9493   */\n      0x00\n        /* \"#utility.yul\":9511:9578   */\n      tag_304\n        /* \"#utility.yul\":9575:9577   */\n      0x0e\n        /* \"#utility.yul\":9570:9573   */\n      dup4\n        /* \"#utility.yul\":9511:9578   */\n      tag_182\n      jump\t// in\n    tag_304:\n        /* \"#utility.yul\":9504:9578   */\n      swap2\n      pop\n        /* \"#utility.yul\":9587:9680   */\n      tag_305\n        /* \"#utility.yul\":9676:9679   */\n      dup3\n        /* \"#utility.yul\":9587:9680   */\n      tag_187\n      jump\t// in\n    tag_305:\n        /* \"#utility.yul\":9705:9707   */\n      0x20\n        /* \"#utility.yul\":9700:9703   */\n      dup3\n        /* \"#utility.yul\":9696:9708   */\n      add\n        /* \"#utility.yul\":9689:9708   */\n      swap1\n      pop\n        /* \"#utility.yul\":9348:9714   */\n      swap2\n      swap1\n      pop\n      jump\t// out\n        /* \"#utility.yul\":9720:10139   */\n    tag_77:\n        /* \"#utility.yul\":9886:9890   */\n      0x00\n        /* \"#utility.yul\":9924:9926   */\n      0x20\n        /* \"#utility.yul\":9913:9922   */\n      dup3\n        /* \"#utility.yul\":9909:9927   */\n      add\n        /* \"#utility.yul\":9901:9927   */\n      swap1\n      pop\n        /* \"#utility.yul\":9973:9982   */\n      dup2\n        /* \"#utility.yul\":9967:9971   */\n      dup2\n        /* \"#utility.yul\":9963:9983   */\n      sub\n        /* \"#utility.yul\":9959:9960   */\n      0x00\n        /* \"#utility.yul\":9948:9957   */\n      dup4\n        /* \"#utility.yul\":9944:9961   */\n      add\n        /* \"#utility.yul\":9937:9984   */\n      mstore\n        /* \"#utility.yul\":10001:10132   */\n      tag_307\n        /* \"#utility.yul\":10127:10131   */\n      dup2\n        /* \"#utility.yul\":10001:10132   */\n      tag_188\n      jump\t// in\n    tag_307:\n        /* \"#utility.yul\":9993:10132   */\n      swap1\n      pop\n        /* \"#utility.yul\":9720:10139   */\n      swap2\n      swap1\n      pop\n      jump\t// out\n        /* \"#utility.yul\":10145:10587   */\n    tag_81:\n        /* \"#utility.yul\":10294:10298   */\n      0x00\n        /* \"#utility.yul\":10332:10334   */\n      0x60\n        /* \"#utility.yul\":10321:10330   */\n      dup3\n        /* \"#utility.yul\":10317:10335   */\n      add\n        /* \"#utility.yul\":10309:10335   */\n      swap1\n      pop\n        /* \"#utility.yul\":10345:10416   */\n      tag_309\n        /* \"#utility.yul\":10413:10414   */\n      0x00\n        /* \"#utility.yul\":10402:10411   */\n      dup4\n        /* \"#utility.yul\":10398:10415   */\n      add\n        /* \"#utility.yul\":10389:10395   */\n      dup7\n        /* \"#utility.yul\":10345:10416   */\n      tag_180\n      jump\t// in\n    tag_309:\n        /* \"#utility.yul\":10426:10498   */\n      tag_310\n        /* \"#utility.yul\":10494:10496   */\n      0x20\n        /* \"#utility.yul\":10483:10492   */\n      dup4\n        /* \"#utility.yul\":10479:10497   */\n      add\n        /* \"#utility.yul\":10470:10476   */\n      dup6\n        /* \"#utility.yul\":10426:10498   */\n      tag_180\n      jump\t// in\n    tag_310:\n        /* \"#utility.yul\":10508:10580   */\n      tag_311\n        /* \"#utility.yul\":10576:10578   */\n      0x40\n        /* \"#utility.yul\":10565:10574   */\n      dup4\n        /* \"#utility.yul\":10561:10579   */\n      add\n        /* \"#utility.yul\":10552:10558   */\n      dup5\n        /* \"#utility.yul\":10508:10580   */\n      tag_178\n      jump\t// in\n    tag_311:\n        /* \"#utility.yul\":10145:10587   */\n      swap5\n      swap4\n      pop\n      pop\n      pop\n      pop\n      jump\t// out\n        /* \"#utility.yul\":10593:10683   */\n    tag_189:\n        /* \"#utility.yul\":10627:10634   */\n      0x00\n        /* \"#utility.yul\":10670:10675   */\n      dup2\n        /* \"#utility.yul\":10663:10676   */\n      iszero\n        /* \"#utility.yul\":10656:10677   */\n      iszero\n        /* \"#utility.yul\":10645:10677   */\n      swap1\n      pop\n        /* \"#utility.yul\":10593:10683   */\n      swap2\n      swap1\n      pop\n      jump\t// out\n        /* \"#utility.yul\":10689:10805   */\n    tag_190:\n        /* \"#utility.yul\":10759:10780   */\n      tag_314\n        /* \"#utility.yul\":10774:10779   */\n      dup2\n        /* \"#utility.yul\":10759:10780   */\n      tag_189\n      jump\t// in\n    tag_314:\n        /* \"#utility.yul\":10752:10757   */\n      dup2\n        /* \"#utility.yul\":10749:10781   */\n      eq\n        /* \"#utility.yul\":10739:10799   */\n      tag_315\n      jumpi\n        /* \"#utility.yul\":10795:10796   */\n      0x00\n        /* \"#utility.yul\":10792:10793   */\n      dup1\n        /* \"#utility.yul\":10785:10797   */\n      revert\n        /* \"#utility.yul\":10739:10799   */\n    tag_315:\n        /* \"#utility.yul\":10689:10805   */\n      pop\n      jump\t// out\n        /* \"#utility.yul\":10811:10948   */\n    tag_191:\n        /* \"#utility.yul\":10865:10870   */\n      0x00\n        /* \"#utility.yul\":10896:10902   */\n      dup2\n        /* \"#utility.yul\":10890:10903   */\n      mload\n        /* \"#utility.yul\":10881:10903   */\n      swap1\n      pop\n        /* \"#utility.yul\":10912:10942   */\n      tag_317\n        /* \"#utility.yul\":10936:10941   */\n      dup2\n        /* \"#utility.yul\":10912:10942   */\n      tag_190\n      jump\t// in\n    tag_317:\n        /* \"#utility.yul\":10811:10948   */\n      swap3\n      swap2\n      pop\n      pop\n      jump\t// out\n        /* \"#utility.yul\":10954:11299   */\n    tag_85:\n        /* \"#utility.yul\":11021:11027   */\n      0x00\n        /* \"#utility.yul\":11070:11072   */\n      0x20\n        /* \"#utility.yul\":11058:11067   */\n      dup3\n        /* \"#utility.yul\":11049:11056   */\n      dup5\n        /* \"#utility.yul\":11045:11068   */\n      sub\n        /* \"#utility.yul\":11041:11073   */\n      slt\n        /* \"#utility.yul\":11038:11157   */\n      iszero\n      tag_319\n      jumpi\n        /* \"#utility.yul\":11076:11155   */\n      tag_320\n      tag_171\n      jump\t// in\n    tag_320:\n        /* \"#utility.yul\":11038:11157   */\n    tag_319:\n        /* \"#utility.yul\":11196:11197   */\n      0x00\n        /* \"#utility.yul\":11221:11282   */\n      tag_321\n        /* \"#utility.yul\":11274:11281   */\n      dup5\n        /* \"#utility.yul\":11265:11271   */\n      dup3\n        /* \"#utility.yul\":11254:11263   */\n      dup6\n        /* \"#utility.yul\":11250:11272   */\n      add\n        /* \"#utility.yul\":11221:11282   */\n      tag_191\n      jump\t// in\n    tag_321:\n        /* \"#utility.yul\":11211:11282   */\n      swap2\n      pop\n        /* \"#utility.yul\":11167:11292   */\n      pop\n        /* \"#utility.yul\":10954:11299   */\n      swap3\n      swap2\n      pop\n      pop\n      jump\t// out\n        /* \"#utility.yul\":11305:11470   */\n    tag_192:\n        /* \"#utility.yul\":11445:11462   */\n      0x5472616e73666572206661696c65640000000000000000000000000000000000\n        /* \"#utility.yul\":11441:11442   */\n      0x00\n        /* \"#utility.yul\":11433:11439   */\n      dup3\n        /* \"#utility.yul\":11429:11443   */\n      add\n        /* \"#utility.yul\":11422:11463   */\n      mstore\n        /* \"#utility.yul\":11305:11470   */\n      pop\n      jump\t// out\n        /* \"#utility.yul\":11476:11842   */\n    tag_193:\n        /* \"#utility.yul\":11618:11621   */\n      0x00\n        /* \"#utility.yul\":11639:11706   */\n      tag_324\n        /* \"#utility.yul\":11703:11705   */\n      0x0f\n        /* \"#utility.yul\":11698:11701   */\n      dup4\n        /* \"#utility.yul\":11639:11706   */\n      tag_182\n      jump\t// in\n    tag_324:\n        /* \"#utility.yul\":11632:11706   */\n      swap2\n      pop\n        /* \"#utility.yul\":11715:11808   */\n      tag_325\n        /* \"#utility.yul\":11804:11807   */\n      dup3\n        /* \"#utility.yul\":11715:11808   */\n      tag_192\n      jump\t// in\n    tag_325:\n        /* \"#utility.yul\":11833:11835   */\n      0x20\n        /* \"#utility.yul\":11828:11831   */\n      dup3\n        /* \"#utility.yul\":11824:11836   */\n      add\n        /* \"#utility.yul\":11817:11836   */\n      swap1\n      pop\n        /* \"#utility.yul\":11476:11842   */\n      swap2\n      swap1\n      pop\n      jump\t// out\n        /* \"#utility.yul\":11848:12267   */\n    tag_88:\n        /* \"#utility.yul\":12014:12018   */\n      0x00\n        /* \"#utility.yul\":12052:12054   */\n      0x20\n        /* \"#utility.yul\":12041:12050   */\n      dup3\n        /* \"#utility.yul\":12037:12055   */\n      add\n        /* \"#utility.yul\":12029:12055   */\n      swap1\n      pop\n        /* \"#utility.yul\":12101:12110   */\n      dup2\n        /* \"#utility.yul\":12095:12099   */\n      dup2\n        /* \"#utility.yul\":12091:12111   */\n      sub\n        /* \"#utility.yul\":12087:12088   */\n      0x00\n        /* \"#utility.yul\":12076:12085   */\n      dup4\n        /* \"#utility.yul\":12072:12089   */\n      add\n        /* \"#utility.yul\":12065:12112   */\n      mstore\n        /* \"#utility.yul\":12129:12260   */\n      tag_327\n        /* \"#utility.yul\":12255:12259   */\n      dup2\n        /* \"#utility.yul\":12129:12260   */\n      tag_193\n      jump\t// in\n    tag_327:\n        /* \"#utility.yul\":12121:12260   */\n      swap1\n      pop\n        /* \"#utility.yul\":11848:12267   */\n      swap2\n      swap1\n      pop\n      jump\t// out\n        /* \"#utility.yul\":12273:12605   */\n    tag_91:\n        /* \"#utility.yul\":12394:12398   */\n      0x00\n        /* \"#utility.yul\":12432:12434   */\n      0x40\n        /* \"#utility.yul\":12421:12430   */\n      dup3\n        /* \"#utility.yul\":12417:12435   */\n      add\n        /* \"#utility.yul\":12409:12435   */\n      swap1\n      pop\n        /* \"#utility.yul\":12445:12516   */\n      tag_329\n        /* \"#utility.yul\":12513:12514   */\n      0x00\n        /* \"#utility.yul\":12502:12511   */\n      dup4\n        /* \"#utility.yul\":12498:12515   */\n      add\n        /* \"#utility.yul\":12489:12495   */\n      dup6\n        /* \"#utility.yul\":12445:12516   */\n      tag_178\n      jump\t// in\n    tag_329:\n        /* \"#utility.yul\":12526:12598   */\n      tag_330\n        /* \"#utility.yul\":12594:12596   */\n      0x20\n        /* \"#utility.yul\":12583:12592   */\n      dup4\n        /* \"#utility.yul\":12579:12597   */\n      add\n        /* \"#utility.yul\":12570:12576   */\n      dup5\n        /* \"#utility.yul\":12526:12598   */\n      tag_180\n      jump\t// in\n    tag_330:\n        /* \"#utility.yul\":12273:12605   */\n      swap4\n      swap3\n      pop\n      pop\n      pop\n      jump\t// out\n        /* \"#utility.yul\":12611:12792   */\n    tag_194:\n        /* \"#utility.yul\":12751:12784   */\n      0x526f746174696f6e206379636c65206d75737420626520706f73697469766500\n        /* \"#utility.yul\":12747:12748   */\n      0x00\n        /* \"#utility.yul\":12739:12745   */\n      dup3\n        /* \"#utility.yul\":12735:12749   */\n      add\n        /* \"#utility.yul\":12728:12785   */\n      mstore\n        /* \"#utility.yul\":12611:12792   */\n      pop\n      jump\t// out\n        /* \"#utility.yul\":12798:13164   */\n    tag_195:\n        /* \"#utility.yul\":12940:12943   */\n      0x00\n        /* \"#utility.yul\":12961:13028   */\n      tag_333\n        /* \"#utility.yul\":13025:13027   */\n      0x1f\n        /* \"#utility.yul\":13020:13023   */\n      dup4\n        /* \"#utility.yul\":12961:13028   */\n      tag_182\n      jump\t// in\n    tag_333:\n        /* \"#utility.yul\":12954:13028   */\n      swap2\n      pop\n        /* \"#utility.yul\":13037:13130   */\n      tag_334\n        /* \"#utility.yul\":13126:13129   */\n      dup3\n        /* \"#utility.yul\":13037:13130   */\n      tag_194\n      jump\t// in\n    tag_334:\n        /* \"#utility.yul\":13155:13157   */\n      0x20\n        /* \"#utility.yul\":13150:13153   */\n      dup3\n        /* \"#utility.yul\":13146:13158   */\n      add\n        /* \"#utility.yul\":13139:13158   */\n      swap1\n      pop\n        /* \"#utility.yul\":12798:13164   */\n      swap2\n      swap1\n      pop\n      jump\t// out\n        /* \"#utility.yul\":13170:13589   */\n    tag_95:\n        /* \"#utility.yul\":13336:13340   */\n      0x00\n        /* \"#utility.yul\":13374:13376   */\n      0x20\n        /* \"#utility.yul\":13363:13372   */\n      dup3\n        /* \"#utility.yul\":13359:13377   */\n      add\n        /* \"#utility.yul\":13351:13377   */\n      swap1\n      pop\n        /* \"#utility.yul\":13423:13432   */\n      dup2\n        /* \"#utility.yul\":13417:13421   */\n      dup2\n        /* \"#utility.yul\":13413:13433   */\n      sub\n        /* \"#utility.yul\":13409:13410   */\n      0x00\n        /* \"#utility.yul\":13398:13407   */\n      dup4\n        /* \"#utility.yul\":13394:13411   */\n      add\n        /* \"#utility.yul\":13387:13434   */\n      mstore\n        /* \"#utility.yul\":13451:13582   */\n      tag_336\n        /* \"#utility.yul\":13577:13581   */\n      dup2\n        /* \"#utility.yul\":13451:13582   */\n      tag_195\n      jump\t// in\n    tag_336:\n        /* \"#utility.yul\":13443:13582   */\n      swap1\n      pop\n        /* \"#utility.yul\":13170:13589   */\n      swap2\n      swap1\n      pop\n      jump\t// out\n        /* \"#utility.yul\":13595:13819   */\n    tag_196:\n        /* \"#utility.yul\":13735:13769   */\n      0x496e7465726573742064656e6f6d696e61746f72206d75737420626520706f73\n        /* \"#utility.yul\":13731:13732   */\n      0x00\n        /* \"#utility.yul\":13723:13729   */\n      dup3\n        /* \"#utility.yul\":13719:13733   */\n      add\n        /* \"#utility.yul\":13712:13770   */\n      mstore\n        /* \"#utility.yul\":13804:13811   */\n      0x6974697665000000000000000000000000000000000000000000000000000000\n        /* \"#utility.yul\":13799:13801   */\n      0x20\n        /* \"#utility.yul\":13791:13797   */\n      dup3\n        /* \"#utility.yul\":13787:13802   */\n      add\n        /* \"#utility.yul\":13780:13812   */\n      mstore\n        /* \"#utility.yul\":13595:13819   */\n      pop\n      jump\t// out\n        /* \"#utility.yul\":13825:14191   */\n    tag_197:\n        /* \"#utility.yul\":13967:13970   */\n      0x00\n        /* \"#utility.yul\":13988:14055   */\n      tag_339\n        /* \"#utility.yul\":14052:14054   */\n      0x25\n        /* \"#utility.yul\":14047:14050   */\n      dup4\n        /* \"#utility.yul\":13988:14055   */\n      tag_182\n      jump\t// in\n    tag_339:\n        /* \"#utility.yul\":13981:14055   */\n      swap2\n      pop\n        /* \"#utility.yul\":14064:14157   */\n      tag_340\n        /* \"#utility.yul\":14153:14156   */\n      dup3\n        /* \"#utility.yul\":14064:14157   */\n      tag_196\n      jump\t// in\n    tag_340:\n        /* \"#utility.yul\":14182:14184   */\n      0x40\n        /* \"#utility.yul\":14177:14180   */\n      dup3\n        /* \"#utility.yul\":14173:14185   */\n      add\n        /* \"#utility.yul\":14166:14185   */\n      swap1\n      pop\n        /* \"#utility.yul\":13825:14191   */\n      swap2\n      swap1\n      pop\n      jump\t// out\n        /* \"#utility.yul\":14197:14616   */\n    tag_98:\n        /* \"#utility.yul\":14363:14367   */\n      0x00\n        /* \"#utility.yul\":14401:14403   */\n      0x20\n        /* \"#utility.yul\":14390:14399   */\n      dup3\n        /* \"#utility.yul\":14386:14404   */\n      add\n        /* \"#utility.yul\":14378:14404   */\n      swap1\n      pop\n        /* \"#utility.yul\":14450:14459   */\n      dup2\n        /* \"#utility.yul\":14444:14448   */\n      dup2\n        /* \"#utility.yul\":14440:14460   */\n      sub\n        /* \"#utility.yul\":14436:14437   */\n      0x00\n        /* \"#utility.yul\":14425:14434   */\n      dup4\n        /* \"#utility.yul\":14421:14438   */\n      add\n        /* \"#utility.yul\":14414:14461   */\n      mstore\n        /* \"#utility.yul\":14478:14609   */\n      tag_342\n        /* \"#utility.yul\":14604:14608   */\n      dup2\n        /* \"#utility.yul\":14478:14609   */\n      tag_197\n      jump\t// in\n    tag_342:\n        /* \"#utility.yul\":14470:14609   */\n      swap1\n      pop\n        /* \"#utility.yul\":14197:14616   */\n      swap2\n      swap1\n      pop\n      jump\t// out\n        /* \"#utility.yul\":14622:14860   */\n    tag_198:\n        /* \"#utility.yul\":14762:14796   */\n      0x4e756d657261746f72206d757374206265206c657373207468616e206f722065\n        /* \"#utility.yul\":14758:14759   */\n      0x00\n        /* \"#utility.yul\":14750:14756   */\n      dup3\n        /* \"#utility.yul\":14746:14760   */\n      add\n        /* \"#utility.yul\":14739:14797   */\n      mstore\n        /* \"#utility.yul\":14831:14852   */\n      0x7175616c20746f2064656e6f6d696e61746f7200000000000000000000000000\n        /* \"#utility.yul\":14826:14828   */\n      0x20\n        /* \"#utility.yul\":14818:14824   */\n      dup3\n        /* \"#utility.yul\":14814:14829   */\n      add\n        /* \"#utility.yul\":14807:14853   */\n      mstore\n        /* \"#utility.yul\":14622:14860   */\n      pop\n      jump\t// out\n        /* \"#utility.yul\":14866:15232   */\n    tag_199:\n        /* \"#utility.yul\":15008:15011   */\n      0x00\n        /* \"#utility.yul\":15029:15096   */\n      tag_345\n        /* \"#utility.yul\":15093:15095   */\n      0x33\n        /* \"#utility.yul\":15088:15091   */\n      dup4\n        /* \"#utility.yul\":15029:15096   */\n      tag_182\n      jump\t// in\n    tag_345:\n        /* \"#utility.yul\":15022:15096   */\n      swap2\n      pop\n        /* \"#utility.yul\":15105:15198   */\n      tag_346\n        /* \"#utility.yul\":15194:15197   */\n      dup3\n        /* \"#utility.yul\":15105:15198   */\n      tag_198\n      jump\t// in\n    tag_346:\n        /* \"#utility.yul\":15223:15225   */\n      0x40\n        /* \"#utility.yul\":15218:15221   */\n      dup3\n        /* \"#utility.yul\":15214:15226   */\n      add\n        /* \"#utility.yul\":15207:15226   */\n      swap1\n      pop\n        /* \"#utility.yul\":14866:15232   */\n      swap2\n      swap1\n      pop\n      jump\t// out\n        /* \"#utility.yul\":15238:15657   */\n    tag_101:\n        /* \"#utility.yul\":15404:15408   */\n      0x00\n        /* \"#utility.yul\":15442:15444   */\n      0x20\n        /* \"#utility.yul\":15431:15440   */\n      dup3\n        /* \"#utility.yul\":15427:15445   */\n      add\n        /* \"#utility.yul\":15419:15445   */\n      swap1\n      pop\n        /* \"#utility.yul\":15491:15500   */\n      dup2\n        /* \"#utility.yul\":15485:15489   */\n      dup2\n        /* \"#utility.yul\":15481:15501   */\n      sub\n        /* \"#utility.yul\":15477:15478   */\n      0x00\n        /* \"#utility.yul\":15466:15475   */\n      dup4\n        /* \"#utility.yul\":15462:15479   */\n      add\n        /* \"#utility.yul\":15455:15502   */\n      mstore\n        /* \"#utility.yul\":15519:15650   */\n      tag_348\n        /* \"#utility.yul\":15645:15649   */\n      dup2\n        /* \"#utility.yul\":15519:15650   */\n      tag_199\n      jump\t// in\n    tag_348:\n        /* \"#utility.yul\":15511:15650   */\n      swap1\n      pop\n        /* \"#utility.yul\":15238:15657   */\n      swap2\n      swap1\n      pop\n      jump\t// out\n        /* \"#utility.yul\":15663:15843   */\n    tag_200:\n        /* \"#utility.yul\":15711:15788   */\n      0x4e487b7100000000000000000000000000000000000000000000000000000000\n        /* \"#utility.yul\":15708:15709   */\n      0x00\n        /* \"#utility.yul\":15701:15789   */\n      mstore\n        /* \"#utility.yul\":15808:15812   */\n      0x11\n        /* \"#utility.yul\":15805:15806   */\n      0x04\n        /* \"#utility.yul\":15798:15813   */\n      mstore\n        /* \"#utility.yul\":15832:15836   */\n      0x24\n        /* \"#utility.yul\":15829:15830   */\n      0x00\n        /* \"#utility.yul\":15822:15837   */\n      revert\n        /* \"#utility.yul\":15849:16082   */\n    tag_103:\n        /* \"#utility.yul\":15888:15891   */\n      0x00\n        /* \"#utility.yul\":15911:15935   */\n      tag_351\n        /* \"#utility.yul\":15929:15934   */\n      dup3\n        /* \"#utility.yul\":15911:15935   */\n      tag_173\n      jump\t// in\n    tag_351:\n        /* \"#utility.yul\":15902:15935   */\n      swap2\n      pop\n        /* \"#utility.yul\":15957:16023   */\n      0xffffffffffffffffffffffffffffffffffffffffffffffffffffffffffffffff\n        /* \"#utility.yul\":15950:15955   */\n      dup3\n        /* \"#utility.yul\":15947:16024   */\n      sub\n        /* \"#utility.yul\":15944:16047   */\n      tag_352\n      jumpi\n        /* \"#utility.yul\":16027:16045   */\n      tag_353\n      tag_200\n      jump\t// in\n    tag_353:\n        /* \"#utility.yul\":15944:16047   */\n    tag_352:\n        /* \"#utility.yul\":16074:16075   */\n      0x01\n        /* \"#utility.yul\":16067:16072   */\n      dup3\n        /* \"#utility.yul\":16063:16076   */\n      add\n        /* \"#utility.yul\":16056:16076   */\n      swap1\n      pop\n        /* \"#utility.yul\":15849:16082   */\n      swap2\n      swap1\n      pop\n      jump\t// out\n        /* \"#utility.yul\":16088:16316   */\n    tag_201:\n        /* \"#utility.yul\":16228:16262   */\n      0x43726561746f722073686f756c64206465706f7369742074686520696e697469\n        /* \"#utility.yul\":16224:16225   */\n      0x00\n        /* \"#utility.yul\":16216:16222   */\n      dup3\n        /* \"#utility.yul\":16212:16226   */\n      add\n        /* \"#utility.yul\":16205:16263   */\n      mstore\n        /* \"#utility.yul\":16297:16308   */\n      0x616c20616d6f756e740000000000000000000000000000000000000000000000\n        /* \"#utility.yul\":16292:16294   */\n      0x20\n        /* \"#utility.yul\":16284:16290   */\n      dup3\n        /* \"#utility.yul\":16280:16295   */\n      add\n        /* \"#utility.yul\":16273:16309   */\n      mstore\n        /* \"#utility.yul\":16088:16316   */\n      pop\n      jump\t// out\n        /* \"#utility.yul\":16322:16688   */\n    tag_202:\n        /* \"#utility.yul\":16464:16467   */\n      0x00\n        /* \"#utility.yul\":16485:16552   */\n      tag_356\n        /* \"#utility.yul\":16549:16551   */\n      0x29\n        /* \"#utility.yul\":16544:16547   */\n      dup4\n        /* \"#utility.yul\":16485:16552   */\n      tag_182\n      jump\t// in\n    tag_356:\n        /* \"#utility.yul\":16478:16552   */\n      swap2\n      pop\n        /* \"#utility.yul\":16561:16654   */\n      tag_357\n        /* \"#utility.yul\":16650:16653   */\n      dup3\n        /* \"#utility.yul\":16561:16654   */\n      tag_201\n      jump\t// in\n    tag_357:\n        /* \"#utility.yul\":16679:16681   */\n      0x40\n        /* \"#utility.yul\":16674:16677   */\n      dup3\n        /* \"#utility.yul\":16670:16682   */\n      add\n        /* \"#utility.yul\":16663:16682   */\n      swap1\n      pop\n        /* \"#utility.yul\":16322:16688   */\n      swap2\n      swap1\n      pop\n      jump\t// out\n        /* \"#utility.yul\":16694:17113   */\n    tag_111:\n        /* \"#utility.yul\":16860:16864   */\n      0x00\n        /* \"#utility.yul\":16898:16900   */\n      0x20\n        /* \"#utility.yul\":16887:16896   */\n      dup3\n        /* \"#utility.yul\":16883:16901   */\n      add\n        /* \"#utility.yul\":16875:16901   */\n      swap1\n      pop\n        /* \"#utility.yul\":16947:16956   */\n      dup2\n        /* \"#utility.yul\":16941:16945   */\n      dup2\n        /* \"#utility.yul\":16937:16957   */\n      sub\n        /* \"#utility.yul\":16933:16934   */\n      0x00\n        /* \"#utility.yul\":16922:16931   */\n      dup4\n        /* \"#utility.yul\":16918:16935   */\n      add\n        /* \"#utility.yul\":16911:16958   */\n      mstore\n        /* \"#utility.yul\":16975:17106   */\n      tag_359\n        /* \"#utility.yul\":17101:17105   */\n      dup2\n        /* \"#utility.yul\":16975:17106   */\n      tag_202\n      jump\t// in\n    tag_359:\n        /* \"#utility.yul\":16967:17106   */\n      swap1\n      pop\n        /* \"#utility.yul\":16694:17113   */\n      swap2\n      swap1\n      pop\n      jump\t// out\n        /* \"#utility.yul\":17119:18005   */\n    tag_115:\n        /* \"#utility.yul\":17380:17384   */\n      0x00\n        /* \"#utility.yul\":17418:17421   */\n      0xe0\n        /* \"#utility.yul\":17407:17416   */\n      dup3\n        /* \"#utility.yul\":17403:17422   */\n      add\n        /* \"#utility.yul\":17395:17422   */\n      swap1\n      pop\n        /* \"#utility.yul\":17432:17503   */\n      tag_361\n        /* \"#utility.yul\":17500:17501   */\n      0x00\n        /* \"#utility.yul\":17489:17498   */\n      dup4\n        /* \"#utility.yul\":17485:17502   */\n      add\n        /* \"#utility.yul\":17476:17482   */\n      dup11\n        /* \"#utility.yul\":17432:17503   */\n      tag_178\n      jump\t// in\n    tag_361:\n        /* \"#utility.yul\":17513:17585   */\n      tag_362\n        /* \"#utility.yul\":17581:17583   */\n      0x20\n        /* \"#utility.yul\":17570:17579   */\n      dup4\n        /* \"#utility.yul\":17566:17584   */\n      add\n        /* \"#utility.yul\":17557:17563   */\n      dup10\n        /* \"#utility.yul\":17513:17585   */\n      tag_180\n      jump\t// in\n    tag_362:\n        /* \"#utility.yul\":17595:17667   */\n      tag_363\n        /* \"#utility.yul\":17663:17665   */\n      0x40\n        /* \"#utility.yul\":17652:17661   */\n      dup4\n        /* \"#utility.yul\":17648:17666   */\n      add\n        /* \"#utility.yul\":17639:17645   */\n      dup9\n        /* \"#utility.yul\":17595:17667   */\n      tag_178\n      jump\t// in\n    tag_363:\n        /* \"#utility.yul\":17677:17749   */\n      tag_364\n        /* \"#utility.yul\":17745:17747   */\n      0x60\n        /* \"#utility.yul\":17734:17743   */\n      dup4\n        /* \"#utility.yul\":17730:17748   */\n      add\n        /* \"#utility.yul\":17721:17727   */\n      dup8\n        /* \"#utility.yul\":17677:17749   */\n      tag_178\n      jump\t// in\n    tag_364:\n        /* \"#utility.yul\":17759:17832   */\n      tag_365\n        /* \"#utility.yul\":17827:17830   */\n      0x80\n        /* \"#utility.yul\":17816:17825   */\n      dup4\n        /* \"#utility.yul\":17812:17831   */\n      add\n        /* \"#utility.yul\":17803:17809   */\n      dup7\n        /* \"#utility.yul\":17759:17832   */\n      tag_178\n      jump\t// in\n    tag_365:\n        /* \"#utility.yul\":17842:17915   */\n      tag_366\n        /* \"#utility.yul\":17910:17913   */\n      0xa0\n        /* \"#utility.yul\":17899:17908   */\n      dup4\n        /* \"#utility.yul\":17895:17914   */\n      add\n        /* \"#utility.yul\":17886:17892   */\n      dup6\n        /* \"#utility.yul\":17842:17915   */\n      tag_178\n      jump\t// in\n    tag_366:\n        /* \"#utility.yul\":17925:17998   */\n      tag_367\n        /* \"#utility.yul\":17993:17996   */\n      0xc0\n        /* \"#utility.yul\":17982:17991   */\n      dup4\n        /* \"#utility.yul\":17978:17997   */\n      add\n        /* \"#utility.yul\":17969:17975   */\n      dup5\n        /* \"#utility.yul\":17925:17998   */\n      tag_178\n      jump\t// in\n    tag_367:\n        /* \"#utility.yul\":17119:18005   */\n      swap9\n      swap8\n      pop\n      pop\n      pop\n      pop\n      pop\n      pop\n      pop\n      pop\n      jump\t// out\n        /* \"#utility.yul\":18011:18240   */\n    tag_203:\n        /* \"#utility.yul\":18151:18185   */\n      0x4f6e6c792074686520706f742063726561746f722063616e2072657665616c20\n        /* \"#utility.yul\":18147:18148   */\n      0x00\n        /* \"#utility.yul\":18139:18145   */\n      dup3\n        /* \"#utility.yul\":18135:18149   */\n      add\n        /* \"#utility.yul\":18128:18186   */\n      mstore\n        /* \"#utility.yul\":18220:18232   */\n      0x7468652077696e6e657200000000000000000000000000000000000000000000\n        /* \"#utility.yul\":18215:18217   */\n      0x20\n        /* \"#utility.yul\":18207:18213   */\n      dup3\n        /* \"#utility.yul\":18203:18218   */\n      add\n        /* \"#utility.yul\":18196:18233   */\n      mstore\n        /* \"#utility.yul\":18011:18240   */\n      pop\n      jump\t// out\n        /* \"#utility.yul\":18246:18612   */\n    tag_204:\n        /* \"#utility.yul\":18388:18391   */\n      0x00\n        /* \"#utility.yul\":18409:18476   */\n      tag_370\n        /* \"#utility.yul\":18473:18475   */\n      0x2a\n        /* \"#utility.yul\":18468:18471   */\n      dup4\n        /* \"#utility.yul\":18409:18476   */\n      tag_182\n      jump\t// in\n    tag_370:\n        /* \"#utility.yul\":18402:18476   */\n      swap2\n      pop\n        /* \"#utility.yul\":18485:18578   */\n      tag_371\n        /* \"#utility.yul\":18574:18577   */\n      dup3\n        /* \"#utility.yul\":18485:18578   */\n      tag_203\n      jump\t// in\n    tag_371:\n        /* \"#utility.yul\":18603:18605   */\n      0x40\n        /* \"#utility.yul\":18598:18601   */\n      dup3\n        /* \"#utility.yul\":18594:18606   */\n      add\n        /* \"#utility.yul\":18587:18606   */\n      swap1\n      pop\n        /* \"#utility.yul\":18246:18612   */\n      swap2\n      swap1\n      pop\n      jump\t// out\n        /* \"#utility.yul\":18618:19037   */\n    tag_119:\n        /* \"#utility.yul\":18784:18788   */\n      0x00\n        /* \"#utility.yul\":18822:18824   */\n      0x20\n        /* \"#utility.yul\":18811:18820   */\n      dup3\n        /* \"#utility.yul\":18807:18825   */\n      add\n        /* \"#utility.yul\":18799:18825   */\n      swap1\n      pop\n        /* \"#utility.yul\":18871:18880   */\n      dup2\n        /* \"#utility.yul\":18865:18869   */\n      dup2\n        /* \"#utility.yul\":18861:18881   */\n      sub\n        /* \"#utility.yul\":18857:18858   */\n      0x00\n        /* \"#utility.yul\":18846:18855   */\n      dup4\n        /* \"#utility.yul\":18842:18859   */\n      add\n        /* \"#utility.yul\":18835:18882   */\n      mstore\n        /* \"#utility.yul\":18899:19030   */\n      tag_373\n        /* \"#utility.yul\":19025:19029   */\n      dup2\n        /* \"#utility.yul\":18899:19030   */\n      tag_204\n      jump\t// in\n    tag_373:\n        /* \"#utility.yul\":18891:19030   */\n      swap1\n      pop\n        /* \"#utility.yul\":18618:19037   */\n      swap2\n      swap1\n      pop\n      jump\t// out\n        /* \"#utility.yul\":19043:19234   */\n    tag_121:\n        /* \"#utility.yul\":19083:19086   */\n      0x00\n        /* \"#utility.yul\":19102:19122   */\n      tag_375\n        /* \"#utility.yul\":19120:19121   */\n      dup3\n        /* \"#utility.yul\":19102:19122   */\n      tag_173\n      jump\t// in\n    tag_375:\n        /* \"#utility.yul\":19097:19122   */\n      swap2\n      pop\n        /* \"#utility.yul\":19136:19156   */\n      tag_376\n        /* \"#utility.yul\":19154:19155   */\n      dup4\n        /* \"#utility.yul\":19136:19156   */\n      tag_173\n      jump\t// in\n    tag_376:\n        /* \"#utility.yul\":19131:19156   */\n      swap3\n      pop\n        /* \"#utility.yul\":19179:19180   */\n      dup3\n        /* \"#utility.yul\":19176:19177   */\n      dup3\n        /* \"#utility.yul\":19172:19181   */\n      add\n        /* \"#utility.yul\":19165:19181   */\n      swap1\n      pop\n        /* \"#utility.yul\":19200:19203   */\n      dup1\n        /* \"#utility.yul\":19197:19198   */\n      dup3\n        /* \"#utility.yul\":19194:19204   */\n      gt\n        /* \"#utility.yul\":19191:19227   */\n      iszero\n      tag_377\n      jumpi\n        /* \"#utility.yul\":19207:19225   */\n      tag_378\n      tag_200\n      jump\t// in\n    tag_378:\n        /* \"#utility.yul\":19191:19227   */\n    tag_377:\n        /* \"#utility.yul\":19043:19234   */\n      swap3\n      swap2\n      pop\n      pop\n      jump\t// out\n        /* \"#utility.yul\":19240:19415   */\n    tag_205:\n        /* \"#utility.yul\":19380:19407   */\n      0x4e65787420726f746174696f6e206e6f74207965742064756500000000000000\n        /* \"#utility.yul\":19376:19377   */\n      0x00\n        /* \"#utility.yul\":19368:19374   */\n      dup3\n        /* \"#utility.yul\":19364:19378   */\n      add\n        /* \"#utility.yul\":19357:19408   */\n      mstore\n        /* \"#utility.yul\":19240:19415   */\n      pop\n      jump\t// out\n        /* \"#utility.yul\":19421:19787   */\n    tag_206:\n        /* \"#utility.yul\":19563:19566   */\n      0x00\n        /* \"#utility.yul\":19584:19651   */\n      tag_381\n        /* \"#utility.yul\":19648:19650   */\n      0x19\n        /* \"#utility.yul\":19643:19646   */\n      dup4\n        /* \"#utility.yul\":19584:19651   */\n      tag_182\n      jump\t// in\n    tag_381:\n        /* \"#utility.yul\":19577:19651   */\n      swap2\n      pop\n        /* \"#utility.yul\":19660:19753   */\n      tag_382\n        /* \"#utility.yul\":19749:19752   */\n      dup3\n        /* \"#utility.yul\":19660:19753   */\n      tag_205\n      jump\t// in\n    tag_382:\n        /* \"#utility.yul\":19778:19780   */\n      0x20\n        /* \"#utility.yul\":19773:19776   */\n      dup3\n        /* \"#utility.yul\":19769:19781   */\n      add\n        /* \"#utility.yul\":19762:19781   */\n      swap1\n      pop\n        /* \"#utility.yul\":19421:19787   */\n      swap2\n      swap1\n      pop\n      jump\t// out\n        /* \"#utility.yul\":19793:20212   */\n    tag_124:\n        /* \"#utility.yul\":19959:19963   */\n      0x00\n        /* \"#utility.yul\":19997:19999   */\n      0x20\n        /* \"#utility.yul\":19986:19995   */\n      dup3\n        /* \"#utility.yul\":19982:20000   */\n      add\n        /* \"#utility.yul\":19974:20000   */\n      swap1\n      pop\n        /* \"#utility.yul\":20046:20055   */\n      dup2\n        /* \"#utility.yul\":20040:20044   */\n      dup2\n        /* \"#utility.yul\":20036:20056   */\n      sub\n        /* \"#utility.yul\":20032:20033   */\n      0x00\n        /* \"#utility.yul\":20021:20030   */\n      dup4\n        /* \"#utility.yul\":20017:20034   */\n      add\n        /* \"#utility.yul\":20010:20057   */\n      mstore\n        /* \"#utility.yul\":20074:20205   */\n      tag_384\n        /* \"#utility.yul\":20200:20204   */\n      dup2\n        /* \"#utility.yul\":20074:20205   */\n      tag_206\n      jump\t// in\n    tag_384:\n        /* \"#utility.yul\":20066:20205   */\n      swap1\n      pop\n        /* \"#utility.yul\":19793:20212   */\n      swap2\n      swap1\n      pop\n      jump\t// out\n        /* \"#utility.yul\":20218:20398   */\n    tag_207:\n        /* \"#utility.yul\":20266:20343   */\n      0x4e487b7100000000000000000000000000000000000000000000000000000000\n        /* \"#utility.yul\":20263:20264   */\n      0x00\n        /* \"#utility.yul\":20256:20344   */\n      mstore\n        /* \"#utility.yul\":20363:20367   */\n      0x12\n        /* \"#utility.yul\":20360:20361   */\n      0x04\n        /* \"#utility.yul\":20353:20368   */\n      mstore\n        /* \"#utility.yul\":20387:20391   */\n      0x24\n        /* \"#utility.yul\":20384:20385   */\n      0x00\n        /* \"#utility.yul\":20377:20392   */\n      revert\n        /* \"#utility.yul\":20404:20580   */\n    tag_126:\n        /* \"#utility.yul\":20436:20437   */\n      0x00\n        /* \"#utility.yul\":20453:20473   */\n      tag_387\n        /* \"#utility.yul\":20471:20472   */\n      dup3\n        /* \"#utility.yul\":20453:20473   */\n      tag_173\n      jump\t// in\n    tag_387:\n        /* \"#utility.yul\":20448:20473   */\n      swap2\n      pop\n        /* \"#utility.yul\":20487:20507   */\n      tag_388\n        /* \"#utility.yul\":20505:20506   */\n      dup4\n        /* \"#utility.yul\":20487:20507   */\n      tag_173\n      jump\t// in\n    tag_388:\n        /* \"#utility.yul\":20482:20507   */\n      swap3\n      pop\n        /* \"#utility.yul\":20526:20527   */\n      dup3\n        /* \"#utility.yul\":20516:20551   */\n      tag_389\n      jumpi\n        /* \"#utility.yul\":20531:20549   */\n      tag_390\n      tag_207\n      jump\t// in\n    tag_390:\n        /* \"#utility.yul\":20516:20551   */\n    tag_389:\n        /* \"#utility.yul\":20572:20573   */\n      dup3\n        /* \"#utility.yul\":20569:20570   */\n      dup3\n        /* \"#utility.yul\":20565:20574   */\n      mod\n        /* \"#utility.yul\":20560:20574   */\n      swap1\n      pop\n        /* \"#utility.yul\":20404:20580   */\n      swap3\n      swap2\n      pop\n      pop\n      jump\t// out\n        /* \"#utility.yul\":20586:20766   */\n    tag_129:\n        /* \"#utility.yul\":20634:20711   */\n      0x4e487b7100000000000000000000000000000000000000000000000000000000\n        /* \"#utility.yul\":20631:20632   */\n      0x00\n        /* \"#utility.yul\":20624:20712   */\n      mstore\n        /* \"#utility.yul\":20731:20735   */\n      0x32\n        /* \"#utility.yul\":20728:20729   */\n      0x04\n        /* \"#utility.yul\":20721:20736   */\n      mstore\n        /* \"#utility.yul\":20755:20759   */\n      0x24\n        /* \"#utility.yul\":20752:20753   */\n      0x00\n        /* \"#utility.yul\":20745:20760   */\n      revert\n        /* \"#utility.yul\":20772:21182   */\n    tag_132:\n        /* \"#utility.yul\":20812:20819   */\n      0x00\n        /* \"#utility.yul\":20835:20855   */\n      tag_393\n        /* \"#utility.yul\":20853:20854   */\n      dup3\n        /* \"#utility.yul\":20835:20855   */\n      tag_173\n      jump\t// in\n    tag_393:\n        /* \"#utility.yul\":20830:20855   */\n      swap2\n      pop\n        /* \"#utility.yul\":20869:20889   */\n      tag_394\n        /* \"#utility.yul\":20887:20888   */\n      dup4\n        /* \"#utility.yul\":20869:20889   */\n      tag_173\n      jump\t// in\n    tag_394:\n        /* \"#utility.yul\":20864:20889   */\n      swap3\n      pop\n        /* \"#utility.yul\":20924:20925   */\n      dup3\n        /* \"#utility.yul\":20921:20922   */\n      dup3\n        /* \"#utility.yul\":20917:20926   */\n      mul\n        /* \"#utility.yul\":20946:20976   */\n      tag_395\n        /* \"#utility.yul\":20964:20975   */\n      dup2\n        /* \"#utility.yul\":20946:20976   */\n      tag_173\n      jump\t// in\n    tag_395:\n        /* \"#utility.yul\":20935:20976   */\n      swap2\n      pop\n        /* \"#utility.yul\":21125:21126   */\n      dup3\n        /* \"#utility.yul\":21116:21123   */\n      dup3\n        /* \"#utility.yul\":21112:21127   */\n      div\n        /* \"#utility.yul\":21109:21110   */\n      dup5\n        /* \"#utility.yul\":21106:21128   */\n      eq\n        /* \"#utility.yul\":21086:21087   */\n      dup4\n        /* \"#utility.yul\":21079:21088   */\n      iszero\n        /* \"#utility.yul\":21059:21142   */\n      or\n        /* \"#utility.yul\":21036:21175   */\n      tag_396\n      jumpi\n        /* \"#utility.yul\":21155:21173   */\n      tag_397\n      tag_200\n      jump\t// in\n    tag_397:\n        /* \"#utility.yul\":21036:21175   */\n    tag_396:\n        /* \"#utility.yul\":20820:21182   */\n      pop\n        /* \"#utility.yul\":20772:21182   */\n      swap3\n      swap2\n      pop\n      pop\n      jump\t// out\n        /* \"#utility.yul\":21188:21382   */\n    tag_135:\n        /* \"#utility.yul\":21228:21232   */\n      0x00\n        /* \"#utility.yul\":21248:21268   */\n      tag_399\n        /* \"#utility.yul\":21266:21267   */\n      dup3\n        /* \"#utility.yul\":21248:21268   */\n      tag_173\n      jump\t// in\n    tag_399:\n        /* \"#utility.yul\":21243:21268   */\n      swap2\n      pop\n        /* \"#utility.yul\":21282:21302   */\n      tag_400\n        /* \"#utility.yul\":21300:21301   */\n      dup4\n        /* \"#utility.yul\":21282:21302   */\n      tag_173\n      jump\t// in\n    tag_400:\n        /* \"#utility.yul\":21277:21302   */\n      swap3\n      pop\n        /* \"#utility.yul\":21326:21327   */\n      dup3\n        /* \"#utility.yul\":21323:21324   */\n      dup3\n        /* \"#utility.yul\":21319:21328   */\n      sub\n        /* \"#utility.yul\":21311:21328   */\n      swap1\n      pop\n        /* \"#utility.yul\":21350:21351   */\n      dup2\n        /* \"#utility.yul\":21344:21348   */\n      dup2\n        /* \"#utility.yul\":21341:21352   */\n      gt\n        /* \"#utility.yul\":21338:21375   */\n      iszero\n      tag_401\n      jumpi\n        /* \"#utility.yul\":21355:21373   */\n      tag_402\n      tag_200\n      jump\t// in\n    tag_402:\n        /* \"#utility.yul\":21338:21375   */\n    tag_401:\n        /* \"#utility.yul\":21188:21382   */\n      swap3\n      swap2\n      pop\n      pop\n      jump\t// out\n        /* \"#utility.yul\":21388:21720   */\n    tag_137:\n        /* \"#utility.yul\":21509:21513   */\n      0x00\n        /* \"#utility.yul\":21547:21549   */\n      0x40\n        /* \"#utility.yul\":21536:21545   */\n      dup3\n        /* \"#utility.yul\":21532:21550   */\n      add\n        /* \"#utility.yul\":21524:21550   */\n      swap1\n      pop\n        /* \"#utility.yul\":21560:21631   */\n      tag_404\n        /* \"#utility.yul\":21628:21629   */\n      0x00\n        /* \"#utility.yul\":21617:21626   */\n      dup4\n        /* \"#utility.yul\":21613:21630   */\n      add\n        /* \"#utility.yul\":21604:21610   */\n      dup6\n        /* \"#utility.yul\":21560:21631   */\n      tag_180\n      jump\t// in\n    tag_404:\n        /* \"#utility.yul\":21641:21713   */\n      tag_405\n        /* \"#utility.yul\":21709:21711   */\n      0x20\n        /* \"#utility.yul\":21698:21707   */\n      dup4\n        /* \"#utility.yul\":21694:21712   */\n      add\n        /* \"#utility.yul\":21685:21691   */\n      dup5\n        /* \"#utility.yul\":21641:21713   */\n      tag_178\n      jump\t// in\n    tag_405:\n        /* \"#utility.yul\":21388:21720   */\n      swap4\n      swap3\n      pop\n      pop\n      pop\n      jump\t// out\n        /* \"#utility.yul\":21726:21897   */\n    tag_208:\n        /* \"#utility.yul\":21866:21889   */\n      0x5969656c64207472616e73666572206661696c65640000000000000000000000\n        /* \"#utility.yul\":21862:21863   */\n      0x00\n        /* \"#utility.yul\":21854:21860   */\n      dup3\n        /* \"#utility.yul\":21850:21864   */\n      add\n        /* \"#utility.yul\":21843:21890   */\n      mstore\n        /* \"#utility.yul\":21726:21897   */\n      pop\n      jump\t// out\n        /* \"#utility.yul\":21903:22269   */\n    tag_209:\n        /* \"#utility.yul\":22045:22048   */\n      0x00\n        /* \"#utility.yul\":22066:22133   */\n      tag_408\n        /* \"#utility.yul\":22130:22132   */\n      0x15\n        /* \"#utility.yul\":22125:22128   */\n      dup4\n        /* \"#utility.yul\":22066:22133   */\n      tag_182\n      jump\t// in\n    tag_408:\n        /* \"#utility.yul\":22059:22133   */\n      swap2\n      pop\n        /* \"#utility.yul\":22142:22235   */\n      tag_409\n        /* \"#utility.yul\":22231:22234   */\n      dup3\n        /* \"#utility.yul\":22142:22235   */\n      tag_208\n      jump\t// in\n    tag_409:\n        /* \"#utility.yul\":22260:22262   */\n      0x20\n        /* \"#utility.yul\":22255:22258   */\n      dup3\n        /* \"#utility.yul\":22251:22263   */\n      add\n        /* \"#utility.yul\":22244:22263   */\n      swap1\n      pop\n        /* \"#utility.yul\":21903:22269   */\n      swap2\n      swap1\n      pop\n      jump\t// out\n        /* \"#utility.yul\":22275:22694   */\n    tag_143:\n        /* \"#utility.yul\":22441:22445   */\n      0x00\n        /* \"#utility.yul\":22479:22481   */\n      0x20\n        /* \"#utility.yul\":22468:22477   */\n      dup3\n        /* \"#utility.yul\":22464:22482   */\n      add\n        /* \"#utility.yul\":22456:22482   */\n      swap1\n      pop\n        /* \"#utility.yul\":22528:22537   */\n      dup2\n        /* \"#utility.yul\":22522:22526   */\n      dup2\n        /* \"#utility.yul\":22518:22538   */\n      sub\n        /* \"#utility.yul\":22514:22515   */\n      0x00\n        /* \"#utility.yul\":22503:22512   */\n      dup4\n        /* \"#utility.yul\":22499:22516   */\n      add\n        /* \"#utility.yul\":22492:22539   */\n      mstore\n        /* \"#utility.yul\":22556:22687   */\n      tag_411\n        /* \"#utility.yul\":22682:22686   */\n      dup2\n        /* \"#utility.yul\":22556:22687   */\n      tag_209\n      jump\t// in\n    tag_411:\n        /* \"#utility.yul\":22548:22687   */\n      swap1\n      pop\n        /* \"#utility.yul\":22275:22694   */\n      swap2\n      swap1\n      pop\n      jump\t// out\n        /* \"#utility.yul\":22700:23142   */\n    tag_145:\n        /* \"#utility.yul\":22849:22853   */\n      0x00\n        /* \"#utility.yul\":22887:22889   */\n      0x60\n        /* \"#utility.yul\":22876:22885   */\n      dup3\n        /* \"#utility.yul\":22872:22890   */\n      add\n        /* \"#utility.yul\":22864:22890   */\n      swap1\n      pop\n        /* \"#utility.yul\":22900:22971   */\n      tag_413\n        /* \"#utility.yul\":22968:22969   */\n      0x00\n        /* \"#utility.yul\":22957:22966   */\n      dup4\n        /* \"#utility.yul\":22953:22970   */\n      add\n        /* \"#utility.yul\":22944:22950   */\n      dup7\n        /* \"#utility.yul\":22900:22971   */\n      tag_178\n      jump\t// in\n    tag_413:\n        /* \"#utility.yul\":22981:23053   */\n      tag_414\n        /* \"#utility.yul\":23049:23051   */\n      0x20\n        /* \"#utility.yul\":23038:23047   */\n      dup4\n        /* \"#utility.yul\":23034:23052   */\n      add\n        /* \"#utility.yul\":23025:23031   */\n      dup6\n        /* \"#utility.yul\":22981:23053   */\n      tag_180\n      jump\t// in\n    tag_414:\n        /* \"#utility.yul\":23063:23135   */\n      tag_415\n        /* \"#utility.yul\":23131:23133   */\n      0x40\n        /* \"#utility.yul\":23120:23129   */\n      dup4\n        /* \"#utility.yul\":23116:23134   */\n      add\n        /* \"#utility.yul\":23107:23113   */\n      dup5\n        /* \"#utility.yul\":23063:23135   */\n      tag_178\n      jump\t// in\n    tag_415:\n        /* \"#utility.yul\":22700:23142   */\n      swap5\n      swap4\n      pop\n      pop\n      pop\n      pop\n      jump\t// out\n        /* \"#utility.yul\":23148:23333   */\n    tag_150:\n        /* \"#utility.yul\":23188:23189   */\n      0x00\n        /* \"#utility.yul\":23205:23225   */\n      tag_417\n        /* \"#utility.yul\":23223:23224   */\n      dup3\n        /* \"#utility.yul\":23205:23225   */\n      tag_173\n      jump\t// in\n    tag_417:\n        /* \"#utility.yul\":23200:23225   */\n      swap2\n      pop\n        /* \"#utility.yul\":23239:23259   */\n      tag_418\n        /* \"#utility.yul\":23257:23258   */\n      dup4\n        /* \"#utility.yul\":23239:23259   */\n      tag_173\n      jump\t// in\n    tag_418:\n        /* \"#utility.yul\":23234:23259   */\n      swap3\n      pop\n        /* \"#utility.yul\":23278:23279   */\n      dup3\n        /* \"#utility.yul\":23268:23303   */\n      tag_419\n      jumpi\n        /* \"#utility.yul\":23283:23301   */\n      tag_420\n      tag_207\n      jump\t// in\n    tag_420:\n        /* \"#utility.yul\":23268:23303   */\n    tag_419:\n        /* \"#utility.yul\":23325:23326   */\n      dup3\n        /* \"#utility.yul\":23322:23323   */\n      dup3\n        /* \"#utility.yul\":23318:23327   */\n      div\n        /* \"#utility.yul\":23313:23327   */\n      swap1\n      pop\n        /* \"#utility.yul\":23148:23333   */\n      swap3\n      swap2\n      pop\n      pop\n      jump\t// out\n\n    auxdata: 0xa26469706673582212205c9552f7d6a05834c1677ab5b4ed693772f9a4eb2c69fbca599a9aabb6fe86d364736f6c63430008180033\n}\n",
				"bytecode": {
					"linkReferences": {},
					"object": "608060405260015f5534801562000014575f80fd5b5073420000000000000000000000000000000000002273ffffffffffffffffffffffffffffffffffffffff16631a33757d60026040518263ffffffff1660e01b8152600401620000659190620001f0565b6020604051808303815f875af115801562000082573d5f803e3d5ffd5b505050506040513d601f19601f82011682018060405250810190620000a8919062000247565b5073420000000000000000000000000000000000002260025f6101000a81548173ffffffffffffffffffffffffffffffffffffffff021916908373ffffffffffffffffffffffffffffffffffffffff16021790555073430000000000000000000000000000000000000273ffffffffffffffffffffffffffffffffffffffff16634e606c476040518163ffffffff1660e01b81526004015f604051808303815f87803b15801562000157575f80fd5b505af11580156200016a573d5f803e3d5ffd5b5050505062000277565b7f4e487b71000000000000000000000000000000000000000000000000000000005f52602160045260245ffd5b60038110620001b557620001b462000174565b5b50565b5f819050620001c782620001a1565b919050565b5f620001d882620001b8565b9050919050565b620001ea81620001cc565b82525050565b5f602082019050620002055f830184620001df565b92915050565b5f80fd5b5f819050919050565b62000223816200020f565b81146200022e575f80fd5b50565b5f81519050620002418162000218565b92915050565b5f602082840312156200025f576200025e6200020b565b5b5f6200026e8482850162000231565b91505092915050565b61193580620002855f395ff3fe608060405260043610610090575f3560e01c8063bf2d9e0b11610058578063bf2d9e0b14610144578063c3c3df4f1461016e578063ca0ea3d1146101b1578063ef922b87146101d9578063efdd7c071461020157610090565b806331a0edec146100945780634a80409e146100be57806377d5d2dc146100e8578063831d49ef146100fe57806397d757761461011a575b5f80fd5b34801561009f575f80fd5b506100a861023d565b6040516100b59190610db9565b60405180910390f35b3480156100c9575f80fd5b506100d2610255565b6040516100df9190610df2565b60405180910390f35b3480156100f3575f80fd5b506100fc61027a565b005b61011860048036038101906101139190610e42565b61030c565b005b348015610125575f80fd5b5061012e610605565b60405161013b9190610e8d565b60405180910390f35b34801561014f575f80fd5b5061015861061d565b6040516101659190610eb5565b60405180910390f35b348015610179575f80fd5b50610194600480360381019061018f9190610e42565b610623565b6040516101a8989796959493929190610eee565b60405180910390f35b3480156101bc575f80fd5b506101d760048036038101906101d29190610f6a565b610686565b005b3480156101e4575f80fd5b506101ff60048036038101906101fa9190610e42565b61094b565b005b34801561020c575f80fd5b5061022760048036038101906102229190610fe1565b610c23565b6040516102349190610eb5565b60405180910390f35b73420000000000000000000000000000000000002281565b60025f9054906101000a900473ffffffffffffffffffffffffffffffffffffffff1681565b73430000000000000000000000000000000000000273ffffffffffffffffffffffffffffffffffffffff1663954fa5ee30336040518363ffffffff1660e01b81526004016102c992919061101f565b6020604051808303815f875af11580156102e5573d5f803e3d5ffd5b505050506040513d601f19601f82011682018060405250810190610309919061105a565b50565b5f60035f8381526020019081526020015f209050806005015481600801805490501061036d576040517f08c379a0000000000000000000000000000000000000000000000000000000008152600401610364906110df565b60405180910390fd5b60018160060154106103b4576040517f08c379a00000000000000000000000000000000000000000000000000000000081526004016103ab90611147565b60405180910390fd5b5f816009015f3373ffffffffffffffffffffffffffffffffffffffff1673ffffffffffffffffffffffffffffffffffffffff1681526020019081526020015f205414610435576040517f08c379a000000000000000000000000000000000000000000000000000000000815260040161042c906111af565b60405180910390fd5b5f610442825f0154610c60565b905060025f9054906101000a900473ffffffffffffffffffffffffffffffffffffffff1673ffffffffffffffffffffffffffffffffffffffff166323b872dd3330846040518463ffffffff1660e01b81526004016104a2939291906111cd565b6020604051808303815f875af11580156104be573d5f803e3d5ffd5b505050506040513d601f19601f820116820180604052508101906104e29190611237565b610521576040517f08c379a0000000000000000000000000000000000000000000000000000000008152600401610518906112ac565b60405180910390fd5b80826009015f3373ffffffffffffffffffffffffffffffffffffffff1673ffffffffffffffffffffffffffffffffffffffff1681526020019081526020015f20819055508160080133908060018154018082558091505060019003905f5260205f20015f9091909190916101000a81548173ffffffffffffffffffffffffffffffffffffffff021916908373ffffffffffffffffffffffffffffffffffffffff1602179055507f7dd8cb04159701bc1976c246434d7d96812782e7489e6c5c34db49a388fe9e8083336040516105f89291906112ca565b60405180910390a1505050565b73430000000000000000000000000000000000000281565b60015481565b6003602052805f5260405f205f91509050805f015490806001015490806002015490806003015490806004015490806005015490806006015490806007015f9054906101000a900473ffffffffffffffffffffffffffffffffffffffff16905088565b5f85116106c8576040517f08c379a00000000000000000000000000000000000000000000000000000000081526004016106bf9061133b565b60405180910390fd5b5f841161070a576040517f08c379a0000000000000000000000000000000000000000000000000000000008152600401610701906113c9565b60405180910390fd5b8383111561074d576040517f08c379a000000000000000000000000000000000000000000000000000000000815260040161074490611457565b60405180910390fd5b5f805f81548092919061075f906114a2565b91905055905060605f61077184610c60565b905060025f9054906101000a900473ffffffffffffffffffffffffffffffffffffffff1673ffffffffffffffffffffffffffffffffffffffff166323b872dd3330846040518463ffffffff1660e01b81526004016107d1939291906111cd565b6020604051808303815f875af11580156107ed573d5f803e3d5ffd5b505050506040513d601f19601f820116820180604052508101906108119190611237565b610850576040517f08c379a000000000000000000000000000000000000000000000000000000000815260040161084790611559565b60405180910390fd5b5f60035f8581526020019081526020015f20905084815f018190555033816007015f6101000a81548173ffffffffffffffffffffffffffffffffffffffff021916908373ffffffffffffffffffffffffffffffffffffffff1602179055508881600101819055508681600301819055508781600401819055504281600201819055508581600501819055505f8160060181905550828160080190805190602001906108fc929190610c9d565b507fbf5a50c239a5f6ef5cf2dcc347e3402e3b8ca1424a9e01c38ec78d2406cbd8e08433878c8b8d8c6040516109389796959493929190611577565b60405180910390a1505050505050505050565b3373ffffffffffffffffffffffffffffffffffffffff1660035f8381526020019081526020015f206007015f9054906101000a900473ffffffffffffffffffffffffffffffffffffffff1673ffffffffffffffffffffffffffffffffffffffff16146109ec576040517f08c379a00000000000000000000000000000000000000000000000000000000081526004016109e390611654565b60405180910390fd5b5f60035f8381526020019081526020015f20905080600101548160020154610a149190611672565b421015610a56576040517f08c379a0000000000000000000000000000000000000000000000000000000008152600401610a4d906116ef565b60405180910390fd5b5f81600501548260060154610a6b919061173a565b90505f826008018281548110610a8457610a8361176a565b5b905f5260205f20015f9054906101000a900473ffffffffffffffffffffffffffffffffffffffff1690505f835f01548460080180549050610ac59190611797565b90505f610ad28683610c23565b905060025f9054906101000a900473ffffffffffffffffffffffffffffffffffffffff1673ffffffffffffffffffffffffffffffffffffffff1663a9059cbb338385610b1e91906117d8565b6040518363ffffffff1660e01b8152600401610b3b92919061180b565b6020604051808303815f875af1158015610b57573d5f803e3d5ffd5b505050506040513d601f19601f82011682018060405250810190610b7b9190611237565b610bba576040517f08c379a0000000000000000000000000000000000000000000000000000000008152600401610bb19061187c565b60405180910390fd5b4285600201819055507f35cb3811461cb824b245820eee97ab50ee1cc609f2bdd3bb10f5f0010184a7d386848760060154604051610bfa9392919061189a565b60405180910390a1846006015f815480929190610c16906114a2565b9190505550505050505050565b5f8060035f8581526020019081526020015f2090508060040154816003015484610c4d9190611797565b610c5791906118cf565b91505092915050565b5f80606483610c6f91906118cf565b90508083610c7d91906117d8565b91508060015f828254610c909190611672565b9250508190555050919050565b828054828255905f5260205f20908101928215610d13579160200282015b82811115610d12578251825f6101000a81548173ffffffffffffffffffffffffffffffffffffffff021916908373ffffffffffffffffffffffffffffffffffffffff16021790555091602001919060010190610cbb565b5b509050610d209190610d24565b5090565b5b80821115610d3b575f815f905550600101610d25565b5090565b5f73ffffffffffffffffffffffffffffffffffffffff82169050919050565b5f819050919050565b5f610d81610d7c610d7784610d3f565b610d5e565b610d3f565b9050919050565b5f610d9282610d67565b9050919050565b5f610da382610d88565b9050919050565b610db381610d99565b82525050565b5f602082019050610dcc5f830184610daa565b92915050565b5f610ddc82610d88565b9050919050565b610dec81610dd2565b82525050565b5f602082019050610e055f830184610de3565b92915050565b5f80fd5b5f819050919050565b610e2181610e0f565b8114610e2b575f80fd5b50565b5f81359050610e3c81610e18565b92915050565b5f60208284031215610e5757610e56610e0b565b5b5f610e6484828501610e2e565b91505092915050565b5f610e7782610d88565b9050919050565b610e8781610e6d565b82525050565b5f602082019050610ea05f830184610e7e565b92915050565b610eaf81610e0f565b82525050565b5f602082019050610ec85f830184610ea6565b92915050565b5f610ed882610d3f565b9050919050565b610ee881610ece565b82525050565b5f61010082019050610f025f83018b610ea6565b610f0f602083018a610ea6565b610f1c6040830189610ea6565b610f296060830188610ea6565b610f366080830187610ea6565b610f4360a0830186610ea6565b610f5060c0830185610ea6565b610f5d60e0830184610edf565b9998505050505050505050565b5f805f805f60a08688031215610f8357610f82610e0b565b5b5f610f9088828901610e2e565b9550506020610fa188828901610e2e565b9450506040610fb288828901610e2e565b9350506060610fc388828901610e2e565b9250506080610fd488828901610e2e565b9150509295509295909350565b5f8060408385031215610ff757610ff6610e0b565b5b5f61100485828601610e2e565b925050602061101585828601610e2e565b9150509250929050565b5f6040820190506110325f830185610edf565b61103f6020830184610edf565b9392505050565b5f8151905061105481610e18565b92915050565b5f6020828403121561106f5761106e610e0b565b5b5f61107c84828501611046565b91505092915050565b5f82825260208201905092915050565b7f506f742069732066756c6c0000000000000000000000000000000000000000005f82015250565b5f6110c9600b83611085565b91506110d482611095565b602082019050919050565b5f6020820190508181035f8301526110f6816110bd565b9050919050565b7f526f746174696e6720706f74732063616e6e6f74206265206a6f696e656400005f82015250565b5f611131601e83611085565b915061113c826110fd565b602082019050919050565b5f6020820190508181035f83015261115e81611125565b9050919050565b7f416c7265616479206a6f696e65640000000000000000000000000000000000005f82015250565b5f611199600e83611085565b91506111a482611165565b602082019050919050565b5f6020820190508181035f8301526111c68161118d565b9050919050565b5f6060820190506111e05f830186610edf565b6111ed6020830185610edf565b6111fa6040830184610ea6565b949350505050565b5f8115159050919050565b61121681611202565b8114611220575f80fd5b50565b5f815190506112318161120d565b92915050565b5f6020828403121561124c5761124b610e0b565b5b5f61125984828501611223565b91505092915050565b7f5472616e73666572206661696c656400000000000000000000000000000000005f82015250565b5f611296600f83611085565b91506112a182611262565b602082019050919050565b5f6020820190508181035f8301526112c38161128a565b9050919050565b5f6040820190506112dd5f830185610ea6565b6112ea6020830184610edf565b9392505050565b7f526f746174696f6e206379636c65206d75737420626520706f736974697665005f82015250565b5f611325601f83611085565b9150611330826112f1565b602082019050919050565b5f6020820190508181035f83015261135281611319565b9050919050565b7f496e7465726573742064656e6f6d696e61746f72206d75737420626520706f735f8201527f6974697665000000000000000000000000000000000000000000000000000000602082015250565b5f6113b3602583611085565b91506113be82611359565b604082019050919050565b5f6020820190508181035f8301526113e0816113a7565b9050919050565b7f4e756d657261746f72206d757374206265206c657373207468616e206f7220655f8201527f7175616c20746f2064656e6f6d696e61746f7200000000000000000000000000602082015250565b5f611441603383611085565b915061144c826113e7565b604082019050919050565b5f6020820190508181035f83015261146e81611435565b9050919050565b7f4e487b71000000000000000000000000000000000000000000000000000000005f52601160045260245ffd5b5f6114ac82610e0f565b91507fffffffffffffffffffffffffffffffffffffffffffffffffffffffffffffffff82036114de576114dd611475565b5b600182019050919050565b7f43726561746f722073686f756c64206465706f7369742074686520696e6974695f8201527f616c20616d6f756e740000000000000000000000000000000000000000000000602082015250565b5f611543602983611085565b915061154e826114e9565b604082019050919050565b5f6020820190508181035f83015261157081611537565b9050919050565b5f60e08201905061158a5f83018a610ea6565b6115976020830189610edf565b6115a46040830188610ea6565b6115b16060830187610ea6565b6115be6080830186610ea6565b6115cb60a0830185610ea6565b6115d860c0830184610ea6565b98975050505050505050565b7f4f6e6c792074686520706f742063726561746f722063616e2072657665616c205f8201527f7468652077696e6e657200000000000000000000000000000000000000000000602082015250565b5f61163e602a83611085565b9150611649826115e4565b604082019050919050565b5f6020820190508181035f83015261166b81611632565b9050919050565b5f61167c82610e0f565b915061168783610e0f565b925082820190508082111561169f5761169e611475565b5b92915050565b7f4e65787420726f746174696f6e206e6f742079657420647565000000000000005f82015250565b5f6116d9601983611085565b91506116e4826116a5565b602082019050919050565b5f6020820190508181035f830152611706816116cd565b9050919050565b7f4e487b71000000000000000000000000000000000000000000000000000000005f52601260045260245ffd5b5f61174482610e0f565b915061174f83610e0f565b92508261175f5761175e61170d565b5b828206905092915050565b7f4e487b71000000000000000000000000000000000000000000000000000000005f52603260045260245ffd5b5f6117a182610e0f565b91506117ac83610e0f565b92508282026117ba81610e0f565b915082820484148315176117d1576117d0611475565b5b5092915050565b5f6117e282610e0f565b91506117ed83610e0f565b925082820390508181111561180557611804611475565b5b92915050565b5f60408201905061181e5f830185610edf565b61182b6020830184610ea6565b9392505050565b7f5969656c64207472616e73666572206661696c656400000000000000000000005f82015250565b5f611866601583611085565b915061187182611832565b602082019050919050565b5f6020820190508181035f8301526118938161185a565b9050919050565b5f6060820190506118ad5f830186610ea6565b6118ba6020830185610edf565b6118c76040830184610ea6565b949350505050565b5f6118d982610e0f565b91506118e483610e0f565b9250826118f4576118f361170d565b5b82820490509291505056fea26469706673582212205c9552f7d6a05834c1677ab5b4ed693772f9a4eb2c69fbca599a9aabb6fe86d364736f6c63430008180033",
					"opcodes": "PUSH1 0x80 PUSH1 0x40 MSTORE PUSH1 0x1 PUSH0 SSTORE CALLVALUE DUP1 ISZERO PUSH3 0x14 JUMPI PUSH0 DUP1 REVERT JUMPDEST POP PUSH20 0x4200000000000000000000000000000000000022 PUSH20 0xFFFFFFFFFFFFFFFFFFFFFFFFFFFFFFFFFFFFFFFF AND PUSH4 0x1A33757D PUSH1 0x2 PUSH1 0x40 MLOAD DUP3 PUSH4 0xFFFFFFFF AND PUSH1 0xE0 SHL DUP2 MSTORE PUSH1 0x4 ADD PUSH3 0x65 SWAP2 SWAP1 PUSH3 0x1F0 JUMP JUMPDEST PUSH1 0x20 PUSH1 0x40 MLOAD DUP1 DUP4 SUB DUP2 PUSH0 DUP8 GAS CALL ISZERO DUP1 ISZERO PUSH3 0x82 JUMPI RETURNDATASIZE PUSH0 DUP1 RETURNDATACOPY RETURNDATASIZE PUSH0 REVERT JUMPDEST POP POP POP POP PUSH1 0x40 MLOAD RETURNDATASIZE PUSH1 0x1F NOT PUSH1 0x1F DUP3 ADD AND DUP3 ADD DUP1 PUSH1 0x40 MSTORE POP DUP2 ADD SWAP1 PUSH3 0xA8 SWAP2 SWAP1 PUSH3 0x247 JUMP JUMPDEST POP PUSH20 0x4200000000000000000000000000000000000022 PUSH1 0x2 PUSH0 PUSH2 0x100 EXP DUP2 SLOAD DUP2 PUSH20 0xFFFFFFFFFFFFFFFFFFFFFFFFFFFFFFFFFFFFFFFF MUL NOT AND SWAP1 DUP4 PUSH20 0xFFFFFFFFFFFFFFFFFFFFFFFFFFFFFFFFFFFFFFFF AND MUL OR SWAP1 SSTORE POP PUSH20 0x4300000000000000000000000000000000000002 PUSH20 0xFFFFFFFFFFFFFFFFFFFFFFFFFFFFFFFFFFFFFFFF AND PUSH4 0x4E606C47 PUSH1 0x40 MLOAD DUP2 PUSH4 0xFFFFFFFF AND PUSH1 0xE0 SHL DUP2 MSTORE PUSH1 0x4 ADD PUSH0 PUSH1 0x40 MLOAD DUP1 DUP4 SUB DUP2 PUSH0 DUP8 DUP1 EXTCODESIZE ISZERO DUP1 ISZERO PUSH3 0x157 JUMPI PUSH0 DUP1 REVERT JUMPDEST POP GAS CALL ISZERO DUP1 ISZERO PUSH3 0x16A JUMPI RETURNDATASIZE PUSH0 DUP1 RETURNDATACOPY RETURNDATASIZE PUSH0 REVERT JUMPDEST POP POP POP POP PUSH3 0x277 JUMP JUMPDEST PUSH32 0x4E487B7100000000000000000000000000000000000000000000000000000000 PUSH0 MSTORE PUSH1 0x21 PUSH1 0x4 MSTORE PUSH1 0x24 PUSH0 REVERT JUMPDEST PUSH1 0x3 DUP2 LT PUSH3 0x1B5 JUMPI PUSH3 0x1B4 PUSH3 0x174 JUMP JUMPDEST JUMPDEST POP JUMP JUMPDEST PUSH0 DUP2 SWAP1 POP PUSH3 0x1C7 DUP3 PUSH3 0x1A1 JUMP JUMPDEST SWAP2 SWAP1 POP JUMP JUMPDEST PUSH0 PUSH3 0x1D8 DUP3 PUSH3 0x1B8 JUMP JUMPDEST SWAP1 POP SWAP2 SWAP1 POP JUMP JUMPDEST PUSH3 0x1EA DUP2 PUSH3 0x1CC JUMP JUMPDEST DUP3 MSTORE POP POP JUMP JUMPDEST PUSH0 PUSH1 0x20 DUP3 ADD SWAP1 POP PUSH3 0x205 PUSH0 DUP4 ADD DUP5 PUSH3 0x1DF JUMP JUMPDEST SWAP3 SWAP2 POP POP JUMP JUMPDEST PUSH0 DUP1 REVERT JUMPDEST PUSH0 DUP2 SWAP1 POP SWAP2 SWAP1 POP JUMP JUMPDEST PUSH3 0x223 DUP2 PUSH3 0x20F JUMP JUMPDEST DUP2 EQ PUSH3 0x22E JUMPI PUSH0 DUP1 REVERT JUMPDEST POP JUMP JUMPDEST PUSH0 DUP2 MLOAD SWAP1 POP PUSH3 0x241 DUP2 PUSH3 0x218 JUMP JUMPDEST SWAP3 SWAP2 POP POP JUMP JUMPDEST PUSH0 PUSH1 0x20 DUP3 DUP5 SUB SLT ISZERO PUSH3 0x25F JUMPI PUSH3 0x25E PUSH3 0x20B JUMP JUMPDEST JUMPDEST PUSH0 PUSH3 0x26E DUP5 DUP3 DUP6 ADD PUSH3 0x231 JUMP JUMPDEST SWAP2 POP POP SWAP3 SWAP2 POP POP JUMP JUMPDEST PUSH2 0x1935 DUP1 PUSH3 0x285 PUSH0 CODECOPY PUSH0 RETURN INVALID PUSH1 0x80 PUSH1 0x40 MSTORE PUSH1 0x4 CALLDATASIZE LT PUSH2 0x90 JUMPI PUSH0 CALLDATALOAD PUSH1 0xE0 SHR DUP1 PUSH4 0xBF2D9E0B GT PUSH2 0x58 JUMPI DUP1 PUSH4 0xBF2D9E0B EQ PUSH2 0x144 JUMPI DUP1 PUSH4 0xC3C3DF4F EQ PUSH2 0x16E JUMPI DUP1 PUSH4 0xCA0EA3D1 EQ PUSH2 0x1B1 JUMPI DUP1 PUSH4 0xEF922B87 EQ PUSH2 0x1D9 JUMPI DUP1 PUSH4 0xEFDD7C07 EQ PUSH2 0x201 JUMPI PUSH2 0x90 JUMP JUMPDEST DUP1 PUSH4 0x31A0EDEC EQ PUSH2 0x94 JUMPI DUP1 PUSH4 0x4A80409E EQ PUSH2 0xBE JUMPI DUP1 PUSH4 0x77D5D2DC EQ PUSH2 0xE8 JUMPI DUP1 PUSH4 0x831D49EF EQ PUSH2 0xFE JUMPI DUP1 PUSH4 0x97D75776 EQ PUSH2 0x11A JUMPI JUMPDEST PUSH0 DUP1 REVERT JUMPDEST CALLVALUE DUP1 ISZERO PUSH2 0x9F JUMPI PUSH0 DUP1 REVERT JUMPDEST POP PUSH2 0xA8 PUSH2 0x23D JUMP JUMPDEST PUSH1 0x40 MLOAD PUSH2 0xB5 SWAP2 SWAP1 PUSH2 0xDB9 JUMP JUMPDEST PUSH1 0x40 MLOAD DUP1 SWAP2 SUB SWAP1 RETURN JUMPDEST CALLVALUE DUP1 ISZERO PUSH2 0xC9 JUMPI PUSH0 DUP1 REVERT JUMPDEST POP PUSH2 0xD2 PUSH2 0x255 JUMP JUMPDEST PUSH1 0x40 MLOAD PUSH2 0xDF SWAP2 SWAP1 PUSH2 0xDF2 JUMP JUMPDEST PUSH1 0x40 MLOAD DUP1 SWAP2 SUB SWAP1 RETURN JUMPDEST CALLVALUE DUP1 ISZERO PUSH2 0xF3 JUMPI PUSH0 DUP1 REVERT JUMPDEST POP PUSH2 0xFC PUSH2 0x27A JUMP JUMPDEST STOP JUMPDEST PUSH2 0x118 PUSH1 0x4 DUP1 CALLDATASIZE SUB DUP2 ADD SWAP1 PUSH2 0x113 SWAP2 SWAP1 PUSH2 0xE42 JUMP JUMPDEST PUSH2 0x30C JUMP JUMPDEST STOP JUMPDEST CALLVALUE DUP1 ISZERO PUSH2 0x125 JUMPI PUSH0 DUP1 REVERT JUMPDEST POP PUSH2 0x12E PUSH2 0x605 JUMP JUMPDEST PUSH1 0x40 MLOAD PUSH2 0x13B SWAP2 SWAP1 PUSH2 0xE8D JUMP JUMPDEST PUSH1 0x40 MLOAD DUP1 SWAP2 SUB SWAP1 RETURN JUMPDEST CALLVALUE DUP1 ISZERO PUSH2 0x14F JUMPI PUSH0 DUP1 REVERT JUMPDEST POP PUSH2 0x158 PUSH2 0x61D JUMP JUMPDEST PUSH1 0x40 MLOAD PUSH2 0x165 SWAP2 SWAP1 PUSH2 0xEB5 JUMP JUMPDEST PUSH1 0x40 MLOAD DUP1 SWAP2 SUB SWAP1 RETURN JUMPDEST CALLVALUE DUP1 ISZERO PUSH2 0x179 JUMPI PUSH0 DUP1 REVERT JUMPDEST POP PUSH2 0x194 PUSH1 0x4 DUP1 CALLDATASIZE SUB DUP2 ADD SWAP1 PUSH2 0x18F SWAP2 SWAP1 PUSH2 0xE42 JUMP JUMPDEST PUSH2 0x623 JUMP JUMPDEST PUSH1 0x40 MLOAD PUSH2 0x1A8 SWAP9 SWAP8 SWAP7 SWAP6 SWAP5 SWAP4 SWAP3 SWAP2 SWAP1 PUSH2 0xEEE JUMP JUMPDEST PUSH1 0x40 MLOAD DUP1 SWAP2 SUB SWAP1 RETURN JUMPDEST CALLVALUE DUP1 ISZERO PUSH2 0x1BC JUMPI PUSH0 DUP1 REVERT JUMPDEST POP PUSH2 0x1D7 PUSH1 0x4 DUP1 CALLDATASIZE SUB DUP2 ADD SWAP1 PUSH2 0x1D2 SWAP2 SWAP1 PUSH2 0xF6A JUMP JUMPDEST PUSH2 0x686 JUMP JUMPDEST STOP JUMPDEST CALLVALUE DUP1 ISZERO PUSH2 0x1E4 JUMPI PUSH0 DUP1 REVERT JUMPDEST POP PUSH2 0x1FF PUSH1 0x4 DUP1 CALLDATASIZE SUB DUP2 ADD SWAP1 PUSH2 0x1FA SWAP2 SWAP1 PUSH2 0xE42 JUMP JUMPDEST PUSH2 0x94B JUMP JUMPDEST STOP JUMPDEST CALLVALUE DUP1 ISZERO PUSH2 0x20C JUMPI PUSH0 DUP1 REVERT JUMPDEST POP PUSH2 0x227 PUSH1 0x4 DUP1 CALLDATASIZE SUB DUP2 ADD SWAP1 PUSH2 0x222 SWAP2 SWAP1 PUSH2 0xFE1 JUMP JUMPDEST PUSH2 0xC23 JUMP JUMPDEST PUSH1 0x40 MLOAD PUSH2 0x234 SWAP2 SWAP1 PUSH2 0xEB5 JUMP JUMPDEST PUSH1 0x40 MLOAD DUP1 SWAP2 SUB SWAP1 RETURN JUMPDEST PUSH20 0x4200000000000000000000000000000000000022 DUP2 JUMP JUMPDEST PUSH1 0x2 PUSH0 SWAP1 SLOAD SWAP1 PUSH2 0x100 EXP SWAP1 DIV PUSH20 0xFFFFFFFFFFFFFFFFFFFFFFFFFFFFFFFFFFFFFFFF AND DUP2 JUMP JUMPDEST PUSH20 0x4300000000000000000000000000000000000002 PUSH20 0xFFFFFFFFFFFFFFFFFFFFFFFFFFFFFFFFFFFFFFFF AND PUSH4 0x954FA5EE ADDRESS CALLER PUSH1 0x40 MLOAD DUP4 PUSH4 0xFFFFFFFF AND PUSH1 0xE0 SHL DUP2 MSTORE PUSH1 0x4 ADD PUSH2 0x2C9 SWAP3 SWAP2 SWAP1 PUSH2 0x101F JUMP JUMPDEST PUSH1 0x20 PUSH1 0x40 MLOAD DUP1 DUP4 SUB DUP2 PUSH0 DUP8 GAS CALL ISZERO DUP1 ISZERO PUSH2 0x2E5 JUMPI RETURNDATASIZE PUSH0 DUP1 RETURNDATACOPY RETURNDATASIZE PUSH0 REVERT JUMPDEST POP POP POP POP PUSH1 0x40 MLOAD RETURNDATASIZE PUSH1 0x1F NOT PUSH1 0x1F DUP3 ADD AND DUP3 ADD DUP1 PUSH1 0x40 MSTORE POP DUP2 ADD SWAP1 PUSH2 0x309 SWAP2 SWAP1 PUSH2 0x105A JUMP JUMPDEST POP JUMP JUMPDEST PUSH0 PUSH1 0x3 PUSH0 DUP4 DUP2 MSTORE PUSH1 0x20 ADD SWAP1 DUP2 MSTORE PUSH1 0x20 ADD PUSH0 KECCAK256 SWAP1 POP DUP1 PUSH1 0x5 ADD SLOAD DUP2 PUSH1 0x8 ADD DUP1 SLOAD SWAP1 POP LT PUSH2 0x36D JUMPI PUSH1 0x40 MLOAD PUSH32 0x8C379A000000000000000000000000000000000000000000000000000000000 DUP2 MSTORE PUSH1 0x4 ADD PUSH2 0x364 SWAP1 PUSH2 0x10DF JUMP JUMPDEST PUSH1 0x40 MLOAD DUP1 SWAP2 SUB SWAP1 REVERT JUMPDEST PUSH1 0x1 DUP2 PUSH1 0x6 ADD SLOAD LT PUSH2 0x3B4 JUMPI PUSH1 0x40 MLOAD PUSH32 0x8C379A000000000000000000000000000000000000000000000000000000000 DUP2 MSTORE PUSH1 0x4 ADD PUSH2 0x3AB SWAP1 PUSH2 0x1147 JUMP JUMPDEST PUSH1 0x40 MLOAD DUP1 SWAP2 SUB SWAP1 REVERT JUMPDEST PUSH0 DUP2 PUSH1 0x9 ADD PUSH0 CALLER PUSH20 0xFFFFFFFFFFFFFFFFFFFFFFFFFFFFFFFFFFFFFFFF AND PUSH20 0xFFFFFFFFFFFFFFFFFFFFFFFFFFFFFFFFFFFFFFFF AND DUP2 MSTORE PUSH1 0x20 ADD SWAP1 DUP2 MSTORE PUSH1 0x20 ADD PUSH0 KECCAK256 SLOAD EQ PUSH2 0x435 JUMPI PUSH1 0x40 MLOAD PUSH32 0x8C379A000000000000000000000000000000000000000000000000000000000 DUP2 MSTORE PUSH1 0x4 ADD PUSH2 0x42C SWAP1 PUSH2 0x11AF JUMP JUMPDEST PUSH1 0x40 MLOAD DUP1 SWAP2 SUB SWAP1 REVERT JUMPDEST PUSH0 PUSH2 0x442 DUP3 PUSH0 ADD SLOAD PUSH2 0xC60 JUMP JUMPDEST SWAP1 POP PUSH1 0x2 PUSH0 SWAP1 SLOAD SWAP1 PUSH2 0x100 EXP SWAP1 DIV PUSH20 0xFFFFFFFFFFFFFFFFFFFFFFFFFFFFFFFFFFFFFFFF AND PUSH20 0xFFFFFFFFFFFFFFFFFFFFFFFFFFFFFFFFFFFFFFFF AND PUSH4 0x23B872DD CALLER ADDRESS DUP5 PUSH1 0x40 MLOAD DUP5 PUSH4 0xFFFFFFFF AND PUSH1 0xE0 SHL DUP2 MSTORE PUSH1 0x4 ADD PUSH2 0x4A2 SWAP4 SWAP3 SWAP2 SWAP1 PUSH2 0x11CD JUMP JUMPDEST PUSH1 0x20 PUSH1 0x40 MLOAD DUP1 DUP4 SUB DUP2 PUSH0 DUP8 GAS CALL ISZERO DUP1 ISZERO PUSH2 0x4BE JUMPI RETURNDATASIZE PUSH0 DUP1 RETURNDATACOPY RETURNDATASIZE PUSH0 REVERT JUMPDEST POP POP POP POP PUSH1 0x40 MLOAD RETURNDATASIZE PUSH1 0x1F NOT PUSH1 0x1F DUP3 ADD AND DUP3 ADD DUP1 PUSH1 0x40 MSTORE POP DUP2 ADD SWAP1 PUSH2 0x4E2 SWAP2 SWAP1 PUSH2 0x1237 JUMP JUMPDEST PUSH2 0x521 JUMPI PUSH1 0x40 MLOAD PUSH32 0x8C379A000000000000000000000000000000000000000000000000000000000 DUP2 MSTORE PUSH1 0x4 ADD PUSH2 0x518 SWAP1 PUSH2 0x12AC JUMP JUMPDEST PUSH1 0x40 MLOAD DUP1 SWAP2 SUB SWAP1 REVERT JUMPDEST DUP1 DUP3 PUSH1 0x9 ADD PUSH0 CALLER PUSH20 0xFFFFFFFFFFFFFFFFFFFFFFFFFFFFFFFFFFFFFFFF AND PUSH20 0xFFFFFFFFFFFFFFFFFFFFFFFFFFFFFFFFFFFFFFFF AND DUP2 MSTORE PUSH1 0x20 ADD SWAP1 DUP2 MSTORE PUSH1 0x20 ADD PUSH0 KECCAK256 DUP2 SWAP1 SSTORE POP DUP2 PUSH1 0x8 ADD CALLER SWAP1 DUP1 PUSH1 0x1 DUP2 SLOAD ADD DUP1 DUP3 SSTORE DUP1 SWAP2 POP POP PUSH1 0x1 SWAP1 SUB SWAP1 PUSH0 MSTORE PUSH1 0x20 PUSH0 KECCAK256 ADD PUSH0 SWAP1 SWAP2 SWAP1 SWAP2 SWAP1 SWAP2 PUSH2 0x100 EXP DUP2 SLOAD DUP2 PUSH20 0xFFFFFFFFFFFFFFFFFFFFFFFFFFFFFFFFFFFFFFFF MUL NOT AND SWAP1 DUP4 PUSH20 0xFFFFFFFFFFFFFFFFFFFFFFFFFFFFFFFFFFFFFFFF AND MUL OR SWAP1 SSTORE POP PUSH32 0x7DD8CB04159701BC1976C246434D7D96812782E7489E6C5C34DB49A388FE9E80 DUP4 CALLER PUSH1 0x40 MLOAD PUSH2 0x5F8 SWAP3 SWAP2 SWAP1 PUSH2 0x12CA JUMP JUMPDEST PUSH1 0x40 MLOAD DUP1 SWAP2 SUB SWAP1 LOG1 POP POP POP JUMP JUMPDEST PUSH20 0x4300000000000000000000000000000000000002 DUP2 JUMP JUMPDEST PUSH1 0x1 SLOAD DUP2 JUMP JUMPDEST PUSH1 0x3 PUSH1 0x20 MSTORE DUP1 PUSH0 MSTORE PUSH1 0x40 PUSH0 KECCAK256 PUSH0 SWAP2 POP SWAP1 POP DUP1 PUSH0 ADD SLOAD SWAP1 DUP1 PUSH1 0x1 ADD SLOAD SWAP1 DUP1 PUSH1 0x2 ADD SLOAD SWAP1 DUP1 PUSH1 0x3 ADD SLOAD SWAP1 DUP1 PUSH1 0x4 ADD SLOAD SWAP1 DUP1 PUSH1 0x5 ADD SLOAD SWAP1 DUP1 PUSH1 0x6 ADD SLOAD SWAP1 DUP1 PUSH1 0x7 ADD PUSH0 SWAP1 SLOAD SWAP1 PUSH2 0x100 EXP SWAP1 DIV PUSH20 0xFFFFFFFFFFFFFFFFFFFFFFFFFFFFFFFFFFFFFFFF AND SWAP1 POP DUP9 JUMP JUMPDEST PUSH0 DUP6 GT PUSH2 0x6C8 JUMPI PUSH1 0x40 MLOAD PUSH32 0x8C379A000000000000000000000000000000000000000000000000000000000 DUP2 MSTORE PUSH1 0x4 ADD PUSH2 0x6BF SWAP1 PUSH2 0x133B JUMP JUMPDEST PUSH1 0x40 MLOAD DUP1 SWAP2 SUB SWAP1 REVERT JUMPDEST PUSH0 DUP5 GT PUSH2 0x70A JUMPI PUSH1 0x40 MLOAD PUSH32 0x8C379A000000000000000000000000000000000000000000000000000000000 DUP2 MSTORE PUSH1 0x4 ADD PUSH2 0x701 SWAP1 PUSH2 0x13C9 JUMP JUMPDEST PUSH1 0x40 MLOAD DUP1 SWAP2 SUB SWAP1 REVERT JUMPDEST DUP4 DUP4 GT ISZERO PUSH2 0x74D JUMPI PUSH1 0x40 MLOAD PUSH32 0x8C379A000000000000000000000000000000000000000000000000000000000 DUP2 MSTORE PUSH1 0x4 ADD PUSH2 0x744 SWAP1 PUSH2 0x1457 JUMP JUMPDEST PUSH1 0x40 MLOAD DUP1 SWAP2 SUB SWAP1 REVERT JUMPDEST PUSH0 DUP1 PUSH0 DUP2 SLOAD DUP1 SWAP3 SWAP2 SWAP1 PUSH2 0x75F SWAP1 PUSH2 0x14A2 JUMP JUMPDEST SWAP2 SWAP1 POP SSTORE SWAP1 POP PUSH1 0x60 PUSH0 PUSH2 0x771 DUP5 PUSH2 0xC60 JUMP JUMPDEST SWAP1 POP PUSH1 0x2 PUSH0 SWAP1 SLOAD SWAP1 PUSH2 0x100 EXP SWAP1 DIV PUSH20 0xFFFFFFFFFFFFFFFFFFFFFFFFFFFFFFFFFFFFFFFF AND PUSH20 0xFFFFFFFFFFFFFFFFFFFFFFFFFFFFFFFFFFFFFFFF AND PUSH4 0x23B872DD CALLER ADDRESS DUP5 PUSH1 0x40 MLOAD DUP5 PUSH4 0xFFFFFFFF AND PUSH1 0xE0 SHL DUP2 MSTORE PUSH1 0x4 ADD PUSH2 0x7D1 SWAP4 SWAP3 SWAP2 SWAP1 PUSH2 0x11CD JUMP JUMPDEST PUSH1 0x20 PUSH1 0x40 MLOAD DUP1 DUP4 SUB DUP2 PUSH0 DUP8 GAS CALL ISZERO DUP1 ISZERO PUSH2 0x7ED JUMPI RETURNDATASIZE PUSH0 DUP1 RETURNDATACOPY RETURNDATASIZE PUSH0 REVERT JUMPDEST POP POP POP POP PUSH1 0x40 MLOAD RETURNDATASIZE PUSH1 0x1F NOT PUSH1 0x1F DUP3 ADD AND DUP3 ADD DUP1 PUSH1 0x40 MSTORE POP DUP2 ADD SWAP1 PUSH2 0x811 SWAP2 SWAP1 PUSH2 0x1237 JUMP JUMPDEST PUSH2 0x850 JUMPI PUSH1 0x40 MLOAD PUSH32 0x8C379A000000000000000000000000000000000000000000000000000000000 DUP2 MSTORE PUSH1 0x4 ADD PUSH2 0x847 SWAP1 PUSH2 0x1559 JUMP JUMPDEST PUSH1 0x40 MLOAD DUP1 SWAP2 SUB SWAP1 REVERT JUMPDEST PUSH0 PUSH1 0x3 PUSH0 DUP6 DUP2 MSTORE PUSH1 0x20 ADD SWAP1 DUP2 MSTORE PUSH1 0x20 ADD PUSH0 KECCAK256 SWAP1 POP DUP5 DUP2 PUSH0 ADD DUP2 SWAP1 SSTORE POP CALLER DUP2 PUSH1 0x7 ADD PUSH0 PUSH2 0x100 EXP DUP2 SLOAD DUP2 PUSH20 0xFFFFFFFFFFFFFFFFFFFFFFFFFFFFFFFFFFFFFFFF MUL NOT AND SWAP1 DUP4 PUSH20 0xFFFFFFFFFFFFFFFFFFFFFFFFFFFFFFFFFFFFFFFF AND MUL OR SWAP1 SSTORE POP DUP9 DUP2 PUSH1 0x1 ADD DUP2 SWAP1 SSTORE POP DUP7 DUP2 PUSH1 0x3 ADD DUP2 SWAP1 SSTORE POP DUP8 DUP2 PUSH1 0x4 ADD DUP2 SWAP1 SSTORE POP TIMESTAMP DUP2 PUSH1 0x2 ADD DUP2 SWAP1 SSTORE POP DUP6 DUP2 PUSH1 0x5 ADD DUP2 SWAP1 SSTORE POP PUSH0 DUP2 PUSH1 0x6 ADD DUP2 SWAP1 SSTORE POP DUP3 DUP2 PUSH1 0x8 ADD SWAP1 DUP1 MLOAD SWAP1 PUSH1 0x20 ADD SWAP1 PUSH2 0x8FC SWAP3 SWAP2 SWAP1 PUSH2 0xC9D JUMP JUMPDEST POP PUSH32 0xBF5A50C239A5F6EF5CF2DCC347E3402E3B8CA1424A9E01C38EC78D2406CBD8E0 DUP5 CALLER DUP8 DUP13 DUP12 DUP14 DUP13 PUSH1 0x40 MLOAD PUSH2 0x938 SWAP8 SWAP7 SWAP6 SWAP5 SWAP4 SWAP3 SWAP2 SWAP1 PUSH2 0x1577 JUMP JUMPDEST PUSH1 0x40 MLOAD DUP1 SWAP2 SUB SWAP1 LOG1 POP POP POP POP POP POP POP POP POP JUMP JUMPDEST CALLER PUSH20 0xFFFFFFFFFFFFFFFFFFFFFFFFFFFFFFFFFFFFFFFF AND PUSH1 0x3 PUSH0 DUP4 DUP2 MSTORE PUSH1 0x20 ADD SWAP1 DUP2 MSTORE PUSH1 0x20 ADD PUSH0 KECCAK256 PUSH1 0x7 ADD PUSH0 SWAP1 SLOAD SWAP1 PUSH2 0x100 EXP SWAP1 DIV PUSH20 0xFFFFFFFFFFFFFFFFFFFFFFFFFFFFFFFFFFFFFFFF AND PUSH20 0xFFFFFFFFFFFFFFFFFFFFFFFFFFFFFFFFFFFFFFFF AND EQ PUSH2 0x9EC JUMPI PUSH1 0x40 MLOAD PUSH32 0x8C379A000000000000000000000000000000000000000000000000000000000 DUP2 MSTORE PUSH1 0x4 ADD PUSH2 0x9E3 SWAP1 PUSH2 0x1654 JUMP JUMPDEST PUSH1 0x40 MLOAD DUP1 SWAP2 SUB SWAP1 REVERT JUMPDEST PUSH0 PUSH1 0x3 PUSH0 DUP4 DUP2 MSTORE PUSH1 0x20 ADD SWAP1 DUP2 MSTORE PUSH1 0x20 ADD PUSH0 KECCAK256 SWAP1 POP DUP1 PUSH1 0x1 ADD SLOAD DUP2 PUSH1 0x2 ADD SLOAD PUSH2 0xA14 SWAP2 SWAP1 PUSH2 0x1672 JUMP JUMPDEST TIMESTAMP LT ISZERO PUSH2 0xA56 JUMPI PUSH1 0x40 MLOAD PUSH32 0x8C379A000000000000000000000000000000000000000000000000000000000 DUP2 MSTORE PUSH1 0x4 ADD PUSH2 0xA4D SWAP1 PUSH2 0x16EF JUMP JUMPDEST PUSH1 0x40 MLOAD DUP1 SWAP2 SUB SWAP1 REVERT JUMPDEST PUSH0 DUP2 PUSH1 0x5 ADD SLOAD DUP3 PUSH1 0x6 ADD SLOAD PUSH2 0xA6B SWAP2 SWAP1 PUSH2 0x173A JUMP JUMPDEST SWAP1 POP PUSH0 DUP3 PUSH1 0x8 ADD DUP3 DUP2 SLOAD DUP2 LT PUSH2 0xA84 JUMPI PUSH2 0xA83 PUSH2 0x176A JUMP JUMPDEST JUMPDEST SWAP1 PUSH0 MSTORE PUSH1 0x20 PUSH0 KECCAK256 ADD PUSH0 SWAP1 SLOAD SWAP1 PUSH2 0x100 EXP SWAP1 DIV PUSH20 0xFFFFFFFFFFFFFFFFFFFFFFFFFFFFFFFFFFFFFFFF AND SWAP1 POP PUSH0 DUP4 PUSH0 ADD SLOAD DUP5 PUSH1 0x8 ADD DUP1 SLOAD SWAP1 POP PUSH2 0xAC5 SWAP2 SWAP1 PUSH2 0x1797 JUMP JUMPDEST SWAP1 POP PUSH0 PUSH2 0xAD2 DUP7 DUP4 PUSH2 0xC23 JUMP JUMPDEST SWAP1 POP PUSH1 0x2 PUSH0 SWAP1 SLOAD SWAP1 PUSH2 0x100 EXP SWAP1 DIV PUSH20 0xFFFFFFFFFFFFFFFFFFFFFFFFFFFFFFFFFFFFFFFF AND PUSH20 0xFFFFFFFFFFFFFFFFFFFFFFFFFFFFFFFFFFFFFFFF AND PUSH4 0xA9059CBB CALLER DUP4 DUP6 PUSH2 0xB1E SWAP2 SWAP1 PUSH2 0x17D8 JUMP JUMPDEST PUSH1 0x40 MLOAD DUP4 PUSH4 0xFFFFFFFF AND PUSH1 0xE0 SHL DUP2 MSTORE PUSH1 0x4 ADD PUSH2 0xB3B SWAP3 SWAP2 SWAP1 PUSH2 0x180B JUMP JUMPDEST PUSH1 0x20 PUSH1 0x40 MLOAD DUP1 DUP4 SUB DUP2 PUSH0 DUP8 GAS CALL ISZERO DUP1 ISZERO PUSH2 0xB57 JUMPI RETURNDATASIZE PUSH0 DUP1 RETURNDATACOPY RETURNDATASIZE PUSH0 REVERT JUMPDEST POP POP POP POP PUSH1 0x40 MLOAD RETURNDATASIZE PUSH1 0x1F NOT PUSH1 0x1F DUP3 ADD AND DUP3 ADD DUP1 PUSH1 0x40 MSTORE POP DUP2 ADD SWAP1 PUSH2 0xB7B SWAP2 SWAP1 PUSH2 0x1237 JUMP JUMPDEST PUSH2 0xBBA JUMPI PUSH1 0x40 MLOAD PUSH32 0x8C379A000000000000000000000000000000000000000000000000000000000 DUP2 MSTORE PUSH1 0x4 ADD PUSH2 0xBB1 SWAP1 PUSH2 0x187C JUMP JUMPDEST PUSH1 0x40 MLOAD DUP1 SWAP2 SUB SWAP1 REVERT JUMPDEST TIMESTAMP DUP6 PUSH1 0x2 ADD DUP2 SWAP1 SSTORE POP PUSH32 0x35CB3811461CB824B245820EEE97AB50EE1CC609F2BDD3BB10F5F0010184A7D3 DUP7 DUP5 DUP8 PUSH1 0x6 ADD SLOAD PUSH1 0x40 MLOAD PUSH2 0xBFA SWAP4 SWAP3 SWAP2 SWAP1 PUSH2 0x189A JUMP JUMPDEST PUSH1 0x40 MLOAD DUP1 SWAP2 SUB SWAP1 LOG1 DUP5 PUSH1 0x6 ADD PUSH0 DUP2 SLOAD DUP1 SWAP3 SWAP2 SWAP1 PUSH2 0xC16 SWAP1 PUSH2 0x14A2 JUMP JUMPDEST SWAP2 SWAP1 POP SSTORE POP POP POP POP POP POP POP JUMP JUMPDEST PUSH0 DUP1 PUSH1 0x3 PUSH0 DUP6 DUP2 MSTORE PUSH1 0x20 ADD SWAP1 DUP2 MSTORE PUSH1 0x20 ADD PUSH0 KECCAK256 SWAP1 POP DUP1 PUSH1 0x4 ADD SLOAD DUP2 PUSH1 0x3 ADD SLOAD DUP5 PUSH2 0xC4D SWAP2 SWAP1 PUSH2 0x1797 JUMP JUMPDEST PUSH2 0xC57 SWAP2 SWAP1 PUSH2 0x18CF JUMP JUMPDEST SWAP2 POP POP SWAP3 SWAP2 POP POP JUMP JUMPDEST PUSH0 DUP1 PUSH1 0x64 DUP4 PUSH2 0xC6F SWAP2 SWAP1 PUSH2 0x18CF JUMP JUMPDEST SWAP1 POP DUP1 DUP4 PUSH2 0xC7D SWAP2 SWAP1 PUSH2 0x17D8 JUMP JUMPDEST SWAP2 POP DUP1 PUSH1 0x1 PUSH0 DUP3 DUP3 SLOAD PUSH2 0xC90 SWAP2 SWAP1 PUSH2 0x1672 JUMP JUMPDEST SWAP3 POP POP DUP2 SWAP1 SSTORE POP POP SWAP2 SWAP1 POP JUMP JUMPDEST DUP3 DUP1 SLOAD DUP3 DUP3 SSTORE SWAP1 PUSH0 MSTORE PUSH1 0x20 PUSH0 KECCAK256 SWAP1 DUP2 ADD SWAP3 DUP3 ISZERO PUSH2 0xD13 JUMPI SWAP2 PUSH1 0x20 MUL DUP3 ADD JUMPDEST DUP3 DUP2 GT ISZERO PUSH2 0xD12 JUMPI DUP3 MLOAD DUP3 PUSH0 PUSH2 0x100 EXP DUP2 SLOAD DUP2 PUSH20 0xFFFFFFFFFFFFFFFFFFFFFFFFFFFFFFFFFFFFFFFF MUL NOT AND SWAP1 DUP4 PUSH20 0xFFFFFFFFFFFFFFFFFFFFFFFFFFFFFFFFFFFFFFFF AND MUL OR SWAP1 SSTORE POP SWAP2 PUSH1 0x20 ADD SWAP2 SWAP1 PUSH1 0x1 ADD SWAP1 PUSH2 0xCBB JUMP JUMPDEST JUMPDEST POP SWAP1 POP PUSH2 0xD20 SWAP2 SWAP1 PUSH2 0xD24 JUMP JUMPDEST POP SWAP1 JUMP JUMPDEST JUMPDEST DUP1 DUP3 GT ISZERO PUSH2 0xD3B JUMPI PUSH0 DUP2 PUSH0 SWAP1 SSTORE POP PUSH1 0x1 ADD PUSH2 0xD25 JUMP JUMPDEST POP SWAP1 JUMP JUMPDEST PUSH0 PUSH20 0xFFFFFFFFFFFFFFFFFFFFFFFFFFFFFFFFFFFFFFFF DUP3 AND SWAP1 POP SWAP2 SWAP1 POP JUMP JUMPDEST PUSH0 DUP2 SWAP1 POP SWAP2 SWAP1 POP JUMP JUMPDEST PUSH0 PUSH2 0xD81 PUSH2 0xD7C PUSH2 0xD77 DUP5 PUSH2 0xD3F JUMP JUMPDEST PUSH2 0xD5E JUMP JUMPDEST PUSH2 0xD3F JUMP JUMPDEST SWAP1 POP SWAP2 SWAP1 POP JUMP JUMPDEST PUSH0 PUSH2 0xD92 DUP3 PUSH2 0xD67 JUMP JUMPDEST SWAP1 POP SWAP2 SWAP1 POP JUMP JUMPDEST PUSH0 PUSH2 0xDA3 DUP3 PUSH2 0xD88 JUMP JUMPDEST SWAP1 POP SWAP2 SWAP1 POP JUMP JUMPDEST PUSH2 0xDB3 DUP2 PUSH2 0xD99 JUMP JUMPDEST DUP3 MSTORE POP POP JUMP JUMPDEST PUSH0 PUSH1 0x20 DUP3 ADD SWAP1 POP PUSH2 0xDCC PUSH0 DUP4 ADD DUP5 PUSH2 0xDAA JUMP JUMPDEST SWAP3 SWAP2 POP POP JUMP JUMPDEST PUSH0 PUSH2 0xDDC DUP3 PUSH2 0xD88 JUMP JUMPDEST SWAP1 POP SWAP2 SWAP1 POP JUMP JUMPDEST PUSH2 0xDEC DUP2 PUSH2 0xDD2 JUMP JUMPDEST DUP3 MSTORE POP POP JUMP JUMPDEST PUSH0 PUSH1 0x20 DUP3 ADD SWAP1 POP PUSH2 0xE05 PUSH0 DUP4 ADD DUP5 PUSH2 0xDE3 JUMP JUMPDEST SWAP3 SWAP2 POP POP JUMP JUMPDEST PUSH0 DUP1 REVERT JUMPDEST PUSH0 DUP2 SWAP1 POP SWAP2 SWAP1 POP JUMP JUMPDEST PUSH2 0xE21 DUP2 PUSH2 0xE0F JUMP JUMPDEST DUP2 EQ PUSH2 0xE2B JUMPI PUSH0 DUP1 REVERT JUMPDEST POP JUMP JUMPDEST PUSH0 DUP2 CALLDATALOAD SWAP1 POP PUSH2 0xE3C DUP2 PUSH2 0xE18 JUMP JUMPDEST SWAP3 SWAP2 POP POP JUMP JUMPDEST PUSH0 PUSH1 0x20 DUP3 DUP5 SUB SLT ISZERO PUSH2 0xE57 JUMPI PUSH2 0xE56 PUSH2 0xE0B JUMP JUMPDEST JUMPDEST PUSH0 PUSH2 0xE64 DUP5 DUP3 DUP6 ADD PUSH2 0xE2E JUMP JUMPDEST SWAP2 POP POP SWAP3 SWAP2 POP POP JUMP JUMPDEST PUSH0 PUSH2 0xE77 DUP3 PUSH2 0xD88 JUMP JUMPDEST SWAP1 POP SWAP2 SWAP1 POP JUMP JUMPDEST PUSH2 0xE87 DUP2 PUSH2 0xE6D JUMP JUMPDEST DUP3 MSTORE POP POP JUMP JUMPDEST PUSH0 PUSH1 0x20 DUP3 ADD SWAP1 POP PUSH2 0xEA0 PUSH0 DUP4 ADD DUP5 PUSH2 0xE7E JUMP JUMPDEST SWAP3 SWAP2 POP POP JUMP JUMPDEST PUSH2 0xEAF DUP2 PUSH2 0xE0F JUMP JUMPDEST DUP3 MSTORE POP POP JUMP JUMPDEST PUSH0 PUSH1 0x20 DUP3 ADD SWAP1 POP PUSH2 0xEC8 PUSH0 DUP4 ADD DUP5 PUSH2 0xEA6 JUMP JUMPDEST SWAP3 SWAP2 POP POP JUMP JUMPDEST PUSH0 PUSH2 0xED8 DUP3 PUSH2 0xD3F JUMP JUMPDEST SWAP1 POP SWAP2 SWAP1 POP JUMP JUMPDEST PUSH2 0xEE8 DUP2 PUSH2 0xECE JUMP JUMPDEST DUP3 MSTORE POP POP JUMP JUMPDEST PUSH0 PUSH2 0x100 DUP3 ADD SWAP1 POP PUSH2 0xF02 PUSH0 DUP4 ADD DUP12 PUSH2 0xEA6 JUMP JUMPDEST PUSH2 0xF0F PUSH1 0x20 DUP4 ADD DUP11 PUSH2 0xEA6 JUMP JUMPDEST PUSH2 0xF1C PUSH1 0x40 DUP4 ADD DUP10 PUSH2 0xEA6 JUMP JUMPDEST PUSH2 0xF29 PUSH1 0x60 DUP4 ADD DUP9 PUSH2 0xEA6 JUMP JUMPDEST PUSH2 0xF36 PUSH1 0x80 DUP4 ADD DUP8 PUSH2 0xEA6 JUMP JUMPDEST PUSH2 0xF43 PUSH1 0xA0 DUP4 ADD DUP7 PUSH2 0xEA6 JUMP JUMPDEST PUSH2 0xF50 PUSH1 0xC0 DUP4 ADD DUP6 PUSH2 0xEA6 JUMP JUMPDEST PUSH2 0xF5D PUSH1 0xE0 DUP4 ADD DUP5 PUSH2 0xEDF JUMP JUMPDEST SWAP10 SWAP9 POP POP POP POP POP POP POP POP POP JUMP JUMPDEST PUSH0 DUP1 PUSH0 DUP1 PUSH0 PUSH1 0xA0 DUP7 DUP9 SUB SLT ISZERO PUSH2 0xF83 JUMPI PUSH2 0xF82 PUSH2 0xE0B JUMP JUMPDEST JUMPDEST PUSH0 PUSH2 0xF90 DUP9 DUP3 DUP10 ADD PUSH2 0xE2E JUMP JUMPDEST SWAP6 POP POP PUSH1 0x20 PUSH2 0xFA1 DUP9 DUP3 DUP10 ADD PUSH2 0xE2E JUMP JUMPDEST SWAP5 POP POP PUSH1 0x40 PUSH2 0xFB2 DUP9 DUP3 DUP10 ADD PUSH2 0xE2E JUMP JUMPDEST SWAP4 POP POP PUSH1 0x60 PUSH2 0xFC3 DUP9 DUP3 DUP10 ADD PUSH2 0xE2E JUMP JUMPDEST SWAP3 POP POP PUSH1 0x80 PUSH2 0xFD4 DUP9 DUP3 DUP10 ADD PUSH2 0xE2E JUMP JUMPDEST SWAP2 POP POP SWAP3 SWAP6 POP SWAP3 SWAP6 SWAP1 SWAP4 POP JUMP JUMPDEST PUSH0 DUP1 PUSH1 0x40 DUP4 DUP6 SUB SLT ISZERO PUSH2 0xFF7 JUMPI PUSH2 0xFF6 PUSH2 0xE0B JUMP JUMPDEST JUMPDEST PUSH0 PUSH2 0x1004 DUP6 DUP3 DUP7 ADD PUSH2 0xE2E JUMP JUMPDEST SWAP3 POP POP PUSH1 0x20 PUSH2 0x1015 DUP6 DUP3 DUP7 ADD PUSH2 0xE2E JUMP JUMPDEST SWAP2 POP POP SWAP3 POP SWAP3 SWAP1 POP JUMP JUMPDEST PUSH0 PUSH1 0x40 DUP3 ADD SWAP1 POP PUSH2 0x1032 PUSH0 DUP4 ADD DUP6 PUSH2 0xEDF JUMP JUMPDEST PUSH2 0x103F PUSH1 0x20 DUP4 ADD DUP5 PUSH2 0xEDF JUMP JUMPDEST SWAP4 SWAP3 POP POP POP JUMP JUMPDEST PUSH0 DUP2 MLOAD SWAP1 POP PUSH2 0x1054 DUP2 PUSH2 0xE18 JUMP JUMPDEST SWAP3 SWAP2 POP POP JUMP JUMPDEST PUSH0 PUSH1 0x20 DUP3 DUP5 SUB SLT ISZERO PUSH2 0x106F JUMPI PUSH2 0x106E PUSH2 0xE0B JUMP JUMPDEST JUMPDEST PUSH0 PUSH2 0x107C DUP5 DUP3 DUP6 ADD PUSH2 0x1046 JUMP JUMPDEST SWAP2 POP POP SWAP3 SWAP2 POP POP JUMP JUMPDEST PUSH0 DUP3 DUP3 MSTORE PUSH1 0x20 DUP3 ADD SWAP1 POP SWAP3 SWAP2 POP POP JUMP JUMPDEST PUSH32 0x506F742069732066756C6C000000000000000000000000000000000000000000 PUSH0 DUP3 ADD MSTORE POP JUMP JUMPDEST PUSH0 PUSH2 0x10C9 PUSH1 0xB DUP4 PUSH2 0x1085 JUMP JUMPDEST SWAP2 POP PUSH2 0x10D4 DUP3 PUSH2 0x1095 JUMP JUMPDEST PUSH1 0x20 DUP3 ADD SWAP1 POP SWAP2 SWAP1 POP JUMP JUMPDEST PUSH0 PUSH1 0x20 DUP3 ADD SWAP1 POP DUP2 DUP2 SUB PUSH0 DUP4 ADD MSTORE PUSH2 0x10F6 DUP2 PUSH2 0x10BD JUMP JUMPDEST SWAP1 POP SWAP2 SWAP1 POP JUMP JUMPDEST PUSH32 0x526F746174696E6720706F74732063616E6E6F74206265206A6F696E65640000 PUSH0 DUP3 ADD MSTORE POP JUMP JUMPDEST PUSH0 PUSH2 0x1131 PUSH1 0x1E DUP4 PUSH2 0x1085 JUMP JUMPDEST SWAP2 POP PUSH2 0x113C DUP3 PUSH2 0x10FD JUMP JUMPDEST PUSH1 0x20 DUP3 ADD SWAP1 POP SWAP2 SWAP1 POP JUMP JUMPDEST PUSH0 PUSH1 0x20 DUP3 ADD SWAP1 POP DUP2 DUP2 SUB PUSH0 DUP4 ADD MSTORE PUSH2 0x115E DUP2 PUSH2 0x1125 JUMP JUMPDEST SWAP1 POP SWAP2 SWAP1 POP JUMP JUMPDEST PUSH32 0x416C7265616479206A6F696E6564000000000000000000000000000000000000 PUSH0 DUP3 ADD MSTORE POP JUMP JUMPDEST PUSH0 PUSH2 0x1199 PUSH1 0xE DUP4 PUSH2 0x1085 JUMP JUMPDEST SWAP2 POP PUSH2 0x11A4 DUP3 PUSH2 0x1165 JUMP JUMPDEST PUSH1 0x20 DUP3 ADD SWAP1 POP SWAP2 SWAP1 POP JUMP JUMPDEST PUSH0 PUSH1 0x20 DUP3 ADD SWAP1 POP DUP2 DUP2 SUB PUSH0 DUP4 ADD MSTORE PUSH2 0x11C6 DUP2 PUSH2 0x118D JUMP JUMPDEST SWAP1 POP SWAP2 SWAP1 POP JUMP JUMPDEST PUSH0 PUSH1 0x60 DUP3 ADD SWAP1 POP PUSH2 0x11E0 PUSH0 DUP4 ADD DUP7 PUSH2 0xEDF JUMP JUMPDEST PUSH2 0x11ED PUSH1 0x20 DUP4 ADD DUP6 PUSH2 0xEDF JUMP JUMPDEST PUSH2 0x11FA PUSH1 0x40 DUP4 ADD DUP5 PUSH2 0xEA6 JUMP JUMPDEST SWAP5 SWAP4 POP POP POP POP JUMP JUMPDEST PUSH0 DUP2 ISZERO ISZERO SWAP1 POP SWAP2 SWAP1 POP JUMP JUMPDEST PUSH2 0x1216 DUP2 PUSH2 0x1202 JUMP JUMPDEST DUP2 EQ PUSH2 0x1220 JUMPI PUSH0 DUP1 REVERT JUMPDEST POP JUMP JUMPDEST PUSH0 DUP2 MLOAD SWAP1 POP PUSH2 0x1231 DUP2 PUSH2 0x120D JUMP JUMPDEST SWAP3 SWAP2 POP POP JUMP JUMPDEST PUSH0 PUSH1 0x20 DUP3 DUP5 SUB SLT ISZERO PUSH2 0x124C JUMPI PUSH2 0x124B PUSH2 0xE0B JUMP JUMPDEST JUMPDEST PUSH0 PUSH2 0x1259 DUP5 DUP3 DUP6 ADD PUSH2 0x1223 JUMP JUMPDEST SWAP2 POP POP SWAP3 SWAP2 POP POP JUMP JUMPDEST PUSH32 0x5472616E73666572206661696C65640000000000000000000000000000000000 PUSH0 DUP3 ADD MSTORE POP JUMP JUMPDEST PUSH0 PUSH2 0x1296 PUSH1 0xF DUP4 PUSH2 0x1085 JUMP JUMPDEST SWAP2 POP PUSH2 0x12A1 DUP3 PUSH2 0x1262 JUMP JUMPDEST PUSH1 0x20 DUP3 ADD SWAP1 POP SWAP2 SWAP1 POP JUMP JUMPDEST PUSH0 PUSH1 0x20 DUP3 ADD SWAP1 POP DUP2 DUP2 SUB PUSH0 DUP4 ADD MSTORE PUSH2 0x12C3 DUP2 PUSH2 0x128A JUMP JUMPDEST SWAP1 POP SWAP2 SWAP1 POP JUMP JUMPDEST PUSH0 PUSH1 0x40 DUP3 ADD SWAP1 POP PUSH2 0x12DD PUSH0 DUP4 ADD DUP6 PUSH2 0xEA6 JUMP JUMPDEST PUSH2 0x12EA PUSH1 0x20 DUP4 ADD DUP5 PUSH2 0xEDF JUMP JUMPDEST SWAP4 SWAP3 POP POP POP JUMP JUMPDEST PUSH32 0x526F746174696F6E206379636C65206D75737420626520706F73697469766500 PUSH0 DUP3 ADD MSTORE POP JUMP JUMPDEST PUSH0 PUSH2 0x1325 PUSH1 0x1F DUP4 PUSH2 0x1085 JUMP JUMPDEST SWAP2 POP PUSH2 0x1330 DUP3 PUSH2 0x12F1 JUMP JUMPDEST PUSH1 0x20 DUP3 ADD SWAP1 POP SWAP2 SWAP1 POP JUMP JUMPDEST PUSH0 PUSH1 0x20 DUP3 ADD SWAP1 POP DUP2 DUP2 SUB PUSH0 DUP4 ADD MSTORE PUSH2 0x1352 DUP2 PUSH2 0x1319 JUMP JUMPDEST SWAP1 POP SWAP2 SWAP1 POP JUMP JUMPDEST PUSH32 0x496E7465726573742064656E6F6D696E61746F72206D75737420626520706F73 PUSH0 DUP3 ADD MSTORE PUSH32 0x6974697665000000000000000000000000000000000000000000000000000000 PUSH1 0x20 DUP3 ADD MSTORE POP JUMP JUMPDEST PUSH0 PUSH2 0x13B3 PUSH1 0x25 DUP4 PUSH2 0x1085 JUMP JUMPDEST SWAP2 POP PUSH2 0x13BE DUP3 PUSH2 0x1359 JUMP JUMPDEST PUSH1 0x40 DUP3 ADD SWAP1 POP SWAP2 SWAP1 POP JUMP JUMPDEST PUSH0 PUSH1 0x20 DUP3 ADD SWAP1 POP DUP2 DUP2 SUB PUSH0 DUP4 ADD MSTORE PUSH2 0x13E0 DUP2 PUSH2 0x13A7 JUMP JUMPDEST SWAP1 POP SWAP2 SWAP1 POP JUMP JUMPDEST PUSH32 0x4E756D657261746F72206D757374206265206C657373207468616E206F722065 PUSH0 DUP3 ADD MSTORE PUSH32 0x7175616C20746F2064656E6F6D696E61746F7200000000000000000000000000 PUSH1 0x20 DUP3 ADD MSTORE POP JUMP JUMPDEST PUSH0 PUSH2 0x1441 PUSH1 0x33 DUP4 PUSH2 0x1085 JUMP JUMPDEST SWAP2 POP PUSH2 0x144C DUP3 PUSH2 0x13E7 JUMP JUMPDEST PUSH1 0x40 DUP3 ADD SWAP1 POP SWAP2 SWAP1 POP JUMP JUMPDEST PUSH0 PUSH1 0x20 DUP3 ADD SWAP1 POP DUP2 DUP2 SUB PUSH0 DUP4 ADD MSTORE PUSH2 0x146E DUP2 PUSH2 0x1435 JUMP JUMPDEST SWAP1 POP SWAP2 SWAP1 POP JUMP JUMPDEST PUSH32 0x4E487B7100000000000000000000000000000000000000000000000000000000 PUSH0 MSTORE PUSH1 0x11 PUSH1 0x4 MSTORE PUSH1 0x24 PUSH0 REVERT JUMPDEST PUSH0 PUSH2 0x14AC DUP3 PUSH2 0xE0F JUMP JUMPDEST SWAP2 POP PUSH32 0xFFFFFFFFFFFFFFFFFFFFFFFFFFFFFFFFFFFFFFFFFFFFFFFFFFFFFFFFFFFFFFFF DUP3 SUB PUSH2 0x14DE JUMPI PUSH2 0x14DD PUSH2 0x1475 JUMP JUMPDEST JUMPDEST PUSH1 0x1 DUP3 ADD SWAP1 POP SWAP2 SWAP1 POP JUMP JUMPDEST PUSH32 0x43726561746F722073686F756C64206465706F7369742074686520696E697469 PUSH0 DUP3 ADD MSTORE PUSH32 0x616C20616D6F756E740000000000000000000000000000000000000000000000 PUSH1 0x20 DUP3 ADD MSTORE POP JUMP JUMPDEST PUSH0 PUSH2 0x1543 PUSH1 0x29 DUP4 PUSH2 0x1085 JUMP JUMPDEST SWAP2 POP PUSH2 0x154E DUP3 PUSH2 0x14E9 JUMP JUMPDEST PUSH1 0x40 DUP3 ADD SWAP1 POP SWAP2 SWAP1 POP JUMP JUMPDEST PUSH0 PUSH1 0x20 DUP3 ADD SWAP1 POP DUP2 DUP2 SUB PUSH0 DUP4 ADD MSTORE PUSH2 0x1570 DUP2 PUSH2 0x1537 JUMP JUMPDEST SWAP1 POP SWAP2 SWAP1 POP JUMP JUMPDEST PUSH0 PUSH1 0xE0 DUP3 ADD SWAP1 POP PUSH2 0x158A PUSH0 DUP4 ADD DUP11 PUSH2 0xEA6 JUMP JUMPDEST PUSH2 0x1597 PUSH1 0x20 DUP4 ADD DUP10 PUSH2 0xEDF JUMP JUMPDEST PUSH2 0x15A4 PUSH1 0x40 DUP4 ADD DUP9 PUSH2 0xEA6 JUMP JUMPDEST PUSH2 0x15B1 PUSH1 0x60 DUP4 ADD DUP8 PUSH2 0xEA6 JUMP JUMPDEST PUSH2 0x15BE PUSH1 0x80 DUP4 ADD DUP7 PUSH2 0xEA6 JUMP JUMPDEST PUSH2 0x15CB PUSH1 0xA0 DUP4 ADD DUP6 PUSH2 0xEA6 JUMP JUMPDEST PUSH2 0x15D8 PUSH1 0xC0 DUP4 ADD DUP5 PUSH2 0xEA6 JUMP JUMPDEST SWAP9 SWAP8 POP POP POP POP POP POP POP POP JUMP JUMPDEST PUSH32 0x4F6E6C792074686520706F742063726561746F722063616E2072657665616C20 PUSH0 DUP3 ADD MSTORE PUSH32 0x7468652077696E6E657200000000000000000000000000000000000000000000 PUSH1 0x20 DUP3 ADD MSTORE POP JUMP JUMPDEST PUSH0 PUSH2 0x163E PUSH1 0x2A DUP4 PUSH2 0x1085 JUMP JUMPDEST SWAP2 POP PUSH2 0x1649 DUP3 PUSH2 0x15E4 JUMP JUMPDEST PUSH1 0x40 DUP3 ADD SWAP1 POP SWAP2 SWAP1 POP JUMP JUMPDEST PUSH0 PUSH1 0x20 DUP3 ADD SWAP1 POP DUP2 DUP2 SUB PUSH0 DUP4 ADD MSTORE PUSH2 0x166B DUP2 PUSH2 0x1632 JUMP JUMPDEST SWAP1 POP SWAP2 SWAP1 POP JUMP JUMPDEST PUSH0 PUSH2 0x167C DUP3 PUSH2 0xE0F JUMP JUMPDEST SWAP2 POP PUSH2 0x1687 DUP4 PUSH2 0xE0F JUMP JUMPDEST SWAP3 POP DUP3 DUP3 ADD SWAP1 POP DUP1 DUP3 GT ISZERO PUSH2 0x169F JUMPI PUSH2 0x169E PUSH2 0x1475 JUMP JUMPDEST JUMPDEST SWAP3 SWAP2 POP POP JUMP JUMPDEST PUSH32 0x4E65787420726F746174696F6E206E6F74207965742064756500000000000000 PUSH0 DUP3 ADD MSTORE POP JUMP JUMPDEST PUSH0 PUSH2 0x16D9 PUSH1 0x19 DUP4 PUSH2 0x1085 JUMP JUMPDEST SWAP2 POP PUSH2 0x16E4 DUP3 PUSH2 0x16A5 JUMP JUMPDEST PUSH1 0x20 DUP3 ADD SWAP1 POP SWAP2 SWAP1 POP JUMP JUMPDEST PUSH0 PUSH1 0x20 DUP3 ADD SWAP1 POP DUP2 DUP2 SUB PUSH0 DUP4 ADD MSTORE PUSH2 0x1706 DUP2 PUSH2 0x16CD JUMP JUMPDEST SWAP1 POP SWAP2 SWAP1 POP JUMP JUMPDEST PUSH32 0x4E487B7100000000000000000000000000000000000000000000000000000000 PUSH0 MSTORE PUSH1 0x12 PUSH1 0x4 MSTORE PUSH1 0x24 PUSH0 REVERT JUMPDEST PUSH0 PUSH2 0x1744 DUP3 PUSH2 0xE0F JUMP JUMPDEST SWAP2 POP PUSH2 0x174F DUP4 PUSH2 0xE0F JUMP JUMPDEST SWAP3 POP DUP3 PUSH2 0x175F JUMPI PUSH2 0x175E PUSH2 0x170D JUMP JUMPDEST JUMPDEST DUP3 DUP3 MOD SWAP1 POP SWAP3 SWAP2 POP POP JUMP JUMPDEST PUSH32 0x4E487B7100000000000000000000000000000000000000000000000000000000 PUSH0 MSTORE PUSH1 0x32 PUSH1 0x4 MSTORE PUSH1 0x24 PUSH0 REVERT JUMPDEST PUSH0 PUSH2 0x17A1 DUP3 PUSH2 0xE0F JUMP JUMPDEST SWAP2 POP PUSH2 0x17AC DUP4 PUSH2 0xE0F JUMP JUMPDEST SWAP3 POP DUP3 DUP3 MUL PUSH2 0x17BA DUP2 PUSH2 0xE0F JUMP JUMPDEST SWAP2 POP DUP3 DUP3 DIV DUP5 EQ DUP4 ISZERO OR PUSH2 0x17D1 JUMPI PUSH2 0x17D0 PUSH2 0x1475 JUMP JUMPDEST JUMPDEST POP SWAP3 SWAP2 POP POP JUMP JUMPDEST PUSH0 PUSH2 0x17E2 DUP3 PUSH2 0xE0F JUMP JUMPDEST SWAP2 POP PUSH2 0x17ED DUP4 PUSH2 0xE0F JUMP JUMPDEST SWAP3 POP DUP3 DUP3 SUB SWAP1 POP DUP2 DUP2 GT ISZERO PUSH2 0x1805 JUMPI PUSH2 0x1804 PUSH2 0x1475 JUMP JUMPDEST JUMPDEST SWAP3 SWAP2 POP POP JUMP JUMPDEST PUSH0 PUSH1 0x40 DUP3 ADD SWAP1 POP PUSH2 0x181E PUSH0 DUP4 ADD DUP6 PUSH2 0xEDF JUMP JUMPDEST PUSH2 0x182B PUSH1 0x20 DUP4 ADD DUP5 PUSH2 0xEA6 JUMP JUMPDEST SWAP4 SWAP3 POP POP POP JUMP JUMPDEST PUSH32 0x5969656C64207472616E73666572206661696C65640000000000000000000000 PUSH0 DUP3 ADD MSTORE POP JUMP JUMPDEST PUSH0 PUSH2 0x1866 PUSH1 0x15 DUP4 PUSH2 0x1085 JUMP JUMPDEST SWAP2 POP PUSH2 0x1871 DUP3 PUSH2 0x1832 JUMP JUMPDEST PUSH1 0x20 DUP3 ADD SWAP1 POP SWAP2 SWAP1 POP JUMP JUMPDEST PUSH0 PUSH1 0x20 DUP3 ADD SWAP1 POP DUP2 DUP2 SUB PUSH0 DUP4 ADD MSTORE PUSH2 0x1893 DUP2 PUSH2 0x185A JUMP JUMPDEST SWAP1 POP SWAP2 SWAP1 POP JUMP JUMPDEST PUSH0 PUSH1 0x60 DUP3 ADD SWAP1 POP PUSH2 0x18AD PUSH0 DUP4 ADD DUP7 PUSH2 0xEA6 JUMP JUMPDEST PUSH2 0x18BA PUSH1 0x20 DUP4 ADD DUP6 PUSH2 0xEDF JUMP JUMPDEST PUSH2 0x18C7 PUSH1 0x40 DUP4 ADD DUP5 PUSH2 0xEA6 JUMP JUMPDEST SWAP5 SWAP4 POP POP POP POP JUMP JUMPDEST PUSH0 PUSH2 0x18D9 DUP3 PUSH2 0xE0F JUMP JUMPDEST SWAP2 POP PUSH2 0x18E4 DUP4 PUSH2 0xE0F JUMP JUMPDEST SWAP3 POP DUP3 PUSH2 0x18F4 JUMPI PUSH2 0x18F3 PUSH2 0x170D JUMP JUMPDEST JUMPDEST DUP3 DUP3 DIV SWAP1 POP SWAP3 SWAP2 POP POP JUMP INVALID LOG2 PUSH5 0x6970667358 0x22 SLT KECCAK256 TLOAD SWAP6 MSTORE 0xF7 0xD6 LOG0 PC CALLVALUE 0xC1 PUSH8 0x7AB5B4ED693772F9 LOG4 0xEB 0x2C PUSH10 0xFBCA599A9AABB6FE86D3 PUSH5 0x736F6C6343 STOP ADDMOD XOR STOP CALLER "
				},
				"gasEstimates": {
					"creation": {
						"codeDepositCost": "1290600",
						"executionCost": "infinite",
						"totalCost": "infinite"
					},
					"external": {
						"BLAST()": "infinite",
						"USDB()": "infinite",
						"calculateInterest(uint256,uint256)": "infinite",
						"claimMyContractsGas()": "infinite",
						"createPot(uint256,uint256,uint256,uint256,uint256)": "infinite",
						"joinPot(uint256)": "infinite",
						"pots(uint256)": "infinite",
						"rotateLiquidity(uint256)": "infinite",
						"totalRevenue()": "2425",
						"usdbToken()": "infinite"
					},
					"internal": {
						"deductRevenue(uint256)": "infinite",
						"updateUserYield(address,uint256)": "infinite"
					}
				},
				"methodIdentifiers": {
					"BLAST()": "97d75776",
					"USDB()": "31a0edec",
					"calculateInterest(uint256,uint256)": "efdd7c07",
					"claimMyContractsGas()": "77d5d2dc",
					"createPot(uint256,uint256,uint256,uint256,uint256)": "ca0ea3d1",
					"joinPot(uint256)": "831d49ef",
					"pots(uint256)": "c3c3df4f",
					"rotateLiquidity(uint256)": "ef922b87",
					"totalRevenue()": "bf2d9e0b",
					"usdbToken()": "4a80409e"
				}
			},
			"storageLayout": {
				"storage": [
					{
						"astId": 131,
						"contract": "contracts/QuailFinance.sol:QuailFinance",
						"label": "nextPotId",
						"offset": 0,
						"slot": "0",
						"type": "t_uint256"
					},
					{
						"astId": 139,
						"contract": "contracts/QuailFinance.sol:QuailFinance",
						"label": "totalRevenue",
						"offset": 0,
						"slot": "1",
						"type": "t_uint256"
					},
					{
						"astId": 142,
						"contract": "contracts/QuailFinance.sol:QuailFinance",
						"label": "usdbToken",
						"offset": 0,
						"slot": "2",
						"type": "t_contract(IERC20)77"
					},
					{
						"astId": 147,
						"contract": "contracts/QuailFinance.sol:QuailFinance",
						"label": "pots",
						"offset": 0,
						"slot": "3",
						"type": "t_mapping(t_uint256,t_struct(Pot)175_storage)"
					},
					{
						"astId": 151,
						"contract": "contracts/QuailFinance.sol:QuailFinance",
						"label": "userYield",
						"offset": 0,
						"slot": "4",
						"type": "t_mapping(t_address,t_uint256)"
					}
				],
				"types": {
					"t_address": {
						"encoding": "inplace",
						"label": "address",
						"numberOfBytes": "20"
					},
					"t_array(t_address)dyn_storage": {
						"base": "t_address",
						"encoding": "dynamic_array",
						"label": "address[]",
						"numberOfBytes": "32"
					},
					"t_contract(IERC20)77": {
						"encoding": "inplace",
						"label": "contract IERC20",
						"numberOfBytes": "20"
					},
					"t_mapping(t_address,t_uint256)": {
						"encoding": "mapping",
						"key": "t_address",
						"label": "mapping(address => uint256)",
						"numberOfBytes": "32",
						"value": "t_uint256"
					},
					"t_mapping(t_uint256,t_struct(Pot)175_storage)": {
						"encoding": "mapping",
						"key": "t_uint256",
						"label": "mapping(uint256 => struct QuailFinance.Pot)",
						"numberOfBytes": "32",
						"value": "t_struct(Pot)175_storage"
					},
					"t_struct(Pot)175_storage": {
						"encoding": "inplace",
						"label": "struct QuailFinance.Pot",
						"members": [
							{
								"astId": 153,
								"contract": "contracts/QuailFinance.sol:QuailFinance",
								"label": "amount",
								"offset": 0,
								"slot": "0",
								"type": "t_uint256"
							},
							{
								"astId": 155,
								"contract": "contracts/QuailFinance.sol:QuailFinance",
								"label": "rotationCycleInSeconds",
								"offset": 0,
								"slot": "1",
								"type": "t_uint256"
							},
							{
								"astId": 157,
								"contract": "contracts/QuailFinance.sol:QuailFinance",
								"label": "lastRotationTime",
								"offset": 0,
								"slot": "2",
								"type": "t_uint256"
							},
							{
								"astId": 159,
								"contract": "contracts/QuailFinance.sol:QuailFinance",
								"label": "interestNumerator",
								"offset": 0,
								"slot": "3",
								"type": "t_uint256"
							},
							{
								"astId": 161,
								"contract": "contracts/QuailFinance.sol:QuailFinance",
								"label": "interestDenominator",
								"offset": 0,
								"slot": "4",
								"type": "t_uint256"
							},
							{
								"astId": 163,
								"contract": "contracts/QuailFinance.sol:QuailFinance",
								"label": "numParticipants",
								"offset": 0,
								"slot": "5",
								"type": "t_uint256"
							},
							{
								"astId": 165,
								"contract": "contracts/QuailFinance.sol:QuailFinance",
								"label": "currentRound",
								"offset": 0,
								"slot": "6",
								"type": "t_uint256"
							},
							{
								"astId": 167,
								"contract": "contracts/QuailFinance.sol:QuailFinance",
								"label": "potCreator",
								"offset": 0,
								"slot": "7",
								"type": "t_address"
							},
							{
								"astId": 170,
								"contract": "contracts/QuailFinance.sol:QuailFinance",
								"label": "participants",
								"offset": 0,
								"slot": "8",
								"type": "t_array(t_address)dyn_storage"
							},
							{
								"astId": 174,
								"contract": "contracts/QuailFinance.sol:QuailFinance",
								"label": "contributions",
								"offset": 0,
								"slot": "9",
								"type": "t_mapping(t_address,t_uint256)"
							}
						],
						"numberOfBytes": "320"
					},
					"t_uint256": {
						"encoding": "inplace",
						"label": "uint256",
						"numberOfBytes": "32"
					}
				}
			},
			"userdoc": {
				"kind": "user",
				"methods": {},
				"version": 1
			}
		}
	}
}