{
	"contracts/QuailFinance.sol": {
		"QuailFinance": {
			"abi": [
				{
					"inputs": [],
					"stateMutability": "nonpayable",
					"type": "constructor"
				},
				{
					"inputs": [],
					"name": "InvalidInitialization",
					"type": "error"
				},
				{
					"inputs": [],
					"name": "NotInitializing",
					"type": "error"
				},
				{
					"inputs": [
						{
							"internalType": "address",
							"name": "owner",
							"type": "address"
						}
					],
					"name": "OwnableInvalidOwner",
					"type": "error"
				},
				{
					"inputs": [
						{
							"internalType": "address",
							"name": "account",
							"type": "address"
						}
					],
					"name": "OwnableUnauthorizedAccount",
					"type": "error"
				},
				{
					"anonymous": false,
					"inputs": [
						{
							"indexed": false,
							"internalType": "uint64",
							"name": "version",
							"type": "uint64"
						}
					],
					"name": "Initialized",
					"type": "event"
				},
				{
					"anonymous": false,
					"inputs": [
						{
							"indexed": true,
							"internalType": "address",
							"name": "previousOwner",
							"type": "address"
						},
						{
							"indexed": true,
							"internalType": "address",
							"name": "newOwner",
							"type": "address"
						}
					],
					"name": "OwnershipTransferred",
					"type": "event"
				},
				{
					"anonymous": false,
					"inputs": [
						{
							"indexed": false,
							"internalType": "uint256",
							"name": "potId",
							"type": "uint256"
						},
						{
							"indexed": false,
							"internalType": "address",
							"name": "participant",
							"type": "address"
						},
						{
							"indexed": false,
							"internalType": "uint256",
							"name": "amount",
							"type": "uint256"
						},
						{
							"indexed": false,
							"internalType": "uint256",
							"name": "rotationCycleInSeconds",
							"type": "uint256"
						},
						{
							"indexed": false,
							"internalType": "uint256",
							"name": "_interestDenominator",
							"type": "uint256"
						},
						{
							"indexed": false,
							"internalType": "uint256",
							"name": "_interestNumerator",
							"type": "uint256"
						},
						{
							"indexed": false,
							"internalType": "uint256",
							"name": "_numParticipants",
							"type": "uint256"
						}
					],
					"name": "ParticipantJoined",
					"type": "event"
				},
				{
					"anonymous": false,
					"inputs": [
						{
							"indexed": false,
							"internalType": "uint256",
							"name": "potId",
							"type": "uint256"
						},
						{
							"indexed": false,
							"internalType": "string",
							"name": "name",
							"type": "string"
						},
						{
							"indexed": false,
							"internalType": "address",
							"name": "creator",
							"type": "address"
						},
						{
							"indexed": false,
							"internalType": "uint256",
							"name": "amount",
							"type": "uint256"
						},
						{
							"indexed": false,
							"internalType": "uint256",
							"name": "rotationCycleInSeconds",
							"type": "uint256"
						},
						{
							"indexed": false,
							"internalType": "uint256",
							"name": "_interestDenominator",
							"type": "uint256"
						},
						{
							"indexed": false,
							"internalType": "uint256",
							"name": "_interestNumerator",
							"type": "uint256"
						},
						{
							"indexed": false,
							"internalType": "uint256",
							"name": "_numParticipants",
							"type": "uint256"
						}
					],
					"name": "PotCreated",
					"type": "event"
				},
				{
					"anonymous": false,
					"inputs": [
						{
							"indexed": false,
							"internalType": "uint256",
							"name": "potId",
							"type": "uint256"
						},
						{
							"indexed": false,
							"internalType": "address",
							"name": "winner",
							"type": "address"
						},
						{
							"indexed": false,
							"internalType": "uint256",
							"name": "round",
							"type": "uint256"
						}
					],
					"name": "RotationCompleted",
					"type": "event"
				},
				{
					"inputs": [],
					"name": "BLAST",
					"outputs": [
						{
							"internalType": "contract IBlast",
							"name": "",
							"type": "address"
						}
					],
					"stateMutability": "view",
					"type": "function"
				},
				{
					"inputs": [],
					"name": "USDB",
					"outputs": [
						{
							"internalType": "contract IERC20Rebasing",
							"name": "",
							"type": "address"
						}
					],
					"stateMutability": "view",
					"type": "function"
				},
				{
					"inputs": [
						{
							"internalType": "uint256",
							"name": "_potId",
							"type": "uint256"
						},
						{
							"internalType": "uint256",
							"name": "_amount",
							"type": "uint256"
						}
					],
					"name": "calculateInterest",
					"outputs": [
						{
							"internalType": "uint256",
							"name": "",
							"type": "uint256"
						}
					],
					"stateMutability": "view",
					"type": "function"
				},
				{
					"inputs": [],
					"name": "claimAllYield",
					"outputs": [],
					"stateMutability": "nonpayable",
					"type": "function"
				},
				{
					"inputs": [
						{
							"internalType": "uint256",
							"name": "claimAmount",
							"type": "uint256"
						},
						{
							"internalType": "bytes32[]",
							"name": "merkleProof",
							"type": "bytes32[]"
						}
					],
					"name": "claimFunds",
					"outputs": [],
					"stateMutability": "nonpayable",
					"type": "function"
				},
				{
					"inputs": [],
					"name": "claimMyContractsGas",
					"outputs": [],
					"stateMutability": "nonpayable",
					"type": "function"
				},
				{
					"inputs": [
						{
							"internalType": "string",
							"name": "_name",
							"type": "string"
						},
						{
							"internalType": "uint256",
							"name": "_rotationCycleInSeconds",
							"type": "uint256"
						},
						{
							"internalType": "uint256",
							"name": "_interestDenominator",
							"type": "uint256"
						},
						{
							"internalType": "uint256",
							"name": "_interestNumerator",
							"type": "uint256"
						},
						{
							"internalType": "uint256",
							"name": "_numParticipants",
							"type": "uint256"
						},
						{
							"internalType": "uint256",
							"name": "_amount",
							"type": "uint256"
						}
					],
					"name": "createPot",
					"outputs": [],
					"stateMutability": "nonpayable",
					"type": "function"
				},
				{
					"inputs": [
						{
							"internalType": "address",
							"name": "",
							"type": "address"
						}
					],
					"name": "hasClaimed",
					"outputs": [
						{
							"internalType": "uint256",
							"name": "",
							"type": "uint256"
						}
					],
					"stateMutability": "view",
					"type": "function"
				},
				{
					"inputs": [],
					"name": "initialize",
					"outputs": [],
					"stateMutability": "nonpayable",
					"type": "function"
				},
				{
					"inputs": [
						{
							"internalType": "uint256",
							"name": "_potId",
							"type": "uint256"
						}
					],
					"name": "joinPot",
					"outputs": [],
					"stateMutability": "payable",
					"type": "function"
				},
				{
					"inputs": [],
					"name": "merkleRoot",
					"outputs": [
						{
							"internalType": "bytes32",
							"name": "",
							"type": "bytes32"
						}
					],
					"stateMutability": "view",
					"type": "function"
				},
				{
					"inputs": [],
					"name": "owner",
					"outputs": [
						{
							"internalType": "address",
							"name": "",
							"type": "address"
						}
					],
					"stateMutability": "view",
					"type": "function"
				},
				{
					"inputs": [
						{
							"internalType": "uint256",
							"name": "",
							"type": "uint256"
						}
					],
					"name": "pots",
					"outputs": [
						{
							"internalType": "string",
							"name": "name",
							"type": "string"
						},
						{
							"internalType": "uint256",
							"name": "amount",
							"type": "uint256"
						},
						{
							"internalType": "uint256",
							"name": "rotationCycleInSeconds",
							"type": "uint256"
						},
						{
							"internalType": "uint256",
							"name": "lastRotationTime",
							"type": "uint256"
						},
						{
							"internalType": "uint256",
							"name": "interestNumerator",
							"type": "uint256"
						},
						{
							"internalType": "uint256",
							"name": "interestDenominator",
							"type": "uint256"
						},
						{
							"internalType": "uint256",
							"name": "numParticipants",
							"type": "uint256"
						},
						{
							"internalType": "uint256",
							"name": "currentRound",
							"type": "uint256"
						},
						{
							"internalType": "address",
							"name": "potCreator",
							"type": "address"
						}
					],
					"stateMutability": "view",
					"type": "function"
				},
				{
					"inputs": [],
					"name": "renounceOwnership",
					"outputs": [],
					"stateMutability": "nonpayable",
					"type": "function"
				},
				{
					"inputs": [
						{
							"internalType": "uint256",
							"name": "_potId",
							"type": "uint256"
						}
					],
					"name": "rotateLiquidity",
					"outputs": [],
					"stateMutability": "nonpayable",
					"type": "function"
				},
				{
					"inputs": [
						{
							"internalType": "bytes32",
							"name": "_merkleRoot",
							"type": "bytes32"
						}
					],
					"name": "setMerkleRoot",
					"outputs": [],
					"stateMutability": "nonpayable",
					"type": "function"
				},
				{
					"inputs": [],
					"name": "totalRevenue",
					"outputs": [
						{
							"internalType": "uint256",
							"name": "",
							"type": "uint256"
						}
					],
					"stateMutability": "view",
					"type": "function"
				},
				{
					"inputs": [
						{
							"internalType": "address",
							"name": "newOwner",
							"type": "address"
						}
					],
					"name": "transferOwnership",
					"outputs": [],
					"stateMutability": "nonpayable",
					"type": "function"
				},
				{
					"inputs": [],
					"name": "usdbToken",
					"outputs": [
						{
							"internalType": "contract IERC20",
							"name": "",
							"type": "address"
						}
					],
					"stateMutability": "view",
					"type": "function"
				}
			],
			"devdoc": {
				"errors": {
					"InvalidInitialization()": [
						{
							"details": "The contract is already initialized."
						}
					],
					"NotInitializing()": [
						{
							"details": "The contract is not initializing."
						}
					],
					"OwnableInvalidOwner(address)": [
						{
							"details": "The owner is not a valid owner account. (eg. `address(0)`)"
						}
					],
					"OwnableUnauthorizedAccount(address)": [
						{
							"details": "The caller account is not authorized to perform an operation."
						}
					]
				},
				"events": {
					"Initialized(uint64)": {
						"details": "Triggered when the contract has been initialized or reinitialized."
					}
				},
				"kind": "dev",
				"methods": {
					"owner()": {
						"details": "Returns the address of the current owner."
					},
					"renounceOwnership()": {
						"details": "Leaves the contract without owner. It will not be possible to call `onlyOwner` functions. Can only be called by the current owner. NOTE: Renouncing ownership will leave the contract without an owner, thereby disabling any functionality that is only available to the owner."
					},
					"transferOwnership(address)": {
						"details": "Transfers ownership of the contract to a new account (`newOwner`). Can only be called by the current owner."
					}
				},
				"version": 1
			},
			"evm": {
				"assembly": "    /* \"contracts/QuailFinance.sol\":419:9857  contract QuailFinance is Initializable, OwnableUpgradeable {... */\n  mstore(0x40, 0x80)\n    /* \"contracts/QuailFinance.sol\":592:593  1 */\n  0x01\n    /* \"contracts/QuailFinance.sol\":564:593  uint256 private nextPotId = 1 */\n  dup1\n  sstore\n    /* \"contracts/QuailFinance.sol\":4038:4424  constructor() {... */\n  callvalue\n  dup1\n  iszero\n  tag_1\n  jumpi\n  0x00\n  dup1\n  revert\ntag_1:\n  pop\n    /* \"contracts/QuailFinance.sol\":3825:3867  0x4200000000000000000000000000000000000022 */\n  0x4200000000000000000000000000000000000022\n    /* \"contracts/QuailFinance.sol\":4062:4076  USDB.configure */\n  0xffffffffffffffffffffffffffffffffffffffff\n  and\n  0x1a33757d\n    /* \"contracts/QuailFinance.sol\":4077:4096  YieldMode.CLAIMABLE */\n  0x02\n    /* \"contracts/QuailFinance.sol\":4062:4097  USDB.configure(YieldMode.CLAIMABLE) */\n  mload(0x40)\n  dup3\n  0xffffffff\n  and\n  0xe0\n  shl\n  dup2\n  mstore\n  0x04\n  add\n  tag_4\n  swap2\n  swap1\n  tag_5\n  jump\t// in\ntag_4:\n  0x20\n  mload(0x40)\n  dup1\n  dup4\n  sub\n  dup2\n  0x00\n  dup8\n  gas\n  call\n  iszero\n  dup1\n  iszero\n  tag_7\n  jumpi\n  returndatasize\n  0x00\n  dup1\n  returndatacopy\n  revert(0x00, returndatasize)\ntag_7:\n  pop\n  pop\n  pop\n  pop\n  mload(0x40)\n  returndatasize\n  not(0x1f)\n  0x1f\n  dup3\n  add\n  and\n  dup3\n  add\n  dup1\n  0x40\n  mstore\n  pop\n  dup2\n  add\n  swap1\n  tag_8\n  swap2\n  swap1\n  tag_9\n  jump\t// in\ntag_8:\n  pop\n    /* \"contracts/QuailFinance.sol\":4163:4205  0x4200000000000000000000000000000000000022 */\n  0x4200000000000000000000000000000000000022\n    /* \"contracts/QuailFinance.sol\":4144:4153  usdbToken */\n  0x03\n  0x00\n    /* \"contracts/QuailFinance.sol\":4144:4206  usdbToken = IERC20(0x4200000000000000000000000000000000000022) */\n  0x0100\n  exp\n  dup2\n  sload\n  dup2\n  0xffffffffffffffffffffffffffffffffffffffff\n  mul\n  not\n  and\n  swap1\n  dup4\n  0xffffffffffffffffffffffffffffffffffffffff\n  and\n  mul\n  or\n  swap1\n  sstore\n  pop\n    /* \"contracts/QuailFinance.sol\":659:701  0x4300000000000000000000000000000000000002 */\n  0x4300000000000000000000000000000000000002\n    /* \"contracts/QuailFinance.sol\":4216:4243  BLAST.configureClaimableGas */\n  0xffffffffffffffffffffffffffffffffffffffff\n  and\n  0x4e606c47\n    /* \"contracts/QuailFinance.sol\":4216:4245  BLAST.configureClaimableGas() */\n  mload(0x40)\n  dup2\n  0xffffffff\n  and\n  0xe0\n  shl\n  dup2\n  mstore\n  0x04\n  add\n  0x00\n  mload(0x40)\n  dup1\n  dup4\n  sub\n  dup2\n  0x00\n  dup8\n  dup1\n  extcodesize\n  iszero\n  dup1\n  iszero\n  tag_10\n  jumpi\n  0x00\n  dup1\n  revert\ntag_10:\n  pop\n  gas\n  call\n  iszero\n  dup1\n  iszero\n  tag_12\n  jumpi\n  returndatasize\n  0x00\n  dup1\n  returndatacopy\n  revert(0x00, returndatasize)\ntag_12:\n  pop\n  pop\n  pop\n  pop\n    /* \"contracts/QuailFinance.sol\":4309:4351  0x2fc95838c71e76ec69ff817983BFf17c710F34E0 */\n  0x2fc95838c71e76ec69ff817983bff17c710f34e0\n    /* \"contracts/QuailFinance.sol\":4296:4376  IBlastPoints(0x2fc95838c71e76ec69ff817983BFf17c710F34E0).configurePointsOperator */\n  0xffffffffffffffffffffffffffffffffffffffff\n  and\n  0x36b91f2b\n    /* \"contracts/QuailFinance.sol\":4377:4419  0xE4860D3973802C7C42450D7b9741921C7711D039 */\n  0xe4860d3973802c7c42450d7b9741921c7711d039\n    /* \"contracts/QuailFinance.sol\":4296:4420  IBlastPoints(0x2fc95838c71e76ec69ff817983BFf17c710F34E0).configurePointsOperator(0xE4860D3973802C7C42450D7b9741921C7711D039) */\n  mload(0x40)\n  dup3\n  0xffffffff\n  and\n  0xe0\n  shl\n  dup2\n  mstore\n  0x04\n  add\n  tag_13\n  swap2\n  swap1\n  tag_14\n  jump\t// in\ntag_13:\n  0x00\n  mload(0x40)\n  dup1\n  dup4\n  sub\n  dup2\n  0x00\n  dup8\n  dup1\n  extcodesize\n  iszero\n  dup1\n  iszero\n  tag_15\n  jumpi\n  0x00\n  dup1\n  revert\ntag_15:\n  pop\n  gas\n  call\n  iszero\n  dup1\n  iszero\n  tag_17\n  jumpi\n  returndatasize\n  0x00\n  dup1\n  returndatacopy\n  revert(0x00, returndatasize)\ntag_17:\n  pop\n  pop\n  pop\n  pop\n    /* \"contracts/QuailFinance.sol\":419:9857  contract QuailFinance is Initializable, OwnableUpgradeable {... */\n  jump(tag_18)\n    /* \"#utility.yul\":7:187   */\ntag_19:\n    /* \"#utility.yul\":55:132   */\n  0x4e487b7100000000000000000000000000000000000000000000000000000000\n    /* \"#utility.yul\":52:53   */\n  0x00\n    /* \"#utility.yul\":45:133   */\n  mstore\n    /* \"#utility.yul\":152:156   */\n  0x21\n    /* \"#utility.yul\":149:150   */\n  0x04\n    /* \"#utility.yul\":142:157   */\n  mstore\n    /* \"#utility.yul\":176:180   */\n  0x24\n    /* \"#utility.yul\":173:174   */\n  0x00\n    /* \"#utility.yul\":166:181   */\n  revert\n    /* \"#utility.yul\":193:312   */\ntag_20:\n    /* \"#utility.yul\":280:281   */\n  0x03\n    /* \"#utility.yul\":273:278   */\n  dup2\n    /* \"#utility.yul\":270:282   */\n  lt\n    /* \"#utility.yul\":260:306   */\n  tag_36\n  jumpi\n    /* \"#utility.yul\":286:304   */\n  tag_37\n  tag_19\n  jump\t// in\ntag_37:\n    /* \"#utility.yul\":260:306   */\ntag_36:\n    /* \"#utility.yul\":193:312   */\n  pop\n  jump\t// out\n    /* \"#utility.yul\":318:457   */\ntag_21:\n    /* \"#utility.yul\":369:376   */\n  0x00\n    /* \"#utility.yul\":398:403   */\n  dup2\n    /* \"#utility.yul\":387:403   */\n  swap1\n  pop\n    /* \"#utility.yul\":404:451   */\n  tag_39\n    /* \"#utility.yul\":445:450   */\n  dup3\n    /* \"#utility.yul\":404:451   */\n  tag_20\n  jump\t// in\ntag_39:\n    /* \"#utility.yul\":318:457   */\n  swap2\n  swap1\n  pop\n  jump\t// out\n    /* \"#utility.yul\":463:602   */\ntag_22:\n    /* \"#utility.yul\":525:534   */\n  0x00\n    /* \"#utility.yul\":558:596   */\n  tag_41\n    /* \"#utility.yul\":590:595   */\n  dup3\n    /* \"#utility.yul\":558:596   */\n  tag_21\n  jump\t// in\ntag_41:\n    /* \"#utility.yul\":545:596   */\n  swap1\n  pop\n    /* \"#utility.yul\":463:602   */\n  swap2\n  swap1\n  pop\n  jump\t// out\n    /* \"#utility.yul\":608:763   */\ntag_23:\n    /* \"#utility.yul\":707:756   */\n  tag_43\n    /* \"#utility.yul\":750:755   */\n  dup2\n    /* \"#utility.yul\":707:756   */\n  tag_22\n  jump\t// in\ntag_43:\n    /* \"#utility.yul\":702:705   */\n  dup3\n    /* \"#utility.yul\":695:757   */\n  mstore\n    /* \"#utility.yul\":608:763   */\n  pop\n  pop\n  jump\t// out\n    /* \"#utility.yul\":769:1015   */\ntag_5:\n    /* \"#utility.yul\":874:878   */\n  0x00\n    /* \"#utility.yul\":912:914   */\n  0x20\n    /* \"#utility.yul\":901:910   */\n  dup3\n    /* \"#utility.yul\":897:915   */\n  add\n    /* \"#utility.yul\":889:915   */\n  swap1\n  pop\n    /* \"#utility.yul\":925:1008   */\n  tag_45\n    /* \"#utility.yul\":1005:1006   */\n  0x00\n    /* \"#utility.yul\":994:1003   */\n  dup4\n    /* \"#utility.yul\":990:1007   */\n  add\n    /* \"#utility.yul\":981:987   */\n  dup5\n    /* \"#utility.yul\":925:1008   */\n  tag_23\n  jump\t// in\ntag_45:\n    /* \"#utility.yul\":769:1015   */\n  swap3\n  swap2\n  pop\n  pop\n  jump\t// out\n    /* \"#utility.yul\":1102:1219   */\ntag_25:\n    /* \"#utility.yul\":1211:1212   */\n  0x00\n    /* \"#utility.yul\":1208:1209   */\n  dup1\n    /* \"#utility.yul\":1201:1213   */\n  revert\n    /* \"#utility.yul\":1348:1425   */\ntag_27:\n    /* \"#utility.yul\":1385:1392   */\n  0x00\n    /* \"#utility.yul\":1414:1419   */\n  dup2\n    /* \"#utility.yul\":1403:1419   */\n  swap1\n  pop\n    /* \"#utility.yul\":1348:1425   */\n  swap2\n  swap1\n  pop\n  jump\t// out\n    /* \"#utility.yul\":1431:1553   */\ntag_28:\n    /* \"#utility.yul\":1504:1528   */\n  tag_51\n    /* \"#utility.yul\":1522:1527   */\n  dup2\n    /* \"#utility.yul\":1504:1528   */\n  tag_27\n  jump\t// in\ntag_51:\n    /* \"#utility.yul\":1497:1502   */\n  dup2\n    /* \"#utility.yul\":1494:1529   */\n  eq\n    /* \"#utility.yul\":1484:1547   */\n  tag_52\n  jumpi\n    /* \"#utility.yul\":1543:1544   */\n  0x00\n    /* \"#utility.yul\":1540:1541   */\n  dup1\n    /* \"#utility.yul\":1533:1545   */\n  revert\n    /* \"#utility.yul\":1484:1547   */\ntag_52:\n    /* \"#utility.yul\":1431:1553   */\n  pop\n  jump\t// out\n    /* \"#utility.yul\":1559:1702   */\ntag_29:\n    /* \"#utility.yul\":1616:1621   */\n  0x00\n    /* \"#utility.yul\":1647:1653   */\n  dup2\n    /* \"#utility.yul\":1641:1654   */\n  mload\n    /* \"#utility.yul\":1632:1654   */\n  swap1\n  pop\n    /* \"#utility.yul\":1663:1696   */\n  tag_54\n    /* \"#utility.yul\":1690:1695   */\n  dup2\n    /* \"#utility.yul\":1663:1696   */\n  tag_28\n  jump\t// in\ntag_54:\n    /* \"#utility.yul\":1559:1702   */\n  swap3\n  swap2\n  pop\n  pop\n  jump\t// out\n    /* \"#utility.yul\":1708:2059   */\ntag_9:\n    /* \"#utility.yul\":1778:1784   */\n  0x00\n    /* \"#utility.yul\":1827:1829   */\n  0x20\n    /* \"#utility.yul\":1815:1824   */\n  dup3\n    /* \"#utility.yul\":1806:1813   */\n  dup5\n    /* \"#utility.yul\":1802:1825   */\n  sub\n    /* \"#utility.yul\":1798:1830   */\n  slt\n    /* \"#utility.yul\":1795:1914   */\n  iszero\n  tag_56\n  jumpi\n    /* \"#utility.yul\":1833:1912   */\n  tag_57\n  tag_25\n  jump\t// in\ntag_57:\n    /* \"#utility.yul\":1795:1914   */\ntag_56:\n    /* \"#utility.yul\":1953:1954   */\n  0x00\n    /* \"#utility.yul\":1978:2042   */\n  tag_58\n    /* \"#utility.yul\":2034:2041   */\n  dup5\n    /* \"#utility.yul\":2025:2031   */\n  dup3\n    /* \"#utility.yul\":2014:2023   */\n  dup6\n    /* \"#utility.yul\":2010:2032   */\n  add\n    /* \"#utility.yul\":1978:2042   */\n  tag_29\n  jump\t// in\ntag_58:\n    /* \"#utility.yul\":1968:2042   */\n  swap2\n  pop\n    /* \"#utility.yul\":1924:2052   */\n  pop\n    /* \"#utility.yul\":1708:2059   */\n  swap3\n  swap2\n  pop\n  pop\n  jump\t// out\n    /* \"#utility.yul\":2065:2191   */\ntag_30:\n    /* \"#utility.yul\":2102:2109   */\n  0x00\n    /* \"#utility.yul\":2142:2184   */\n  0xffffffffffffffffffffffffffffffffffffffff\n    /* \"#utility.yul\":2135:2140   */\n  dup3\n    /* \"#utility.yul\":2131:2185   */\n  and\n    /* \"#utility.yul\":2120:2185   */\n  swap1\n  pop\n    /* \"#utility.yul\":2065:2191   */\n  swap2\n  swap1\n  pop\n  jump\t// out\n    /* \"#utility.yul\":2197:2293   */\ntag_31:\n    /* \"#utility.yul\":2234:2241   */\n  0x00\n    /* \"#utility.yul\":2263:2287   */\n  tag_61\n    /* \"#utility.yul\":2281:2286   */\n  dup3\n    /* \"#utility.yul\":2263:2287   */\n  tag_30\n  jump\t// in\ntag_61:\n    /* \"#utility.yul\":2252:2287   */\n  swap1\n  pop\n    /* \"#utility.yul\":2197:2293   */\n  swap2\n  swap1\n  pop\n  jump\t// out\n    /* \"#utility.yul\":2299:2417   */\ntag_32:\n    /* \"#utility.yul\":2386:2410   */\n  tag_63\n    /* \"#utility.yul\":2404:2409   */\n  dup2\n    /* \"#utility.yul\":2386:2410   */\n  tag_31\n  jump\t// in\ntag_63:\n    /* \"#utility.yul\":2381:2384   */\n  dup3\n    /* \"#utility.yul\":2374:2411   */\n  mstore\n    /* \"#utility.yul\":2299:2417   */\n  pop\n  pop\n  jump\t// out\n    /* \"#utility.yul\":2423:2645   */\ntag_14:\n    /* \"#utility.yul\":2516:2520   */\n  0x00\n    /* \"#utility.yul\":2554:2556   */\n  0x20\n    /* \"#utility.yul\":2543:2552   */\n  dup3\n    /* \"#utility.yul\":2539:2557   */\n  add\n    /* \"#utility.yul\":2531:2557   */\n  swap1\n  pop\n    /* \"#utility.yul\":2567:2638   */\n  tag_65\n    /* \"#utility.yul\":2635:2636   */\n  0x00\n    /* \"#utility.yul\":2624:2633   */\n  dup4\n    /* \"#utility.yul\":2620:2637   */\n  add\n    /* \"#utility.yul\":2611:2617   */\n  dup5\n    /* \"#utility.yul\":2567:2638   */\n  tag_32\n  jump\t// in\ntag_65:\n    /* \"#utility.yul\":2423:2645   */\n  swap3\n  swap2\n  pop\n  pop\n  jump\t// out\n    /* \"contracts/QuailFinance.sol\":419:9857  contract QuailFinance is Initializable, OwnableUpgradeable {... */\ntag_18:\n  dataSize(sub_0)\n  dup1\n  dataOffset(sub_0)\n  0x00\n  codecopy\n  0x00\n  return\nstop\n\nsub_0: assembly {\n        /* \"contracts/QuailFinance.sol\":419:9857  contract QuailFinance is Initializable, OwnableUpgradeable {... */\n      mstore(0x40, 0x80)\n      jumpi(tag_1, lt(calldatasize, 0x04))\n      shr(0xe0, calldataload(0x00))\n      dup1\n      0x7cb64759\n      gt\n      tag_21\n      jumpi\n      dup1\n      0xbf2d9e0b\n      gt\n      tag_22\n      jumpi\n      dup1\n      0xbf2d9e0b\n      eq\n      tag_16\n      jumpi\n      dup1\n      0xc3c3df4f\n      eq\n      tag_17\n      jumpi\n      dup1\n      0xef922b87\n      eq\n      tag_18\n      jumpi\n      dup1\n      0xefdd7c07\n      eq\n      tag_19\n      jumpi\n      dup1\n      0xf2fde38b\n      eq\n      tag_20\n      jumpi\n      jump(tag_1)\n    tag_22:\n      dup1\n      0x7cb64759\n      eq\n      tag_11\n      jumpi\n      dup1\n      0x8129fc1c\n      eq\n      tag_12\n      jumpi\n      dup1\n      0x831d49ef\n      eq\n      tag_13\n      jumpi\n      dup1\n      0x8da5cb5b\n      eq\n      tag_14\n      jumpi\n      dup1\n      0x97d75776\n      eq\n      tag_15\n      jumpi\n      jump(tag_1)\n    tag_21:\n      dup1\n      0x4a80409e\n      gt\n      tag_23\n      jumpi\n      dup1\n      0x4a80409e\n      eq\n      tag_6\n      jumpi\n      dup1\n      0x61e7d805\n      eq\n      tag_7\n      jumpi\n      dup1\n      0x715018a6\n      eq\n      tag_8\n      jumpi\n      dup1\n      0x73b2e80e\n      eq\n      tag_9\n      jumpi\n      dup1\n      0x77d5d2dc\n      eq\n      tag_10\n      jumpi\n      jump(tag_1)\n    tag_23:\n      dup1\n      0x103a40ca\n      eq\n      tag_2\n      jumpi\n      dup1\n      0x2eb4a7ab\n      eq\n      tag_3\n      jumpi\n      dup1\n      0x31a0edec\n      eq\n      tag_4\n      jumpi\n      dup1\n      0x409a33ce\n      eq\n      tag_5\n      jumpi\n    tag_1:\n      0x00\n      dup1\n      revert\n        /* \"contracts/QuailFinance.sol\":4459:5882  function createPot(string memory _name, uint256 _rotationCycleInSeconds, uint256 _interestDenominator, uint256 _interestNumerator, uint256 _numParticipants, uint256 _amount) public{... */\n    tag_2:\n      callvalue\n      dup1\n      iszero\n      tag_24\n      jumpi\n      0x00\n      dup1\n      revert\n    tag_24:\n      pop\n      tag_25\n      0x04\n      dup1\n      calldatasize\n      sub\n      dup2\n      add\n      swap1\n      tag_26\n      swap2\n      swap1\n      tag_27\n      jump\t// in\n    tag_26:\n      tag_28\n      jump\t// in\n    tag_25:\n      stop\n        /* \"contracts/QuailFinance.sol\":484:509  bytes32 public merkleRoot */\n    tag_3:\n      callvalue\n      dup1\n      iszero\n      tag_29\n      jumpi\n      0x00\n      dup1\n      revert\n    tag_29:\n      pop\n      tag_30\n      tag_31\n      jump\t// in\n    tag_30:\n      mload(0x40)\n      tag_32\n      swap2\n      swap1\n      tag_33\n      jump\t// in\n    tag_32:\n      mload(0x40)\n      dup1\n      swap2\n      sub\n      swap1\n      return\n        /* \"contracts/QuailFinance.sol\":3772:3868  IERC20Rebasing public constant USDB = IERC20Rebasing(0x4200000000000000000000000000000000000022) */\n    tag_4:\n      callvalue\n      dup1\n      iszero\n      tag_34\n      jumpi\n      0x00\n      dup1\n      revert\n    tag_34:\n      pop\n      tag_35\n      tag_36\n      jump\t// in\n    tag_35:\n      mload(0x40)\n      tag_37\n      swap2\n      swap1\n      tag_38\n      jump\t// in\n    tag_37:\n      mload(0x40)\n      dup1\n      swap2\n      sub\n      swap1\n      return\n        /* \"contracts/QuailFinance.sol\":8833:9017  function claimAllYield() external onlyOwner {... */\n    tag_5:\n      callvalue\n      dup1\n      iszero\n      tag_39\n      jumpi\n      0x00\n      dup1\n      revert\n    tag_39:\n      pop\n      tag_40\n      tag_41\n      jump\t// in\n    tag_40:\n      stop\n        /* \"contracts/QuailFinance.sol\":741:764  IERC20 public usdbToken */\n    tag_6:\n      callvalue\n      dup1\n      iszero\n      tag_42\n      jumpi\n      0x00\n      dup1\n      revert\n    tag_42:\n      pop\n      tag_43\n      tag_44\n      jump\t// in\n    tag_43:\n      mload(0x40)\n      tag_45\n      swap2\n      swap1\n      tag_46\n      jump\t// in\n    tag_45:\n      mload(0x40)\n      dup1\n      swap2\n      sub\n      swap1\n      return\n        /* \"contracts/QuailFinance.sol\":9133:9855  function claimFunds(uint256 claimAmount, bytes32[] calldata merkleProof) external {... */\n    tag_7:\n      callvalue\n      dup1\n      iszero\n      tag_47\n      jumpi\n      0x00\n      dup1\n      revert\n    tag_47:\n      pop\n      tag_48\n      0x04\n      dup1\n      calldatasize\n      sub\n      dup2\n      add\n      swap1\n      tag_49\n      swap2\n      swap1\n      tag_50\n      jump\t// in\n    tag_49:\n      tag_51\n      jump\t// in\n    tag_48:\n      stop\n        /* \"@openzeppelin/contracts-upgradeable/access/OwnableUpgradeable.sol\":3155:3256  function renounceOwnership() public virtual onlyOwner {... */\n    tag_8:\n      callvalue\n      dup1\n      iszero\n      tag_52\n      jumpi\n      0x00\n      dup1\n      revert\n    tag_52:\n      pop\n      tag_53\n      tag_54\n      jump\t// in\n    tag_53:\n      stop\n        /* \"contracts/QuailFinance.sol\":794:839  mapping(address => uint256) public hasClaimed */\n    tag_9:\n      callvalue\n      dup1\n      iszero\n      tag_55\n      jumpi\n      0x00\n      dup1\n      revert\n    tag_55:\n      pop\n      tag_56\n      0x04\n      dup1\n      calldatasize\n      sub\n      dup2\n      add\n      swap1\n      tag_57\n      swap2\n      swap1\n      tag_58\n      jump\t// in\n    tag_57:\n      tag_59\n      jump\t// in\n    tag_56:\n      mload(0x40)\n      tag_60\n      swap2\n      swap1\n      tag_61\n      jump\t// in\n    tag_60:\n      mload(0x40)\n      dup1\n      swap2\n      sub\n      swap1\n      return\n        /* \"contracts/QuailFinance.sol\":8714:8827  function claimMyContractsGas() external onlyOwner{... */\n    tag_10:\n      callvalue\n      dup1\n      iszero\n      tag_62\n      jumpi\n      0x00\n      dup1\n      revert\n    tag_62:\n      pop\n      tag_63\n      tag_64\n      jump\t// in\n    tag_63:\n      stop\n        /* \"contracts/QuailFinance.sol\":9023:9127  function setMerkleRoot(bytes32 _merkleRoot) external onlyOwner {... */\n    tag_11:\n      callvalue\n      dup1\n      iszero\n      tag_65\n      jumpi\n      0x00\n      dup1\n      revert\n    tag_65:\n      pop\n      tag_66\n      0x04\n      dup1\n      calldatasize\n      sub\n      dup2\n      add\n      swap1\n      tag_67\n      swap2\n      swap1\n      tag_68\n      jump\t// in\n    tag_67:\n      tag_69\n      jump\t// in\n    tag_66:\n      stop\n        /* \"contracts/QuailFinance.sol\":3875:4033  function initialize() public initializer {... */\n    tag_12:\n      callvalue\n      dup1\n      iszero\n      tag_70\n      jumpi\n      0x00\n      dup1\n      revert\n    tag_70:\n      pop\n      tag_71\n      tag_72\n      jump\t// in\n    tag_71:\n      stop\n        /* \"contracts/QuailFinance.sol\":5964:6778  function joinPot(uint256 _potId) external payable {... */\n    tag_13:\n      tag_73\n      0x04\n      dup1\n      calldatasize\n      sub\n      dup2\n      add\n      swap1\n      tag_74\n      swap2\n      swap1\n      tag_75\n      jump\t// in\n    tag_74:\n      tag_76\n      jump\t// in\n    tag_73:\n      stop\n        /* \"@openzeppelin/contracts-upgradeable/access/OwnableUpgradeable.sol\":2441:2585  function owner() public view virtual returns (address) {... */\n    tag_14:\n      callvalue\n      dup1\n      iszero\n      tag_77\n      jumpi\n      0x00\n      dup1\n      revert\n    tag_77:\n      pop\n      tag_78\n      tag_79\n      jump\t// in\n    tag_78:\n      mload(0x40)\n      tag_80\n      swap2\n      swap1\n      tag_81\n      jump\t// in\n    tag_80:\n      mload(0x40)\n      dup1\n      swap2\n      sub\n      swap1\n      return\n        /* \"contracts/QuailFinance.sol\":621:702  IBlast public constant BLAST = IBlast(0x4300000000000000000000000000000000000002) */\n    tag_15:\n      callvalue\n      dup1\n      iszero\n      tag_82\n      jumpi\n      0x00\n      dup1\n      revert\n    tag_82:\n      pop\n      tag_83\n      tag_84\n      jump\t// in\n    tag_83:\n      mload(0x40)\n      tag_85\n      swap2\n      swap1\n      tag_86\n      jump\t// in\n    tag_85:\n      mload(0x40)\n      dup1\n      swap2\n      sub\n      swap1\n      return\n        /* \"contracts/QuailFinance.sol\":708:735  uint256 public totalRevenue */\n    tag_16:\n      callvalue\n      dup1\n      iszero\n      tag_87\n      jumpi\n      0x00\n      dup1\n      revert\n    tag_87:\n      pop\n      tag_88\n      tag_89\n      jump\t// in\n    tag_88:\n      mload(0x40)\n      tag_90\n      swap2\n      swap1\n      tag_61\n      jump\t// in\n    tag_90:\n      mload(0x40)\n      dup1\n      swap2\n      sub\n      swap1\n      return\n        /* \"contracts/QuailFinance.sol\":845:880  mapping(uint256 => Pot) public pots */\n    tag_17:\n      callvalue\n      dup1\n      iszero\n      tag_91\n      jumpi\n      0x00\n      dup1\n      revert\n    tag_91:\n      pop\n      tag_92\n      0x04\n      dup1\n      calldatasize\n      sub\n      dup2\n      add\n      swap1\n      tag_93\n      swap2\n      swap1\n      tag_75\n      jump\t// in\n    tag_93:\n      tag_94\n      jump\t// in\n    tag_92:\n      mload(0x40)\n      tag_95\n      swap10\n      swap9\n      swap8\n      swap7\n      swap6\n      swap5\n      swap4\n      swap3\n      swap2\n      swap1\n      tag_96\n      jump\t// in\n    tag_95:\n      mload(0x40)\n      dup1\n      swap2\n      sub\n      swap1\n      return\n        /* \"contracts/QuailFinance.sol\":6958:8005  function rotateLiquidity(uint256 _potId) public {... */\n    tag_18:\n      callvalue\n      dup1\n      iszero\n      tag_97\n      jumpi\n      0x00\n      dup1\n      revert\n    tag_97:\n      pop\n      tag_98\n      0x04\n      dup1\n      calldatasize\n      sub\n      dup2\n      add\n      swap1\n      tag_99\n      swap2\n      swap1\n      tag_75\n      jump\t// in\n    tag_99:\n      tag_100\n      jump\t// in\n    tag_98:\n      stop\n        /* \"contracts/QuailFinance.sol\":8238:8449  function calculateInterest(uint256 _potId, uint256 _amount) public view returns (uint256) {... */\n    tag_19:\n      callvalue\n      dup1\n      iszero\n      tag_101\n      jumpi\n      0x00\n      dup1\n      revert\n    tag_101:\n      pop\n      tag_102\n      0x04\n      dup1\n      calldatasize\n      sub\n      dup2\n      add\n      swap1\n      tag_103\n      swap2\n      swap1\n      tag_104\n      jump\t// in\n    tag_103:\n      tag_105\n      jump\t// in\n    tag_102:\n      mload(0x40)\n      tag_106\n      swap2\n      swap1\n      tag_61\n      jump\t// in\n    tag_106:\n      mload(0x40)\n      dup1\n      swap2\n      sub\n      swap1\n      return\n        /* \"@openzeppelin/contracts-upgradeable/access/OwnableUpgradeable.sol\":3405:3620  function transferOwnership(address newOwner) public virtual onlyOwner {... */\n    tag_20:\n      callvalue\n      dup1\n      iszero\n      tag_107\n      jumpi\n      0x00\n      dup1\n      revert\n    tag_107:\n      pop\n      tag_108\n      0x04\n      dup1\n      calldatasize\n      sub\n      dup2\n      add\n      swap1\n      tag_109\n      swap2\n      swap1\n      tag_58\n      jump\t// in\n    tag_109:\n      tag_110\n      jump\t// in\n    tag_108:\n      stop\n        /* \"contracts/QuailFinance.sol\":4459:5882  function createPot(string memory _name, uint256 _rotationCycleInSeconds, uint256 _interestDenominator, uint256 _interestNumerator, uint256 _numParticipants, uint256 _amount) public{... */\n    tag_28:\n        /* \"contracts/QuailFinance.sol\":4683:4684  0 */\n      0x00\n        /* \"contracts/QuailFinance.sol\":4657:4680  _rotationCycleInSeconds */\n      dup6\n        /* \"contracts/QuailFinance.sol\":4657:4684  _rotationCycleInSeconds > 0 */\n      gt\n        /* \"contracts/QuailFinance.sol\":4649:4720  require(_rotationCycleInSeconds > 0, \"Rotation cycle must be positive\") */\n      tag_112\n      jumpi\n      mload(0x40)\n      0x08c379a000000000000000000000000000000000000000000000000000000000\n      dup2\n      mstore\n      0x04\n      add\n      tag_113\n      swap1\n      tag_114\n      jump\t// in\n    tag_113:\n      mload(0x40)\n      dup1\n      swap2\n      sub\n      swap1\n      revert\n    tag_112:\n        /* \"contracts/QuailFinance.sol\":4761:4762  0 */\n      0x00\n        /* \"contracts/QuailFinance.sol\":4738:4758  _interestDenominator */\n      dup5\n        /* \"contracts/QuailFinance.sol\":4738:4762  _interestDenominator > 0 */\n      gt\n        /* \"contracts/QuailFinance.sol\":4730:4804  require(_interestDenominator > 0, \"Interest denominator must be positive\") */\n      tag_115\n      jumpi\n      mload(0x40)\n      0x08c379a000000000000000000000000000000000000000000000000000000000\n      dup2\n      mstore\n      0x04\n      add\n      tag_116\n      swap1\n      tag_117\n      jump\t// in\n    tag_116:\n      mload(0x40)\n      dup1\n      swap2\n      sub\n      swap1\n      revert\n    tag_115:\n        /* \"contracts/QuailFinance.sol\":4844:4864  _interestDenominator */\n      dup4\n        /* \"contracts/QuailFinance.sol\":4822:4840  _interestNumerator */\n      dup4\n        /* \"contracts/QuailFinance.sol\":4822:4864  _interestNumerator <= _interestDenominator */\n      gt\n      iszero\n        /* \"contracts/QuailFinance.sol\":4814:4920  require(_interestNumerator <= _interestDenominator, \"Numerator must be less than or equal to denominator\") */\n      tag_118\n      jumpi\n      mload(0x40)\n      0x08c379a000000000000000000000000000000000000000000000000000000000\n      dup2\n      mstore\n      0x04\n      add\n      tag_119\n      swap1\n      tag_120\n      jump\t// in\n    tag_119:\n      mload(0x40)\n      dup1\n      swap2\n      sub\n      swap1\n      revert\n    tag_118:\n        /* \"contracts/QuailFinance.sol\":4930:4943  uint256 potId */\n      0x00\n        /* \"contracts/QuailFinance.sol\":4946:4955  nextPotId */\n      0x01\n      0x00\n        /* \"contracts/QuailFinance.sol\":4946:4957  nextPotId++ */\n      dup2\n      sload\n      dup1\n      swap3\n      swap2\n      swap1\n      tag_121\n      swap1\n      tag_122\n      jump\t// in\n    tag_121:\n      swap2\n      swap1\n      pop\n      sstore\n        /* \"contracts/QuailFinance.sol\":4930:4957  uint256 potId = nextPotId++ */\n      swap1\n      pop\n        /* \"contracts/QuailFinance.sol\":4967:4996  address[] memory participants */\n      0x60\n        /* \"contracts/QuailFinance.sol\":5006:5032  uint256 amountAfterRevenue */\n      0x00\n        /* \"contracts/QuailFinance.sol\":5035:5057  deductRevenue(_amount) */\n      tag_123\n        /* \"contracts/QuailFinance.sol\":5049:5056  _amount */\n      dup5\n        /* \"contracts/QuailFinance.sol\":5035:5048  deductRevenue */\n      tag_124\n        /* \"contracts/QuailFinance.sol\":5035:5057  deductRevenue(_amount) */\n      jump\t// in\n    tag_123:\n        /* \"contracts/QuailFinance.sol\":5006:5057  uint256 amountAfterRevenue = deductRevenue(_amount) */\n      swap1\n      pop\n        /* \"contracts/QuailFinance.sol\":5075:5084  usdbToken */\n      0x03\n      0x00\n      swap1\n      sload\n      swap1\n      0x0100\n      exp\n      swap1\n      div\n      0xffffffffffffffffffffffffffffffffffffffff\n      and\n        /* \"contracts/QuailFinance.sol\":5075:5097  usdbToken.transferFrom */\n      0xffffffffffffffffffffffffffffffffffffffff\n      and\n      0x23b872dd\n        /* \"contracts/QuailFinance.sol\":5098:5108  msg.sender */\n      caller\n        /* \"contracts/QuailFinance.sol\":5118:5122  this */\n      address\n        /* \"contracts/QuailFinance.sol\":5125:5143  amountAfterRevenue */\n      dup5\n        /* \"contracts/QuailFinance.sol\":5075:5144  usdbToken.transferFrom(msg.sender, address(this), amountAfterRevenue) */\n      mload(0x40)\n      dup5\n      0xffffffff\n      and\n      0xe0\n      shl\n      dup2\n      mstore\n      0x04\n      add\n      tag_125\n      swap4\n      swap3\n      swap2\n      swap1\n      tag_126\n      jump\t// in\n    tag_125:\n      0x20\n      mload(0x40)\n      dup1\n      dup4\n      sub\n      dup2\n      0x00\n      dup8\n      gas\n      call\n      iszero\n      dup1\n      iszero\n      tag_128\n      jumpi\n      returndatasize\n      0x00\n      dup1\n      returndatacopy\n      revert(0x00, returndatasize)\n    tag_128:\n      pop\n      pop\n      pop\n      pop\n      mload(0x40)\n      returndatasize\n      not(0x1f)\n      0x1f\n      dup3\n      add\n      and\n      dup3\n      add\n      dup1\n      0x40\n      mstore\n      pop\n      dup2\n      add\n      swap1\n      tag_129\n      swap2\n      swap1\n      tag_130\n      jump\t// in\n    tag_129:\n        /* \"contracts/QuailFinance.sol\":5067:5190  require(usdbToken.transferFrom(msg.sender, address(this), amountAfterRevenue), \"Creator should deposit the initial amount\") */\n      tag_131\n      jumpi\n      mload(0x40)\n      0x08c379a000000000000000000000000000000000000000000000000000000000\n      dup2\n      mstore\n      0x04\n      add\n      tag_132\n      swap1\n      tag_133\n      jump\t// in\n    tag_132:\n      mload(0x40)\n      dup1\n      swap2\n      sub\n      swap1\n      revert\n    tag_131:\n        /* \"contracts/QuailFinance.sol\":5238:5256  Pot storage newPot */\n      0x00\n        /* \"contracts/QuailFinance.sol\":5259:5263  pots */\n      0x05\n        /* \"contracts/QuailFinance.sol\":5259:5270  pots[potId] */\n      0x00\n        /* \"contracts/QuailFinance.sol\":5264:5269  potId */\n      dup6\n        /* \"contracts/QuailFinance.sol\":5259:5270  pots[potId] */\n      dup2\n      mstore\n      0x20\n      add\n      swap1\n      dup2\n      mstore\n      0x20\n      add\n      0x00\n      keccak256\n        /* \"contracts/QuailFinance.sol\":5238:5270  Pot storage newPot = pots[potId] */\n      swap1\n      pop\n        /* \"contracts/QuailFinance.sol\":5294:5299  _name */\n      dup10\n        /* \"contracts/QuailFinance.sol\":5280:5286  newPot */\n      dup2\n        /* \"contracts/QuailFinance.sol\":5280:5291  newPot.name */\n      0x00\n      add\n        /* \"contracts/QuailFinance.sol\":5280:5299  newPot.name = _name */\n      swap1\n      dup2\n      tag_134\n      swap2\n      swap1\n      tag_135\n      jump\t// in\n    tag_134:\n      pop\n        /* \"contracts/QuailFinance.sol\":5325:5332  _amount */\n      dup5\n        /* \"contracts/QuailFinance.sol\":5309:5315  newPot */\n      dup2\n        /* \"contracts/QuailFinance.sol\":5309:5322  newPot.amount */\n      0x01\n      add\n        /* \"contracts/QuailFinance.sol\":5309:5332  newPot.amount = _amount */\n      dup2\n      swap1\n      sstore\n      pop\n        /* \"contracts/QuailFinance.sol\":5362:5372  msg.sender */\n      caller\n        /* \"contracts/QuailFinance.sol\":5342:5348  newPot */\n      dup2\n        /* \"contracts/QuailFinance.sol\":5342:5359  newPot.potCreator */\n      0x08\n      add\n      0x00\n        /* \"contracts/QuailFinance.sol\":5342:5372  newPot.potCreator = msg.sender */\n      0x0100\n      exp\n      dup2\n      sload\n      dup2\n      0xffffffffffffffffffffffffffffffffffffffff\n      mul\n      not\n      and\n      swap1\n      dup4\n      0xffffffffffffffffffffffffffffffffffffffff\n      and\n      mul\n      or\n      swap1\n      sstore\n      pop\n        /* \"contracts/QuailFinance.sol\":5414:5437  _rotationCycleInSeconds */\n      dup9\n        /* \"contracts/QuailFinance.sol\":5382:5388  newPot */\n      dup2\n        /* \"contracts/QuailFinance.sol\":5382:5411  newPot.rotationCycleInSeconds */\n      0x02\n      add\n        /* \"contracts/QuailFinance.sol\":5382:5437  newPot.rotationCycleInSeconds = _rotationCycleInSeconds */\n      dup2\n      swap1\n      sstore\n      pop\n        /* \"contracts/QuailFinance.sol\":5474:5492  _interestNumerator */\n      dup7\n        /* \"contracts/QuailFinance.sol\":5447:5453  newPot */\n      dup2\n        /* \"contracts/QuailFinance.sol\":5447:5471  newPot.interestNumerator */\n      0x04\n      add\n        /* \"contracts/QuailFinance.sol\":5447:5492  newPot.interestNumerator = _interestNumerator */\n      dup2\n      swap1\n      sstore\n      pop\n        /* \"contracts/QuailFinance.sol\":5531:5551  _interestDenominator */\n      dup8\n        /* \"contracts/QuailFinance.sol\":5502:5508  newPot */\n      dup2\n        /* \"contracts/QuailFinance.sol\":5502:5528  newPot.interestDenominator */\n      0x05\n      add\n        /* \"contracts/QuailFinance.sol\":5502:5551  newPot.interestDenominator = _interestDenominator */\n      dup2\n      swap1\n      sstore\n      pop\n        /* \"contracts/QuailFinance.sol\":5587:5602  block.timestamp */\n      timestamp\n        /* \"contracts/QuailFinance.sol\":5561:5567  newPot */\n      dup2\n        /* \"contracts/QuailFinance.sol\":5561:5584  newPot.lastRotationTime */\n      0x03\n      add\n        /* \"contracts/QuailFinance.sol\":5561:5602  newPot.lastRotationTime = block.timestamp */\n      dup2\n      swap1\n      sstore\n      pop\n        /* \"contracts/QuailFinance.sol\":5637:5653  _numParticipants */\n      dup6\n        /* \"contracts/QuailFinance.sol\":5612:5618  newPot */\n      dup2\n        /* \"contracts/QuailFinance.sol\":5612:5634  newPot.numParticipants */\n      0x06\n      add\n        /* \"contracts/QuailFinance.sol\":5612:5653  newPot.numParticipants = _numParticipants */\n      dup2\n      swap1\n      sstore\n      pop\n        /* \"contracts/QuailFinance.sol\":5685:5686  0 */\n      0x00\n        /* \"contracts/QuailFinance.sol\":5663:5669  newPot */\n      dup2\n        /* \"contracts/QuailFinance.sol\":5663:5682  newPot.currentRound */\n      0x07\n      add\n        /* \"contracts/QuailFinance.sol\":5663:5686  newPot.currentRound = 0 */\n      dup2\n      swap1\n      sstore\n      pop\n        /* \"contracts/QuailFinance.sol\":5718:5730  participants */\n      dup3\n        /* \"contracts/QuailFinance.sol\":5696:5702  newPot */\n      dup2\n        /* \"contracts/QuailFinance.sol\":5696:5715  newPot.participants */\n      0x09\n      add\n        /* \"contracts/QuailFinance.sol\":5696:5730  newPot.participants = participants */\n      swap1\n      dup1\n      mload\n      swap1\n      0x20\n      add\n      swap1\n      tag_136\n      swap3\n      swap2\n      swap1\n      tag_137\n      jump\t// in\n    tag_136:\n      pop\n        /* \"contracts/QuailFinance.sol\":5746:5875  PotCreated(potId, _name, msg.sender, _amount, _rotationCycleInSeconds, _interestNumerator, _interestDenominator,_numParticipants) */\n      0x27c4aafcf7db602399ae51626a035d24ff9855ed20035e2895e808f9e76f1660\n        /* \"contracts/QuailFinance.sol\":5757:5762  potId */\n      dup5\n        /* \"contracts/QuailFinance.sol\":5764:5769  _name */\n      dup12\n        /* \"contracts/QuailFinance.sol\":5771:5781  msg.sender */\n      caller\n        /* \"contracts/QuailFinance.sol\":5783:5790  _amount */\n      dup9\n        /* \"contracts/QuailFinance.sol\":5792:5815  _rotationCycleInSeconds */\n      dup14\n        /* \"contracts/QuailFinance.sol\":5817:5835  _interestNumerator */\n      dup13\n        /* \"contracts/QuailFinance.sol\":5837:5857  _interestDenominator */\n      dup15\n        /* \"contracts/QuailFinance.sol\":5858:5874  _numParticipants */\n      dup14\n        /* \"contracts/QuailFinance.sol\":5746:5875  PotCreated(potId, _name, msg.sender, _amount, _rotationCycleInSeconds, _interestNumerator, _interestDenominator,_numParticipants) */\n      mload(0x40)\n      tag_138\n      swap9\n      swap8\n      swap7\n      swap6\n      swap5\n      swap4\n      swap3\n      swap2\n      swap1\n      tag_139\n      jump\t// in\n    tag_138:\n      mload(0x40)\n      dup1\n      swap2\n      sub\n      swap1\n      log1\n        /* \"contracts/QuailFinance.sol\":4639:5882  {... */\n      pop\n      pop\n      pop\n      pop\n        /* \"contracts/QuailFinance.sol\":4459:5882  function createPot(string memory _name, uint256 _rotationCycleInSeconds, uint256 _interestDenominator, uint256 _interestNumerator, uint256 _numParticipants, uint256 _amount) public{... */\n      pop\n      pop\n      pop\n      pop\n      pop\n      pop\n      jump\t// out\n        /* \"contracts/QuailFinance.sol\":484:509  bytes32 public merkleRoot */\n    tag_31:\n      sload(0x00)\n      dup2\n      jump\t// out\n        /* \"contracts/QuailFinance.sol\":3772:3868  IERC20Rebasing public constant USDB = IERC20Rebasing(0x4200000000000000000000000000000000000022) */\n    tag_36:\n        /* \"contracts/QuailFinance.sol\":3825:3867  0x4200000000000000000000000000000000000022 */\n      0x4200000000000000000000000000000000000022\n        /* \"contracts/QuailFinance.sol\":3772:3868  IERC20Rebasing public constant USDB = IERC20Rebasing(0x4200000000000000000000000000000000000022) */\n      dup2\n      jump\t// out\n        /* \"contracts/QuailFinance.sol\":8833:9017  function claimAllYield() external onlyOwner {... */\n    tag_41:\n        /* \"@openzeppelin/contracts-upgradeable/access/OwnableUpgradeable.sol\":2334:2347  _checkOwner() */\n      tag_141\n        /* \"@openzeppelin/contracts-upgradeable/access/OwnableUpgradeable.sol\":2334:2345  _checkOwner */\n      tag_142\n        /* \"@openzeppelin/contracts-upgradeable/access/OwnableUpgradeable.sol\":2334:2347  _checkOwner() */\n      jump\t// in\n    tag_141:\n        /* \"contracts/QuailFinance.sol\":3825:3867  0x4200000000000000000000000000000000000022 */\n      0x4200000000000000000000000000000000000022\n        /* \"contracts/QuailFinance.sol\":8945:8955  USDB.claim */\n      0xffffffffffffffffffffffffffffffffffffffff\n      and\n      0xaad3ec96\n        /* \"contracts/QuailFinance.sol\":8964:8968  this */\n      address\n        /* \"contracts/QuailFinance.sol\":3825:3867  0x4200000000000000000000000000000000000022 */\n      0x4200000000000000000000000000000000000022\n        /* \"contracts/QuailFinance.sol\":8971:8994  USDB.getClaimableAmount */\n      0xffffffffffffffffffffffffffffffffffffffff\n      and\n      0xe12f3a61\n        /* \"contracts/QuailFinance.sol\":9003:9007  this */\n      address\n        /* \"contracts/QuailFinance.sol\":8971:9009  USDB.getClaimableAmount(address(this)) */\n      mload(0x40)\n      dup3\n      0xffffffff\n      and\n      0xe0\n      shl\n      dup2\n      mstore\n      0x04\n      add\n      tag_144\n      swap2\n      swap1\n      tag_81\n      jump\t// in\n    tag_144:\n      0x20\n      mload(0x40)\n      dup1\n      dup4\n      sub\n      dup2\n      dup7\n      gas\n      staticcall\n      iszero\n      dup1\n      iszero\n      tag_146\n      jumpi\n      returndatasize\n      0x00\n      dup1\n      returndatacopy\n      revert(0x00, returndatasize)\n    tag_146:\n      pop\n      pop\n      pop\n      pop\n      mload(0x40)\n      returndatasize\n      not(0x1f)\n      0x1f\n      dup3\n      add\n      and\n      dup3\n      add\n      dup1\n      0x40\n      mstore\n      pop\n      dup2\n      add\n      swap1\n      tag_147\n      swap2\n      swap1\n      tag_148\n      jump\t// in\n    tag_147:\n        /* \"contracts/QuailFinance.sol\":8945:9010  USDB.claim(address(this), USDB.getClaimableAmount(address(this))) */\n      mload(0x40)\n      dup4\n      0xffffffff\n      and\n      0xe0\n      shl\n      dup2\n      mstore\n      0x04\n      add\n      tag_149\n      swap3\n      swap2\n      swap1\n      tag_150\n      jump\t// in\n    tag_149:\n      0x20\n      mload(0x40)\n      dup1\n      dup4\n      sub\n      dup2\n      0x00\n      dup8\n      gas\n      call\n      iszero\n      dup1\n      iszero\n      tag_152\n      jumpi\n      returndatasize\n      0x00\n      dup1\n      returndatacopy\n      revert(0x00, returndatasize)\n    tag_152:\n      pop\n      pop\n      pop\n      pop\n      mload(0x40)\n      returndatasize\n      not(0x1f)\n      0x1f\n      dup3\n      add\n      and\n      dup3\n      add\n      dup1\n      0x40\n      mstore\n      pop\n      dup2\n      add\n      swap1\n      tag_153\n      swap2\n      swap1\n      tag_148\n      jump\t// in\n    tag_153:\n      pop\n        /* \"contracts/QuailFinance.sol\":8833:9017  function claimAllYield() external onlyOwner {... */\n      jump\t// out\n        /* \"contracts/QuailFinance.sol\":741:764  IERC20 public usdbToken */\n    tag_44:\n      0x03\n      0x00\n      swap1\n      sload\n      swap1\n      0x0100\n      exp\n      swap1\n      div\n      0xffffffffffffffffffffffffffffffffffffffff\n      and\n      dup2\n      jump\t// out\n        /* \"contracts/QuailFinance.sol\":9133:9855  function claimFunds(uint256 claimAmount, bytes32[] calldata merkleProof) external {... */\n    tag_51:\n        /* \"contracts/QuailFinance.sol\":9260:9272  bytes32 leaf */\n      0x00\n        /* \"contracts/QuailFinance.sol\":9302:9312  msg.sender */\n      caller\n        /* \"contracts/QuailFinance.sol\":9314:9325  claimAmount */\n      dup5\n        /* \"contracts/QuailFinance.sol\":9285:9326  abi.encodePacked(msg.sender, claimAmount) */\n      add(0x20, mload(0x40))\n      tag_155\n      swap3\n      swap2\n      swap1\n      tag_156\n      jump\t// in\n    tag_155:\n      mload(0x40)\n      0x20\n      dup2\n      dup4\n      sub\n      sub\n      dup2\n      mstore\n      swap1\n      0x40\n      mstore\n        /* \"contracts/QuailFinance.sol\":9275:9327  keccak256(abi.encodePacked(msg.sender, claimAmount)) */\n      dup1\n      mload\n      swap1\n      0x20\n      add\n      keccak256\n        /* \"contracts/QuailFinance.sol\":9260:9327  bytes32 leaf = keccak256(abi.encodePacked(msg.sender, claimAmount)) */\n      swap1\n      pop\n        /* \"contracts/QuailFinance.sol\":9345:9394  MerkleProof.verify(merkleProof, merkleRoot, leaf) */\n      tag_157\n        /* \"contracts/QuailFinance.sol\":9364:9375  merkleProof */\n      dup4\n      dup4\n        /* \"contracts/QuailFinance.sol\":9345:9394  MerkleProof.verify(merkleProof, merkleRoot, leaf) */\n      dup1\n      dup1\n      0x20\n      mul\n      0x20\n      add\n      mload(0x40)\n      swap1\n      dup2\n      add\n      0x40\n      mstore\n      dup1\n      swap4\n      swap3\n      swap2\n      swap1\n      dup2\n      dup2\n      mstore\n      0x20\n      add\n      dup4\n      dup4\n      0x20\n      mul\n      dup1\n      dup3\n      dup5\n      calldatacopy\n      0x00\n      dup2\n      dup5\n      add\n      mstore\n      not(0x1f)\n      0x1f\n      dup3\n      add\n      and\n      swap1\n      pop\n      dup1\n      dup4\n      add\n      swap3\n      pop\n      pop\n      pop\n      pop\n      pop\n      pop\n      pop\n        /* \"contracts/QuailFinance.sol\":9377:9387  merkleRoot */\n      sload(0x00)\n        /* \"contracts/QuailFinance.sol\":9389:9393  leaf */\n      dup4\n        /* \"contracts/QuailFinance.sol\":9345:9363  MerkleProof.verify */\n      tag_158\n        /* \"contracts/QuailFinance.sol\":9345:9394  MerkleProof.verify(merkleProof, merkleRoot, leaf) */\n      jump\t// in\n    tag_157:\n        /* \"contracts/QuailFinance.sol\":9337:9413  require(MerkleProof.verify(merkleProof, merkleRoot, leaf), \"Invalid proof.\") */\n      tag_159\n      jumpi\n      mload(0x40)\n      0x08c379a000000000000000000000000000000000000000000000000000000000\n      dup2\n      mstore\n      0x04\n      add\n      tag_160\n      swap1\n      tag_161\n      jump\t// in\n    tag_160:\n      mload(0x40)\n      dup1\n      swap2\n      sub\n      swap1\n      revert\n    tag_159:\n        /* \"contracts/QuailFinance.sol\":9423:9445  uint256 alreadyClaimed */\n      0x00\n        /* \"contracts/QuailFinance.sol\":9448:9458  hasClaimed */\n      0x04\n        /* \"contracts/QuailFinance.sol\":9448:9470  hasClaimed[msg.sender] */\n      0x00\n        /* \"contracts/QuailFinance.sol\":9459:9469  msg.sender */\n      caller\n        /* \"contracts/QuailFinance.sol\":9448:9470  hasClaimed[msg.sender] */\n      0xffffffffffffffffffffffffffffffffffffffff\n      and\n      0xffffffffffffffffffffffffffffffffffffffff\n      and\n      dup2\n      mstore\n      0x20\n      add\n      swap1\n      dup2\n      mstore\n      0x20\n      add\n      0x00\n      keccak256\n      sload\n        /* \"contracts/QuailFinance.sol\":9423:9470  uint256 alreadyClaimed = hasClaimed[msg.sender] */\n      swap1\n      pop\n        /* \"contracts/QuailFinance.sol\":9505:9516  claimAmount */\n      dup5\n        /* \"contracts/QuailFinance.sol\":9488:9502  alreadyClaimed */\n      dup2\n        /* \"contracts/QuailFinance.sol\":9488:9516  alreadyClaimed < claimAmount */\n      lt\n        /* \"contracts/QuailFinance.sol\":9480:9563  require(alreadyClaimed < claimAmount, \"No funds left to claim or already claimed.\") */\n      tag_162\n      jumpi\n      mload(0x40)\n      0x08c379a000000000000000000000000000000000000000000000000000000000\n      dup2\n      mstore\n      0x04\n      add\n      tag_163\n      swap1\n      tag_164\n      jump\t// in\n    tag_163:\n      mload(0x40)\n      dup1\n      swap2\n      sub\n      swap1\n      revert\n    tag_162:\n        /* \"contracts/QuailFinance.sol\":9573:9596  uint256 claimableAmount */\n      0x00\n        /* \"contracts/QuailFinance.sol\":9613:9627  alreadyClaimed */\n      dup2\n        /* \"contracts/QuailFinance.sol\":9599:9610  claimAmount */\n      dup7\n        /* \"contracts/QuailFinance.sol\":9599:9627  claimAmount - alreadyClaimed */\n      tag_165\n      swap2\n      swap1\n      tag_166\n      jump\t// in\n    tag_165:\n        /* \"contracts/QuailFinance.sol\":9573:9627  uint256 claimableAmount = claimAmount - alreadyClaimed */\n      swap1\n      pop\n        /* \"contracts/QuailFinance.sol\":9699:9710  claimAmount */\n      dup6\n        /* \"contracts/QuailFinance.sol\":9674:9684  hasClaimed */\n      0x04\n        /* \"contracts/QuailFinance.sol\":9674:9696  hasClaimed[msg.sender] */\n      0x00\n        /* \"contracts/QuailFinance.sol\":9685:9695  msg.sender */\n      caller\n        /* \"contracts/QuailFinance.sol\":9674:9696  hasClaimed[msg.sender] */\n      0xffffffffffffffffffffffffffffffffffffffff\n      and\n      0xffffffffffffffffffffffffffffffffffffffff\n      and\n      dup2\n      mstore\n      0x20\n      add\n      swap1\n      dup2\n      mstore\n      0x20\n      add\n      0x00\n      keccak256\n        /* \"contracts/QuailFinance.sol\":9674:9710  hasClaimed[msg.sender] = claimAmount */\n      dup2\n      swap1\n      sstore\n      pop\n        /* \"contracts/QuailFinance.sol\":9775:9784  usdbToken */\n      0x03\n      0x00\n      swap1\n      sload\n      swap1\n      0x0100\n      exp\n      swap1\n      div\n      0xffffffffffffffffffffffffffffffffffffffff\n      and\n        /* \"contracts/QuailFinance.sol\":9775:9793  usdbToken.transfer */\n      0xffffffffffffffffffffffffffffffffffffffff\n      and\n      0xa9059cbb\n        /* \"contracts/QuailFinance.sol\":9794:9804  msg.sender */\n      caller\n        /* \"contracts/QuailFinance.sol\":9806:9821  claimableAmount */\n      dup4\n        /* \"contracts/QuailFinance.sol\":9775:9822  usdbToken.transfer(msg.sender, claimableAmount) */\n      mload(0x40)\n      dup4\n      0xffffffff\n      and\n      0xe0\n      shl\n      dup2\n      mstore\n      0x04\n      add\n      tag_167\n      swap3\n      swap2\n      swap1\n      tag_150\n      jump\t// in\n    tag_167:\n      0x20\n      mload(0x40)\n      dup1\n      dup4\n      sub\n      dup2\n      0x00\n      dup8\n      gas\n      call\n      iszero\n      dup1\n      iszero\n      tag_169\n      jumpi\n      returndatasize\n      0x00\n      dup1\n      returndatacopy\n      revert(0x00, returndatasize)\n    tag_169:\n      pop\n      pop\n      pop\n      pop\n      mload(0x40)\n      returndatasize\n      not(0x1f)\n      0x1f\n      dup3\n      add\n      and\n      dup3\n      add\n      dup1\n      0x40\n      mstore\n      pop\n      dup2\n      add\n      swap1\n      tag_170\n      swap2\n      swap1\n      tag_130\n      jump\t// in\n    tag_170:\n        /* \"contracts/QuailFinance.sol\":9767:9848  require(usdbToken.transfer(msg.sender, claimableAmount), \"Yield transfer failed\") */\n      tag_171\n      jumpi\n      mload(0x40)\n      0x08c379a000000000000000000000000000000000000000000000000000000000\n      dup2\n      mstore\n      0x04\n      add\n      tag_172\n      swap1\n      tag_173\n      jump\t// in\n    tag_172:\n      mload(0x40)\n      dup1\n      swap2\n      sub\n      swap1\n      revert\n    tag_171:\n        /* \"contracts/QuailFinance.sol\":9215:9855  {... */\n      pop\n      pop\n      pop\n        /* \"contracts/QuailFinance.sol\":9133:9855  function claimFunds(uint256 claimAmount, bytes32[] calldata merkleProof) external {... */\n      pop\n      pop\n      pop\n      jump\t// out\n        /* \"@openzeppelin/contracts-upgradeable/access/OwnableUpgradeable.sol\":3155:3256  function renounceOwnership() public virtual onlyOwner {... */\n    tag_54:\n        /* \"@openzeppelin/contracts-upgradeable/access/OwnableUpgradeable.sol\":2334:2347  _checkOwner() */\n      tag_175\n        /* \"@openzeppelin/contracts-upgradeable/access/OwnableUpgradeable.sol\":2334:2345  _checkOwner */\n      tag_142\n        /* \"@openzeppelin/contracts-upgradeable/access/OwnableUpgradeable.sol\":2334:2347  _checkOwner() */\n      jump\t// in\n    tag_175:\n        /* \"@openzeppelin/contracts-upgradeable/access/OwnableUpgradeable.sol\":3219:3249  _transferOwnership(address(0)) */\n      tag_177\n        /* \"@openzeppelin/contracts-upgradeable/access/OwnableUpgradeable.sol\":3246:3247  0 */\n      0x00\n        /* \"@openzeppelin/contracts-upgradeable/access/OwnableUpgradeable.sol\":3219:3237  _transferOwnership */\n      tag_178\n        /* \"@openzeppelin/contracts-upgradeable/access/OwnableUpgradeable.sol\":3219:3249  _transferOwnership(address(0)) */\n      jump\t// in\n    tag_177:\n        /* \"@openzeppelin/contracts-upgradeable/access/OwnableUpgradeable.sol\":3155:3256  function renounceOwnership() public virtual onlyOwner {... */\n      jump\t// out\n        /* \"contracts/QuailFinance.sol\":794:839  mapping(address => uint256) public hasClaimed */\n    tag_59:\n      mstore(0x20, 0x04)\n      dup1\n      0x00\n      mstore\n      keccak256(0x00, 0x40)\n      0x00\n      swap2\n      pop\n      swap1\n      pop\n      sload\n      dup2\n      jump\t// out\n        /* \"contracts/QuailFinance.sol\":8714:8827  function claimMyContractsGas() external onlyOwner{... */\n    tag_64:\n        /* \"@openzeppelin/contracts-upgradeable/access/OwnableUpgradeable.sol\":2334:2347  _checkOwner() */\n      tag_180\n        /* \"@openzeppelin/contracts-upgradeable/access/OwnableUpgradeable.sol\":2334:2345  _checkOwner */\n      tag_142\n        /* \"@openzeppelin/contracts-upgradeable/access/OwnableUpgradeable.sol\":2334:2347  _checkOwner() */\n      jump\t// in\n    tag_180:\n        /* \"contracts/QuailFinance.sol\":659:701  0x4300000000000000000000000000000000000002 */\n      0x4300000000000000000000000000000000000002\n        /* \"contracts/QuailFinance.sol\":8773:8790  BLAST.claimAllGas */\n      0xffffffffffffffffffffffffffffffffffffffff\n      and\n      0x954fa5ee\n        /* \"contracts/QuailFinance.sol\":8799:8803  this */\n      address\n        /* \"contracts/QuailFinance.sol\":8814:8818  this */\n      address\n        /* \"contracts/QuailFinance.sol\":8773:8820  BLAST.claimAllGas(address(this), address(this)) */\n      mload(0x40)\n      dup4\n      0xffffffff\n      and\n      0xe0\n      shl\n      dup2\n      mstore\n      0x04\n      add\n      tag_182\n      swap3\n      swap2\n      swap1\n      tag_183\n      jump\t// in\n    tag_182:\n      0x20\n      mload(0x40)\n      dup1\n      dup4\n      sub\n      dup2\n      0x00\n      dup8\n      gas\n      call\n      iszero\n      dup1\n      iszero\n      tag_185\n      jumpi\n      returndatasize\n      0x00\n      dup1\n      returndatacopy\n      revert(0x00, returndatasize)\n    tag_185:\n      pop\n      pop\n      pop\n      pop\n      mload(0x40)\n      returndatasize\n      not(0x1f)\n      0x1f\n      dup3\n      add\n      and\n      dup3\n      add\n      dup1\n      0x40\n      mstore\n      pop\n      dup2\n      add\n      swap1\n      tag_186\n      swap2\n      swap1\n      tag_148\n      jump\t// in\n    tag_186:\n      pop\n        /* \"contracts/QuailFinance.sol\":8714:8827  function claimMyContractsGas() external onlyOwner{... */\n      jump\t// out\n        /* \"contracts/QuailFinance.sol\":9023:9127  function setMerkleRoot(bytes32 _merkleRoot) external onlyOwner {... */\n    tag_69:\n        /* \"@openzeppelin/contracts-upgradeable/access/OwnableUpgradeable.sol\":2334:2347  _checkOwner() */\n      tag_188\n        /* \"@openzeppelin/contracts-upgradeable/access/OwnableUpgradeable.sol\":2334:2345  _checkOwner */\n      tag_142\n        /* \"@openzeppelin/contracts-upgradeable/access/OwnableUpgradeable.sol\":2334:2347  _checkOwner() */\n      jump\t// in\n    tag_188:\n        /* \"contracts/QuailFinance.sol\":9109:9120  _merkleRoot */\n      dup1\n        /* \"contracts/QuailFinance.sol\":9096:9106  merkleRoot */\n      0x00\n        /* \"contracts/QuailFinance.sol\":9096:9120  merkleRoot = _merkleRoot */\n      dup2\n      swap1\n      sstore\n      pop\n        /* \"contracts/QuailFinance.sol\":9023:9127  function setMerkleRoot(bytes32 _merkleRoot) external onlyOwner {... */\n      pop\n      jump\t// out\n        /* \"contracts/QuailFinance.sol\":3875:4033  function initialize() public initializer {... */\n    tag_72:\n        /* \"@openzeppelin/contracts-upgradeable/proxy/utils/Initializable.sol\":4158:4188  InitializableStorage storage $ */\n      0x00\n        /* \"@openzeppelin/contracts-upgradeable/proxy/utils/Initializable.sol\":4191:4217  _getInitializableStorage() */\n      tag_191\n        /* \"@openzeppelin/contracts-upgradeable/proxy/utils/Initializable.sol\":4191:4215  _getInitializableStorage */\n      tag_192\n        /* \"@openzeppelin/contracts-upgradeable/proxy/utils/Initializable.sol\":4191:4217  _getInitializableStorage() */\n      jump\t// in\n    tag_191:\n        /* \"@openzeppelin/contracts-upgradeable/proxy/utils/Initializable.sol\":4158:4217  InitializableStorage storage $ = _getInitializableStorage() */\n      swap1\n      pop\n        /* \"@openzeppelin/contracts-upgradeable/proxy/utils/Initializable.sol\":4279:4298  bool isTopLevelCall */\n      0x00\n        /* \"@openzeppelin/contracts-upgradeable/proxy/utils/Initializable.sol\":4302:4303  $ */\n      dup2\n        /* \"@openzeppelin/contracts-upgradeable/proxy/utils/Initializable.sol\":4302:4317  $._initializing */\n      0x00\n      add\n      0x08\n      swap1\n      sload\n      swap1\n      0x0100\n      exp\n      swap1\n      div\n      0xff\n      and\n        /* \"@openzeppelin/contracts-upgradeable/proxy/utils/Initializable.sol\":4301:4317  !$._initializing */\n      iszero\n        /* \"@openzeppelin/contracts-upgradeable/proxy/utils/Initializable.sol\":4279:4317  bool isTopLevelCall = !$._initializing */\n      swap1\n      pop\n        /* \"@openzeppelin/contracts-upgradeable/proxy/utils/Initializable.sol\":4327:4345  uint64 initialized */\n      0x00\n        /* \"@openzeppelin/contracts-upgradeable/proxy/utils/Initializable.sol\":4348:4349  $ */\n      dup3\n        /* \"@openzeppelin/contracts-upgradeable/proxy/utils/Initializable.sol\":4348:4362  $._initialized */\n      0x00\n      add\n      0x00\n      swap1\n      sload\n      swap1\n      0x0100\n      exp\n      swap1\n      div\n      0xffffffffffffffff\n      and\n        /* \"@openzeppelin/contracts-upgradeable/proxy/utils/Initializable.sol\":4327:4362  uint64 initialized = $._initialized */\n      swap1\n      pop\n        /* \"@openzeppelin/contracts-upgradeable/proxy/utils/Initializable.sol\":4706:4723  bool initialSetup */\n      0x00\n        /* \"@openzeppelin/contracts-upgradeable/proxy/utils/Initializable.sol\":4741:4742  0 */\n      dup1\n        /* \"@openzeppelin/contracts-upgradeable/proxy/utils/Initializable.sol\":4726:4737  initialized */\n      dup3\n        /* \"@openzeppelin/contracts-upgradeable/proxy/utils/Initializable.sol\":4726:4742  initialized == 0 */\n      0xffffffffffffffff\n      and\n      eq\n        /* \"@openzeppelin/contracts-upgradeable/proxy/utils/Initializable.sol\":4726:4760  initialized == 0 && isTopLevelCall */\n      dup1\n      iszero\n      tag_193\n      jumpi\n      pop\n        /* \"@openzeppelin/contracts-upgradeable/proxy/utils/Initializable.sol\":4746:4760  isTopLevelCall */\n      dup3\n        /* \"@openzeppelin/contracts-upgradeable/proxy/utils/Initializable.sol\":4726:4760  initialized == 0 && isTopLevelCall */\n    tag_193:\n        /* \"@openzeppelin/contracts-upgradeable/proxy/utils/Initializable.sol\":4706:4760  bool initialSetup = initialized == 0 && isTopLevelCall */\n      swap1\n      pop\n        /* \"@openzeppelin/contracts-upgradeable/proxy/utils/Initializable.sol\":4770:4787  bool construction */\n      0x00\n        /* \"@openzeppelin/contracts-upgradeable/proxy/utils/Initializable.sol\":4805:4806  1 */\n      0x01\n        /* \"@openzeppelin/contracts-upgradeable/proxy/utils/Initializable.sol\":4790:4801  initialized */\n      dup4\n        /* \"@openzeppelin/contracts-upgradeable/proxy/utils/Initializable.sol\":4790:4806  initialized == 1 */\n      0xffffffffffffffff\n      and\n      eq\n        /* \"@openzeppelin/contracts-upgradeable/proxy/utils/Initializable.sol\":4790:4840  initialized == 1 && address(this).code.length == 0 */\n      dup1\n      iszero\n      tag_194\n      jumpi\n      pop\n        /* \"@openzeppelin/contracts-upgradeable/proxy/utils/Initializable.sol\":4839:4840  0 */\n      0x00\n        /* \"@openzeppelin/contracts-upgradeable/proxy/utils/Initializable.sol\":4818:4822  this */\n      address\n        /* \"@openzeppelin/contracts-upgradeable/proxy/utils/Initializable.sol\":4810:4835  address(this).code.length */\n      0xffffffffffffffffffffffffffffffffffffffff\n      and\n      extcodesize\n        /* \"@openzeppelin/contracts-upgradeable/proxy/utils/Initializable.sol\":4810:4840  address(this).code.length == 0 */\n      eq\n        /* \"@openzeppelin/contracts-upgradeable/proxy/utils/Initializable.sol\":4790:4840  initialized == 1 && address(this).code.length == 0 */\n    tag_194:\n        /* \"@openzeppelin/contracts-upgradeable/proxy/utils/Initializable.sol\":4770:4840  bool construction = initialized == 1 && address(this).code.length == 0 */\n      swap1\n      pop\n        /* \"@openzeppelin/contracts-upgradeable/proxy/utils/Initializable.sol\":4856:4868  initialSetup */\n      dup2\n        /* \"@openzeppelin/contracts-upgradeable/proxy/utils/Initializable.sol\":4855:4868  !initialSetup */\n      iszero\n        /* \"@openzeppelin/contracts-upgradeable/proxy/utils/Initializable.sol\":4855:4885  !initialSetup && !construction */\n      dup1\n      iszero\n      tag_195\n      jumpi\n      pop\n        /* \"@openzeppelin/contracts-upgradeable/proxy/utils/Initializable.sol\":4873:4885  construction */\n      dup1\n        /* \"@openzeppelin/contracts-upgradeable/proxy/utils/Initializable.sol\":4872:4885  !construction */\n      iszero\n        /* \"@openzeppelin/contracts-upgradeable/proxy/utils/Initializable.sol\":4855:4885  !initialSetup && !construction */\n    tag_195:\n        /* \"@openzeppelin/contracts-upgradeable/proxy/utils/Initializable.sol\":4851:4942  if (!initialSetup && !construction) {... */\n      iszero\n      tag_196\n      jumpi\n        /* \"@openzeppelin/contracts-upgradeable/proxy/utils/Initializable.sol\":4908:4931  InvalidInitialization() */\n      mload(0x40)\n      0xf92ee8a900000000000000000000000000000000000000000000000000000000\n      dup2\n      mstore\n      0x04\n      add\n      mload(0x40)\n      dup1\n      swap2\n      sub\n      swap1\n      revert\n        /* \"@openzeppelin/contracts-upgradeable/proxy/utils/Initializable.sol\":4851:4942  if (!initialSetup && !construction) {... */\n    tag_196:\n        /* \"@openzeppelin/contracts-upgradeable/proxy/utils/Initializable.sol\":4968:4969  1 */\n      0x01\n        /* \"@openzeppelin/contracts-upgradeable/proxy/utils/Initializable.sol\":4951:4952  $ */\n      dup6\n        /* \"@openzeppelin/contracts-upgradeable/proxy/utils/Initializable.sol\":4951:4965  $._initialized */\n      0x00\n      add\n      0x00\n        /* \"@openzeppelin/contracts-upgradeable/proxy/utils/Initializable.sol\":4951:4969  $._initialized = 1 */\n      0x0100\n      exp\n      dup2\n      sload\n      dup2\n      0xffffffffffffffff\n      mul\n      not\n      and\n      swap1\n      dup4\n      0xffffffffffffffff\n      and\n      mul\n      or\n      swap1\n      sstore\n      pop\n        /* \"@openzeppelin/contracts-upgradeable/proxy/utils/Initializable.sol\":4983:4997  isTopLevelCall */\n      dup4\n        /* \"@openzeppelin/contracts-upgradeable/proxy/utils/Initializable.sol\":4979:5046  if (isTopLevelCall) {... */\n      iszero\n      tag_197\n      jumpi\n        /* \"@openzeppelin/contracts-upgradeable/proxy/utils/Initializable.sol\":5031:5035  true */\n      0x01\n        /* \"@openzeppelin/contracts-upgradeable/proxy/utils/Initializable.sol\":5013:5014  $ */\n      dup6\n        /* \"@openzeppelin/contracts-upgradeable/proxy/utils/Initializable.sol\":5013:5028  $._initializing */\n      0x00\n      add\n      0x08\n        /* \"@openzeppelin/contracts-upgradeable/proxy/utils/Initializable.sol\":5013:5035  $._initializing = true */\n      0x0100\n      exp\n      dup2\n      sload\n      dup2\n      0xff\n      mul\n      not\n      and\n      swap1\n      dup4\n      iszero\n      iszero\n      mul\n      or\n      swap1\n      sstore\n      pop\n        /* \"@openzeppelin/contracts-upgradeable/proxy/utils/Initializable.sol\":4979:5046  if (isTopLevelCall) {... */\n    tag_197:\n        /* \"contracts/QuailFinance.sol\":3926:3952  __Ownable_init(msg.sender) */\n      tag_199\n        /* \"contracts/QuailFinance.sol\":3941:3951  msg.sender */\n      caller\n        /* \"contracts/QuailFinance.sol\":3926:3940  __Ownable_init */\n      tag_200\n        /* \"contracts/QuailFinance.sol\":3926:3952  __Ownable_init(msg.sender) */\n      jump\t// in\n    tag_199:\n        /* \"@openzeppelin/contracts-upgradeable/proxy/utils/Initializable.sol\":5070:5084  isTopLevelCall */\n      dup4\n        /* \"@openzeppelin/contracts-upgradeable/proxy/utils/Initializable.sol\":5066:5167  if (isTopLevelCall) {... */\n      iszero\n      tag_201\n      jumpi\n        /* \"@openzeppelin/contracts-upgradeable/proxy/utils/Initializable.sol\":5118:5123  false */\n      0x00\n        /* \"@openzeppelin/contracts-upgradeable/proxy/utils/Initializable.sol\":5100:5101  $ */\n      dup6\n        /* \"@openzeppelin/contracts-upgradeable/proxy/utils/Initializable.sol\":5100:5115  $._initializing */\n      0x00\n      add\n      0x08\n        /* \"@openzeppelin/contracts-upgradeable/proxy/utils/Initializable.sol\":5100:5123  $._initializing = false */\n      0x0100\n      exp\n      dup2\n      sload\n      dup2\n      0xff\n      mul\n      not\n      and\n      swap1\n      dup4\n      iszero\n      iszero\n      mul\n      or\n      swap1\n      sstore\n      pop\n        /* \"@openzeppelin/contracts-upgradeable/proxy/utils/Initializable.sol\":5142:5156  Initialized(1) */\n      0xc7f505b2f371ae2175ee4913f4499e1f2633a7b5936321eed1cdaeb6115181d2\n        /* \"@openzeppelin/contracts-upgradeable/proxy/utils/Initializable.sol\":5154:5155  1 */\n      0x01\n        /* \"@openzeppelin/contracts-upgradeable/proxy/utils/Initializable.sol\":5142:5156  Initialized(1) */\n      mload(0x40)\n      tag_202\n      swap2\n      swap1\n      tag_203\n      jump\t// in\n    tag_202:\n      mload(0x40)\n      dup1\n      swap2\n      sub\n      swap1\n      log1\n        /* \"@openzeppelin/contracts-upgradeable/proxy/utils/Initializable.sol\":5066:5167  if (isTopLevelCall) {... */\n    tag_201:\n        /* \"@openzeppelin/contracts-upgradeable/proxy/utils/Initializable.sol\":4092:5173  {... */\n      pop\n      pop\n      pop\n      pop\n      pop\n        /* \"contracts/QuailFinance.sol\":3875:4033  function initialize() public initializer {... */\n      jump\t// out\n        /* \"contracts/QuailFinance.sol\":5964:6778  function joinPot(uint256 _potId) external payable {... */\n    tag_76:\n        /* \"contracts/QuailFinance.sol\":6024:6039  Pot storage pot */\n      0x00\n        /* \"contracts/QuailFinance.sol\":6042:6046  pots */\n      0x05\n        /* \"contracts/QuailFinance.sol\":6042:6054  pots[_potId] */\n      0x00\n        /* \"contracts/QuailFinance.sol\":6047:6053  _potId */\n      dup4\n        /* \"contracts/QuailFinance.sol\":6042:6054  pots[_potId] */\n      dup2\n      mstore\n      0x20\n      add\n      swap1\n      dup2\n      mstore\n      0x20\n      add\n      0x00\n      keccak256\n        /* \"contracts/QuailFinance.sol\":6024:6054  Pot storage pot = pots[_potId] */\n      swap1\n      pop\n        /* \"contracts/QuailFinance.sol\":6098:6101  pot */\n      dup1\n        /* \"contracts/QuailFinance.sol\":6098:6117  pot.numParticipants */\n      0x06\n      add\n      sload\n        /* \"contracts/QuailFinance.sol\":6072:6075  pot */\n      dup2\n        /* \"contracts/QuailFinance.sol\":6072:6088  pot.participants */\n      0x09\n      add\n        /* \"contracts/QuailFinance.sol\":6072:6095  pot.participants.length */\n      dup1\n      sload\n      swap1\n      pop\n        /* \"contracts/QuailFinance.sol\":6072:6117  pot.participants.length < pot.numParticipants */\n      lt\n        /* \"contracts/QuailFinance.sol\":6064:6133  require(pot.participants.length < pot.numParticipants, \"Pot is full\") */\n      tag_205\n      jumpi\n      mload(0x40)\n      0x08c379a000000000000000000000000000000000000000000000000000000000\n      dup2\n      mstore\n      0x04\n      add\n      tag_206\n      swap1\n      tag_207\n      jump\t// in\n    tag_206:\n      mload(0x40)\n      dup1\n      swap2\n      sub\n      swap1\n      revert\n    tag_205:\n        /* \"contracts/QuailFinance.sol\":6170:6171  1 */\n      0x01\n        /* \"contracts/QuailFinance.sol\":6151:6154  pot */\n      dup2\n        /* \"contracts/QuailFinance.sol\":6151:6167  pot.currentRound */\n      0x07\n      add\n      sload\n        /* \"contracts/QuailFinance.sol\":6151:6171  pot.currentRound < 1 */\n      lt\n        /* \"contracts/QuailFinance.sol\":6143:6206  require(pot.currentRound < 1, \"Rotating pots cannot be joined\") */\n      tag_208\n      jumpi\n      mload(0x40)\n      0x08c379a000000000000000000000000000000000000000000000000000000000\n      dup2\n      mstore\n      0x04\n      add\n      tag_209\n      swap1\n      tag_210\n      jump\t// in\n    tag_209:\n      mload(0x40)\n      dup1\n      swap2\n      sub\n      swap1\n      revert\n    tag_208:\n        /* \"contracts/QuailFinance.sol\":6257:6258  0 */\n      0x00\n        /* \"contracts/QuailFinance.sol\":6224:6227  pot */\n      dup2\n        /* \"contracts/QuailFinance.sol\":6224:6241  pot.contributions */\n      0x0a\n      add\n        /* \"contracts/QuailFinance.sol\":6224:6253  pot.contributions[msg.sender] */\n      0x00\n        /* \"contracts/QuailFinance.sol\":6242:6252  msg.sender */\n      caller\n        /* \"contracts/QuailFinance.sol\":6224:6253  pot.contributions[msg.sender] */\n      0xffffffffffffffffffffffffffffffffffffffff\n      and\n      0xffffffffffffffffffffffffffffffffffffffff\n      and\n      dup2\n      mstore\n      0x20\n      add\n      swap1\n      dup2\n      mstore\n      0x20\n      add\n      0x00\n      keccak256\n      sload\n        /* \"contracts/QuailFinance.sol\":6224:6258  pot.contributions[msg.sender] == 0 */\n      eq\n        /* \"contracts/QuailFinance.sol\":6216:6277  require(pot.contributions[msg.sender] == 0, \"Already joined\") */\n      tag_211\n      jumpi\n      mload(0x40)\n      0x08c379a000000000000000000000000000000000000000000000000000000000\n      dup2\n      mstore\n      0x04\n      add\n      tag_212\n      swap1\n      tag_213\n      jump\t// in\n    tag_212:\n      mload(0x40)\n      dup1\n      swap2\n      sub\n      swap1\n      revert\n    tag_211:\n        /* \"contracts/QuailFinance.sol\":6337:6363  uint256 amountAfterRevenue */\n      0x00\n        /* \"contracts/QuailFinance.sol\":6366:6391  deductRevenue(pot.amount) */\n      tag_214\n        /* \"contracts/QuailFinance.sol\":6380:6383  pot */\n      dup3\n        /* \"contracts/QuailFinance.sol\":6380:6390  pot.amount */\n      0x01\n      add\n      sload\n        /* \"contracts/QuailFinance.sol\":6366:6379  deductRevenue */\n      tag_124\n        /* \"contracts/QuailFinance.sol\":6366:6391  deductRevenue(pot.amount) */\n      jump\t// in\n    tag_214:\n        /* \"contracts/QuailFinance.sol\":6337:6391  uint256 amountAfterRevenue = deductRevenue(pot.amount) */\n      swap1\n      pop\n        /* \"contracts/QuailFinance.sol\":6409:6418  usdbToken */\n      0x03\n      0x00\n      swap1\n      sload\n      swap1\n      0x0100\n      exp\n      swap1\n      div\n      0xffffffffffffffffffffffffffffffffffffffff\n      and\n        /* \"contracts/QuailFinance.sol\":6409:6431  usdbToken.transferFrom */\n      0xffffffffffffffffffffffffffffffffffffffff\n      and\n      0x23b872dd\n        /* \"contracts/QuailFinance.sol\":6432:6442  msg.sender */\n      caller\n        /* \"contracts/QuailFinance.sol\":6452:6456  this */\n      address\n        /* \"contracts/QuailFinance.sol\":6459:6477  amountAfterRevenue */\n      dup5\n        /* \"contracts/QuailFinance.sol\":6409:6478  usdbToken.transferFrom(msg.sender, address(this), amountAfterRevenue) */\n      mload(0x40)\n      dup5\n      0xffffffff\n      and\n      0xe0\n      shl\n      dup2\n      mstore\n      0x04\n      add\n      tag_215\n      swap4\n      swap3\n      swap2\n      swap1\n      tag_126\n      jump\t// in\n    tag_215:\n      0x20\n      mload(0x40)\n      dup1\n      dup4\n      sub\n      dup2\n      0x00\n      dup8\n      gas\n      call\n      iszero\n      dup1\n      iszero\n      tag_217\n      jumpi\n      returndatasize\n      0x00\n      dup1\n      returndatacopy\n      revert(0x00, returndatasize)\n    tag_217:\n      pop\n      pop\n      pop\n      pop\n      mload(0x40)\n      returndatasize\n      not(0x1f)\n      0x1f\n      dup3\n      add\n      and\n      dup3\n      add\n      dup1\n      0x40\n      mstore\n      pop\n      dup2\n      add\n      swap1\n      tag_218\n      swap2\n      swap1\n      tag_130\n      jump\t// in\n    tag_218:\n        /* \"contracts/QuailFinance.sol\":6401:6498  require(usdbToken.transferFrom(msg.sender, address(this), amountAfterRevenue), \"Transfer failed\") */\n      tag_219\n      jumpi\n      mload(0x40)\n      0x08c379a000000000000000000000000000000000000000000000000000000000\n      dup2\n      mstore\n      0x04\n      add\n      tag_220\n      swap1\n      tag_221\n      jump\t// in\n    tag_220:\n      mload(0x40)\n      dup1\n      swap2\n      sub\n      swap1\n      revert\n    tag_219:\n        /* \"contracts/QuailFinance.sol\":6540:6558  amountAfterRevenue */\n      dup1\n        /* \"contracts/QuailFinance.sol\":6508:6511  pot */\n      dup3\n        /* \"contracts/QuailFinance.sol\":6508:6525  pot.contributions */\n      0x0a\n      add\n        /* \"contracts/QuailFinance.sol\":6508:6537  pot.contributions[msg.sender] */\n      0x00\n        /* \"contracts/QuailFinance.sol\":6526:6536  msg.sender */\n      caller\n        /* \"contracts/QuailFinance.sol\":6508:6537  pot.contributions[msg.sender] */\n      0xffffffffffffffffffffffffffffffffffffffff\n      and\n      0xffffffffffffffffffffffffffffffffffffffff\n      and\n      dup2\n      mstore\n      0x20\n      add\n      swap1\n      dup2\n      mstore\n      0x20\n      add\n      0x00\n      keccak256\n        /* \"contracts/QuailFinance.sol\":6508:6558  pot.contributions[msg.sender] = amountAfterRevenue */\n      dup2\n      swap1\n      sstore\n      pop\n        /* \"contracts/QuailFinance.sol\":6568:6571  pot */\n      dup2\n        /* \"contracts/QuailFinance.sol\":6568:6584  pot.participants */\n      0x09\n      add\n        /* \"contracts/QuailFinance.sol\":6590:6600  msg.sender */\n      caller\n        /* \"contracts/QuailFinance.sol\":6568:6601  pot.participants.push(msg.sender) */\n      swap1\n      dup1\n      0x01\n      dup2\n      sload\n      add\n      dup1\n      dup3\n      sstore\n      dup1\n      swap2\n      pop\n      pop\n      0x01\n      swap1\n      sub\n      swap1\n      0x00\n      mstore\n      keccak256(0x00, 0x20)\n      add\n      0x00\n      swap1\n      swap2\n      swap1\n      swap2\n      swap1\n      swap2\n      0x0100\n      exp\n      dup2\n      sload\n      dup2\n      0xffffffffffffffffffffffffffffffffffffffff\n      mul\n      not\n      and\n      swap1\n      dup4\n      0xffffffffffffffffffffffffffffffffffffffff\n      and\n      mul\n      or\n      swap1\n      sstore\n      pop\n        /* \"contracts/QuailFinance.sol\":6625:6771  ParticipantJoined(_potId, msg.sender, pot.amount, pot.rotationCycleInSeconds, pot.interestNumerator, pot.interestDenominator, pot.numParticipants) */\n      0x7940335f2934b328362e6c325cd06ad0bc653662a5d556304d09ef5c2cc74a76\n        /* \"contracts/QuailFinance.sol\":6643:6649  _potId */\n      dup4\n        /* \"contracts/QuailFinance.sol\":6651:6661  msg.sender */\n      caller\n        /* \"contracts/QuailFinance.sol\":6663:6666  pot */\n      dup5\n        /* \"contracts/QuailFinance.sol\":6663:6673  pot.amount */\n      0x01\n      add\n      sload\n        /* \"contracts/QuailFinance.sol\":6675:6678  pot */\n      dup6\n        /* \"contracts/QuailFinance.sol\":6675:6701  pot.rotationCycleInSeconds */\n      0x02\n      add\n      sload\n        /* \"contracts/QuailFinance.sol\":6703:6706  pot */\n      dup7\n        /* \"contracts/QuailFinance.sol\":6703:6724  pot.interestNumerator */\n      0x04\n      add\n      sload\n        /* \"contracts/QuailFinance.sol\":6726:6729  pot */\n      dup8\n        /* \"contracts/QuailFinance.sol\":6726:6749  pot.interestDenominator */\n      0x05\n      add\n      sload\n        /* \"contracts/QuailFinance.sol\":6751:6754  pot */\n      dup9\n        /* \"contracts/QuailFinance.sol\":6751:6770  pot.numParticipants */\n      0x06\n      add\n      sload\n        /* \"contracts/QuailFinance.sol\":6625:6771  ParticipantJoined(_potId, msg.sender, pot.amount, pot.rotationCycleInSeconds, pot.interestNumerator, pot.interestDenominator, pot.numParticipants) */\n      mload(0x40)\n      tag_223\n      swap8\n      swap7\n      swap6\n      swap5\n      swap4\n      swap3\n      swap2\n      swap1\n      tag_224\n      jump\t// in\n    tag_223:\n      mload(0x40)\n      dup1\n      swap2\n      sub\n      swap1\n      log1\n        /* \"contracts/QuailFinance.sol\":6014:6778  {... */\n      pop\n      pop\n        /* \"contracts/QuailFinance.sol\":5964:6778  function joinPot(uint256 _potId) external payable {... */\n      pop\n      jump\t// out\n        /* \"@openzeppelin/contracts-upgradeable/access/OwnableUpgradeable.sol\":2441:2585  function owner() public view virtual returns (address) {... */\n    tag_79:\n        /* \"@openzeppelin/contracts-upgradeable/access/OwnableUpgradeable.sol\":2487:2494  address */\n      0x00\n        /* \"@openzeppelin/contracts-upgradeable/access/OwnableUpgradeable.sol\":2506:2530  OwnableStorage storage $ */\n      dup1\n        /* \"@openzeppelin/contracts-upgradeable/access/OwnableUpgradeable.sol\":2533:2553  _getOwnableStorage() */\n      tag_226\n        /* \"@openzeppelin/contracts-upgradeable/access/OwnableUpgradeable.sol\":2533:2551  _getOwnableStorage */\n      tag_227\n        /* \"@openzeppelin/contracts-upgradeable/access/OwnableUpgradeable.sol\":2533:2553  _getOwnableStorage() */\n      jump\t// in\n    tag_226:\n        /* \"@openzeppelin/contracts-upgradeable/access/OwnableUpgradeable.sol\":2506:2553  OwnableStorage storage $ = _getOwnableStorage() */\n      swap1\n      pop\n        /* \"@openzeppelin/contracts-upgradeable/access/OwnableUpgradeable.sol\":2570:2571  $ */\n      dup1\n        /* \"@openzeppelin/contracts-upgradeable/access/OwnableUpgradeable.sol\":2570:2578  $._owner */\n      0x00\n      add\n      0x00\n      swap1\n      sload\n      swap1\n      0x0100\n      exp\n      swap1\n      div\n      0xffffffffffffffffffffffffffffffffffffffff\n      and\n        /* \"@openzeppelin/contracts-upgradeable/access/OwnableUpgradeable.sol\":2563:2578  return $._owner */\n      swap2\n      pop\n      pop\n        /* \"@openzeppelin/contracts-upgradeable/access/OwnableUpgradeable.sol\":2441:2585  function owner() public view virtual returns (address) {... */\n      swap1\n      jump\t// out\n        /* \"contracts/QuailFinance.sol\":621:702  IBlast public constant BLAST = IBlast(0x4300000000000000000000000000000000000002) */\n    tag_84:\n        /* \"contracts/QuailFinance.sol\":659:701  0x4300000000000000000000000000000000000002 */\n      0x4300000000000000000000000000000000000002\n        /* \"contracts/QuailFinance.sol\":621:702  IBlast public constant BLAST = IBlast(0x4300000000000000000000000000000000000002) */\n      dup2\n      jump\t// out\n        /* \"contracts/QuailFinance.sol\":708:735  uint256 public totalRevenue */\n    tag_89:\n      sload(0x02)\n      dup2\n      jump\t// out\n        /* \"contracts/QuailFinance.sol\":845:880  mapping(uint256 => Pot) public pots */\n    tag_94:\n      mstore(0x20, 0x05)\n      dup1\n      0x00\n      mstore\n      keccak256(0x00, 0x40)\n      0x00\n      swap2\n      pop\n      swap1\n      pop\n      dup1\n      0x00\n      add\n      dup1\n      sload\n      tag_228\n      swap1\n      tag_229\n      jump\t// in\n    tag_228:\n      dup1\n      0x1f\n      add\n      0x20\n      dup1\n      swap2\n      div\n      mul\n      0x20\n      add\n      mload(0x40)\n      swap1\n      dup2\n      add\n      0x40\n      mstore\n      dup1\n      swap3\n      swap2\n      swap1\n      dup2\n      dup2\n      mstore\n      0x20\n      add\n      dup3\n      dup1\n      sload\n      tag_230\n      swap1\n      tag_229\n      jump\t// in\n    tag_230:\n      dup1\n      iszero\n      tag_231\n      jumpi\n      dup1\n      0x1f\n      lt\n      tag_232\n      jumpi\n      0x0100\n      dup1\n      dup4\n      sload\n      div\n      mul\n      dup4\n      mstore\n      swap2\n      0x20\n      add\n      swap2\n      jump(tag_231)\n    tag_232:\n      dup3\n      add\n      swap2\n      swap1\n      0x00\n      mstore\n      keccak256(0x00, 0x20)\n      swap1\n    tag_233:\n      dup2\n      sload\n      dup2\n      mstore\n      swap1\n      0x01\n      add\n      swap1\n      0x20\n      add\n      dup1\n      dup4\n      gt\n      tag_233\n      jumpi\n      dup3\n      swap1\n      sub\n      0x1f\n      and\n      dup3\n      add\n      swap2\n    tag_231:\n      pop\n      pop\n      pop\n      pop\n      pop\n      swap1\n      dup1\n      0x01\n      add\n      sload\n      swap1\n      dup1\n      0x02\n      add\n      sload\n      swap1\n      dup1\n      0x03\n      add\n      sload\n      swap1\n      dup1\n      0x04\n      add\n      sload\n      swap1\n      dup1\n      0x05\n      add\n      sload\n      swap1\n      dup1\n      0x06\n      add\n      sload\n      swap1\n      dup1\n      0x07\n      add\n      sload\n      swap1\n      dup1\n      0x08\n      add\n      0x00\n      swap1\n      sload\n      swap1\n      0x0100\n      exp\n      swap1\n      div\n      0xffffffffffffffffffffffffffffffffffffffff\n      and\n      swap1\n      pop\n      dup10\n      jump\t// out\n        /* \"contracts/QuailFinance.sol\":6958:8005  function rotateLiquidity(uint256 _potId) public {... */\n    tag_100:\n        /* \"contracts/QuailFinance.sol\":7051:7061  msg.sender */\n      caller\n        /* \"contracts/QuailFinance.sol\":7024:7061  pots[_potId].potCreator == msg.sender */\n      0xffffffffffffffffffffffffffffffffffffffff\n      and\n        /* \"contracts/QuailFinance.sol\":7024:7028  pots */\n      0x05\n        /* \"contracts/QuailFinance.sol\":7024:7036  pots[_potId] */\n      0x00\n        /* \"contracts/QuailFinance.sol\":7029:7035  _potId */\n      dup4\n        /* \"contracts/QuailFinance.sol\":7024:7036  pots[_potId] */\n      dup2\n      mstore\n      0x20\n      add\n      swap1\n      dup2\n      mstore\n      0x20\n      add\n      0x00\n      keccak256\n        /* \"contracts/QuailFinance.sol\":7024:7047  pots[_potId].potCreator */\n      0x08\n      add\n      0x00\n      swap1\n      sload\n      swap1\n      0x0100\n      exp\n      swap1\n      div\n      0xffffffffffffffffffffffffffffffffffffffff\n      and\n        /* \"contracts/QuailFinance.sol\":7024:7061  pots[_potId].potCreator == msg.sender */\n      0xffffffffffffffffffffffffffffffffffffffff\n      and\n      eq\n        /* \"contracts/QuailFinance.sol\":7016:7108  require(pots[_potId].potCreator == msg.sender, \"Only the pot creator can reveal the winner\") */\n      tag_235\n      jumpi\n      mload(0x40)\n      0x08c379a000000000000000000000000000000000000000000000000000000000\n      dup2\n      mstore\n      0x04\n      add\n      tag_236\n      swap1\n      tag_237\n      jump\t// in\n    tag_236:\n      mload(0x40)\n      dup1\n      swap2\n      sub\n      swap1\n      revert\n    tag_235:\n        /* \"contracts/QuailFinance.sol\":7118:7133  Pot storage pot */\n      0x00\n        /* \"contracts/QuailFinance.sol\":7136:7140  pots */\n      0x05\n        /* \"contracts/QuailFinance.sol\":7136:7148  pots[_potId] */\n      0x00\n        /* \"contracts/QuailFinance.sol\":7141:7147  _potId */\n      dup4\n        /* \"contracts/QuailFinance.sol\":7136:7148  pots[_potId] */\n      dup2\n      mstore\n      0x20\n      add\n      swap1\n      dup2\n      mstore\n      0x20\n      add\n      0x00\n      keccak256\n        /* \"contracts/QuailFinance.sol\":7118:7148  Pot storage pot = pots[_potId] */\n      swap1\n      pop\n        /* \"contracts/QuailFinance.sol\":7208:7211  pot */\n      dup1\n        /* \"contracts/QuailFinance.sol\":7208:7234  pot.rotationCycleInSeconds */\n      0x02\n      add\n      sload\n        /* \"contracts/QuailFinance.sol\":7185:7188  pot */\n      dup2\n        /* \"contracts/QuailFinance.sol\":7185:7205  pot.lastRotationTime */\n      0x03\n      add\n      sload\n        /* \"contracts/QuailFinance.sol\":7185:7234  pot.lastRotationTime + pot.rotationCycleInSeconds */\n      tag_238\n      swap2\n      swap1\n      tag_239\n      jump\t// in\n    tag_238:\n        /* \"contracts/QuailFinance.sol\":7166:7181  block.timestamp */\n      timestamp\n        /* \"contracts/QuailFinance.sol\":7166:7234  block.timestamp >= pot.lastRotationTime + pot.rotationCycleInSeconds */\n      lt\n      iszero\n        /* \"contracts/QuailFinance.sol\":7158:7264  require(block.timestamp >= pot.lastRotationTime + pot.rotationCycleInSeconds, \"Next rotation not yet due\") */\n      tag_240\n      jumpi\n      mload(0x40)\n      0x08c379a000000000000000000000000000000000000000000000000000000000\n      dup2\n      mstore\n      0x04\n      add\n      tag_241\n      swap1\n      tag_242\n      jump\t// in\n    tag_241:\n      mload(0x40)\n      dup1\n      swap2\n      sub\n      swap1\n      revert\n    tag_240:\n        /* \"contracts/QuailFinance.sol\":7274:7293  uint256 winnerIndex */\n      0x00\n        /* \"contracts/QuailFinance.sol\":7316:7319  pot */\n      dup2\n        /* \"contracts/QuailFinance.sol\":7316:7335  pot.numParticipants */\n      0x06\n      add\n      sload\n        /* \"contracts/QuailFinance.sol\":7297:7300  pot */\n      dup3\n        /* \"contracts/QuailFinance.sol\":7297:7313  pot.currentRound */\n      0x07\n      add\n      sload\n        /* \"contracts/QuailFinance.sol\":7297:7335  pot.currentRound % pot.numParticipants */\n      tag_243\n      swap2\n      swap1\n      tag_244\n      jump\t// in\n    tag_243:\n        /* \"contracts/QuailFinance.sol\":7274:7336  uint256 winnerIndex = (pot.currentRound % pot.numParticipants) */\n      swap1\n      pop\n        /* \"contracts/QuailFinance.sol\":7389:7403  address winner */\n      0x00\n        /* \"contracts/QuailFinance.sol\":7406:7409  pot */\n      dup3\n        /* \"contracts/QuailFinance.sol\":7406:7422  pot.participants */\n      0x09\n      add\n        /* \"contracts/QuailFinance.sol\":7423:7434  winnerIndex */\n      dup3\n        /* \"contracts/QuailFinance.sol\":7406:7435  pot.participants[winnerIndex] */\n      dup2\n      sload\n      dup2\n      lt\n      tag_245\n      jumpi\n      tag_246\n      tag_247\n      jump\t// in\n    tag_246:\n    tag_245:\n      swap1\n      0x00\n      mstore\n      keccak256(0x00, 0x20)\n      add\n      0x00\n      swap1\n      sload\n      swap1\n      0x0100\n      exp\n      swap1\n      div\n      0xffffffffffffffffffffffffffffffffffffffff\n      and\n        /* \"contracts/QuailFinance.sol\":7389:7435  address winner = pot.participants[winnerIndex] */\n      swap1\n      pop\n        /* \"contracts/QuailFinance.sol\":7549:7571  uint256 totalPotAmount */\n      0x00\n        /* \"contracts/QuailFinance.sol\":7600:7603  pot */\n      dup4\n        /* \"contracts/QuailFinance.sol\":7600:7610  pot.amount */\n      0x01\n      add\n      sload\n        /* \"contracts/QuailFinance.sol\":7574:7577  pot */\n      dup5\n        /* \"contracts/QuailFinance.sol\":7574:7590  pot.participants */\n      0x09\n      add\n        /* \"contracts/QuailFinance.sol\":7574:7597  pot.participants.length */\n      dup1\n      sload\n      swap1\n      pop\n        /* \"contracts/QuailFinance.sol\":7574:7610  pot.participants.length * pot.amount */\n      tag_249\n      swap2\n      swap1\n      tag_250\n      jump\t// in\n    tag_249:\n        /* \"contracts/QuailFinance.sol\":7549:7610  uint256 totalPotAmount = pot.participants.length * pot.amount */\n      swap1\n      pop\n        /* \"contracts/QuailFinance.sol\":7620:7650  uint256 totalPotAmountInterest */\n      0x00\n        /* \"contracts/QuailFinance.sol\":7653:7693  calculateInterest(_potId,totalPotAmount) */\n      tag_251\n        /* \"contracts/QuailFinance.sol\":7671:7677  _potId */\n      dup7\n        /* \"contracts/QuailFinance.sol\":7678:7692  totalPotAmount */\n      dup4\n        /* \"contracts/QuailFinance.sol\":7653:7670  calculateInterest */\n      tag_105\n        /* \"contracts/QuailFinance.sol\":7653:7693  calculateInterest(_potId,totalPotAmount) */\n      jump\t// in\n    tag_251:\n        /* \"contracts/QuailFinance.sol\":7620:7693  uint256 totalPotAmountInterest = calculateInterest(_potId,totalPotAmount) */\n      swap1\n      pop\n        /* \"contracts/QuailFinance.sol\":7711:7720  usdbToken */\n      0x03\n      0x00\n      swap1\n      sload\n      swap1\n      0x0100\n      exp\n      swap1\n      div\n      0xffffffffffffffffffffffffffffffffffffffff\n      and\n        /* \"contracts/QuailFinance.sol\":7711:7729  usdbToken.transfer */\n      0xffffffffffffffffffffffffffffffffffffffff\n      and\n      0xa9059cbb\n        /* \"contracts/QuailFinance.sol\":7730:7740  msg.sender */\n      caller\n        /* \"contracts/QuailFinance.sol\":7757:7779  totalPotAmountInterest */\n      dup4\n        /* \"contracts/QuailFinance.sol\":7742:7756  totalPotAmount */\n      dup6\n        /* \"contracts/QuailFinance.sol\":7742:7779  totalPotAmount-totalPotAmountInterest */\n      tag_252\n      swap2\n      swap1\n      tag_166\n      jump\t// in\n    tag_252:\n        /* \"contracts/QuailFinance.sol\":7711:7780  usdbToken.transfer(msg.sender, totalPotAmount-totalPotAmountInterest) */\n      mload(0x40)\n      dup4\n      0xffffffff\n      and\n      0xe0\n      shl\n      dup2\n      mstore\n      0x04\n      add\n      tag_253\n      swap3\n      swap2\n      swap1\n      tag_150\n      jump\t// in\n    tag_253:\n      0x20\n      mload(0x40)\n      dup1\n      dup4\n      sub\n      dup2\n      0x00\n      dup8\n      gas\n      call\n      iszero\n      dup1\n      iszero\n      tag_255\n      jumpi\n      returndatasize\n      0x00\n      dup1\n      returndatacopy\n      revert(0x00, returndatasize)\n    tag_255:\n      pop\n      pop\n      pop\n      pop\n      mload(0x40)\n      returndatasize\n      not(0x1f)\n      0x1f\n      dup3\n      add\n      and\n      dup3\n      add\n      dup1\n      0x40\n      mstore\n      pop\n      dup2\n      add\n      swap1\n      tag_256\n      swap2\n      swap1\n      tag_130\n      jump\t// in\n    tag_256:\n        /* \"contracts/QuailFinance.sol\":7703:7806  require(usdbToken.transfer(msg.sender, totalPotAmount-totalPotAmountInterest), \"Yield transfer failed\") */\n      tag_257\n      jumpi\n      mload(0x40)\n      0x08c379a000000000000000000000000000000000000000000000000000000000\n      dup2\n      mstore\n      0x04\n      add\n      tag_258\n      swap1\n      tag_173\n      jump\t// in\n    tag_258:\n      mload(0x40)\n      dup1\n      swap2\n      sub\n      swap1\n      revert\n    tag_257:\n        /* \"contracts/QuailFinance.sol\":7839:7854  block.timestamp */\n      timestamp\n        /* \"contracts/QuailFinance.sol\":7816:7819  pot */\n      dup6\n        /* \"contracts/QuailFinance.sol\":7816:7836  pot.lastRotationTime */\n      0x03\n      add\n        /* \"contracts/QuailFinance.sol\":7816:7854  pot.lastRotationTime = block.timestamp */\n      dup2\n      swap1\n      sstore\n      pop\n        /* \"contracts/QuailFinance.sol\":7869:7920  RotationCompleted(_potId, winner, pot.currentRound) */\n      0x35cb3811461cb824b245820eee97ab50ee1cc609f2bdd3bb10f5f0010184a7d3\n        /* \"contracts/QuailFinance.sol\":7887:7893  _potId */\n      dup7\n        /* \"contracts/QuailFinance.sol\":7895:7901  winner */\n      dup5\n        /* \"contracts/QuailFinance.sol\":7903:7906  pot */\n      dup8\n        /* \"contracts/QuailFinance.sol\":7903:7919  pot.currentRound */\n      0x07\n      add\n      sload\n        /* \"contracts/QuailFinance.sol\":7869:7920  RotationCompleted(_potId, winner, pot.currentRound) */\n      mload(0x40)\n      tag_259\n      swap4\n      swap3\n      swap2\n      swap1\n      tag_260\n      jump\t// in\n    tag_259:\n      mload(0x40)\n      dup1\n      swap2\n      sub\n      swap1\n      log1\n        /* \"contracts/QuailFinance.sol\":7980:7983  pot */\n      dup5\n        /* \"contracts/QuailFinance.sol\":7980:7996  pot.currentRound */\n      0x07\n      add\n      0x00\n        /* \"contracts/QuailFinance.sol\":7980:7998  pot.currentRound++ */\n      dup2\n      sload\n      dup1\n      swap3\n      swap2\n      swap1\n      tag_261\n      swap1\n      tag_122\n      jump\t// in\n    tag_261:\n      swap2\n      swap1\n      pop\n      sstore\n      pop\n        /* \"contracts/QuailFinance.sol\":7006:8005  {... */\n      pop\n      pop\n      pop\n      pop\n      pop\n        /* \"contracts/QuailFinance.sol\":6958:8005  function rotateLiquidity(uint256 _potId) public {... */\n      pop\n      jump\t// out\n        /* \"contracts/QuailFinance.sol\":8238:8449  function calculateInterest(uint256 _potId, uint256 _amount) public view returns (uint256) {... */\n    tag_105:\n        /* \"contracts/QuailFinance.sol\":8319:8326  uint256 */\n      0x00\n        /* \"contracts/QuailFinance.sol\":8338:8353  Pot storage pot */\n      dup1\n        /* \"contracts/QuailFinance.sol\":8356:8360  pots */\n      0x05\n        /* \"contracts/QuailFinance.sol\":8356:8368  pots[_potId] */\n      0x00\n        /* \"contracts/QuailFinance.sol\":8361:8367  _potId */\n      dup6\n        /* \"contracts/QuailFinance.sol\":8356:8368  pots[_potId] */\n      dup2\n      mstore\n      0x20\n      add\n      swap1\n      dup2\n      mstore\n      0x20\n      add\n      0x00\n      keccak256\n        /* \"contracts/QuailFinance.sol\":8338:8368  Pot storage pot = pots[_potId] */\n      swap1\n      pop\n        /* \"contracts/QuailFinance.sol\":8419:8422  pot */\n      dup1\n        /* \"contracts/QuailFinance.sol\":8419:8442  pot.interestDenominator */\n      0x05\n      add\n      sload\n        /* \"contracts/QuailFinance.sol\":8395:8398  pot */\n      dup2\n        /* \"contracts/QuailFinance.sol\":8395:8416  pot.interestNumerator */\n      0x04\n      add\n      sload\n        /* \"contracts/QuailFinance.sol\":8385:8392  _amount */\n      dup5\n        /* \"contracts/QuailFinance.sol\":8385:8416  _amount * pot.interestNumerator */\n      tag_263\n      swap2\n      swap1\n      tag_250\n      jump\t// in\n    tag_263:\n        /* \"contracts/QuailFinance.sol\":8385:8442  _amount * pot.interestNumerator / pot.interestDenominator */\n      tag_264\n      swap2\n      swap1\n      tag_265\n      jump\t// in\n    tag_264:\n        /* \"contracts/QuailFinance.sol\":8378:8442  return _amount * pot.interestNumerator / pot.interestDenominator */\n      swap2\n      pop\n      pop\n        /* \"contracts/QuailFinance.sol\":8238:8449  function calculateInterest(uint256 _potId, uint256 _amount) public view returns (uint256) {... */\n      swap3\n      swap2\n      pop\n      pop\n      jump\t// out\n        /* \"@openzeppelin/contracts-upgradeable/access/OwnableUpgradeable.sol\":3405:3620  function transferOwnership(address newOwner) public virtual onlyOwner {... */\n    tag_110:\n        /* \"@openzeppelin/contracts-upgradeable/access/OwnableUpgradeable.sol\":2334:2347  _checkOwner() */\n      tag_267\n        /* \"@openzeppelin/contracts-upgradeable/access/OwnableUpgradeable.sol\":2334:2345  _checkOwner */\n      tag_142\n        /* \"@openzeppelin/contracts-upgradeable/access/OwnableUpgradeable.sol\":2334:2347  _checkOwner() */\n      jump\t// in\n    tag_267:\n        /* \"@openzeppelin/contracts-upgradeable/access/OwnableUpgradeable.sol\":3509:3510  0 */\n      0x00\n        /* \"@openzeppelin/contracts-upgradeable/access/OwnableUpgradeable.sol\":3489:3511  newOwner == address(0) */\n      0xffffffffffffffffffffffffffffffffffffffff\n      and\n        /* \"@openzeppelin/contracts-upgradeable/access/OwnableUpgradeable.sol\":3489:3497  newOwner */\n      dup2\n        /* \"@openzeppelin/contracts-upgradeable/access/OwnableUpgradeable.sol\":3489:3511  newOwner == address(0) */\n      0xffffffffffffffffffffffffffffffffffffffff\n      and\n      sub\n        /* \"@openzeppelin/contracts-upgradeable/access/OwnableUpgradeable.sol\":3485:3576  if (newOwner == address(0)) {... */\n      tag_269\n      jumpi\n        /* \"@openzeppelin/contracts-upgradeable/access/OwnableUpgradeable.sol\":3562:3563  0 */\n      0x00\n        /* \"@openzeppelin/contracts-upgradeable/access/OwnableUpgradeable.sol\":3534:3565  OwnableInvalidOwner(address(0)) */\n      mload(0x40)\n      0x1e4fbdf700000000000000000000000000000000000000000000000000000000\n      dup2\n      mstore\n      0x04\n      add\n      tag_270\n      swap2\n      swap1\n      tag_81\n      jump\t// in\n    tag_270:\n      mload(0x40)\n      dup1\n      swap2\n      sub\n      swap1\n      revert\n        /* \"@openzeppelin/contracts-upgradeable/access/OwnableUpgradeable.sol\":3485:3576  if (newOwner == address(0)) {... */\n    tag_269:\n        /* \"@openzeppelin/contracts-upgradeable/access/OwnableUpgradeable.sol\":3585:3613  _transferOwnership(newOwner) */\n      tag_271\n        /* \"@openzeppelin/contracts-upgradeable/access/OwnableUpgradeable.sol\":3604:3612  newOwner */\n      dup2\n        /* \"@openzeppelin/contracts-upgradeable/access/OwnableUpgradeable.sol\":3585:3603  _transferOwnership */\n      tag_178\n        /* \"@openzeppelin/contracts-upgradeable/access/OwnableUpgradeable.sol\":3585:3613  _transferOwnership(newOwner) */\n      jump\t// in\n    tag_271:\n        /* \"@openzeppelin/contracts-upgradeable/access/OwnableUpgradeable.sol\":3405:3620  function transferOwnership(address newOwner) public virtual onlyOwner {... */\n      pop\n      jump\t// out\n        /* \"contracts/QuailFinance.sol\":8455:8679  function deductRevenue(uint256 _amount) private returns (uint256 netAmount) {... */\n    tag_124:\n        /* \"contracts/QuailFinance.sol\":8512:8529  uint256 netAmount */\n      0x00\n        /* \"contracts/QuailFinance.sol\":8541:8556  uint256 revenue */\n      dup1\n        /* \"contracts/QuailFinance.sol\":8569:8572  100 */\n      0x64\n        /* \"contracts/QuailFinance.sol\":8559:8566  _amount */\n      dup4\n        /* \"contracts/QuailFinance.sol\":8559:8572  _amount / 100 */\n      tag_273\n      swap2\n      swap1\n      tag_265\n      jump\t// in\n    tag_273:\n        /* \"contracts/QuailFinance.sol\":8541:8572  uint256 revenue = _amount / 100 */\n      swap1\n      pop\n        /* \"contracts/QuailFinance.sol\":8604:8611  revenue */\n      dup1\n        /* \"contracts/QuailFinance.sol\":8594:8601  _amount */\n      dup4\n        /* \"contracts/QuailFinance.sol\":8594:8611  _amount - revenue */\n      tag_274\n      swap2\n      swap1\n      tag_166\n      jump\t// in\n    tag_274:\n        /* \"contracts/QuailFinance.sol\":8582:8611  netAmount = _amount - revenue */\n      swap2\n      pop\n        /* \"contracts/QuailFinance.sol\":8637:8644  revenue */\n      dup1\n        /* \"contracts/QuailFinance.sol\":8621:8633  totalRevenue */\n      0x02\n      0x00\n        /* \"contracts/QuailFinance.sol\":8621:8644  totalRevenue += revenue */\n      dup3\n      dup3\n      sload\n      tag_275\n      swap2\n      swap1\n      tag_239\n      jump\t// in\n    tag_275:\n      swap3\n      pop\n      pop\n      dup2\n      swap1\n      sstore\n      pop\n        /* \"contracts/QuailFinance.sol\":8654:8672  return (netAmount) */\n      pop\n        /* \"contracts/QuailFinance.sol\":8455:8679  function deductRevenue(uint256 _amount) private returns (uint256 netAmount) {... */\n      swap2\n      swap1\n      pop\n      jump\t// out\n        /* \"@openzeppelin/contracts-upgradeable/access/OwnableUpgradeable.sol\":2658:2820  function _checkOwner() internal view virtual {... */\n    tag_142:\n        /* \"@openzeppelin/contracts-upgradeable/access/OwnableUpgradeable.sol\":2728:2740  _msgSender() */\n      tag_277\n        /* \"@openzeppelin/contracts-upgradeable/access/OwnableUpgradeable.sol\":2728:2738  _msgSender */\n      tag_278\n        /* \"@openzeppelin/contracts-upgradeable/access/OwnableUpgradeable.sol\":2728:2740  _msgSender() */\n      jump\t// in\n    tag_277:\n        /* \"@openzeppelin/contracts-upgradeable/access/OwnableUpgradeable.sol\":2717:2740  owner() != _msgSender() */\n      0xffffffffffffffffffffffffffffffffffffffff\n      and\n        /* \"@openzeppelin/contracts-upgradeable/access/OwnableUpgradeable.sol\":2717:2724  owner() */\n      tag_279\n        /* \"@openzeppelin/contracts-upgradeable/access/OwnableUpgradeable.sol\":2717:2722  owner */\n      tag_79\n        /* \"@openzeppelin/contracts-upgradeable/access/OwnableUpgradeable.sol\":2717:2724  owner() */\n      jump\t// in\n    tag_279:\n        /* \"@openzeppelin/contracts-upgradeable/access/OwnableUpgradeable.sol\":2717:2740  owner() != _msgSender() */\n      0xffffffffffffffffffffffffffffffffffffffff\n      and\n      eq\n        /* \"@openzeppelin/contracts-upgradeable/access/OwnableUpgradeable.sol\":2713:2814  if (owner() != _msgSender()) {... */\n      tag_280\n      jumpi\n        /* \"@openzeppelin/contracts-upgradeable/access/OwnableUpgradeable.sol\":2790:2802  _msgSender() */\n      tag_281\n        /* \"@openzeppelin/contracts-upgradeable/access/OwnableUpgradeable.sol\":2790:2800  _msgSender */\n      tag_278\n        /* \"@openzeppelin/contracts-upgradeable/access/OwnableUpgradeable.sol\":2790:2802  _msgSender() */\n      jump\t// in\n    tag_281:\n        /* \"@openzeppelin/contracts-upgradeable/access/OwnableUpgradeable.sol\":2763:2803  OwnableUnauthorizedAccount(_msgSender()) */\n      mload(0x40)\n      0x118cdaa700000000000000000000000000000000000000000000000000000000\n      dup2\n      mstore\n      0x04\n      add\n      tag_282\n      swap2\n      swap1\n      tag_81\n      jump\t// in\n    tag_282:\n      mload(0x40)\n      dup1\n      swap2\n      sub\n      swap1\n      revert\n        /* \"@openzeppelin/contracts-upgradeable/access/OwnableUpgradeable.sol\":2713:2814  if (owner() != _msgSender()) {... */\n    tag_280:\n        /* \"@openzeppelin/contracts-upgradeable/access/OwnableUpgradeable.sol\":2658:2820  function _checkOwner() internal view virtual {... */\n      jump\t// out\n        /* \"@openzeppelin/contracts/utils/cryptography/MerkleProof.sol\":1265:1419  function verify(bytes32[] memory proof, bytes32 root, bytes32 leaf) internal pure returns (bool) {... */\n    tag_158:\n        /* \"@openzeppelin/contracts/utils/cryptography/MerkleProof.sol\":1356:1360  bool */\n      0x00\n        /* \"@openzeppelin/contracts/utils/cryptography/MerkleProof.sol\":1408:1412  root */\n      dup3\n        /* \"@openzeppelin/contracts/utils/cryptography/MerkleProof.sol\":1379:1404  processProof(proof, leaf) */\n      tag_284\n        /* \"@openzeppelin/contracts/utils/cryptography/MerkleProof.sol\":1392:1397  proof */\n      dup6\n        /* \"@openzeppelin/contracts/utils/cryptography/MerkleProof.sol\":1399:1403  leaf */\n      dup5\n        /* \"@openzeppelin/contracts/utils/cryptography/MerkleProof.sol\":1379:1391  processProof */\n      tag_285\n        /* \"@openzeppelin/contracts/utils/cryptography/MerkleProof.sol\":1379:1404  processProof(proof, leaf) */\n      jump\t// in\n    tag_284:\n        /* \"@openzeppelin/contracts/utils/cryptography/MerkleProof.sol\":1379:1412  processProof(proof, leaf) == root */\n      eq\n        /* \"@openzeppelin/contracts/utils/cryptography/MerkleProof.sol\":1372:1412  return processProof(proof, leaf) == root */\n      swap1\n      pop\n        /* \"@openzeppelin/contracts/utils/cryptography/MerkleProof.sol\":1265:1419  function verify(bytes32[] memory proof, bytes32 root, bytes32 leaf) internal pure returns (bool) {... */\n      swap4\n      swap3\n      pop\n      pop\n      pop\n      jump\t// out\n        /* \"@openzeppelin/contracts-upgradeable/access/OwnableUpgradeable.sol\":3774:4022  function _transferOwnership(address newOwner) internal virtual {... */\n    tag_178:\n        /* \"@openzeppelin/contracts-upgradeable/access/OwnableUpgradeable.sol\":3847:3871  OwnableStorage storage $ */\n      0x00\n        /* \"@openzeppelin/contracts-upgradeable/access/OwnableUpgradeable.sol\":3874:3894  _getOwnableStorage() */\n      tag_287\n        /* \"@openzeppelin/contracts-upgradeable/access/OwnableUpgradeable.sol\":3874:3892  _getOwnableStorage */\n      tag_227\n        /* \"@openzeppelin/contracts-upgradeable/access/OwnableUpgradeable.sol\":3874:3894  _getOwnableStorage() */\n      jump\t// in\n    tag_287:\n        /* \"@openzeppelin/contracts-upgradeable/access/OwnableUpgradeable.sol\":3847:3894  OwnableStorage storage $ = _getOwnableStorage() */\n      swap1\n      pop\n        /* \"@openzeppelin/contracts-upgradeable/access/OwnableUpgradeable.sol\":3904:3920  address oldOwner */\n      0x00\n        /* \"@openzeppelin/contracts-upgradeable/access/OwnableUpgradeable.sol\":3923:3924  $ */\n      dup2\n        /* \"@openzeppelin/contracts-upgradeable/access/OwnableUpgradeable.sol\":3923:3931  $._owner */\n      0x00\n      add\n      0x00\n      swap1\n      sload\n      swap1\n      0x0100\n      exp\n      swap1\n      div\n      0xffffffffffffffffffffffffffffffffffffffff\n      and\n        /* \"@openzeppelin/contracts-upgradeable/access/OwnableUpgradeable.sol\":3904:3931  address oldOwner = $._owner */\n      swap1\n      pop\n        /* \"@openzeppelin/contracts-upgradeable/access/OwnableUpgradeable.sol\":3952:3960  newOwner */\n      dup3\n        /* \"@openzeppelin/contracts-upgradeable/access/OwnableUpgradeable.sol\":3941:3942  $ */\n      dup3\n        /* \"@openzeppelin/contracts-upgradeable/access/OwnableUpgradeable.sol\":3941:3949  $._owner */\n      0x00\n      add\n      0x00\n        /* \"@openzeppelin/contracts-upgradeable/access/OwnableUpgradeable.sol\":3941:3960  $._owner = newOwner */\n      0x0100\n      exp\n      dup2\n      sload\n      dup2\n      0xffffffffffffffffffffffffffffffffffffffff\n      mul\n      not\n      and\n      swap1\n      dup4\n      0xffffffffffffffffffffffffffffffffffffffff\n      and\n      mul\n      or\n      swap1\n      sstore\n      pop\n        /* \"@openzeppelin/contracts-upgradeable/access/OwnableUpgradeable.sol\":4006:4014  newOwner */\n      dup3\n        /* \"@openzeppelin/contracts-upgradeable/access/OwnableUpgradeable.sol\":3975:4015  OwnershipTransferred(oldOwner, newOwner) */\n      0xffffffffffffffffffffffffffffffffffffffff\n      and\n        /* \"@openzeppelin/contracts-upgradeable/access/OwnableUpgradeable.sol\":3996:4004  oldOwner */\n      dup2\n        /* \"@openzeppelin/contracts-upgradeable/access/OwnableUpgradeable.sol\":3975:4015  OwnershipTransferred(oldOwner, newOwner) */\n      0xffffffffffffffffffffffffffffffffffffffff\n      and\n      0x8be0079c531659141344cd1fd0a4f28419497f9722a3daafe3b4186f6b6457e0\n      mload(0x40)\n      mload(0x40)\n      dup1\n      swap2\n      sub\n      swap1\n      log3\n        /* \"@openzeppelin/contracts-upgradeable/access/OwnableUpgradeable.sol\":3837:4022  {... */\n      pop\n      pop\n        /* \"@openzeppelin/contracts-upgradeable/access/OwnableUpgradeable.sol\":3774:4022  function _transferOwnership(address newOwner) internal virtual {... */\n      pop\n      jump\t// out\n        /* \"@openzeppelin/contracts-upgradeable/proxy/utils/Initializable.sol\":8737:8907  function _getInitializableStorage() private pure returns (InitializableStorage storage $) {... */\n    tag_192:\n        /* \"@openzeppelin/contracts-upgradeable/proxy/utils/Initializable.sol\":8795:8825  InitializableStorage storage $ */\n      0x00\n        /* \"@openzeppelin/contracts-upgradeable/proxy/utils/Initializable.sol\":8870:8891  INITIALIZABLE_STORAGE */\n      0xf0c57e16840df040f15088dc2f81fe391c3923bec73e23a9662efc9c229c6a00\n        /* \"@openzeppelin/contracts-upgradeable/proxy/utils/Initializable.sol\":8860:8891  $.slot := INITIALIZABLE_STORAGE */\n      swap1\n      pop\n        /* \"@openzeppelin/contracts-upgradeable/proxy/utils/Initializable.sol\":8737:8907  function _getInitializableStorage() private pure returns (InitializableStorage storage $) {... */\n      swap1\n      jump\t// out\n        /* \"@openzeppelin/contracts-upgradeable/access/OwnableUpgradeable.sol\":1847:1974  function __Ownable_init(address initialOwner) internal onlyInitializing {... */\n    tag_200:\n        /* \"@openzeppelin/contracts-upgradeable/proxy/utils/Initializable.sol\":6931:6951  _checkInitializing() */\n      tag_290\n        /* \"@openzeppelin/contracts-upgradeable/proxy/utils/Initializable.sol\":6931:6949  _checkInitializing */\n      tag_291\n        /* \"@openzeppelin/contracts-upgradeable/proxy/utils/Initializable.sol\":6931:6951  _checkInitializing() */\n      jump\t// in\n    tag_290:\n        /* \"@openzeppelin/contracts-upgradeable/access/OwnableUpgradeable.sol\":1929:1967  __Ownable_init_unchained(initialOwner) */\n      tag_293\n        /* \"@openzeppelin/contracts-upgradeable/access/OwnableUpgradeable.sol\":1954:1966  initialOwner */\n      dup2\n        /* \"@openzeppelin/contracts-upgradeable/access/OwnableUpgradeable.sol\":1929:1953  __Ownable_init_unchained */\n      tag_294\n        /* \"@openzeppelin/contracts-upgradeable/access/OwnableUpgradeable.sol\":1929:1967  __Ownable_init_unchained(initialOwner) */\n      jump\t// in\n    tag_293:\n        /* \"@openzeppelin/contracts-upgradeable/access/OwnableUpgradeable.sol\":1847:1974  function __Ownable_init(address initialOwner) internal onlyInitializing {... */\n      pop\n      jump\t// out\n        /* \"@openzeppelin/contracts-upgradeable/access/OwnableUpgradeable.sol\":1192:1351  function _getOwnableStorage() private pure returns (OwnableStorage storage $) {... */\n    tag_227:\n        /* \"@openzeppelin/contracts-upgradeable/access/OwnableUpgradeable.sol\":1244:1268  OwnableStorage storage $ */\n      0x00\n        /* \"@openzeppelin/contracts-upgradeable/access/OwnableUpgradeable.sol\":1313:1335  OwnableStorageLocation */\n      0x9016d09d72d40fdae2fd8ceac6b6234c7706214fd39c1cd1e609a0528c199300\n        /* \"@openzeppelin/contracts-upgradeable/access/OwnableUpgradeable.sol\":1303:1335  $.slot := OwnableStorageLocation */\n      swap1\n      pop\n        /* \"@openzeppelin/contracts-upgradeable/access/OwnableUpgradeable.sol\":1192:1351  function _getOwnableStorage() private pure returns (OwnableStorage storage $) {... */\n      swap1\n      jump\t// out\n        /* \"@openzeppelin/contracts-upgradeable/utils/ContextUpgradeable.sol\":887:983  function _msgSender() internal view virtual returns (address) {... */\n    tag_278:\n        /* \"@openzeppelin/contracts-upgradeable/utils/ContextUpgradeable.sol\":940:947  address */\n      0x00\n        /* \"@openzeppelin/contracts-upgradeable/utils/ContextUpgradeable.sol\":966:976  msg.sender */\n      caller\n        /* \"@openzeppelin/contracts-upgradeable/utils/ContextUpgradeable.sol\":959:976  return msg.sender */\n      swap1\n      pop\n        /* \"@openzeppelin/contracts-upgradeable/utils/ContextUpgradeable.sol\":887:983  function _msgSender() internal view virtual returns (address) {... */\n      swap1\n      jump\t// out\n        /* \"@openzeppelin/contracts/utils/cryptography/MerkleProof.sol\":1967:2257  function processProof(bytes32[] memory proof, bytes32 leaf) internal pure returns (bytes32) {... */\n    tag_285:\n        /* \"@openzeppelin/contracts/utils/cryptography/MerkleProof.sol\":2050:2057  bytes32 */\n      0x00\n        /* \"@openzeppelin/contracts/utils/cryptography/MerkleProof.sol\":2069:2089  bytes32 computedHash */\n      dup1\n        /* \"@openzeppelin/contracts/utils/cryptography/MerkleProof.sol\":2092:2096  leaf */\n      dup3\n        /* \"@openzeppelin/contracts/utils/cryptography/MerkleProof.sol\":2069:2096  bytes32 computedHash = leaf */\n      swap1\n      pop\n        /* \"@openzeppelin/contracts/utils/cryptography/MerkleProof.sol\":2111:2120  uint256 i */\n      0x00\n        /* \"@openzeppelin/contracts/utils/cryptography/MerkleProof.sol\":2106:2222  for (uint256 i = 0; i < proof.length; i++) {... */\n    tag_298:\n        /* \"@openzeppelin/contracts/utils/cryptography/MerkleProof.sol\":2130:2135  proof */\n      dup5\n        /* \"@openzeppelin/contracts/utils/cryptography/MerkleProof.sol\":2130:2142  proof.length */\n      mload\n        /* \"@openzeppelin/contracts/utils/cryptography/MerkleProof.sol\":2126:2127  i */\n      dup2\n        /* \"@openzeppelin/contracts/utils/cryptography/MerkleProof.sol\":2126:2142  i < proof.length */\n      lt\n        /* \"@openzeppelin/contracts/utils/cryptography/MerkleProof.sol\":2106:2222  for (uint256 i = 0; i < proof.length; i++) {... */\n      iszero\n      tag_299\n      jumpi\n        /* \"@openzeppelin/contracts/utils/cryptography/MerkleProof.sol\":2178:2211  _hashPair(computedHash, proof[i]) */\n      tag_301\n        /* \"@openzeppelin/contracts/utils/cryptography/MerkleProof.sol\":2188:2200  computedHash */\n      dup3\n        /* \"@openzeppelin/contracts/utils/cryptography/MerkleProof.sol\":2202:2207  proof */\n      dup7\n        /* \"@openzeppelin/contracts/utils/cryptography/MerkleProof.sol\":2208:2209  i */\n      dup4\n        /* \"@openzeppelin/contracts/utils/cryptography/MerkleProof.sol\":2202:2210  proof[i] */\n      dup2\n      mload\n      dup2\n      lt\n      tag_302\n      jumpi\n      tag_303\n      tag_247\n      jump\t// in\n    tag_303:\n    tag_302:\n      0x20\n      mul\n      0x20\n      add\n      add\n      mload\n        /* \"@openzeppelin/contracts/utils/cryptography/MerkleProof.sol\":2178:2187  _hashPair */\n      tag_304\n        /* \"@openzeppelin/contracts/utils/cryptography/MerkleProof.sol\":2178:2211  _hashPair(computedHash, proof[i]) */\n      jump\t// in\n    tag_301:\n        /* \"@openzeppelin/contracts/utils/cryptography/MerkleProof.sol\":2163:2211  computedHash = _hashPair(computedHash, proof[i]) */\n      swap2\n      pop\n        /* \"@openzeppelin/contracts/utils/cryptography/MerkleProof.sol\":2144:2147  i++ */\n      dup1\n      dup1\n      0x01\n      add\n      swap2\n      pop\n      pop\n        /* \"@openzeppelin/contracts/utils/cryptography/MerkleProof.sol\":2106:2222  for (uint256 i = 0; i < proof.length; i++) {... */\n      jump(tag_298)\n    tag_299:\n      pop\n        /* \"@openzeppelin/contracts/utils/cryptography/MerkleProof.sol\":2238:2250  computedHash */\n      dup1\n        /* \"@openzeppelin/contracts/utils/cryptography/MerkleProof.sol\":2231:2250  return computedHash */\n      swap2\n      pop\n      pop\n        /* \"@openzeppelin/contracts/utils/cryptography/MerkleProof.sol\":1967:2257  function processProof(bytes32[] memory proof, bytes32 leaf) internal pure returns (bytes32) {... */\n      swap3\n      swap2\n      pop\n      pop\n      jump\t// out\n        /* \"@openzeppelin/contracts-upgradeable/proxy/utils/Initializable.sol\":7084:7225  function _checkInitializing() internal view virtual {... */\n    tag_291:\n        /* \"@openzeppelin/contracts-upgradeable/proxy/utils/Initializable.sol\":7151:7168  _isInitializing() */\n      tag_306\n        /* \"@openzeppelin/contracts-upgradeable/proxy/utils/Initializable.sol\":7151:7166  _isInitializing */\n      tag_307\n        /* \"@openzeppelin/contracts-upgradeable/proxy/utils/Initializable.sol\":7151:7168  _isInitializing() */\n      jump\t// in\n    tag_306:\n        /* \"@openzeppelin/contracts-upgradeable/proxy/utils/Initializable.sol\":7146:7219  if (!_isInitializing()) {... */\n      tag_308\n      jumpi\n        /* \"@openzeppelin/contracts-upgradeable/proxy/utils/Initializable.sol\":7191:7208  NotInitializing() */\n      mload(0x40)\n      0xd7e6bcf800000000000000000000000000000000000000000000000000000000\n      dup2\n      mstore\n      0x04\n      add\n      mload(0x40)\n      dup1\n      swap2\n      sub\n      swap1\n      revert\n        /* \"@openzeppelin/contracts-upgradeable/proxy/utils/Initializable.sol\":7146:7219  if (!_isInitializing()) {... */\n    tag_308:\n        /* \"@openzeppelin/contracts-upgradeable/proxy/utils/Initializable.sol\":7084:7225  function _checkInitializing() internal view virtual {... */\n      jump\t// out\n        /* \"@openzeppelin/contracts-upgradeable/access/OwnableUpgradeable.sol\":1980:2215  function __Ownable_init_unchained(address initialOwner) internal onlyInitializing {... */\n    tag_294:\n        /* \"@openzeppelin/contracts-upgradeable/proxy/utils/Initializable.sol\":6931:6951  _checkInitializing() */\n      tag_310\n        /* \"@openzeppelin/contracts-upgradeable/proxy/utils/Initializable.sol\":6931:6949  _checkInitializing */\n      tag_291\n        /* \"@openzeppelin/contracts-upgradeable/proxy/utils/Initializable.sol\":6931:6951  _checkInitializing() */\n      jump\t// in\n    tag_310:\n        /* \"@openzeppelin/contracts-upgradeable/access/OwnableUpgradeable.sol\":2100:2101  0 */\n      0x00\n        /* \"@openzeppelin/contracts-upgradeable/access/OwnableUpgradeable.sol\":2076:2102  initialOwner == address(0) */\n      0xffffffffffffffffffffffffffffffffffffffff\n      and\n        /* \"@openzeppelin/contracts-upgradeable/access/OwnableUpgradeable.sol\":2076:2088  initialOwner */\n      dup2\n        /* \"@openzeppelin/contracts-upgradeable/access/OwnableUpgradeable.sol\":2076:2102  initialOwner == address(0) */\n      0xffffffffffffffffffffffffffffffffffffffff\n      and\n      sub\n        /* \"@openzeppelin/contracts-upgradeable/access/OwnableUpgradeable.sol\":2072:2167  if (initialOwner == address(0)) {... */\n      tag_312\n      jumpi\n        /* \"@openzeppelin/contracts-upgradeable/access/OwnableUpgradeable.sol\":2153:2154  0 */\n      0x00\n        /* \"@openzeppelin/contracts-upgradeable/access/OwnableUpgradeable.sol\":2125:2156  OwnableInvalidOwner(address(0)) */\n      mload(0x40)\n      0x1e4fbdf700000000000000000000000000000000000000000000000000000000\n      dup2\n      mstore\n      0x04\n      add\n      tag_313\n      swap2\n      swap1\n      tag_81\n      jump\t// in\n    tag_313:\n      mload(0x40)\n      dup1\n      swap2\n      sub\n      swap1\n      revert\n        /* \"@openzeppelin/contracts-upgradeable/access/OwnableUpgradeable.sol\":2072:2167  if (initialOwner == address(0)) {... */\n    tag_312:\n        /* \"@openzeppelin/contracts-upgradeable/access/OwnableUpgradeable.sol\":2176:2208  _transferOwnership(initialOwner) */\n      tag_314\n        /* \"@openzeppelin/contracts-upgradeable/access/OwnableUpgradeable.sol\":2195:2207  initialOwner */\n      dup2\n        /* \"@openzeppelin/contracts-upgradeable/access/OwnableUpgradeable.sol\":2176:2194  _transferOwnership */\n      tag_178\n        /* \"@openzeppelin/contracts-upgradeable/access/OwnableUpgradeable.sol\":2176:2208  _transferOwnership(initialOwner) */\n      jump\t// in\n    tag_314:\n        /* \"@openzeppelin/contracts-upgradeable/access/OwnableUpgradeable.sol\":1980:2215  function __Ownable_init_unchained(address initialOwner) internal onlyInitializing {... */\n      pop\n      jump\t// out\n        /* \"@openzeppelin/contracts/utils/cryptography/MerkleProof.sol\":9229:9376  function _hashPair(bytes32 a, bytes32 b) private pure returns (bytes32) {... */\n    tag_304:\n        /* \"@openzeppelin/contracts/utils/cryptography/MerkleProof.sol\":9292:9299  bytes32 */\n      0x00\n        /* \"@openzeppelin/contracts/utils/cryptography/MerkleProof.sol\":9322:9323  b */\n      dup2\n        /* \"@openzeppelin/contracts/utils/cryptography/MerkleProof.sol\":9318:9319  a */\n      dup4\n        /* \"@openzeppelin/contracts/utils/cryptography/MerkleProof.sol\":9318:9323  a < b */\n      lt\n        /* \"@openzeppelin/contracts/utils/cryptography/MerkleProof.sol\":9318:9369  a < b ? _efficientHash(a, b) : _efficientHash(b, a) */\n      tag_316\n      jumpi\n        /* \"@openzeppelin/contracts/utils/cryptography/MerkleProof.sol\":9349:9369  _efficientHash(b, a) */\n      tag_317\n        /* \"@openzeppelin/contracts/utils/cryptography/MerkleProof.sol\":9364:9365  b */\n      dup3\n        /* \"@openzeppelin/contracts/utils/cryptography/MerkleProof.sol\":9367:9368  a */\n      dup5\n        /* \"@openzeppelin/contracts/utils/cryptography/MerkleProof.sol\":9349:9363  _efficientHash */\n      tag_318\n        /* \"@openzeppelin/contracts/utils/cryptography/MerkleProof.sol\":9349:9369  _efficientHash(b, a) */\n      jump\t// in\n    tag_317:\n        /* \"@openzeppelin/contracts/utils/cryptography/MerkleProof.sol\":9318:9369  a < b ? _efficientHash(a, b) : _efficientHash(b, a) */\n      jump(tag_319)\n    tag_316:\n        /* \"@openzeppelin/contracts/utils/cryptography/MerkleProof.sol\":9326:9346  _efficientHash(a, b) */\n      tag_320\n        /* \"@openzeppelin/contracts/utils/cryptography/MerkleProof.sol\":9341:9342  a */\n      dup4\n        /* \"@openzeppelin/contracts/utils/cryptography/MerkleProof.sol\":9344:9345  b */\n      dup4\n        /* \"@openzeppelin/contracts/utils/cryptography/MerkleProof.sol\":9326:9340  _efficientHash */\n      tag_318\n        /* \"@openzeppelin/contracts/utils/cryptography/MerkleProof.sol\":9326:9346  _efficientHash(a, b) */\n      jump\t// in\n    tag_320:\n        /* \"@openzeppelin/contracts/utils/cryptography/MerkleProof.sol\":9318:9369  a < b ? _efficientHash(a, b) : _efficientHash(b, a) */\n    tag_319:\n        /* \"@openzeppelin/contracts/utils/cryptography/MerkleProof.sol\":9311:9369  return a < b ? _efficientHash(a, b) : _efficientHash(b, a) */\n      swap1\n      pop\n        /* \"@openzeppelin/contracts/utils/cryptography/MerkleProof.sol\":9229:9376  function _hashPair(bytes32 a, bytes32 b) private pure returns (bytes32) {... */\n      swap3\n      swap2\n      pop\n      pop\n      jump\t// out\n        /* \"@openzeppelin/contracts-upgradeable/proxy/utils/Initializable.sol\":8487:8607  function _isInitializing() internal view returns (bool) {... */\n    tag_307:\n        /* \"@openzeppelin/contracts-upgradeable/proxy/utils/Initializable.sol\":8537:8541  bool */\n      0x00\n        /* \"@openzeppelin/contracts-upgradeable/proxy/utils/Initializable.sol\":8560:8586  _getInitializableStorage() */\n      tag_322\n        /* \"@openzeppelin/contracts-upgradeable/proxy/utils/Initializable.sol\":8560:8584  _getInitializableStorage */\n      tag_192\n        /* \"@openzeppelin/contracts-upgradeable/proxy/utils/Initializable.sol\":8560:8586  _getInitializableStorage() */\n      jump\t// in\n    tag_322:\n        /* \"@openzeppelin/contracts-upgradeable/proxy/utils/Initializable.sol\":8560:8600  _getInitializableStorage()._initializing */\n      0x00\n      add\n      0x08\n      swap1\n      sload\n      swap1\n      0x0100\n      exp\n      swap1\n      div\n      0xff\n      and\n        /* \"@openzeppelin/contracts-upgradeable/proxy/utils/Initializable.sol\":8553:8600  return _getInitializableStorage()._initializing */\n      swap1\n      pop\n        /* \"@openzeppelin/contracts-upgradeable/proxy/utils/Initializable.sol\":8487:8607  function _isInitializing() internal view returns (bool) {... */\n      swap1\n      jump\t// out\n        /* \"@openzeppelin/contracts/utils/cryptography/MerkleProof.sol\":9496:9757  function _efficientHash(bytes32 a, bytes32 b) private pure returns (bytes32 value) {... */\n    tag_318:\n        /* \"@openzeppelin/contracts/utils/cryptography/MerkleProof.sol\":9564:9577  bytes32 value */\n      0x00\n        /* \"@openzeppelin/contracts/utils/cryptography/MerkleProof.sol\":9668:9669  a */\n      dup3\n        /* \"@openzeppelin/contracts/utils/cryptography/MerkleProof.sol\":9662:9666  0x00 */\n      0x00\n        /* \"@openzeppelin/contracts/utils/cryptography/MerkleProof.sol\":9655:9670  mstore(0x00, a) */\n      mstore\n        /* \"@openzeppelin/contracts/utils/cryptography/MerkleProof.sol\":9696:9697  b */\n      dup2\n        /* \"@openzeppelin/contracts/utils/cryptography/MerkleProof.sol\":9690:9694  0x20 */\n      0x20\n        /* \"@openzeppelin/contracts/utils/cryptography/MerkleProof.sol\":9683:9698  mstore(0x20, b) */\n      mstore\n        /* \"@openzeppelin/contracts/utils/cryptography/MerkleProof.sol\":9736:9740  0x40 */\n      0x40\n        /* \"@openzeppelin/contracts/utils/cryptography/MerkleProof.sol\":9730:9734  0x00 */\n      0x00\n        /* \"@openzeppelin/contracts/utils/cryptography/MerkleProof.sol\":9720:9741  keccak256(0x00, 0x40) */\n      keccak256\n        /* \"@openzeppelin/contracts/utils/cryptography/MerkleProof.sol\":9711:9741  value := keccak256(0x00, 0x40) */\n      swap1\n      pop\n        /* \"@openzeppelin/contracts/utils/cryptography/MerkleProof.sol\":9496:9757  function _efficientHash(bytes32 a, bytes32 b) private pure returns (bytes32 value) {... */\n      swap3\n      swap2\n      pop\n      pop\n      jump\t// out\n    tag_137:\n      dup3\n      dup1\n      sload\n      dup3\n      dup3\n      sstore\n      swap1\n      0x00\n      mstore\n      keccak256(0x00, 0x20)\n      swap1\n      dup2\n      add\n      swap3\n      dup3\n      iszero\n      tag_324\n      jumpi\n      swap2\n      0x20\n      mul\n      dup3\n      add\n    tag_325:\n      dup3\n      dup2\n      gt\n      iszero\n      tag_326\n      jumpi\n      dup3\n      mload\n      dup3\n      exp(0x0100, 0x00)\n      dup2\n      sload\n      dup2\n      0xffffffffffffffffffffffffffffffffffffffff\n      mul\n      not\n      and\n      swap1\n      dup4\n      0xffffffffffffffffffffffffffffffffffffffff\n      and\n      mul\n      or\n      swap1\n      sstore\n      pop\n      swap2\n      0x20\n      add\n      swap2\n      swap1\n      0x01\n      add\n      swap1\n      jump(tag_325)\n    tag_326:\n    tag_324:\n      pop\n      swap1\n      pop\n      tag_327\n      swap2\n      swap1\n      tag_328\n      jump\t// in\n    tag_327:\n      pop\n      swap1\n      jump\t// out\n    tag_328:\n    tag_329:\n      dup1\n      dup3\n      gt\n      iszero\n      tag_330\n      jumpi\n      0x00\n      dup2\n      0x00\n      swap1\n      sstore\n      pop\n      0x01\n      add\n      jump(tag_329)\n    tag_330:\n      pop\n      swap1\n      jump\t// out\n        /* \"#utility.yul\":7:82   */\n    tag_331:\n        /* \"#utility.yul\":40:46   */\n      0x00\n        /* \"#utility.yul\":73:75   */\n      0x40\n        /* \"#utility.yul\":67:76   */\n      mload\n        /* \"#utility.yul\":57:76   */\n      swap1\n      pop\n        /* \"#utility.yul\":7:82   */\n      swap1\n      jump\t// out\n        /* \"#utility.yul\":88:205   */\n    tag_332:\n        /* \"#utility.yul\":197:198   */\n      0x00\n        /* \"#utility.yul\":194:195   */\n      dup1\n        /* \"#utility.yul\":187:199   */\n      revert\n        /* \"#utility.yul\":211:328   */\n    tag_333:\n        /* \"#utility.yul\":320:321   */\n      0x00\n        /* \"#utility.yul\":317:318   */\n      dup1\n        /* \"#utility.yul\":310:322   */\n      revert\n        /* \"#utility.yul\":334:451   */\n    tag_334:\n        /* \"#utility.yul\":443:444   */\n      0x00\n        /* \"#utility.yul\":440:441   */\n      dup1\n        /* \"#utility.yul\":433:445   */\n      revert\n        /* \"#utility.yul\":457:574   */\n    tag_335:\n        /* \"#utility.yul\":566:567   */\n      0x00\n        /* \"#utility.yul\":563:564   */\n      dup1\n        /* \"#utility.yul\":556:568   */\n      revert\n        /* \"#utility.yul\":580:682   */\n    tag_336:\n        /* \"#utility.yul\":621:627   */\n      0x00\n        /* \"#utility.yul\":672:674   */\n      0x1f\n        /* \"#utility.yul\":668:675   */\n      not\n        /* \"#utility.yul\":663:665   */\n      0x1f\n        /* \"#utility.yul\":656:661   */\n      dup4\n        /* \"#utility.yul\":652:666   */\n      add\n        /* \"#utility.yul\":648:676   */\n      and\n        /* \"#utility.yul\":638:676   */\n      swap1\n      pop\n        /* \"#utility.yul\":580:682   */\n      swap2\n      swap1\n      pop\n      jump\t// out\n        /* \"#utility.yul\":688:868   */\n    tag_337:\n        /* \"#utility.yul\":736:813   */\n      0x4e487b7100000000000000000000000000000000000000000000000000000000\n        /* \"#utility.yul\":733:734   */\n      0x00\n        /* \"#utility.yul\":726:814   */\n      mstore\n        /* \"#utility.yul\":833:837   */\n      0x41\n        /* \"#utility.yul\":830:831   */\n      0x04\n        /* \"#utility.yul\":823:838   */\n      mstore\n        /* \"#utility.yul\":857:861   */\n      0x24\n        /* \"#utility.yul\":854:855   */\n      0x00\n        /* \"#utility.yul\":847:862   */\n      revert\n        /* \"#utility.yul\":874:1155   */\n    tag_338:\n        /* \"#utility.yul\":957:984   */\n      tag_439\n        /* \"#utility.yul\":979:983   */\n      dup3\n        /* \"#utility.yul\":957:984   */\n      tag_336\n      jump\t// in\n    tag_439:\n        /* \"#utility.yul\":949:955   */\n      dup2\n        /* \"#utility.yul\":945:985   */\n      add\n        /* \"#utility.yul\":1087:1093   */\n      dup2\n        /* \"#utility.yul\":1075:1085   */\n      dup2\n        /* \"#utility.yul\":1072:1094   */\n      lt\n        /* \"#utility.yul\":1051:1069   */\n      0xffffffffffffffff\n        /* \"#utility.yul\":1039:1049   */\n      dup3\n        /* \"#utility.yul\":1036:1070   */\n      gt\n        /* \"#utility.yul\":1033:1095   */\n      or\n        /* \"#utility.yul\":1030:1118   */\n      iszero\n      tag_440\n      jumpi\n        /* \"#utility.yul\":1098:1116   */\n      tag_441\n      tag_337\n      jump\t// in\n    tag_441:\n        /* \"#utility.yul\":1030:1118   */\n    tag_440:\n        /* \"#utility.yul\":1138:1148   */\n      dup1\n        /* \"#utility.yul\":1134:1136   */\n      0x40\n        /* \"#utility.yul\":1127:1149   */\n      mstore\n        /* \"#utility.yul\":917:1155   */\n      pop\n        /* \"#utility.yul\":874:1155   */\n      pop\n      pop\n      jump\t// out\n        /* \"#utility.yul\":1161:1290   */\n    tag_339:\n        /* \"#utility.yul\":1195:1201   */\n      0x00\n        /* \"#utility.yul\":1222:1242   */\n      tag_443\n      tag_331\n      jump\t// in\n    tag_443:\n        /* \"#utility.yul\":1212:1242   */\n      swap1\n      pop\n        /* \"#utility.yul\":1251:1284   */\n      tag_444\n        /* \"#utility.yul\":1279:1283   */\n      dup3\n        /* \"#utility.yul\":1271:1277   */\n      dup3\n        /* \"#utility.yul\":1251:1284   */\n      tag_338\n      jump\t// in\n    tag_444:\n        /* \"#utility.yul\":1161:1290   */\n      swap2\n      swap1\n      pop\n      jump\t// out\n        /* \"#utility.yul\":1296:1604   */\n    tag_340:\n        /* \"#utility.yul\":1358:1362   */\n      0x00\n        /* \"#utility.yul\":1448:1466   */\n      0xffffffffffffffff\n        /* \"#utility.yul\":1440:1446   */\n      dup3\n        /* \"#utility.yul\":1437:1467   */\n      gt\n        /* \"#utility.yul\":1434:1490   */\n      iszero\n      tag_446\n      jumpi\n        /* \"#utility.yul\":1470:1488   */\n      tag_447\n      tag_337\n      jump\t// in\n    tag_447:\n        /* \"#utility.yul\":1434:1490   */\n    tag_446:\n        /* \"#utility.yul\":1508:1537   */\n      tag_448\n        /* \"#utility.yul\":1530:1536   */\n      dup3\n        /* \"#utility.yul\":1508:1537   */\n      tag_336\n      jump\t// in\n    tag_448:\n        /* \"#utility.yul\":1500:1537   */\n      swap1\n      pop\n        /* \"#utility.yul\":1592:1596   */\n      0x20\n        /* \"#utility.yul\":1586:1590   */\n      dup2\n        /* \"#utility.yul\":1582:1597   */\n      add\n        /* \"#utility.yul\":1574:1597   */\n      swap1\n      pop\n        /* \"#utility.yul\":1296:1604   */\n      swap2\n      swap1\n      pop\n      jump\t// out\n        /* \"#utility.yul\":1610:1756   */\n    tag_341:\n        /* \"#utility.yul\":1707:1713   */\n      dup3\n        /* \"#utility.yul\":1702:1705   */\n      dup2\n        /* \"#utility.yul\":1697:1700   */\n      dup4\n        /* \"#utility.yul\":1684:1714   */\n      calldatacopy\n        /* \"#utility.yul\":1748:1749   */\n      0x00\n        /* \"#utility.yul\":1739:1745   */\n      dup4\n        /* \"#utility.yul\":1734:1737   */\n      dup4\n        /* \"#utility.yul\":1730:1746   */\n      add\n        /* \"#utility.yul\":1723:1750   */\n      mstore\n        /* \"#utility.yul\":1610:1756   */\n      pop\n      pop\n      pop\n      jump\t// out\n        /* \"#utility.yul\":1762:2187   */\n    tag_342:\n        /* \"#utility.yul\":1840:1845   */\n      0x00\n        /* \"#utility.yul\":1865:1931   */\n      tag_451\n        /* \"#utility.yul\":1881:1930   */\n      tag_452\n        /* \"#utility.yul\":1923:1929   */\n      dup5\n        /* \"#utility.yul\":1881:1930   */\n      tag_340\n      jump\t// in\n    tag_452:\n        /* \"#utility.yul\":1865:1931   */\n      tag_339\n      jump\t// in\n    tag_451:\n        /* \"#utility.yul\":1856:1931   */\n      swap1\n      pop\n        /* \"#utility.yul\":1954:1960   */\n      dup3\n        /* \"#utility.yul\":1947:1952   */\n      dup2\n        /* \"#utility.yul\":1940:1961   */\n      mstore\n        /* \"#utility.yul\":1992:1996   */\n      0x20\n        /* \"#utility.yul\":1985:1990   */\n      dup2\n        /* \"#utility.yul\":1981:1997   */\n      add\n        /* \"#utility.yul\":2030:2033   */\n      dup5\n        /* \"#utility.yul\":2021:2027   */\n      dup5\n        /* \"#utility.yul\":2016:2019   */\n      dup5\n        /* \"#utility.yul\":2012:2028   */\n      add\n        /* \"#utility.yul\":2009:2034   */\n      gt\n        /* \"#utility.yul\":2006:2118   */\n      iszero\n      tag_453\n      jumpi\n        /* \"#utility.yul\":2037:2116   */\n      tag_454\n      tag_335\n      jump\t// in\n    tag_454:\n        /* \"#utility.yul\":2006:2118   */\n    tag_453:\n        /* \"#utility.yul\":2127:2181   */\n      tag_455\n        /* \"#utility.yul\":2174:2180   */\n      dup5\n        /* \"#utility.yul\":2169:2172   */\n      dup3\n        /* \"#utility.yul\":2164:2167   */\n      dup6\n        /* \"#utility.yul\":2127:2181   */\n      tag_341\n      jump\t// in\n    tag_455:\n        /* \"#utility.yul\":1846:2187   */\n      pop\n        /* \"#utility.yul\":1762:2187   */\n      swap4\n      swap3\n      pop\n      pop\n      pop\n      jump\t// out\n        /* \"#utility.yul\":2207:2547   */\n    tag_343:\n        /* \"#utility.yul\":2263:2268   */\n      0x00\n        /* \"#utility.yul\":2312:2315   */\n      dup3\n        /* \"#utility.yul\":2305:2309   */\n      0x1f\n        /* \"#utility.yul\":2297:2303   */\n      dup4\n        /* \"#utility.yul\":2293:2310   */\n      add\n        /* \"#utility.yul\":2289:2316   */\n      slt\n        /* \"#utility.yul\":2279:2401   */\n      tag_457\n      jumpi\n        /* \"#utility.yul\":2320:2399   */\n      tag_458\n      tag_334\n      jump\t// in\n    tag_458:\n        /* \"#utility.yul\":2279:2401   */\n    tag_457:\n        /* \"#utility.yul\":2437:2443   */\n      dup2\n        /* \"#utility.yul\":2424:2444   */\n      calldataload\n        /* \"#utility.yul\":2462:2541   */\n      tag_459\n        /* \"#utility.yul\":2537:2540   */\n      dup5\n        /* \"#utility.yul\":2529:2535   */\n      dup3\n        /* \"#utility.yul\":2522:2526   */\n      0x20\n        /* \"#utility.yul\":2514:2520   */\n      dup7\n        /* \"#utility.yul\":2510:2527   */\n      add\n        /* \"#utility.yul\":2462:2541   */\n      tag_342\n      jump\t// in\n    tag_459:\n        /* \"#utility.yul\":2453:2541   */\n      swap2\n      pop\n        /* \"#utility.yul\":2269:2547   */\n      pop\n        /* \"#utility.yul\":2207:2547   */\n      swap3\n      swap2\n      pop\n      pop\n      jump\t// out\n        /* \"#utility.yul\":2553:2630   */\n    tag_344:\n        /* \"#utility.yul\":2590:2597   */\n      0x00\n        /* \"#utility.yul\":2619:2624   */\n      dup2\n        /* \"#utility.yul\":2608:2624   */\n      swap1\n      pop\n        /* \"#utility.yul\":2553:2630   */\n      swap2\n      swap1\n      pop\n      jump\t// out\n        /* \"#utility.yul\":2636:2758   */\n    tag_345:\n        /* \"#utility.yul\":2709:2733   */\n      tag_462\n        /* \"#utility.yul\":2727:2732   */\n      dup2\n        /* \"#utility.yul\":2709:2733   */\n      tag_344\n      jump\t// in\n    tag_462:\n        /* \"#utility.yul\":2702:2707   */\n      dup2\n        /* \"#utility.yul\":2699:2734   */\n      eq\n        /* \"#utility.yul\":2689:2752   */\n      tag_463\n      jumpi\n        /* \"#utility.yul\":2748:2749   */\n      0x00\n        /* \"#utility.yul\":2745:2746   */\n      dup1\n        /* \"#utility.yul\":2738:2750   */\n      revert\n        /* \"#utility.yul\":2689:2752   */\n    tag_463:\n        /* \"#utility.yul\":2636:2758   */\n      pop\n      jump\t// out\n        /* \"#utility.yul\":2764:2903   */\n    tag_346:\n        /* \"#utility.yul\":2810:2815   */\n      0x00\n        /* \"#utility.yul\":2848:2854   */\n      dup2\n        /* \"#utility.yul\":2835:2855   */\n      calldataload\n        /* \"#utility.yul\":2826:2855   */\n      swap1\n      pop\n        /* \"#utility.yul\":2864:2897   */\n      tag_465\n        /* \"#utility.yul\":2891:2896   */\n      dup2\n        /* \"#utility.yul\":2864:2897   */\n      tag_345\n      jump\t// in\n    tag_465:\n        /* \"#utility.yul\":2764:2903   */\n      swap3\n      swap2\n      pop\n      pop\n      jump\t// out\n        /* \"#utility.yul\":2909:4146   */\n    tag_27:\n        /* \"#utility.yul\":3023:3029   */\n      0x00\n        /* \"#utility.yul\":3031:3037   */\n      dup1\n        /* \"#utility.yul\":3039:3045   */\n      0x00\n        /* \"#utility.yul\":3047:3053   */\n      dup1\n        /* \"#utility.yul\":3055:3061   */\n      0x00\n        /* \"#utility.yul\":3063:3069   */\n      dup1\n        /* \"#utility.yul\":3112:3115   */\n      0xc0\n        /* \"#utility.yul\":3100:3109   */\n      dup8\n        /* \"#utility.yul\":3091:3098   */\n      dup10\n        /* \"#utility.yul\":3087:3110   */\n      sub\n        /* \"#utility.yul\":3083:3116   */\n      slt\n        /* \"#utility.yul\":3080:3200   */\n      iszero\n      tag_467\n      jumpi\n        /* \"#utility.yul\":3119:3198   */\n      tag_468\n      tag_332\n      jump\t// in\n    tag_468:\n        /* \"#utility.yul\":3080:3200   */\n    tag_467:\n        /* \"#utility.yul\":3267:3268   */\n      0x00\n        /* \"#utility.yul\":3256:3265   */\n      dup8\n        /* \"#utility.yul\":3252:3269   */\n      add\n        /* \"#utility.yul\":3239:3270   */\n      calldataload\n        /* \"#utility.yul\":3297:3315   */\n      0xffffffffffffffff\n        /* \"#utility.yul\":3289:3295   */\n      dup2\n        /* \"#utility.yul\":3286:3316   */\n      gt\n        /* \"#utility.yul\":3283:3400   */\n      iszero\n      tag_469\n      jumpi\n        /* \"#utility.yul\":3319:3398   */\n      tag_470\n      tag_333\n      jump\t// in\n    tag_470:\n        /* \"#utility.yul\":3283:3400   */\n    tag_469:\n        /* \"#utility.yul\":3424:3487   */\n      tag_471\n        /* \"#utility.yul\":3479:3486   */\n      dup10\n        /* \"#utility.yul\":3470:3476   */\n      dup3\n        /* \"#utility.yul\":3459:3468   */\n      dup11\n        /* \"#utility.yul\":3455:3477   */\n      add\n        /* \"#utility.yul\":3424:3487   */\n      tag_343\n      jump\t// in\n    tag_471:\n        /* \"#utility.yul\":3414:3487   */\n      swap7\n      pop\n        /* \"#utility.yul\":3210:3497   */\n      pop\n        /* \"#utility.yul\":3536:3538   */\n      0x20\n        /* \"#utility.yul\":3562:3615   */\n      tag_472\n        /* \"#utility.yul\":3607:3614   */\n      dup10\n        /* \"#utility.yul\":3598:3604   */\n      dup3\n        /* \"#utility.yul\":3587:3596   */\n      dup11\n        /* \"#utility.yul\":3583:3605   */\n      add\n        /* \"#utility.yul\":3562:3615   */\n      tag_346\n      jump\t// in\n    tag_472:\n        /* \"#utility.yul\":3552:3615   */\n      swap6\n      pop\n        /* \"#utility.yul\":3507:3625   */\n      pop\n        /* \"#utility.yul\":3664:3666   */\n      0x40\n        /* \"#utility.yul\":3690:3743   */\n      tag_473\n        /* \"#utility.yul\":3735:3742   */\n      dup10\n        /* \"#utility.yul\":3726:3732   */\n      dup3\n        /* \"#utility.yul\":3715:3724   */\n      dup11\n        /* \"#utility.yul\":3711:3733   */\n      add\n        /* \"#utility.yul\":3690:3743   */\n      tag_346\n      jump\t// in\n    tag_473:\n        /* \"#utility.yul\":3680:3743   */\n      swap5\n      pop\n        /* \"#utility.yul\":3635:3753   */\n      pop\n        /* \"#utility.yul\":3792:3794   */\n      0x60\n        /* \"#utility.yul\":3818:3871   */\n      tag_474\n        /* \"#utility.yul\":3863:3870   */\n      dup10\n        /* \"#utility.yul\":3854:3860   */\n      dup3\n        /* \"#utility.yul\":3843:3852   */\n      dup11\n        /* \"#utility.yul\":3839:3861   */\n      add\n        /* \"#utility.yul\":3818:3871   */\n      tag_346\n      jump\t// in\n    tag_474:\n        /* \"#utility.yul\":3808:3871   */\n      swap4\n      pop\n        /* \"#utility.yul\":3763:3881   */\n      pop\n        /* \"#utility.yul\":3920:3923   */\n      0x80\n        /* \"#utility.yul\":3947:4000   */\n      tag_475\n        /* \"#utility.yul\":3992:3999   */\n      dup10\n        /* \"#utility.yul\":3983:3989   */\n      dup3\n        /* \"#utility.yul\":3972:3981   */\n      dup11\n        /* \"#utility.yul\":3968:3990   */\n      add\n        /* \"#utility.yul\":3947:4000   */\n      tag_346\n      jump\t// in\n    tag_475:\n        /* \"#utility.yul\":3937:4000   */\n      swap3\n      pop\n        /* \"#utility.yul\":3891:4010   */\n      pop\n        /* \"#utility.yul\":4049:4052   */\n      0xa0\n        /* \"#utility.yul\":4076:4129   */\n      tag_476\n        /* \"#utility.yul\":4121:4128   */\n      dup10\n        /* \"#utility.yul\":4112:4118   */\n      dup3\n        /* \"#utility.yul\":4101:4110   */\n      dup11\n        /* \"#utility.yul\":4097:4119   */\n      add\n        /* \"#utility.yul\":4076:4129   */\n      tag_346\n      jump\t// in\n    tag_476:\n        /* \"#utility.yul\":4066:4129   */\n      swap2\n      pop\n        /* \"#utility.yul\":4020:4139   */\n      pop\n        /* \"#utility.yul\":2909:4146   */\n      swap3\n      swap6\n      pop\n      swap3\n      swap6\n      pop\n      swap3\n      swap6\n      jump\t// out\n        /* \"#utility.yul\":4152:4229   */\n    tag_347:\n        /* \"#utility.yul\":4189:4196   */\n      0x00\n        /* \"#utility.yul\":4218:4223   */\n      dup2\n        /* \"#utility.yul\":4207:4223   */\n      swap1\n      pop\n        /* \"#utility.yul\":4152:4229   */\n      swap2\n      swap1\n      pop\n      jump\t// out\n        /* \"#utility.yul\":4235:4353   */\n    tag_348:\n        /* \"#utility.yul\":4322:4346   */\n      tag_479\n        /* \"#utility.yul\":4340:4345   */\n      dup2\n        /* \"#utility.yul\":4322:4346   */\n      tag_347\n      jump\t// in\n    tag_479:\n        /* \"#utility.yul\":4317:4320   */\n      dup3\n        /* \"#utility.yul\":4310:4347   */\n      mstore\n        /* \"#utility.yul\":4235:4353   */\n      pop\n      pop\n      jump\t// out\n        /* \"#utility.yul\":4359:4581   */\n    tag_33:\n        /* \"#utility.yul\":4452:4456   */\n      0x00\n        /* \"#utility.yul\":4490:4492   */\n      0x20\n        /* \"#utility.yul\":4479:4488   */\n      dup3\n        /* \"#utility.yul\":4475:4493   */\n      add\n        /* \"#utility.yul\":4467:4493   */\n      swap1\n      pop\n        /* \"#utility.yul\":4503:4574   */\n      tag_481\n        /* \"#utility.yul\":4571:4572   */\n      0x00\n        /* \"#utility.yul\":4560:4569   */\n      dup4\n        /* \"#utility.yul\":4556:4573   */\n      add\n        /* \"#utility.yul\":4547:4553   */\n      dup5\n        /* \"#utility.yul\":4503:4574   */\n      tag_348\n      jump\t// in\n    tag_481:\n        /* \"#utility.yul\":4359:4581   */\n      swap3\n      swap2\n      pop\n      pop\n      jump\t// out\n        /* \"#utility.yul\":4587:4713   */\n    tag_349:\n        /* \"#utility.yul\":4624:4631   */\n      0x00\n        /* \"#utility.yul\":4664:4706   */\n      0xffffffffffffffffffffffffffffffffffffffff\n        /* \"#utility.yul\":4657:4662   */\n      dup3\n        /* \"#utility.yul\":4653:4707   */\n      and\n        /* \"#utility.yul\":4642:4707   */\n      swap1\n      pop\n        /* \"#utility.yul\":4587:4713   */\n      swap2\n      swap1\n      pop\n      jump\t// out\n        /* \"#utility.yul\":4719:4779   */\n    tag_350:\n        /* \"#utility.yul\":4747:4750   */\n      0x00\n        /* \"#utility.yul\":4768:4773   */\n      dup2\n        /* \"#utility.yul\":4761:4773   */\n      swap1\n      pop\n        /* \"#utility.yul\":4719:4779   */\n      swap2\n      swap1\n      pop\n      jump\t// out\n        /* \"#utility.yul\":4785:4927   */\n    tag_351:\n        /* \"#utility.yul\":4835:4844   */\n      0x00\n        /* \"#utility.yul\":4868:4921   */\n      tag_485\n        /* \"#utility.yul\":4886:4920   */\n      tag_486\n        /* \"#utility.yul\":4895:4919   */\n      tag_487\n        /* \"#utility.yul\":4913:4918   */\n      dup5\n        /* \"#utility.yul\":4895:4919   */\n      tag_349\n      jump\t// in\n    tag_487:\n        /* \"#utility.yul\":4886:4920   */\n      tag_350\n      jump\t// in\n    tag_486:\n        /* \"#utility.yul\":4868:4921   */\n      tag_349\n      jump\t// in\n    tag_485:\n        /* \"#utility.yul\":4855:4921   */\n      swap1\n      pop\n        /* \"#utility.yul\":4785:4927   */\n      swap2\n      swap1\n      pop\n      jump\t// out\n        /* \"#utility.yul\":4933:5059   */\n    tag_352:\n        /* \"#utility.yul\":4983:4992   */\n      0x00\n        /* \"#utility.yul\":5016:5053   */\n      tag_489\n        /* \"#utility.yul\":5047:5052   */\n      dup3\n        /* \"#utility.yul\":5016:5053   */\n      tag_351\n      jump\t// in\n    tag_489:\n        /* \"#utility.yul\":5003:5053   */\n      swap1\n      pop\n        /* \"#utility.yul\":4933:5059   */\n      swap2\n      swap1\n      pop\n      jump\t// out\n        /* \"#utility.yul\":5065:5214   */\n    tag_353:\n        /* \"#utility.yul\":5138:5147   */\n      0x00\n        /* \"#utility.yul\":5171:5208   */\n      tag_491\n        /* \"#utility.yul\":5202:5207   */\n      dup3\n        /* \"#utility.yul\":5171:5208   */\n      tag_352\n      jump\t// in\n    tag_491:\n        /* \"#utility.yul\":5158:5208   */\n      swap1\n      pop\n        /* \"#utility.yul\":5065:5214   */\n      swap2\n      swap1\n      pop\n      jump\t// out\n        /* \"#utility.yul\":5220:5397   */\n    tag_354:\n        /* \"#utility.yul\":5330:5390   */\n      tag_493\n        /* \"#utility.yul\":5384:5389   */\n      dup2\n        /* \"#utility.yul\":5330:5390   */\n      tag_353\n      jump\t// in\n    tag_493:\n        /* \"#utility.yul\":5325:5328   */\n      dup3\n        /* \"#utility.yul\":5318:5391   */\n      mstore\n        /* \"#utility.yul\":5220:5397   */\n      pop\n      pop\n      jump\t// out\n        /* \"#utility.yul\":5403:5671   */\n    tag_38:\n        /* \"#utility.yul\":5519:5523   */\n      0x00\n        /* \"#utility.yul\":5557:5559   */\n      0x20\n        /* \"#utility.yul\":5546:5555   */\n      dup3\n        /* \"#utility.yul\":5542:5560   */\n      add\n        /* \"#utility.yul\":5534:5560   */\n      swap1\n      pop\n        /* \"#utility.yul\":5570:5664   */\n      tag_495\n        /* \"#utility.yul\":5661:5662   */\n      0x00\n        /* \"#utility.yul\":5650:5659   */\n      dup4\n        /* \"#utility.yul\":5646:5663   */\n      add\n        /* \"#utility.yul\":5637:5643   */\n      dup5\n        /* \"#utility.yul\":5570:5664   */\n      tag_354\n      jump\t// in\n    tag_495:\n        /* \"#utility.yul\":5403:5671   */\n      swap3\n      swap2\n      pop\n      pop\n      jump\t// out\n        /* \"#utility.yul\":5677:5817   */\n    tag_355:\n        /* \"#utility.yul\":5741:5750   */\n      0x00\n        /* \"#utility.yul\":5774:5811   */\n      tag_497\n        /* \"#utility.yul\":5805:5810   */\n      dup3\n        /* \"#utility.yul\":5774:5811   */\n      tag_352\n      jump\t// in\n    tag_497:\n        /* \"#utility.yul\":5761:5811   */\n      swap1\n      pop\n        /* \"#utility.yul\":5677:5817   */\n      swap2\n      swap1\n      pop\n      jump\t// out\n        /* \"#utility.yul\":5823:5982   */\n    tag_356:\n        /* \"#utility.yul\":5924:5975   */\n      tag_499\n        /* \"#utility.yul\":5969:5974   */\n      dup2\n        /* \"#utility.yul\":5924:5975   */\n      tag_355\n      jump\t// in\n    tag_499:\n        /* \"#utility.yul\":5919:5922   */\n      dup3\n        /* \"#utility.yul\":5912:5976   */\n      mstore\n        /* \"#utility.yul\":5823:5982   */\n      pop\n      pop\n      jump\t// out\n        /* \"#utility.yul\":5988:6238   */\n    tag_46:\n        /* \"#utility.yul\":6095:6099   */\n      0x00\n        /* \"#utility.yul\":6133:6135   */\n      0x20\n        /* \"#utility.yul\":6122:6131   */\n      dup3\n        /* \"#utility.yul\":6118:6136   */\n      add\n        /* \"#utility.yul\":6110:6136   */\n      swap1\n      pop\n        /* \"#utility.yul\":6146:6231   */\n      tag_501\n        /* \"#utility.yul\":6228:6229   */\n      0x00\n        /* \"#utility.yul\":6217:6226   */\n      dup4\n        /* \"#utility.yul\":6213:6230   */\n      add\n        /* \"#utility.yul\":6204:6210   */\n      dup5\n        /* \"#utility.yul\":6146:6231   */\n      tag_356\n      jump\t// in\n    tag_501:\n        /* \"#utility.yul\":5988:6238   */\n      swap3\n      swap2\n      pop\n      pop\n      jump\t// out\n        /* \"#utility.yul\":6244:6361   */\n    tag_357:\n        /* \"#utility.yul\":6353:6354   */\n      0x00\n        /* \"#utility.yul\":6350:6351   */\n      dup1\n        /* \"#utility.yul\":6343:6355   */\n      revert\n        /* \"#utility.yul\":6367:6484   */\n    tag_358:\n        /* \"#utility.yul\":6476:6477   */\n      0x00\n        /* \"#utility.yul\":6473:6474   */\n      dup1\n        /* \"#utility.yul\":6466:6478   */\n      revert\n        /* \"#utility.yul\":6507:7075   */\n    tag_359:\n        /* \"#utility.yul\":6580:6588   */\n      0x00\n        /* \"#utility.yul\":6590:6596   */\n      dup1\n        /* \"#utility.yul\":6640:6643   */\n      dup4\n        /* \"#utility.yul\":6633:6637   */\n      0x1f\n        /* \"#utility.yul\":6625:6631   */\n      dup5\n        /* \"#utility.yul\":6621:6638   */\n      add\n        /* \"#utility.yul\":6617:6644   */\n      slt\n        /* \"#utility.yul\":6607:6729   */\n      tag_505\n      jumpi\n        /* \"#utility.yul\":6648:6727   */\n      tag_506\n      tag_334\n      jump\t// in\n    tag_506:\n        /* \"#utility.yul\":6607:6729   */\n    tag_505:\n        /* \"#utility.yul\":6761:6767   */\n      dup3\n        /* \"#utility.yul\":6748:6768   */\n      calldataload\n        /* \"#utility.yul\":6738:6768   */\n      swap1\n      pop\n        /* \"#utility.yul\":6791:6809   */\n      0xffffffffffffffff\n        /* \"#utility.yul\":6783:6789   */\n      dup2\n        /* \"#utility.yul\":6780:6810   */\n      gt\n        /* \"#utility.yul\":6777:6894   */\n      iszero\n      tag_507\n      jumpi\n        /* \"#utility.yul\":6813:6892   */\n      tag_508\n      tag_357\n      jump\t// in\n    tag_508:\n        /* \"#utility.yul\":6777:6894   */\n    tag_507:\n        /* \"#utility.yul\":6927:6931   */\n      0x20\n        /* \"#utility.yul\":6919:6925   */\n      dup4\n        /* \"#utility.yul\":6915:6932   */\n      add\n        /* \"#utility.yul\":6903:6932   */\n      swap2\n      pop\n        /* \"#utility.yul\":6981:6984   */\n      dup4\n        /* \"#utility.yul\":6973:6977   */\n      0x20\n        /* \"#utility.yul\":6965:6971   */\n      dup3\n        /* \"#utility.yul\":6961:6978   */\n      mul\n        /* \"#utility.yul\":6951:6959   */\n      dup4\n        /* \"#utility.yul\":6947:6979   */\n      add\n        /* \"#utility.yul\":6944:6985   */\n      gt\n        /* \"#utility.yul\":6941:7069   */\n      iszero\n      tag_509\n      jumpi\n        /* \"#utility.yul\":6988:7067   */\n      tag_510\n      tag_358\n      jump\t// in\n    tag_510:\n        /* \"#utility.yul\":6941:7069   */\n    tag_509:\n        /* \"#utility.yul\":6507:7075   */\n      swap3\n      pop\n      swap3\n      swap1\n      pop\n      jump\t// out\n        /* \"#utility.yul\":7081:7785   */\n    tag_50:\n        /* \"#utility.yul\":7176:7182   */\n      0x00\n        /* \"#utility.yul\":7184:7190   */\n      dup1\n        /* \"#utility.yul\":7192:7198   */\n      0x00\n        /* \"#utility.yul\":7241:7243   */\n      0x40\n        /* \"#utility.yul\":7229:7238   */\n      dup5\n        /* \"#utility.yul\":7220:7227   */\n      dup7\n        /* \"#utility.yul\":7216:7239   */\n      sub\n        /* \"#utility.yul\":7212:7244   */\n      slt\n        /* \"#utility.yul\":7209:7328   */\n      iszero\n      tag_512\n      jumpi\n        /* \"#utility.yul\":7247:7326   */\n      tag_513\n      tag_332\n      jump\t// in\n    tag_513:\n        /* \"#utility.yul\":7209:7328   */\n    tag_512:\n        /* \"#utility.yul\":7367:7368   */\n      0x00\n        /* \"#utility.yul\":7392:7445   */\n      tag_514\n        /* \"#utility.yul\":7437:7444   */\n      dup7\n        /* \"#utility.yul\":7428:7434   */\n      dup3\n        /* \"#utility.yul\":7417:7426   */\n      dup8\n        /* \"#utility.yul\":7413:7435   */\n      add\n        /* \"#utility.yul\":7392:7445   */\n      tag_346\n      jump\t// in\n    tag_514:\n        /* \"#utility.yul\":7382:7445   */\n      swap4\n      pop\n        /* \"#utility.yul\":7338:7455   */\n      pop\n        /* \"#utility.yul\":7522:7524   */\n      0x20\n        /* \"#utility.yul\":7511:7520   */\n      dup5\n        /* \"#utility.yul\":7507:7525   */\n      add\n        /* \"#utility.yul\":7494:7526   */\n      calldataload\n        /* \"#utility.yul\":7553:7571   */\n      0xffffffffffffffff\n        /* \"#utility.yul\":7545:7551   */\n      dup2\n        /* \"#utility.yul\":7542:7572   */\n      gt\n        /* \"#utility.yul\":7539:7656   */\n      iszero\n      tag_515\n      jumpi\n        /* \"#utility.yul\":7575:7654   */\n      tag_516\n      tag_333\n      jump\t// in\n    tag_516:\n        /* \"#utility.yul\":7539:7656   */\n    tag_515:\n        /* \"#utility.yul\":7688:7768   */\n      tag_517\n        /* \"#utility.yul\":7760:7767   */\n      dup7\n        /* \"#utility.yul\":7751:7757   */\n      dup3\n        /* \"#utility.yul\":7740:7749   */\n      dup8\n        /* \"#utility.yul\":7736:7758   */\n      add\n        /* \"#utility.yul\":7688:7768   */\n      tag_359\n      jump\t// in\n    tag_517:\n        /* \"#utility.yul\":7670:7768   */\n      swap3\n      pop\n      swap3\n      pop\n        /* \"#utility.yul\":7465:7778   */\n      pop\n        /* \"#utility.yul\":7081:7785   */\n      swap3\n      pop\n      swap3\n      pop\n      swap3\n      jump\t// out\n        /* \"#utility.yul\":7791:7887   */\n    tag_360:\n        /* \"#utility.yul\":7828:7835   */\n      0x00\n        /* \"#utility.yul\":7857:7881   */\n      tag_519\n        /* \"#utility.yul\":7875:7880   */\n      dup3\n        /* \"#utility.yul\":7857:7881   */\n      tag_349\n      jump\t// in\n    tag_519:\n        /* \"#utility.yul\":7846:7881   */\n      swap1\n      pop\n        /* \"#utility.yul\":7791:7887   */\n      swap2\n      swap1\n      pop\n      jump\t// out\n        /* \"#utility.yul\":7893:8015   */\n    tag_361:\n        /* \"#utility.yul\":7966:7990   */\n      tag_521\n        /* \"#utility.yul\":7984:7989   */\n      dup2\n        /* \"#utility.yul\":7966:7990   */\n      tag_360\n      jump\t// in\n    tag_521:\n        /* \"#utility.yul\":7959:7964   */\n      dup2\n        /* \"#utility.yul\":7956:7991   */\n      eq\n        /* \"#utility.yul\":7946:8009   */\n      tag_522\n      jumpi\n        /* \"#utility.yul\":8005:8006   */\n      0x00\n        /* \"#utility.yul\":8002:8003   */\n      dup1\n        /* \"#utility.yul\":7995:8007   */\n      revert\n        /* \"#utility.yul\":7946:8009   */\n    tag_522:\n        /* \"#utility.yul\":7893:8015   */\n      pop\n      jump\t// out\n        /* \"#utility.yul\":8021:8160   */\n    tag_362:\n        /* \"#utility.yul\":8067:8072   */\n      0x00\n        /* \"#utility.yul\":8105:8111   */\n      dup2\n        /* \"#utility.yul\":8092:8112   */\n      calldataload\n        /* \"#utility.yul\":8083:8112   */\n      swap1\n      pop\n        /* \"#utility.yul\":8121:8154   */\n      tag_524\n        /* \"#utility.yul\":8148:8153   */\n      dup2\n        /* \"#utility.yul\":8121:8154   */\n      tag_361\n      jump\t// in\n    tag_524:\n        /* \"#utility.yul\":8021:8160   */\n      swap3\n      swap2\n      pop\n      pop\n      jump\t// out\n        /* \"#utility.yul\":8166:8495   */\n    tag_58:\n        /* \"#utility.yul\":8225:8231   */\n      0x00\n        /* \"#utility.yul\":8274:8276   */\n      0x20\n        /* \"#utility.yul\":8262:8271   */\n      dup3\n        /* \"#utility.yul\":8253:8260   */\n      dup5\n        /* \"#utility.yul\":8249:8272   */\n      sub\n        /* \"#utility.yul\":8245:8277   */\n      slt\n        /* \"#utility.yul\":8242:8361   */\n      iszero\n      tag_526\n      jumpi\n        /* \"#utility.yul\":8280:8359   */\n      tag_527\n      tag_332\n      jump\t// in\n    tag_527:\n        /* \"#utility.yul\":8242:8361   */\n    tag_526:\n        /* \"#utility.yul\":8400:8401   */\n      0x00\n        /* \"#utility.yul\":8425:8478   */\n      tag_528\n        /* \"#utility.yul\":8470:8477   */\n      dup5\n        /* \"#utility.yul\":8461:8467   */\n      dup3\n        /* \"#utility.yul\":8450:8459   */\n      dup6\n        /* \"#utility.yul\":8446:8468   */\n      add\n        /* \"#utility.yul\":8425:8478   */\n      tag_362\n      jump\t// in\n    tag_528:\n        /* \"#utility.yul\":8415:8478   */\n      swap2\n      pop\n        /* \"#utility.yul\":8371:8488   */\n      pop\n        /* \"#utility.yul\":8166:8495   */\n      swap3\n      swap2\n      pop\n      pop\n      jump\t// out\n        /* \"#utility.yul\":8501:8619   */\n    tag_363:\n        /* \"#utility.yul\":8588:8612   */\n      tag_530\n        /* \"#utility.yul\":8606:8611   */\n      dup2\n        /* \"#utility.yul\":8588:8612   */\n      tag_344\n      jump\t// in\n    tag_530:\n        /* \"#utility.yul\":8583:8586   */\n      dup3\n        /* \"#utility.yul\":8576:8613   */\n      mstore\n        /* \"#utility.yul\":8501:8619   */\n      pop\n      pop\n      jump\t// out\n        /* \"#utility.yul\":8625:8847   */\n    tag_61:\n        /* \"#utility.yul\":8718:8722   */\n      0x00\n        /* \"#utility.yul\":8756:8758   */\n      0x20\n        /* \"#utility.yul\":8745:8754   */\n      dup3\n        /* \"#utility.yul\":8741:8759   */\n      add\n        /* \"#utility.yul\":8733:8759   */\n      swap1\n      pop\n        /* \"#utility.yul\":8769:8840   */\n      tag_532\n        /* \"#utility.yul\":8837:8838   */\n      0x00\n        /* \"#utility.yul\":8826:8835   */\n      dup4\n        /* \"#utility.yul\":8822:8839   */\n      add\n        /* \"#utility.yul\":8813:8819   */\n      dup5\n        /* \"#utility.yul\":8769:8840   */\n      tag_363\n      jump\t// in\n    tag_532:\n        /* \"#utility.yul\":8625:8847   */\n      swap3\n      swap2\n      pop\n      pop\n      jump\t// out\n        /* \"#utility.yul\":8853:8975   */\n    tag_364:\n        /* \"#utility.yul\":8926:8950   */\n      tag_534\n        /* \"#utility.yul\":8944:8949   */\n      dup2\n        /* \"#utility.yul\":8926:8950   */\n      tag_347\n      jump\t// in\n    tag_534:\n        /* \"#utility.yul\":8919:8924   */\n      dup2\n        /* \"#utility.yul\":8916:8951   */\n      eq\n        /* \"#utility.yul\":8906:8969   */\n      tag_535\n      jumpi\n        /* \"#utility.yul\":8965:8966   */\n      0x00\n        /* \"#utility.yul\":8962:8963   */\n      dup1\n        /* \"#utility.yul\":8955:8967   */\n      revert\n        /* \"#utility.yul\":8906:8969   */\n    tag_535:\n        /* \"#utility.yul\":8853:8975   */\n      pop\n      jump\t// out\n        /* \"#utility.yul\":8981:9120   */\n    tag_365:\n        /* \"#utility.yul\":9027:9032   */\n      0x00\n        /* \"#utility.yul\":9065:9071   */\n      dup2\n        /* \"#utility.yul\":9052:9072   */\n      calldataload\n        /* \"#utility.yul\":9043:9072   */\n      swap1\n      pop\n        /* \"#utility.yul\":9081:9114   */\n      tag_537\n        /* \"#utility.yul\":9108:9113   */\n      dup2\n        /* \"#utility.yul\":9081:9114   */\n      tag_364\n      jump\t// in\n    tag_537:\n        /* \"#utility.yul\":8981:9120   */\n      swap3\n      swap2\n      pop\n      pop\n      jump\t// out\n        /* \"#utility.yul\":9126:9455   */\n    tag_68:\n        /* \"#utility.yul\":9185:9191   */\n      0x00\n        /* \"#utility.yul\":9234:9236   */\n      0x20\n        /* \"#utility.yul\":9222:9231   */\n      dup3\n        /* \"#utility.yul\":9213:9220   */\n      dup5\n        /* \"#utility.yul\":9209:9232   */\n      sub\n        /* \"#utility.yul\":9205:9237   */\n      slt\n        /* \"#utility.yul\":9202:9321   */\n      iszero\n      tag_539\n      jumpi\n        /* \"#utility.yul\":9240:9319   */\n      tag_540\n      tag_332\n      jump\t// in\n    tag_540:\n        /* \"#utility.yul\":9202:9321   */\n    tag_539:\n        /* \"#utility.yul\":9360:9361   */\n      0x00\n        /* \"#utility.yul\":9385:9438   */\n      tag_541\n        /* \"#utility.yul\":9430:9437   */\n      dup5\n        /* \"#utility.yul\":9421:9427   */\n      dup3\n        /* \"#utility.yul\":9410:9419   */\n      dup6\n        /* \"#utility.yul\":9406:9428   */\n      add\n        /* \"#utility.yul\":9385:9438   */\n      tag_365\n      jump\t// in\n    tag_541:\n        /* \"#utility.yul\":9375:9438   */\n      swap2\n      pop\n        /* \"#utility.yul\":9331:9448   */\n      pop\n        /* \"#utility.yul\":9126:9455   */\n      swap3\n      swap2\n      pop\n      pop\n      jump\t// out\n        /* \"#utility.yul\":9461:9790   */\n    tag_75:\n        /* \"#utility.yul\":9520:9526   */\n      0x00\n        /* \"#utility.yul\":9569:9571   */\n      0x20\n        /* \"#utility.yul\":9557:9566   */\n      dup3\n        /* \"#utility.yul\":9548:9555   */\n      dup5\n        /* \"#utility.yul\":9544:9567   */\n      sub\n        /* \"#utility.yul\":9540:9572   */\n      slt\n        /* \"#utility.yul\":9537:9656   */\n      iszero\n      tag_543\n      jumpi\n        /* \"#utility.yul\":9575:9654   */\n      tag_544\n      tag_332\n      jump\t// in\n    tag_544:\n        /* \"#utility.yul\":9537:9656   */\n    tag_543:\n        /* \"#utility.yul\":9695:9696   */\n      0x00\n        /* \"#utility.yul\":9720:9773   */\n      tag_545\n        /* \"#utility.yul\":9765:9772   */\n      dup5\n        /* \"#utility.yul\":9756:9762   */\n      dup3\n        /* \"#utility.yul\":9745:9754   */\n      dup6\n        /* \"#utility.yul\":9741:9763   */\n      add\n        /* \"#utility.yul\":9720:9773   */\n      tag_346\n      jump\t// in\n    tag_545:\n        /* \"#utility.yul\":9710:9773   */\n      swap2\n      pop\n        /* \"#utility.yul\":9666:9783   */\n      pop\n        /* \"#utility.yul\":9461:9790   */\n      swap3\n      swap2\n      pop\n      pop\n      jump\t// out\n        /* \"#utility.yul\":9796:9914   */\n    tag_366:\n        /* \"#utility.yul\":9883:9907   */\n      tag_547\n        /* \"#utility.yul\":9901:9906   */\n      dup2\n        /* \"#utility.yul\":9883:9907   */\n      tag_360\n      jump\t// in\n    tag_547:\n        /* \"#utility.yul\":9878:9881   */\n      dup3\n        /* \"#utility.yul\":9871:9908   */\n      mstore\n        /* \"#utility.yul\":9796:9914   */\n      pop\n      pop\n      jump\t// out\n        /* \"#utility.yul\":9920:10142   */\n    tag_81:\n        /* \"#utility.yul\":10013:10017   */\n      0x00\n        /* \"#utility.yul\":10051:10053   */\n      0x20\n        /* \"#utility.yul\":10040:10049   */\n      dup3\n        /* \"#utility.yul\":10036:10054   */\n      add\n        /* \"#utility.yul\":10028:10054   */\n      swap1\n      pop\n        /* \"#utility.yul\":10064:10135   */\n      tag_549\n        /* \"#utility.yul\":10132:10133   */\n      0x00\n        /* \"#utility.yul\":10121:10130   */\n      dup4\n        /* \"#utility.yul\":10117:10134   */\n      add\n        /* \"#utility.yul\":10108:10114   */\n      dup5\n        /* \"#utility.yul\":10064:10135   */\n      tag_366\n      jump\t// in\n    tag_549:\n        /* \"#utility.yul\":9920:10142   */\n      swap3\n      swap2\n      pop\n      pop\n      jump\t// out\n        /* \"#utility.yul\":10148:10289   */\n    tag_367:\n        /* \"#utility.yul\":10213:10222   */\n      0x00\n        /* \"#utility.yul\":10246:10283   */\n      tag_551\n        /* \"#utility.yul\":10277:10282   */\n      dup3\n        /* \"#utility.yul\":10246:10283   */\n      tag_352\n      jump\t// in\n    tag_551:\n        /* \"#utility.yul\":10233:10283   */\n      swap1\n      pop\n        /* \"#utility.yul\":10148:10289   */\n      swap2\n      swap1\n      pop\n      jump\t// out\n        /* \"#utility.yul\":10295:10456   */\n    tag_368:\n        /* \"#utility.yul\":10397:10449   */\n      tag_553\n        /* \"#utility.yul\":10443:10448   */\n      dup2\n        /* \"#utility.yul\":10397:10449   */\n      tag_367\n      jump\t// in\n    tag_553:\n        /* \"#utility.yul\":10392:10395   */\n      dup3\n        /* \"#utility.yul\":10385:10450   */\n      mstore\n        /* \"#utility.yul\":10295:10456   */\n      pop\n      pop\n      jump\t// out\n        /* \"#utility.yul\":10462:10714   */\n    tag_86:\n        /* \"#utility.yul\":10570:10574   */\n      0x00\n        /* \"#utility.yul\":10608:10610   */\n      0x20\n        /* \"#utility.yul\":10597:10606   */\n      dup3\n        /* \"#utility.yul\":10593:10611   */\n      add\n        /* \"#utility.yul\":10585:10611   */\n      swap1\n      pop\n        /* \"#utility.yul\":10621:10707   */\n      tag_555\n        /* \"#utility.yul\":10704:10705   */\n      0x00\n        /* \"#utility.yul\":10693:10702   */\n      dup4\n        /* \"#utility.yul\":10689:10706   */\n      add\n        /* \"#utility.yul\":10680:10686   */\n      dup5\n        /* \"#utility.yul\":10621:10707   */\n      tag_368\n      jump\t// in\n    tag_555:\n        /* \"#utility.yul\":10462:10714   */\n      swap3\n      swap2\n      pop\n      pop\n      jump\t// out\n        /* \"#utility.yul\":10720:10819   */\n    tag_369:\n        /* \"#utility.yul\":10772:10778   */\n      0x00\n        /* \"#utility.yul\":10806:10811   */\n      dup2\n        /* \"#utility.yul\":10800:10812   */\n      mload\n        /* \"#utility.yul\":10790:10812   */\n      swap1\n      pop\n        /* \"#utility.yul\":10720:10819   */\n      swap2\n      swap1\n      pop\n      jump\t// out\n        /* \"#utility.yul\":10825:10994   */\n    tag_370:\n        /* \"#utility.yul\":10909:10920   */\n      0x00\n        /* \"#utility.yul\":10943:10949   */\n      dup3\n        /* \"#utility.yul\":10938:10941   */\n      dup3\n        /* \"#utility.yul\":10931:10950   */\n      mstore\n        /* \"#utility.yul\":10983:10987   */\n      0x20\n        /* \"#utility.yul\":10978:10981   */\n      dup3\n        /* \"#utility.yul\":10974:10988   */\n      add\n        /* \"#utility.yul\":10959:10988   */\n      swap1\n      pop\n        /* \"#utility.yul\":10825:10994   */\n      swap3\n      swap2\n      pop\n      pop\n      jump\t// out\n        /* \"#utility.yul\":11000:11246   */\n    tag_371:\n        /* \"#utility.yul\":11081:11082   */\n      0x00\n        /* \"#utility.yul\":11091:11204   */\n    tag_559:\n        /* \"#utility.yul\":11105:11111   */\n      dup4\n        /* \"#utility.yul\":11102:11103   */\n      dup2\n        /* \"#utility.yul\":11099:11112   */\n      lt\n        /* \"#utility.yul\":11091:11204   */\n      iszero\n      tag_561\n      jumpi\n        /* \"#utility.yul\":11190:11191   */\n      dup1\n        /* \"#utility.yul\":11185:11188   */\n      dup3\n        /* \"#utility.yul\":11181:11192   */\n      add\n        /* \"#utility.yul\":11175:11193   */\n      mload\n        /* \"#utility.yul\":11171:11172   */\n      dup2\n        /* \"#utility.yul\":11166:11169   */\n      dup5\n        /* \"#utility.yul\":11162:11173   */\n      add\n        /* \"#utility.yul\":11155:11194   */\n      mstore\n        /* \"#utility.yul\":11127:11129   */\n      0x20\n        /* \"#utility.yul\":11124:11125   */\n      dup2\n        /* \"#utility.yul\":11120:11130   */\n      add\n        /* \"#utility.yul\":11115:11130   */\n      swap1\n      pop\n        /* \"#utility.yul\":11091:11204   */\n      jump(tag_559)\n    tag_561:\n        /* \"#utility.yul\":11238:11239   */\n      0x00\n        /* \"#utility.yul\":11229:11235   */\n      dup5\n        /* \"#utility.yul\":11224:11227   */\n      dup5\n        /* \"#utility.yul\":11220:11236   */\n      add\n        /* \"#utility.yul\":11213:11240   */\n      mstore\n        /* \"#utility.yul\":11062:11246   */\n      pop\n        /* \"#utility.yul\":11000:11246   */\n      pop\n      pop\n      pop\n      jump\t// out\n        /* \"#utility.yul\":11252:11629   */\n    tag_372:\n        /* \"#utility.yul\":11340:11343   */\n      0x00\n        /* \"#utility.yul\":11368:11407   */\n      tag_563\n        /* \"#utility.yul\":11401:11406   */\n      dup3\n        /* \"#utility.yul\":11368:11407   */\n      tag_369\n      jump\t// in\n    tag_563:\n        /* \"#utility.yul\":11423:11494   */\n      tag_564\n        /* \"#utility.yul\":11487:11493   */\n      dup2\n        /* \"#utility.yul\":11482:11485   */\n      dup6\n        /* \"#utility.yul\":11423:11494   */\n      tag_370\n      jump\t// in\n    tag_564:\n        /* \"#utility.yul\":11416:11494   */\n      swap4\n      pop\n        /* \"#utility.yul\":11503:11568   */\n      tag_565\n        /* \"#utility.yul\":11561:11567   */\n      dup2\n        /* \"#utility.yul\":11556:11559   */\n      dup6\n        /* \"#utility.yul\":11549:11553   */\n      0x20\n        /* \"#utility.yul\":11542:11547   */\n      dup7\n        /* \"#utility.yul\":11538:11554   */\n      add\n        /* \"#utility.yul\":11503:11568   */\n      tag_371\n      jump\t// in\n    tag_565:\n        /* \"#utility.yul\":11593:11622   */\n      tag_566\n        /* \"#utility.yul\":11615:11621   */\n      dup2\n        /* \"#utility.yul\":11593:11622   */\n      tag_336\n      jump\t// in\n    tag_566:\n        /* \"#utility.yul\":11588:11591   */\n      dup5\n        /* \"#utility.yul\":11584:11623   */\n      add\n        /* \"#utility.yul\":11577:11623   */\n      swap2\n      pop\n        /* \"#utility.yul\":11344:11629   */\n      pop\n        /* \"#utility.yul\":11252:11629   */\n      swap3\n      swap2\n      pop\n      pop\n      jump\t// out\n        /* \"#utility.yul\":11635:12834   */\n    tag_96:\n        /* \"#utility.yul\":11972:11976   */\n      0x00\n        /* \"#utility.yul\":12010:12013   */\n      0x0120\n        /* \"#utility.yul\":11999:12008   */\n      dup3\n        /* \"#utility.yul\":11995:12014   */\n      add\n        /* \"#utility.yul\":11987:12014   */\n      swap1\n      pop\n        /* \"#utility.yul\":12060:12069   */\n      dup2\n        /* \"#utility.yul\":12054:12058   */\n      dup2\n        /* \"#utility.yul\":12050:12070   */\n      sub\n        /* \"#utility.yul\":12046:12047   */\n      0x00\n        /* \"#utility.yul\":12035:12044   */\n      dup4\n        /* \"#utility.yul\":12031:12048   */\n      add\n        /* \"#utility.yul\":12024:12071   */\n      mstore\n        /* \"#utility.yul\":12088:12166   */\n      tag_568\n        /* \"#utility.yul\":12161:12165   */\n      dup2\n        /* \"#utility.yul\":12152:12158   */\n      dup13\n        /* \"#utility.yul\":12088:12166   */\n      tag_372\n      jump\t// in\n    tag_568:\n        /* \"#utility.yul\":12080:12166   */\n      swap1\n      pop\n        /* \"#utility.yul\":12176:12248   */\n      tag_569\n        /* \"#utility.yul\":12244:12246   */\n      0x20\n        /* \"#utility.yul\":12233:12242   */\n      dup4\n        /* \"#utility.yul\":12229:12247   */\n      add\n        /* \"#utility.yul\":12220:12226   */\n      dup12\n        /* \"#utility.yul\":12176:12248   */\n      tag_363\n      jump\t// in\n    tag_569:\n        /* \"#utility.yul\":12258:12330   */\n      tag_570\n        /* \"#utility.yul\":12326:12328   */\n      0x40\n        /* \"#utility.yul\":12315:12324   */\n      dup4\n        /* \"#utility.yul\":12311:12329   */\n      add\n        /* \"#utility.yul\":12302:12308   */\n      dup11\n        /* \"#utility.yul\":12258:12330   */\n      tag_363\n      jump\t// in\n    tag_570:\n        /* \"#utility.yul\":12340:12412   */\n      tag_571\n        /* \"#utility.yul\":12408:12410   */\n      0x60\n        /* \"#utility.yul\":12397:12406   */\n      dup4\n        /* \"#utility.yul\":12393:12411   */\n      add\n        /* \"#utility.yul\":12384:12390   */\n      dup10\n        /* \"#utility.yul\":12340:12412   */\n      tag_363\n      jump\t// in\n    tag_571:\n        /* \"#utility.yul\":12422:12495   */\n      tag_572\n        /* \"#utility.yul\":12490:12493   */\n      0x80\n        /* \"#utility.yul\":12479:12488   */\n      dup4\n        /* \"#utility.yul\":12475:12494   */\n      add\n        /* \"#utility.yul\":12466:12472   */\n      dup9\n        /* \"#utility.yul\":12422:12495   */\n      tag_363\n      jump\t// in\n    tag_572:\n        /* \"#utility.yul\":12505:12578   */\n      tag_573\n        /* \"#utility.yul\":12573:12576   */\n      0xa0\n        /* \"#utility.yul\":12562:12571   */\n      dup4\n        /* \"#utility.yul\":12558:12577   */\n      add\n        /* \"#utility.yul\":12549:12555   */\n      dup8\n        /* \"#utility.yul\":12505:12578   */\n      tag_363\n      jump\t// in\n    tag_573:\n        /* \"#utility.yul\":12588:12661   */\n      tag_574\n        /* \"#utility.yul\":12656:12659   */\n      0xc0\n        /* \"#utility.yul\":12645:12654   */\n      dup4\n        /* \"#utility.yul\":12641:12660   */\n      add\n        /* \"#utility.yul\":12632:12638   */\n      dup7\n        /* \"#utility.yul\":12588:12661   */\n      tag_363\n      jump\t// in\n    tag_574:\n        /* \"#utility.yul\":12671:12744   */\n      tag_575\n        /* \"#utility.yul\":12739:12742   */\n      0xe0\n        /* \"#utility.yul\":12728:12737   */\n      dup4\n        /* \"#utility.yul\":12724:12743   */\n      add\n        /* \"#utility.yul\":12715:12721   */\n      dup6\n        /* \"#utility.yul\":12671:12744   */\n      tag_363\n      jump\t// in\n    tag_575:\n        /* \"#utility.yul\":12754:12827   */\n      tag_576\n        /* \"#utility.yul\":12822:12825   */\n      0x0100\n        /* \"#utility.yul\":12811:12820   */\n      dup4\n        /* \"#utility.yul\":12807:12826   */\n      add\n        /* \"#utility.yul\":12798:12804   */\n      dup5\n        /* \"#utility.yul\":12754:12827   */\n      tag_366\n      jump\t// in\n    tag_576:\n        /* \"#utility.yul\":11635:12834   */\n      swap11\n      swap10\n      pop\n      pop\n      pop\n      pop\n      pop\n      pop\n      pop\n      pop\n      pop\n      pop\n      jump\t// out\n        /* \"#utility.yul\":12840:13314   */\n    tag_104:\n        /* \"#utility.yul\":12908:12914   */\n      0x00\n        /* \"#utility.yul\":12916:12922   */\n      dup1\n        /* \"#utility.yul\":12965:12967   */\n      0x40\n        /* \"#utility.yul\":12953:12962   */\n      dup4\n        /* \"#utility.yul\":12944:12951   */\n      dup6\n        /* \"#utility.yul\":12940:12963   */\n      sub\n        /* \"#utility.yul\":12936:12968   */\n      slt\n        /* \"#utility.yul\":12933:13052   */\n      iszero\n      tag_578\n      jumpi\n        /* \"#utility.yul\":12971:13050   */\n      tag_579\n      tag_332\n      jump\t// in\n    tag_579:\n        /* \"#utility.yul\":12933:13052   */\n    tag_578:\n        /* \"#utility.yul\":13091:13092   */\n      0x00\n        /* \"#utility.yul\":13116:13169   */\n      tag_580\n        /* \"#utility.yul\":13161:13168   */\n      dup6\n        /* \"#utility.yul\":13152:13158   */\n      dup3\n        /* \"#utility.yul\":13141:13150   */\n      dup7\n        /* \"#utility.yul\":13137:13159   */\n      add\n        /* \"#utility.yul\":13116:13169   */\n      tag_346\n      jump\t// in\n    tag_580:\n        /* \"#utility.yul\":13106:13169   */\n      swap3\n      pop\n        /* \"#utility.yul\":13062:13179   */\n      pop\n        /* \"#utility.yul\":13218:13220   */\n      0x20\n        /* \"#utility.yul\":13244:13297   */\n      tag_581\n        /* \"#utility.yul\":13289:13296   */\n      dup6\n        /* \"#utility.yul\":13280:13286   */\n      dup3\n        /* \"#utility.yul\":13269:13278   */\n      dup7\n        /* \"#utility.yul\":13265:13287   */\n      add\n        /* \"#utility.yul\":13244:13297   */\n      tag_346\n      jump\t// in\n    tag_581:\n        /* \"#utility.yul\":13234:13297   */\n      swap2\n      pop\n        /* \"#utility.yul\":13189:13307   */\n      pop\n        /* \"#utility.yul\":12840:13314   */\n      swap3\n      pop\n      swap3\n      swap1\n      pop\n      jump\t// out\n        /* \"#utility.yul\":13320:13501   */\n    tag_373:\n        /* \"#utility.yul\":13460:13493   */\n      0x526f746174696f6e206379636c65206d75737420626520706f73697469766500\n        /* \"#utility.yul\":13456:13457   */\n      0x00\n        /* \"#utility.yul\":13448:13454   */\n      dup3\n        /* \"#utility.yul\":13444:13458   */\n      add\n        /* \"#utility.yul\":13437:13494   */\n      mstore\n        /* \"#utility.yul\":13320:13501   */\n      pop\n      jump\t// out\n        /* \"#utility.yul\":13507:13873   */\n    tag_374:\n        /* \"#utility.yul\":13649:13652   */\n      0x00\n        /* \"#utility.yul\":13670:13737   */\n      tag_584\n        /* \"#utility.yul\":13734:13736   */\n      0x1f\n        /* \"#utility.yul\":13729:13732   */\n      dup4\n        /* \"#utility.yul\":13670:13737   */\n      tag_370\n      jump\t// in\n    tag_584:\n        /* \"#utility.yul\":13663:13737   */\n      swap2\n      pop\n        /* \"#utility.yul\":13746:13839   */\n      tag_585\n        /* \"#utility.yul\":13835:13838   */\n      dup3\n        /* \"#utility.yul\":13746:13839   */\n      tag_373\n      jump\t// in\n    tag_585:\n        /* \"#utility.yul\":13864:13866   */\n      0x20\n        /* \"#utility.yul\":13859:13862   */\n      dup3\n        /* \"#utility.yul\":13855:13867   */\n      add\n        /* \"#utility.yul\":13848:13867   */\n      swap1\n      pop\n        /* \"#utility.yul\":13507:13873   */\n      swap2\n      swap1\n      pop\n      jump\t// out\n        /* \"#utility.yul\":13879:14298   */\n    tag_114:\n        /* \"#utility.yul\":14045:14049   */\n      0x00\n        /* \"#utility.yul\":14083:14085   */\n      0x20\n        /* \"#utility.yul\":14072:14081   */\n      dup3\n        /* \"#utility.yul\":14068:14086   */\n      add\n        /* \"#utility.yul\":14060:14086   */\n      swap1\n      pop\n        /* \"#utility.yul\":14132:14141   */\n      dup2\n        /* \"#utility.yul\":14126:14130   */\n      dup2\n        /* \"#utility.yul\":14122:14142   */\n      sub\n        /* \"#utility.yul\":14118:14119   */\n      0x00\n        /* \"#utility.yul\":14107:14116   */\n      dup4\n        /* \"#utility.yul\":14103:14120   */\n      add\n        /* \"#utility.yul\":14096:14143   */\n      mstore\n        /* \"#utility.yul\":14160:14291   */\n      tag_587\n        /* \"#utility.yul\":14286:14290   */\n      dup2\n        /* \"#utility.yul\":14160:14291   */\n      tag_374\n      jump\t// in\n    tag_587:\n        /* \"#utility.yul\":14152:14291   */\n      swap1\n      pop\n        /* \"#utility.yul\":13879:14298   */\n      swap2\n      swap1\n      pop\n      jump\t// out\n        /* \"#utility.yul\":14304:14528   */\n    tag_375:\n        /* \"#utility.yul\":14444:14478   */\n      0x496e7465726573742064656e6f6d696e61746f72206d75737420626520706f73\n        /* \"#utility.yul\":14440:14441   */\n      0x00\n        /* \"#utility.yul\":14432:14438   */\n      dup3\n        /* \"#utility.yul\":14428:14442   */\n      add\n        /* \"#utility.yul\":14421:14479   */\n      mstore\n        /* \"#utility.yul\":14513:14520   */\n      0x6974697665000000000000000000000000000000000000000000000000000000\n        /* \"#utility.yul\":14508:14510   */\n      0x20\n        /* \"#utility.yul\":14500:14506   */\n      dup3\n        /* \"#utility.yul\":14496:14511   */\n      add\n        /* \"#utility.yul\":14489:14521   */\n      mstore\n        /* \"#utility.yul\":14304:14528   */\n      pop\n      jump\t// out\n        /* \"#utility.yul\":14534:14900   */\n    tag_376:\n        /* \"#utility.yul\":14676:14679   */\n      0x00\n        /* \"#utility.yul\":14697:14764   */\n      tag_590\n        /* \"#utility.yul\":14761:14763   */\n      0x25\n        /* \"#utility.yul\":14756:14759   */\n      dup4\n        /* \"#utility.yul\":14697:14764   */\n      tag_370\n      jump\t// in\n    tag_590:\n        /* \"#utility.yul\":14690:14764   */\n      swap2\n      pop\n        /* \"#utility.yul\":14773:14866   */\n      tag_591\n        /* \"#utility.yul\":14862:14865   */\n      dup3\n        /* \"#utility.yul\":14773:14866   */\n      tag_375\n      jump\t// in\n    tag_591:\n        /* \"#utility.yul\":14891:14893   */\n      0x40\n        /* \"#utility.yul\":14886:14889   */\n      dup3\n        /* \"#utility.yul\":14882:14894   */\n      add\n        /* \"#utility.yul\":14875:14894   */\n      swap1\n      pop\n        /* \"#utility.yul\":14534:14900   */\n      swap2\n      swap1\n      pop\n      jump\t// out\n        /* \"#utility.yul\":14906:15325   */\n    tag_117:\n        /* \"#utility.yul\":15072:15076   */\n      0x00\n        /* \"#utility.yul\":15110:15112   */\n      0x20\n        /* \"#utility.yul\":15099:15108   */\n      dup3\n        /* \"#utility.yul\":15095:15113   */\n      add\n        /* \"#utility.yul\":15087:15113   */\n      swap1\n      pop\n        /* \"#utility.yul\":15159:15168   */\n      dup2\n        /* \"#utility.yul\":15153:15157   */\n      dup2\n        /* \"#utility.yul\":15149:15169   */\n      sub\n        /* \"#utility.yul\":15145:15146   */\n      0x00\n        /* \"#utility.yul\":15134:15143   */\n      dup4\n        /* \"#utility.yul\":15130:15147   */\n      add\n        /* \"#utility.yul\":15123:15170   */\n      mstore\n        /* \"#utility.yul\":15187:15318   */\n      tag_593\n        /* \"#utility.yul\":15313:15317   */\n      dup2\n        /* \"#utility.yul\":15187:15318   */\n      tag_376\n      jump\t// in\n    tag_593:\n        /* \"#utility.yul\":15179:15318   */\n      swap1\n      pop\n        /* \"#utility.yul\":14906:15325   */\n      swap2\n      swap1\n      pop\n      jump\t// out\n        /* \"#utility.yul\":15331:15569   */\n    tag_377:\n        /* \"#utility.yul\":15471:15505   */\n      0x4e756d657261746f72206d757374206265206c657373207468616e206f722065\n        /* \"#utility.yul\":15467:15468   */\n      0x00\n        /* \"#utility.yul\":15459:15465   */\n      dup3\n        /* \"#utility.yul\":15455:15469   */\n      add\n        /* \"#utility.yul\":15448:15506   */\n      mstore\n        /* \"#utility.yul\":15540:15561   */\n      0x7175616c20746f2064656e6f6d696e61746f7200000000000000000000000000\n        /* \"#utility.yul\":15535:15537   */\n      0x20\n        /* \"#utility.yul\":15527:15533   */\n      dup3\n        /* \"#utility.yul\":15523:15538   */\n      add\n        /* \"#utility.yul\":15516:15562   */\n      mstore\n        /* \"#utility.yul\":15331:15569   */\n      pop\n      jump\t// out\n        /* \"#utility.yul\":15575:15941   */\n    tag_378:\n        /* \"#utility.yul\":15717:15720   */\n      0x00\n        /* \"#utility.yul\":15738:15805   */\n      tag_596\n        /* \"#utility.yul\":15802:15804   */\n      0x33\n        /* \"#utility.yul\":15797:15800   */\n      dup4\n        /* \"#utility.yul\":15738:15805   */\n      tag_370\n      jump\t// in\n    tag_596:\n        /* \"#utility.yul\":15731:15805   */\n      swap2\n      pop\n        /* \"#utility.yul\":15814:15907   */\n      tag_597\n        /* \"#utility.yul\":15903:15906   */\n      dup3\n        /* \"#utility.yul\":15814:15907   */\n      tag_377\n      jump\t// in\n    tag_597:\n        /* \"#utility.yul\":15932:15934   */\n      0x40\n        /* \"#utility.yul\":15927:15930   */\n      dup3\n        /* \"#utility.yul\":15923:15935   */\n      add\n        /* \"#utility.yul\":15916:15935   */\n      swap1\n      pop\n        /* \"#utility.yul\":15575:15941   */\n      swap2\n      swap1\n      pop\n      jump\t// out\n        /* \"#utility.yul\":15947:16366   */\n    tag_120:\n        /* \"#utility.yul\":16113:16117   */\n      0x00\n        /* \"#utility.yul\":16151:16153   */\n      0x20\n        /* \"#utility.yul\":16140:16149   */\n      dup3\n        /* \"#utility.yul\":16136:16154   */\n      add\n        /* \"#utility.yul\":16128:16154   */\n      swap1\n      pop\n        /* \"#utility.yul\":16200:16209   */\n      dup2\n        /* \"#utility.yul\":16194:16198   */\n      dup2\n        /* \"#utility.yul\":16190:16210   */\n      sub\n        /* \"#utility.yul\":16186:16187   */\n      0x00\n        /* \"#utility.yul\":16175:16184   */\n      dup4\n        /* \"#utility.yul\":16171:16188   */\n      add\n        /* \"#utility.yul\":16164:16211   */\n      mstore\n        /* \"#utility.yul\":16228:16359   */\n      tag_599\n        /* \"#utility.yul\":16354:16358   */\n      dup2\n        /* \"#utility.yul\":16228:16359   */\n      tag_378\n      jump\t// in\n    tag_599:\n        /* \"#utility.yul\":16220:16359   */\n      swap1\n      pop\n        /* \"#utility.yul\":15947:16366   */\n      swap2\n      swap1\n      pop\n      jump\t// out\n        /* \"#utility.yul\":16372:16552   */\n    tag_379:\n        /* \"#utility.yul\":16420:16497   */\n      0x4e487b7100000000000000000000000000000000000000000000000000000000\n        /* \"#utility.yul\":16417:16418   */\n      0x00\n        /* \"#utility.yul\":16410:16498   */\n      mstore\n        /* \"#utility.yul\":16517:16521   */\n      0x11\n        /* \"#utility.yul\":16514:16515   */\n      0x04\n        /* \"#utility.yul\":16507:16522   */\n      mstore\n        /* \"#utility.yul\":16541:16545   */\n      0x24\n        /* \"#utility.yul\":16538:16539   */\n      0x00\n        /* \"#utility.yul\":16531:16546   */\n      revert\n        /* \"#utility.yul\":16558:16791   */\n    tag_122:\n        /* \"#utility.yul\":16597:16600   */\n      0x00\n        /* \"#utility.yul\":16620:16644   */\n      tag_602\n        /* \"#utility.yul\":16638:16643   */\n      dup3\n        /* \"#utility.yul\":16620:16644   */\n      tag_344\n      jump\t// in\n    tag_602:\n        /* \"#utility.yul\":16611:16644   */\n      swap2\n      pop\n        /* \"#utility.yul\":16666:16732   */\n      0xffffffffffffffffffffffffffffffffffffffffffffffffffffffffffffffff\n        /* \"#utility.yul\":16659:16664   */\n      dup3\n        /* \"#utility.yul\":16656:16733   */\n      sub\n        /* \"#utility.yul\":16653:16756   */\n      tag_603\n      jumpi\n        /* \"#utility.yul\":16736:16754   */\n      tag_604\n      tag_379\n      jump\t// in\n    tag_604:\n        /* \"#utility.yul\":16653:16756   */\n    tag_603:\n        /* \"#utility.yul\":16783:16784   */\n      0x01\n        /* \"#utility.yul\":16776:16781   */\n      dup3\n        /* \"#utility.yul\":16772:16785   */\n      add\n        /* \"#utility.yul\":16765:16785   */\n      swap1\n      pop\n        /* \"#utility.yul\":16558:16791   */\n      swap2\n      swap1\n      pop\n      jump\t// out\n        /* \"#utility.yul\":16797:17239   */\n    tag_126:\n        /* \"#utility.yul\":16946:16950   */\n      0x00\n        /* \"#utility.yul\":16984:16986   */\n      0x60\n        /* \"#utility.yul\":16973:16982   */\n      dup3\n        /* \"#utility.yul\":16969:16987   */\n      add\n        /* \"#utility.yul\":16961:16987   */\n      swap1\n      pop\n        /* \"#utility.yul\":16997:17068   */\n      tag_606\n        /* \"#utility.yul\":17065:17066   */\n      0x00\n        /* \"#utility.yul\":17054:17063   */\n      dup4\n        /* \"#utility.yul\":17050:17067   */\n      add\n        /* \"#utility.yul\":17041:17047   */\n      dup7\n        /* \"#utility.yul\":16997:17068   */\n      tag_366\n      jump\t// in\n    tag_606:\n        /* \"#utility.yul\":17078:17150   */\n      tag_607\n        /* \"#utility.yul\":17146:17148   */\n      0x20\n        /* \"#utility.yul\":17135:17144   */\n      dup4\n        /* \"#utility.yul\":17131:17149   */\n      add\n        /* \"#utility.yul\":17122:17128   */\n      dup6\n        /* \"#utility.yul\":17078:17150   */\n      tag_366\n      jump\t// in\n    tag_607:\n        /* \"#utility.yul\":17160:17232   */\n      tag_608\n        /* \"#utility.yul\":17228:17230   */\n      0x40\n        /* \"#utility.yul\":17217:17226   */\n      dup4\n        /* \"#utility.yul\":17213:17231   */\n      add\n        /* \"#utility.yul\":17204:17210   */\n      dup5\n        /* \"#utility.yul\":17160:17232   */\n      tag_363\n      jump\t// in\n    tag_608:\n        /* \"#utility.yul\":16797:17239   */\n      swap5\n      swap4\n      pop\n      pop\n      pop\n      pop\n      jump\t// out\n        /* \"#utility.yul\":17245:17335   */\n    tag_380:\n        /* \"#utility.yul\":17279:17286   */\n      0x00\n        /* \"#utility.yul\":17322:17327   */\n      dup2\n        /* \"#utility.yul\":17315:17328   */\n      iszero\n        /* \"#utility.yul\":17308:17329   */\n      iszero\n        /* \"#utility.yul\":17297:17329   */\n      swap1\n      pop\n        /* \"#utility.yul\":17245:17335   */\n      swap2\n      swap1\n      pop\n      jump\t// out\n        /* \"#utility.yul\":17341:17457   */\n    tag_381:\n        /* \"#utility.yul\":17411:17432   */\n      tag_611\n        /* \"#utility.yul\":17426:17431   */\n      dup2\n        /* \"#utility.yul\":17411:17432   */\n      tag_380\n      jump\t// in\n    tag_611:\n        /* \"#utility.yul\":17404:17409   */\n      dup2\n        /* \"#utility.yul\":17401:17433   */\n      eq\n        /* \"#utility.yul\":17391:17451   */\n      tag_612\n      jumpi\n        /* \"#utility.yul\":17447:17448   */\n      0x00\n        /* \"#utility.yul\":17444:17445   */\n      dup1\n        /* \"#utility.yul\":17437:17449   */\n      revert\n        /* \"#utility.yul\":17391:17451   */\n    tag_612:\n        /* \"#utility.yul\":17341:17457   */\n      pop\n      jump\t// out\n        /* \"#utility.yul\":17463:17600   */\n    tag_382:\n        /* \"#utility.yul\":17517:17522   */\n      0x00\n        /* \"#utility.yul\":17548:17554   */\n      dup2\n        /* \"#utility.yul\":17542:17555   */\n      mload\n        /* \"#utility.yul\":17533:17555   */\n      swap1\n      pop\n        /* \"#utility.yul\":17564:17594   */\n      tag_614\n        /* \"#utility.yul\":17588:17593   */\n      dup2\n        /* \"#utility.yul\":17564:17594   */\n      tag_381\n      jump\t// in\n    tag_614:\n        /* \"#utility.yul\":17463:17600   */\n      swap3\n      swap2\n      pop\n      pop\n      jump\t// out\n        /* \"#utility.yul\":17606:17951   */\n    tag_130:\n        /* \"#utility.yul\":17673:17679   */\n      0x00\n        /* \"#utility.yul\":17722:17724   */\n      0x20\n        /* \"#utility.yul\":17710:17719   */\n      dup3\n        /* \"#utility.yul\":17701:17708   */\n      dup5\n        /* \"#utility.yul\":17697:17720   */\n      sub\n        /* \"#utility.yul\":17693:17725   */\n      slt\n        /* \"#utility.yul\":17690:17809   */\n      iszero\n      tag_616\n      jumpi\n        /* \"#utility.yul\":17728:17807   */\n      tag_617\n      tag_332\n      jump\t// in\n    tag_617:\n        /* \"#utility.yul\":17690:17809   */\n    tag_616:\n        /* \"#utility.yul\":17848:17849   */\n      0x00\n        /* \"#utility.yul\":17873:17934   */\n      tag_618\n        /* \"#utility.yul\":17926:17933   */\n      dup5\n        /* \"#utility.yul\":17917:17923   */\n      dup3\n        /* \"#utility.yul\":17906:17915   */\n      dup6\n        /* \"#utility.yul\":17902:17924   */\n      add\n        /* \"#utility.yul\":17873:17934   */\n      tag_382\n      jump\t// in\n    tag_618:\n        /* \"#utility.yul\":17863:17934   */\n      swap2\n      pop\n        /* \"#utility.yul\":17819:17944   */\n      pop\n        /* \"#utility.yul\":17606:17951   */\n      swap3\n      swap2\n      pop\n      pop\n      jump\t// out\n        /* \"#utility.yul\":17957:18185   */\n    tag_383:\n        /* \"#utility.yul\":18097:18131   */\n      0x43726561746f722073686f756c64206465706f7369742074686520696e697469\n        /* \"#utility.yul\":18093:18094   */\n      0x00\n        /* \"#utility.yul\":18085:18091   */\n      dup3\n        /* \"#utility.yul\":18081:18095   */\n      add\n        /* \"#utility.yul\":18074:18132   */\n      mstore\n        /* \"#utility.yul\":18166:18177   */\n      0x616c20616d6f756e740000000000000000000000000000000000000000000000\n        /* \"#utility.yul\":18161:18163   */\n      0x20\n        /* \"#utility.yul\":18153:18159   */\n      dup3\n        /* \"#utility.yul\":18149:18164   */\n      add\n        /* \"#utility.yul\":18142:18178   */\n      mstore\n        /* \"#utility.yul\":17957:18185   */\n      pop\n      jump\t// out\n        /* \"#utility.yul\":18191:18557   */\n    tag_384:\n        /* \"#utility.yul\":18333:18336   */\n      0x00\n        /* \"#utility.yul\":18354:18421   */\n      tag_621\n        /* \"#utility.yul\":18418:18420   */\n      0x29\n        /* \"#utility.yul\":18413:18416   */\n      dup4\n        /* \"#utility.yul\":18354:18421   */\n      tag_370\n      jump\t// in\n    tag_621:\n        /* \"#utility.yul\":18347:18421   */\n      swap2\n      pop\n        /* \"#utility.yul\":18430:18523   */\n      tag_622\n        /* \"#utility.yul\":18519:18522   */\n      dup3\n        /* \"#utility.yul\":18430:18523   */\n      tag_383\n      jump\t// in\n    tag_622:\n        /* \"#utility.yul\":18548:18550   */\n      0x40\n        /* \"#utility.yul\":18543:18546   */\n      dup3\n        /* \"#utility.yul\":18539:18551   */\n      add\n        /* \"#utility.yul\":18532:18551   */\n      swap1\n      pop\n        /* \"#utility.yul\":18191:18557   */\n      swap2\n      swap1\n      pop\n      jump\t// out\n        /* \"#utility.yul\":18563:18982   */\n    tag_133:\n        /* \"#utility.yul\":18729:18733   */\n      0x00\n        /* \"#utility.yul\":18767:18769   */\n      0x20\n        /* \"#utility.yul\":18756:18765   */\n      dup3\n        /* \"#utility.yul\":18752:18770   */\n      add\n        /* \"#utility.yul\":18744:18770   */\n      swap1\n      pop\n        /* \"#utility.yul\":18816:18825   */\n      dup2\n        /* \"#utility.yul\":18810:18814   */\n      dup2\n        /* \"#utility.yul\":18806:18826   */\n      sub\n        /* \"#utility.yul\":18802:18803   */\n      0x00\n        /* \"#utility.yul\":18791:18800   */\n      dup4\n        /* \"#utility.yul\":18787:18804   */\n      add\n        /* \"#utility.yul\":18780:18827   */\n      mstore\n        /* \"#utility.yul\":18844:18975   */\n      tag_624\n        /* \"#utility.yul\":18970:18974   */\n      dup2\n        /* \"#utility.yul\":18844:18975   */\n      tag_384\n      jump\t// in\n    tag_624:\n        /* \"#utility.yul\":18836:18975   */\n      swap1\n      pop\n        /* \"#utility.yul\":18563:18982   */\n      swap2\n      swap1\n      pop\n      jump\t// out\n        /* \"#utility.yul\":18988:19168   */\n    tag_385:\n        /* \"#utility.yul\":19036:19113   */\n      0x4e487b7100000000000000000000000000000000000000000000000000000000\n        /* \"#utility.yul\":19033:19034   */\n      0x00\n        /* \"#utility.yul\":19026:19114   */\n      mstore\n        /* \"#utility.yul\":19133:19137   */\n      0x22\n        /* \"#utility.yul\":19130:19131   */\n      0x04\n        /* \"#utility.yul\":19123:19138   */\n      mstore\n        /* \"#utility.yul\":19157:19161   */\n      0x24\n        /* \"#utility.yul\":19154:19155   */\n      0x00\n        /* \"#utility.yul\":19147:19162   */\n      revert\n        /* \"#utility.yul\":19174:19494   */\n    tag_229:\n        /* \"#utility.yul\":19218:19224   */\n      0x00\n        /* \"#utility.yul\":19255:19256   */\n      0x02\n        /* \"#utility.yul\":19249:19253   */\n      dup3\n        /* \"#utility.yul\":19245:19257   */\n      div\n        /* \"#utility.yul\":19235:19257   */\n      swap1\n      pop\n        /* \"#utility.yul\":19302:19303   */\n      0x01\n        /* \"#utility.yul\":19296:19300   */\n      dup3\n        /* \"#utility.yul\":19292:19304   */\n      and\n        /* \"#utility.yul\":19323:19341   */\n      dup1\n        /* \"#utility.yul\":19313:19394   */\n      tag_627\n      jumpi\n        /* \"#utility.yul\":19379:19383   */\n      0x7f\n        /* \"#utility.yul\":19371:19377   */\n      dup3\n        /* \"#utility.yul\":19367:19384   */\n      and\n        /* \"#utility.yul\":19357:19384   */\n      swap2\n      pop\n        /* \"#utility.yul\":19313:19394   */\n    tag_627:\n        /* \"#utility.yul\":19441:19443   */\n      0x20\n        /* \"#utility.yul\":19433:19439   */\n      dup3\n        /* \"#utility.yul\":19430:19444   */\n      lt\n        /* \"#utility.yul\":19410:19428   */\n      dup2\n        /* \"#utility.yul\":19407:19445   */\n      sub\n        /* \"#utility.yul\":19404:19488   */\n      tag_628\n      jumpi\n        /* \"#utility.yul\":19460:19478   */\n      tag_629\n      tag_385\n      jump\t// in\n    tag_629:\n        /* \"#utility.yul\":19404:19488   */\n    tag_628:\n        /* \"#utility.yul\":19225:19494   */\n      pop\n        /* \"#utility.yul\":19174:19494   */\n      swap2\n      swap1\n      pop\n      jump\t// out\n        /* \"#utility.yul\":19500:19641   */\n    tag_386:\n        /* \"#utility.yul\":19549:19553   */\n      0x00\n        /* \"#utility.yul\":19572:19575   */\n      dup2\n        /* \"#utility.yul\":19564:19575   */\n      swap1\n      pop\n        /* \"#utility.yul\":19595:19598   */\n      dup2\n        /* \"#utility.yul\":19592:19593   */\n      0x00\n        /* \"#utility.yul\":19585:19599   */\n      mstore\n        /* \"#utility.yul\":19629:19633   */\n      0x20\n        /* \"#utility.yul\":19626:19627   */\n      0x00\n        /* \"#utility.yul\":19616:19634   */\n      keccak256\n        /* \"#utility.yul\":19608:19634   */\n      swap1\n      pop\n        /* \"#utility.yul\":19500:19641   */\n      swap2\n      swap1\n      pop\n      jump\t// out\n        /* \"#utility.yul\":19647:19740   */\n    tag_387:\n        /* \"#utility.yul\":19684:19690   */\n      0x00\n        /* \"#utility.yul\":19731:19733   */\n      0x20\n        /* \"#utility.yul\":19726:19728   */\n      0x1f\n        /* \"#utility.yul\":19719:19724   */\n      dup4\n        /* \"#utility.yul\":19715:19729   */\n      add\n        /* \"#utility.yul\":19711:19734   */\n      div\n        /* \"#utility.yul\":19701:19734   */\n      swap1\n      pop\n        /* \"#utility.yul\":19647:19740   */\n      swap2\n      swap1\n      pop\n      jump\t// out\n        /* \"#utility.yul\":19746:19853   */\n    tag_388:\n        /* \"#utility.yul\":19790:19798   */\n      0x00\n        /* \"#utility.yul\":19840:19845   */\n      dup3\n        /* \"#utility.yul\":19834:19838   */\n      dup3\n        /* \"#utility.yul\":19830:19846   */\n      shl\n        /* \"#utility.yul\":19809:19846   */\n      swap1\n      pop\n        /* \"#utility.yul\":19746:19853   */\n      swap3\n      swap2\n      pop\n      pop\n      jump\t// out\n        /* \"#utility.yul\":19859:20252   */\n    tag_389:\n        /* \"#utility.yul\":19928:19934   */\n      0x00\n        /* \"#utility.yul\":19978:19979   */\n      0x08\n        /* \"#utility.yul\":19966:19976   */\n      dup4\n        /* \"#utility.yul\":19962:19980   */\n      mul\n        /* \"#utility.yul\":20001:20098   */\n      tag_634\n        /* \"#utility.yul\":20031:20097   */\n      0xffffffffffffffffffffffffffffffffffffffffffffffffffffffffffffffff\n        /* \"#utility.yul\":20020:20029   */\n      dup3\n        /* \"#utility.yul\":20001:20098   */\n      tag_388\n      jump\t// in\n    tag_634:\n        /* \"#utility.yul\":20119:20158   */\n      tag_635\n        /* \"#utility.yul\":20149:20157   */\n      dup7\n        /* \"#utility.yul\":20138:20147   */\n      dup4\n        /* \"#utility.yul\":20119:20158   */\n      tag_388\n      jump\t// in\n    tag_635:\n        /* \"#utility.yul\":20107:20158   */\n      swap6\n      pop\n        /* \"#utility.yul\":20191:20195   */\n      dup1\n        /* \"#utility.yul\":20187:20196   */\n      not\n        /* \"#utility.yul\":20180:20185   */\n      dup5\n        /* \"#utility.yul\":20176:20197   */\n      and\n        /* \"#utility.yul\":20167:20197   */\n      swap4\n      pop\n        /* \"#utility.yul\":20240:20244   */\n      dup1\n        /* \"#utility.yul\":20230:20238   */\n      dup7\n        /* \"#utility.yul\":20226:20245   */\n      and\n        /* \"#utility.yul\":20219:20224   */\n      dup5\n        /* \"#utility.yul\":20216:20246   */\n      or\n        /* \"#utility.yul\":20206:20246   */\n      swap3\n      pop\n        /* \"#utility.yul\":19935:20252   */\n      pop\n      pop\n        /* \"#utility.yul\":19859:20252   */\n      swap4\n      swap3\n      pop\n      pop\n      pop\n      jump\t// out\n        /* \"#utility.yul\":20258:20400   */\n    tag_390:\n        /* \"#utility.yul\":20308:20317   */\n      0x00\n        /* \"#utility.yul\":20341:20394   */\n      tag_637\n        /* \"#utility.yul\":20359:20393   */\n      tag_638\n        /* \"#utility.yul\":20368:20392   */\n      tag_639\n        /* \"#utility.yul\":20386:20391   */\n      dup5\n        /* \"#utility.yul\":20368:20392   */\n      tag_344\n      jump\t// in\n    tag_639:\n        /* \"#utility.yul\":20359:20393   */\n      tag_350\n      jump\t// in\n    tag_638:\n        /* \"#utility.yul\":20341:20394   */\n      tag_344\n      jump\t// in\n    tag_637:\n        /* \"#utility.yul\":20328:20394   */\n      swap1\n      pop\n        /* \"#utility.yul\":20258:20400   */\n      swap2\n      swap1\n      pop\n      jump\t// out\n        /* \"#utility.yul\":20406:20481   */\n    tag_391:\n        /* \"#utility.yul\":20449:20452   */\n      0x00\n        /* \"#utility.yul\":20470:20475   */\n      dup2\n        /* \"#utility.yul\":20463:20475   */\n      swap1\n      pop\n        /* \"#utility.yul\":20406:20481   */\n      swap2\n      swap1\n      pop\n      jump\t// out\n        /* \"#utility.yul\":20487:20756   */\n    tag_392:\n        /* \"#utility.yul\":20597:20636   */\n      tag_642\n        /* \"#utility.yul\":20628:20635   */\n      dup4\n        /* \"#utility.yul\":20597:20636   */\n      tag_390\n      jump\t// in\n    tag_642:\n        /* \"#utility.yul\":20658:20749   */\n      tag_643\n        /* \"#utility.yul\":20707:20748   */\n      tag_644\n        /* \"#utility.yul\":20731:20747   */\n      dup3\n        /* \"#utility.yul\":20707:20748   */\n      tag_391\n      jump\t// in\n    tag_644:\n        /* \"#utility.yul\":20699:20705   */\n      dup5\n        /* \"#utility.yul\":20692:20696   */\n      dup5\n        /* \"#utility.yul\":20686:20697   */\n      sload\n        /* \"#utility.yul\":20658:20749   */\n      tag_389\n      jump\t// in\n    tag_643:\n        /* \"#utility.yul\":20652:20656   */\n      dup3\n        /* \"#utility.yul\":20645:20750   */\n      sstore\n        /* \"#utility.yul\":20563:20756   */\n      pop\n        /* \"#utility.yul\":20487:20756   */\n      pop\n      pop\n      pop\n      jump\t// out\n        /* \"#utility.yul\":20762:20835   */\n    tag_393:\n        /* \"#utility.yul\":20807:20810   */\n      0x00\n        /* \"#utility.yul\":20762:20835   */\n      swap1\n      jump\t// out\n        /* \"#utility.yul\":20841:21030   */\n    tag_394:\n        /* \"#utility.yul\":20918:20950   */\n      tag_647\n      tag_393\n      jump\t// in\n    tag_647:\n        /* \"#utility.yul\":20959:21024   */\n      tag_648\n        /* \"#utility.yul\":21017:21023   */\n      dup2\n        /* \"#utility.yul\":21009:21015   */\n      dup5\n        /* \"#utility.yul\":21003:21007   */\n      dup5\n        /* \"#utility.yul\":20959:21024   */\n      tag_392\n      jump\t// in\n    tag_648:\n        /* \"#utility.yul\":20894:21030   */\n      pop\n        /* \"#utility.yul\":20841:21030   */\n      pop\n      pop\n      jump\t// out\n        /* \"#utility.yul\":21036:21222   */\n    tag_395:\n        /* \"#utility.yul\":21096:21216   */\n    tag_650:\n        /* \"#utility.yul\":21113:21116   */\n      dup2\n        /* \"#utility.yul\":21106:21111   */\n      dup2\n        /* \"#utility.yul\":21103:21117   */\n      lt\n        /* \"#utility.yul\":21096:21216   */\n      iszero\n      tag_652\n      jumpi\n        /* \"#utility.yul\":21167:21206   */\n      tag_653\n        /* \"#utility.yul\":21204:21205   */\n      0x00\n        /* \"#utility.yul\":21197:21202   */\n      dup3\n        /* \"#utility.yul\":21167:21206   */\n      tag_394\n      jump\t// in\n    tag_653:\n        /* \"#utility.yul\":21140:21141   */\n      0x01\n        /* \"#utility.yul\":21133:21138   */\n      dup2\n        /* \"#utility.yul\":21129:21142   */\n      add\n        /* \"#utility.yul\":21120:21142   */\n      swap1\n      pop\n        /* \"#utility.yul\":21096:21216   */\n      jump(tag_650)\n    tag_652:\n        /* \"#utility.yul\":21036:21222   */\n      pop\n      pop\n      jump\t// out\n        /* \"#utility.yul\":21228:21771   */\n    tag_396:\n        /* \"#utility.yul\":21329:21331   */\n      0x1f\n        /* \"#utility.yul\":21324:21327   */\n      dup3\n        /* \"#utility.yul\":21321:21332   */\n      gt\n        /* \"#utility.yul\":21318:21764   */\n      iszero\n      tag_655\n      jumpi\n        /* \"#utility.yul\":21363:21401   */\n      tag_656\n        /* \"#utility.yul\":21395:21400   */\n      dup2\n        /* \"#utility.yul\":21363:21401   */\n      tag_386\n      jump\t// in\n    tag_656:\n        /* \"#utility.yul\":21447:21476   */\n      tag_657\n        /* \"#utility.yul\":21465:21475   */\n      dup5\n        /* \"#utility.yul\":21447:21476   */\n      tag_387\n      jump\t// in\n    tag_657:\n        /* \"#utility.yul\":21437:21445   */\n      dup2\n        /* \"#utility.yul\":21433:21477   */\n      add\n        /* \"#utility.yul\":21630:21632   */\n      0x20\n        /* \"#utility.yul\":21618:21628   */\n      dup6\n        /* \"#utility.yul\":21615:21633   */\n      lt\n        /* \"#utility.yul\":21612:21661   */\n      iszero\n      tag_658\n      jumpi\n        /* \"#utility.yul\":21651:21659   */\n      dup2\n        /* \"#utility.yul\":21636:21659   */\n      swap1\n      pop\n        /* \"#utility.yul\":21612:21661   */\n    tag_658:\n        /* \"#utility.yul\":21674:21754   */\n      tag_659\n        /* \"#utility.yul\":21730:21752   */\n      tag_660\n        /* \"#utility.yul\":21748:21751   */\n      dup6\n        /* \"#utility.yul\":21730:21752   */\n      tag_387\n      jump\t// in\n    tag_660:\n        /* \"#utility.yul\":21720:21728   */\n      dup4\n        /* \"#utility.yul\":21716:21753   */\n      add\n        /* \"#utility.yul\":21703:21714   */\n      dup3\n        /* \"#utility.yul\":21674:21754   */\n      tag_395\n      jump\t// in\n    tag_659:\n        /* \"#utility.yul\":21333:21764   */\n      pop\n      pop\n        /* \"#utility.yul\":21318:21764   */\n    tag_655:\n        /* \"#utility.yul\":21228:21771   */\n      pop\n      pop\n      pop\n      jump\t// out\n        /* \"#utility.yul\":21777:21894   */\n    tag_397:\n        /* \"#utility.yul\":21831:21839   */\n      0x00\n        /* \"#utility.yul\":21881:21886   */\n      dup3\n        /* \"#utility.yul\":21875:21879   */\n      dup3\n        /* \"#utility.yul\":21871:21887   */\n      shr\n        /* \"#utility.yul\":21850:21887   */\n      swap1\n      pop\n        /* \"#utility.yul\":21777:21894   */\n      swap3\n      swap2\n      pop\n      pop\n      jump\t// out\n        /* \"#utility.yul\":21900:22069   */\n    tag_398:\n        /* \"#utility.yul\":21944:21950   */\n      0x00\n        /* \"#utility.yul\":21977:22028   */\n      tag_663\n        /* \"#utility.yul\":22025:22026   */\n      0x00\n        /* \"#utility.yul\":22021:22027   */\n      not\n        /* \"#utility.yul\":22013:22018   */\n      dup5\n        /* \"#utility.yul\":22010:22011   */\n      0x08\n        /* \"#utility.yul\":22006:22019   */\n      mul\n        /* \"#utility.yul\":21977:22028   */\n      tag_397\n      jump\t// in\n    tag_663:\n        /* \"#utility.yul\":21973:22029   */\n      not\n        /* \"#utility.yul\":22058:22062   */\n      dup1\n        /* \"#utility.yul\":22052:22056   */\n      dup4\n        /* \"#utility.yul\":22048:22063   */\n      and\n        /* \"#utility.yul\":22038:22063   */\n      swap2\n      pop\n        /* \"#utility.yul\":21951:22069   */\n      pop\n        /* \"#utility.yul\":21900:22069   */\n      swap3\n      swap2\n      pop\n      pop\n      jump\t// out\n        /* \"#utility.yul\":22074:22369   */\n    tag_399:\n        /* \"#utility.yul\":22150:22154   */\n      0x00\n        /* \"#utility.yul\":22296:22325   */\n      tag_665\n        /* \"#utility.yul\":22321:22324   */\n      dup4\n        /* \"#utility.yul\":22315:22319   */\n      dup4\n        /* \"#utility.yul\":22296:22325   */\n      tag_398\n      jump\t// in\n    tag_665:\n        /* \"#utility.yul\":22288:22325   */\n      swap2\n      pop\n        /* \"#utility.yul\":22358:22361   */\n      dup3\n        /* \"#utility.yul\":22355:22356   */\n      0x02\n        /* \"#utility.yul\":22351:22362   */\n      mul\n        /* \"#utility.yul\":22345:22349   */\n      dup3\n        /* \"#utility.yul\":22342:22363   */\n      or\n        /* \"#utility.yul\":22334:22363   */\n      swap1\n      pop\n        /* \"#utility.yul\":22074:22369   */\n      swap3\n      swap2\n      pop\n      pop\n      jump\t// out\n        /* \"#utility.yul\":22374:23769   */\n    tag_135:\n        /* \"#utility.yul\":22491:22528   */\n      tag_667\n        /* \"#utility.yul\":22524:22527   */\n      dup3\n        /* \"#utility.yul\":22491:22528   */\n      tag_369\n      jump\t// in\n    tag_667:\n        /* \"#utility.yul\":22593:22611   */\n      0xffffffffffffffff\n        /* \"#utility.yul\":22585:22591   */\n      dup2\n        /* \"#utility.yul\":22582:22612   */\n      gt\n        /* \"#utility.yul\":22579:22635   */\n      iszero\n      tag_668\n      jumpi\n        /* \"#utility.yul\":22615:22633   */\n      tag_669\n      tag_337\n      jump\t// in\n    tag_669:\n        /* \"#utility.yul\":22579:22635   */\n    tag_668:\n        /* \"#utility.yul\":22659:22697   */\n      tag_670\n        /* \"#utility.yul\":22691:22695   */\n      dup3\n        /* \"#utility.yul\":22685:22696   */\n      sload\n        /* \"#utility.yul\":22659:22697   */\n      tag_229\n      jump\t// in\n    tag_670:\n        /* \"#utility.yul\":22744:22811   */\n      tag_671\n        /* \"#utility.yul\":22804:22810   */\n      dup3\n        /* \"#utility.yul\":22796:22802   */\n      dup3\n        /* \"#utility.yul\":22790:22794   */\n      dup6\n        /* \"#utility.yul\":22744:22811   */\n      tag_396\n      jump\t// in\n    tag_671:\n        /* \"#utility.yul\":22838:22839   */\n      0x00\n        /* \"#utility.yul\":22862:22866   */\n      0x20\n        /* \"#utility.yul\":22849:22866   */\n      swap1\n      pop\n        /* \"#utility.yul\":22894:22896   */\n      0x1f\n        /* \"#utility.yul\":22886:22892   */\n      dup4\n        /* \"#utility.yul\":22883:22897   */\n      gt\n        /* \"#utility.yul\":22911:22912   */\n      0x01\n        /* \"#utility.yul\":22906:23524   */\n      dup2\n      eq\n      tag_673\n      jumpi\n        /* \"#utility.yul\":23568:23569   */\n      0x00\n        /* \"#utility.yul\":23585:23591   */\n      dup5\n        /* \"#utility.yul\":23582:23659   */\n      iszero\n      tag_674\n      jumpi\n        /* \"#utility.yul\":23634:23643   */\n      dup3\n        /* \"#utility.yul\":23629:23632   */\n      dup8\n        /* \"#utility.yul\":23625:23644   */\n      add\n        /* \"#utility.yul\":23619:23645   */\n      mload\n        /* \"#utility.yul\":23610:23645   */\n      swap1\n      pop\n        /* \"#utility.yul\":23582:23659   */\n    tag_674:\n        /* \"#utility.yul\":23685:23752   */\n      tag_675\n        /* \"#utility.yul\":23745:23751   */\n      dup6\n        /* \"#utility.yul\":23738:23743   */\n      dup3\n        /* \"#utility.yul\":23685:23752   */\n      tag_399\n      jump\t// in\n    tag_675:\n        /* \"#utility.yul\":23679:23683   */\n      dup7\n        /* \"#utility.yul\":23672:23753   */\n      sstore\n        /* \"#utility.yul\":23541:23763   */\n      pop\n        /* \"#utility.yul\":22876:23763   */\n      jump(tag_672)\n        /* \"#utility.yul\":22906:23524   */\n    tag_673:\n        /* \"#utility.yul\":22958:22962   */\n      0x1f\n        /* \"#utility.yul\":22954:22963   */\n      not\n        /* \"#utility.yul\":22946:22952   */\n      dup5\n        /* \"#utility.yul\":22942:22964   */\n      and\n        /* \"#utility.yul\":22992:23029   */\n      tag_676\n        /* \"#utility.yul\":23024:23028   */\n      dup7\n        /* \"#utility.yul\":22992:23029   */\n      tag_386\n      jump\t// in\n    tag_676:\n        /* \"#utility.yul\":23051:23052   */\n      0x00\n        /* \"#utility.yul\":23065:23273   */\n    tag_677:\n        /* \"#utility.yul\":23079:23086   */\n      dup3\n        /* \"#utility.yul\":23076:23077   */\n      dup2\n        /* \"#utility.yul\":23073:23087   */\n      lt\n        /* \"#utility.yul\":23065:23273   */\n      iszero\n      tag_679\n      jumpi\n        /* \"#utility.yul\":23158:23167   */\n      dup5\n        /* \"#utility.yul\":23153:23156   */\n      dup10\n        /* \"#utility.yul\":23149:23168   */\n      add\n        /* \"#utility.yul\":23143:23169   */\n      mload\n        /* \"#utility.yul\":23135:23141   */\n      dup3\n        /* \"#utility.yul\":23128:23170   */\n      sstore\n        /* \"#utility.yul\":23209:23210   */\n      0x01\n        /* \"#utility.yul\":23201:23207   */\n      dup3\n        /* \"#utility.yul\":23197:23211   */\n      add\n        /* \"#utility.yul\":23187:23211   */\n      swap2\n      pop\n        /* \"#utility.yul\":23256:23258   */\n      0x20\n        /* \"#utility.yul\":23245:23254   */\n      dup6\n        /* \"#utility.yul\":23241:23259   */\n      add\n        /* \"#utility.yul\":23228:23259   */\n      swap5\n      pop\n        /* \"#utility.yul\":23102:23106   */\n      0x20\n        /* \"#utility.yul\":23099:23100   */\n      dup2\n        /* \"#utility.yul\":23095:23107   */\n      add\n        /* \"#utility.yul\":23090:23107   */\n      swap1\n      pop\n        /* \"#utility.yul\":23065:23273   */\n      jump(tag_677)\n    tag_679:\n        /* \"#utility.yul\":23301:23307   */\n      dup7\n        /* \"#utility.yul\":23292:23299   */\n      dup4\n        /* \"#utility.yul\":23289:23308   */\n      lt\n        /* \"#utility.yul\":23286:23465   */\n      iszero\n      tag_680\n      jumpi\n        /* \"#utility.yul\":23359:23368   */\n      dup5\n        /* \"#utility.yul\":23354:23357   */\n      dup10\n        /* \"#utility.yul\":23350:23369   */\n      add\n        /* \"#utility.yul\":23344:23370   */\n      mload\n        /* \"#utility.yul\":23402:23450   */\n      tag_681\n        /* \"#utility.yul\":23444:23448   */\n      0x1f\n        /* \"#utility.yul\":23436:23442   */\n      dup10\n        /* \"#utility.yul\":23432:23449   */\n      and\n        /* \"#utility.yul\":23421:23430   */\n      dup3\n        /* \"#utility.yul\":23402:23450   */\n      tag_398\n      jump\t// in\n    tag_681:\n        /* \"#utility.yul\":23394:23400   */\n      dup4\n        /* \"#utility.yul\":23387:23451   */\n      sstore\n        /* \"#utility.yul\":23309:23465   */\n      pop\n        /* \"#utility.yul\":23286:23465   */\n    tag_680:\n        /* \"#utility.yul\":23511:23512   */\n      0x01\n        /* \"#utility.yul\":23507:23508   */\n      0x02\n        /* \"#utility.yul\":23499:23505   */\n      dup9\n        /* \"#utility.yul\":23495:23509   */\n      mul\n        /* \"#utility.yul\":23491:23513   */\n      add\n        /* \"#utility.yul\":23485:23489   */\n      dup9\n        /* \"#utility.yul\":23478:23514   */\n      sstore\n        /* \"#utility.yul\":22913:23524   */\n      pop\n      pop\n      pop\n        /* \"#utility.yul\":22876:23763   */\n    tag_672:\n      pop\n        /* \"#utility.yul\":22466:23769   */\n      pop\n      pop\n      pop\n        /* \"#utility.yul\":22374:23769   */\n      pop\n      pop\n      jump\t// out\n        /* \"#utility.yul\":23775:24863   */\n    tag_139:\n        /* \"#utility.yul\":24084:24088   */\n      0x00\n        /* \"#utility.yul\":24122:24125   */\n      0x0100\n        /* \"#utility.yul\":24111:24120   */\n      dup3\n        /* \"#utility.yul\":24107:24126   */\n      add\n        /* \"#utility.yul\":24099:24126   */\n      swap1\n      pop\n        /* \"#utility.yul\":24136:24207   */\n      tag_683\n        /* \"#utility.yul\":24204:24205   */\n      0x00\n        /* \"#utility.yul\":24193:24202   */\n      dup4\n        /* \"#utility.yul\":24189:24206   */\n      add\n        /* \"#utility.yul\":24180:24186   */\n      dup12\n        /* \"#utility.yul\":24136:24207   */\n      tag_363\n      jump\t// in\n    tag_683:\n        /* \"#utility.yul\":24254:24263   */\n      dup2\n        /* \"#utility.yul\":24248:24252   */\n      dup2\n        /* \"#utility.yul\":24244:24264   */\n      sub\n        /* \"#utility.yul\":24239:24241   */\n      0x20\n        /* \"#utility.yul\":24228:24237   */\n      dup4\n        /* \"#utility.yul\":24224:24242   */\n      add\n        /* \"#utility.yul\":24217:24265   */\n      mstore\n        /* \"#utility.yul\":24282:24360   */\n      tag_684\n        /* \"#utility.yul\":24355:24359   */\n      dup2\n        /* \"#utility.yul\":24346:24352   */\n      dup11\n        /* \"#utility.yul\":24282:24360   */\n      tag_372\n      jump\t// in\n    tag_684:\n        /* \"#utility.yul\":24274:24360   */\n      swap1\n      pop\n        /* \"#utility.yul\":24370:24442   */\n      tag_685\n        /* \"#utility.yul\":24438:24440   */\n      0x40\n        /* \"#utility.yul\":24427:24436   */\n      dup4\n        /* \"#utility.yul\":24423:24441   */\n      add\n        /* \"#utility.yul\":24414:24420   */\n      dup10\n        /* \"#utility.yul\":24370:24442   */\n      tag_366\n      jump\t// in\n    tag_685:\n        /* \"#utility.yul\":24452:24524   */\n      tag_686\n        /* \"#utility.yul\":24520:24522   */\n      0x60\n        /* \"#utility.yul\":24509:24518   */\n      dup4\n        /* \"#utility.yul\":24505:24523   */\n      add\n        /* \"#utility.yul\":24496:24502   */\n      dup9\n        /* \"#utility.yul\":24452:24524   */\n      tag_363\n      jump\t// in\n    tag_686:\n        /* \"#utility.yul\":24534:24607   */\n      tag_687\n        /* \"#utility.yul\":24602:24605   */\n      0x80\n        /* \"#utility.yul\":24591:24600   */\n      dup4\n        /* \"#utility.yul\":24587:24606   */\n      add\n        /* \"#utility.yul\":24578:24584   */\n      dup8\n        /* \"#utility.yul\":24534:24607   */\n      tag_363\n      jump\t// in\n    tag_687:\n        /* \"#utility.yul\":24617:24690   */\n      tag_688\n        /* \"#utility.yul\":24685:24688   */\n      0xa0\n        /* \"#utility.yul\":24674:24683   */\n      dup4\n        /* \"#utility.yul\":24670:24689   */\n      add\n        /* \"#utility.yul\":24661:24667   */\n      dup7\n        /* \"#utility.yul\":24617:24690   */\n      tag_363\n      jump\t// in\n    tag_688:\n        /* \"#utility.yul\":24700:24773   */\n      tag_689\n        /* \"#utility.yul\":24768:24771   */\n      0xc0\n        /* \"#utility.yul\":24757:24766   */\n      dup4\n        /* \"#utility.yul\":24753:24772   */\n      add\n        /* \"#utility.yul\":24744:24750   */\n      dup6\n        /* \"#utility.yul\":24700:24773   */\n      tag_363\n      jump\t// in\n    tag_689:\n        /* \"#utility.yul\":24783:24856   */\n      tag_690\n        /* \"#utility.yul\":24851:24854   */\n      0xe0\n        /* \"#utility.yul\":24840:24849   */\n      dup4\n        /* \"#utility.yul\":24836:24855   */\n      add\n        /* \"#utility.yul\":24827:24833   */\n      dup5\n        /* \"#utility.yul\":24783:24856   */\n      tag_363\n      jump\t// in\n    tag_690:\n        /* \"#utility.yul\":23775:24863   */\n      swap10\n      swap9\n      pop\n      pop\n      pop\n      pop\n      pop\n      pop\n      pop\n      pop\n      pop\n      jump\t// out\n        /* \"#utility.yul\":24869:25012   */\n    tag_400:\n        /* \"#utility.yul\":24926:24931   */\n      0x00\n        /* \"#utility.yul\":24957:24963   */\n      dup2\n        /* \"#utility.yul\":24951:24964   */\n      mload\n        /* \"#utility.yul\":24942:24964   */\n      swap1\n      pop\n        /* \"#utility.yul\":24973:25006   */\n      tag_692\n        /* \"#utility.yul\":25000:25005   */\n      dup2\n        /* \"#utility.yul\":24973:25006   */\n      tag_345\n      jump\t// in\n    tag_692:\n        /* \"#utility.yul\":24869:25012   */\n      swap3\n      swap2\n      pop\n      pop\n      jump\t// out\n        /* \"#utility.yul\":25018:25369   */\n    tag_148:\n        /* \"#utility.yul\":25088:25094   */\n      0x00\n        /* \"#utility.yul\":25137:25139   */\n      0x20\n        /* \"#utility.yul\":25125:25134   */\n      dup3\n        /* \"#utility.yul\":25116:25123   */\n      dup5\n        /* \"#utility.yul\":25112:25135   */\n      sub\n        /* \"#utility.yul\":25108:25140   */\n      slt\n        /* \"#utility.yul\":25105:25224   */\n      iszero\n      tag_694\n      jumpi\n        /* \"#utility.yul\":25143:25222   */\n      tag_695\n      tag_332\n      jump\t// in\n    tag_695:\n        /* \"#utility.yul\":25105:25224   */\n    tag_694:\n        /* \"#utility.yul\":25263:25264   */\n      0x00\n        /* \"#utility.yul\":25288:25352   */\n      tag_696\n        /* \"#utility.yul\":25344:25351   */\n      dup5\n        /* \"#utility.yul\":25335:25341   */\n      dup3\n        /* \"#utility.yul\":25324:25333   */\n      dup6\n        /* \"#utility.yul\":25320:25342   */\n      add\n        /* \"#utility.yul\":25288:25352   */\n      tag_400\n      jump\t// in\n    tag_696:\n        /* \"#utility.yul\":25278:25352   */\n      swap2\n      pop\n        /* \"#utility.yul\":25234:25362   */\n      pop\n        /* \"#utility.yul\":25018:25369   */\n      swap3\n      swap2\n      pop\n      pop\n      jump\t// out\n        /* \"#utility.yul\":25375:25707   */\n    tag_150:\n        /* \"#utility.yul\":25496:25500   */\n      0x00\n        /* \"#utility.yul\":25534:25536   */\n      0x40\n        /* \"#utility.yul\":25523:25532   */\n      dup3\n        /* \"#utility.yul\":25519:25537   */\n      add\n        /* \"#utility.yul\":25511:25537   */\n      swap1\n      pop\n        /* \"#utility.yul\":25547:25618   */\n      tag_698\n        /* \"#utility.yul\":25615:25616   */\n      0x00\n        /* \"#utility.yul\":25604:25613   */\n      dup4\n        /* \"#utility.yul\":25600:25617   */\n      add\n        /* \"#utility.yul\":25591:25597   */\n      dup6\n        /* \"#utility.yul\":25547:25618   */\n      tag_366\n      jump\t// in\n    tag_698:\n        /* \"#utility.yul\":25628:25700   */\n      tag_699\n        /* \"#utility.yul\":25696:25698   */\n      0x20\n        /* \"#utility.yul\":25685:25694   */\n      dup4\n        /* \"#utility.yul\":25681:25699   */\n      add\n        /* \"#utility.yul\":25672:25678   */\n      dup5\n        /* \"#utility.yul\":25628:25700   */\n      tag_363\n      jump\t// in\n    tag_699:\n        /* \"#utility.yul\":25375:25707   */\n      swap4\n      swap3\n      pop\n      pop\n      pop\n      jump\t// out\n        /* \"#utility.yul\":25713:25807   */\n    tag_401:\n        /* \"#utility.yul\":25746:25754   */\n      0x00\n        /* \"#utility.yul\":25794:25799   */\n      dup2\n        /* \"#utility.yul\":25790:25792   */\n      0x60\n        /* \"#utility.yul\":25786:25800   */\n      shl\n        /* \"#utility.yul\":25765:25800   */\n      swap1\n      pop\n        /* \"#utility.yul\":25713:25807   */\n      swap2\n      swap1\n      pop\n      jump\t// out\n        /* \"#utility.yul\":25813:25907   */\n    tag_402:\n        /* \"#utility.yul\":25852:25859   */\n      0x00\n        /* \"#utility.yul\":25881:25901   */\n      tag_702\n        /* \"#utility.yul\":25895:25900   */\n      dup3\n        /* \"#utility.yul\":25881:25901   */\n      tag_401\n      jump\t// in\n    tag_702:\n        /* \"#utility.yul\":25870:25901   */\n      swap1\n      pop\n        /* \"#utility.yul\":25813:25907   */\n      swap2\n      swap1\n      pop\n      jump\t// out\n        /* \"#utility.yul\":25913:26013   */\n    tag_403:\n        /* \"#utility.yul\":25952:25959   */\n      0x00\n        /* \"#utility.yul\":25981:26007   */\n      tag_704\n        /* \"#utility.yul\":26001:26006   */\n      dup3\n        /* \"#utility.yul\":25981:26007   */\n      tag_402\n      jump\t// in\n    tag_704:\n        /* \"#utility.yul\":25970:26007   */\n      swap1\n      pop\n        /* \"#utility.yul\":25913:26013   */\n      swap2\n      swap1\n      pop\n      jump\t// out\n        /* \"#utility.yul\":26019:26176   */\n    tag_404:\n        /* \"#utility.yul\":26124:26169   */\n      tag_706\n        /* \"#utility.yul\":26144:26168   */\n      tag_707\n        /* \"#utility.yul\":26162:26167   */\n      dup3\n        /* \"#utility.yul\":26144:26168   */\n      tag_360\n      jump\t// in\n    tag_707:\n        /* \"#utility.yul\":26124:26169   */\n      tag_403\n      jump\t// in\n    tag_706:\n        /* \"#utility.yul\":26119:26122   */\n      dup3\n        /* \"#utility.yul\":26112:26170   */\n      mstore\n        /* \"#utility.yul\":26019:26176   */\n      pop\n      pop\n      jump\t// out\n        /* \"#utility.yul\":26182:26261   */\n    tag_405:\n        /* \"#utility.yul\":26221:26228   */\n      0x00\n        /* \"#utility.yul\":26250:26255   */\n      dup2\n        /* \"#utility.yul\":26239:26255   */\n      swap1\n      pop\n        /* \"#utility.yul\":26182:26261   */\n      swap2\n      swap1\n      pop\n      jump\t// out\n        /* \"#utility.yul\":26267:26424   */\n    tag_406:\n        /* \"#utility.yul\":26372:26417   */\n      tag_710\n        /* \"#utility.yul\":26392:26416   */\n      tag_711\n        /* \"#utility.yul\":26410:26415   */\n      dup3\n        /* \"#utility.yul\":26392:26416   */\n      tag_344\n      jump\t// in\n    tag_711:\n        /* \"#utility.yul\":26372:26417   */\n      tag_405\n      jump\t// in\n    tag_710:\n        /* \"#utility.yul\":26367:26370   */\n      dup3\n        /* \"#utility.yul\":26360:26418   */\n      mstore\n        /* \"#utility.yul\":26267:26424   */\n      pop\n      pop\n      jump\t// out\n        /* \"#utility.yul\":26430:26827   */\n    tag_156:\n        /* \"#utility.yul\":26570:26573   */\n      0x00\n        /* \"#utility.yul\":26585:26660   */\n      tag_713\n        /* \"#utility.yul\":26656:26659   */\n      dup3\n        /* \"#utility.yul\":26647:26653   */\n      dup6\n        /* \"#utility.yul\":26585:26660   */\n      tag_404\n      jump\t// in\n    tag_713:\n        /* \"#utility.yul\":26685:26687   */\n      0x14\n        /* \"#utility.yul\":26680:26683   */\n      dup3\n        /* \"#utility.yul\":26676:26688   */\n      add\n        /* \"#utility.yul\":26669:26688   */\n      swap2\n      pop\n        /* \"#utility.yul\":26698:26773   */\n      tag_714\n        /* \"#utility.yul\":26769:26772   */\n      dup3\n        /* \"#utility.yul\":26760:26766   */\n      dup5\n        /* \"#utility.yul\":26698:26773   */\n      tag_406\n      jump\t// in\n    tag_714:\n        /* \"#utility.yul\":26798:26800   */\n      0x20\n        /* \"#utility.yul\":26793:26796   */\n      dup3\n        /* \"#utility.yul\":26789:26801   */\n      add\n        /* \"#utility.yul\":26782:26801   */\n      swap2\n      pop\n        /* \"#utility.yul\":26818:26821   */\n      dup2\n        /* \"#utility.yul\":26811:26821   */\n      swap1\n      pop\n        /* \"#utility.yul\":26430:26827   */\n      swap4\n      swap3\n      pop\n      pop\n      pop\n      jump\t// out\n        /* \"#utility.yul\":26833:26997   */\n    tag_407:\n        /* \"#utility.yul\":26973:26989   */\n      0x496e76616c69642070726f6f662e000000000000000000000000000000000000\n        /* \"#utility.yul\":26969:26970   */\n      0x00\n        /* \"#utility.yul\":26961:26967   */\n      dup3\n        /* \"#utility.yul\":26957:26971   */\n      add\n        /* \"#utility.yul\":26950:26990   */\n      mstore\n        /* \"#utility.yul\":26833:26997   */\n      pop\n      jump\t// out\n        /* \"#utility.yul\":27003:27369   */\n    tag_408:\n        /* \"#utility.yul\":27145:27148   */\n      0x00\n        /* \"#utility.yul\":27166:27233   */\n      tag_717\n        /* \"#utility.yul\":27230:27232   */\n      0x0e\n        /* \"#utility.yul\":27225:27228   */\n      dup4\n        /* \"#utility.yul\":27166:27233   */\n      tag_370\n      jump\t// in\n    tag_717:\n        /* \"#utility.yul\":27159:27233   */\n      swap2\n      pop\n        /* \"#utility.yul\":27242:27335   */\n      tag_718\n        /* \"#utility.yul\":27331:27334   */\n      dup3\n        /* \"#utility.yul\":27242:27335   */\n      tag_407\n      jump\t// in\n    tag_718:\n        /* \"#utility.yul\":27360:27362   */\n      0x20\n        /* \"#utility.yul\":27355:27358   */\n      dup3\n        /* \"#utility.yul\":27351:27363   */\n      add\n        /* \"#utility.yul\":27344:27363   */\n      swap1\n      pop\n        /* \"#utility.yul\":27003:27369   */\n      swap2\n      swap1\n      pop\n      jump\t// out\n        /* \"#utility.yul\":27375:27794   */\n    tag_161:\n        /* \"#utility.yul\":27541:27545   */\n      0x00\n        /* \"#utility.yul\":27579:27581   */\n      0x20\n        /* \"#utility.yul\":27568:27577   */\n      dup3\n        /* \"#utility.yul\":27564:27582   */\n      add\n        /* \"#utility.yul\":27556:27582   */\n      swap1\n      pop\n        /* \"#utility.yul\":27628:27637   */\n      dup2\n        /* \"#utility.yul\":27622:27626   */\n      dup2\n        /* \"#utility.yul\":27618:27638   */\n      sub\n        /* \"#utility.yul\":27614:27615   */\n      0x00\n        /* \"#utility.yul\":27603:27612   */\n      dup4\n        /* \"#utility.yul\":27599:27616   */\n      add\n        /* \"#utility.yul\":27592:27639   */\n      mstore\n        /* \"#utility.yul\":27656:27787   */\n      tag_720\n        /* \"#utility.yul\":27782:27786   */\n      dup2\n        /* \"#utility.yul\":27656:27787   */\n      tag_408\n      jump\t// in\n    tag_720:\n        /* \"#utility.yul\":27648:27787   */\n      swap1\n      pop\n        /* \"#utility.yul\":27375:27794   */\n      swap2\n      swap1\n      pop\n      jump\t// out\n        /* \"#utility.yul\":27800:28029   */\n    tag_409:\n        /* \"#utility.yul\":27940:27974   */\n      0x4e6f2066756e6473206c65667420746f20636c61696d206f7220616c72656164\n        /* \"#utility.yul\":27936:27937   */\n      0x00\n        /* \"#utility.yul\":27928:27934   */\n      dup3\n        /* \"#utility.yul\":27924:27938   */\n      add\n        /* \"#utility.yul\":27917:27975   */\n      mstore\n        /* \"#utility.yul\":28009:28021   */\n      0x7920636c61696d65642e00000000000000000000000000000000000000000000\n        /* \"#utility.yul\":28004:28006   */\n      0x20\n        /* \"#utility.yul\":27996:28002   */\n      dup3\n        /* \"#utility.yul\":27992:28007   */\n      add\n        /* \"#utility.yul\":27985:28022   */\n      mstore\n        /* \"#utility.yul\":27800:28029   */\n      pop\n      jump\t// out\n        /* \"#utility.yul\":28035:28401   */\n    tag_410:\n        /* \"#utility.yul\":28177:28180   */\n      0x00\n        /* \"#utility.yul\":28198:28265   */\n      tag_723\n        /* \"#utility.yul\":28262:28264   */\n      0x2a\n        /* \"#utility.yul\":28257:28260   */\n      dup4\n        /* \"#utility.yul\":28198:28265   */\n      tag_370\n      jump\t// in\n    tag_723:\n        /* \"#utility.yul\":28191:28265   */\n      swap2\n      pop\n        /* \"#utility.yul\":28274:28367   */\n      tag_724\n        /* \"#utility.yul\":28363:28366   */\n      dup3\n        /* \"#utility.yul\":28274:28367   */\n      tag_409\n      jump\t// in\n    tag_724:\n        /* \"#utility.yul\":28392:28394   */\n      0x40\n        /* \"#utility.yul\":28387:28390   */\n      dup3\n        /* \"#utility.yul\":28383:28395   */\n      add\n        /* \"#utility.yul\":28376:28395   */\n      swap1\n      pop\n        /* \"#utility.yul\":28035:28401   */\n      swap2\n      swap1\n      pop\n      jump\t// out\n        /* \"#utility.yul\":28407:28826   */\n    tag_164:\n        /* \"#utility.yul\":28573:28577   */\n      0x00\n        /* \"#utility.yul\":28611:28613   */\n      0x20\n        /* \"#utility.yul\":28600:28609   */\n      dup3\n        /* \"#utility.yul\":28596:28614   */\n      add\n        /* \"#utility.yul\":28588:28614   */\n      swap1\n      pop\n        /* \"#utility.yul\":28660:28669   */\n      dup2\n        /* \"#utility.yul\":28654:28658   */\n      dup2\n        /* \"#utility.yul\":28650:28670   */\n      sub\n        /* \"#utility.yul\":28646:28647   */\n      0x00\n        /* \"#utility.yul\":28635:28644   */\n      dup4\n        /* \"#utility.yul\":28631:28648   */\n      add\n        /* \"#utility.yul\":28624:28671   */\n      mstore\n        /* \"#utility.yul\":28688:28819   */\n      tag_726\n        /* \"#utility.yul\":28814:28818   */\n      dup2\n        /* \"#utility.yul\":28688:28819   */\n      tag_410\n      jump\t// in\n    tag_726:\n        /* \"#utility.yul\":28680:28819   */\n      swap1\n      pop\n        /* \"#utility.yul\":28407:28826   */\n      swap2\n      swap1\n      pop\n      jump\t// out\n        /* \"#utility.yul\":28832:29026   */\n    tag_166:\n        /* \"#utility.yul\":28872:28876   */\n      0x00\n        /* \"#utility.yul\":28892:28912   */\n      tag_728\n        /* \"#utility.yul\":28910:28911   */\n      dup3\n        /* \"#utility.yul\":28892:28912   */\n      tag_344\n      jump\t// in\n    tag_728:\n        /* \"#utility.yul\":28887:28912   */\n      swap2\n      pop\n        /* \"#utility.yul\":28926:28946   */\n      tag_729\n        /* \"#utility.yul\":28944:28945   */\n      dup4\n        /* \"#utility.yul\":28926:28946   */\n      tag_344\n      jump\t// in\n    tag_729:\n        /* \"#utility.yul\":28921:28946   */\n      swap3\n      pop\n        /* \"#utility.yul\":28970:28971   */\n      dup3\n        /* \"#utility.yul\":28967:28968   */\n      dup3\n        /* \"#utility.yul\":28963:28972   */\n      sub\n        /* \"#utility.yul\":28955:28972   */\n      swap1\n      pop\n        /* \"#utility.yul\":28994:28995   */\n      dup2\n        /* \"#utility.yul\":28988:28992   */\n      dup2\n        /* \"#utility.yul\":28985:28996   */\n      gt\n        /* \"#utility.yul\":28982:29019   */\n      iszero\n      tag_730\n      jumpi\n        /* \"#utility.yul\":28999:29017   */\n      tag_731\n      tag_379\n      jump\t// in\n    tag_731:\n        /* \"#utility.yul\":28982:29019   */\n    tag_730:\n        /* \"#utility.yul\":28832:29026   */\n      swap3\n      swap2\n      pop\n      pop\n      jump\t// out\n        /* \"#utility.yul\":29032:29203   */\n    tag_411:\n        /* \"#utility.yul\":29172:29195   */\n      0x5969656c64207472616e73666572206661696c65640000000000000000000000\n        /* \"#utility.yul\":29168:29169   */\n      0x00\n        /* \"#utility.yul\":29160:29166   */\n      dup3\n        /* \"#utility.yul\":29156:29170   */\n      add\n        /* \"#utility.yul\":29149:29196   */\n      mstore\n        /* \"#utility.yul\":29032:29203   */\n      pop\n      jump\t// out\n        /* \"#utility.yul\":29209:29575   */\n    tag_412:\n        /* \"#utility.yul\":29351:29354   */\n      0x00\n        /* \"#utility.yul\":29372:29439   */\n      tag_734\n        /* \"#utility.yul\":29436:29438   */\n      0x15\n        /* \"#utility.yul\":29431:29434   */\n      dup4\n        /* \"#utility.yul\":29372:29439   */\n      tag_370\n      jump\t// in\n    tag_734:\n        /* \"#utility.yul\":29365:29439   */\n      swap2\n      pop\n        /* \"#utility.yul\":29448:29541   */\n      tag_735\n        /* \"#utility.yul\":29537:29540   */\n      dup3\n        /* \"#utility.yul\":29448:29541   */\n      tag_411\n      jump\t// in\n    tag_735:\n        /* \"#utility.yul\":29566:29568   */\n      0x20\n        /* \"#utility.yul\":29561:29564   */\n      dup3\n        /* \"#utility.yul\":29557:29569   */\n      add\n        /* \"#utility.yul\":29550:29569   */\n      swap1\n      pop\n        /* \"#utility.yul\":29209:29575   */\n      swap2\n      swap1\n      pop\n      jump\t// out\n        /* \"#utility.yul\":29581:30000   */\n    tag_173:\n        /* \"#utility.yul\":29747:29751   */\n      0x00\n        /* \"#utility.yul\":29785:29787   */\n      0x20\n        /* \"#utility.yul\":29774:29783   */\n      dup3\n        /* \"#utility.yul\":29770:29788   */\n      add\n        /* \"#utility.yul\":29762:29788   */\n      swap1\n      pop\n        /* \"#utility.yul\":29834:29843   */\n      dup2\n        /* \"#utility.yul\":29828:29832   */\n      dup2\n        /* \"#utility.yul\":29824:29844   */\n      sub\n        /* \"#utility.yul\":29820:29821   */\n      0x00\n        /* \"#utility.yul\":29809:29818   */\n      dup4\n        /* \"#utility.yul\":29805:29822   */\n      add\n        /* \"#utility.yul\":29798:29845   */\n      mstore\n        /* \"#utility.yul\":29862:29993   */\n      tag_737\n        /* \"#utility.yul\":29988:29992   */\n      dup2\n        /* \"#utility.yul\":29862:29993   */\n      tag_412\n      jump\t// in\n    tag_737:\n        /* \"#utility.yul\":29854:29993   */\n      swap1\n      pop\n        /* \"#utility.yul\":29581:30000   */\n      swap2\n      swap1\n      pop\n      jump\t// out\n        /* \"#utility.yul\":30006:30338   */\n    tag_183:\n        /* \"#utility.yul\":30127:30131   */\n      0x00\n        /* \"#utility.yul\":30165:30167   */\n      0x40\n        /* \"#utility.yul\":30154:30163   */\n      dup3\n        /* \"#utility.yul\":30150:30168   */\n      add\n        /* \"#utility.yul\":30142:30168   */\n      swap1\n      pop\n        /* \"#utility.yul\":30178:30249   */\n      tag_739\n        /* \"#utility.yul\":30246:30247   */\n      0x00\n        /* \"#utility.yul\":30235:30244   */\n      dup4\n        /* \"#utility.yul\":30231:30248   */\n      add\n        /* \"#utility.yul\":30222:30228   */\n      dup6\n        /* \"#utility.yul\":30178:30249   */\n      tag_366\n      jump\t// in\n    tag_739:\n        /* \"#utility.yul\":30259:30331   */\n      tag_740\n        /* \"#utility.yul\":30327:30329   */\n      0x20\n        /* \"#utility.yul\":30316:30325   */\n      dup4\n        /* \"#utility.yul\":30312:30330   */\n      add\n        /* \"#utility.yul\":30303:30309   */\n      dup5\n        /* \"#utility.yul\":30259:30331   */\n      tag_366\n      jump\t// in\n    tag_740:\n        /* \"#utility.yul\":30006:30338   */\n      swap4\n      swap3\n      pop\n      pop\n      pop\n      jump\t// out\n        /* \"#utility.yul\":30344:30429   */\n    tag_413:\n        /* \"#utility.yul\":30389:30396   */\n      0x00\n        /* \"#utility.yul\":30418:30423   */\n      dup2\n        /* \"#utility.yul\":30407:30423   */\n      swap1\n      pop\n        /* \"#utility.yul\":30344:30429   */\n      swap2\n      swap1\n      pop\n      jump\t// out\n        /* \"#utility.yul\":30435:30536   */\n    tag_414:\n        /* \"#utility.yul\":30471:30478   */\n      0x00\n        /* \"#utility.yul\":30511:30529   */\n      0xffffffffffffffff\n        /* \"#utility.yul\":30504:30509   */\n      dup3\n        /* \"#utility.yul\":30500:30530   */\n      and\n        /* \"#utility.yul\":30489:30530   */\n      swap1\n      pop\n        /* \"#utility.yul\":30435:30536   */\n      swap2\n      swap1\n      pop\n      jump\t// out\n        /* \"#utility.yul\":30542:30698   */\n    tag_415:\n        /* \"#utility.yul\":30599:30608   */\n      0x00\n        /* \"#utility.yul\":30632:30692   */\n      tag_744\n        /* \"#utility.yul\":30649:30691   */\n      tag_745\n        /* \"#utility.yul\":30658:30690   */\n      tag_746\n        /* \"#utility.yul\":30684:30689   */\n      dup5\n        /* \"#utility.yul\":30658:30690   */\n      tag_413\n      jump\t// in\n    tag_746:\n        /* \"#utility.yul\":30649:30691   */\n      tag_350\n      jump\t// in\n    tag_745:\n        /* \"#utility.yul\":30632:30692   */\n      tag_414\n      jump\t// in\n    tag_744:\n        /* \"#utility.yul\":30619:30692   */\n      swap1\n      pop\n        /* \"#utility.yul\":30542:30698   */\n      swap2\n      swap1\n      pop\n      jump\t// out\n        /* \"#utility.yul\":30704:30849   */\n    tag_416:\n        /* \"#utility.yul\":30798:30842   */\n      tag_748\n        /* \"#utility.yul\":30836:30841   */\n      dup2\n        /* \"#utility.yul\":30798:30842   */\n      tag_415\n      jump\t// in\n    tag_748:\n        /* \"#utility.yul\":30793:30796   */\n      dup3\n        /* \"#utility.yul\":30786:30843   */\n      mstore\n        /* \"#utility.yul\":30704:30849   */\n      pop\n      pop\n      jump\t// out\n        /* \"#utility.yul\":30855:31091   */\n    tag_203:\n        /* \"#utility.yul\":30955:30959   */\n      0x00\n        /* \"#utility.yul\":30993:30995   */\n      0x20\n        /* \"#utility.yul\":30982:30991   */\n      dup3\n        /* \"#utility.yul\":30978:30996   */\n      add\n        /* \"#utility.yul\":30970:30996   */\n      swap1\n      pop\n        /* \"#utility.yul\":31006:31084   */\n      tag_750\n        /* \"#utility.yul\":31081:31082   */\n      0x00\n        /* \"#utility.yul\":31070:31079   */\n      dup4\n        /* \"#utility.yul\":31066:31083   */\n      add\n        /* \"#utility.yul\":31057:31063   */\n      dup5\n        /* \"#utility.yul\":31006:31084   */\n      tag_416\n      jump\t// in\n    tag_750:\n        /* \"#utility.yul\":30855:31091   */\n      swap3\n      swap2\n      pop\n      pop\n      jump\t// out\n        /* \"#utility.yul\":31097:31258   */\n    tag_417:\n        /* \"#utility.yul\":31237:31250   */\n      0x506f742069732066756c6c000000000000000000000000000000000000000000\n        /* \"#utility.yul\":31233:31234   */\n      0x00\n        /* \"#utility.yul\":31225:31231   */\n      dup3\n        /* \"#utility.yul\":31221:31235   */\n      add\n        /* \"#utility.yul\":31214:31251   */\n      mstore\n        /* \"#utility.yul\":31097:31258   */\n      pop\n      jump\t// out\n        /* \"#utility.yul\":31264:31630   */\n    tag_418:\n        /* \"#utility.yul\":31406:31409   */\n      0x00\n        /* \"#utility.yul\":31427:31494   */\n      tag_753\n        /* \"#utility.yul\":31491:31493   */\n      0x0b\n        /* \"#utility.yul\":31486:31489   */\n      dup4\n        /* \"#utility.yul\":31427:31494   */\n      tag_370\n      jump\t// in\n    tag_753:\n        /* \"#utility.yul\":31420:31494   */\n      swap2\n      pop\n        /* \"#utility.yul\":31503:31596   */\n      tag_754\n        /* \"#utility.yul\":31592:31595   */\n      dup3\n        /* \"#utility.yul\":31503:31596   */\n      tag_417\n      jump\t// in\n    tag_754:\n        /* \"#utility.yul\":31621:31623   */\n      0x20\n        /* \"#utility.yul\":31616:31619   */\n      dup3\n        /* \"#utility.yul\":31612:31624   */\n      add\n        /* \"#utility.yul\":31605:31624   */\n      swap1\n      pop\n        /* \"#utility.yul\":31264:31630   */\n      swap2\n      swap1\n      pop\n      jump\t// out\n        /* \"#utility.yul\":31636:32055   */\n    tag_207:\n        /* \"#utility.yul\":31802:31806   */\n      0x00\n        /* \"#utility.yul\":31840:31842   */\n      0x20\n        /* \"#utility.yul\":31829:31838   */\n      dup3\n        /* \"#utility.yul\":31825:31843   */\n      add\n        /* \"#utility.yul\":31817:31843   */\n      swap1\n      pop\n        /* \"#utility.yul\":31889:31898   */\n      dup2\n        /* \"#utility.yul\":31883:31887   */\n      dup2\n        /* \"#utility.yul\":31879:31899   */\n      sub\n        /* \"#utility.yul\":31875:31876   */\n      0x00\n        /* \"#utility.yul\":31864:31873   */\n      dup4\n        /* \"#utility.yul\":31860:31877   */\n      add\n        /* \"#utility.yul\":31853:31900   */\n      mstore\n        /* \"#utility.yul\":31917:32048   */\n      tag_756\n        /* \"#utility.yul\":32043:32047   */\n      dup2\n        /* \"#utility.yul\":31917:32048   */\n      tag_418\n      jump\t// in\n    tag_756:\n        /* \"#utility.yul\":31909:32048   */\n      swap1\n      pop\n        /* \"#utility.yul\":31636:32055   */\n      swap2\n      swap1\n      pop\n      jump\t// out\n        /* \"#utility.yul\":32061:32241   */\n    tag_419:\n        /* \"#utility.yul\":32201:32233   */\n      0x526f746174696e6720706f74732063616e6e6f74206265206a6f696e65640000\n        /* \"#utility.yul\":32197:32198   */\n      0x00\n        /* \"#utility.yul\":32189:32195   */\n      dup3\n        /* \"#utility.yul\":32185:32199   */\n      add\n        /* \"#utility.yul\":32178:32234   */\n      mstore\n        /* \"#utility.yul\":32061:32241   */\n      pop\n      jump\t// out\n        /* \"#utility.yul\":32247:32613   */\n    tag_420:\n        /* \"#utility.yul\":32389:32392   */\n      0x00\n        /* \"#utility.yul\":32410:32477   */\n      tag_759\n        /* \"#utility.yul\":32474:32476   */\n      0x1e\n        /* \"#utility.yul\":32469:32472   */\n      dup4\n        /* \"#utility.yul\":32410:32477   */\n      tag_370\n      jump\t// in\n    tag_759:\n        /* \"#utility.yul\":32403:32477   */\n      swap2\n      pop\n        /* \"#utility.yul\":32486:32579   */\n      tag_760\n        /* \"#utility.yul\":32575:32578   */\n      dup3\n        /* \"#utility.yul\":32486:32579   */\n      tag_419\n      jump\t// in\n    tag_760:\n        /* \"#utility.yul\":32604:32606   */\n      0x20\n        /* \"#utility.yul\":32599:32602   */\n      dup3\n        /* \"#utility.yul\":32595:32607   */\n      add\n        /* \"#utility.yul\":32588:32607   */\n      swap1\n      pop\n        /* \"#utility.yul\":32247:32613   */\n      swap2\n      swap1\n      pop\n      jump\t// out\n        /* \"#utility.yul\":32619:33038   */\n    tag_210:\n        /* \"#utility.yul\":32785:32789   */\n      0x00\n        /* \"#utility.yul\":32823:32825   */\n      0x20\n        /* \"#utility.yul\":32812:32821   */\n      dup3\n        /* \"#utility.yul\":32808:32826   */\n      add\n        /* \"#utility.yul\":32800:32826   */\n      swap1\n      pop\n        /* \"#utility.yul\":32872:32881   */\n      dup2\n        /* \"#utility.yul\":32866:32870   */\n      dup2\n        /* \"#utility.yul\":32862:32882   */\n      sub\n        /* \"#utility.yul\":32858:32859   */\n      0x00\n        /* \"#utility.yul\":32847:32856   */\n      dup4\n        /* \"#utility.yul\":32843:32860   */\n      add\n        /* \"#utility.yul\":32836:32883   */\n      mstore\n        /* \"#utility.yul\":32900:33031   */\n      tag_762\n        /* \"#utility.yul\":33026:33030   */\n      dup2\n        /* \"#utility.yul\":32900:33031   */\n      tag_420\n      jump\t// in\n    tag_762:\n        /* \"#utility.yul\":32892:33031   */\n      swap1\n      pop\n        /* \"#utility.yul\":32619:33038   */\n      swap2\n      swap1\n      pop\n      jump\t// out\n        /* \"#utility.yul\":33044:33208   */\n    tag_421:\n        /* \"#utility.yul\":33184:33200   */\n      0x416c7265616479206a6f696e6564000000000000000000000000000000000000\n        /* \"#utility.yul\":33180:33181   */\n      0x00\n        /* \"#utility.yul\":33172:33178   */\n      dup3\n        /* \"#utility.yul\":33168:33182   */\n      add\n        /* \"#utility.yul\":33161:33201   */\n      mstore\n        /* \"#utility.yul\":33044:33208   */\n      pop\n      jump\t// out\n        /* \"#utility.yul\":33214:33580   */\n    tag_422:\n        /* \"#utility.yul\":33356:33359   */\n      0x00\n        /* \"#utility.yul\":33377:33444   */\n      tag_765\n        /* \"#utility.yul\":33441:33443   */\n      0x0e\n        /* \"#utility.yul\":33436:33439   */\n      dup4\n        /* \"#utility.yul\":33377:33444   */\n      tag_370\n      jump\t// in\n    tag_765:\n        /* \"#utility.yul\":33370:33444   */\n      swap2\n      pop\n        /* \"#utility.yul\":33453:33546   */\n      tag_766\n        /* \"#utility.yul\":33542:33545   */\n      dup3\n        /* \"#utility.yul\":33453:33546   */\n      tag_421\n      jump\t// in\n    tag_766:\n        /* \"#utility.yul\":33571:33573   */\n      0x20\n        /* \"#utility.yul\":33566:33569   */\n      dup3\n        /* \"#utility.yul\":33562:33574   */\n      add\n        /* \"#utility.yul\":33555:33574   */\n      swap1\n      pop\n        /* \"#utility.yul\":33214:33580   */\n      swap2\n      swap1\n      pop\n      jump\t// out\n        /* \"#utility.yul\":33586:34005   */\n    tag_213:\n        /* \"#utility.yul\":33752:33756   */\n      0x00\n        /* \"#utility.yul\":33790:33792   */\n      0x20\n        /* \"#utility.yul\":33779:33788   */\n      dup3\n        /* \"#utility.yul\":33775:33793   */\n      add\n        /* \"#utility.yul\":33767:33793   */\n      swap1\n      pop\n        /* \"#utility.yul\":33839:33848   */\n      dup2\n        /* \"#utility.yul\":33833:33837   */\n      dup2\n        /* \"#utility.yul\":33829:33849   */\n      sub\n        /* \"#utility.yul\":33825:33826   */\n      0x00\n        /* \"#utility.yul\":33814:33823   */\n      dup4\n        /* \"#utility.yul\":33810:33827   */\n      add\n        /* \"#utility.yul\":33803:33850   */\n      mstore\n        /* \"#utility.yul\":33867:33998   */\n      tag_768\n        /* \"#utility.yul\":33993:33997   */\n      dup2\n        /* \"#utility.yul\":33867:33998   */\n      tag_422\n      jump\t// in\n    tag_768:\n        /* \"#utility.yul\":33859:33998   */\n      swap1\n      pop\n        /* \"#utility.yul\":33586:34005   */\n      swap2\n      swap1\n      pop\n      jump\t// out\n        /* \"#utility.yul\":34011:34176   */\n    tag_423:\n        /* \"#utility.yul\":34151:34168   */\n      0x5472616e73666572206661696c65640000000000000000000000000000000000\n        /* \"#utility.yul\":34147:34148   */\n      0x00\n        /* \"#utility.yul\":34139:34145   */\n      dup3\n        /* \"#utility.yul\":34135:34149   */\n      add\n        /* \"#utility.yul\":34128:34169   */\n      mstore\n        /* \"#utility.yul\":34011:34176   */\n      pop\n      jump\t// out\n        /* \"#utility.yul\":34182:34548   */\n    tag_424:\n        /* \"#utility.yul\":34324:34327   */\n      0x00\n        /* \"#utility.yul\":34345:34412   */\n      tag_771\n        /* \"#utility.yul\":34409:34411   */\n      0x0f\n        /* \"#utility.yul\":34404:34407   */\n      dup4\n        /* \"#utility.yul\":34345:34412   */\n      tag_370\n      jump\t// in\n    tag_771:\n        /* \"#utility.yul\":34338:34412   */\n      swap2\n      pop\n        /* \"#utility.yul\":34421:34514   */\n      tag_772\n        /* \"#utility.yul\":34510:34513   */\n      dup3\n        /* \"#utility.yul\":34421:34514   */\n      tag_423\n      jump\t// in\n    tag_772:\n        /* \"#utility.yul\":34539:34541   */\n      0x20\n        /* \"#utility.yul\":34534:34537   */\n      dup3\n        /* \"#utility.yul\":34530:34542   */\n      add\n        /* \"#utility.yul\":34523:34542   */\n      swap1\n      pop\n        /* \"#utility.yul\":34182:34548   */\n      swap2\n      swap1\n      pop\n      jump\t// out\n        /* \"#utility.yul\":34554:34973   */\n    tag_221:\n        /* \"#utility.yul\":34720:34724   */\n      0x00\n        /* \"#utility.yul\":34758:34760   */\n      0x20\n        /* \"#utility.yul\":34747:34756   */\n      dup3\n        /* \"#utility.yul\":34743:34761   */\n      add\n        /* \"#utility.yul\":34735:34761   */\n      swap1\n      pop\n        /* \"#utility.yul\":34807:34816   */\n      dup2\n        /* \"#utility.yul\":34801:34805   */\n      dup2\n        /* \"#utility.yul\":34797:34817   */\n      sub\n        /* \"#utility.yul\":34793:34794   */\n      0x00\n        /* \"#utility.yul\":34782:34791   */\n      dup4\n        /* \"#utility.yul\":34778:34795   */\n      add\n        /* \"#utility.yul\":34771:34818   */\n      mstore\n        /* \"#utility.yul\":34835:34966   */\n      tag_774\n        /* \"#utility.yul\":34961:34965   */\n      dup2\n        /* \"#utility.yul\":34835:34966   */\n      tag_424\n      jump\t// in\n    tag_774:\n        /* \"#utility.yul\":34827:34966   */\n      swap1\n      pop\n        /* \"#utility.yul\":34554:34973   */\n      swap2\n      swap1\n      pop\n      jump\t// out\n        /* \"#utility.yul\":34979:35865   */\n    tag_224:\n        /* \"#utility.yul\":35240:35244   */\n      0x00\n        /* \"#utility.yul\":35278:35281   */\n      0xe0\n        /* \"#utility.yul\":35267:35276   */\n      dup3\n        /* \"#utility.yul\":35263:35282   */\n      add\n        /* \"#utility.yul\":35255:35282   */\n      swap1\n      pop\n        /* \"#utility.yul\":35292:35363   */\n      tag_776\n        /* \"#utility.yul\":35360:35361   */\n      0x00\n        /* \"#utility.yul\":35349:35358   */\n      dup4\n        /* \"#utility.yul\":35345:35362   */\n      add\n        /* \"#utility.yul\":35336:35342   */\n      dup11\n        /* \"#utility.yul\":35292:35363   */\n      tag_363\n      jump\t// in\n    tag_776:\n        /* \"#utility.yul\":35373:35445   */\n      tag_777\n        /* \"#utility.yul\":35441:35443   */\n      0x20\n        /* \"#utility.yul\":35430:35439   */\n      dup4\n        /* \"#utility.yul\":35426:35444   */\n      add\n        /* \"#utility.yul\":35417:35423   */\n      dup10\n        /* \"#utility.yul\":35373:35445   */\n      tag_366\n      jump\t// in\n    tag_777:\n        /* \"#utility.yul\":35455:35527   */\n      tag_778\n        /* \"#utility.yul\":35523:35525   */\n      0x40\n        /* \"#utility.yul\":35512:35521   */\n      dup4\n        /* \"#utility.yul\":35508:35526   */\n      add\n        /* \"#utility.yul\":35499:35505   */\n      dup9\n        /* \"#utility.yul\":35455:35527   */\n      tag_363\n      jump\t// in\n    tag_778:\n        /* \"#utility.yul\":35537:35609   */\n      tag_779\n        /* \"#utility.yul\":35605:35607   */\n      0x60\n        /* \"#utility.yul\":35594:35603   */\n      dup4\n        /* \"#utility.yul\":35590:35608   */\n      add\n        /* \"#utility.yul\":35581:35587   */\n      dup8\n        /* \"#utility.yul\":35537:35609   */\n      tag_363\n      jump\t// in\n    tag_779:\n        /* \"#utility.yul\":35619:35692   */\n      tag_780\n        /* \"#utility.yul\":35687:35690   */\n      0x80\n        /* \"#utility.yul\":35676:35685   */\n      dup4\n        /* \"#utility.yul\":35672:35691   */\n      add\n        /* \"#utility.yul\":35663:35669   */\n      dup7\n        /* \"#utility.yul\":35619:35692   */\n      tag_363\n      jump\t// in\n    tag_780:\n        /* \"#utility.yul\":35702:35775   */\n      tag_781\n        /* \"#utility.yul\":35770:35773   */\n      0xa0\n        /* \"#utility.yul\":35759:35768   */\n      dup4\n        /* \"#utility.yul\":35755:35774   */\n      add\n        /* \"#utility.yul\":35746:35752   */\n      dup6\n        /* \"#utility.yul\":35702:35775   */\n      tag_363\n      jump\t// in\n    tag_781:\n        /* \"#utility.yul\":35785:35858   */\n      tag_782\n        /* \"#utility.yul\":35853:35856   */\n      0xc0\n        /* \"#utility.yul\":35842:35851   */\n      dup4\n        /* \"#utility.yul\":35838:35857   */\n      add\n        /* \"#utility.yul\":35829:35835   */\n      dup5\n        /* \"#utility.yul\":35785:35858   */\n      tag_363\n      jump\t// in\n    tag_782:\n        /* \"#utility.yul\":34979:35865   */\n      swap9\n      swap8\n      pop\n      pop\n      pop\n      pop\n      pop\n      pop\n      pop\n      pop\n      jump\t// out\n        /* \"#utility.yul\":35871:36100   */\n    tag_425:\n        /* \"#utility.yul\":36011:36045   */\n      0x4f6e6c792074686520706f742063726561746f722063616e2072657665616c20\n        /* \"#utility.yul\":36007:36008   */\n      0x00\n        /* \"#utility.yul\":35999:36005   */\n      dup3\n        /* \"#utility.yul\":35995:36009   */\n      add\n        /* \"#utility.yul\":35988:36046   */\n      mstore\n        /* \"#utility.yul\":36080:36092   */\n      0x7468652077696e6e657200000000000000000000000000000000000000000000\n        /* \"#utility.yul\":36075:36077   */\n      0x20\n        /* \"#utility.yul\":36067:36073   */\n      dup3\n        /* \"#utility.yul\":36063:36078   */\n      add\n        /* \"#utility.yul\":36056:36093   */\n      mstore\n        /* \"#utility.yul\":35871:36100   */\n      pop\n      jump\t// out\n        /* \"#utility.yul\":36106:36472   */\n    tag_426:\n        /* \"#utility.yul\":36248:36251   */\n      0x00\n        /* \"#utility.yul\":36269:36336   */\n      tag_785\n        /* \"#utility.yul\":36333:36335   */\n      0x2a\n        /* \"#utility.yul\":36328:36331   */\n      dup4\n        /* \"#utility.yul\":36269:36336   */\n      tag_370\n      jump\t// in\n    tag_785:\n        /* \"#utility.yul\":36262:36336   */\n      swap2\n      pop\n        /* \"#utility.yul\":36345:36438   */\n      tag_786\n        /* \"#utility.yul\":36434:36437   */\n      dup3\n        /* \"#utility.yul\":36345:36438   */\n      tag_425\n      jump\t// in\n    tag_786:\n        /* \"#utility.yul\":36463:36465   */\n      0x40\n        /* \"#utility.yul\":36458:36461   */\n      dup3\n        /* \"#utility.yul\":36454:36466   */\n      add\n        /* \"#utility.yul\":36447:36466   */\n      swap1\n      pop\n        /* \"#utility.yul\":36106:36472   */\n      swap2\n      swap1\n      pop\n      jump\t// out\n        /* \"#utility.yul\":36478:36897   */\n    tag_237:\n        /* \"#utility.yul\":36644:36648   */\n      0x00\n        /* \"#utility.yul\":36682:36684   */\n      0x20\n        /* \"#utility.yul\":36671:36680   */\n      dup3\n        /* \"#utility.yul\":36667:36685   */\n      add\n        /* \"#utility.yul\":36659:36685   */\n      swap1\n      pop\n        /* \"#utility.yul\":36731:36740   */\n      dup2\n        /* \"#utility.yul\":36725:36729   */\n      dup2\n        /* \"#utility.yul\":36721:36741   */\n      sub\n        /* \"#utility.yul\":36717:36718   */\n      0x00\n        /* \"#utility.yul\":36706:36715   */\n      dup4\n        /* \"#utility.yul\":36702:36719   */\n      add\n        /* \"#utility.yul\":36695:36742   */\n      mstore\n        /* \"#utility.yul\":36759:36890   */\n      tag_788\n        /* \"#utility.yul\":36885:36889   */\n      dup2\n        /* \"#utility.yul\":36759:36890   */\n      tag_426\n      jump\t// in\n    tag_788:\n        /* \"#utility.yul\":36751:36890   */\n      swap1\n      pop\n        /* \"#utility.yul\":36478:36897   */\n      swap2\n      swap1\n      pop\n      jump\t// out\n        /* \"#utility.yul\":36903:37094   */\n    tag_239:\n        /* \"#utility.yul\":36943:36946   */\n      0x00\n        /* \"#utility.yul\":36962:36982   */\n      tag_790\n        /* \"#utility.yul\":36980:36981   */\n      dup3\n        /* \"#utility.yul\":36962:36982   */\n      tag_344\n      jump\t// in\n    tag_790:\n        /* \"#utility.yul\":36957:36982   */\n      swap2\n      pop\n        /* \"#utility.yul\":36996:37016   */\n      tag_791\n        /* \"#utility.yul\":37014:37015   */\n      dup4\n        /* \"#utility.yul\":36996:37016   */\n      tag_344\n      jump\t// in\n    tag_791:\n        /* \"#utility.yul\":36991:37016   */\n      swap3\n      pop\n        /* \"#utility.yul\":37039:37040   */\n      dup3\n        /* \"#utility.yul\":37036:37037   */\n      dup3\n        /* \"#utility.yul\":37032:37041   */\n      add\n        /* \"#utility.yul\":37025:37041   */\n      swap1\n      pop\n        /* \"#utility.yul\":37060:37063   */\n      dup1\n        /* \"#utility.yul\":37057:37058   */\n      dup3\n        /* \"#utility.yul\":37054:37064   */\n      gt\n        /* \"#utility.yul\":37051:37087   */\n      iszero\n      tag_792\n      jumpi\n        /* \"#utility.yul\":37067:37085   */\n      tag_793\n      tag_379\n      jump\t// in\n    tag_793:\n        /* \"#utility.yul\":37051:37087   */\n    tag_792:\n        /* \"#utility.yul\":36903:37094   */\n      swap3\n      swap2\n      pop\n      pop\n      jump\t// out\n        /* \"#utility.yul\":37100:37275   */\n    tag_427:\n        /* \"#utility.yul\":37240:37267   */\n      0x4e65787420726f746174696f6e206e6f74207965742064756500000000000000\n        /* \"#utility.yul\":37236:37237   */\n      0x00\n        /* \"#utility.yul\":37228:37234   */\n      dup3\n        /* \"#utility.yul\":37224:37238   */\n      add\n        /* \"#utility.yul\":37217:37268   */\n      mstore\n        /* \"#utility.yul\":37100:37275   */\n      pop\n      jump\t// out\n        /* \"#utility.yul\":37281:37647   */\n    tag_428:\n        /* \"#utility.yul\":37423:37426   */\n      0x00\n        /* \"#utility.yul\":37444:37511   */\n      tag_796\n        /* \"#utility.yul\":37508:37510   */\n      0x19\n        /* \"#utility.yul\":37503:37506   */\n      dup4\n        /* \"#utility.yul\":37444:37511   */\n      tag_370\n      jump\t// in\n    tag_796:\n        /* \"#utility.yul\":37437:37511   */\n      swap2\n      pop\n        /* \"#utility.yul\":37520:37613   */\n      tag_797\n        /* \"#utility.yul\":37609:37612   */\n      dup3\n        /* \"#utility.yul\":37520:37613   */\n      tag_427\n      jump\t// in\n    tag_797:\n        /* \"#utility.yul\":37638:37640   */\n      0x20\n        /* \"#utility.yul\":37633:37636   */\n      dup3\n        /* \"#utility.yul\":37629:37641   */\n      add\n        /* \"#utility.yul\":37622:37641   */\n      swap1\n      pop\n        /* \"#utility.yul\":37281:37647   */\n      swap2\n      swap1\n      pop\n      jump\t// out\n        /* \"#utility.yul\":37653:38072   */\n    tag_242:\n        /* \"#utility.yul\":37819:37823   */\n      0x00\n        /* \"#utility.yul\":37857:37859   */\n      0x20\n        /* \"#utility.yul\":37846:37855   */\n      dup3\n        /* \"#utility.yul\":37842:37860   */\n      add\n        /* \"#utility.yul\":37834:37860   */\n      swap1\n      pop\n        /* \"#utility.yul\":37906:37915   */\n      dup2\n        /* \"#utility.yul\":37900:37904   */\n      dup2\n        /* \"#utility.yul\":37896:37916   */\n      sub\n        /* \"#utility.yul\":37892:37893   */\n      0x00\n        /* \"#utility.yul\":37881:37890   */\n      dup4\n        /* \"#utility.yul\":37877:37894   */\n      add\n        /* \"#utility.yul\":37870:37917   */\n      mstore\n        /* \"#utility.yul\":37934:38065   */\n      tag_799\n        /* \"#utility.yul\":38060:38064   */\n      dup2\n        /* \"#utility.yul\":37934:38065   */\n      tag_428\n      jump\t// in\n    tag_799:\n        /* \"#utility.yul\":37926:38065   */\n      swap1\n      pop\n        /* \"#utility.yul\":37653:38072   */\n      swap2\n      swap1\n      pop\n      jump\t// out\n        /* \"#utility.yul\":38078:38258   */\n    tag_429:\n        /* \"#utility.yul\":38126:38203   */\n      0x4e487b7100000000000000000000000000000000000000000000000000000000\n        /* \"#utility.yul\":38123:38124   */\n      0x00\n        /* \"#utility.yul\":38116:38204   */\n      mstore\n        /* \"#utility.yul\":38223:38227   */\n      0x12\n        /* \"#utility.yul\":38220:38221   */\n      0x04\n        /* \"#utility.yul\":38213:38228   */\n      mstore\n        /* \"#utility.yul\":38247:38251   */\n      0x24\n        /* \"#utility.yul\":38244:38245   */\n      0x00\n        /* \"#utility.yul\":38237:38252   */\n      revert\n        /* \"#utility.yul\":38264:38440   */\n    tag_244:\n        /* \"#utility.yul\":38296:38297   */\n      0x00\n        /* \"#utility.yul\":38313:38333   */\n      tag_802\n        /* \"#utility.yul\":38331:38332   */\n      dup3\n        /* \"#utility.yul\":38313:38333   */\n      tag_344\n      jump\t// in\n    tag_802:\n        /* \"#utility.yul\":38308:38333   */\n      swap2\n      pop\n        /* \"#utility.yul\":38347:38367   */\n      tag_803\n        /* \"#utility.yul\":38365:38366   */\n      dup4\n        /* \"#utility.yul\":38347:38367   */\n      tag_344\n      jump\t// in\n    tag_803:\n        /* \"#utility.yul\":38342:38367   */\n      swap3\n      pop\n        /* \"#utility.yul\":38386:38387   */\n      dup3\n        /* \"#utility.yul\":38376:38411   */\n      tag_804\n      jumpi\n        /* \"#utility.yul\":38391:38409   */\n      tag_805\n      tag_429\n      jump\t// in\n    tag_805:\n        /* \"#utility.yul\":38376:38411   */\n    tag_804:\n        /* \"#utility.yul\":38432:38433   */\n      dup3\n        /* \"#utility.yul\":38429:38430   */\n      dup3\n        /* \"#utility.yul\":38425:38434   */\n      mod\n        /* \"#utility.yul\":38420:38434   */\n      swap1\n      pop\n        /* \"#utility.yul\":38264:38440   */\n      swap3\n      swap2\n      pop\n      pop\n      jump\t// out\n        /* \"#utility.yul\":38446:38626   */\n    tag_247:\n        /* \"#utility.yul\":38494:38571   */\n      0x4e487b7100000000000000000000000000000000000000000000000000000000\n        /* \"#utility.yul\":38491:38492   */\n      0x00\n        /* \"#utility.yul\":38484:38572   */\n      mstore\n        /* \"#utility.yul\":38591:38595   */\n      0x32\n        /* \"#utility.yul\":38588:38589   */\n      0x04\n        /* \"#utility.yul\":38581:38596   */\n      mstore\n        /* \"#utility.yul\":38615:38619   */\n      0x24\n        /* \"#utility.yul\":38612:38613   */\n      0x00\n        /* \"#utility.yul\":38605:38620   */\n      revert\n        /* \"#utility.yul\":38632:39042   */\n    tag_250:\n        /* \"#utility.yul\":38672:38679   */\n      0x00\n        /* \"#utility.yul\":38695:38715   */\n      tag_808\n        /* \"#utility.yul\":38713:38714   */\n      dup3\n        /* \"#utility.yul\":38695:38715   */\n      tag_344\n      jump\t// in\n    tag_808:\n        /* \"#utility.yul\":38690:38715   */\n      swap2\n      pop\n        /* \"#utility.yul\":38729:38749   */\n      tag_809\n        /* \"#utility.yul\":38747:38748   */\n      dup4\n        /* \"#utility.yul\":38729:38749   */\n      tag_344\n      jump\t// in\n    tag_809:\n        /* \"#utility.yul\":38724:38749   */\n      swap3\n      pop\n        /* \"#utility.yul\":38784:38785   */\n      dup3\n        /* \"#utility.yul\":38781:38782   */\n      dup3\n        /* \"#utility.yul\":38777:38786   */\n      mul\n        /* \"#utility.yul\":38806:38836   */\n      tag_810\n        /* \"#utility.yul\":38824:38835   */\n      dup2\n        /* \"#utility.yul\":38806:38836   */\n      tag_344\n      jump\t// in\n    tag_810:\n        /* \"#utility.yul\":38795:38836   */\n      swap2\n      pop\n        /* \"#utility.yul\":38985:38986   */\n      dup3\n        /* \"#utility.yul\":38976:38983   */\n      dup3\n        /* \"#utility.yul\":38972:38987   */\n      div\n        /* \"#utility.yul\":38969:38970   */\n      dup5\n        /* \"#utility.yul\":38966:38988   */\n      eq\n        /* \"#utility.yul\":38946:38947   */\n      dup4\n        /* \"#utility.yul\":38939:38948   */\n      iszero\n        /* \"#utility.yul\":38919:39002   */\n      or\n        /* \"#utility.yul\":38896:39035   */\n      tag_811\n      jumpi\n        /* \"#utility.yul\":39015:39033   */\n      tag_812\n      tag_379\n      jump\t// in\n    tag_812:\n        /* \"#utility.yul\":38896:39035   */\n    tag_811:\n        /* \"#utility.yul\":38680:39042   */\n      pop\n        /* \"#utility.yul\":38632:39042   */\n      swap3\n      swap2\n      pop\n      pop\n      jump\t// out\n        /* \"#utility.yul\":39048:39490   */\n    tag_260:\n        /* \"#utility.yul\":39197:39201   */\n      0x00\n        /* \"#utility.yul\":39235:39237   */\n      0x60\n        /* \"#utility.yul\":39224:39233   */\n      dup3\n        /* \"#utility.yul\":39220:39238   */\n      add\n        /* \"#utility.yul\":39212:39238   */\n      swap1\n      pop\n        /* \"#utility.yul\":39248:39319   */\n      tag_814\n        /* \"#utility.yul\":39316:39317   */\n      0x00\n        /* \"#utility.yul\":39305:39314   */\n      dup4\n        /* \"#utility.yul\":39301:39318   */\n      add\n        /* \"#utility.yul\":39292:39298   */\n      dup7\n        /* \"#utility.yul\":39248:39319   */\n      tag_363\n      jump\t// in\n    tag_814:\n        /* \"#utility.yul\":39329:39401   */\n      tag_815\n        /* \"#utility.yul\":39397:39399   */\n      0x20\n        /* \"#utility.yul\":39386:39395   */\n      dup4\n        /* \"#utility.yul\":39382:39400   */\n      add\n        /* \"#utility.yul\":39373:39379   */\n      dup6\n        /* \"#utility.yul\":39329:39401   */\n      tag_366\n      jump\t// in\n    tag_815:\n        /* \"#utility.yul\":39411:39483   */\n      tag_816\n        /* \"#utility.yul\":39479:39481   */\n      0x40\n        /* \"#utility.yul\":39468:39477   */\n      dup4\n        /* \"#utility.yul\":39464:39482   */\n      add\n        /* \"#utility.yul\":39455:39461   */\n      dup5\n        /* \"#utility.yul\":39411:39483   */\n      tag_363\n      jump\t// in\n    tag_816:\n        /* \"#utility.yul\":39048:39490   */\n      swap5\n      swap4\n      pop\n      pop\n      pop\n      pop\n      jump\t// out\n        /* \"#utility.yul\":39496:39681   */\n    tag_265:\n        /* \"#utility.yul\":39536:39537   */\n      0x00\n        /* \"#utility.yul\":39553:39573   */\n      tag_818\n        /* \"#utility.yul\":39571:39572   */\n      dup3\n        /* \"#utility.yul\":39553:39573   */\n      tag_344\n      jump\t// in\n    tag_818:\n        /* \"#utility.yul\":39548:39573   */\n      swap2\n      pop\n        /* \"#utility.yul\":39587:39607   */\n      tag_819\n        /* \"#utility.yul\":39605:39606   */\n      dup4\n        /* \"#utility.yul\":39587:39607   */\n      tag_344\n      jump\t// in\n    tag_819:\n        /* \"#utility.yul\":39582:39607   */\n      swap3\n      pop\n        /* \"#utility.yul\":39626:39627   */\n      dup3\n        /* \"#utility.yul\":39616:39651   */\n      tag_820\n      jumpi\n        /* \"#utility.yul\":39631:39649   */\n      tag_821\n      tag_429\n      jump\t// in\n    tag_821:\n        /* \"#utility.yul\":39616:39651   */\n    tag_820:\n        /* \"#utility.yul\":39673:39674   */\n      dup3\n        /* \"#utility.yul\":39670:39671   */\n      dup3\n        /* \"#utility.yul\":39666:39675   */\n      div\n        /* \"#utility.yul\":39661:39675   */\n      swap1\n      pop\n        /* \"#utility.yul\":39496:39681   */\n      swap3\n      swap2\n      pop\n      pop\n      jump\t// out\n\n    auxdata: 0xa26469706673582212204fd561277f41dc28814e39afaac0eab22a23bc97c9fa99e274cc03957f9d5ae064736f6c63430008180033\n}\n",
				"bytecode": {
					"linkReferences": {},
					"object": "60806040526001805534801562000014575f80fd5b5073420000000000000000000000000000000000002273ffffffffffffffffffffffffffffffffffffffff16631a33757d60026040518263ffffffff1660e01b815260040162000065919062000282565b6020604051808303815f875af115801562000082573d5f803e3d5ffd5b505050506040513d601f19601f82011682018060405250810190620000a89190620002d9565b5073420000000000000000000000000000000000002260035f6101000a81548173ffffffffffffffffffffffffffffffffffffffff021916908373ffffffffffffffffffffffffffffffffffffffff16021790555073430000000000000000000000000000000000000273ffffffffffffffffffffffffffffffffffffffff16634e606c476040518163ffffffff1660e01b81526004015f604051808303815f87803b15801562000157575f80fd5b505af11580156200016a573d5f803e3d5ffd5b50505050732fc95838c71e76ec69ff817983bff17c710f34e073ffffffffffffffffffffffffffffffffffffffff166336b91f2b73e4860d3973802c7c42450d7b9741921c7711d0396040518263ffffffff1660e01b8152600401620001d191906200034c565b5f604051808303815f87803b158015620001e9575f80fd5b505af1158015620001fc573d5f803e3d5ffd5b5050505062000367565b7f4e487b71000000000000000000000000000000000000000000000000000000005f52602160045260245ffd5b6003811062000247576200024662000206565b5b50565b5f819050620002598262000233565b919050565b5f6200026a826200024a565b9050919050565b6200027c816200025e565b82525050565b5f602082019050620002975f83018462000271565b92915050565b5f80fd5b5f819050919050565b620002b581620002a1565b8114620002c0575f80fd5b50565b5f81519050620002d381620002aa565b92915050565b5f60208284031215620002f157620002f06200029d565b5b5f6200030084828501620002c3565b91505092915050565b5f73ffffffffffffffffffffffffffffffffffffffff82169050919050565b5f620003348262000309565b9050919050565b620003468162000328565b82525050565b5f602082019050620003615f8301846200033b565b92915050565b612dc880620003755f395ff3fe608060405260043610610113575f3560e01c80637cb647591161009f578063bf2d9e0b11610063578063bf2d9e0b14610311578063c3c3df4f1461033b578063ef922b871461037f578063efdd7c07146103a7578063f2fde38b146103e357610113565b80637cb64759146102635780638129fc1c1461028b578063831d49ef146102a15780638da5cb5b146102bd57806397d75776146102e757610113565b80634a80409e116100e65780634a80409e146101a957806361e7d805146101d3578063715018a6146101fb57806373b2e80e1461021157806377d5d2dc1461024d57610113565b8063103a40ca146101175780632eb4a7ab1461013f57806331a0edec14610169578063409a33ce14610193575b5f80fd5b348015610122575f80fd5b5061013d60048036038101906101389190611aa6565b61040b565b005b34801561014a575f80fd5b506101536106e6565b6040516101609190611b63565b60405180910390f35b348015610174575f80fd5b5061017d6106eb565b60405161018a9190611bf6565b60405180910390f35b34801561019e575f80fd5b506101a7610703565b005b3480156101b4575f80fd5b506101bd610828565b6040516101ca9190611c2f565b60405180910390f35b3480156101de575f80fd5b506101f960048036038101906101f49190611ca5565b61084d565b005b348015610206575f80fd5b5061020f610abb565b005b34801561021c575f80fd5b5061023760048036038101906102329190611d3d565b610ace565b6040516102449190611d77565b60405180910390f35b348015610258575f80fd5b50610261610ae3565b005b34801561026e575f80fd5b5061028960048036038101906102849190611dba565b610b7d565b005b348015610296575f80fd5b5061029f610b8e565b005b6102bb60048036038101906102b69190611de5565b610d0e565b005b3480156102c8575f80fd5b506102d1611026565b6040516102de9190611e1f565b60405180910390f35b3480156102f2575f80fd5b506102fb61105b565b6040516103089190611e58565b60405180910390f35b34801561031c575f80fd5b50610325611073565b6040516103329190611d77565b60405180910390f35b348015610346575f80fd5b50610361600480360381019061035c9190611de5565b611079565b60405161037699989796959493929190611eeb565b60405180910390f35b34801561038a575f80fd5b506103a560048036038101906103a09190611de5565b611168565b005b3480156103b2575f80fd5b506103cd60048036038101906103c89190611f7d565b611441565b6040516103da9190611d77565b60405180910390f35b3480156103ee575f80fd5b5061040960048036038101906104049190611d3d565b61147e565b005b5f851161044d576040517f08c379a000000000000000000000000000000000000000000000000000000000815260040161044490612005565b60405180910390fd5b5f841161048f576040517f08c379a000000000000000000000000000000000000000000000000000000000815260040161048690612093565b60405180910390fd5b838311156104d2576040517f08c379a00000000000000000000000000000000000000000000000000000000081526004016104c990612121565b60405180910390fd5b5f60015f8154809291906104e59061216c565b91905055905060605f6104f784611502565b905060035f9054906101000a900473ffffffffffffffffffffffffffffffffffffffff1673ffffffffffffffffffffffffffffffffffffffff166323b872dd3330846040518463ffffffff1660e01b8152600401610557939291906121b3565b6020604051808303815f875af1158015610573573d5f803e3d5ffd5b505050506040513d601f19601f82011682018060405250810190610597919061221d565b6105d6576040517f08c379a00000000000000000000000000000000000000000000000000000000081526004016105cd906122b8565b60405180910390fd5b5f60055f8581526020019081526020015f20905089815f0190816105fa91906124c7565b5084816001018190555033816008015f6101000a81548173ffffffffffffffffffffffffffffffffffffffff021916908373ffffffffffffffffffffffffffffffffffffffff1602179055508881600201819055508681600401819055508781600501819055504281600301819055508581600601819055505f816007018190555082816009019080519060200190610694929190611884565b507f27c4aafcf7db602399ae51626a035d24ff9855ed20035e2895e808f9e76f1660848b33888d8c8e8d6040516106d2989796959493929190612596565b60405180910390a150505050505050505050565b5f5481565b73420000000000000000000000000000000000002281565b61070b61153f565b73420000000000000000000000000000000000002273ffffffffffffffffffffffffffffffffffffffff1663aad3ec963073420000000000000000000000000000000000002273ffffffffffffffffffffffffffffffffffffffff1663e12f3a61306040518263ffffffff1660e01b81526004016107899190611e1f565b602060405180830381865afa1580156107a4573d5f803e3d5ffd5b505050506040513d601f19601f820116820180604052508101906107c8919061262d565b6040518363ffffffff1660e01b81526004016107e5929190612658565b6020604051808303815f875af1158015610801573d5f803e3d5ffd5b505050506040513d601f19601f82011682018060405250810190610825919061262d565b50565b60035f9054906101000a900473ffffffffffffffffffffffffffffffffffffffff1681565b5f33846040516020016108619291906126e4565b6040516020818303038152906040528051906020012090506108c58383808060200260200160405190810160405280939291908181526020018383602002808284375f81840152601f19601f820116905080830192505050505050505f54836115c6565b610904576040517f08c379a00000000000000000000000000000000000000000000000000000000081526004016108fb90612759565b60405180910390fd5b5f60045f3373ffffffffffffffffffffffffffffffffffffffff1673ffffffffffffffffffffffffffffffffffffffff1681526020019081526020015f20549050848110610987576040517f08c379a000000000000000000000000000000000000000000000000000000000815260040161097e906127e7565b60405180910390fd5b5f81866109949190612805565b90508560045f3373ffffffffffffffffffffffffffffffffffffffff1673ffffffffffffffffffffffffffffffffffffffff1681526020019081526020015f208190555060035f9054906101000a900473ffffffffffffffffffffffffffffffffffffffff1673ffffffffffffffffffffffffffffffffffffffff1663a9059cbb33836040518363ffffffff1660e01b8152600401610a34929190612658565b6020604051808303815f875af1158015610a50573d5f803e3d5ffd5b505050506040513d601f19601f82011682018060405250810190610a74919061221d565b610ab3576040517f08c379a0000000000000000000000000000000000000000000000000000000008152600401610aaa90612882565b60405180910390fd5b505050505050565b610ac361153f565b610acc5f6115dc565b565b6004602052805f5260405f205f915090505481565b610aeb61153f565b73430000000000000000000000000000000000000273ffffffffffffffffffffffffffffffffffffffff1663954fa5ee30306040518363ffffffff1660e01b8152600401610b3a9291906128a0565b6020604051808303815f875af1158015610b56573d5f803e3d5ffd5b505050506040513d601f19601f82011682018060405250810190610b7a919061262d565b50565b610b8561153f565b805f8190555050565b5f610b976116ad565b90505f815f0160089054906101000a900460ff161590505f825f015f9054906101000a900467ffffffffffffffff1690505f808267ffffffffffffffff16148015610bdf5750825b90505f60018367ffffffffffffffff16148015610c1257505f3073ffffffffffffffffffffffffffffffffffffffff163b145b905081158015610c20575080155b15610c57576040517ff92ee8a900000000000000000000000000000000000000000000000000000000815260040160405180910390fd5b6001855f015f6101000a81548167ffffffffffffffff021916908367ffffffffffffffff1602179055508315610ca4576001855f0160086101000a81548160ff0219169083151502179055505b610cad336116d4565b8315610d07575f855f0160086101000a81548160ff0219169083151502179055507fc7f505b2f371ae2175ee4913f4499e1f2633a7b5936321eed1cdaeb6115181d26001604051610cfe9190612913565b60405180910390a15b5050505050565b5f60055f8381526020019081526020015f2090508060060154816009018054905010610d6f576040517f08c379a0000000000000000000000000000000000000000000000000000000008152600401610d6690612976565b60405180910390fd5b6001816007015410610db6576040517f08c379a0000000000000000000000000000000000000000000000000000000008152600401610dad906129de565b60405180910390fd5b5f81600a015f3373ffffffffffffffffffffffffffffffffffffffff1673ffffffffffffffffffffffffffffffffffffffff1681526020019081526020015f205414610e37576040517f08c379a0000000000000000000000000000000000000000000000000000000008152600401610e2e90612a46565b60405180910390fd5b5f610e458260010154611502565b905060035f9054906101000a900473ffffffffffffffffffffffffffffffffffffffff1673ffffffffffffffffffffffffffffffffffffffff166323b872dd3330846040518463ffffffff1660e01b8152600401610ea5939291906121b3565b6020604051808303815f875af1158015610ec1573d5f803e3d5ffd5b505050506040513d601f19601f82011682018060405250810190610ee5919061221d565b610f24576040517f08c379a0000000000000000000000000000000000000000000000000000000008152600401610f1b90612aae565b60405180910390fd5b8082600a015f3373ffffffffffffffffffffffffffffffffffffffff1673ffffffffffffffffffffffffffffffffffffffff1681526020019081526020015f20819055508160090133908060018154018082558091505060019003905f5260205f20015f9091909190916101000a81548173ffffffffffffffffffffffffffffffffffffffff021916908373ffffffffffffffffffffffffffffffffffffffff1602179055507f7940335f2934b328362e6c325cd06ad0bc653662a5d556304d09ef5c2cc74a768333846001015485600201548660040154876005015488600601546040516110199796959493929190612acc565b60405180910390a1505050565b5f806110306116e8565b9050805f015f9054906101000a900473ffffffffffffffffffffffffffffffffffffffff1691505090565b73430000000000000000000000000000000000000281565b60025481565b6005602052805f5260405f205f91509050805f01805461109890612303565b80601f01602080910402602001604051908101604052809291908181526020018280546110c490612303565b801561110f5780601f106110e65761010080835404028352916020019161110f565b820191905f5260205f20905b8154815290600101906020018083116110f257829003601f168201915b505050505090806001015490806002015490806003015490806004015490806005015490806006015490806007015490806008015f9054906101000a900473ffffffffffffffffffffffffffffffffffffffff16905089565b3373ffffffffffffffffffffffffffffffffffffffff1660055f8381526020019081526020015f206008015f9054906101000a900473ffffffffffffffffffffffffffffffffffffffff1673ffffffffffffffffffffffffffffffffffffffff1614611209576040517f08c379a000000000000000000000000000000000000000000000000000000000815260040161120090612ba9565b60405180910390fd5b5f60055f8381526020019081526020015f209050806002015481600301546112319190612bc7565b421015611273576040517f08c379a000000000000000000000000000000000000000000000000000000000815260040161126a90612c44565b60405180910390fd5b5f816006015482600701546112889190612c8f565b90505f8260090182815481106112a1576112a0612cbf565b5b905f5260205f20015f9054906101000a900473ffffffffffffffffffffffffffffffffffffffff1690505f836001015484600901805490506112e39190612cec565b90505f6112f08683611441565b905060035f9054906101000a900473ffffffffffffffffffffffffffffffffffffffff1673ffffffffffffffffffffffffffffffffffffffff1663a9059cbb33838561133c9190612805565b6040518363ffffffff1660e01b8152600401611359929190612658565b6020604051808303815f875af1158015611375573d5f803e3d5ffd5b505050506040513d601f19601f82011682018060405250810190611399919061221d565b6113d8576040517f08c379a00000000000000000000000000000000000000000000000000000000081526004016113cf90612882565b60405180910390fd5b4285600301819055507f35cb3811461cb824b245820eee97ab50ee1cc609f2bdd3bb10f5f0010184a7d38684876007015460405161141893929190612d2d565b60405180910390a1846007015f8154809291906114349061216c565b9190505550505050505050565b5f8060055f8581526020019081526020015f209050806005015481600401548461146b9190612cec565b6114759190612d62565b91505092915050565b61148661153f565b5f73ffffffffffffffffffffffffffffffffffffffff168173ffffffffffffffffffffffffffffffffffffffff16036114f6575f6040517f1e4fbdf70000000000000000000000000000000000000000000000000000000081526004016114ed9190611e1f565b60405180910390fd5b6114ff816115dc565b50565b5f806064836115119190612d62565b9050808361151f9190612805565b91508060025f8282546115329190612bc7565b9250508190555050919050565b61154761170f565b73ffffffffffffffffffffffffffffffffffffffff16611565611026565b73ffffffffffffffffffffffffffffffffffffffff16146115c45761158861170f565b6040517f118cdaa70000000000000000000000000000000000000000000000000000000081526004016115bb9190611e1f565b60405180910390fd5b565b5f826115d28584611716565b1490509392505050565b5f6115e56116e8565b90505f815f015f9054906101000a900473ffffffffffffffffffffffffffffffffffffffff16905082825f015f6101000a81548173ffffffffffffffffffffffffffffffffffffffff021916908373ffffffffffffffffffffffffffffffffffffffff1602179055508273ffffffffffffffffffffffffffffffffffffffff168173ffffffffffffffffffffffffffffffffffffffff167f8be0079c531659141344cd1fd0a4f28419497f9722a3daafe3b4186f6b6457e060405160405180910390a3505050565b5f7ff0c57e16840df040f15088dc2f81fe391c3923bec73e23a9662efc9c229c6a00905090565b6116dc611764565b6116e5816117a4565b50565b5f7f9016d09d72d40fdae2fd8ceac6b6234c7706214fd39c1cd1e609a0528c199300905090565b5f33905090565b5f808290505f5b84518110156117595761174a8286838151811061173d5761173c612cbf565b5b6020026020010151611828565b9150808060010191505061171d565b508091505092915050565b61176c611852565b6117a2576040517fd7e6bcf800000000000000000000000000000000000000000000000000000000815260040160405180910390fd5b565b6117ac611764565b5f73ffffffffffffffffffffffffffffffffffffffff168173ffffffffffffffffffffffffffffffffffffffff160361181c575f6040517f1e4fbdf70000000000000000000000000000000000000000000000000000000081526004016118139190611e1f565b60405180910390fd5b611825816115dc565b50565b5f81831061183f5761183a8284611870565b61184a565b6118498383611870565b5b905092915050565b5f61185b6116ad565b5f0160089054906101000a900460ff16905090565b5f825f528160205260405f20905092915050565b828054828255905f5260205f209081019282156118fa579160200282015b828111156118f9578251825f6101000a81548173ffffffffffffffffffffffffffffffffffffffff021916908373ffffffffffffffffffffffffffffffffffffffff160217905550916020019190600101906118a2565b5b509050611907919061190b565b5090565b5b80821115611922575f815f90555060010161190c565b5090565b5f604051905090565b5f80fd5b5f80fd5b5f80fd5b5f80fd5b5f601f19601f8301169050919050565b7f4e487b71000000000000000000000000000000000000000000000000000000005f52604160045260245ffd5b6119858261193f565b810181811067ffffffffffffffff821117156119a4576119a361194f565b5b80604052505050565b5f6119b6611926565b90506119c2828261197c565b919050565b5f67ffffffffffffffff8211156119e1576119e061194f565b5b6119ea8261193f565b9050602081019050919050565b828183375f83830152505050565b5f611a17611a12846119c7565b6119ad565b905082815260208101848484011115611a3357611a3261193b565b5b611a3e8482856119f7565b509392505050565b5f82601f830112611a5a57611a59611937565b5b8135611a6a848260208601611a05565b91505092915050565b5f819050919050565b611a8581611a73565b8114611a8f575f80fd5b50565b5f81359050611aa081611a7c565b92915050565b5f805f805f8060c08789031215611ac057611abf61192f565b5b5f87013567ffffffffffffffff811115611add57611adc611933565b5b611ae989828a01611a46565b9650506020611afa89828a01611a92565b9550506040611b0b89828a01611a92565b9450506060611b1c89828a01611a92565b9350506080611b2d89828a01611a92565b92505060a0611b3e89828a01611a92565b9150509295509295509295565b5f819050919050565b611b5d81611b4b565b82525050565b5f602082019050611b765f830184611b54565b92915050565b5f73ffffffffffffffffffffffffffffffffffffffff82169050919050565b5f819050919050565b5f611bbe611bb9611bb484611b7c565b611b9b565b611b7c565b9050919050565b5f611bcf82611ba4565b9050919050565b5f611be082611bc5565b9050919050565b611bf081611bd6565b82525050565b5f602082019050611c095f830184611be7565b92915050565b5f611c1982611bc5565b9050919050565b611c2981611c0f565b82525050565b5f602082019050611c425f830184611c20565b92915050565b5f80fd5b5f80fd5b5f8083601f840112611c6557611c64611937565b5b8235905067ffffffffffffffff811115611c8257611c81611c48565b5b602083019150836020820283011115611c9e57611c9d611c4c565b5b9250929050565b5f805f60408486031215611cbc57611cbb61192f565b5b5f611cc986828701611a92565b935050602084013567ffffffffffffffff811115611cea57611ce9611933565b5b611cf686828701611c50565b92509250509250925092565b5f611d0c82611b7c565b9050919050565b611d1c81611d02565b8114611d26575f80fd5b50565b5f81359050611d3781611d13565b92915050565b5f60208284031215611d5257611d5161192f565b5b5f611d5f84828501611d29565b91505092915050565b611d7181611a73565b82525050565b5f602082019050611d8a5f830184611d68565b92915050565b611d9981611b4b565b8114611da3575f80fd5b50565b5f81359050611db481611d90565b92915050565b5f60208284031215611dcf57611dce61192f565b5b5f611ddc84828501611da6565b91505092915050565b5f60208284031215611dfa57611df961192f565b5b5f611e0784828501611a92565b91505092915050565b611e1981611d02565b82525050565b5f602082019050611e325f830184611e10565b92915050565b5f611e4282611bc5565b9050919050565b611e5281611e38565b82525050565b5f602082019050611e6b5f830184611e49565b92915050565b5f81519050919050565b5f82825260208201905092915050565b5f5b83811015611ea8578082015181840152602081019050611e8d565b5f8484015250505050565b5f611ebd82611e71565b611ec78185611e7b565b9350611ed7818560208601611e8b565b611ee08161193f565b840191505092915050565b5f610120820190508181035f830152611f04818c611eb3565b9050611f13602083018b611d68565b611f20604083018a611d68565b611f2d6060830189611d68565b611f3a6080830188611d68565b611f4760a0830187611d68565b611f5460c0830186611d68565b611f6160e0830185611d68565b611f6f610100830184611e10565b9a9950505050505050505050565b5f8060408385031215611f9357611f9261192f565b5b5f611fa085828601611a92565b9250506020611fb185828601611a92565b9150509250929050565b7f526f746174696f6e206379636c65206d75737420626520706f736974697665005f82015250565b5f611fef601f83611e7b565b9150611ffa82611fbb565b602082019050919050565b5f6020820190508181035f83015261201c81611fe3565b9050919050565b7f496e7465726573742064656e6f6d696e61746f72206d75737420626520706f735f8201527f6974697665000000000000000000000000000000000000000000000000000000602082015250565b5f61207d602583611e7b565b915061208882612023565b604082019050919050565b5f6020820190508181035f8301526120aa81612071565b9050919050565b7f4e756d657261746f72206d757374206265206c657373207468616e206f7220655f8201527f7175616c20746f2064656e6f6d696e61746f7200000000000000000000000000602082015250565b5f61210b603383611e7b565b9150612116826120b1565b604082019050919050565b5f6020820190508181035f830152612138816120ff565b9050919050565b7f4e487b71000000000000000000000000000000000000000000000000000000005f52601160045260245ffd5b5f61217682611a73565b91507fffffffffffffffffffffffffffffffffffffffffffffffffffffffffffffffff82036121a8576121a761213f565b5b600182019050919050565b5f6060820190506121c65f830186611e10565b6121d36020830185611e10565b6121e06040830184611d68565b949350505050565b5f8115159050919050565b6121fc816121e8565b8114612206575f80fd5b50565b5f81519050612217816121f3565b92915050565b5f602082840312156122325761223161192f565b5b5f61223f84828501612209565b91505092915050565b7f43726561746f722073686f756c64206465706f7369742074686520696e6974695f8201527f616c20616d6f756e740000000000000000000000000000000000000000000000602082015250565b5f6122a2602983611e7b565b91506122ad82612248565b604082019050919050565b5f6020820190508181035f8301526122cf81612296565b9050919050565b7f4e487b71000000000000000000000000000000000000000000000000000000005f52602260045260245ffd5b5f600282049050600182168061231a57607f821691505b60208210810361232d5761232c6122d6565b5b50919050565b5f819050815f5260205f209050919050565b5f6020601f8301049050919050565b5f82821b905092915050565b5f6008830261238f7fffffffffffffffffffffffffffffffffffffffffffffffffffffffffffffffff82612354565b6123998683612354565b95508019841693508086168417925050509392505050565b5f6123cb6123c66123c184611a73565b611b9b565b611a73565b9050919050565b5f819050919050565b6123e4836123b1565b6123f86123f0826123d2565b848454612360565b825550505050565b5f90565b61240c612400565b6124178184846123db565b505050565b5b8181101561243a5761242f5f82612404565b60018101905061241d565b5050565b601f82111561247f5761245081612333565b61245984612345565b81016020851015612468578190505b61247c61247485612345565b83018261241c565b50505b505050565b5f82821c905092915050565b5f61249f5f1984600802612484565b1980831691505092915050565b5f6124b78383612490565b9150826002028217905092915050565b6124d082611e71565b67ffffffffffffffff8111156124e9576124e861194f565b5b6124f38254612303565b6124fe82828561243e565b5f60209050601f83116001811461252f575f841561251d578287015190505b61252785826124ac565b86555061258e565b601f19841661253d86612333565b5f5b828110156125645784890151825560018201915060208501945060208101905061253f565b86831015612581578489015161257d601f891682612490565b8355505b6001600288020188555050505b505050505050565b5f610100820190506125aa5f83018b611d68565b81810360208301526125bc818a611eb3565b90506125cb6040830189611e10565b6125d86060830188611d68565b6125e56080830187611d68565b6125f260a0830186611d68565b6125ff60c0830185611d68565b61260c60e0830184611d68565b9998505050505050505050565b5f8151905061262781611a7c565b92915050565b5f602082840312156126425761264161192f565b5b5f61264f84828501612619565b91505092915050565b5f60408201905061266b5f830185611e10565b6126786020830184611d68565b9392505050565b5f8160601b9050919050565b5f6126958261267f565b9050919050565b5f6126a68261268b565b9050919050565b6126be6126b982611d02565b61269c565b82525050565b5f819050919050565b6126de6126d982611a73565b6126c4565b82525050565b5f6126ef82856126ad565b6014820191506126ff82846126cd565b6020820191508190509392505050565b7f496e76616c69642070726f6f662e0000000000000000000000000000000000005f82015250565b5f612743600e83611e7b565b915061274e8261270f565b602082019050919050565b5f6020820190508181035f83015261277081612737565b9050919050565b7f4e6f2066756e6473206c65667420746f20636c61696d206f7220616c726561645f8201527f7920636c61696d65642e00000000000000000000000000000000000000000000602082015250565b5f6127d1602a83611e7b565b91506127dc82612777565b604082019050919050565b5f6020820190508181035f8301526127fe816127c5565b9050919050565b5f61280f82611a73565b915061281a83611a73565b92508282039050818111156128325761283161213f565b5b92915050565b7f5969656c64207472616e73666572206661696c656400000000000000000000005f82015250565b5f61286c601583611e7b565b915061287782612838565b602082019050919050565b5f6020820190508181035f83015261289981612860565b9050919050565b5f6040820190506128b35f830185611e10565b6128c06020830184611e10565b9392505050565b5f819050919050565b5f67ffffffffffffffff82169050919050565b5f6128fd6128f86128f3846128c7565b611b9b565b6128d0565b9050919050565b61290d816128e3565b82525050565b5f6020820190506129265f830184612904565b92915050565b7f506f742069732066756c6c0000000000000000000000000000000000000000005f82015250565b5f612960600b83611e7b565b915061296b8261292c565b602082019050919050565b5f6020820190508181035f83015261298d81612954565b9050919050565b7f526f746174696e6720706f74732063616e6e6f74206265206a6f696e656400005f82015250565b5f6129c8601e83611e7b565b91506129d382612994565b602082019050919050565b5f6020820190508181035f8301526129f5816129bc565b9050919050565b7f416c7265616479206a6f696e65640000000000000000000000000000000000005f82015250565b5f612a30600e83611e7b565b9150612a3b826129fc565b602082019050919050565b5f6020820190508181035f830152612a5d81612a24565b9050919050565b7f5472616e73666572206661696c656400000000000000000000000000000000005f82015250565b5f612a98600f83611e7b565b9150612aa382612a64565b602082019050919050565b5f6020820190508181035f830152612ac581612a8c565b9050919050565b5f60e082019050612adf5f83018a611d68565b612aec6020830189611e10565b612af96040830188611d68565b612b066060830187611d68565b612b136080830186611d68565b612b2060a0830185611d68565b612b2d60c0830184611d68565b98975050505050505050565b7f4f6e6c792074686520706f742063726561746f722063616e2072657665616c205f8201527f7468652077696e6e657200000000000000000000000000000000000000000000602082015250565b5f612b93602a83611e7b565b9150612b9e82612b39565b604082019050919050565b5f6020820190508181035f830152612bc081612b87565b9050919050565b5f612bd182611a73565b9150612bdc83611a73565b9250828201905080821115612bf457612bf361213f565b5b92915050565b7f4e65787420726f746174696f6e206e6f742079657420647565000000000000005f82015250565b5f612c2e601983611e7b565b9150612c3982612bfa565b602082019050919050565b5f6020820190508181035f830152612c5b81612c22565b9050919050565b7f4e487b71000000000000000000000000000000000000000000000000000000005f52601260045260245ffd5b5f612c9982611a73565b9150612ca483611a73565b925082612cb457612cb3612c62565b5b828206905092915050565b7f4e487b71000000000000000000000000000000000000000000000000000000005f52603260045260245ffd5b5f612cf682611a73565b9150612d0183611a73565b9250828202612d0f81611a73565b91508282048414831517612d2657612d2561213f565b5b5092915050565b5f606082019050612d405f830186611d68565b612d4d6020830185611e10565b612d5a6040830184611d68565b949350505050565b5f612d6c82611a73565b9150612d7783611a73565b925082612d8757612d86612c62565b5b82820490509291505056fea26469706673582212204fd561277f41dc28814e39afaac0eab22a23bc97c9fa99e274cc03957f9d5ae064736f6c63430008180033",
					"opcodes": "PUSH1 0x80 PUSH1 0x40 MSTORE PUSH1 0x1 DUP1 SSTORE CALLVALUE DUP1 ISZERO PUSH3 0x14 JUMPI PUSH0 DUP1 REVERT JUMPDEST POP PUSH20 0x4200000000000000000000000000000000000022 PUSH20 0xFFFFFFFFFFFFFFFFFFFFFFFFFFFFFFFFFFFFFFFF AND PUSH4 0x1A33757D PUSH1 0x2 PUSH1 0x40 MLOAD DUP3 PUSH4 0xFFFFFFFF AND PUSH1 0xE0 SHL DUP2 MSTORE PUSH1 0x4 ADD PUSH3 0x65 SWAP2 SWAP1 PUSH3 0x282 JUMP JUMPDEST PUSH1 0x20 PUSH1 0x40 MLOAD DUP1 DUP4 SUB DUP2 PUSH0 DUP8 GAS CALL ISZERO DUP1 ISZERO PUSH3 0x82 JUMPI RETURNDATASIZE PUSH0 DUP1 RETURNDATACOPY RETURNDATASIZE PUSH0 REVERT JUMPDEST POP POP POP POP PUSH1 0x40 MLOAD RETURNDATASIZE PUSH1 0x1F NOT PUSH1 0x1F DUP3 ADD AND DUP3 ADD DUP1 PUSH1 0x40 MSTORE POP DUP2 ADD SWAP1 PUSH3 0xA8 SWAP2 SWAP1 PUSH3 0x2D9 JUMP JUMPDEST POP PUSH20 0x4200000000000000000000000000000000000022 PUSH1 0x3 PUSH0 PUSH2 0x100 EXP DUP2 SLOAD DUP2 PUSH20 0xFFFFFFFFFFFFFFFFFFFFFFFFFFFFFFFFFFFFFFFF MUL NOT AND SWAP1 DUP4 PUSH20 0xFFFFFFFFFFFFFFFFFFFFFFFFFFFFFFFFFFFFFFFF AND MUL OR SWAP1 SSTORE POP PUSH20 0x4300000000000000000000000000000000000002 PUSH20 0xFFFFFFFFFFFFFFFFFFFFFFFFFFFFFFFFFFFFFFFF AND PUSH4 0x4E606C47 PUSH1 0x40 MLOAD DUP2 PUSH4 0xFFFFFFFF AND PUSH1 0xE0 SHL DUP2 MSTORE PUSH1 0x4 ADD PUSH0 PUSH1 0x40 MLOAD DUP1 DUP4 SUB DUP2 PUSH0 DUP8 DUP1 EXTCODESIZE ISZERO DUP1 ISZERO PUSH3 0x157 JUMPI PUSH0 DUP1 REVERT JUMPDEST POP GAS CALL ISZERO DUP1 ISZERO PUSH3 0x16A JUMPI RETURNDATASIZE PUSH0 DUP1 RETURNDATACOPY RETURNDATASIZE PUSH0 REVERT JUMPDEST POP POP POP POP PUSH20 0x2FC95838C71E76EC69FF817983BFF17C710F34E0 PUSH20 0xFFFFFFFFFFFFFFFFFFFFFFFFFFFFFFFFFFFFFFFF AND PUSH4 0x36B91F2B PUSH20 0xE4860D3973802C7C42450D7B9741921C7711D039 PUSH1 0x40 MLOAD DUP3 PUSH4 0xFFFFFFFF AND PUSH1 0xE0 SHL DUP2 MSTORE PUSH1 0x4 ADD PUSH3 0x1D1 SWAP2 SWAP1 PUSH3 0x34C JUMP JUMPDEST PUSH0 PUSH1 0x40 MLOAD DUP1 DUP4 SUB DUP2 PUSH0 DUP8 DUP1 EXTCODESIZE ISZERO DUP1 ISZERO PUSH3 0x1E9 JUMPI PUSH0 DUP1 REVERT JUMPDEST POP GAS CALL ISZERO DUP1 ISZERO PUSH3 0x1FC JUMPI RETURNDATASIZE PUSH0 DUP1 RETURNDATACOPY RETURNDATASIZE PUSH0 REVERT JUMPDEST POP POP POP POP PUSH3 0x367 JUMP JUMPDEST PUSH32 0x4E487B7100000000000000000000000000000000000000000000000000000000 PUSH0 MSTORE PUSH1 0x21 PUSH1 0x4 MSTORE PUSH1 0x24 PUSH0 REVERT JUMPDEST PUSH1 0x3 DUP2 LT PUSH3 0x247 JUMPI PUSH3 0x246 PUSH3 0x206 JUMP JUMPDEST JUMPDEST POP JUMP JUMPDEST PUSH0 DUP2 SWAP1 POP PUSH3 0x259 DUP3 PUSH3 0x233 JUMP JUMPDEST SWAP2 SWAP1 POP JUMP JUMPDEST PUSH0 PUSH3 0x26A DUP3 PUSH3 0x24A JUMP JUMPDEST SWAP1 POP SWAP2 SWAP1 POP JUMP JUMPDEST PUSH3 0x27C DUP2 PUSH3 0x25E JUMP JUMPDEST DUP3 MSTORE POP POP JUMP JUMPDEST PUSH0 PUSH1 0x20 DUP3 ADD SWAP1 POP PUSH3 0x297 PUSH0 DUP4 ADD DUP5 PUSH3 0x271 JUMP JUMPDEST SWAP3 SWAP2 POP POP JUMP JUMPDEST PUSH0 DUP1 REVERT JUMPDEST PUSH0 DUP2 SWAP1 POP SWAP2 SWAP1 POP JUMP JUMPDEST PUSH3 0x2B5 DUP2 PUSH3 0x2A1 JUMP JUMPDEST DUP2 EQ PUSH3 0x2C0 JUMPI PUSH0 DUP1 REVERT JUMPDEST POP JUMP JUMPDEST PUSH0 DUP2 MLOAD SWAP1 POP PUSH3 0x2D3 DUP2 PUSH3 0x2AA JUMP JUMPDEST SWAP3 SWAP2 POP POP JUMP JUMPDEST PUSH0 PUSH1 0x20 DUP3 DUP5 SUB SLT ISZERO PUSH3 0x2F1 JUMPI PUSH3 0x2F0 PUSH3 0x29D JUMP JUMPDEST JUMPDEST PUSH0 PUSH3 0x300 DUP5 DUP3 DUP6 ADD PUSH3 0x2C3 JUMP JUMPDEST SWAP2 POP POP SWAP3 SWAP2 POP POP JUMP JUMPDEST PUSH0 PUSH20 0xFFFFFFFFFFFFFFFFFFFFFFFFFFFFFFFFFFFFFFFF DUP3 AND SWAP1 POP SWAP2 SWAP1 POP JUMP JUMPDEST PUSH0 PUSH3 0x334 DUP3 PUSH3 0x309 JUMP JUMPDEST SWAP1 POP SWAP2 SWAP1 POP JUMP JUMPDEST PUSH3 0x346 DUP2 PUSH3 0x328 JUMP JUMPDEST DUP3 MSTORE POP POP JUMP JUMPDEST PUSH0 PUSH1 0x20 DUP3 ADD SWAP1 POP PUSH3 0x361 PUSH0 DUP4 ADD DUP5 PUSH3 0x33B JUMP JUMPDEST SWAP3 SWAP2 POP POP JUMP JUMPDEST PUSH2 0x2DC8 DUP1 PUSH3 0x375 PUSH0 CODECOPY PUSH0 RETURN INVALID PUSH1 0x80 PUSH1 0x40 MSTORE PUSH1 0x4 CALLDATASIZE LT PUSH2 0x113 JUMPI PUSH0 CALLDATALOAD PUSH1 0xE0 SHR DUP1 PUSH4 0x7CB64759 GT PUSH2 0x9F JUMPI DUP1 PUSH4 0xBF2D9E0B GT PUSH2 0x63 JUMPI DUP1 PUSH4 0xBF2D9E0B EQ PUSH2 0x311 JUMPI DUP1 PUSH4 0xC3C3DF4F EQ PUSH2 0x33B JUMPI DUP1 PUSH4 0xEF922B87 EQ PUSH2 0x37F JUMPI DUP1 PUSH4 0xEFDD7C07 EQ PUSH2 0x3A7 JUMPI DUP1 PUSH4 0xF2FDE38B EQ PUSH2 0x3E3 JUMPI PUSH2 0x113 JUMP JUMPDEST DUP1 PUSH4 0x7CB64759 EQ PUSH2 0x263 JUMPI DUP1 PUSH4 0x8129FC1C EQ PUSH2 0x28B JUMPI DUP1 PUSH4 0x831D49EF EQ PUSH2 0x2A1 JUMPI DUP1 PUSH4 0x8DA5CB5B EQ PUSH2 0x2BD JUMPI DUP1 PUSH4 0x97D75776 EQ PUSH2 0x2E7 JUMPI PUSH2 0x113 JUMP JUMPDEST DUP1 PUSH4 0x4A80409E GT PUSH2 0xE6 JUMPI DUP1 PUSH4 0x4A80409E EQ PUSH2 0x1A9 JUMPI DUP1 PUSH4 0x61E7D805 EQ PUSH2 0x1D3 JUMPI DUP1 PUSH4 0x715018A6 EQ PUSH2 0x1FB JUMPI DUP1 PUSH4 0x73B2E80E EQ PUSH2 0x211 JUMPI DUP1 PUSH4 0x77D5D2DC EQ PUSH2 0x24D JUMPI PUSH2 0x113 JUMP JUMPDEST DUP1 PUSH4 0x103A40CA EQ PUSH2 0x117 JUMPI DUP1 PUSH4 0x2EB4A7AB EQ PUSH2 0x13F JUMPI DUP1 PUSH4 0x31A0EDEC EQ PUSH2 0x169 JUMPI DUP1 PUSH4 0x409A33CE EQ PUSH2 0x193 JUMPI JUMPDEST PUSH0 DUP1 REVERT JUMPDEST CALLVALUE DUP1 ISZERO PUSH2 0x122 JUMPI PUSH0 DUP1 REVERT JUMPDEST POP PUSH2 0x13D PUSH1 0x4 DUP1 CALLDATASIZE SUB DUP2 ADD SWAP1 PUSH2 0x138 SWAP2 SWAP1 PUSH2 0x1AA6 JUMP JUMPDEST PUSH2 0x40B JUMP JUMPDEST STOP JUMPDEST CALLVALUE DUP1 ISZERO PUSH2 0x14A JUMPI PUSH0 DUP1 REVERT JUMPDEST POP PUSH2 0x153 PUSH2 0x6E6 JUMP JUMPDEST PUSH1 0x40 MLOAD PUSH2 0x160 SWAP2 SWAP1 PUSH2 0x1B63 JUMP JUMPDEST PUSH1 0x40 MLOAD DUP1 SWAP2 SUB SWAP1 RETURN JUMPDEST CALLVALUE DUP1 ISZERO PUSH2 0x174 JUMPI PUSH0 DUP1 REVERT JUMPDEST POP PUSH2 0x17D PUSH2 0x6EB JUMP JUMPDEST PUSH1 0x40 MLOAD PUSH2 0x18A SWAP2 SWAP1 PUSH2 0x1BF6 JUMP JUMPDEST PUSH1 0x40 MLOAD DUP1 SWAP2 SUB SWAP1 RETURN JUMPDEST CALLVALUE DUP1 ISZERO PUSH2 0x19E JUMPI PUSH0 DUP1 REVERT JUMPDEST POP PUSH2 0x1A7 PUSH2 0x703 JUMP JUMPDEST STOP JUMPDEST CALLVALUE DUP1 ISZERO PUSH2 0x1B4 JUMPI PUSH0 DUP1 REVERT JUMPDEST POP PUSH2 0x1BD PUSH2 0x828 JUMP JUMPDEST PUSH1 0x40 MLOAD PUSH2 0x1CA SWAP2 SWAP1 PUSH2 0x1C2F JUMP JUMPDEST PUSH1 0x40 MLOAD DUP1 SWAP2 SUB SWAP1 RETURN JUMPDEST CALLVALUE DUP1 ISZERO PUSH2 0x1DE JUMPI PUSH0 DUP1 REVERT JUMPDEST POP PUSH2 0x1F9 PUSH1 0x4 DUP1 CALLDATASIZE SUB DUP2 ADD SWAP1 PUSH2 0x1F4 SWAP2 SWAP1 PUSH2 0x1CA5 JUMP JUMPDEST PUSH2 0x84D JUMP JUMPDEST STOP JUMPDEST CALLVALUE DUP1 ISZERO PUSH2 0x206 JUMPI PUSH0 DUP1 REVERT JUMPDEST POP PUSH2 0x20F PUSH2 0xABB JUMP JUMPDEST STOP JUMPDEST CALLVALUE DUP1 ISZERO PUSH2 0x21C JUMPI PUSH0 DUP1 REVERT JUMPDEST POP PUSH2 0x237 PUSH1 0x4 DUP1 CALLDATASIZE SUB DUP2 ADD SWAP1 PUSH2 0x232 SWAP2 SWAP1 PUSH2 0x1D3D JUMP JUMPDEST PUSH2 0xACE JUMP JUMPDEST PUSH1 0x40 MLOAD PUSH2 0x244 SWAP2 SWAP1 PUSH2 0x1D77 JUMP JUMPDEST PUSH1 0x40 MLOAD DUP1 SWAP2 SUB SWAP1 RETURN JUMPDEST CALLVALUE DUP1 ISZERO PUSH2 0x258 JUMPI PUSH0 DUP1 REVERT JUMPDEST POP PUSH2 0x261 PUSH2 0xAE3 JUMP JUMPDEST STOP JUMPDEST CALLVALUE DUP1 ISZERO PUSH2 0x26E JUMPI PUSH0 DUP1 REVERT JUMPDEST POP PUSH2 0x289 PUSH1 0x4 DUP1 CALLDATASIZE SUB DUP2 ADD SWAP1 PUSH2 0x284 SWAP2 SWAP1 PUSH2 0x1DBA JUMP JUMPDEST PUSH2 0xB7D JUMP JUMPDEST STOP JUMPDEST CALLVALUE DUP1 ISZERO PUSH2 0x296 JUMPI PUSH0 DUP1 REVERT JUMPDEST POP PUSH2 0x29F PUSH2 0xB8E JUMP JUMPDEST STOP JUMPDEST PUSH2 0x2BB PUSH1 0x4 DUP1 CALLDATASIZE SUB DUP2 ADD SWAP1 PUSH2 0x2B6 SWAP2 SWAP1 PUSH2 0x1DE5 JUMP JUMPDEST PUSH2 0xD0E JUMP JUMPDEST STOP JUMPDEST CALLVALUE DUP1 ISZERO PUSH2 0x2C8 JUMPI PUSH0 DUP1 REVERT JUMPDEST POP PUSH2 0x2D1 PUSH2 0x1026 JUMP JUMPDEST PUSH1 0x40 MLOAD PUSH2 0x2DE SWAP2 SWAP1 PUSH2 0x1E1F JUMP JUMPDEST PUSH1 0x40 MLOAD DUP1 SWAP2 SUB SWAP1 RETURN JUMPDEST CALLVALUE DUP1 ISZERO PUSH2 0x2F2 JUMPI PUSH0 DUP1 REVERT JUMPDEST POP PUSH2 0x2FB PUSH2 0x105B JUMP JUMPDEST PUSH1 0x40 MLOAD PUSH2 0x308 SWAP2 SWAP1 PUSH2 0x1E58 JUMP JUMPDEST PUSH1 0x40 MLOAD DUP1 SWAP2 SUB SWAP1 RETURN JUMPDEST CALLVALUE DUP1 ISZERO PUSH2 0x31C JUMPI PUSH0 DUP1 REVERT JUMPDEST POP PUSH2 0x325 PUSH2 0x1073 JUMP JUMPDEST PUSH1 0x40 MLOAD PUSH2 0x332 SWAP2 SWAP1 PUSH2 0x1D77 JUMP JUMPDEST PUSH1 0x40 MLOAD DUP1 SWAP2 SUB SWAP1 RETURN JUMPDEST CALLVALUE DUP1 ISZERO PUSH2 0x346 JUMPI PUSH0 DUP1 REVERT JUMPDEST POP PUSH2 0x361 PUSH1 0x4 DUP1 CALLDATASIZE SUB DUP2 ADD SWAP1 PUSH2 0x35C SWAP2 SWAP1 PUSH2 0x1DE5 JUMP JUMPDEST PUSH2 0x1079 JUMP JUMPDEST PUSH1 0x40 MLOAD PUSH2 0x376 SWAP10 SWAP9 SWAP8 SWAP7 SWAP6 SWAP5 SWAP4 SWAP3 SWAP2 SWAP1 PUSH2 0x1EEB JUMP JUMPDEST PUSH1 0x40 MLOAD DUP1 SWAP2 SUB SWAP1 RETURN JUMPDEST CALLVALUE DUP1 ISZERO PUSH2 0x38A JUMPI PUSH0 DUP1 REVERT JUMPDEST POP PUSH2 0x3A5 PUSH1 0x4 DUP1 CALLDATASIZE SUB DUP2 ADD SWAP1 PUSH2 0x3A0 SWAP2 SWAP1 PUSH2 0x1DE5 JUMP JUMPDEST PUSH2 0x1168 JUMP JUMPDEST STOP JUMPDEST CALLVALUE DUP1 ISZERO PUSH2 0x3B2 JUMPI PUSH0 DUP1 REVERT JUMPDEST POP PUSH2 0x3CD PUSH1 0x4 DUP1 CALLDATASIZE SUB DUP2 ADD SWAP1 PUSH2 0x3C8 SWAP2 SWAP1 PUSH2 0x1F7D JUMP JUMPDEST PUSH2 0x1441 JUMP JUMPDEST PUSH1 0x40 MLOAD PUSH2 0x3DA SWAP2 SWAP1 PUSH2 0x1D77 JUMP JUMPDEST PUSH1 0x40 MLOAD DUP1 SWAP2 SUB SWAP1 RETURN JUMPDEST CALLVALUE DUP1 ISZERO PUSH2 0x3EE JUMPI PUSH0 DUP1 REVERT JUMPDEST POP PUSH2 0x409 PUSH1 0x4 DUP1 CALLDATASIZE SUB DUP2 ADD SWAP1 PUSH2 0x404 SWAP2 SWAP1 PUSH2 0x1D3D JUMP JUMPDEST PUSH2 0x147E JUMP JUMPDEST STOP JUMPDEST PUSH0 DUP6 GT PUSH2 0x44D JUMPI PUSH1 0x40 MLOAD PUSH32 0x8C379A000000000000000000000000000000000000000000000000000000000 DUP2 MSTORE PUSH1 0x4 ADD PUSH2 0x444 SWAP1 PUSH2 0x2005 JUMP JUMPDEST PUSH1 0x40 MLOAD DUP1 SWAP2 SUB SWAP1 REVERT JUMPDEST PUSH0 DUP5 GT PUSH2 0x48F JUMPI PUSH1 0x40 MLOAD PUSH32 0x8C379A000000000000000000000000000000000000000000000000000000000 DUP2 MSTORE PUSH1 0x4 ADD PUSH2 0x486 SWAP1 PUSH2 0x2093 JUMP JUMPDEST PUSH1 0x40 MLOAD DUP1 SWAP2 SUB SWAP1 REVERT JUMPDEST DUP4 DUP4 GT ISZERO PUSH2 0x4D2 JUMPI PUSH1 0x40 MLOAD PUSH32 0x8C379A000000000000000000000000000000000000000000000000000000000 DUP2 MSTORE PUSH1 0x4 ADD PUSH2 0x4C9 SWAP1 PUSH2 0x2121 JUMP JUMPDEST PUSH1 0x40 MLOAD DUP1 SWAP2 SUB SWAP1 REVERT JUMPDEST PUSH0 PUSH1 0x1 PUSH0 DUP2 SLOAD DUP1 SWAP3 SWAP2 SWAP1 PUSH2 0x4E5 SWAP1 PUSH2 0x216C JUMP JUMPDEST SWAP2 SWAP1 POP SSTORE SWAP1 POP PUSH1 0x60 PUSH0 PUSH2 0x4F7 DUP5 PUSH2 0x1502 JUMP JUMPDEST SWAP1 POP PUSH1 0x3 PUSH0 SWAP1 SLOAD SWAP1 PUSH2 0x100 EXP SWAP1 DIV PUSH20 0xFFFFFFFFFFFFFFFFFFFFFFFFFFFFFFFFFFFFFFFF AND PUSH20 0xFFFFFFFFFFFFFFFFFFFFFFFFFFFFFFFFFFFFFFFF AND PUSH4 0x23B872DD CALLER ADDRESS DUP5 PUSH1 0x40 MLOAD DUP5 PUSH4 0xFFFFFFFF AND PUSH1 0xE0 SHL DUP2 MSTORE PUSH1 0x4 ADD PUSH2 0x557 SWAP4 SWAP3 SWAP2 SWAP1 PUSH2 0x21B3 JUMP JUMPDEST PUSH1 0x20 PUSH1 0x40 MLOAD DUP1 DUP4 SUB DUP2 PUSH0 DUP8 GAS CALL ISZERO DUP1 ISZERO PUSH2 0x573 JUMPI RETURNDATASIZE PUSH0 DUP1 RETURNDATACOPY RETURNDATASIZE PUSH0 REVERT JUMPDEST POP POP POP POP PUSH1 0x40 MLOAD RETURNDATASIZE PUSH1 0x1F NOT PUSH1 0x1F DUP3 ADD AND DUP3 ADD DUP1 PUSH1 0x40 MSTORE POP DUP2 ADD SWAP1 PUSH2 0x597 SWAP2 SWAP1 PUSH2 0x221D JUMP JUMPDEST PUSH2 0x5D6 JUMPI PUSH1 0x40 MLOAD PUSH32 0x8C379A000000000000000000000000000000000000000000000000000000000 DUP2 MSTORE PUSH1 0x4 ADD PUSH2 0x5CD SWAP1 PUSH2 0x22B8 JUMP JUMPDEST PUSH1 0x40 MLOAD DUP1 SWAP2 SUB SWAP1 REVERT JUMPDEST PUSH0 PUSH1 0x5 PUSH0 DUP6 DUP2 MSTORE PUSH1 0x20 ADD SWAP1 DUP2 MSTORE PUSH1 0x20 ADD PUSH0 KECCAK256 SWAP1 POP DUP10 DUP2 PUSH0 ADD SWAP1 DUP2 PUSH2 0x5FA SWAP2 SWAP1 PUSH2 0x24C7 JUMP JUMPDEST POP DUP5 DUP2 PUSH1 0x1 ADD DUP2 SWAP1 SSTORE POP CALLER DUP2 PUSH1 0x8 ADD PUSH0 PUSH2 0x100 EXP DUP2 SLOAD DUP2 PUSH20 0xFFFFFFFFFFFFFFFFFFFFFFFFFFFFFFFFFFFFFFFF MUL NOT AND SWAP1 DUP4 PUSH20 0xFFFFFFFFFFFFFFFFFFFFFFFFFFFFFFFFFFFFFFFF AND MUL OR SWAP1 SSTORE POP DUP9 DUP2 PUSH1 0x2 ADD DUP2 SWAP1 SSTORE POP DUP7 DUP2 PUSH1 0x4 ADD DUP2 SWAP1 SSTORE POP DUP8 DUP2 PUSH1 0x5 ADD DUP2 SWAP1 SSTORE POP TIMESTAMP DUP2 PUSH1 0x3 ADD DUP2 SWAP1 SSTORE POP DUP6 DUP2 PUSH1 0x6 ADD DUP2 SWAP1 SSTORE POP PUSH0 DUP2 PUSH1 0x7 ADD DUP2 SWAP1 SSTORE POP DUP3 DUP2 PUSH1 0x9 ADD SWAP1 DUP1 MLOAD SWAP1 PUSH1 0x20 ADD SWAP1 PUSH2 0x694 SWAP3 SWAP2 SWAP1 PUSH2 0x1884 JUMP JUMPDEST POP PUSH32 0x27C4AAFCF7DB602399AE51626A035D24FF9855ED20035E2895E808F9E76F1660 DUP5 DUP12 CALLER DUP9 DUP14 DUP13 DUP15 DUP14 PUSH1 0x40 MLOAD PUSH2 0x6D2 SWAP9 SWAP8 SWAP7 SWAP6 SWAP5 SWAP4 SWAP3 SWAP2 SWAP1 PUSH2 0x2596 JUMP JUMPDEST PUSH1 0x40 MLOAD DUP1 SWAP2 SUB SWAP1 LOG1 POP POP POP POP POP POP POP POP POP POP JUMP JUMPDEST PUSH0 SLOAD DUP2 JUMP JUMPDEST PUSH20 0x4200000000000000000000000000000000000022 DUP2 JUMP JUMPDEST PUSH2 0x70B PUSH2 0x153F JUMP JUMPDEST PUSH20 0x4200000000000000000000000000000000000022 PUSH20 0xFFFFFFFFFFFFFFFFFFFFFFFFFFFFFFFFFFFFFFFF AND PUSH4 0xAAD3EC96 ADDRESS PUSH20 0x4200000000000000000000000000000000000022 PUSH20 0xFFFFFFFFFFFFFFFFFFFFFFFFFFFFFFFFFFFFFFFF AND PUSH4 0xE12F3A61 ADDRESS PUSH1 0x40 MLOAD DUP3 PUSH4 0xFFFFFFFF AND PUSH1 0xE0 SHL DUP2 MSTORE PUSH1 0x4 ADD PUSH2 0x789 SWAP2 SWAP1 PUSH2 0x1E1F JUMP JUMPDEST PUSH1 0x20 PUSH1 0x40 MLOAD DUP1 DUP4 SUB DUP2 DUP7 GAS STATICCALL ISZERO DUP1 ISZERO PUSH2 0x7A4 JUMPI RETURNDATASIZE PUSH0 DUP1 RETURNDATACOPY RETURNDATASIZE PUSH0 REVERT JUMPDEST POP POP POP POP PUSH1 0x40 MLOAD RETURNDATASIZE PUSH1 0x1F NOT PUSH1 0x1F DUP3 ADD AND DUP3 ADD DUP1 PUSH1 0x40 MSTORE POP DUP2 ADD SWAP1 PUSH2 0x7C8 SWAP2 SWAP1 PUSH2 0x262D JUMP JUMPDEST PUSH1 0x40 MLOAD DUP4 PUSH4 0xFFFFFFFF AND PUSH1 0xE0 SHL DUP2 MSTORE PUSH1 0x4 ADD PUSH2 0x7E5 SWAP3 SWAP2 SWAP1 PUSH2 0x2658 JUMP JUMPDEST PUSH1 0x20 PUSH1 0x40 MLOAD DUP1 DUP4 SUB DUP2 PUSH0 DUP8 GAS CALL ISZERO DUP1 ISZERO PUSH2 0x801 JUMPI RETURNDATASIZE PUSH0 DUP1 RETURNDATACOPY RETURNDATASIZE PUSH0 REVERT JUMPDEST POP POP POP POP PUSH1 0x40 MLOAD RETURNDATASIZE PUSH1 0x1F NOT PUSH1 0x1F DUP3 ADD AND DUP3 ADD DUP1 PUSH1 0x40 MSTORE POP DUP2 ADD SWAP1 PUSH2 0x825 SWAP2 SWAP1 PUSH2 0x262D JUMP JUMPDEST POP JUMP JUMPDEST PUSH1 0x3 PUSH0 SWAP1 SLOAD SWAP1 PUSH2 0x100 EXP SWAP1 DIV PUSH20 0xFFFFFFFFFFFFFFFFFFFFFFFFFFFFFFFFFFFFFFFF AND DUP2 JUMP JUMPDEST PUSH0 CALLER DUP5 PUSH1 0x40 MLOAD PUSH1 0x20 ADD PUSH2 0x861 SWAP3 SWAP2 SWAP1 PUSH2 0x26E4 JUMP JUMPDEST PUSH1 0x40 MLOAD PUSH1 0x20 DUP2 DUP4 SUB SUB DUP2 MSTORE SWAP1 PUSH1 0x40 MSTORE DUP1 MLOAD SWAP1 PUSH1 0x20 ADD KECCAK256 SWAP1 POP PUSH2 0x8C5 DUP4 DUP4 DUP1 DUP1 PUSH1 0x20 MUL PUSH1 0x20 ADD PUSH1 0x40 MLOAD SWAP1 DUP2 ADD PUSH1 0x40 MSTORE DUP1 SWAP4 SWAP3 SWAP2 SWAP1 DUP2 DUP2 MSTORE PUSH1 0x20 ADD DUP4 DUP4 PUSH1 0x20 MUL DUP1 DUP3 DUP5 CALLDATACOPY PUSH0 DUP2 DUP5 ADD MSTORE PUSH1 0x1F NOT PUSH1 0x1F DUP3 ADD AND SWAP1 POP DUP1 DUP4 ADD SWAP3 POP POP POP POP POP POP POP PUSH0 SLOAD DUP4 PUSH2 0x15C6 JUMP JUMPDEST PUSH2 0x904 JUMPI PUSH1 0x40 MLOAD PUSH32 0x8C379A000000000000000000000000000000000000000000000000000000000 DUP2 MSTORE PUSH1 0x4 ADD PUSH2 0x8FB SWAP1 PUSH2 0x2759 JUMP JUMPDEST PUSH1 0x40 MLOAD DUP1 SWAP2 SUB SWAP1 REVERT JUMPDEST PUSH0 PUSH1 0x4 PUSH0 CALLER PUSH20 0xFFFFFFFFFFFFFFFFFFFFFFFFFFFFFFFFFFFFFFFF AND PUSH20 0xFFFFFFFFFFFFFFFFFFFFFFFFFFFFFFFFFFFFFFFF AND DUP2 MSTORE PUSH1 0x20 ADD SWAP1 DUP2 MSTORE PUSH1 0x20 ADD PUSH0 KECCAK256 SLOAD SWAP1 POP DUP5 DUP2 LT PUSH2 0x987 JUMPI PUSH1 0x40 MLOAD PUSH32 0x8C379A000000000000000000000000000000000000000000000000000000000 DUP2 MSTORE PUSH1 0x4 ADD PUSH2 0x97E SWAP1 PUSH2 0x27E7 JUMP JUMPDEST PUSH1 0x40 MLOAD DUP1 SWAP2 SUB SWAP1 REVERT JUMPDEST PUSH0 DUP2 DUP7 PUSH2 0x994 SWAP2 SWAP1 PUSH2 0x2805 JUMP JUMPDEST SWAP1 POP DUP6 PUSH1 0x4 PUSH0 CALLER PUSH20 0xFFFFFFFFFFFFFFFFFFFFFFFFFFFFFFFFFFFFFFFF AND PUSH20 0xFFFFFFFFFFFFFFFFFFFFFFFFFFFFFFFFFFFFFFFF AND DUP2 MSTORE PUSH1 0x20 ADD SWAP1 DUP2 MSTORE PUSH1 0x20 ADD PUSH0 KECCAK256 DUP2 SWAP1 SSTORE POP PUSH1 0x3 PUSH0 SWAP1 SLOAD SWAP1 PUSH2 0x100 EXP SWAP1 DIV PUSH20 0xFFFFFFFFFFFFFFFFFFFFFFFFFFFFFFFFFFFFFFFF AND PUSH20 0xFFFFFFFFFFFFFFFFFFFFFFFFFFFFFFFFFFFFFFFF AND PUSH4 0xA9059CBB CALLER DUP4 PUSH1 0x40 MLOAD DUP4 PUSH4 0xFFFFFFFF AND PUSH1 0xE0 SHL DUP2 MSTORE PUSH1 0x4 ADD PUSH2 0xA34 SWAP3 SWAP2 SWAP1 PUSH2 0x2658 JUMP JUMPDEST PUSH1 0x20 PUSH1 0x40 MLOAD DUP1 DUP4 SUB DUP2 PUSH0 DUP8 GAS CALL ISZERO DUP1 ISZERO PUSH2 0xA50 JUMPI RETURNDATASIZE PUSH0 DUP1 RETURNDATACOPY RETURNDATASIZE PUSH0 REVERT JUMPDEST POP POP POP POP PUSH1 0x40 MLOAD RETURNDATASIZE PUSH1 0x1F NOT PUSH1 0x1F DUP3 ADD AND DUP3 ADD DUP1 PUSH1 0x40 MSTORE POP DUP2 ADD SWAP1 PUSH2 0xA74 SWAP2 SWAP1 PUSH2 0x221D JUMP JUMPDEST PUSH2 0xAB3 JUMPI PUSH1 0x40 MLOAD PUSH32 0x8C379A000000000000000000000000000000000000000000000000000000000 DUP2 MSTORE PUSH1 0x4 ADD PUSH2 0xAAA SWAP1 PUSH2 0x2882 JUMP JUMPDEST PUSH1 0x40 MLOAD DUP1 SWAP2 SUB SWAP1 REVERT JUMPDEST POP POP POP POP POP POP JUMP JUMPDEST PUSH2 0xAC3 PUSH2 0x153F JUMP JUMPDEST PUSH2 0xACC PUSH0 PUSH2 0x15DC JUMP JUMPDEST JUMP JUMPDEST PUSH1 0x4 PUSH1 0x20 MSTORE DUP1 PUSH0 MSTORE PUSH1 0x40 PUSH0 KECCAK256 PUSH0 SWAP2 POP SWAP1 POP SLOAD DUP2 JUMP JUMPDEST PUSH2 0xAEB PUSH2 0x153F JUMP JUMPDEST PUSH20 0x4300000000000000000000000000000000000002 PUSH20 0xFFFFFFFFFFFFFFFFFFFFFFFFFFFFFFFFFFFFFFFF AND PUSH4 0x954FA5EE ADDRESS ADDRESS PUSH1 0x40 MLOAD DUP4 PUSH4 0xFFFFFFFF AND PUSH1 0xE0 SHL DUP2 MSTORE PUSH1 0x4 ADD PUSH2 0xB3A SWAP3 SWAP2 SWAP1 PUSH2 0x28A0 JUMP JUMPDEST PUSH1 0x20 PUSH1 0x40 MLOAD DUP1 DUP4 SUB DUP2 PUSH0 DUP8 GAS CALL ISZERO DUP1 ISZERO PUSH2 0xB56 JUMPI RETURNDATASIZE PUSH0 DUP1 RETURNDATACOPY RETURNDATASIZE PUSH0 REVERT JUMPDEST POP POP POP POP PUSH1 0x40 MLOAD RETURNDATASIZE PUSH1 0x1F NOT PUSH1 0x1F DUP3 ADD AND DUP3 ADD DUP1 PUSH1 0x40 MSTORE POP DUP2 ADD SWAP1 PUSH2 0xB7A SWAP2 SWAP1 PUSH2 0x262D JUMP JUMPDEST POP JUMP JUMPDEST PUSH2 0xB85 PUSH2 0x153F JUMP JUMPDEST DUP1 PUSH0 DUP2 SWAP1 SSTORE POP POP JUMP JUMPDEST PUSH0 PUSH2 0xB97 PUSH2 0x16AD JUMP JUMPDEST SWAP1 POP PUSH0 DUP2 PUSH0 ADD PUSH1 0x8 SWAP1 SLOAD SWAP1 PUSH2 0x100 EXP SWAP1 DIV PUSH1 0xFF AND ISZERO SWAP1 POP PUSH0 DUP3 PUSH0 ADD PUSH0 SWAP1 SLOAD SWAP1 PUSH2 0x100 EXP SWAP1 DIV PUSH8 0xFFFFFFFFFFFFFFFF AND SWAP1 POP PUSH0 DUP1 DUP3 PUSH8 0xFFFFFFFFFFFFFFFF AND EQ DUP1 ISZERO PUSH2 0xBDF JUMPI POP DUP3 JUMPDEST SWAP1 POP PUSH0 PUSH1 0x1 DUP4 PUSH8 0xFFFFFFFFFFFFFFFF AND EQ DUP1 ISZERO PUSH2 0xC12 JUMPI POP PUSH0 ADDRESS PUSH20 0xFFFFFFFFFFFFFFFFFFFFFFFFFFFFFFFFFFFFFFFF AND EXTCODESIZE EQ JUMPDEST SWAP1 POP DUP2 ISZERO DUP1 ISZERO PUSH2 0xC20 JUMPI POP DUP1 ISZERO JUMPDEST ISZERO PUSH2 0xC57 JUMPI PUSH1 0x40 MLOAD PUSH32 0xF92EE8A900000000000000000000000000000000000000000000000000000000 DUP2 MSTORE PUSH1 0x4 ADD PUSH1 0x40 MLOAD DUP1 SWAP2 SUB SWAP1 REVERT JUMPDEST PUSH1 0x1 DUP6 PUSH0 ADD PUSH0 PUSH2 0x100 EXP DUP2 SLOAD DUP2 PUSH8 0xFFFFFFFFFFFFFFFF MUL NOT AND SWAP1 DUP4 PUSH8 0xFFFFFFFFFFFFFFFF AND MUL OR SWAP1 SSTORE POP DUP4 ISZERO PUSH2 0xCA4 JUMPI PUSH1 0x1 DUP6 PUSH0 ADD PUSH1 0x8 PUSH2 0x100 EXP DUP2 SLOAD DUP2 PUSH1 0xFF MUL NOT AND SWAP1 DUP4 ISZERO ISZERO MUL OR SWAP1 SSTORE POP JUMPDEST PUSH2 0xCAD CALLER PUSH2 0x16D4 JUMP JUMPDEST DUP4 ISZERO PUSH2 0xD07 JUMPI PUSH0 DUP6 PUSH0 ADD PUSH1 0x8 PUSH2 0x100 EXP DUP2 SLOAD DUP2 PUSH1 0xFF MUL NOT AND SWAP1 DUP4 ISZERO ISZERO MUL OR SWAP1 SSTORE POP PUSH32 0xC7F505B2F371AE2175EE4913F4499E1F2633A7B5936321EED1CDAEB6115181D2 PUSH1 0x1 PUSH1 0x40 MLOAD PUSH2 0xCFE SWAP2 SWAP1 PUSH2 0x2913 JUMP JUMPDEST PUSH1 0x40 MLOAD DUP1 SWAP2 SUB SWAP1 LOG1 JUMPDEST POP POP POP POP POP JUMP JUMPDEST PUSH0 PUSH1 0x5 PUSH0 DUP4 DUP2 MSTORE PUSH1 0x20 ADD SWAP1 DUP2 MSTORE PUSH1 0x20 ADD PUSH0 KECCAK256 SWAP1 POP DUP1 PUSH1 0x6 ADD SLOAD DUP2 PUSH1 0x9 ADD DUP1 SLOAD SWAP1 POP LT PUSH2 0xD6F JUMPI PUSH1 0x40 MLOAD PUSH32 0x8C379A000000000000000000000000000000000000000000000000000000000 DUP2 MSTORE PUSH1 0x4 ADD PUSH2 0xD66 SWAP1 PUSH2 0x2976 JUMP JUMPDEST PUSH1 0x40 MLOAD DUP1 SWAP2 SUB SWAP1 REVERT JUMPDEST PUSH1 0x1 DUP2 PUSH1 0x7 ADD SLOAD LT PUSH2 0xDB6 JUMPI PUSH1 0x40 MLOAD PUSH32 0x8C379A000000000000000000000000000000000000000000000000000000000 DUP2 MSTORE PUSH1 0x4 ADD PUSH2 0xDAD SWAP1 PUSH2 0x29DE JUMP JUMPDEST PUSH1 0x40 MLOAD DUP1 SWAP2 SUB SWAP1 REVERT JUMPDEST PUSH0 DUP2 PUSH1 0xA ADD PUSH0 CALLER PUSH20 0xFFFFFFFFFFFFFFFFFFFFFFFFFFFFFFFFFFFFFFFF AND PUSH20 0xFFFFFFFFFFFFFFFFFFFFFFFFFFFFFFFFFFFFFFFF AND DUP2 MSTORE PUSH1 0x20 ADD SWAP1 DUP2 MSTORE PUSH1 0x20 ADD PUSH0 KECCAK256 SLOAD EQ PUSH2 0xE37 JUMPI PUSH1 0x40 MLOAD PUSH32 0x8C379A000000000000000000000000000000000000000000000000000000000 DUP2 MSTORE PUSH1 0x4 ADD PUSH2 0xE2E SWAP1 PUSH2 0x2A46 JUMP JUMPDEST PUSH1 0x40 MLOAD DUP1 SWAP2 SUB SWAP1 REVERT JUMPDEST PUSH0 PUSH2 0xE45 DUP3 PUSH1 0x1 ADD SLOAD PUSH2 0x1502 JUMP JUMPDEST SWAP1 POP PUSH1 0x3 PUSH0 SWAP1 SLOAD SWAP1 PUSH2 0x100 EXP SWAP1 DIV PUSH20 0xFFFFFFFFFFFFFFFFFFFFFFFFFFFFFFFFFFFFFFFF AND PUSH20 0xFFFFFFFFFFFFFFFFFFFFFFFFFFFFFFFFFFFFFFFF AND PUSH4 0x23B872DD CALLER ADDRESS DUP5 PUSH1 0x40 MLOAD DUP5 PUSH4 0xFFFFFFFF AND PUSH1 0xE0 SHL DUP2 MSTORE PUSH1 0x4 ADD PUSH2 0xEA5 SWAP4 SWAP3 SWAP2 SWAP1 PUSH2 0x21B3 JUMP JUMPDEST PUSH1 0x20 PUSH1 0x40 MLOAD DUP1 DUP4 SUB DUP2 PUSH0 DUP8 GAS CALL ISZERO DUP1 ISZERO PUSH2 0xEC1 JUMPI RETURNDATASIZE PUSH0 DUP1 RETURNDATACOPY RETURNDATASIZE PUSH0 REVERT JUMPDEST POP POP POP POP PUSH1 0x40 MLOAD RETURNDATASIZE PUSH1 0x1F NOT PUSH1 0x1F DUP3 ADD AND DUP3 ADD DUP1 PUSH1 0x40 MSTORE POP DUP2 ADD SWAP1 PUSH2 0xEE5 SWAP2 SWAP1 PUSH2 0x221D JUMP JUMPDEST PUSH2 0xF24 JUMPI PUSH1 0x40 MLOAD PUSH32 0x8C379A000000000000000000000000000000000000000000000000000000000 DUP2 MSTORE PUSH1 0x4 ADD PUSH2 0xF1B SWAP1 PUSH2 0x2AAE JUMP JUMPDEST PUSH1 0x40 MLOAD DUP1 SWAP2 SUB SWAP1 REVERT JUMPDEST DUP1 DUP3 PUSH1 0xA ADD PUSH0 CALLER PUSH20 0xFFFFFFFFFFFFFFFFFFFFFFFFFFFFFFFFFFFFFFFF AND PUSH20 0xFFFFFFFFFFFFFFFFFFFFFFFFFFFFFFFFFFFFFFFF AND DUP2 MSTORE PUSH1 0x20 ADD SWAP1 DUP2 MSTORE PUSH1 0x20 ADD PUSH0 KECCAK256 DUP2 SWAP1 SSTORE POP DUP2 PUSH1 0x9 ADD CALLER SWAP1 DUP1 PUSH1 0x1 DUP2 SLOAD ADD DUP1 DUP3 SSTORE DUP1 SWAP2 POP POP PUSH1 0x1 SWAP1 SUB SWAP1 PUSH0 MSTORE PUSH1 0x20 PUSH0 KECCAK256 ADD PUSH0 SWAP1 SWAP2 SWAP1 SWAP2 SWAP1 SWAP2 PUSH2 0x100 EXP DUP2 SLOAD DUP2 PUSH20 0xFFFFFFFFFFFFFFFFFFFFFFFFFFFFFFFFFFFFFFFF MUL NOT AND SWAP1 DUP4 PUSH20 0xFFFFFFFFFFFFFFFFFFFFFFFFFFFFFFFFFFFFFFFF AND MUL OR SWAP1 SSTORE POP PUSH32 0x7940335F2934B328362E6C325CD06AD0BC653662A5D556304D09EF5C2CC74A76 DUP4 CALLER DUP5 PUSH1 0x1 ADD SLOAD DUP6 PUSH1 0x2 ADD SLOAD DUP7 PUSH1 0x4 ADD SLOAD DUP8 PUSH1 0x5 ADD SLOAD DUP9 PUSH1 0x6 ADD SLOAD PUSH1 0x40 MLOAD PUSH2 0x1019 SWAP8 SWAP7 SWAP6 SWAP5 SWAP4 SWAP3 SWAP2 SWAP1 PUSH2 0x2ACC JUMP JUMPDEST PUSH1 0x40 MLOAD DUP1 SWAP2 SUB SWAP1 LOG1 POP POP POP JUMP JUMPDEST PUSH0 DUP1 PUSH2 0x1030 PUSH2 0x16E8 JUMP JUMPDEST SWAP1 POP DUP1 PUSH0 ADD PUSH0 SWAP1 SLOAD SWAP1 PUSH2 0x100 EXP SWAP1 DIV PUSH20 0xFFFFFFFFFFFFFFFFFFFFFFFFFFFFFFFFFFFFFFFF AND SWAP2 POP POP SWAP1 JUMP JUMPDEST PUSH20 0x4300000000000000000000000000000000000002 DUP2 JUMP JUMPDEST PUSH1 0x2 SLOAD DUP2 JUMP JUMPDEST PUSH1 0x5 PUSH1 0x20 MSTORE DUP1 PUSH0 MSTORE PUSH1 0x40 PUSH0 KECCAK256 PUSH0 SWAP2 POP SWAP1 POP DUP1 PUSH0 ADD DUP1 SLOAD PUSH2 0x1098 SWAP1 PUSH2 0x2303 JUMP JUMPDEST DUP1 PUSH1 0x1F ADD PUSH1 0x20 DUP1 SWAP2 DIV MUL PUSH1 0x20 ADD PUSH1 0x40 MLOAD SWAP1 DUP2 ADD PUSH1 0x40 MSTORE DUP1 SWAP3 SWAP2 SWAP1 DUP2 DUP2 MSTORE PUSH1 0x20 ADD DUP3 DUP1 SLOAD PUSH2 0x10C4 SWAP1 PUSH2 0x2303 JUMP JUMPDEST DUP1 ISZERO PUSH2 0x110F JUMPI DUP1 PUSH1 0x1F LT PUSH2 0x10E6 JUMPI PUSH2 0x100 DUP1 DUP4 SLOAD DIV MUL DUP4 MSTORE SWAP2 PUSH1 0x20 ADD SWAP2 PUSH2 0x110F JUMP JUMPDEST DUP3 ADD SWAP2 SWAP1 PUSH0 MSTORE PUSH1 0x20 PUSH0 KECCAK256 SWAP1 JUMPDEST DUP2 SLOAD DUP2 MSTORE SWAP1 PUSH1 0x1 ADD SWAP1 PUSH1 0x20 ADD DUP1 DUP4 GT PUSH2 0x10F2 JUMPI DUP3 SWAP1 SUB PUSH1 0x1F AND DUP3 ADD SWAP2 JUMPDEST POP POP POP POP POP SWAP1 DUP1 PUSH1 0x1 ADD SLOAD SWAP1 DUP1 PUSH1 0x2 ADD SLOAD SWAP1 DUP1 PUSH1 0x3 ADD SLOAD SWAP1 DUP1 PUSH1 0x4 ADD SLOAD SWAP1 DUP1 PUSH1 0x5 ADD SLOAD SWAP1 DUP1 PUSH1 0x6 ADD SLOAD SWAP1 DUP1 PUSH1 0x7 ADD SLOAD SWAP1 DUP1 PUSH1 0x8 ADD PUSH0 SWAP1 SLOAD SWAP1 PUSH2 0x100 EXP SWAP1 DIV PUSH20 0xFFFFFFFFFFFFFFFFFFFFFFFFFFFFFFFFFFFFFFFF AND SWAP1 POP DUP10 JUMP JUMPDEST CALLER PUSH20 0xFFFFFFFFFFFFFFFFFFFFFFFFFFFFFFFFFFFFFFFF AND PUSH1 0x5 PUSH0 DUP4 DUP2 MSTORE PUSH1 0x20 ADD SWAP1 DUP2 MSTORE PUSH1 0x20 ADD PUSH0 KECCAK256 PUSH1 0x8 ADD PUSH0 SWAP1 SLOAD SWAP1 PUSH2 0x100 EXP SWAP1 DIV PUSH20 0xFFFFFFFFFFFFFFFFFFFFFFFFFFFFFFFFFFFFFFFF AND PUSH20 0xFFFFFFFFFFFFFFFFFFFFFFFFFFFFFFFFFFFFFFFF AND EQ PUSH2 0x1209 JUMPI PUSH1 0x40 MLOAD PUSH32 0x8C379A000000000000000000000000000000000000000000000000000000000 DUP2 MSTORE PUSH1 0x4 ADD PUSH2 0x1200 SWAP1 PUSH2 0x2BA9 JUMP JUMPDEST PUSH1 0x40 MLOAD DUP1 SWAP2 SUB SWAP1 REVERT JUMPDEST PUSH0 PUSH1 0x5 PUSH0 DUP4 DUP2 MSTORE PUSH1 0x20 ADD SWAP1 DUP2 MSTORE PUSH1 0x20 ADD PUSH0 KECCAK256 SWAP1 POP DUP1 PUSH1 0x2 ADD SLOAD DUP2 PUSH1 0x3 ADD SLOAD PUSH2 0x1231 SWAP2 SWAP1 PUSH2 0x2BC7 JUMP JUMPDEST TIMESTAMP LT ISZERO PUSH2 0x1273 JUMPI PUSH1 0x40 MLOAD PUSH32 0x8C379A000000000000000000000000000000000000000000000000000000000 DUP2 MSTORE PUSH1 0x4 ADD PUSH2 0x126A SWAP1 PUSH2 0x2C44 JUMP JUMPDEST PUSH1 0x40 MLOAD DUP1 SWAP2 SUB SWAP1 REVERT JUMPDEST PUSH0 DUP2 PUSH1 0x6 ADD SLOAD DUP3 PUSH1 0x7 ADD SLOAD PUSH2 0x1288 SWAP2 SWAP1 PUSH2 0x2C8F JUMP JUMPDEST SWAP1 POP PUSH0 DUP3 PUSH1 0x9 ADD DUP3 DUP2 SLOAD DUP2 LT PUSH2 0x12A1 JUMPI PUSH2 0x12A0 PUSH2 0x2CBF JUMP JUMPDEST JUMPDEST SWAP1 PUSH0 MSTORE PUSH1 0x20 PUSH0 KECCAK256 ADD PUSH0 SWAP1 SLOAD SWAP1 PUSH2 0x100 EXP SWAP1 DIV PUSH20 0xFFFFFFFFFFFFFFFFFFFFFFFFFFFFFFFFFFFFFFFF AND SWAP1 POP PUSH0 DUP4 PUSH1 0x1 ADD SLOAD DUP5 PUSH1 0x9 ADD DUP1 SLOAD SWAP1 POP PUSH2 0x12E3 SWAP2 SWAP1 PUSH2 0x2CEC JUMP JUMPDEST SWAP1 POP PUSH0 PUSH2 0x12F0 DUP7 DUP4 PUSH2 0x1441 JUMP JUMPDEST SWAP1 POP PUSH1 0x3 PUSH0 SWAP1 SLOAD SWAP1 PUSH2 0x100 EXP SWAP1 DIV PUSH20 0xFFFFFFFFFFFFFFFFFFFFFFFFFFFFFFFFFFFFFFFF AND PUSH20 0xFFFFFFFFFFFFFFFFFFFFFFFFFFFFFFFFFFFFFFFF AND PUSH4 0xA9059CBB CALLER DUP4 DUP6 PUSH2 0x133C SWAP2 SWAP1 PUSH2 0x2805 JUMP JUMPDEST PUSH1 0x40 MLOAD DUP4 PUSH4 0xFFFFFFFF AND PUSH1 0xE0 SHL DUP2 MSTORE PUSH1 0x4 ADD PUSH2 0x1359 SWAP3 SWAP2 SWAP1 PUSH2 0x2658 JUMP JUMPDEST PUSH1 0x20 PUSH1 0x40 MLOAD DUP1 DUP4 SUB DUP2 PUSH0 DUP8 GAS CALL ISZERO DUP1 ISZERO PUSH2 0x1375 JUMPI RETURNDATASIZE PUSH0 DUP1 RETURNDATACOPY RETURNDATASIZE PUSH0 REVERT JUMPDEST POP POP POP POP PUSH1 0x40 MLOAD RETURNDATASIZE PUSH1 0x1F NOT PUSH1 0x1F DUP3 ADD AND DUP3 ADD DUP1 PUSH1 0x40 MSTORE POP DUP2 ADD SWAP1 PUSH2 0x1399 SWAP2 SWAP1 PUSH2 0x221D JUMP JUMPDEST PUSH2 0x13D8 JUMPI PUSH1 0x40 MLOAD PUSH32 0x8C379A000000000000000000000000000000000000000000000000000000000 DUP2 MSTORE PUSH1 0x4 ADD PUSH2 0x13CF SWAP1 PUSH2 0x2882 JUMP JUMPDEST PUSH1 0x40 MLOAD DUP1 SWAP2 SUB SWAP1 REVERT JUMPDEST TIMESTAMP DUP6 PUSH1 0x3 ADD DUP2 SWAP1 SSTORE POP PUSH32 0x35CB3811461CB824B245820EEE97AB50EE1CC609F2BDD3BB10F5F0010184A7D3 DUP7 DUP5 DUP8 PUSH1 0x7 ADD SLOAD PUSH1 0x40 MLOAD PUSH2 0x1418 SWAP4 SWAP3 SWAP2 SWAP1 PUSH2 0x2D2D JUMP JUMPDEST PUSH1 0x40 MLOAD DUP1 SWAP2 SUB SWAP1 LOG1 DUP5 PUSH1 0x7 ADD PUSH0 DUP2 SLOAD DUP1 SWAP3 SWAP2 SWAP1 PUSH2 0x1434 SWAP1 PUSH2 0x216C JUMP JUMPDEST SWAP2 SWAP1 POP SSTORE POP POP POP POP POP POP POP JUMP JUMPDEST PUSH0 DUP1 PUSH1 0x5 PUSH0 DUP6 DUP2 MSTORE PUSH1 0x20 ADD SWAP1 DUP2 MSTORE PUSH1 0x20 ADD PUSH0 KECCAK256 SWAP1 POP DUP1 PUSH1 0x5 ADD SLOAD DUP2 PUSH1 0x4 ADD SLOAD DUP5 PUSH2 0x146B SWAP2 SWAP1 PUSH2 0x2CEC JUMP JUMPDEST PUSH2 0x1475 SWAP2 SWAP1 PUSH2 0x2D62 JUMP JUMPDEST SWAP2 POP POP SWAP3 SWAP2 POP POP JUMP JUMPDEST PUSH2 0x1486 PUSH2 0x153F JUMP JUMPDEST PUSH0 PUSH20 0xFFFFFFFFFFFFFFFFFFFFFFFFFFFFFFFFFFFFFFFF AND DUP2 PUSH20 0xFFFFFFFFFFFFFFFFFFFFFFFFFFFFFFFFFFFFFFFF AND SUB PUSH2 0x14F6 JUMPI PUSH0 PUSH1 0x40 MLOAD PUSH32 0x1E4FBDF700000000000000000000000000000000000000000000000000000000 DUP2 MSTORE PUSH1 0x4 ADD PUSH2 0x14ED SWAP2 SWAP1 PUSH2 0x1E1F JUMP JUMPDEST PUSH1 0x40 MLOAD DUP1 SWAP2 SUB SWAP1 REVERT JUMPDEST PUSH2 0x14FF DUP2 PUSH2 0x15DC JUMP JUMPDEST POP JUMP JUMPDEST PUSH0 DUP1 PUSH1 0x64 DUP4 PUSH2 0x1511 SWAP2 SWAP1 PUSH2 0x2D62 JUMP JUMPDEST SWAP1 POP DUP1 DUP4 PUSH2 0x151F SWAP2 SWAP1 PUSH2 0x2805 JUMP JUMPDEST SWAP2 POP DUP1 PUSH1 0x2 PUSH0 DUP3 DUP3 SLOAD PUSH2 0x1532 SWAP2 SWAP1 PUSH2 0x2BC7 JUMP JUMPDEST SWAP3 POP POP DUP2 SWAP1 SSTORE POP POP SWAP2 SWAP1 POP JUMP JUMPDEST PUSH2 0x1547 PUSH2 0x170F JUMP JUMPDEST PUSH20 0xFFFFFFFFFFFFFFFFFFFFFFFFFFFFFFFFFFFFFFFF AND PUSH2 0x1565 PUSH2 0x1026 JUMP JUMPDEST PUSH20 0xFFFFFFFFFFFFFFFFFFFFFFFFFFFFFFFFFFFFFFFF AND EQ PUSH2 0x15C4 JUMPI PUSH2 0x1588 PUSH2 0x170F JUMP JUMPDEST PUSH1 0x40 MLOAD PUSH32 0x118CDAA700000000000000000000000000000000000000000000000000000000 DUP2 MSTORE PUSH1 0x4 ADD PUSH2 0x15BB SWAP2 SWAP1 PUSH2 0x1E1F JUMP JUMPDEST PUSH1 0x40 MLOAD DUP1 SWAP2 SUB SWAP1 REVERT JUMPDEST JUMP JUMPDEST PUSH0 DUP3 PUSH2 0x15D2 DUP6 DUP5 PUSH2 0x1716 JUMP JUMPDEST EQ SWAP1 POP SWAP4 SWAP3 POP POP POP JUMP JUMPDEST PUSH0 PUSH2 0x15E5 PUSH2 0x16E8 JUMP JUMPDEST SWAP1 POP PUSH0 DUP2 PUSH0 ADD PUSH0 SWAP1 SLOAD SWAP1 PUSH2 0x100 EXP SWAP1 DIV PUSH20 0xFFFFFFFFFFFFFFFFFFFFFFFFFFFFFFFFFFFFFFFF AND SWAP1 POP DUP3 DUP3 PUSH0 ADD PUSH0 PUSH2 0x100 EXP DUP2 SLOAD DUP2 PUSH20 0xFFFFFFFFFFFFFFFFFFFFFFFFFFFFFFFFFFFFFFFF MUL NOT AND SWAP1 DUP4 PUSH20 0xFFFFFFFFFFFFFFFFFFFFFFFFFFFFFFFFFFFFFFFF AND MUL OR SWAP1 SSTORE POP DUP3 PUSH20 0xFFFFFFFFFFFFFFFFFFFFFFFFFFFFFFFFFFFFFFFF AND DUP2 PUSH20 0xFFFFFFFFFFFFFFFFFFFFFFFFFFFFFFFFFFFFFFFF AND PUSH32 0x8BE0079C531659141344CD1FD0A4F28419497F9722A3DAAFE3B4186F6B6457E0 PUSH1 0x40 MLOAD PUSH1 0x40 MLOAD DUP1 SWAP2 SUB SWAP1 LOG3 POP POP POP JUMP JUMPDEST PUSH0 PUSH32 0xF0C57E16840DF040F15088DC2F81FE391C3923BEC73E23A9662EFC9C229C6A00 SWAP1 POP SWAP1 JUMP JUMPDEST PUSH2 0x16DC PUSH2 0x1764 JUMP JUMPDEST PUSH2 0x16E5 DUP2 PUSH2 0x17A4 JUMP JUMPDEST POP JUMP JUMPDEST PUSH0 PUSH32 0x9016D09D72D40FDAE2FD8CEAC6B6234C7706214FD39C1CD1E609A0528C199300 SWAP1 POP SWAP1 JUMP JUMPDEST PUSH0 CALLER SWAP1 POP SWAP1 JUMP JUMPDEST PUSH0 DUP1 DUP3 SWAP1 POP PUSH0 JUMPDEST DUP5 MLOAD DUP2 LT ISZERO PUSH2 0x1759 JUMPI PUSH2 0x174A DUP3 DUP7 DUP4 DUP2 MLOAD DUP2 LT PUSH2 0x173D JUMPI PUSH2 0x173C PUSH2 0x2CBF JUMP JUMPDEST JUMPDEST PUSH1 0x20 MUL PUSH1 0x20 ADD ADD MLOAD PUSH2 0x1828 JUMP JUMPDEST SWAP2 POP DUP1 DUP1 PUSH1 0x1 ADD SWAP2 POP POP PUSH2 0x171D JUMP JUMPDEST POP DUP1 SWAP2 POP POP SWAP3 SWAP2 POP POP JUMP JUMPDEST PUSH2 0x176C PUSH2 0x1852 JUMP JUMPDEST PUSH2 0x17A2 JUMPI PUSH1 0x40 MLOAD PUSH32 0xD7E6BCF800000000000000000000000000000000000000000000000000000000 DUP2 MSTORE PUSH1 0x4 ADD PUSH1 0x40 MLOAD DUP1 SWAP2 SUB SWAP1 REVERT JUMPDEST JUMP JUMPDEST PUSH2 0x17AC PUSH2 0x1764 JUMP JUMPDEST PUSH0 PUSH20 0xFFFFFFFFFFFFFFFFFFFFFFFFFFFFFFFFFFFFFFFF AND DUP2 PUSH20 0xFFFFFFFFFFFFFFFFFFFFFFFFFFFFFFFFFFFFFFFF AND SUB PUSH2 0x181C JUMPI PUSH0 PUSH1 0x40 MLOAD PUSH32 0x1E4FBDF700000000000000000000000000000000000000000000000000000000 DUP2 MSTORE PUSH1 0x4 ADD PUSH2 0x1813 SWAP2 SWAP1 PUSH2 0x1E1F JUMP JUMPDEST PUSH1 0x40 MLOAD DUP1 SWAP2 SUB SWAP1 REVERT JUMPDEST PUSH2 0x1825 DUP2 PUSH2 0x15DC JUMP JUMPDEST POP JUMP JUMPDEST PUSH0 DUP2 DUP4 LT PUSH2 0x183F JUMPI PUSH2 0x183A DUP3 DUP5 PUSH2 0x1870 JUMP JUMPDEST PUSH2 0x184A JUMP JUMPDEST PUSH2 0x1849 DUP4 DUP4 PUSH2 0x1870 JUMP JUMPDEST JUMPDEST SWAP1 POP SWAP3 SWAP2 POP POP JUMP JUMPDEST PUSH0 PUSH2 0x185B PUSH2 0x16AD JUMP JUMPDEST PUSH0 ADD PUSH1 0x8 SWAP1 SLOAD SWAP1 PUSH2 0x100 EXP SWAP1 DIV PUSH1 0xFF AND SWAP1 POP SWAP1 JUMP JUMPDEST PUSH0 DUP3 PUSH0 MSTORE DUP2 PUSH1 0x20 MSTORE PUSH1 0x40 PUSH0 KECCAK256 SWAP1 POP SWAP3 SWAP2 POP POP JUMP JUMPDEST DUP3 DUP1 SLOAD DUP3 DUP3 SSTORE SWAP1 PUSH0 MSTORE PUSH1 0x20 PUSH0 KECCAK256 SWAP1 DUP2 ADD SWAP3 DUP3 ISZERO PUSH2 0x18FA JUMPI SWAP2 PUSH1 0x20 MUL DUP3 ADD JUMPDEST DUP3 DUP2 GT ISZERO PUSH2 0x18F9 JUMPI DUP3 MLOAD DUP3 PUSH0 PUSH2 0x100 EXP DUP2 SLOAD DUP2 PUSH20 0xFFFFFFFFFFFFFFFFFFFFFFFFFFFFFFFFFFFFFFFF MUL NOT AND SWAP1 DUP4 PUSH20 0xFFFFFFFFFFFFFFFFFFFFFFFFFFFFFFFFFFFFFFFF AND MUL OR SWAP1 SSTORE POP SWAP2 PUSH1 0x20 ADD SWAP2 SWAP1 PUSH1 0x1 ADD SWAP1 PUSH2 0x18A2 JUMP JUMPDEST JUMPDEST POP SWAP1 POP PUSH2 0x1907 SWAP2 SWAP1 PUSH2 0x190B JUMP JUMPDEST POP SWAP1 JUMP JUMPDEST JUMPDEST DUP1 DUP3 GT ISZERO PUSH2 0x1922 JUMPI PUSH0 DUP2 PUSH0 SWAP1 SSTORE POP PUSH1 0x1 ADD PUSH2 0x190C JUMP JUMPDEST POP SWAP1 JUMP JUMPDEST PUSH0 PUSH1 0x40 MLOAD SWAP1 POP SWAP1 JUMP JUMPDEST PUSH0 DUP1 REVERT JUMPDEST PUSH0 DUP1 REVERT JUMPDEST PUSH0 DUP1 REVERT JUMPDEST PUSH0 DUP1 REVERT JUMPDEST PUSH0 PUSH1 0x1F NOT PUSH1 0x1F DUP4 ADD AND SWAP1 POP SWAP2 SWAP1 POP JUMP JUMPDEST PUSH32 0x4E487B7100000000000000000000000000000000000000000000000000000000 PUSH0 MSTORE PUSH1 0x41 PUSH1 0x4 MSTORE PUSH1 0x24 PUSH0 REVERT JUMPDEST PUSH2 0x1985 DUP3 PUSH2 0x193F JUMP JUMPDEST DUP2 ADD DUP2 DUP2 LT PUSH8 0xFFFFFFFFFFFFFFFF DUP3 GT OR ISZERO PUSH2 0x19A4 JUMPI PUSH2 0x19A3 PUSH2 0x194F JUMP JUMPDEST JUMPDEST DUP1 PUSH1 0x40 MSTORE POP POP POP JUMP JUMPDEST PUSH0 PUSH2 0x19B6 PUSH2 0x1926 JUMP JUMPDEST SWAP1 POP PUSH2 0x19C2 DUP3 DUP3 PUSH2 0x197C JUMP JUMPDEST SWAP2 SWAP1 POP JUMP JUMPDEST PUSH0 PUSH8 0xFFFFFFFFFFFFFFFF DUP3 GT ISZERO PUSH2 0x19E1 JUMPI PUSH2 0x19E0 PUSH2 0x194F JUMP JUMPDEST JUMPDEST PUSH2 0x19EA DUP3 PUSH2 0x193F JUMP JUMPDEST SWAP1 POP PUSH1 0x20 DUP2 ADD SWAP1 POP SWAP2 SWAP1 POP JUMP JUMPDEST DUP3 DUP2 DUP4 CALLDATACOPY PUSH0 DUP4 DUP4 ADD MSTORE POP POP POP JUMP JUMPDEST PUSH0 PUSH2 0x1A17 PUSH2 0x1A12 DUP5 PUSH2 0x19C7 JUMP JUMPDEST PUSH2 0x19AD JUMP JUMPDEST SWAP1 POP DUP3 DUP2 MSTORE PUSH1 0x20 DUP2 ADD DUP5 DUP5 DUP5 ADD GT ISZERO PUSH2 0x1A33 JUMPI PUSH2 0x1A32 PUSH2 0x193B JUMP JUMPDEST JUMPDEST PUSH2 0x1A3E DUP5 DUP3 DUP6 PUSH2 0x19F7 JUMP JUMPDEST POP SWAP4 SWAP3 POP POP POP JUMP JUMPDEST PUSH0 DUP3 PUSH1 0x1F DUP4 ADD SLT PUSH2 0x1A5A JUMPI PUSH2 0x1A59 PUSH2 0x1937 JUMP JUMPDEST JUMPDEST DUP2 CALLDATALOAD PUSH2 0x1A6A DUP5 DUP3 PUSH1 0x20 DUP7 ADD PUSH2 0x1A05 JUMP JUMPDEST SWAP2 POP POP SWAP3 SWAP2 POP POP JUMP JUMPDEST PUSH0 DUP2 SWAP1 POP SWAP2 SWAP1 POP JUMP JUMPDEST PUSH2 0x1A85 DUP2 PUSH2 0x1A73 JUMP JUMPDEST DUP2 EQ PUSH2 0x1A8F JUMPI PUSH0 DUP1 REVERT JUMPDEST POP JUMP JUMPDEST PUSH0 DUP2 CALLDATALOAD SWAP1 POP PUSH2 0x1AA0 DUP2 PUSH2 0x1A7C JUMP JUMPDEST SWAP3 SWAP2 POP POP JUMP JUMPDEST PUSH0 DUP1 PUSH0 DUP1 PUSH0 DUP1 PUSH1 0xC0 DUP8 DUP10 SUB SLT ISZERO PUSH2 0x1AC0 JUMPI PUSH2 0x1ABF PUSH2 0x192F JUMP JUMPDEST JUMPDEST PUSH0 DUP8 ADD CALLDATALOAD PUSH8 0xFFFFFFFFFFFFFFFF DUP2 GT ISZERO PUSH2 0x1ADD JUMPI PUSH2 0x1ADC PUSH2 0x1933 JUMP JUMPDEST JUMPDEST PUSH2 0x1AE9 DUP10 DUP3 DUP11 ADD PUSH2 0x1A46 JUMP JUMPDEST SWAP7 POP POP PUSH1 0x20 PUSH2 0x1AFA DUP10 DUP3 DUP11 ADD PUSH2 0x1A92 JUMP JUMPDEST SWAP6 POP POP PUSH1 0x40 PUSH2 0x1B0B DUP10 DUP3 DUP11 ADD PUSH2 0x1A92 JUMP JUMPDEST SWAP5 POP POP PUSH1 0x60 PUSH2 0x1B1C DUP10 DUP3 DUP11 ADD PUSH2 0x1A92 JUMP JUMPDEST SWAP4 POP POP PUSH1 0x80 PUSH2 0x1B2D DUP10 DUP3 DUP11 ADD PUSH2 0x1A92 JUMP JUMPDEST SWAP3 POP POP PUSH1 0xA0 PUSH2 0x1B3E DUP10 DUP3 DUP11 ADD PUSH2 0x1A92 JUMP JUMPDEST SWAP2 POP POP SWAP3 SWAP6 POP SWAP3 SWAP6 POP SWAP3 SWAP6 JUMP JUMPDEST PUSH0 DUP2 SWAP1 POP SWAP2 SWAP1 POP JUMP JUMPDEST PUSH2 0x1B5D DUP2 PUSH2 0x1B4B JUMP JUMPDEST DUP3 MSTORE POP POP JUMP JUMPDEST PUSH0 PUSH1 0x20 DUP3 ADD SWAP1 POP PUSH2 0x1B76 PUSH0 DUP4 ADD DUP5 PUSH2 0x1B54 JUMP JUMPDEST SWAP3 SWAP2 POP POP JUMP JUMPDEST PUSH0 PUSH20 0xFFFFFFFFFFFFFFFFFFFFFFFFFFFFFFFFFFFFFFFF DUP3 AND SWAP1 POP SWAP2 SWAP1 POP JUMP JUMPDEST PUSH0 DUP2 SWAP1 POP SWAP2 SWAP1 POP JUMP JUMPDEST PUSH0 PUSH2 0x1BBE PUSH2 0x1BB9 PUSH2 0x1BB4 DUP5 PUSH2 0x1B7C JUMP JUMPDEST PUSH2 0x1B9B JUMP JUMPDEST PUSH2 0x1B7C JUMP JUMPDEST SWAP1 POP SWAP2 SWAP1 POP JUMP JUMPDEST PUSH0 PUSH2 0x1BCF DUP3 PUSH2 0x1BA4 JUMP JUMPDEST SWAP1 POP SWAP2 SWAP1 POP JUMP JUMPDEST PUSH0 PUSH2 0x1BE0 DUP3 PUSH2 0x1BC5 JUMP JUMPDEST SWAP1 POP SWAP2 SWAP1 POP JUMP JUMPDEST PUSH2 0x1BF0 DUP2 PUSH2 0x1BD6 JUMP JUMPDEST DUP3 MSTORE POP POP JUMP JUMPDEST PUSH0 PUSH1 0x20 DUP3 ADD SWAP1 POP PUSH2 0x1C09 PUSH0 DUP4 ADD DUP5 PUSH2 0x1BE7 JUMP JUMPDEST SWAP3 SWAP2 POP POP JUMP JUMPDEST PUSH0 PUSH2 0x1C19 DUP3 PUSH2 0x1BC5 JUMP JUMPDEST SWAP1 POP SWAP2 SWAP1 POP JUMP JUMPDEST PUSH2 0x1C29 DUP2 PUSH2 0x1C0F JUMP JUMPDEST DUP3 MSTORE POP POP JUMP JUMPDEST PUSH0 PUSH1 0x20 DUP3 ADD SWAP1 POP PUSH2 0x1C42 PUSH0 DUP4 ADD DUP5 PUSH2 0x1C20 JUMP JUMPDEST SWAP3 SWAP2 POP POP JUMP JUMPDEST PUSH0 DUP1 REVERT JUMPDEST PUSH0 DUP1 REVERT JUMPDEST PUSH0 DUP1 DUP4 PUSH1 0x1F DUP5 ADD SLT PUSH2 0x1C65 JUMPI PUSH2 0x1C64 PUSH2 0x1937 JUMP JUMPDEST JUMPDEST DUP3 CALLDATALOAD SWAP1 POP PUSH8 0xFFFFFFFFFFFFFFFF DUP2 GT ISZERO PUSH2 0x1C82 JUMPI PUSH2 0x1C81 PUSH2 0x1C48 JUMP JUMPDEST JUMPDEST PUSH1 0x20 DUP4 ADD SWAP2 POP DUP4 PUSH1 0x20 DUP3 MUL DUP4 ADD GT ISZERO PUSH2 0x1C9E JUMPI PUSH2 0x1C9D PUSH2 0x1C4C JUMP JUMPDEST JUMPDEST SWAP3 POP SWAP3 SWAP1 POP JUMP JUMPDEST PUSH0 DUP1 PUSH0 PUSH1 0x40 DUP5 DUP7 SUB SLT ISZERO PUSH2 0x1CBC JUMPI PUSH2 0x1CBB PUSH2 0x192F JUMP JUMPDEST JUMPDEST PUSH0 PUSH2 0x1CC9 DUP7 DUP3 DUP8 ADD PUSH2 0x1A92 JUMP JUMPDEST SWAP4 POP POP PUSH1 0x20 DUP5 ADD CALLDATALOAD PUSH8 0xFFFFFFFFFFFFFFFF DUP2 GT ISZERO PUSH2 0x1CEA JUMPI PUSH2 0x1CE9 PUSH2 0x1933 JUMP JUMPDEST JUMPDEST PUSH2 0x1CF6 DUP7 DUP3 DUP8 ADD PUSH2 0x1C50 JUMP JUMPDEST SWAP3 POP SWAP3 POP POP SWAP3 POP SWAP3 POP SWAP3 JUMP JUMPDEST PUSH0 PUSH2 0x1D0C DUP3 PUSH2 0x1B7C JUMP JUMPDEST SWAP1 POP SWAP2 SWAP1 POP JUMP JUMPDEST PUSH2 0x1D1C DUP2 PUSH2 0x1D02 JUMP JUMPDEST DUP2 EQ PUSH2 0x1D26 JUMPI PUSH0 DUP1 REVERT JUMPDEST POP JUMP JUMPDEST PUSH0 DUP2 CALLDATALOAD SWAP1 POP PUSH2 0x1D37 DUP2 PUSH2 0x1D13 JUMP JUMPDEST SWAP3 SWAP2 POP POP JUMP JUMPDEST PUSH0 PUSH1 0x20 DUP3 DUP5 SUB SLT ISZERO PUSH2 0x1D52 JUMPI PUSH2 0x1D51 PUSH2 0x192F JUMP JUMPDEST JUMPDEST PUSH0 PUSH2 0x1D5F DUP5 DUP3 DUP6 ADD PUSH2 0x1D29 JUMP JUMPDEST SWAP2 POP POP SWAP3 SWAP2 POP POP JUMP JUMPDEST PUSH2 0x1D71 DUP2 PUSH2 0x1A73 JUMP JUMPDEST DUP3 MSTORE POP POP JUMP JUMPDEST PUSH0 PUSH1 0x20 DUP3 ADD SWAP1 POP PUSH2 0x1D8A PUSH0 DUP4 ADD DUP5 PUSH2 0x1D68 JUMP JUMPDEST SWAP3 SWAP2 POP POP JUMP JUMPDEST PUSH2 0x1D99 DUP2 PUSH2 0x1B4B JUMP JUMPDEST DUP2 EQ PUSH2 0x1DA3 JUMPI PUSH0 DUP1 REVERT JUMPDEST POP JUMP JUMPDEST PUSH0 DUP2 CALLDATALOAD SWAP1 POP PUSH2 0x1DB4 DUP2 PUSH2 0x1D90 JUMP JUMPDEST SWAP3 SWAP2 POP POP JUMP JUMPDEST PUSH0 PUSH1 0x20 DUP3 DUP5 SUB SLT ISZERO PUSH2 0x1DCF JUMPI PUSH2 0x1DCE PUSH2 0x192F JUMP JUMPDEST JUMPDEST PUSH0 PUSH2 0x1DDC DUP5 DUP3 DUP6 ADD PUSH2 0x1DA6 JUMP JUMPDEST SWAP2 POP POP SWAP3 SWAP2 POP POP JUMP JUMPDEST PUSH0 PUSH1 0x20 DUP3 DUP5 SUB SLT ISZERO PUSH2 0x1DFA JUMPI PUSH2 0x1DF9 PUSH2 0x192F JUMP JUMPDEST JUMPDEST PUSH0 PUSH2 0x1E07 DUP5 DUP3 DUP6 ADD PUSH2 0x1A92 JUMP JUMPDEST SWAP2 POP POP SWAP3 SWAP2 POP POP JUMP JUMPDEST PUSH2 0x1E19 DUP2 PUSH2 0x1D02 JUMP JUMPDEST DUP3 MSTORE POP POP JUMP JUMPDEST PUSH0 PUSH1 0x20 DUP3 ADD SWAP1 POP PUSH2 0x1E32 PUSH0 DUP4 ADD DUP5 PUSH2 0x1E10 JUMP JUMPDEST SWAP3 SWAP2 POP POP JUMP JUMPDEST PUSH0 PUSH2 0x1E42 DUP3 PUSH2 0x1BC5 JUMP JUMPDEST SWAP1 POP SWAP2 SWAP1 POP JUMP JUMPDEST PUSH2 0x1E52 DUP2 PUSH2 0x1E38 JUMP JUMPDEST DUP3 MSTORE POP POP JUMP JUMPDEST PUSH0 PUSH1 0x20 DUP3 ADD SWAP1 POP PUSH2 0x1E6B PUSH0 DUP4 ADD DUP5 PUSH2 0x1E49 JUMP JUMPDEST SWAP3 SWAP2 POP POP JUMP JUMPDEST PUSH0 DUP2 MLOAD SWAP1 POP SWAP2 SWAP1 POP JUMP JUMPDEST PUSH0 DUP3 DUP3 MSTORE PUSH1 0x20 DUP3 ADD SWAP1 POP SWAP3 SWAP2 POP POP JUMP JUMPDEST PUSH0 JUMPDEST DUP4 DUP2 LT ISZERO PUSH2 0x1EA8 JUMPI DUP1 DUP3 ADD MLOAD DUP2 DUP5 ADD MSTORE PUSH1 0x20 DUP2 ADD SWAP1 POP PUSH2 0x1E8D JUMP JUMPDEST PUSH0 DUP5 DUP5 ADD MSTORE POP POP POP POP JUMP JUMPDEST PUSH0 PUSH2 0x1EBD DUP3 PUSH2 0x1E71 JUMP JUMPDEST PUSH2 0x1EC7 DUP2 DUP6 PUSH2 0x1E7B JUMP JUMPDEST SWAP4 POP PUSH2 0x1ED7 DUP2 DUP6 PUSH1 0x20 DUP7 ADD PUSH2 0x1E8B JUMP JUMPDEST PUSH2 0x1EE0 DUP2 PUSH2 0x193F JUMP JUMPDEST DUP5 ADD SWAP2 POP POP SWAP3 SWAP2 POP POP JUMP JUMPDEST PUSH0 PUSH2 0x120 DUP3 ADD SWAP1 POP DUP2 DUP2 SUB PUSH0 DUP4 ADD MSTORE PUSH2 0x1F04 DUP2 DUP13 PUSH2 0x1EB3 JUMP JUMPDEST SWAP1 POP PUSH2 0x1F13 PUSH1 0x20 DUP4 ADD DUP12 PUSH2 0x1D68 JUMP JUMPDEST PUSH2 0x1F20 PUSH1 0x40 DUP4 ADD DUP11 PUSH2 0x1D68 JUMP JUMPDEST PUSH2 0x1F2D PUSH1 0x60 DUP4 ADD DUP10 PUSH2 0x1D68 JUMP JUMPDEST PUSH2 0x1F3A PUSH1 0x80 DUP4 ADD DUP9 PUSH2 0x1D68 JUMP JUMPDEST PUSH2 0x1F47 PUSH1 0xA0 DUP4 ADD DUP8 PUSH2 0x1D68 JUMP JUMPDEST PUSH2 0x1F54 PUSH1 0xC0 DUP4 ADD DUP7 PUSH2 0x1D68 JUMP JUMPDEST PUSH2 0x1F61 PUSH1 0xE0 DUP4 ADD DUP6 PUSH2 0x1D68 JUMP JUMPDEST PUSH2 0x1F6F PUSH2 0x100 DUP4 ADD DUP5 PUSH2 0x1E10 JUMP JUMPDEST SWAP11 SWAP10 POP POP POP POP POP POP POP POP POP POP JUMP JUMPDEST PUSH0 DUP1 PUSH1 0x40 DUP4 DUP6 SUB SLT ISZERO PUSH2 0x1F93 JUMPI PUSH2 0x1F92 PUSH2 0x192F JUMP JUMPDEST JUMPDEST PUSH0 PUSH2 0x1FA0 DUP6 DUP3 DUP7 ADD PUSH2 0x1A92 JUMP JUMPDEST SWAP3 POP POP PUSH1 0x20 PUSH2 0x1FB1 DUP6 DUP3 DUP7 ADD PUSH2 0x1A92 JUMP JUMPDEST SWAP2 POP POP SWAP3 POP SWAP3 SWAP1 POP JUMP JUMPDEST PUSH32 0x526F746174696F6E206379636C65206D75737420626520706F73697469766500 PUSH0 DUP3 ADD MSTORE POP JUMP JUMPDEST PUSH0 PUSH2 0x1FEF PUSH1 0x1F DUP4 PUSH2 0x1E7B JUMP JUMPDEST SWAP2 POP PUSH2 0x1FFA DUP3 PUSH2 0x1FBB JUMP JUMPDEST PUSH1 0x20 DUP3 ADD SWAP1 POP SWAP2 SWAP1 POP JUMP JUMPDEST PUSH0 PUSH1 0x20 DUP3 ADD SWAP1 POP DUP2 DUP2 SUB PUSH0 DUP4 ADD MSTORE PUSH2 0x201C DUP2 PUSH2 0x1FE3 JUMP JUMPDEST SWAP1 POP SWAP2 SWAP1 POP JUMP JUMPDEST PUSH32 0x496E7465726573742064656E6F6D696E61746F72206D75737420626520706F73 PUSH0 DUP3 ADD MSTORE PUSH32 0x6974697665000000000000000000000000000000000000000000000000000000 PUSH1 0x20 DUP3 ADD MSTORE POP JUMP JUMPDEST PUSH0 PUSH2 0x207D PUSH1 0x25 DUP4 PUSH2 0x1E7B JUMP JUMPDEST SWAP2 POP PUSH2 0x2088 DUP3 PUSH2 0x2023 JUMP JUMPDEST PUSH1 0x40 DUP3 ADD SWAP1 POP SWAP2 SWAP1 POP JUMP JUMPDEST PUSH0 PUSH1 0x20 DUP3 ADD SWAP1 POP DUP2 DUP2 SUB PUSH0 DUP4 ADD MSTORE PUSH2 0x20AA DUP2 PUSH2 0x2071 JUMP JUMPDEST SWAP1 POP SWAP2 SWAP1 POP JUMP JUMPDEST PUSH32 0x4E756D657261746F72206D757374206265206C657373207468616E206F722065 PUSH0 DUP3 ADD MSTORE PUSH32 0x7175616C20746F2064656E6F6D696E61746F7200000000000000000000000000 PUSH1 0x20 DUP3 ADD MSTORE POP JUMP JUMPDEST PUSH0 PUSH2 0x210B PUSH1 0x33 DUP4 PUSH2 0x1E7B JUMP JUMPDEST SWAP2 POP PUSH2 0x2116 DUP3 PUSH2 0x20B1 JUMP JUMPDEST PUSH1 0x40 DUP3 ADD SWAP1 POP SWAP2 SWAP1 POP JUMP JUMPDEST PUSH0 PUSH1 0x20 DUP3 ADD SWAP1 POP DUP2 DUP2 SUB PUSH0 DUP4 ADD MSTORE PUSH2 0x2138 DUP2 PUSH2 0x20FF JUMP JUMPDEST SWAP1 POP SWAP2 SWAP1 POP JUMP JUMPDEST PUSH32 0x4E487B7100000000000000000000000000000000000000000000000000000000 PUSH0 MSTORE PUSH1 0x11 PUSH1 0x4 MSTORE PUSH1 0x24 PUSH0 REVERT JUMPDEST PUSH0 PUSH2 0x2176 DUP3 PUSH2 0x1A73 JUMP JUMPDEST SWAP2 POP PUSH32 0xFFFFFFFFFFFFFFFFFFFFFFFFFFFFFFFFFFFFFFFFFFFFFFFFFFFFFFFFFFFFFFFF DUP3 SUB PUSH2 0x21A8 JUMPI PUSH2 0x21A7 PUSH2 0x213F JUMP JUMPDEST JUMPDEST PUSH1 0x1 DUP3 ADD SWAP1 POP SWAP2 SWAP1 POP JUMP JUMPDEST PUSH0 PUSH1 0x60 DUP3 ADD SWAP1 POP PUSH2 0x21C6 PUSH0 DUP4 ADD DUP7 PUSH2 0x1E10 JUMP JUMPDEST PUSH2 0x21D3 PUSH1 0x20 DUP4 ADD DUP6 PUSH2 0x1E10 JUMP JUMPDEST PUSH2 0x21E0 PUSH1 0x40 DUP4 ADD DUP5 PUSH2 0x1D68 JUMP JUMPDEST SWAP5 SWAP4 POP POP POP POP JUMP JUMPDEST PUSH0 DUP2 ISZERO ISZERO SWAP1 POP SWAP2 SWAP1 POP JUMP JUMPDEST PUSH2 0x21FC DUP2 PUSH2 0x21E8 JUMP JUMPDEST DUP2 EQ PUSH2 0x2206 JUMPI PUSH0 DUP1 REVERT JUMPDEST POP JUMP JUMPDEST PUSH0 DUP2 MLOAD SWAP1 POP PUSH2 0x2217 DUP2 PUSH2 0x21F3 JUMP JUMPDEST SWAP3 SWAP2 POP POP JUMP JUMPDEST PUSH0 PUSH1 0x20 DUP3 DUP5 SUB SLT ISZERO PUSH2 0x2232 JUMPI PUSH2 0x2231 PUSH2 0x192F JUMP JUMPDEST JUMPDEST PUSH0 PUSH2 0x223F DUP5 DUP3 DUP6 ADD PUSH2 0x2209 JUMP JUMPDEST SWAP2 POP POP SWAP3 SWAP2 POP POP JUMP JUMPDEST PUSH32 0x43726561746F722073686F756C64206465706F7369742074686520696E697469 PUSH0 DUP3 ADD MSTORE PUSH32 0x616C20616D6F756E740000000000000000000000000000000000000000000000 PUSH1 0x20 DUP3 ADD MSTORE POP JUMP JUMPDEST PUSH0 PUSH2 0x22A2 PUSH1 0x29 DUP4 PUSH2 0x1E7B JUMP JUMPDEST SWAP2 POP PUSH2 0x22AD DUP3 PUSH2 0x2248 JUMP JUMPDEST PUSH1 0x40 DUP3 ADD SWAP1 POP SWAP2 SWAP1 POP JUMP JUMPDEST PUSH0 PUSH1 0x20 DUP3 ADD SWAP1 POP DUP2 DUP2 SUB PUSH0 DUP4 ADD MSTORE PUSH2 0x22CF DUP2 PUSH2 0x2296 JUMP JUMPDEST SWAP1 POP SWAP2 SWAP1 POP JUMP JUMPDEST PUSH32 0x4E487B7100000000000000000000000000000000000000000000000000000000 PUSH0 MSTORE PUSH1 0x22 PUSH1 0x4 MSTORE PUSH1 0x24 PUSH0 REVERT JUMPDEST PUSH0 PUSH1 0x2 DUP3 DIV SWAP1 POP PUSH1 0x1 DUP3 AND DUP1 PUSH2 0x231A JUMPI PUSH1 0x7F DUP3 AND SWAP2 POP JUMPDEST PUSH1 0x20 DUP3 LT DUP2 SUB PUSH2 0x232D JUMPI PUSH2 0x232C PUSH2 0x22D6 JUMP JUMPDEST JUMPDEST POP SWAP2 SWAP1 POP JUMP JUMPDEST PUSH0 DUP2 SWAP1 POP DUP2 PUSH0 MSTORE PUSH1 0x20 PUSH0 KECCAK256 SWAP1 POP SWAP2 SWAP1 POP JUMP JUMPDEST PUSH0 PUSH1 0x20 PUSH1 0x1F DUP4 ADD DIV SWAP1 POP SWAP2 SWAP1 POP JUMP JUMPDEST PUSH0 DUP3 DUP3 SHL SWAP1 POP SWAP3 SWAP2 POP POP JUMP JUMPDEST PUSH0 PUSH1 0x8 DUP4 MUL PUSH2 0x238F PUSH32 0xFFFFFFFFFFFFFFFFFFFFFFFFFFFFFFFFFFFFFFFFFFFFFFFFFFFFFFFFFFFFFFFF DUP3 PUSH2 0x2354 JUMP JUMPDEST PUSH2 0x2399 DUP7 DUP4 PUSH2 0x2354 JUMP JUMPDEST SWAP6 POP DUP1 NOT DUP5 AND SWAP4 POP DUP1 DUP7 AND DUP5 OR SWAP3 POP POP POP SWAP4 SWAP3 POP POP POP JUMP JUMPDEST PUSH0 PUSH2 0x23CB PUSH2 0x23C6 PUSH2 0x23C1 DUP5 PUSH2 0x1A73 JUMP JUMPDEST PUSH2 0x1B9B JUMP JUMPDEST PUSH2 0x1A73 JUMP JUMPDEST SWAP1 POP SWAP2 SWAP1 POP JUMP JUMPDEST PUSH0 DUP2 SWAP1 POP SWAP2 SWAP1 POP JUMP JUMPDEST PUSH2 0x23E4 DUP4 PUSH2 0x23B1 JUMP JUMPDEST PUSH2 0x23F8 PUSH2 0x23F0 DUP3 PUSH2 0x23D2 JUMP JUMPDEST DUP5 DUP5 SLOAD PUSH2 0x2360 JUMP JUMPDEST DUP3 SSTORE POP POP POP POP JUMP JUMPDEST PUSH0 SWAP1 JUMP JUMPDEST PUSH2 0x240C PUSH2 0x2400 JUMP JUMPDEST PUSH2 0x2417 DUP2 DUP5 DUP5 PUSH2 0x23DB JUMP JUMPDEST POP POP POP JUMP JUMPDEST JUMPDEST DUP2 DUP2 LT ISZERO PUSH2 0x243A JUMPI PUSH2 0x242F PUSH0 DUP3 PUSH2 0x2404 JUMP JUMPDEST PUSH1 0x1 DUP2 ADD SWAP1 POP PUSH2 0x241D JUMP JUMPDEST POP POP JUMP JUMPDEST PUSH1 0x1F DUP3 GT ISZERO PUSH2 0x247F JUMPI PUSH2 0x2450 DUP2 PUSH2 0x2333 JUMP JUMPDEST PUSH2 0x2459 DUP5 PUSH2 0x2345 JUMP JUMPDEST DUP2 ADD PUSH1 0x20 DUP6 LT ISZERO PUSH2 0x2468 JUMPI DUP2 SWAP1 POP JUMPDEST PUSH2 0x247C PUSH2 0x2474 DUP6 PUSH2 0x2345 JUMP JUMPDEST DUP4 ADD DUP3 PUSH2 0x241C JUMP JUMPDEST POP POP JUMPDEST POP POP POP JUMP JUMPDEST PUSH0 DUP3 DUP3 SHR SWAP1 POP SWAP3 SWAP2 POP POP JUMP JUMPDEST PUSH0 PUSH2 0x249F PUSH0 NOT DUP5 PUSH1 0x8 MUL PUSH2 0x2484 JUMP JUMPDEST NOT DUP1 DUP4 AND SWAP2 POP POP SWAP3 SWAP2 POP POP JUMP JUMPDEST PUSH0 PUSH2 0x24B7 DUP4 DUP4 PUSH2 0x2490 JUMP JUMPDEST SWAP2 POP DUP3 PUSH1 0x2 MUL DUP3 OR SWAP1 POP SWAP3 SWAP2 POP POP JUMP JUMPDEST PUSH2 0x24D0 DUP3 PUSH2 0x1E71 JUMP JUMPDEST PUSH8 0xFFFFFFFFFFFFFFFF DUP2 GT ISZERO PUSH2 0x24E9 JUMPI PUSH2 0x24E8 PUSH2 0x194F JUMP JUMPDEST JUMPDEST PUSH2 0x24F3 DUP3 SLOAD PUSH2 0x2303 JUMP JUMPDEST PUSH2 0x24FE DUP3 DUP3 DUP6 PUSH2 0x243E JUMP JUMPDEST PUSH0 PUSH1 0x20 SWAP1 POP PUSH1 0x1F DUP4 GT PUSH1 0x1 DUP2 EQ PUSH2 0x252F JUMPI PUSH0 DUP5 ISZERO PUSH2 0x251D JUMPI DUP3 DUP8 ADD MLOAD SWAP1 POP JUMPDEST PUSH2 0x2527 DUP6 DUP3 PUSH2 0x24AC JUMP JUMPDEST DUP7 SSTORE POP PUSH2 0x258E JUMP JUMPDEST PUSH1 0x1F NOT DUP5 AND PUSH2 0x253D DUP7 PUSH2 0x2333 JUMP JUMPDEST PUSH0 JUMPDEST DUP3 DUP2 LT ISZERO PUSH2 0x2564 JUMPI DUP5 DUP10 ADD MLOAD DUP3 SSTORE PUSH1 0x1 DUP3 ADD SWAP2 POP PUSH1 0x20 DUP6 ADD SWAP5 POP PUSH1 0x20 DUP2 ADD SWAP1 POP PUSH2 0x253F JUMP JUMPDEST DUP7 DUP4 LT ISZERO PUSH2 0x2581 JUMPI DUP5 DUP10 ADD MLOAD PUSH2 0x257D PUSH1 0x1F DUP10 AND DUP3 PUSH2 0x2490 JUMP JUMPDEST DUP4 SSTORE POP JUMPDEST PUSH1 0x1 PUSH1 0x2 DUP9 MUL ADD DUP9 SSTORE POP POP POP JUMPDEST POP POP POP POP POP POP JUMP JUMPDEST PUSH0 PUSH2 0x100 DUP3 ADD SWAP1 POP PUSH2 0x25AA PUSH0 DUP4 ADD DUP12 PUSH2 0x1D68 JUMP JUMPDEST DUP2 DUP2 SUB PUSH1 0x20 DUP4 ADD MSTORE PUSH2 0x25BC DUP2 DUP11 PUSH2 0x1EB3 JUMP JUMPDEST SWAP1 POP PUSH2 0x25CB PUSH1 0x40 DUP4 ADD DUP10 PUSH2 0x1E10 JUMP JUMPDEST PUSH2 0x25D8 PUSH1 0x60 DUP4 ADD DUP9 PUSH2 0x1D68 JUMP JUMPDEST PUSH2 0x25E5 PUSH1 0x80 DUP4 ADD DUP8 PUSH2 0x1D68 JUMP JUMPDEST PUSH2 0x25F2 PUSH1 0xA0 DUP4 ADD DUP7 PUSH2 0x1D68 JUMP JUMPDEST PUSH2 0x25FF PUSH1 0xC0 DUP4 ADD DUP6 PUSH2 0x1D68 JUMP JUMPDEST PUSH2 0x260C PUSH1 0xE0 DUP4 ADD DUP5 PUSH2 0x1D68 JUMP JUMPDEST SWAP10 SWAP9 POP POP POP POP POP POP POP POP POP JUMP JUMPDEST PUSH0 DUP2 MLOAD SWAP1 POP PUSH2 0x2627 DUP2 PUSH2 0x1A7C JUMP JUMPDEST SWAP3 SWAP2 POP POP JUMP JUMPDEST PUSH0 PUSH1 0x20 DUP3 DUP5 SUB SLT ISZERO PUSH2 0x2642 JUMPI PUSH2 0x2641 PUSH2 0x192F JUMP JUMPDEST JUMPDEST PUSH0 PUSH2 0x264F DUP5 DUP3 DUP6 ADD PUSH2 0x2619 JUMP JUMPDEST SWAP2 POP POP SWAP3 SWAP2 POP POP JUMP JUMPDEST PUSH0 PUSH1 0x40 DUP3 ADD SWAP1 POP PUSH2 0x266B PUSH0 DUP4 ADD DUP6 PUSH2 0x1E10 JUMP JUMPDEST PUSH2 0x2678 PUSH1 0x20 DUP4 ADD DUP5 PUSH2 0x1D68 JUMP JUMPDEST SWAP4 SWAP3 POP POP POP JUMP JUMPDEST PUSH0 DUP2 PUSH1 0x60 SHL SWAP1 POP SWAP2 SWAP1 POP JUMP JUMPDEST PUSH0 PUSH2 0x2695 DUP3 PUSH2 0x267F JUMP JUMPDEST SWAP1 POP SWAP2 SWAP1 POP JUMP JUMPDEST PUSH0 PUSH2 0x26A6 DUP3 PUSH2 0x268B JUMP JUMPDEST SWAP1 POP SWAP2 SWAP1 POP JUMP JUMPDEST PUSH2 0x26BE PUSH2 0x26B9 DUP3 PUSH2 0x1D02 JUMP JUMPDEST PUSH2 0x269C JUMP JUMPDEST DUP3 MSTORE POP POP JUMP JUMPDEST PUSH0 DUP2 SWAP1 POP SWAP2 SWAP1 POP JUMP JUMPDEST PUSH2 0x26DE PUSH2 0x26D9 DUP3 PUSH2 0x1A73 JUMP JUMPDEST PUSH2 0x26C4 JUMP JUMPDEST DUP3 MSTORE POP POP JUMP JUMPDEST PUSH0 PUSH2 0x26EF DUP3 DUP6 PUSH2 0x26AD JUMP JUMPDEST PUSH1 0x14 DUP3 ADD SWAP2 POP PUSH2 0x26FF DUP3 DUP5 PUSH2 0x26CD JUMP JUMPDEST PUSH1 0x20 DUP3 ADD SWAP2 POP DUP2 SWAP1 POP SWAP4 SWAP3 POP POP POP JUMP JUMPDEST PUSH32 0x496E76616C69642070726F6F662E000000000000000000000000000000000000 PUSH0 DUP3 ADD MSTORE POP JUMP JUMPDEST PUSH0 PUSH2 0x2743 PUSH1 0xE DUP4 PUSH2 0x1E7B JUMP JUMPDEST SWAP2 POP PUSH2 0x274E DUP3 PUSH2 0x270F JUMP JUMPDEST PUSH1 0x20 DUP3 ADD SWAP1 POP SWAP2 SWAP1 POP JUMP JUMPDEST PUSH0 PUSH1 0x20 DUP3 ADD SWAP1 POP DUP2 DUP2 SUB PUSH0 DUP4 ADD MSTORE PUSH2 0x2770 DUP2 PUSH2 0x2737 JUMP JUMPDEST SWAP1 POP SWAP2 SWAP1 POP JUMP JUMPDEST PUSH32 0x4E6F2066756E6473206C65667420746F20636C61696D206F7220616C72656164 PUSH0 DUP3 ADD MSTORE PUSH32 0x7920636C61696D65642E00000000000000000000000000000000000000000000 PUSH1 0x20 DUP3 ADD MSTORE POP JUMP JUMPDEST PUSH0 PUSH2 0x27D1 PUSH1 0x2A DUP4 PUSH2 0x1E7B JUMP JUMPDEST SWAP2 POP PUSH2 0x27DC DUP3 PUSH2 0x2777 JUMP JUMPDEST PUSH1 0x40 DUP3 ADD SWAP1 POP SWAP2 SWAP1 POP JUMP JUMPDEST PUSH0 PUSH1 0x20 DUP3 ADD SWAP1 POP DUP2 DUP2 SUB PUSH0 DUP4 ADD MSTORE PUSH2 0x27FE DUP2 PUSH2 0x27C5 JUMP JUMPDEST SWAP1 POP SWAP2 SWAP1 POP JUMP JUMPDEST PUSH0 PUSH2 0x280F DUP3 PUSH2 0x1A73 JUMP JUMPDEST SWAP2 POP PUSH2 0x281A DUP4 PUSH2 0x1A73 JUMP JUMPDEST SWAP3 POP DUP3 DUP3 SUB SWAP1 POP DUP2 DUP2 GT ISZERO PUSH2 0x2832 JUMPI PUSH2 0x2831 PUSH2 0x213F JUMP JUMPDEST JUMPDEST SWAP3 SWAP2 POP POP JUMP JUMPDEST PUSH32 0x5969656C64207472616E73666572206661696C65640000000000000000000000 PUSH0 DUP3 ADD MSTORE POP JUMP JUMPDEST PUSH0 PUSH2 0x286C PUSH1 0x15 DUP4 PUSH2 0x1E7B JUMP JUMPDEST SWAP2 POP PUSH2 0x2877 DUP3 PUSH2 0x2838 JUMP JUMPDEST PUSH1 0x20 DUP3 ADD SWAP1 POP SWAP2 SWAP1 POP JUMP JUMPDEST PUSH0 PUSH1 0x20 DUP3 ADD SWAP1 POP DUP2 DUP2 SUB PUSH0 DUP4 ADD MSTORE PUSH2 0x2899 DUP2 PUSH2 0x2860 JUMP JUMPDEST SWAP1 POP SWAP2 SWAP1 POP JUMP JUMPDEST PUSH0 PUSH1 0x40 DUP3 ADD SWAP1 POP PUSH2 0x28B3 PUSH0 DUP4 ADD DUP6 PUSH2 0x1E10 JUMP JUMPDEST PUSH2 0x28C0 PUSH1 0x20 DUP4 ADD DUP5 PUSH2 0x1E10 JUMP JUMPDEST SWAP4 SWAP3 POP POP POP JUMP JUMPDEST PUSH0 DUP2 SWAP1 POP SWAP2 SWAP1 POP JUMP JUMPDEST PUSH0 PUSH8 0xFFFFFFFFFFFFFFFF DUP3 AND SWAP1 POP SWAP2 SWAP1 POP JUMP JUMPDEST PUSH0 PUSH2 0x28FD PUSH2 0x28F8 PUSH2 0x28F3 DUP5 PUSH2 0x28C7 JUMP JUMPDEST PUSH2 0x1B9B JUMP JUMPDEST PUSH2 0x28D0 JUMP JUMPDEST SWAP1 POP SWAP2 SWAP1 POP JUMP JUMPDEST PUSH2 0x290D DUP2 PUSH2 0x28E3 JUMP JUMPDEST DUP3 MSTORE POP POP JUMP JUMPDEST PUSH0 PUSH1 0x20 DUP3 ADD SWAP1 POP PUSH2 0x2926 PUSH0 DUP4 ADD DUP5 PUSH2 0x2904 JUMP JUMPDEST SWAP3 SWAP2 POP POP JUMP JUMPDEST PUSH32 0x506F742069732066756C6C000000000000000000000000000000000000000000 PUSH0 DUP3 ADD MSTORE POP JUMP JUMPDEST PUSH0 PUSH2 0x2960 PUSH1 0xB DUP4 PUSH2 0x1E7B JUMP JUMPDEST SWAP2 POP PUSH2 0x296B DUP3 PUSH2 0x292C JUMP JUMPDEST PUSH1 0x20 DUP3 ADD SWAP1 POP SWAP2 SWAP1 POP JUMP JUMPDEST PUSH0 PUSH1 0x20 DUP3 ADD SWAP1 POP DUP2 DUP2 SUB PUSH0 DUP4 ADD MSTORE PUSH2 0x298D DUP2 PUSH2 0x2954 JUMP JUMPDEST SWAP1 POP SWAP2 SWAP1 POP JUMP JUMPDEST PUSH32 0x526F746174696E6720706F74732063616E6E6F74206265206A6F696E65640000 PUSH0 DUP3 ADD MSTORE POP JUMP JUMPDEST PUSH0 PUSH2 0x29C8 PUSH1 0x1E DUP4 PUSH2 0x1E7B JUMP JUMPDEST SWAP2 POP PUSH2 0x29D3 DUP3 PUSH2 0x2994 JUMP JUMPDEST PUSH1 0x20 DUP3 ADD SWAP1 POP SWAP2 SWAP1 POP JUMP JUMPDEST PUSH0 PUSH1 0x20 DUP3 ADD SWAP1 POP DUP2 DUP2 SUB PUSH0 DUP4 ADD MSTORE PUSH2 0x29F5 DUP2 PUSH2 0x29BC JUMP JUMPDEST SWAP1 POP SWAP2 SWAP1 POP JUMP JUMPDEST PUSH32 0x416C7265616479206A6F696E6564000000000000000000000000000000000000 PUSH0 DUP3 ADD MSTORE POP JUMP JUMPDEST PUSH0 PUSH2 0x2A30 PUSH1 0xE DUP4 PUSH2 0x1E7B JUMP JUMPDEST SWAP2 POP PUSH2 0x2A3B DUP3 PUSH2 0x29FC JUMP JUMPDEST PUSH1 0x20 DUP3 ADD SWAP1 POP SWAP2 SWAP1 POP JUMP JUMPDEST PUSH0 PUSH1 0x20 DUP3 ADD SWAP1 POP DUP2 DUP2 SUB PUSH0 DUP4 ADD MSTORE PUSH2 0x2A5D DUP2 PUSH2 0x2A24 JUMP JUMPDEST SWAP1 POP SWAP2 SWAP1 POP JUMP JUMPDEST PUSH32 0x5472616E73666572206661696C65640000000000000000000000000000000000 PUSH0 DUP3 ADD MSTORE POP JUMP JUMPDEST PUSH0 PUSH2 0x2A98 PUSH1 0xF DUP4 PUSH2 0x1E7B JUMP JUMPDEST SWAP2 POP PUSH2 0x2AA3 DUP3 PUSH2 0x2A64 JUMP JUMPDEST PUSH1 0x20 DUP3 ADD SWAP1 POP SWAP2 SWAP1 POP JUMP JUMPDEST PUSH0 PUSH1 0x20 DUP3 ADD SWAP1 POP DUP2 DUP2 SUB PUSH0 DUP4 ADD MSTORE PUSH2 0x2AC5 DUP2 PUSH2 0x2A8C JUMP JUMPDEST SWAP1 POP SWAP2 SWAP1 POP JUMP JUMPDEST PUSH0 PUSH1 0xE0 DUP3 ADD SWAP1 POP PUSH2 0x2ADF PUSH0 DUP4 ADD DUP11 PUSH2 0x1D68 JUMP JUMPDEST PUSH2 0x2AEC PUSH1 0x20 DUP4 ADD DUP10 PUSH2 0x1E10 JUMP JUMPDEST PUSH2 0x2AF9 PUSH1 0x40 DUP4 ADD DUP9 PUSH2 0x1D68 JUMP JUMPDEST PUSH2 0x2B06 PUSH1 0x60 DUP4 ADD DUP8 PUSH2 0x1D68 JUMP JUMPDEST PUSH2 0x2B13 PUSH1 0x80 DUP4 ADD DUP7 PUSH2 0x1D68 JUMP JUMPDEST PUSH2 0x2B20 PUSH1 0xA0 DUP4 ADD DUP6 PUSH2 0x1D68 JUMP JUMPDEST PUSH2 0x2B2D PUSH1 0xC0 DUP4 ADD DUP5 PUSH2 0x1D68 JUMP JUMPDEST SWAP9 SWAP8 POP POP POP POP POP POP POP POP JUMP JUMPDEST PUSH32 0x4F6E6C792074686520706F742063726561746F722063616E2072657665616C20 PUSH0 DUP3 ADD MSTORE PUSH32 0x7468652077696E6E657200000000000000000000000000000000000000000000 PUSH1 0x20 DUP3 ADD MSTORE POP JUMP JUMPDEST PUSH0 PUSH2 0x2B93 PUSH1 0x2A DUP4 PUSH2 0x1E7B JUMP JUMPDEST SWAP2 POP PUSH2 0x2B9E DUP3 PUSH2 0x2B39 JUMP JUMPDEST PUSH1 0x40 DUP3 ADD SWAP1 POP SWAP2 SWAP1 POP JUMP JUMPDEST PUSH0 PUSH1 0x20 DUP3 ADD SWAP1 POP DUP2 DUP2 SUB PUSH0 DUP4 ADD MSTORE PUSH2 0x2BC0 DUP2 PUSH2 0x2B87 JUMP JUMPDEST SWAP1 POP SWAP2 SWAP1 POP JUMP JUMPDEST PUSH0 PUSH2 0x2BD1 DUP3 PUSH2 0x1A73 JUMP JUMPDEST SWAP2 POP PUSH2 0x2BDC DUP4 PUSH2 0x1A73 JUMP JUMPDEST SWAP3 POP DUP3 DUP3 ADD SWAP1 POP DUP1 DUP3 GT ISZERO PUSH2 0x2BF4 JUMPI PUSH2 0x2BF3 PUSH2 0x213F JUMP JUMPDEST JUMPDEST SWAP3 SWAP2 POP POP JUMP JUMPDEST PUSH32 0x4E65787420726F746174696F6E206E6F74207965742064756500000000000000 PUSH0 DUP3 ADD MSTORE POP JUMP JUMPDEST PUSH0 PUSH2 0x2C2E PUSH1 0x19 DUP4 PUSH2 0x1E7B JUMP JUMPDEST SWAP2 POP PUSH2 0x2C39 DUP3 PUSH2 0x2BFA JUMP JUMPDEST PUSH1 0x20 DUP3 ADD SWAP1 POP SWAP2 SWAP1 POP JUMP JUMPDEST PUSH0 PUSH1 0x20 DUP3 ADD SWAP1 POP DUP2 DUP2 SUB PUSH0 DUP4 ADD MSTORE PUSH2 0x2C5B DUP2 PUSH2 0x2C22 JUMP JUMPDEST SWAP1 POP SWAP2 SWAP1 POP JUMP JUMPDEST PUSH32 0x4E487B7100000000000000000000000000000000000000000000000000000000 PUSH0 MSTORE PUSH1 0x12 PUSH1 0x4 MSTORE PUSH1 0x24 PUSH0 REVERT JUMPDEST PUSH0 PUSH2 0x2C99 DUP3 PUSH2 0x1A73 JUMP JUMPDEST SWAP2 POP PUSH2 0x2CA4 DUP4 PUSH2 0x1A73 JUMP JUMPDEST SWAP3 POP DUP3 PUSH2 0x2CB4 JUMPI PUSH2 0x2CB3 PUSH2 0x2C62 JUMP JUMPDEST JUMPDEST DUP3 DUP3 MOD SWAP1 POP SWAP3 SWAP2 POP POP JUMP JUMPDEST PUSH32 0x4E487B7100000000000000000000000000000000000000000000000000000000 PUSH0 MSTORE PUSH1 0x32 PUSH1 0x4 MSTORE PUSH1 0x24 PUSH0 REVERT JUMPDEST PUSH0 PUSH2 0x2CF6 DUP3 PUSH2 0x1A73 JUMP JUMPDEST SWAP2 POP PUSH2 0x2D01 DUP4 PUSH2 0x1A73 JUMP JUMPDEST SWAP3 POP DUP3 DUP3 MUL PUSH2 0x2D0F DUP2 PUSH2 0x1A73 JUMP JUMPDEST SWAP2 POP DUP3 DUP3 DIV DUP5 EQ DUP4 ISZERO OR PUSH2 0x2D26 JUMPI PUSH2 0x2D25 PUSH2 0x213F JUMP JUMPDEST JUMPDEST POP SWAP3 SWAP2 POP POP JUMP JUMPDEST PUSH0 PUSH1 0x60 DUP3 ADD SWAP1 POP PUSH2 0x2D40 PUSH0 DUP4 ADD DUP7 PUSH2 0x1D68 JUMP JUMPDEST PUSH2 0x2D4D PUSH1 0x20 DUP4 ADD DUP6 PUSH2 0x1E10 JUMP JUMPDEST PUSH2 0x2D5A PUSH1 0x40 DUP4 ADD DUP5 PUSH2 0x1D68 JUMP JUMPDEST SWAP5 SWAP4 POP POP POP POP JUMP JUMPDEST PUSH0 PUSH2 0x2D6C DUP3 PUSH2 0x1A73 JUMP JUMPDEST SWAP2 POP PUSH2 0x2D77 DUP4 PUSH2 0x1A73 JUMP JUMPDEST SWAP3 POP DUP3 PUSH2 0x2D87 JUMPI PUSH2 0x2D86 PUSH2 0x2C62 JUMP JUMPDEST JUMPDEST DUP3 DUP3 DIV SWAP1 POP SWAP3 SWAP2 POP POP JUMP INVALID LOG2 PUSH5 0x6970667358 0x22 SLT KECCAK256 0x4F 0xD5 PUSH2 0x277F COINBASE 0xDC 0x28 DUP2 0x4E CODECOPY 0xAF 0xAA 0xC0 0xEA 0xB2 0x2A 0x23 0xBC SWAP8 0xC9 STATICCALL SWAP10 0xE2 PUSH21 0xCC03957F9D5AE064736F6C63430008180033000000 "
				},
				"gasEstimates": {
					"creation": {
						"codeDepositCost": "2344000",
						"executionCost": "infinite",
						"totalCost": "infinite"
					},
					"external": {
						"BLAST()": "infinite",
						"USDB()": "infinite",
						"calculateInterest(uint256,uint256)": "infinite",
						"claimAllYield()": "infinite",
						"claimFunds(uint256,bytes32[])": "infinite",
						"claimMyContractsGas()": "infinite",
						"createPot(string,uint256,uint256,uint256,uint256,uint256)": "infinite",
						"hasClaimed(address)": "2891",
						"initialize()": "infinite",
						"joinPot(uint256)": "infinite",
						"merkleRoot()": "2470",
						"owner()": "2656",
						"pots(uint256)": "infinite",
						"renounceOwnership()": "infinite",
						"rotateLiquidity(uint256)": "infinite",
						"setMerkleRoot(bytes32)": "infinite",
						"totalRevenue()": "2447",
						"transferOwnership(address)": "infinite",
						"usdbToken()": "infinite"
					},
					"internal": {
						"deductRevenue(uint256)": "infinite",
						"updateUserYield(address,uint256)": "infinite"
					}
				},
				"methodIdentifiers": {
					"BLAST()": "97d75776",
					"USDB()": "31a0edec",
					"calculateInterest(uint256,uint256)": "efdd7c07",
					"claimAllYield()": "409a33ce",
					"claimFunds(uint256,bytes32[])": "61e7d805",
					"claimMyContractsGas()": "77d5d2dc",
					"createPot(string,uint256,uint256,uint256,uint256,uint256)": "103a40ca",
					"hasClaimed(address)": "73b2e80e",
					"initialize()": "8129fc1c",
					"joinPot(uint256)": "831d49ef",
					"merkleRoot()": "2eb4a7ab",
					"owner()": "8da5cb5b",
					"pots(uint256)": "c3c3df4f",
					"renounceOwnership()": "715018a6",
					"rotateLiquidity(uint256)": "ef922b87",
					"setMerkleRoot(bytes32)": "7cb64759",
					"totalRevenue()": "bf2d9e0b",
					"transferOwnership(address)": "f2fde38b",
					"usdbToken()": "4a80409e"
				}
			},
			"storageLayout": {
				"storage": [
					{
						"astId": 1178,
						"contract": "contracts/QuailFinance.sol:QuailFinance",
						"label": "merkleRoot",
						"offset": 0,
						"slot": "0",
						"type": "t_bytes32"
					},
					{
						"astId": 1181,
						"contract": "contracts/QuailFinance.sol:QuailFinance",
						"label": "nextPotId",
						"offset": 0,
						"slot": "1",
						"type": "t_uint256"
					},
					{
						"astId": 1189,
						"contract": "contracts/QuailFinance.sol:QuailFinance",
						"label": "totalRevenue",
						"offset": 0,
						"slot": "2",
						"type": "t_uint256"
					},
					{
						"astId": 1192,
						"contract": "contracts/QuailFinance.sol:QuailFinance",
						"label": "usdbToken",
						"offset": 0,
						"slot": "3",
						"type": "t_contract(IERC20)572"
					},
					{
						"astId": 1196,
						"contract": "contracts/QuailFinance.sol:QuailFinance",
						"label": "hasClaimed",
						"offset": 0,
						"slot": "4",
						"type": "t_mapping(t_address,t_uint256)"
					},
					{
						"astId": 1201,
						"contract": "contracts/QuailFinance.sol:QuailFinance",
						"label": "pots",
						"offset": 0,
						"slot": "5",
						"type": "t_mapping(t_uint256,t_struct(Pot)1231_storage)"
					},
					{
						"astId": 1205,
						"contract": "contracts/QuailFinance.sol:QuailFinance",
						"label": "userYield",
						"offset": 0,
						"slot": "6",
						"type": "t_mapping(t_address,t_uint256)"
					}
				],
				"types": {
					"t_address": {
						"encoding": "inplace",
						"label": "address",
						"numberOfBytes": "20"
					},
					"t_array(t_address)dyn_storage": {
						"base": "t_address",
						"encoding": "dynamic_array",
						"label": "address[]",
						"numberOfBytes": "32"
					},
					"t_bytes32": {
						"encoding": "inplace",
						"label": "bytes32",
						"numberOfBytes": "32"
					},
					"t_contract(IERC20)572": {
						"encoding": "inplace",
						"label": "contract IERC20",
						"numberOfBytes": "20"
					},
					"t_mapping(t_address,t_uint256)": {
						"encoding": "mapping",
						"key": "t_address",
						"label": "mapping(address => uint256)",
						"numberOfBytes": "32",
						"value": "t_uint256"
					},
					"t_mapping(t_uint256,t_struct(Pot)1231_storage)": {
						"encoding": "mapping",
						"key": "t_uint256",
						"label": "mapping(uint256 => struct QuailFinance.Pot)",
						"numberOfBytes": "32",
						"value": "t_struct(Pot)1231_storage"
					},
					"t_string_storage": {
						"encoding": "bytes",
						"label": "string",
						"numberOfBytes": "32"
					},
					"t_struct(Pot)1231_storage": {
						"encoding": "inplace",
						"label": "struct QuailFinance.Pot",
						"members": [
							{
								"astId": 1207,
								"contract": "contracts/QuailFinance.sol:QuailFinance",
								"label": "name",
								"offset": 0,
								"slot": "0",
								"type": "t_string_storage"
							},
							{
								"astId": 1209,
								"contract": "contracts/QuailFinance.sol:QuailFinance",
								"label": "amount",
								"offset": 0,
								"slot": "1",
								"type": "t_uint256"
							},
							{
								"astId": 1211,
								"contract": "contracts/QuailFinance.sol:QuailFinance",
								"label": "rotationCycleInSeconds",
								"offset": 0,
								"slot": "2",
								"type": "t_uint256"
							},
							{
								"astId": 1213,
								"contract": "contracts/QuailFinance.sol:QuailFinance",
								"label": "lastRotationTime",
								"offset": 0,
								"slot": "3",
								"type": "t_uint256"
							},
							{
								"astId": 1215,
								"contract": "contracts/QuailFinance.sol:QuailFinance",
								"label": "interestNumerator",
								"offset": 0,
								"slot": "4",
								"type": "t_uint256"
							},
							{
								"astId": 1217,
								"contract": "contracts/QuailFinance.sol:QuailFinance",
								"label": "interestDenominator",
								"offset": 0,
								"slot": "5",
								"type": "t_uint256"
							},
							{
								"astId": 1219,
								"contract": "contracts/QuailFinance.sol:QuailFinance",
								"label": "numParticipants",
								"offset": 0,
								"slot": "6",
								"type": "t_uint256"
							},
							{
								"astId": 1221,
								"contract": "contracts/QuailFinance.sol:QuailFinance",
								"label": "currentRound",
								"offset": 0,
								"slot": "7",
								"type": "t_uint256"
							},
							{
								"astId": 1223,
								"contract": "contracts/QuailFinance.sol:QuailFinance",
								"label": "potCreator",
								"offset": 0,
								"slot": "8",
								"type": "t_address"
							},
							{
								"astId": 1226,
								"contract": "contracts/QuailFinance.sol:QuailFinance",
								"label": "participants",
								"offset": 0,
								"slot": "9",
								"type": "t_array(t_address)dyn_storage"
							},
							{
								"astId": 1230,
								"contract": "contracts/QuailFinance.sol:QuailFinance",
								"label": "contributions",
								"offset": 0,
								"slot": "10",
								"type": "t_mapping(t_address,t_uint256)"
							}
						],
						"numberOfBytes": "352"
					},
					"t_uint256": {
						"encoding": "inplace",
						"label": "uint256",
						"numberOfBytes": "32"
					}
				}
			},
			"userdoc": {
				"kind": "user",
				"methods": {},
				"version": 1
			}
		}
	}
}