{
	"contracts/QuailFinance.sol": {
		"QuailFinance": {
			"abi": [
				{
					"inputs": [],
					"stateMutability": "nonpayable",
					"type": "constructor"
				},
				{
					"inputs": [],
					"name": "InvalidInitialization",
					"type": "error"
				},
				{
					"inputs": [],
					"name": "NotInitializing",
					"type": "error"
				},
				{
					"inputs": [
						{
							"internalType": "address",
							"name": "owner",
							"type": "address"
						}
					],
					"name": "OwnableInvalidOwner",
					"type": "error"
				},
				{
					"inputs": [
						{
							"internalType": "address",
							"name": "account",
							"type": "address"
						}
					],
					"name": "OwnableUnauthorizedAccount",
					"type": "error"
				},
				{
					"anonymous": false,
					"inputs": [
						{
							"indexed": false,
							"internalType": "uint64",
							"name": "version",
							"type": "uint64"
						}
					],
					"name": "Initialized",
					"type": "event"
				},
				{
					"anonymous": false,
					"inputs": [
						{
							"indexed": true,
							"internalType": "address",
							"name": "previousOwner",
							"type": "address"
						},
						{
							"indexed": true,
							"internalType": "address",
							"name": "newOwner",
							"type": "address"
						}
					],
					"name": "OwnershipTransferred",
					"type": "event"
				},
				{
					"anonymous": false,
					"inputs": [
						{
							"indexed": false,
							"internalType": "uint256",
							"name": "potId",
							"type": "uint256"
						},
						{
							"indexed": false,
							"internalType": "address",
							"name": "participant",
							"type": "address"
						},
						{
							"indexed": false,
							"internalType": "uint256",
							"name": "amount",
							"type": "uint256"
						},
						{
							"indexed": false,
							"internalType": "uint256",
							"name": "rotationCycleInSeconds",
							"type": "uint256"
						},
						{
							"indexed": false,
							"internalType": "uint256",
							"name": "_interestDenominator",
							"type": "uint256"
						},
						{
							"indexed": false,
							"internalType": "uint256",
							"name": "_interestNumerator",
							"type": "uint256"
						},
						{
							"indexed": false,
							"internalType": "uint256",
							"name": "_numParticipants",
							"type": "uint256"
						}
					],
					"name": "ParticipantJoined",
					"type": "event"
				},
				{
					"anonymous": false,
					"inputs": [
						{
							"indexed": false,
							"internalType": "uint256",
							"name": "potId",
							"type": "uint256"
						},
						{
							"indexed": false,
							"internalType": "address",
							"name": "creator",
							"type": "address"
						},
						{
							"indexed": false,
							"internalType": "uint256",
							"name": "amount",
							"type": "uint256"
						},
						{
							"indexed": false,
							"internalType": "uint256",
							"name": "rotationCycleInSeconds",
							"type": "uint256"
						},
						{
							"indexed": false,
							"internalType": "uint256",
							"name": "_interestDenominator",
							"type": "uint256"
						},
						{
							"indexed": false,
							"internalType": "uint256",
							"name": "_interestNumerator",
							"type": "uint256"
						},
						{
							"indexed": false,
							"internalType": "uint256",
							"name": "_numParticipants",
							"type": "uint256"
						}
					],
					"name": "PotCreated",
					"type": "event"
				},
				{
					"anonymous": false,
					"inputs": [
						{
							"indexed": false,
							"internalType": "uint256",
							"name": "potId",
							"type": "uint256"
						},
						{
							"indexed": false,
							"internalType": "address",
							"name": "winner",
							"type": "address"
						},
						{
							"indexed": false,
							"internalType": "uint256",
							"name": "round",
							"type": "uint256"
						}
					],
					"name": "RotationCompleted",
					"type": "event"
				},
				{
					"inputs": [],
					"name": "BLAST",
					"outputs": [
						{
							"internalType": "contract IBlast",
							"name": "",
							"type": "address"
						}
					],
					"stateMutability": "view",
					"type": "function"
				},
				{
					"inputs": [],
					"name": "USDB",
					"outputs": [
						{
							"internalType": "contract IERC20Rebasing",
							"name": "",
							"type": "address"
						}
					],
					"stateMutability": "view",
					"type": "function"
				},
				{
					"inputs": [
						{
							"internalType": "uint256",
							"name": "_potId",
							"type": "uint256"
						},
						{
							"internalType": "uint256",
							"name": "_amount",
							"type": "uint256"
						}
					],
					"name": "calculateInterest",
					"outputs": [
						{
							"internalType": "uint256",
							"name": "",
							"type": "uint256"
						}
					],
					"stateMutability": "view",
					"type": "function"
				},
				{
					"inputs": [],
					"name": "claimAllYield",
					"outputs": [],
					"stateMutability": "nonpayable",
					"type": "function"
				},
				{
					"inputs": [
						{
							"internalType": "uint256",
							"name": "claimAmount",
							"type": "uint256"
						},
						{
							"internalType": "bytes32[]",
							"name": "merkleProof",
							"type": "bytes32[]"
						}
					],
					"name": "claimFunds",
					"outputs": [],
					"stateMutability": "nonpayable",
					"type": "function"
				},
				{
					"inputs": [],
					"name": "claimMyContractsGas",
					"outputs": [],
					"stateMutability": "nonpayable",
					"type": "function"
				},
				{
					"inputs": [
						{
							"internalType": "uint256",
							"name": "_rotationCycleInSeconds",
							"type": "uint256"
						},
						{
							"internalType": "uint256",
							"name": "_interestDenominator",
							"type": "uint256"
						},
						{
							"internalType": "uint256",
							"name": "_interestNumerator",
							"type": "uint256"
						},
						{
							"internalType": "uint256",
							"name": "_numParticipants",
							"type": "uint256"
						},
						{
							"internalType": "uint256",
							"name": "_amount",
							"type": "uint256"
						}
					],
					"name": "createPot",
					"outputs": [],
					"stateMutability": "nonpayable",
					"type": "function"
				},
				{
					"inputs": [
						{
							"internalType": "address",
							"name": "",
							"type": "address"
						}
					],
					"name": "hasClaimed",
					"outputs": [
						{
							"internalType": "uint256",
							"name": "",
							"type": "uint256"
						}
					],
					"stateMutability": "view",
					"type": "function"
				},
				{
					"inputs": [],
					"name": "initialize",
					"outputs": [],
					"stateMutability": "nonpayable",
					"type": "function"
				},
				{
					"inputs": [
						{
							"internalType": "uint256",
							"name": "_potId",
							"type": "uint256"
						}
					],
					"name": "joinPot",
					"outputs": [],
					"stateMutability": "payable",
					"type": "function"
				},
				{
					"inputs": [],
					"name": "merkleRoot",
					"outputs": [
						{
							"internalType": "bytes32",
							"name": "",
							"type": "bytes32"
						}
					],
					"stateMutability": "view",
					"type": "function"
				},
				{
					"inputs": [],
					"name": "owner",
					"outputs": [
						{
							"internalType": "address",
							"name": "",
							"type": "address"
						}
					],
					"stateMutability": "view",
					"type": "function"
				},
				{
					"inputs": [
						{
							"internalType": "uint256",
							"name": "",
							"type": "uint256"
						}
					],
					"name": "pots",
					"outputs": [
						{
							"internalType": "uint256",
							"name": "amount",
							"type": "uint256"
						},
						{
							"internalType": "uint256",
							"name": "rotationCycleInSeconds",
							"type": "uint256"
						},
						{
							"internalType": "uint256",
							"name": "lastRotationTime",
							"type": "uint256"
						},
						{
							"internalType": "uint256",
							"name": "interestNumerator",
							"type": "uint256"
						},
						{
							"internalType": "uint256",
							"name": "interestDenominator",
							"type": "uint256"
						},
						{
							"internalType": "uint256",
							"name": "numParticipants",
							"type": "uint256"
						},
						{
							"internalType": "uint256",
							"name": "currentRound",
							"type": "uint256"
						},
						{
							"internalType": "address",
							"name": "potCreator",
							"type": "address"
						}
					],
					"stateMutability": "view",
					"type": "function"
				},
				{
					"inputs": [],
					"name": "renounceOwnership",
					"outputs": [],
					"stateMutability": "nonpayable",
					"type": "function"
				},
				{
					"inputs": [
						{
							"internalType": "uint256",
							"name": "_potId",
							"type": "uint256"
						}
					],
					"name": "rotateLiquidity",
					"outputs": [],
					"stateMutability": "nonpayable",
					"type": "function"
				},
				{
					"inputs": [
						{
							"internalType": "bytes32",
							"name": "_merkleRoot",
							"type": "bytes32"
						}
					],
					"name": "setMerkleRoot",
					"outputs": [],
					"stateMutability": "nonpayable",
					"type": "function"
				},
				{
					"inputs": [],
					"name": "totalRevenue",
					"outputs": [
						{
							"internalType": "uint256",
							"name": "",
							"type": "uint256"
						}
					],
					"stateMutability": "view",
					"type": "function"
				},
				{
					"inputs": [
						{
							"internalType": "address",
							"name": "newOwner",
							"type": "address"
						}
					],
					"name": "transferOwnership",
					"outputs": [],
					"stateMutability": "nonpayable",
					"type": "function"
				},
				{
					"inputs": [],
					"name": "usdbToken",
					"outputs": [
						{
							"internalType": "contract IERC20",
							"name": "",
							"type": "address"
						}
					],
					"stateMutability": "view",
					"type": "function"
				}
			],
			"devdoc": {
				"errors": {
					"InvalidInitialization()": [
						{
							"details": "The contract is already initialized."
						}
					],
					"NotInitializing()": [
						{
							"details": "The contract is not initializing."
						}
					],
					"OwnableInvalidOwner(address)": [
						{
							"details": "The owner is not a valid owner account. (eg. `address(0)`)"
						}
					],
					"OwnableUnauthorizedAccount(address)": [
						{
							"details": "The caller account is not authorized to perform an operation."
						}
					]
				},
				"events": {
					"Initialized(uint64)": {
						"details": "Triggered when the contract has been initialized or reinitialized."
					}
				},
				"kind": "dev",
				"methods": {
					"owner()": {
						"details": "Returns the address of the current owner."
					},
					"renounceOwnership()": {
						"details": "Leaves the contract without owner. It will not be possible to call `onlyOwner` functions. Can only be called by the current owner. NOTE: Renouncing ownership will leave the contract without an owner, thereby disabling any functionality that is only available to the owner."
					},
					"transferOwnership(address)": {
						"details": "Transfers ownership of the contract to a new account (`newOwner`). Can only be called by the current owner."
					}
				},
				"version": 1
			},
			"evm": {
				"assembly": "    /* \"contracts/QuailFinance.sol\":390:9566  contract QuailFinance is Initializable, OwnableUpgradeable {... */\n  mstore(0x40, 0x80)\n    /* \"contracts/QuailFinance.sol\":563:564  1 */\n  0x01\n    /* \"contracts/QuailFinance.sol\":535:564  uint256 private nextPotId = 1 */\n  dup1\n  sstore\n    /* \"contracts/QuailFinance.sol\":3979:4190  constructor() {... */\n  callvalue\n  dup1\n  iszero\n  tag_1\n  jumpi\n  0x00\n  dup1\n  revert\ntag_1:\n  pop\n    /* \"contracts/QuailFinance.sol\":3762:3804  0x4200000000000000000000000000000000000022 */\n  0x4200000000000000000000000000000000000022\n    /* \"contracts/QuailFinance.sol\":4003:4017  USDB.configure */\n  0xffffffffffffffffffffffffffffffffffffffff\n  and\n  0x1a33757d\n    /* \"contracts/QuailFinance.sol\":4018:4037  YieldMode.CLAIMABLE */\n  0x02\n    /* \"contracts/QuailFinance.sol\":4003:4038  USDB.configure(YieldMode.CLAIMABLE) */\n  mload(0x40)\n  dup3\n  0xffffffff\n  and\n  0xe0\n  shl\n  dup2\n  mstore\n  0x04\n  add\n  tag_4\n  swap2\n  swap1\n  tag_5\n  jump\t// in\ntag_4:\n  0x20\n  mload(0x40)\n  dup1\n  dup4\n  sub\n  dup2\n  0x00\n  dup8\n  gas\n  call\n  iszero\n  dup1\n  iszero\n  tag_7\n  jumpi\n  returndatasize\n  0x00\n  dup1\n  returndatacopy\n  revert(0x00, returndatasize)\ntag_7:\n  pop\n  pop\n  pop\n  pop\n  mload(0x40)\n  returndatasize\n  not(0x1f)\n  0x1f\n  dup3\n  add\n  and\n  dup3\n  add\n  dup1\n  0x40\n  mstore\n  pop\n  dup2\n  add\n  swap1\n  tag_8\n  swap2\n  swap1\n  tag_9\n  jump\t// in\ntag_8:\n  pop\n    /* \"contracts/QuailFinance.sol\":4104:4146  0x4200000000000000000000000000000000000022 */\n  0x4200000000000000000000000000000000000022\n    /* \"contracts/QuailFinance.sol\":4085:4094  usdbToken */\n  0x03\n  0x00\n    /* \"contracts/QuailFinance.sol\":4085:4147  usdbToken = IERC20(0x4200000000000000000000000000000000000022) */\n  0x0100\n  exp\n  dup2\n  sload\n  dup2\n  0xffffffffffffffffffffffffffffffffffffffff\n  mul\n  not\n  and\n  swap1\n  dup4\n  0xffffffffffffffffffffffffffffffffffffffff\n  and\n  mul\n  or\n  swap1\n  sstore\n  pop\n    /* \"contracts/QuailFinance.sol\":630:672  0x4300000000000000000000000000000000000002 */\n  0x4300000000000000000000000000000000000002\n    /* \"contracts/QuailFinance.sol\":4157:4184  BLAST.configureClaimableGas */\n  0xffffffffffffffffffffffffffffffffffffffff\n  and\n  0x4e606c47\n    /* \"contracts/QuailFinance.sol\":4157:4186  BLAST.configureClaimableGas() */\n  mload(0x40)\n  dup2\n  0xffffffff\n  and\n  0xe0\n  shl\n  dup2\n  mstore\n  0x04\n  add\n  0x00\n  mload(0x40)\n  dup1\n  dup4\n  sub\n  dup2\n  0x00\n  dup8\n  dup1\n  extcodesize\n  iszero\n  dup1\n  iszero\n  tag_10\n  jumpi\n  0x00\n  dup1\n  revert\ntag_10:\n  pop\n  gas\n  call\n  iszero\n  dup1\n  iszero\n  tag_12\n  jumpi\n  returndatasize\n  0x00\n  dup1\n  returndatacopy\n  revert(0x00, returndatasize)\ntag_12:\n  pop\n  pop\n  pop\n  pop\n    /* \"contracts/QuailFinance.sol\":390:9566  contract QuailFinance is Initializable, OwnableUpgradeable {... */\n  jump(tag_13)\n    /* \"#utility.yul\":7:187   */\ntag_14:\n    /* \"#utility.yul\":55:132   */\n  0x4e487b7100000000000000000000000000000000000000000000000000000000\n    /* \"#utility.yul\":52:53   */\n  0x00\n    /* \"#utility.yul\":45:133   */\n  mstore\n    /* \"#utility.yul\":152:156   */\n  0x21\n    /* \"#utility.yul\":149:150   */\n  0x04\n    /* \"#utility.yul\":142:157   */\n  mstore\n    /* \"#utility.yul\":176:180   */\n  0x24\n    /* \"#utility.yul\":173:174   */\n  0x00\n    /* \"#utility.yul\":166:181   */\n  revert\n    /* \"#utility.yul\":193:312   */\ntag_15:\n    /* \"#utility.yul\":280:281   */\n  0x03\n    /* \"#utility.yul\":273:278   */\n  dup2\n    /* \"#utility.yul\":270:282   */\n  lt\n    /* \"#utility.yul\":260:306   */\n  tag_28\n  jumpi\n    /* \"#utility.yul\":286:304   */\n  tag_29\n  tag_14\n  jump\t// in\ntag_29:\n    /* \"#utility.yul\":260:306   */\ntag_28:\n    /* \"#utility.yul\":193:312   */\n  pop\n  jump\t// out\n    /* \"#utility.yul\":318:457   */\ntag_16:\n    /* \"#utility.yul\":369:376   */\n  0x00\n    /* \"#utility.yul\":398:403   */\n  dup2\n    /* \"#utility.yul\":387:403   */\n  swap1\n  pop\n    /* \"#utility.yul\":404:451   */\n  tag_31\n    /* \"#utility.yul\":445:450   */\n  dup3\n    /* \"#utility.yul\":404:451   */\n  tag_15\n  jump\t// in\ntag_31:\n    /* \"#utility.yul\":318:457   */\n  swap2\n  swap1\n  pop\n  jump\t// out\n    /* \"#utility.yul\":463:602   */\ntag_17:\n    /* \"#utility.yul\":525:534   */\n  0x00\n    /* \"#utility.yul\":558:596   */\n  tag_33\n    /* \"#utility.yul\":590:595   */\n  dup3\n    /* \"#utility.yul\":558:596   */\n  tag_16\n  jump\t// in\ntag_33:\n    /* \"#utility.yul\":545:596   */\n  swap1\n  pop\n    /* \"#utility.yul\":463:602   */\n  swap2\n  swap1\n  pop\n  jump\t// out\n    /* \"#utility.yul\":608:763   */\ntag_18:\n    /* \"#utility.yul\":707:756   */\n  tag_35\n    /* \"#utility.yul\":750:755   */\n  dup2\n    /* \"#utility.yul\":707:756   */\n  tag_17\n  jump\t// in\ntag_35:\n    /* \"#utility.yul\":702:705   */\n  dup3\n    /* \"#utility.yul\":695:757   */\n  mstore\n    /* \"#utility.yul\":608:763   */\n  pop\n  pop\n  jump\t// out\n    /* \"#utility.yul\":769:1015   */\ntag_5:\n    /* \"#utility.yul\":874:878   */\n  0x00\n    /* \"#utility.yul\":912:914   */\n  0x20\n    /* \"#utility.yul\":901:910   */\n  dup3\n    /* \"#utility.yul\":897:915   */\n  add\n    /* \"#utility.yul\":889:915   */\n  swap1\n  pop\n    /* \"#utility.yul\":925:1008   */\n  tag_37\n    /* \"#utility.yul\":1005:1006   */\n  0x00\n    /* \"#utility.yul\":994:1003   */\n  dup4\n    /* \"#utility.yul\":990:1007   */\n  add\n    /* \"#utility.yul\":981:987   */\n  dup5\n    /* \"#utility.yul\":925:1008   */\n  tag_18\n  jump\t// in\ntag_37:\n    /* \"#utility.yul\":769:1015   */\n  swap3\n  swap2\n  pop\n  pop\n  jump\t// out\n    /* \"#utility.yul\":1102:1219   */\ntag_20:\n    /* \"#utility.yul\":1211:1212   */\n  0x00\n    /* \"#utility.yul\":1208:1209   */\n  dup1\n    /* \"#utility.yul\":1201:1213   */\n  revert\n    /* \"#utility.yul\":1348:1425   */\ntag_22:\n    /* \"#utility.yul\":1385:1392   */\n  0x00\n    /* \"#utility.yul\":1414:1419   */\n  dup2\n    /* \"#utility.yul\":1403:1419   */\n  swap1\n  pop\n    /* \"#utility.yul\":1348:1425   */\n  swap2\n  swap1\n  pop\n  jump\t// out\n    /* \"#utility.yul\":1431:1553   */\ntag_23:\n    /* \"#utility.yul\":1504:1528   */\n  tag_43\n    /* \"#utility.yul\":1522:1527   */\n  dup2\n    /* \"#utility.yul\":1504:1528   */\n  tag_22\n  jump\t// in\ntag_43:\n    /* \"#utility.yul\":1497:1502   */\n  dup2\n    /* \"#utility.yul\":1494:1529   */\n  eq\n    /* \"#utility.yul\":1484:1547   */\n  tag_44\n  jumpi\n    /* \"#utility.yul\":1543:1544   */\n  0x00\n    /* \"#utility.yul\":1540:1541   */\n  dup1\n    /* \"#utility.yul\":1533:1545   */\n  revert\n    /* \"#utility.yul\":1484:1547   */\ntag_44:\n    /* \"#utility.yul\":1431:1553   */\n  pop\n  jump\t// out\n    /* \"#utility.yul\":1559:1702   */\ntag_24:\n    /* \"#utility.yul\":1616:1621   */\n  0x00\n    /* \"#utility.yul\":1647:1653   */\n  dup2\n    /* \"#utility.yul\":1641:1654   */\n  mload\n    /* \"#utility.yul\":1632:1654   */\n  swap1\n  pop\n    /* \"#utility.yul\":1663:1696   */\n  tag_46\n    /* \"#utility.yul\":1690:1695   */\n  dup2\n    /* \"#utility.yul\":1663:1696   */\n  tag_23\n  jump\t// in\ntag_46:\n    /* \"#utility.yul\":1559:1702   */\n  swap3\n  swap2\n  pop\n  pop\n  jump\t// out\n    /* \"#utility.yul\":1708:2059   */\ntag_9:\n    /* \"#utility.yul\":1778:1784   */\n  0x00\n    /* \"#utility.yul\":1827:1829   */\n  0x20\n    /* \"#utility.yul\":1815:1824   */\n  dup3\n    /* \"#utility.yul\":1806:1813   */\n  dup5\n    /* \"#utility.yul\":1802:1825   */\n  sub\n    /* \"#utility.yul\":1798:1830   */\n  slt\n    /* \"#utility.yul\":1795:1914   */\n  iszero\n  tag_48\n  jumpi\n    /* \"#utility.yul\":1833:1912   */\n  tag_49\n  tag_20\n  jump\t// in\ntag_49:\n    /* \"#utility.yul\":1795:1914   */\ntag_48:\n    /* \"#utility.yul\":1953:1954   */\n  0x00\n    /* \"#utility.yul\":1978:2042   */\n  tag_50\n    /* \"#utility.yul\":2034:2041   */\n  dup5\n    /* \"#utility.yul\":2025:2031   */\n  dup3\n    /* \"#utility.yul\":2014:2023   */\n  dup6\n    /* \"#utility.yul\":2010:2032   */\n  add\n    /* \"#utility.yul\":1978:2042   */\n  tag_24\n  jump\t// in\ntag_50:\n    /* \"#utility.yul\":1968:2042   */\n  swap2\n  pop\n    /* \"#utility.yul\":1924:2052   */\n  pop\n    /* \"#utility.yul\":1708:2059   */\n  swap3\n  swap2\n  pop\n  pop\n  jump\t// out\n    /* \"contracts/QuailFinance.sol\":390:9566  contract QuailFinance is Initializable, OwnableUpgradeable {... */\ntag_13:\n  dataSize(sub_0)\n  dup1\n  dataOffset(sub_0)\n  0x00\n  codecopy\n  0x00\n  return\nstop\n\nsub_0: assembly {\n        /* \"contracts/QuailFinance.sol\":390:9566  contract QuailFinance is Initializable, OwnableUpgradeable {... */\n      mstore(0x40, 0x80)\n      jumpi(tag_1, lt(calldatasize, 0x04))\n      shr(0xe0, calldataload(0x00))\n      dup1\n      0x8129fc1c\n      gt\n      tag_21\n      jumpi\n      dup1\n      0xc3c3df4f\n      gt\n      tag_22\n      jumpi\n      dup1\n      0xc3c3df4f\n      eq\n      tag_16\n      jumpi\n      dup1\n      0xca0ea3d1\n      eq\n      tag_17\n      jumpi\n      dup1\n      0xef922b87\n      eq\n      tag_18\n      jumpi\n      dup1\n      0xefdd7c07\n      eq\n      tag_19\n      jumpi\n      dup1\n      0xf2fde38b\n      eq\n      tag_20\n      jumpi\n      jump(tag_1)\n    tag_22:\n      dup1\n      0x8129fc1c\n      eq\n      tag_11\n      jumpi\n      dup1\n      0x831d49ef\n      eq\n      tag_12\n      jumpi\n      dup1\n      0x8da5cb5b\n      eq\n      tag_13\n      jumpi\n      dup1\n      0x97d75776\n      eq\n      tag_14\n      jumpi\n      dup1\n      0xbf2d9e0b\n      eq\n      tag_15\n      jumpi\n      jump(tag_1)\n    tag_21:\n      dup1\n      0x61e7d805\n      gt\n      tag_23\n      jumpi\n      dup1\n      0x61e7d805\n      eq\n      tag_6\n      jumpi\n      dup1\n      0x715018a6\n      eq\n      tag_7\n      jumpi\n      dup1\n      0x73b2e80e\n      eq\n      tag_8\n      jumpi\n      dup1\n      0x77d5d2dc\n      eq\n      tag_9\n      jumpi\n      dup1\n      0x7cb64759\n      eq\n      tag_10\n      jumpi\n      jump(tag_1)\n    tag_23:\n      dup1\n      0x2eb4a7ab\n      eq\n      tag_2\n      jumpi\n      dup1\n      0x31a0edec\n      eq\n      tag_3\n      jumpi\n      dup1\n      0x409a33ce\n      eq\n      tag_4\n      jumpi\n      dup1\n      0x4a80409e\n      eq\n      tag_5\n      jumpi\n    tag_1:\n      0x00\n      dup1\n      revert\n        /* \"contracts/QuailFinance.sol\":455:480  bytes32 public merkleRoot */\n    tag_2:\n      callvalue\n      dup1\n      iszero\n      tag_24\n      jumpi\n      0x00\n      dup1\n      revert\n    tag_24:\n      pop\n      tag_25\n      tag_26\n      jump\t// in\n    tag_25:\n      mload(0x40)\n      tag_27\n      swap2\n      swap1\n      tag_28\n      jump\t// in\n    tag_27:\n      mload(0x40)\n      dup1\n      swap2\n      sub\n      swap1\n      return\n        /* \"contracts/QuailFinance.sol\":3709:3805  IERC20Rebasing public constant USDB = IERC20Rebasing(0x4200000000000000000000000000000000000022) */\n    tag_3:\n      callvalue\n      dup1\n      iszero\n      tag_29\n      jumpi\n      0x00\n      dup1\n      revert\n    tag_29:\n      pop\n      tag_30\n      tag_31\n      jump\t// in\n    tag_30:\n      mload(0x40)\n      tag_32\n      swap2\n      swap1\n      tag_33\n      jump\t// in\n    tag_32:\n      mload(0x40)\n      dup1\n      swap2\n      sub\n      swap1\n      return\n        /* \"contracts/QuailFinance.sol\":8542:8726  function claimAllYield() external onlyOwner {... */\n    tag_4:\n      callvalue\n      dup1\n      iszero\n      tag_34\n      jumpi\n      0x00\n      dup1\n      revert\n    tag_34:\n      pop\n      tag_35\n      tag_36\n      jump\t// in\n    tag_35:\n      stop\n        /* \"contracts/QuailFinance.sol\":712:735  IERC20 public usdbToken */\n    tag_5:\n      callvalue\n      dup1\n      iszero\n      tag_37\n      jumpi\n      0x00\n      dup1\n      revert\n    tag_37:\n      pop\n      tag_38\n      tag_39\n      jump\t// in\n    tag_38:\n      mload(0x40)\n      tag_40\n      swap2\n      swap1\n      tag_41\n      jump\t// in\n    tag_40:\n      mload(0x40)\n      dup1\n      swap2\n      sub\n      swap1\n      return\n        /* \"contracts/QuailFinance.sol\":8842:9564  function claimFunds(uint256 claimAmount, bytes32[] calldata merkleProof) external {... */\n    tag_6:\n      callvalue\n      dup1\n      iszero\n      tag_42\n      jumpi\n      0x00\n      dup1\n      revert\n    tag_42:\n      pop\n      tag_43\n      0x04\n      dup1\n      calldatasize\n      sub\n      dup2\n      add\n      swap1\n      tag_44\n      swap2\n      swap1\n      tag_45\n      jump\t// in\n    tag_44:\n      tag_46\n      jump\t// in\n    tag_43:\n      stop\n        /* \"@openzeppelin/contracts-upgradeable/access/OwnableUpgradeable.sol\":3155:3256  function renounceOwnership() public virtual onlyOwner {... */\n    tag_7:\n      callvalue\n      dup1\n      iszero\n      tag_47\n      jumpi\n      0x00\n      dup1\n      revert\n    tag_47:\n      pop\n      tag_48\n      tag_49\n      jump\t// in\n    tag_48:\n      stop\n        /* \"contracts/QuailFinance.sol\":765:810  mapping(address => uint256) public hasClaimed */\n    tag_8:\n      callvalue\n      dup1\n      iszero\n      tag_50\n      jumpi\n      0x00\n      dup1\n      revert\n    tag_50:\n      pop\n      tag_51\n      0x04\n      dup1\n      calldatasize\n      sub\n      dup2\n      add\n      swap1\n      tag_52\n      swap2\n      swap1\n      tag_53\n      jump\t// in\n    tag_52:\n      tag_54\n      jump\t// in\n    tag_51:\n      mload(0x40)\n      tag_55\n      swap2\n      swap1\n      tag_56\n      jump\t// in\n    tag_55:\n      mload(0x40)\n      dup1\n      swap2\n      sub\n      swap1\n      return\n        /* \"contracts/QuailFinance.sol\":8423:8536  function claimMyContractsGas() external onlyOwner{... */\n    tag_9:\n      callvalue\n      dup1\n      iszero\n      tag_57\n      jumpi\n      0x00\n      dup1\n      revert\n    tag_57:\n      pop\n      tag_58\n      tag_59\n      jump\t// in\n    tag_58:\n      stop\n        /* \"contracts/QuailFinance.sol\":8732:8836  function setMerkleRoot(bytes32 _merkleRoot) external onlyOwner {... */\n    tag_10:\n      callvalue\n      dup1\n      iszero\n      tag_60\n      jumpi\n      0x00\n      dup1\n      revert\n    tag_60:\n      pop\n      tag_61\n      0x04\n      dup1\n      calldatasize\n      sub\n      dup2\n      add\n      swap1\n      tag_62\n      swap2\n      swap1\n      tag_63\n      jump\t// in\n    tag_62:\n      tag_64\n      jump\t// in\n    tag_61:\n      stop\n        /* \"contracts/QuailFinance.sol\":3816:3974  function initialize() public initializer {... */\n    tag_11:\n      callvalue\n      dup1\n      iszero\n      tag_65\n      jumpi\n      0x00\n      dup1\n      revert\n    tag_65:\n      pop\n      tag_66\n      tag_67\n      jump\t// in\n    tag_66:\n      stop\n        /* \"contracts/QuailFinance.sol\":5673:6487  function joinPot(uint256 _potId) external payable {... */\n    tag_12:\n      tag_68\n      0x04\n      dup1\n      calldatasize\n      sub\n      dup2\n      add\n      swap1\n      tag_69\n      swap2\n      swap1\n      tag_70\n      jump\t// in\n    tag_69:\n      tag_71\n      jump\t// in\n    tag_68:\n      stop\n        /* \"@openzeppelin/contracts-upgradeable/access/OwnableUpgradeable.sol\":2441:2585  function owner() public view virtual returns (address) {... */\n    tag_13:\n      callvalue\n      dup1\n      iszero\n      tag_72\n      jumpi\n      0x00\n      dup1\n      revert\n    tag_72:\n      pop\n      tag_73\n      tag_74\n      jump\t// in\n    tag_73:\n      mload(0x40)\n      tag_75\n      swap2\n      swap1\n      tag_76\n      jump\t// in\n    tag_75:\n      mload(0x40)\n      dup1\n      swap2\n      sub\n      swap1\n      return\n        /* \"contracts/QuailFinance.sol\":592:673  IBlast public constant BLAST = IBlast(0x4300000000000000000000000000000000000002) */\n    tag_14:\n      callvalue\n      dup1\n      iszero\n      tag_77\n      jumpi\n      0x00\n      dup1\n      revert\n    tag_77:\n      pop\n      tag_78\n      tag_79\n      jump\t// in\n    tag_78:\n      mload(0x40)\n      tag_80\n      swap2\n      swap1\n      tag_81\n      jump\t// in\n    tag_80:\n      mload(0x40)\n      dup1\n      swap2\n      sub\n      swap1\n      return\n        /* \"contracts/QuailFinance.sol\":679:706  uint256 public totalRevenue */\n    tag_15:\n      callvalue\n      dup1\n      iszero\n      tag_82\n      jumpi\n      0x00\n      dup1\n      revert\n    tag_82:\n      pop\n      tag_83\n      tag_84\n      jump\t// in\n    tag_83:\n      mload(0x40)\n      tag_85\n      swap2\n      swap1\n      tag_56\n      jump\t// in\n    tag_85:\n      mload(0x40)\n      dup1\n      swap2\n      sub\n      swap1\n      return\n        /* \"contracts/QuailFinance.sol\":816:851  mapping(uint256 => Pot) public pots */\n    tag_16:\n      callvalue\n      dup1\n      iszero\n      tag_86\n      jumpi\n      0x00\n      dup1\n      revert\n    tag_86:\n      pop\n      tag_87\n      0x04\n      dup1\n      calldatasize\n      sub\n      dup2\n      add\n      swap1\n      tag_88\n      swap2\n      swap1\n      tag_70\n      jump\t// in\n    tag_88:\n      tag_89\n      jump\t// in\n    tag_87:\n      mload(0x40)\n      tag_90\n      swap9\n      swap8\n      swap7\n      swap6\n      swap5\n      swap4\n      swap3\n      swap2\n      swap1\n      tag_91\n      jump\t// in\n    tag_90:\n      mload(0x40)\n      dup1\n      swap2\n      sub\n      swap1\n      return\n        /* \"contracts/QuailFinance.sol\":4225:5591  function createPot(uint256 _rotationCycleInSeconds, uint256 _interestDenominator, uint256 _interestNumerator, uint256 _numParticipants, uint256 _amount) public{... */\n    tag_17:\n      callvalue\n      dup1\n      iszero\n      tag_92\n      jumpi\n      0x00\n      dup1\n      revert\n    tag_92:\n      pop\n      tag_93\n      0x04\n      dup1\n      calldatasize\n      sub\n      dup2\n      add\n      swap1\n      tag_94\n      swap2\n      swap1\n      tag_95\n      jump\t// in\n    tag_94:\n      tag_96\n      jump\t// in\n    tag_93:\n      stop\n        /* \"contracts/QuailFinance.sol\":6667:7714  function rotateLiquidity(uint256 _potId) public {... */\n    tag_18:\n      callvalue\n      dup1\n      iszero\n      tag_97\n      jumpi\n      0x00\n      dup1\n      revert\n    tag_97:\n      pop\n      tag_98\n      0x04\n      dup1\n      calldatasize\n      sub\n      dup2\n      add\n      swap1\n      tag_99\n      swap2\n      swap1\n      tag_70\n      jump\t// in\n    tag_99:\n      tag_100\n      jump\t// in\n    tag_98:\n      stop\n        /* \"contracts/QuailFinance.sol\":7947:8158  function calculateInterest(uint256 _potId, uint256 _amount) public view returns (uint256) {... */\n    tag_19:\n      callvalue\n      dup1\n      iszero\n      tag_101\n      jumpi\n      0x00\n      dup1\n      revert\n    tag_101:\n      pop\n      tag_102\n      0x04\n      dup1\n      calldatasize\n      sub\n      dup2\n      add\n      swap1\n      tag_103\n      swap2\n      swap1\n      tag_104\n      jump\t// in\n    tag_103:\n      tag_105\n      jump\t// in\n    tag_102:\n      mload(0x40)\n      tag_106\n      swap2\n      swap1\n      tag_56\n      jump\t// in\n    tag_106:\n      mload(0x40)\n      dup1\n      swap2\n      sub\n      swap1\n      return\n        /* \"@openzeppelin/contracts-upgradeable/access/OwnableUpgradeable.sol\":3405:3620  function transferOwnership(address newOwner) public virtual onlyOwner {... */\n    tag_20:\n      callvalue\n      dup1\n      iszero\n      tag_107\n      jumpi\n      0x00\n      dup1\n      revert\n    tag_107:\n      pop\n      tag_108\n      0x04\n      dup1\n      calldatasize\n      sub\n      dup2\n      add\n      swap1\n      tag_109\n      swap2\n      swap1\n      tag_53\n      jump\t// in\n    tag_109:\n      tag_110\n      jump\t// in\n    tag_108:\n      stop\n        /* \"contracts/QuailFinance.sol\":455:480  bytes32 public merkleRoot */\n    tag_26:\n      sload(0x00)\n      dup2\n      jump\t// out\n        /* \"contracts/QuailFinance.sol\":3709:3805  IERC20Rebasing public constant USDB = IERC20Rebasing(0x4200000000000000000000000000000000000022) */\n    tag_31:\n        /* \"contracts/QuailFinance.sol\":3762:3804  0x4200000000000000000000000000000000000022 */\n      0x4200000000000000000000000000000000000022\n        /* \"contracts/QuailFinance.sol\":3709:3805  IERC20Rebasing public constant USDB = IERC20Rebasing(0x4200000000000000000000000000000000000022) */\n      dup2\n      jump\t// out\n        /* \"contracts/QuailFinance.sol\":8542:8726  function claimAllYield() external onlyOwner {... */\n    tag_36:\n        /* \"@openzeppelin/contracts-upgradeable/access/OwnableUpgradeable.sol\":2334:2347  _checkOwner() */\n      tag_112\n        /* \"@openzeppelin/contracts-upgradeable/access/OwnableUpgradeable.sol\":2334:2345  _checkOwner */\n      tag_113\n        /* \"@openzeppelin/contracts-upgradeable/access/OwnableUpgradeable.sol\":2334:2347  _checkOwner() */\n      jump\t// in\n    tag_112:\n        /* \"contracts/QuailFinance.sol\":3762:3804  0x4200000000000000000000000000000000000022 */\n      0x4200000000000000000000000000000000000022\n        /* \"contracts/QuailFinance.sol\":8654:8664  USDB.claim */\n      0xffffffffffffffffffffffffffffffffffffffff\n      and\n      0xaad3ec96\n        /* \"contracts/QuailFinance.sol\":8673:8677  this */\n      address\n        /* \"contracts/QuailFinance.sol\":3762:3804  0x4200000000000000000000000000000000000022 */\n      0x4200000000000000000000000000000000000022\n        /* \"contracts/QuailFinance.sol\":8680:8703  USDB.getClaimableAmount */\n      0xffffffffffffffffffffffffffffffffffffffff\n      and\n      0xe12f3a61\n        /* \"contracts/QuailFinance.sol\":8712:8716  this */\n      address\n        /* \"contracts/QuailFinance.sol\":8680:8718  USDB.getClaimableAmount(address(this)) */\n      mload(0x40)\n      dup3\n      0xffffffff\n      and\n      0xe0\n      shl\n      dup2\n      mstore\n      0x04\n      add\n      tag_115\n      swap2\n      swap1\n      tag_76\n      jump\t// in\n    tag_115:\n      0x20\n      mload(0x40)\n      dup1\n      dup4\n      sub\n      dup2\n      dup7\n      gas\n      staticcall\n      iszero\n      dup1\n      iszero\n      tag_117\n      jumpi\n      returndatasize\n      0x00\n      dup1\n      returndatacopy\n      revert(0x00, returndatasize)\n    tag_117:\n      pop\n      pop\n      pop\n      pop\n      mload(0x40)\n      returndatasize\n      not(0x1f)\n      0x1f\n      dup3\n      add\n      and\n      dup3\n      add\n      dup1\n      0x40\n      mstore\n      pop\n      dup2\n      add\n      swap1\n      tag_118\n      swap2\n      swap1\n      tag_119\n      jump\t// in\n    tag_118:\n        /* \"contracts/QuailFinance.sol\":8654:8719  USDB.claim(address(this), USDB.getClaimableAmount(address(this))) */\n      mload(0x40)\n      dup4\n      0xffffffff\n      and\n      0xe0\n      shl\n      dup2\n      mstore\n      0x04\n      add\n      tag_120\n      swap3\n      swap2\n      swap1\n      tag_121\n      jump\t// in\n    tag_120:\n      0x20\n      mload(0x40)\n      dup1\n      dup4\n      sub\n      dup2\n      0x00\n      dup8\n      gas\n      call\n      iszero\n      dup1\n      iszero\n      tag_123\n      jumpi\n      returndatasize\n      0x00\n      dup1\n      returndatacopy\n      revert(0x00, returndatasize)\n    tag_123:\n      pop\n      pop\n      pop\n      pop\n      mload(0x40)\n      returndatasize\n      not(0x1f)\n      0x1f\n      dup3\n      add\n      and\n      dup3\n      add\n      dup1\n      0x40\n      mstore\n      pop\n      dup2\n      add\n      swap1\n      tag_124\n      swap2\n      swap1\n      tag_119\n      jump\t// in\n    tag_124:\n      pop\n        /* \"contracts/QuailFinance.sol\":8542:8726  function claimAllYield() external onlyOwner {... */\n      jump\t// out\n        /* \"contracts/QuailFinance.sol\":712:735  IERC20 public usdbToken */\n    tag_39:\n      0x03\n      0x00\n      swap1\n      sload\n      swap1\n      0x0100\n      exp\n      swap1\n      div\n      0xffffffffffffffffffffffffffffffffffffffff\n      and\n      dup2\n      jump\t// out\n        /* \"contracts/QuailFinance.sol\":8842:9564  function claimFunds(uint256 claimAmount, bytes32[] calldata merkleProof) external {... */\n    tag_46:\n        /* \"contracts/QuailFinance.sol\":8969:8981  bytes32 leaf */\n      0x00\n        /* \"contracts/QuailFinance.sol\":9011:9021  msg.sender */\n      caller\n        /* \"contracts/QuailFinance.sol\":9023:9034  claimAmount */\n      dup5\n        /* \"contracts/QuailFinance.sol\":8994:9035  abi.encodePacked(msg.sender, claimAmount) */\n      add(0x20, mload(0x40))\n      tag_126\n      swap3\n      swap2\n      swap1\n      tag_127\n      jump\t// in\n    tag_126:\n      mload(0x40)\n      0x20\n      dup2\n      dup4\n      sub\n      sub\n      dup2\n      mstore\n      swap1\n      0x40\n      mstore\n        /* \"contracts/QuailFinance.sol\":8984:9036  keccak256(abi.encodePacked(msg.sender, claimAmount)) */\n      dup1\n      mload\n      swap1\n      0x20\n      add\n      keccak256\n        /* \"contracts/QuailFinance.sol\":8969:9036  bytes32 leaf = keccak256(abi.encodePacked(msg.sender, claimAmount)) */\n      swap1\n      pop\n        /* \"contracts/QuailFinance.sol\":9054:9103  MerkleProof.verify(merkleProof, merkleRoot, leaf) */\n      tag_128\n        /* \"contracts/QuailFinance.sol\":9073:9084  merkleProof */\n      dup4\n      dup4\n        /* \"contracts/QuailFinance.sol\":9054:9103  MerkleProof.verify(merkleProof, merkleRoot, leaf) */\n      dup1\n      dup1\n      0x20\n      mul\n      0x20\n      add\n      mload(0x40)\n      swap1\n      dup2\n      add\n      0x40\n      mstore\n      dup1\n      swap4\n      swap3\n      swap2\n      swap1\n      dup2\n      dup2\n      mstore\n      0x20\n      add\n      dup4\n      dup4\n      0x20\n      mul\n      dup1\n      dup3\n      dup5\n      calldatacopy\n      0x00\n      dup2\n      dup5\n      add\n      mstore\n      not(0x1f)\n      0x1f\n      dup3\n      add\n      and\n      swap1\n      pop\n      dup1\n      dup4\n      add\n      swap3\n      pop\n      pop\n      pop\n      pop\n      pop\n      pop\n      pop\n        /* \"contracts/QuailFinance.sol\":9086:9096  merkleRoot */\n      sload(0x00)\n        /* \"contracts/QuailFinance.sol\":9098:9102  leaf */\n      dup4\n        /* \"contracts/QuailFinance.sol\":9054:9072  MerkleProof.verify */\n      tag_129\n        /* \"contracts/QuailFinance.sol\":9054:9103  MerkleProof.verify(merkleProof, merkleRoot, leaf) */\n      jump\t// in\n    tag_128:\n        /* \"contracts/QuailFinance.sol\":9046:9122  require(MerkleProof.verify(merkleProof, merkleRoot, leaf), \"Invalid proof.\") */\n      tag_130\n      jumpi\n      mload(0x40)\n      0x08c379a000000000000000000000000000000000000000000000000000000000\n      dup2\n      mstore\n      0x04\n      add\n      tag_131\n      swap1\n      tag_132\n      jump\t// in\n    tag_131:\n      mload(0x40)\n      dup1\n      swap2\n      sub\n      swap1\n      revert\n    tag_130:\n        /* \"contracts/QuailFinance.sol\":9132:9154  uint256 alreadyClaimed */\n      0x00\n        /* \"contracts/QuailFinance.sol\":9157:9167  hasClaimed */\n      0x04\n        /* \"contracts/QuailFinance.sol\":9157:9179  hasClaimed[msg.sender] */\n      0x00\n        /* \"contracts/QuailFinance.sol\":9168:9178  msg.sender */\n      caller\n        /* \"contracts/QuailFinance.sol\":9157:9179  hasClaimed[msg.sender] */\n      0xffffffffffffffffffffffffffffffffffffffff\n      and\n      0xffffffffffffffffffffffffffffffffffffffff\n      and\n      dup2\n      mstore\n      0x20\n      add\n      swap1\n      dup2\n      mstore\n      0x20\n      add\n      0x00\n      keccak256\n      sload\n        /* \"contracts/QuailFinance.sol\":9132:9179  uint256 alreadyClaimed = hasClaimed[msg.sender] */\n      swap1\n      pop\n        /* \"contracts/QuailFinance.sol\":9214:9225  claimAmount */\n      dup5\n        /* \"contracts/QuailFinance.sol\":9197:9211  alreadyClaimed */\n      dup2\n        /* \"contracts/QuailFinance.sol\":9197:9225  alreadyClaimed < claimAmount */\n      lt\n        /* \"contracts/QuailFinance.sol\":9189:9272  require(alreadyClaimed < claimAmount, \"No funds left to claim or already claimed.\") */\n      tag_133\n      jumpi\n      mload(0x40)\n      0x08c379a000000000000000000000000000000000000000000000000000000000\n      dup2\n      mstore\n      0x04\n      add\n      tag_134\n      swap1\n      tag_135\n      jump\t// in\n    tag_134:\n      mload(0x40)\n      dup1\n      swap2\n      sub\n      swap1\n      revert\n    tag_133:\n        /* \"contracts/QuailFinance.sol\":9282:9305  uint256 claimableAmount */\n      0x00\n        /* \"contracts/QuailFinance.sol\":9322:9336  alreadyClaimed */\n      dup2\n        /* \"contracts/QuailFinance.sol\":9308:9319  claimAmount */\n      dup7\n        /* \"contracts/QuailFinance.sol\":9308:9336  claimAmount - alreadyClaimed */\n      tag_136\n      swap2\n      swap1\n      tag_137\n      jump\t// in\n    tag_136:\n        /* \"contracts/QuailFinance.sol\":9282:9336  uint256 claimableAmount = claimAmount - alreadyClaimed */\n      swap1\n      pop\n        /* \"contracts/QuailFinance.sol\":9408:9419  claimAmount */\n      dup6\n        /* \"contracts/QuailFinance.sol\":9383:9393  hasClaimed */\n      0x04\n        /* \"contracts/QuailFinance.sol\":9383:9405  hasClaimed[msg.sender] */\n      0x00\n        /* \"contracts/QuailFinance.sol\":9394:9404  msg.sender */\n      caller\n        /* \"contracts/QuailFinance.sol\":9383:9405  hasClaimed[msg.sender] */\n      0xffffffffffffffffffffffffffffffffffffffff\n      and\n      0xffffffffffffffffffffffffffffffffffffffff\n      and\n      dup2\n      mstore\n      0x20\n      add\n      swap1\n      dup2\n      mstore\n      0x20\n      add\n      0x00\n      keccak256\n        /* \"contracts/QuailFinance.sol\":9383:9419  hasClaimed[msg.sender] = claimAmount */\n      dup2\n      swap1\n      sstore\n      pop\n        /* \"contracts/QuailFinance.sol\":9484:9493  usdbToken */\n      0x03\n      0x00\n      swap1\n      sload\n      swap1\n      0x0100\n      exp\n      swap1\n      div\n      0xffffffffffffffffffffffffffffffffffffffff\n      and\n        /* \"contracts/QuailFinance.sol\":9484:9502  usdbToken.transfer */\n      0xffffffffffffffffffffffffffffffffffffffff\n      and\n      0xa9059cbb\n        /* \"contracts/QuailFinance.sol\":9503:9513  msg.sender */\n      caller\n        /* \"contracts/QuailFinance.sol\":9515:9530  claimableAmount */\n      dup4\n        /* \"contracts/QuailFinance.sol\":9484:9531  usdbToken.transfer(msg.sender, claimableAmount) */\n      mload(0x40)\n      dup4\n      0xffffffff\n      and\n      0xe0\n      shl\n      dup2\n      mstore\n      0x04\n      add\n      tag_138\n      swap3\n      swap2\n      swap1\n      tag_121\n      jump\t// in\n    tag_138:\n      0x20\n      mload(0x40)\n      dup1\n      dup4\n      sub\n      dup2\n      0x00\n      dup8\n      gas\n      call\n      iszero\n      dup1\n      iszero\n      tag_140\n      jumpi\n      returndatasize\n      0x00\n      dup1\n      returndatacopy\n      revert(0x00, returndatasize)\n    tag_140:\n      pop\n      pop\n      pop\n      pop\n      mload(0x40)\n      returndatasize\n      not(0x1f)\n      0x1f\n      dup3\n      add\n      and\n      dup3\n      add\n      dup1\n      0x40\n      mstore\n      pop\n      dup2\n      add\n      swap1\n      tag_141\n      swap2\n      swap1\n      tag_142\n      jump\t// in\n    tag_141:\n        /* \"contracts/QuailFinance.sol\":9476:9557  require(usdbToken.transfer(msg.sender, claimableAmount), \"Yield transfer failed\") */\n      tag_143\n      jumpi\n      mload(0x40)\n      0x08c379a000000000000000000000000000000000000000000000000000000000\n      dup2\n      mstore\n      0x04\n      add\n      tag_144\n      swap1\n      tag_145\n      jump\t// in\n    tag_144:\n      mload(0x40)\n      dup1\n      swap2\n      sub\n      swap1\n      revert\n    tag_143:\n        /* \"contracts/QuailFinance.sol\":8924:9564  {... */\n      pop\n      pop\n      pop\n        /* \"contracts/QuailFinance.sol\":8842:9564  function claimFunds(uint256 claimAmount, bytes32[] calldata merkleProof) external {... */\n      pop\n      pop\n      pop\n      jump\t// out\n        /* \"@openzeppelin/contracts-upgradeable/access/OwnableUpgradeable.sol\":3155:3256  function renounceOwnership() public virtual onlyOwner {... */\n    tag_49:\n        /* \"@openzeppelin/contracts-upgradeable/access/OwnableUpgradeable.sol\":2334:2347  _checkOwner() */\n      tag_147\n        /* \"@openzeppelin/contracts-upgradeable/access/OwnableUpgradeable.sol\":2334:2345  _checkOwner */\n      tag_113\n        /* \"@openzeppelin/contracts-upgradeable/access/OwnableUpgradeable.sol\":2334:2347  _checkOwner() */\n      jump\t// in\n    tag_147:\n        /* \"@openzeppelin/contracts-upgradeable/access/OwnableUpgradeable.sol\":3219:3249  _transferOwnership(address(0)) */\n      tag_149\n        /* \"@openzeppelin/contracts-upgradeable/access/OwnableUpgradeable.sol\":3246:3247  0 */\n      0x00\n        /* \"@openzeppelin/contracts-upgradeable/access/OwnableUpgradeable.sol\":3219:3237  _transferOwnership */\n      tag_150\n        /* \"@openzeppelin/contracts-upgradeable/access/OwnableUpgradeable.sol\":3219:3249  _transferOwnership(address(0)) */\n      jump\t// in\n    tag_149:\n        /* \"@openzeppelin/contracts-upgradeable/access/OwnableUpgradeable.sol\":3155:3256  function renounceOwnership() public virtual onlyOwner {... */\n      jump\t// out\n        /* \"contracts/QuailFinance.sol\":765:810  mapping(address => uint256) public hasClaimed */\n    tag_54:\n      mstore(0x20, 0x04)\n      dup1\n      0x00\n      mstore\n      keccak256(0x00, 0x40)\n      0x00\n      swap2\n      pop\n      swap1\n      pop\n      sload\n      dup2\n      jump\t// out\n        /* \"contracts/QuailFinance.sol\":8423:8536  function claimMyContractsGas() external onlyOwner{... */\n    tag_59:\n        /* \"@openzeppelin/contracts-upgradeable/access/OwnableUpgradeable.sol\":2334:2347  _checkOwner() */\n      tag_152\n        /* \"@openzeppelin/contracts-upgradeable/access/OwnableUpgradeable.sol\":2334:2345  _checkOwner */\n      tag_113\n        /* \"@openzeppelin/contracts-upgradeable/access/OwnableUpgradeable.sol\":2334:2347  _checkOwner() */\n      jump\t// in\n    tag_152:\n        /* \"contracts/QuailFinance.sol\":630:672  0x4300000000000000000000000000000000000002 */\n      0x4300000000000000000000000000000000000002\n        /* \"contracts/QuailFinance.sol\":8482:8499  BLAST.claimAllGas */\n      0xffffffffffffffffffffffffffffffffffffffff\n      and\n      0x954fa5ee\n        /* \"contracts/QuailFinance.sol\":8508:8512  this */\n      address\n        /* \"contracts/QuailFinance.sol\":8523:8527  this */\n      address\n        /* \"contracts/QuailFinance.sol\":8482:8529  BLAST.claimAllGas(address(this), address(this)) */\n      mload(0x40)\n      dup4\n      0xffffffff\n      and\n      0xe0\n      shl\n      dup2\n      mstore\n      0x04\n      add\n      tag_154\n      swap3\n      swap2\n      swap1\n      tag_155\n      jump\t// in\n    tag_154:\n      0x20\n      mload(0x40)\n      dup1\n      dup4\n      sub\n      dup2\n      0x00\n      dup8\n      gas\n      call\n      iszero\n      dup1\n      iszero\n      tag_157\n      jumpi\n      returndatasize\n      0x00\n      dup1\n      returndatacopy\n      revert(0x00, returndatasize)\n    tag_157:\n      pop\n      pop\n      pop\n      pop\n      mload(0x40)\n      returndatasize\n      not(0x1f)\n      0x1f\n      dup3\n      add\n      and\n      dup3\n      add\n      dup1\n      0x40\n      mstore\n      pop\n      dup2\n      add\n      swap1\n      tag_158\n      swap2\n      swap1\n      tag_119\n      jump\t// in\n    tag_158:\n      pop\n        /* \"contracts/QuailFinance.sol\":8423:8536  function claimMyContractsGas() external onlyOwner{... */\n      jump\t// out\n        /* \"contracts/QuailFinance.sol\":8732:8836  function setMerkleRoot(bytes32 _merkleRoot) external onlyOwner {... */\n    tag_64:\n        /* \"@openzeppelin/contracts-upgradeable/access/OwnableUpgradeable.sol\":2334:2347  _checkOwner() */\n      tag_160\n        /* \"@openzeppelin/contracts-upgradeable/access/OwnableUpgradeable.sol\":2334:2345  _checkOwner */\n      tag_113\n        /* \"@openzeppelin/contracts-upgradeable/access/OwnableUpgradeable.sol\":2334:2347  _checkOwner() */\n      jump\t// in\n    tag_160:\n        /* \"contracts/QuailFinance.sol\":8818:8829  _merkleRoot */\n      dup1\n        /* \"contracts/QuailFinance.sol\":8805:8815  merkleRoot */\n      0x00\n        /* \"contracts/QuailFinance.sol\":8805:8829  merkleRoot = _merkleRoot */\n      dup2\n      swap1\n      sstore\n      pop\n        /* \"contracts/QuailFinance.sol\":8732:8836  function setMerkleRoot(bytes32 _merkleRoot) external onlyOwner {... */\n      pop\n      jump\t// out\n        /* \"contracts/QuailFinance.sol\":3816:3974  function initialize() public initializer {... */\n    tag_67:\n        /* \"@openzeppelin/contracts-upgradeable/proxy/utils/Initializable.sol\":4158:4188  InitializableStorage storage $ */\n      0x00\n        /* \"@openzeppelin/contracts-upgradeable/proxy/utils/Initializable.sol\":4191:4217  _getInitializableStorage() */\n      tag_163\n        /* \"@openzeppelin/contracts-upgradeable/proxy/utils/Initializable.sol\":4191:4215  _getInitializableStorage */\n      tag_164\n        /* \"@openzeppelin/contracts-upgradeable/proxy/utils/Initializable.sol\":4191:4217  _getInitializableStorage() */\n      jump\t// in\n    tag_163:\n        /* \"@openzeppelin/contracts-upgradeable/proxy/utils/Initializable.sol\":4158:4217  InitializableStorage storage $ = _getInitializableStorage() */\n      swap1\n      pop\n        /* \"@openzeppelin/contracts-upgradeable/proxy/utils/Initializable.sol\":4279:4298  bool isTopLevelCall */\n      0x00\n        /* \"@openzeppelin/contracts-upgradeable/proxy/utils/Initializable.sol\":4302:4303  $ */\n      dup2\n        /* \"@openzeppelin/contracts-upgradeable/proxy/utils/Initializable.sol\":4302:4317  $._initializing */\n      0x00\n      add\n      0x08\n      swap1\n      sload\n      swap1\n      0x0100\n      exp\n      swap1\n      div\n      0xff\n      and\n        /* \"@openzeppelin/contracts-upgradeable/proxy/utils/Initializable.sol\":4301:4317  !$._initializing */\n      iszero\n        /* \"@openzeppelin/contracts-upgradeable/proxy/utils/Initializable.sol\":4279:4317  bool isTopLevelCall = !$._initializing */\n      swap1\n      pop\n        /* \"@openzeppelin/contracts-upgradeable/proxy/utils/Initializable.sol\":4327:4345  uint64 initialized */\n      0x00\n        /* \"@openzeppelin/contracts-upgradeable/proxy/utils/Initializable.sol\":4348:4349  $ */\n      dup3\n        /* \"@openzeppelin/contracts-upgradeable/proxy/utils/Initializable.sol\":4348:4362  $._initialized */\n      0x00\n      add\n      0x00\n      swap1\n      sload\n      swap1\n      0x0100\n      exp\n      swap1\n      div\n      0xffffffffffffffff\n      and\n        /* \"@openzeppelin/contracts-upgradeable/proxy/utils/Initializable.sol\":4327:4362  uint64 initialized = $._initialized */\n      swap1\n      pop\n        /* \"@openzeppelin/contracts-upgradeable/proxy/utils/Initializable.sol\":4706:4723  bool initialSetup */\n      0x00\n        /* \"@openzeppelin/contracts-upgradeable/proxy/utils/Initializable.sol\":4741:4742  0 */\n      dup1\n        /* \"@openzeppelin/contracts-upgradeable/proxy/utils/Initializable.sol\":4726:4737  initialized */\n      dup3\n        /* \"@openzeppelin/contracts-upgradeable/proxy/utils/Initializable.sol\":4726:4742  initialized == 0 */\n      0xffffffffffffffff\n      and\n      eq\n        /* \"@openzeppelin/contracts-upgradeable/proxy/utils/Initializable.sol\":4726:4760  initialized == 0 && isTopLevelCall */\n      dup1\n      iszero\n      tag_165\n      jumpi\n      pop\n        /* \"@openzeppelin/contracts-upgradeable/proxy/utils/Initializable.sol\":4746:4760  isTopLevelCall */\n      dup3\n        /* \"@openzeppelin/contracts-upgradeable/proxy/utils/Initializable.sol\":4726:4760  initialized == 0 && isTopLevelCall */\n    tag_165:\n        /* \"@openzeppelin/contracts-upgradeable/proxy/utils/Initializable.sol\":4706:4760  bool initialSetup = initialized == 0 && isTopLevelCall */\n      swap1\n      pop\n        /* \"@openzeppelin/contracts-upgradeable/proxy/utils/Initializable.sol\":4770:4787  bool construction */\n      0x00\n        /* \"@openzeppelin/contracts-upgradeable/proxy/utils/Initializable.sol\":4805:4806  1 */\n      0x01\n        /* \"@openzeppelin/contracts-upgradeable/proxy/utils/Initializable.sol\":4790:4801  initialized */\n      dup4\n        /* \"@openzeppelin/contracts-upgradeable/proxy/utils/Initializable.sol\":4790:4806  initialized == 1 */\n      0xffffffffffffffff\n      and\n      eq\n        /* \"@openzeppelin/contracts-upgradeable/proxy/utils/Initializable.sol\":4790:4840  initialized == 1 && address(this).code.length == 0 */\n      dup1\n      iszero\n      tag_166\n      jumpi\n      pop\n        /* \"@openzeppelin/contracts-upgradeable/proxy/utils/Initializable.sol\":4839:4840  0 */\n      0x00\n        /* \"@openzeppelin/contracts-upgradeable/proxy/utils/Initializable.sol\":4818:4822  this */\n      address\n        /* \"@openzeppelin/contracts-upgradeable/proxy/utils/Initializable.sol\":4810:4835  address(this).code.length */\n      0xffffffffffffffffffffffffffffffffffffffff\n      and\n      extcodesize\n        /* \"@openzeppelin/contracts-upgradeable/proxy/utils/Initializable.sol\":4810:4840  address(this).code.length == 0 */\n      eq\n        /* \"@openzeppelin/contracts-upgradeable/proxy/utils/Initializable.sol\":4790:4840  initialized == 1 && address(this).code.length == 0 */\n    tag_166:\n        /* \"@openzeppelin/contracts-upgradeable/proxy/utils/Initializable.sol\":4770:4840  bool construction = initialized == 1 && address(this).code.length == 0 */\n      swap1\n      pop\n        /* \"@openzeppelin/contracts-upgradeable/proxy/utils/Initializable.sol\":4856:4868  initialSetup */\n      dup2\n        /* \"@openzeppelin/contracts-upgradeable/proxy/utils/Initializable.sol\":4855:4868  !initialSetup */\n      iszero\n        /* \"@openzeppelin/contracts-upgradeable/proxy/utils/Initializable.sol\":4855:4885  !initialSetup && !construction */\n      dup1\n      iszero\n      tag_167\n      jumpi\n      pop\n        /* \"@openzeppelin/contracts-upgradeable/proxy/utils/Initializable.sol\":4873:4885  construction */\n      dup1\n        /* \"@openzeppelin/contracts-upgradeable/proxy/utils/Initializable.sol\":4872:4885  !construction */\n      iszero\n        /* \"@openzeppelin/contracts-upgradeable/proxy/utils/Initializable.sol\":4855:4885  !initialSetup && !construction */\n    tag_167:\n        /* \"@openzeppelin/contracts-upgradeable/proxy/utils/Initializable.sol\":4851:4942  if (!initialSetup && !construction) {... */\n      iszero\n      tag_168\n      jumpi\n        /* \"@openzeppelin/contracts-upgradeable/proxy/utils/Initializable.sol\":4908:4931  InvalidInitialization() */\n      mload(0x40)\n      0xf92ee8a900000000000000000000000000000000000000000000000000000000\n      dup2\n      mstore\n      0x04\n      add\n      mload(0x40)\n      dup1\n      swap2\n      sub\n      swap1\n      revert\n        /* \"@openzeppelin/contracts-upgradeable/proxy/utils/Initializable.sol\":4851:4942  if (!initialSetup && !construction) {... */\n    tag_168:\n        /* \"@openzeppelin/contracts-upgradeable/proxy/utils/Initializable.sol\":4968:4969  1 */\n      0x01\n        /* \"@openzeppelin/contracts-upgradeable/proxy/utils/Initializable.sol\":4951:4952  $ */\n      dup6\n        /* \"@openzeppelin/contracts-upgradeable/proxy/utils/Initializable.sol\":4951:4965  $._initialized */\n      0x00\n      add\n      0x00\n        /* \"@openzeppelin/contracts-upgradeable/proxy/utils/Initializable.sol\":4951:4969  $._initialized = 1 */\n      0x0100\n      exp\n      dup2\n      sload\n      dup2\n      0xffffffffffffffff\n      mul\n      not\n      and\n      swap1\n      dup4\n      0xffffffffffffffff\n      and\n      mul\n      or\n      swap1\n      sstore\n      pop\n        /* \"@openzeppelin/contracts-upgradeable/proxy/utils/Initializable.sol\":4983:4997  isTopLevelCall */\n      dup4\n        /* \"@openzeppelin/contracts-upgradeable/proxy/utils/Initializable.sol\":4979:5046  if (isTopLevelCall) {... */\n      iszero\n      tag_169\n      jumpi\n        /* \"@openzeppelin/contracts-upgradeable/proxy/utils/Initializable.sol\":5031:5035  true */\n      0x01\n        /* \"@openzeppelin/contracts-upgradeable/proxy/utils/Initializable.sol\":5013:5014  $ */\n      dup6\n        /* \"@openzeppelin/contracts-upgradeable/proxy/utils/Initializable.sol\":5013:5028  $._initializing */\n      0x00\n      add\n      0x08\n        /* \"@openzeppelin/contracts-upgradeable/proxy/utils/Initializable.sol\":5013:5035  $._initializing = true */\n      0x0100\n      exp\n      dup2\n      sload\n      dup2\n      0xff\n      mul\n      not\n      and\n      swap1\n      dup4\n      iszero\n      iszero\n      mul\n      or\n      swap1\n      sstore\n      pop\n        /* \"@openzeppelin/contracts-upgradeable/proxy/utils/Initializable.sol\":4979:5046  if (isTopLevelCall) {... */\n    tag_169:\n        /* \"contracts/QuailFinance.sol\":3867:3893  __Ownable_init(msg.sender) */\n      tag_171\n        /* \"contracts/QuailFinance.sol\":3882:3892  msg.sender */\n      caller\n        /* \"contracts/QuailFinance.sol\":3867:3881  __Ownable_init */\n      tag_172\n        /* \"contracts/QuailFinance.sol\":3867:3893  __Ownable_init(msg.sender) */\n      jump\t// in\n    tag_171:\n        /* \"@openzeppelin/contracts-upgradeable/proxy/utils/Initializable.sol\":5070:5084  isTopLevelCall */\n      dup4\n        /* \"@openzeppelin/contracts-upgradeable/proxy/utils/Initializable.sol\":5066:5167  if (isTopLevelCall) {... */\n      iszero\n      tag_173\n      jumpi\n        /* \"@openzeppelin/contracts-upgradeable/proxy/utils/Initializable.sol\":5118:5123  false */\n      0x00\n        /* \"@openzeppelin/contracts-upgradeable/proxy/utils/Initializable.sol\":5100:5101  $ */\n      dup6\n        /* \"@openzeppelin/contracts-upgradeable/proxy/utils/Initializable.sol\":5100:5115  $._initializing */\n      0x00\n      add\n      0x08\n        /* \"@openzeppelin/contracts-upgradeable/proxy/utils/Initializable.sol\":5100:5123  $._initializing = false */\n      0x0100\n      exp\n      dup2\n      sload\n      dup2\n      0xff\n      mul\n      not\n      and\n      swap1\n      dup4\n      iszero\n      iszero\n      mul\n      or\n      swap1\n      sstore\n      pop\n        /* \"@openzeppelin/contracts-upgradeable/proxy/utils/Initializable.sol\":5142:5156  Initialized(1) */\n      0xc7f505b2f371ae2175ee4913f4499e1f2633a7b5936321eed1cdaeb6115181d2\n        /* \"@openzeppelin/contracts-upgradeable/proxy/utils/Initializable.sol\":5154:5155  1 */\n      0x01\n        /* \"@openzeppelin/contracts-upgradeable/proxy/utils/Initializable.sol\":5142:5156  Initialized(1) */\n      mload(0x40)\n      tag_174\n      swap2\n      swap1\n      tag_175\n      jump\t// in\n    tag_174:\n      mload(0x40)\n      dup1\n      swap2\n      sub\n      swap1\n      log1\n        /* \"@openzeppelin/contracts-upgradeable/proxy/utils/Initializable.sol\":5066:5167  if (isTopLevelCall) {... */\n    tag_173:\n        /* \"@openzeppelin/contracts-upgradeable/proxy/utils/Initializable.sol\":4092:5173  {... */\n      pop\n      pop\n      pop\n      pop\n      pop\n        /* \"contracts/QuailFinance.sol\":3816:3974  function initialize() public initializer {... */\n      jump\t// out\n        /* \"contracts/QuailFinance.sol\":5673:6487  function joinPot(uint256 _potId) external payable {... */\n    tag_71:\n        /* \"contracts/QuailFinance.sol\":5733:5748  Pot storage pot */\n      0x00\n        /* \"contracts/QuailFinance.sol\":5751:5755  pots */\n      0x05\n        /* \"contracts/QuailFinance.sol\":5751:5763  pots[_potId] */\n      0x00\n        /* \"contracts/QuailFinance.sol\":5756:5762  _potId */\n      dup4\n        /* \"contracts/QuailFinance.sol\":5751:5763  pots[_potId] */\n      dup2\n      mstore\n      0x20\n      add\n      swap1\n      dup2\n      mstore\n      0x20\n      add\n      0x00\n      keccak256\n        /* \"contracts/QuailFinance.sol\":5733:5763  Pot storage pot = pots[_potId] */\n      swap1\n      pop\n        /* \"contracts/QuailFinance.sol\":5807:5810  pot */\n      dup1\n        /* \"contracts/QuailFinance.sol\":5807:5826  pot.numParticipants */\n      0x05\n      add\n      sload\n        /* \"contracts/QuailFinance.sol\":5781:5784  pot */\n      dup2\n        /* \"contracts/QuailFinance.sol\":5781:5797  pot.participants */\n      0x08\n      add\n        /* \"contracts/QuailFinance.sol\":5781:5804  pot.participants.length */\n      dup1\n      sload\n      swap1\n      pop\n        /* \"contracts/QuailFinance.sol\":5781:5826  pot.participants.length < pot.numParticipants */\n      lt\n        /* \"contracts/QuailFinance.sol\":5773:5842  require(pot.participants.length < pot.numParticipants, \"Pot is full\") */\n      tag_177\n      jumpi\n      mload(0x40)\n      0x08c379a000000000000000000000000000000000000000000000000000000000\n      dup2\n      mstore\n      0x04\n      add\n      tag_178\n      swap1\n      tag_179\n      jump\t// in\n    tag_178:\n      mload(0x40)\n      dup1\n      swap2\n      sub\n      swap1\n      revert\n    tag_177:\n        /* \"contracts/QuailFinance.sol\":5879:5880  1 */\n      0x01\n        /* \"contracts/QuailFinance.sol\":5860:5863  pot */\n      dup2\n        /* \"contracts/QuailFinance.sol\":5860:5876  pot.currentRound */\n      0x06\n      add\n      sload\n        /* \"contracts/QuailFinance.sol\":5860:5880  pot.currentRound < 1 */\n      lt\n        /* \"contracts/QuailFinance.sol\":5852:5915  require(pot.currentRound < 1, \"Rotating pots cannot be joined\") */\n      tag_180\n      jumpi\n      mload(0x40)\n      0x08c379a000000000000000000000000000000000000000000000000000000000\n      dup2\n      mstore\n      0x04\n      add\n      tag_181\n      swap1\n      tag_182\n      jump\t// in\n    tag_181:\n      mload(0x40)\n      dup1\n      swap2\n      sub\n      swap1\n      revert\n    tag_180:\n        /* \"contracts/QuailFinance.sol\":5966:5967  0 */\n      0x00\n        /* \"contracts/QuailFinance.sol\":5933:5936  pot */\n      dup2\n        /* \"contracts/QuailFinance.sol\":5933:5950  pot.contributions */\n      0x09\n      add\n        /* \"contracts/QuailFinance.sol\":5933:5962  pot.contributions[msg.sender] */\n      0x00\n        /* \"contracts/QuailFinance.sol\":5951:5961  msg.sender */\n      caller\n        /* \"contracts/QuailFinance.sol\":5933:5962  pot.contributions[msg.sender] */\n      0xffffffffffffffffffffffffffffffffffffffff\n      and\n      0xffffffffffffffffffffffffffffffffffffffff\n      and\n      dup2\n      mstore\n      0x20\n      add\n      swap1\n      dup2\n      mstore\n      0x20\n      add\n      0x00\n      keccak256\n      sload\n        /* \"contracts/QuailFinance.sol\":5933:5967  pot.contributions[msg.sender] == 0 */\n      eq\n        /* \"contracts/QuailFinance.sol\":5925:5986  require(pot.contributions[msg.sender] == 0, \"Already joined\") */\n      tag_183\n      jumpi\n      mload(0x40)\n      0x08c379a000000000000000000000000000000000000000000000000000000000\n      dup2\n      mstore\n      0x04\n      add\n      tag_184\n      swap1\n      tag_185\n      jump\t// in\n    tag_184:\n      mload(0x40)\n      dup1\n      swap2\n      sub\n      swap1\n      revert\n    tag_183:\n        /* \"contracts/QuailFinance.sol\":6046:6072  uint256 amountAfterRevenue */\n      0x00\n        /* \"contracts/QuailFinance.sol\":6075:6100  deductRevenue(pot.amount) */\n      tag_186\n        /* \"contracts/QuailFinance.sol\":6089:6092  pot */\n      dup3\n        /* \"contracts/QuailFinance.sol\":6089:6099  pot.amount */\n      0x00\n      add\n      sload\n        /* \"contracts/QuailFinance.sol\":6075:6088  deductRevenue */\n      tag_187\n        /* \"contracts/QuailFinance.sol\":6075:6100  deductRevenue(pot.amount) */\n      jump\t// in\n    tag_186:\n        /* \"contracts/QuailFinance.sol\":6046:6100  uint256 amountAfterRevenue = deductRevenue(pot.amount) */\n      swap1\n      pop\n        /* \"contracts/QuailFinance.sol\":6118:6127  usdbToken */\n      0x03\n      0x00\n      swap1\n      sload\n      swap1\n      0x0100\n      exp\n      swap1\n      div\n      0xffffffffffffffffffffffffffffffffffffffff\n      and\n        /* \"contracts/QuailFinance.sol\":6118:6140  usdbToken.transferFrom */\n      0xffffffffffffffffffffffffffffffffffffffff\n      and\n      0x23b872dd\n        /* \"contracts/QuailFinance.sol\":6141:6151  msg.sender */\n      caller\n        /* \"contracts/QuailFinance.sol\":6161:6165  this */\n      address\n        /* \"contracts/QuailFinance.sol\":6168:6186  amountAfterRevenue */\n      dup5\n        /* \"contracts/QuailFinance.sol\":6118:6187  usdbToken.transferFrom(msg.sender, address(this), amountAfterRevenue) */\n      mload(0x40)\n      dup5\n      0xffffffff\n      and\n      0xe0\n      shl\n      dup2\n      mstore\n      0x04\n      add\n      tag_188\n      swap4\n      swap3\n      swap2\n      swap1\n      tag_189\n      jump\t// in\n    tag_188:\n      0x20\n      mload(0x40)\n      dup1\n      dup4\n      sub\n      dup2\n      0x00\n      dup8\n      gas\n      call\n      iszero\n      dup1\n      iszero\n      tag_191\n      jumpi\n      returndatasize\n      0x00\n      dup1\n      returndatacopy\n      revert(0x00, returndatasize)\n    tag_191:\n      pop\n      pop\n      pop\n      pop\n      mload(0x40)\n      returndatasize\n      not(0x1f)\n      0x1f\n      dup3\n      add\n      and\n      dup3\n      add\n      dup1\n      0x40\n      mstore\n      pop\n      dup2\n      add\n      swap1\n      tag_192\n      swap2\n      swap1\n      tag_142\n      jump\t// in\n    tag_192:\n        /* \"contracts/QuailFinance.sol\":6110:6207  require(usdbToken.transferFrom(msg.sender, address(this), amountAfterRevenue), \"Transfer failed\") */\n      tag_193\n      jumpi\n      mload(0x40)\n      0x08c379a000000000000000000000000000000000000000000000000000000000\n      dup2\n      mstore\n      0x04\n      add\n      tag_194\n      swap1\n      tag_195\n      jump\t// in\n    tag_194:\n      mload(0x40)\n      dup1\n      swap2\n      sub\n      swap1\n      revert\n    tag_193:\n        /* \"contracts/QuailFinance.sol\":6249:6267  amountAfterRevenue */\n      dup1\n        /* \"contracts/QuailFinance.sol\":6217:6220  pot */\n      dup3\n        /* \"contracts/QuailFinance.sol\":6217:6234  pot.contributions */\n      0x09\n      add\n        /* \"contracts/QuailFinance.sol\":6217:6246  pot.contributions[msg.sender] */\n      0x00\n        /* \"contracts/QuailFinance.sol\":6235:6245  msg.sender */\n      caller\n        /* \"contracts/QuailFinance.sol\":6217:6246  pot.contributions[msg.sender] */\n      0xffffffffffffffffffffffffffffffffffffffff\n      and\n      0xffffffffffffffffffffffffffffffffffffffff\n      and\n      dup2\n      mstore\n      0x20\n      add\n      swap1\n      dup2\n      mstore\n      0x20\n      add\n      0x00\n      keccak256\n        /* \"contracts/QuailFinance.sol\":6217:6267  pot.contributions[msg.sender] = amountAfterRevenue */\n      dup2\n      swap1\n      sstore\n      pop\n        /* \"contracts/QuailFinance.sol\":6277:6280  pot */\n      dup2\n        /* \"contracts/QuailFinance.sol\":6277:6293  pot.participants */\n      0x08\n      add\n        /* \"contracts/QuailFinance.sol\":6299:6309  msg.sender */\n      caller\n        /* \"contracts/QuailFinance.sol\":6277:6310  pot.participants.push(msg.sender) */\n      swap1\n      dup1\n      0x01\n      dup2\n      sload\n      add\n      dup1\n      dup3\n      sstore\n      dup1\n      swap2\n      pop\n      pop\n      0x01\n      swap1\n      sub\n      swap1\n      0x00\n      mstore\n      keccak256(0x00, 0x20)\n      add\n      0x00\n      swap1\n      swap2\n      swap1\n      swap2\n      swap1\n      swap2\n      0x0100\n      exp\n      dup2\n      sload\n      dup2\n      0xffffffffffffffffffffffffffffffffffffffff\n      mul\n      not\n      and\n      swap1\n      dup4\n      0xffffffffffffffffffffffffffffffffffffffff\n      and\n      mul\n      or\n      swap1\n      sstore\n      pop\n        /* \"contracts/QuailFinance.sol\":6334:6480  ParticipantJoined(_potId, msg.sender, pot.amount, pot.rotationCycleInSeconds, pot.interestNumerator, pot.interestDenominator, pot.numParticipants) */\n      0x7940335f2934b328362e6c325cd06ad0bc653662a5d556304d09ef5c2cc74a76\n        /* \"contracts/QuailFinance.sol\":6352:6358  _potId */\n      dup4\n        /* \"contracts/QuailFinance.sol\":6360:6370  msg.sender */\n      caller\n        /* \"contracts/QuailFinance.sol\":6372:6375  pot */\n      dup5\n        /* \"contracts/QuailFinance.sol\":6372:6382  pot.amount */\n      0x00\n      add\n      sload\n        /* \"contracts/QuailFinance.sol\":6384:6387  pot */\n      dup6\n        /* \"contracts/QuailFinance.sol\":6384:6410  pot.rotationCycleInSeconds */\n      0x01\n      add\n      sload\n        /* \"contracts/QuailFinance.sol\":6412:6415  pot */\n      dup7\n        /* \"contracts/QuailFinance.sol\":6412:6433  pot.interestNumerator */\n      0x03\n      add\n      sload\n        /* \"contracts/QuailFinance.sol\":6435:6438  pot */\n      dup8\n        /* \"contracts/QuailFinance.sol\":6435:6458  pot.interestDenominator */\n      0x04\n      add\n      sload\n        /* \"contracts/QuailFinance.sol\":6460:6463  pot */\n      dup9\n        /* \"contracts/QuailFinance.sol\":6460:6479  pot.numParticipants */\n      0x05\n      add\n      sload\n        /* \"contracts/QuailFinance.sol\":6334:6480  ParticipantJoined(_potId, msg.sender, pot.amount, pot.rotationCycleInSeconds, pot.interestNumerator, pot.interestDenominator, pot.numParticipants) */\n      mload(0x40)\n      tag_197\n      swap8\n      swap7\n      swap6\n      swap5\n      swap4\n      swap3\n      swap2\n      swap1\n      tag_198\n      jump\t// in\n    tag_197:\n      mload(0x40)\n      dup1\n      swap2\n      sub\n      swap1\n      log1\n        /* \"contracts/QuailFinance.sol\":5723:6487  {... */\n      pop\n      pop\n        /* \"contracts/QuailFinance.sol\":5673:6487  function joinPot(uint256 _potId) external payable {... */\n      pop\n      jump\t// out\n        /* \"@openzeppelin/contracts-upgradeable/access/OwnableUpgradeable.sol\":2441:2585  function owner() public view virtual returns (address) {... */\n    tag_74:\n        /* \"@openzeppelin/contracts-upgradeable/access/OwnableUpgradeable.sol\":2487:2494  address */\n      0x00\n        /* \"@openzeppelin/contracts-upgradeable/access/OwnableUpgradeable.sol\":2506:2530  OwnableStorage storage $ */\n      dup1\n        /* \"@openzeppelin/contracts-upgradeable/access/OwnableUpgradeable.sol\":2533:2553  _getOwnableStorage() */\n      tag_200\n        /* \"@openzeppelin/contracts-upgradeable/access/OwnableUpgradeable.sol\":2533:2551  _getOwnableStorage */\n      tag_201\n        /* \"@openzeppelin/contracts-upgradeable/access/OwnableUpgradeable.sol\":2533:2553  _getOwnableStorage() */\n      jump\t// in\n    tag_200:\n        /* \"@openzeppelin/contracts-upgradeable/access/OwnableUpgradeable.sol\":2506:2553  OwnableStorage storage $ = _getOwnableStorage() */\n      swap1\n      pop\n        /* \"@openzeppelin/contracts-upgradeable/access/OwnableUpgradeable.sol\":2570:2571  $ */\n      dup1\n        /* \"@openzeppelin/contracts-upgradeable/access/OwnableUpgradeable.sol\":2570:2578  $._owner */\n      0x00\n      add\n      0x00\n      swap1\n      sload\n      swap1\n      0x0100\n      exp\n      swap1\n      div\n      0xffffffffffffffffffffffffffffffffffffffff\n      and\n        /* \"@openzeppelin/contracts-upgradeable/access/OwnableUpgradeable.sol\":2563:2578  return $._owner */\n      swap2\n      pop\n      pop\n        /* \"@openzeppelin/contracts-upgradeable/access/OwnableUpgradeable.sol\":2441:2585  function owner() public view virtual returns (address) {... */\n      swap1\n      jump\t// out\n        /* \"contracts/QuailFinance.sol\":592:673  IBlast public constant BLAST = IBlast(0x4300000000000000000000000000000000000002) */\n    tag_79:\n        /* \"contracts/QuailFinance.sol\":630:672  0x4300000000000000000000000000000000000002 */\n      0x4300000000000000000000000000000000000002\n        /* \"contracts/QuailFinance.sol\":592:673  IBlast public constant BLAST = IBlast(0x4300000000000000000000000000000000000002) */\n      dup2\n      jump\t// out\n        /* \"contracts/QuailFinance.sol\":679:706  uint256 public totalRevenue */\n    tag_84:\n      sload(0x02)\n      dup2\n      jump\t// out\n        /* \"contracts/QuailFinance.sol\":816:851  mapping(uint256 => Pot) public pots */\n    tag_89:\n      mstore(0x20, 0x05)\n      dup1\n      0x00\n      mstore\n      keccak256(0x00, 0x40)\n      0x00\n      swap2\n      pop\n      swap1\n      pop\n      dup1\n      0x00\n      add\n      sload\n      swap1\n      dup1\n      0x01\n      add\n      sload\n      swap1\n      dup1\n      0x02\n      add\n      sload\n      swap1\n      dup1\n      0x03\n      add\n      sload\n      swap1\n      dup1\n      0x04\n      add\n      sload\n      swap1\n      dup1\n      0x05\n      add\n      sload\n      swap1\n      dup1\n      0x06\n      add\n      sload\n      swap1\n      dup1\n      0x07\n      add\n      0x00\n      swap1\n      sload\n      swap1\n      0x0100\n      exp\n      swap1\n      div\n      0xffffffffffffffffffffffffffffffffffffffff\n      and\n      swap1\n      pop\n      dup9\n      jump\t// out\n        /* \"contracts/QuailFinance.sol\":4225:5591  function createPot(uint256 _rotationCycleInSeconds, uint256 _interestDenominator, uint256 _interestNumerator, uint256 _numParticipants, uint256 _amount) public{... */\n    tag_96:\n        /* \"contracts/QuailFinance.sol\":4428:4429  0 */\n      0x00\n        /* \"contracts/QuailFinance.sol\":4402:4425  _rotationCycleInSeconds */\n      dup6\n        /* \"contracts/QuailFinance.sol\":4402:4429  _rotationCycleInSeconds > 0 */\n      gt\n        /* \"contracts/QuailFinance.sol\":4394:4465  require(_rotationCycleInSeconds > 0, \"Rotation cycle must be positive\") */\n      tag_203\n      jumpi\n      mload(0x40)\n      0x08c379a000000000000000000000000000000000000000000000000000000000\n      dup2\n      mstore\n      0x04\n      add\n      tag_204\n      swap1\n      tag_205\n      jump\t// in\n    tag_204:\n      mload(0x40)\n      dup1\n      swap2\n      sub\n      swap1\n      revert\n    tag_203:\n        /* \"contracts/QuailFinance.sol\":4506:4507  0 */\n      0x00\n        /* \"contracts/QuailFinance.sol\":4483:4503  _interestDenominator */\n      dup5\n        /* \"contracts/QuailFinance.sol\":4483:4507  _interestDenominator > 0 */\n      gt\n        /* \"contracts/QuailFinance.sol\":4475:4549  require(_interestDenominator > 0, \"Interest denominator must be positive\") */\n      tag_206\n      jumpi\n      mload(0x40)\n      0x08c379a000000000000000000000000000000000000000000000000000000000\n      dup2\n      mstore\n      0x04\n      add\n      tag_207\n      swap1\n      tag_208\n      jump\t// in\n    tag_207:\n      mload(0x40)\n      dup1\n      swap2\n      sub\n      swap1\n      revert\n    tag_206:\n        /* \"contracts/QuailFinance.sol\":4589:4609  _interestDenominator */\n      dup4\n        /* \"contracts/QuailFinance.sol\":4567:4585  _interestNumerator */\n      dup4\n        /* \"contracts/QuailFinance.sol\":4567:4609  _interestNumerator <= _interestDenominator */\n      gt\n      iszero\n        /* \"contracts/QuailFinance.sol\":4559:4665  require(_interestNumerator <= _interestDenominator, \"Numerator must be less than or equal to denominator\") */\n      tag_209\n      jumpi\n      mload(0x40)\n      0x08c379a000000000000000000000000000000000000000000000000000000000\n      dup2\n      mstore\n      0x04\n      add\n      tag_210\n      swap1\n      tag_211\n      jump\t// in\n    tag_210:\n      mload(0x40)\n      dup1\n      swap2\n      sub\n      swap1\n      revert\n    tag_209:\n        /* \"contracts/QuailFinance.sol\":4675:4688  uint256 potId */\n      0x00\n        /* \"contracts/QuailFinance.sol\":4691:4700  nextPotId */\n      0x01\n      0x00\n        /* \"contracts/QuailFinance.sol\":4691:4702  nextPotId++ */\n      dup2\n      sload\n      dup1\n      swap3\n      swap2\n      swap1\n      tag_212\n      swap1\n      tag_213\n      jump\t// in\n    tag_212:\n      swap2\n      swap1\n      pop\n      sstore\n        /* \"contracts/QuailFinance.sol\":4675:4702  uint256 potId = nextPotId++ */\n      swap1\n      pop\n        /* \"contracts/QuailFinance.sol\":4712:4741  address[] memory participants */\n      0x60\n        /* \"contracts/QuailFinance.sol\":4751:4777  uint256 amountAfterRevenue */\n      0x00\n        /* \"contracts/QuailFinance.sol\":4780:4802  deductRevenue(_amount) */\n      tag_214\n        /* \"contracts/QuailFinance.sol\":4794:4801  _amount */\n      dup5\n        /* \"contracts/QuailFinance.sol\":4780:4793  deductRevenue */\n      tag_187\n        /* \"contracts/QuailFinance.sol\":4780:4802  deductRevenue(_amount) */\n      jump\t// in\n    tag_214:\n        /* \"contracts/QuailFinance.sol\":4751:4802  uint256 amountAfterRevenue = deductRevenue(_amount) */\n      swap1\n      pop\n        /* \"contracts/QuailFinance.sol\":4820:4829  usdbToken */\n      0x03\n      0x00\n      swap1\n      sload\n      swap1\n      0x0100\n      exp\n      swap1\n      div\n      0xffffffffffffffffffffffffffffffffffffffff\n      and\n        /* \"contracts/QuailFinance.sol\":4820:4842  usdbToken.transferFrom */\n      0xffffffffffffffffffffffffffffffffffffffff\n      and\n      0x23b872dd\n        /* \"contracts/QuailFinance.sol\":4843:4853  msg.sender */\n      caller\n        /* \"contracts/QuailFinance.sol\":4863:4867  this */\n      address\n        /* \"contracts/QuailFinance.sol\":4870:4888  amountAfterRevenue */\n      dup5\n        /* \"contracts/QuailFinance.sol\":4820:4889  usdbToken.transferFrom(msg.sender, address(this), amountAfterRevenue) */\n      mload(0x40)\n      dup5\n      0xffffffff\n      and\n      0xe0\n      shl\n      dup2\n      mstore\n      0x04\n      add\n      tag_215\n      swap4\n      swap3\n      swap2\n      swap1\n      tag_189\n      jump\t// in\n    tag_215:\n      0x20\n      mload(0x40)\n      dup1\n      dup4\n      sub\n      dup2\n      0x00\n      dup8\n      gas\n      call\n      iszero\n      dup1\n      iszero\n      tag_217\n      jumpi\n      returndatasize\n      0x00\n      dup1\n      returndatacopy\n      revert(0x00, returndatasize)\n    tag_217:\n      pop\n      pop\n      pop\n      pop\n      mload(0x40)\n      returndatasize\n      not(0x1f)\n      0x1f\n      dup3\n      add\n      and\n      dup3\n      add\n      dup1\n      0x40\n      mstore\n      pop\n      dup2\n      add\n      swap1\n      tag_218\n      swap2\n      swap1\n      tag_142\n      jump\t// in\n    tag_218:\n        /* \"contracts/QuailFinance.sol\":4812:4935  require(usdbToken.transferFrom(msg.sender, address(this), amountAfterRevenue), \"Creator should deposit the initial amount\") */\n      tag_219\n      jumpi\n      mload(0x40)\n      0x08c379a000000000000000000000000000000000000000000000000000000000\n      dup2\n      mstore\n      0x04\n      add\n      tag_220\n      swap1\n      tag_221\n      jump\t// in\n    tag_220:\n      mload(0x40)\n      dup1\n      swap2\n      sub\n      swap1\n      revert\n    tag_219:\n        /* \"contracts/QuailFinance.sol\":4983:5001  Pot storage newPot */\n      0x00\n        /* \"contracts/QuailFinance.sol\":5004:5008  pots */\n      0x05\n        /* \"contracts/QuailFinance.sol\":5004:5015  pots[potId] */\n      0x00\n        /* \"contracts/QuailFinance.sol\":5009:5014  potId */\n      dup6\n        /* \"contracts/QuailFinance.sol\":5004:5015  pots[potId] */\n      dup2\n      mstore\n      0x20\n      add\n      swap1\n      dup2\n      mstore\n      0x20\n      add\n      0x00\n      keccak256\n        /* \"contracts/QuailFinance.sol\":4983:5015  Pot storage newPot = pots[potId] */\n      swap1\n      pop\n        /* \"contracts/QuailFinance.sol\":5041:5048  _amount */\n      dup5\n        /* \"contracts/QuailFinance.sol\":5025:5031  newPot */\n      dup2\n        /* \"contracts/QuailFinance.sol\":5025:5038  newPot.amount */\n      0x00\n      add\n        /* \"contracts/QuailFinance.sol\":5025:5048  newPot.amount = _amount */\n      dup2\n      swap1\n      sstore\n      pop\n        /* \"contracts/QuailFinance.sol\":5078:5088  msg.sender */\n      caller\n        /* \"contracts/QuailFinance.sol\":5058:5064  newPot */\n      dup2\n        /* \"contracts/QuailFinance.sol\":5058:5075  newPot.potCreator */\n      0x07\n      add\n      0x00\n        /* \"contracts/QuailFinance.sol\":5058:5088  newPot.potCreator = msg.sender */\n      0x0100\n      exp\n      dup2\n      sload\n      dup2\n      0xffffffffffffffffffffffffffffffffffffffff\n      mul\n      not\n      and\n      swap1\n      dup4\n      0xffffffffffffffffffffffffffffffffffffffff\n      and\n      mul\n      or\n      swap1\n      sstore\n      pop\n        /* \"contracts/QuailFinance.sol\":5130:5153  _rotationCycleInSeconds */\n      dup9\n        /* \"contracts/QuailFinance.sol\":5098:5104  newPot */\n      dup2\n        /* \"contracts/QuailFinance.sol\":5098:5127  newPot.rotationCycleInSeconds */\n      0x01\n      add\n        /* \"contracts/QuailFinance.sol\":5098:5153  newPot.rotationCycleInSeconds = _rotationCycleInSeconds */\n      dup2\n      swap1\n      sstore\n      pop\n        /* \"contracts/QuailFinance.sol\":5190:5208  _interestNumerator */\n      dup7\n        /* \"contracts/QuailFinance.sol\":5163:5169  newPot */\n      dup2\n        /* \"contracts/QuailFinance.sol\":5163:5187  newPot.interestNumerator */\n      0x03\n      add\n        /* \"contracts/QuailFinance.sol\":5163:5208  newPot.interestNumerator = _interestNumerator */\n      dup2\n      swap1\n      sstore\n      pop\n        /* \"contracts/QuailFinance.sol\":5247:5267  _interestDenominator */\n      dup8\n        /* \"contracts/QuailFinance.sol\":5218:5224  newPot */\n      dup2\n        /* \"contracts/QuailFinance.sol\":5218:5244  newPot.interestDenominator */\n      0x04\n      add\n        /* \"contracts/QuailFinance.sol\":5218:5267  newPot.interestDenominator = _interestDenominator */\n      dup2\n      swap1\n      sstore\n      pop\n        /* \"contracts/QuailFinance.sol\":5303:5318  block.timestamp */\n      timestamp\n        /* \"contracts/QuailFinance.sol\":5277:5283  newPot */\n      dup2\n        /* \"contracts/QuailFinance.sol\":5277:5300  newPot.lastRotationTime */\n      0x02\n      add\n        /* \"contracts/QuailFinance.sol\":5277:5318  newPot.lastRotationTime = block.timestamp */\n      dup2\n      swap1\n      sstore\n      pop\n        /* \"contracts/QuailFinance.sol\":5353:5369  _numParticipants */\n      dup6\n        /* \"contracts/QuailFinance.sol\":5328:5334  newPot */\n      dup2\n        /* \"contracts/QuailFinance.sol\":5328:5350  newPot.numParticipants */\n      0x05\n      add\n        /* \"contracts/QuailFinance.sol\":5328:5369  newPot.numParticipants = _numParticipants */\n      dup2\n      swap1\n      sstore\n      pop\n        /* \"contracts/QuailFinance.sol\":5401:5402  0 */\n      0x00\n        /* \"contracts/QuailFinance.sol\":5379:5385  newPot */\n      dup2\n        /* \"contracts/QuailFinance.sol\":5379:5398  newPot.currentRound */\n      0x06\n      add\n        /* \"contracts/QuailFinance.sol\":5379:5402  newPot.currentRound = 0 */\n      dup2\n      swap1\n      sstore\n      pop\n        /* \"contracts/QuailFinance.sol\":5434:5446  participants */\n      dup3\n        /* \"contracts/QuailFinance.sol\":5412:5418  newPot */\n      dup2\n        /* \"contracts/QuailFinance.sol\":5412:5431  newPot.participants */\n      0x08\n      add\n        /* \"contracts/QuailFinance.sol\":5412:5446  newPot.participants = participants */\n      swap1\n      dup1\n      mload\n      swap1\n      0x20\n      add\n      swap1\n      tag_222\n      swap3\n      swap2\n      swap1\n      tag_223\n      jump\t// in\n    tag_222:\n      pop\n        /* \"contracts/QuailFinance.sol\":5462:5584  PotCreated(potId, msg.sender, _amount, _rotationCycleInSeconds, _interestNumerator, _interestDenominator,_numParticipants) */\n      0xbf5a50c239a5f6ef5cf2dcc347e3402e3b8ca1424a9e01c38ec78d2406cbd8e0\n        /* \"contracts/QuailFinance.sol\":5473:5478  potId */\n      dup5\n        /* \"contracts/QuailFinance.sol\":5480:5490  msg.sender */\n      caller\n        /* \"contracts/QuailFinance.sol\":5492:5499  _amount */\n      dup8\n        /* \"contracts/QuailFinance.sol\":5501:5524  _rotationCycleInSeconds */\n      dup13\n        /* \"contracts/QuailFinance.sol\":5526:5544  _interestNumerator */\n      dup12\n        /* \"contracts/QuailFinance.sol\":5546:5566  _interestDenominator */\n      dup14\n        /* \"contracts/QuailFinance.sol\":5567:5583  _numParticipants */\n      dup13\n        /* \"contracts/QuailFinance.sol\":5462:5584  PotCreated(potId, msg.sender, _amount, _rotationCycleInSeconds, _interestNumerator, _interestDenominator,_numParticipants) */\n      mload(0x40)\n      tag_224\n      swap8\n      swap7\n      swap6\n      swap5\n      swap4\n      swap3\n      swap2\n      swap1\n      tag_198\n      jump\t// in\n    tag_224:\n      mload(0x40)\n      dup1\n      swap2\n      sub\n      swap1\n      log1\n        /* \"contracts/QuailFinance.sol\":4384:5591  {... */\n      pop\n      pop\n      pop\n      pop\n        /* \"contracts/QuailFinance.sol\":4225:5591  function createPot(uint256 _rotationCycleInSeconds, uint256 _interestDenominator, uint256 _interestNumerator, uint256 _numParticipants, uint256 _amount) public{... */\n      pop\n      pop\n      pop\n      pop\n      pop\n      jump\t// out\n        /* \"contracts/QuailFinance.sol\":6667:7714  function rotateLiquidity(uint256 _potId) public {... */\n    tag_100:\n        /* \"contracts/QuailFinance.sol\":6760:6770  msg.sender */\n      caller\n        /* \"contracts/QuailFinance.sol\":6733:6770  pots[_potId].potCreator == msg.sender */\n      0xffffffffffffffffffffffffffffffffffffffff\n      and\n        /* \"contracts/QuailFinance.sol\":6733:6737  pots */\n      0x05\n        /* \"contracts/QuailFinance.sol\":6733:6745  pots[_potId] */\n      0x00\n        /* \"contracts/QuailFinance.sol\":6738:6744  _potId */\n      dup4\n        /* \"contracts/QuailFinance.sol\":6733:6745  pots[_potId] */\n      dup2\n      mstore\n      0x20\n      add\n      swap1\n      dup2\n      mstore\n      0x20\n      add\n      0x00\n      keccak256\n        /* \"contracts/QuailFinance.sol\":6733:6756  pots[_potId].potCreator */\n      0x07\n      add\n      0x00\n      swap1\n      sload\n      swap1\n      0x0100\n      exp\n      swap1\n      div\n      0xffffffffffffffffffffffffffffffffffffffff\n      and\n        /* \"contracts/QuailFinance.sol\":6733:6770  pots[_potId].potCreator == msg.sender */\n      0xffffffffffffffffffffffffffffffffffffffff\n      and\n      eq\n        /* \"contracts/QuailFinance.sol\":6725:6817  require(pots[_potId].potCreator == msg.sender, \"Only the pot creator can reveal the winner\") */\n      tag_226\n      jumpi\n      mload(0x40)\n      0x08c379a000000000000000000000000000000000000000000000000000000000\n      dup2\n      mstore\n      0x04\n      add\n      tag_227\n      swap1\n      tag_228\n      jump\t// in\n    tag_227:\n      mload(0x40)\n      dup1\n      swap2\n      sub\n      swap1\n      revert\n    tag_226:\n        /* \"contracts/QuailFinance.sol\":6827:6842  Pot storage pot */\n      0x00\n        /* \"contracts/QuailFinance.sol\":6845:6849  pots */\n      0x05\n        /* \"contracts/QuailFinance.sol\":6845:6857  pots[_potId] */\n      0x00\n        /* \"contracts/QuailFinance.sol\":6850:6856  _potId */\n      dup4\n        /* \"contracts/QuailFinance.sol\":6845:6857  pots[_potId] */\n      dup2\n      mstore\n      0x20\n      add\n      swap1\n      dup2\n      mstore\n      0x20\n      add\n      0x00\n      keccak256\n        /* \"contracts/QuailFinance.sol\":6827:6857  Pot storage pot = pots[_potId] */\n      swap1\n      pop\n        /* \"contracts/QuailFinance.sol\":6917:6920  pot */\n      dup1\n        /* \"contracts/QuailFinance.sol\":6917:6943  pot.rotationCycleInSeconds */\n      0x01\n      add\n      sload\n        /* \"contracts/QuailFinance.sol\":6894:6897  pot */\n      dup2\n        /* \"contracts/QuailFinance.sol\":6894:6914  pot.lastRotationTime */\n      0x02\n      add\n      sload\n        /* \"contracts/QuailFinance.sol\":6894:6943  pot.lastRotationTime + pot.rotationCycleInSeconds */\n      tag_229\n      swap2\n      swap1\n      tag_230\n      jump\t// in\n    tag_229:\n        /* \"contracts/QuailFinance.sol\":6875:6890  block.timestamp */\n      timestamp\n        /* \"contracts/QuailFinance.sol\":6875:6943  block.timestamp >= pot.lastRotationTime + pot.rotationCycleInSeconds */\n      lt\n      iszero\n        /* \"contracts/QuailFinance.sol\":6867:6973  require(block.timestamp >= pot.lastRotationTime + pot.rotationCycleInSeconds, \"Next rotation not yet due\") */\n      tag_231\n      jumpi\n      mload(0x40)\n      0x08c379a000000000000000000000000000000000000000000000000000000000\n      dup2\n      mstore\n      0x04\n      add\n      tag_232\n      swap1\n      tag_233\n      jump\t// in\n    tag_232:\n      mload(0x40)\n      dup1\n      swap2\n      sub\n      swap1\n      revert\n    tag_231:\n        /* \"contracts/QuailFinance.sol\":6983:7002  uint256 winnerIndex */\n      0x00\n        /* \"contracts/QuailFinance.sol\":7025:7028  pot */\n      dup2\n        /* \"contracts/QuailFinance.sol\":7025:7044  pot.numParticipants */\n      0x05\n      add\n      sload\n        /* \"contracts/QuailFinance.sol\":7006:7009  pot */\n      dup3\n        /* \"contracts/QuailFinance.sol\":7006:7022  pot.currentRound */\n      0x06\n      add\n      sload\n        /* \"contracts/QuailFinance.sol\":7006:7044  pot.currentRound % pot.numParticipants */\n      tag_234\n      swap2\n      swap1\n      tag_235\n      jump\t// in\n    tag_234:\n        /* \"contracts/QuailFinance.sol\":6983:7045  uint256 winnerIndex = (pot.currentRound % pot.numParticipants) */\n      swap1\n      pop\n        /* \"contracts/QuailFinance.sol\":7098:7112  address winner */\n      0x00\n        /* \"contracts/QuailFinance.sol\":7115:7118  pot */\n      dup3\n        /* \"contracts/QuailFinance.sol\":7115:7131  pot.participants */\n      0x08\n      add\n        /* \"contracts/QuailFinance.sol\":7132:7143  winnerIndex */\n      dup3\n        /* \"contracts/QuailFinance.sol\":7115:7144  pot.participants[winnerIndex] */\n      dup2\n      sload\n      dup2\n      lt\n      tag_236\n      jumpi\n      tag_237\n      tag_238\n      jump\t// in\n    tag_237:\n    tag_236:\n      swap1\n      0x00\n      mstore\n      keccak256(0x00, 0x20)\n      add\n      0x00\n      swap1\n      sload\n      swap1\n      0x0100\n      exp\n      swap1\n      div\n      0xffffffffffffffffffffffffffffffffffffffff\n      and\n        /* \"contracts/QuailFinance.sol\":7098:7144  address winner = pot.participants[winnerIndex] */\n      swap1\n      pop\n        /* \"contracts/QuailFinance.sol\":7258:7280  uint256 totalPotAmount */\n      0x00\n        /* \"contracts/QuailFinance.sol\":7309:7312  pot */\n      dup4\n        /* \"contracts/QuailFinance.sol\":7309:7319  pot.amount */\n      0x00\n      add\n      sload\n        /* \"contracts/QuailFinance.sol\":7283:7286  pot */\n      dup5\n        /* \"contracts/QuailFinance.sol\":7283:7299  pot.participants */\n      0x08\n      add\n        /* \"contracts/QuailFinance.sol\":7283:7306  pot.participants.length */\n      dup1\n      sload\n      swap1\n      pop\n        /* \"contracts/QuailFinance.sol\":7283:7319  pot.participants.length * pot.amount */\n      tag_240\n      swap2\n      swap1\n      tag_241\n      jump\t// in\n    tag_240:\n        /* \"contracts/QuailFinance.sol\":7258:7319  uint256 totalPotAmount = pot.participants.length * pot.amount */\n      swap1\n      pop\n        /* \"contracts/QuailFinance.sol\":7329:7359  uint256 totalPotAmountInterest */\n      0x00\n        /* \"contracts/QuailFinance.sol\":7362:7402  calculateInterest(_potId,totalPotAmount) */\n      tag_242\n        /* \"contracts/QuailFinance.sol\":7380:7386  _potId */\n      dup7\n        /* \"contracts/QuailFinance.sol\":7387:7401  totalPotAmount */\n      dup4\n        /* \"contracts/QuailFinance.sol\":7362:7379  calculateInterest */\n      tag_105\n        /* \"contracts/QuailFinance.sol\":7362:7402  calculateInterest(_potId,totalPotAmount) */\n      jump\t// in\n    tag_242:\n        /* \"contracts/QuailFinance.sol\":7329:7402  uint256 totalPotAmountInterest = calculateInterest(_potId,totalPotAmount) */\n      swap1\n      pop\n        /* \"contracts/QuailFinance.sol\":7420:7429  usdbToken */\n      0x03\n      0x00\n      swap1\n      sload\n      swap1\n      0x0100\n      exp\n      swap1\n      div\n      0xffffffffffffffffffffffffffffffffffffffff\n      and\n        /* \"contracts/QuailFinance.sol\":7420:7438  usdbToken.transfer */\n      0xffffffffffffffffffffffffffffffffffffffff\n      and\n      0xa9059cbb\n        /* \"contracts/QuailFinance.sol\":7439:7449  msg.sender */\n      caller\n        /* \"contracts/QuailFinance.sol\":7466:7488  totalPotAmountInterest */\n      dup4\n        /* \"contracts/QuailFinance.sol\":7451:7465  totalPotAmount */\n      dup6\n        /* \"contracts/QuailFinance.sol\":7451:7488  totalPotAmount-totalPotAmountInterest */\n      tag_243\n      swap2\n      swap1\n      tag_137\n      jump\t// in\n    tag_243:\n        /* \"contracts/QuailFinance.sol\":7420:7489  usdbToken.transfer(msg.sender, totalPotAmount-totalPotAmountInterest) */\n      mload(0x40)\n      dup4\n      0xffffffff\n      and\n      0xe0\n      shl\n      dup2\n      mstore\n      0x04\n      add\n      tag_244\n      swap3\n      swap2\n      swap1\n      tag_121\n      jump\t// in\n    tag_244:\n      0x20\n      mload(0x40)\n      dup1\n      dup4\n      sub\n      dup2\n      0x00\n      dup8\n      gas\n      call\n      iszero\n      dup1\n      iszero\n      tag_246\n      jumpi\n      returndatasize\n      0x00\n      dup1\n      returndatacopy\n      revert(0x00, returndatasize)\n    tag_246:\n      pop\n      pop\n      pop\n      pop\n      mload(0x40)\n      returndatasize\n      not(0x1f)\n      0x1f\n      dup3\n      add\n      and\n      dup3\n      add\n      dup1\n      0x40\n      mstore\n      pop\n      dup2\n      add\n      swap1\n      tag_247\n      swap2\n      swap1\n      tag_142\n      jump\t// in\n    tag_247:\n        /* \"contracts/QuailFinance.sol\":7412:7515  require(usdbToken.transfer(msg.sender, totalPotAmount-totalPotAmountInterest), \"Yield transfer failed\") */\n      tag_248\n      jumpi\n      mload(0x40)\n      0x08c379a000000000000000000000000000000000000000000000000000000000\n      dup2\n      mstore\n      0x04\n      add\n      tag_249\n      swap1\n      tag_145\n      jump\t// in\n    tag_249:\n      mload(0x40)\n      dup1\n      swap2\n      sub\n      swap1\n      revert\n    tag_248:\n        /* \"contracts/QuailFinance.sol\":7548:7563  block.timestamp */\n      timestamp\n        /* \"contracts/QuailFinance.sol\":7525:7528  pot */\n      dup6\n        /* \"contracts/QuailFinance.sol\":7525:7545  pot.lastRotationTime */\n      0x02\n      add\n        /* \"contracts/QuailFinance.sol\":7525:7563  pot.lastRotationTime = block.timestamp */\n      dup2\n      swap1\n      sstore\n      pop\n        /* \"contracts/QuailFinance.sol\":7578:7629  RotationCompleted(_potId, winner, pot.currentRound) */\n      0x35cb3811461cb824b245820eee97ab50ee1cc609f2bdd3bb10f5f0010184a7d3\n        /* \"contracts/QuailFinance.sol\":7596:7602  _potId */\n      dup7\n        /* \"contracts/QuailFinance.sol\":7604:7610  winner */\n      dup5\n        /* \"contracts/QuailFinance.sol\":7612:7615  pot */\n      dup8\n        /* \"contracts/QuailFinance.sol\":7612:7628  pot.currentRound */\n      0x06\n      add\n      sload\n        /* \"contracts/QuailFinance.sol\":7578:7629  RotationCompleted(_potId, winner, pot.currentRound) */\n      mload(0x40)\n      tag_250\n      swap4\n      swap3\n      swap2\n      swap1\n      tag_251\n      jump\t// in\n    tag_250:\n      mload(0x40)\n      dup1\n      swap2\n      sub\n      swap1\n      log1\n        /* \"contracts/QuailFinance.sol\":7689:7692  pot */\n      dup5\n        /* \"contracts/QuailFinance.sol\":7689:7705  pot.currentRound */\n      0x06\n      add\n      0x00\n        /* \"contracts/QuailFinance.sol\":7689:7707  pot.currentRound++ */\n      dup2\n      sload\n      dup1\n      swap3\n      swap2\n      swap1\n      tag_252\n      swap1\n      tag_213\n      jump\t// in\n    tag_252:\n      swap2\n      swap1\n      pop\n      sstore\n      pop\n        /* \"contracts/QuailFinance.sol\":6715:7714  {... */\n      pop\n      pop\n      pop\n      pop\n      pop\n        /* \"contracts/QuailFinance.sol\":6667:7714  function rotateLiquidity(uint256 _potId) public {... */\n      pop\n      jump\t// out\n        /* \"contracts/QuailFinance.sol\":7947:8158  function calculateInterest(uint256 _potId, uint256 _amount) public view returns (uint256) {... */\n    tag_105:\n        /* \"contracts/QuailFinance.sol\":8028:8035  uint256 */\n      0x00\n        /* \"contracts/QuailFinance.sol\":8047:8062  Pot storage pot */\n      dup1\n        /* \"contracts/QuailFinance.sol\":8065:8069  pots */\n      0x05\n        /* \"contracts/QuailFinance.sol\":8065:8077  pots[_potId] */\n      0x00\n        /* \"contracts/QuailFinance.sol\":8070:8076  _potId */\n      dup6\n        /* \"contracts/QuailFinance.sol\":8065:8077  pots[_potId] */\n      dup2\n      mstore\n      0x20\n      add\n      swap1\n      dup2\n      mstore\n      0x20\n      add\n      0x00\n      keccak256\n        /* \"contracts/QuailFinance.sol\":8047:8077  Pot storage pot = pots[_potId] */\n      swap1\n      pop\n        /* \"contracts/QuailFinance.sol\":8128:8131  pot */\n      dup1\n        /* \"contracts/QuailFinance.sol\":8128:8151  pot.interestDenominator */\n      0x04\n      add\n      sload\n        /* \"contracts/QuailFinance.sol\":8104:8107  pot */\n      dup2\n        /* \"contracts/QuailFinance.sol\":8104:8125  pot.interestNumerator */\n      0x03\n      add\n      sload\n        /* \"contracts/QuailFinance.sol\":8094:8101  _amount */\n      dup5\n        /* \"contracts/QuailFinance.sol\":8094:8125  _amount * pot.interestNumerator */\n      tag_254\n      swap2\n      swap1\n      tag_241\n      jump\t// in\n    tag_254:\n        /* \"contracts/QuailFinance.sol\":8094:8151  _amount * pot.interestNumerator / pot.interestDenominator */\n      tag_255\n      swap2\n      swap1\n      tag_256\n      jump\t// in\n    tag_255:\n        /* \"contracts/QuailFinance.sol\":8087:8151  return _amount * pot.interestNumerator / pot.interestDenominator */\n      swap2\n      pop\n      pop\n        /* \"contracts/QuailFinance.sol\":7947:8158  function calculateInterest(uint256 _potId, uint256 _amount) public view returns (uint256) {... */\n      swap3\n      swap2\n      pop\n      pop\n      jump\t// out\n        /* \"@openzeppelin/contracts-upgradeable/access/OwnableUpgradeable.sol\":3405:3620  function transferOwnership(address newOwner) public virtual onlyOwner {... */\n    tag_110:\n        /* \"@openzeppelin/contracts-upgradeable/access/OwnableUpgradeable.sol\":2334:2347  _checkOwner() */\n      tag_258\n        /* \"@openzeppelin/contracts-upgradeable/access/OwnableUpgradeable.sol\":2334:2345  _checkOwner */\n      tag_113\n        /* \"@openzeppelin/contracts-upgradeable/access/OwnableUpgradeable.sol\":2334:2347  _checkOwner() */\n      jump\t// in\n    tag_258:\n        /* \"@openzeppelin/contracts-upgradeable/access/OwnableUpgradeable.sol\":3509:3510  0 */\n      0x00\n        /* \"@openzeppelin/contracts-upgradeable/access/OwnableUpgradeable.sol\":3489:3511  newOwner == address(0) */\n      0xffffffffffffffffffffffffffffffffffffffff\n      and\n        /* \"@openzeppelin/contracts-upgradeable/access/OwnableUpgradeable.sol\":3489:3497  newOwner */\n      dup2\n        /* \"@openzeppelin/contracts-upgradeable/access/OwnableUpgradeable.sol\":3489:3511  newOwner == address(0) */\n      0xffffffffffffffffffffffffffffffffffffffff\n      and\n      sub\n        /* \"@openzeppelin/contracts-upgradeable/access/OwnableUpgradeable.sol\":3485:3576  if (newOwner == address(0)) {... */\n      tag_260\n      jumpi\n        /* \"@openzeppelin/contracts-upgradeable/access/OwnableUpgradeable.sol\":3562:3563  0 */\n      0x00\n        /* \"@openzeppelin/contracts-upgradeable/access/OwnableUpgradeable.sol\":3534:3565  OwnableInvalidOwner(address(0)) */\n      mload(0x40)\n      0x1e4fbdf700000000000000000000000000000000000000000000000000000000\n      dup2\n      mstore\n      0x04\n      add\n      tag_261\n      swap2\n      swap1\n      tag_76\n      jump\t// in\n    tag_261:\n      mload(0x40)\n      dup1\n      swap2\n      sub\n      swap1\n      revert\n        /* \"@openzeppelin/contracts-upgradeable/access/OwnableUpgradeable.sol\":3485:3576  if (newOwner == address(0)) {... */\n    tag_260:\n        /* \"@openzeppelin/contracts-upgradeable/access/OwnableUpgradeable.sol\":3585:3613  _transferOwnership(newOwner) */\n      tag_262\n        /* \"@openzeppelin/contracts-upgradeable/access/OwnableUpgradeable.sol\":3604:3612  newOwner */\n      dup2\n        /* \"@openzeppelin/contracts-upgradeable/access/OwnableUpgradeable.sol\":3585:3603  _transferOwnership */\n      tag_150\n        /* \"@openzeppelin/contracts-upgradeable/access/OwnableUpgradeable.sol\":3585:3613  _transferOwnership(newOwner) */\n      jump\t// in\n    tag_262:\n        /* \"@openzeppelin/contracts-upgradeable/access/OwnableUpgradeable.sol\":3405:3620  function transferOwnership(address newOwner) public virtual onlyOwner {... */\n      pop\n      jump\t// out\n        /* \"@openzeppelin/contracts-upgradeable/access/OwnableUpgradeable.sol\":2658:2820  function _checkOwner() internal view virtual {... */\n    tag_113:\n        /* \"@openzeppelin/contracts-upgradeable/access/OwnableUpgradeable.sol\":2728:2740  _msgSender() */\n      tag_264\n        /* \"@openzeppelin/contracts-upgradeable/access/OwnableUpgradeable.sol\":2728:2738  _msgSender */\n      tag_265\n        /* \"@openzeppelin/contracts-upgradeable/access/OwnableUpgradeable.sol\":2728:2740  _msgSender() */\n      jump\t// in\n    tag_264:\n        /* \"@openzeppelin/contracts-upgradeable/access/OwnableUpgradeable.sol\":2717:2740  owner() != _msgSender() */\n      0xffffffffffffffffffffffffffffffffffffffff\n      and\n        /* \"@openzeppelin/contracts-upgradeable/access/OwnableUpgradeable.sol\":2717:2724  owner() */\n      tag_266\n        /* \"@openzeppelin/contracts-upgradeable/access/OwnableUpgradeable.sol\":2717:2722  owner */\n      tag_74\n        /* \"@openzeppelin/contracts-upgradeable/access/OwnableUpgradeable.sol\":2717:2724  owner() */\n      jump\t// in\n    tag_266:\n        /* \"@openzeppelin/contracts-upgradeable/access/OwnableUpgradeable.sol\":2717:2740  owner() != _msgSender() */\n      0xffffffffffffffffffffffffffffffffffffffff\n      and\n      eq\n        /* \"@openzeppelin/contracts-upgradeable/access/OwnableUpgradeable.sol\":2713:2814  if (owner() != _msgSender()) {... */\n      tag_267\n      jumpi\n        /* \"@openzeppelin/contracts-upgradeable/access/OwnableUpgradeable.sol\":2790:2802  _msgSender() */\n      tag_268\n        /* \"@openzeppelin/contracts-upgradeable/access/OwnableUpgradeable.sol\":2790:2800  _msgSender */\n      tag_265\n        /* \"@openzeppelin/contracts-upgradeable/access/OwnableUpgradeable.sol\":2790:2802  _msgSender() */\n      jump\t// in\n    tag_268:\n        /* \"@openzeppelin/contracts-upgradeable/access/OwnableUpgradeable.sol\":2763:2803  OwnableUnauthorizedAccount(_msgSender()) */\n      mload(0x40)\n      0x118cdaa700000000000000000000000000000000000000000000000000000000\n      dup2\n      mstore\n      0x04\n      add\n      tag_269\n      swap2\n      swap1\n      tag_76\n      jump\t// in\n    tag_269:\n      mload(0x40)\n      dup1\n      swap2\n      sub\n      swap1\n      revert\n        /* \"@openzeppelin/contracts-upgradeable/access/OwnableUpgradeable.sol\":2713:2814  if (owner() != _msgSender()) {... */\n    tag_267:\n        /* \"@openzeppelin/contracts-upgradeable/access/OwnableUpgradeable.sol\":2658:2820  function _checkOwner() internal view virtual {... */\n      jump\t// out\n        /* \"@openzeppelin/contracts/utils/cryptography/MerkleProof.sol\":1265:1419  function verify(bytes32[] memory proof, bytes32 root, bytes32 leaf) internal pure returns (bool) {... */\n    tag_129:\n        /* \"@openzeppelin/contracts/utils/cryptography/MerkleProof.sol\":1356:1360  bool */\n      0x00\n        /* \"@openzeppelin/contracts/utils/cryptography/MerkleProof.sol\":1408:1412  root */\n      dup3\n        /* \"@openzeppelin/contracts/utils/cryptography/MerkleProof.sol\":1379:1404  processProof(proof, leaf) */\n      tag_271\n        /* \"@openzeppelin/contracts/utils/cryptography/MerkleProof.sol\":1392:1397  proof */\n      dup6\n        /* \"@openzeppelin/contracts/utils/cryptography/MerkleProof.sol\":1399:1403  leaf */\n      dup5\n        /* \"@openzeppelin/contracts/utils/cryptography/MerkleProof.sol\":1379:1391  processProof */\n      tag_272\n        /* \"@openzeppelin/contracts/utils/cryptography/MerkleProof.sol\":1379:1404  processProof(proof, leaf) */\n      jump\t// in\n    tag_271:\n        /* \"@openzeppelin/contracts/utils/cryptography/MerkleProof.sol\":1379:1412  processProof(proof, leaf) == root */\n      eq\n        /* \"@openzeppelin/contracts/utils/cryptography/MerkleProof.sol\":1372:1412  return processProof(proof, leaf) == root */\n      swap1\n      pop\n        /* \"@openzeppelin/contracts/utils/cryptography/MerkleProof.sol\":1265:1419  function verify(bytes32[] memory proof, bytes32 root, bytes32 leaf) internal pure returns (bool) {... */\n      swap4\n      swap3\n      pop\n      pop\n      pop\n      jump\t// out\n        /* \"@openzeppelin/contracts-upgradeable/access/OwnableUpgradeable.sol\":3774:4022  function _transferOwnership(address newOwner) internal virtual {... */\n    tag_150:\n        /* \"@openzeppelin/contracts-upgradeable/access/OwnableUpgradeable.sol\":3847:3871  OwnableStorage storage $ */\n      0x00\n        /* \"@openzeppelin/contracts-upgradeable/access/OwnableUpgradeable.sol\":3874:3894  _getOwnableStorage() */\n      tag_274\n        /* \"@openzeppelin/contracts-upgradeable/access/OwnableUpgradeable.sol\":3874:3892  _getOwnableStorage */\n      tag_201\n        /* \"@openzeppelin/contracts-upgradeable/access/OwnableUpgradeable.sol\":3874:3894  _getOwnableStorage() */\n      jump\t// in\n    tag_274:\n        /* \"@openzeppelin/contracts-upgradeable/access/OwnableUpgradeable.sol\":3847:3894  OwnableStorage storage $ = _getOwnableStorage() */\n      swap1\n      pop\n        /* \"@openzeppelin/contracts-upgradeable/access/OwnableUpgradeable.sol\":3904:3920  address oldOwner */\n      0x00\n        /* \"@openzeppelin/contracts-upgradeable/access/OwnableUpgradeable.sol\":3923:3924  $ */\n      dup2\n        /* \"@openzeppelin/contracts-upgradeable/access/OwnableUpgradeable.sol\":3923:3931  $._owner */\n      0x00\n      add\n      0x00\n      swap1\n      sload\n      swap1\n      0x0100\n      exp\n      swap1\n      div\n      0xffffffffffffffffffffffffffffffffffffffff\n      and\n        /* \"@openzeppelin/contracts-upgradeable/access/OwnableUpgradeable.sol\":3904:3931  address oldOwner = $._owner */\n      swap1\n      pop\n        /* \"@openzeppelin/contracts-upgradeable/access/OwnableUpgradeable.sol\":3952:3960  newOwner */\n      dup3\n        /* \"@openzeppelin/contracts-upgradeable/access/OwnableUpgradeable.sol\":3941:3942  $ */\n      dup3\n        /* \"@openzeppelin/contracts-upgradeable/access/OwnableUpgradeable.sol\":3941:3949  $._owner */\n      0x00\n      add\n      0x00\n        /* \"@openzeppelin/contracts-upgradeable/access/OwnableUpgradeable.sol\":3941:3960  $._owner = newOwner */\n      0x0100\n      exp\n      dup2\n      sload\n      dup2\n      0xffffffffffffffffffffffffffffffffffffffff\n      mul\n      not\n      and\n      swap1\n      dup4\n      0xffffffffffffffffffffffffffffffffffffffff\n      and\n      mul\n      or\n      swap1\n      sstore\n      pop\n        /* \"@openzeppelin/contracts-upgradeable/access/OwnableUpgradeable.sol\":4006:4014  newOwner */\n      dup3\n        /* \"@openzeppelin/contracts-upgradeable/access/OwnableUpgradeable.sol\":3975:4015  OwnershipTransferred(oldOwner, newOwner) */\n      0xffffffffffffffffffffffffffffffffffffffff\n      and\n        /* \"@openzeppelin/contracts-upgradeable/access/OwnableUpgradeable.sol\":3996:4004  oldOwner */\n      dup2\n        /* \"@openzeppelin/contracts-upgradeable/access/OwnableUpgradeable.sol\":3975:4015  OwnershipTransferred(oldOwner, newOwner) */\n      0xffffffffffffffffffffffffffffffffffffffff\n      and\n      0x8be0079c531659141344cd1fd0a4f28419497f9722a3daafe3b4186f6b6457e0\n      mload(0x40)\n      mload(0x40)\n      dup1\n      swap2\n      sub\n      swap1\n      log3\n        /* \"@openzeppelin/contracts-upgradeable/access/OwnableUpgradeable.sol\":3837:4022  {... */\n      pop\n      pop\n        /* \"@openzeppelin/contracts-upgradeable/access/OwnableUpgradeable.sol\":3774:4022  function _transferOwnership(address newOwner) internal virtual {... */\n      pop\n      jump\t// out\n        /* \"@openzeppelin/contracts-upgradeable/proxy/utils/Initializable.sol\":8737:8907  function _getInitializableStorage() private pure returns (InitializableStorage storage $) {... */\n    tag_164:\n        /* \"@openzeppelin/contracts-upgradeable/proxy/utils/Initializable.sol\":8795:8825  InitializableStorage storage $ */\n      0x00\n        /* \"@openzeppelin/contracts-upgradeable/proxy/utils/Initializable.sol\":8870:8891  INITIALIZABLE_STORAGE */\n      0xf0c57e16840df040f15088dc2f81fe391c3923bec73e23a9662efc9c229c6a00\n        /* \"@openzeppelin/contracts-upgradeable/proxy/utils/Initializable.sol\":8860:8891  $.slot := INITIALIZABLE_STORAGE */\n      swap1\n      pop\n        /* \"@openzeppelin/contracts-upgradeable/proxy/utils/Initializable.sol\":8737:8907  function _getInitializableStorage() private pure returns (InitializableStorage storage $) {... */\n      swap1\n      jump\t// out\n        /* \"@openzeppelin/contracts-upgradeable/access/OwnableUpgradeable.sol\":1847:1974  function __Ownable_init(address initialOwner) internal onlyInitializing {... */\n    tag_172:\n        /* \"@openzeppelin/contracts-upgradeable/proxy/utils/Initializable.sol\":6931:6951  _checkInitializing() */\n      tag_277\n        /* \"@openzeppelin/contracts-upgradeable/proxy/utils/Initializable.sol\":6931:6949  _checkInitializing */\n      tag_278\n        /* \"@openzeppelin/contracts-upgradeable/proxy/utils/Initializable.sol\":6931:6951  _checkInitializing() */\n      jump\t// in\n    tag_277:\n        /* \"@openzeppelin/contracts-upgradeable/access/OwnableUpgradeable.sol\":1929:1967  __Ownable_init_unchained(initialOwner) */\n      tag_280\n        /* \"@openzeppelin/contracts-upgradeable/access/OwnableUpgradeable.sol\":1954:1966  initialOwner */\n      dup2\n        /* \"@openzeppelin/contracts-upgradeable/access/OwnableUpgradeable.sol\":1929:1953  __Ownable_init_unchained */\n      tag_281\n        /* \"@openzeppelin/contracts-upgradeable/access/OwnableUpgradeable.sol\":1929:1967  __Ownable_init_unchained(initialOwner) */\n      jump\t// in\n    tag_280:\n        /* \"@openzeppelin/contracts-upgradeable/access/OwnableUpgradeable.sol\":1847:1974  function __Ownable_init(address initialOwner) internal onlyInitializing {... */\n      pop\n      jump\t// out\n        /* \"contracts/QuailFinance.sol\":8164:8388  function deductRevenue(uint256 _amount) private returns (uint256 netAmount) {... */\n    tag_187:\n        /* \"contracts/QuailFinance.sol\":8221:8238  uint256 netAmount */\n      0x00\n        /* \"contracts/QuailFinance.sol\":8250:8265  uint256 revenue */\n      dup1\n        /* \"contracts/QuailFinance.sol\":8278:8281  100 */\n      0x64\n        /* \"contracts/QuailFinance.sol\":8268:8275  _amount */\n      dup4\n        /* \"contracts/QuailFinance.sol\":8268:8281  _amount / 100 */\n      tag_283\n      swap2\n      swap1\n      tag_256\n      jump\t// in\n    tag_283:\n        /* \"contracts/QuailFinance.sol\":8250:8281  uint256 revenue = _amount / 100 */\n      swap1\n      pop\n        /* \"contracts/QuailFinance.sol\":8313:8320  revenue */\n      dup1\n        /* \"contracts/QuailFinance.sol\":8303:8310  _amount */\n      dup4\n        /* \"contracts/QuailFinance.sol\":8303:8320  _amount - revenue */\n      tag_284\n      swap2\n      swap1\n      tag_137\n      jump\t// in\n    tag_284:\n        /* \"contracts/QuailFinance.sol\":8291:8320  netAmount = _amount - revenue */\n      swap2\n      pop\n        /* \"contracts/QuailFinance.sol\":8346:8353  revenue */\n      dup1\n        /* \"contracts/QuailFinance.sol\":8330:8342  totalRevenue */\n      0x02\n      0x00\n        /* \"contracts/QuailFinance.sol\":8330:8353  totalRevenue += revenue */\n      dup3\n      dup3\n      sload\n      tag_285\n      swap2\n      swap1\n      tag_230\n      jump\t// in\n    tag_285:\n      swap3\n      pop\n      pop\n      dup2\n      swap1\n      sstore\n      pop\n        /* \"contracts/QuailFinance.sol\":8363:8381  return (netAmount) */\n      pop\n        /* \"contracts/QuailFinance.sol\":8164:8388  function deductRevenue(uint256 _amount) private returns (uint256 netAmount) {... */\n      swap2\n      swap1\n      pop\n      jump\t// out\n        /* \"@openzeppelin/contracts-upgradeable/access/OwnableUpgradeable.sol\":1192:1351  function _getOwnableStorage() private pure returns (OwnableStorage storage $) {... */\n    tag_201:\n        /* \"@openzeppelin/contracts-upgradeable/access/OwnableUpgradeable.sol\":1244:1268  OwnableStorage storage $ */\n      0x00\n        /* \"@openzeppelin/contracts-upgradeable/access/OwnableUpgradeable.sol\":1313:1335  OwnableStorageLocation */\n      0x9016d09d72d40fdae2fd8ceac6b6234c7706214fd39c1cd1e609a0528c199300\n        /* \"@openzeppelin/contracts-upgradeable/access/OwnableUpgradeable.sol\":1303:1335  $.slot := OwnableStorageLocation */\n      swap1\n      pop\n        /* \"@openzeppelin/contracts-upgradeable/access/OwnableUpgradeable.sol\":1192:1351  function _getOwnableStorage() private pure returns (OwnableStorage storage $) {... */\n      swap1\n      jump\t// out\n        /* \"@openzeppelin/contracts-upgradeable/utils/ContextUpgradeable.sol\":887:983  function _msgSender() internal view virtual returns (address) {... */\n    tag_265:\n        /* \"@openzeppelin/contracts-upgradeable/utils/ContextUpgradeable.sol\":940:947  address */\n      0x00\n        /* \"@openzeppelin/contracts-upgradeable/utils/ContextUpgradeable.sol\":966:976  msg.sender */\n      caller\n        /* \"@openzeppelin/contracts-upgradeable/utils/ContextUpgradeable.sol\":959:976  return msg.sender */\n      swap1\n      pop\n        /* \"@openzeppelin/contracts-upgradeable/utils/ContextUpgradeable.sol\":887:983  function _msgSender() internal view virtual returns (address) {... */\n      swap1\n      jump\t// out\n        /* \"@openzeppelin/contracts/utils/cryptography/MerkleProof.sol\":1967:2257  function processProof(bytes32[] memory proof, bytes32 leaf) internal pure returns (bytes32) {... */\n    tag_272:\n        /* \"@openzeppelin/contracts/utils/cryptography/MerkleProof.sol\":2050:2057  bytes32 */\n      0x00\n        /* \"@openzeppelin/contracts/utils/cryptography/MerkleProof.sol\":2069:2089  bytes32 computedHash */\n      dup1\n        /* \"@openzeppelin/contracts/utils/cryptography/MerkleProof.sol\":2092:2096  leaf */\n      dup3\n        /* \"@openzeppelin/contracts/utils/cryptography/MerkleProof.sol\":2069:2096  bytes32 computedHash = leaf */\n      swap1\n      pop\n        /* \"@openzeppelin/contracts/utils/cryptography/MerkleProof.sol\":2111:2120  uint256 i */\n      0x00\n        /* \"@openzeppelin/contracts/utils/cryptography/MerkleProof.sol\":2106:2222  for (uint256 i = 0; i < proof.length; i++) {... */\n    tag_289:\n        /* \"@openzeppelin/contracts/utils/cryptography/MerkleProof.sol\":2130:2135  proof */\n      dup5\n        /* \"@openzeppelin/contracts/utils/cryptography/MerkleProof.sol\":2130:2142  proof.length */\n      mload\n        /* \"@openzeppelin/contracts/utils/cryptography/MerkleProof.sol\":2126:2127  i */\n      dup2\n        /* \"@openzeppelin/contracts/utils/cryptography/MerkleProof.sol\":2126:2142  i < proof.length */\n      lt\n        /* \"@openzeppelin/contracts/utils/cryptography/MerkleProof.sol\":2106:2222  for (uint256 i = 0; i < proof.length; i++) {... */\n      iszero\n      tag_290\n      jumpi\n        /* \"@openzeppelin/contracts/utils/cryptography/MerkleProof.sol\":2178:2211  _hashPair(computedHash, proof[i]) */\n      tag_292\n        /* \"@openzeppelin/contracts/utils/cryptography/MerkleProof.sol\":2188:2200  computedHash */\n      dup3\n        /* \"@openzeppelin/contracts/utils/cryptography/MerkleProof.sol\":2202:2207  proof */\n      dup7\n        /* \"@openzeppelin/contracts/utils/cryptography/MerkleProof.sol\":2208:2209  i */\n      dup4\n        /* \"@openzeppelin/contracts/utils/cryptography/MerkleProof.sol\":2202:2210  proof[i] */\n      dup2\n      mload\n      dup2\n      lt\n      tag_293\n      jumpi\n      tag_294\n      tag_238\n      jump\t// in\n    tag_294:\n    tag_293:\n      0x20\n      mul\n      0x20\n      add\n      add\n      mload\n        /* \"@openzeppelin/contracts/utils/cryptography/MerkleProof.sol\":2178:2187  _hashPair */\n      tag_295\n        /* \"@openzeppelin/contracts/utils/cryptography/MerkleProof.sol\":2178:2211  _hashPair(computedHash, proof[i]) */\n      jump\t// in\n    tag_292:\n        /* \"@openzeppelin/contracts/utils/cryptography/MerkleProof.sol\":2163:2211  computedHash = _hashPair(computedHash, proof[i]) */\n      swap2\n      pop\n        /* \"@openzeppelin/contracts/utils/cryptography/MerkleProof.sol\":2144:2147  i++ */\n      dup1\n      dup1\n      0x01\n      add\n      swap2\n      pop\n      pop\n        /* \"@openzeppelin/contracts/utils/cryptography/MerkleProof.sol\":2106:2222  for (uint256 i = 0; i < proof.length; i++) {... */\n      jump(tag_289)\n    tag_290:\n      pop\n        /* \"@openzeppelin/contracts/utils/cryptography/MerkleProof.sol\":2238:2250  computedHash */\n      dup1\n        /* \"@openzeppelin/contracts/utils/cryptography/MerkleProof.sol\":2231:2250  return computedHash */\n      swap2\n      pop\n      pop\n        /* \"@openzeppelin/contracts/utils/cryptography/MerkleProof.sol\":1967:2257  function processProof(bytes32[] memory proof, bytes32 leaf) internal pure returns (bytes32) {... */\n      swap3\n      swap2\n      pop\n      pop\n      jump\t// out\n        /* \"@openzeppelin/contracts-upgradeable/proxy/utils/Initializable.sol\":7084:7225  function _checkInitializing() internal view virtual {... */\n    tag_278:\n        /* \"@openzeppelin/contracts-upgradeable/proxy/utils/Initializable.sol\":7151:7168  _isInitializing() */\n      tag_297\n        /* \"@openzeppelin/contracts-upgradeable/proxy/utils/Initializable.sol\":7151:7166  _isInitializing */\n      tag_298\n        /* \"@openzeppelin/contracts-upgradeable/proxy/utils/Initializable.sol\":7151:7168  _isInitializing() */\n      jump\t// in\n    tag_297:\n        /* \"@openzeppelin/contracts-upgradeable/proxy/utils/Initializable.sol\":7146:7219  if (!_isInitializing()) {... */\n      tag_299\n      jumpi\n        /* \"@openzeppelin/contracts-upgradeable/proxy/utils/Initializable.sol\":7191:7208  NotInitializing() */\n      mload(0x40)\n      0xd7e6bcf800000000000000000000000000000000000000000000000000000000\n      dup2\n      mstore\n      0x04\n      add\n      mload(0x40)\n      dup1\n      swap2\n      sub\n      swap1\n      revert\n        /* \"@openzeppelin/contracts-upgradeable/proxy/utils/Initializable.sol\":7146:7219  if (!_isInitializing()) {... */\n    tag_299:\n        /* \"@openzeppelin/contracts-upgradeable/proxy/utils/Initializable.sol\":7084:7225  function _checkInitializing() internal view virtual {... */\n      jump\t// out\n        /* \"@openzeppelin/contracts-upgradeable/access/OwnableUpgradeable.sol\":1980:2215  function __Ownable_init_unchained(address initialOwner) internal onlyInitializing {... */\n    tag_281:\n        /* \"@openzeppelin/contracts-upgradeable/proxy/utils/Initializable.sol\":6931:6951  _checkInitializing() */\n      tag_301\n        /* \"@openzeppelin/contracts-upgradeable/proxy/utils/Initializable.sol\":6931:6949  _checkInitializing */\n      tag_278\n        /* \"@openzeppelin/contracts-upgradeable/proxy/utils/Initializable.sol\":6931:6951  _checkInitializing() */\n      jump\t// in\n    tag_301:\n        /* \"@openzeppelin/contracts-upgradeable/access/OwnableUpgradeable.sol\":2100:2101  0 */\n      0x00\n        /* \"@openzeppelin/contracts-upgradeable/access/OwnableUpgradeable.sol\":2076:2102  initialOwner == address(0) */\n      0xffffffffffffffffffffffffffffffffffffffff\n      and\n        /* \"@openzeppelin/contracts-upgradeable/access/OwnableUpgradeable.sol\":2076:2088  initialOwner */\n      dup2\n        /* \"@openzeppelin/contracts-upgradeable/access/OwnableUpgradeable.sol\":2076:2102  initialOwner == address(0) */\n      0xffffffffffffffffffffffffffffffffffffffff\n      and\n      sub\n        /* \"@openzeppelin/contracts-upgradeable/access/OwnableUpgradeable.sol\":2072:2167  if (initialOwner == address(0)) {... */\n      tag_303\n      jumpi\n        /* \"@openzeppelin/contracts-upgradeable/access/OwnableUpgradeable.sol\":2153:2154  0 */\n      0x00\n        /* \"@openzeppelin/contracts-upgradeable/access/OwnableUpgradeable.sol\":2125:2156  OwnableInvalidOwner(address(0)) */\n      mload(0x40)\n      0x1e4fbdf700000000000000000000000000000000000000000000000000000000\n      dup2\n      mstore\n      0x04\n      add\n      tag_304\n      swap2\n      swap1\n      tag_76\n      jump\t// in\n    tag_304:\n      mload(0x40)\n      dup1\n      swap2\n      sub\n      swap1\n      revert\n        /* \"@openzeppelin/contracts-upgradeable/access/OwnableUpgradeable.sol\":2072:2167  if (initialOwner == address(0)) {... */\n    tag_303:\n        /* \"@openzeppelin/contracts-upgradeable/access/OwnableUpgradeable.sol\":2176:2208  _transferOwnership(initialOwner) */\n      tag_305\n        /* \"@openzeppelin/contracts-upgradeable/access/OwnableUpgradeable.sol\":2195:2207  initialOwner */\n      dup2\n        /* \"@openzeppelin/contracts-upgradeable/access/OwnableUpgradeable.sol\":2176:2194  _transferOwnership */\n      tag_150\n        /* \"@openzeppelin/contracts-upgradeable/access/OwnableUpgradeable.sol\":2176:2208  _transferOwnership(initialOwner) */\n      jump\t// in\n    tag_305:\n        /* \"@openzeppelin/contracts-upgradeable/access/OwnableUpgradeable.sol\":1980:2215  function __Ownable_init_unchained(address initialOwner) internal onlyInitializing {... */\n      pop\n      jump\t// out\n        /* \"@openzeppelin/contracts/utils/cryptography/MerkleProof.sol\":9229:9376  function _hashPair(bytes32 a, bytes32 b) private pure returns (bytes32) {... */\n    tag_295:\n        /* \"@openzeppelin/contracts/utils/cryptography/MerkleProof.sol\":9292:9299  bytes32 */\n      0x00\n        /* \"@openzeppelin/contracts/utils/cryptography/MerkleProof.sol\":9322:9323  b */\n      dup2\n        /* \"@openzeppelin/contracts/utils/cryptography/MerkleProof.sol\":9318:9319  a */\n      dup4\n        /* \"@openzeppelin/contracts/utils/cryptography/MerkleProof.sol\":9318:9323  a < b */\n      lt\n        /* \"@openzeppelin/contracts/utils/cryptography/MerkleProof.sol\":9318:9369  a < b ? _efficientHash(a, b) : _efficientHash(b, a) */\n      tag_307\n      jumpi\n        /* \"@openzeppelin/contracts/utils/cryptography/MerkleProof.sol\":9349:9369  _efficientHash(b, a) */\n      tag_308\n        /* \"@openzeppelin/contracts/utils/cryptography/MerkleProof.sol\":9364:9365  b */\n      dup3\n        /* \"@openzeppelin/contracts/utils/cryptography/MerkleProof.sol\":9367:9368  a */\n      dup5\n        /* \"@openzeppelin/contracts/utils/cryptography/MerkleProof.sol\":9349:9363  _efficientHash */\n      tag_309\n        /* \"@openzeppelin/contracts/utils/cryptography/MerkleProof.sol\":9349:9369  _efficientHash(b, a) */\n      jump\t// in\n    tag_308:\n        /* \"@openzeppelin/contracts/utils/cryptography/MerkleProof.sol\":9318:9369  a < b ? _efficientHash(a, b) : _efficientHash(b, a) */\n      jump(tag_310)\n    tag_307:\n        /* \"@openzeppelin/contracts/utils/cryptography/MerkleProof.sol\":9326:9346  _efficientHash(a, b) */\n      tag_311\n        /* \"@openzeppelin/contracts/utils/cryptography/MerkleProof.sol\":9341:9342  a */\n      dup4\n        /* \"@openzeppelin/contracts/utils/cryptography/MerkleProof.sol\":9344:9345  b */\n      dup4\n        /* \"@openzeppelin/contracts/utils/cryptography/MerkleProof.sol\":9326:9340  _efficientHash */\n      tag_309\n        /* \"@openzeppelin/contracts/utils/cryptography/MerkleProof.sol\":9326:9346  _efficientHash(a, b) */\n      jump\t// in\n    tag_311:\n        /* \"@openzeppelin/contracts/utils/cryptography/MerkleProof.sol\":9318:9369  a < b ? _efficientHash(a, b) : _efficientHash(b, a) */\n    tag_310:\n        /* \"@openzeppelin/contracts/utils/cryptography/MerkleProof.sol\":9311:9369  return a < b ? _efficientHash(a, b) : _efficientHash(b, a) */\n      swap1\n      pop\n        /* \"@openzeppelin/contracts/utils/cryptography/MerkleProof.sol\":9229:9376  function _hashPair(bytes32 a, bytes32 b) private pure returns (bytes32) {... */\n      swap3\n      swap2\n      pop\n      pop\n      jump\t// out\n        /* \"@openzeppelin/contracts-upgradeable/proxy/utils/Initializable.sol\":8487:8607  function _isInitializing() internal view returns (bool) {... */\n    tag_298:\n        /* \"@openzeppelin/contracts-upgradeable/proxy/utils/Initializable.sol\":8537:8541  bool */\n      0x00\n        /* \"@openzeppelin/contracts-upgradeable/proxy/utils/Initializable.sol\":8560:8586  _getInitializableStorage() */\n      tag_313\n        /* \"@openzeppelin/contracts-upgradeable/proxy/utils/Initializable.sol\":8560:8584  _getInitializableStorage */\n      tag_164\n        /* \"@openzeppelin/contracts-upgradeable/proxy/utils/Initializable.sol\":8560:8586  _getInitializableStorage() */\n      jump\t// in\n    tag_313:\n        /* \"@openzeppelin/contracts-upgradeable/proxy/utils/Initializable.sol\":8560:8600  _getInitializableStorage()._initializing */\n      0x00\n      add\n      0x08\n      swap1\n      sload\n      swap1\n      0x0100\n      exp\n      swap1\n      div\n      0xff\n      and\n        /* \"@openzeppelin/contracts-upgradeable/proxy/utils/Initializable.sol\":8553:8600  return _getInitializableStorage()._initializing */\n      swap1\n      pop\n        /* \"@openzeppelin/contracts-upgradeable/proxy/utils/Initializable.sol\":8487:8607  function _isInitializing() internal view returns (bool) {... */\n      swap1\n      jump\t// out\n        /* \"@openzeppelin/contracts/utils/cryptography/MerkleProof.sol\":9496:9757  function _efficientHash(bytes32 a, bytes32 b) private pure returns (bytes32 value) {... */\n    tag_309:\n        /* \"@openzeppelin/contracts/utils/cryptography/MerkleProof.sol\":9564:9577  bytes32 value */\n      0x00\n        /* \"@openzeppelin/contracts/utils/cryptography/MerkleProof.sol\":9668:9669  a */\n      dup3\n        /* \"@openzeppelin/contracts/utils/cryptography/MerkleProof.sol\":9662:9666  0x00 */\n      0x00\n        /* \"@openzeppelin/contracts/utils/cryptography/MerkleProof.sol\":9655:9670  mstore(0x00, a) */\n      mstore\n        /* \"@openzeppelin/contracts/utils/cryptography/MerkleProof.sol\":9696:9697  b */\n      dup2\n        /* \"@openzeppelin/contracts/utils/cryptography/MerkleProof.sol\":9690:9694  0x20 */\n      0x20\n        /* \"@openzeppelin/contracts/utils/cryptography/MerkleProof.sol\":9683:9698  mstore(0x20, b) */\n      mstore\n        /* \"@openzeppelin/contracts/utils/cryptography/MerkleProof.sol\":9736:9740  0x40 */\n      0x40\n        /* \"@openzeppelin/contracts/utils/cryptography/MerkleProof.sol\":9730:9734  0x00 */\n      0x00\n        /* \"@openzeppelin/contracts/utils/cryptography/MerkleProof.sol\":9720:9741  keccak256(0x00, 0x40) */\n      keccak256\n        /* \"@openzeppelin/contracts/utils/cryptography/MerkleProof.sol\":9711:9741  value := keccak256(0x00, 0x40) */\n      swap1\n      pop\n        /* \"@openzeppelin/contracts/utils/cryptography/MerkleProof.sol\":9496:9757  function _efficientHash(bytes32 a, bytes32 b) private pure returns (bytes32 value) {... */\n      swap3\n      swap2\n      pop\n      pop\n      jump\t// out\n    tag_223:\n      dup3\n      dup1\n      sload\n      dup3\n      dup3\n      sstore\n      swap1\n      0x00\n      mstore\n      keccak256(0x00, 0x20)\n      swap1\n      dup2\n      add\n      swap3\n      dup3\n      iszero\n      tag_315\n      jumpi\n      swap2\n      0x20\n      mul\n      dup3\n      add\n    tag_316:\n      dup3\n      dup2\n      gt\n      iszero\n      tag_317\n      jumpi\n      dup3\n      mload\n      dup3\n      exp(0x0100, 0x00)\n      dup2\n      sload\n      dup2\n      0xffffffffffffffffffffffffffffffffffffffff\n      mul\n      not\n      and\n      swap1\n      dup4\n      0xffffffffffffffffffffffffffffffffffffffff\n      and\n      mul\n      or\n      swap1\n      sstore\n      pop\n      swap2\n      0x20\n      add\n      swap2\n      swap1\n      0x01\n      add\n      swap1\n      jump(tag_316)\n    tag_317:\n    tag_315:\n      pop\n      swap1\n      pop\n      tag_318\n      swap2\n      swap1\n      tag_319\n      jump\t// in\n    tag_318:\n      pop\n      swap1\n      jump\t// out\n    tag_319:\n    tag_320:\n      dup1\n      dup3\n      gt\n      iszero\n      tag_321\n      jumpi\n      0x00\n      dup2\n      0x00\n      swap1\n      sstore\n      pop\n      0x01\n      add\n      jump(tag_320)\n    tag_321:\n      pop\n      swap1\n      jump\t// out\n        /* \"#utility.yul\":7:84   */\n    tag_322:\n        /* \"#utility.yul\":44:51   */\n      0x00\n        /* \"#utility.yul\":73:78   */\n      dup2\n        /* \"#utility.yul\":62:78   */\n      swap1\n      pop\n        /* \"#utility.yul\":7:84   */\n      swap2\n      swap1\n      pop\n      jump\t// out\n        /* \"#utility.yul\":90:208   */\n    tag_323:\n        /* \"#utility.yul\":177:201   */\n      tag_397\n        /* \"#utility.yul\":195:200   */\n      dup2\n        /* \"#utility.yul\":177:201   */\n      tag_322\n      jump\t// in\n    tag_397:\n        /* \"#utility.yul\":172:175   */\n      dup3\n        /* \"#utility.yul\":165:202   */\n      mstore\n        /* \"#utility.yul\":90:208   */\n      pop\n      pop\n      jump\t// out\n        /* \"#utility.yul\":214:436   */\n    tag_28:\n        /* \"#utility.yul\":307:311   */\n      0x00\n        /* \"#utility.yul\":345:347   */\n      0x20\n        /* \"#utility.yul\":334:343   */\n      dup3\n        /* \"#utility.yul\":330:348   */\n      add\n        /* \"#utility.yul\":322:348   */\n      swap1\n      pop\n        /* \"#utility.yul\":358:429   */\n      tag_399\n        /* \"#utility.yul\":426:427   */\n      0x00\n        /* \"#utility.yul\":415:424   */\n      dup4\n        /* \"#utility.yul\":411:428   */\n      add\n        /* \"#utility.yul\":402:408   */\n      dup5\n        /* \"#utility.yul\":358:429   */\n      tag_323\n      jump\t// in\n    tag_399:\n        /* \"#utility.yul\":214:436   */\n      swap3\n      swap2\n      pop\n      pop\n      jump\t// out\n        /* \"#utility.yul\":442:568   */\n    tag_324:\n        /* \"#utility.yul\":479:486   */\n      0x00\n        /* \"#utility.yul\":519:561   */\n      0xffffffffffffffffffffffffffffffffffffffff\n        /* \"#utility.yul\":512:517   */\n      dup3\n        /* \"#utility.yul\":508:562   */\n      and\n        /* \"#utility.yul\":497:562   */\n      swap1\n      pop\n        /* \"#utility.yul\":442:568   */\n      swap2\n      swap1\n      pop\n      jump\t// out\n        /* \"#utility.yul\":574:634   */\n    tag_325:\n        /* \"#utility.yul\":602:605   */\n      0x00\n        /* \"#utility.yul\":623:628   */\n      dup2\n        /* \"#utility.yul\":616:628   */\n      swap1\n      pop\n        /* \"#utility.yul\":574:634   */\n      swap2\n      swap1\n      pop\n      jump\t// out\n        /* \"#utility.yul\":640:782   */\n    tag_326:\n        /* \"#utility.yul\":690:699   */\n      0x00\n        /* \"#utility.yul\":723:776   */\n      tag_403\n        /* \"#utility.yul\":741:775   */\n      tag_404\n        /* \"#utility.yul\":750:774   */\n      tag_405\n        /* \"#utility.yul\":768:773   */\n      dup5\n        /* \"#utility.yul\":750:774   */\n      tag_324\n      jump\t// in\n    tag_405:\n        /* \"#utility.yul\":741:775   */\n      tag_325\n      jump\t// in\n    tag_404:\n        /* \"#utility.yul\":723:776   */\n      tag_324\n      jump\t// in\n    tag_403:\n        /* \"#utility.yul\":710:776   */\n      swap1\n      pop\n        /* \"#utility.yul\":640:782   */\n      swap2\n      swap1\n      pop\n      jump\t// out\n        /* \"#utility.yul\":788:914   */\n    tag_327:\n        /* \"#utility.yul\":838:847   */\n      0x00\n        /* \"#utility.yul\":871:908   */\n      tag_407\n        /* \"#utility.yul\":902:907   */\n      dup3\n        /* \"#utility.yul\":871:908   */\n      tag_326\n      jump\t// in\n    tag_407:\n        /* \"#utility.yul\":858:908   */\n      swap1\n      pop\n        /* \"#utility.yul\":788:914   */\n      swap2\n      swap1\n      pop\n      jump\t// out\n        /* \"#utility.yul\":920:1069   */\n    tag_328:\n        /* \"#utility.yul\":993:1002   */\n      0x00\n        /* \"#utility.yul\":1026:1063   */\n      tag_409\n        /* \"#utility.yul\":1057:1062   */\n      dup3\n        /* \"#utility.yul\":1026:1063   */\n      tag_327\n      jump\t// in\n    tag_409:\n        /* \"#utility.yul\":1013:1063   */\n      swap1\n      pop\n        /* \"#utility.yul\":920:1069   */\n      swap2\n      swap1\n      pop\n      jump\t// out\n        /* \"#utility.yul\":1075:1252   */\n    tag_329:\n        /* \"#utility.yul\":1185:1245   */\n      tag_411\n        /* \"#utility.yul\":1239:1244   */\n      dup2\n        /* \"#utility.yul\":1185:1245   */\n      tag_328\n      jump\t// in\n    tag_411:\n        /* \"#utility.yul\":1180:1183   */\n      dup3\n        /* \"#utility.yul\":1173:1246   */\n      mstore\n        /* \"#utility.yul\":1075:1252   */\n      pop\n      pop\n      jump\t// out\n        /* \"#utility.yul\":1258:1526   */\n    tag_33:\n        /* \"#utility.yul\":1374:1378   */\n      0x00\n        /* \"#utility.yul\":1412:1414   */\n      0x20\n        /* \"#utility.yul\":1401:1410   */\n      dup3\n        /* \"#utility.yul\":1397:1415   */\n      add\n        /* \"#utility.yul\":1389:1415   */\n      swap1\n      pop\n        /* \"#utility.yul\":1425:1519   */\n      tag_413\n        /* \"#utility.yul\":1516:1517   */\n      0x00\n        /* \"#utility.yul\":1505:1514   */\n      dup4\n        /* \"#utility.yul\":1501:1518   */\n      add\n        /* \"#utility.yul\":1492:1498   */\n      dup5\n        /* \"#utility.yul\":1425:1519   */\n      tag_329\n      jump\t// in\n    tag_413:\n        /* \"#utility.yul\":1258:1526   */\n      swap3\n      swap2\n      pop\n      pop\n      jump\t// out\n        /* \"#utility.yul\":1532:1672   */\n    tag_330:\n        /* \"#utility.yul\":1596:1605   */\n      0x00\n        /* \"#utility.yul\":1629:1666   */\n      tag_415\n        /* \"#utility.yul\":1660:1665   */\n      dup3\n        /* \"#utility.yul\":1629:1666   */\n      tag_327\n      jump\t// in\n    tag_415:\n        /* \"#utility.yul\":1616:1666   */\n      swap1\n      pop\n        /* \"#utility.yul\":1532:1672   */\n      swap2\n      swap1\n      pop\n      jump\t// out\n        /* \"#utility.yul\":1678:1837   */\n    tag_331:\n        /* \"#utility.yul\":1779:1830   */\n      tag_417\n        /* \"#utility.yul\":1824:1829   */\n      dup2\n        /* \"#utility.yul\":1779:1830   */\n      tag_330\n      jump\t// in\n    tag_417:\n        /* \"#utility.yul\":1774:1777   */\n      dup3\n        /* \"#utility.yul\":1767:1831   */\n      mstore\n        /* \"#utility.yul\":1678:1837   */\n      pop\n      pop\n      jump\t// out\n        /* \"#utility.yul\":1843:2093   */\n    tag_41:\n        /* \"#utility.yul\":1950:1954   */\n      0x00\n        /* \"#utility.yul\":1988:1990   */\n      0x20\n        /* \"#utility.yul\":1977:1986   */\n      dup3\n        /* \"#utility.yul\":1973:1991   */\n      add\n        /* \"#utility.yul\":1965:1991   */\n      swap1\n      pop\n        /* \"#utility.yul\":2001:2086   */\n      tag_419\n        /* \"#utility.yul\":2083:2084   */\n      0x00\n        /* \"#utility.yul\":2072:2081   */\n      dup4\n        /* \"#utility.yul\":2068:2085   */\n      add\n        /* \"#utility.yul\":2059:2065   */\n      dup5\n        /* \"#utility.yul\":2001:2086   */\n      tag_331\n      jump\t// in\n    tag_419:\n        /* \"#utility.yul\":1843:2093   */\n      swap3\n      swap2\n      pop\n      pop\n      jump\t// out\n        /* \"#utility.yul\":2180:2297   */\n    tag_333:\n        /* \"#utility.yul\":2289:2290   */\n      0x00\n        /* \"#utility.yul\":2286:2287   */\n      dup1\n        /* \"#utility.yul\":2279:2291   */\n      revert\n        /* \"#utility.yul\":2303:2420   */\n    tag_334:\n        /* \"#utility.yul\":2412:2413   */\n      0x00\n        /* \"#utility.yul\":2409:2410   */\n      dup1\n        /* \"#utility.yul\":2402:2414   */\n      revert\n        /* \"#utility.yul\":2426:2503   */\n    tag_335:\n        /* \"#utility.yul\":2463:2470   */\n      0x00\n        /* \"#utility.yul\":2492:2497   */\n      dup2\n        /* \"#utility.yul\":2481:2497   */\n      swap1\n      pop\n        /* \"#utility.yul\":2426:2503   */\n      swap2\n      swap1\n      pop\n      jump\t// out\n        /* \"#utility.yul\":2509:2631   */\n    tag_336:\n        /* \"#utility.yul\":2582:2606   */\n      tag_425\n        /* \"#utility.yul\":2600:2605   */\n      dup2\n        /* \"#utility.yul\":2582:2606   */\n      tag_335\n      jump\t// in\n    tag_425:\n        /* \"#utility.yul\":2575:2580   */\n      dup2\n        /* \"#utility.yul\":2572:2607   */\n      eq\n        /* \"#utility.yul\":2562:2625   */\n      tag_426\n      jumpi\n        /* \"#utility.yul\":2621:2622   */\n      0x00\n        /* \"#utility.yul\":2618:2619   */\n      dup1\n        /* \"#utility.yul\":2611:2623   */\n      revert\n        /* \"#utility.yul\":2562:2625   */\n    tag_426:\n        /* \"#utility.yul\":2509:2631   */\n      pop\n      jump\t// out\n        /* \"#utility.yul\":2637:2776   */\n    tag_337:\n        /* \"#utility.yul\":2683:2688   */\n      0x00\n        /* \"#utility.yul\":2721:2727   */\n      dup2\n        /* \"#utility.yul\":2708:2728   */\n      calldataload\n        /* \"#utility.yul\":2699:2728   */\n      swap1\n      pop\n        /* \"#utility.yul\":2737:2770   */\n      tag_428\n        /* \"#utility.yul\":2764:2769   */\n      dup2\n        /* \"#utility.yul\":2737:2770   */\n      tag_336\n      jump\t// in\n    tag_428:\n        /* \"#utility.yul\":2637:2776   */\n      swap3\n      swap2\n      pop\n      pop\n      jump\t// out\n        /* \"#utility.yul\":2782:2899   */\n    tag_338:\n        /* \"#utility.yul\":2891:2892   */\n      0x00\n        /* \"#utility.yul\":2888:2889   */\n      dup1\n        /* \"#utility.yul\":2881:2893   */\n      revert\n        /* \"#utility.yul\":2905:3022   */\n    tag_339:\n        /* \"#utility.yul\":3014:3015   */\n      0x00\n        /* \"#utility.yul\":3011:3012   */\n      dup1\n        /* \"#utility.yul\":3004:3016   */\n      revert\n        /* \"#utility.yul\":3028:3145   */\n    tag_340:\n        /* \"#utility.yul\":3137:3138   */\n      0x00\n        /* \"#utility.yul\":3134:3135   */\n      dup1\n        /* \"#utility.yul\":3127:3139   */\n      revert\n        /* \"#utility.yul\":3168:3736   */\n    tag_341:\n        /* \"#utility.yul\":3241:3249   */\n      0x00\n        /* \"#utility.yul\":3251:3257   */\n      dup1\n        /* \"#utility.yul\":3301:3304   */\n      dup4\n        /* \"#utility.yul\":3294:3298   */\n      0x1f\n        /* \"#utility.yul\":3286:3292   */\n      dup5\n        /* \"#utility.yul\":3282:3299   */\n      add\n        /* \"#utility.yul\":3278:3305   */\n      slt\n        /* \"#utility.yul\":3268:3390   */\n      tag_433\n      jumpi\n        /* \"#utility.yul\":3309:3388   */\n      tag_434\n      tag_338\n      jump\t// in\n    tag_434:\n        /* \"#utility.yul\":3268:3390   */\n    tag_433:\n        /* \"#utility.yul\":3422:3428   */\n      dup3\n        /* \"#utility.yul\":3409:3429   */\n      calldataload\n        /* \"#utility.yul\":3399:3429   */\n      swap1\n      pop\n        /* \"#utility.yul\":3452:3470   */\n      0xffffffffffffffff\n        /* \"#utility.yul\":3444:3450   */\n      dup2\n        /* \"#utility.yul\":3441:3471   */\n      gt\n        /* \"#utility.yul\":3438:3555   */\n      iszero\n      tag_435\n      jumpi\n        /* \"#utility.yul\":3474:3553   */\n      tag_436\n      tag_339\n      jump\t// in\n    tag_436:\n        /* \"#utility.yul\":3438:3555   */\n    tag_435:\n        /* \"#utility.yul\":3588:3592   */\n      0x20\n        /* \"#utility.yul\":3580:3586   */\n      dup4\n        /* \"#utility.yul\":3576:3593   */\n      add\n        /* \"#utility.yul\":3564:3593   */\n      swap2\n      pop\n        /* \"#utility.yul\":3642:3645   */\n      dup4\n        /* \"#utility.yul\":3634:3638   */\n      0x20\n        /* \"#utility.yul\":3626:3632   */\n      dup3\n        /* \"#utility.yul\":3622:3639   */\n      mul\n        /* \"#utility.yul\":3612:3620   */\n      dup4\n        /* \"#utility.yul\":3608:3640   */\n      add\n        /* \"#utility.yul\":3605:3646   */\n      gt\n        /* \"#utility.yul\":3602:3730   */\n      iszero\n      tag_437\n      jumpi\n        /* \"#utility.yul\":3649:3728   */\n      tag_438\n      tag_340\n      jump\t// in\n    tag_438:\n        /* \"#utility.yul\":3602:3730   */\n    tag_437:\n        /* \"#utility.yul\":3168:3736   */\n      swap3\n      pop\n      swap3\n      swap1\n      pop\n      jump\t// out\n        /* \"#utility.yul\":3742:4446   */\n    tag_45:\n        /* \"#utility.yul\":3837:3843   */\n      0x00\n        /* \"#utility.yul\":3845:3851   */\n      dup1\n        /* \"#utility.yul\":3853:3859   */\n      0x00\n        /* \"#utility.yul\":3902:3904   */\n      0x40\n        /* \"#utility.yul\":3890:3899   */\n      dup5\n        /* \"#utility.yul\":3881:3888   */\n      dup7\n        /* \"#utility.yul\":3877:3900   */\n      sub\n        /* \"#utility.yul\":3873:3905   */\n      slt\n        /* \"#utility.yul\":3870:3989   */\n      iszero\n      tag_440\n      jumpi\n        /* \"#utility.yul\":3908:3987   */\n      tag_441\n      tag_333\n      jump\t// in\n    tag_441:\n        /* \"#utility.yul\":3870:3989   */\n    tag_440:\n        /* \"#utility.yul\":4028:4029   */\n      0x00\n        /* \"#utility.yul\":4053:4106   */\n      tag_442\n        /* \"#utility.yul\":4098:4105   */\n      dup7\n        /* \"#utility.yul\":4089:4095   */\n      dup3\n        /* \"#utility.yul\":4078:4087   */\n      dup8\n        /* \"#utility.yul\":4074:4096   */\n      add\n        /* \"#utility.yul\":4053:4106   */\n      tag_337\n      jump\t// in\n    tag_442:\n        /* \"#utility.yul\":4043:4106   */\n      swap4\n      pop\n        /* \"#utility.yul\":3999:4116   */\n      pop\n        /* \"#utility.yul\":4183:4185   */\n      0x20\n        /* \"#utility.yul\":4172:4181   */\n      dup5\n        /* \"#utility.yul\":4168:4186   */\n      add\n        /* \"#utility.yul\":4155:4187   */\n      calldataload\n        /* \"#utility.yul\":4214:4232   */\n      0xffffffffffffffff\n        /* \"#utility.yul\":4206:4212   */\n      dup2\n        /* \"#utility.yul\":4203:4233   */\n      gt\n        /* \"#utility.yul\":4200:4317   */\n      iszero\n      tag_443\n      jumpi\n        /* \"#utility.yul\":4236:4315   */\n      tag_444\n      tag_334\n      jump\t// in\n    tag_444:\n        /* \"#utility.yul\":4200:4317   */\n    tag_443:\n        /* \"#utility.yul\":4349:4429   */\n      tag_445\n        /* \"#utility.yul\":4421:4428   */\n      dup7\n        /* \"#utility.yul\":4412:4418   */\n      dup3\n        /* \"#utility.yul\":4401:4410   */\n      dup8\n        /* \"#utility.yul\":4397:4419   */\n      add\n        /* \"#utility.yul\":4349:4429   */\n      tag_341\n      jump\t// in\n    tag_445:\n        /* \"#utility.yul\":4331:4429   */\n      swap3\n      pop\n      swap3\n      pop\n        /* \"#utility.yul\":4126:4439   */\n      pop\n        /* \"#utility.yul\":3742:4446   */\n      swap3\n      pop\n      swap3\n      pop\n      swap3\n      jump\t// out\n        /* \"#utility.yul\":4452:4548   */\n    tag_342:\n        /* \"#utility.yul\":4489:4496   */\n      0x00\n        /* \"#utility.yul\":4518:4542   */\n      tag_447\n        /* \"#utility.yul\":4536:4541   */\n      dup3\n        /* \"#utility.yul\":4518:4542   */\n      tag_324\n      jump\t// in\n    tag_447:\n        /* \"#utility.yul\":4507:4542   */\n      swap1\n      pop\n        /* \"#utility.yul\":4452:4548   */\n      swap2\n      swap1\n      pop\n      jump\t// out\n        /* \"#utility.yul\":4554:4676   */\n    tag_343:\n        /* \"#utility.yul\":4627:4651   */\n      tag_449\n        /* \"#utility.yul\":4645:4650   */\n      dup2\n        /* \"#utility.yul\":4627:4651   */\n      tag_342\n      jump\t// in\n    tag_449:\n        /* \"#utility.yul\":4620:4625   */\n      dup2\n        /* \"#utility.yul\":4617:4652   */\n      eq\n        /* \"#utility.yul\":4607:4670   */\n      tag_450\n      jumpi\n        /* \"#utility.yul\":4666:4667   */\n      0x00\n        /* \"#utility.yul\":4663:4664   */\n      dup1\n        /* \"#utility.yul\":4656:4668   */\n      revert\n        /* \"#utility.yul\":4607:4670   */\n    tag_450:\n        /* \"#utility.yul\":4554:4676   */\n      pop\n      jump\t// out\n        /* \"#utility.yul\":4682:4821   */\n    tag_344:\n        /* \"#utility.yul\":4728:4733   */\n      0x00\n        /* \"#utility.yul\":4766:4772   */\n      dup2\n        /* \"#utility.yul\":4753:4773   */\n      calldataload\n        /* \"#utility.yul\":4744:4773   */\n      swap1\n      pop\n        /* \"#utility.yul\":4782:4815   */\n      tag_452\n        /* \"#utility.yul\":4809:4814   */\n      dup2\n        /* \"#utility.yul\":4782:4815   */\n      tag_343\n      jump\t// in\n    tag_452:\n        /* \"#utility.yul\":4682:4821   */\n      swap3\n      swap2\n      pop\n      pop\n      jump\t// out\n        /* \"#utility.yul\":4827:5156   */\n    tag_53:\n        /* \"#utility.yul\":4886:4892   */\n      0x00\n        /* \"#utility.yul\":4935:4937   */\n      0x20\n        /* \"#utility.yul\":4923:4932   */\n      dup3\n        /* \"#utility.yul\":4914:4921   */\n      dup5\n        /* \"#utility.yul\":4910:4933   */\n      sub\n        /* \"#utility.yul\":4906:4938   */\n      slt\n        /* \"#utility.yul\":4903:5022   */\n      iszero\n      tag_454\n      jumpi\n        /* \"#utility.yul\":4941:5020   */\n      tag_455\n      tag_333\n      jump\t// in\n    tag_455:\n        /* \"#utility.yul\":4903:5022   */\n    tag_454:\n        /* \"#utility.yul\":5061:5062   */\n      0x00\n        /* \"#utility.yul\":5086:5139   */\n      tag_456\n        /* \"#utility.yul\":5131:5138   */\n      dup5\n        /* \"#utility.yul\":5122:5128   */\n      dup3\n        /* \"#utility.yul\":5111:5120   */\n      dup6\n        /* \"#utility.yul\":5107:5129   */\n      add\n        /* \"#utility.yul\":5086:5139   */\n      tag_344\n      jump\t// in\n    tag_456:\n        /* \"#utility.yul\":5076:5139   */\n      swap2\n      pop\n        /* \"#utility.yul\":5032:5149   */\n      pop\n        /* \"#utility.yul\":4827:5156   */\n      swap3\n      swap2\n      pop\n      pop\n      jump\t// out\n        /* \"#utility.yul\":5162:5280   */\n    tag_345:\n        /* \"#utility.yul\":5249:5273   */\n      tag_458\n        /* \"#utility.yul\":5267:5272   */\n      dup2\n        /* \"#utility.yul\":5249:5273   */\n      tag_335\n      jump\t// in\n    tag_458:\n        /* \"#utility.yul\":5244:5247   */\n      dup3\n        /* \"#utility.yul\":5237:5274   */\n      mstore\n        /* \"#utility.yul\":5162:5280   */\n      pop\n      pop\n      jump\t// out\n        /* \"#utility.yul\":5286:5508   */\n    tag_56:\n        /* \"#utility.yul\":5379:5383   */\n      0x00\n        /* \"#utility.yul\":5417:5419   */\n      0x20\n        /* \"#utility.yul\":5406:5415   */\n      dup3\n        /* \"#utility.yul\":5402:5420   */\n      add\n        /* \"#utility.yul\":5394:5420   */\n      swap1\n      pop\n        /* \"#utility.yul\":5430:5501   */\n      tag_460\n        /* \"#utility.yul\":5498:5499   */\n      0x00\n        /* \"#utility.yul\":5487:5496   */\n      dup4\n        /* \"#utility.yul\":5483:5500   */\n      add\n        /* \"#utility.yul\":5474:5480   */\n      dup5\n        /* \"#utility.yul\":5430:5501   */\n      tag_345\n      jump\t// in\n    tag_460:\n        /* \"#utility.yul\":5286:5508   */\n      swap3\n      swap2\n      pop\n      pop\n      jump\t// out\n        /* \"#utility.yul\":5514:5636   */\n    tag_346:\n        /* \"#utility.yul\":5587:5611   */\n      tag_462\n        /* \"#utility.yul\":5605:5610   */\n      dup2\n        /* \"#utility.yul\":5587:5611   */\n      tag_322\n      jump\t// in\n    tag_462:\n        /* \"#utility.yul\":5580:5585   */\n      dup2\n        /* \"#utility.yul\":5577:5612   */\n      eq\n        /* \"#utility.yul\":5567:5630   */\n      tag_463\n      jumpi\n        /* \"#utility.yul\":5626:5627   */\n      0x00\n        /* \"#utility.yul\":5623:5624   */\n      dup1\n        /* \"#utility.yul\":5616:5628   */\n      revert\n        /* \"#utility.yul\":5567:5630   */\n    tag_463:\n        /* \"#utility.yul\":5514:5636   */\n      pop\n      jump\t// out\n        /* \"#utility.yul\":5642:5781   */\n    tag_347:\n        /* \"#utility.yul\":5688:5693   */\n      0x00\n        /* \"#utility.yul\":5726:5732   */\n      dup2\n        /* \"#utility.yul\":5713:5733   */\n      calldataload\n        /* \"#utility.yul\":5704:5733   */\n      swap1\n      pop\n        /* \"#utility.yul\":5742:5775   */\n      tag_465\n        /* \"#utility.yul\":5769:5774   */\n      dup2\n        /* \"#utility.yul\":5742:5775   */\n      tag_346\n      jump\t// in\n    tag_465:\n        /* \"#utility.yul\":5642:5781   */\n      swap3\n      swap2\n      pop\n      pop\n      jump\t// out\n        /* \"#utility.yul\":5787:6116   */\n    tag_63:\n        /* \"#utility.yul\":5846:5852   */\n      0x00\n        /* \"#utility.yul\":5895:5897   */\n      0x20\n        /* \"#utility.yul\":5883:5892   */\n      dup3\n        /* \"#utility.yul\":5874:5881   */\n      dup5\n        /* \"#utility.yul\":5870:5893   */\n      sub\n        /* \"#utility.yul\":5866:5898   */\n      slt\n        /* \"#utility.yul\":5863:5982   */\n      iszero\n      tag_467\n      jumpi\n        /* \"#utility.yul\":5901:5980   */\n      tag_468\n      tag_333\n      jump\t// in\n    tag_468:\n        /* \"#utility.yul\":5863:5982   */\n    tag_467:\n        /* \"#utility.yul\":6021:6022   */\n      0x00\n        /* \"#utility.yul\":6046:6099   */\n      tag_469\n        /* \"#utility.yul\":6091:6098   */\n      dup5\n        /* \"#utility.yul\":6082:6088   */\n      dup3\n        /* \"#utility.yul\":6071:6080   */\n      dup6\n        /* \"#utility.yul\":6067:6089   */\n      add\n        /* \"#utility.yul\":6046:6099   */\n      tag_347\n      jump\t// in\n    tag_469:\n        /* \"#utility.yul\":6036:6099   */\n      swap2\n      pop\n        /* \"#utility.yul\":5992:6109   */\n      pop\n        /* \"#utility.yul\":5787:6116   */\n      swap3\n      swap2\n      pop\n      pop\n      jump\t// out\n        /* \"#utility.yul\":6122:6451   */\n    tag_70:\n        /* \"#utility.yul\":6181:6187   */\n      0x00\n        /* \"#utility.yul\":6230:6232   */\n      0x20\n        /* \"#utility.yul\":6218:6227   */\n      dup3\n        /* \"#utility.yul\":6209:6216   */\n      dup5\n        /* \"#utility.yul\":6205:6228   */\n      sub\n        /* \"#utility.yul\":6201:6233   */\n      slt\n        /* \"#utility.yul\":6198:6317   */\n      iszero\n      tag_471\n      jumpi\n        /* \"#utility.yul\":6236:6315   */\n      tag_472\n      tag_333\n      jump\t// in\n    tag_472:\n        /* \"#utility.yul\":6198:6317   */\n    tag_471:\n        /* \"#utility.yul\":6356:6357   */\n      0x00\n        /* \"#utility.yul\":6381:6434   */\n      tag_473\n        /* \"#utility.yul\":6426:6433   */\n      dup5\n        /* \"#utility.yul\":6417:6423   */\n      dup3\n        /* \"#utility.yul\":6406:6415   */\n      dup6\n        /* \"#utility.yul\":6402:6424   */\n      add\n        /* \"#utility.yul\":6381:6434   */\n      tag_337\n      jump\t// in\n    tag_473:\n        /* \"#utility.yul\":6371:6434   */\n      swap2\n      pop\n        /* \"#utility.yul\":6327:6444   */\n      pop\n        /* \"#utility.yul\":6122:6451   */\n      swap3\n      swap2\n      pop\n      pop\n      jump\t// out\n        /* \"#utility.yul\":6457:6575   */\n    tag_348:\n        /* \"#utility.yul\":6544:6568   */\n      tag_475\n        /* \"#utility.yul\":6562:6567   */\n      dup2\n        /* \"#utility.yul\":6544:6568   */\n      tag_342\n      jump\t// in\n    tag_475:\n        /* \"#utility.yul\":6539:6542   */\n      dup3\n        /* \"#utility.yul\":6532:6569   */\n      mstore\n        /* \"#utility.yul\":6457:6575   */\n      pop\n      pop\n      jump\t// out\n        /* \"#utility.yul\":6581:6803   */\n    tag_76:\n        /* \"#utility.yul\":6674:6678   */\n      0x00\n        /* \"#utility.yul\":6712:6714   */\n      0x20\n        /* \"#utility.yul\":6701:6710   */\n      dup3\n        /* \"#utility.yul\":6697:6715   */\n      add\n        /* \"#utility.yul\":6689:6715   */\n      swap1\n      pop\n        /* \"#utility.yul\":6725:6796   */\n      tag_477\n        /* \"#utility.yul\":6793:6794   */\n      0x00\n        /* \"#utility.yul\":6782:6791   */\n      dup4\n        /* \"#utility.yul\":6778:6795   */\n      add\n        /* \"#utility.yul\":6769:6775   */\n      dup5\n        /* \"#utility.yul\":6725:6796   */\n      tag_348\n      jump\t// in\n    tag_477:\n        /* \"#utility.yul\":6581:6803   */\n      swap3\n      swap2\n      pop\n      pop\n      jump\t// out\n        /* \"#utility.yul\":6809:6950   */\n    tag_349:\n        /* \"#utility.yul\":6874:6883   */\n      0x00\n        /* \"#utility.yul\":6907:6944   */\n      tag_479\n        /* \"#utility.yul\":6938:6943   */\n      dup3\n        /* \"#utility.yul\":6907:6944   */\n      tag_327\n      jump\t// in\n    tag_479:\n        /* \"#utility.yul\":6894:6944   */\n      swap1\n      pop\n        /* \"#utility.yul\":6809:6950   */\n      swap2\n      swap1\n      pop\n      jump\t// out\n        /* \"#utility.yul\":6956:7117   */\n    tag_350:\n        /* \"#utility.yul\":7058:7110   */\n      tag_481\n        /* \"#utility.yul\":7104:7109   */\n      dup2\n        /* \"#utility.yul\":7058:7110   */\n      tag_349\n      jump\t// in\n    tag_481:\n        /* \"#utility.yul\":7053:7056   */\n      dup3\n        /* \"#utility.yul\":7046:7111   */\n      mstore\n        /* \"#utility.yul\":6956:7117   */\n      pop\n      pop\n      jump\t// out\n        /* \"#utility.yul\":7123:7375   */\n    tag_81:\n        /* \"#utility.yul\":7231:7235   */\n      0x00\n        /* \"#utility.yul\":7269:7271   */\n      0x20\n        /* \"#utility.yul\":7258:7267   */\n      dup3\n        /* \"#utility.yul\":7254:7272   */\n      add\n        /* \"#utility.yul\":7246:7272   */\n      swap1\n      pop\n        /* \"#utility.yul\":7282:7368   */\n      tag_483\n        /* \"#utility.yul\":7365:7366   */\n      0x00\n        /* \"#utility.yul\":7354:7363   */\n      dup4\n        /* \"#utility.yul\":7350:7367   */\n      add\n        /* \"#utility.yul\":7341:7347   */\n      dup5\n        /* \"#utility.yul\":7282:7368   */\n      tag_350\n      jump\t// in\n    tag_483:\n        /* \"#utility.yul\":7123:7375   */\n      swap3\n      swap2\n      pop\n      pop\n      jump\t// out\n        /* \"#utility.yul\":7381:8378   */\n    tag_91:\n        /* \"#utility.yul\":7670:7674   */\n      0x00\n        /* \"#utility.yul\":7708:7711   */\n      0x0100\n        /* \"#utility.yul\":7697:7706   */\n      dup3\n        /* \"#utility.yul\":7693:7712   */\n      add\n        /* \"#utility.yul\":7685:7712   */\n      swap1\n      pop\n        /* \"#utility.yul\":7722:7793   */\n      tag_485\n        /* \"#utility.yul\":7790:7791   */\n      0x00\n        /* \"#utility.yul\":7779:7788   */\n      dup4\n        /* \"#utility.yul\":7775:7792   */\n      add\n        /* \"#utility.yul\":7766:7772   */\n      dup12\n        /* \"#utility.yul\":7722:7793   */\n      tag_345\n      jump\t// in\n    tag_485:\n        /* \"#utility.yul\":7803:7875   */\n      tag_486\n        /* \"#utility.yul\":7871:7873   */\n      0x20\n        /* \"#utility.yul\":7860:7869   */\n      dup4\n        /* \"#utility.yul\":7856:7874   */\n      add\n        /* \"#utility.yul\":7847:7853   */\n      dup11\n        /* \"#utility.yul\":7803:7875   */\n      tag_345\n      jump\t// in\n    tag_486:\n        /* \"#utility.yul\":7885:7957   */\n      tag_487\n        /* \"#utility.yul\":7953:7955   */\n      0x40\n        /* \"#utility.yul\":7942:7951   */\n      dup4\n        /* \"#utility.yul\":7938:7956   */\n      add\n        /* \"#utility.yul\":7929:7935   */\n      dup10\n        /* \"#utility.yul\":7885:7957   */\n      tag_345\n      jump\t// in\n    tag_487:\n        /* \"#utility.yul\":7967:8039   */\n      tag_488\n        /* \"#utility.yul\":8035:8037   */\n      0x60\n        /* \"#utility.yul\":8024:8033   */\n      dup4\n        /* \"#utility.yul\":8020:8038   */\n      add\n        /* \"#utility.yul\":8011:8017   */\n      dup9\n        /* \"#utility.yul\":7967:8039   */\n      tag_345\n      jump\t// in\n    tag_488:\n        /* \"#utility.yul\":8049:8122   */\n      tag_489\n        /* \"#utility.yul\":8117:8120   */\n      0x80\n        /* \"#utility.yul\":8106:8115   */\n      dup4\n        /* \"#utility.yul\":8102:8121   */\n      add\n        /* \"#utility.yul\":8093:8099   */\n      dup8\n        /* \"#utility.yul\":8049:8122   */\n      tag_345\n      jump\t// in\n    tag_489:\n        /* \"#utility.yul\":8132:8205   */\n      tag_490\n        /* \"#utility.yul\":8200:8203   */\n      0xa0\n        /* \"#utility.yul\":8189:8198   */\n      dup4\n        /* \"#utility.yul\":8185:8204   */\n      add\n        /* \"#utility.yul\":8176:8182   */\n      dup7\n        /* \"#utility.yul\":8132:8205   */\n      tag_345\n      jump\t// in\n    tag_490:\n        /* \"#utility.yul\":8215:8288   */\n      tag_491\n        /* \"#utility.yul\":8283:8286   */\n      0xc0\n        /* \"#utility.yul\":8272:8281   */\n      dup4\n        /* \"#utility.yul\":8268:8287   */\n      add\n        /* \"#utility.yul\":8259:8265   */\n      dup6\n        /* \"#utility.yul\":8215:8288   */\n      tag_345\n      jump\t// in\n    tag_491:\n        /* \"#utility.yul\":8298:8371   */\n      tag_492\n        /* \"#utility.yul\":8366:8369   */\n      0xe0\n        /* \"#utility.yul\":8355:8364   */\n      dup4\n        /* \"#utility.yul\":8351:8370   */\n      add\n        /* \"#utility.yul\":8342:8348   */\n      dup5\n        /* \"#utility.yul\":8298:8371   */\n      tag_348\n      jump\t// in\n    tag_492:\n        /* \"#utility.yul\":7381:8378   */\n      swap10\n      swap9\n      pop\n      pop\n      pop\n      pop\n      pop\n      pop\n      pop\n      pop\n      pop\n      jump\t// out\n        /* \"#utility.yul\":8384:9295   */\n    tag_95:\n        /* \"#utility.yul\":8479:8485   */\n      0x00\n        /* \"#utility.yul\":8487:8493   */\n      dup1\n        /* \"#utility.yul\":8495:8501   */\n      0x00\n        /* \"#utility.yul\":8503:8509   */\n      dup1\n        /* \"#utility.yul\":8511:8517   */\n      0x00\n        /* \"#utility.yul\":8560:8563   */\n      0xa0\n        /* \"#utility.yul\":8548:8557   */\n      dup7\n        /* \"#utility.yul\":8539:8546   */\n      dup9\n        /* \"#utility.yul\":8535:8558   */\n      sub\n        /* \"#utility.yul\":8531:8564   */\n      slt\n        /* \"#utility.yul\":8528:8648   */\n      iszero\n      tag_494\n      jumpi\n        /* \"#utility.yul\":8567:8646   */\n      tag_495\n      tag_333\n      jump\t// in\n    tag_495:\n        /* \"#utility.yul\":8528:8648   */\n    tag_494:\n        /* \"#utility.yul\":8687:8688   */\n      0x00\n        /* \"#utility.yul\":8712:8765   */\n      tag_496\n        /* \"#utility.yul\":8757:8764   */\n      dup9\n        /* \"#utility.yul\":8748:8754   */\n      dup3\n        /* \"#utility.yul\":8737:8746   */\n      dup10\n        /* \"#utility.yul\":8733:8755   */\n      add\n        /* \"#utility.yul\":8712:8765   */\n      tag_337\n      jump\t// in\n    tag_496:\n        /* \"#utility.yul\":8702:8765   */\n      swap6\n      pop\n        /* \"#utility.yul\":8658:8775   */\n      pop\n        /* \"#utility.yul\":8814:8816   */\n      0x20\n        /* \"#utility.yul\":8840:8893   */\n      tag_497\n        /* \"#utility.yul\":8885:8892   */\n      dup9\n        /* \"#utility.yul\":8876:8882   */\n      dup3\n        /* \"#utility.yul\":8865:8874   */\n      dup10\n        /* \"#utility.yul\":8861:8883   */\n      add\n        /* \"#utility.yul\":8840:8893   */\n      tag_337\n      jump\t// in\n    tag_497:\n        /* \"#utility.yul\":8830:8893   */\n      swap5\n      pop\n        /* \"#utility.yul\":8785:8903   */\n      pop\n        /* \"#utility.yul\":8942:8944   */\n      0x40\n        /* \"#utility.yul\":8968:9021   */\n      tag_498\n        /* \"#utility.yul\":9013:9020   */\n      dup9\n        /* \"#utility.yul\":9004:9010   */\n      dup3\n        /* \"#utility.yul\":8993:9002   */\n      dup10\n        /* \"#utility.yul\":8989:9011   */\n      add\n        /* \"#utility.yul\":8968:9021   */\n      tag_337\n      jump\t// in\n    tag_498:\n        /* \"#utility.yul\":8958:9021   */\n      swap4\n      pop\n        /* \"#utility.yul\":8913:9031   */\n      pop\n        /* \"#utility.yul\":9070:9072   */\n      0x60\n        /* \"#utility.yul\":9096:9149   */\n      tag_499\n        /* \"#utility.yul\":9141:9148   */\n      dup9\n        /* \"#utility.yul\":9132:9138   */\n      dup3\n        /* \"#utility.yul\":9121:9130   */\n      dup10\n        /* \"#utility.yul\":9117:9139   */\n      add\n        /* \"#utility.yul\":9096:9149   */\n      tag_337\n      jump\t// in\n    tag_499:\n        /* \"#utility.yul\":9086:9149   */\n      swap3\n      pop\n        /* \"#utility.yul\":9041:9159   */\n      pop\n        /* \"#utility.yul\":9198:9201   */\n      0x80\n        /* \"#utility.yul\":9225:9278   */\n      tag_500\n        /* \"#utility.yul\":9270:9277   */\n      dup9\n        /* \"#utility.yul\":9261:9267   */\n      dup3\n        /* \"#utility.yul\":9250:9259   */\n      dup10\n        /* \"#utility.yul\":9246:9268   */\n      add\n        /* \"#utility.yul\":9225:9278   */\n      tag_337\n      jump\t// in\n    tag_500:\n        /* \"#utility.yul\":9215:9278   */\n      swap2\n      pop\n        /* \"#utility.yul\":9169:9288   */\n      pop\n        /* \"#utility.yul\":8384:9295   */\n      swap3\n      swap6\n      pop\n      swap3\n      swap6\n      swap1\n      swap4\n      pop\n      jump\t// out\n        /* \"#utility.yul\":9301:9775   */\n    tag_104:\n        /* \"#utility.yul\":9369:9375   */\n      0x00\n        /* \"#utility.yul\":9377:9383   */\n      dup1\n        /* \"#utility.yul\":9426:9428   */\n      0x40\n        /* \"#utility.yul\":9414:9423   */\n      dup4\n        /* \"#utility.yul\":9405:9412   */\n      dup6\n        /* \"#utility.yul\":9401:9424   */\n      sub\n        /* \"#utility.yul\":9397:9429   */\n      slt\n        /* \"#utility.yul\":9394:9513   */\n      iszero\n      tag_502\n      jumpi\n        /* \"#utility.yul\":9432:9511   */\n      tag_503\n      tag_333\n      jump\t// in\n    tag_503:\n        /* \"#utility.yul\":9394:9513   */\n    tag_502:\n        /* \"#utility.yul\":9552:9553   */\n      0x00\n        /* \"#utility.yul\":9577:9630   */\n      tag_504\n        /* \"#utility.yul\":9622:9629   */\n      dup6\n        /* \"#utility.yul\":9613:9619   */\n      dup3\n        /* \"#utility.yul\":9602:9611   */\n      dup7\n        /* \"#utility.yul\":9598:9620   */\n      add\n        /* \"#utility.yul\":9577:9630   */\n      tag_337\n      jump\t// in\n    tag_504:\n        /* \"#utility.yul\":9567:9630   */\n      swap3\n      pop\n        /* \"#utility.yul\":9523:9640   */\n      pop\n        /* \"#utility.yul\":9679:9681   */\n      0x20\n        /* \"#utility.yul\":9705:9758   */\n      tag_505\n        /* \"#utility.yul\":9750:9757   */\n      dup6\n        /* \"#utility.yul\":9741:9747   */\n      dup3\n        /* \"#utility.yul\":9730:9739   */\n      dup7\n        /* \"#utility.yul\":9726:9748   */\n      add\n        /* \"#utility.yul\":9705:9758   */\n      tag_337\n      jump\t// in\n    tag_505:\n        /* \"#utility.yul\":9695:9758   */\n      swap2\n      pop\n        /* \"#utility.yul\":9650:9768   */\n      pop\n        /* \"#utility.yul\":9301:9775   */\n      swap3\n      pop\n      swap3\n      swap1\n      pop\n      jump\t// out\n        /* \"#utility.yul\":9781:9924   */\n    tag_351:\n        /* \"#utility.yul\":9838:9843   */\n      0x00\n        /* \"#utility.yul\":9869:9875   */\n      dup2\n        /* \"#utility.yul\":9863:9876   */\n      mload\n        /* \"#utility.yul\":9854:9876   */\n      swap1\n      pop\n        /* \"#utility.yul\":9885:9918   */\n      tag_507\n        /* \"#utility.yul\":9912:9917   */\n      dup2\n        /* \"#utility.yul\":9885:9918   */\n      tag_336\n      jump\t// in\n    tag_507:\n        /* \"#utility.yul\":9781:9924   */\n      swap3\n      swap2\n      pop\n      pop\n      jump\t// out\n        /* \"#utility.yul\":9930:10281   */\n    tag_119:\n        /* \"#utility.yul\":10000:10006   */\n      0x00\n        /* \"#utility.yul\":10049:10051   */\n      0x20\n        /* \"#utility.yul\":10037:10046   */\n      dup3\n        /* \"#utility.yul\":10028:10035   */\n      dup5\n        /* \"#utility.yul\":10024:10047   */\n      sub\n        /* \"#utility.yul\":10020:10052   */\n      slt\n        /* \"#utility.yul\":10017:10136   */\n      iszero\n      tag_509\n      jumpi\n        /* \"#utility.yul\":10055:10134   */\n      tag_510\n      tag_333\n      jump\t// in\n    tag_510:\n        /* \"#utility.yul\":10017:10136   */\n    tag_509:\n        /* \"#utility.yul\":10175:10176   */\n      0x00\n        /* \"#utility.yul\":10200:10264   */\n      tag_511\n        /* \"#utility.yul\":10256:10263   */\n      dup5\n        /* \"#utility.yul\":10247:10253   */\n      dup3\n        /* \"#utility.yul\":10236:10245   */\n      dup6\n        /* \"#utility.yul\":10232:10254   */\n      add\n        /* \"#utility.yul\":10200:10264   */\n      tag_351\n      jump\t// in\n    tag_511:\n        /* \"#utility.yul\":10190:10264   */\n      swap2\n      pop\n        /* \"#utility.yul\":10146:10274   */\n      pop\n        /* \"#utility.yul\":9930:10281   */\n      swap3\n      swap2\n      pop\n      pop\n      jump\t// out\n        /* \"#utility.yul\":10287:10619   */\n    tag_121:\n        /* \"#utility.yul\":10408:10412   */\n      0x00\n        /* \"#utility.yul\":10446:10448   */\n      0x40\n        /* \"#utility.yul\":10435:10444   */\n      dup3\n        /* \"#utility.yul\":10431:10449   */\n      add\n        /* \"#utility.yul\":10423:10449   */\n      swap1\n      pop\n        /* \"#utility.yul\":10459:10530   */\n      tag_513\n        /* \"#utility.yul\":10527:10528   */\n      0x00\n        /* \"#utility.yul\":10516:10525   */\n      dup4\n        /* \"#utility.yul\":10512:10529   */\n      add\n        /* \"#utility.yul\":10503:10509   */\n      dup6\n        /* \"#utility.yul\":10459:10530   */\n      tag_348\n      jump\t// in\n    tag_513:\n        /* \"#utility.yul\":10540:10612   */\n      tag_514\n        /* \"#utility.yul\":10608:10610   */\n      0x20\n        /* \"#utility.yul\":10597:10606   */\n      dup4\n        /* \"#utility.yul\":10593:10611   */\n      add\n        /* \"#utility.yul\":10584:10590   */\n      dup5\n        /* \"#utility.yul\":10540:10612   */\n      tag_345\n      jump\t// in\n    tag_514:\n        /* \"#utility.yul\":10287:10619   */\n      swap4\n      swap3\n      pop\n      pop\n      pop\n      jump\t// out\n        /* \"#utility.yul\":10625:10719   */\n    tag_352:\n        /* \"#utility.yul\":10658:10666   */\n      0x00\n        /* \"#utility.yul\":10706:10711   */\n      dup2\n        /* \"#utility.yul\":10702:10704   */\n      0x60\n        /* \"#utility.yul\":10698:10712   */\n      shl\n        /* \"#utility.yul\":10677:10712   */\n      swap1\n      pop\n        /* \"#utility.yul\":10625:10719   */\n      swap2\n      swap1\n      pop\n      jump\t// out\n        /* \"#utility.yul\":10725:10819   */\n    tag_353:\n        /* \"#utility.yul\":10764:10771   */\n      0x00\n        /* \"#utility.yul\":10793:10813   */\n      tag_517\n        /* \"#utility.yul\":10807:10812   */\n      dup3\n        /* \"#utility.yul\":10793:10813   */\n      tag_352\n      jump\t// in\n    tag_517:\n        /* \"#utility.yul\":10782:10813   */\n      swap1\n      pop\n        /* \"#utility.yul\":10725:10819   */\n      swap2\n      swap1\n      pop\n      jump\t// out\n        /* \"#utility.yul\":10825:10925   */\n    tag_354:\n        /* \"#utility.yul\":10864:10871   */\n      0x00\n        /* \"#utility.yul\":10893:10919   */\n      tag_519\n        /* \"#utility.yul\":10913:10918   */\n      dup3\n        /* \"#utility.yul\":10893:10919   */\n      tag_353\n      jump\t// in\n    tag_519:\n        /* \"#utility.yul\":10882:10919   */\n      swap1\n      pop\n        /* \"#utility.yul\":10825:10925   */\n      swap2\n      swap1\n      pop\n      jump\t// out\n        /* \"#utility.yul\":10931:11088   */\n    tag_355:\n        /* \"#utility.yul\":11036:11081   */\n      tag_521\n        /* \"#utility.yul\":11056:11080   */\n      tag_522\n        /* \"#utility.yul\":11074:11079   */\n      dup3\n        /* \"#utility.yul\":11056:11080   */\n      tag_342\n      jump\t// in\n    tag_522:\n        /* \"#utility.yul\":11036:11081   */\n      tag_354\n      jump\t// in\n    tag_521:\n        /* \"#utility.yul\":11031:11034   */\n      dup3\n        /* \"#utility.yul\":11024:11082   */\n      mstore\n        /* \"#utility.yul\":10931:11088   */\n      pop\n      pop\n      jump\t// out\n        /* \"#utility.yul\":11094:11173   */\n    tag_356:\n        /* \"#utility.yul\":11133:11140   */\n      0x00\n        /* \"#utility.yul\":11162:11167   */\n      dup2\n        /* \"#utility.yul\":11151:11167   */\n      swap1\n      pop\n        /* \"#utility.yul\":11094:11173   */\n      swap2\n      swap1\n      pop\n      jump\t// out\n        /* \"#utility.yul\":11179:11336   */\n    tag_357:\n        /* \"#utility.yul\":11284:11329   */\n      tag_525\n        /* \"#utility.yul\":11304:11328   */\n      tag_526\n        /* \"#utility.yul\":11322:11327   */\n      dup3\n        /* \"#utility.yul\":11304:11328   */\n      tag_335\n      jump\t// in\n    tag_526:\n        /* \"#utility.yul\":11284:11329   */\n      tag_356\n      jump\t// in\n    tag_525:\n        /* \"#utility.yul\":11279:11282   */\n      dup3\n        /* \"#utility.yul\":11272:11330   */\n      mstore\n        /* \"#utility.yul\":11179:11336   */\n      pop\n      pop\n      jump\t// out\n        /* \"#utility.yul\":11342:11739   */\n    tag_127:\n        /* \"#utility.yul\":11482:11485   */\n      0x00\n        /* \"#utility.yul\":11497:11572   */\n      tag_528\n        /* \"#utility.yul\":11568:11571   */\n      dup3\n        /* \"#utility.yul\":11559:11565   */\n      dup6\n        /* \"#utility.yul\":11497:11572   */\n      tag_355\n      jump\t// in\n    tag_528:\n        /* \"#utility.yul\":11597:11599   */\n      0x14\n        /* \"#utility.yul\":11592:11595   */\n      dup3\n        /* \"#utility.yul\":11588:11600   */\n      add\n        /* \"#utility.yul\":11581:11600   */\n      swap2\n      pop\n        /* \"#utility.yul\":11610:11685   */\n      tag_529\n        /* \"#utility.yul\":11681:11684   */\n      dup3\n        /* \"#utility.yul\":11672:11678   */\n      dup5\n        /* \"#utility.yul\":11610:11685   */\n      tag_357\n      jump\t// in\n    tag_529:\n        /* \"#utility.yul\":11710:11712   */\n      0x20\n        /* \"#utility.yul\":11705:11708   */\n      dup3\n        /* \"#utility.yul\":11701:11713   */\n      add\n        /* \"#utility.yul\":11694:11713   */\n      swap2\n      pop\n        /* \"#utility.yul\":11730:11733   */\n      dup2\n        /* \"#utility.yul\":11723:11733   */\n      swap1\n      pop\n        /* \"#utility.yul\":11342:11739   */\n      swap4\n      swap3\n      pop\n      pop\n      pop\n      jump\t// out\n        /* \"#utility.yul\":11745:11914   */\n    tag_358:\n        /* \"#utility.yul\":11829:11840   */\n      0x00\n        /* \"#utility.yul\":11863:11869   */\n      dup3\n        /* \"#utility.yul\":11858:11861   */\n      dup3\n        /* \"#utility.yul\":11851:11870   */\n      mstore\n        /* \"#utility.yul\":11903:11907   */\n      0x20\n        /* \"#utility.yul\":11898:11901   */\n      dup3\n        /* \"#utility.yul\":11894:11908   */\n      add\n        /* \"#utility.yul\":11879:11908   */\n      swap1\n      pop\n        /* \"#utility.yul\":11745:11914   */\n      swap3\n      swap2\n      pop\n      pop\n      jump\t// out\n        /* \"#utility.yul\":11920:12084   */\n    tag_359:\n        /* \"#utility.yul\":12060:12076   */\n      0x496e76616c69642070726f6f662e000000000000000000000000000000000000\n        /* \"#utility.yul\":12056:12057   */\n      0x00\n        /* \"#utility.yul\":12048:12054   */\n      dup3\n        /* \"#utility.yul\":12044:12058   */\n      add\n        /* \"#utility.yul\":12037:12077   */\n      mstore\n        /* \"#utility.yul\":11920:12084   */\n      pop\n      jump\t// out\n        /* \"#utility.yul\":12090:12456   */\n    tag_360:\n        /* \"#utility.yul\":12232:12235   */\n      0x00\n        /* \"#utility.yul\":12253:12320   */\n      tag_533\n        /* \"#utility.yul\":12317:12319   */\n      0x0e\n        /* \"#utility.yul\":12312:12315   */\n      dup4\n        /* \"#utility.yul\":12253:12320   */\n      tag_358\n      jump\t// in\n    tag_533:\n        /* \"#utility.yul\":12246:12320   */\n      swap2\n      pop\n        /* \"#utility.yul\":12329:12422   */\n      tag_534\n        /* \"#utility.yul\":12418:12421   */\n      dup3\n        /* \"#utility.yul\":12329:12422   */\n      tag_359\n      jump\t// in\n    tag_534:\n        /* \"#utility.yul\":12447:12449   */\n      0x20\n        /* \"#utility.yul\":12442:12445   */\n      dup3\n        /* \"#utility.yul\":12438:12450   */\n      add\n        /* \"#utility.yul\":12431:12450   */\n      swap1\n      pop\n        /* \"#utility.yul\":12090:12456   */\n      swap2\n      swap1\n      pop\n      jump\t// out\n        /* \"#utility.yul\":12462:12881   */\n    tag_132:\n        /* \"#utility.yul\":12628:12632   */\n      0x00\n        /* \"#utility.yul\":12666:12668   */\n      0x20\n        /* \"#utility.yul\":12655:12664   */\n      dup3\n        /* \"#utility.yul\":12651:12669   */\n      add\n        /* \"#utility.yul\":12643:12669   */\n      swap1\n      pop\n        /* \"#utility.yul\":12715:12724   */\n      dup2\n        /* \"#utility.yul\":12709:12713   */\n      dup2\n        /* \"#utility.yul\":12705:12725   */\n      sub\n        /* \"#utility.yul\":12701:12702   */\n      0x00\n        /* \"#utility.yul\":12690:12699   */\n      dup4\n        /* \"#utility.yul\":12686:12703   */\n      add\n        /* \"#utility.yul\":12679:12726   */\n      mstore\n        /* \"#utility.yul\":12743:12874   */\n      tag_536\n        /* \"#utility.yul\":12869:12873   */\n      dup2\n        /* \"#utility.yul\":12743:12874   */\n      tag_360\n      jump\t// in\n    tag_536:\n        /* \"#utility.yul\":12735:12874   */\n      swap1\n      pop\n        /* \"#utility.yul\":12462:12881   */\n      swap2\n      swap1\n      pop\n      jump\t// out\n        /* \"#utility.yul\":12887:13116   */\n    tag_361:\n        /* \"#utility.yul\":13027:13061   */\n      0x4e6f2066756e6473206c65667420746f20636c61696d206f7220616c72656164\n        /* \"#utility.yul\":13023:13024   */\n      0x00\n        /* \"#utility.yul\":13015:13021   */\n      dup3\n        /* \"#utility.yul\":13011:13025   */\n      add\n        /* \"#utility.yul\":13004:13062   */\n      mstore\n        /* \"#utility.yul\":13096:13108   */\n      0x7920636c61696d65642e00000000000000000000000000000000000000000000\n        /* \"#utility.yul\":13091:13093   */\n      0x20\n        /* \"#utility.yul\":13083:13089   */\n      dup3\n        /* \"#utility.yul\":13079:13094   */\n      add\n        /* \"#utility.yul\":13072:13109   */\n      mstore\n        /* \"#utility.yul\":12887:13116   */\n      pop\n      jump\t// out\n        /* \"#utility.yul\":13122:13488   */\n    tag_362:\n        /* \"#utility.yul\":13264:13267   */\n      0x00\n        /* \"#utility.yul\":13285:13352   */\n      tag_539\n        /* \"#utility.yul\":13349:13351   */\n      0x2a\n        /* \"#utility.yul\":13344:13347   */\n      dup4\n        /* \"#utility.yul\":13285:13352   */\n      tag_358\n      jump\t// in\n    tag_539:\n        /* \"#utility.yul\":13278:13352   */\n      swap2\n      pop\n        /* \"#utility.yul\":13361:13454   */\n      tag_540\n        /* \"#utility.yul\":13450:13453   */\n      dup3\n        /* \"#utility.yul\":13361:13454   */\n      tag_361\n      jump\t// in\n    tag_540:\n        /* \"#utility.yul\":13479:13481   */\n      0x40\n        /* \"#utility.yul\":13474:13477   */\n      dup3\n        /* \"#utility.yul\":13470:13482   */\n      add\n        /* \"#utility.yul\":13463:13482   */\n      swap1\n      pop\n        /* \"#utility.yul\":13122:13488   */\n      swap2\n      swap1\n      pop\n      jump\t// out\n        /* \"#utility.yul\":13494:13913   */\n    tag_135:\n        /* \"#utility.yul\":13660:13664   */\n      0x00\n        /* \"#utility.yul\":13698:13700   */\n      0x20\n        /* \"#utility.yul\":13687:13696   */\n      dup3\n        /* \"#utility.yul\":13683:13701   */\n      add\n        /* \"#utility.yul\":13675:13701   */\n      swap1\n      pop\n        /* \"#utility.yul\":13747:13756   */\n      dup2\n        /* \"#utility.yul\":13741:13745   */\n      dup2\n        /* \"#utility.yul\":13737:13757   */\n      sub\n        /* \"#utility.yul\":13733:13734   */\n      0x00\n        /* \"#utility.yul\":13722:13731   */\n      dup4\n        /* \"#utility.yul\":13718:13735   */\n      add\n        /* \"#utility.yul\":13711:13758   */\n      mstore\n        /* \"#utility.yul\":13775:13906   */\n      tag_542\n        /* \"#utility.yul\":13901:13905   */\n      dup2\n        /* \"#utility.yul\":13775:13906   */\n      tag_362\n      jump\t// in\n    tag_542:\n        /* \"#utility.yul\":13767:13906   */\n      swap1\n      pop\n        /* \"#utility.yul\":13494:13913   */\n      swap2\n      swap1\n      pop\n      jump\t// out\n        /* \"#utility.yul\":13919:14099   */\n    tag_363:\n        /* \"#utility.yul\":13967:14044   */\n      0x4e487b7100000000000000000000000000000000000000000000000000000000\n        /* \"#utility.yul\":13964:13965   */\n      0x00\n        /* \"#utility.yul\":13957:14045   */\n      mstore\n        /* \"#utility.yul\":14064:14068   */\n      0x11\n        /* \"#utility.yul\":14061:14062   */\n      0x04\n        /* \"#utility.yul\":14054:14069   */\n      mstore\n        /* \"#utility.yul\":14088:14092   */\n      0x24\n        /* \"#utility.yul\":14085:14086   */\n      0x00\n        /* \"#utility.yul\":14078:14093   */\n      revert\n        /* \"#utility.yul\":14105:14299   */\n    tag_137:\n        /* \"#utility.yul\":14145:14149   */\n      0x00\n        /* \"#utility.yul\":14165:14185   */\n      tag_545\n        /* \"#utility.yul\":14183:14184   */\n      dup3\n        /* \"#utility.yul\":14165:14185   */\n      tag_335\n      jump\t// in\n    tag_545:\n        /* \"#utility.yul\":14160:14185   */\n      swap2\n      pop\n        /* \"#utility.yul\":14199:14219   */\n      tag_546\n        /* \"#utility.yul\":14217:14218   */\n      dup4\n        /* \"#utility.yul\":14199:14219   */\n      tag_335\n      jump\t// in\n    tag_546:\n        /* \"#utility.yul\":14194:14219   */\n      swap3\n      pop\n        /* \"#utility.yul\":14243:14244   */\n      dup3\n        /* \"#utility.yul\":14240:14241   */\n      dup3\n        /* \"#utility.yul\":14236:14245   */\n      sub\n        /* \"#utility.yul\":14228:14245   */\n      swap1\n      pop\n        /* \"#utility.yul\":14267:14268   */\n      dup2\n        /* \"#utility.yul\":14261:14265   */\n      dup2\n        /* \"#utility.yul\":14258:14269   */\n      gt\n        /* \"#utility.yul\":14255:14292   */\n      iszero\n      tag_547\n      jumpi\n        /* \"#utility.yul\":14272:14290   */\n      tag_548\n      tag_363\n      jump\t// in\n    tag_548:\n        /* \"#utility.yul\":14255:14292   */\n    tag_547:\n        /* \"#utility.yul\":14105:14299   */\n      swap3\n      swap2\n      pop\n      pop\n      jump\t// out\n        /* \"#utility.yul\":14305:14395   */\n    tag_364:\n        /* \"#utility.yul\":14339:14346   */\n      0x00\n        /* \"#utility.yul\":14382:14387   */\n      dup2\n        /* \"#utility.yul\":14375:14388   */\n      iszero\n        /* \"#utility.yul\":14368:14389   */\n      iszero\n        /* \"#utility.yul\":14357:14389   */\n      swap1\n      pop\n        /* \"#utility.yul\":14305:14395   */\n      swap2\n      swap1\n      pop\n      jump\t// out\n        /* \"#utility.yul\":14401:14517   */\n    tag_365:\n        /* \"#utility.yul\":14471:14492   */\n      tag_551\n        /* \"#utility.yul\":14486:14491   */\n      dup2\n        /* \"#utility.yul\":14471:14492   */\n      tag_364\n      jump\t// in\n    tag_551:\n        /* \"#utility.yul\":14464:14469   */\n      dup2\n        /* \"#utility.yul\":14461:14493   */\n      eq\n        /* \"#utility.yul\":14451:14511   */\n      tag_552\n      jumpi\n        /* \"#utility.yul\":14507:14508   */\n      0x00\n        /* \"#utility.yul\":14504:14505   */\n      dup1\n        /* \"#utility.yul\":14497:14509   */\n      revert\n        /* \"#utility.yul\":14451:14511   */\n    tag_552:\n        /* \"#utility.yul\":14401:14517   */\n      pop\n      jump\t// out\n        /* \"#utility.yul\":14523:14660   */\n    tag_366:\n        /* \"#utility.yul\":14577:14582   */\n      0x00\n        /* \"#utility.yul\":14608:14614   */\n      dup2\n        /* \"#utility.yul\":14602:14615   */\n      mload\n        /* \"#utility.yul\":14593:14615   */\n      swap1\n      pop\n        /* \"#utility.yul\":14624:14654   */\n      tag_554\n        /* \"#utility.yul\":14648:14653   */\n      dup2\n        /* \"#utility.yul\":14624:14654   */\n      tag_365\n      jump\t// in\n    tag_554:\n        /* \"#utility.yul\":14523:14660   */\n      swap3\n      swap2\n      pop\n      pop\n      jump\t// out\n        /* \"#utility.yul\":14666:15011   */\n    tag_142:\n        /* \"#utility.yul\":14733:14739   */\n      0x00\n        /* \"#utility.yul\":14782:14784   */\n      0x20\n        /* \"#utility.yul\":14770:14779   */\n      dup3\n        /* \"#utility.yul\":14761:14768   */\n      dup5\n        /* \"#utility.yul\":14757:14780   */\n      sub\n        /* \"#utility.yul\":14753:14785   */\n      slt\n        /* \"#utility.yul\":14750:14869   */\n      iszero\n      tag_556\n      jumpi\n        /* \"#utility.yul\":14788:14867   */\n      tag_557\n      tag_333\n      jump\t// in\n    tag_557:\n        /* \"#utility.yul\":14750:14869   */\n    tag_556:\n        /* \"#utility.yul\":14908:14909   */\n      0x00\n        /* \"#utility.yul\":14933:14994   */\n      tag_558\n        /* \"#utility.yul\":14986:14993   */\n      dup5\n        /* \"#utility.yul\":14977:14983   */\n      dup3\n        /* \"#utility.yul\":14966:14975   */\n      dup6\n        /* \"#utility.yul\":14962:14984   */\n      add\n        /* \"#utility.yul\":14933:14994   */\n      tag_366\n      jump\t// in\n    tag_558:\n        /* \"#utility.yul\":14923:14994   */\n      swap2\n      pop\n        /* \"#utility.yul\":14879:15004   */\n      pop\n        /* \"#utility.yul\":14666:15011   */\n      swap3\n      swap2\n      pop\n      pop\n      jump\t// out\n        /* \"#utility.yul\":15017:15188   */\n    tag_367:\n        /* \"#utility.yul\":15157:15180   */\n      0x5969656c64207472616e73666572206661696c65640000000000000000000000\n        /* \"#utility.yul\":15153:15154   */\n      0x00\n        /* \"#utility.yul\":15145:15151   */\n      dup3\n        /* \"#utility.yul\":15141:15155   */\n      add\n        /* \"#utility.yul\":15134:15181   */\n      mstore\n        /* \"#utility.yul\":15017:15188   */\n      pop\n      jump\t// out\n        /* \"#utility.yul\":15194:15560   */\n    tag_368:\n        /* \"#utility.yul\":15336:15339   */\n      0x00\n        /* \"#utility.yul\":15357:15424   */\n      tag_561\n        /* \"#utility.yul\":15421:15423   */\n      0x15\n        /* \"#utility.yul\":15416:15419   */\n      dup4\n        /* \"#utility.yul\":15357:15424   */\n      tag_358\n      jump\t// in\n    tag_561:\n        /* \"#utility.yul\":15350:15424   */\n      swap2\n      pop\n        /* \"#utility.yul\":15433:15526   */\n      tag_562\n        /* \"#utility.yul\":15522:15525   */\n      dup3\n        /* \"#utility.yul\":15433:15526   */\n      tag_367\n      jump\t// in\n    tag_562:\n        /* \"#utility.yul\":15551:15553   */\n      0x20\n        /* \"#utility.yul\":15546:15549   */\n      dup3\n        /* \"#utility.yul\":15542:15554   */\n      add\n        /* \"#utility.yul\":15535:15554   */\n      swap1\n      pop\n        /* \"#utility.yul\":15194:15560   */\n      swap2\n      swap1\n      pop\n      jump\t// out\n        /* \"#utility.yul\":15566:15985   */\n    tag_145:\n        /* \"#utility.yul\":15732:15736   */\n      0x00\n        /* \"#utility.yul\":15770:15772   */\n      0x20\n        /* \"#utility.yul\":15759:15768   */\n      dup3\n        /* \"#utility.yul\":15755:15773   */\n      add\n        /* \"#utility.yul\":15747:15773   */\n      swap1\n      pop\n        /* \"#utility.yul\":15819:15828   */\n      dup2\n        /* \"#utility.yul\":15813:15817   */\n      dup2\n        /* \"#utility.yul\":15809:15829   */\n      sub\n        /* \"#utility.yul\":15805:15806   */\n      0x00\n        /* \"#utility.yul\":15794:15803   */\n      dup4\n        /* \"#utility.yul\":15790:15807   */\n      add\n        /* \"#utility.yul\":15783:15830   */\n      mstore\n        /* \"#utility.yul\":15847:15978   */\n      tag_564\n        /* \"#utility.yul\":15973:15977   */\n      dup2\n        /* \"#utility.yul\":15847:15978   */\n      tag_368\n      jump\t// in\n    tag_564:\n        /* \"#utility.yul\":15839:15978   */\n      swap1\n      pop\n        /* \"#utility.yul\":15566:15985   */\n      swap2\n      swap1\n      pop\n      jump\t// out\n        /* \"#utility.yul\":15991:16323   */\n    tag_155:\n        /* \"#utility.yul\":16112:16116   */\n      0x00\n        /* \"#utility.yul\":16150:16152   */\n      0x40\n        /* \"#utility.yul\":16139:16148   */\n      dup3\n        /* \"#utility.yul\":16135:16153   */\n      add\n        /* \"#utility.yul\":16127:16153   */\n      swap1\n      pop\n        /* \"#utility.yul\":16163:16234   */\n      tag_566\n        /* \"#utility.yul\":16231:16232   */\n      0x00\n        /* \"#utility.yul\":16220:16229   */\n      dup4\n        /* \"#utility.yul\":16216:16233   */\n      add\n        /* \"#utility.yul\":16207:16213   */\n      dup6\n        /* \"#utility.yul\":16163:16234   */\n      tag_348\n      jump\t// in\n    tag_566:\n        /* \"#utility.yul\":16244:16316   */\n      tag_567\n        /* \"#utility.yul\":16312:16314   */\n      0x20\n        /* \"#utility.yul\":16301:16310   */\n      dup4\n        /* \"#utility.yul\":16297:16315   */\n      add\n        /* \"#utility.yul\":16288:16294   */\n      dup5\n        /* \"#utility.yul\":16244:16316   */\n      tag_348\n      jump\t// in\n    tag_567:\n        /* \"#utility.yul\":15991:16323   */\n      swap4\n      swap3\n      pop\n      pop\n      pop\n      jump\t// out\n        /* \"#utility.yul\":16329:16414   */\n    tag_369:\n        /* \"#utility.yul\":16374:16381   */\n      0x00\n        /* \"#utility.yul\":16403:16408   */\n      dup2\n        /* \"#utility.yul\":16392:16408   */\n      swap1\n      pop\n        /* \"#utility.yul\":16329:16414   */\n      swap2\n      swap1\n      pop\n      jump\t// out\n        /* \"#utility.yul\":16420:16521   */\n    tag_370:\n        /* \"#utility.yul\":16456:16463   */\n      0x00\n        /* \"#utility.yul\":16496:16514   */\n      0xffffffffffffffff\n        /* \"#utility.yul\":16489:16494   */\n      dup3\n        /* \"#utility.yul\":16485:16515   */\n      and\n        /* \"#utility.yul\":16474:16515   */\n      swap1\n      pop\n        /* \"#utility.yul\":16420:16521   */\n      swap2\n      swap1\n      pop\n      jump\t// out\n        /* \"#utility.yul\":16527:16683   */\n    tag_371:\n        /* \"#utility.yul\":16584:16593   */\n      0x00\n        /* \"#utility.yul\":16617:16677   */\n      tag_571\n        /* \"#utility.yul\":16634:16676   */\n      tag_572\n        /* \"#utility.yul\":16643:16675   */\n      tag_573\n        /* \"#utility.yul\":16669:16674   */\n      dup5\n        /* \"#utility.yul\":16643:16675   */\n      tag_369\n      jump\t// in\n    tag_573:\n        /* \"#utility.yul\":16634:16676   */\n      tag_325\n      jump\t// in\n    tag_572:\n        /* \"#utility.yul\":16617:16677   */\n      tag_370\n      jump\t// in\n    tag_571:\n        /* \"#utility.yul\":16604:16677   */\n      swap1\n      pop\n        /* \"#utility.yul\":16527:16683   */\n      swap2\n      swap1\n      pop\n      jump\t// out\n        /* \"#utility.yul\":16689:16834   */\n    tag_372:\n        /* \"#utility.yul\":16783:16827   */\n      tag_575\n        /* \"#utility.yul\":16821:16826   */\n      dup2\n        /* \"#utility.yul\":16783:16827   */\n      tag_371\n      jump\t// in\n    tag_575:\n        /* \"#utility.yul\":16778:16781   */\n      dup3\n        /* \"#utility.yul\":16771:16828   */\n      mstore\n        /* \"#utility.yul\":16689:16834   */\n      pop\n      pop\n      jump\t// out\n        /* \"#utility.yul\":16840:17076   */\n    tag_175:\n        /* \"#utility.yul\":16940:16944   */\n      0x00\n        /* \"#utility.yul\":16978:16980   */\n      0x20\n        /* \"#utility.yul\":16967:16976   */\n      dup3\n        /* \"#utility.yul\":16963:16981   */\n      add\n        /* \"#utility.yul\":16955:16981   */\n      swap1\n      pop\n        /* \"#utility.yul\":16991:17069   */\n      tag_577\n        /* \"#utility.yul\":17066:17067   */\n      0x00\n        /* \"#utility.yul\":17055:17064   */\n      dup4\n        /* \"#utility.yul\":17051:17068   */\n      add\n        /* \"#utility.yul\":17042:17048   */\n      dup5\n        /* \"#utility.yul\":16991:17069   */\n      tag_372\n      jump\t// in\n    tag_577:\n        /* \"#utility.yul\":16840:17076   */\n      swap3\n      swap2\n      pop\n      pop\n      jump\t// out\n        /* \"#utility.yul\":17082:17243   */\n    tag_373:\n        /* \"#utility.yul\":17222:17235   */\n      0x506f742069732066756c6c000000000000000000000000000000000000000000\n        /* \"#utility.yul\":17218:17219   */\n      0x00\n        /* \"#utility.yul\":17210:17216   */\n      dup3\n        /* \"#utility.yul\":17206:17220   */\n      add\n        /* \"#utility.yul\":17199:17236   */\n      mstore\n        /* \"#utility.yul\":17082:17243   */\n      pop\n      jump\t// out\n        /* \"#utility.yul\":17249:17615   */\n    tag_374:\n        /* \"#utility.yul\":17391:17394   */\n      0x00\n        /* \"#utility.yul\":17412:17479   */\n      tag_580\n        /* \"#utility.yul\":17476:17478   */\n      0x0b\n        /* \"#utility.yul\":17471:17474   */\n      dup4\n        /* \"#utility.yul\":17412:17479   */\n      tag_358\n      jump\t// in\n    tag_580:\n        /* \"#utility.yul\":17405:17479   */\n      swap2\n      pop\n        /* \"#utility.yul\":17488:17581   */\n      tag_581\n        /* \"#utility.yul\":17577:17580   */\n      dup3\n        /* \"#utility.yul\":17488:17581   */\n      tag_373\n      jump\t// in\n    tag_581:\n        /* \"#utility.yul\":17606:17608   */\n      0x20\n        /* \"#utility.yul\":17601:17604   */\n      dup3\n        /* \"#utility.yul\":17597:17609   */\n      add\n        /* \"#utility.yul\":17590:17609   */\n      swap1\n      pop\n        /* \"#utility.yul\":17249:17615   */\n      swap2\n      swap1\n      pop\n      jump\t// out\n        /* \"#utility.yul\":17621:18040   */\n    tag_179:\n        /* \"#utility.yul\":17787:17791   */\n      0x00\n        /* \"#utility.yul\":17825:17827   */\n      0x20\n        /* \"#utility.yul\":17814:17823   */\n      dup3\n        /* \"#utility.yul\":17810:17828   */\n      add\n        /* \"#utility.yul\":17802:17828   */\n      swap1\n      pop\n        /* \"#utility.yul\":17874:17883   */\n      dup2\n        /* \"#utility.yul\":17868:17872   */\n      dup2\n        /* \"#utility.yul\":17864:17884   */\n      sub\n        /* \"#utility.yul\":17860:17861   */\n      0x00\n        /* \"#utility.yul\":17849:17858   */\n      dup4\n        /* \"#utility.yul\":17845:17862   */\n      add\n        /* \"#utility.yul\":17838:17885   */\n      mstore\n        /* \"#utility.yul\":17902:18033   */\n      tag_583\n        /* \"#utility.yul\":18028:18032   */\n      dup2\n        /* \"#utility.yul\":17902:18033   */\n      tag_374\n      jump\t// in\n    tag_583:\n        /* \"#utility.yul\":17894:18033   */\n      swap1\n      pop\n        /* \"#utility.yul\":17621:18040   */\n      swap2\n      swap1\n      pop\n      jump\t// out\n        /* \"#utility.yul\":18046:18226   */\n    tag_375:\n        /* \"#utility.yul\":18186:18218   */\n      0x526f746174696e6720706f74732063616e6e6f74206265206a6f696e65640000\n        /* \"#utility.yul\":18182:18183   */\n      0x00\n        /* \"#utility.yul\":18174:18180   */\n      dup3\n        /* \"#utility.yul\":18170:18184   */\n      add\n        /* \"#utility.yul\":18163:18219   */\n      mstore\n        /* \"#utility.yul\":18046:18226   */\n      pop\n      jump\t// out\n        /* \"#utility.yul\":18232:18598   */\n    tag_376:\n        /* \"#utility.yul\":18374:18377   */\n      0x00\n        /* \"#utility.yul\":18395:18462   */\n      tag_586\n        /* \"#utility.yul\":18459:18461   */\n      0x1e\n        /* \"#utility.yul\":18454:18457   */\n      dup4\n        /* \"#utility.yul\":18395:18462   */\n      tag_358\n      jump\t// in\n    tag_586:\n        /* \"#utility.yul\":18388:18462   */\n      swap2\n      pop\n        /* \"#utility.yul\":18471:18564   */\n      tag_587\n        /* \"#utility.yul\":18560:18563   */\n      dup3\n        /* \"#utility.yul\":18471:18564   */\n      tag_375\n      jump\t// in\n    tag_587:\n        /* \"#utility.yul\":18589:18591   */\n      0x20\n        /* \"#utility.yul\":18584:18587   */\n      dup3\n        /* \"#utility.yul\":18580:18592   */\n      add\n        /* \"#utility.yul\":18573:18592   */\n      swap1\n      pop\n        /* \"#utility.yul\":18232:18598   */\n      swap2\n      swap1\n      pop\n      jump\t// out\n        /* \"#utility.yul\":18604:19023   */\n    tag_182:\n        /* \"#utility.yul\":18770:18774   */\n      0x00\n        /* \"#utility.yul\":18808:18810   */\n      0x20\n        /* \"#utility.yul\":18797:18806   */\n      dup3\n        /* \"#utility.yul\":18793:18811   */\n      add\n        /* \"#utility.yul\":18785:18811   */\n      swap1\n      pop\n        /* \"#utility.yul\":18857:18866   */\n      dup2\n        /* \"#utility.yul\":18851:18855   */\n      dup2\n        /* \"#utility.yul\":18847:18867   */\n      sub\n        /* \"#utility.yul\":18843:18844   */\n      0x00\n        /* \"#utility.yul\":18832:18841   */\n      dup4\n        /* \"#utility.yul\":18828:18845   */\n      add\n        /* \"#utility.yul\":18821:18868   */\n      mstore\n        /* \"#utility.yul\":18885:19016   */\n      tag_589\n        /* \"#utility.yul\":19011:19015   */\n      dup2\n        /* \"#utility.yul\":18885:19016   */\n      tag_376\n      jump\t// in\n    tag_589:\n        /* \"#utility.yul\":18877:19016   */\n      swap1\n      pop\n        /* \"#utility.yul\":18604:19023   */\n      swap2\n      swap1\n      pop\n      jump\t// out\n        /* \"#utility.yul\":19029:19193   */\n    tag_377:\n        /* \"#utility.yul\":19169:19185   */\n      0x416c7265616479206a6f696e6564000000000000000000000000000000000000\n        /* \"#utility.yul\":19165:19166   */\n      0x00\n        /* \"#utility.yul\":19157:19163   */\n      dup3\n        /* \"#utility.yul\":19153:19167   */\n      add\n        /* \"#utility.yul\":19146:19186   */\n      mstore\n        /* \"#utility.yul\":19029:19193   */\n      pop\n      jump\t// out\n        /* \"#utility.yul\":19199:19565   */\n    tag_378:\n        /* \"#utility.yul\":19341:19344   */\n      0x00\n        /* \"#utility.yul\":19362:19429   */\n      tag_592\n        /* \"#utility.yul\":19426:19428   */\n      0x0e\n        /* \"#utility.yul\":19421:19424   */\n      dup4\n        /* \"#utility.yul\":19362:19429   */\n      tag_358\n      jump\t// in\n    tag_592:\n        /* \"#utility.yul\":19355:19429   */\n      swap2\n      pop\n        /* \"#utility.yul\":19438:19531   */\n      tag_593\n        /* \"#utility.yul\":19527:19530   */\n      dup3\n        /* \"#utility.yul\":19438:19531   */\n      tag_377\n      jump\t// in\n    tag_593:\n        /* \"#utility.yul\":19556:19558   */\n      0x20\n        /* \"#utility.yul\":19551:19554   */\n      dup3\n        /* \"#utility.yul\":19547:19559   */\n      add\n        /* \"#utility.yul\":19540:19559   */\n      swap1\n      pop\n        /* \"#utility.yul\":19199:19565   */\n      swap2\n      swap1\n      pop\n      jump\t// out\n        /* \"#utility.yul\":19571:19990   */\n    tag_185:\n        /* \"#utility.yul\":19737:19741   */\n      0x00\n        /* \"#utility.yul\":19775:19777   */\n      0x20\n        /* \"#utility.yul\":19764:19773   */\n      dup3\n        /* \"#utility.yul\":19760:19778   */\n      add\n        /* \"#utility.yul\":19752:19778   */\n      swap1\n      pop\n        /* \"#utility.yul\":19824:19833   */\n      dup2\n        /* \"#utility.yul\":19818:19822   */\n      dup2\n        /* \"#utility.yul\":19814:19834   */\n      sub\n        /* \"#utility.yul\":19810:19811   */\n      0x00\n        /* \"#utility.yul\":19799:19808   */\n      dup4\n        /* \"#utility.yul\":19795:19812   */\n      add\n        /* \"#utility.yul\":19788:19835   */\n      mstore\n        /* \"#utility.yul\":19852:19983   */\n      tag_595\n        /* \"#utility.yul\":19978:19982   */\n      dup2\n        /* \"#utility.yul\":19852:19983   */\n      tag_378\n      jump\t// in\n    tag_595:\n        /* \"#utility.yul\":19844:19983   */\n      swap1\n      pop\n        /* \"#utility.yul\":19571:19990   */\n      swap2\n      swap1\n      pop\n      jump\t// out\n        /* \"#utility.yul\":19996:20438   */\n    tag_189:\n        /* \"#utility.yul\":20145:20149   */\n      0x00\n        /* \"#utility.yul\":20183:20185   */\n      0x60\n        /* \"#utility.yul\":20172:20181   */\n      dup3\n        /* \"#utility.yul\":20168:20186   */\n      add\n        /* \"#utility.yul\":20160:20186   */\n      swap1\n      pop\n        /* \"#utility.yul\":20196:20267   */\n      tag_597\n        /* \"#utility.yul\":20264:20265   */\n      0x00\n        /* \"#utility.yul\":20253:20262   */\n      dup4\n        /* \"#utility.yul\":20249:20266   */\n      add\n        /* \"#utility.yul\":20240:20246   */\n      dup7\n        /* \"#utility.yul\":20196:20267   */\n      tag_348\n      jump\t// in\n    tag_597:\n        /* \"#utility.yul\":20277:20349   */\n      tag_598\n        /* \"#utility.yul\":20345:20347   */\n      0x20\n        /* \"#utility.yul\":20334:20343   */\n      dup4\n        /* \"#utility.yul\":20330:20348   */\n      add\n        /* \"#utility.yul\":20321:20327   */\n      dup6\n        /* \"#utility.yul\":20277:20349   */\n      tag_348\n      jump\t// in\n    tag_598:\n        /* \"#utility.yul\":20359:20431   */\n      tag_599\n        /* \"#utility.yul\":20427:20429   */\n      0x40\n        /* \"#utility.yul\":20416:20425   */\n      dup4\n        /* \"#utility.yul\":20412:20430   */\n      add\n        /* \"#utility.yul\":20403:20409   */\n      dup5\n        /* \"#utility.yul\":20359:20431   */\n      tag_345\n      jump\t// in\n    tag_599:\n        /* \"#utility.yul\":19996:20438   */\n      swap5\n      swap4\n      pop\n      pop\n      pop\n      pop\n      jump\t// out\n        /* \"#utility.yul\":20444:20609   */\n    tag_379:\n        /* \"#utility.yul\":20584:20601   */\n      0x5472616e73666572206661696c65640000000000000000000000000000000000\n        /* \"#utility.yul\":20580:20581   */\n      0x00\n        /* \"#utility.yul\":20572:20578   */\n      dup3\n        /* \"#utility.yul\":20568:20582   */\n      add\n        /* \"#utility.yul\":20561:20602   */\n      mstore\n        /* \"#utility.yul\":20444:20609   */\n      pop\n      jump\t// out\n        /* \"#utility.yul\":20615:20981   */\n    tag_380:\n        /* \"#utility.yul\":20757:20760   */\n      0x00\n        /* \"#utility.yul\":20778:20845   */\n      tag_602\n        /* \"#utility.yul\":20842:20844   */\n      0x0f\n        /* \"#utility.yul\":20837:20840   */\n      dup4\n        /* \"#utility.yul\":20778:20845   */\n      tag_358\n      jump\t// in\n    tag_602:\n        /* \"#utility.yul\":20771:20845   */\n      swap2\n      pop\n        /* \"#utility.yul\":20854:20947   */\n      tag_603\n        /* \"#utility.yul\":20943:20946   */\n      dup3\n        /* \"#utility.yul\":20854:20947   */\n      tag_379\n      jump\t// in\n    tag_603:\n        /* \"#utility.yul\":20972:20974   */\n      0x20\n        /* \"#utility.yul\":20967:20970   */\n      dup3\n        /* \"#utility.yul\":20963:20975   */\n      add\n        /* \"#utility.yul\":20956:20975   */\n      swap1\n      pop\n        /* \"#utility.yul\":20615:20981   */\n      swap2\n      swap1\n      pop\n      jump\t// out\n        /* \"#utility.yul\":20987:21406   */\n    tag_195:\n        /* \"#utility.yul\":21153:21157   */\n      0x00\n        /* \"#utility.yul\":21191:21193   */\n      0x20\n        /* \"#utility.yul\":21180:21189   */\n      dup3\n        /* \"#utility.yul\":21176:21194   */\n      add\n        /* \"#utility.yul\":21168:21194   */\n      swap1\n      pop\n        /* \"#utility.yul\":21240:21249   */\n      dup2\n        /* \"#utility.yul\":21234:21238   */\n      dup2\n        /* \"#utility.yul\":21230:21250   */\n      sub\n        /* \"#utility.yul\":21226:21227   */\n      0x00\n        /* \"#utility.yul\":21215:21224   */\n      dup4\n        /* \"#utility.yul\":21211:21228   */\n      add\n        /* \"#utility.yul\":21204:21251   */\n      mstore\n        /* \"#utility.yul\":21268:21399   */\n      tag_605\n        /* \"#utility.yul\":21394:21398   */\n      dup2\n        /* \"#utility.yul\":21268:21399   */\n      tag_380\n      jump\t// in\n    tag_605:\n        /* \"#utility.yul\":21260:21399   */\n      swap1\n      pop\n        /* \"#utility.yul\":20987:21406   */\n      swap2\n      swap1\n      pop\n      jump\t// out\n        /* \"#utility.yul\":21412:22298   */\n    tag_198:\n        /* \"#utility.yul\":21673:21677   */\n      0x00\n        /* \"#utility.yul\":21711:21714   */\n      0xe0\n        /* \"#utility.yul\":21700:21709   */\n      dup3\n        /* \"#utility.yul\":21696:21715   */\n      add\n        /* \"#utility.yul\":21688:21715   */\n      swap1\n      pop\n        /* \"#utility.yul\":21725:21796   */\n      tag_607\n        /* \"#utility.yul\":21793:21794   */\n      0x00\n        /* \"#utility.yul\":21782:21791   */\n      dup4\n        /* \"#utility.yul\":21778:21795   */\n      add\n        /* \"#utility.yul\":21769:21775   */\n      dup11\n        /* \"#utility.yul\":21725:21796   */\n      tag_345\n      jump\t// in\n    tag_607:\n        /* \"#utility.yul\":21806:21878   */\n      tag_608\n        /* \"#utility.yul\":21874:21876   */\n      0x20\n        /* \"#utility.yul\":21863:21872   */\n      dup4\n        /* \"#utility.yul\":21859:21877   */\n      add\n        /* \"#utility.yul\":21850:21856   */\n      dup10\n        /* \"#utility.yul\":21806:21878   */\n      tag_348\n      jump\t// in\n    tag_608:\n        /* \"#utility.yul\":21888:21960   */\n      tag_609\n        /* \"#utility.yul\":21956:21958   */\n      0x40\n        /* \"#utility.yul\":21945:21954   */\n      dup4\n        /* \"#utility.yul\":21941:21959   */\n      add\n        /* \"#utility.yul\":21932:21938   */\n      dup9\n        /* \"#utility.yul\":21888:21960   */\n      tag_345\n      jump\t// in\n    tag_609:\n        /* \"#utility.yul\":21970:22042   */\n      tag_610\n        /* \"#utility.yul\":22038:22040   */\n      0x60\n        /* \"#utility.yul\":22027:22036   */\n      dup4\n        /* \"#utility.yul\":22023:22041   */\n      add\n        /* \"#utility.yul\":22014:22020   */\n      dup8\n        /* \"#utility.yul\":21970:22042   */\n      tag_345\n      jump\t// in\n    tag_610:\n        /* \"#utility.yul\":22052:22125   */\n      tag_611\n        /* \"#utility.yul\":22120:22123   */\n      0x80\n        /* \"#utility.yul\":22109:22118   */\n      dup4\n        /* \"#utility.yul\":22105:22124   */\n      add\n        /* \"#utility.yul\":22096:22102   */\n      dup7\n        /* \"#utility.yul\":22052:22125   */\n      tag_345\n      jump\t// in\n    tag_611:\n        /* \"#utility.yul\":22135:22208   */\n      tag_612\n        /* \"#utility.yul\":22203:22206   */\n      0xa0\n        /* \"#utility.yul\":22192:22201   */\n      dup4\n        /* \"#utility.yul\":22188:22207   */\n      add\n        /* \"#utility.yul\":22179:22185   */\n      dup6\n        /* \"#utility.yul\":22135:22208   */\n      tag_345\n      jump\t// in\n    tag_612:\n        /* \"#utility.yul\":22218:22291   */\n      tag_613\n        /* \"#utility.yul\":22286:22289   */\n      0xc0\n        /* \"#utility.yul\":22275:22284   */\n      dup4\n        /* \"#utility.yul\":22271:22290   */\n      add\n        /* \"#utility.yul\":22262:22268   */\n      dup5\n        /* \"#utility.yul\":22218:22291   */\n      tag_345\n      jump\t// in\n    tag_613:\n        /* \"#utility.yul\":21412:22298   */\n      swap9\n      swap8\n      pop\n      pop\n      pop\n      pop\n      pop\n      pop\n      pop\n      pop\n      jump\t// out\n        /* \"#utility.yul\":22304:22485   */\n    tag_381:\n        /* \"#utility.yul\":22444:22477   */\n      0x526f746174696f6e206379636c65206d75737420626520706f73697469766500\n        /* \"#utility.yul\":22440:22441   */\n      0x00\n        /* \"#utility.yul\":22432:22438   */\n      dup3\n        /* \"#utility.yul\":22428:22442   */\n      add\n        /* \"#utility.yul\":22421:22478   */\n      mstore\n        /* \"#utility.yul\":22304:22485   */\n      pop\n      jump\t// out\n        /* \"#utility.yul\":22491:22857   */\n    tag_382:\n        /* \"#utility.yul\":22633:22636   */\n      0x00\n        /* \"#utility.yul\":22654:22721   */\n      tag_616\n        /* \"#utility.yul\":22718:22720   */\n      0x1f\n        /* \"#utility.yul\":22713:22716   */\n      dup4\n        /* \"#utility.yul\":22654:22721   */\n      tag_358\n      jump\t// in\n    tag_616:\n        /* \"#utility.yul\":22647:22721   */\n      swap2\n      pop\n        /* \"#utility.yul\":22730:22823   */\n      tag_617\n        /* \"#utility.yul\":22819:22822   */\n      dup3\n        /* \"#utility.yul\":22730:22823   */\n      tag_381\n      jump\t// in\n    tag_617:\n        /* \"#utility.yul\":22848:22850   */\n      0x20\n        /* \"#utility.yul\":22843:22846   */\n      dup3\n        /* \"#utility.yul\":22839:22851   */\n      add\n        /* \"#utility.yul\":22832:22851   */\n      swap1\n      pop\n        /* \"#utility.yul\":22491:22857   */\n      swap2\n      swap1\n      pop\n      jump\t// out\n        /* \"#utility.yul\":22863:23282   */\n    tag_205:\n        /* \"#utility.yul\":23029:23033   */\n      0x00\n        /* \"#utility.yul\":23067:23069   */\n      0x20\n        /* \"#utility.yul\":23056:23065   */\n      dup3\n        /* \"#utility.yul\":23052:23070   */\n      add\n        /* \"#utility.yul\":23044:23070   */\n      swap1\n      pop\n        /* \"#utility.yul\":23116:23125   */\n      dup2\n        /* \"#utility.yul\":23110:23114   */\n      dup2\n        /* \"#utility.yul\":23106:23126   */\n      sub\n        /* \"#utility.yul\":23102:23103   */\n      0x00\n        /* \"#utility.yul\":23091:23100   */\n      dup4\n        /* \"#utility.yul\":23087:23104   */\n      add\n        /* \"#utility.yul\":23080:23127   */\n      mstore\n        /* \"#utility.yul\":23144:23275   */\n      tag_619\n        /* \"#utility.yul\":23270:23274   */\n      dup2\n        /* \"#utility.yul\":23144:23275   */\n      tag_382\n      jump\t// in\n    tag_619:\n        /* \"#utility.yul\":23136:23275   */\n      swap1\n      pop\n        /* \"#utility.yul\":22863:23282   */\n      swap2\n      swap1\n      pop\n      jump\t// out\n        /* \"#utility.yul\":23288:23512   */\n    tag_383:\n        /* \"#utility.yul\":23428:23462   */\n      0x496e7465726573742064656e6f6d696e61746f72206d75737420626520706f73\n        /* \"#utility.yul\":23424:23425   */\n      0x00\n        /* \"#utility.yul\":23416:23422   */\n      dup3\n        /* \"#utility.yul\":23412:23426   */\n      add\n        /* \"#utility.yul\":23405:23463   */\n      mstore\n        /* \"#utility.yul\":23497:23504   */\n      0x6974697665000000000000000000000000000000000000000000000000000000\n        /* \"#utility.yul\":23492:23494   */\n      0x20\n        /* \"#utility.yul\":23484:23490   */\n      dup3\n        /* \"#utility.yul\":23480:23495   */\n      add\n        /* \"#utility.yul\":23473:23505   */\n      mstore\n        /* \"#utility.yul\":23288:23512   */\n      pop\n      jump\t// out\n        /* \"#utility.yul\":23518:23884   */\n    tag_384:\n        /* \"#utility.yul\":23660:23663   */\n      0x00\n        /* \"#utility.yul\":23681:23748   */\n      tag_622\n        /* \"#utility.yul\":23745:23747   */\n      0x25\n        /* \"#utility.yul\":23740:23743   */\n      dup4\n        /* \"#utility.yul\":23681:23748   */\n      tag_358\n      jump\t// in\n    tag_622:\n        /* \"#utility.yul\":23674:23748   */\n      swap2\n      pop\n        /* \"#utility.yul\":23757:23850   */\n      tag_623\n        /* \"#utility.yul\":23846:23849   */\n      dup3\n        /* \"#utility.yul\":23757:23850   */\n      tag_383\n      jump\t// in\n    tag_623:\n        /* \"#utility.yul\":23875:23877   */\n      0x40\n        /* \"#utility.yul\":23870:23873   */\n      dup3\n        /* \"#utility.yul\":23866:23878   */\n      add\n        /* \"#utility.yul\":23859:23878   */\n      swap1\n      pop\n        /* \"#utility.yul\":23518:23884   */\n      swap2\n      swap1\n      pop\n      jump\t// out\n        /* \"#utility.yul\":23890:24309   */\n    tag_208:\n        /* \"#utility.yul\":24056:24060   */\n      0x00\n        /* \"#utility.yul\":24094:24096   */\n      0x20\n        /* \"#utility.yul\":24083:24092   */\n      dup3\n        /* \"#utility.yul\":24079:24097   */\n      add\n        /* \"#utility.yul\":24071:24097   */\n      swap1\n      pop\n        /* \"#utility.yul\":24143:24152   */\n      dup2\n        /* \"#utility.yul\":24137:24141   */\n      dup2\n        /* \"#utility.yul\":24133:24153   */\n      sub\n        /* \"#utility.yul\":24129:24130   */\n      0x00\n        /* \"#utility.yul\":24118:24127   */\n      dup4\n        /* \"#utility.yul\":24114:24131   */\n      add\n        /* \"#utility.yul\":24107:24154   */\n      mstore\n        /* \"#utility.yul\":24171:24302   */\n      tag_625\n        /* \"#utility.yul\":24297:24301   */\n      dup2\n        /* \"#utility.yul\":24171:24302   */\n      tag_384\n      jump\t// in\n    tag_625:\n        /* \"#utility.yul\":24163:24302   */\n      swap1\n      pop\n        /* \"#utility.yul\":23890:24309   */\n      swap2\n      swap1\n      pop\n      jump\t// out\n        /* \"#utility.yul\":24315:24553   */\n    tag_385:\n        /* \"#utility.yul\":24455:24489   */\n      0x4e756d657261746f72206d757374206265206c657373207468616e206f722065\n        /* \"#utility.yul\":24451:24452   */\n      0x00\n        /* \"#utility.yul\":24443:24449   */\n      dup3\n        /* \"#utility.yul\":24439:24453   */\n      add\n        /* \"#utility.yul\":24432:24490   */\n      mstore\n        /* \"#utility.yul\":24524:24545   */\n      0x7175616c20746f2064656e6f6d696e61746f7200000000000000000000000000\n        /* \"#utility.yul\":24519:24521   */\n      0x20\n        /* \"#utility.yul\":24511:24517   */\n      dup3\n        /* \"#utility.yul\":24507:24522   */\n      add\n        /* \"#utility.yul\":24500:24546   */\n      mstore\n        /* \"#utility.yul\":24315:24553   */\n      pop\n      jump\t// out\n        /* \"#utility.yul\":24559:24925   */\n    tag_386:\n        /* \"#utility.yul\":24701:24704   */\n      0x00\n        /* \"#utility.yul\":24722:24789   */\n      tag_628\n        /* \"#utility.yul\":24786:24788   */\n      0x33\n        /* \"#utility.yul\":24781:24784   */\n      dup4\n        /* \"#utility.yul\":24722:24789   */\n      tag_358\n      jump\t// in\n    tag_628:\n        /* \"#utility.yul\":24715:24789   */\n      swap2\n      pop\n        /* \"#utility.yul\":24798:24891   */\n      tag_629\n        /* \"#utility.yul\":24887:24890   */\n      dup3\n        /* \"#utility.yul\":24798:24891   */\n      tag_385\n      jump\t// in\n    tag_629:\n        /* \"#utility.yul\":24916:24918   */\n      0x40\n        /* \"#utility.yul\":24911:24914   */\n      dup3\n        /* \"#utility.yul\":24907:24919   */\n      add\n        /* \"#utility.yul\":24900:24919   */\n      swap1\n      pop\n        /* \"#utility.yul\":24559:24925   */\n      swap2\n      swap1\n      pop\n      jump\t// out\n        /* \"#utility.yul\":24931:25350   */\n    tag_211:\n        /* \"#utility.yul\":25097:25101   */\n      0x00\n        /* \"#utility.yul\":25135:25137   */\n      0x20\n        /* \"#utility.yul\":25124:25133   */\n      dup3\n        /* \"#utility.yul\":25120:25138   */\n      add\n        /* \"#utility.yul\":25112:25138   */\n      swap1\n      pop\n        /* \"#utility.yul\":25184:25193   */\n      dup2\n        /* \"#utility.yul\":25178:25182   */\n      dup2\n        /* \"#utility.yul\":25174:25194   */\n      sub\n        /* \"#utility.yul\":25170:25171   */\n      0x00\n        /* \"#utility.yul\":25159:25168   */\n      dup4\n        /* \"#utility.yul\":25155:25172   */\n      add\n        /* \"#utility.yul\":25148:25195   */\n      mstore\n        /* \"#utility.yul\":25212:25343   */\n      tag_631\n        /* \"#utility.yul\":25338:25342   */\n      dup2\n        /* \"#utility.yul\":25212:25343   */\n      tag_386\n      jump\t// in\n    tag_631:\n        /* \"#utility.yul\":25204:25343   */\n      swap1\n      pop\n        /* \"#utility.yul\":24931:25350   */\n      swap2\n      swap1\n      pop\n      jump\t// out\n        /* \"#utility.yul\":25356:25589   */\n    tag_213:\n        /* \"#utility.yul\":25395:25398   */\n      0x00\n        /* \"#utility.yul\":25418:25442   */\n      tag_633\n        /* \"#utility.yul\":25436:25441   */\n      dup3\n        /* \"#utility.yul\":25418:25442   */\n      tag_335\n      jump\t// in\n    tag_633:\n        /* \"#utility.yul\":25409:25442   */\n      swap2\n      pop\n        /* \"#utility.yul\":25464:25530   */\n      0xffffffffffffffffffffffffffffffffffffffffffffffffffffffffffffffff\n        /* \"#utility.yul\":25457:25462   */\n      dup3\n        /* \"#utility.yul\":25454:25531   */\n      sub\n        /* \"#utility.yul\":25451:25554   */\n      tag_634\n      jumpi\n        /* \"#utility.yul\":25534:25552   */\n      tag_635\n      tag_363\n      jump\t// in\n    tag_635:\n        /* \"#utility.yul\":25451:25554   */\n    tag_634:\n        /* \"#utility.yul\":25581:25582   */\n      0x01\n        /* \"#utility.yul\":25574:25579   */\n      dup3\n        /* \"#utility.yul\":25570:25583   */\n      add\n        /* \"#utility.yul\":25563:25583   */\n      swap1\n      pop\n        /* \"#utility.yul\":25356:25589   */\n      swap2\n      swap1\n      pop\n      jump\t// out\n        /* \"#utility.yul\":25595:25823   */\n    tag_387:\n        /* \"#utility.yul\":25735:25769   */\n      0x43726561746f722073686f756c64206465706f7369742074686520696e697469\n        /* \"#utility.yul\":25731:25732   */\n      0x00\n        /* \"#utility.yul\":25723:25729   */\n      dup3\n        /* \"#utility.yul\":25719:25733   */\n      add\n        /* \"#utility.yul\":25712:25770   */\n      mstore\n        /* \"#utility.yul\":25804:25815   */\n      0x616c20616d6f756e740000000000000000000000000000000000000000000000\n        /* \"#utility.yul\":25799:25801   */\n      0x20\n        /* \"#utility.yul\":25791:25797   */\n      dup3\n        /* \"#utility.yul\":25787:25802   */\n      add\n        /* \"#utility.yul\":25780:25816   */\n      mstore\n        /* \"#utility.yul\":25595:25823   */\n      pop\n      jump\t// out\n        /* \"#utility.yul\":25829:26195   */\n    tag_388:\n        /* \"#utility.yul\":25971:25974   */\n      0x00\n        /* \"#utility.yul\":25992:26059   */\n      tag_638\n        /* \"#utility.yul\":26056:26058   */\n      0x29\n        /* \"#utility.yul\":26051:26054   */\n      dup4\n        /* \"#utility.yul\":25992:26059   */\n      tag_358\n      jump\t// in\n    tag_638:\n        /* \"#utility.yul\":25985:26059   */\n      swap2\n      pop\n        /* \"#utility.yul\":26068:26161   */\n      tag_639\n        /* \"#utility.yul\":26157:26160   */\n      dup3\n        /* \"#utility.yul\":26068:26161   */\n      tag_387\n      jump\t// in\n    tag_639:\n        /* \"#utility.yul\":26186:26188   */\n      0x40\n        /* \"#utility.yul\":26181:26184   */\n      dup3\n        /* \"#utility.yul\":26177:26189   */\n      add\n        /* \"#utility.yul\":26170:26189   */\n      swap1\n      pop\n        /* \"#utility.yul\":25829:26195   */\n      swap2\n      swap1\n      pop\n      jump\t// out\n        /* \"#utility.yul\":26201:26620   */\n    tag_221:\n        /* \"#utility.yul\":26367:26371   */\n      0x00\n        /* \"#utility.yul\":26405:26407   */\n      0x20\n        /* \"#utility.yul\":26394:26403   */\n      dup3\n        /* \"#utility.yul\":26390:26408   */\n      add\n        /* \"#utility.yul\":26382:26408   */\n      swap1\n      pop\n        /* \"#utility.yul\":26454:26463   */\n      dup2\n        /* \"#utility.yul\":26448:26452   */\n      dup2\n        /* \"#utility.yul\":26444:26464   */\n      sub\n        /* \"#utility.yul\":26440:26441   */\n      0x00\n        /* \"#utility.yul\":26429:26438   */\n      dup4\n        /* \"#utility.yul\":26425:26442   */\n      add\n        /* \"#utility.yul\":26418:26465   */\n      mstore\n        /* \"#utility.yul\":26482:26613   */\n      tag_641\n        /* \"#utility.yul\":26608:26612   */\n      dup2\n        /* \"#utility.yul\":26482:26613   */\n      tag_388\n      jump\t// in\n    tag_641:\n        /* \"#utility.yul\":26474:26613   */\n      swap1\n      pop\n        /* \"#utility.yul\":26201:26620   */\n      swap2\n      swap1\n      pop\n      jump\t// out\n        /* \"#utility.yul\":26626:26855   */\n    tag_389:\n        /* \"#utility.yul\":26766:26800   */\n      0x4f6e6c792074686520706f742063726561746f722063616e2072657665616c20\n        /* \"#utility.yul\":26762:26763   */\n      0x00\n        /* \"#utility.yul\":26754:26760   */\n      dup3\n        /* \"#utility.yul\":26750:26764   */\n      add\n        /* \"#utility.yul\":26743:26801   */\n      mstore\n        /* \"#utility.yul\":26835:26847   */\n      0x7468652077696e6e657200000000000000000000000000000000000000000000\n        /* \"#utility.yul\":26830:26832   */\n      0x20\n        /* \"#utility.yul\":26822:26828   */\n      dup3\n        /* \"#utility.yul\":26818:26833   */\n      add\n        /* \"#utility.yul\":26811:26848   */\n      mstore\n        /* \"#utility.yul\":26626:26855   */\n      pop\n      jump\t// out\n        /* \"#utility.yul\":26861:27227   */\n    tag_390:\n        /* \"#utility.yul\":27003:27006   */\n      0x00\n        /* \"#utility.yul\":27024:27091   */\n      tag_644\n        /* \"#utility.yul\":27088:27090   */\n      0x2a\n        /* \"#utility.yul\":27083:27086   */\n      dup4\n        /* \"#utility.yul\":27024:27091   */\n      tag_358\n      jump\t// in\n    tag_644:\n        /* \"#utility.yul\":27017:27091   */\n      swap2\n      pop\n        /* \"#utility.yul\":27100:27193   */\n      tag_645\n        /* \"#utility.yul\":27189:27192   */\n      dup3\n        /* \"#utility.yul\":27100:27193   */\n      tag_389\n      jump\t// in\n    tag_645:\n        /* \"#utility.yul\":27218:27220   */\n      0x40\n        /* \"#utility.yul\":27213:27216   */\n      dup3\n        /* \"#utility.yul\":27209:27221   */\n      add\n        /* \"#utility.yul\":27202:27221   */\n      swap1\n      pop\n        /* \"#utility.yul\":26861:27227   */\n      swap2\n      swap1\n      pop\n      jump\t// out\n        /* \"#utility.yul\":27233:27652   */\n    tag_228:\n        /* \"#utility.yul\":27399:27403   */\n      0x00\n        /* \"#utility.yul\":27437:27439   */\n      0x20\n        /* \"#utility.yul\":27426:27435   */\n      dup3\n        /* \"#utility.yul\":27422:27440   */\n      add\n        /* \"#utility.yul\":27414:27440   */\n      swap1\n      pop\n        /* \"#utility.yul\":27486:27495   */\n      dup2\n        /* \"#utility.yul\":27480:27484   */\n      dup2\n        /* \"#utility.yul\":27476:27496   */\n      sub\n        /* \"#utility.yul\":27472:27473   */\n      0x00\n        /* \"#utility.yul\":27461:27470   */\n      dup4\n        /* \"#utility.yul\":27457:27474   */\n      add\n        /* \"#utility.yul\":27450:27497   */\n      mstore\n        /* \"#utility.yul\":27514:27645   */\n      tag_647\n        /* \"#utility.yul\":27640:27644   */\n      dup2\n        /* \"#utility.yul\":27514:27645   */\n      tag_390\n      jump\t// in\n    tag_647:\n        /* \"#utility.yul\":27506:27645   */\n      swap1\n      pop\n        /* \"#utility.yul\":27233:27652   */\n      swap2\n      swap1\n      pop\n      jump\t// out\n        /* \"#utility.yul\":27658:27849   */\n    tag_230:\n        /* \"#utility.yul\":27698:27701   */\n      0x00\n        /* \"#utility.yul\":27717:27737   */\n      tag_649\n        /* \"#utility.yul\":27735:27736   */\n      dup3\n        /* \"#utility.yul\":27717:27737   */\n      tag_335\n      jump\t// in\n    tag_649:\n        /* \"#utility.yul\":27712:27737   */\n      swap2\n      pop\n        /* \"#utility.yul\":27751:27771   */\n      tag_650\n        /* \"#utility.yul\":27769:27770   */\n      dup4\n        /* \"#utility.yul\":27751:27771   */\n      tag_335\n      jump\t// in\n    tag_650:\n        /* \"#utility.yul\":27746:27771   */\n      swap3\n      pop\n        /* \"#utility.yul\":27794:27795   */\n      dup3\n        /* \"#utility.yul\":27791:27792   */\n      dup3\n        /* \"#utility.yul\":27787:27796   */\n      add\n        /* \"#utility.yul\":27780:27796   */\n      swap1\n      pop\n        /* \"#utility.yul\":27815:27818   */\n      dup1\n        /* \"#utility.yul\":27812:27813   */\n      dup3\n        /* \"#utility.yul\":27809:27819   */\n      gt\n        /* \"#utility.yul\":27806:27842   */\n      iszero\n      tag_651\n      jumpi\n        /* \"#utility.yul\":27822:27840   */\n      tag_652\n      tag_363\n      jump\t// in\n    tag_652:\n        /* \"#utility.yul\":27806:27842   */\n    tag_651:\n        /* \"#utility.yul\":27658:27849   */\n      swap3\n      swap2\n      pop\n      pop\n      jump\t// out\n        /* \"#utility.yul\":27855:28030   */\n    tag_391:\n        /* \"#utility.yul\":27995:28022   */\n      0x4e65787420726f746174696f6e206e6f74207965742064756500000000000000\n        /* \"#utility.yul\":27991:27992   */\n      0x00\n        /* \"#utility.yul\":27983:27989   */\n      dup3\n        /* \"#utility.yul\":27979:27993   */\n      add\n        /* \"#utility.yul\":27972:28023   */\n      mstore\n        /* \"#utility.yul\":27855:28030   */\n      pop\n      jump\t// out\n        /* \"#utility.yul\":28036:28402   */\n    tag_392:\n        /* \"#utility.yul\":28178:28181   */\n      0x00\n        /* \"#utility.yul\":28199:28266   */\n      tag_655\n        /* \"#utility.yul\":28263:28265   */\n      0x19\n        /* \"#utility.yul\":28258:28261   */\n      dup4\n        /* \"#utility.yul\":28199:28266   */\n      tag_358\n      jump\t// in\n    tag_655:\n        /* \"#utility.yul\":28192:28266   */\n      swap2\n      pop\n        /* \"#utility.yul\":28275:28368   */\n      tag_656\n        /* \"#utility.yul\":28364:28367   */\n      dup3\n        /* \"#utility.yul\":28275:28368   */\n      tag_391\n      jump\t// in\n    tag_656:\n        /* \"#utility.yul\":28393:28395   */\n      0x20\n        /* \"#utility.yul\":28388:28391   */\n      dup3\n        /* \"#utility.yul\":28384:28396   */\n      add\n        /* \"#utility.yul\":28377:28396   */\n      swap1\n      pop\n        /* \"#utility.yul\":28036:28402   */\n      swap2\n      swap1\n      pop\n      jump\t// out\n        /* \"#utility.yul\":28408:28827   */\n    tag_233:\n        /* \"#utility.yul\":28574:28578   */\n      0x00\n        /* \"#utility.yul\":28612:28614   */\n      0x20\n        /* \"#utility.yul\":28601:28610   */\n      dup3\n        /* \"#utility.yul\":28597:28615   */\n      add\n        /* \"#utility.yul\":28589:28615   */\n      swap1\n      pop\n        /* \"#utility.yul\":28661:28670   */\n      dup2\n        /* \"#utility.yul\":28655:28659   */\n      dup2\n        /* \"#utility.yul\":28651:28671   */\n      sub\n        /* \"#utility.yul\":28647:28648   */\n      0x00\n        /* \"#utility.yul\":28636:28645   */\n      dup4\n        /* \"#utility.yul\":28632:28649   */\n      add\n        /* \"#utility.yul\":28625:28672   */\n      mstore\n        /* \"#utility.yul\":28689:28820   */\n      tag_658\n        /* \"#utility.yul\":28815:28819   */\n      dup2\n        /* \"#utility.yul\":28689:28820   */\n      tag_392\n      jump\t// in\n    tag_658:\n        /* \"#utility.yul\":28681:28820   */\n      swap1\n      pop\n        /* \"#utility.yul\":28408:28827   */\n      swap2\n      swap1\n      pop\n      jump\t// out\n        /* \"#utility.yul\":28833:29013   */\n    tag_393:\n        /* \"#utility.yul\":28881:28958   */\n      0x4e487b7100000000000000000000000000000000000000000000000000000000\n        /* \"#utility.yul\":28878:28879   */\n      0x00\n        /* \"#utility.yul\":28871:28959   */\n      mstore\n        /* \"#utility.yul\":28978:28982   */\n      0x12\n        /* \"#utility.yul\":28975:28976   */\n      0x04\n        /* \"#utility.yul\":28968:28983   */\n      mstore\n        /* \"#utility.yul\":29002:29006   */\n      0x24\n        /* \"#utility.yul\":28999:29000   */\n      0x00\n        /* \"#utility.yul\":28992:29007   */\n      revert\n        /* \"#utility.yul\":29019:29195   */\n    tag_235:\n        /* \"#utility.yul\":29051:29052   */\n      0x00\n        /* \"#utility.yul\":29068:29088   */\n      tag_661\n        /* \"#utility.yul\":29086:29087   */\n      dup3\n        /* \"#utility.yul\":29068:29088   */\n      tag_335\n      jump\t// in\n    tag_661:\n        /* \"#utility.yul\":29063:29088   */\n      swap2\n      pop\n        /* \"#utility.yul\":29102:29122   */\n      tag_662\n        /* \"#utility.yul\":29120:29121   */\n      dup4\n        /* \"#utility.yul\":29102:29122   */\n      tag_335\n      jump\t// in\n    tag_662:\n        /* \"#utility.yul\":29097:29122   */\n      swap3\n      pop\n        /* \"#utility.yul\":29141:29142   */\n      dup3\n        /* \"#utility.yul\":29131:29166   */\n      tag_663\n      jumpi\n        /* \"#utility.yul\":29146:29164   */\n      tag_664\n      tag_393\n      jump\t// in\n    tag_664:\n        /* \"#utility.yul\":29131:29166   */\n    tag_663:\n        /* \"#utility.yul\":29187:29188   */\n      dup3\n        /* \"#utility.yul\":29184:29185   */\n      dup3\n        /* \"#utility.yul\":29180:29189   */\n      mod\n        /* \"#utility.yul\":29175:29189   */\n      swap1\n      pop\n        /* \"#utility.yul\":29019:29195   */\n      swap3\n      swap2\n      pop\n      pop\n      jump\t// out\n        /* \"#utility.yul\":29201:29381   */\n    tag_238:\n        /* \"#utility.yul\":29249:29326   */\n      0x4e487b7100000000000000000000000000000000000000000000000000000000\n        /* \"#utility.yul\":29246:29247   */\n      0x00\n        /* \"#utility.yul\":29239:29327   */\n      mstore\n        /* \"#utility.yul\":29346:29350   */\n      0x32\n        /* \"#utility.yul\":29343:29344   */\n      0x04\n        /* \"#utility.yul\":29336:29351   */\n      mstore\n        /* \"#utility.yul\":29370:29374   */\n      0x24\n        /* \"#utility.yul\":29367:29368   */\n      0x00\n        /* \"#utility.yul\":29360:29375   */\n      revert\n        /* \"#utility.yul\":29387:29797   */\n    tag_241:\n        /* \"#utility.yul\":29427:29434   */\n      0x00\n        /* \"#utility.yul\":29450:29470   */\n      tag_667\n        /* \"#utility.yul\":29468:29469   */\n      dup3\n        /* \"#utility.yul\":29450:29470   */\n      tag_335\n      jump\t// in\n    tag_667:\n        /* \"#utility.yul\":29445:29470   */\n      swap2\n      pop\n        /* \"#utility.yul\":29484:29504   */\n      tag_668\n        /* \"#utility.yul\":29502:29503   */\n      dup4\n        /* \"#utility.yul\":29484:29504   */\n      tag_335\n      jump\t// in\n    tag_668:\n        /* \"#utility.yul\":29479:29504   */\n      swap3\n      pop\n        /* \"#utility.yul\":29539:29540   */\n      dup3\n        /* \"#utility.yul\":29536:29537   */\n      dup3\n        /* \"#utility.yul\":29532:29541   */\n      mul\n        /* \"#utility.yul\":29561:29591   */\n      tag_669\n        /* \"#utility.yul\":29579:29590   */\n      dup2\n        /* \"#utility.yul\":29561:29591   */\n      tag_335\n      jump\t// in\n    tag_669:\n        /* \"#utility.yul\":29550:29591   */\n      swap2\n      pop\n        /* \"#utility.yul\":29740:29741   */\n      dup3\n        /* \"#utility.yul\":29731:29738   */\n      dup3\n        /* \"#utility.yul\":29727:29742   */\n      div\n        /* \"#utility.yul\":29724:29725   */\n      dup5\n        /* \"#utility.yul\":29721:29743   */\n      eq\n        /* \"#utility.yul\":29701:29702   */\n      dup4\n        /* \"#utility.yul\":29694:29703   */\n      iszero\n        /* \"#utility.yul\":29674:29757   */\n      or\n        /* \"#utility.yul\":29651:29790   */\n      tag_670\n      jumpi\n        /* \"#utility.yul\":29770:29788   */\n      tag_671\n      tag_363\n      jump\t// in\n    tag_671:\n        /* \"#utility.yul\":29651:29790   */\n    tag_670:\n        /* \"#utility.yul\":29435:29797   */\n      pop\n        /* \"#utility.yul\":29387:29797   */\n      swap3\n      swap2\n      pop\n      pop\n      jump\t// out\n        /* \"#utility.yul\":29803:30245   */\n    tag_251:\n        /* \"#utility.yul\":29952:29956   */\n      0x00\n        /* \"#utility.yul\":29990:29992   */\n      0x60\n        /* \"#utility.yul\":29979:29988   */\n      dup3\n        /* \"#utility.yul\":29975:29993   */\n      add\n        /* \"#utility.yul\":29967:29993   */\n      swap1\n      pop\n        /* \"#utility.yul\":30003:30074   */\n      tag_673\n        /* \"#utility.yul\":30071:30072   */\n      0x00\n        /* \"#utility.yul\":30060:30069   */\n      dup4\n        /* \"#utility.yul\":30056:30073   */\n      add\n        /* \"#utility.yul\":30047:30053   */\n      dup7\n        /* \"#utility.yul\":30003:30074   */\n      tag_345\n      jump\t// in\n    tag_673:\n        /* \"#utility.yul\":30084:30156   */\n      tag_674\n        /* \"#utility.yul\":30152:30154   */\n      0x20\n        /* \"#utility.yul\":30141:30150   */\n      dup4\n        /* \"#utility.yul\":30137:30155   */\n      add\n        /* \"#utility.yul\":30128:30134   */\n      dup6\n        /* \"#utility.yul\":30084:30156   */\n      tag_348\n      jump\t// in\n    tag_674:\n        /* \"#utility.yul\":30166:30238   */\n      tag_675\n        /* \"#utility.yul\":30234:30236   */\n      0x40\n        /* \"#utility.yul\":30223:30232   */\n      dup4\n        /* \"#utility.yul\":30219:30237   */\n      add\n        /* \"#utility.yul\":30210:30216   */\n      dup5\n        /* \"#utility.yul\":30166:30238   */\n      tag_345\n      jump\t// in\n    tag_675:\n        /* \"#utility.yul\":29803:30245   */\n      swap5\n      swap4\n      pop\n      pop\n      pop\n      pop\n      jump\t// out\n        /* \"#utility.yul\":30251:30436   */\n    tag_256:\n        /* \"#utility.yul\":30291:30292   */\n      0x00\n        /* \"#utility.yul\":30308:30328   */\n      tag_677\n        /* \"#utility.yul\":30326:30327   */\n      dup3\n        /* \"#utility.yul\":30308:30328   */\n      tag_335\n      jump\t// in\n    tag_677:\n        /* \"#utility.yul\":30303:30328   */\n      swap2\n      pop\n        /* \"#utility.yul\":30342:30362   */\n      tag_678\n        /* \"#utility.yul\":30360:30361   */\n      dup4\n        /* \"#utility.yul\":30342:30362   */\n      tag_335\n      jump\t// in\n    tag_678:\n        /* \"#utility.yul\":30337:30362   */\n      swap3\n      pop\n        /* \"#utility.yul\":30381:30382   */\n      dup3\n        /* \"#utility.yul\":30371:30406   */\n      tag_679\n      jumpi\n        /* \"#utility.yul\":30386:30404   */\n      tag_680\n      tag_393\n      jump\t// in\n    tag_680:\n        /* \"#utility.yul\":30371:30406   */\n    tag_679:\n        /* \"#utility.yul\":30428:30429   */\n      dup3\n        /* \"#utility.yul\":30425:30426   */\n      dup3\n        /* \"#utility.yul\":30421:30430   */\n      div\n        /* \"#utility.yul\":30416:30430   */\n      swap1\n      pop\n        /* \"#utility.yul\":30251:30436   */\n      swap3\n      swap2\n      pop\n      pop\n      jump\t// out\n\n    auxdata: 0xa26469706673582212203e8355dca0edee0bf52874681eb29ad4b356c72d3ddab6c396763900a7c702a564736f6c63430008180033\n}\n",
				"bytecode": {
					"linkReferences": {},
					"object": "60806040526001805534801562000014575f80fd5b5073420000000000000000000000000000000000002273ffffffffffffffffffffffffffffffffffffffff16631a33757d60026040518263ffffffff1660e01b8152600401620000659190620001f0565b6020604051808303815f875af115801562000082573d5f803e3d5ffd5b505050506040513d601f19601f82011682018060405250810190620000a8919062000247565b5073420000000000000000000000000000000000002260035f6101000a81548173ffffffffffffffffffffffffffffffffffffffff021916908373ffffffffffffffffffffffffffffffffffffffff16021790555073430000000000000000000000000000000000000273ffffffffffffffffffffffffffffffffffffffff16634e606c476040518163ffffffff1660e01b81526004015f604051808303815f87803b15801562000157575f80fd5b505af11580156200016a573d5f803e3d5ffd5b5050505062000277565b7f4e487b71000000000000000000000000000000000000000000000000000000005f52602160045260245ffd5b60038110620001b557620001b462000174565b5b50565b5f819050620001c782620001a1565b919050565b5f620001d882620001b8565b9050919050565b620001ea81620001cc565b82525050565b5f602082019050620002055f830184620001df565b92915050565b5f80fd5b5f819050919050565b62000223816200020f565b81146200022e575f80fd5b50565b5f81519050620002418162000218565b92915050565b5f602082840312156200025f576200025e6200020b565b5b5f6200026e8482850162000231565b91505092915050565b6127f180620002855f395ff3fe608060405260043610610113575f3560e01c80638129fc1c1161009f578063c3c3df4f11610063578063c3c3df4f14610313578063ca0ea3d114610356578063ef922b871461037e578063efdd7c07146103a6578063f2fde38b146103e257610113565b80638129fc1c14610263578063831d49ef146102795780638da5cb5b1461029557806397d75776146102bf578063bf2d9e0b146102e957610113565b806361e7d805116100e657806361e7d805146101ab578063715018a6146101d357806373b2e80e146101e957806377d5d2dc146102255780637cb647591461023b57610113565b80632eb4a7ab1461011757806331a0edec14610141578063409a33ce1461016b5780634a80409e14610181575b5f80fd5b348015610122575f80fd5b5061012b61040a565b6040516101389190611899565b60405180910390f35b34801561014c575f80fd5b5061015561040f565b604051610162919061192c565b60405180910390f35b348015610176575f80fd5b5061017f610427565b005b34801561018c575f80fd5b5061019561054c565b6040516101a29190611965565b60405180910390f35b3480156101b6575f80fd5b506101d160048036038101906101cc9190611a1a565b610571565b005b3480156101de575f80fd5b506101e76107df565b005b3480156101f4575f80fd5b5061020f600480360381019061020a9190611ab2565b6107f2565b60405161021c9190611aec565b60405180910390f35b348015610230575f80fd5b50610239610807565b005b348015610246575f80fd5b50610261600480360381019061025c9190611b2f565b6108a1565b005b34801561026e575f80fd5b506102776108b2565b005b610293600480360381019061028e9190611b5a565b610a32565b005b3480156102a0575f80fd5b506102a9610d48565b6040516102b69190611b94565b60405180910390f35b3480156102ca575f80fd5b506102d3610d7d565b6040516102e09190611bcd565b60405180910390f35b3480156102f4575f80fd5b506102fd610d95565b60405161030a9190611aec565b60405180910390f35b34801561031e575f80fd5b5061033960048036038101906103349190611b5a565b610d9b565b60405161034d989796959493929190611be6565b60405180910390f35b348015610361575f80fd5b5061037c60048036038101906103779190611c62565b610dfe565b005b348015610389575f80fd5b506103a4600480360381019061039f9190611b5a565b6110c4565b005b3480156103b1575f80fd5b506103cc60048036038101906103c79190611cd9565b61139c565b6040516103d99190611aec565b60405180910390f35b3480156103ed575f80fd5b5061040860048036038101906104039190611ab2565b6113d9565b005b5f5481565b73420000000000000000000000000000000000002281565b61042f61145d565b73420000000000000000000000000000000000002273ffffffffffffffffffffffffffffffffffffffff1663aad3ec963073420000000000000000000000000000000000002273ffffffffffffffffffffffffffffffffffffffff1663e12f3a61306040518263ffffffff1660e01b81526004016104ad9190611b94565b602060405180830381865afa1580156104c8573d5f803e3d5ffd5b505050506040513d601f19601f820116820180604052508101906104ec9190611d2b565b6040518363ffffffff1660e01b8152600401610509929190611d56565b6020604051808303815f875af1158015610525573d5f803e3d5ffd5b505050506040513d601f19601f820116820180604052508101906105499190611d2b565b50565b60035f9054906101000a900473ffffffffffffffffffffffffffffffffffffffff1681565b5f3384604051602001610585929190611de2565b6040516020818303038152906040528051906020012090506105e98383808060200260200160405190810160405280939291908181526020018383602002808284375f81840152601f19601f820116905080830192505050505050505f54836114e4565b610628576040517f08c379a000000000000000000000000000000000000000000000000000000000815260040161061f90611e67565b60405180910390fd5b5f60045f3373ffffffffffffffffffffffffffffffffffffffff1673ffffffffffffffffffffffffffffffffffffffff1681526020019081526020015f205490508481106106ab576040517f08c379a00000000000000000000000000000000000000000000000000000000081526004016106a290611ef5565b60405180910390fd5b5f81866106b89190611f40565b90508560045f3373ffffffffffffffffffffffffffffffffffffffff1673ffffffffffffffffffffffffffffffffffffffff1681526020019081526020015f208190555060035f9054906101000a900473ffffffffffffffffffffffffffffffffffffffff1673ffffffffffffffffffffffffffffffffffffffff1663a9059cbb33836040518363ffffffff1660e01b8152600401610758929190611d56565b6020604051808303815f875af1158015610774573d5f803e3d5ffd5b505050506040513d601f19601f820116820180604052508101906107989190611fa8565b6107d7576040517f08c379a00000000000000000000000000000000000000000000000000000000081526004016107ce9061201d565b60405180910390fd5b505050505050565b6107e761145d565b6107f05f6114fa565b565b6004602052805f5260405f205f915090505481565b61080f61145d565b73430000000000000000000000000000000000000273ffffffffffffffffffffffffffffffffffffffff1663954fa5ee30306040518363ffffffff1660e01b815260040161085e92919061203b565b6020604051808303815f875af115801561087a573d5f803e3d5ffd5b505050506040513d601f19601f8201168201806040525081019061089e9190611d2b565b50565b6108a961145d565b805f8190555050565b5f6108bb6115cb565b90505f815f0160089054906101000a900460ff161590505f825f015f9054906101000a900467ffffffffffffffff1690505f808267ffffffffffffffff161480156109035750825b90505f60018367ffffffffffffffff1614801561093657505f3073ffffffffffffffffffffffffffffffffffffffff163b145b905081158015610944575080155b1561097b576040517ff92ee8a900000000000000000000000000000000000000000000000000000000815260040160405180910390fd5b6001855f015f6101000a81548167ffffffffffffffff021916908367ffffffffffffffff16021790555083156109c8576001855f0160086101000a81548160ff0219169083151502179055505b6109d1336115f2565b8315610a2b575f855f0160086101000a81548160ff0219169083151502179055507fc7f505b2f371ae2175ee4913f4499e1f2633a7b5936321eed1cdaeb6115181d26001604051610a2291906120ae565b60405180910390a15b5050505050565b5f60055f8381526020019081526020015f2090508060050154816008018054905010610a93576040517f08c379a0000000000000000000000000000000000000000000000000000000008152600401610a8a90612111565b60405180910390fd5b6001816006015410610ada576040517f08c379a0000000000000000000000000000000000000000000000000000000008152600401610ad190612179565b60405180910390fd5b5f816009015f3373ffffffffffffffffffffffffffffffffffffffff1673ffffffffffffffffffffffffffffffffffffffff1681526020019081526020015f205414610b5b576040517f08c379a0000000000000000000000000000000000000000000000000000000008152600401610b52906121e1565b60405180910390fd5b5f610b68825f0154611606565b905060035f9054906101000a900473ffffffffffffffffffffffffffffffffffffffff1673ffffffffffffffffffffffffffffffffffffffff166323b872dd3330846040518463ffffffff1660e01b8152600401610bc8939291906121ff565b6020604051808303815f875af1158015610be4573d5f803e3d5ffd5b505050506040513d601f19601f82011682018060405250810190610c089190611fa8565b610c47576040517f08c379a0000000000000000000000000000000000000000000000000000000008152600401610c3e9061227e565b60405180910390fd5b80826009015f3373ffffffffffffffffffffffffffffffffffffffff1673ffffffffffffffffffffffffffffffffffffffff1681526020019081526020015f20819055508160080133908060018154018082558091505060019003905f5260205f20015f9091909190916101000a81548173ffffffffffffffffffffffffffffffffffffffff021916908373ffffffffffffffffffffffffffffffffffffffff1602179055507f7940335f2934b328362e6c325cd06ad0bc653662a5d556304d09ef5c2cc74a768333845f01548560010154866003015487600401548860050154604051610d3b979695949392919061229c565b60405180910390a1505050565b5f80610d52611643565b9050805f015f9054906101000a900473ffffffffffffffffffffffffffffffffffffffff1691505090565b73430000000000000000000000000000000000000281565b60025481565b6005602052805f5260405f205f91509050805f015490806001015490806002015490806003015490806004015490806005015490806006015490806007015f9054906101000a900473ffffffffffffffffffffffffffffffffffffffff16905088565b5f8511610e40576040517f08c379a0000000000000000000000000000000000000000000000000000000008152600401610e3790612353565b60405180910390fd5b5f8411610e82576040517f08c379a0000000000000000000000000000000000000000000000000000000008152600401610e79906123e1565b60405180910390fd5b83831115610ec5576040517f08c379a0000000000000000000000000000000000000000000000000000000008152600401610ebc9061246f565b60405180910390fd5b5f60015f815480929190610ed89061248d565b91905055905060605f610eea84611606565b905060035f9054906101000a900473ffffffffffffffffffffffffffffffffffffffff1673ffffffffffffffffffffffffffffffffffffffff166323b872dd3330846040518463ffffffff1660e01b8152600401610f4a939291906121ff565b6020604051808303815f875af1158015610f66573d5f803e3d5ffd5b505050506040513d601f19601f82011682018060405250810190610f8a9190611fa8565b610fc9576040517f08c379a0000000000000000000000000000000000000000000000000000000008152600401610fc090612544565b60405180910390fd5b5f60055f8581526020019081526020015f20905084815f018190555033816007015f6101000a81548173ffffffffffffffffffffffffffffffffffffffff021916908373ffffffffffffffffffffffffffffffffffffffff1602179055508881600101819055508681600301819055508781600401819055504281600201819055508581600501819055505f8160060181905550828160080190805190602001906110759291906117df565b507fbf5a50c239a5f6ef5cf2dcc347e3402e3b8ca1424a9e01c38ec78d2406cbd8e08433878c8b8d8c6040516110b1979695949392919061229c565b60405180910390a1505050505050505050565b3373ffffffffffffffffffffffffffffffffffffffff1660055f8381526020019081526020015f206007015f9054906101000a900473ffffffffffffffffffffffffffffffffffffffff1673ffffffffffffffffffffffffffffffffffffffff1614611165576040517f08c379a000000000000000000000000000000000000000000000000000000000815260040161115c906125d2565b60405180910390fd5b5f60055f8381526020019081526020015f2090508060010154816002015461118d91906125f0565b4210156111cf576040517f08c379a00000000000000000000000000000000000000000000000000000000081526004016111c69061266d565b60405180910390fd5b5f816005015482600601546111e491906126b8565b90505f8260080182815481106111fd576111fc6126e8565b5b905f5260205f20015f9054906101000a900473ffffffffffffffffffffffffffffffffffffffff1690505f835f0154846008018054905061123e9190612715565b90505f61124b868361139c565b905060035f9054906101000a900473ffffffffffffffffffffffffffffffffffffffff1673ffffffffffffffffffffffffffffffffffffffff1663a9059cbb3383856112979190611f40565b6040518363ffffffff1660e01b81526004016112b4929190611d56565b6020604051808303815f875af11580156112d0573d5f803e3d5ffd5b505050506040513d601f19601f820116820180604052508101906112f49190611fa8565b611333576040517f08c379a000000000000000000000000000000000000000000000000000000000815260040161132a9061201d565b60405180910390fd5b4285600201819055507f35cb3811461cb824b245820eee97ab50ee1cc609f2bdd3bb10f5f0010184a7d38684876006015460405161137393929190612756565b60405180910390a1846006015f81548092919061138f9061248d565b9190505550505050505050565b5f8060055f8581526020019081526020015f20905080600401548160030154846113c69190612715565b6113d0919061278b565b91505092915050565b6113e161145d565b5f73ffffffffffffffffffffffffffffffffffffffff168173ffffffffffffffffffffffffffffffffffffffff1603611451575f6040517f1e4fbdf70000000000000000000000000000000000000000000000000000000081526004016114489190611b94565b60405180910390fd5b61145a816114fa565b50565b61146561166a565b73ffffffffffffffffffffffffffffffffffffffff16611483610d48565b73ffffffffffffffffffffffffffffffffffffffff16146114e2576114a661166a565b6040517f118cdaa70000000000000000000000000000000000000000000000000000000081526004016114d99190611b94565b60405180910390fd5b565b5f826114f08584611671565b1490509392505050565b5f611503611643565b90505f815f015f9054906101000a900473ffffffffffffffffffffffffffffffffffffffff16905082825f015f6101000a81548173ffffffffffffffffffffffffffffffffffffffff021916908373ffffffffffffffffffffffffffffffffffffffff1602179055508273ffffffffffffffffffffffffffffffffffffffff168173ffffffffffffffffffffffffffffffffffffffff167f8be0079c531659141344cd1fd0a4f28419497f9722a3daafe3b4186f6b6457e060405160405180910390a3505050565b5f7ff0c57e16840df040f15088dc2f81fe391c3923bec73e23a9662efc9c229c6a00905090565b6115fa6116bf565b611603816116ff565b50565b5f80606483611615919061278b565b905080836116239190611f40565b91508060025f82825461163691906125f0565b9250508190555050919050565b5f7f9016d09d72d40fdae2fd8ceac6b6234c7706214fd39c1cd1e609a0528c199300905090565b5f33905090565b5f808290505f5b84518110156116b4576116a582868381518110611698576116976126e8565b5b6020026020010151611783565b91508080600101915050611678565b508091505092915050565b6116c76117ad565b6116fd576040517fd7e6bcf800000000000000000000000000000000000000000000000000000000815260040160405180910390fd5b565b6117076116bf565b5f73ffffffffffffffffffffffffffffffffffffffff168173ffffffffffffffffffffffffffffffffffffffff1603611777575f6040517f1e4fbdf700000000000000000000000000000000000000000000000000000000815260040161176e9190611b94565b60405180910390fd5b611780816114fa565b50565b5f81831061179a5761179582846117cb565b6117a5565b6117a483836117cb565b5b905092915050565b5f6117b66115cb565b5f0160089054906101000a900460ff16905090565b5f825f528160205260405f20905092915050565b828054828255905f5260205f20908101928215611855579160200282015b82811115611854578251825f6101000a81548173ffffffffffffffffffffffffffffffffffffffff021916908373ffffffffffffffffffffffffffffffffffffffff160217905550916020019190600101906117fd565b5b5090506118629190611866565b5090565b5b8082111561187d575f815f905550600101611867565b5090565b5f819050919050565b61189381611881565b82525050565b5f6020820190506118ac5f83018461188a565b92915050565b5f73ffffffffffffffffffffffffffffffffffffffff82169050919050565b5f819050919050565b5f6118f46118ef6118ea846118b2565b6118d1565b6118b2565b9050919050565b5f611905826118da565b9050919050565b5f611916826118fb565b9050919050565b6119268161190c565b82525050565b5f60208201905061193f5f83018461191d565b92915050565b5f61194f826118fb565b9050919050565b61195f81611945565b82525050565b5f6020820190506119785f830184611956565b92915050565b5f80fd5b5f80fd5b5f819050919050565b61199881611986565b81146119a2575f80fd5b50565b5f813590506119b38161198f565b92915050565b5f80fd5b5f80fd5b5f80fd5b5f8083601f8401126119da576119d96119b9565b5b8235905067ffffffffffffffff8111156119f7576119f66119bd565b5b602083019150836020820283011115611a1357611a126119c1565b5b9250929050565b5f805f60408486031215611a3157611a3061197e565b5b5f611a3e868287016119a5565b935050602084013567ffffffffffffffff811115611a5f57611a5e611982565b5b611a6b868287016119c5565b92509250509250925092565b5f611a81826118b2565b9050919050565b611a9181611a77565b8114611a9b575f80fd5b50565b5f81359050611aac81611a88565b92915050565b5f60208284031215611ac757611ac661197e565b5b5f611ad484828501611a9e565b91505092915050565b611ae681611986565b82525050565b5f602082019050611aff5f830184611add565b92915050565b611b0e81611881565b8114611b18575f80fd5b50565b5f81359050611b2981611b05565b92915050565b5f60208284031215611b4457611b4361197e565b5b5f611b5184828501611b1b565b91505092915050565b5f60208284031215611b6f57611b6e61197e565b5b5f611b7c848285016119a5565b91505092915050565b611b8e81611a77565b82525050565b5f602082019050611ba75f830184611b85565b92915050565b5f611bb7826118fb565b9050919050565b611bc781611bad565b82525050565b5f602082019050611be05f830184611bbe565b92915050565b5f61010082019050611bfa5f83018b611add565b611c07602083018a611add565b611c146040830189611add565b611c216060830188611add565b611c2e6080830187611add565b611c3b60a0830186611add565b611c4860c0830185611add565b611c5560e0830184611b85565b9998505050505050505050565b5f805f805f60a08688031215611c7b57611c7a61197e565b5b5f611c88888289016119a5565b9550506020611c99888289016119a5565b9450506040611caa888289016119a5565b9350506060611cbb888289016119a5565b9250506080611ccc888289016119a5565b9150509295509295909350565b5f8060408385031215611cef57611cee61197e565b5b5f611cfc858286016119a5565b9250506020611d0d858286016119a5565b9150509250929050565b5f81519050611d258161198f565b92915050565b5f60208284031215611d4057611d3f61197e565b5b5f611d4d84828501611d17565b91505092915050565b5f604082019050611d695f830185611b85565b611d766020830184611add565b9392505050565b5f8160601b9050919050565b5f611d9382611d7d565b9050919050565b5f611da482611d89565b9050919050565b611dbc611db782611a77565b611d9a565b82525050565b5f819050919050565b611ddc611dd782611986565b611dc2565b82525050565b5f611ded8285611dab565b601482019150611dfd8284611dcb565b6020820191508190509392505050565b5f82825260208201905092915050565b7f496e76616c69642070726f6f662e0000000000000000000000000000000000005f82015250565b5f611e51600e83611e0d565b9150611e5c82611e1d565b602082019050919050565b5f6020820190508181035f830152611e7e81611e45565b9050919050565b7f4e6f2066756e6473206c65667420746f20636c61696d206f7220616c726561645f8201527f7920636c61696d65642e00000000000000000000000000000000000000000000602082015250565b5f611edf602a83611e0d565b9150611eea82611e85565b604082019050919050565b5f6020820190508181035f830152611f0c81611ed3565b9050919050565b7f4e487b71000000000000000000000000000000000000000000000000000000005f52601160045260245ffd5b5f611f4a82611986565b9150611f5583611986565b9250828203905081811115611f6d57611f6c611f13565b5b92915050565b5f8115159050919050565b611f8781611f73565b8114611f91575f80fd5b50565b5f81519050611fa281611f7e565b92915050565b5f60208284031215611fbd57611fbc61197e565b5b5f611fca84828501611f94565b91505092915050565b7f5969656c64207472616e73666572206661696c656400000000000000000000005f82015250565b5f612007601583611e0d565b915061201282611fd3565b602082019050919050565b5f6020820190508181035f83015261203481611ffb565b9050919050565b5f60408201905061204e5f830185611b85565b61205b6020830184611b85565b9392505050565b5f819050919050565b5f67ffffffffffffffff82169050919050565b5f61209861209361208e84612062565b6118d1565b61206b565b9050919050565b6120a88161207e565b82525050565b5f6020820190506120c15f83018461209f565b92915050565b7f506f742069732066756c6c0000000000000000000000000000000000000000005f82015250565b5f6120fb600b83611e0d565b9150612106826120c7565b602082019050919050565b5f6020820190508181035f830152612128816120ef565b9050919050565b7f526f746174696e6720706f74732063616e6e6f74206265206a6f696e656400005f82015250565b5f612163601e83611e0d565b915061216e8261212f565b602082019050919050565b5f6020820190508181035f83015261219081612157565b9050919050565b7f416c7265616479206a6f696e65640000000000000000000000000000000000005f82015250565b5f6121cb600e83611e0d565b91506121d682612197565b602082019050919050565b5f6020820190508181035f8301526121f8816121bf565b9050919050565b5f6060820190506122125f830186611b85565b61221f6020830185611b85565b61222c6040830184611add565b949350505050565b7f5472616e73666572206661696c656400000000000000000000000000000000005f82015250565b5f612268600f83611e0d565b915061227382612234565b602082019050919050565b5f6020820190508181035f8301526122958161225c565b9050919050565b5f60e0820190506122af5f83018a611add565b6122bc6020830189611b85565b6122c96040830188611add565b6122d66060830187611add565b6122e36080830186611add565b6122f060a0830185611add565b6122fd60c0830184611add565b98975050505050505050565b7f526f746174696f6e206379636c65206d75737420626520706f736974697665005f82015250565b5f61233d601f83611e0d565b915061234882612309565b602082019050919050565b5f6020820190508181035f83015261236a81612331565b9050919050565b7f496e7465726573742064656e6f6d696e61746f72206d75737420626520706f735f8201527f6974697665000000000000000000000000000000000000000000000000000000602082015250565b5f6123cb602583611e0d565b91506123d682612371565b604082019050919050565b5f6020820190508181035f8301526123f8816123bf565b9050919050565b7f4e756d657261746f72206d757374206265206c657373207468616e206f7220655f8201527f7175616c20746f2064656e6f6d696e61746f7200000000000000000000000000602082015250565b5f612459603383611e0d565b9150612464826123ff565b604082019050919050565b5f6020820190508181035f8301526124868161244d565b9050919050565b5f61249782611986565b91507fffffffffffffffffffffffffffffffffffffffffffffffffffffffffffffffff82036124c9576124c8611f13565b5b600182019050919050565b7f43726561746f722073686f756c64206465706f7369742074686520696e6974695f8201527f616c20616d6f756e740000000000000000000000000000000000000000000000602082015250565b5f61252e602983611e0d565b9150612539826124d4565b604082019050919050565b5f6020820190508181035f83015261255b81612522565b9050919050565b7f4f6e6c792074686520706f742063726561746f722063616e2072657665616c205f8201527f7468652077696e6e657200000000000000000000000000000000000000000000602082015250565b5f6125bc602a83611e0d565b91506125c782612562565b604082019050919050565b5f6020820190508181035f8301526125e9816125b0565b9050919050565b5f6125fa82611986565b915061260583611986565b925082820190508082111561261d5761261c611f13565b5b92915050565b7f4e65787420726f746174696f6e206e6f742079657420647565000000000000005f82015250565b5f612657601983611e0d565b915061266282612623565b602082019050919050565b5f6020820190508181035f8301526126848161264b565b9050919050565b7f4e487b71000000000000000000000000000000000000000000000000000000005f52601260045260245ffd5b5f6126c282611986565b91506126cd83611986565b9250826126dd576126dc61268b565b5b828206905092915050565b7f4e487b71000000000000000000000000000000000000000000000000000000005f52603260045260245ffd5b5f61271f82611986565b915061272a83611986565b925082820261273881611986565b9150828204841483151761274f5761274e611f13565b5b5092915050565b5f6060820190506127695f830186611add565b6127766020830185611b85565b6127836040830184611add565b949350505050565b5f61279582611986565b91506127a083611986565b9250826127b0576127af61268b565b5b82820490509291505056fea26469706673582212203e8355dca0edee0bf52874681eb29ad4b356c72d3ddab6c396763900a7c702a564736f6c63430008180033",
					"opcodes": "PUSH1 0x80 PUSH1 0x40 MSTORE PUSH1 0x1 DUP1 SSTORE CALLVALUE DUP1 ISZERO PUSH3 0x14 JUMPI PUSH0 DUP1 REVERT JUMPDEST POP PUSH20 0x4200000000000000000000000000000000000022 PUSH20 0xFFFFFFFFFFFFFFFFFFFFFFFFFFFFFFFFFFFFFFFF AND PUSH4 0x1A33757D PUSH1 0x2 PUSH1 0x40 MLOAD DUP3 PUSH4 0xFFFFFFFF AND PUSH1 0xE0 SHL DUP2 MSTORE PUSH1 0x4 ADD PUSH3 0x65 SWAP2 SWAP1 PUSH3 0x1F0 JUMP JUMPDEST PUSH1 0x20 PUSH1 0x40 MLOAD DUP1 DUP4 SUB DUP2 PUSH0 DUP8 GAS CALL ISZERO DUP1 ISZERO PUSH3 0x82 JUMPI RETURNDATASIZE PUSH0 DUP1 RETURNDATACOPY RETURNDATASIZE PUSH0 REVERT JUMPDEST POP POP POP POP PUSH1 0x40 MLOAD RETURNDATASIZE PUSH1 0x1F NOT PUSH1 0x1F DUP3 ADD AND DUP3 ADD DUP1 PUSH1 0x40 MSTORE POP DUP2 ADD SWAP1 PUSH3 0xA8 SWAP2 SWAP1 PUSH3 0x247 JUMP JUMPDEST POP PUSH20 0x4200000000000000000000000000000000000022 PUSH1 0x3 PUSH0 PUSH2 0x100 EXP DUP2 SLOAD DUP2 PUSH20 0xFFFFFFFFFFFFFFFFFFFFFFFFFFFFFFFFFFFFFFFF MUL NOT AND SWAP1 DUP4 PUSH20 0xFFFFFFFFFFFFFFFFFFFFFFFFFFFFFFFFFFFFFFFF AND MUL OR SWAP1 SSTORE POP PUSH20 0x4300000000000000000000000000000000000002 PUSH20 0xFFFFFFFFFFFFFFFFFFFFFFFFFFFFFFFFFFFFFFFF AND PUSH4 0x4E606C47 PUSH1 0x40 MLOAD DUP2 PUSH4 0xFFFFFFFF AND PUSH1 0xE0 SHL DUP2 MSTORE PUSH1 0x4 ADD PUSH0 PUSH1 0x40 MLOAD DUP1 DUP4 SUB DUP2 PUSH0 DUP8 DUP1 EXTCODESIZE ISZERO DUP1 ISZERO PUSH3 0x157 JUMPI PUSH0 DUP1 REVERT JUMPDEST POP GAS CALL ISZERO DUP1 ISZERO PUSH3 0x16A JUMPI RETURNDATASIZE PUSH0 DUP1 RETURNDATACOPY RETURNDATASIZE PUSH0 REVERT JUMPDEST POP POP POP POP PUSH3 0x277 JUMP JUMPDEST PUSH32 0x4E487B7100000000000000000000000000000000000000000000000000000000 PUSH0 MSTORE PUSH1 0x21 PUSH1 0x4 MSTORE PUSH1 0x24 PUSH0 REVERT JUMPDEST PUSH1 0x3 DUP2 LT PUSH3 0x1B5 JUMPI PUSH3 0x1B4 PUSH3 0x174 JUMP JUMPDEST JUMPDEST POP JUMP JUMPDEST PUSH0 DUP2 SWAP1 POP PUSH3 0x1C7 DUP3 PUSH3 0x1A1 JUMP JUMPDEST SWAP2 SWAP1 POP JUMP JUMPDEST PUSH0 PUSH3 0x1D8 DUP3 PUSH3 0x1B8 JUMP JUMPDEST SWAP1 POP SWAP2 SWAP1 POP JUMP JUMPDEST PUSH3 0x1EA DUP2 PUSH3 0x1CC JUMP JUMPDEST DUP3 MSTORE POP POP JUMP JUMPDEST PUSH0 PUSH1 0x20 DUP3 ADD SWAP1 POP PUSH3 0x205 PUSH0 DUP4 ADD DUP5 PUSH3 0x1DF JUMP JUMPDEST SWAP3 SWAP2 POP POP JUMP JUMPDEST PUSH0 DUP1 REVERT JUMPDEST PUSH0 DUP2 SWAP1 POP SWAP2 SWAP1 POP JUMP JUMPDEST PUSH3 0x223 DUP2 PUSH3 0x20F JUMP JUMPDEST DUP2 EQ PUSH3 0x22E JUMPI PUSH0 DUP1 REVERT JUMPDEST POP JUMP JUMPDEST PUSH0 DUP2 MLOAD SWAP1 POP PUSH3 0x241 DUP2 PUSH3 0x218 JUMP JUMPDEST SWAP3 SWAP2 POP POP JUMP JUMPDEST PUSH0 PUSH1 0x20 DUP3 DUP5 SUB SLT ISZERO PUSH3 0x25F JUMPI PUSH3 0x25E PUSH3 0x20B JUMP JUMPDEST JUMPDEST PUSH0 PUSH3 0x26E DUP5 DUP3 DUP6 ADD PUSH3 0x231 JUMP JUMPDEST SWAP2 POP POP SWAP3 SWAP2 POP POP JUMP JUMPDEST PUSH2 0x27F1 DUP1 PUSH3 0x285 PUSH0 CODECOPY PUSH0 RETURN INVALID PUSH1 0x80 PUSH1 0x40 MSTORE PUSH1 0x4 CALLDATASIZE LT PUSH2 0x113 JUMPI PUSH0 CALLDATALOAD PUSH1 0xE0 SHR DUP1 PUSH4 0x8129FC1C GT PUSH2 0x9F JUMPI DUP1 PUSH4 0xC3C3DF4F GT PUSH2 0x63 JUMPI DUP1 PUSH4 0xC3C3DF4F EQ PUSH2 0x313 JUMPI DUP1 PUSH4 0xCA0EA3D1 EQ PUSH2 0x356 JUMPI DUP1 PUSH4 0xEF922B87 EQ PUSH2 0x37E JUMPI DUP1 PUSH4 0xEFDD7C07 EQ PUSH2 0x3A6 JUMPI DUP1 PUSH4 0xF2FDE38B EQ PUSH2 0x3E2 JUMPI PUSH2 0x113 JUMP JUMPDEST DUP1 PUSH4 0x8129FC1C EQ PUSH2 0x263 JUMPI DUP1 PUSH4 0x831D49EF EQ PUSH2 0x279 JUMPI DUP1 PUSH4 0x8DA5CB5B EQ PUSH2 0x295 JUMPI DUP1 PUSH4 0x97D75776 EQ PUSH2 0x2BF JUMPI DUP1 PUSH4 0xBF2D9E0B EQ PUSH2 0x2E9 JUMPI PUSH2 0x113 JUMP JUMPDEST DUP1 PUSH4 0x61E7D805 GT PUSH2 0xE6 JUMPI DUP1 PUSH4 0x61E7D805 EQ PUSH2 0x1AB JUMPI DUP1 PUSH4 0x715018A6 EQ PUSH2 0x1D3 JUMPI DUP1 PUSH4 0x73B2E80E EQ PUSH2 0x1E9 JUMPI DUP1 PUSH4 0x77D5D2DC EQ PUSH2 0x225 JUMPI DUP1 PUSH4 0x7CB64759 EQ PUSH2 0x23B JUMPI PUSH2 0x113 JUMP JUMPDEST DUP1 PUSH4 0x2EB4A7AB EQ PUSH2 0x117 JUMPI DUP1 PUSH4 0x31A0EDEC EQ PUSH2 0x141 JUMPI DUP1 PUSH4 0x409A33CE EQ PUSH2 0x16B JUMPI DUP1 PUSH4 0x4A80409E EQ PUSH2 0x181 JUMPI JUMPDEST PUSH0 DUP1 REVERT JUMPDEST CALLVALUE DUP1 ISZERO PUSH2 0x122 JUMPI PUSH0 DUP1 REVERT JUMPDEST POP PUSH2 0x12B PUSH2 0x40A JUMP JUMPDEST PUSH1 0x40 MLOAD PUSH2 0x138 SWAP2 SWAP1 PUSH2 0x1899 JUMP JUMPDEST PUSH1 0x40 MLOAD DUP1 SWAP2 SUB SWAP1 RETURN JUMPDEST CALLVALUE DUP1 ISZERO PUSH2 0x14C JUMPI PUSH0 DUP1 REVERT JUMPDEST POP PUSH2 0x155 PUSH2 0x40F JUMP JUMPDEST PUSH1 0x40 MLOAD PUSH2 0x162 SWAP2 SWAP1 PUSH2 0x192C JUMP JUMPDEST PUSH1 0x40 MLOAD DUP1 SWAP2 SUB SWAP1 RETURN JUMPDEST CALLVALUE DUP1 ISZERO PUSH2 0x176 JUMPI PUSH0 DUP1 REVERT JUMPDEST POP PUSH2 0x17F PUSH2 0x427 JUMP JUMPDEST STOP JUMPDEST CALLVALUE DUP1 ISZERO PUSH2 0x18C JUMPI PUSH0 DUP1 REVERT JUMPDEST POP PUSH2 0x195 PUSH2 0x54C JUMP JUMPDEST PUSH1 0x40 MLOAD PUSH2 0x1A2 SWAP2 SWAP1 PUSH2 0x1965 JUMP JUMPDEST PUSH1 0x40 MLOAD DUP1 SWAP2 SUB SWAP1 RETURN JUMPDEST CALLVALUE DUP1 ISZERO PUSH2 0x1B6 JUMPI PUSH0 DUP1 REVERT JUMPDEST POP PUSH2 0x1D1 PUSH1 0x4 DUP1 CALLDATASIZE SUB DUP2 ADD SWAP1 PUSH2 0x1CC SWAP2 SWAP1 PUSH2 0x1A1A JUMP JUMPDEST PUSH2 0x571 JUMP JUMPDEST STOP JUMPDEST CALLVALUE DUP1 ISZERO PUSH2 0x1DE JUMPI PUSH0 DUP1 REVERT JUMPDEST POP PUSH2 0x1E7 PUSH2 0x7DF JUMP JUMPDEST STOP JUMPDEST CALLVALUE DUP1 ISZERO PUSH2 0x1F4 JUMPI PUSH0 DUP1 REVERT JUMPDEST POP PUSH2 0x20F PUSH1 0x4 DUP1 CALLDATASIZE SUB DUP2 ADD SWAP1 PUSH2 0x20A SWAP2 SWAP1 PUSH2 0x1AB2 JUMP JUMPDEST PUSH2 0x7F2 JUMP JUMPDEST PUSH1 0x40 MLOAD PUSH2 0x21C SWAP2 SWAP1 PUSH2 0x1AEC JUMP JUMPDEST PUSH1 0x40 MLOAD DUP1 SWAP2 SUB SWAP1 RETURN JUMPDEST CALLVALUE DUP1 ISZERO PUSH2 0x230 JUMPI PUSH0 DUP1 REVERT JUMPDEST POP PUSH2 0x239 PUSH2 0x807 JUMP JUMPDEST STOP JUMPDEST CALLVALUE DUP1 ISZERO PUSH2 0x246 JUMPI PUSH0 DUP1 REVERT JUMPDEST POP PUSH2 0x261 PUSH1 0x4 DUP1 CALLDATASIZE SUB DUP2 ADD SWAP1 PUSH2 0x25C SWAP2 SWAP1 PUSH2 0x1B2F JUMP JUMPDEST PUSH2 0x8A1 JUMP JUMPDEST STOP JUMPDEST CALLVALUE DUP1 ISZERO PUSH2 0x26E JUMPI PUSH0 DUP1 REVERT JUMPDEST POP PUSH2 0x277 PUSH2 0x8B2 JUMP JUMPDEST STOP JUMPDEST PUSH2 0x293 PUSH1 0x4 DUP1 CALLDATASIZE SUB DUP2 ADD SWAP1 PUSH2 0x28E SWAP2 SWAP1 PUSH2 0x1B5A JUMP JUMPDEST PUSH2 0xA32 JUMP JUMPDEST STOP JUMPDEST CALLVALUE DUP1 ISZERO PUSH2 0x2A0 JUMPI PUSH0 DUP1 REVERT JUMPDEST POP PUSH2 0x2A9 PUSH2 0xD48 JUMP JUMPDEST PUSH1 0x40 MLOAD PUSH2 0x2B6 SWAP2 SWAP1 PUSH2 0x1B94 JUMP JUMPDEST PUSH1 0x40 MLOAD DUP1 SWAP2 SUB SWAP1 RETURN JUMPDEST CALLVALUE DUP1 ISZERO PUSH2 0x2CA JUMPI PUSH0 DUP1 REVERT JUMPDEST POP PUSH2 0x2D3 PUSH2 0xD7D JUMP JUMPDEST PUSH1 0x40 MLOAD PUSH2 0x2E0 SWAP2 SWAP1 PUSH2 0x1BCD JUMP JUMPDEST PUSH1 0x40 MLOAD DUP1 SWAP2 SUB SWAP1 RETURN JUMPDEST CALLVALUE DUP1 ISZERO PUSH2 0x2F4 JUMPI PUSH0 DUP1 REVERT JUMPDEST POP PUSH2 0x2FD PUSH2 0xD95 JUMP JUMPDEST PUSH1 0x40 MLOAD PUSH2 0x30A SWAP2 SWAP1 PUSH2 0x1AEC JUMP JUMPDEST PUSH1 0x40 MLOAD DUP1 SWAP2 SUB SWAP1 RETURN JUMPDEST CALLVALUE DUP1 ISZERO PUSH2 0x31E JUMPI PUSH0 DUP1 REVERT JUMPDEST POP PUSH2 0x339 PUSH1 0x4 DUP1 CALLDATASIZE SUB DUP2 ADD SWAP1 PUSH2 0x334 SWAP2 SWAP1 PUSH2 0x1B5A JUMP JUMPDEST PUSH2 0xD9B JUMP JUMPDEST PUSH1 0x40 MLOAD PUSH2 0x34D SWAP9 SWAP8 SWAP7 SWAP6 SWAP5 SWAP4 SWAP3 SWAP2 SWAP1 PUSH2 0x1BE6 JUMP JUMPDEST PUSH1 0x40 MLOAD DUP1 SWAP2 SUB SWAP1 RETURN JUMPDEST CALLVALUE DUP1 ISZERO PUSH2 0x361 JUMPI PUSH0 DUP1 REVERT JUMPDEST POP PUSH2 0x37C PUSH1 0x4 DUP1 CALLDATASIZE SUB DUP2 ADD SWAP1 PUSH2 0x377 SWAP2 SWAP1 PUSH2 0x1C62 JUMP JUMPDEST PUSH2 0xDFE JUMP JUMPDEST STOP JUMPDEST CALLVALUE DUP1 ISZERO PUSH2 0x389 JUMPI PUSH0 DUP1 REVERT JUMPDEST POP PUSH2 0x3A4 PUSH1 0x4 DUP1 CALLDATASIZE SUB DUP2 ADD SWAP1 PUSH2 0x39F SWAP2 SWAP1 PUSH2 0x1B5A JUMP JUMPDEST PUSH2 0x10C4 JUMP JUMPDEST STOP JUMPDEST CALLVALUE DUP1 ISZERO PUSH2 0x3B1 JUMPI PUSH0 DUP1 REVERT JUMPDEST POP PUSH2 0x3CC PUSH1 0x4 DUP1 CALLDATASIZE SUB DUP2 ADD SWAP1 PUSH2 0x3C7 SWAP2 SWAP1 PUSH2 0x1CD9 JUMP JUMPDEST PUSH2 0x139C JUMP JUMPDEST PUSH1 0x40 MLOAD PUSH2 0x3D9 SWAP2 SWAP1 PUSH2 0x1AEC JUMP JUMPDEST PUSH1 0x40 MLOAD DUP1 SWAP2 SUB SWAP1 RETURN JUMPDEST CALLVALUE DUP1 ISZERO PUSH2 0x3ED JUMPI PUSH0 DUP1 REVERT JUMPDEST POP PUSH2 0x408 PUSH1 0x4 DUP1 CALLDATASIZE SUB DUP2 ADD SWAP1 PUSH2 0x403 SWAP2 SWAP1 PUSH2 0x1AB2 JUMP JUMPDEST PUSH2 0x13D9 JUMP JUMPDEST STOP JUMPDEST PUSH0 SLOAD DUP2 JUMP JUMPDEST PUSH20 0x4200000000000000000000000000000000000022 DUP2 JUMP JUMPDEST PUSH2 0x42F PUSH2 0x145D JUMP JUMPDEST PUSH20 0x4200000000000000000000000000000000000022 PUSH20 0xFFFFFFFFFFFFFFFFFFFFFFFFFFFFFFFFFFFFFFFF AND PUSH4 0xAAD3EC96 ADDRESS PUSH20 0x4200000000000000000000000000000000000022 PUSH20 0xFFFFFFFFFFFFFFFFFFFFFFFFFFFFFFFFFFFFFFFF AND PUSH4 0xE12F3A61 ADDRESS PUSH1 0x40 MLOAD DUP3 PUSH4 0xFFFFFFFF AND PUSH1 0xE0 SHL DUP2 MSTORE PUSH1 0x4 ADD PUSH2 0x4AD SWAP2 SWAP1 PUSH2 0x1B94 JUMP JUMPDEST PUSH1 0x20 PUSH1 0x40 MLOAD DUP1 DUP4 SUB DUP2 DUP7 GAS STATICCALL ISZERO DUP1 ISZERO PUSH2 0x4C8 JUMPI RETURNDATASIZE PUSH0 DUP1 RETURNDATACOPY RETURNDATASIZE PUSH0 REVERT JUMPDEST POP POP POP POP PUSH1 0x40 MLOAD RETURNDATASIZE PUSH1 0x1F NOT PUSH1 0x1F DUP3 ADD AND DUP3 ADD DUP1 PUSH1 0x40 MSTORE POP DUP2 ADD SWAP1 PUSH2 0x4EC SWAP2 SWAP1 PUSH2 0x1D2B JUMP JUMPDEST PUSH1 0x40 MLOAD DUP4 PUSH4 0xFFFFFFFF AND PUSH1 0xE0 SHL DUP2 MSTORE PUSH1 0x4 ADD PUSH2 0x509 SWAP3 SWAP2 SWAP1 PUSH2 0x1D56 JUMP JUMPDEST PUSH1 0x20 PUSH1 0x40 MLOAD DUP1 DUP4 SUB DUP2 PUSH0 DUP8 GAS CALL ISZERO DUP1 ISZERO PUSH2 0x525 JUMPI RETURNDATASIZE PUSH0 DUP1 RETURNDATACOPY RETURNDATASIZE PUSH0 REVERT JUMPDEST POP POP POP POP PUSH1 0x40 MLOAD RETURNDATASIZE PUSH1 0x1F NOT PUSH1 0x1F DUP3 ADD AND DUP3 ADD DUP1 PUSH1 0x40 MSTORE POP DUP2 ADD SWAP1 PUSH2 0x549 SWAP2 SWAP1 PUSH2 0x1D2B JUMP JUMPDEST POP JUMP JUMPDEST PUSH1 0x3 PUSH0 SWAP1 SLOAD SWAP1 PUSH2 0x100 EXP SWAP1 DIV PUSH20 0xFFFFFFFFFFFFFFFFFFFFFFFFFFFFFFFFFFFFFFFF AND DUP2 JUMP JUMPDEST PUSH0 CALLER DUP5 PUSH1 0x40 MLOAD PUSH1 0x20 ADD PUSH2 0x585 SWAP3 SWAP2 SWAP1 PUSH2 0x1DE2 JUMP JUMPDEST PUSH1 0x40 MLOAD PUSH1 0x20 DUP2 DUP4 SUB SUB DUP2 MSTORE SWAP1 PUSH1 0x40 MSTORE DUP1 MLOAD SWAP1 PUSH1 0x20 ADD KECCAK256 SWAP1 POP PUSH2 0x5E9 DUP4 DUP4 DUP1 DUP1 PUSH1 0x20 MUL PUSH1 0x20 ADD PUSH1 0x40 MLOAD SWAP1 DUP2 ADD PUSH1 0x40 MSTORE DUP1 SWAP4 SWAP3 SWAP2 SWAP1 DUP2 DUP2 MSTORE PUSH1 0x20 ADD DUP4 DUP4 PUSH1 0x20 MUL DUP1 DUP3 DUP5 CALLDATACOPY PUSH0 DUP2 DUP5 ADD MSTORE PUSH1 0x1F NOT PUSH1 0x1F DUP3 ADD AND SWAP1 POP DUP1 DUP4 ADD SWAP3 POP POP POP POP POP POP POP PUSH0 SLOAD DUP4 PUSH2 0x14E4 JUMP JUMPDEST PUSH2 0x628 JUMPI PUSH1 0x40 MLOAD PUSH32 0x8C379A000000000000000000000000000000000000000000000000000000000 DUP2 MSTORE PUSH1 0x4 ADD PUSH2 0x61F SWAP1 PUSH2 0x1E67 JUMP JUMPDEST PUSH1 0x40 MLOAD DUP1 SWAP2 SUB SWAP1 REVERT JUMPDEST PUSH0 PUSH1 0x4 PUSH0 CALLER PUSH20 0xFFFFFFFFFFFFFFFFFFFFFFFFFFFFFFFFFFFFFFFF AND PUSH20 0xFFFFFFFFFFFFFFFFFFFFFFFFFFFFFFFFFFFFFFFF AND DUP2 MSTORE PUSH1 0x20 ADD SWAP1 DUP2 MSTORE PUSH1 0x20 ADD PUSH0 KECCAK256 SLOAD SWAP1 POP DUP5 DUP2 LT PUSH2 0x6AB JUMPI PUSH1 0x40 MLOAD PUSH32 0x8C379A000000000000000000000000000000000000000000000000000000000 DUP2 MSTORE PUSH1 0x4 ADD PUSH2 0x6A2 SWAP1 PUSH2 0x1EF5 JUMP JUMPDEST PUSH1 0x40 MLOAD DUP1 SWAP2 SUB SWAP1 REVERT JUMPDEST PUSH0 DUP2 DUP7 PUSH2 0x6B8 SWAP2 SWAP1 PUSH2 0x1F40 JUMP JUMPDEST SWAP1 POP DUP6 PUSH1 0x4 PUSH0 CALLER PUSH20 0xFFFFFFFFFFFFFFFFFFFFFFFFFFFFFFFFFFFFFFFF AND PUSH20 0xFFFFFFFFFFFFFFFFFFFFFFFFFFFFFFFFFFFFFFFF AND DUP2 MSTORE PUSH1 0x20 ADD SWAP1 DUP2 MSTORE PUSH1 0x20 ADD PUSH0 KECCAK256 DUP2 SWAP1 SSTORE POP PUSH1 0x3 PUSH0 SWAP1 SLOAD SWAP1 PUSH2 0x100 EXP SWAP1 DIV PUSH20 0xFFFFFFFFFFFFFFFFFFFFFFFFFFFFFFFFFFFFFFFF AND PUSH20 0xFFFFFFFFFFFFFFFFFFFFFFFFFFFFFFFFFFFFFFFF AND PUSH4 0xA9059CBB CALLER DUP4 PUSH1 0x40 MLOAD DUP4 PUSH4 0xFFFFFFFF AND PUSH1 0xE0 SHL DUP2 MSTORE PUSH1 0x4 ADD PUSH2 0x758 SWAP3 SWAP2 SWAP1 PUSH2 0x1D56 JUMP JUMPDEST PUSH1 0x20 PUSH1 0x40 MLOAD DUP1 DUP4 SUB DUP2 PUSH0 DUP8 GAS CALL ISZERO DUP1 ISZERO PUSH2 0x774 JUMPI RETURNDATASIZE PUSH0 DUP1 RETURNDATACOPY RETURNDATASIZE PUSH0 REVERT JUMPDEST POP POP POP POP PUSH1 0x40 MLOAD RETURNDATASIZE PUSH1 0x1F NOT PUSH1 0x1F DUP3 ADD AND DUP3 ADD DUP1 PUSH1 0x40 MSTORE POP DUP2 ADD SWAP1 PUSH2 0x798 SWAP2 SWAP1 PUSH2 0x1FA8 JUMP JUMPDEST PUSH2 0x7D7 JUMPI PUSH1 0x40 MLOAD PUSH32 0x8C379A000000000000000000000000000000000000000000000000000000000 DUP2 MSTORE PUSH1 0x4 ADD PUSH2 0x7CE SWAP1 PUSH2 0x201D JUMP JUMPDEST PUSH1 0x40 MLOAD DUP1 SWAP2 SUB SWAP1 REVERT JUMPDEST POP POP POP POP POP POP JUMP JUMPDEST PUSH2 0x7E7 PUSH2 0x145D JUMP JUMPDEST PUSH2 0x7F0 PUSH0 PUSH2 0x14FA JUMP JUMPDEST JUMP JUMPDEST PUSH1 0x4 PUSH1 0x20 MSTORE DUP1 PUSH0 MSTORE PUSH1 0x40 PUSH0 KECCAK256 PUSH0 SWAP2 POP SWAP1 POP SLOAD DUP2 JUMP JUMPDEST PUSH2 0x80F PUSH2 0x145D JUMP JUMPDEST PUSH20 0x4300000000000000000000000000000000000002 PUSH20 0xFFFFFFFFFFFFFFFFFFFFFFFFFFFFFFFFFFFFFFFF AND PUSH4 0x954FA5EE ADDRESS ADDRESS PUSH1 0x40 MLOAD DUP4 PUSH4 0xFFFFFFFF AND PUSH1 0xE0 SHL DUP2 MSTORE PUSH1 0x4 ADD PUSH2 0x85E SWAP3 SWAP2 SWAP1 PUSH2 0x203B JUMP JUMPDEST PUSH1 0x20 PUSH1 0x40 MLOAD DUP1 DUP4 SUB DUP2 PUSH0 DUP8 GAS CALL ISZERO DUP1 ISZERO PUSH2 0x87A JUMPI RETURNDATASIZE PUSH0 DUP1 RETURNDATACOPY RETURNDATASIZE PUSH0 REVERT JUMPDEST POP POP POP POP PUSH1 0x40 MLOAD RETURNDATASIZE PUSH1 0x1F NOT PUSH1 0x1F DUP3 ADD AND DUP3 ADD DUP1 PUSH1 0x40 MSTORE POP DUP2 ADD SWAP1 PUSH2 0x89E SWAP2 SWAP1 PUSH2 0x1D2B JUMP JUMPDEST POP JUMP JUMPDEST PUSH2 0x8A9 PUSH2 0x145D JUMP JUMPDEST DUP1 PUSH0 DUP2 SWAP1 SSTORE POP POP JUMP JUMPDEST PUSH0 PUSH2 0x8BB PUSH2 0x15CB JUMP JUMPDEST SWAP1 POP PUSH0 DUP2 PUSH0 ADD PUSH1 0x8 SWAP1 SLOAD SWAP1 PUSH2 0x100 EXP SWAP1 DIV PUSH1 0xFF AND ISZERO SWAP1 POP PUSH0 DUP3 PUSH0 ADD PUSH0 SWAP1 SLOAD SWAP1 PUSH2 0x100 EXP SWAP1 DIV PUSH8 0xFFFFFFFFFFFFFFFF AND SWAP1 POP PUSH0 DUP1 DUP3 PUSH8 0xFFFFFFFFFFFFFFFF AND EQ DUP1 ISZERO PUSH2 0x903 JUMPI POP DUP3 JUMPDEST SWAP1 POP PUSH0 PUSH1 0x1 DUP4 PUSH8 0xFFFFFFFFFFFFFFFF AND EQ DUP1 ISZERO PUSH2 0x936 JUMPI POP PUSH0 ADDRESS PUSH20 0xFFFFFFFFFFFFFFFFFFFFFFFFFFFFFFFFFFFFFFFF AND EXTCODESIZE EQ JUMPDEST SWAP1 POP DUP2 ISZERO DUP1 ISZERO PUSH2 0x944 JUMPI POP DUP1 ISZERO JUMPDEST ISZERO PUSH2 0x97B JUMPI PUSH1 0x40 MLOAD PUSH32 0xF92EE8A900000000000000000000000000000000000000000000000000000000 DUP2 MSTORE PUSH1 0x4 ADD PUSH1 0x40 MLOAD DUP1 SWAP2 SUB SWAP1 REVERT JUMPDEST PUSH1 0x1 DUP6 PUSH0 ADD PUSH0 PUSH2 0x100 EXP DUP2 SLOAD DUP2 PUSH8 0xFFFFFFFFFFFFFFFF MUL NOT AND SWAP1 DUP4 PUSH8 0xFFFFFFFFFFFFFFFF AND MUL OR SWAP1 SSTORE POP DUP4 ISZERO PUSH2 0x9C8 JUMPI PUSH1 0x1 DUP6 PUSH0 ADD PUSH1 0x8 PUSH2 0x100 EXP DUP2 SLOAD DUP2 PUSH1 0xFF MUL NOT AND SWAP1 DUP4 ISZERO ISZERO MUL OR SWAP1 SSTORE POP JUMPDEST PUSH2 0x9D1 CALLER PUSH2 0x15F2 JUMP JUMPDEST DUP4 ISZERO PUSH2 0xA2B JUMPI PUSH0 DUP6 PUSH0 ADD PUSH1 0x8 PUSH2 0x100 EXP DUP2 SLOAD DUP2 PUSH1 0xFF MUL NOT AND SWAP1 DUP4 ISZERO ISZERO MUL OR SWAP1 SSTORE POP PUSH32 0xC7F505B2F371AE2175EE4913F4499E1F2633A7B5936321EED1CDAEB6115181D2 PUSH1 0x1 PUSH1 0x40 MLOAD PUSH2 0xA22 SWAP2 SWAP1 PUSH2 0x20AE JUMP JUMPDEST PUSH1 0x40 MLOAD DUP1 SWAP2 SUB SWAP1 LOG1 JUMPDEST POP POP POP POP POP JUMP JUMPDEST PUSH0 PUSH1 0x5 PUSH0 DUP4 DUP2 MSTORE PUSH1 0x20 ADD SWAP1 DUP2 MSTORE PUSH1 0x20 ADD PUSH0 KECCAK256 SWAP1 POP DUP1 PUSH1 0x5 ADD SLOAD DUP2 PUSH1 0x8 ADD DUP1 SLOAD SWAP1 POP LT PUSH2 0xA93 JUMPI PUSH1 0x40 MLOAD PUSH32 0x8C379A000000000000000000000000000000000000000000000000000000000 DUP2 MSTORE PUSH1 0x4 ADD PUSH2 0xA8A SWAP1 PUSH2 0x2111 JUMP JUMPDEST PUSH1 0x40 MLOAD DUP1 SWAP2 SUB SWAP1 REVERT JUMPDEST PUSH1 0x1 DUP2 PUSH1 0x6 ADD SLOAD LT PUSH2 0xADA JUMPI PUSH1 0x40 MLOAD PUSH32 0x8C379A000000000000000000000000000000000000000000000000000000000 DUP2 MSTORE PUSH1 0x4 ADD PUSH2 0xAD1 SWAP1 PUSH2 0x2179 JUMP JUMPDEST PUSH1 0x40 MLOAD DUP1 SWAP2 SUB SWAP1 REVERT JUMPDEST PUSH0 DUP2 PUSH1 0x9 ADD PUSH0 CALLER PUSH20 0xFFFFFFFFFFFFFFFFFFFFFFFFFFFFFFFFFFFFFFFF AND PUSH20 0xFFFFFFFFFFFFFFFFFFFFFFFFFFFFFFFFFFFFFFFF AND DUP2 MSTORE PUSH1 0x20 ADD SWAP1 DUP2 MSTORE PUSH1 0x20 ADD PUSH0 KECCAK256 SLOAD EQ PUSH2 0xB5B JUMPI PUSH1 0x40 MLOAD PUSH32 0x8C379A000000000000000000000000000000000000000000000000000000000 DUP2 MSTORE PUSH1 0x4 ADD PUSH2 0xB52 SWAP1 PUSH2 0x21E1 JUMP JUMPDEST PUSH1 0x40 MLOAD DUP1 SWAP2 SUB SWAP1 REVERT JUMPDEST PUSH0 PUSH2 0xB68 DUP3 PUSH0 ADD SLOAD PUSH2 0x1606 JUMP JUMPDEST SWAP1 POP PUSH1 0x3 PUSH0 SWAP1 SLOAD SWAP1 PUSH2 0x100 EXP SWAP1 DIV PUSH20 0xFFFFFFFFFFFFFFFFFFFFFFFFFFFFFFFFFFFFFFFF AND PUSH20 0xFFFFFFFFFFFFFFFFFFFFFFFFFFFFFFFFFFFFFFFF AND PUSH4 0x23B872DD CALLER ADDRESS DUP5 PUSH1 0x40 MLOAD DUP5 PUSH4 0xFFFFFFFF AND PUSH1 0xE0 SHL DUP2 MSTORE PUSH1 0x4 ADD PUSH2 0xBC8 SWAP4 SWAP3 SWAP2 SWAP1 PUSH2 0x21FF JUMP JUMPDEST PUSH1 0x20 PUSH1 0x40 MLOAD DUP1 DUP4 SUB DUP2 PUSH0 DUP8 GAS CALL ISZERO DUP1 ISZERO PUSH2 0xBE4 JUMPI RETURNDATASIZE PUSH0 DUP1 RETURNDATACOPY RETURNDATASIZE PUSH0 REVERT JUMPDEST POP POP POP POP PUSH1 0x40 MLOAD RETURNDATASIZE PUSH1 0x1F NOT PUSH1 0x1F DUP3 ADD AND DUP3 ADD DUP1 PUSH1 0x40 MSTORE POP DUP2 ADD SWAP1 PUSH2 0xC08 SWAP2 SWAP1 PUSH2 0x1FA8 JUMP JUMPDEST PUSH2 0xC47 JUMPI PUSH1 0x40 MLOAD PUSH32 0x8C379A000000000000000000000000000000000000000000000000000000000 DUP2 MSTORE PUSH1 0x4 ADD PUSH2 0xC3E SWAP1 PUSH2 0x227E JUMP JUMPDEST PUSH1 0x40 MLOAD DUP1 SWAP2 SUB SWAP1 REVERT JUMPDEST DUP1 DUP3 PUSH1 0x9 ADD PUSH0 CALLER PUSH20 0xFFFFFFFFFFFFFFFFFFFFFFFFFFFFFFFFFFFFFFFF AND PUSH20 0xFFFFFFFFFFFFFFFFFFFFFFFFFFFFFFFFFFFFFFFF AND DUP2 MSTORE PUSH1 0x20 ADD SWAP1 DUP2 MSTORE PUSH1 0x20 ADD PUSH0 KECCAK256 DUP2 SWAP1 SSTORE POP DUP2 PUSH1 0x8 ADD CALLER SWAP1 DUP1 PUSH1 0x1 DUP2 SLOAD ADD DUP1 DUP3 SSTORE DUP1 SWAP2 POP POP PUSH1 0x1 SWAP1 SUB SWAP1 PUSH0 MSTORE PUSH1 0x20 PUSH0 KECCAK256 ADD PUSH0 SWAP1 SWAP2 SWAP1 SWAP2 SWAP1 SWAP2 PUSH2 0x100 EXP DUP2 SLOAD DUP2 PUSH20 0xFFFFFFFFFFFFFFFFFFFFFFFFFFFFFFFFFFFFFFFF MUL NOT AND SWAP1 DUP4 PUSH20 0xFFFFFFFFFFFFFFFFFFFFFFFFFFFFFFFFFFFFFFFF AND MUL OR SWAP1 SSTORE POP PUSH32 0x7940335F2934B328362E6C325CD06AD0BC653662A5D556304D09EF5C2CC74A76 DUP4 CALLER DUP5 PUSH0 ADD SLOAD DUP6 PUSH1 0x1 ADD SLOAD DUP7 PUSH1 0x3 ADD SLOAD DUP8 PUSH1 0x4 ADD SLOAD DUP9 PUSH1 0x5 ADD SLOAD PUSH1 0x40 MLOAD PUSH2 0xD3B SWAP8 SWAP7 SWAP6 SWAP5 SWAP4 SWAP3 SWAP2 SWAP1 PUSH2 0x229C JUMP JUMPDEST PUSH1 0x40 MLOAD DUP1 SWAP2 SUB SWAP1 LOG1 POP POP POP JUMP JUMPDEST PUSH0 DUP1 PUSH2 0xD52 PUSH2 0x1643 JUMP JUMPDEST SWAP1 POP DUP1 PUSH0 ADD PUSH0 SWAP1 SLOAD SWAP1 PUSH2 0x100 EXP SWAP1 DIV PUSH20 0xFFFFFFFFFFFFFFFFFFFFFFFFFFFFFFFFFFFFFFFF AND SWAP2 POP POP SWAP1 JUMP JUMPDEST PUSH20 0x4300000000000000000000000000000000000002 DUP2 JUMP JUMPDEST PUSH1 0x2 SLOAD DUP2 JUMP JUMPDEST PUSH1 0x5 PUSH1 0x20 MSTORE DUP1 PUSH0 MSTORE PUSH1 0x40 PUSH0 KECCAK256 PUSH0 SWAP2 POP SWAP1 POP DUP1 PUSH0 ADD SLOAD SWAP1 DUP1 PUSH1 0x1 ADD SLOAD SWAP1 DUP1 PUSH1 0x2 ADD SLOAD SWAP1 DUP1 PUSH1 0x3 ADD SLOAD SWAP1 DUP1 PUSH1 0x4 ADD SLOAD SWAP1 DUP1 PUSH1 0x5 ADD SLOAD SWAP1 DUP1 PUSH1 0x6 ADD SLOAD SWAP1 DUP1 PUSH1 0x7 ADD PUSH0 SWAP1 SLOAD SWAP1 PUSH2 0x100 EXP SWAP1 DIV PUSH20 0xFFFFFFFFFFFFFFFFFFFFFFFFFFFFFFFFFFFFFFFF AND SWAP1 POP DUP9 JUMP JUMPDEST PUSH0 DUP6 GT PUSH2 0xE40 JUMPI PUSH1 0x40 MLOAD PUSH32 0x8C379A000000000000000000000000000000000000000000000000000000000 DUP2 MSTORE PUSH1 0x4 ADD PUSH2 0xE37 SWAP1 PUSH2 0x2353 JUMP JUMPDEST PUSH1 0x40 MLOAD DUP1 SWAP2 SUB SWAP1 REVERT JUMPDEST PUSH0 DUP5 GT PUSH2 0xE82 JUMPI PUSH1 0x40 MLOAD PUSH32 0x8C379A000000000000000000000000000000000000000000000000000000000 DUP2 MSTORE PUSH1 0x4 ADD PUSH2 0xE79 SWAP1 PUSH2 0x23E1 JUMP JUMPDEST PUSH1 0x40 MLOAD DUP1 SWAP2 SUB SWAP1 REVERT JUMPDEST DUP4 DUP4 GT ISZERO PUSH2 0xEC5 JUMPI PUSH1 0x40 MLOAD PUSH32 0x8C379A000000000000000000000000000000000000000000000000000000000 DUP2 MSTORE PUSH1 0x4 ADD PUSH2 0xEBC SWAP1 PUSH2 0x246F JUMP JUMPDEST PUSH1 0x40 MLOAD DUP1 SWAP2 SUB SWAP1 REVERT JUMPDEST PUSH0 PUSH1 0x1 PUSH0 DUP2 SLOAD DUP1 SWAP3 SWAP2 SWAP1 PUSH2 0xED8 SWAP1 PUSH2 0x248D JUMP JUMPDEST SWAP2 SWAP1 POP SSTORE SWAP1 POP PUSH1 0x60 PUSH0 PUSH2 0xEEA DUP5 PUSH2 0x1606 JUMP JUMPDEST SWAP1 POP PUSH1 0x3 PUSH0 SWAP1 SLOAD SWAP1 PUSH2 0x100 EXP SWAP1 DIV PUSH20 0xFFFFFFFFFFFFFFFFFFFFFFFFFFFFFFFFFFFFFFFF AND PUSH20 0xFFFFFFFFFFFFFFFFFFFFFFFFFFFFFFFFFFFFFFFF AND PUSH4 0x23B872DD CALLER ADDRESS DUP5 PUSH1 0x40 MLOAD DUP5 PUSH4 0xFFFFFFFF AND PUSH1 0xE0 SHL DUP2 MSTORE PUSH1 0x4 ADD PUSH2 0xF4A SWAP4 SWAP3 SWAP2 SWAP1 PUSH2 0x21FF JUMP JUMPDEST PUSH1 0x20 PUSH1 0x40 MLOAD DUP1 DUP4 SUB DUP2 PUSH0 DUP8 GAS CALL ISZERO DUP1 ISZERO PUSH2 0xF66 JUMPI RETURNDATASIZE PUSH0 DUP1 RETURNDATACOPY RETURNDATASIZE PUSH0 REVERT JUMPDEST POP POP POP POP PUSH1 0x40 MLOAD RETURNDATASIZE PUSH1 0x1F NOT PUSH1 0x1F DUP3 ADD AND DUP3 ADD DUP1 PUSH1 0x40 MSTORE POP DUP2 ADD SWAP1 PUSH2 0xF8A SWAP2 SWAP1 PUSH2 0x1FA8 JUMP JUMPDEST PUSH2 0xFC9 JUMPI PUSH1 0x40 MLOAD PUSH32 0x8C379A000000000000000000000000000000000000000000000000000000000 DUP2 MSTORE PUSH1 0x4 ADD PUSH2 0xFC0 SWAP1 PUSH2 0x2544 JUMP JUMPDEST PUSH1 0x40 MLOAD DUP1 SWAP2 SUB SWAP1 REVERT JUMPDEST PUSH0 PUSH1 0x5 PUSH0 DUP6 DUP2 MSTORE PUSH1 0x20 ADD SWAP1 DUP2 MSTORE PUSH1 0x20 ADD PUSH0 KECCAK256 SWAP1 POP DUP5 DUP2 PUSH0 ADD DUP2 SWAP1 SSTORE POP CALLER DUP2 PUSH1 0x7 ADD PUSH0 PUSH2 0x100 EXP DUP2 SLOAD DUP2 PUSH20 0xFFFFFFFFFFFFFFFFFFFFFFFFFFFFFFFFFFFFFFFF MUL NOT AND SWAP1 DUP4 PUSH20 0xFFFFFFFFFFFFFFFFFFFFFFFFFFFFFFFFFFFFFFFF AND MUL OR SWAP1 SSTORE POP DUP9 DUP2 PUSH1 0x1 ADD DUP2 SWAP1 SSTORE POP DUP7 DUP2 PUSH1 0x3 ADD DUP2 SWAP1 SSTORE POP DUP8 DUP2 PUSH1 0x4 ADD DUP2 SWAP1 SSTORE POP TIMESTAMP DUP2 PUSH1 0x2 ADD DUP2 SWAP1 SSTORE POP DUP6 DUP2 PUSH1 0x5 ADD DUP2 SWAP1 SSTORE POP PUSH0 DUP2 PUSH1 0x6 ADD DUP2 SWAP1 SSTORE POP DUP3 DUP2 PUSH1 0x8 ADD SWAP1 DUP1 MLOAD SWAP1 PUSH1 0x20 ADD SWAP1 PUSH2 0x1075 SWAP3 SWAP2 SWAP1 PUSH2 0x17DF JUMP JUMPDEST POP PUSH32 0xBF5A50C239A5F6EF5CF2DCC347E3402E3B8CA1424A9E01C38EC78D2406CBD8E0 DUP5 CALLER DUP8 DUP13 DUP12 DUP14 DUP13 PUSH1 0x40 MLOAD PUSH2 0x10B1 SWAP8 SWAP7 SWAP6 SWAP5 SWAP4 SWAP3 SWAP2 SWAP1 PUSH2 0x229C JUMP JUMPDEST PUSH1 0x40 MLOAD DUP1 SWAP2 SUB SWAP1 LOG1 POP POP POP POP POP POP POP POP POP JUMP JUMPDEST CALLER PUSH20 0xFFFFFFFFFFFFFFFFFFFFFFFFFFFFFFFFFFFFFFFF AND PUSH1 0x5 PUSH0 DUP4 DUP2 MSTORE PUSH1 0x20 ADD SWAP1 DUP2 MSTORE PUSH1 0x20 ADD PUSH0 KECCAK256 PUSH1 0x7 ADD PUSH0 SWAP1 SLOAD SWAP1 PUSH2 0x100 EXP SWAP1 DIV PUSH20 0xFFFFFFFFFFFFFFFFFFFFFFFFFFFFFFFFFFFFFFFF AND PUSH20 0xFFFFFFFFFFFFFFFFFFFFFFFFFFFFFFFFFFFFFFFF AND EQ PUSH2 0x1165 JUMPI PUSH1 0x40 MLOAD PUSH32 0x8C379A000000000000000000000000000000000000000000000000000000000 DUP2 MSTORE PUSH1 0x4 ADD PUSH2 0x115C SWAP1 PUSH2 0x25D2 JUMP JUMPDEST PUSH1 0x40 MLOAD DUP1 SWAP2 SUB SWAP1 REVERT JUMPDEST PUSH0 PUSH1 0x5 PUSH0 DUP4 DUP2 MSTORE PUSH1 0x20 ADD SWAP1 DUP2 MSTORE PUSH1 0x20 ADD PUSH0 KECCAK256 SWAP1 POP DUP1 PUSH1 0x1 ADD SLOAD DUP2 PUSH1 0x2 ADD SLOAD PUSH2 0x118D SWAP2 SWAP1 PUSH2 0x25F0 JUMP JUMPDEST TIMESTAMP LT ISZERO PUSH2 0x11CF JUMPI PUSH1 0x40 MLOAD PUSH32 0x8C379A000000000000000000000000000000000000000000000000000000000 DUP2 MSTORE PUSH1 0x4 ADD PUSH2 0x11C6 SWAP1 PUSH2 0x266D JUMP JUMPDEST PUSH1 0x40 MLOAD DUP1 SWAP2 SUB SWAP1 REVERT JUMPDEST PUSH0 DUP2 PUSH1 0x5 ADD SLOAD DUP3 PUSH1 0x6 ADD SLOAD PUSH2 0x11E4 SWAP2 SWAP1 PUSH2 0x26B8 JUMP JUMPDEST SWAP1 POP PUSH0 DUP3 PUSH1 0x8 ADD DUP3 DUP2 SLOAD DUP2 LT PUSH2 0x11FD JUMPI PUSH2 0x11FC PUSH2 0x26E8 JUMP JUMPDEST JUMPDEST SWAP1 PUSH0 MSTORE PUSH1 0x20 PUSH0 KECCAK256 ADD PUSH0 SWAP1 SLOAD SWAP1 PUSH2 0x100 EXP SWAP1 DIV PUSH20 0xFFFFFFFFFFFFFFFFFFFFFFFFFFFFFFFFFFFFFFFF AND SWAP1 POP PUSH0 DUP4 PUSH0 ADD SLOAD DUP5 PUSH1 0x8 ADD DUP1 SLOAD SWAP1 POP PUSH2 0x123E SWAP2 SWAP1 PUSH2 0x2715 JUMP JUMPDEST SWAP1 POP PUSH0 PUSH2 0x124B DUP7 DUP4 PUSH2 0x139C JUMP JUMPDEST SWAP1 POP PUSH1 0x3 PUSH0 SWAP1 SLOAD SWAP1 PUSH2 0x100 EXP SWAP1 DIV PUSH20 0xFFFFFFFFFFFFFFFFFFFFFFFFFFFFFFFFFFFFFFFF AND PUSH20 0xFFFFFFFFFFFFFFFFFFFFFFFFFFFFFFFFFFFFFFFF AND PUSH4 0xA9059CBB CALLER DUP4 DUP6 PUSH2 0x1297 SWAP2 SWAP1 PUSH2 0x1F40 JUMP JUMPDEST PUSH1 0x40 MLOAD DUP4 PUSH4 0xFFFFFFFF AND PUSH1 0xE0 SHL DUP2 MSTORE PUSH1 0x4 ADD PUSH2 0x12B4 SWAP3 SWAP2 SWAP1 PUSH2 0x1D56 JUMP JUMPDEST PUSH1 0x20 PUSH1 0x40 MLOAD DUP1 DUP4 SUB DUP2 PUSH0 DUP8 GAS CALL ISZERO DUP1 ISZERO PUSH2 0x12D0 JUMPI RETURNDATASIZE PUSH0 DUP1 RETURNDATACOPY RETURNDATASIZE PUSH0 REVERT JUMPDEST POP POP POP POP PUSH1 0x40 MLOAD RETURNDATASIZE PUSH1 0x1F NOT PUSH1 0x1F DUP3 ADD AND DUP3 ADD DUP1 PUSH1 0x40 MSTORE POP DUP2 ADD SWAP1 PUSH2 0x12F4 SWAP2 SWAP1 PUSH2 0x1FA8 JUMP JUMPDEST PUSH2 0x1333 JUMPI PUSH1 0x40 MLOAD PUSH32 0x8C379A000000000000000000000000000000000000000000000000000000000 DUP2 MSTORE PUSH1 0x4 ADD PUSH2 0x132A SWAP1 PUSH2 0x201D JUMP JUMPDEST PUSH1 0x40 MLOAD DUP1 SWAP2 SUB SWAP1 REVERT JUMPDEST TIMESTAMP DUP6 PUSH1 0x2 ADD DUP2 SWAP1 SSTORE POP PUSH32 0x35CB3811461CB824B245820EEE97AB50EE1CC609F2BDD3BB10F5F0010184A7D3 DUP7 DUP5 DUP8 PUSH1 0x6 ADD SLOAD PUSH1 0x40 MLOAD PUSH2 0x1373 SWAP4 SWAP3 SWAP2 SWAP1 PUSH2 0x2756 JUMP JUMPDEST PUSH1 0x40 MLOAD DUP1 SWAP2 SUB SWAP1 LOG1 DUP5 PUSH1 0x6 ADD PUSH0 DUP2 SLOAD DUP1 SWAP3 SWAP2 SWAP1 PUSH2 0x138F SWAP1 PUSH2 0x248D JUMP JUMPDEST SWAP2 SWAP1 POP SSTORE POP POP POP POP POP POP POP JUMP JUMPDEST PUSH0 DUP1 PUSH1 0x5 PUSH0 DUP6 DUP2 MSTORE PUSH1 0x20 ADD SWAP1 DUP2 MSTORE PUSH1 0x20 ADD PUSH0 KECCAK256 SWAP1 POP DUP1 PUSH1 0x4 ADD SLOAD DUP2 PUSH1 0x3 ADD SLOAD DUP5 PUSH2 0x13C6 SWAP2 SWAP1 PUSH2 0x2715 JUMP JUMPDEST PUSH2 0x13D0 SWAP2 SWAP1 PUSH2 0x278B JUMP JUMPDEST SWAP2 POP POP SWAP3 SWAP2 POP POP JUMP JUMPDEST PUSH2 0x13E1 PUSH2 0x145D JUMP JUMPDEST PUSH0 PUSH20 0xFFFFFFFFFFFFFFFFFFFFFFFFFFFFFFFFFFFFFFFF AND DUP2 PUSH20 0xFFFFFFFFFFFFFFFFFFFFFFFFFFFFFFFFFFFFFFFF AND SUB PUSH2 0x1451 JUMPI PUSH0 PUSH1 0x40 MLOAD PUSH32 0x1E4FBDF700000000000000000000000000000000000000000000000000000000 DUP2 MSTORE PUSH1 0x4 ADD PUSH2 0x1448 SWAP2 SWAP1 PUSH2 0x1B94 JUMP JUMPDEST PUSH1 0x40 MLOAD DUP1 SWAP2 SUB SWAP1 REVERT JUMPDEST PUSH2 0x145A DUP2 PUSH2 0x14FA JUMP JUMPDEST POP JUMP JUMPDEST PUSH2 0x1465 PUSH2 0x166A JUMP JUMPDEST PUSH20 0xFFFFFFFFFFFFFFFFFFFFFFFFFFFFFFFFFFFFFFFF AND PUSH2 0x1483 PUSH2 0xD48 JUMP JUMPDEST PUSH20 0xFFFFFFFFFFFFFFFFFFFFFFFFFFFFFFFFFFFFFFFF AND EQ PUSH2 0x14E2 JUMPI PUSH2 0x14A6 PUSH2 0x166A JUMP JUMPDEST PUSH1 0x40 MLOAD PUSH32 0x118CDAA700000000000000000000000000000000000000000000000000000000 DUP2 MSTORE PUSH1 0x4 ADD PUSH2 0x14D9 SWAP2 SWAP1 PUSH2 0x1B94 JUMP JUMPDEST PUSH1 0x40 MLOAD DUP1 SWAP2 SUB SWAP1 REVERT JUMPDEST JUMP JUMPDEST PUSH0 DUP3 PUSH2 0x14F0 DUP6 DUP5 PUSH2 0x1671 JUMP JUMPDEST EQ SWAP1 POP SWAP4 SWAP3 POP POP POP JUMP JUMPDEST PUSH0 PUSH2 0x1503 PUSH2 0x1643 JUMP JUMPDEST SWAP1 POP PUSH0 DUP2 PUSH0 ADD PUSH0 SWAP1 SLOAD SWAP1 PUSH2 0x100 EXP SWAP1 DIV PUSH20 0xFFFFFFFFFFFFFFFFFFFFFFFFFFFFFFFFFFFFFFFF AND SWAP1 POP DUP3 DUP3 PUSH0 ADD PUSH0 PUSH2 0x100 EXP DUP2 SLOAD DUP2 PUSH20 0xFFFFFFFFFFFFFFFFFFFFFFFFFFFFFFFFFFFFFFFF MUL NOT AND SWAP1 DUP4 PUSH20 0xFFFFFFFFFFFFFFFFFFFFFFFFFFFFFFFFFFFFFFFF AND MUL OR SWAP1 SSTORE POP DUP3 PUSH20 0xFFFFFFFFFFFFFFFFFFFFFFFFFFFFFFFFFFFFFFFF AND DUP2 PUSH20 0xFFFFFFFFFFFFFFFFFFFFFFFFFFFFFFFFFFFFFFFF AND PUSH32 0x8BE0079C531659141344CD1FD0A4F28419497F9722A3DAAFE3B4186F6B6457E0 PUSH1 0x40 MLOAD PUSH1 0x40 MLOAD DUP1 SWAP2 SUB SWAP1 LOG3 POP POP POP JUMP JUMPDEST PUSH0 PUSH32 0xF0C57E16840DF040F15088DC2F81FE391C3923BEC73E23A9662EFC9C229C6A00 SWAP1 POP SWAP1 JUMP JUMPDEST PUSH2 0x15FA PUSH2 0x16BF JUMP JUMPDEST PUSH2 0x1603 DUP2 PUSH2 0x16FF JUMP JUMPDEST POP JUMP JUMPDEST PUSH0 DUP1 PUSH1 0x64 DUP4 PUSH2 0x1615 SWAP2 SWAP1 PUSH2 0x278B JUMP JUMPDEST SWAP1 POP DUP1 DUP4 PUSH2 0x1623 SWAP2 SWAP1 PUSH2 0x1F40 JUMP JUMPDEST SWAP2 POP DUP1 PUSH1 0x2 PUSH0 DUP3 DUP3 SLOAD PUSH2 0x1636 SWAP2 SWAP1 PUSH2 0x25F0 JUMP JUMPDEST SWAP3 POP POP DUP2 SWAP1 SSTORE POP POP SWAP2 SWAP1 POP JUMP JUMPDEST PUSH0 PUSH32 0x9016D09D72D40FDAE2FD8CEAC6B6234C7706214FD39C1CD1E609A0528C199300 SWAP1 POP SWAP1 JUMP JUMPDEST PUSH0 CALLER SWAP1 POP SWAP1 JUMP JUMPDEST PUSH0 DUP1 DUP3 SWAP1 POP PUSH0 JUMPDEST DUP5 MLOAD DUP2 LT ISZERO PUSH2 0x16B4 JUMPI PUSH2 0x16A5 DUP3 DUP7 DUP4 DUP2 MLOAD DUP2 LT PUSH2 0x1698 JUMPI PUSH2 0x1697 PUSH2 0x26E8 JUMP JUMPDEST JUMPDEST PUSH1 0x20 MUL PUSH1 0x20 ADD ADD MLOAD PUSH2 0x1783 JUMP JUMPDEST SWAP2 POP DUP1 DUP1 PUSH1 0x1 ADD SWAP2 POP POP PUSH2 0x1678 JUMP JUMPDEST POP DUP1 SWAP2 POP POP SWAP3 SWAP2 POP POP JUMP JUMPDEST PUSH2 0x16C7 PUSH2 0x17AD JUMP JUMPDEST PUSH2 0x16FD JUMPI PUSH1 0x40 MLOAD PUSH32 0xD7E6BCF800000000000000000000000000000000000000000000000000000000 DUP2 MSTORE PUSH1 0x4 ADD PUSH1 0x40 MLOAD DUP1 SWAP2 SUB SWAP1 REVERT JUMPDEST JUMP JUMPDEST PUSH2 0x1707 PUSH2 0x16BF JUMP JUMPDEST PUSH0 PUSH20 0xFFFFFFFFFFFFFFFFFFFFFFFFFFFFFFFFFFFFFFFF AND DUP2 PUSH20 0xFFFFFFFFFFFFFFFFFFFFFFFFFFFFFFFFFFFFFFFF AND SUB PUSH2 0x1777 JUMPI PUSH0 PUSH1 0x40 MLOAD PUSH32 0x1E4FBDF700000000000000000000000000000000000000000000000000000000 DUP2 MSTORE PUSH1 0x4 ADD PUSH2 0x176E SWAP2 SWAP1 PUSH2 0x1B94 JUMP JUMPDEST PUSH1 0x40 MLOAD DUP1 SWAP2 SUB SWAP1 REVERT JUMPDEST PUSH2 0x1780 DUP2 PUSH2 0x14FA JUMP JUMPDEST POP JUMP JUMPDEST PUSH0 DUP2 DUP4 LT PUSH2 0x179A JUMPI PUSH2 0x1795 DUP3 DUP5 PUSH2 0x17CB JUMP JUMPDEST PUSH2 0x17A5 JUMP JUMPDEST PUSH2 0x17A4 DUP4 DUP4 PUSH2 0x17CB JUMP JUMPDEST JUMPDEST SWAP1 POP SWAP3 SWAP2 POP POP JUMP JUMPDEST PUSH0 PUSH2 0x17B6 PUSH2 0x15CB JUMP JUMPDEST PUSH0 ADD PUSH1 0x8 SWAP1 SLOAD SWAP1 PUSH2 0x100 EXP SWAP1 DIV PUSH1 0xFF AND SWAP1 POP SWAP1 JUMP JUMPDEST PUSH0 DUP3 PUSH0 MSTORE DUP2 PUSH1 0x20 MSTORE PUSH1 0x40 PUSH0 KECCAK256 SWAP1 POP SWAP3 SWAP2 POP POP JUMP JUMPDEST DUP3 DUP1 SLOAD DUP3 DUP3 SSTORE SWAP1 PUSH0 MSTORE PUSH1 0x20 PUSH0 KECCAK256 SWAP1 DUP2 ADD SWAP3 DUP3 ISZERO PUSH2 0x1855 JUMPI SWAP2 PUSH1 0x20 MUL DUP3 ADD JUMPDEST DUP3 DUP2 GT ISZERO PUSH2 0x1854 JUMPI DUP3 MLOAD DUP3 PUSH0 PUSH2 0x100 EXP DUP2 SLOAD DUP2 PUSH20 0xFFFFFFFFFFFFFFFFFFFFFFFFFFFFFFFFFFFFFFFF MUL NOT AND SWAP1 DUP4 PUSH20 0xFFFFFFFFFFFFFFFFFFFFFFFFFFFFFFFFFFFFFFFF AND MUL OR SWAP1 SSTORE POP SWAP2 PUSH1 0x20 ADD SWAP2 SWAP1 PUSH1 0x1 ADD SWAP1 PUSH2 0x17FD JUMP JUMPDEST JUMPDEST POP SWAP1 POP PUSH2 0x1862 SWAP2 SWAP1 PUSH2 0x1866 JUMP JUMPDEST POP SWAP1 JUMP JUMPDEST JUMPDEST DUP1 DUP3 GT ISZERO PUSH2 0x187D JUMPI PUSH0 DUP2 PUSH0 SWAP1 SSTORE POP PUSH1 0x1 ADD PUSH2 0x1867 JUMP JUMPDEST POP SWAP1 JUMP JUMPDEST PUSH0 DUP2 SWAP1 POP SWAP2 SWAP1 POP JUMP JUMPDEST PUSH2 0x1893 DUP2 PUSH2 0x1881 JUMP JUMPDEST DUP3 MSTORE POP POP JUMP JUMPDEST PUSH0 PUSH1 0x20 DUP3 ADD SWAP1 POP PUSH2 0x18AC PUSH0 DUP4 ADD DUP5 PUSH2 0x188A JUMP JUMPDEST SWAP3 SWAP2 POP POP JUMP JUMPDEST PUSH0 PUSH20 0xFFFFFFFFFFFFFFFFFFFFFFFFFFFFFFFFFFFFFFFF DUP3 AND SWAP1 POP SWAP2 SWAP1 POP JUMP JUMPDEST PUSH0 DUP2 SWAP1 POP SWAP2 SWAP1 POP JUMP JUMPDEST PUSH0 PUSH2 0x18F4 PUSH2 0x18EF PUSH2 0x18EA DUP5 PUSH2 0x18B2 JUMP JUMPDEST PUSH2 0x18D1 JUMP JUMPDEST PUSH2 0x18B2 JUMP JUMPDEST SWAP1 POP SWAP2 SWAP1 POP JUMP JUMPDEST PUSH0 PUSH2 0x1905 DUP3 PUSH2 0x18DA JUMP JUMPDEST SWAP1 POP SWAP2 SWAP1 POP JUMP JUMPDEST PUSH0 PUSH2 0x1916 DUP3 PUSH2 0x18FB JUMP JUMPDEST SWAP1 POP SWAP2 SWAP1 POP JUMP JUMPDEST PUSH2 0x1926 DUP2 PUSH2 0x190C JUMP JUMPDEST DUP3 MSTORE POP POP JUMP JUMPDEST PUSH0 PUSH1 0x20 DUP3 ADD SWAP1 POP PUSH2 0x193F PUSH0 DUP4 ADD DUP5 PUSH2 0x191D JUMP JUMPDEST SWAP3 SWAP2 POP POP JUMP JUMPDEST PUSH0 PUSH2 0x194F DUP3 PUSH2 0x18FB JUMP JUMPDEST SWAP1 POP SWAP2 SWAP1 POP JUMP JUMPDEST PUSH2 0x195F DUP2 PUSH2 0x1945 JUMP JUMPDEST DUP3 MSTORE POP POP JUMP JUMPDEST PUSH0 PUSH1 0x20 DUP3 ADD SWAP1 POP PUSH2 0x1978 PUSH0 DUP4 ADD DUP5 PUSH2 0x1956 JUMP JUMPDEST SWAP3 SWAP2 POP POP JUMP JUMPDEST PUSH0 DUP1 REVERT JUMPDEST PUSH0 DUP1 REVERT JUMPDEST PUSH0 DUP2 SWAP1 POP SWAP2 SWAP1 POP JUMP JUMPDEST PUSH2 0x1998 DUP2 PUSH2 0x1986 JUMP JUMPDEST DUP2 EQ PUSH2 0x19A2 JUMPI PUSH0 DUP1 REVERT JUMPDEST POP JUMP JUMPDEST PUSH0 DUP2 CALLDATALOAD SWAP1 POP PUSH2 0x19B3 DUP2 PUSH2 0x198F JUMP JUMPDEST SWAP3 SWAP2 POP POP JUMP JUMPDEST PUSH0 DUP1 REVERT JUMPDEST PUSH0 DUP1 REVERT JUMPDEST PUSH0 DUP1 REVERT JUMPDEST PUSH0 DUP1 DUP4 PUSH1 0x1F DUP5 ADD SLT PUSH2 0x19DA JUMPI PUSH2 0x19D9 PUSH2 0x19B9 JUMP JUMPDEST JUMPDEST DUP3 CALLDATALOAD SWAP1 POP PUSH8 0xFFFFFFFFFFFFFFFF DUP2 GT ISZERO PUSH2 0x19F7 JUMPI PUSH2 0x19F6 PUSH2 0x19BD JUMP JUMPDEST JUMPDEST PUSH1 0x20 DUP4 ADD SWAP2 POP DUP4 PUSH1 0x20 DUP3 MUL DUP4 ADD GT ISZERO PUSH2 0x1A13 JUMPI PUSH2 0x1A12 PUSH2 0x19C1 JUMP JUMPDEST JUMPDEST SWAP3 POP SWAP3 SWAP1 POP JUMP JUMPDEST PUSH0 DUP1 PUSH0 PUSH1 0x40 DUP5 DUP7 SUB SLT ISZERO PUSH2 0x1A31 JUMPI PUSH2 0x1A30 PUSH2 0x197E JUMP JUMPDEST JUMPDEST PUSH0 PUSH2 0x1A3E DUP7 DUP3 DUP8 ADD PUSH2 0x19A5 JUMP JUMPDEST SWAP4 POP POP PUSH1 0x20 DUP5 ADD CALLDATALOAD PUSH8 0xFFFFFFFFFFFFFFFF DUP2 GT ISZERO PUSH2 0x1A5F JUMPI PUSH2 0x1A5E PUSH2 0x1982 JUMP JUMPDEST JUMPDEST PUSH2 0x1A6B DUP7 DUP3 DUP8 ADD PUSH2 0x19C5 JUMP JUMPDEST SWAP3 POP SWAP3 POP POP SWAP3 POP SWAP3 POP SWAP3 JUMP JUMPDEST PUSH0 PUSH2 0x1A81 DUP3 PUSH2 0x18B2 JUMP JUMPDEST SWAP1 POP SWAP2 SWAP1 POP JUMP JUMPDEST PUSH2 0x1A91 DUP2 PUSH2 0x1A77 JUMP JUMPDEST DUP2 EQ PUSH2 0x1A9B JUMPI PUSH0 DUP1 REVERT JUMPDEST POP JUMP JUMPDEST PUSH0 DUP2 CALLDATALOAD SWAP1 POP PUSH2 0x1AAC DUP2 PUSH2 0x1A88 JUMP JUMPDEST SWAP3 SWAP2 POP POP JUMP JUMPDEST PUSH0 PUSH1 0x20 DUP3 DUP5 SUB SLT ISZERO PUSH2 0x1AC7 JUMPI PUSH2 0x1AC6 PUSH2 0x197E JUMP JUMPDEST JUMPDEST PUSH0 PUSH2 0x1AD4 DUP5 DUP3 DUP6 ADD PUSH2 0x1A9E JUMP JUMPDEST SWAP2 POP POP SWAP3 SWAP2 POP POP JUMP JUMPDEST PUSH2 0x1AE6 DUP2 PUSH2 0x1986 JUMP JUMPDEST DUP3 MSTORE POP POP JUMP JUMPDEST PUSH0 PUSH1 0x20 DUP3 ADD SWAP1 POP PUSH2 0x1AFF PUSH0 DUP4 ADD DUP5 PUSH2 0x1ADD JUMP JUMPDEST SWAP3 SWAP2 POP POP JUMP JUMPDEST PUSH2 0x1B0E DUP2 PUSH2 0x1881 JUMP JUMPDEST DUP2 EQ PUSH2 0x1B18 JUMPI PUSH0 DUP1 REVERT JUMPDEST POP JUMP JUMPDEST PUSH0 DUP2 CALLDATALOAD SWAP1 POP PUSH2 0x1B29 DUP2 PUSH2 0x1B05 JUMP JUMPDEST SWAP3 SWAP2 POP POP JUMP JUMPDEST PUSH0 PUSH1 0x20 DUP3 DUP5 SUB SLT ISZERO PUSH2 0x1B44 JUMPI PUSH2 0x1B43 PUSH2 0x197E JUMP JUMPDEST JUMPDEST PUSH0 PUSH2 0x1B51 DUP5 DUP3 DUP6 ADD PUSH2 0x1B1B JUMP JUMPDEST SWAP2 POP POP SWAP3 SWAP2 POP POP JUMP JUMPDEST PUSH0 PUSH1 0x20 DUP3 DUP5 SUB SLT ISZERO PUSH2 0x1B6F JUMPI PUSH2 0x1B6E PUSH2 0x197E JUMP JUMPDEST JUMPDEST PUSH0 PUSH2 0x1B7C DUP5 DUP3 DUP6 ADD PUSH2 0x19A5 JUMP JUMPDEST SWAP2 POP POP SWAP3 SWAP2 POP POP JUMP JUMPDEST PUSH2 0x1B8E DUP2 PUSH2 0x1A77 JUMP JUMPDEST DUP3 MSTORE POP POP JUMP JUMPDEST PUSH0 PUSH1 0x20 DUP3 ADD SWAP1 POP PUSH2 0x1BA7 PUSH0 DUP4 ADD DUP5 PUSH2 0x1B85 JUMP JUMPDEST SWAP3 SWAP2 POP POP JUMP JUMPDEST PUSH0 PUSH2 0x1BB7 DUP3 PUSH2 0x18FB JUMP JUMPDEST SWAP1 POP SWAP2 SWAP1 POP JUMP JUMPDEST PUSH2 0x1BC7 DUP2 PUSH2 0x1BAD JUMP JUMPDEST DUP3 MSTORE POP POP JUMP JUMPDEST PUSH0 PUSH1 0x20 DUP3 ADD SWAP1 POP PUSH2 0x1BE0 PUSH0 DUP4 ADD DUP5 PUSH2 0x1BBE JUMP JUMPDEST SWAP3 SWAP2 POP POP JUMP JUMPDEST PUSH0 PUSH2 0x100 DUP3 ADD SWAP1 POP PUSH2 0x1BFA PUSH0 DUP4 ADD DUP12 PUSH2 0x1ADD JUMP JUMPDEST PUSH2 0x1C07 PUSH1 0x20 DUP4 ADD DUP11 PUSH2 0x1ADD JUMP JUMPDEST PUSH2 0x1C14 PUSH1 0x40 DUP4 ADD DUP10 PUSH2 0x1ADD JUMP JUMPDEST PUSH2 0x1C21 PUSH1 0x60 DUP4 ADD DUP9 PUSH2 0x1ADD JUMP JUMPDEST PUSH2 0x1C2E PUSH1 0x80 DUP4 ADD DUP8 PUSH2 0x1ADD JUMP JUMPDEST PUSH2 0x1C3B PUSH1 0xA0 DUP4 ADD DUP7 PUSH2 0x1ADD JUMP JUMPDEST PUSH2 0x1C48 PUSH1 0xC0 DUP4 ADD DUP6 PUSH2 0x1ADD JUMP JUMPDEST PUSH2 0x1C55 PUSH1 0xE0 DUP4 ADD DUP5 PUSH2 0x1B85 JUMP JUMPDEST SWAP10 SWAP9 POP POP POP POP POP POP POP POP POP JUMP JUMPDEST PUSH0 DUP1 PUSH0 DUP1 PUSH0 PUSH1 0xA0 DUP7 DUP9 SUB SLT ISZERO PUSH2 0x1C7B JUMPI PUSH2 0x1C7A PUSH2 0x197E JUMP JUMPDEST JUMPDEST PUSH0 PUSH2 0x1C88 DUP9 DUP3 DUP10 ADD PUSH2 0x19A5 JUMP JUMPDEST SWAP6 POP POP PUSH1 0x20 PUSH2 0x1C99 DUP9 DUP3 DUP10 ADD PUSH2 0x19A5 JUMP JUMPDEST SWAP5 POP POP PUSH1 0x40 PUSH2 0x1CAA DUP9 DUP3 DUP10 ADD PUSH2 0x19A5 JUMP JUMPDEST SWAP4 POP POP PUSH1 0x60 PUSH2 0x1CBB DUP9 DUP3 DUP10 ADD PUSH2 0x19A5 JUMP JUMPDEST SWAP3 POP POP PUSH1 0x80 PUSH2 0x1CCC DUP9 DUP3 DUP10 ADD PUSH2 0x19A5 JUMP JUMPDEST SWAP2 POP POP SWAP3 SWAP6 POP SWAP3 SWAP6 SWAP1 SWAP4 POP JUMP JUMPDEST PUSH0 DUP1 PUSH1 0x40 DUP4 DUP6 SUB SLT ISZERO PUSH2 0x1CEF JUMPI PUSH2 0x1CEE PUSH2 0x197E JUMP JUMPDEST JUMPDEST PUSH0 PUSH2 0x1CFC DUP6 DUP3 DUP7 ADD PUSH2 0x19A5 JUMP JUMPDEST SWAP3 POP POP PUSH1 0x20 PUSH2 0x1D0D DUP6 DUP3 DUP7 ADD PUSH2 0x19A5 JUMP JUMPDEST SWAP2 POP POP SWAP3 POP SWAP3 SWAP1 POP JUMP JUMPDEST PUSH0 DUP2 MLOAD SWAP1 POP PUSH2 0x1D25 DUP2 PUSH2 0x198F JUMP JUMPDEST SWAP3 SWAP2 POP POP JUMP JUMPDEST PUSH0 PUSH1 0x20 DUP3 DUP5 SUB SLT ISZERO PUSH2 0x1D40 JUMPI PUSH2 0x1D3F PUSH2 0x197E JUMP JUMPDEST JUMPDEST PUSH0 PUSH2 0x1D4D DUP5 DUP3 DUP6 ADD PUSH2 0x1D17 JUMP JUMPDEST SWAP2 POP POP SWAP3 SWAP2 POP POP JUMP JUMPDEST PUSH0 PUSH1 0x40 DUP3 ADD SWAP1 POP PUSH2 0x1D69 PUSH0 DUP4 ADD DUP6 PUSH2 0x1B85 JUMP JUMPDEST PUSH2 0x1D76 PUSH1 0x20 DUP4 ADD DUP5 PUSH2 0x1ADD JUMP JUMPDEST SWAP4 SWAP3 POP POP POP JUMP JUMPDEST PUSH0 DUP2 PUSH1 0x60 SHL SWAP1 POP SWAP2 SWAP1 POP JUMP JUMPDEST PUSH0 PUSH2 0x1D93 DUP3 PUSH2 0x1D7D JUMP JUMPDEST SWAP1 POP SWAP2 SWAP1 POP JUMP JUMPDEST PUSH0 PUSH2 0x1DA4 DUP3 PUSH2 0x1D89 JUMP JUMPDEST SWAP1 POP SWAP2 SWAP1 POP JUMP JUMPDEST PUSH2 0x1DBC PUSH2 0x1DB7 DUP3 PUSH2 0x1A77 JUMP JUMPDEST PUSH2 0x1D9A JUMP JUMPDEST DUP3 MSTORE POP POP JUMP JUMPDEST PUSH0 DUP2 SWAP1 POP SWAP2 SWAP1 POP JUMP JUMPDEST PUSH2 0x1DDC PUSH2 0x1DD7 DUP3 PUSH2 0x1986 JUMP JUMPDEST PUSH2 0x1DC2 JUMP JUMPDEST DUP3 MSTORE POP POP JUMP JUMPDEST PUSH0 PUSH2 0x1DED DUP3 DUP6 PUSH2 0x1DAB JUMP JUMPDEST PUSH1 0x14 DUP3 ADD SWAP2 POP PUSH2 0x1DFD DUP3 DUP5 PUSH2 0x1DCB JUMP JUMPDEST PUSH1 0x20 DUP3 ADD SWAP2 POP DUP2 SWAP1 POP SWAP4 SWAP3 POP POP POP JUMP JUMPDEST PUSH0 DUP3 DUP3 MSTORE PUSH1 0x20 DUP3 ADD SWAP1 POP SWAP3 SWAP2 POP POP JUMP JUMPDEST PUSH32 0x496E76616C69642070726F6F662E000000000000000000000000000000000000 PUSH0 DUP3 ADD MSTORE POP JUMP JUMPDEST PUSH0 PUSH2 0x1E51 PUSH1 0xE DUP4 PUSH2 0x1E0D JUMP JUMPDEST SWAP2 POP PUSH2 0x1E5C DUP3 PUSH2 0x1E1D JUMP JUMPDEST PUSH1 0x20 DUP3 ADD SWAP1 POP SWAP2 SWAP1 POP JUMP JUMPDEST PUSH0 PUSH1 0x20 DUP3 ADD SWAP1 POP DUP2 DUP2 SUB PUSH0 DUP4 ADD MSTORE PUSH2 0x1E7E DUP2 PUSH2 0x1E45 JUMP JUMPDEST SWAP1 POP SWAP2 SWAP1 POP JUMP JUMPDEST PUSH32 0x4E6F2066756E6473206C65667420746F20636C61696D206F7220616C72656164 PUSH0 DUP3 ADD MSTORE PUSH32 0x7920636C61696D65642E00000000000000000000000000000000000000000000 PUSH1 0x20 DUP3 ADD MSTORE POP JUMP JUMPDEST PUSH0 PUSH2 0x1EDF PUSH1 0x2A DUP4 PUSH2 0x1E0D JUMP JUMPDEST SWAP2 POP PUSH2 0x1EEA DUP3 PUSH2 0x1E85 JUMP JUMPDEST PUSH1 0x40 DUP3 ADD SWAP1 POP SWAP2 SWAP1 POP JUMP JUMPDEST PUSH0 PUSH1 0x20 DUP3 ADD SWAP1 POP DUP2 DUP2 SUB PUSH0 DUP4 ADD MSTORE PUSH2 0x1F0C DUP2 PUSH2 0x1ED3 JUMP JUMPDEST SWAP1 POP SWAP2 SWAP1 POP JUMP JUMPDEST PUSH32 0x4E487B7100000000000000000000000000000000000000000000000000000000 PUSH0 MSTORE PUSH1 0x11 PUSH1 0x4 MSTORE PUSH1 0x24 PUSH0 REVERT JUMPDEST PUSH0 PUSH2 0x1F4A DUP3 PUSH2 0x1986 JUMP JUMPDEST SWAP2 POP PUSH2 0x1F55 DUP4 PUSH2 0x1986 JUMP JUMPDEST SWAP3 POP DUP3 DUP3 SUB SWAP1 POP DUP2 DUP2 GT ISZERO PUSH2 0x1F6D JUMPI PUSH2 0x1F6C PUSH2 0x1F13 JUMP JUMPDEST JUMPDEST SWAP3 SWAP2 POP POP JUMP JUMPDEST PUSH0 DUP2 ISZERO ISZERO SWAP1 POP SWAP2 SWAP1 POP JUMP JUMPDEST PUSH2 0x1F87 DUP2 PUSH2 0x1F73 JUMP JUMPDEST DUP2 EQ PUSH2 0x1F91 JUMPI PUSH0 DUP1 REVERT JUMPDEST POP JUMP JUMPDEST PUSH0 DUP2 MLOAD SWAP1 POP PUSH2 0x1FA2 DUP2 PUSH2 0x1F7E JUMP JUMPDEST SWAP3 SWAP2 POP POP JUMP JUMPDEST PUSH0 PUSH1 0x20 DUP3 DUP5 SUB SLT ISZERO PUSH2 0x1FBD JUMPI PUSH2 0x1FBC PUSH2 0x197E JUMP JUMPDEST JUMPDEST PUSH0 PUSH2 0x1FCA DUP5 DUP3 DUP6 ADD PUSH2 0x1F94 JUMP JUMPDEST SWAP2 POP POP SWAP3 SWAP2 POP POP JUMP JUMPDEST PUSH32 0x5969656C64207472616E73666572206661696C65640000000000000000000000 PUSH0 DUP3 ADD MSTORE POP JUMP JUMPDEST PUSH0 PUSH2 0x2007 PUSH1 0x15 DUP4 PUSH2 0x1E0D JUMP JUMPDEST SWAP2 POP PUSH2 0x2012 DUP3 PUSH2 0x1FD3 JUMP JUMPDEST PUSH1 0x20 DUP3 ADD SWAP1 POP SWAP2 SWAP1 POP JUMP JUMPDEST PUSH0 PUSH1 0x20 DUP3 ADD SWAP1 POP DUP2 DUP2 SUB PUSH0 DUP4 ADD MSTORE PUSH2 0x2034 DUP2 PUSH2 0x1FFB JUMP JUMPDEST SWAP1 POP SWAP2 SWAP1 POP JUMP JUMPDEST PUSH0 PUSH1 0x40 DUP3 ADD SWAP1 POP PUSH2 0x204E PUSH0 DUP4 ADD DUP6 PUSH2 0x1B85 JUMP JUMPDEST PUSH2 0x205B PUSH1 0x20 DUP4 ADD DUP5 PUSH2 0x1B85 JUMP JUMPDEST SWAP4 SWAP3 POP POP POP JUMP JUMPDEST PUSH0 DUP2 SWAP1 POP SWAP2 SWAP1 POP JUMP JUMPDEST PUSH0 PUSH8 0xFFFFFFFFFFFFFFFF DUP3 AND SWAP1 POP SWAP2 SWAP1 POP JUMP JUMPDEST PUSH0 PUSH2 0x2098 PUSH2 0x2093 PUSH2 0x208E DUP5 PUSH2 0x2062 JUMP JUMPDEST PUSH2 0x18D1 JUMP JUMPDEST PUSH2 0x206B JUMP JUMPDEST SWAP1 POP SWAP2 SWAP1 POP JUMP JUMPDEST PUSH2 0x20A8 DUP2 PUSH2 0x207E JUMP JUMPDEST DUP3 MSTORE POP POP JUMP JUMPDEST PUSH0 PUSH1 0x20 DUP3 ADD SWAP1 POP PUSH2 0x20C1 PUSH0 DUP4 ADD DUP5 PUSH2 0x209F JUMP JUMPDEST SWAP3 SWAP2 POP POP JUMP JUMPDEST PUSH32 0x506F742069732066756C6C000000000000000000000000000000000000000000 PUSH0 DUP3 ADD MSTORE POP JUMP JUMPDEST PUSH0 PUSH2 0x20FB PUSH1 0xB DUP4 PUSH2 0x1E0D JUMP JUMPDEST SWAP2 POP PUSH2 0x2106 DUP3 PUSH2 0x20C7 JUMP JUMPDEST PUSH1 0x20 DUP3 ADD SWAP1 POP SWAP2 SWAP1 POP JUMP JUMPDEST PUSH0 PUSH1 0x20 DUP3 ADD SWAP1 POP DUP2 DUP2 SUB PUSH0 DUP4 ADD MSTORE PUSH2 0x2128 DUP2 PUSH2 0x20EF JUMP JUMPDEST SWAP1 POP SWAP2 SWAP1 POP JUMP JUMPDEST PUSH32 0x526F746174696E6720706F74732063616E6E6F74206265206A6F696E65640000 PUSH0 DUP3 ADD MSTORE POP JUMP JUMPDEST PUSH0 PUSH2 0x2163 PUSH1 0x1E DUP4 PUSH2 0x1E0D JUMP JUMPDEST SWAP2 POP PUSH2 0x216E DUP3 PUSH2 0x212F JUMP JUMPDEST PUSH1 0x20 DUP3 ADD SWAP1 POP SWAP2 SWAP1 POP JUMP JUMPDEST PUSH0 PUSH1 0x20 DUP3 ADD SWAP1 POP DUP2 DUP2 SUB PUSH0 DUP4 ADD MSTORE PUSH2 0x2190 DUP2 PUSH2 0x2157 JUMP JUMPDEST SWAP1 POP SWAP2 SWAP1 POP JUMP JUMPDEST PUSH32 0x416C7265616479206A6F696E6564000000000000000000000000000000000000 PUSH0 DUP3 ADD MSTORE POP JUMP JUMPDEST PUSH0 PUSH2 0x21CB PUSH1 0xE DUP4 PUSH2 0x1E0D JUMP JUMPDEST SWAP2 POP PUSH2 0x21D6 DUP3 PUSH2 0x2197 JUMP JUMPDEST PUSH1 0x20 DUP3 ADD SWAP1 POP SWAP2 SWAP1 POP JUMP JUMPDEST PUSH0 PUSH1 0x20 DUP3 ADD SWAP1 POP DUP2 DUP2 SUB PUSH0 DUP4 ADD MSTORE PUSH2 0x21F8 DUP2 PUSH2 0x21BF JUMP JUMPDEST SWAP1 POP SWAP2 SWAP1 POP JUMP JUMPDEST PUSH0 PUSH1 0x60 DUP3 ADD SWAP1 POP PUSH2 0x2212 PUSH0 DUP4 ADD DUP7 PUSH2 0x1B85 JUMP JUMPDEST PUSH2 0x221F PUSH1 0x20 DUP4 ADD DUP6 PUSH2 0x1B85 JUMP JUMPDEST PUSH2 0x222C PUSH1 0x40 DUP4 ADD DUP5 PUSH2 0x1ADD JUMP JUMPDEST SWAP5 SWAP4 POP POP POP POP JUMP JUMPDEST PUSH32 0x5472616E73666572206661696C65640000000000000000000000000000000000 PUSH0 DUP3 ADD MSTORE POP JUMP JUMPDEST PUSH0 PUSH2 0x2268 PUSH1 0xF DUP4 PUSH2 0x1E0D JUMP JUMPDEST SWAP2 POP PUSH2 0x2273 DUP3 PUSH2 0x2234 JUMP JUMPDEST PUSH1 0x20 DUP3 ADD SWAP1 POP SWAP2 SWAP1 POP JUMP JUMPDEST PUSH0 PUSH1 0x20 DUP3 ADD SWAP1 POP DUP2 DUP2 SUB PUSH0 DUP4 ADD MSTORE PUSH2 0x2295 DUP2 PUSH2 0x225C JUMP JUMPDEST SWAP1 POP SWAP2 SWAP1 POP JUMP JUMPDEST PUSH0 PUSH1 0xE0 DUP3 ADD SWAP1 POP PUSH2 0x22AF PUSH0 DUP4 ADD DUP11 PUSH2 0x1ADD JUMP JUMPDEST PUSH2 0x22BC PUSH1 0x20 DUP4 ADD DUP10 PUSH2 0x1B85 JUMP JUMPDEST PUSH2 0x22C9 PUSH1 0x40 DUP4 ADD DUP9 PUSH2 0x1ADD JUMP JUMPDEST PUSH2 0x22D6 PUSH1 0x60 DUP4 ADD DUP8 PUSH2 0x1ADD JUMP JUMPDEST PUSH2 0x22E3 PUSH1 0x80 DUP4 ADD DUP7 PUSH2 0x1ADD JUMP JUMPDEST PUSH2 0x22F0 PUSH1 0xA0 DUP4 ADD DUP6 PUSH2 0x1ADD JUMP JUMPDEST PUSH2 0x22FD PUSH1 0xC0 DUP4 ADD DUP5 PUSH2 0x1ADD JUMP JUMPDEST SWAP9 SWAP8 POP POP POP POP POP POP POP POP JUMP JUMPDEST PUSH32 0x526F746174696F6E206379636C65206D75737420626520706F73697469766500 PUSH0 DUP3 ADD MSTORE POP JUMP JUMPDEST PUSH0 PUSH2 0x233D PUSH1 0x1F DUP4 PUSH2 0x1E0D JUMP JUMPDEST SWAP2 POP PUSH2 0x2348 DUP3 PUSH2 0x2309 JUMP JUMPDEST PUSH1 0x20 DUP3 ADD SWAP1 POP SWAP2 SWAP1 POP JUMP JUMPDEST PUSH0 PUSH1 0x20 DUP3 ADD SWAP1 POP DUP2 DUP2 SUB PUSH0 DUP4 ADD MSTORE PUSH2 0x236A DUP2 PUSH2 0x2331 JUMP JUMPDEST SWAP1 POP SWAP2 SWAP1 POP JUMP JUMPDEST PUSH32 0x496E7465726573742064656E6F6D696E61746F72206D75737420626520706F73 PUSH0 DUP3 ADD MSTORE PUSH32 0x6974697665000000000000000000000000000000000000000000000000000000 PUSH1 0x20 DUP3 ADD MSTORE POP JUMP JUMPDEST PUSH0 PUSH2 0x23CB PUSH1 0x25 DUP4 PUSH2 0x1E0D JUMP JUMPDEST SWAP2 POP PUSH2 0x23D6 DUP3 PUSH2 0x2371 JUMP JUMPDEST PUSH1 0x40 DUP3 ADD SWAP1 POP SWAP2 SWAP1 POP JUMP JUMPDEST PUSH0 PUSH1 0x20 DUP3 ADD SWAP1 POP DUP2 DUP2 SUB PUSH0 DUP4 ADD MSTORE PUSH2 0x23F8 DUP2 PUSH2 0x23BF JUMP JUMPDEST SWAP1 POP SWAP2 SWAP1 POP JUMP JUMPDEST PUSH32 0x4E756D657261746F72206D757374206265206C657373207468616E206F722065 PUSH0 DUP3 ADD MSTORE PUSH32 0x7175616C20746F2064656E6F6D696E61746F7200000000000000000000000000 PUSH1 0x20 DUP3 ADD MSTORE POP JUMP JUMPDEST PUSH0 PUSH2 0x2459 PUSH1 0x33 DUP4 PUSH2 0x1E0D JUMP JUMPDEST SWAP2 POP PUSH2 0x2464 DUP3 PUSH2 0x23FF JUMP JUMPDEST PUSH1 0x40 DUP3 ADD SWAP1 POP SWAP2 SWAP1 POP JUMP JUMPDEST PUSH0 PUSH1 0x20 DUP3 ADD SWAP1 POP DUP2 DUP2 SUB PUSH0 DUP4 ADD MSTORE PUSH2 0x2486 DUP2 PUSH2 0x244D JUMP JUMPDEST SWAP1 POP SWAP2 SWAP1 POP JUMP JUMPDEST PUSH0 PUSH2 0x2497 DUP3 PUSH2 0x1986 JUMP JUMPDEST SWAP2 POP PUSH32 0xFFFFFFFFFFFFFFFFFFFFFFFFFFFFFFFFFFFFFFFFFFFFFFFFFFFFFFFFFFFFFFFF DUP3 SUB PUSH2 0x24C9 JUMPI PUSH2 0x24C8 PUSH2 0x1F13 JUMP JUMPDEST JUMPDEST PUSH1 0x1 DUP3 ADD SWAP1 POP SWAP2 SWAP1 POP JUMP JUMPDEST PUSH32 0x43726561746F722073686F756C64206465706F7369742074686520696E697469 PUSH0 DUP3 ADD MSTORE PUSH32 0x616C20616D6F756E740000000000000000000000000000000000000000000000 PUSH1 0x20 DUP3 ADD MSTORE POP JUMP JUMPDEST PUSH0 PUSH2 0x252E PUSH1 0x29 DUP4 PUSH2 0x1E0D JUMP JUMPDEST SWAP2 POP PUSH2 0x2539 DUP3 PUSH2 0x24D4 JUMP JUMPDEST PUSH1 0x40 DUP3 ADD SWAP1 POP SWAP2 SWAP1 POP JUMP JUMPDEST PUSH0 PUSH1 0x20 DUP3 ADD SWAP1 POP DUP2 DUP2 SUB PUSH0 DUP4 ADD MSTORE PUSH2 0x255B DUP2 PUSH2 0x2522 JUMP JUMPDEST SWAP1 POP SWAP2 SWAP1 POP JUMP JUMPDEST PUSH32 0x4F6E6C792074686520706F742063726561746F722063616E2072657665616C20 PUSH0 DUP3 ADD MSTORE PUSH32 0x7468652077696E6E657200000000000000000000000000000000000000000000 PUSH1 0x20 DUP3 ADD MSTORE POP JUMP JUMPDEST PUSH0 PUSH2 0x25BC PUSH1 0x2A DUP4 PUSH2 0x1E0D JUMP JUMPDEST SWAP2 POP PUSH2 0x25C7 DUP3 PUSH2 0x2562 JUMP JUMPDEST PUSH1 0x40 DUP3 ADD SWAP1 POP SWAP2 SWAP1 POP JUMP JUMPDEST PUSH0 PUSH1 0x20 DUP3 ADD SWAP1 POP DUP2 DUP2 SUB PUSH0 DUP4 ADD MSTORE PUSH2 0x25E9 DUP2 PUSH2 0x25B0 JUMP JUMPDEST SWAP1 POP SWAP2 SWAP1 POP JUMP JUMPDEST PUSH0 PUSH2 0x25FA DUP3 PUSH2 0x1986 JUMP JUMPDEST SWAP2 POP PUSH2 0x2605 DUP4 PUSH2 0x1986 JUMP JUMPDEST SWAP3 POP DUP3 DUP3 ADD SWAP1 POP DUP1 DUP3 GT ISZERO PUSH2 0x261D JUMPI PUSH2 0x261C PUSH2 0x1F13 JUMP JUMPDEST JUMPDEST SWAP3 SWAP2 POP POP JUMP JUMPDEST PUSH32 0x4E65787420726F746174696F6E206E6F74207965742064756500000000000000 PUSH0 DUP3 ADD MSTORE POP JUMP JUMPDEST PUSH0 PUSH2 0x2657 PUSH1 0x19 DUP4 PUSH2 0x1E0D JUMP JUMPDEST SWAP2 POP PUSH2 0x2662 DUP3 PUSH2 0x2623 JUMP JUMPDEST PUSH1 0x20 DUP3 ADD SWAP1 POP SWAP2 SWAP1 POP JUMP JUMPDEST PUSH0 PUSH1 0x20 DUP3 ADD SWAP1 POP DUP2 DUP2 SUB PUSH0 DUP4 ADD MSTORE PUSH2 0x2684 DUP2 PUSH2 0x264B JUMP JUMPDEST SWAP1 POP SWAP2 SWAP1 POP JUMP JUMPDEST PUSH32 0x4E487B7100000000000000000000000000000000000000000000000000000000 PUSH0 MSTORE PUSH1 0x12 PUSH1 0x4 MSTORE PUSH1 0x24 PUSH0 REVERT JUMPDEST PUSH0 PUSH2 0x26C2 DUP3 PUSH2 0x1986 JUMP JUMPDEST SWAP2 POP PUSH2 0x26CD DUP4 PUSH2 0x1986 JUMP JUMPDEST SWAP3 POP DUP3 PUSH2 0x26DD JUMPI PUSH2 0x26DC PUSH2 0x268B JUMP JUMPDEST JUMPDEST DUP3 DUP3 MOD SWAP1 POP SWAP3 SWAP2 POP POP JUMP JUMPDEST PUSH32 0x4E487B7100000000000000000000000000000000000000000000000000000000 PUSH0 MSTORE PUSH1 0x32 PUSH1 0x4 MSTORE PUSH1 0x24 PUSH0 REVERT JUMPDEST PUSH0 PUSH2 0x271F DUP3 PUSH2 0x1986 JUMP JUMPDEST SWAP2 POP PUSH2 0x272A DUP4 PUSH2 0x1986 JUMP JUMPDEST SWAP3 POP DUP3 DUP3 MUL PUSH2 0x2738 DUP2 PUSH2 0x1986 JUMP JUMPDEST SWAP2 POP DUP3 DUP3 DIV DUP5 EQ DUP4 ISZERO OR PUSH2 0x274F JUMPI PUSH2 0x274E PUSH2 0x1F13 JUMP JUMPDEST JUMPDEST POP SWAP3 SWAP2 POP POP JUMP JUMPDEST PUSH0 PUSH1 0x60 DUP3 ADD SWAP1 POP PUSH2 0x2769 PUSH0 DUP4 ADD DUP7 PUSH2 0x1ADD JUMP JUMPDEST PUSH2 0x2776 PUSH1 0x20 DUP4 ADD DUP6 PUSH2 0x1B85 JUMP JUMPDEST PUSH2 0x2783 PUSH1 0x40 DUP4 ADD DUP5 PUSH2 0x1ADD JUMP JUMPDEST SWAP5 SWAP4 POP POP POP POP JUMP JUMPDEST PUSH0 PUSH2 0x2795 DUP3 PUSH2 0x1986 JUMP JUMPDEST SWAP2 POP PUSH2 0x27A0 DUP4 PUSH2 0x1986 JUMP JUMPDEST SWAP3 POP DUP3 PUSH2 0x27B0 JUMPI PUSH2 0x27AF PUSH2 0x268B JUMP JUMPDEST JUMPDEST DUP3 DUP3 DIV SWAP1 POP SWAP3 SWAP2 POP POP JUMP INVALID LOG2 PUSH5 0x6970667358 0x22 SLT KECCAK256 RETURNDATACOPY DUP4 SSTORE 0xDC LOG0 0xED 0xEE SIGNEXTEND CREATE2 0x28 PUSH21 0x681EB29AD4B356C72D3DDAB6C396763900A7C702A5 PUSH5 0x736F6C6343 STOP ADDMOD XOR STOP CALLER "
				},
				"gasEstimates": {
					"creation": {
						"codeDepositCost": "2045000",
						"executionCost": "infinite",
						"totalCost": "infinite"
					},
					"external": {
						"BLAST()": "infinite",
						"USDB()": "infinite",
						"calculateInterest(uint256,uint256)": "infinite",
						"claimAllYield()": "infinite",
						"claimFunds(uint256,bytes32[])": "infinite",
						"claimMyContractsGas()": "infinite",
						"createPot(uint256,uint256,uint256,uint256,uint256)": "infinite",
						"hasClaimed(address)": "2869",
						"initialize()": "infinite",
						"joinPot(uint256)": "infinite",
						"merkleRoot()": "2448",
						"owner()": "2634",
						"pots(uint256)": "infinite",
						"renounceOwnership()": "infinite",
						"rotateLiquidity(uint256)": "infinite",
						"setMerkleRoot(bytes32)": "infinite",
						"totalRevenue()": "2536",
						"transferOwnership(address)": "infinite",
						"usdbToken()": "infinite"
					},
					"internal": {
						"deductRevenue(uint256)": "infinite",
						"updateUserYield(address,uint256)": "infinite"
					}
				},
				"methodIdentifiers": {
					"BLAST()": "97d75776",
					"USDB()": "31a0edec",
					"calculateInterest(uint256,uint256)": "efdd7c07",
					"claimAllYield()": "409a33ce",
					"claimFunds(uint256,bytes32[])": "61e7d805",
					"claimMyContractsGas()": "77d5d2dc",
					"createPot(uint256,uint256,uint256,uint256,uint256)": "ca0ea3d1",
					"hasClaimed(address)": "73b2e80e",
					"initialize()": "8129fc1c",
					"joinPot(uint256)": "831d49ef",
					"merkleRoot()": "2eb4a7ab",
					"owner()": "8da5cb5b",
					"pots(uint256)": "c3c3df4f",
					"renounceOwnership()": "715018a6",
					"rotateLiquidity(uint256)": "ef922b87",
					"setMerkleRoot(bytes32)": "7cb64759",
					"totalRevenue()": "bf2d9e0b",
					"transferOwnership(address)": "f2fde38b",
					"usdbToken()": "4a80409e"
				}
			},
			"storageLayout": {
				"storage": [
					{
						"astId": 1169,
						"contract": "contracts/QuailFinance.sol:QuailFinance",
						"label": "merkleRoot",
						"offset": 0,
						"slot": "0",
						"type": "t_bytes32"
					},
					{
						"astId": 1172,
						"contract": "contracts/QuailFinance.sol:QuailFinance",
						"label": "nextPotId",
						"offset": 0,
						"slot": "1",
						"type": "t_uint256"
					},
					{
						"astId": 1180,
						"contract": "contracts/QuailFinance.sol:QuailFinance",
						"label": "totalRevenue",
						"offset": 0,
						"slot": "2",
						"type": "t_uint256"
					},
					{
						"astId": 1183,
						"contract": "contracts/QuailFinance.sol:QuailFinance",
						"label": "usdbToken",
						"offset": 0,
						"slot": "3",
						"type": "t_contract(IERC20)572"
					},
					{
						"astId": 1187,
						"contract": "contracts/QuailFinance.sol:QuailFinance",
						"label": "hasClaimed",
						"offset": 0,
						"slot": "4",
						"type": "t_mapping(t_address,t_uint256)"
					},
					{
						"astId": 1192,
						"contract": "contracts/QuailFinance.sol:QuailFinance",
						"label": "pots",
						"offset": 0,
						"slot": "5",
						"type": "t_mapping(t_uint256,t_struct(Pot)1220_storage)"
					},
					{
						"astId": 1196,
						"contract": "contracts/QuailFinance.sol:QuailFinance",
						"label": "userYield",
						"offset": 0,
						"slot": "6",
						"type": "t_mapping(t_address,t_uint256)"
					}
				],
				"types": {
					"t_address": {
						"encoding": "inplace",
						"label": "address",
						"numberOfBytes": "20"
					},
					"t_array(t_address)dyn_storage": {
						"base": "t_address",
						"encoding": "dynamic_array",
						"label": "address[]",
						"numberOfBytes": "32"
					},
					"t_bytes32": {
						"encoding": "inplace",
						"label": "bytes32",
						"numberOfBytes": "32"
					},
					"t_contract(IERC20)572": {
						"encoding": "inplace",
						"label": "contract IERC20",
						"numberOfBytes": "20"
					},
					"t_mapping(t_address,t_uint256)": {
						"encoding": "mapping",
						"key": "t_address",
						"label": "mapping(address => uint256)",
						"numberOfBytes": "32",
						"value": "t_uint256"
					},
					"t_mapping(t_uint256,t_struct(Pot)1220_storage)": {
						"encoding": "mapping",
						"key": "t_uint256",
						"label": "mapping(uint256 => struct QuailFinance.Pot)",
						"numberOfBytes": "32",
						"value": "t_struct(Pot)1220_storage"
					},
					"t_struct(Pot)1220_storage": {
						"encoding": "inplace",
						"label": "struct QuailFinance.Pot",
						"members": [
							{
								"astId": 1198,
								"contract": "contracts/QuailFinance.sol:QuailFinance",
								"label": "amount",
								"offset": 0,
								"slot": "0",
								"type": "t_uint256"
							},
							{
								"astId": 1200,
								"contract": "contracts/QuailFinance.sol:QuailFinance",
								"label": "rotationCycleInSeconds",
								"offset": 0,
								"slot": "1",
								"type": "t_uint256"
							},
							{
								"astId": 1202,
								"contract": "contracts/QuailFinance.sol:QuailFinance",
								"label": "lastRotationTime",
								"offset": 0,
								"slot": "2",
								"type": "t_uint256"
							},
							{
								"astId": 1204,
								"contract": "contracts/QuailFinance.sol:QuailFinance",
								"label": "interestNumerator",
								"offset": 0,
								"slot": "3",
								"type": "t_uint256"
							},
							{
								"astId": 1206,
								"contract": "contracts/QuailFinance.sol:QuailFinance",
								"label": "interestDenominator",
								"offset": 0,
								"slot": "4",
								"type": "t_uint256"
							},
							{
								"astId": 1208,
								"contract": "contracts/QuailFinance.sol:QuailFinance",
								"label": "numParticipants",
								"offset": 0,
								"slot": "5",
								"type": "t_uint256"
							},
							{
								"astId": 1210,
								"contract": "contracts/QuailFinance.sol:QuailFinance",
								"label": "currentRound",
								"offset": 0,
								"slot": "6",
								"type": "t_uint256"
							},
							{
								"astId": 1212,
								"contract": "contracts/QuailFinance.sol:QuailFinance",
								"label": "potCreator",
								"offset": 0,
								"slot": "7",
								"type": "t_address"
							},
							{
								"astId": 1215,
								"contract": "contracts/QuailFinance.sol:QuailFinance",
								"label": "participants",
								"offset": 0,
								"slot": "8",
								"type": "t_array(t_address)dyn_storage"
							},
							{
								"astId": 1219,
								"contract": "contracts/QuailFinance.sol:QuailFinance",
								"label": "contributions",
								"offset": 0,
								"slot": "9",
								"type": "t_mapping(t_address,t_uint256)"
							}
						],
						"numberOfBytes": "320"
					},
					"t_uint256": {
						"encoding": "inplace",
						"label": "uint256",
						"numberOfBytes": "32"
					}
				}
			},
			"userdoc": {
				"kind": "user",
				"methods": {},
				"version": 1
			}
		}
	}
}