{
	"contracts/HelloWorld.sol": {
		"QuailFinance": {
			"abi": [
				{
					"inputs": [],
					"stateMutability": "nonpayable",
					"type": "constructor"
				},
				{
					"anonymous": false,
					"inputs": [
						{
							"indexed": false,
							"internalType": "uint256",
							"name": "potId",
							"type": "uint256"
						},
						{
							"indexed": false,
							"internalType": "address",
							"name": "participant",
							"type": "address"
						}
					],
					"name": "ParticipantJoined",
					"type": "event"
				},
				{
					"anonymous": false,
					"inputs": [
						{
							"indexed": false,
							"internalType": "uint256",
							"name": "potId",
							"type": "uint256"
						},
						{
							"indexed": false,
							"internalType": "address",
							"name": "creator",
							"type": "address"
						},
						{
							"indexed": false,
							"internalType": "uint256",
							"name": "amount",
							"type": "uint256"
						},
						{
							"indexed": false,
							"internalType": "uint256",
							"name": "_rotationCycle",
							"type": "uint256"
						},
						{
							"indexed": false,
							"internalType": "uint256",
							"name": "_interest",
							"type": "uint256"
						},
						{
							"indexed": false,
							"internalType": "uint256",
							"name": "_numParticipants",
							"type": "uint256"
						}
					],
					"name": "PotCreated",
					"type": "event"
				},
				{
					"anonymous": false,
					"inputs": [
						{
							"indexed": false,
							"internalType": "uint256",
							"name": "potId",
							"type": "uint256"
						},
						{
							"indexed": false,
							"internalType": "address",
							"name": "winner",
							"type": "address"
						},
						{
							"indexed": false,
							"internalType": "uint256",
							"name": "round",
							"type": "uint256"
						}
					],
					"name": "RotationCompleted",
					"type": "event"
				},
				{
					"inputs": [],
					"name": "USDB",
					"outputs": [
						{
							"internalType": "contract IERC20Rebasing",
							"name": "",
							"type": "address"
						}
					],
					"stateMutability": "view",
					"type": "function"
				},
				{
					"inputs": [
						{
							"internalType": "uint256",
							"name": "_rotationCycle",
							"type": "uint256"
						},
						{
							"internalType": "uint256",
							"name": "_interest",
							"type": "uint256"
						},
						{
							"internalType": "uint256",
							"name": "_numParticipants",
							"type": "uint256"
						}
					],
					"name": "createPot",
					"outputs": [],
					"stateMutability": "payable",
					"type": "function"
				},
				{
					"inputs": [
						{
							"internalType": "uint256",
							"name": "_potId",
							"type": "uint256"
						}
					],
					"name": "joinPot",
					"outputs": [],
					"stateMutability": "payable",
					"type": "function"
				},
				{
					"inputs": [
						{
							"internalType": "uint256",
							"name": "",
							"type": "uint256"
						}
					],
					"name": "pots",
					"outputs": [
						{
							"internalType": "uint256",
							"name": "amount",
							"type": "uint256"
						},
						{
							"internalType": "uint256",
							"name": "rotationCycle",
							"type": "uint256"
						},
						{
							"internalType": "uint256",
							"name": "interest",
							"type": "uint256"
						},
						{
							"internalType": "uint256",
							"name": "numParticipants",
							"type": "uint256"
						},
						{
							"internalType": "uint256",
							"name": "currentRound",
							"type": "uint256"
						},
						{
							"internalType": "address",
							"name": "potCreator",
							"type": "address"
						}
					],
					"stateMutability": "view",
					"type": "function"
				},
				{
					"inputs": [
						{
							"internalType": "uint256",
							"name": "_potId",
							"type": "uint256"
						}
					],
					"name": "rotateLiquidity",
					"outputs": [],
					"stateMutability": "nonpayable",
					"type": "function"
				}
			],
			"devdoc": {
				"kind": "dev",
				"methods": {},
				"version": 1
			},
			"evm": {
				"assembly": "    /* \"contracts/HelloWorld.sol\":146:3448  contract QuailFinance{... */\n  mstore(0x40, 0x80)\n    /* \"contracts/HelloWorld.sol\":201:202  1 */\n  0x01\n    /* \"contracts/HelloWorld.sol\":173:202  uint256 private nextPotId = 1 */\n  0x00\n  sstore\n    /* \"contracts/HelloWorld.sol\":1091:1251  constructor() {... */\n  callvalue\n  dup1\n  iszero\n  tag_1\n  jumpi\n  0x00\n  dup1\n  revert\ntag_1:\n  pop\n    /* \"contracts/HelloWorld.sol\":1041:1083  0x4200000000000000000000000000000000000022 */\n  0x4200000000000000000000000000000000000022\n    /* \"contracts/HelloWorld.sol\":1115:1129  USDB.configure */\n  0xffffffffffffffffffffffffffffffffffffffff\n  and\n  0x1a33757d\n    /* \"contracts/HelloWorld.sol\":1130:1149  YieldMode.CLAIMABLE */\n  0x02\n    /* \"contracts/HelloWorld.sol\":1115:1150  USDB.configure(YieldMode.CLAIMABLE) */\n  mload(0x40)\n  dup3\n  0xffffffff\n  and\n  0xe0\n  shl\n  dup2\n  mstore\n  0x04\n  add\n  tag_4\n  swap2\n  swap1\n  tag_5\n  jump\t// in\ntag_4:\n  0x20\n  mload(0x40)\n  dup1\n  dup4\n  sub\n  dup2\n  0x00\n  dup8\n  gas\n  call\n  iszero\n  dup1\n  iszero\n  tag_7\n  jumpi\n  returndatasize\n  0x00\n  dup1\n  returndatacopy\n  revert(0x00, returndatasize)\ntag_7:\n  pop\n  pop\n  pop\n  pop\n  mload(0x40)\n  returndatasize\n  not(0x1f)\n  0x1f\n  dup3\n  add\n  and\n  dup3\n  add\n  dup1\n  0x40\n  mstore\n  pop\n  dup2\n  add\n  swap1\n  tag_8\n  swap2\n  swap1\n  tag_9\n  jump\t// in\ntag_8:\n  pop\n    /* \"contracts/HelloWorld.sol\":146:3448  contract QuailFinance{... */\n  jump(tag_10)\n    /* \"#utility.yul\":7:187   */\ntag_11:\n    /* \"#utility.yul\":55:132   */\n  0x4e487b7100000000000000000000000000000000000000000000000000000000\n    /* \"#utility.yul\":52:53   */\n  0x00\n    /* \"#utility.yul\":45:133   */\n  mstore\n    /* \"#utility.yul\":152:156   */\n  0x21\n    /* \"#utility.yul\":149:150   */\n  0x04\n    /* \"#utility.yul\":142:157   */\n  mstore\n    /* \"#utility.yul\":176:180   */\n  0x24\n    /* \"#utility.yul\":173:174   */\n  0x00\n    /* \"#utility.yul\":166:181   */\n  revert\n    /* \"#utility.yul\":193:311   */\ntag_12:\n    /* \"#utility.yul\":279:280   */\n  0x03\n    /* \"#utility.yul\":272:277   */\n  dup2\n    /* \"#utility.yul\":269:281   */\n  lt\n    /* \"#utility.yul\":259:305   */\n  tag_25\n  jumpi\n    /* \"#utility.yul\":285:303   */\n  tag_26\n  tag_11\n  jump\t// in\ntag_26:\n    /* \"#utility.yul\":259:305   */\ntag_25:\n    /* \"#utility.yul\":193:311   */\n  pop\n  jump\t// out\n    /* \"#utility.yul\":317:454   */\ntag_13:\n    /* \"#utility.yul\":367:374   */\n  0x00\n    /* \"#utility.yul\":396:401   */\n  dup2\n    /* \"#utility.yul\":385:401   */\n  swap1\n  pop\n    /* \"#utility.yul\":402:448   */\n  tag_28\n    /* \"#utility.yul\":442:447   */\n  dup3\n    /* \"#utility.yul\":402:448   */\n  tag_12\n  jump\t// in\ntag_28:\n    /* \"#utility.yul\":317:454   */\n  swap2\n  swap1\n  pop\n  jump\t// out\n    /* \"#utility.yul\":460:597   */\ntag_14:\n    /* \"#utility.yul\":521:530   */\n  0x00\n    /* \"#utility.yul\":554:591   */\n  tag_30\n    /* \"#utility.yul\":585:590   */\n  dup3\n    /* \"#utility.yul\":554:591   */\n  tag_13\n  jump\t// in\ntag_30:\n    /* \"#utility.yul\":541:591   */\n  swap1\n  pop\n    /* \"#utility.yul\":460:597   */\n  swap2\n  swap1\n  pop\n  jump\t// out\n    /* \"#utility.yul\":603:756   */\ntag_15:\n    /* \"#utility.yul\":701:749   */\n  tag_32\n    /* \"#utility.yul\":743:748   */\n  dup2\n    /* \"#utility.yul\":701:749   */\n  tag_14\n  jump\t// in\ntag_32:\n    /* \"#utility.yul\":696:699   */\n  dup3\n    /* \"#utility.yul\":689:750   */\n  mstore\n    /* \"#utility.yul\":603:756   */\n  pop\n  pop\n  jump\t// out\n    /* \"#utility.yul\":762:1006   */\ntag_5:\n    /* \"#utility.yul\":866:870   */\n  0x00\n    /* \"#utility.yul\":904:906   */\n  0x20\n    /* \"#utility.yul\":893:902   */\n  dup3\n    /* \"#utility.yul\":889:907   */\n  add\n    /* \"#utility.yul\":881:907   */\n  swap1\n  pop\n    /* \"#utility.yul\":917:999   */\n  tag_34\n    /* \"#utility.yul\":996:997   */\n  0x00\n    /* \"#utility.yul\":985:994   */\n  dup4\n    /* \"#utility.yul\":981:998   */\n  add\n    /* \"#utility.yul\":972:978   */\n  dup5\n    /* \"#utility.yul\":917:999   */\n  tag_15\n  jump\t// in\ntag_34:\n    /* \"#utility.yul\":762:1006   */\n  swap3\n  swap2\n  pop\n  pop\n  jump\t// out\n    /* \"#utility.yul\":1093:1210   */\ntag_17:\n    /* \"#utility.yul\":1202:1203   */\n  0x00\n    /* \"#utility.yul\":1199:1200   */\n  dup1\n    /* \"#utility.yul\":1192:1204   */\n  revert\n    /* \"#utility.yul\":1339:1416   */\ntag_19:\n    /* \"#utility.yul\":1376:1383   */\n  0x00\n    /* \"#utility.yul\":1405:1410   */\n  dup2\n    /* \"#utility.yul\":1394:1410   */\n  swap1\n  pop\n    /* \"#utility.yul\":1339:1416   */\n  swap2\n  swap1\n  pop\n  jump\t// out\n    /* \"#utility.yul\":1422:1544   */\ntag_20:\n    /* \"#utility.yul\":1495:1519   */\n  tag_40\n    /* \"#utility.yul\":1513:1518   */\n  dup2\n    /* \"#utility.yul\":1495:1519   */\n  tag_19\n  jump\t// in\ntag_40:\n    /* \"#utility.yul\":1488:1493   */\n  dup2\n    /* \"#utility.yul\":1485:1520   */\n  eq\n    /* \"#utility.yul\":1475:1538   */\n  tag_41\n  jumpi\n    /* \"#utility.yul\":1534:1535   */\n  0x00\n    /* \"#utility.yul\":1531:1532   */\n  dup1\n    /* \"#utility.yul\":1524:1536   */\n  revert\n    /* \"#utility.yul\":1475:1538   */\ntag_41:\n    /* \"#utility.yul\":1422:1544   */\n  pop\n  jump\t// out\n    /* \"#utility.yul\":1550:1693   */\ntag_21:\n    /* \"#utility.yul\":1607:1612   */\n  0x00\n    /* \"#utility.yul\":1638:1644   */\n  dup2\n    /* \"#utility.yul\":1632:1645   */\n  mload\n    /* \"#utility.yul\":1623:1645   */\n  swap1\n  pop\n    /* \"#utility.yul\":1654:1687   */\n  tag_43\n    /* \"#utility.yul\":1681:1686   */\n  dup2\n    /* \"#utility.yul\":1654:1687   */\n  tag_20\n  jump\t// in\ntag_43:\n    /* \"#utility.yul\":1550:1693   */\n  swap3\n  swap2\n  pop\n  pop\n  jump\t// out\n    /* \"#utility.yul\":1699:2050   */\ntag_9:\n    /* \"#utility.yul\":1769:1775   */\n  0x00\n    /* \"#utility.yul\":1818:1820   */\n  0x20\n    /* \"#utility.yul\":1806:1815   */\n  dup3\n    /* \"#utility.yul\":1797:1804   */\n  dup5\n    /* \"#utility.yul\":1793:1816   */\n  sub\n    /* \"#utility.yul\":1789:1821   */\n  slt\n    /* \"#utility.yul\":1786:1905   */\n  iszero\n  tag_45\n  jumpi\n    /* \"#utility.yul\":1824:1903   */\n  tag_46\n  tag_17\n  jump\t// in\ntag_46:\n    /* \"#utility.yul\":1786:1905   */\ntag_45:\n    /* \"#utility.yul\":1944:1945   */\n  0x00\n    /* \"#utility.yul\":1969:2033   */\n  tag_47\n    /* \"#utility.yul\":2025:2032   */\n  dup5\n    /* \"#utility.yul\":2016:2022   */\n  dup3\n    /* \"#utility.yul\":2005:2014   */\n  dup6\n    /* \"#utility.yul\":2001:2023   */\n  add\n    /* \"#utility.yul\":1969:2033   */\n  tag_21\n  jump\t// in\ntag_47:\n    /* \"#utility.yul\":1959:2033   */\n  swap2\n  pop\n    /* \"#utility.yul\":1915:2043   */\n  pop\n    /* \"#utility.yul\":1699:2050   */\n  swap3\n  swap2\n  pop\n  pop\n  jump\t// out\n    /* \"contracts/HelloWorld.sol\":146:3448  contract QuailFinance{... */\ntag_10:\n  dataSize(sub_0)\n  dup1\n  dataOffset(sub_0)\n  0x00\n  codecopy\n  0x00\n  return\nstop\n\nsub_0: assembly {\n        /* \"contracts/HelloWorld.sol\":146:3448  contract QuailFinance{... */\n      mstore(0x40, 0x80)\n      jumpi(tag_1, lt(calldatasize, 0x04))\n      shr(0xe0, calldataload(0x00))\n      dup1\n      0x31a0edec\n      eq\n      tag_2\n      jumpi\n      dup1\n      0x831d49ef\n      eq\n      tag_3\n      jumpi\n      dup1\n      0xc3c3df4f\n      eq\n      tag_4\n      jumpi\n      dup1\n      0xee8ab0c7\n      eq\n      tag_5\n      jumpi\n      dup1\n      0xef922b87\n      eq\n      tag_6\n      jumpi\n    tag_1:\n      0x00\n      dup1\n      revert\n        /* \"contracts/HelloWorld.sol\":988:1084  IERC20Rebasing public constant USDB = IERC20Rebasing(0x4200000000000000000000000000000000000022) */\n    tag_2:\n      callvalue\n      dup1\n      iszero\n      tag_7\n      jumpi\n      0x00\n      dup1\n      revert\n    tag_7:\n      pop\n      tag_8\n      tag_9\n      jump\t// in\n    tag_8:\n      mload(0x40)\n      tag_10\n      swap2\n      swap1\n      tag_11\n      jump\t// in\n    tag_10:\n      mload(0x40)\n      dup1\n      swap2\n      sub\n      swap1\n      return\n        /* \"contracts/HelloWorld.sol\":2050:2634  function joinPot(uint256 _potId) external payable {... */\n    tag_3:\n      tag_12\n      0x04\n      dup1\n      calldatasize\n      sub\n      dup2\n      add\n      swap1\n      tag_13\n      swap2\n      swap1\n      tag_14\n      jump\t// in\n    tag_13:\n      tag_15\n      jump\t// in\n    tag_12:\n      stop\n        /* \"contracts/HelloWorld.sol\":230:265  mapping(uint256 => Pot) public pots */\n    tag_4:\n      callvalue\n      dup1\n      iszero\n      tag_16\n      jumpi\n      0x00\n      dup1\n      revert\n    tag_16:\n      pop\n      tag_17\n      0x04\n      dup1\n      calldatasize\n      sub\n      dup2\n      add\n      swap1\n      tag_18\n      swap2\n      swap1\n      tag_14\n      jump\t// in\n    tag_18:\n      tag_19\n      jump\t// in\n    tag_17:\n      mload(0x40)\n      tag_20\n      swap7\n      swap6\n      swap5\n      swap4\n      swap3\n      swap2\n      swap1\n      tag_21\n      jump\t// in\n    tag_20:\n      mload(0x40)\n      dup1\n      swap2\n      sub\n      swap1\n      return\n        /* \"contracts/HelloWorld.sol\":1286:2020  function createPot(uint256 _rotationCycle, uint256 _interest, uint256 _numParticipants) external payable {... */\n    tag_5:\n      tag_22\n      0x04\n      dup1\n      calldatasize\n      sub\n      dup2\n      add\n      swap1\n      tag_23\n      swap2\n      swap1\n      tag_24\n      jump\t// in\n    tag_23:\n      tag_25\n      jump\t// in\n    tag_22:\n      stop\n        /* \"contracts/HelloWorld.sol\":2677:3277  function rotateLiquidity(uint256 _potId) public {... */\n    tag_6:\n      callvalue\n      dup1\n      iszero\n      tag_26\n      jumpi\n      0x00\n      dup1\n      revert\n    tag_26:\n      pop\n      tag_27\n      0x04\n      dup1\n      calldatasize\n      sub\n      dup2\n      add\n      swap1\n      tag_28\n      swap2\n      swap1\n      tag_14\n      jump\t// in\n    tag_28:\n      tag_29\n      jump\t// in\n    tag_27:\n      stop\n        /* \"contracts/HelloWorld.sol\":988:1084  IERC20Rebasing public constant USDB = IERC20Rebasing(0x4200000000000000000000000000000000000022) */\n    tag_9:\n        /* \"contracts/HelloWorld.sol\":1041:1083  0x4200000000000000000000000000000000000022 */\n      0x4200000000000000000000000000000000000022\n        /* \"contracts/HelloWorld.sol\":988:1084  IERC20Rebasing public constant USDB = IERC20Rebasing(0x4200000000000000000000000000000000000022) */\n      dup2\n      jump\t// out\n        /* \"contracts/HelloWorld.sol\":2050:2634  function joinPot(uint256 _potId) external payable {... */\n    tag_15:\n        /* \"contracts/HelloWorld.sol\":2110:2125  Pot storage pot */\n      0x00\n        /* \"contracts/HelloWorld.sol\":2128:2132  pots */\n      0x01\n        /* \"contracts/HelloWorld.sol\":2128:2140  pots[_potId] */\n      0x00\n        /* \"contracts/HelloWorld.sol\":2133:2139  _potId */\n      dup4\n        /* \"contracts/HelloWorld.sol\":2128:2140  pots[_potId] */\n      dup2\n      mstore\n      0x20\n      add\n      swap1\n      dup2\n      mstore\n      0x20\n      add\n      0x00\n      keccak256\n        /* \"contracts/HelloWorld.sol\":2110:2140  Pot storage pot = pots[_potId] */\n      swap1\n      pop\n        /* \"contracts/HelloWorld.sol\":2184:2187  pot */\n      dup1\n        /* \"contracts/HelloWorld.sol\":2184:2203  pot.numParticipants */\n      0x03\n      add\n      sload\n        /* \"contracts/HelloWorld.sol\":2158:2161  pot */\n      dup2\n        /* \"contracts/HelloWorld.sol\":2158:2174  pot.participants */\n      0x06\n      add\n        /* \"contracts/HelloWorld.sol\":2158:2181  pot.participants.length */\n      dup1\n      sload\n      swap1\n      pop\n        /* \"contracts/HelloWorld.sol\":2158:2203  pot.participants.length < pot.numParticipants */\n      lt\n        /* \"contracts/HelloWorld.sol\":2150:2219  require(pot.participants.length < pot.numParticipants, \"Pot is full\") */\n      tag_31\n      jumpi\n      mload(0x40)\n      0x08c379a000000000000000000000000000000000000000000000000000000000\n      dup2\n      mstore\n      0x04\n      add\n      tag_32\n      swap1\n      tag_33\n      jump\t// in\n    tag_32:\n      mload(0x40)\n      dup1\n      swap2\n      sub\n      swap1\n      revert\n    tag_31:\n        /* \"contracts/HelloWorld.sol\":2256:2257  1 */\n      0x01\n        /* \"contracts/HelloWorld.sol\":2237:2240  pot */\n      dup2\n        /* \"contracts/HelloWorld.sol\":2237:2253  pot.currentRound */\n      0x04\n      add\n      sload\n        /* \"contracts/HelloWorld.sol\":2237:2257  pot.currentRound < 1 */\n      lt\n        /* \"contracts/HelloWorld.sol\":2229:2292  require(pot.currentRound < 1, \"Rotating pots cannot be joined\") */\n      tag_34\n      jumpi\n      mload(0x40)\n      0x08c379a000000000000000000000000000000000000000000000000000000000\n      dup2\n      mstore\n      0x04\n      add\n      tag_35\n      swap1\n      tag_36\n      jump\t// in\n    tag_35:\n      mload(0x40)\n      dup1\n      swap2\n      sub\n      swap1\n      revert\n    tag_34:\n        /* \"contracts/HelloWorld.sol\":2343:2344  0 */\n      0x00\n        /* \"contracts/HelloWorld.sol\":2310:2313  pot */\n      dup2\n        /* \"contracts/HelloWorld.sol\":2310:2327  pot.contributions */\n      0x07\n      add\n        /* \"contracts/HelloWorld.sol\":2310:2339  pot.contributions[msg.sender] */\n      0x00\n        /* \"contracts/HelloWorld.sol\":2328:2338  msg.sender */\n      caller\n        /* \"contracts/HelloWorld.sol\":2310:2339  pot.contributions[msg.sender] */\n      0xffffffffffffffffffffffffffffffffffffffff\n      and\n      0xffffffffffffffffffffffffffffffffffffffff\n      and\n      dup2\n      mstore\n      0x20\n      add\n      swap1\n      dup2\n      mstore\n      0x20\n      add\n      0x00\n      keccak256\n      sload\n        /* \"contracts/HelloWorld.sol\":2310:2344  pot.contributions[msg.sender] == 0 */\n      eq\n        /* \"contracts/HelloWorld.sol\":2302:2363  require(pot.contributions[msg.sender] == 0, \"Already joined\") */\n      tag_37\n      jumpi\n      mload(0x40)\n      0x08c379a000000000000000000000000000000000000000000000000000000000\n      dup2\n      mstore\n      0x04\n      add\n      tag_38\n      swap1\n      tag_39\n      jump\t// in\n    tag_38:\n      mload(0x40)\n      dup1\n      swap2\n      sub\n      swap1\n      revert\n    tag_37:\n        /* \"contracts/HelloWorld.sol\":2437:2440  pot */\n      dup1\n        /* \"contracts/HelloWorld.sol\":2437:2447  pot.amount */\n      0x00\n      add\n      sload\n        /* \"contracts/HelloWorld.sol\":2424:2433  msg.value */\n      callvalue\n        /* \"contracts/HelloWorld.sol\":2424:2447  msg.value == pot.amount */\n      eq\n        /* \"contracts/HelloWorld.sol\":2416:2480  require(msg.value == pot.amount, \"Must send Ether with joinPot\") */\n      tag_40\n      jumpi\n      mload(0x40)\n      0x08c379a000000000000000000000000000000000000000000000000000000000\n      dup2\n      mstore\n      0x04\n      add\n      tag_41\n      swap1\n      tag_42\n      jump\t// in\n    tag_41:\n      mload(0x40)\n      dup1\n      swap2\n      sub\n      swap1\n      revert\n    tag_40:\n        /* \"contracts/HelloWorld.sol\":2522:2531  msg.value */\n      callvalue\n        /* \"contracts/HelloWorld.sol\":2490:2493  pot */\n      dup2\n        /* \"contracts/HelloWorld.sol\":2490:2507  pot.contributions */\n      0x07\n      add\n        /* \"contracts/HelloWorld.sol\":2490:2519  pot.contributions[msg.sender] */\n      0x00\n        /* \"contracts/HelloWorld.sol\":2508:2518  msg.sender */\n      caller\n        /* \"contracts/HelloWorld.sol\":2490:2519  pot.contributions[msg.sender] */\n      0xffffffffffffffffffffffffffffffffffffffff\n      and\n      0xffffffffffffffffffffffffffffffffffffffff\n      and\n      dup2\n      mstore\n      0x20\n      add\n      swap1\n      dup2\n      mstore\n      0x20\n      add\n      0x00\n      keccak256\n        /* \"contracts/HelloWorld.sol\":2490:2531  pot.contributions[msg.sender] = msg.value */\n      dup2\n      swap1\n      sstore\n      pop\n        /* \"contracts/HelloWorld.sol\":2541:2544  pot */\n      dup1\n        /* \"contracts/HelloWorld.sol\":2541:2557  pot.participants */\n      0x06\n      add\n        /* \"contracts/HelloWorld.sol\":2563:2573  msg.sender */\n      caller\n        /* \"contracts/HelloWorld.sol\":2541:2574  pot.participants.push(msg.sender) */\n      swap1\n      dup1\n      0x01\n      dup2\n      sload\n      add\n      dup1\n      dup3\n      sstore\n      dup1\n      swap2\n      pop\n      pop\n      0x01\n      swap1\n      sub\n      swap1\n      0x00\n      mstore\n      keccak256(0x00, 0x20)\n      add\n      0x00\n      swap1\n      swap2\n      swap1\n      swap2\n      swap1\n      swap2\n      0x0100\n      exp\n      dup2\n      sload\n      dup2\n      0xffffffffffffffffffffffffffffffffffffffff\n      mul\n      not\n      and\n      swap1\n      dup4\n      0xffffffffffffffffffffffffffffffffffffffff\n      and\n      mul\n      or\n      swap1\n      sstore\n      pop\n        /* \"contracts/HelloWorld.sol\":2590:2627  ParticipantJoined(_potId, msg.sender) */\n      0x7dd8cb04159701bc1976c246434d7d96812782e7489e6c5c34db49a388fe9e80\n        /* \"contracts/HelloWorld.sol\":2608:2614  _potId */\n      dup3\n        /* \"contracts/HelloWorld.sol\":2616:2626  msg.sender */\n      caller\n        /* \"contracts/HelloWorld.sol\":2590:2627  ParticipantJoined(_potId, msg.sender) */\n      mload(0x40)\n      tag_44\n      swap3\n      swap2\n      swap1\n      tag_45\n      jump\t// in\n    tag_44:\n      mload(0x40)\n      dup1\n      swap2\n      sub\n      swap1\n      log1\n        /* \"contracts/HelloWorld.sol\":2100:2634  {... */\n      pop\n        /* \"contracts/HelloWorld.sol\":2050:2634  function joinPot(uint256 _potId) external payable {... */\n      pop\n      jump\t// out\n        /* \"contracts/HelloWorld.sol\":230:265  mapping(uint256 => Pot) public pots */\n    tag_19:\n      mstore(0x20, 0x01)\n      dup1\n      0x00\n      mstore\n      keccak256(0x00, 0x40)\n      0x00\n      swap2\n      pop\n      swap1\n      pop\n      dup1\n      0x00\n      add\n      sload\n      swap1\n      dup1\n      0x01\n      add\n      sload\n      swap1\n      dup1\n      0x02\n      add\n      sload\n      swap1\n      dup1\n      0x03\n      add\n      sload\n      swap1\n      dup1\n      0x04\n      add\n      sload\n      swap1\n      dup1\n      0x05\n      add\n      0x00\n      swap1\n      sload\n      swap1\n      0x0100\n      exp\n      swap1\n      div\n      0xffffffffffffffffffffffffffffffffffffffff\n      and\n      swap1\n      pop\n      dup7\n      jump\t// out\n        /* \"contracts/HelloWorld.sol\":1286:2020  function createPot(uint256 _rotationCycle, uint256 _interest, uint256 _numParticipants) external payable {... */\n    tag_25:\n        /* \"contracts/HelloWorld.sol\":1401:1414  uint256 potId */\n      0x00\n        /* \"contracts/HelloWorld.sol\":1417:1426  nextPotId */\n      dup1\n      0x00\n        /* \"contracts/HelloWorld.sol\":1417:1428  nextPotId++ */\n      dup2\n      sload\n      dup1\n      swap3\n      swap2\n      swap1\n      tag_47\n      swap1\n      tag_48\n      jump\t// in\n    tag_47:\n      swap2\n      swap1\n      pop\n      sstore\n        /* \"contracts/HelloWorld.sol\":1401:1428  uint256 potId = nextPotId++ */\n      swap1\n      pop\n        /* \"contracts/HelloWorld.sol\":1438:1467  address[] memory participants */\n      0x60\n        /* \"contracts/HelloWorld.sol\":1497:1498  0 */\n      0x00\n        /* \"contracts/HelloWorld.sol\":1485:1494  msg.value */\n      callvalue\n        /* \"contracts/HelloWorld.sol\":1485:1498  msg.value > 0 */\n      gt\n        /* \"contracts/HelloWorld.sol\":1477:1544  require(msg.value > 0, \"Creator should deposit the initial amount\") */\n      tag_49\n      jumpi\n      mload(0x40)\n      0x08c379a000000000000000000000000000000000000000000000000000000000\n      dup2\n      mstore\n      0x04\n      add\n      tag_50\n      swap1\n      tag_51\n      jump\t// in\n    tag_50:\n      mload(0x40)\n      dup1\n      swap2\n      sub\n      swap1\n      revert\n    tag_49:\n        /* \"contracts/HelloWorld.sol\":1593:1611  Pot storage newPot */\n      0x00\n        /* \"contracts/HelloWorld.sol\":1614:1618  pots */\n      0x01\n        /* \"contracts/HelloWorld.sol\":1614:1625  pots[potId] */\n      0x00\n        /* \"contracts/HelloWorld.sol\":1619:1624  potId */\n      dup5\n        /* \"contracts/HelloWorld.sol\":1614:1625  pots[potId] */\n      dup2\n      mstore\n      0x20\n      add\n      swap1\n      dup2\n      mstore\n      0x20\n      add\n      0x00\n      keccak256\n        /* \"contracts/HelloWorld.sol\":1593:1625  Pot storage newPot = pots[potId] */\n      swap1\n      pop\n        /* \"contracts/HelloWorld.sol\":1651:1660  msg.value */\n      callvalue\n        /* \"contracts/HelloWorld.sol\":1635:1641  newPot */\n      dup2\n        /* \"contracts/HelloWorld.sol\":1635:1648  newPot.amount */\n      0x00\n      add\n        /* \"contracts/HelloWorld.sol\":1635:1660  newPot.amount = msg.value */\n      dup2\n      swap1\n      sstore\n      pop\n        /* \"contracts/HelloWorld.sol\":1690:1700  msg.sender */\n      caller\n        /* \"contracts/HelloWorld.sol\":1670:1676  newPot */\n      dup2\n        /* \"contracts/HelloWorld.sol\":1670:1687  newPot.potCreator */\n      0x05\n      add\n      0x00\n        /* \"contracts/HelloWorld.sol\":1670:1700  newPot.potCreator = msg.sender */\n      0x0100\n      exp\n      dup2\n      sload\n      dup2\n      0xffffffffffffffffffffffffffffffffffffffff\n      mul\n      not\n      and\n      swap1\n      dup4\n      0xffffffffffffffffffffffffffffffffffffffff\n      and\n      mul\n      or\n      swap1\n      sstore\n      pop\n        /* \"contracts/HelloWorld.sol\":1733:1747  _rotationCycle */\n      dup6\n        /* \"contracts/HelloWorld.sol\":1710:1716  newPot */\n      dup2\n        /* \"contracts/HelloWorld.sol\":1710:1730  newPot.rotationCycle */\n      0x01\n      add\n        /* \"contracts/HelloWorld.sol\":1710:1747  newPot.rotationCycle = _rotationCycle */\n      dup2\n      swap1\n      sstore\n      pop\n        /* \"contracts/HelloWorld.sol\":1775:1784  _interest */\n      dup5\n        /* \"contracts/HelloWorld.sol\":1757:1763  newPot */\n      dup2\n        /* \"contracts/HelloWorld.sol\":1757:1772  newPot.interest */\n      0x02\n      add\n        /* \"contracts/HelloWorld.sol\":1757:1784  newPot.interest = _interest */\n      dup2\n      swap1\n      sstore\n      pop\n        /* \"contracts/HelloWorld.sol\":1819:1835  _numParticipants */\n      dup4\n        /* \"contracts/HelloWorld.sol\":1794:1800  newPot */\n      dup2\n        /* \"contracts/HelloWorld.sol\":1794:1816  newPot.numParticipants */\n      0x03\n      add\n        /* \"contracts/HelloWorld.sol\":1794:1835  newPot.numParticipants = _numParticipants */\n      dup2\n      swap1\n      sstore\n      pop\n        /* \"contracts/HelloWorld.sol\":1867:1868  0 */\n      0x00\n        /* \"contracts/HelloWorld.sol\":1845:1851  newPot */\n      dup2\n        /* \"contracts/HelloWorld.sol\":1845:1864  newPot.currentRound */\n      0x04\n      add\n        /* \"contracts/HelloWorld.sol\":1845:1868  newPot.currentRound = 0 */\n      dup2\n      swap1\n      sstore\n      pop\n        /* \"contracts/HelloWorld.sol\":1900:1912  participants */\n      dup2\n        /* \"contracts/HelloWorld.sol\":1878:1884  newPot */\n      dup2\n        /* \"contracts/HelloWorld.sol\":1878:1897  newPot.participants */\n      0x06\n      add\n        /* \"contracts/HelloWorld.sol\":1878:1912  newPot.participants = participants */\n      swap1\n      dup1\n      mload\n      swap1\n      0x20\n      add\n      swap1\n      tag_52\n      swap3\n      swap2\n      swap1\n      tag_53\n      jump\t// in\n    tag_52:\n      pop\n        /* \"contracts/HelloWorld.sol\":1928:2013  PotCreated(potId, msg.sender, msg.value, _rotationCycle, _interest, _numParticipants) */\n      0x4fb28bba100ddb14ff68f29f59e3b2c4f9e099c33fc06365b55687b19f9999a5\n        /* \"contracts/HelloWorld.sol\":1939:1944  potId */\n      dup4\n        /* \"contracts/HelloWorld.sol\":1946:1956  msg.sender */\n      caller\n        /* \"contracts/HelloWorld.sol\":1958:1967  msg.value */\n      callvalue\n        /* \"contracts/HelloWorld.sol\":1969:1983  _rotationCycle */\n      dup10\n        /* \"contracts/HelloWorld.sol\":1985:1994  _interest */\n      dup10\n        /* \"contracts/HelloWorld.sol\":1996:2012  _numParticipants */\n      dup10\n        /* \"contracts/HelloWorld.sol\":1928:2013  PotCreated(potId, msg.sender, msg.value, _rotationCycle, _interest, _numParticipants) */\n      mload(0x40)\n      tag_54\n      swap7\n      swap6\n      swap5\n      swap4\n      swap3\n      swap2\n      swap1\n      tag_55\n      jump\t// in\n    tag_54:\n      mload(0x40)\n      dup1\n      swap2\n      sub\n      swap1\n      log1\n        /* \"contracts/HelloWorld.sol\":1391:2020  {... */\n      pop\n      pop\n      pop\n        /* \"contracts/HelloWorld.sol\":1286:2020  function createPot(uint256 _rotationCycle, uint256 _interest, uint256 _numParticipants) external payable {... */\n      pop\n      pop\n      pop\n      jump\t// out\n        /* \"contracts/HelloWorld.sol\":2677:3277  function rotateLiquidity(uint256 _potId) public {... */\n    tag_29:\n        /* \"contracts/HelloWorld.sol\":2770:2780  msg.sender */\n      caller\n        /* \"contracts/HelloWorld.sol\":2743:2780  pots[_potId].potCreator == msg.sender */\n      0xffffffffffffffffffffffffffffffffffffffff\n      and\n        /* \"contracts/HelloWorld.sol\":2743:2747  pots */\n      0x01\n        /* \"contracts/HelloWorld.sol\":2743:2755  pots[_potId] */\n      0x00\n        /* \"contracts/HelloWorld.sol\":2748:2754  _potId */\n      dup4\n        /* \"contracts/HelloWorld.sol\":2743:2755  pots[_potId] */\n      dup2\n      mstore\n      0x20\n      add\n      swap1\n      dup2\n      mstore\n      0x20\n      add\n      0x00\n      keccak256\n        /* \"contracts/HelloWorld.sol\":2743:2766  pots[_potId].potCreator */\n      0x05\n      add\n      0x00\n      swap1\n      sload\n      swap1\n      0x0100\n      exp\n      swap1\n      div\n      0xffffffffffffffffffffffffffffffffffffffff\n      and\n        /* \"contracts/HelloWorld.sol\":2743:2780  pots[_potId].potCreator == msg.sender */\n      0xffffffffffffffffffffffffffffffffffffffff\n      and\n      eq\n        /* \"contracts/HelloWorld.sol\":2735:2827  require(pots[_potId].potCreator == msg.sender, \"Only the pot creator can reveal the winner\") */\n      tag_57\n      jumpi\n      mload(0x40)\n      0x08c379a000000000000000000000000000000000000000000000000000000000\n      dup2\n      mstore\n      0x04\n      add\n      tag_58\n      swap1\n      tag_59\n      jump\t// in\n    tag_58:\n      mload(0x40)\n      dup1\n      swap2\n      sub\n      swap1\n      revert\n    tag_57:\n        /* \"contracts/HelloWorld.sol\":2837:2852  Pot storage pot */\n      0x00\n        /* \"contracts/HelloWorld.sol\":2855:2859  pots */\n      0x01\n        /* \"contracts/HelloWorld.sol\":2855:2867  pots[_potId] */\n      0x00\n        /* \"contracts/HelloWorld.sol\":2860:2866  _potId */\n      dup4\n        /* \"contracts/HelloWorld.sol\":2855:2867  pots[_potId] */\n      dup2\n      mstore\n      0x20\n      add\n      swap1\n      dup2\n      mstore\n      0x20\n      add\n      0x00\n      keccak256\n        /* \"contracts/HelloWorld.sol\":2837:2867  Pot storage pot = pots[_potId] */\n      swap1\n      pop\n        /* \"contracts/HelloWorld.sol\":2877:2896  uint256 winnerIndex */\n      0x00\n        /* \"contracts/HelloWorld.sol\":2919:2922  pot */\n      dup2\n        /* \"contracts/HelloWorld.sol\":2919:2938  pot.numParticipants */\n      0x03\n      add\n      sload\n        /* \"contracts/HelloWorld.sol\":2900:2903  pot */\n      dup3\n        /* \"contracts/HelloWorld.sol\":2900:2916  pot.currentRound */\n      0x04\n      add\n      sload\n        /* \"contracts/HelloWorld.sol\":2900:2938  pot.currentRound % pot.numParticipants */\n      tag_60\n      swap2\n      swap1\n      tag_61\n      jump\t// in\n    tag_60:\n        /* \"contracts/HelloWorld.sol\":2877:2939  uint256 winnerIndex = (pot.currentRound % pot.numParticipants) */\n      swap1\n      pop\n        /* \"contracts/HelloWorld.sol\":2992:3006  address winner */\n      0x00\n        /* \"contracts/HelloWorld.sol\":3009:3012  pot */\n      dup3\n        /* \"contracts/HelloWorld.sol\":3009:3025  pot.participants */\n      0x06\n      add\n        /* \"contracts/HelloWorld.sol\":3026:3037  winnerIndex */\n      dup3\n        /* \"contracts/HelloWorld.sol\":3009:3038  pot.participants[winnerIndex] */\n      dup2\n      sload\n      dup2\n      lt\n      tag_62\n      jumpi\n      tag_63\n      tag_64\n      jump\t// in\n    tag_63:\n    tag_62:\n      swap1\n      0x00\n      mstore\n      keccak256(0x00, 0x20)\n      add\n      0x00\n      swap1\n      sload\n      swap1\n      0x0100\n      exp\n      swap1\n      div\n      0xffffffffffffffffffffffffffffffffffffffff\n      and\n        /* \"contracts/HelloWorld.sol\":2992:3038  address winner = pot.participants[winnerIndex] */\n      swap1\n      pop\n        /* \"contracts/HelloWorld.sol\":3097:3103  winner */\n      dup1\n        /* \"contracts/HelloWorld.sol\":3089:3113  payable(winner).transfer */\n      0xffffffffffffffffffffffffffffffffffffffff\n      and\n        /* \"contracts/HelloWorld.sol\":3089:3125  payable(winner).transfer(pot.amount) */\n      0x08fc\n        /* \"contracts/HelloWorld.sol\":3114:3117  pot */\n      dup5\n        /* \"contracts/HelloWorld.sol\":3114:3124  pot.amount */\n      0x00\n      add\n      sload\n        /* \"contracts/HelloWorld.sol\":3089:3125  payable(winner).transfer(pot.amount) */\n      swap1\n      dup2\n      iszero\n      mul\n      swap1\n      mload(0x40)\n      0x00\n      mload(0x40)\n      dup1\n      dup4\n      sub\n      dup2\n      dup6\n      dup9\n      dup9\n      call\n      swap4\n      pop\n      pop\n      pop\n      pop\n      iszero\n      dup1\n      iszero\n      tag_67\n      jumpi\n      returndatasize\n      0x00\n      dup1\n      returndatacopy\n      revert(0x00, returndatasize)\n    tag_67:\n      pop\n        /* \"contracts/HelloWorld.sol\":3141:3192  RotationCompleted(_potId, winner, pot.currentRound) */\n      0x35cb3811461cb824b245820eee97ab50ee1cc609f2bdd3bb10f5f0010184a7d3\n        /* \"contracts/HelloWorld.sol\":3159:3165  _potId */\n      dup5\n        /* \"contracts/HelloWorld.sol\":3167:3173  winner */\n      dup3\n        /* \"contracts/HelloWorld.sol\":3175:3178  pot */\n      dup6\n        /* \"contracts/HelloWorld.sol\":3175:3191  pot.currentRound */\n      0x04\n      add\n      sload\n        /* \"contracts/HelloWorld.sol\":3141:3192  RotationCompleted(_potId, winner, pot.currentRound) */\n      mload(0x40)\n      tag_68\n      swap4\n      swap3\n      swap2\n      swap1\n      tag_69\n      jump\t// in\n    tag_68:\n      mload(0x40)\n      dup1\n      swap2\n      sub\n      swap1\n      log1\n        /* \"contracts/HelloWorld.sol\":3252:3255  pot */\n      dup3\n        /* \"contracts/HelloWorld.sol\":3252:3268  pot.currentRound */\n      0x04\n      add\n      0x00\n        /* \"contracts/HelloWorld.sol\":3252:3270  pot.currentRound++ */\n      dup2\n      sload\n      dup1\n      swap3\n      swap2\n      swap1\n      tag_70\n      swap1\n      tag_48\n      jump\t// in\n    tag_70:\n      swap2\n      swap1\n      pop\n      sstore\n      pop\n        /* \"contracts/HelloWorld.sol\":2725:3277  {... */\n      pop\n      pop\n      pop\n        /* \"contracts/HelloWorld.sol\":2677:3277  function rotateLiquidity(uint256 _potId) public {... */\n      pop\n      jump\t// out\n    tag_53:\n      dup3\n      dup1\n      sload\n      dup3\n      dup3\n      sstore\n      swap1\n      0x00\n      mstore\n      keccak256(0x00, 0x20)\n      swap1\n      dup2\n      add\n      swap3\n      dup3\n      iszero\n      tag_71\n      jumpi\n      swap2\n      0x20\n      mul\n      dup3\n      add\n    tag_72:\n      dup3\n      dup2\n      gt\n      iszero\n      tag_73\n      jumpi\n      dup3\n      mload\n      dup3\n      exp(0x0100, 0x00)\n      dup2\n      sload\n      dup2\n      0xffffffffffffffffffffffffffffffffffffffff\n      mul\n      not\n      and\n      swap1\n      dup4\n      0xffffffffffffffffffffffffffffffffffffffff\n      and\n      mul\n      or\n      swap1\n      sstore\n      pop\n      swap2\n      0x20\n      add\n      swap2\n      swap1\n      0x01\n      add\n      swap1\n      jump(tag_72)\n    tag_73:\n    tag_71:\n      pop\n      swap1\n      pop\n      tag_74\n      swap2\n      swap1\n      tag_75\n      jump\t// in\n    tag_74:\n      pop\n      swap1\n      jump\t// out\n    tag_75:\n    tag_76:\n      dup1\n      dup3\n      gt\n      iszero\n      tag_77\n      jumpi\n      0x00\n      dup2\n      0x00\n      swap1\n      sstore\n      pop\n      0x01\n      add\n      jump(tag_76)\n    tag_77:\n      pop\n      swap1\n      jump\t// out\n        /* \"#utility.yul\":7:133   */\n    tag_78:\n        /* \"#utility.yul\":44:51   */\n      0x00\n        /* \"#utility.yul\":84:126   */\n      0xffffffffffffffffffffffffffffffffffffffff\n        /* \"#utility.yul\":77:82   */\n      dup3\n        /* \"#utility.yul\":73:127   */\n      and\n        /* \"#utility.yul\":62:127   */\n      swap1\n      pop\n        /* \"#utility.yul\":7:133   */\n      swap2\n      swap1\n      pop\n      jump\t// out\n        /* \"#utility.yul\":139:199   */\n    tag_79:\n        /* \"#utility.yul\":167:170   */\n      0x00\n        /* \"#utility.yul\":188:193   */\n      dup2\n        /* \"#utility.yul\":181:193   */\n      swap1\n      pop\n        /* \"#utility.yul\":139:199   */\n      swap2\n      swap1\n      pop\n      jump\t// out\n        /* \"#utility.yul\":205:347   */\n    tag_80:\n        /* \"#utility.yul\":255:264   */\n      0x00\n        /* \"#utility.yul\":288:341   */\n      tag_112\n        /* \"#utility.yul\":306:340   */\n      tag_113\n        /* \"#utility.yul\":315:339   */\n      tag_114\n        /* \"#utility.yul\":333:338   */\n      dup5\n        /* \"#utility.yul\":315:339   */\n      tag_78\n      jump\t// in\n    tag_114:\n        /* \"#utility.yul\":306:340   */\n      tag_79\n      jump\t// in\n    tag_113:\n        /* \"#utility.yul\":288:341   */\n      tag_78\n      jump\t// in\n    tag_112:\n        /* \"#utility.yul\":275:341   */\n      swap1\n      pop\n        /* \"#utility.yul\":205:347   */\n      swap2\n      swap1\n      pop\n      jump\t// out\n        /* \"#utility.yul\":353:479   */\n    tag_81:\n        /* \"#utility.yul\":403:412   */\n      0x00\n        /* \"#utility.yul\":436:473   */\n      tag_116\n        /* \"#utility.yul\":467:472   */\n      dup3\n        /* \"#utility.yul\":436:473   */\n      tag_80\n      jump\t// in\n    tag_116:\n        /* \"#utility.yul\":423:473   */\n      swap1\n      pop\n        /* \"#utility.yul\":353:479   */\n      swap2\n      swap1\n      pop\n      jump\t// out\n        /* \"#utility.yul\":485:633   */\n    tag_82:\n        /* \"#utility.yul\":557:566   */\n      0x00\n        /* \"#utility.yul\":590:627   */\n      tag_118\n        /* \"#utility.yul\":621:626   */\n      dup3\n        /* \"#utility.yul\":590:627   */\n      tag_81\n      jump\t// in\n    tag_118:\n        /* \"#utility.yul\":577:627   */\n      swap1\n      pop\n        /* \"#utility.yul\":485:633   */\n      swap2\n      swap1\n      pop\n      jump\t// out\n        /* \"#utility.yul\":639:814   */\n    tag_83:\n        /* \"#utility.yul\":748:807   */\n      tag_120\n        /* \"#utility.yul\":801:806   */\n      dup2\n        /* \"#utility.yul\":748:807   */\n      tag_82\n      jump\t// in\n    tag_120:\n        /* \"#utility.yul\":743:746   */\n      dup3\n        /* \"#utility.yul\":736:808   */\n      mstore\n        /* \"#utility.yul\":639:814   */\n      pop\n      pop\n      jump\t// out\n        /* \"#utility.yul\":820:1086   */\n    tag_11:\n        /* \"#utility.yul\":935:939   */\n      0x00\n        /* \"#utility.yul\":973:975   */\n      0x20\n        /* \"#utility.yul\":962:971   */\n      dup3\n        /* \"#utility.yul\":958:976   */\n      add\n        /* \"#utility.yul\":950:976   */\n      swap1\n      pop\n        /* \"#utility.yul\":986:1079   */\n      tag_122\n        /* \"#utility.yul\":1076:1077   */\n      0x00\n        /* \"#utility.yul\":1065:1074   */\n      dup4\n        /* \"#utility.yul\":1061:1078   */\n      add\n        /* \"#utility.yul\":1052:1058   */\n      dup5\n        /* \"#utility.yul\":986:1079   */\n      tag_83\n      jump\t// in\n    tag_122:\n        /* \"#utility.yul\":820:1086   */\n      swap3\n      swap2\n      pop\n      pop\n      jump\t// out\n        /* \"#utility.yul\":1173:1290   */\n    tag_85:\n        /* \"#utility.yul\":1282:1283   */\n      0x00\n        /* \"#utility.yul\":1279:1280   */\n      dup1\n        /* \"#utility.yul\":1272:1284   */\n      revert\n        /* \"#utility.yul\":1419:1496   */\n    tag_87:\n        /* \"#utility.yul\":1456:1463   */\n      0x00\n        /* \"#utility.yul\":1485:1490   */\n      dup2\n        /* \"#utility.yul\":1474:1490   */\n      swap1\n      pop\n        /* \"#utility.yul\":1419:1496   */\n      swap2\n      swap1\n      pop\n      jump\t// out\n        /* \"#utility.yul\":1502:1624   */\n    tag_88:\n        /* \"#utility.yul\":1575:1599   */\n      tag_128\n        /* \"#utility.yul\":1593:1598   */\n      dup2\n        /* \"#utility.yul\":1575:1599   */\n      tag_87\n      jump\t// in\n    tag_128:\n        /* \"#utility.yul\":1568:1573   */\n      dup2\n        /* \"#utility.yul\":1565:1600   */\n      eq\n        /* \"#utility.yul\":1555:1618   */\n      tag_129\n      jumpi\n        /* \"#utility.yul\":1614:1615   */\n      0x00\n        /* \"#utility.yul\":1611:1612   */\n      dup1\n        /* \"#utility.yul\":1604:1616   */\n      revert\n        /* \"#utility.yul\":1555:1618   */\n    tag_129:\n        /* \"#utility.yul\":1502:1624   */\n      pop\n      jump\t// out\n        /* \"#utility.yul\":1630:1769   */\n    tag_89:\n        /* \"#utility.yul\":1676:1681   */\n      0x00\n        /* \"#utility.yul\":1714:1720   */\n      dup2\n        /* \"#utility.yul\":1701:1721   */\n      calldataload\n        /* \"#utility.yul\":1692:1721   */\n      swap1\n      pop\n        /* \"#utility.yul\":1730:1763   */\n      tag_131\n        /* \"#utility.yul\":1757:1762   */\n      dup2\n        /* \"#utility.yul\":1730:1763   */\n      tag_88\n      jump\t// in\n    tag_131:\n        /* \"#utility.yul\":1630:1769   */\n      swap3\n      swap2\n      pop\n      pop\n      jump\t// out\n        /* \"#utility.yul\":1775:2104   */\n    tag_14:\n        /* \"#utility.yul\":1834:1840   */\n      0x00\n        /* \"#utility.yul\":1883:1885   */\n      0x20\n        /* \"#utility.yul\":1871:1880   */\n      dup3\n        /* \"#utility.yul\":1862:1869   */\n      dup5\n        /* \"#utility.yul\":1858:1881   */\n      sub\n        /* \"#utility.yul\":1854:1886   */\n      slt\n        /* \"#utility.yul\":1851:1970   */\n      iszero\n      tag_133\n      jumpi\n        /* \"#utility.yul\":1889:1968   */\n      tag_134\n      tag_85\n      jump\t// in\n    tag_134:\n        /* \"#utility.yul\":1851:1970   */\n    tag_133:\n        /* \"#utility.yul\":2009:2010   */\n      0x00\n        /* \"#utility.yul\":2034:2087   */\n      tag_135\n        /* \"#utility.yul\":2079:2086   */\n      dup5\n        /* \"#utility.yul\":2070:2076   */\n      dup3\n        /* \"#utility.yul\":2059:2068   */\n      dup6\n        /* \"#utility.yul\":2055:2077   */\n      add\n        /* \"#utility.yul\":2034:2087   */\n      tag_89\n      jump\t// in\n    tag_135:\n        /* \"#utility.yul\":2024:2087   */\n      swap2\n      pop\n        /* \"#utility.yul\":1980:2097   */\n      pop\n        /* \"#utility.yul\":1775:2104   */\n      swap3\n      swap2\n      pop\n      pop\n      jump\t// out\n        /* \"#utility.yul\":2110:2228   */\n    tag_90:\n        /* \"#utility.yul\":2197:2221   */\n      tag_137\n        /* \"#utility.yul\":2215:2220   */\n      dup2\n        /* \"#utility.yul\":2197:2221   */\n      tag_87\n      jump\t// in\n    tag_137:\n        /* \"#utility.yul\":2192:2195   */\n      dup3\n        /* \"#utility.yul\":2185:2222   */\n      mstore\n        /* \"#utility.yul\":2110:2228   */\n      pop\n      pop\n      jump\t// out\n        /* \"#utility.yul\":2234:2330   */\n    tag_91:\n        /* \"#utility.yul\":2271:2278   */\n      0x00\n        /* \"#utility.yul\":2300:2324   */\n      tag_139\n        /* \"#utility.yul\":2318:2323   */\n      dup3\n        /* \"#utility.yul\":2300:2324   */\n      tag_78\n      jump\t// in\n    tag_139:\n        /* \"#utility.yul\":2289:2324   */\n      swap1\n      pop\n        /* \"#utility.yul\":2234:2330   */\n      swap2\n      swap1\n      pop\n      jump\t// out\n        /* \"#utility.yul\":2336:2454   */\n    tag_92:\n        /* \"#utility.yul\":2423:2447   */\n      tag_141\n        /* \"#utility.yul\":2441:2446   */\n      dup2\n        /* \"#utility.yul\":2423:2447   */\n      tag_91\n      jump\t// in\n    tag_141:\n        /* \"#utility.yul\":2418:2421   */\n      dup3\n        /* \"#utility.yul\":2411:2448   */\n      mstore\n        /* \"#utility.yul\":2336:2454   */\n      pop\n      pop\n      jump\t// out\n        /* \"#utility.yul\":2460:3235   */\n    tag_21:\n        /* \"#utility.yul\":2693:2697   */\n      0x00\n        /* \"#utility.yul\":2731:2734   */\n      0xc0\n        /* \"#utility.yul\":2720:2729   */\n      dup3\n        /* \"#utility.yul\":2716:2735   */\n      add\n        /* \"#utility.yul\":2708:2735   */\n      swap1\n      pop\n        /* \"#utility.yul\":2745:2816   */\n      tag_143\n        /* \"#utility.yul\":2813:2814   */\n      0x00\n        /* \"#utility.yul\":2802:2811   */\n      dup4\n        /* \"#utility.yul\":2798:2815   */\n      add\n        /* \"#utility.yul\":2789:2795   */\n      dup10\n        /* \"#utility.yul\":2745:2816   */\n      tag_90\n      jump\t// in\n    tag_143:\n        /* \"#utility.yul\":2826:2898   */\n      tag_144\n        /* \"#utility.yul\":2894:2896   */\n      0x20\n        /* \"#utility.yul\":2883:2892   */\n      dup4\n        /* \"#utility.yul\":2879:2897   */\n      add\n        /* \"#utility.yul\":2870:2876   */\n      dup9\n        /* \"#utility.yul\":2826:2898   */\n      tag_90\n      jump\t// in\n    tag_144:\n        /* \"#utility.yul\":2908:2980   */\n      tag_145\n        /* \"#utility.yul\":2976:2978   */\n      0x40\n        /* \"#utility.yul\":2965:2974   */\n      dup4\n        /* \"#utility.yul\":2961:2979   */\n      add\n        /* \"#utility.yul\":2952:2958   */\n      dup8\n        /* \"#utility.yul\":2908:2980   */\n      tag_90\n      jump\t// in\n    tag_145:\n        /* \"#utility.yul\":2990:3062   */\n      tag_146\n        /* \"#utility.yul\":3058:3060   */\n      0x60\n        /* \"#utility.yul\":3047:3056   */\n      dup4\n        /* \"#utility.yul\":3043:3061   */\n      add\n        /* \"#utility.yul\":3034:3040   */\n      dup7\n        /* \"#utility.yul\":2990:3062   */\n      tag_90\n      jump\t// in\n    tag_146:\n        /* \"#utility.yul\":3072:3145   */\n      tag_147\n        /* \"#utility.yul\":3140:3143   */\n      0x80\n        /* \"#utility.yul\":3129:3138   */\n      dup4\n        /* \"#utility.yul\":3125:3144   */\n      add\n        /* \"#utility.yul\":3116:3122   */\n      dup6\n        /* \"#utility.yul\":3072:3145   */\n      tag_90\n      jump\t// in\n    tag_147:\n        /* \"#utility.yul\":3155:3228   */\n      tag_148\n        /* \"#utility.yul\":3223:3226   */\n      0xa0\n        /* \"#utility.yul\":3212:3221   */\n      dup4\n        /* \"#utility.yul\":3208:3227   */\n      add\n        /* \"#utility.yul\":3199:3205   */\n      dup5\n        /* \"#utility.yul\":3155:3228   */\n      tag_92\n      jump\t// in\n    tag_148:\n        /* \"#utility.yul\":2460:3235   */\n      swap8\n      swap7\n      pop\n      pop\n      pop\n      pop\n      pop\n      pop\n      pop\n      jump\t// out\n        /* \"#utility.yul\":3241:3860   */\n    tag_24:\n        /* \"#utility.yul\":3318:3324   */\n      0x00\n        /* \"#utility.yul\":3326:3332   */\n      dup1\n        /* \"#utility.yul\":3334:3340   */\n      0x00\n        /* \"#utility.yul\":3383:3385   */\n      0x60\n        /* \"#utility.yul\":3371:3380   */\n      dup5\n        /* \"#utility.yul\":3362:3369   */\n      dup7\n        /* \"#utility.yul\":3358:3381   */\n      sub\n        /* \"#utility.yul\":3354:3386   */\n      slt\n        /* \"#utility.yul\":3351:3470   */\n      iszero\n      tag_150\n      jumpi\n        /* \"#utility.yul\":3389:3468   */\n      tag_151\n      tag_85\n      jump\t// in\n    tag_151:\n        /* \"#utility.yul\":3351:3470   */\n    tag_150:\n        /* \"#utility.yul\":3509:3510   */\n      0x00\n        /* \"#utility.yul\":3534:3587   */\n      tag_152\n        /* \"#utility.yul\":3579:3586   */\n      dup7\n        /* \"#utility.yul\":3570:3576   */\n      dup3\n        /* \"#utility.yul\":3559:3568   */\n      dup8\n        /* \"#utility.yul\":3555:3577   */\n      add\n        /* \"#utility.yul\":3534:3587   */\n      tag_89\n      jump\t// in\n    tag_152:\n        /* \"#utility.yul\":3524:3587   */\n      swap4\n      pop\n        /* \"#utility.yul\":3480:3597   */\n      pop\n        /* \"#utility.yul\":3636:3638   */\n      0x20\n        /* \"#utility.yul\":3662:3715   */\n      tag_153\n        /* \"#utility.yul\":3707:3714   */\n      dup7\n        /* \"#utility.yul\":3698:3704   */\n      dup3\n        /* \"#utility.yul\":3687:3696   */\n      dup8\n        /* \"#utility.yul\":3683:3705   */\n      add\n        /* \"#utility.yul\":3662:3715   */\n      tag_89\n      jump\t// in\n    tag_153:\n        /* \"#utility.yul\":3652:3715   */\n      swap3\n      pop\n        /* \"#utility.yul\":3607:3725   */\n      pop\n        /* \"#utility.yul\":3764:3766   */\n      0x40\n        /* \"#utility.yul\":3790:3843   */\n      tag_154\n        /* \"#utility.yul\":3835:3842   */\n      dup7\n        /* \"#utility.yul\":3826:3832   */\n      dup3\n        /* \"#utility.yul\":3815:3824   */\n      dup8\n        /* \"#utility.yul\":3811:3833   */\n      add\n        /* \"#utility.yul\":3790:3843   */\n      tag_89\n      jump\t// in\n    tag_154:\n        /* \"#utility.yul\":3780:3843   */\n      swap2\n      pop\n        /* \"#utility.yul\":3735:3853   */\n      pop\n        /* \"#utility.yul\":3241:3860   */\n      swap3\n      pop\n      swap3\n      pop\n      swap3\n      jump\t// out\n        /* \"#utility.yul\":3866:4035   */\n    tag_93:\n        /* \"#utility.yul\":3950:3961   */\n      0x00\n        /* \"#utility.yul\":3984:3990   */\n      dup3\n        /* \"#utility.yul\":3979:3982   */\n      dup3\n        /* \"#utility.yul\":3972:3991   */\n      mstore\n        /* \"#utility.yul\":4024:4028   */\n      0x20\n        /* \"#utility.yul\":4019:4022   */\n      dup3\n        /* \"#utility.yul\":4015:4029   */\n      add\n        /* \"#utility.yul\":4000:4029   */\n      swap1\n      pop\n        /* \"#utility.yul\":3866:4035   */\n      swap3\n      swap2\n      pop\n      pop\n      jump\t// out\n        /* \"#utility.yul\":4041:4202   */\n    tag_94:\n        /* \"#utility.yul\":4181:4194   */\n      0x506f742069732066756c6c000000000000000000000000000000000000000000\n        /* \"#utility.yul\":4177:4178   */\n      0x00\n        /* \"#utility.yul\":4169:4175   */\n      dup3\n        /* \"#utility.yul\":4165:4179   */\n      add\n        /* \"#utility.yul\":4158:4195   */\n      mstore\n        /* \"#utility.yul\":4041:4202   */\n      pop\n      jump\t// out\n        /* \"#utility.yul\":4208:4574   */\n    tag_95:\n        /* \"#utility.yul\":4350:4353   */\n      0x00\n        /* \"#utility.yul\":4371:4438   */\n      tag_158\n        /* \"#utility.yul\":4435:4437   */\n      0x0b\n        /* \"#utility.yul\":4430:4433   */\n      dup4\n        /* \"#utility.yul\":4371:4438   */\n      tag_93\n      jump\t// in\n    tag_158:\n        /* \"#utility.yul\":4364:4438   */\n      swap2\n      pop\n        /* \"#utility.yul\":4447:4540   */\n      tag_159\n        /* \"#utility.yul\":4536:4539   */\n      dup3\n        /* \"#utility.yul\":4447:4540   */\n      tag_94\n      jump\t// in\n    tag_159:\n        /* \"#utility.yul\":4565:4567   */\n      0x20\n        /* \"#utility.yul\":4560:4563   */\n      dup3\n        /* \"#utility.yul\":4556:4568   */\n      add\n        /* \"#utility.yul\":4549:4568   */\n      swap1\n      pop\n        /* \"#utility.yul\":4208:4574   */\n      swap2\n      swap1\n      pop\n      jump\t// out\n        /* \"#utility.yul\":4580:4999   */\n    tag_33:\n        /* \"#utility.yul\":4746:4750   */\n      0x00\n        /* \"#utility.yul\":4784:4786   */\n      0x20\n        /* \"#utility.yul\":4773:4782   */\n      dup3\n        /* \"#utility.yul\":4769:4787   */\n      add\n        /* \"#utility.yul\":4761:4787   */\n      swap1\n      pop\n        /* \"#utility.yul\":4833:4842   */\n      dup2\n        /* \"#utility.yul\":4827:4831   */\n      dup2\n        /* \"#utility.yul\":4823:4843   */\n      sub\n        /* \"#utility.yul\":4819:4820   */\n      0x00\n        /* \"#utility.yul\":4808:4817   */\n      dup4\n        /* \"#utility.yul\":4804:4821   */\n      add\n        /* \"#utility.yul\":4797:4844   */\n      mstore\n        /* \"#utility.yul\":4861:4992   */\n      tag_161\n        /* \"#utility.yul\":4987:4991   */\n      dup2\n        /* \"#utility.yul\":4861:4992   */\n      tag_95\n      jump\t// in\n    tag_161:\n        /* \"#utility.yul\":4853:4992   */\n      swap1\n      pop\n        /* \"#utility.yul\":4580:4999   */\n      swap2\n      swap1\n      pop\n      jump\t// out\n        /* \"#utility.yul\":5005:5185   */\n    tag_96:\n        /* \"#utility.yul\":5145:5177   */\n      0x526f746174696e6720706f74732063616e6e6f74206265206a6f696e65640000\n        /* \"#utility.yul\":5141:5142   */\n      0x00\n        /* \"#utility.yul\":5133:5139   */\n      dup3\n        /* \"#utility.yul\":5129:5143   */\n      add\n        /* \"#utility.yul\":5122:5178   */\n      mstore\n        /* \"#utility.yul\":5005:5185   */\n      pop\n      jump\t// out\n        /* \"#utility.yul\":5191:5557   */\n    tag_97:\n        /* \"#utility.yul\":5333:5336   */\n      0x00\n        /* \"#utility.yul\":5354:5421   */\n      tag_164\n        /* \"#utility.yul\":5418:5420   */\n      0x1e\n        /* \"#utility.yul\":5413:5416   */\n      dup4\n        /* \"#utility.yul\":5354:5421   */\n      tag_93\n      jump\t// in\n    tag_164:\n        /* \"#utility.yul\":5347:5421   */\n      swap2\n      pop\n        /* \"#utility.yul\":5430:5523   */\n      tag_165\n        /* \"#utility.yul\":5519:5522   */\n      dup3\n        /* \"#utility.yul\":5430:5523   */\n      tag_96\n      jump\t// in\n    tag_165:\n        /* \"#utility.yul\":5548:5550   */\n      0x20\n        /* \"#utility.yul\":5543:5546   */\n      dup3\n        /* \"#utility.yul\":5539:5551   */\n      add\n        /* \"#utility.yul\":5532:5551   */\n      swap1\n      pop\n        /* \"#utility.yul\":5191:5557   */\n      swap2\n      swap1\n      pop\n      jump\t// out\n        /* \"#utility.yul\":5563:5982   */\n    tag_36:\n        /* \"#utility.yul\":5729:5733   */\n      0x00\n        /* \"#utility.yul\":5767:5769   */\n      0x20\n        /* \"#utility.yul\":5756:5765   */\n      dup3\n        /* \"#utility.yul\":5752:5770   */\n      add\n        /* \"#utility.yul\":5744:5770   */\n      swap1\n      pop\n        /* \"#utility.yul\":5816:5825   */\n      dup2\n        /* \"#utility.yul\":5810:5814   */\n      dup2\n        /* \"#utility.yul\":5806:5826   */\n      sub\n        /* \"#utility.yul\":5802:5803   */\n      0x00\n        /* \"#utility.yul\":5791:5800   */\n      dup4\n        /* \"#utility.yul\":5787:5804   */\n      add\n        /* \"#utility.yul\":5780:5827   */\n      mstore\n        /* \"#utility.yul\":5844:5975   */\n      tag_167\n        /* \"#utility.yul\":5970:5974   */\n      dup2\n        /* \"#utility.yul\":5844:5975   */\n      tag_97\n      jump\t// in\n    tag_167:\n        /* \"#utility.yul\":5836:5975   */\n      swap1\n      pop\n        /* \"#utility.yul\":5563:5982   */\n      swap2\n      swap1\n      pop\n      jump\t// out\n        /* \"#utility.yul\":5988:6152   */\n    tag_98:\n        /* \"#utility.yul\":6128:6144   */\n      0x416c7265616479206a6f696e6564000000000000000000000000000000000000\n        /* \"#utility.yul\":6124:6125   */\n      0x00\n        /* \"#utility.yul\":6116:6122   */\n      dup3\n        /* \"#utility.yul\":6112:6126   */\n      add\n        /* \"#utility.yul\":6105:6145   */\n      mstore\n        /* \"#utility.yul\":5988:6152   */\n      pop\n      jump\t// out\n        /* \"#utility.yul\":6158:6524   */\n    tag_99:\n        /* \"#utility.yul\":6300:6303   */\n      0x00\n        /* \"#utility.yul\":6321:6388   */\n      tag_170\n        /* \"#utility.yul\":6385:6387   */\n      0x0e\n        /* \"#utility.yul\":6380:6383   */\n      dup4\n        /* \"#utility.yul\":6321:6388   */\n      tag_93\n      jump\t// in\n    tag_170:\n        /* \"#utility.yul\":6314:6388   */\n      swap2\n      pop\n        /* \"#utility.yul\":6397:6490   */\n      tag_171\n        /* \"#utility.yul\":6486:6489   */\n      dup3\n        /* \"#utility.yul\":6397:6490   */\n      tag_98\n      jump\t// in\n    tag_171:\n        /* \"#utility.yul\":6515:6517   */\n      0x20\n        /* \"#utility.yul\":6510:6513   */\n      dup3\n        /* \"#utility.yul\":6506:6518   */\n      add\n        /* \"#utility.yul\":6499:6518   */\n      swap1\n      pop\n        /* \"#utility.yul\":6158:6524   */\n      swap2\n      swap1\n      pop\n      jump\t// out\n        /* \"#utility.yul\":6530:6949   */\n    tag_39:\n        /* \"#utility.yul\":6696:6700   */\n      0x00\n        /* \"#utility.yul\":6734:6736   */\n      0x20\n        /* \"#utility.yul\":6723:6732   */\n      dup3\n        /* \"#utility.yul\":6719:6737   */\n      add\n        /* \"#utility.yul\":6711:6737   */\n      swap1\n      pop\n        /* \"#utility.yul\":6783:6792   */\n      dup2\n        /* \"#utility.yul\":6777:6781   */\n      dup2\n        /* \"#utility.yul\":6773:6793   */\n      sub\n        /* \"#utility.yul\":6769:6770   */\n      0x00\n        /* \"#utility.yul\":6758:6767   */\n      dup4\n        /* \"#utility.yul\":6754:6771   */\n      add\n        /* \"#utility.yul\":6747:6794   */\n      mstore\n        /* \"#utility.yul\":6811:6942   */\n      tag_173\n        /* \"#utility.yul\":6937:6941   */\n      dup2\n        /* \"#utility.yul\":6811:6942   */\n      tag_99\n      jump\t// in\n    tag_173:\n        /* \"#utility.yul\":6803:6942   */\n      swap1\n      pop\n        /* \"#utility.yul\":6530:6949   */\n      swap2\n      swap1\n      pop\n      jump\t// out\n        /* \"#utility.yul\":6955:7133   */\n    tag_100:\n        /* \"#utility.yul\":7095:7125   */\n      0x4d7573742073656e642045746865722077697468206a6f696e506f7400000000\n        /* \"#utility.yul\":7091:7092   */\n      0x00\n        /* \"#utility.yul\":7083:7089   */\n      dup3\n        /* \"#utility.yul\":7079:7093   */\n      add\n        /* \"#utility.yul\":7072:7126   */\n      mstore\n        /* \"#utility.yul\":6955:7133   */\n      pop\n      jump\t// out\n        /* \"#utility.yul\":7139:7505   */\n    tag_101:\n        /* \"#utility.yul\":7281:7284   */\n      0x00\n        /* \"#utility.yul\":7302:7369   */\n      tag_176\n        /* \"#utility.yul\":7366:7368   */\n      0x1c\n        /* \"#utility.yul\":7361:7364   */\n      dup4\n        /* \"#utility.yul\":7302:7369   */\n      tag_93\n      jump\t// in\n    tag_176:\n        /* \"#utility.yul\":7295:7369   */\n      swap2\n      pop\n        /* \"#utility.yul\":7378:7471   */\n      tag_177\n        /* \"#utility.yul\":7467:7470   */\n      dup3\n        /* \"#utility.yul\":7378:7471   */\n      tag_100\n      jump\t// in\n    tag_177:\n        /* \"#utility.yul\":7496:7498   */\n      0x20\n        /* \"#utility.yul\":7491:7494   */\n      dup3\n        /* \"#utility.yul\":7487:7499   */\n      add\n        /* \"#utility.yul\":7480:7499   */\n      swap1\n      pop\n        /* \"#utility.yul\":7139:7505   */\n      swap2\n      swap1\n      pop\n      jump\t// out\n        /* \"#utility.yul\":7511:7930   */\n    tag_42:\n        /* \"#utility.yul\":7677:7681   */\n      0x00\n        /* \"#utility.yul\":7715:7717   */\n      0x20\n        /* \"#utility.yul\":7704:7713   */\n      dup3\n        /* \"#utility.yul\":7700:7718   */\n      add\n        /* \"#utility.yul\":7692:7718   */\n      swap1\n      pop\n        /* \"#utility.yul\":7764:7773   */\n      dup2\n        /* \"#utility.yul\":7758:7762   */\n      dup2\n        /* \"#utility.yul\":7754:7774   */\n      sub\n        /* \"#utility.yul\":7750:7751   */\n      0x00\n        /* \"#utility.yul\":7739:7748   */\n      dup4\n        /* \"#utility.yul\":7735:7752   */\n      add\n        /* \"#utility.yul\":7728:7775   */\n      mstore\n        /* \"#utility.yul\":7792:7923   */\n      tag_179\n        /* \"#utility.yul\":7918:7922   */\n      dup2\n        /* \"#utility.yul\":7792:7923   */\n      tag_101\n      jump\t// in\n    tag_179:\n        /* \"#utility.yul\":7784:7923   */\n      swap1\n      pop\n        /* \"#utility.yul\":7511:7930   */\n      swap2\n      swap1\n      pop\n      jump\t// out\n        /* \"#utility.yul\":7936:8268   */\n    tag_45:\n        /* \"#utility.yul\":8057:8061   */\n      0x00\n        /* \"#utility.yul\":8095:8097   */\n      0x40\n        /* \"#utility.yul\":8084:8093   */\n      dup3\n        /* \"#utility.yul\":8080:8098   */\n      add\n        /* \"#utility.yul\":8072:8098   */\n      swap1\n      pop\n        /* \"#utility.yul\":8108:8179   */\n      tag_181\n        /* \"#utility.yul\":8176:8177   */\n      0x00\n        /* \"#utility.yul\":8165:8174   */\n      dup4\n        /* \"#utility.yul\":8161:8178   */\n      add\n        /* \"#utility.yul\":8152:8158   */\n      dup6\n        /* \"#utility.yul\":8108:8179   */\n      tag_90\n      jump\t// in\n    tag_181:\n        /* \"#utility.yul\":8189:8261   */\n      tag_182\n        /* \"#utility.yul\":8257:8259   */\n      0x20\n        /* \"#utility.yul\":8246:8255   */\n      dup4\n        /* \"#utility.yul\":8242:8260   */\n      add\n        /* \"#utility.yul\":8233:8239   */\n      dup5\n        /* \"#utility.yul\":8189:8261   */\n      tag_92\n      jump\t// in\n    tag_182:\n        /* \"#utility.yul\":7936:8268   */\n      swap4\n      swap3\n      pop\n      pop\n      pop\n      jump\t// out\n        /* \"#utility.yul\":8274:8454   */\n    tag_102:\n        /* \"#utility.yul\":8322:8399   */\n      0x4e487b7100000000000000000000000000000000000000000000000000000000\n        /* \"#utility.yul\":8319:8320   */\n      0x00\n        /* \"#utility.yul\":8312:8400   */\n      mstore\n        /* \"#utility.yul\":8419:8423   */\n      0x11\n        /* \"#utility.yul\":8416:8417   */\n      0x04\n        /* \"#utility.yul\":8409:8424   */\n      mstore\n        /* \"#utility.yul\":8443:8447   */\n      0x24\n        /* \"#utility.yul\":8440:8441   */\n      0x00\n        /* \"#utility.yul\":8433:8448   */\n      revert\n        /* \"#utility.yul\":8460:8693   */\n    tag_48:\n        /* \"#utility.yul\":8499:8502   */\n      0x00\n        /* \"#utility.yul\":8522:8546   */\n      tag_185\n        /* \"#utility.yul\":8540:8545   */\n      dup3\n        /* \"#utility.yul\":8522:8546   */\n      tag_87\n      jump\t// in\n    tag_185:\n        /* \"#utility.yul\":8513:8546   */\n      swap2\n      pop\n        /* \"#utility.yul\":8568:8634   */\n      0xffffffffffffffffffffffffffffffffffffffffffffffffffffffffffffffff\n        /* \"#utility.yul\":8561:8566   */\n      dup3\n        /* \"#utility.yul\":8558:8635   */\n      sub\n        /* \"#utility.yul\":8555:8658   */\n      tag_186\n      jumpi\n        /* \"#utility.yul\":8638:8656   */\n      tag_187\n      tag_102\n      jump\t// in\n    tag_187:\n        /* \"#utility.yul\":8555:8658   */\n    tag_186:\n        /* \"#utility.yul\":8685:8686   */\n      0x01\n        /* \"#utility.yul\":8678:8683   */\n      dup3\n        /* \"#utility.yul\":8674:8687   */\n      add\n        /* \"#utility.yul\":8667:8687   */\n      swap1\n      pop\n        /* \"#utility.yul\":8460:8693   */\n      swap2\n      swap1\n      pop\n      jump\t// out\n        /* \"#utility.yul\":8699:8927   */\n    tag_103:\n        /* \"#utility.yul\":8839:8873   */\n      0x43726561746f722073686f756c64206465706f7369742074686520696e697469\n        /* \"#utility.yul\":8835:8836   */\n      0x00\n        /* \"#utility.yul\":8827:8833   */\n      dup3\n        /* \"#utility.yul\":8823:8837   */\n      add\n        /* \"#utility.yul\":8816:8874   */\n      mstore\n        /* \"#utility.yul\":8908:8919   */\n      0x616c20616d6f756e740000000000000000000000000000000000000000000000\n        /* \"#utility.yul\":8903:8905   */\n      0x20\n        /* \"#utility.yul\":8895:8901   */\n      dup3\n        /* \"#utility.yul\":8891:8906   */\n      add\n        /* \"#utility.yul\":8884:8920   */\n      mstore\n        /* \"#utility.yul\":8699:8927   */\n      pop\n      jump\t// out\n        /* \"#utility.yul\":8933:9299   */\n    tag_104:\n        /* \"#utility.yul\":9075:9078   */\n      0x00\n        /* \"#utility.yul\":9096:9163   */\n      tag_190\n        /* \"#utility.yul\":9160:9162   */\n      0x29\n        /* \"#utility.yul\":9155:9158   */\n      dup4\n        /* \"#utility.yul\":9096:9163   */\n      tag_93\n      jump\t// in\n    tag_190:\n        /* \"#utility.yul\":9089:9163   */\n      swap2\n      pop\n        /* \"#utility.yul\":9172:9265   */\n      tag_191\n        /* \"#utility.yul\":9261:9264   */\n      dup3\n        /* \"#utility.yul\":9172:9265   */\n      tag_103\n      jump\t// in\n    tag_191:\n        /* \"#utility.yul\":9290:9292   */\n      0x40\n        /* \"#utility.yul\":9285:9288   */\n      dup3\n        /* \"#utility.yul\":9281:9293   */\n      add\n        /* \"#utility.yul\":9274:9293   */\n      swap1\n      pop\n        /* \"#utility.yul\":8933:9299   */\n      swap2\n      swap1\n      pop\n      jump\t// out\n        /* \"#utility.yul\":9305:9724   */\n    tag_51:\n        /* \"#utility.yul\":9471:9475   */\n      0x00\n        /* \"#utility.yul\":9509:9511   */\n      0x20\n        /* \"#utility.yul\":9498:9507   */\n      dup3\n        /* \"#utility.yul\":9494:9512   */\n      add\n        /* \"#utility.yul\":9486:9512   */\n      swap1\n      pop\n        /* \"#utility.yul\":9558:9567   */\n      dup2\n        /* \"#utility.yul\":9552:9556   */\n      dup2\n        /* \"#utility.yul\":9548:9568   */\n      sub\n        /* \"#utility.yul\":9544:9545   */\n      0x00\n        /* \"#utility.yul\":9533:9542   */\n      dup4\n        /* \"#utility.yul\":9529:9546   */\n      add\n        /* \"#utility.yul\":9522:9569   */\n      mstore\n        /* \"#utility.yul\":9586:9717   */\n      tag_193\n        /* \"#utility.yul\":9712:9716   */\n      dup2\n        /* \"#utility.yul\":9586:9717   */\n      tag_104\n      jump\t// in\n    tag_193:\n        /* \"#utility.yul\":9578:9717   */\n      swap1\n      pop\n        /* \"#utility.yul\":9305:9724   */\n      swap2\n      swap1\n      pop\n      jump\t// out\n        /* \"#utility.yul\":9730:10505   */\n    tag_55:\n        /* \"#utility.yul\":9963:9967   */\n      0x00\n        /* \"#utility.yul\":10001:10004   */\n      0xc0\n        /* \"#utility.yul\":9990:9999   */\n      dup3\n        /* \"#utility.yul\":9986:10005   */\n      add\n        /* \"#utility.yul\":9978:10005   */\n      swap1\n      pop\n        /* \"#utility.yul\":10015:10086   */\n      tag_195\n        /* \"#utility.yul\":10083:10084   */\n      0x00\n        /* \"#utility.yul\":10072:10081   */\n      dup4\n        /* \"#utility.yul\":10068:10085   */\n      add\n        /* \"#utility.yul\":10059:10065   */\n      dup10\n        /* \"#utility.yul\":10015:10086   */\n      tag_90\n      jump\t// in\n    tag_195:\n        /* \"#utility.yul\":10096:10168   */\n      tag_196\n        /* \"#utility.yul\":10164:10166   */\n      0x20\n        /* \"#utility.yul\":10153:10162   */\n      dup4\n        /* \"#utility.yul\":10149:10167   */\n      add\n        /* \"#utility.yul\":10140:10146   */\n      dup9\n        /* \"#utility.yul\":10096:10168   */\n      tag_92\n      jump\t// in\n    tag_196:\n        /* \"#utility.yul\":10178:10250   */\n      tag_197\n        /* \"#utility.yul\":10246:10248   */\n      0x40\n        /* \"#utility.yul\":10235:10244   */\n      dup4\n        /* \"#utility.yul\":10231:10249   */\n      add\n        /* \"#utility.yul\":10222:10228   */\n      dup8\n        /* \"#utility.yul\":10178:10250   */\n      tag_90\n      jump\t// in\n    tag_197:\n        /* \"#utility.yul\":10260:10332   */\n      tag_198\n        /* \"#utility.yul\":10328:10330   */\n      0x60\n        /* \"#utility.yul\":10317:10326   */\n      dup4\n        /* \"#utility.yul\":10313:10331   */\n      add\n        /* \"#utility.yul\":10304:10310   */\n      dup7\n        /* \"#utility.yul\":10260:10332   */\n      tag_90\n      jump\t// in\n    tag_198:\n        /* \"#utility.yul\":10342:10415   */\n      tag_199\n        /* \"#utility.yul\":10410:10413   */\n      0x80\n        /* \"#utility.yul\":10399:10408   */\n      dup4\n        /* \"#utility.yul\":10395:10414   */\n      add\n        /* \"#utility.yul\":10386:10392   */\n      dup6\n        /* \"#utility.yul\":10342:10415   */\n      tag_90\n      jump\t// in\n    tag_199:\n        /* \"#utility.yul\":10425:10498   */\n      tag_200\n        /* \"#utility.yul\":10493:10496   */\n      0xa0\n        /* \"#utility.yul\":10482:10491   */\n      dup4\n        /* \"#utility.yul\":10478:10497   */\n      add\n        /* \"#utility.yul\":10469:10475   */\n      dup5\n        /* \"#utility.yul\":10425:10498   */\n      tag_90\n      jump\t// in\n    tag_200:\n        /* \"#utility.yul\":9730:10505   */\n      swap8\n      swap7\n      pop\n      pop\n      pop\n      pop\n      pop\n      pop\n      pop\n      jump\t// out\n        /* \"#utility.yul\":10511:10740   */\n    tag_105:\n        /* \"#utility.yul\":10651:10685   */\n      0x4f6e6c792074686520706f742063726561746f722063616e2072657665616c20\n        /* \"#utility.yul\":10647:10648   */\n      0x00\n        /* \"#utility.yul\":10639:10645   */\n      dup3\n        /* \"#utility.yul\":10635:10649   */\n      add\n        /* \"#utility.yul\":10628:10686   */\n      mstore\n        /* \"#utility.yul\":10720:10732   */\n      0x7468652077696e6e657200000000000000000000000000000000000000000000\n        /* \"#utility.yul\":10715:10717   */\n      0x20\n        /* \"#utility.yul\":10707:10713   */\n      dup3\n        /* \"#utility.yul\":10703:10718   */\n      add\n        /* \"#utility.yul\":10696:10733   */\n      mstore\n        /* \"#utility.yul\":10511:10740   */\n      pop\n      jump\t// out\n        /* \"#utility.yul\":10746:11112   */\n    tag_106:\n        /* \"#utility.yul\":10888:10891   */\n      0x00\n        /* \"#utility.yul\":10909:10976   */\n      tag_203\n        /* \"#utility.yul\":10973:10975   */\n      0x2a\n        /* \"#utility.yul\":10968:10971   */\n      dup4\n        /* \"#utility.yul\":10909:10976   */\n      tag_93\n      jump\t// in\n    tag_203:\n        /* \"#utility.yul\":10902:10976   */\n      swap2\n      pop\n        /* \"#utility.yul\":10985:11078   */\n      tag_204\n        /* \"#utility.yul\":11074:11077   */\n      dup3\n        /* \"#utility.yul\":10985:11078   */\n      tag_105\n      jump\t// in\n    tag_204:\n        /* \"#utility.yul\":11103:11105   */\n      0x40\n        /* \"#utility.yul\":11098:11101   */\n      dup3\n        /* \"#utility.yul\":11094:11106   */\n      add\n        /* \"#utility.yul\":11087:11106   */\n      swap1\n      pop\n        /* \"#utility.yul\":10746:11112   */\n      swap2\n      swap1\n      pop\n      jump\t// out\n        /* \"#utility.yul\":11118:11537   */\n    tag_59:\n        /* \"#utility.yul\":11284:11288   */\n      0x00\n        /* \"#utility.yul\":11322:11324   */\n      0x20\n        /* \"#utility.yul\":11311:11320   */\n      dup3\n        /* \"#utility.yul\":11307:11325   */\n      add\n        /* \"#utility.yul\":11299:11325   */\n      swap1\n      pop\n        /* \"#utility.yul\":11371:11380   */\n      dup2\n        /* \"#utility.yul\":11365:11369   */\n      dup2\n        /* \"#utility.yul\":11361:11381   */\n      sub\n        /* \"#utility.yul\":11357:11358   */\n      0x00\n        /* \"#utility.yul\":11346:11355   */\n      dup4\n        /* \"#utility.yul\":11342:11359   */\n      add\n        /* \"#utility.yul\":11335:11382   */\n      mstore\n        /* \"#utility.yul\":11399:11530   */\n      tag_206\n        /* \"#utility.yul\":11525:11529   */\n      dup2\n        /* \"#utility.yul\":11399:11530   */\n      tag_106\n      jump\t// in\n    tag_206:\n        /* \"#utility.yul\":11391:11530   */\n      swap1\n      pop\n        /* \"#utility.yul\":11118:11537   */\n      swap2\n      swap1\n      pop\n      jump\t// out\n        /* \"#utility.yul\":11543:11723   */\n    tag_107:\n        /* \"#utility.yul\":11591:11668   */\n      0x4e487b7100000000000000000000000000000000000000000000000000000000\n        /* \"#utility.yul\":11588:11589   */\n      0x00\n        /* \"#utility.yul\":11581:11669   */\n      mstore\n        /* \"#utility.yul\":11688:11692   */\n      0x12\n        /* \"#utility.yul\":11685:11686   */\n      0x04\n        /* \"#utility.yul\":11678:11693   */\n      mstore\n        /* \"#utility.yul\":11712:11716   */\n      0x24\n        /* \"#utility.yul\":11709:11710   */\n      0x00\n        /* \"#utility.yul\":11702:11717   */\n      revert\n        /* \"#utility.yul\":11729:11905   */\n    tag_61:\n        /* \"#utility.yul\":11761:11762   */\n      0x00\n        /* \"#utility.yul\":11778:11798   */\n      tag_209\n        /* \"#utility.yul\":11796:11797   */\n      dup3\n        /* \"#utility.yul\":11778:11798   */\n      tag_87\n      jump\t// in\n    tag_209:\n        /* \"#utility.yul\":11773:11798   */\n      swap2\n      pop\n        /* \"#utility.yul\":11812:11832   */\n      tag_210\n        /* \"#utility.yul\":11830:11831   */\n      dup4\n        /* \"#utility.yul\":11812:11832   */\n      tag_87\n      jump\t// in\n    tag_210:\n        /* \"#utility.yul\":11807:11832   */\n      swap3\n      pop\n        /* \"#utility.yul\":11851:11852   */\n      dup3\n        /* \"#utility.yul\":11841:11876   */\n      tag_211\n      jumpi\n        /* \"#utility.yul\":11856:11874   */\n      tag_212\n      tag_107\n      jump\t// in\n    tag_212:\n        /* \"#utility.yul\":11841:11876   */\n    tag_211:\n        /* \"#utility.yul\":11897:11898   */\n      dup3\n        /* \"#utility.yul\":11894:11895   */\n      dup3\n        /* \"#utility.yul\":11890:11899   */\n      mod\n        /* \"#utility.yul\":11885:11899   */\n      swap1\n      pop\n        /* \"#utility.yul\":11729:11905   */\n      swap3\n      swap2\n      pop\n      pop\n      jump\t// out\n        /* \"#utility.yul\":11911:12091   */\n    tag_64:\n        /* \"#utility.yul\":11959:12036   */\n      0x4e487b7100000000000000000000000000000000000000000000000000000000\n        /* \"#utility.yul\":11956:11957   */\n      0x00\n        /* \"#utility.yul\":11949:12037   */\n      mstore\n        /* \"#utility.yul\":12056:12060   */\n      0x32\n        /* \"#utility.yul\":12053:12054   */\n      0x04\n        /* \"#utility.yul\":12046:12061   */\n      mstore\n        /* \"#utility.yul\":12080:12084   */\n      0x24\n        /* \"#utility.yul\":12077:12078   */\n      0x00\n        /* \"#utility.yul\":12070:12085   */\n      revert\n        /* \"#utility.yul\":12097:12539   */\n    tag_69:\n        /* \"#utility.yul\":12246:12250   */\n      0x00\n        /* \"#utility.yul\":12284:12286   */\n      0x60\n        /* \"#utility.yul\":12273:12282   */\n      dup3\n        /* \"#utility.yul\":12269:12287   */\n      add\n        /* \"#utility.yul\":12261:12287   */\n      swap1\n      pop\n        /* \"#utility.yul\":12297:12368   */\n      tag_215\n        /* \"#utility.yul\":12365:12366   */\n      0x00\n        /* \"#utility.yul\":12354:12363   */\n      dup4\n        /* \"#utility.yul\":12350:12367   */\n      add\n        /* \"#utility.yul\":12341:12347   */\n      dup7\n        /* \"#utility.yul\":12297:12368   */\n      tag_90\n      jump\t// in\n    tag_215:\n        /* \"#utility.yul\":12378:12450   */\n      tag_216\n        /* \"#utility.yul\":12446:12448   */\n      0x20\n        /* \"#utility.yul\":12435:12444   */\n      dup4\n        /* \"#utility.yul\":12431:12449   */\n      add\n        /* \"#utility.yul\":12422:12428   */\n      dup6\n        /* \"#utility.yul\":12378:12450   */\n      tag_92\n      jump\t// in\n    tag_216:\n        /* \"#utility.yul\":12460:12532   */\n      tag_217\n        /* \"#utility.yul\":12528:12530   */\n      0x40\n        /* \"#utility.yul\":12517:12526   */\n      dup4\n        /* \"#utility.yul\":12513:12531   */\n      add\n        /* \"#utility.yul\":12504:12510   */\n      dup5\n        /* \"#utility.yul\":12460:12532   */\n      tag_90\n      jump\t// in\n    tag_217:\n        /* \"#utility.yul\":12097:12539   */\n      swap5\n      swap4\n      pop\n      pop\n      pop\n      pop\n      jump\t// out\n\n    auxdata: 0xa264697066735822122026a6391e93a5d5f32e7c4b6127588cdf23a6adcb7b2f2a19195d2404cb4afa5464736f6c63430008180033\n}\n",
				"bytecode": {
					"linkReferences": {},
					"object": "608060405260015f5534801562000014575f80fd5b5073420000000000000000000000000000000000002273ffffffffffffffffffffffffffffffffffffffff16631a33757d60026040518263ffffffff1660e01b81526004016200006591906200012b565b6020604051808303815f875af115801562000082573d5f803e3d5ffd5b505050506040513d601f19601f82011682018060405250810190620000a8919062000182565b50620001b2565b7f4e487b71000000000000000000000000000000000000000000000000000000005f52602160045260245ffd5b60038110620000f057620000ef620000af565b5b50565b5f8190506200010282620000dc565b919050565b5f6200011382620000f3565b9050919050565b620001258162000107565b82525050565b5f602082019050620001405f8301846200011a565b92915050565b5f80fd5b5f819050919050565b6200015e816200014a565b811462000169575f80fd5b50565b5f815190506200017c8162000153565b92915050565b5f602082840312156200019a576200019962000146565b5b5f620001a9848285016200016c565b91505092915050565b610dfa80620001c05f395ff3fe608060405260043610610049575f3560e01c806331a0edec1461004d578063831d49ef14610077578063c3c3df4f14610093578063ee8ab0c7146100d4578063ef922b87146100f0575b5f80fd5b348015610058575f80fd5b50610061610118565b60405161006e91906107e6565b60405180910390f35b610091600480360381019061008c9190610836565b610130565b005b34801561009e575f80fd5b506100b960048036038101906100b49190610836565b610381565b6040516100cb96959493929190610890565b60405180910390f35b6100ee60048036038101906100e991906108ef565b6103d8565b005b3480156100fb575f80fd5b5061011660048036038101906101119190610836565b610518565b005b73420000000000000000000000000000000000002281565b5f60015f8381526020019081526020015f2090508060030154816006018054905010610191576040517f08c379a000000000000000000000000000000000000000000000000000000000815260040161018890610999565b60405180910390fd5b60018160040154106101d8576040517f08c379a00000000000000000000000000000000000000000000000000000000081526004016101cf90610a01565b60405180910390fd5b5f816007015f3373ffffffffffffffffffffffffffffffffffffffff1673ffffffffffffffffffffffffffffffffffffffff1681526020019081526020015f205414610259576040517f08c379a000000000000000000000000000000000000000000000000000000000815260040161025090610a69565b60405180910390fd5b805f0154341461029e576040517f08c379a000000000000000000000000000000000000000000000000000000000815260040161029590610ad1565b60405180910390fd5b34816007015f3373ffffffffffffffffffffffffffffffffffffffff1673ffffffffffffffffffffffffffffffffffffffff1681526020019081526020015f20819055508060060133908060018154018082558091505060019003905f5260205f20015f9091909190916101000a81548173ffffffffffffffffffffffffffffffffffffffff021916908373ffffffffffffffffffffffffffffffffffffffff1602179055507f7dd8cb04159701bc1976c246434d7d96812782e7489e6c5c34db49a388fe9e808233604051610375929190610aef565b60405180910390a15050565b6001602052805f5260405f205f91509050805f015490806001015490806002015490806003015490806004015490806005015f9054906101000a900473ffffffffffffffffffffffffffffffffffffffff16905086565b5f805f8154809291906103ea90610b43565b91905055905060605f3411610434576040517f08c379a000000000000000000000000000000000000000000000000000000000815260040161042b90610bfa565b60405180910390fd5b5f60015f8481526020019081526020015f20905034815f018190555033816005015f6101000a81548173ffffffffffffffffffffffffffffffffffffffff021916908373ffffffffffffffffffffffffffffffffffffffff1602179055508581600101819055508481600201819055508381600301819055505f8160040181905550818160060190805190602001906104ce9291906106ca565b507f4fb28bba100ddb14ff68f29f59e3b2c4f9e099c33fc06365b55687b19f9999a583333489898960405161050896959493929190610c18565b60405180910390a1505050505050565b3373ffffffffffffffffffffffffffffffffffffffff1660015f8381526020019081526020015f206005015f9054906101000a900473ffffffffffffffffffffffffffffffffffffffff1673ffffffffffffffffffffffffffffffffffffffff16146105b9576040517f08c379a00000000000000000000000000000000000000000000000000000000081526004016105b090610ce7565b60405180910390fd5b5f60015f8381526020019081526020015f2090505f816003015482600401546105e29190610d32565b90505f8260060182815481106105fb576105fa610d62565b5b905f5260205f20015f9054906101000a900473ffffffffffffffffffffffffffffffffffffffff1690508073ffffffffffffffffffffffffffffffffffffffff166108fc845f015490811502906040515f60405180830381858888f1935050505015801561066b573d5f803e3d5ffd5b507f35cb3811461cb824b245820eee97ab50ee1cc609f2bdd3bb10f5f0010184a7d3848285600401546040516106a393929190610d8f565b60405180910390a1826004015f8154809291906106bf90610b43565b919050555050505050565b828054828255905f5260205f20908101928215610740579160200282015b8281111561073f578251825f6101000a81548173ffffffffffffffffffffffffffffffffffffffff021916908373ffffffffffffffffffffffffffffffffffffffff160217905550916020019190600101906106e8565b5b50905061074d9190610751565b5090565b5b80821115610768575f815f905550600101610752565b5090565b5f73ffffffffffffffffffffffffffffffffffffffff82169050919050565b5f819050919050565b5f6107ae6107a96107a48461076c565b61078b565b61076c565b9050919050565b5f6107bf82610794565b9050919050565b5f6107d0826107b5565b9050919050565b6107e0816107c6565b82525050565b5f6020820190506107f95f8301846107d7565b92915050565b5f80fd5b5f819050919050565b61081581610803565b811461081f575f80fd5b50565b5f813590506108308161080c565b92915050565b5f6020828403121561084b5761084a6107ff565b5b5f61085884828501610822565b91505092915050565b61086a81610803565b82525050565b5f61087a8261076c565b9050919050565b61088a81610870565b82525050565b5f60c0820190506108a35f830189610861565b6108b06020830188610861565b6108bd6040830187610861565b6108ca6060830186610861565b6108d76080830185610861565b6108e460a0830184610881565b979650505050505050565b5f805f60608486031215610906576109056107ff565b5b5f61091386828701610822565b935050602061092486828701610822565b925050604061093586828701610822565b9150509250925092565b5f82825260208201905092915050565b7f506f742069732066756c6c0000000000000000000000000000000000000000005f82015250565b5f610983600b8361093f565b915061098e8261094f565b602082019050919050565b5f6020820190508181035f8301526109b081610977565b9050919050565b7f526f746174696e6720706f74732063616e6e6f74206265206a6f696e656400005f82015250565b5f6109eb601e8361093f565b91506109f6826109b7565b602082019050919050565b5f6020820190508181035f830152610a18816109df565b9050919050565b7f416c7265616479206a6f696e65640000000000000000000000000000000000005f82015250565b5f610a53600e8361093f565b9150610a5e82610a1f565b602082019050919050565b5f6020820190508181035f830152610a8081610a47565b9050919050565b7f4d7573742073656e642045746865722077697468206a6f696e506f74000000005f82015250565b5f610abb601c8361093f565b9150610ac682610a87565b602082019050919050565b5f6020820190508181035f830152610ae881610aaf565b9050919050565b5f604082019050610b025f830185610861565b610b0f6020830184610881565b9392505050565b7f4e487b71000000000000000000000000000000000000000000000000000000005f52601160045260245ffd5b5f610b4d82610803565b91507fffffffffffffffffffffffffffffffffffffffffffffffffffffffffffffffff8203610b7f57610b7e610b16565b5b600182019050919050565b7f43726561746f722073686f756c64206465706f7369742074686520696e6974695f8201527f616c20616d6f756e740000000000000000000000000000000000000000000000602082015250565b5f610be460298361093f565b9150610bef82610b8a565b604082019050919050565b5f6020820190508181035f830152610c1181610bd8565b9050919050565b5f60c082019050610c2b5f830189610861565b610c386020830188610881565b610c456040830187610861565b610c526060830186610861565b610c5f6080830185610861565b610c6c60a0830184610861565b979650505050505050565b7f4f6e6c792074686520706f742063726561746f722063616e2072657665616c205f8201527f7468652077696e6e657200000000000000000000000000000000000000000000602082015250565b5f610cd1602a8361093f565b9150610cdc82610c77565b604082019050919050565b5f6020820190508181035f830152610cfe81610cc5565b9050919050565b7f4e487b71000000000000000000000000000000000000000000000000000000005f52601260045260245ffd5b5f610d3c82610803565b9150610d4783610803565b925082610d5757610d56610d05565b5b828206905092915050565b7f4e487b71000000000000000000000000000000000000000000000000000000005f52603260045260245ffd5b5f606082019050610da25f830186610861565b610daf6020830185610881565b610dbc6040830184610861565b94935050505056fea264697066735822122026a6391e93a5d5f32e7c4b6127588cdf23a6adcb7b2f2a19195d2404cb4afa5464736f6c63430008180033",
					"opcodes": "PUSH1 0x80 PUSH1 0x40 MSTORE PUSH1 0x1 PUSH0 SSTORE CALLVALUE DUP1 ISZERO PUSH3 0x14 JUMPI PUSH0 DUP1 REVERT JUMPDEST POP PUSH20 0x4200000000000000000000000000000000000022 PUSH20 0xFFFFFFFFFFFFFFFFFFFFFFFFFFFFFFFFFFFFFFFF AND PUSH4 0x1A33757D PUSH1 0x2 PUSH1 0x40 MLOAD DUP3 PUSH4 0xFFFFFFFF AND PUSH1 0xE0 SHL DUP2 MSTORE PUSH1 0x4 ADD PUSH3 0x65 SWAP2 SWAP1 PUSH3 0x12B JUMP JUMPDEST PUSH1 0x20 PUSH1 0x40 MLOAD DUP1 DUP4 SUB DUP2 PUSH0 DUP8 GAS CALL ISZERO DUP1 ISZERO PUSH3 0x82 JUMPI RETURNDATASIZE PUSH0 DUP1 RETURNDATACOPY RETURNDATASIZE PUSH0 REVERT JUMPDEST POP POP POP POP PUSH1 0x40 MLOAD RETURNDATASIZE PUSH1 0x1F NOT PUSH1 0x1F DUP3 ADD AND DUP3 ADD DUP1 PUSH1 0x40 MSTORE POP DUP2 ADD SWAP1 PUSH3 0xA8 SWAP2 SWAP1 PUSH3 0x182 JUMP JUMPDEST POP PUSH3 0x1B2 JUMP JUMPDEST PUSH32 0x4E487B7100000000000000000000000000000000000000000000000000000000 PUSH0 MSTORE PUSH1 0x21 PUSH1 0x4 MSTORE PUSH1 0x24 PUSH0 REVERT JUMPDEST PUSH1 0x3 DUP2 LT PUSH3 0xF0 JUMPI PUSH3 0xEF PUSH3 0xAF JUMP JUMPDEST JUMPDEST POP JUMP JUMPDEST PUSH0 DUP2 SWAP1 POP PUSH3 0x102 DUP3 PUSH3 0xDC JUMP JUMPDEST SWAP2 SWAP1 POP JUMP JUMPDEST PUSH0 PUSH3 0x113 DUP3 PUSH3 0xF3 JUMP JUMPDEST SWAP1 POP SWAP2 SWAP1 POP JUMP JUMPDEST PUSH3 0x125 DUP2 PUSH3 0x107 JUMP JUMPDEST DUP3 MSTORE POP POP JUMP JUMPDEST PUSH0 PUSH1 0x20 DUP3 ADD SWAP1 POP PUSH3 0x140 PUSH0 DUP4 ADD DUP5 PUSH3 0x11A JUMP JUMPDEST SWAP3 SWAP2 POP POP JUMP JUMPDEST PUSH0 DUP1 REVERT JUMPDEST PUSH0 DUP2 SWAP1 POP SWAP2 SWAP1 POP JUMP JUMPDEST PUSH3 0x15E DUP2 PUSH3 0x14A JUMP JUMPDEST DUP2 EQ PUSH3 0x169 JUMPI PUSH0 DUP1 REVERT JUMPDEST POP JUMP JUMPDEST PUSH0 DUP2 MLOAD SWAP1 POP PUSH3 0x17C DUP2 PUSH3 0x153 JUMP JUMPDEST SWAP3 SWAP2 POP POP JUMP JUMPDEST PUSH0 PUSH1 0x20 DUP3 DUP5 SUB SLT ISZERO PUSH3 0x19A JUMPI PUSH3 0x199 PUSH3 0x146 JUMP JUMPDEST JUMPDEST PUSH0 PUSH3 0x1A9 DUP5 DUP3 DUP6 ADD PUSH3 0x16C JUMP JUMPDEST SWAP2 POP POP SWAP3 SWAP2 POP POP JUMP JUMPDEST PUSH2 0xDFA DUP1 PUSH3 0x1C0 PUSH0 CODECOPY PUSH0 RETURN INVALID PUSH1 0x80 PUSH1 0x40 MSTORE PUSH1 0x4 CALLDATASIZE LT PUSH2 0x49 JUMPI PUSH0 CALLDATALOAD PUSH1 0xE0 SHR DUP1 PUSH4 0x31A0EDEC EQ PUSH2 0x4D JUMPI DUP1 PUSH4 0x831D49EF EQ PUSH2 0x77 JUMPI DUP1 PUSH4 0xC3C3DF4F EQ PUSH2 0x93 JUMPI DUP1 PUSH4 0xEE8AB0C7 EQ PUSH2 0xD4 JUMPI DUP1 PUSH4 0xEF922B87 EQ PUSH2 0xF0 JUMPI JUMPDEST PUSH0 DUP1 REVERT JUMPDEST CALLVALUE DUP1 ISZERO PUSH2 0x58 JUMPI PUSH0 DUP1 REVERT JUMPDEST POP PUSH2 0x61 PUSH2 0x118 JUMP JUMPDEST PUSH1 0x40 MLOAD PUSH2 0x6E SWAP2 SWAP1 PUSH2 0x7E6 JUMP JUMPDEST PUSH1 0x40 MLOAD DUP1 SWAP2 SUB SWAP1 RETURN JUMPDEST PUSH2 0x91 PUSH1 0x4 DUP1 CALLDATASIZE SUB DUP2 ADD SWAP1 PUSH2 0x8C SWAP2 SWAP1 PUSH2 0x836 JUMP JUMPDEST PUSH2 0x130 JUMP JUMPDEST STOP JUMPDEST CALLVALUE DUP1 ISZERO PUSH2 0x9E JUMPI PUSH0 DUP1 REVERT JUMPDEST POP PUSH2 0xB9 PUSH1 0x4 DUP1 CALLDATASIZE SUB DUP2 ADD SWAP1 PUSH2 0xB4 SWAP2 SWAP1 PUSH2 0x836 JUMP JUMPDEST PUSH2 0x381 JUMP JUMPDEST PUSH1 0x40 MLOAD PUSH2 0xCB SWAP7 SWAP6 SWAP5 SWAP4 SWAP3 SWAP2 SWAP1 PUSH2 0x890 JUMP JUMPDEST PUSH1 0x40 MLOAD DUP1 SWAP2 SUB SWAP1 RETURN JUMPDEST PUSH2 0xEE PUSH1 0x4 DUP1 CALLDATASIZE SUB DUP2 ADD SWAP1 PUSH2 0xE9 SWAP2 SWAP1 PUSH2 0x8EF JUMP JUMPDEST PUSH2 0x3D8 JUMP JUMPDEST STOP JUMPDEST CALLVALUE DUP1 ISZERO PUSH2 0xFB JUMPI PUSH0 DUP1 REVERT JUMPDEST POP PUSH2 0x116 PUSH1 0x4 DUP1 CALLDATASIZE SUB DUP2 ADD SWAP1 PUSH2 0x111 SWAP2 SWAP1 PUSH2 0x836 JUMP JUMPDEST PUSH2 0x518 JUMP JUMPDEST STOP JUMPDEST PUSH20 0x4200000000000000000000000000000000000022 DUP2 JUMP JUMPDEST PUSH0 PUSH1 0x1 PUSH0 DUP4 DUP2 MSTORE PUSH1 0x20 ADD SWAP1 DUP2 MSTORE PUSH1 0x20 ADD PUSH0 KECCAK256 SWAP1 POP DUP1 PUSH1 0x3 ADD SLOAD DUP2 PUSH1 0x6 ADD DUP1 SLOAD SWAP1 POP LT PUSH2 0x191 JUMPI PUSH1 0x40 MLOAD PUSH32 0x8C379A000000000000000000000000000000000000000000000000000000000 DUP2 MSTORE PUSH1 0x4 ADD PUSH2 0x188 SWAP1 PUSH2 0x999 JUMP JUMPDEST PUSH1 0x40 MLOAD DUP1 SWAP2 SUB SWAP1 REVERT JUMPDEST PUSH1 0x1 DUP2 PUSH1 0x4 ADD SLOAD LT PUSH2 0x1D8 JUMPI PUSH1 0x40 MLOAD PUSH32 0x8C379A000000000000000000000000000000000000000000000000000000000 DUP2 MSTORE PUSH1 0x4 ADD PUSH2 0x1CF SWAP1 PUSH2 0xA01 JUMP JUMPDEST PUSH1 0x40 MLOAD DUP1 SWAP2 SUB SWAP1 REVERT JUMPDEST PUSH0 DUP2 PUSH1 0x7 ADD PUSH0 CALLER PUSH20 0xFFFFFFFFFFFFFFFFFFFFFFFFFFFFFFFFFFFFFFFF AND PUSH20 0xFFFFFFFFFFFFFFFFFFFFFFFFFFFFFFFFFFFFFFFF AND DUP2 MSTORE PUSH1 0x20 ADD SWAP1 DUP2 MSTORE PUSH1 0x20 ADD PUSH0 KECCAK256 SLOAD EQ PUSH2 0x259 JUMPI PUSH1 0x40 MLOAD PUSH32 0x8C379A000000000000000000000000000000000000000000000000000000000 DUP2 MSTORE PUSH1 0x4 ADD PUSH2 0x250 SWAP1 PUSH2 0xA69 JUMP JUMPDEST PUSH1 0x40 MLOAD DUP1 SWAP2 SUB SWAP1 REVERT JUMPDEST DUP1 PUSH0 ADD SLOAD CALLVALUE EQ PUSH2 0x29E JUMPI PUSH1 0x40 MLOAD PUSH32 0x8C379A000000000000000000000000000000000000000000000000000000000 DUP2 MSTORE PUSH1 0x4 ADD PUSH2 0x295 SWAP1 PUSH2 0xAD1 JUMP JUMPDEST PUSH1 0x40 MLOAD DUP1 SWAP2 SUB SWAP1 REVERT JUMPDEST CALLVALUE DUP2 PUSH1 0x7 ADD PUSH0 CALLER PUSH20 0xFFFFFFFFFFFFFFFFFFFFFFFFFFFFFFFFFFFFFFFF AND PUSH20 0xFFFFFFFFFFFFFFFFFFFFFFFFFFFFFFFFFFFFFFFF AND DUP2 MSTORE PUSH1 0x20 ADD SWAP1 DUP2 MSTORE PUSH1 0x20 ADD PUSH0 KECCAK256 DUP2 SWAP1 SSTORE POP DUP1 PUSH1 0x6 ADD CALLER SWAP1 DUP1 PUSH1 0x1 DUP2 SLOAD ADD DUP1 DUP3 SSTORE DUP1 SWAP2 POP POP PUSH1 0x1 SWAP1 SUB SWAP1 PUSH0 MSTORE PUSH1 0x20 PUSH0 KECCAK256 ADD PUSH0 SWAP1 SWAP2 SWAP1 SWAP2 SWAP1 SWAP2 PUSH2 0x100 EXP DUP2 SLOAD DUP2 PUSH20 0xFFFFFFFFFFFFFFFFFFFFFFFFFFFFFFFFFFFFFFFF MUL NOT AND SWAP1 DUP4 PUSH20 0xFFFFFFFFFFFFFFFFFFFFFFFFFFFFFFFFFFFFFFFF AND MUL OR SWAP1 SSTORE POP PUSH32 0x7DD8CB04159701BC1976C246434D7D96812782E7489E6C5C34DB49A388FE9E80 DUP3 CALLER PUSH1 0x40 MLOAD PUSH2 0x375 SWAP3 SWAP2 SWAP1 PUSH2 0xAEF JUMP JUMPDEST PUSH1 0x40 MLOAD DUP1 SWAP2 SUB SWAP1 LOG1 POP POP JUMP JUMPDEST PUSH1 0x1 PUSH1 0x20 MSTORE DUP1 PUSH0 MSTORE PUSH1 0x40 PUSH0 KECCAK256 PUSH0 SWAP2 POP SWAP1 POP DUP1 PUSH0 ADD SLOAD SWAP1 DUP1 PUSH1 0x1 ADD SLOAD SWAP1 DUP1 PUSH1 0x2 ADD SLOAD SWAP1 DUP1 PUSH1 0x3 ADD SLOAD SWAP1 DUP1 PUSH1 0x4 ADD SLOAD SWAP1 DUP1 PUSH1 0x5 ADD PUSH0 SWAP1 SLOAD SWAP1 PUSH2 0x100 EXP SWAP1 DIV PUSH20 0xFFFFFFFFFFFFFFFFFFFFFFFFFFFFFFFFFFFFFFFF AND SWAP1 POP DUP7 JUMP JUMPDEST PUSH0 DUP1 PUSH0 DUP2 SLOAD DUP1 SWAP3 SWAP2 SWAP1 PUSH2 0x3EA SWAP1 PUSH2 0xB43 JUMP JUMPDEST SWAP2 SWAP1 POP SSTORE SWAP1 POP PUSH1 0x60 PUSH0 CALLVALUE GT PUSH2 0x434 JUMPI PUSH1 0x40 MLOAD PUSH32 0x8C379A000000000000000000000000000000000000000000000000000000000 DUP2 MSTORE PUSH1 0x4 ADD PUSH2 0x42B SWAP1 PUSH2 0xBFA JUMP JUMPDEST PUSH1 0x40 MLOAD DUP1 SWAP2 SUB SWAP1 REVERT JUMPDEST PUSH0 PUSH1 0x1 PUSH0 DUP5 DUP2 MSTORE PUSH1 0x20 ADD SWAP1 DUP2 MSTORE PUSH1 0x20 ADD PUSH0 KECCAK256 SWAP1 POP CALLVALUE DUP2 PUSH0 ADD DUP2 SWAP1 SSTORE POP CALLER DUP2 PUSH1 0x5 ADD PUSH0 PUSH2 0x100 EXP DUP2 SLOAD DUP2 PUSH20 0xFFFFFFFFFFFFFFFFFFFFFFFFFFFFFFFFFFFFFFFF MUL NOT AND SWAP1 DUP4 PUSH20 0xFFFFFFFFFFFFFFFFFFFFFFFFFFFFFFFFFFFFFFFF AND MUL OR SWAP1 SSTORE POP DUP6 DUP2 PUSH1 0x1 ADD DUP2 SWAP1 SSTORE POP DUP5 DUP2 PUSH1 0x2 ADD DUP2 SWAP1 SSTORE POP DUP4 DUP2 PUSH1 0x3 ADD DUP2 SWAP1 SSTORE POP PUSH0 DUP2 PUSH1 0x4 ADD DUP2 SWAP1 SSTORE POP DUP2 DUP2 PUSH1 0x6 ADD SWAP1 DUP1 MLOAD SWAP1 PUSH1 0x20 ADD SWAP1 PUSH2 0x4CE SWAP3 SWAP2 SWAP1 PUSH2 0x6CA JUMP JUMPDEST POP PUSH32 0x4FB28BBA100DDB14FF68F29F59E3B2C4F9E099C33FC06365B55687B19F9999A5 DUP4 CALLER CALLVALUE DUP10 DUP10 DUP10 PUSH1 0x40 MLOAD PUSH2 0x508 SWAP7 SWAP6 SWAP5 SWAP4 SWAP3 SWAP2 SWAP1 PUSH2 0xC18 JUMP JUMPDEST PUSH1 0x40 MLOAD DUP1 SWAP2 SUB SWAP1 LOG1 POP POP POP POP POP POP JUMP JUMPDEST CALLER PUSH20 0xFFFFFFFFFFFFFFFFFFFFFFFFFFFFFFFFFFFFFFFF AND PUSH1 0x1 PUSH0 DUP4 DUP2 MSTORE PUSH1 0x20 ADD SWAP1 DUP2 MSTORE PUSH1 0x20 ADD PUSH0 KECCAK256 PUSH1 0x5 ADD PUSH0 SWAP1 SLOAD SWAP1 PUSH2 0x100 EXP SWAP1 DIV PUSH20 0xFFFFFFFFFFFFFFFFFFFFFFFFFFFFFFFFFFFFFFFF AND PUSH20 0xFFFFFFFFFFFFFFFFFFFFFFFFFFFFFFFFFFFFFFFF AND EQ PUSH2 0x5B9 JUMPI PUSH1 0x40 MLOAD PUSH32 0x8C379A000000000000000000000000000000000000000000000000000000000 DUP2 MSTORE PUSH1 0x4 ADD PUSH2 0x5B0 SWAP1 PUSH2 0xCE7 JUMP JUMPDEST PUSH1 0x40 MLOAD DUP1 SWAP2 SUB SWAP1 REVERT JUMPDEST PUSH0 PUSH1 0x1 PUSH0 DUP4 DUP2 MSTORE PUSH1 0x20 ADD SWAP1 DUP2 MSTORE PUSH1 0x20 ADD PUSH0 KECCAK256 SWAP1 POP PUSH0 DUP2 PUSH1 0x3 ADD SLOAD DUP3 PUSH1 0x4 ADD SLOAD PUSH2 0x5E2 SWAP2 SWAP1 PUSH2 0xD32 JUMP JUMPDEST SWAP1 POP PUSH0 DUP3 PUSH1 0x6 ADD DUP3 DUP2 SLOAD DUP2 LT PUSH2 0x5FB JUMPI PUSH2 0x5FA PUSH2 0xD62 JUMP JUMPDEST JUMPDEST SWAP1 PUSH0 MSTORE PUSH1 0x20 PUSH0 KECCAK256 ADD PUSH0 SWAP1 SLOAD SWAP1 PUSH2 0x100 EXP SWAP1 DIV PUSH20 0xFFFFFFFFFFFFFFFFFFFFFFFFFFFFFFFFFFFFFFFF AND SWAP1 POP DUP1 PUSH20 0xFFFFFFFFFFFFFFFFFFFFFFFFFFFFFFFFFFFFFFFF AND PUSH2 0x8FC DUP5 PUSH0 ADD SLOAD SWAP1 DUP2 ISZERO MUL SWAP1 PUSH1 0x40 MLOAD PUSH0 PUSH1 0x40 MLOAD DUP1 DUP4 SUB DUP2 DUP6 DUP9 DUP9 CALL SWAP4 POP POP POP POP ISZERO DUP1 ISZERO PUSH2 0x66B JUMPI RETURNDATASIZE PUSH0 DUP1 RETURNDATACOPY RETURNDATASIZE PUSH0 REVERT JUMPDEST POP PUSH32 0x35CB3811461CB824B245820EEE97AB50EE1CC609F2BDD3BB10F5F0010184A7D3 DUP5 DUP3 DUP6 PUSH1 0x4 ADD SLOAD PUSH1 0x40 MLOAD PUSH2 0x6A3 SWAP4 SWAP3 SWAP2 SWAP1 PUSH2 0xD8F JUMP JUMPDEST PUSH1 0x40 MLOAD DUP1 SWAP2 SUB SWAP1 LOG1 DUP3 PUSH1 0x4 ADD PUSH0 DUP2 SLOAD DUP1 SWAP3 SWAP2 SWAP1 PUSH2 0x6BF SWAP1 PUSH2 0xB43 JUMP JUMPDEST SWAP2 SWAP1 POP SSTORE POP POP POP POP POP JUMP JUMPDEST DUP3 DUP1 SLOAD DUP3 DUP3 SSTORE SWAP1 PUSH0 MSTORE PUSH1 0x20 PUSH0 KECCAK256 SWAP1 DUP2 ADD SWAP3 DUP3 ISZERO PUSH2 0x740 JUMPI SWAP2 PUSH1 0x20 MUL DUP3 ADD JUMPDEST DUP3 DUP2 GT ISZERO PUSH2 0x73F JUMPI DUP3 MLOAD DUP3 PUSH0 PUSH2 0x100 EXP DUP2 SLOAD DUP2 PUSH20 0xFFFFFFFFFFFFFFFFFFFFFFFFFFFFFFFFFFFFFFFF MUL NOT AND SWAP1 DUP4 PUSH20 0xFFFFFFFFFFFFFFFFFFFFFFFFFFFFFFFFFFFFFFFF AND MUL OR SWAP1 SSTORE POP SWAP2 PUSH1 0x20 ADD SWAP2 SWAP1 PUSH1 0x1 ADD SWAP1 PUSH2 0x6E8 JUMP JUMPDEST JUMPDEST POP SWAP1 POP PUSH2 0x74D SWAP2 SWAP1 PUSH2 0x751 JUMP JUMPDEST POP SWAP1 JUMP JUMPDEST JUMPDEST DUP1 DUP3 GT ISZERO PUSH2 0x768 JUMPI PUSH0 DUP2 PUSH0 SWAP1 SSTORE POP PUSH1 0x1 ADD PUSH2 0x752 JUMP JUMPDEST POP SWAP1 JUMP JUMPDEST PUSH0 PUSH20 0xFFFFFFFFFFFFFFFFFFFFFFFFFFFFFFFFFFFFFFFF DUP3 AND SWAP1 POP SWAP2 SWAP1 POP JUMP JUMPDEST PUSH0 DUP2 SWAP1 POP SWAP2 SWAP1 POP JUMP JUMPDEST PUSH0 PUSH2 0x7AE PUSH2 0x7A9 PUSH2 0x7A4 DUP5 PUSH2 0x76C JUMP JUMPDEST PUSH2 0x78B JUMP JUMPDEST PUSH2 0x76C JUMP JUMPDEST SWAP1 POP SWAP2 SWAP1 POP JUMP JUMPDEST PUSH0 PUSH2 0x7BF DUP3 PUSH2 0x794 JUMP JUMPDEST SWAP1 POP SWAP2 SWAP1 POP JUMP JUMPDEST PUSH0 PUSH2 0x7D0 DUP3 PUSH2 0x7B5 JUMP JUMPDEST SWAP1 POP SWAP2 SWAP1 POP JUMP JUMPDEST PUSH2 0x7E0 DUP2 PUSH2 0x7C6 JUMP JUMPDEST DUP3 MSTORE POP POP JUMP JUMPDEST PUSH0 PUSH1 0x20 DUP3 ADD SWAP1 POP PUSH2 0x7F9 PUSH0 DUP4 ADD DUP5 PUSH2 0x7D7 JUMP JUMPDEST SWAP3 SWAP2 POP POP JUMP JUMPDEST PUSH0 DUP1 REVERT JUMPDEST PUSH0 DUP2 SWAP1 POP SWAP2 SWAP1 POP JUMP JUMPDEST PUSH2 0x815 DUP2 PUSH2 0x803 JUMP JUMPDEST DUP2 EQ PUSH2 0x81F JUMPI PUSH0 DUP1 REVERT JUMPDEST POP JUMP JUMPDEST PUSH0 DUP2 CALLDATALOAD SWAP1 POP PUSH2 0x830 DUP2 PUSH2 0x80C JUMP JUMPDEST SWAP3 SWAP2 POP POP JUMP JUMPDEST PUSH0 PUSH1 0x20 DUP3 DUP5 SUB SLT ISZERO PUSH2 0x84B JUMPI PUSH2 0x84A PUSH2 0x7FF JUMP JUMPDEST JUMPDEST PUSH0 PUSH2 0x858 DUP5 DUP3 DUP6 ADD PUSH2 0x822 JUMP JUMPDEST SWAP2 POP POP SWAP3 SWAP2 POP POP JUMP JUMPDEST PUSH2 0x86A DUP2 PUSH2 0x803 JUMP JUMPDEST DUP3 MSTORE POP POP JUMP JUMPDEST PUSH0 PUSH2 0x87A DUP3 PUSH2 0x76C JUMP JUMPDEST SWAP1 POP SWAP2 SWAP1 POP JUMP JUMPDEST PUSH2 0x88A DUP2 PUSH2 0x870 JUMP JUMPDEST DUP3 MSTORE POP POP JUMP JUMPDEST PUSH0 PUSH1 0xC0 DUP3 ADD SWAP1 POP PUSH2 0x8A3 PUSH0 DUP4 ADD DUP10 PUSH2 0x861 JUMP JUMPDEST PUSH2 0x8B0 PUSH1 0x20 DUP4 ADD DUP9 PUSH2 0x861 JUMP JUMPDEST PUSH2 0x8BD PUSH1 0x40 DUP4 ADD DUP8 PUSH2 0x861 JUMP JUMPDEST PUSH2 0x8CA PUSH1 0x60 DUP4 ADD DUP7 PUSH2 0x861 JUMP JUMPDEST PUSH2 0x8D7 PUSH1 0x80 DUP4 ADD DUP6 PUSH2 0x861 JUMP JUMPDEST PUSH2 0x8E4 PUSH1 0xA0 DUP4 ADD DUP5 PUSH2 0x881 JUMP JUMPDEST SWAP8 SWAP7 POP POP POP POP POP POP POP JUMP JUMPDEST PUSH0 DUP1 PUSH0 PUSH1 0x60 DUP5 DUP7 SUB SLT ISZERO PUSH2 0x906 JUMPI PUSH2 0x905 PUSH2 0x7FF JUMP JUMPDEST JUMPDEST PUSH0 PUSH2 0x913 DUP7 DUP3 DUP8 ADD PUSH2 0x822 JUMP JUMPDEST SWAP4 POP POP PUSH1 0x20 PUSH2 0x924 DUP7 DUP3 DUP8 ADD PUSH2 0x822 JUMP JUMPDEST SWAP3 POP POP PUSH1 0x40 PUSH2 0x935 DUP7 DUP3 DUP8 ADD PUSH2 0x822 JUMP JUMPDEST SWAP2 POP POP SWAP3 POP SWAP3 POP SWAP3 JUMP JUMPDEST PUSH0 DUP3 DUP3 MSTORE PUSH1 0x20 DUP3 ADD SWAP1 POP SWAP3 SWAP2 POP POP JUMP JUMPDEST PUSH32 0x506F742069732066756C6C000000000000000000000000000000000000000000 PUSH0 DUP3 ADD MSTORE POP JUMP JUMPDEST PUSH0 PUSH2 0x983 PUSH1 0xB DUP4 PUSH2 0x93F JUMP JUMPDEST SWAP2 POP PUSH2 0x98E DUP3 PUSH2 0x94F JUMP JUMPDEST PUSH1 0x20 DUP3 ADD SWAP1 POP SWAP2 SWAP1 POP JUMP JUMPDEST PUSH0 PUSH1 0x20 DUP3 ADD SWAP1 POP DUP2 DUP2 SUB PUSH0 DUP4 ADD MSTORE PUSH2 0x9B0 DUP2 PUSH2 0x977 JUMP JUMPDEST SWAP1 POP SWAP2 SWAP1 POP JUMP JUMPDEST PUSH32 0x526F746174696E6720706F74732063616E6E6F74206265206A6F696E65640000 PUSH0 DUP3 ADD MSTORE POP JUMP JUMPDEST PUSH0 PUSH2 0x9EB PUSH1 0x1E DUP4 PUSH2 0x93F JUMP JUMPDEST SWAP2 POP PUSH2 0x9F6 DUP3 PUSH2 0x9B7 JUMP JUMPDEST PUSH1 0x20 DUP3 ADD SWAP1 POP SWAP2 SWAP1 POP JUMP JUMPDEST PUSH0 PUSH1 0x20 DUP3 ADD SWAP1 POP DUP2 DUP2 SUB PUSH0 DUP4 ADD MSTORE PUSH2 0xA18 DUP2 PUSH2 0x9DF JUMP JUMPDEST SWAP1 POP SWAP2 SWAP1 POP JUMP JUMPDEST PUSH32 0x416C7265616479206A6F696E6564000000000000000000000000000000000000 PUSH0 DUP3 ADD MSTORE POP JUMP JUMPDEST PUSH0 PUSH2 0xA53 PUSH1 0xE DUP4 PUSH2 0x93F JUMP JUMPDEST SWAP2 POP PUSH2 0xA5E DUP3 PUSH2 0xA1F JUMP JUMPDEST PUSH1 0x20 DUP3 ADD SWAP1 POP SWAP2 SWAP1 POP JUMP JUMPDEST PUSH0 PUSH1 0x20 DUP3 ADD SWAP1 POP DUP2 DUP2 SUB PUSH0 DUP4 ADD MSTORE PUSH2 0xA80 DUP2 PUSH2 0xA47 JUMP JUMPDEST SWAP1 POP SWAP2 SWAP1 POP JUMP JUMPDEST PUSH32 0x4D7573742073656E642045746865722077697468206A6F696E506F7400000000 PUSH0 DUP3 ADD MSTORE POP JUMP JUMPDEST PUSH0 PUSH2 0xABB PUSH1 0x1C DUP4 PUSH2 0x93F JUMP JUMPDEST SWAP2 POP PUSH2 0xAC6 DUP3 PUSH2 0xA87 JUMP JUMPDEST PUSH1 0x20 DUP3 ADD SWAP1 POP SWAP2 SWAP1 POP JUMP JUMPDEST PUSH0 PUSH1 0x20 DUP3 ADD SWAP1 POP DUP2 DUP2 SUB PUSH0 DUP4 ADD MSTORE PUSH2 0xAE8 DUP2 PUSH2 0xAAF JUMP JUMPDEST SWAP1 POP SWAP2 SWAP1 POP JUMP JUMPDEST PUSH0 PUSH1 0x40 DUP3 ADD SWAP1 POP PUSH2 0xB02 PUSH0 DUP4 ADD DUP6 PUSH2 0x861 JUMP JUMPDEST PUSH2 0xB0F PUSH1 0x20 DUP4 ADD DUP5 PUSH2 0x881 JUMP JUMPDEST SWAP4 SWAP3 POP POP POP JUMP JUMPDEST PUSH32 0x4E487B7100000000000000000000000000000000000000000000000000000000 PUSH0 MSTORE PUSH1 0x11 PUSH1 0x4 MSTORE PUSH1 0x24 PUSH0 REVERT JUMPDEST PUSH0 PUSH2 0xB4D DUP3 PUSH2 0x803 JUMP JUMPDEST SWAP2 POP PUSH32 0xFFFFFFFFFFFFFFFFFFFFFFFFFFFFFFFFFFFFFFFFFFFFFFFFFFFFFFFFFFFFFFFF DUP3 SUB PUSH2 0xB7F JUMPI PUSH2 0xB7E PUSH2 0xB16 JUMP JUMPDEST JUMPDEST PUSH1 0x1 DUP3 ADD SWAP1 POP SWAP2 SWAP1 POP JUMP JUMPDEST PUSH32 0x43726561746F722073686F756C64206465706F7369742074686520696E697469 PUSH0 DUP3 ADD MSTORE PUSH32 0x616C20616D6F756E740000000000000000000000000000000000000000000000 PUSH1 0x20 DUP3 ADD MSTORE POP JUMP JUMPDEST PUSH0 PUSH2 0xBE4 PUSH1 0x29 DUP4 PUSH2 0x93F JUMP JUMPDEST SWAP2 POP PUSH2 0xBEF DUP3 PUSH2 0xB8A JUMP JUMPDEST PUSH1 0x40 DUP3 ADD SWAP1 POP SWAP2 SWAP1 POP JUMP JUMPDEST PUSH0 PUSH1 0x20 DUP3 ADD SWAP1 POP DUP2 DUP2 SUB PUSH0 DUP4 ADD MSTORE PUSH2 0xC11 DUP2 PUSH2 0xBD8 JUMP JUMPDEST SWAP1 POP SWAP2 SWAP1 POP JUMP JUMPDEST PUSH0 PUSH1 0xC0 DUP3 ADD SWAP1 POP PUSH2 0xC2B PUSH0 DUP4 ADD DUP10 PUSH2 0x861 JUMP JUMPDEST PUSH2 0xC38 PUSH1 0x20 DUP4 ADD DUP9 PUSH2 0x881 JUMP JUMPDEST PUSH2 0xC45 PUSH1 0x40 DUP4 ADD DUP8 PUSH2 0x861 JUMP JUMPDEST PUSH2 0xC52 PUSH1 0x60 DUP4 ADD DUP7 PUSH2 0x861 JUMP JUMPDEST PUSH2 0xC5F PUSH1 0x80 DUP4 ADD DUP6 PUSH2 0x861 JUMP JUMPDEST PUSH2 0xC6C PUSH1 0xA0 DUP4 ADD DUP5 PUSH2 0x861 JUMP JUMPDEST SWAP8 SWAP7 POP POP POP POP POP POP POP JUMP JUMPDEST PUSH32 0x4F6E6C792074686520706F742063726561746F722063616E2072657665616C20 PUSH0 DUP3 ADD MSTORE PUSH32 0x7468652077696E6E657200000000000000000000000000000000000000000000 PUSH1 0x20 DUP3 ADD MSTORE POP JUMP JUMPDEST PUSH0 PUSH2 0xCD1 PUSH1 0x2A DUP4 PUSH2 0x93F JUMP JUMPDEST SWAP2 POP PUSH2 0xCDC DUP3 PUSH2 0xC77 JUMP JUMPDEST PUSH1 0x40 DUP3 ADD SWAP1 POP SWAP2 SWAP1 POP JUMP JUMPDEST PUSH0 PUSH1 0x20 DUP3 ADD SWAP1 POP DUP2 DUP2 SUB PUSH0 DUP4 ADD MSTORE PUSH2 0xCFE DUP2 PUSH2 0xCC5 JUMP JUMPDEST SWAP1 POP SWAP2 SWAP1 POP JUMP JUMPDEST PUSH32 0x4E487B7100000000000000000000000000000000000000000000000000000000 PUSH0 MSTORE PUSH1 0x12 PUSH1 0x4 MSTORE PUSH1 0x24 PUSH0 REVERT JUMPDEST PUSH0 PUSH2 0xD3C DUP3 PUSH2 0x803 JUMP JUMPDEST SWAP2 POP PUSH2 0xD47 DUP4 PUSH2 0x803 JUMP JUMPDEST SWAP3 POP DUP3 PUSH2 0xD57 JUMPI PUSH2 0xD56 PUSH2 0xD05 JUMP JUMPDEST JUMPDEST DUP3 DUP3 MOD SWAP1 POP SWAP3 SWAP2 POP POP JUMP JUMPDEST PUSH32 0x4E487B7100000000000000000000000000000000000000000000000000000000 PUSH0 MSTORE PUSH1 0x32 PUSH1 0x4 MSTORE PUSH1 0x24 PUSH0 REVERT JUMPDEST PUSH0 PUSH1 0x60 DUP3 ADD SWAP1 POP PUSH2 0xDA2 PUSH0 DUP4 ADD DUP7 PUSH2 0x861 JUMP JUMPDEST PUSH2 0xDAF PUSH1 0x20 DUP4 ADD DUP6 PUSH2 0x881 JUMP JUMPDEST PUSH2 0xDBC PUSH1 0x40 DUP4 ADD DUP5 PUSH2 0x861 JUMP JUMPDEST SWAP5 SWAP4 POP POP POP POP JUMP INVALID LOG2 PUSH5 0x6970667358 0x22 SLT KECCAK256 0x26 0xA6 CODECOPY 0x1E SWAP4 0xA5 0xD5 RETURN 0x2E PUSH29 0x4B6127588CDF23A6ADCB7B2F2A19195D2404CB4AFA5464736F6C634300 ADDMOD XOR STOP CALLER "
				},
				"gasEstimates": {
					"creation": {
						"codeDepositCost": "715600",
						"executionCost": "infinite",
						"totalCost": "infinite"
					},
					"external": {
						"USDB()": "infinite",
						"createPot(uint256,uint256,uint256)": "infinite",
						"joinPot(uint256)": "infinite",
						"pots(uint256)": "infinite",
						"rotateLiquidity(uint256)": "infinite"
					},
					"internal": {
						"updateUserYield(address,uint256)": "infinite"
					}
				},
				"methodIdentifiers": {
					"USDB()": "31a0edec",
					"createPot(uint256,uint256,uint256)": "ee8ab0c7",
					"joinPot(uint256)": "831d49ef",
					"pots(uint256)": "c3c3df4f",
					"rotateLiquidity(uint256)": "ef922b87"
				}
			},
			"storageLayout": {
				"storage": [
					{
						"astId": 84,
						"contract": "contracts/HelloWorld.sol:QuailFinance",
						"label": "nextPotId",
						"offset": 0,
						"slot": "0",
						"type": "t_uint256"
					},
					{
						"astId": 89,
						"contract": "contracts/HelloWorld.sol:QuailFinance",
						"label": "pots",
						"offset": 0,
						"slot": "1",
						"type": "t_mapping(t_uint256,t_struct(Pot)113_storage)"
					},
					{
						"astId": 93,
						"contract": "contracts/HelloWorld.sol:QuailFinance",
						"label": "userYield",
						"offset": 0,
						"slot": "2",
						"type": "t_mapping(t_address,t_uint256)"
					}
				],
				"types": {
					"t_address": {
						"encoding": "inplace",
						"label": "address",
						"numberOfBytes": "20"
					},
					"t_array(t_address)dyn_storage": {
						"base": "t_address",
						"encoding": "dynamic_array",
						"label": "address[]",
						"numberOfBytes": "32"
					},
					"t_mapping(t_address,t_uint256)": {
						"encoding": "mapping",
						"key": "t_address",
						"label": "mapping(address => uint256)",
						"numberOfBytes": "32",
						"value": "t_uint256"
					},
					"t_mapping(t_uint256,t_struct(Pot)113_storage)": {
						"encoding": "mapping",
						"key": "t_uint256",
						"label": "mapping(uint256 => struct QuailFinance.Pot)",
						"numberOfBytes": "32",
						"value": "t_struct(Pot)113_storage"
					},
					"t_struct(Pot)113_storage": {
						"encoding": "inplace",
						"label": "struct QuailFinance.Pot",
						"members": [
							{
								"astId": 95,
								"contract": "contracts/HelloWorld.sol:QuailFinance",
								"label": "amount",
								"offset": 0,
								"slot": "0",
								"type": "t_uint256"
							},
							{
								"astId": 97,
								"contract": "contracts/HelloWorld.sol:QuailFinance",
								"label": "rotationCycle",
								"offset": 0,
								"slot": "1",
								"type": "t_uint256"
							},
							{
								"astId": 99,
								"contract": "contracts/HelloWorld.sol:QuailFinance",
								"label": "interest",
								"offset": 0,
								"slot": "2",
								"type": "t_uint256"
							},
							{
								"astId": 101,
								"contract": "contracts/HelloWorld.sol:QuailFinance",
								"label": "numParticipants",
								"offset": 0,
								"slot": "3",
								"type": "t_uint256"
							},
							{
								"astId": 103,
								"contract": "contracts/HelloWorld.sol:QuailFinance",
								"label": "currentRound",
								"offset": 0,
								"slot": "4",
								"type": "t_uint256"
							},
							{
								"astId": 105,
								"contract": "contracts/HelloWorld.sol:QuailFinance",
								"label": "potCreator",
								"offset": 0,
								"slot": "5",
								"type": "t_address"
							},
							{
								"astId": 108,
								"contract": "contracts/HelloWorld.sol:QuailFinance",
								"label": "participants",
								"offset": 0,
								"slot": "6",
								"type": "t_array(t_address)dyn_storage"
							},
							{
								"astId": 112,
								"contract": "contracts/HelloWorld.sol:QuailFinance",
								"label": "contributions",
								"offset": 0,
								"slot": "7",
								"type": "t_mapping(t_address,t_uint256)"
							}
						],
						"numberOfBytes": "256"
					},
					"t_uint256": {
						"encoding": "inplace",
						"label": "uint256",
						"numberOfBytes": "32"
					}
				}
			},
			"userdoc": {
				"kind": "user",
				"methods": {},
				"version": 1
			}
		}
	}
}