{
	"contracts/QuailFinance.sol": {
		"QuailFinance": {
			"abi": [
				{
					"inputs": [
						{
							"internalType": "address",
							"name": "_entropy",
							"type": "address"
						},
						{
							"internalType": "address",
							"name": "_entropyProvider",
							"type": "address"
						}
					],
					"stateMutability": "nonpayable",
					"type": "constructor"
				},
				{
					"inputs": [],
					"name": "InvalidInitialization",
					"type": "error"
				},
				{
					"inputs": [],
					"name": "NotInitializing",
					"type": "error"
				},
				{
					"inputs": [
						{
							"internalType": "address",
							"name": "owner",
							"type": "address"
						}
					],
					"name": "OwnableInvalidOwner",
					"type": "error"
				},
				{
					"inputs": [
						{
							"internalType": "address",
							"name": "account",
							"type": "address"
						}
					],
					"name": "OwnableUnauthorizedAccount",
					"type": "error"
				},
				{
					"anonymous": false,
					"inputs": [
						{
							"indexed": false,
							"internalType": "uint64",
							"name": "version",
							"type": "uint64"
						}
					],
					"name": "Initialized",
					"type": "event"
				},
				{
					"anonymous": false,
					"inputs": [
						{
							"indexed": true,
							"internalType": "address",
							"name": "previousOwner",
							"type": "address"
						},
						{
							"indexed": true,
							"internalType": "address",
							"name": "newOwner",
							"type": "address"
						}
					],
					"name": "OwnershipTransferred",
					"type": "event"
				},
				{
					"anonymous": false,
					"inputs": [
						{
							"indexed": false,
							"internalType": "uint256",
							"name": "potId",
							"type": "uint256"
						},
						{
							"indexed": false,
							"internalType": "string",
							"name": "name",
							"type": "string"
						},
						{
							"indexed": false,
							"internalType": "address",
							"name": "participant",
							"type": "address"
						},
						{
							"indexed": false,
							"internalType": "uint256",
							"name": "amount",
							"type": "uint256"
						},
						{
							"indexed": false,
							"internalType": "uint256",
							"name": "rotationCycleInSeconds",
							"type": "uint256"
						},
						{
							"indexed": false,
							"internalType": "uint256",
							"name": "_interestDenominator",
							"type": "uint256"
						},
						{
							"indexed": false,
							"internalType": "uint256",
							"name": "_interestNumerator",
							"type": "uint256"
						},
						{
							"indexed": false,
							"internalType": "uint256",
							"name": "_numParticipants",
							"type": "uint256"
						}
					],
					"name": "ParticipantJoined",
					"type": "event"
				},
				{
					"anonymous": false,
					"inputs": [
						{
							"indexed": false,
							"internalType": "uint256",
							"name": "potId",
							"type": "uint256"
						},
						{
							"indexed": false,
							"internalType": "string",
							"name": "name",
							"type": "string"
						},
						{
							"indexed": false,
							"internalType": "address",
							"name": "creator",
							"type": "address"
						},
						{
							"indexed": false,
							"internalType": "uint256",
							"name": "amount",
							"type": "uint256"
						},
						{
							"indexed": false,
							"internalType": "uint256",
							"name": "rotationCycleInSeconds",
							"type": "uint256"
						},
						{
							"indexed": false,
							"internalType": "uint256",
							"name": "_interestDenominator",
							"type": "uint256"
						},
						{
							"indexed": false,
							"internalType": "uint256",
							"name": "_interestNumerator",
							"type": "uint256"
						},
						{
							"indexed": false,
							"internalType": "uint256",
							"name": "_numParticipants",
							"type": "uint256"
						},
						{
							"indexed": false,
							"internalType": "uint64",
							"name": "sequenceNumber",
							"type": "uint64"
						}
					],
					"name": "PotCreated",
					"type": "event"
				},
				{
					"anonymous": false,
					"inputs": [
						{
							"indexed": false,
							"internalType": "uint256",
							"name": "potId",
							"type": "uint256"
						},
						{
							"indexed": false,
							"internalType": "address",
							"name": "winner",
							"type": "address"
						},
						{
							"indexed": false,
							"internalType": "uint256",
							"name": "round",
							"type": "uint256"
						}
					],
					"name": "RotationCompleted",
					"type": "event"
				},
				{
					"inputs": [],
					"name": "BLAST",
					"outputs": [
						{
							"internalType": "contract IBlast",
							"name": "",
							"type": "address"
						}
					],
					"stateMutability": "view",
					"type": "function"
				},
				{
					"inputs": [],
					"name": "USDB",
					"outputs": [
						{
							"internalType": "contract IERC20Rebasing",
							"name": "",
							"type": "address"
						}
					],
					"stateMutability": "view",
					"type": "function"
				},
				{
					"inputs": [
						{
							"internalType": "uint256",
							"name": "_potId",
							"type": "uint256"
						},
						{
							"internalType": "uint256",
							"name": "_amount",
							"type": "uint256"
						}
					],
					"name": "calculateRiskPoolBalance",
					"outputs": [
						{
							"internalType": "uint256",
							"name": "",
							"type": "uint256"
						}
					],
					"stateMutability": "view",
					"type": "function"
				},
				{
					"inputs": [],
					"name": "claimAllYield",
					"outputs": [],
					"stateMutability": "nonpayable",
					"type": "function"
				},
				{
					"inputs": [
						{
							"internalType": "uint256",
							"name": "claimAmount",
							"type": "uint256"
						},
						{
							"internalType": "bytes32[]",
							"name": "merkleProof",
							"type": "bytes32[]"
						}
					],
					"name": "claimFunds",
					"outputs": [],
					"stateMutability": "nonpayable",
					"type": "function"
				},
				{
					"inputs": [],
					"name": "claimMyContractsGas",
					"outputs": [],
					"stateMutability": "nonpayable",
					"type": "function"
				},
				{
					"inputs": [
						{
							"internalType": "uint256",
							"name": "_potId",
							"type": "uint256"
						}
					],
					"name": "claimReward",
					"outputs": [],
					"stateMutability": "nonpayable",
					"type": "function"
				},
				{
					"inputs": [
						{
							"internalType": "string",
							"name": "_name",
							"type": "string"
						},
						{
							"internalType": "bytes32",
							"name": "userCommitment",
							"type": "bytes32"
						},
						{
							"internalType": "uint256",
							"name": "_rotationCycleInSeconds",
							"type": "uint256"
						},
						{
							"internalType": "uint256",
							"name": "_interestDenominator",
							"type": "uint256"
						},
						{
							"internalType": "uint256",
							"name": "_interestNumerator",
							"type": "uint256"
						},
						{
							"internalType": "uint256",
							"name": "_numParticipants",
							"type": "uint256"
						},
						{
							"internalType": "uint256",
							"name": "_amount",
							"type": "uint256"
						}
					],
					"name": "createPot",
					"outputs": [],
					"stateMutability": "payable",
					"type": "function"
				},
				{
					"inputs": [
						{
							"internalType": "address",
							"name": "",
							"type": "address"
						}
					],
					"name": "hasClaimed",
					"outputs": [
						{
							"internalType": "uint256",
							"name": "",
							"type": "uint256"
						}
					],
					"stateMutability": "view",
					"type": "function"
				},
				{
					"inputs": [],
					"name": "initialize",
					"outputs": [],
					"stateMutability": "nonpayable",
					"type": "function"
				},
				{
					"inputs": [
						{
							"internalType": "uint256",
							"name": "_potId",
							"type": "uint256"
						}
					],
					"name": "joinPot",
					"outputs": [],
					"stateMutability": "payable",
					"type": "function"
				},
				{
					"inputs": [],
					"name": "merkleRoot",
					"outputs": [
						{
							"internalType": "bytes32",
							"name": "",
							"type": "bytes32"
						}
					],
					"stateMutability": "view",
					"type": "function"
				},
				{
					"inputs": [],
					"name": "owner",
					"outputs": [
						{
							"internalType": "address",
							"name": "",
							"type": "address"
						}
					],
					"stateMutability": "view",
					"type": "function"
				},
				{
					"inputs": [
						{
							"internalType": "uint256",
							"name": "",
							"type": "uint256"
						}
					],
					"name": "pots",
					"outputs": [
						{
							"internalType": "string",
							"name": "name",
							"type": "string"
						},
						{
							"internalType": "uint256",
							"name": "amount",
							"type": "uint256"
						},
						{
							"internalType": "uint256",
							"name": "riskPoolBalance",
							"type": "uint256"
						},
						{
							"internalType": "uint256",
							"name": "rotationCycleInSeconds",
							"type": "uint256"
						},
						{
							"internalType": "uint256",
							"name": "lastRotationTime",
							"type": "uint256"
						},
						{
							"internalType": "uint256",
							"name": "interestNumerator",
							"type": "uint256"
						},
						{
							"internalType": "uint256",
							"name": "interestDenominator",
							"type": "uint256"
						},
						{
							"internalType": "uint256",
							"name": "numParticipants",
							"type": "uint256"
						},
						{
							"internalType": "uint256",
							"name": "currentRound",
							"type": "uint256"
						},
						{
							"internalType": "uint64",
							"name": "sequenceNumber",
							"type": "uint64"
						},
						{
							"internalType": "address",
							"name": "potCreator",
							"type": "address"
						}
					],
					"stateMutability": "view",
					"type": "function"
				},
				{
					"inputs": [],
					"name": "renounceOwnership",
					"outputs": [],
					"stateMutability": "nonpayable",
					"type": "function"
				},
				{
					"inputs": [
						{
							"internalType": "uint256",
							"name": "_potId",
							"type": "uint256"
						},
						{
							"internalType": "bytes32",
							"name": "userRandom",
							"type": "bytes32"
						},
						{
							"internalType": "bytes32",
							"name": "providerRandom",
							"type": "bytes32"
						}
					],
					"name": "rotateLiquidity",
					"outputs": [],
					"stateMutability": "nonpayable",
					"type": "function"
				},
				{
					"inputs": [
						{
							"internalType": "bytes32",
							"name": "_merkleRoot",
							"type": "bytes32"
						}
					],
					"name": "setMerkleRoot",
					"outputs": [],
					"stateMutability": "nonpayable",
					"type": "function"
				},
				{
					"inputs": [],
					"name": "totalRevenue",
					"outputs": [
						{
							"internalType": "uint256",
							"name": "",
							"type": "uint256"
						}
					],
					"stateMutability": "view",
					"type": "function"
				},
				{
					"inputs": [
						{
							"internalType": "address",
							"name": "newOwner",
							"type": "address"
						}
					],
					"name": "transferOwnership",
					"outputs": [],
					"stateMutability": "nonpayable",
					"type": "function"
				},
				{
					"inputs": [],
					"name": "usdbToken",
					"outputs": [
						{
							"internalType": "contract IERC20",
							"name": "",
							"type": "address"
						}
					],
					"stateMutability": "view",
					"type": "function"
				},
				{
					"inputs": [],
					"name": "withdrawRevenue",
					"outputs": [],
					"stateMutability": "nonpayable",
					"type": "function"
				}
			],
			"devdoc": {
				"errors": {
					"InvalidInitialization()": [
						{
							"details": "The contract is already initialized."
						}
					],
					"NotInitializing()": [
						{
							"details": "The contract is not initializing."
						}
					],
					"OwnableInvalidOwner(address)": [
						{
							"details": "The owner is not a valid owner account. (eg. `address(0)`)"
						}
					],
					"OwnableUnauthorizedAccount(address)": [
						{
							"details": "The caller account is not authorized to perform an operation."
						}
					]
				},
				"events": {
					"Initialized(uint64)": {
						"details": "Triggered when the contract has been initialized or reinitialized."
					}
				},
				"kind": "dev",
				"methods": {
					"owner()": {
						"details": "Returns the address of the current owner."
					},
					"renounceOwnership()": {
						"details": "Leaves the contract without owner. It will not be possible to call `onlyOwner` functions. Can only be called by the current owner. NOTE: Renouncing ownership will leave the contract without an owner, thereby disabling any functionality that is only available to the owner."
					},
					"transferOwnership(address)": {
						"details": "Transfers ownership of the contract to a new account (`newOwner`). Can only be called by the current owner."
					}
				},
				"version": 1
			},
			"evm": {
				"assembly": "    /* \"contracts/QuailFinance.sol\":476:12422  contract QuailFinance is Initializable, OwnableUpgradeable {... */\n  mstore(0x40, 0x80)\n    /* \"contracts/QuailFinance.sol\":716:717  1 */\n  0x01\n    /* \"contracts/QuailFinance.sol\":688:717  uint256 private nextPotId = 1 */\n  0x03\n  sstore\n    /* \"contracts/QuailFinance.sol\":4424:4957  constructor(address _entropy, address _entropyProvider) {... */\n  callvalue\n  dup1\n  iszero\n  tag_1\n  jumpi\n  0x00\n  dup1\n  revert\ntag_1:\n  pop\n  mload(0x40)\n  sub(codesize, bytecodeSize)\n  dup1\n  bytecodeSize\n  dup4\n  codecopy\n  dup2\n  dup2\n  add\n  0x40\n  mstore\n  dup2\n  add\n  swap1\n  tag_2\n  swap2\n  swap1\n  tag_3\n  jump\t// in\ntag_2:\n    /* \"contracts/QuailFinance.sol\":4210:4252  0x4200000000000000000000000000000000000022 */\n  0x4200000000000000000000000000000000000022\n    /* \"contracts/QuailFinance.sol\":4490:4504  USDB.configure */\n  0xffffffffffffffffffffffffffffffffffffffff\n  and\n  0x1a33757d\n    /* \"contracts/QuailFinance.sol\":4505:4524  YieldMode.CLAIMABLE */\n  0x02\n    /* \"contracts/QuailFinance.sol\":4490:4525  USDB.configure(YieldMode.CLAIMABLE) */\n  mload(0x40)\n  dup3\n  0xffffffff\n  and\n  0xe0\n  shl\n  dup2\n  mstore\n  0x04\n  add\n  tag_6\n  swap2\n  swap1\n  tag_7\n  jump\t// in\ntag_6:\n  0x20\n  mload(0x40)\n  dup1\n  dup4\n  sub\n  dup2\n  0x00\n  dup8\n  gas\n  call\n  iszero\n  dup1\n  iszero\n  tag_9\n  jumpi\n  returndatasize\n  0x00\n  dup1\n  returndatacopy\n  revert(0x00, returndatasize)\ntag_9:\n  pop\n  pop\n  pop\n  pop\n  mload(0x40)\n  returndatasize\n  not(0x1f)\n  0x1f\n  dup3\n  add\n  and\n  dup3\n  add\n  dup1\n  0x40\n  mstore\n  pop\n  dup2\n  add\n  swap1\n  tag_10\n  swap2\n  swap1\n  tag_11\n  jump\t// in\ntag_10:\n  pop\n    /* \"contracts/QuailFinance.sol\":4591:4633  0x4200000000000000000000000000000000000022 */\n  0x4200000000000000000000000000000000000022\n    /* \"contracts/QuailFinance.sol\":4572:4581  usdbToken */\n  0x05\n  0x00\n    /* \"contracts/QuailFinance.sol\":4572:4634  usdbToken = IERC20(0x4200000000000000000000000000000000000022) */\n  0x0100\n  exp\n  dup2\n  sload\n  dup2\n  0xffffffffffffffffffffffffffffffffffffffff\n  mul\n  not\n  and\n  swap1\n  dup4\n  0xffffffffffffffffffffffffffffffffffffffff\n  and\n  mul\n  or\n  swap1\n  sstore\n  pop\n    /* \"contracts/QuailFinance.sol\":783:825  0x4300000000000000000000000000000000000002 */\n  0x4300000000000000000000000000000000000002\n    /* \"contracts/QuailFinance.sol\":4644:4671  BLAST.configureClaimableGas */\n  0xffffffffffffffffffffffffffffffffffffffff\n  and\n  0x4e606c47\n    /* \"contracts/QuailFinance.sol\":4644:4673  BLAST.configureClaimableGas() */\n  mload(0x40)\n  dup2\n  0xffffffff\n  and\n  0xe0\n  shl\n  dup2\n  mstore\n  0x04\n  add\n  0x00\n  mload(0x40)\n  dup1\n  dup4\n  sub\n  dup2\n  0x00\n  dup8\n  dup1\n  extcodesize\n  iszero\n  dup1\n  iszero\n  tag_12\n  jumpi\n  0x00\n  dup1\n  revert\ntag_12:\n  pop\n  gas\n  call\n  iszero\n  dup1\n  iszero\n  tag_14\n  jumpi\n  returndatasize\n  0x00\n  dup1\n  returndatacopy\n  revert(0x00, returndatasize)\ntag_14:\n  pop\n  pop\n  pop\n  pop\n    /* \"contracts/QuailFinance.sol\":4760:4802  0x2fc95838c71e76ec69ff817983BFf17c710F34E0 */\n  0x2fc95838c71e76ec69ff817983bff17c710f34e0\n    /* \"contracts/QuailFinance.sol\":4747:4827  IBlastPoints(0x2fc95838c71e76ec69ff817983BFf17c710F34E0).configurePointsOperator */\n  0xffffffffffffffffffffffffffffffffffffffff\n  and\n  0x36b91f2b\n    /* \"contracts/QuailFinance.sol\":4828:4870  0xE4860D3973802C7C42450D7b9741921C7711D039 */\n  0xe4860d3973802c7c42450d7b9741921c7711d039\n    /* \"contracts/QuailFinance.sol\":4747:4871  IBlastPoints(0x2fc95838c71e76ec69ff817983BFf17c710F34E0).configurePointsOperator(0xE4860D3973802C7C42450D7b9741921C7711D039) */\n  mload(0x40)\n  dup3\n  0xffffffff\n  and\n  0xe0\n  shl\n  dup2\n  mstore\n  0x04\n  add\n  tag_15\n  swap2\n  swap1\n  tag_16\n  jump\t// in\ntag_15:\n  0x00\n  mload(0x40)\n  dup1\n  dup4\n  sub\n  dup2\n  0x00\n  dup8\n  dup1\n  extcodesize\n  iszero\n  dup1\n  iszero\n  tag_17\n  jumpi\n  0x00\n  dup1\n  revert\ntag_17:\n  pop\n  gas\n  call\n  iszero\n  dup1\n  iszero\n  tag_19\n  jumpi\n  returndatasize\n  0x00\n  dup1\n  returndatacopy\n  revert(0x00, returndatasize)\ntag_19:\n  pop\n  pop\n  pop\n  pop\n    /* \"contracts/QuailFinance.sol\":4900:4908  _entropy */\n  dup2\n    /* \"contracts/QuailFinance.sol\":4881:4888  entropy */\n  0x00\n  dup1\n    /* \"contracts/QuailFinance.sol\":4881:4909  entropy = IEntropy(_entropy) */\n  0x0100\n  exp\n  dup2\n  sload\n  dup2\n  0xffffffffffffffffffffffffffffffffffffffff\n  mul\n  not\n  and\n  swap1\n  dup4\n  0xffffffffffffffffffffffffffffffffffffffff\n  and\n  mul\n  or\n  swap1\n  sstore\n  pop\n    /* \"contracts/QuailFinance.sol\":4937:4953  _entropyProvider */\n  dup1\n    /* \"contracts/QuailFinance.sol\":4919:4934  entropyProvider */\n  0x01\n  0x00\n    /* \"contracts/QuailFinance.sol\":4919:4953  entropyProvider = _entropyProvider */\n  0x0100\n  exp\n  dup2\n  sload\n  dup2\n  0xffffffffffffffffffffffffffffffffffffffff\n  mul\n  not\n  and\n  swap1\n  dup4\n  0xffffffffffffffffffffffffffffffffffffffff\n  and\n  mul\n  or\n  swap1\n  sstore\n  pop\n    /* \"contracts/QuailFinance.sol\":4424:4957  constructor(address _entropy, address _entropyProvider) {... */\n  pop\n  pop\n    /* \"contracts/QuailFinance.sol\":476:12422  contract QuailFinance is Initializable, OwnableUpgradeable {... */\n  jump(tag_20)\n    /* \"#utility.yul\":88:205   */\ntag_22:\n    /* \"#utility.yul\":197:198   */\n  0x00\n    /* \"#utility.yul\":194:195   */\n  dup1\n    /* \"#utility.yul\":187:199   */\n  revert\n    /* \"#utility.yul\":334:460   */\ntag_24:\n    /* \"#utility.yul\":371:378   */\n  0x00\n    /* \"#utility.yul\":411:453   */\n  0xffffffffffffffffffffffffffffffffffffffff\n    /* \"#utility.yul\":404:409   */\n  dup3\n    /* \"#utility.yul\":400:454   */\n  and\n    /* \"#utility.yul\":389:454   */\n  swap1\n  pop\n    /* \"#utility.yul\":334:460   */\n  swap2\n  swap1\n  pop\n  jump\t// out\n    /* \"#utility.yul\":466:562   */\ntag_25:\n    /* \"#utility.yul\":503:510   */\n  0x00\n    /* \"#utility.yul\":532:556   */\n  tag_43\n    /* \"#utility.yul\":550:555   */\n  dup3\n    /* \"#utility.yul\":532:556   */\n  tag_24\n  jump\t// in\ntag_43:\n    /* \"#utility.yul\":521:556   */\n  swap1\n  pop\n    /* \"#utility.yul\":466:562   */\n  swap2\n  swap1\n  pop\n  jump\t// out\n    /* \"#utility.yul\":568:690   */\ntag_26:\n    /* \"#utility.yul\":641:665   */\n  tag_45\n    /* \"#utility.yul\":659:664   */\n  dup2\n    /* \"#utility.yul\":641:665   */\n  tag_25\n  jump\t// in\ntag_45:\n    /* \"#utility.yul\":634:639   */\n  dup2\n    /* \"#utility.yul\":631:666   */\n  eq\n    /* \"#utility.yul\":621:684   */\n  tag_46\n  jumpi\n    /* \"#utility.yul\":680:681   */\n  0x00\n    /* \"#utility.yul\":677:678   */\n  dup1\n    /* \"#utility.yul\":670:682   */\n  revert\n    /* \"#utility.yul\":621:684   */\ntag_46:\n    /* \"#utility.yul\":568:690   */\n  pop\n  jump\t// out\n    /* \"#utility.yul\":696:839   */\ntag_27:\n    /* \"#utility.yul\":753:758   */\n  0x00\n    /* \"#utility.yul\":784:790   */\n  dup2\n    /* \"#utility.yul\":778:791   */\n  mload\n    /* \"#utility.yul\":769:791   */\n  swap1\n  pop\n    /* \"#utility.yul\":800:833   */\n  tag_48\n    /* \"#utility.yul\":827:832   */\n  dup2\n    /* \"#utility.yul\":800:833   */\n  tag_26\n  jump\t// in\ntag_48:\n    /* \"#utility.yul\":696:839   */\n  swap3\n  swap2\n  pop\n  pop\n  jump\t// out\n    /* \"#utility.yul\":845:1352   */\ntag_3:\n    /* \"#utility.yul\":924:930   */\n  0x00\n    /* \"#utility.yul\":932:938   */\n  dup1\n    /* \"#utility.yul\":981:983   */\n  0x40\n    /* \"#utility.yul\":969:978   */\n  dup4\n    /* \"#utility.yul\":960:967   */\n  dup6\n    /* \"#utility.yul\":956:979   */\n  sub\n    /* \"#utility.yul\":952:984   */\n  slt\n    /* \"#utility.yul\":949:1068   */\n  iszero\n  tag_50\n  jumpi\n    /* \"#utility.yul\":987:1066   */\n  tag_51\n  tag_22\n  jump\t// in\ntag_51:\n    /* \"#utility.yul\":949:1068   */\ntag_50:\n    /* \"#utility.yul\":1107:1108   */\n  0x00\n    /* \"#utility.yul\":1132:1196   */\n  tag_52\n    /* \"#utility.yul\":1188:1195   */\n  dup6\n    /* \"#utility.yul\":1179:1185   */\n  dup3\n    /* \"#utility.yul\":1168:1177   */\n  dup7\n    /* \"#utility.yul\":1164:1186   */\n  add\n    /* \"#utility.yul\":1132:1196   */\n  tag_27\n  jump\t// in\ntag_52:\n    /* \"#utility.yul\":1122:1196   */\n  swap3\n  pop\n    /* \"#utility.yul\":1078:1206   */\n  pop\n    /* \"#utility.yul\":1245:1247   */\n  0x20\n    /* \"#utility.yul\":1271:1335   */\n  tag_53\n    /* \"#utility.yul\":1327:1334   */\n  dup6\n    /* \"#utility.yul\":1318:1324   */\n  dup3\n    /* \"#utility.yul\":1307:1316   */\n  dup7\n    /* \"#utility.yul\":1303:1325   */\n  add\n    /* \"#utility.yul\":1271:1335   */\n  tag_27\n  jump\t// in\ntag_53:\n    /* \"#utility.yul\":1261:1335   */\n  swap2\n  pop\n    /* \"#utility.yul\":1216:1345   */\n  pop\n    /* \"#utility.yul\":845:1352   */\n  swap3\n  pop\n  swap3\n  swap1\n  pop\n  jump\t// out\n    /* \"#utility.yul\":1358:1538   */\ntag_28:\n    /* \"#utility.yul\":1406:1483   */\n  0x4e487b7100000000000000000000000000000000000000000000000000000000\n    /* \"#utility.yul\":1403:1404   */\n  0x00\n    /* \"#utility.yul\":1396:1484   */\n  mstore\n    /* \"#utility.yul\":1503:1507   */\n  0x21\n    /* \"#utility.yul\":1500:1501   */\n  0x04\n    /* \"#utility.yul\":1493:1508   */\n  mstore\n    /* \"#utility.yul\":1527:1531   */\n  0x24\n    /* \"#utility.yul\":1524:1525   */\n  0x00\n    /* \"#utility.yul\":1517:1532   */\n  revert\n    /* \"#utility.yul\":1544:1663   */\ntag_29:\n    /* \"#utility.yul\":1631:1632   */\n  0x03\n    /* \"#utility.yul\":1624:1629   */\n  dup2\n    /* \"#utility.yul\":1621:1633   */\n  lt\n    /* \"#utility.yul\":1611:1657   */\n  tag_56\n  jumpi\n    /* \"#utility.yul\":1637:1655   */\n  tag_57\n  tag_28\n  jump\t// in\ntag_57:\n    /* \"#utility.yul\":1611:1657   */\ntag_56:\n    /* \"#utility.yul\":1544:1663   */\n  pop\n  jump\t// out\n    /* \"#utility.yul\":1669:1808   */\ntag_30:\n    /* \"#utility.yul\":1720:1727   */\n  0x00\n    /* \"#utility.yul\":1749:1754   */\n  dup2\n    /* \"#utility.yul\":1738:1754   */\n  swap1\n  pop\n    /* \"#utility.yul\":1755:1802   */\n  tag_59\n    /* \"#utility.yul\":1796:1801   */\n  dup3\n    /* \"#utility.yul\":1755:1802   */\n  tag_29\n  jump\t// in\ntag_59:\n    /* \"#utility.yul\":1669:1808   */\n  swap2\n  swap1\n  pop\n  jump\t// out\n    /* \"#utility.yul\":1814:1953   */\ntag_31:\n    /* \"#utility.yul\":1876:1885   */\n  0x00\n    /* \"#utility.yul\":1909:1947   */\n  tag_61\n    /* \"#utility.yul\":1941:1946   */\n  dup3\n    /* \"#utility.yul\":1909:1947   */\n  tag_30\n  jump\t// in\ntag_61:\n    /* \"#utility.yul\":1896:1947   */\n  swap1\n  pop\n    /* \"#utility.yul\":1814:1953   */\n  swap2\n  swap1\n  pop\n  jump\t// out\n    /* \"#utility.yul\":1959:2114   */\ntag_32:\n    /* \"#utility.yul\":2058:2107   */\n  tag_63\n    /* \"#utility.yul\":2101:2106   */\n  dup2\n    /* \"#utility.yul\":2058:2107   */\n  tag_31\n  jump\t// in\ntag_63:\n    /* \"#utility.yul\":2053:2056   */\n  dup3\n    /* \"#utility.yul\":2046:2108   */\n  mstore\n    /* \"#utility.yul\":1959:2114   */\n  pop\n  pop\n  jump\t// out\n    /* \"#utility.yul\":2120:2366   */\ntag_7:\n    /* \"#utility.yul\":2225:2229   */\n  0x00\n    /* \"#utility.yul\":2263:2265   */\n  0x20\n    /* \"#utility.yul\":2252:2261   */\n  dup3\n    /* \"#utility.yul\":2248:2266   */\n  add\n    /* \"#utility.yul\":2240:2266   */\n  swap1\n  pop\n    /* \"#utility.yul\":2276:2359   */\n  tag_65\n    /* \"#utility.yul\":2356:2357   */\n  0x00\n    /* \"#utility.yul\":2345:2354   */\n  dup4\n    /* \"#utility.yul\":2341:2358   */\n  add\n    /* \"#utility.yul\":2332:2338   */\n  dup5\n    /* \"#utility.yul\":2276:2359   */\n  tag_32\n  jump\t// in\ntag_65:\n    /* \"#utility.yul\":2120:2366   */\n  swap3\n  swap2\n  pop\n  pop\n  jump\t// out\n    /* \"#utility.yul\":2372:2449   */\ntag_33:\n    /* \"#utility.yul\":2409:2416   */\n  0x00\n    /* \"#utility.yul\":2438:2443   */\n  dup2\n    /* \"#utility.yul\":2427:2443   */\n  swap1\n  pop\n    /* \"#utility.yul\":2372:2449   */\n  swap2\n  swap1\n  pop\n  jump\t// out\n    /* \"#utility.yul\":2455:2577   */\ntag_34:\n    /* \"#utility.yul\":2528:2552   */\n  tag_68\n    /* \"#utility.yul\":2546:2551   */\n  dup2\n    /* \"#utility.yul\":2528:2552   */\n  tag_33\n  jump\t// in\ntag_68:\n    /* \"#utility.yul\":2521:2526   */\n  dup2\n    /* \"#utility.yul\":2518:2553   */\n  eq\n    /* \"#utility.yul\":2508:2571   */\n  tag_69\n  jumpi\n    /* \"#utility.yul\":2567:2568   */\n  0x00\n    /* \"#utility.yul\":2564:2565   */\n  dup1\n    /* \"#utility.yul\":2557:2569   */\n  revert\n    /* \"#utility.yul\":2508:2571   */\ntag_69:\n    /* \"#utility.yul\":2455:2577   */\n  pop\n  jump\t// out\n    /* \"#utility.yul\":2583:2726   */\ntag_35:\n    /* \"#utility.yul\":2640:2645   */\n  0x00\n    /* \"#utility.yul\":2671:2677   */\n  dup2\n    /* \"#utility.yul\":2665:2678   */\n  mload\n    /* \"#utility.yul\":2656:2678   */\n  swap1\n  pop\n    /* \"#utility.yul\":2687:2720   */\n  tag_71\n    /* \"#utility.yul\":2714:2719   */\n  dup2\n    /* \"#utility.yul\":2687:2720   */\n  tag_34\n  jump\t// in\ntag_71:\n    /* \"#utility.yul\":2583:2726   */\n  swap3\n  swap2\n  pop\n  pop\n  jump\t// out\n    /* \"#utility.yul\":2732:3083   */\ntag_11:\n    /* \"#utility.yul\":2802:2808   */\n  0x00\n    /* \"#utility.yul\":2851:2853   */\n  0x20\n    /* \"#utility.yul\":2839:2848   */\n  dup3\n    /* \"#utility.yul\":2830:2837   */\n  dup5\n    /* \"#utility.yul\":2826:2849   */\n  sub\n    /* \"#utility.yul\":2822:2854   */\n  slt\n    /* \"#utility.yul\":2819:2938   */\n  iszero\n  tag_73\n  jumpi\n    /* \"#utility.yul\":2857:2936   */\n  tag_74\n  tag_22\n  jump\t// in\ntag_74:\n    /* \"#utility.yul\":2819:2938   */\ntag_73:\n    /* \"#utility.yul\":2977:2978   */\n  0x00\n    /* \"#utility.yul\":3002:3066   */\n  tag_75\n    /* \"#utility.yul\":3058:3065   */\n  dup5\n    /* \"#utility.yul\":3049:3055   */\n  dup3\n    /* \"#utility.yul\":3038:3047   */\n  dup6\n    /* \"#utility.yul\":3034:3056   */\n  add\n    /* \"#utility.yul\":3002:3066   */\n  tag_35\n  jump\t// in\ntag_75:\n    /* \"#utility.yul\":2992:3066   */\n  swap2\n  pop\n    /* \"#utility.yul\":2948:3076   */\n  pop\n    /* \"#utility.yul\":2732:3083   */\n  swap3\n  swap2\n  pop\n  pop\n  jump\t// out\n    /* \"#utility.yul\":3089:3207   */\ntag_36:\n    /* \"#utility.yul\":3176:3200   */\n  tag_77\n    /* \"#utility.yul\":3194:3199   */\n  dup2\n    /* \"#utility.yul\":3176:3200   */\n  tag_25\n  jump\t// in\ntag_77:\n    /* \"#utility.yul\":3171:3174   */\n  dup3\n    /* \"#utility.yul\":3164:3201   */\n  mstore\n    /* \"#utility.yul\":3089:3207   */\n  pop\n  pop\n  jump\t// out\n    /* \"#utility.yul\":3213:3435   */\ntag_16:\n    /* \"#utility.yul\":3306:3310   */\n  0x00\n    /* \"#utility.yul\":3344:3346   */\n  0x20\n    /* \"#utility.yul\":3333:3342   */\n  dup3\n    /* \"#utility.yul\":3329:3347   */\n  add\n    /* \"#utility.yul\":3321:3347   */\n  swap1\n  pop\n    /* \"#utility.yul\":3357:3428   */\n  tag_79\n    /* \"#utility.yul\":3425:3426   */\n  0x00\n    /* \"#utility.yul\":3414:3423   */\n  dup4\n    /* \"#utility.yul\":3410:3427   */\n  add\n    /* \"#utility.yul\":3401:3407   */\n  dup5\n    /* \"#utility.yul\":3357:3428   */\n  tag_36\n  jump\t// in\ntag_79:\n    /* \"#utility.yul\":3213:3435   */\n  swap3\n  swap2\n  pop\n  pop\n  jump\t// out\n    /* \"contracts/QuailFinance.sol\":476:12422  contract QuailFinance is Initializable, OwnableUpgradeable {... */\ntag_20:\n  dataSize(sub_0)\n  dup1\n  dataOffset(sub_0)\n  0x00\n  codecopy\n  0x00\n  return\nstop\n\nsub_0: assembly {\n        /* \"contracts/QuailFinance.sol\":476:12422  contract QuailFinance is Initializable, OwnableUpgradeable {... */\n      mstore(0x40, 0x80)\n      jumpi(tag_1, lt(calldatasize, 0x04))\n      shr(0xe0, calldataload(0x00))\n      dup1\n      0x77d5d2dc\n      gt\n      tag_23\n      jumpi\n      dup1\n      0x8da5cb5b\n      gt\n      tag_24\n      jumpi\n      dup1\n      0x8da5cb5b\n      eq\n      tag_17\n      jumpi\n      dup1\n      0x97d75776\n      eq\n      tag_18\n      jumpi\n      dup1\n      0xae169a50\n      eq\n      tag_19\n      jumpi\n      dup1\n      0xbf2d9e0b\n      eq\n      tag_20\n      jumpi\n      dup1\n      0xc3c3df4f\n      eq\n      tag_21\n      jumpi\n      dup1\n      0xf2fde38b\n      eq\n      tag_22\n      jumpi\n      jump(tag_1)\n    tag_24:\n      dup1\n      0x77d5d2dc\n      eq\n      tag_12\n      jumpi\n      dup1\n      0x7cb64759\n      eq\n      tag_13\n      jumpi\n      dup1\n      0x7d77990c\n      eq\n      tag_14\n      jumpi\n      dup1\n      0x8129fc1c\n      eq\n      tag_15\n      jumpi\n      dup1\n      0x831d49ef\n      eq\n      tag_16\n      jumpi\n      jump(tag_1)\n    tag_23:\n      dup1\n      0x4a80409e\n      gt\n      tag_25\n      jumpi\n      dup1\n      0x4a80409e\n      eq\n      tag_7\n      jumpi\n      dup1\n      0x4f573cb2\n      eq\n      tag_8\n      jumpi\n      dup1\n      0x61e7d805\n      eq\n      tag_9\n      jumpi\n      dup1\n      0x715018a6\n      eq\n      tag_10\n      jumpi\n      dup1\n      0x73b2e80e\n      eq\n      tag_11\n      jumpi\n      jump(tag_1)\n    tag_25:\n      dup1\n      0x0fae6443\n      eq\n      tag_2\n      jumpi\n      dup1\n      0x2eb4a7ab\n      eq\n      tag_3\n      jumpi\n      dup1\n      0x31a0edec\n      eq\n      tag_4\n      jumpi\n      dup1\n      0x3cabfefd\n      eq\n      tag_5\n      jumpi\n      dup1\n      0x409a33ce\n      eq\n      tag_6\n      jumpi\n    tag_1:\n      0x00\n      dup1\n      revert\n        /* \"contracts/QuailFinance.sol\":4992:6747  function createPot(string memory _name, bytes32 userCommitment, uint256 _rotationCycleInSeconds, uint256 _interestDenominator, uint256 _interestNumerator, uint256 _numParticipants, uint256 _amount) public payable {... */\n    tag_2:\n      tag_26\n      0x04\n      dup1\n      calldatasize\n      sub\n      dup2\n      add\n      swap1\n      tag_27\n      swap2\n      swap1\n      tag_28\n      jump\t// in\n    tag_27:\n      tag_29\n      jump\t// in\n    tag_26:\n      stop\n        /* \"contracts/QuailFinance.sol\":608:633  bytes32 public merkleRoot */\n    tag_3:\n      callvalue\n      dup1\n      iszero\n      tag_30\n      jumpi\n      0x00\n      dup1\n      revert\n    tag_30:\n      pop\n      tag_31\n      tag_32\n      jump\t// in\n    tag_31:\n      mload(0x40)\n      tag_33\n      swap2\n      swap1\n      tag_34\n      jump\t// in\n    tag_33:\n      mload(0x40)\n      dup1\n      swap2\n      sub\n      swap1\n      return\n        /* \"contracts/QuailFinance.sol\":4157:4253  IERC20Rebasing public constant USDB = IERC20Rebasing(0x4200000000000000000000000000000000000022) */\n    tag_4:\n      callvalue\n      dup1\n      iszero\n      tag_35\n      jumpi\n      0x00\n      dup1\n      revert\n    tag_35:\n      pop\n      tag_36\n      tag_37\n      jump\t// in\n    tag_36:\n      mload(0x40)\n      tag_38\n      swap2\n      swap1\n      tag_39\n      jump\t// in\n    tag_38:\n      mload(0x40)\n      dup1\n      swap2\n      sub\n      swap1\n      return\n        /* \"contracts/QuailFinance.sol\":7829:9706  function rotateLiquidity(uint256 _potId, bytes32 userRandom, bytes32 providerRandom) public {... */\n    tag_5:\n      callvalue\n      dup1\n      iszero\n      tag_40\n      jumpi\n      0x00\n      dup1\n      revert\n    tag_40:\n      pop\n      tag_41\n      0x04\n      dup1\n      calldatasize\n      sub\n      dup2\n      add\n      swap1\n      tag_42\n      swap2\n      swap1\n      tag_43\n      jump\t// in\n    tag_42:\n      tag_44\n      jump\t// in\n    tag_41:\n      stop\n        /* \"contracts/QuailFinance.sol\":11398:11582  function claimAllYield() external onlyOwner {... */\n    tag_6:\n      callvalue\n      dup1\n      iszero\n      tag_45\n      jumpi\n      0x00\n      dup1\n      revert\n    tag_45:\n      pop\n      tag_46\n      tag_47\n      jump\t// in\n    tag_46:\n      stop\n        /* \"contracts/QuailFinance.sol\":865:888  IERC20 public usdbToken */\n    tag_7:\n      callvalue\n      dup1\n      iszero\n      tag_48\n      jumpi\n      0x00\n      dup1\n      revert\n    tag_48:\n      pop\n      tag_49\n      tag_50\n      jump\t// in\n    tag_49:\n      mload(0x40)\n      tag_51\n      swap2\n      swap1\n      tag_52\n      jump\t// in\n    tag_51:\n      mload(0x40)\n      dup1\n      swap2\n      sub\n      swap1\n      return\n        /* \"contracts/QuailFinance.sol\":10839:11244  function withdrawRevenue() external onlyOwner {... */\n    tag_8:\n      callvalue\n      dup1\n      iszero\n      tag_53\n      jumpi\n      0x00\n      dup1\n      revert\n    tag_53:\n      pop\n      tag_54\n      tag_55\n      jump\t// in\n    tag_54:\n      stop\n        /* \"contracts/QuailFinance.sol\":11698:12420  function claimFunds(uint256 claimAmount, bytes32[] calldata merkleProof) external {... */\n    tag_9:\n      callvalue\n      dup1\n      iszero\n      tag_56\n      jumpi\n      0x00\n      dup1\n      revert\n    tag_56:\n      pop\n      tag_57\n      0x04\n      dup1\n      calldatasize\n      sub\n      dup2\n      add\n      swap1\n      tag_58\n      swap2\n      swap1\n      tag_59\n      jump\t// in\n    tag_58:\n      tag_60\n      jump\t// in\n    tag_57:\n      stop\n        /* \"@openzeppelin/contracts-upgradeable/access/OwnableUpgradeable.sol\":3155:3256  function renounceOwnership() public virtual onlyOwner {... */\n    tag_10:\n      callvalue\n      dup1\n      iszero\n      tag_61\n      jumpi\n      0x00\n      dup1\n      revert\n    tag_61:\n      pop\n      tag_62\n      tag_63\n      jump\t// in\n    tag_62:\n      stop\n        /* \"contracts/QuailFinance.sol\":918:963  mapping(address => uint256) public hasClaimed */\n    tag_11:\n      callvalue\n      dup1\n      iszero\n      tag_64\n      jumpi\n      0x00\n      dup1\n      revert\n    tag_64:\n      pop\n      tag_65\n      0x04\n      dup1\n      calldatasize\n      sub\n      dup2\n      add\n      swap1\n      tag_66\n      swap2\n      swap1\n      tag_67\n      jump\t// in\n    tag_66:\n      tag_68\n      jump\t// in\n    tag_65:\n      mload(0x40)\n      tag_69\n      swap2\n      swap1\n      tag_70\n      jump\t// in\n    tag_69:\n      mload(0x40)\n      dup1\n      swap2\n      sub\n      swap1\n      return\n        /* \"contracts/QuailFinance.sol\":11279:11392  function claimMyContractsGas() external onlyOwner{... */\n    tag_12:\n      callvalue\n      dup1\n      iszero\n      tag_71\n      jumpi\n      0x00\n      dup1\n      revert\n    tag_71:\n      pop\n      tag_72\n      tag_73\n      jump\t// in\n    tag_72:\n      stop\n        /* \"contracts/QuailFinance.sol\":11588:11692  function setMerkleRoot(bytes32 _merkleRoot) external onlyOwner {... */\n    tag_13:\n      callvalue\n      dup1\n      iszero\n      tag_74\n      jumpi\n      0x00\n      dup1\n      revert\n    tag_74:\n      pop\n      tag_75\n      0x04\n      dup1\n      calldatasize\n      sub\n      dup2\n      add\n      swap1\n      tag_76\n      swap2\n      swap1\n      tag_77\n      jump\t// in\n    tag_76:\n      tag_78\n      jump\t// in\n    tag_75:\n      stop\n        /* \"contracts/QuailFinance.sol\":10385:10603  function calculateRiskPoolBalance(uint256 _potId, uint256 _amount) public view returns (uint256) {... */\n    tag_14:\n      callvalue\n      dup1\n      iszero\n      tag_79\n      jumpi\n      0x00\n      dup1\n      revert\n    tag_79:\n      pop\n      tag_80\n      0x04\n      dup1\n      calldatasize\n      sub\n      dup2\n      add\n      swap1\n      tag_81\n      swap2\n      swap1\n      tag_82\n      jump\t// in\n    tag_81:\n      tag_83\n      jump\t// in\n    tag_80:\n      mload(0x40)\n      tag_84\n      swap2\n      swap1\n      tag_70\n      jump\t// in\n    tag_84:\n      mload(0x40)\n      dup1\n      swap2\n      sub\n      swap1\n      return\n        /* \"contracts/QuailFinance.sol\":4260:4418  function initialize() public initializer {... */\n    tag_15:\n      callvalue\n      dup1\n      iszero\n      tag_85\n      jumpi\n      0x00\n      dup1\n      revert\n    tag_85:\n      pop\n      tag_86\n      tag_87\n      jump\t// in\n    tag_86:\n      stop\n        /* \"contracts/QuailFinance.sol\":6842:7664  function joinPot(uint256 _potId) external payable {... */\n    tag_16:\n      tag_88\n      0x04\n      dup1\n      calldatasize\n      sub\n      dup2\n      add\n      swap1\n      tag_89\n      swap2\n      swap1\n      tag_90\n      jump\t// in\n    tag_89:\n      tag_91\n      jump\t// in\n    tag_88:\n      stop\n        /* \"@openzeppelin/contracts-upgradeable/access/OwnableUpgradeable.sol\":2441:2585  function owner() public view virtual returns (address) {... */\n    tag_17:\n      callvalue\n      dup1\n      iszero\n      tag_92\n      jumpi\n      0x00\n      dup1\n      revert\n    tag_92:\n      pop\n      tag_93\n      tag_94\n      jump\t// in\n    tag_93:\n      mload(0x40)\n      tag_95\n      swap2\n      swap1\n      tag_96\n      jump\t// in\n    tag_95:\n      mload(0x40)\n      dup1\n      swap2\n      sub\n      swap1\n      return\n        /* \"contracts/QuailFinance.sol\":745:826  IBlast public constant BLAST = IBlast(0x4300000000000000000000000000000000000002) */\n    tag_18:\n      callvalue\n      dup1\n      iszero\n      tag_97\n      jumpi\n      0x00\n      dup1\n      revert\n    tag_97:\n      pop\n      tag_98\n      tag_99\n      jump\t// in\n    tag_98:\n      mload(0x40)\n      tag_100\n      swap2\n      swap1\n      tag_101\n      jump\t// in\n    tag_100:\n      mload(0x40)\n      dup1\n      swap2\n      sub\n      swap1\n      return\n        /* \"contracts/QuailFinance.sol\":9712:10153  function claimReward(uint256 _potId) external {... */\n    tag_19:\n      callvalue\n      dup1\n      iszero\n      tag_102\n      jumpi\n      0x00\n      dup1\n      revert\n    tag_102:\n      pop\n      tag_103\n      0x04\n      dup1\n      calldatasize\n      sub\n      dup2\n      add\n      swap1\n      tag_104\n      swap2\n      swap1\n      tag_90\n      jump\t// in\n    tag_104:\n      tag_105\n      jump\t// in\n    tag_103:\n      stop\n        /* \"contracts/QuailFinance.sol\":832:859  uint256 public totalRevenue */\n    tag_20:\n      callvalue\n      dup1\n      iszero\n      tag_106\n      jumpi\n      0x00\n      dup1\n      revert\n    tag_106:\n      pop\n      tag_107\n      tag_108\n      jump\t// in\n    tag_107:\n      mload(0x40)\n      tag_109\n      swap2\n      swap1\n      tag_70\n      jump\t// in\n    tag_109:\n      mload(0x40)\n      dup1\n      swap2\n      sub\n      swap1\n      return\n        /* \"contracts/QuailFinance.sol\":969:1004  mapping(uint256 => Pot) public pots */\n    tag_21:\n      callvalue\n      dup1\n      iszero\n      tag_110\n      jumpi\n      0x00\n      dup1\n      revert\n    tag_110:\n      pop\n      tag_111\n      0x04\n      dup1\n      calldatasize\n      sub\n      dup2\n      add\n      swap1\n      tag_112\n      swap2\n      swap1\n      tag_90\n      jump\t// in\n    tag_112:\n      tag_113\n      jump\t// in\n    tag_111:\n      mload(0x40)\n      tag_114\n      swap12\n      swap11\n      swap10\n      swap9\n      swap8\n      swap7\n      swap6\n      swap5\n      swap4\n      swap3\n      swap2\n      swap1\n      tag_115\n      jump\t// in\n    tag_114:\n      mload(0x40)\n      dup1\n      swap2\n      sub\n      swap1\n      return\n        /* \"@openzeppelin/contracts-upgradeable/access/OwnableUpgradeable.sol\":3405:3620  function transferOwnership(address newOwner) public virtual onlyOwner {... */\n    tag_22:\n      callvalue\n      dup1\n      iszero\n      tag_116\n      jumpi\n      0x00\n      dup1\n      revert\n    tag_116:\n      pop\n      tag_117\n      0x04\n      dup1\n      calldatasize\n      sub\n      dup2\n      add\n      swap1\n      tag_118\n      swap2\n      swap1\n      tag_67\n      jump\t// in\n    tag_118:\n      tag_119\n      jump\t// in\n    tag_117:\n      stop\n        /* \"contracts/QuailFinance.sol\":4992:6747  function createPot(string memory _name, bytes32 userCommitment, uint256 _rotationCycleInSeconds, uint256 _interestDenominator, uint256 _interestNumerator, uint256 _numParticipants, uint256 _amount) public payable {... */\n    tag_29:\n        /* \"contracts/QuailFinance.sol\":5215:5226  uint256 fee */\n      0x00\n        /* \"contracts/QuailFinance.sol\":5229:5236  entropy */\n      dup1\n      0x00\n      swap1\n      sload\n      swap1\n      0x0100\n      exp\n      swap1\n      div\n      0xffffffffffffffffffffffffffffffffffffffff\n      and\n        /* \"contracts/QuailFinance.sol\":5229:5243  entropy.getFee */\n      0xffffffffffffffffffffffffffffffffffffffff\n      and\n      0xb88c9148\n        /* \"contracts/QuailFinance.sol\":5244:5259  entropyProvider */\n      0x01\n      0x00\n      swap1\n      sload\n      swap1\n      0x0100\n      exp\n      swap1\n      div\n      0xffffffffffffffffffffffffffffffffffffffff\n      and\n        /* \"contracts/QuailFinance.sol\":5229:5260  entropy.getFee(entropyProvider) */\n      mload(0x40)\n      dup3\n      0xffffffff\n      and\n      0xe0\n      shl\n      dup2\n      mstore\n      0x04\n      add\n      tag_121\n      swap2\n      swap1\n      tag_96\n      jump\t// in\n    tag_121:\n      0x20\n      mload(0x40)\n      dup1\n      dup4\n      sub\n      dup2\n      dup7\n      gas\n      staticcall\n      iszero\n      dup1\n      iszero\n      tag_123\n      jumpi\n      returndatasize\n      0x00\n      dup1\n      returndatacopy\n      revert(0x00, returndatasize)\n    tag_123:\n      pop\n      pop\n      pop\n      pop\n      mload(0x40)\n      returndatasize\n      not(0x1f)\n      0x1f\n      dup3\n      add\n      and\n      dup3\n      add\n      dup1\n      0x40\n      mstore\n      pop\n      dup2\n      add\n      swap1\n      tag_124\n      swap2\n      swap1\n      tag_125\n      jump\t// in\n    tag_124:\n        /* \"contracts/QuailFinance.sol\":5215:5260  uint256 fee = entropy.getFee(entropyProvider) */\n      0xffffffffffffffffffffffffffffffff\n      and\n      swap1\n      pop\n        /* \"contracts/QuailFinance.sol\":5290:5293  fee */\n      dup1\n        /* \"contracts/QuailFinance.sol\":5278:5287  msg.value */\n      callvalue\n        /* \"contracts/QuailFinance.sol\":5278:5293  msg.value < fee */\n      lt\n        /* \"contracts/QuailFinance.sol\":5270:5314  require(msg.value < fee, \"Insufficient fee\") */\n      tag_126\n      jumpi\n      mload(0x40)\n      0x08c379a000000000000000000000000000000000000000000000000000000000\n      dup2\n      mstore\n      0x04\n      add\n      tag_127\n      swap1\n      tag_128\n      jump\t// in\n    tag_127:\n      mload(0x40)\n      dup1\n      swap2\n      sub\n      swap1\n      revert\n    tag_126:\n        /* \"contracts/QuailFinance.sol\":5359:5360  0 */\n      0x00\n        /* \"contracts/QuailFinance.sol\":5333:5356  _rotationCycleInSeconds */\n      dup7\n        /* \"contracts/QuailFinance.sol\":5333:5360  _rotationCycleInSeconds > 0 */\n      gt\n        /* \"contracts/QuailFinance.sol\":5325:5396  require(_rotationCycleInSeconds > 0, \"Rotation cycle must be positive\") */\n      tag_129\n      jumpi\n      mload(0x40)\n      0x08c379a000000000000000000000000000000000000000000000000000000000\n      dup2\n      mstore\n      0x04\n      add\n      tag_130\n      swap1\n      tag_131\n      jump\t// in\n    tag_130:\n      mload(0x40)\n      dup1\n      swap2\n      sub\n      swap1\n      revert\n    tag_129:\n        /* \"contracts/QuailFinance.sol\":5437:5438  0 */\n      0x00\n        /* \"contracts/QuailFinance.sol\":5414:5434  _interestDenominator */\n      dup6\n        /* \"contracts/QuailFinance.sol\":5414:5438  _interestDenominator > 0 */\n      gt\n        /* \"contracts/QuailFinance.sol\":5406:5480  require(_interestDenominator > 0, \"Interest denominator must be positive\") */\n      tag_132\n      jumpi\n      mload(0x40)\n      0x08c379a000000000000000000000000000000000000000000000000000000000\n      dup2\n      mstore\n      0x04\n      add\n      tag_133\n      swap1\n      tag_134\n      jump\t// in\n    tag_133:\n      mload(0x40)\n      dup1\n      swap2\n      sub\n      swap1\n      revert\n    tag_132:\n        /* \"contracts/QuailFinance.sol\":5520:5540  _interestDenominator */\n      dup5\n        /* \"contracts/QuailFinance.sol\":5498:5516  _interestNumerator */\n      dup5\n        /* \"contracts/QuailFinance.sol\":5498:5540  _interestNumerator <= _interestDenominator */\n      gt\n      iszero\n        /* \"contracts/QuailFinance.sol\":5490:5596  require(_interestNumerator <= _interestDenominator, \"Numerator must be less than or equal to denominator\") */\n      tag_135\n      jumpi\n      mload(0x40)\n      0x08c379a000000000000000000000000000000000000000000000000000000000\n      dup2\n      mstore\n      0x04\n      add\n      tag_136\n      swap1\n      tag_137\n      jump\t// in\n    tag_136:\n      mload(0x40)\n      dup1\n      swap2\n      sub\n      swap1\n      revert\n    tag_135:\n        /* \"contracts/QuailFinance.sol\":5606:5619  uint256 potId */\n      0x00\n        /* \"contracts/QuailFinance.sol\":5622:5631  nextPotId */\n      0x03\n      0x00\n        /* \"contracts/QuailFinance.sol\":5622:5633  nextPotId++ */\n      dup2\n      sload\n      dup1\n      swap3\n      swap2\n      swap1\n      tag_138\n      swap1\n      tag_139\n      jump\t// in\n    tag_138:\n      swap2\n      swap1\n      pop\n      sstore\n        /* \"contracts/QuailFinance.sol\":5606:5633  uint256 potId = nextPotId++ */\n      swap1\n      pop\n        /* \"contracts/QuailFinance.sol\":5651:5660  usdbToken */\n      0x05\n      0x00\n      swap1\n      sload\n      swap1\n      0x0100\n      exp\n      swap1\n      div\n      0xffffffffffffffffffffffffffffffffffffffff\n      and\n        /* \"contracts/QuailFinance.sol\":5651:5673  usdbToken.transferFrom */\n      0xffffffffffffffffffffffffffffffffffffffff\n      and\n      0x23b872dd\n        /* \"contracts/QuailFinance.sol\":5674:5684  msg.sender */\n      caller\n        /* \"contracts/QuailFinance.sol\":5694:5698  this */\n      address\n        /* \"contracts/QuailFinance.sol\":5701:5708  _amount */\n      dup7\n        /* \"contracts/QuailFinance.sol\":5651:5709  usdbToken.transferFrom(msg.sender, address(this), _amount) */\n      mload(0x40)\n      dup5\n      0xffffffff\n      and\n      0xe0\n      shl\n      dup2\n      mstore\n      0x04\n      add\n      tag_140\n      swap4\n      swap3\n      swap2\n      swap1\n      tag_141\n      jump\t// in\n    tag_140:\n      0x20\n      mload(0x40)\n      dup1\n      dup4\n      sub\n      dup2\n      0x00\n      dup8\n      gas\n      call\n      iszero\n      dup1\n      iszero\n      tag_143\n      jumpi\n      returndatasize\n      0x00\n      dup1\n      returndatacopy\n      revert(0x00, returndatasize)\n    tag_143:\n      pop\n      pop\n      pop\n      pop\n      mload(0x40)\n      returndatasize\n      not(0x1f)\n      0x1f\n      dup3\n      add\n      and\n      dup3\n      add\n      dup1\n      0x40\n      mstore\n      pop\n      dup2\n      add\n      swap1\n      tag_144\n      swap2\n      swap1\n      tag_145\n      jump\t// in\n    tag_144:\n        /* \"contracts/QuailFinance.sol\":5643:5755  require(usdbToken.transferFrom(msg.sender, address(this), _amount), \"Creator should deposit the initial amount\") */\n      tag_146\n      jumpi\n      mload(0x40)\n      0x08c379a000000000000000000000000000000000000000000000000000000000\n      dup2\n      mstore\n      0x04\n      add\n      tag_147\n      swap1\n      tag_148\n      jump\t// in\n    tag_147:\n      mload(0x40)\n      dup1\n      swap2\n      sub\n      swap1\n      revert\n    tag_146:\n        /* \"contracts/QuailFinance.sol\":5765:5786  uint64 sequenceNumber */\n      0x00\n        /* \"contracts/QuailFinance.sol\":5789:5796  entropy */\n      dup1\n      0x00\n      swap1\n      sload\n      swap1\n      0x0100\n      exp\n      swap1\n      div\n      0xffffffffffffffffffffffffffffffffffffffff\n      and\n        /* \"contracts/QuailFinance.sol\":5789:5804  entropy.request */\n      0xffffffffffffffffffffffffffffffffffffffff\n      and\n      0x93cbf217\n        /* \"contracts/QuailFinance.sol\":5812:5815  fee */\n      dup5\n        /* \"contracts/QuailFinance.sol\":5830:5845  entropyProvider */\n      0x01\n      0x00\n      swap1\n      sload\n      swap1\n      0x0100\n      exp\n      swap1\n      div\n      0xffffffffffffffffffffffffffffffffffffffff\n      and\n        /* \"contracts/QuailFinance.sol\":5859:5873  userCommitment */\n      dup13\n        /* \"contracts/QuailFinance.sol\":5887:5891  true */\n      0x01\n        /* \"contracts/QuailFinance.sol\":5789:5901  entropy.request{value: fee}(... */\n      mload(0x40)\n      dup6\n      0xffffffff\n      and\n      0xe0\n      shl\n      dup2\n      mstore\n      0x04\n      add\n      tag_149\n      swap4\n      swap3\n      swap2\n      swap1\n      tag_150\n      jump\t// in\n    tag_149:\n      0x20\n      mload(0x40)\n      dup1\n      dup4\n      sub\n      dup2\n      dup6\n      dup9\n      gas\n      call\n      iszero\n      dup1\n      iszero\n      tag_152\n      jumpi\n      returndatasize\n      0x00\n      dup1\n      returndatacopy\n      revert(0x00, returndatasize)\n    tag_152:\n      pop\n      pop\n      pop\n      pop\n      pop\n      mload(0x40)\n      returndatasize\n      not(0x1f)\n      0x1f\n      dup3\n      add\n      and\n      dup3\n      add\n      dup1\n      0x40\n      mstore\n      pop\n      dup2\n      add\n      swap1\n      tag_153\n      swap2\n      swap1\n      tag_154\n      jump\t// in\n    tag_153:\n        /* \"contracts/QuailFinance.sol\":5765:5901  uint64 sequenceNumber = entropy.request{value: fee}(... */\n      swap1\n      pop\n        /* \"contracts/QuailFinance.sol\":5950:5968  Pot storage newPot */\n      0x00\n        /* \"contracts/QuailFinance.sol\":5971:5975  pots */\n      0x07\n        /* \"contracts/QuailFinance.sol\":5971:5982  pots[potId] */\n      0x00\n        /* \"contracts/QuailFinance.sol\":5976:5981  potId */\n      dup5\n        /* \"contracts/QuailFinance.sol\":5971:5982  pots[potId] */\n      dup2\n      mstore\n      0x20\n      add\n      swap1\n      dup2\n      mstore\n      0x20\n      add\n      0x00\n      keccak256\n        /* \"contracts/QuailFinance.sol\":5950:5982  Pot storage newPot = pots[potId] */\n      swap1\n      pop\n        /* \"contracts/QuailFinance.sol\":6006:6011  _name */\n      dup11\n        /* \"contracts/QuailFinance.sol\":5992:5998  newPot */\n      dup2\n        /* \"contracts/QuailFinance.sol\":5992:6003  newPot.name */\n      0x00\n      add\n        /* \"contracts/QuailFinance.sol\":5992:6011  newPot.name = _name */\n      swap1\n      dup2\n      tag_155\n      swap2\n      swap1\n      tag_156\n      jump\t// in\n    tag_155:\n      pop\n        /* \"contracts/QuailFinance.sol\":6037:6044  _amount */\n      dup5\n        /* \"contracts/QuailFinance.sol\":6021:6027  newPot */\n      dup2\n        /* \"contracts/QuailFinance.sol\":6021:6034  newPot.amount */\n      0x01\n      add\n        /* \"contracts/QuailFinance.sol\":6021:6044  newPot.amount = _amount */\n      dup2\n      swap1\n      sstore\n      pop\n        /* \"contracts/QuailFinance.sol\":6079:6080  0 */\n      0x00\n        /* \"contracts/QuailFinance.sol\":6054:6060  newPot */\n      dup2\n        /* \"contracts/QuailFinance.sol\":6054:6076  newPot.riskPoolBalance */\n      0x02\n      add\n        /* \"contracts/QuailFinance.sol\":6054:6080  newPot.riskPoolBalance = 0 */\n      dup2\n      swap1\n      sstore\n      pop\n        /* \"contracts/QuailFinance.sol\":6114:6128  sequenceNumber */\n      dup2\n        /* \"contracts/QuailFinance.sol\":6090:6096  newPot */\n      dup2\n        /* \"contracts/QuailFinance.sol\":6090:6111  newPot.sequenceNumber */\n      0x09\n      add\n      0x00\n        /* \"contracts/QuailFinance.sol\":6090:6128  newPot.sequenceNumber = sequenceNumber */\n      0x0100\n      exp\n      dup2\n      sload\n      dup2\n      0xffffffffffffffff\n      mul\n      not\n      and\n      swap1\n      dup4\n      0xffffffffffffffff\n      and\n      mul\n      or\n      swap1\n      sstore\n      pop\n        /* \"contracts/QuailFinance.sol\":6158:6168  msg.sender */\n      caller\n        /* \"contracts/QuailFinance.sol\":6138:6144  newPot */\n      dup2\n        /* \"contracts/QuailFinance.sol\":6138:6155  newPot.potCreator */\n      0x09\n      add\n      0x08\n        /* \"contracts/QuailFinance.sol\":6138:6168  newPot.potCreator = msg.sender */\n      0x0100\n      exp\n      dup2\n      sload\n      dup2\n      0xffffffffffffffffffffffffffffffffffffffff\n      mul\n      not\n      and\n      swap1\n      dup4\n      0xffffffffffffffffffffffffffffffffffffffff\n      and\n      mul\n      or\n      swap1\n      sstore\n      pop\n        /* \"contracts/QuailFinance.sol\":6210:6233  _rotationCycleInSeconds */\n      dup9\n        /* \"contracts/QuailFinance.sol\":6178:6184  newPot */\n      dup2\n        /* \"contracts/QuailFinance.sol\":6178:6207  newPot.rotationCycleInSeconds */\n      0x03\n      add\n        /* \"contracts/QuailFinance.sol\":6178:6233  newPot.rotationCycleInSeconds = _rotationCycleInSeconds */\n      dup2\n      swap1\n      sstore\n      pop\n        /* \"contracts/QuailFinance.sol\":6270:6288  _interestNumerator */\n      dup7\n        /* \"contracts/QuailFinance.sol\":6243:6249  newPot */\n      dup2\n        /* \"contracts/QuailFinance.sol\":6243:6267  newPot.interestNumerator */\n      0x05\n      add\n        /* \"contracts/QuailFinance.sol\":6243:6288  newPot.interestNumerator = _interestNumerator */\n      dup2\n      swap1\n      sstore\n      pop\n        /* \"contracts/QuailFinance.sol\":6327:6347  _interestDenominator */\n      dup8\n        /* \"contracts/QuailFinance.sol\":6298:6304  newPot */\n      dup2\n        /* \"contracts/QuailFinance.sol\":6298:6324  newPot.interestDenominator */\n      0x06\n      add\n        /* \"contracts/QuailFinance.sol\":6298:6347  newPot.interestDenominator = _interestDenominator */\n      dup2\n      swap1\n      sstore\n      pop\n        /* \"contracts/QuailFinance.sol\":6383:6398  block.timestamp */\n      timestamp\n        /* \"contracts/QuailFinance.sol\":6357:6363  newPot */\n      dup2\n        /* \"contracts/QuailFinance.sol\":6357:6380  newPot.lastRotationTime */\n      0x04\n      add\n        /* \"contracts/QuailFinance.sol\":6357:6398  newPot.lastRotationTime = block.timestamp */\n      dup2\n      swap1\n      sstore\n      pop\n        /* \"contracts/QuailFinance.sol\":6433:6449  _numParticipants */\n      dup6\n        /* \"contracts/QuailFinance.sol\":6408:6414  newPot */\n      dup2\n        /* \"contracts/QuailFinance.sol\":6408:6430  newPot.numParticipants */\n      0x07\n      add\n        /* \"contracts/QuailFinance.sol\":6408:6449  newPot.numParticipants = _numParticipants */\n      dup2\n      swap1\n      sstore\n      pop\n        /* \"contracts/QuailFinance.sol\":6481:6482  1 */\n      0x01\n        /* \"contracts/QuailFinance.sol\":6459:6465  newPot */\n      dup2\n        /* \"contracts/QuailFinance.sol\":6459:6478  newPot.currentRound */\n      0x08\n      add\n        /* \"contracts/QuailFinance.sol\":6459:6482  newPot.currentRound = 1 */\n      dup2\n      swap1\n      sstore\n      pop\n        /* \"contracts/QuailFinance.sol\":6527:6534  _amount */\n      dup5\n        /* \"contracts/QuailFinance.sol\":6492:6498  newPot */\n      dup2\n        /* \"contracts/QuailFinance.sol\":6492:6512  newPot.contributions */\n      0x0c\n      add\n        /* \"contracts/QuailFinance.sol\":6492:6524  newPot.contributions[msg.sender] */\n      0x00\n        /* \"contracts/QuailFinance.sol\":6513:6523  msg.sender */\n      caller\n        /* \"contracts/QuailFinance.sol\":6492:6524  newPot.contributions[msg.sender] */\n      0xffffffffffffffffffffffffffffffffffffffff\n      and\n      0xffffffffffffffffffffffffffffffffffffffff\n      and\n      dup2\n      mstore\n      0x20\n      add\n      swap1\n      dup2\n      mstore\n      0x20\n      add\n      0x00\n      keccak256\n        /* \"contracts/QuailFinance.sol\":6492:6534  newPot.contributions[msg.sender] = _amount */\n      dup2\n      swap1\n      sstore\n      pop\n        /* \"contracts/QuailFinance.sol\":6544:6550  newPot */\n      dup1\n        /* \"contracts/QuailFinance.sol\":6544:6563  newPot.participants */\n      0x0a\n      add\n        /* \"contracts/QuailFinance.sol\":6569:6579  msg.sender */\n      caller\n        /* \"contracts/QuailFinance.sol\":6544:6580  newPot.participants.push(msg.sender) */\n      swap1\n      dup1\n      0x01\n      dup2\n      sload\n      add\n      dup1\n      dup3\n      sstore\n      dup1\n      swap2\n      pop\n      pop\n      0x01\n      swap1\n      sub\n      swap1\n      0x00\n      mstore\n      keccak256(0x00, 0x20)\n      add\n      0x00\n      swap1\n      swap2\n      swap1\n      swap2\n      swap1\n      swap2\n      0x0100\n      exp\n      dup2\n      sload\n      dup2\n      0xffffffffffffffffffffffffffffffffffffffff\n      mul\n      not\n      and\n      swap1\n      dup4\n      0xffffffffffffffffffffffffffffffffffffffff\n      and\n      mul\n      or\n      swap1\n      sstore\n      pop\n        /* \"contracts/QuailFinance.sol\":6596:6740  PotCreated(potId, _name, msg.sender, _amount, _rotationCycleInSeconds, _interestNumerator, _interestDenominator,_numParticipants,sequenceNumber) */\n      0x2ea75defa9ed86be5c1f296ba42849d00ed611c827f9f30a82ab2f1dadc50b88\n        /* \"contracts/QuailFinance.sol\":6607:6612  potId */\n      dup4\n        /* \"contracts/QuailFinance.sol\":6614:6619  _name */\n      dup13\n        /* \"contracts/QuailFinance.sol\":6621:6631  msg.sender */\n      caller\n        /* \"contracts/QuailFinance.sol\":6633:6640  _amount */\n      dup9\n        /* \"contracts/QuailFinance.sol\":6642:6665  _rotationCycleInSeconds */\n      dup14\n        /* \"contracts/QuailFinance.sol\":6667:6685  _interestNumerator */\n      dup13\n        /* \"contracts/QuailFinance.sol\":6687:6707  _interestDenominator */\n      dup15\n        /* \"contracts/QuailFinance.sol\":6708:6724  _numParticipants */\n      dup14\n        /* \"contracts/QuailFinance.sol\":6725:6739  sequenceNumber */\n      dup11\n        /* \"contracts/QuailFinance.sol\":6596:6740  PotCreated(potId, _name, msg.sender, _amount, _rotationCycleInSeconds, _interestNumerator, _interestDenominator,_numParticipants,sequenceNumber) */\n      mload(0x40)\n      tag_158\n      swap10\n      swap9\n      swap8\n      swap7\n      swap6\n      swap5\n      swap4\n      swap3\n      swap2\n      swap1\n      tag_159\n      jump\t// in\n    tag_158:\n      mload(0x40)\n      dup1\n      swap2\n      sub\n      swap1\n      log1\n        /* \"contracts/QuailFinance.sol\":5205:6747  {... */\n      pop\n      pop\n      pop\n      pop\n        /* \"contracts/QuailFinance.sol\":4992:6747  function createPot(string memory _name, bytes32 userCommitment, uint256 _rotationCycleInSeconds, uint256 _interestDenominator, uint256 _interestNumerator, uint256 _numParticipants, uint256 _amount) public payable {... */\n      pop\n      pop\n      pop\n      pop\n      pop\n      pop\n      pop\n      jump\t// out\n        /* \"contracts/QuailFinance.sol\":608:633  bytes32 public merkleRoot */\n    tag_32:\n      sload(0x02)\n      dup2\n      jump\t// out\n        /* \"contracts/QuailFinance.sol\":4157:4253  IERC20Rebasing public constant USDB = IERC20Rebasing(0x4200000000000000000000000000000000000022) */\n    tag_37:\n        /* \"contracts/QuailFinance.sol\":4210:4252  0x4200000000000000000000000000000000000022 */\n      0x4200000000000000000000000000000000000022\n        /* \"contracts/QuailFinance.sol\":4157:4253  IERC20Rebasing public constant USDB = IERC20Rebasing(0x4200000000000000000000000000000000000022) */\n      dup2\n      jump\t// out\n        /* \"contracts/QuailFinance.sol\":7829:9706  function rotateLiquidity(uint256 _potId, bytes32 userRandom, bytes32 providerRandom) public {... */\n    tag_44:\n        /* \"contracts/QuailFinance.sol\":7966:7976  msg.sender */\n      caller\n        /* \"contracts/QuailFinance.sol\":7939:7976  pots[_potId].potCreator == msg.sender */\n      0xffffffffffffffffffffffffffffffffffffffff\n      and\n        /* \"contracts/QuailFinance.sol\":7939:7943  pots */\n      0x07\n        /* \"contracts/QuailFinance.sol\":7939:7951  pots[_potId] */\n      0x00\n        /* \"contracts/QuailFinance.sol\":7944:7950  _potId */\n      dup6\n        /* \"contracts/QuailFinance.sol\":7939:7951  pots[_potId] */\n      dup2\n      mstore\n      0x20\n      add\n      swap1\n      dup2\n      mstore\n      0x20\n      add\n      0x00\n      keccak256\n        /* \"contracts/QuailFinance.sol\":7939:7962  pots[_potId].potCreator */\n      0x09\n      add\n      0x08\n      swap1\n      sload\n      swap1\n      0x0100\n      exp\n      swap1\n      div\n      0xffffffffffffffffffffffffffffffffffffffff\n      and\n        /* \"contracts/QuailFinance.sol\":7939:7976  pots[_potId].potCreator == msg.sender */\n      0xffffffffffffffffffffffffffffffffffffffff\n      and\n      eq\n        /* \"contracts/QuailFinance.sol\":7931:8023  require(pots[_potId].potCreator == msg.sender, \"Only the pot creator can reveal the winner\") */\n      tag_161\n      jumpi\n      mload(0x40)\n      0x08c379a000000000000000000000000000000000000000000000000000000000\n      dup2\n      mstore\n      0x04\n      add\n      tag_162\n      swap1\n      tag_163\n      jump\t// in\n    tag_162:\n      mload(0x40)\n      dup1\n      swap2\n      sub\n      swap1\n      revert\n    tag_161:\n        /* \"contracts/QuailFinance.sol\":8033:8048  Pot storage pot */\n      0x00\n        /* \"contracts/QuailFinance.sol\":8051:8055  pots */\n      0x07\n        /* \"contracts/QuailFinance.sol\":8051:8063  pots[_potId] */\n      0x00\n        /* \"contracts/QuailFinance.sol\":8056:8062  _potId */\n      dup6\n        /* \"contracts/QuailFinance.sol\":8051:8063  pots[_potId] */\n      dup2\n      mstore\n      0x20\n      add\n      swap1\n      dup2\n      mstore\n      0x20\n      add\n      0x00\n      keccak256\n        /* \"contracts/QuailFinance.sol\":8033:8063  Pot storage pot = pots[_potId] */\n      swap1\n      pop\n        /* \"contracts/QuailFinance.sol\":8123:8126  pot */\n      dup1\n        /* \"contracts/QuailFinance.sol\":8123:8149  pot.rotationCycleInSeconds */\n      0x03\n      add\n      sload\n        /* \"contracts/QuailFinance.sol\":8100:8103  pot */\n      dup2\n        /* \"contracts/QuailFinance.sol\":8100:8120  pot.lastRotationTime */\n      0x04\n      add\n      sload\n        /* \"contracts/QuailFinance.sol\":8100:8149  pot.lastRotationTime + pot.rotationCycleInSeconds */\n      tag_164\n      swap2\n      swap1\n      tag_165\n      jump\t// in\n    tag_164:\n        /* \"contracts/QuailFinance.sol\":8081:8096  block.timestamp */\n      timestamp\n        /* \"contracts/QuailFinance.sol\":8081:8149  block.timestamp >= pot.lastRotationTime + pot.rotationCycleInSeconds */\n      lt\n      iszero\n        /* \"contracts/QuailFinance.sol\":8073:8179  require(block.timestamp >= pot.lastRotationTime + pot.rotationCycleInSeconds, \"Next rotation not yet due\") */\n      tag_166\n      jumpi\n      mload(0x40)\n      0x08c379a000000000000000000000000000000000000000000000000000000000\n      dup2\n      mstore\n      0x04\n      add\n      tag_167\n      swap1\n      tag_168\n      jump\t// in\n    tag_167:\n      mload(0x40)\n      dup1\n      swap2\n      sub\n      swap1\n      revert\n    tag_166:\n        /* \"contracts/QuailFinance.sol\":8189:8209  bytes32 randomNumber */\n      0x00\n        /* \"contracts/QuailFinance.sol\":8212:8219  entropy */\n      dup1\n      0x00\n      swap1\n      sload\n      swap1\n      0x0100\n      exp\n      swap1\n      div\n      0xffffffffffffffffffffffffffffffffffffffff\n      and\n        /* \"contracts/QuailFinance.sol\":8212:8226  entropy.reveal */\n      0xffffffffffffffffffffffffffffffffffffffff\n      and\n      0x9371df51\n        /* \"contracts/QuailFinance.sol\":8227:8242  entropyProvider */\n      0x01\n      0x00\n      swap1\n      sload\n      swap1\n      0x0100\n      exp\n      swap1\n      div\n      0xffffffffffffffffffffffffffffffffffffffff\n      and\n        /* \"contracts/QuailFinance.sol\":8244:8247  pot */\n      dup5\n        /* \"contracts/QuailFinance.sol\":8244:8262  pot.sequenceNumber */\n      0x09\n      add\n      0x00\n      swap1\n      sload\n      swap1\n      0x0100\n      exp\n      swap1\n      div\n      0xffffffffffffffff\n      and\n        /* \"contracts/QuailFinance.sol\":8264:8274  userRandom */\n      dup8\n        /* \"contracts/QuailFinance.sol\":8276:8290  providerRandom */\n      dup8\n        /* \"contracts/QuailFinance.sol\":8212:8291  entropy.reveal(entropyProvider, pot.sequenceNumber, userRandom, providerRandom) */\n      mload(0x40)\n      dup6\n      0xffffffff\n      and\n      0xe0\n      shl\n      dup2\n      mstore\n      0x04\n      add\n      tag_169\n      swap5\n      swap4\n      swap3\n      swap2\n      swap1\n      tag_170\n      jump\t// in\n    tag_169:\n      0x20\n      mload(0x40)\n      dup1\n      dup4\n      sub\n      dup2\n      0x00\n      dup8\n      gas\n      call\n      iszero\n      dup1\n      iszero\n      tag_172\n      jumpi\n      returndatasize\n      0x00\n      dup1\n      returndatacopy\n      revert(0x00, returndatasize)\n    tag_172:\n      pop\n      pop\n      pop\n      pop\n      mload(0x40)\n      returndatasize\n      not(0x1f)\n      0x1f\n      dup3\n      add\n      and\n      dup3\n      add\n      dup1\n      0x40\n      mstore\n      pop\n      dup2\n      add\n      swap1\n      tag_173\n      swap2\n      swap1\n      tag_174\n      jump\t// in\n    tag_173:\n        /* \"contracts/QuailFinance.sol\":8189:8291  bytes32 randomNumber = entropy.reveal(entropyProvider, pot.sequenceNumber, userRandom, providerRandom) */\n      swap1\n      pop\n        /* \"contracts/QuailFinance.sol\":8301:8320  uint256 winnerIndex */\n      0x00\n        /* \"contracts/QuailFinance.sol\":8347:8350  pot */\n      dup3\n        /* \"contracts/QuailFinance.sol\":8347:8366  pot.numParticipants */\n      0x07\n      add\n      sload\n        /* \"contracts/QuailFinance.sol\":8331:8343  randomNumber */\n      dup3\n        /* \"contracts/QuailFinance.sol\":8323:8344  uint256(randomNumber) */\n      0x00\n      shr\n        /* \"contracts/QuailFinance.sol\":8323:8366  uint256(randomNumber) % pot.numParticipants */\n      tag_175\n      swap2\n      swap1\n      tag_176\n      jump\t// in\n    tag_175:\n        /* \"contracts/QuailFinance.sol\":8301:8366  uint256 winnerIndex = uint256(randomNumber) % pot.numParticipants */\n      swap1\n      pop\n        /* \"contracts/QuailFinance.sol\":8377:8391  address winner */\n      0x00\n        /* \"contracts/QuailFinance.sol\":8394:8397  pot */\n      dup4\n        /* \"contracts/QuailFinance.sol\":8394:8410  pot.participants */\n      0x0a\n      add\n        /* \"contracts/QuailFinance.sol\":8411:8422  winnerIndex */\n      dup3\n        /* \"contracts/QuailFinance.sol\":8394:8423  pot.participants[winnerIndex] */\n      dup2\n      sload\n      dup2\n      lt\n      tag_177\n      jumpi\n      tag_178\n      tag_179\n      jump\t// in\n    tag_178:\n    tag_177:\n      swap1\n      0x00\n      mstore\n      keccak256(0x00, 0x20)\n      add\n      0x00\n      swap1\n      sload\n      swap1\n      0x0100\n      exp\n      swap1\n      div\n      0xffffffffffffffffffffffffffffffffffffffff\n      and\n        /* \"contracts/QuailFinance.sol\":8377:8423  address winner = pot.participants[winnerIndex] */\n      swap1\n      pop\n        /* \"contracts/QuailFinance.sol\":8433:8436  pot */\n      dup4\n        /* \"contracts/QuailFinance.sol\":8433:8444  pot.winners */\n      0x0b\n      add\n        /* \"contracts/QuailFinance.sol\":8450:8456  winner */\n      dup2\n        /* \"contracts/QuailFinance.sol\":8433:8457  pot.winners.push(winner) */\n      swap1\n      dup1\n      0x01\n      dup2\n      sload\n      add\n      dup1\n      dup3\n      sstore\n      dup1\n      swap2\n      pop\n      pop\n      0x01\n      swap1\n      sub\n      swap1\n      0x00\n      mstore\n      keccak256(0x00, 0x20)\n      add\n      0x00\n      swap1\n      swap2\n      swap1\n      swap2\n      swap1\n      swap2\n      0x0100\n      exp\n      dup2\n      sload\n      dup2\n      0xffffffffffffffffffffffffffffffffffffffff\n      mul\n      not\n      and\n      swap1\n      dup4\n      0xffffffffffffffffffffffffffffffffffffffff\n      and\n      mul\n      or\n      swap1\n      sstore\n      pop\n        /* \"contracts/QuailFinance.sol\":8521:8522  1 */\n      0x01\n        /* \"contracts/QuailFinance.sol\":8486:8490  pots */\n      0x07\n        /* \"contracts/QuailFinance.sol\":8486:8498  pots[_potId] */\n      0x00\n        /* \"contracts/QuailFinance.sol\":8491:8497  _potId */\n      dup10\n        /* \"contracts/QuailFinance.sol\":8486:8498  pots[_potId] */\n      dup2\n      mstore\n      0x20\n      add\n      swap1\n      dup2\n      mstore\n      0x20\n      add\n      0x00\n      keccak256\n        /* \"contracts/QuailFinance.sol\":8486:8511  pots[_potId].participants */\n      0x0a\n      add\n        /* \"contracts/QuailFinance.sol\":8486:8518  pots[_potId].participants.length */\n      dup1\n      sload\n      swap1\n      pop\n        /* \"contracts/QuailFinance.sol\":8486:8522  pots[_potId].participants.length - 1 */\n      tag_182\n      swap2\n      swap1\n      tag_183\n      jump\t// in\n    tag_182:\n        /* \"contracts/QuailFinance.sol\":8471:8482  winnerIndex */\n      dup3\n        /* \"contracts/QuailFinance.sol\":8471:8522  winnerIndex != pots[_potId].participants.length - 1 */\n      eq\n        /* \"contracts/QuailFinance.sol\":8467:8727  if (winnerIndex != pots[_potId].participants.length - 1) {... */\n      tag_184\n      jumpi\n        /* \"contracts/QuailFinance.sol\":8653:8657  pots */\n      0x07\n        /* \"contracts/QuailFinance.sol\":8653:8665  pots[_potId] */\n      0x00\n        /* \"contracts/QuailFinance.sol\":8658:8664  _potId */\n      dup9\n        /* \"contracts/QuailFinance.sol\":8653:8665  pots[_potId] */\n      dup2\n      mstore\n      0x20\n      add\n      swap1\n      dup2\n      mstore\n      0x20\n      add\n      0x00\n      keccak256\n        /* \"contracts/QuailFinance.sol\":8653:8678  pots[_potId].participants */\n      0x0a\n      add\n        /* \"contracts/QuailFinance.sol\":8714:8715  1 */\n      0x01\n        /* \"contracts/QuailFinance.sol\":8679:8683  pots */\n      0x07\n        /* \"contracts/QuailFinance.sol\":8679:8691  pots[_potId] */\n      0x00\n        /* \"contracts/QuailFinance.sol\":8684:8690  _potId */\n      dup11\n        /* \"contracts/QuailFinance.sol\":8679:8691  pots[_potId] */\n      dup2\n      mstore\n      0x20\n      add\n      swap1\n      dup2\n      mstore\n      0x20\n      add\n      0x00\n      keccak256\n        /* \"contracts/QuailFinance.sol\":8679:8704  pots[_potId].participants */\n      0x0a\n      add\n        /* \"contracts/QuailFinance.sol\":8679:8711  pots[_potId].participants.length */\n      dup1\n      sload\n      swap1\n      pop\n        /* \"contracts/QuailFinance.sol\":8679:8715  pots[_potId].participants.length - 1 */\n      tag_185\n      swap2\n      swap1\n      tag_183\n      jump\t// in\n    tag_185:\n        /* \"contracts/QuailFinance.sol\":8653:8716  pots[_potId].participants[pots[_potId].participants.length - 1] */\n      dup2\n      sload\n      dup2\n      lt\n      tag_186\n      jumpi\n      tag_187\n      tag_179\n      jump\t// in\n    tag_187:\n    tag_186:\n      swap1\n      0x00\n      mstore\n      keccak256(0x00, 0x20)\n      add\n      0x00\n      swap1\n      sload\n      swap1\n      0x0100\n      exp\n      swap1\n      div\n      0xffffffffffffffffffffffffffffffffffffffff\n      and\n        /* \"contracts/QuailFinance.sol\":8612:8616  pots */\n      0x07\n        /* \"contracts/QuailFinance.sol\":8612:8624  pots[_potId] */\n      0x00\n        /* \"contracts/QuailFinance.sol\":8617:8623  _potId */\n      dup10\n        /* \"contracts/QuailFinance.sol\":8612:8624  pots[_potId] */\n      dup2\n      mstore\n      0x20\n      add\n      swap1\n      dup2\n      mstore\n      0x20\n      add\n      0x00\n      keccak256\n        /* \"contracts/QuailFinance.sol\":8612:8637  pots[_potId].participants */\n      0x0a\n      add\n        /* \"contracts/QuailFinance.sol\":8638:8649  winnerIndex */\n      dup4\n        /* \"contracts/QuailFinance.sol\":8612:8650  pots[_potId].participants[winnerIndex] */\n      dup2\n      sload\n      dup2\n      lt\n      tag_189\n      jumpi\n      tag_190\n      tag_179\n      jump\t// in\n    tag_190:\n    tag_189:\n      swap1\n      0x00\n      mstore\n      keccak256(0x00, 0x20)\n      add\n      0x00\n        /* \"contracts/QuailFinance.sol\":8612:8716  pots[_potId].participants[winnerIndex] = pots[_potId].participants[pots[_potId].participants.length - 1] */\n      0x0100\n      exp\n      dup2\n      sload\n      dup2\n      0xffffffffffffffffffffffffffffffffffffffff\n      mul\n      not\n      and\n      swap1\n      dup4\n      0xffffffffffffffffffffffffffffffffffffffff\n      and\n      mul\n      or\n      swap1\n      sstore\n      pop\n        /* \"contracts/QuailFinance.sol\":8467:8727  if (winnerIndex != pots[_potId].participants.length - 1) {... */\n    tag_184:\n        /* \"contracts/QuailFinance.sol\":8736:8740  pots */\n      0x07\n        /* \"contracts/QuailFinance.sol\":8736:8748  pots[_potId] */\n      0x00\n        /* \"contracts/QuailFinance.sol\":8741:8747  _potId */\n      dup9\n        /* \"contracts/QuailFinance.sol\":8736:8748  pots[_potId] */\n      dup2\n      mstore\n      0x20\n      add\n      swap1\n      dup2\n      mstore\n      0x20\n      add\n      0x00\n      keccak256\n        /* \"contracts/QuailFinance.sol\":8736:8761  pots[_potId].participants */\n      0x0a\n      add\n        /* \"contracts/QuailFinance.sol\":8736:8767  pots[_potId].participants.pop() */\n      dup1\n      sload\n      dup1\n      tag_192\n      jumpi\n      tag_193\n      tag_194\n      jump\t// in\n    tag_193:\n    tag_192:\n      0x01\n      swap1\n      sub\n      dup2\n      dup2\n      swap1\n      0x00\n      mstore\n      keccak256(0x00, 0x20)\n      add\n      exp(0x0100, 0x00)\n      dup2\n      sload\n      swap1\n      0xffffffffffffffffffffffffffffffffffffffff\n      mul\n      not\n      and\n      swap1\n      sstore\n      swap1\n      sstore\n        /* \"contracts/QuailFinance.sol\":8941:8963  uint256 totalPotAmount */\n      0x00\n        /* \"contracts/QuailFinance.sol\":8992:8995  pot */\n      dup5\n        /* \"contracts/QuailFinance.sol\":8992:9002  pot.amount */\n      0x01\n      add\n      sload\n        /* \"contracts/QuailFinance.sol\":8966:8969  pot */\n      dup6\n        /* \"contracts/QuailFinance.sol\":8966:8982  pot.participants */\n      0x0a\n      add\n        /* \"contracts/QuailFinance.sol\":8966:8989  pot.participants.length */\n      dup1\n      sload\n      swap1\n      pop\n        /* \"contracts/QuailFinance.sol\":8966:9002  pot.participants.length * pot.amount */\n      tag_196\n      swap2\n      swap1\n      tag_197\n      jump\t// in\n    tag_196:\n        /* \"contracts/QuailFinance.sol\":8941:9002  uint256 totalPotAmount = pot.participants.length * pot.amount */\n      swap1\n      pop\n        /* \"contracts/QuailFinance.sol\":9012:9038  uint256 amountAfterRevenue */\n      0x00\n        /* \"contracts/QuailFinance.sol\":9041:9070  deductRevenue(totalPotAmount) */\n      tag_198\n        /* \"contracts/QuailFinance.sol\":9055:9069  totalPotAmount */\n      dup3\n        /* \"contracts/QuailFinance.sol\":9041:9054  deductRevenue */\n      tag_199\n        /* \"contracts/QuailFinance.sol\":9041:9070  deductRevenue(totalPotAmount) */\n      jump\t// in\n    tag_198:\n        /* \"contracts/QuailFinance.sol\":9012:9070  uint256 amountAfterRevenue = deductRevenue(totalPotAmount) */\n      swap1\n      pop\n        /* \"contracts/QuailFinance.sol\":9080:9103  uint256 riskPoolBalance */\n      0x00\n        /* \"contracts/QuailFinance.sol\":9106:9157  calculateRiskPoolBalance(_potId,amountAfterRevenue) */\n      tag_200\n        /* \"contracts/QuailFinance.sol\":9131:9137  _potId */\n      dup11\n        /* \"contracts/QuailFinance.sol\":9138:9156  amountAfterRevenue */\n      dup4\n        /* \"contracts/QuailFinance.sol\":9106:9130  calculateRiskPoolBalance */\n      tag_83\n        /* \"contracts/QuailFinance.sol\":9106:9157  calculateRiskPoolBalance(_potId,amountAfterRevenue) */\n      jump\t// in\n    tag_200:\n        /* \"contracts/QuailFinance.sol\":9080:9157  uint256 riskPoolBalance = calculateRiskPoolBalance(_potId,amountAfterRevenue) */\n      swap1\n      pop\n        /* \"contracts/QuailFinance.sol\":9189:9204  riskPoolBalance */\n      dup1\n        /* \"contracts/QuailFinance.sol\":9167:9170  pot */\n      dup8\n        /* \"contracts/QuailFinance.sol\":9167:9186  pot.riskPoolBalance */\n      0x02\n      add\n        /* \"contracts/QuailFinance.sol\":9167:9204  pot.riskPoolBalance = riskPoolBalance */\n      dup2\n      swap1\n      sstore\n      pop\n        /* \"contracts/QuailFinance.sol\":9257:9272  riskPoolBalance */\n      dup1\n        /* \"contracts/QuailFinance.sol\":9238:9256  amountAfterRevenue */\n      dup3\n        /* \"contracts/QuailFinance.sol\":9238:9272  amountAfterRevenue-riskPoolBalance */\n      tag_201\n      swap2\n      swap1\n      tag_183\n      jump\t// in\n    tag_201:\n        /* \"contracts/QuailFinance.sol\":9214:9217  pot */\n      dup8\n        /* \"contracts/QuailFinance.sol\":9214:9227  pot.amountWon */\n      0x0d\n      add\n        /* \"contracts/QuailFinance.sol\":9214:9235  pot.amountWon[winner] */\n      0x00\n        /* \"contracts/QuailFinance.sol\":9228:9234  winner */\n      dup7\n        /* \"contracts/QuailFinance.sol\":9214:9235  pot.amountWon[winner] */\n      0xffffffffffffffffffffffffffffffffffffffff\n      and\n      0xffffffffffffffffffffffffffffffffffffffff\n      and\n      dup2\n      mstore\n      0x20\n      add\n      swap1\n      dup2\n      mstore\n      0x20\n      add\n      0x00\n      keccak256\n        /* \"contracts/QuailFinance.sol\":9214:9272  pot.amountWon[winner] = amountAfterRevenue-riskPoolBalance */\n      dup2\n      swap1\n      sstore\n      pop\n        /* \"contracts/QuailFinance.sol\":9303:9307  true */\n      0x01\n        /* \"contracts/QuailFinance.sol\":9282:9285  pot */\n      dup8\n        /* \"contracts/QuailFinance.sol\":9282:9292  pot.hasWon */\n      0x0e\n      add\n        /* \"contracts/QuailFinance.sol\":9282:9300  pot.hasWon[winner] */\n      0x00\n        /* \"contracts/QuailFinance.sol\":9293:9299  winner */\n      dup7\n        /* \"contracts/QuailFinance.sol\":9282:9300  pot.hasWon[winner] */\n      0xffffffffffffffffffffffffffffffffffffffff\n      and\n      0xffffffffffffffffffffffffffffffffffffffff\n      and\n      dup2\n      mstore\n      0x20\n      add\n      swap1\n      dup2\n      mstore\n      0x20\n      add\n      0x00\n      keccak256\n      0x00\n        /* \"contracts/QuailFinance.sol\":9282:9307  pot.hasWon[winner] = true */\n      0x0100\n      exp\n      dup2\n      sload\n      dup2\n      0xff\n      mul\n      not\n      and\n      swap1\n      dup4\n      iszero\n      iszero\n      mul\n      or\n      swap1\n      sstore\n      pop\n        /* \"contracts/QuailFinance.sol\":9340:9355  block.timestamp */\n      timestamp\n        /* \"contracts/QuailFinance.sol\":9317:9320  pot */\n      dup8\n        /* \"contracts/QuailFinance.sol\":9317:9337  pot.lastRotationTime */\n      0x04\n      add\n        /* \"contracts/QuailFinance.sol\":9317:9355  pot.lastRotationTime = block.timestamp */\n      dup2\n      swap1\n      sstore\n      pop\n        /* \"contracts/QuailFinance.sol\":9372:9375  pot */\n      dup7\n        /* \"contracts/QuailFinance.sol\":9372:9388  pot.participants */\n      0x0a\n      add\n      0x00\n        /* \"contracts/QuailFinance.sol\":9365:9388  delete pot.participants */\n      tag_202\n      swap2\n      swap1\n      tag_203\n      jump\t// in\n    tag_202:\n        /* \"contracts/QuailFinance.sol\":9406:9415  usdbToken */\n      0x05\n      0x00\n      swap1\n      sload\n      swap1\n      0x0100\n      exp\n      swap1\n      div\n      0xffffffffffffffffffffffffffffffffffffffff\n      and\n        /* \"contracts/QuailFinance.sol\":9406:9428  usdbToken.transferFrom */\n      0xffffffffffffffffffffffffffffffffffffffff\n      and\n      0x23b872dd\n        /* \"contracts/QuailFinance.sol\":9429:9439  msg.sender */\n      caller\n        /* \"contracts/QuailFinance.sol\":9449:9453  this */\n      address\n        /* \"contracts/QuailFinance.sol\":9456:9459  pot */\n      dup11\n        /* \"contracts/QuailFinance.sol\":9456:9466  pot.amount */\n      0x01\n      add\n      sload\n        /* \"contracts/QuailFinance.sol\":9406:9467  usdbToken.transferFrom(msg.sender, address(this), pot.amount) */\n      mload(0x40)\n      dup5\n      0xffffffff\n      and\n      0xe0\n      shl\n      dup2\n      mstore\n      0x04\n      add\n      tag_204\n      swap4\n      swap3\n      swap2\n      swap1\n      tag_141\n      jump\t// in\n    tag_204:\n      0x20\n      mload(0x40)\n      dup1\n      dup4\n      sub\n      dup2\n      0x00\n      dup8\n      gas\n      call\n      iszero\n      dup1\n      iszero\n      tag_206\n      jumpi\n      returndatasize\n      0x00\n      dup1\n      returndatacopy\n      revert(0x00, returndatasize)\n    tag_206:\n      pop\n      pop\n      pop\n      pop\n      mload(0x40)\n      returndatasize\n      not(0x1f)\n      0x1f\n      dup3\n      add\n      and\n      dup3\n      add\n      dup1\n      0x40\n      mstore\n      pop\n      dup2\n      add\n      swap1\n      tag_207\n      swap2\n      swap1\n      tag_145\n      jump\t// in\n    tag_207:\n        /* \"contracts/QuailFinance.sol\":9398:9513  require(usdbToken.transferFrom(msg.sender, address(this), pot.amount), \"Creator should deposit the initial amount\") */\n      tag_208\n      jumpi\n      mload(0x40)\n      0x08c379a000000000000000000000000000000000000000000000000000000000\n      dup2\n      mstore\n      0x04\n      add\n      tag_209\n      swap1\n      tag_148\n      jump\t// in\n    tag_209:\n      mload(0x40)\n      dup1\n      swap2\n      sub\n      swap1\n      revert\n    tag_208:\n        /* \"contracts/QuailFinance.sol\":9523:9526  pot */\n      dup7\n        /* \"contracts/QuailFinance.sol\":9523:9539  pot.participants */\n      0x0a\n      add\n        /* \"contracts/QuailFinance.sol\":9545:9555  msg.sender */\n      caller\n        /* \"contracts/QuailFinance.sol\":9523:9556  pot.participants.push(msg.sender) */\n      swap1\n      dup1\n      0x01\n      dup2\n      sload\n      add\n      dup1\n      dup3\n      sstore\n      dup1\n      swap2\n      pop\n      pop\n      0x01\n      swap1\n      sub\n      swap1\n      0x00\n      mstore\n      keccak256(0x00, 0x20)\n      add\n      0x00\n      swap1\n      swap2\n      swap1\n      swap2\n      swap1\n      swap2\n      0x0100\n      exp\n      dup2\n      sload\n      dup2\n      0xffffffffffffffffffffffffffffffffffffffff\n      mul\n      not\n      and\n      swap1\n      dup4\n      0xffffffffffffffffffffffffffffffffffffffff\n      and\n      mul\n      or\n      swap1\n      sstore\n      pop\n        /* \"contracts/QuailFinance.sol\":9571:9622  RotationCompleted(_potId, winner, pot.currentRound) */\n      0x35cb3811461cb824b245820eee97ab50ee1cc609f2bdd3bb10f5f0010184a7d3\n        /* \"contracts/QuailFinance.sol\":9589:9595  _potId */\n      dup11\n        /* \"contracts/QuailFinance.sol\":9597:9603  winner */\n      dup6\n        /* \"contracts/QuailFinance.sol\":9605:9608  pot */\n      dup10\n        /* \"contracts/QuailFinance.sol\":9605:9621  pot.currentRound */\n      0x08\n      add\n      sload\n        /* \"contracts/QuailFinance.sol\":9571:9622  RotationCompleted(_potId, winner, pot.currentRound) */\n      mload(0x40)\n      tag_211\n      swap4\n      swap3\n      swap2\n      swap1\n      tag_212\n      jump\t// in\n    tag_211:\n      mload(0x40)\n      dup1\n      swap2\n      sub\n      swap1\n      log1\n        /* \"contracts/QuailFinance.sol\":9681:9684  pot */\n      dup7\n        /* \"contracts/QuailFinance.sol\":9681:9697  pot.currentRound */\n      0x08\n      add\n      0x00\n        /* \"contracts/QuailFinance.sol\":9681:9699  pot.currentRound++ */\n      dup2\n      sload\n      dup1\n      swap3\n      swap2\n      swap1\n      tag_213\n      swap1\n      tag_139\n      jump\t// in\n    tag_213:\n      swap2\n      swap1\n      pop\n      sstore\n      pop\n        /* \"contracts/QuailFinance.sol\":7921:9706  {... */\n      pop\n      pop\n      pop\n      pop\n      pop\n      pop\n      pop\n        /* \"contracts/QuailFinance.sol\":7829:9706  function rotateLiquidity(uint256 _potId, bytes32 userRandom, bytes32 providerRandom) public {... */\n      pop\n      pop\n      pop\n      jump\t// out\n        /* \"contracts/QuailFinance.sol\":11398:11582  function claimAllYield() external onlyOwner {... */\n    tag_47:\n        /* \"@openzeppelin/contracts-upgradeable/access/OwnableUpgradeable.sol\":2334:2347  _checkOwner() */\n      tag_215\n        /* \"@openzeppelin/contracts-upgradeable/access/OwnableUpgradeable.sol\":2334:2345  _checkOwner */\n      tag_216\n        /* \"@openzeppelin/contracts-upgradeable/access/OwnableUpgradeable.sol\":2334:2347  _checkOwner() */\n      jump\t// in\n    tag_215:\n        /* \"contracts/QuailFinance.sol\":4210:4252  0x4200000000000000000000000000000000000022 */\n      0x4200000000000000000000000000000000000022\n        /* \"contracts/QuailFinance.sol\":11510:11520  USDB.claim */\n      0xffffffffffffffffffffffffffffffffffffffff\n      and\n      0xaad3ec96\n        /* \"contracts/QuailFinance.sol\":11529:11533  this */\n      address\n        /* \"contracts/QuailFinance.sol\":4210:4252  0x4200000000000000000000000000000000000022 */\n      0x4200000000000000000000000000000000000022\n        /* \"contracts/QuailFinance.sol\":11536:11559  USDB.getClaimableAmount */\n      0xffffffffffffffffffffffffffffffffffffffff\n      and\n      0xe12f3a61\n        /* \"contracts/QuailFinance.sol\":11568:11572  this */\n      address\n        /* \"contracts/QuailFinance.sol\":11536:11574  USDB.getClaimableAmount(address(this)) */\n      mload(0x40)\n      dup3\n      0xffffffff\n      and\n      0xe0\n      shl\n      dup2\n      mstore\n      0x04\n      add\n      tag_218\n      swap2\n      swap1\n      tag_96\n      jump\t// in\n    tag_218:\n      0x20\n      mload(0x40)\n      dup1\n      dup4\n      sub\n      dup2\n      dup7\n      gas\n      staticcall\n      iszero\n      dup1\n      iszero\n      tag_220\n      jumpi\n      returndatasize\n      0x00\n      dup1\n      returndatacopy\n      revert(0x00, returndatasize)\n    tag_220:\n      pop\n      pop\n      pop\n      pop\n      mload(0x40)\n      returndatasize\n      not(0x1f)\n      0x1f\n      dup3\n      add\n      and\n      dup3\n      add\n      dup1\n      0x40\n      mstore\n      pop\n      dup2\n      add\n      swap1\n      tag_221\n      swap2\n      swap1\n      tag_222\n      jump\t// in\n    tag_221:\n        /* \"contracts/QuailFinance.sol\":11510:11575  USDB.claim(address(this), USDB.getClaimableAmount(address(this))) */\n      mload(0x40)\n      dup4\n      0xffffffff\n      and\n      0xe0\n      shl\n      dup2\n      mstore\n      0x04\n      add\n      tag_223\n      swap3\n      swap2\n      swap1\n      tag_224\n      jump\t// in\n    tag_223:\n      0x20\n      mload(0x40)\n      dup1\n      dup4\n      sub\n      dup2\n      0x00\n      dup8\n      gas\n      call\n      iszero\n      dup1\n      iszero\n      tag_226\n      jumpi\n      returndatasize\n      0x00\n      dup1\n      returndatacopy\n      revert(0x00, returndatasize)\n    tag_226:\n      pop\n      pop\n      pop\n      pop\n      mload(0x40)\n      returndatasize\n      not(0x1f)\n      0x1f\n      dup3\n      add\n      and\n      dup3\n      add\n      dup1\n      0x40\n      mstore\n      pop\n      dup2\n      add\n      swap1\n      tag_227\n      swap2\n      swap1\n      tag_222\n      jump\t// in\n    tag_227:\n      pop\n        /* \"contracts/QuailFinance.sol\":11398:11582  function claimAllYield() external onlyOwner {... */\n      jump\t// out\n        /* \"contracts/QuailFinance.sol\":865:888  IERC20 public usdbToken */\n    tag_50:\n      0x05\n      0x00\n      swap1\n      sload\n      swap1\n      0x0100\n      exp\n      swap1\n      div\n      0xffffffffffffffffffffffffffffffffffffffff\n      and\n      dup2\n      jump\t// out\n        /* \"contracts/QuailFinance.sol\":10839:11244  function withdrawRevenue() external onlyOwner {... */\n    tag_55:\n        /* \"@openzeppelin/contracts-upgradeable/access/OwnableUpgradeable.sol\":2334:2347  _checkOwner() */\n      tag_229\n        /* \"@openzeppelin/contracts-upgradeable/access/OwnableUpgradeable.sol\":2334:2345  _checkOwner */\n      tag_216\n        /* \"@openzeppelin/contracts-upgradeable/access/OwnableUpgradeable.sol\":2334:2347  _checkOwner() */\n      jump\t// in\n    tag_229:\n        /* \"contracts/QuailFinance.sol\":10895:10916  uint256 revenueAmount */\n      0x00\n        /* \"contracts/QuailFinance.sol\":10919:10931  totalRevenue */\n      sload(0x04)\n        /* \"contracts/QuailFinance.sol\":10895:10931  uint256 revenueAmount = totalRevenue */\n      swap1\n      pop\n        /* \"contracts/QuailFinance.sol\":10965:10966  0 */\n      0x00\n        /* \"contracts/QuailFinance.sol\":10949:10962  revenueAmount */\n      dup2\n        /* \"contracts/QuailFinance.sol\":10949:10966  revenueAmount > 0 */\n      gt\n        /* \"contracts/QuailFinance.sol\":10941:10993  require(revenueAmount > 0, \"No revenue to withdraw\") */\n      tag_231\n      jumpi\n      mload(0x40)\n      0x08c379a000000000000000000000000000000000000000000000000000000000\n      dup2\n      mstore\n      0x04\n      add\n      tag_232\n      swap1\n      tag_233\n      jump\t// in\n    tag_232:\n      mload(0x40)\n      dup1\n      swap2\n      sub\n      swap1\n      revert\n    tag_231:\n        /* \"contracts/QuailFinance.sol\":11018:11019  0 */\n      0x00\n        /* \"contracts/QuailFinance.sol\":11003:11015  totalRevenue */\n      0x04\n        /* \"contracts/QuailFinance.sol\":11003:11019  totalRevenue = 0 */\n      dup2\n      swap1\n      sstore\n      pop\n        /* \"contracts/QuailFinance.sol\":11159:11168  usdbToken */\n      0x05\n      0x00\n      swap1\n      sload\n      swap1\n      0x0100\n      exp\n      swap1\n      div\n      0xffffffffffffffffffffffffffffffffffffffff\n      and\n        /* \"contracts/QuailFinance.sol\":11159:11177  usdbToken.transfer */\n      0xffffffffffffffffffffffffffffffffffffffff\n      and\n      0xa9059cbb\n        /* \"contracts/QuailFinance.sol\":11186:11190  this */\n      address\n        /* \"contracts/QuailFinance.sol\":11193:11206  revenueAmount */\n      dup4\n        /* \"contracts/QuailFinance.sol\":11159:11207  usdbToken.transfer(address(this), revenueAmount) */\n      mload(0x40)\n      dup4\n      0xffffffff\n      and\n      0xe0\n      shl\n      dup2\n      mstore\n      0x04\n      add\n      tag_234\n      swap3\n      swap2\n      swap1\n      tag_224\n      jump\t// in\n    tag_234:\n      0x20\n      mload(0x40)\n      dup1\n      dup4\n      sub\n      dup2\n      0x00\n      dup8\n      gas\n      call\n      iszero\n      dup1\n      iszero\n      tag_236\n      jumpi\n      returndatasize\n      0x00\n      dup1\n      returndatacopy\n      revert(0x00, returndatasize)\n    tag_236:\n      pop\n      pop\n      pop\n      pop\n      mload(0x40)\n      returndatasize\n      not(0x1f)\n      0x1f\n      dup3\n      add\n      and\n      dup3\n      add\n      dup1\n      0x40\n      mstore\n      pop\n      dup2\n      add\n      swap1\n      tag_237\n      swap2\n      swap1\n      tag_145\n      jump\t// in\n    tag_237:\n        /* \"contracts/QuailFinance.sol\":11151:11237  require(usdbToken.transfer(address(this), revenueAmount), \"Revenue withdrawal failed\") */\n      tag_238\n      jumpi\n      mload(0x40)\n      0x08c379a000000000000000000000000000000000000000000000000000000000\n      dup2\n      mstore\n      0x04\n      add\n      tag_239\n      swap1\n      tag_240\n      jump\t// in\n    tag_239:\n      mload(0x40)\n      dup1\n      swap2\n      sub\n      swap1\n      revert\n    tag_238:\n        /* \"contracts/QuailFinance.sol\":10885:11244  {... */\n      pop\n        /* \"contracts/QuailFinance.sol\":10839:11244  function withdrawRevenue() external onlyOwner {... */\n      jump\t// out\n        /* \"contracts/QuailFinance.sol\":11698:12420  function claimFunds(uint256 claimAmount, bytes32[] calldata merkleProof) external {... */\n    tag_60:\n        /* \"contracts/QuailFinance.sol\":11825:11837  bytes32 leaf */\n      0x00\n        /* \"contracts/QuailFinance.sol\":11867:11877  msg.sender */\n      caller\n        /* \"contracts/QuailFinance.sol\":11879:11890  claimAmount */\n      dup5\n        /* \"contracts/QuailFinance.sol\":11850:11891  abi.encodePacked(msg.sender, claimAmount) */\n      add(0x20, mload(0x40))\n      tag_242\n      swap3\n      swap2\n      swap1\n      tag_243\n      jump\t// in\n    tag_242:\n      mload(0x40)\n      0x20\n      dup2\n      dup4\n      sub\n      sub\n      dup2\n      mstore\n      swap1\n      0x40\n      mstore\n        /* \"contracts/QuailFinance.sol\":11840:11892  keccak256(abi.encodePacked(msg.sender, claimAmount)) */\n      dup1\n      mload\n      swap1\n      0x20\n      add\n      keccak256\n        /* \"contracts/QuailFinance.sol\":11825:11892  bytes32 leaf = keccak256(abi.encodePacked(msg.sender, claimAmount)) */\n      swap1\n      pop\n        /* \"contracts/QuailFinance.sol\":11910:11959  MerkleProof.verify(merkleProof, merkleRoot, leaf) */\n      tag_244\n        /* \"contracts/QuailFinance.sol\":11929:11940  merkleProof */\n      dup4\n      dup4\n        /* \"contracts/QuailFinance.sol\":11910:11959  MerkleProof.verify(merkleProof, merkleRoot, leaf) */\n      dup1\n      dup1\n      0x20\n      mul\n      0x20\n      add\n      mload(0x40)\n      swap1\n      dup2\n      add\n      0x40\n      mstore\n      dup1\n      swap4\n      swap3\n      swap2\n      swap1\n      dup2\n      dup2\n      mstore\n      0x20\n      add\n      dup4\n      dup4\n      0x20\n      mul\n      dup1\n      dup3\n      dup5\n      calldatacopy\n      0x00\n      dup2\n      dup5\n      add\n      mstore\n      not(0x1f)\n      0x1f\n      dup3\n      add\n      and\n      swap1\n      pop\n      dup1\n      dup4\n      add\n      swap3\n      pop\n      pop\n      pop\n      pop\n      pop\n      pop\n      pop\n        /* \"contracts/QuailFinance.sol\":11942:11952  merkleRoot */\n      sload(0x02)\n        /* \"contracts/QuailFinance.sol\":11954:11958  leaf */\n      dup4\n        /* \"contracts/QuailFinance.sol\":11910:11928  MerkleProof.verify */\n      tag_245\n        /* \"contracts/QuailFinance.sol\":11910:11959  MerkleProof.verify(merkleProof, merkleRoot, leaf) */\n      jump\t// in\n    tag_244:\n        /* \"contracts/QuailFinance.sol\":11902:11978  require(MerkleProof.verify(merkleProof, merkleRoot, leaf), \"Invalid proof.\") */\n      tag_246\n      jumpi\n      mload(0x40)\n      0x08c379a000000000000000000000000000000000000000000000000000000000\n      dup2\n      mstore\n      0x04\n      add\n      tag_247\n      swap1\n      tag_248\n      jump\t// in\n    tag_247:\n      mload(0x40)\n      dup1\n      swap2\n      sub\n      swap1\n      revert\n    tag_246:\n        /* \"contracts/QuailFinance.sol\":11988:12010  uint256 alreadyClaimed */\n      0x00\n        /* \"contracts/QuailFinance.sol\":12013:12023  hasClaimed */\n      0x06\n        /* \"contracts/QuailFinance.sol\":12013:12035  hasClaimed[msg.sender] */\n      0x00\n        /* \"contracts/QuailFinance.sol\":12024:12034  msg.sender */\n      caller\n        /* \"contracts/QuailFinance.sol\":12013:12035  hasClaimed[msg.sender] */\n      0xffffffffffffffffffffffffffffffffffffffff\n      and\n      0xffffffffffffffffffffffffffffffffffffffff\n      and\n      dup2\n      mstore\n      0x20\n      add\n      swap1\n      dup2\n      mstore\n      0x20\n      add\n      0x00\n      keccak256\n      sload\n        /* \"contracts/QuailFinance.sol\":11988:12035  uint256 alreadyClaimed = hasClaimed[msg.sender] */\n      swap1\n      pop\n        /* \"contracts/QuailFinance.sol\":12070:12081  claimAmount */\n      dup5\n        /* \"contracts/QuailFinance.sol\":12053:12067  alreadyClaimed */\n      dup2\n        /* \"contracts/QuailFinance.sol\":12053:12081  alreadyClaimed < claimAmount */\n      lt\n        /* \"contracts/QuailFinance.sol\":12045:12128  require(alreadyClaimed < claimAmount, \"No funds left to claim or already claimed.\") */\n      tag_249\n      jumpi\n      mload(0x40)\n      0x08c379a000000000000000000000000000000000000000000000000000000000\n      dup2\n      mstore\n      0x04\n      add\n      tag_250\n      swap1\n      tag_251\n      jump\t// in\n    tag_250:\n      mload(0x40)\n      dup1\n      swap2\n      sub\n      swap1\n      revert\n    tag_249:\n        /* \"contracts/QuailFinance.sol\":12138:12161  uint256 claimableAmount */\n      0x00\n        /* \"contracts/QuailFinance.sol\":12178:12192  alreadyClaimed */\n      dup2\n        /* \"contracts/QuailFinance.sol\":12164:12175  claimAmount */\n      dup7\n        /* \"contracts/QuailFinance.sol\":12164:12192  claimAmount - alreadyClaimed */\n      tag_252\n      swap2\n      swap1\n      tag_183\n      jump\t// in\n    tag_252:\n        /* \"contracts/QuailFinance.sol\":12138:12192  uint256 claimableAmount = claimAmount - alreadyClaimed */\n      swap1\n      pop\n        /* \"contracts/QuailFinance.sol\":12264:12275  claimAmount */\n      dup6\n        /* \"contracts/QuailFinance.sol\":12239:12249  hasClaimed */\n      0x06\n        /* \"contracts/QuailFinance.sol\":12239:12261  hasClaimed[msg.sender] */\n      0x00\n        /* \"contracts/QuailFinance.sol\":12250:12260  msg.sender */\n      caller\n        /* \"contracts/QuailFinance.sol\":12239:12261  hasClaimed[msg.sender] */\n      0xffffffffffffffffffffffffffffffffffffffff\n      and\n      0xffffffffffffffffffffffffffffffffffffffff\n      and\n      dup2\n      mstore\n      0x20\n      add\n      swap1\n      dup2\n      mstore\n      0x20\n      add\n      0x00\n      keccak256\n        /* \"contracts/QuailFinance.sol\":12239:12275  hasClaimed[msg.sender] = claimAmount */\n      dup2\n      swap1\n      sstore\n      pop\n        /* \"contracts/QuailFinance.sol\":12340:12349  usdbToken */\n      0x05\n      0x00\n      swap1\n      sload\n      swap1\n      0x0100\n      exp\n      swap1\n      div\n      0xffffffffffffffffffffffffffffffffffffffff\n      and\n        /* \"contracts/QuailFinance.sol\":12340:12358  usdbToken.transfer */\n      0xffffffffffffffffffffffffffffffffffffffff\n      and\n      0xa9059cbb\n        /* \"contracts/QuailFinance.sol\":12359:12369  msg.sender */\n      caller\n        /* \"contracts/QuailFinance.sol\":12371:12386  claimableAmount */\n      dup4\n        /* \"contracts/QuailFinance.sol\":12340:12387  usdbToken.transfer(msg.sender, claimableAmount) */\n      mload(0x40)\n      dup4\n      0xffffffff\n      and\n      0xe0\n      shl\n      dup2\n      mstore\n      0x04\n      add\n      tag_253\n      swap3\n      swap2\n      swap1\n      tag_224\n      jump\t// in\n    tag_253:\n      0x20\n      mload(0x40)\n      dup1\n      dup4\n      sub\n      dup2\n      0x00\n      dup8\n      gas\n      call\n      iszero\n      dup1\n      iszero\n      tag_255\n      jumpi\n      returndatasize\n      0x00\n      dup1\n      returndatacopy\n      revert(0x00, returndatasize)\n    tag_255:\n      pop\n      pop\n      pop\n      pop\n      mload(0x40)\n      returndatasize\n      not(0x1f)\n      0x1f\n      dup3\n      add\n      and\n      dup3\n      add\n      dup1\n      0x40\n      mstore\n      pop\n      dup2\n      add\n      swap1\n      tag_256\n      swap2\n      swap1\n      tag_145\n      jump\t// in\n    tag_256:\n        /* \"contracts/QuailFinance.sol\":12332:12413  require(usdbToken.transfer(msg.sender, claimableAmount), \"Yield transfer failed\") */\n      tag_257\n      jumpi\n      mload(0x40)\n      0x08c379a000000000000000000000000000000000000000000000000000000000\n      dup2\n      mstore\n      0x04\n      add\n      tag_258\n      swap1\n      tag_259\n      jump\t// in\n    tag_258:\n      mload(0x40)\n      dup1\n      swap2\n      sub\n      swap1\n      revert\n    tag_257:\n        /* \"contracts/QuailFinance.sol\":11780:12420  {... */\n      pop\n      pop\n      pop\n        /* \"contracts/QuailFinance.sol\":11698:12420  function claimFunds(uint256 claimAmount, bytes32[] calldata merkleProof) external {... */\n      pop\n      pop\n      pop\n      jump\t// out\n        /* \"@openzeppelin/contracts-upgradeable/access/OwnableUpgradeable.sol\":3155:3256  function renounceOwnership() public virtual onlyOwner {... */\n    tag_63:\n        /* \"@openzeppelin/contracts-upgradeable/access/OwnableUpgradeable.sol\":2334:2347  _checkOwner() */\n      tag_261\n        /* \"@openzeppelin/contracts-upgradeable/access/OwnableUpgradeable.sol\":2334:2345  _checkOwner */\n      tag_216\n        /* \"@openzeppelin/contracts-upgradeable/access/OwnableUpgradeable.sol\":2334:2347  _checkOwner() */\n      jump\t// in\n    tag_261:\n        /* \"@openzeppelin/contracts-upgradeable/access/OwnableUpgradeable.sol\":3219:3249  _transferOwnership(address(0)) */\n      tag_263\n        /* \"@openzeppelin/contracts-upgradeable/access/OwnableUpgradeable.sol\":3246:3247  0 */\n      0x00\n        /* \"@openzeppelin/contracts-upgradeable/access/OwnableUpgradeable.sol\":3219:3237  _transferOwnership */\n      tag_264\n        /* \"@openzeppelin/contracts-upgradeable/access/OwnableUpgradeable.sol\":3219:3249  _transferOwnership(address(0)) */\n      jump\t// in\n    tag_263:\n        /* \"@openzeppelin/contracts-upgradeable/access/OwnableUpgradeable.sol\":3155:3256  function renounceOwnership() public virtual onlyOwner {... */\n      jump\t// out\n        /* \"contracts/QuailFinance.sol\":918:963  mapping(address => uint256) public hasClaimed */\n    tag_68:\n      mstore(0x20, 0x06)\n      dup1\n      0x00\n      mstore\n      keccak256(0x00, 0x40)\n      0x00\n      swap2\n      pop\n      swap1\n      pop\n      sload\n      dup2\n      jump\t// out\n        /* \"contracts/QuailFinance.sol\":11279:11392  function claimMyContractsGas() external onlyOwner{... */\n    tag_73:\n        /* \"@openzeppelin/contracts-upgradeable/access/OwnableUpgradeable.sol\":2334:2347  _checkOwner() */\n      tag_266\n        /* \"@openzeppelin/contracts-upgradeable/access/OwnableUpgradeable.sol\":2334:2345  _checkOwner */\n      tag_216\n        /* \"@openzeppelin/contracts-upgradeable/access/OwnableUpgradeable.sol\":2334:2347  _checkOwner() */\n      jump\t// in\n    tag_266:\n        /* \"contracts/QuailFinance.sol\":783:825  0x4300000000000000000000000000000000000002 */\n      0x4300000000000000000000000000000000000002\n        /* \"contracts/QuailFinance.sol\":11338:11355  BLAST.claimAllGas */\n      0xffffffffffffffffffffffffffffffffffffffff\n      and\n      0x954fa5ee\n        /* \"contracts/QuailFinance.sol\":11364:11368  this */\n      address\n        /* \"contracts/QuailFinance.sol\":11379:11383  this */\n      address\n        /* \"contracts/QuailFinance.sol\":11338:11385  BLAST.claimAllGas(address(this), address(this)) */\n      mload(0x40)\n      dup4\n      0xffffffff\n      and\n      0xe0\n      shl\n      dup2\n      mstore\n      0x04\n      add\n      tag_268\n      swap3\n      swap2\n      swap1\n      tag_269\n      jump\t// in\n    tag_268:\n      0x20\n      mload(0x40)\n      dup1\n      dup4\n      sub\n      dup2\n      0x00\n      dup8\n      gas\n      call\n      iszero\n      dup1\n      iszero\n      tag_271\n      jumpi\n      returndatasize\n      0x00\n      dup1\n      returndatacopy\n      revert(0x00, returndatasize)\n    tag_271:\n      pop\n      pop\n      pop\n      pop\n      mload(0x40)\n      returndatasize\n      not(0x1f)\n      0x1f\n      dup3\n      add\n      and\n      dup3\n      add\n      dup1\n      0x40\n      mstore\n      pop\n      dup2\n      add\n      swap1\n      tag_272\n      swap2\n      swap1\n      tag_222\n      jump\t// in\n    tag_272:\n      pop\n        /* \"contracts/QuailFinance.sol\":11279:11392  function claimMyContractsGas() external onlyOwner{... */\n      jump\t// out\n        /* \"contracts/QuailFinance.sol\":11588:11692  function setMerkleRoot(bytes32 _merkleRoot) external onlyOwner {... */\n    tag_78:\n        /* \"@openzeppelin/contracts-upgradeable/access/OwnableUpgradeable.sol\":2334:2347  _checkOwner() */\n      tag_274\n        /* \"@openzeppelin/contracts-upgradeable/access/OwnableUpgradeable.sol\":2334:2345  _checkOwner */\n      tag_216\n        /* \"@openzeppelin/contracts-upgradeable/access/OwnableUpgradeable.sol\":2334:2347  _checkOwner() */\n      jump\t// in\n    tag_274:\n        /* \"contracts/QuailFinance.sol\":11674:11685  _merkleRoot */\n      dup1\n        /* \"contracts/QuailFinance.sol\":11661:11671  merkleRoot */\n      0x02\n        /* \"contracts/QuailFinance.sol\":11661:11685  merkleRoot = _merkleRoot */\n      dup2\n      swap1\n      sstore\n      pop\n        /* \"contracts/QuailFinance.sol\":11588:11692  function setMerkleRoot(bytes32 _merkleRoot) external onlyOwner {... */\n      pop\n      jump\t// out\n        /* \"contracts/QuailFinance.sol\":10385:10603  function calculateRiskPoolBalance(uint256 _potId, uint256 _amount) public view returns (uint256) {... */\n    tag_83:\n        /* \"contracts/QuailFinance.sol\":10473:10480  uint256 */\n      0x00\n        /* \"contracts/QuailFinance.sol\":10492:10507  Pot storage pot */\n      dup1\n        /* \"contracts/QuailFinance.sol\":10510:10514  pots */\n      0x07\n        /* \"contracts/QuailFinance.sol\":10510:10522  pots[_potId] */\n      0x00\n        /* \"contracts/QuailFinance.sol\":10515:10521  _potId */\n      dup6\n        /* \"contracts/QuailFinance.sol\":10510:10522  pots[_potId] */\n      dup2\n      mstore\n      0x20\n      add\n      swap1\n      dup2\n      mstore\n      0x20\n      add\n      0x00\n      keccak256\n        /* \"contracts/QuailFinance.sol\":10492:10522  Pot storage pot = pots[_potId] */\n      swap1\n      pop\n        /* \"contracts/QuailFinance.sol\":10573:10576  pot */\n      dup1\n        /* \"contracts/QuailFinance.sol\":10573:10596  pot.interestDenominator */\n      0x06\n      add\n      sload\n        /* \"contracts/QuailFinance.sol\":10549:10552  pot */\n      dup2\n        /* \"contracts/QuailFinance.sol\":10549:10570  pot.interestNumerator */\n      0x05\n      add\n      sload\n        /* \"contracts/QuailFinance.sol\":10539:10546  _amount */\n      dup5\n        /* \"contracts/QuailFinance.sol\":10539:10570  _amount * pot.interestNumerator */\n      tag_277\n      swap2\n      swap1\n      tag_197\n      jump\t// in\n    tag_277:\n        /* \"contracts/QuailFinance.sol\":10539:10596  _amount * pot.interestNumerator / pot.interestDenominator */\n      tag_278\n      swap2\n      swap1\n      tag_279\n      jump\t// in\n    tag_278:\n        /* \"contracts/QuailFinance.sol\":10532:10596  return _amount * pot.interestNumerator / pot.interestDenominator */\n      swap2\n      pop\n      pop\n        /* \"contracts/QuailFinance.sol\":10385:10603  function calculateRiskPoolBalance(uint256 _potId, uint256 _amount) public view returns (uint256) {... */\n      swap3\n      swap2\n      pop\n      pop\n      jump\t// out\n        /* \"contracts/QuailFinance.sol\":4260:4418  function initialize() public initializer {... */\n    tag_87:\n        /* \"@openzeppelin/contracts-upgradeable/proxy/utils/Initializable.sol\":4158:4188  InitializableStorage storage $ */\n      0x00\n        /* \"@openzeppelin/contracts-upgradeable/proxy/utils/Initializable.sol\":4191:4217  _getInitializableStorage() */\n      tag_281\n        /* \"@openzeppelin/contracts-upgradeable/proxy/utils/Initializable.sol\":4191:4215  _getInitializableStorage */\n      tag_282\n        /* \"@openzeppelin/contracts-upgradeable/proxy/utils/Initializable.sol\":4191:4217  _getInitializableStorage() */\n      jump\t// in\n    tag_281:\n        /* \"@openzeppelin/contracts-upgradeable/proxy/utils/Initializable.sol\":4158:4217  InitializableStorage storage $ = _getInitializableStorage() */\n      swap1\n      pop\n        /* \"@openzeppelin/contracts-upgradeable/proxy/utils/Initializable.sol\":4279:4298  bool isTopLevelCall */\n      0x00\n        /* \"@openzeppelin/contracts-upgradeable/proxy/utils/Initializable.sol\":4302:4303  $ */\n      dup2\n        /* \"@openzeppelin/contracts-upgradeable/proxy/utils/Initializable.sol\":4302:4317  $._initializing */\n      0x00\n      add\n      0x08\n      swap1\n      sload\n      swap1\n      0x0100\n      exp\n      swap1\n      div\n      0xff\n      and\n        /* \"@openzeppelin/contracts-upgradeable/proxy/utils/Initializable.sol\":4301:4317  !$._initializing */\n      iszero\n        /* \"@openzeppelin/contracts-upgradeable/proxy/utils/Initializable.sol\":4279:4317  bool isTopLevelCall = !$._initializing */\n      swap1\n      pop\n        /* \"@openzeppelin/contracts-upgradeable/proxy/utils/Initializable.sol\":4327:4345  uint64 initialized */\n      0x00\n        /* \"@openzeppelin/contracts-upgradeable/proxy/utils/Initializable.sol\":4348:4349  $ */\n      dup3\n        /* \"@openzeppelin/contracts-upgradeable/proxy/utils/Initializable.sol\":4348:4362  $._initialized */\n      0x00\n      add\n      0x00\n      swap1\n      sload\n      swap1\n      0x0100\n      exp\n      swap1\n      div\n      0xffffffffffffffff\n      and\n        /* \"@openzeppelin/contracts-upgradeable/proxy/utils/Initializable.sol\":4327:4362  uint64 initialized = $._initialized */\n      swap1\n      pop\n        /* \"@openzeppelin/contracts-upgradeable/proxy/utils/Initializable.sol\":4706:4723  bool initialSetup */\n      0x00\n        /* \"@openzeppelin/contracts-upgradeable/proxy/utils/Initializable.sol\":4741:4742  0 */\n      dup1\n        /* \"@openzeppelin/contracts-upgradeable/proxy/utils/Initializable.sol\":4726:4737  initialized */\n      dup3\n        /* \"@openzeppelin/contracts-upgradeable/proxy/utils/Initializable.sol\":4726:4742  initialized == 0 */\n      0xffffffffffffffff\n      and\n      eq\n        /* \"@openzeppelin/contracts-upgradeable/proxy/utils/Initializable.sol\":4726:4760  initialized == 0 && isTopLevelCall */\n      dup1\n      iszero\n      tag_283\n      jumpi\n      pop\n        /* \"@openzeppelin/contracts-upgradeable/proxy/utils/Initializable.sol\":4746:4760  isTopLevelCall */\n      dup3\n        /* \"@openzeppelin/contracts-upgradeable/proxy/utils/Initializable.sol\":4726:4760  initialized == 0 && isTopLevelCall */\n    tag_283:\n        /* \"@openzeppelin/contracts-upgradeable/proxy/utils/Initializable.sol\":4706:4760  bool initialSetup = initialized == 0 && isTopLevelCall */\n      swap1\n      pop\n        /* \"@openzeppelin/contracts-upgradeable/proxy/utils/Initializable.sol\":4770:4787  bool construction */\n      0x00\n        /* \"@openzeppelin/contracts-upgradeable/proxy/utils/Initializable.sol\":4805:4806  1 */\n      0x01\n        /* \"@openzeppelin/contracts-upgradeable/proxy/utils/Initializable.sol\":4790:4801  initialized */\n      dup4\n        /* \"@openzeppelin/contracts-upgradeable/proxy/utils/Initializable.sol\":4790:4806  initialized == 1 */\n      0xffffffffffffffff\n      and\n      eq\n        /* \"@openzeppelin/contracts-upgradeable/proxy/utils/Initializable.sol\":4790:4840  initialized == 1 && address(this).code.length == 0 */\n      dup1\n      iszero\n      tag_284\n      jumpi\n      pop\n        /* \"@openzeppelin/contracts-upgradeable/proxy/utils/Initializable.sol\":4839:4840  0 */\n      0x00\n        /* \"@openzeppelin/contracts-upgradeable/proxy/utils/Initializable.sol\":4818:4822  this */\n      address\n        /* \"@openzeppelin/contracts-upgradeable/proxy/utils/Initializable.sol\":4810:4835  address(this).code.length */\n      0xffffffffffffffffffffffffffffffffffffffff\n      and\n      extcodesize\n        /* \"@openzeppelin/contracts-upgradeable/proxy/utils/Initializable.sol\":4810:4840  address(this).code.length == 0 */\n      eq\n        /* \"@openzeppelin/contracts-upgradeable/proxy/utils/Initializable.sol\":4790:4840  initialized == 1 && address(this).code.length == 0 */\n    tag_284:\n        /* \"@openzeppelin/contracts-upgradeable/proxy/utils/Initializable.sol\":4770:4840  bool construction = initialized == 1 && address(this).code.length == 0 */\n      swap1\n      pop\n        /* \"@openzeppelin/contracts-upgradeable/proxy/utils/Initializable.sol\":4856:4868  initialSetup */\n      dup2\n        /* \"@openzeppelin/contracts-upgradeable/proxy/utils/Initializable.sol\":4855:4868  !initialSetup */\n      iszero\n        /* \"@openzeppelin/contracts-upgradeable/proxy/utils/Initializable.sol\":4855:4885  !initialSetup && !construction */\n      dup1\n      iszero\n      tag_285\n      jumpi\n      pop\n        /* \"@openzeppelin/contracts-upgradeable/proxy/utils/Initializable.sol\":4873:4885  construction */\n      dup1\n        /* \"@openzeppelin/contracts-upgradeable/proxy/utils/Initializable.sol\":4872:4885  !construction */\n      iszero\n        /* \"@openzeppelin/contracts-upgradeable/proxy/utils/Initializable.sol\":4855:4885  !initialSetup && !construction */\n    tag_285:\n        /* \"@openzeppelin/contracts-upgradeable/proxy/utils/Initializable.sol\":4851:4942  if (!initialSetup && !construction) {... */\n      iszero\n      tag_286\n      jumpi\n        /* \"@openzeppelin/contracts-upgradeable/proxy/utils/Initializable.sol\":4908:4931  InvalidInitialization() */\n      mload(0x40)\n      0xf92ee8a900000000000000000000000000000000000000000000000000000000\n      dup2\n      mstore\n      0x04\n      add\n      mload(0x40)\n      dup1\n      swap2\n      sub\n      swap1\n      revert\n        /* \"@openzeppelin/contracts-upgradeable/proxy/utils/Initializable.sol\":4851:4942  if (!initialSetup && !construction) {... */\n    tag_286:\n        /* \"@openzeppelin/contracts-upgradeable/proxy/utils/Initializable.sol\":4968:4969  1 */\n      0x01\n        /* \"@openzeppelin/contracts-upgradeable/proxy/utils/Initializable.sol\":4951:4952  $ */\n      dup6\n        /* \"@openzeppelin/contracts-upgradeable/proxy/utils/Initializable.sol\":4951:4965  $._initialized */\n      0x00\n      add\n      0x00\n        /* \"@openzeppelin/contracts-upgradeable/proxy/utils/Initializable.sol\":4951:4969  $._initialized = 1 */\n      0x0100\n      exp\n      dup2\n      sload\n      dup2\n      0xffffffffffffffff\n      mul\n      not\n      and\n      swap1\n      dup4\n      0xffffffffffffffff\n      and\n      mul\n      or\n      swap1\n      sstore\n      pop\n        /* \"@openzeppelin/contracts-upgradeable/proxy/utils/Initializable.sol\":4983:4997  isTopLevelCall */\n      dup4\n        /* \"@openzeppelin/contracts-upgradeable/proxy/utils/Initializable.sol\":4979:5046  if (isTopLevelCall) {... */\n      iszero\n      tag_287\n      jumpi\n        /* \"@openzeppelin/contracts-upgradeable/proxy/utils/Initializable.sol\":5031:5035  true */\n      0x01\n        /* \"@openzeppelin/contracts-upgradeable/proxy/utils/Initializable.sol\":5013:5014  $ */\n      dup6\n        /* \"@openzeppelin/contracts-upgradeable/proxy/utils/Initializable.sol\":5013:5028  $._initializing */\n      0x00\n      add\n      0x08\n        /* \"@openzeppelin/contracts-upgradeable/proxy/utils/Initializable.sol\":5013:5035  $._initializing = true */\n      0x0100\n      exp\n      dup2\n      sload\n      dup2\n      0xff\n      mul\n      not\n      and\n      swap1\n      dup4\n      iszero\n      iszero\n      mul\n      or\n      swap1\n      sstore\n      pop\n        /* \"@openzeppelin/contracts-upgradeable/proxy/utils/Initializable.sol\":4979:5046  if (isTopLevelCall) {... */\n    tag_287:\n        /* \"contracts/QuailFinance.sol\":4311:4337  __Ownable_init(msg.sender) */\n      tag_289\n        /* \"contracts/QuailFinance.sol\":4326:4336  msg.sender */\n      caller\n        /* \"contracts/QuailFinance.sol\":4311:4325  __Ownable_init */\n      tag_290\n        /* \"contracts/QuailFinance.sol\":4311:4337  __Ownable_init(msg.sender) */\n      jump\t// in\n    tag_289:\n        /* \"@openzeppelin/contracts-upgradeable/proxy/utils/Initializable.sol\":5070:5084  isTopLevelCall */\n      dup4\n        /* \"@openzeppelin/contracts-upgradeable/proxy/utils/Initializable.sol\":5066:5167  if (isTopLevelCall) {... */\n      iszero\n      tag_291\n      jumpi\n        /* \"@openzeppelin/contracts-upgradeable/proxy/utils/Initializable.sol\":5118:5123  false */\n      0x00\n        /* \"@openzeppelin/contracts-upgradeable/proxy/utils/Initializable.sol\":5100:5101  $ */\n      dup6\n        /* \"@openzeppelin/contracts-upgradeable/proxy/utils/Initializable.sol\":5100:5115  $._initializing */\n      0x00\n      add\n      0x08\n        /* \"@openzeppelin/contracts-upgradeable/proxy/utils/Initializable.sol\":5100:5123  $._initializing = false */\n      0x0100\n      exp\n      dup2\n      sload\n      dup2\n      0xff\n      mul\n      not\n      and\n      swap1\n      dup4\n      iszero\n      iszero\n      mul\n      or\n      swap1\n      sstore\n      pop\n        /* \"@openzeppelin/contracts-upgradeable/proxy/utils/Initializable.sol\":5142:5156  Initialized(1) */\n      0xc7f505b2f371ae2175ee4913f4499e1f2633a7b5936321eed1cdaeb6115181d2\n        /* \"@openzeppelin/contracts-upgradeable/proxy/utils/Initializable.sol\":5154:5155  1 */\n      0x01\n        /* \"@openzeppelin/contracts-upgradeable/proxy/utils/Initializable.sol\":5142:5156  Initialized(1) */\n      mload(0x40)\n      tag_292\n      swap2\n      swap1\n      tag_293\n      jump\t// in\n    tag_292:\n      mload(0x40)\n      dup1\n      swap2\n      sub\n      swap1\n      log1\n        /* \"@openzeppelin/contracts-upgradeable/proxy/utils/Initializable.sol\":5066:5167  if (isTopLevelCall) {... */\n    tag_291:\n        /* \"@openzeppelin/contracts-upgradeable/proxy/utils/Initializable.sol\":4092:5173  {... */\n      pop\n      pop\n      pop\n      pop\n      pop\n        /* \"contracts/QuailFinance.sol\":4260:4418  function initialize() public initializer {... */\n      jump\t// out\n        /* \"contracts/QuailFinance.sol\":6842:7664  function joinPot(uint256 _potId) external payable {... */\n    tag_91:\n        /* \"contracts/QuailFinance.sol\":6902:6917  Pot storage pot */\n      0x00\n        /* \"contracts/QuailFinance.sol\":6920:6924  pots */\n      0x07\n        /* \"contracts/QuailFinance.sol\":6920:6932  pots[_potId] */\n      0x00\n        /* \"contracts/QuailFinance.sol\":6925:6931  _potId */\n      dup4\n        /* \"contracts/QuailFinance.sol\":6920:6932  pots[_potId] */\n      dup2\n      mstore\n      0x20\n      add\n      swap1\n      dup2\n      mstore\n      0x20\n      add\n      0x00\n      keccak256\n        /* \"contracts/QuailFinance.sol\":6902:6932  Pot storage pot = pots[_potId] */\n      swap1\n      pop\n        /* \"contracts/QuailFinance.sol\":6976:6979  pot */\n      dup1\n        /* \"contracts/QuailFinance.sol\":6976:6995  pot.numParticipants */\n      0x07\n      add\n      sload\n        /* \"contracts/QuailFinance.sol\":6950:6953  pot */\n      dup2\n        /* \"contracts/QuailFinance.sol\":6950:6966  pot.participants */\n      0x0a\n      add\n        /* \"contracts/QuailFinance.sol\":6950:6973  pot.participants.length */\n      dup1\n      sload\n      swap1\n      pop\n        /* \"contracts/QuailFinance.sol\":6950:6995  pot.participants.length < pot.numParticipants */\n      lt\n        /* \"contracts/QuailFinance.sol\":6942:7011  require(pot.participants.length < pot.numParticipants, \"Pot is full\") */\n      tag_295\n      jumpi\n      mload(0x40)\n      0x08c379a000000000000000000000000000000000000000000000000000000000\n      dup2\n      mstore\n      0x04\n      add\n      tag_296\n      swap1\n      tag_297\n      jump\t// in\n    tag_296:\n      mload(0x40)\n      dup1\n      swap2\n      sub\n      swap1\n      revert\n    tag_295:\n        /* \"contracts/QuailFinance.sol\":7128:7131  pot */\n      dup1\n        /* \"contracts/QuailFinance.sol\":7128:7144  pot.currentRound */\n      0x08\n      add\n      sload\n        /* \"contracts/QuailFinance.sol\":7117:7120  pot */\n      dup2\n        /* \"contracts/QuailFinance.sol\":7117:7127  pot.amount */\n      0x01\n      add\n      sload\n        /* \"contracts/QuailFinance.sol\":7117:7144  pot.amount*pot.currentRound */\n      tag_298\n      swap2\n      swap1\n      tag_197\n      jump\t// in\n    tag_298:\n        /* \"contracts/QuailFinance.sol\":7084:7087  pot */\n      dup2\n        /* \"contracts/QuailFinance.sol\":7084:7101  pot.contributions */\n      0x0c\n      add\n        /* \"contracts/QuailFinance.sol\":7084:7113  pot.contributions[msg.sender] */\n      0x00\n        /* \"contracts/QuailFinance.sol\":7102:7112  msg.sender */\n      caller\n        /* \"contracts/QuailFinance.sol\":7084:7113  pot.contributions[msg.sender] */\n      0xffffffffffffffffffffffffffffffffffffffff\n      and\n      0xffffffffffffffffffffffffffffffffffffffff\n      and\n      dup2\n      mstore\n      0x20\n      add\n      swap1\n      dup2\n      mstore\n      0x20\n      add\n      0x00\n      keccak256\n      sload\n        /* \"contracts/QuailFinance.sol\":7084:7144  pot.contributions[msg.sender] == pot.amount*pot.currentRound */\n      eq\n        /* \"contracts/QuailFinance.sol\":7076:7183  require(pot.contributions[msg.sender] == pot.amount*pot.currentRound, \"Already joined or missed a deposit\") */\n      tag_299\n      jumpi\n      mload(0x40)\n      0x08c379a000000000000000000000000000000000000000000000000000000000\n      dup2\n      mstore\n      0x04\n      add\n      tag_300\n      swap1\n      tag_301\n      jump\t// in\n    tag_300:\n      mload(0x40)\n      dup1\n      swap2\n      sub\n      swap1\n      revert\n    tag_299:\n        /* \"contracts/QuailFinance.sol\":7251:7260  usdbToken */\n      0x05\n      0x00\n      swap1\n      sload\n      swap1\n      0x0100\n      exp\n      swap1\n      div\n      0xffffffffffffffffffffffffffffffffffffffff\n      and\n        /* \"contracts/QuailFinance.sol\":7251:7273  usdbToken.transferFrom */\n      0xffffffffffffffffffffffffffffffffffffffff\n      and\n      0x23b872dd\n        /* \"contracts/QuailFinance.sol\":7274:7284  msg.sender */\n      caller\n        /* \"contracts/QuailFinance.sol\":7294:7298  this */\n      address\n        /* \"contracts/QuailFinance.sol\":7301:7304  pot */\n      dup5\n        /* \"contracts/QuailFinance.sol\":7301:7311  pot.amount */\n      0x01\n      add\n      sload\n        /* \"contracts/QuailFinance.sol\":7251:7312  usdbToken.transferFrom(msg.sender, address(this), pot.amount) */\n      mload(0x40)\n      dup5\n      0xffffffff\n      and\n      0xe0\n      shl\n      dup2\n      mstore\n      0x04\n      add\n      tag_302\n      swap4\n      swap3\n      swap2\n      swap1\n      tag_141\n      jump\t// in\n    tag_302:\n      0x20\n      mload(0x40)\n      dup1\n      dup4\n      sub\n      dup2\n      0x00\n      dup8\n      gas\n      call\n      iszero\n      dup1\n      iszero\n      tag_304\n      jumpi\n      returndatasize\n      0x00\n      dup1\n      returndatacopy\n      revert(0x00, returndatasize)\n    tag_304:\n      pop\n      pop\n      pop\n      pop\n      mload(0x40)\n      returndatasize\n      not(0x1f)\n      0x1f\n      dup3\n      add\n      and\n      dup3\n      add\n      dup1\n      0x40\n      mstore\n      pop\n      dup2\n      add\n      swap1\n      tag_305\n      swap2\n      swap1\n      tag_145\n      jump\t// in\n    tag_305:\n        /* \"contracts/QuailFinance.sol\":7243:7332  require(usdbToken.transferFrom(msg.sender, address(this), pot.amount), \"Transfer failed\") */\n      tag_306\n      jumpi\n      mload(0x40)\n      0x08c379a000000000000000000000000000000000000000000000000000000000\n      dup2\n      mstore\n      0x04\n      add\n      tag_307\n      swap1\n      tag_308\n      jump\t// in\n    tag_307:\n      mload(0x40)\n      dup1\n      swap2\n      sub\n      swap1\n      revert\n    tag_306:\n        /* \"contracts/QuailFinance.sol\":7374:7377  pot */\n      dup1\n        /* \"contracts/QuailFinance.sol\":7374:7384  pot.amount */\n      0x01\n      add\n      sload\n        /* \"contracts/QuailFinance.sol\":7342:7345  pot */\n      dup2\n        /* \"contracts/QuailFinance.sol\":7342:7359  pot.contributions */\n      0x0c\n      add\n        /* \"contracts/QuailFinance.sol\":7342:7371  pot.contributions[msg.sender] */\n      0x00\n        /* \"contracts/QuailFinance.sol\":7360:7370  msg.sender */\n      caller\n        /* \"contracts/QuailFinance.sol\":7342:7371  pot.contributions[msg.sender] */\n      0xffffffffffffffffffffffffffffffffffffffff\n      and\n      0xffffffffffffffffffffffffffffffffffffffff\n      and\n      dup2\n      mstore\n      0x20\n      add\n      swap1\n      dup2\n      mstore\n      0x20\n      add\n      0x00\n      keccak256\n        /* \"contracts/QuailFinance.sol\":7342:7384  pot.contributions[msg.sender] = pot.amount */\n      dup2\n      swap1\n      sstore\n      pop\n        /* \"contracts/QuailFinance.sol\":7424:7428  true */\n      0x01\n        /* \"contracts/QuailFinance.sol\":7398:7428  pot.hasWon[msg.sender] != true */\n      iszero\n      iszero\n        /* \"contracts/QuailFinance.sol\":7398:7401  pot */\n      dup2\n        /* \"contracts/QuailFinance.sol\":7398:7408  pot.hasWon */\n      0x0e\n      add\n        /* \"contracts/QuailFinance.sol\":7398:7420  pot.hasWon[msg.sender] */\n      0x00\n        /* \"contracts/QuailFinance.sol\":7409:7419  msg.sender */\n      caller\n        /* \"contracts/QuailFinance.sol\":7398:7420  pot.hasWon[msg.sender] */\n      0xffffffffffffffffffffffffffffffffffffffff\n      and\n      0xffffffffffffffffffffffffffffffffffffffff\n      and\n      dup2\n      mstore\n      0x20\n      add\n      swap1\n      dup2\n      mstore\n      0x20\n      add\n      0x00\n      keccak256\n      0x00\n      swap1\n      sload\n      swap1\n      0x0100\n      exp\n      swap1\n      div\n      0xff\n      and\n        /* \"contracts/QuailFinance.sol\":7398:7428  pot.hasWon[msg.sender] != true */\n      iszero\n      iszero\n      eq\n        /* \"contracts/QuailFinance.sol\":7394:7487  if (pot.hasWon[msg.sender] != true){... */\n      tag_309\n      jumpi\n        /* \"contracts/QuailFinance.sol\":7443:7446  pot */\n      dup1\n        /* \"contracts/QuailFinance.sol\":7443:7459  pot.participants */\n      0x0a\n      add\n        /* \"contracts/QuailFinance.sol\":7465:7475  msg.sender */\n      caller\n        /* \"contracts/QuailFinance.sol\":7443:7476  pot.participants.push(msg.sender) */\n      swap1\n      dup1\n      0x01\n      dup2\n      sload\n      add\n      dup1\n      dup3\n      sstore\n      dup1\n      swap2\n      pop\n      pop\n      0x01\n      swap1\n      sub\n      swap1\n      0x00\n      mstore\n      keccak256(0x00, 0x20)\n      add\n      0x00\n      swap1\n      swap2\n      swap1\n      swap2\n      swap1\n      swap2\n      0x0100\n      exp\n      dup2\n      sload\n      dup2\n      0xffffffffffffffffffffffffffffffffffffffff\n      mul\n      not\n      and\n      swap1\n      dup4\n      0xffffffffffffffffffffffffffffffffffffffff\n      and\n      mul\n      or\n      swap1\n      sstore\n      pop\n        /* \"contracts/QuailFinance.sol\":7394:7487  if (pot.hasWon[msg.sender] != true){... */\n    tag_309:\n        /* \"contracts/QuailFinance.sol\":7501:7657  ParticipantJoined(_potId, pot.name, msg.sender, pot.amount, pot.rotationCycleInSeconds, pot.interestNumerator, pot.interestDenominator, pot.numParticipants) */\n      0x43d2f309913f6afc5d717f60864d2d192b69963d25204b6a12765e2795bf027f\n        /* \"contracts/QuailFinance.sol\":7519:7525  _potId */\n      dup3\n        /* \"contracts/QuailFinance.sol\":7527:7530  pot */\n      dup3\n        /* \"contracts/QuailFinance.sol\":7527:7535  pot.name */\n      0x00\n      add\n        /* \"contracts/QuailFinance.sol\":7537:7547  msg.sender */\n      caller\n        /* \"contracts/QuailFinance.sol\":7549:7552  pot */\n      dup5\n        /* \"contracts/QuailFinance.sol\":7549:7559  pot.amount */\n      0x01\n      add\n      sload\n        /* \"contracts/QuailFinance.sol\":7561:7564  pot */\n      dup6\n        /* \"contracts/QuailFinance.sol\":7561:7587  pot.rotationCycleInSeconds */\n      0x03\n      add\n      sload\n        /* \"contracts/QuailFinance.sol\":7589:7592  pot */\n      dup7\n        /* \"contracts/QuailFinance.sol\":7589:7610  pot.interestNumerator */\n      0x05\n      add\n      sload\n        /* \"contracts/QuailFinance.sol\":7612:7615  pot */\n      dup8\n        /* \"contracts/QuailFinance.sol\":7612:7635  pot.interestDenominator */\n      0x06\n      add\n      sload\n        /* \"contracts/QuailFinance.sol\":7637:7640  pot */\n      dup9\n        /* \"contracts/QuailFinance.sol\":7637:7656  pot.numParticipants */\n      0x07\n      add\n      sload\n        /* \"contracts/QuailFinance.sol\":7501:7657  ParticipantJoined(_potId, pot.name, msg.sender, pot.amount, pot.rotationCycleInSeconds, pot.interestNumerator, pot.interestDenominator, pot.numParticipants) */\n      mload(0x40)\n      tag_311\n      swap9\n      swap8\n      swap7\n      swap6\n      swap5\n      swap4\n      swap3\n      swap2\n      swap1\n      tag_312\n      jump\t// in\n    tag_311:\n      mload(0x40)\n      dup1\n      swap2\n      sub\n      swap1\n      log1\n        /* \"contracts/QuailFinance.sol\":6892:7664  {... */\n      pop\n        /* \"contracts/QuailFinance.sol\":6842:7664  function joinPot(uint256 _potId) external payable {... */\n      pop\n      jump\t// out\n        /* \"@openzeppelin/contracts-upgradeable/access/OwnableUpgradeable.sol\":2441:2585  function owner() public view virtual returns (address) {... */\n    tag_94:\n        /* \"@openzeppelin/contracts-upgradeable/access/OwnableUpgradeable.sol\":2487:2494  address */\n      0x00\n        /* \"@openzeppelin/contracts-upgradeable/access/OwnableUpgradeable.sol\":2506:2530  OwnableStorage storage $ */\n      dup1\n        /* \"@openzeppelin/contracts-upgradeable/access/OwnableUpgradeable.sol\":2533:2553  _getOwnableStorage() */\n      tag_314\n        /* \"@openzeppelin/contracts-upgradeable/access/OwnableUpgradeable.sol\":2533:2551  _getOwnableStorage */\n      tag_315\n        /* \"@openzeppelin/contracts-upgradeable/access/OwnableUpgradeable.sol\":2533:2553  _getOwnableStorage() */\n      jump\t// in\n    tag_314:\n        /* \"@openzeppelin/contracts-upgradeable/access/OwnableUpgradeable.sol\":2506:2553  OwnableStorage storage $ = _getOwnableStorage() */\n      swap1\n      pop\n        /* \"@openzeppelin/contracts-upgradeable/access/OwnableUpgradeable.sol\":2570:2571  $ */\n      dup1\n        /* \"@openzeppelin/contracts-upgradeable/access/OwnableUpgradeable.sol\":2570:2578  $._owner */\n      0x00\n      add\n      0x00\n      swap1\n      sload\n      swap1\n      0x0100\n      exp\n      swap1\n      div\n      0xffffffffffffffffffffffffffffffffffffffff\n      and\n        /* \"@openzeppelin/contracts-upgradeable/access/OwnableUpgradeable.sol\":2563:2578  return $._owner */\n      swap2\n      pop\n      pop\n        /* \"@openzeppelin/contracts-upgradeable/access/OwnableUpgradeable.sol\":2441:2585  function owner() public view virtual returns (address) {... */\n      swap1\n      jump\t// out\n        /* \"contracts/QuailFinance.sol\":745:826  IBlast public constant BLAST = IBlast(0x4300000000000000000000000000000000000002) */\n    tag_99:\n        /* \"contracts/QuailFinance.sol\":783:825  0x4300000000000000000000000000000000000002 */\n      0x4300000000000000000000000000000000000002\n        /* \"contracts/QuailFinance.sol\":745:826  IBlast public constant BLAST = IBlast(0x4300000000000000000000000000000000000002) */\n      dup2\n      jump\t// out\n        /* \"contracts/QuailFinance.sol\":9712:10153  function claimReward(uint256 _potId) external {... */\n    tag_105:\n        /* \"contracts/QuailFinance.sol\":9768:9783  Pot storage pot */\n      0x00\n        /* \"contracts/QuailFinance.sol\":9786:9790  pots */\n      0x07\n        /* \"contracts/QuailFinance.sol\":9786:9798  pots[_potId] */\n      0x00\n        /* \"contracts/QuailFinance.sol\":9791:9797  _potId */\n      dup4\n        /* \"contracts/QuailFinance.sol\":9786:9798  pots[_potId] */\n      dup2\n      mstore\n      0x20\n      add\n      swap1\n      dup2\n      mstore\n      0x20\n      add\n      0x00\n      keccak256\n        /* \"contracts/QuailFinance.sol\":9768:9798  Pot storage pot = pots[_potId] */\n      swap1\n      pop\n        /* \"contracts/QuailFinance.sol\":9844:9845  0 */\n      0x00\n        /* \"contracts/QuailFinance.sol\":9816:9819  pot */\n      dup2\n        /* \"contracts/QuailFinance.sol\":9816:9829  pot.amountWon */\n      0x0d\n      add\n        /* \"contracts/QuailFinance.sol\":9816:9841  pot.amountWon[msg.sender] */\n      0x00\n        /* \"contracts/QuailFinance.sol\":9830:9840  msg.sender */\n      caller\n        /* \"contracts/QuailFinance.sol\":9816:9841  pot.amountWon[msg.sender] */\n      0xffffffffffffffffffffffffffffffffffffffff\n      and\n      0xffffffffffffffffffffffffffffffffffffffff\n      and\n      dup2\n      mstore\n      0x20\n      add\n      swap1\n      dup2\n      mstore\n      0x20\n      add\n      0x00\n      keccak256\n      sload\n        /* \"contracts/QuailFinance.sol\":9816:9845  pot.amountWon[msg.sender] > 0 */\n      gt\n        /* \"contracts/QuailFinance.sol\":9808:9868  require(pot.amountWon[msg.sender] > 0, \"No reward to claim\") */\n      tag_317\n      jumpi\n      mload(0x40)\n      0x08c379a000000000000000000000000000000000000000000000000000000000\n      dup2\n      mstore\n      0x04\n      add\n      tag_318\n      swap1\n      tag_319\n      jump\t// in\n    tag_318:\n      mload(0x40)\n      dup1\n      swap2\n      sub\n      swap1\n      revert\n    tag_317:\n        /* \"contracts/QuailFinance.sol\":9928:9949  uint256 amountToClaim */\n      0x00\n        /* \"contracts/QuailFinance.sol\":9952:9955  pot */\n      dup2\n        /* \"contracts/QuailFinance.sol\":9952:9965  pot.amountWon */\n      0x0d\n      add\n        /* \"contracts/QuailFinance.sol\":9952:9977  pot.amountWon[msg.sender] */\n      0x00\n        /* \"contracts/QuailFinance.sol\":9966:9976  msg.sender */\n      caller\n        /* \"contracts/QuailFinance.sol\":9952:9977  pot.amountWon[msg.sender] */\n      0xffffffffffffffffffffffffffffffffffffffff\n      and\n      0xffffffffffffffffffffffffffffffffffffffff\n      and\n      dup2\n      mstore\n      0x20\n      add\n      swap1\n      dup2\n      mstore\n      0x20\n      add\n      0x00\n      keccak256\n      sload\n        /* \"contracts/QuailFinance.sol\":9928:9977  uint256 amountToClaim = pot.amountWon[msg.sender] */\n      swap1\n      pop\n        /* \"contracts/QuailFinance.sol\":10062:10063  0 */\n      0x00\n        /* \"contracts/QuailFinance.sol\":10034:10037  pot */\n      dup3\n        /* \"contracts/QuailFinance.sol\":10034:10047  pot.amountWon */\n      0x0d\n      add\n        /* \"contracts/QuailFinance.sol\":10034:10059  pot.amountWon[msg.sender] */\n      0x00\n        /* \"contracts/QuailFinance.sol\":10048:10058  msg.sender */\n      caller\n        /* \"contracts/QuailFinance.sol\":10034:10059  pot.amountWon[msg.sender] */\n      0xffffffffffffffffffffffffffffffffffffffff\n      and\n      0xffffffffffffffffffffffffffffffffffffffff\n      and\n      dup2\n      mstore\n      0x20\n      add\n      swap1\n      dup2\n      mstore\n      0x20\n      add\n      0x00\n      keccak256\n        /* \"contracts/QuailFinance.sol\":10034:10063  pot.amountWon[msg.sender] = 0 */\n      dup2\n      swap1\n      sstore\n      pop\n        /* \"contracts/QuailFinance.sol\":10081:10090  usdbToken */\n      0x05\n      0x00\n      swap1\n      sload\n      swap1\n      0x0100\n      exp\n      swap1\n      div\n      0xffffffffffffffffffffffffffffffffffffffff\n      and\n        /* \"contracts/QuailFinance.sol\":10081:10099  usdbToken.transfer */\n      0xffffffffffffffffffffffffffffffffffffffff\n      and\n      0xa9059cbb\n        /* \"contracts/QuailFinance.sol\":10100:10110  msg.sender */\n      caller\n        /* \"contracts/QuailFinance.sol\":10112:10125  amountToClaim */\n      dup4\n        /* \"contracts/QuailFinance.sol\":10081:10126  usdbToken.transfer(msg.sender, amountToClaim) */\n      mload(0x40)\n      dup4\n      0xffffffff\n      and\n      0xe0\n      shl\n      dup2\n      mstore\n      0x04\n      add\n      tag_320\n      swap3\n      swap2\n      swap1\n      tag_224\n      jump\t// in\n    tag_320:\n      0x20\n      mload(0x40)\n      dup1\n      dup4\n      sub\n      dup2\n      0x00\n      dup8\n      gas\n      call\n      iszero\n      dup1\n      iszero\n      tag_322\n      jumpi\n      returndatasize\n      0x00\n      dup1\n      returndatacopy\n      revert(0x00, returndatasize)\n    tag_322:\n      pop\n      pop\n      pop\n      pop\n      mload(0x40)\n      returndatasize\n      not(0x1f)\n      0x1f\n      dup3\n      add\n      and\n      dup3\n      add\n      dup1\n      0x40\n      mstore\n      pop\n      dup2\n      add\n      swap1\n      tag_323\n      swap2\n      swap1\n      tag_145\n      jump\t// in\n    tag_323:\n        /* \"contracts/QuailFinance.sol\":10073:10146  require(usdbToken.transfer(msg.sender, amountToClaim), \"Transfer failed\") */\n      tag_324\n      jumpi\n      mload(0x40)\n      0x08c379a000000000000000000000000000000000000000000000000000000000\n      dup2\n      mstore\n      0x04\n      add\n      tag_325\n      swap1\n      tag_308\n      jump\t// in\n    tag_325:\n      mload(0x40)\n      dup1\n      swap2\n      sub\n      swap1\n      revert\n    tag_324:\n        /* \"contracts/QuailFinance.sol\":9758:10153  {... */\n      pop\n      pop\n        /* \"contracts/QuailFinance.sol\":9712:10153  function claimReward(uint256 _potId) external {... */\n      pop\n      jump\t// out\n        /* \"contracts/QuailFinance.sol\":832:859  uint256 public totalRevenue */\n    tag_108:\n      sload(0x04)\n      dup2\n      jump\t// out\n        /* \"contracts/QuailFinance.sol\":969:1004  mapping(uint256 => Pot) public pots */\n    tag_113:\n      mstore(0x20, 0x07)\n      dup1\n      0x00\n      mstore\n      keccak256(0x00, 0x40)\n      0x00\n      swap2\n      pop\n      swap1\n      pop\n      dup1\n      0x00\n      add\n      dup1\n      sload\n      tag_326\n      swap1\n      tag_327\n      jump\t// in\n    tag_326:\n      dup1\n      0x1f\n      add\n      0x20\n      dup1\n      swap2\n      div\n      mul\n      0x20\n      add\n      mload(0x40)\n      swap1\n      dup2\n      add\n      0x40\n      mstore\n      dup1\n      swap3\n      swap2\n      swap1\n      dup2\n      dup2\n      mstore\n      0x20\n      add\n      dup3\n      dup1\n      sload\n      tag_328\n      swap1\n      tag_327\n      jump\t// in\n    tag_328:\n      dup1\n      iszero\n      tag_329\n      jumpi\n      dup1\n      0x1f\n      lt\n      tag_330\n      jumpi\n      0x0100\n      dup1\n      dup4\n      sload\n      div\n      mul\n      dup4\n      mstore\n      swap2\n      0x20\n      add\n      swap2\n      jump(tag_329)\n    tag_330:\n      dup3\n      add\n      swap2\n      swap1\n      0x00\n      mstore\n      keccak256(0x00, 0x20)\n      swap1\n    tag_331:\n      dup2\n      sload\n      dup2\n      mstore\n      swap1\n      0x01\n      add\n      swap1\n      0x20\n      add\n      dup1\n      dup4\n      gt\n      tag_331\n      jumpi\n      dup3\n      swap1\n      sub\n      0x1f\n      and\n      dup3\n      add\n      swap2\n    tag_329:\n      pop\n      pop\n      pop\n      pop\n      pop\n      swap1\n      dup1\n      0x01\n      add\n      sload\n      swap1\n      dup1\n      0x02\n      add\n      sload\n      swap1\n      dup1\n      0x03\n      add\n      sload\n      swap1\n      dup1\n      0x04\n      add\n      sload\n      swap1\n      dup1\n      0x05\n      add\n      sload\n      swap1\n      dup1\n      0x06\n      add\n      sload\n      swap1\n      dup1\n      0x07\n      add\n      sload\n      swap1\n      dup1\n      0x08\n      add\n      sload\n      swap1\n      dup1\n      0x09\n      add\n      0x00\n      swap1\n      sload\n      swap1\n      0x0100\n      exp\n      swap1\n      div\n      0xffffffffffffffff\n      and\n      swap1\n      dup1\n      0x09\n      add\n      0x08\n      swap1\n      sload\n      swap1\n      0x0100\n      exp\n      swap1\n      div\n      0xffffffffffffffffffffffffffffffffffffffff\n      and\n      swap1\n      pop\n      dup12\n      jump\t// out\n        /* \"@openzeppelin/contracts-upgradeable/access/OwnableUpgradeable.sol\":3405:3620  function transferOwnership(address newOwner) public virtual onlyOwner {... */\n    tag_119:\n        /* \"@openzeppelin/contracts-upgradeable/access/OwnableUpgradeable.sol\":2334:2347  _checkOwner() */\n      tag_333\n        /* \"@openzeppelin/contracts-upgradeable/access/OwnableUpgradeable.sol\":2334:2345  _checkOwner */\n      tag_216\n        /* \"@openzeppelin/contracts-upgradeable/access/OwnableUpgradeable.sol\":2334:2347  _checkOwner() */\n      jump\t// in\n    tag_333:\n        /* \"@openzeppelin/contracts-upgradeable/access/OwnableUpgradeable.sol\":3509:3510  0 */\n      0x00\n        /* \"@openzeppelin/contracts-upgradeable/access/OwnableUpgradeable.sol\":3489:3511  newOwner == address(0) */\n      0xffffffffffffffffffffffffffffffffffffffff\n      and\n        /* \"@openzeppelin/contracts-upgradeable/access/OwnableUpgradeable.sol\":3489:3497  newOwner */\n      dup2\n        /* \"@openzeppelin/contracts-upgradeable/access/OwnableUpgradeable.sol\":3489:3511  newOwner == address(0) */\n      0xffffffffffffffffffffffffffffffffffffffff\n      and\n      sub\n        /* \"@openzeppelin/contracts-upgradeable/access/OwnableUpgradeable.sol\":3485:3576  if (newOwner == address(0)) {... */\n      tag_335\n      jumpi\n        /* \"@openzeppelin/contracts-upgradeable/access/OwnableUpgradeable.sol\":3562:3563  0 */\n      0x00\n        /* \"@openzeppelin/contracts-upgradeable/access/OwnableUpgradeable.sol\":3534:3565  OwnableInvalidOwner(address(0)) */\n      mload(0x40)\n      0x1e4fbdf700000000000000000000000000000000000000000000000000000000\n      dup2\n      mstore\n      0x04\n      add\n      tag_336\n      swap2\n      swap1\n      tag_96\n      jump\t// in\n    tag_336:\n      mload(0x40)\n      dup1\n      swap2\n      sub\n      swap1\n      revert\n        /* \"@openzeppelin/contracts-upgradeable/access/OwnableUpgradeable.sol\":3485:3576  if (newOwner == address(0)) {... */\n    tag_335:\n        /* \"@openzeppelin/contracts-upgradeable/access/OwnableUpgradeable.sol\":3585:3613  _transferOwnership(newOwner) */\n      tag_337\n        /* \"@openzeppelin/contracts-upgradeable/access/OwnableUpgradeable.sol\":3604:3612  newOwner */\n      dup2\n        /* \"@openzeppelin/contracts-upgradeable/access/OwnableUpgradeable.sol\":3585:3603  _transferOwnership */\n      tag_264\n        /* \"@openzeppelin/contracts-upgradeable/access/OwnableUpgradeable.sol\":3585:3613  _transferOwnership(newOwner) */\n      jump\t// in\n    tag_337:\n        /* \"@openzeppelin/contracts-upgradeable/access/OwnableUpgradeable.sol\":3405:3620  function transferOwnership(address newOwner) public virtual onlyOwner {... */\n      pop\n      jump\t// out\n        /* \"contracts/QuailFinance.sol\":10609:10833  function deductRevenue(uint256 _amount) private returns (uint256 netAmount) {... */\n    tag_199:\n        /* \"contracts/QuailFinance.sol\":10666:10683  uint256 netAmount */\n      0x00\n        /* \"contracts/QuailFinance.sol\":10695:10710  uint256 revenue */\n      dup1\n        /* \"contracts/QuailFinance.sol\":10723:10726  100 */\n      0x64\n        /* \"contracts/QuailFinance.sol\":10713:10720  _amount */\n      dup4\n        /* \"contracts/QuailFinance.sol\":10713:10726  _amount / 100 */\n      tag_339\n      swap2\n      swap1\n      tag_279\n      jump\t// in\n    tag_339:\n        /* \"contracts/QuailFinance.sol\":10695:10726  uint256 revenue = _amount / 100 */\n      swap1\n      pop\n        /* \"contracts/QuailFinance.sol\":10758:10765  revenue */\n      dup1\n        /* \"contracts/QuailFinance.sol\":10748:10755  _amount */\n      dup4\n        /* \"contracts/QuailFinance.sol\":10748:10765  _amount - revenue */\n      tag_340\n      swap2\n      swap1\n      tag_183\n      jump\t// in\n    tag_340:\n        /* \"contracts/QuailFinance.sol\":10736:10765  netAmount = _amount - revenue */\n      swap2\n      pop\n        /* \"contracts/QuailFinance.sol\":10791:10798  revenue */\n      dup1\n        /* \"contracts/QuailFinance.sol\":10775:10787  totalRevenue */\n      0x04\n      0x00\n        /* \"contracts/QuailFinance.sol\":10775:10798  totalRevenue += revenue */\n      dup3\n      dup3\n      sload\n      tag_341\n      swap2\n      swap1\n      tag_165\n      jump\t// in\n    tag_341:\n      swap3\n      pop\n      pop\n      dup2\n      swap1\n      sstore\n      pop\n        /* \"contracts/QuailFinance.sol\":10808:10826  return (netAmount) */\n      pop\n        /* \"contracts/QuailFinance.sol\":10609:10833  function deductRevenue(uint256 _amount) private returns (uint256 netAmount) {... */\n      swap2\n      swap1\n      pop\n      jump\t// out\n        /* \"@openzeppelin/contracts-upgradeable/access/OwnableUpgradeable.sol\":2658:2820  function _checkOwner() internal view virtual {... */\n    tag_216:\n        /* \"@openzeppelin/contracts-upgradeable/access/OwnableUpgradeable.sol\":2728:2740  _msgSender() */\n      tag_343\n        /* \"@openzeppelin/contracts-upgradeable/access/OwnableUpgradeable.sol\":2728:2738  _msgSender */\n      tag_344\n        /* \"@openzeppelin/contracts-upgradeable/access/OwnableUpgradeable.sol\":2728:2740  _msgSender() */\n      jump\t// in\n    tag_343:\n        /* \"@openzeppelin/contracts-upgradeable/access/OwnableUpgradeable.sol\":2717:2740  owner() != _msgSender() */\n      0xffffffffffffffffffffffffffffffffffffffff\n      and\n        /* \"@openzeppelin/contracts-upgradeable/access/OwnableUpgradeable.sol\":2717:2724  owner() */\n      tag_345\n        /* \"@openzeppelin/contracts-upgradeable/access/OwnableUpgradeable.sol\":2717:2722  owner */\n      tag_94\n        /* \"@openzeppelin/contracts-upgradeable/access/OwnableUpgradeable.sol\":2717:2724  owner() */\n      jump\t// in\n    tag_345:\n        /* \"@openzeppelin/contracts-upgradeable/access/OwnableUpgradeable.sol\":2717:2740  owner() != _msgSender() */\n      0xffffffffffffffffffffffffffffffffffffffff\n      and\n      eq\n        /* \"@openzeppelin/contracts-upgradeable/access/OwnableUpgradeable.sol\":2713:2814  if (owner() != _msgSender()) {... */\n      tag_346\n      jumpi\n        /* \"@openzeppelin/contracts-upgradeable/access/OwnableUpgradeable.sol\":2790:2802  _msgSender() */\n      tag_347\n        /* \"@openzeppelin/contracts-upgradeable/access/OwnableUpgradeable.sol\":2790:2800  _msgSender */\n      tag_344\n        /* \"@openzeppelin/contracts-upgradeable/access/OwnableUpgradeable.sol\":2790:2802  _msgSender() */\n      jump\t// in\n    tag_347:\n        /* \"@openzeppelin/contracts-upgradeable/access/OwnableUpgradeable.sol\":2763:2803  OwnableUnauthorizedAccount(_msgSender()) */\n      mload(0x40)\n      0x118cdaa700000000000000000000000000000000000000000000000000000000\n      dup2\n      mstore\n      0x04\n      add\n      tag_348\n      swap2\n      swap1\n      tag_96\n      jump\t// in\n    tag_348:\n      mload(0x40)\n      dup1\n      swap2\n      sub\n      swap1\n      revert\n        /* \"@openzeppelin/contracts-upgradeable/access/OwnableUpgradeable.sol\":2713:2814  if (owner() != _msgSender()) {... */\n    tag_346:\n        /* \"@openzeppelin/contracts-upgradeable/access/OwnableUpgradeable.sol\":2658:2820  function _checkOwner() internal view virtual {... */\n      jump\t// out\n        /* \"@openzeppelin/contracts/utils/cryptography/MerkleProof.sol\":1265:1419  function verify(bytes32[] memory proof, bytes32 root, bytes32 leaf) internal pure returns (bool) {... */\n    tag_245:\n        /* \"@openzeppelin/contracts/utils/cryptography/MerkleProof.sol\":1356:1360  bool */\n      0x00\n        /* \"@openzeppelin/contracts/utils/cryptography/MerkleProof.sol\":1408:1412  root */\n      dup3\n        /* \"@openzeppelin/contracts/utils/cryptography/MerkleProof.sol\":1379:1404  processProof(proof, leaf) */\n      tag_350\n        /* \"@openzeppelin/contracts/utils/cryptography/MerkleProof.sol\":1392:1397  proof */\n      dup6\n        /* \"@openzeppelin/contracts/utils/cryptography/MerkleProof.sol\":1399:1403  leaf */\n      dup5\n        /* \"@openzeppelin/contracts/utils/cryptography/MerkleProof.sol\":1379:1391  processProof */\n      tag_351\n        /* \"@openzeppelin/contracts/utils/cryptography/MerkleProof.sol\":1379:1404  processProof(proof, leaf) */\n      jump\t// in\n    tag_350:\n        /* \"@openzeppelin/contracts/utils/cryptography/MerkleProof.sol\":1379:1412  processProof(proof, leaf) == root */\n      eq\n        /* \"@openzeppelin/contracts/utils/cryptography/MerkleProof.sol\":1372:1412  return processProof(proof, leaf) == root */\n      swap1\n      pop\n        /* \"@openzeppelin/contracts/utils/cryptography/MerkleProof.sol\":1265:1419  function verify(bytes32[] memory proof, bytes32 root, bytes32 leaf) internal pure returns (bool) {... */\n      swap4\n      swap3\n      pop\n      pop\n      pop\n      jump\t// out\n        /* \"@openzeppelin/contracts-upgradeable/access/OwnableUpgradeable.sol\":3774:4022  function _transferOwnership(address newOwner) internal virtual {... */\n    tag_264:\n        /* \"@openzeppelin/contracts-upgradeable/access/OwnableUpgradeable.sol\":3847:3871  OwnableStorage storage $ */\n      0x00\n        /* \"@openzeppelin/contracts-upgradeable/access/OwnableUpgradeable.sol\":3874:3894  _getOwnableStorage() */\n      tag_353\n        /* \"@openzeppelin/contracts-upgradeable/access/OwnableUpgradeable.sol\":3874:3892  _getOwnableStorage */\n      tag_315\n        /* \"@openzeppelin/contracts-upgradeable/access/OwnableUpgradeable.sol\":3874:3894  _getOwnableStorage() */\n      jump\t// in\n    tag_353:\n        /* \"@openzeppelin/contracts-upgradeable/access/OwnableUpgradeable.sol\":3847:3894  OwnableStorage storage $ = _getOwnableStorage() */\n      swap1\n      pop\n        /* \"@openzeppelin/contracts-upgradeable/access/OwnableUpgradeable.sol\":3904:3920  address oldOwner */\n      0x00\n        /* \"@openzeppelin/contracts-upgradeable/access/OwnableUpgradeable.sol\":3923:3924  $ */\n      dup2\n        /* \"@openzeppelin/contracts-upgradeable/access/OwnableUpgradeable.sol\":3923:3931  $._owner */\n      0x00\n      add\n      0x00\n      swap1\n      sload\n      swap1\n      0x0100\n      exp\n      swap1\n      div\n      0xffffffffffffffffffffffffffffffffffffffff\n      and\n        /* \"@openzeppelin/contracts-upgradeable/access/OwnableUpgradeable.sol\":3904:3931  address oldOwner = $._owner */\n      swap1\n      pop\n        /* \"@openzeppelin/contracts-upgradeable/access/OwnableUpgradeable.sol\":3952:3960  newOwner */\n      dup3\n        /* \"@openzeppelin/contracts-upgradeable/access/OwnableUpgradeable.sol\":3941:3942  $ */\n      dup3\n        /* \"@openzeppelin/contracts-upgradeable/access/OwnableUpgradeable.sol\":3941:3949  $._owner */\n      0x00\n      add\n      0x00\n        /* \"@openzeppelin/contracts-upgradeable/access/OwnableUpgradeable.sol\":3941:3960  $._owner = newOwner */\n      0x0100\n      exp\n      dup2\n      sload\n      dup2\n      0xffffffffffffffffffffffffffffffffffffffff\n      mul\n      not\n      and\n      swap1\n      dup4\n      0xffffffffffffffffffffffffffffffffffffffff\n      and\n      mul\n      or\n      swap1\n      sstore\n      pop\n        /* \"@openzeppelin/contracts-upgradeable/access/OwnableUpgradeable.sol\":4006:4014  newOwner */\n      dup3\n        /* \"@openzeppelin/contracts-upgradeable/access/OwnableUpgradeable.sol\":3975:4015  OwnershipTransferred(oldOwner, newOwner) */\n      0xffffffffffffffffffffffffffffffffffffffff\n      and\n        /* \"@openzeppelin/contracts-upgradeable/access/OwnableUpgradeable.sol\":3996:4004  oldOwner */\n      dup2\n        /* \"@openzeppelin/contracts-upgradeable/access/OwnableUpgradeable.sol\":3975:4015  OwnershipTransferred(oldOwner, newOwner) */\n      0xffffffffffffffffffffffffffffffffffffffff\n      and\n      0x8be0079c531659141344cd1fd0a4f28419497f9722a3daafe3b4186f6b6457e0\n      mload(0x40)\n      mload(0x40)\n      dup1\n      swap2\n      sub\n      swap1\n      log3\n        /* \"@openzeppelin/contracts-upgradeable/access/OwnableUpgradeable.sol\":3837:4022  {... */\n      pop\n      pop\n        /* \"@openzeppelin/contracts-upgradeable/access/OwnableUpgradeable.sol\":3774:4022  function _transferOwnership(address newOwner) internal virtual {... */\n      pop\n      jump\t// out\n        /* \"@openzeppelin/contracts-upgradeable/proxy/utils/Initializable.sol\":8737:8907  function _getInitializableStorage() private pure returns (InitializableStorage storage $) {... */\n    tag_282:\n        /* \"@openzeppelin/contracts-upgradeable/proxy/utils/Initializable.sol\":8795:8825  InitializableStorage storage $ */\n      0x00\n        /* \"@openzeppelin/contracts-upgradeable/proxy/utils/Initializable.sol\":8870:8891  INITIALIZABLE_STORAGE */\n      0xf0c57e16840df040f15088dc2f81fe391c3923bec73e23a9662efc9c229c6a00\n        /* \"@openzeppelin/contracts-upgradeable/proxy/utils/Initializable.sol\":8860:8891  $.slot := INITIALIZABLE_STORAGE */\n      swap1\n      pop\n        /* \"@openzeppelin/contracts-upgradeable/proxy/utils/Initializable.sol\":8737:8907  function _getInitializableStorage() private pure returns (InitializableStorage storage $) {... */\n      swap1\n      jump\t// out\n        /* \"@openzeppelin/contracts-upgradeable/access/OwnableUpgradeable.sol\":1847:1974  function __Ownable_init(address initialOwner) internal onlyInitializing {... */\n    tag_290:\n        /* \"@openzeppelin/contracts-upgradeable/proxy/utils/Initializable.sol\":6931:6951  _checkInitializing() */\n      tag_356\n        /* \"@openzeppelin/contracts-upgradeable/proxy/utils/Initializable.sol\":6931:6949  _checkInitializing */\n      tag_357\n        /* \"@openzeppelin/contracts-upgradeable/proxy/utils/Initializable.sol\":6931:6951  _checkInitializing() */\n      jump\t// in\n    tag_356:\n        /* \"@openzeppelin/contracts-upgradeable/access/OwnableUpgradeable.sol\":1929:1967  __Ownable_init_unchained(initialOwner) */\n      tag_359\n        /* \"@openzeppelin/contracts-upgradeable/access/OwnableUpgradeable.sol\":1954:1966  initialOwner */\n      dup2\n        /* \"@openzeppelin/contracts-upgradeable/access/OwnableUpgradeable.sol\":1929:1953  __Ownable_init_unchained */\n      tag_360\n        /* \"@openzeppelin/contracts-upgradeable/access/OwnableUpgradeable.sol\":1929:1967  __Ownable_init_unchained(initialOwner) */\n      jump\t// in\n    tag_359:\n        /* \"@openzeppelin/contracts-upgradeable/access/OwnableUpgradeable.sol\":1847:1974  function __Ownable_init(address initialOwner) internal onlyInitializing {... */\n      pop\n      jump\t// out\n        /* \"@openzeppelin/contracts-upgradeable/access/OwnableUpgradeable.sol\":1192:1351  function _getOwnableStorage() private pure returns (OwnableStorage storage $) {... */\n    tag_315:\n        /* \"@openzeppelin/contracts-upgradeable/access/OwnableUpgradeable.sol\":1244:1268  OwnableStorage storage $ */\n      0x00\n        /* \"@openzeppelin/contracts-upgradeable/access/OwnableUpgradeable.sol\":1313:1335  OwnableStorageLocation */\n      0x9016d09d72d40fdae2fd8ceac6b6234c7706214fd39c1cd1e609a0528c199300\n        /* \"@openzeppelin/contracts-upgradeable/access/OwnableUpgradeable.sol\":1303:1335  $.slot := OwnableStorageLocation */\n      swap1\n      pop\n        /* \"@openzeppelin/contracts-upgradeable/access/OwnableUpgradeable.sol\":1192:1351  function _getOwnableStorage() private pure returns (OwnableStorage storage $) {... */\n      swap1\n      jump\t// out\n        /* \"@openzeppelin/contracts-upgradeable/utils/ContextUpgradeable.sol\":887:983  function _msgSender() internal view virtual returns (address) {... */\n    tag_344:\n        /* \"@openzeppelin/contracts-upgradeable/utils/ContextUpgradeable.sol\":940:947  address */\n      0x00\n        /* \"@openzeppelin/contracts-upgradeable/utils/ContextUpgradeable.sol\":966:976  msg.sender */\n      caller\n        /* \"@openzeppelin/contracts-upgradeable/utils/ContextUpgradeable.sol\":959:976  return msg.sender */\n      swap1\n      pop\n        /* \"@openzeppelin/contracts-upgradeable/utils/ContextUpgradeable.sol\":887:983  function _msgSender() internal view virtual returns (address) {... */\n      swap1\n      jump\t// out\n        /* \"@openzeppelin/contracts/utils/cryptography/MerkleProof.sol\":1967:2257  function processProof(bytes32[] memory proof, bytes32 leaf) internal pure returns (bytes32) {... */\n    tag_351:\n        /* \"@openzeppelin/contracts/utils/cryptography/MerkleProof.sol\":2050:2057  bytes32 */\n      0x00\n        /* \"@openzeppelin/contracts/utils/cryptography/MerkleProof.sol\":2069:2089  bytes32 computedHash */\n      dup1\n        /* \"@openzeppelin/contracts/utils/cryptography/MerkleProof.sol\":2092:2096  leaf */\n      dup3\n        /* \"@openzeppelin/contracts/utils/cryptography/MerkleProof.sol\":2069:2096  bytes32 computedHash = leaf */\n      swap1\n      pop\n        /* \"@openzeppelin/contracts/utils/cryptography/MerkleProof.sol\":2111:2120  uint256 i */\n      0x00\n        /* \"@openzeppelin/contracts/utils/cryptography/MerkleProof.sol\":2106:2222  for (uint256 i = 0; i < proof.length; i++) {... */\n    tag_364:\n        /* \"@openzeppelin/contracts/utils/cryptography/MerkleProof.sol\":2130:2135  proof */\n      dup5\n        /* \"@openzeppelin/contracts/utils/cryptography/MerkleProof.sol\":2130:2142  proof.length */\n      mload\n        /* \"@openzeppelin/contracts/utils/cryptography/MerkleProof.sol\":2126:2127  i */\n      dup2\n        /* \"@openzeppelin/contracts/utils/cryptography/MerkleProof.sol\":2126:2142  i < proof.length */\n      lt\n        /* \"@openzeppelin/contracts/utils/cryptography/MerkleProof.sol\":2106:2222  for (uint256 i = 0; i < proof.length; i++) {... */\n      iszero\n      tag_365\n      jumpi\n        /* \"@openzeppelin/contracts/utils/cryptography/MerkleProof.sol\":2178:2211  _hashPair(computedHash, proof[i]) */\n      tag_367\n        /* \"@openzeppelin/contracts/utils/cryptography/MerkleProof.sol\":2188:2200  computedHash */\n      dup3\n        /* \"@openzeppelin/contracts/utils/cryptography/MerkleProof.sol\":2202:2207  proof */\n      dup7\n        /* \"@openzeppelin/contracts/utils/cryptography/MerkleProof.sol\":2208:2209  i */\n      dup4\n        /* \"@openzeppelin/contracts/utils/cryptography/MerkleProof.sol\":2202:2210  proof[i] */\n      dup2\n      mload\n      dup2\n      lt\n      tag_368\n      jumpi\n      tag_369\n      tag_179\n      jump\t// in\n    tag_369:\n    tag_368:\n      0x20\n      mul\n      0x20\n      add\n      add\n      mload\n        /* \"@openzeppelin/contracts/utils/cryptography/MerkleProof.sol\":2178:2187  _hashPair */\n      tag_370\n        /* \"@openzeppelin/contracts/utils/cryptography/MerkleProof.sol\":2178:2211  _hashPair(computedHash, proof[i]) */\n      jump\t// in\n    tag_367:\n        /* \"@openzeppelin/contracts/utils/cryptography/MerkleProof.sol\":2163:2211  computedHash = _hashPair(computedHash, proof[i]) */\n      swap2\n      pop\n        /* \"@openzeppelin/contracts/utils/cryptography/MerkleProof.sol\":2144:2147  i++ */\n      dup1\n      dup1\n      0x01\n      add\n      swap2\n      pop\n      pop\n        /* \"@openzeppelin/contracts/utils/cryptography/MerkleProof.sol\":2106:2222  for (uint256 i = 0; i < proof.length; i++) {... */\n      jump(tag_364)\n    tag_365:\n      pop\n        /* \"@openzeppelin/contracts/utils/cryptography/MerkleProof.sol\":2238:2250  computedHash */\n      dup1\n        /* \"@openzeppelin/contracts/utils/cryptography/MerkleProof.sol\":2231:2250  return computedHash */\n      swap2\n      pop\n      pop\n        /* \"@openzeppelin/contracts/utils/cryptography/MerkleProof.sol\":1967:2257  function processProof(bytes32[] memory proof, bytes32 leaf) internal pure returns (bytes32) {... */\n      swap3\n      swap2\n      pop\n      pop\n      jump\t// out\n        /* \"@openzeppelin/contracts-upgradeable/proxy/utils/Initializable.sol\":7084:7225  function _checkInitializing() internal view virtual {... */\n    tag_357:\n        /* \"@openzeppelin/contracts-upgradeable/proxy/utils/Initializable.sol\":7151:7168  _isInitializing() */\n      tag_372\n        /* \"@openzeppelin/contracts-upgradeable/proxy/utils/Initializable.sol\":7151:7166  _isInitializing */\n      tag_373\n        /* \"@openzeppelin/contracts-upgradeable/proxy/utils/Initializable.sol\":7151:7168  _isInitializing() */\n      jump\t// in\n    tag_372:\n        /* \"@openzeppelin/contracts-upgradeable/proxy/utils/Initializable.sol\":7146:7219  if (!_isInitializing()) {... */\n      tag_374\n      jumpi\n        /* \"@openzeppelin/contracts-upgradeable/proxy/utils/Initializable.sol\":7191:7208  NotInitializing() */\n      mload(0x40)\n      0xd7e6bcf800000000000000000000000000000000000000000000000000000000\n      dup2\n      mstore\n      0x04\n      add\n      mload(0x40)\n      dup1\n      swap2\n      sub\n      swap1\n      revert\n        /* \"@openzeppelin/contracts-upgradeable/proxy/utils/Initializable.sol\":7146:7219  if (!_isInitializing()) {... */\n    tag_374:\n        /* \"@openzeppelin/contracts-upgradeable/proxy/utils/Initializable.sol\":7084:7225  function _checkInitializing() internal view virtual {... */\n      jump\t// out\n        /* \"@openzeppelin/contracts-upgradeable/access/OwnableUpgradeable.sol\":1980:2215  function __Ownable_init_unchained(address initialOwner) internal onlyInitializing {... */\n    tag_360:\n        /* \"@openzeppelin/contracts-upgradeable/proxy/utils/Initializable.sol\":6931:6951  _checkInitializing() */\n      tag_376\n        /* \"@openzeppelin/contracts-upgradeable/proxy/utils/Initializable.sol\":6931:6949  _checkInitializing */\n      tag_357\n        /* \"@openzeppelin/contracts-upgradeable/proxy/utils/Initializable.sol\":6931:6951  _checkInitializing() */\n      jump\t// in\n    tag_376:\n        /* \"@openzeppelin/contracts-upgradeable/access/OwnableUpgradeable.sol\":2100:2101  0 */\n      0x00\n        /* \"@openzeppelin/contracts-upgradeable/access/OwnableUpgradeable.sol\":2076:2102  initialOwner == address(0) */\n      0xffffffffffffffffffffffffffffffffffffffff\n      and\n        /* \"@openzeppelin/contracts-upgradeable/access/OwnableUpgradeable.sol\":2076:2088  initialOwner */\n      dup2\n        /* \"@openzeppelin/contracts-upgradeable/access/OwnableUpgradeable.sol\":2076:2102  initialOwner == address(0) */\n      0xffffffffffffffffffffffffffffffffffffffff\n      and\n      sub\n        /* \"@openzeppelin/contracts-upgradeable/access/OwnableUpgradeable.sol\":2072:2167  if (initialOwner == address(0)) {... */\n      tag_378\n      jumpi\n        /* \"@openzeppelin/contracts-upgradeable/access/OwnableUpgradeable.sol\":2153:2154  0 */\n      0x00\n        /* \"@openzeppelin/contracts-upgradeable/access/OwnableUpgradeable.sol\":2125:2156  OwnableInvalidOwner(address(0)) */\n      mload(0x40)\n      0x1e4fbdf700000000000000000000000000000000000000000000000000000000\n      dup2\n      mstore\n      0x04\n      add\n      tag_379\n      swap2\n      swap1\n      tag_96\n      jump\t// in\n    tag_379:\n      mload(0x40)\n      dup1\n      swap2\n      sub\n      swap1\n      revert\n        /* \"@openzeppelin/contracts-upgradeable/access/OwnableUpgradeable.sol\":2072:2167  if (initialOwner == address(0)) {... */\n    tag_378:\n        /* \"@openzeppelin/contracts-upgradeable/access/OwnableUpgradeable.sol\":2176:2208  _transferOwnership(initialOwner) */\n      tag_380\n        /* \"@openzeppelin/contracts-upgradeable/access/OwnableUpgradeable.sol\":2195:2207  initialOwner */\n      dup2\n        /* \"@openzeppelin/contracts-upgradeable/access/OwnableUpgradeable.sol\":2176:2194  _transferOwnership */\n      tag_264\n        /* \"@openzeppelin/contracts-upgradeable/access/OwnableUpgradeable.sol\":2176:2208  _transferOwnership(initialOwner) */\n      jump\t// in\n    tag_380:\n        /* \"@openzeppelin/contracts-upgradeable/access/OwnableUpgradeable.sol\":1980:2215  function __Ownable_init_unchained(address initialOwner) internal onlyInitializing {... */\n      pop\n      jump\t// out\n        /* \"@openzeppelin/contracts/utils/cryptography/MerkleProof.sol\":9229:9376  function _hashPair(bytes32 a, bytes32 b) private pure returns (bytes32) {... */\n    tag_370:\n        /* \"@openzeppelin/contracts/utils/cryptography/MerkleProof.sol\":9292:9299  bytes32 */\n      0x00\n        /* \"@openzeppelin/contracts/utils/cryptography/MerkleProof.sol\":9322:9323  b */\n      dup2\n        /* \"@openzeppelin/contracts/utils/cryptography/MerkleProof.sol\":9318:9319  a */\n      dup4\n        /* \"@openzeppelin/contracts/utils/cryptography/MerkleProof.sol\":9318:9323  a < b */\n      lt\n        /* \"@openzeppelin/contracts/utils/cryptography/MerkleProof.sol\":9318:9369  a < b ? _efficientHash(a, b) : _efficientHash(b, a) */\n      tag_382\n      jumpi\n        /* \"@openzeppelin/contracts/utils/cryptography/MerkleProof.sol\":9349:9369  _efficientHash(b, a) */\n      tag_383\n        /* \"@openzeppelin/contracts/utils/cryptography/MerkleProof.sol\":9364:9365  b */\n      dup3\n        /* \"@openzeppelin/contracts/utils/cryptography/MerkleProof.sol\":9367:9368  a */\n      dup5\n        /* \"@openzeppelin/contracts/utils/cryptography/MerkleProof.sol\":9349:9363  _efficientHash */\n      tag_384\n        /* \"@openzeppelin/contracts/utils/cryptography/MerkleProof.sol\":9349:9369  _efficientHash(b, a) */\n      jump\t// in\n    tag_383:\n        /* \"@openzeppelin/contracts/utils/cryptography/MerkleProof.sol\":9318:9369  a < b ? _efficientHash(a, b) : _efficientHash(b, a) */\n      jump(tag_385)\n    tag_382:\n        /* \"@openzeppelin/contracts/utils/cryptography/MerkleProof.sol\":9326:9346  _efficientHash(a, b) */\n      tag_386\n        /* \"@openzeppelin/contracts/utils/cryptography/MerkleProof.sol\":9341:9342  a */\n      dup4\n        /* \"@openzeppelin/contracts/utils/cryptography/MerkleProof.sol\":9344:9345  b */\n      dup4\n        /* \"@openzeppelin/contracts/utils/cryptography/MerkleProof.sol\":9326:9340  _efficientHash */\n      tag_384\n        /* \"@openzeppelin/contracts/utils/cryptography/MerkleProof.sol\":9326:9346  _efficientHash(a, b) */\n      jump\t// in\n    tag_386:\n        /* \"@openzeppelin/contracts/utils/cryptography/MerkleProof.sol\":9318:9369  a < b ? _efficientHash(a, b) : _efficientHash(b, a) */\n    tag_385:\n        /* \"@openzeppelin/contracts/utils/cryptography/MerkleProof.sol\":9311:9369  return a < b ? _efficientHash(a, b) : _efficientHash(b, a) */\n      swap1\n      pop\n        /* \"@openzeppelin/contracts/utils/cryptography/MerkleProof.sol\":9229:9376  function _hashPair(bytes32 a, bytes32 b) private pure returns (bytes32) {... */\n      swap3\n      swap2\n      pop\n      pop\n      jump\t// out\n        /* \"@openzeppelin/contracts-upgradeable/proxy/utils/Initializable.sol\":8487:8607  function _isInitializing() internal view returns (bool) {... */\n    tag_373:\n        /* \"@openzeppelin/contracts-upgradeable/proxy/utils/Initializable.sol\":8537:8541  bool */\n      0x00\n        /* \"@openzeppelin/contracts-upgradeable/proxy/utils/Initializable.sol\":8560:8586  _getInitializableStorage() */\n      tag_388\n        /* \"@openzeppelin/contracts-upgradeable/proxy/utils/Initializable.sol\":8560:8584  _getInitializableStorage */\n      tag_282\n        /* \"@openzeppelin/contracts-upgradeable/proxy/utils/Initializable.sol\":8560:8586  _getInitializableStorage() */\n      jump\t// in\n    tag_388:\n        /* \"@openzeppelin/contracts-upgradeable/proxy/utils/Initializable.sol\":8560:8600  _getInitializableStorage()._initializing */\n      0x00\n      add\n      0x08\n      swap1\n      sload\n      swap1\n      0x0100\n      exp\n      swap1\n      div\n      0xff\n      and\n        /* \"@openzeppelin/contracts-upgradeable/proxy/utils/Initializable.sol\":8553:8600  return _getInitializableStorage()._initializing */\n      swap1\n      pop\n        /* \"@openzeppelin/contracts-upgradeable/proxy/utils/Initializable.sol\":8487:8607  function _isInitializing() internal view returns (bool) {... */\n      swap1\n      jump\t// out\n        /* \"@openzeppelin/contracts/utils/cryptography/MerkleProof.sol\":9496:9757  function _efficientHash(bytes32 a, bytes32 b) private pure returns (bytes32 value) {... */\n    tag_384:\n        /* \"@openzeppelin/contracts/utils/cryptography/MerkleProof.sol\":9564:9577  bytes32 value */\n      0x00\n        /* \"@openzeppelin/contracts/utils/cryptography/MerkleProof.sol\":9668:9669  a */\n      dup3\n        /* \"@openzeppelin/contracts/utils/cryptography/MerkleProof.sol\":9662:9666  0x00 */\n      0x00\n        /* \"@openzeppelin/contracts/utils/cryptography/MerkleProof.sol\":9655:9670  mstore(0x00, a) */\n      mstore\n        /* \"@openzeppelin/contracts/utils/cryptography/MerkleProof.sol\":9696:9697  b */\n      dup2\n        /* \"@openzeppelin/contracts/utils/cryptography/MerkleProof.sol\":9690:9694  0x20 */\n      0x20\n        /* \"@openzeppelin/contracts/utils/cryptography/MerkleProof.sol\":9683:9698  mstore(0x20, b) */\n      mstore\n        /* \"@openzeppelin/contracts/utils/cryptography/MerkleProof.sol\":9736:9740  0x40 */\n      0x40\n        /* \"@openzeppelin/contracts/utils/cryptography/MerkleProof.sol\":9730:9734  0x00 */\n      0x00\n        /* \"@openzeppelin/contracts/utils/cryptography/MerkleProof.sol\":9720:9741  keccak256(0x00, 0x40) */\n      keccak256\n        /* \"@openzeppelin/contracts/utils/cryptography/MerkleProof.sol\":9711:9741  value := keccak256(0x00, 0x40) */\n      swap1\n      pop\n        /* \"@openzeppelin/contracts/utils/cryptography/MerkleProof.sol\":9496:9757  function _efficientHash(bytes32 a, bytes32 b) private pure returns (bytes32 value) {... */\n      swap3\n      swap2\n      pop\n      pop\n      jump\t// out\n    tag_203:\n      pop\n      dup1\n      sload\n      0x00\n      dup3\n      sstore\n      swap1\n      0x00\n      mstore\n      keccak256(0x00, 0x20)\n      swap1\n      dup2\n      add\n      swap1\n      tag_391\n      swap2\n      swap1\n      tag_392\n      jump\t// in\n    tag_391:\n      pop\n      jump\t// out\n    tag_392:\n    tag_393:\n      dup1\n      dup3\n      gt\n      iszero\n      tag_394\n      jumpi\n      0x00\n      dup2\n      0x00\n      swap1\n      sstore\n      pop\n      0x01\n      add\n      jump(tag_393)\n    tag_394:\n      pop\n      swap1\n      jump\t// out\n        /* \"#utility.yul\":7:82   */\n    tag_395:\n        /* \"#utility.yul\":40:46   */\n      0x00\n        /* \"#utility.yul\":73:75   */\n      0x40\n        /* \"#utility.yul\":67:76   */\n      mload\n        /* \"#utility.yul\":57:76   */\n      swap1\n      pop\n        /* \"#utility.yul\":7:82   */\n      swap1\n      jump\t// out\n        /* \"#utility.yul\":88:205   */\n    tag_396:\n        /* \"#utility.yul\":197:198   */\n      0x00\n        /* \"#utility.yul\":194:195   */\n      dup1\n        /* \"#utility.yul\":187:199   */\n      revert\n        /* \"#utility.yul\":211:328   */\n    tag_397:\n        /* \"#utility.yul\":320:321   */\n      0x00\n        /* \"#utility.yul\":317:318   */\n      dup1\n        /* \"#utility.yul\":310:322   */\n      revert\n        /* \"#utility.yul\":334:451   */\n    tag_398:\n        /* \"#utility.yul\":443:444   */\n      0x00\n        /* \"#utility.yul\":440:441   */\n      dup1\n        /* \"#utility.yul\":433:445   */\n      revert\n        /* \"#utility.yul\":457:574   */\n    tag_399:\n        /* \"#utility.yul\":566:567   */\n      0x00\n        /* \"#utility.yul\":563:564   */\n      dup1\n        /* \"#utility.yul\":556:568   */\n      revert\n        /* \"#utility.yul\":580:682   */\n    tag_400:\n        /* \"#utility.yul\":621:627   */\n      0x00\n        /* \"#utility.yul\":672:674   */\n      0x1f\n        /* \"#utility.yul\":668:675   */\n      not\n        /* \"#utility.yul\":663:665   */\n      0x1f\n        /* \"#utility.yul\":656:661   */\n      dup4\n        /* \"#utility.yul\":652:666   */\n      add\n        /* \"#utility.yul\":648:676   */\n      and\n        /* \"#utility.yul\":638:676   */\n      swap1\n      pop\n        /* \"#utility.yul\":580:682   */\n      swap2\n      swap1\n      pop\n      jump\t// out\n        /* \"#utility.yul\":688:868   */\n    tag_401:\n        /* \"#utility.yul\":736:813   */\n      0x4e487b7100000000000000000000000000000000000000000000000000000000\n        /* \"#utility.yul\":733:734   */\n      0x00\n        /* \"#utility.yul\":726:814   */\n      mstore\n        /* \"#utility.yul\":833:837   */\n      0x41\n        /* \"#utility.yul\":830:831   */\n      0x04\n        /* \"#utility.yul\":823:838   */\n      mstore\n        /* \"#utility.yul\":857:861   */\n      0x24\n        /* \"#utility.yul\":854:855   */\n      0x00\n        /* \"#utility.yul\":847:862   */\n      revert\n        /* \"#utility.yul\":874:1155   */\n    tag_402:\n        /* \"#utility.yul\":957:984   */\n      tag_518\n        /* \"#utility.yul\":979:983   */\n      dup3\n        /* \"#utility.yul\":957:984   */\n      tag_400\n      jump\t// in\n    tag_518:\n        /* \"#utility.yul\":949:955   */\n      dup2\n        /* \"#utility.yul\":945:985   */\n      add\n        /* \"#utility.yul\":1087:1093   */\n      dup2\n        /* \"#utility.yul\":1075:1085   */\n      dup2\n        /* \"#utility.yul\":1072:1094   */\n      lt\n        /* \"#utility.yul\":1051:1069   */\n      0xffffffffffffffff\n        /* \"#utility.yul\":1039:1049   */\n      dup3\n        /* \"#utility.yul\":1036:1070   */\n      gt\n        /* \"#utility.yul\":1033:1095   */\n      or\n        /* \"#utility.yul\":1030:1118   */\n      iszero\n      tag_519\n      jumpi\n        /* \"#utility.yul\":1098:1116   */\n      tag_520\n      tag_401\n      jump\t// in\n    tag_520:\n        /* \"#utility.yul\":1030:1118   */\n    tag_519:\n        /* \"#utility.yul\":1138:1148   */\n      dup1\n        /* \"#utility.yul\":1134:1136   */\n      0x40\n        /* \"#utility.yul\":1127:1149   */\n      mstore\n        /* \"#utility.yul\":917:1155   */\n      pop\n        /* \"#utility.yul\":874:1155   */\n      pop\n      pop\n      jump\t// out\n        /* \"#utility.yul\":1161:1290   */\n    tag_403:\n        /* \"#utility.yul\":1195:1201   */\n      0x00\n        /* \"#utility.yul\":1222:1242   */\n      tag_522\n      tag_395\n      jump\t// in\n    tag_522:\n        /* \"#utility.yul\":1212:1242   */\n      swap1\n      pop\n        /* \"#utility.yul\":1251:1284   */\n      tag_523\n        /* \"#utility.yul\":1279:1283   */\n      dup3\n        /* \"#utility.yul\":1271:1277   */\n      dup3\n        /* \"#utility.yul\":1251:1284   */\n      tag_402\n      jump\t// in\n    tag_523:\n        /* \"#utility.yul\":1161:1290   */\n      swap2\n      swap1\n      pop\n      jump\t// out\n        /* \"#utility.yul\":1296:1604   */\n    tag_404:\n        /* \"#utility.yul\":1358:1362   */\n      0x00\n        /* \"#utility.yul\":1448:1466   */\n      0xffffffffffffffff\n        /* \"#utility.yul\":1440:1446   */\n      dup3\n        /* \"#utility.yul\":1437:1467   */\n      gt\n        /* \"#utility.yul\":1434:1490   */\n      iszero\n      tag_525\n      jumpi\n        /* \"#utility.yul\":1470:1488   */\n      tag_526\n      tag_401\n      jump\t// in\n    tag_526:\n        /* \"#utility.yul\":1434:1490   */\n    tag_525:\n        /* \"#utility.yul\":1508:1537   */\n      tag_527\n        /* \"#utility.yul\":1530:1536   */\n      dup3\n        /* \"#utility.yul\":1508:1537   */\n      tag_400\n      jump\t// in\n    tag_527:\n        /* \"#utility.yul\":1500:1537   */\n      swap1\n      pop\n        /* \"#utility.yul\":1592:1596   */\n      0x20\n        /* \"#utility.yul\":1586:1590   */\n      dup2\n        /* \"#utility.yul\":1582:1597   */\n      add\n        /* \"#utility.yul\":1574:1597   */\n      swap1\n      pop\n        /* \"#utility.yul\":1296:1604   */\n      swap2\n      swap1\n      pop\n      jump\t// out\n        /* \"#utility.yul\":1610:1756   */\n    tag_405:\n        /* \"#utility.yul\":1707:1713   */\n      dup3\n        /* \"#utility.yul\":1702:1705   */\n      dup2\n        /* \"#utility.yul\":1697:1700   */\n      dup4\n        /* \"#utility.yul\":1684:1714   */\n      calldatacopy\n        /* \"#utility.yul\":1748:1749   */\n      0x00\n        /* \"#utility.yul\":1739:1745   */\n      dup4\n        /* \"#utility.yul\":1734:1737   */\n      dup4\n        /* \"#utility.yul\":1730:1746   */\n      add\n        /* \"#utility.yul\":1723:1750   */\n      mstore\n        /* \"#utility.yul\":1610:1756   */\n      pop\n      pop\n      pop\n      jump\t// out\n        /* \"#utility.yul\":1762:2187   */\n    tag_406:\n        /* \"#utility.yul\":1840:1845   */\n      0x00\n        /* \"#utility.yul\":1865:1931   */\n      tag_530\n        /* \"#utility.yul\":1881:1930   */\n      tag_531\n        /* \"#utility.yul\":1923:1929   */\n      dup5\n        /* \"#utility.yul\":1881:1930   */\n      tag_404\n      jump\t// in\n    tag_531:\n        /* \"#utility.yul\":1865:1931   */\n      tag_403\n      jump\t// in\n    tag_530:\n        /* \"#utility.yul\":1856:1931   */\n      swap1\n      pop\n        /* \"#utility.yul\":1954:1960   */\n      dup3\n        /* \"#utility.yul\":1947:1952   */\n      dup2\n        /* \"#utility.yul\":1940:1961   */\n      mstore\n        /* \"#utility.yul\":1992:1996   */\n      0x20\n        /* \"#utility.yul\":1985:1990   */\n      dup2\n        /* \"#utility.yul\":1981:1997   */\n      add\n        /* \"#utility.yul\":2030:2033   */\n      dup5\n        /* \"#utility.yul\":2021:2027   */\n      dup5\n        /* \"#utility.yul\":2016:2019   */\n      dup5\n        /* \"#utility.yul\":2012:2028   */\n      add\n        /* \"#utility.yul\":2009:2034   */\n      gt\n        /* \"#utility.yul\":2006:2118   */\n      iszero\n      tag_532\n      jumpi\n        /* \"#utility.yul\":2037:2116   */\n      tag_533\n      tag_399\n      jump\t// in\n    tag_533:\n        /* \"#utility.yul\":2006:2118   */\n    tag_532:\n        /* \"#utility.yul\":2127:2181   */\n      tag_534\n        /* \"#utility.yul\":2174:2180   */\n      dup5\n        /* \"#utility.yul\":2169:2172   */\n      dup3\n        /* \"#utility.yul\":2164:2167   */\n      dup6\n        /* \"#utility.yul\":2127:2181   */\n      tag_405\n      jump\t// in\n    tag_534:\n        /* \"#utility.yul\":1846:2187   */\n      pop\n        /* \"#utility.yul\":1762:2187   */\n      swap4\n      swap3\n      pop\n      pop\n      pop\n      jump\t// out\n        /* \"#utility.yul\":2207:2547   */\n    tag_407:\n        /* \"#utility.yul\":2263:2268   */\n      0x00\n        /* \"#utility.yul\":2312:2315   */\n      dup3\n        /* \"#utility.yul\":2305:2309   */\n      0x1f\n        /* \"#utility.yul\":2297:2303   */\n      dup4\n        /* \"#utility.yul\":2293:2310   */\n      add\n        /* \"#utility.yul\":2289:2316   */\n      slt\n        /* \"#utility.yul\":2279:2401   */\n      tag_536\n      jumpi\n        /* \"#utility.yul\":2320:2399   */\n      tag_537\n      tag_398\n      jump\t// in\n    tag_537:\n        /* \"#utility.yul\":2279:2401   */\n    tag_536:\n        /* \"#utility.yul\":2437:2443   */\n      dup2\n        /* \"#utility.yul\":2424:2444   */\n      calldataload\n        /* \"#utility.yul\":2462:2541   */\n      tag_538\n        /* \"#utility.yul\":2537:2540   */\n      dup5\n        /* \"#utility.yul\":2529:2535   */\n      dup3\n        /* \"#utility.yul\":2522:2526   */\n      0x20\n        /* \"#utility.yul\":2514:2520   */\n      dup7\n        /* \"#utility.yul\":2510:2527   */\n      add\n        /* \"#utility.yul\":2462:2541   */\n      tag_406\n      jump\t// in\n    tag_538:\n        /* \"#utility.yul\":2453:2541   */\n      swap2\n      pop\n        /* \"#utility.yul\":2269:2547   */\n      pop\n        /* \"#utility.yul\":2207:2547   */\n      swap3\n      swap2\n      pop\n      pop\n      jump\t// out\n        /* \"#utility.yul\":2553:2630   */\n    tag_408:\n        /* \"#utility.yul\":2590:2597   */\n      0x00\n        /* \"#utility.yul\":2619:2624   */\n      dup2\n        /* \"#utility.yul\":2608:2624   */\n      swap1\n      pop\n        /* \"#utility.yul\":2553:2630   */\n      swap2\n      swap1\n      pop\n      jump\t// out\n        /* \"#utility.yul\":2636:2758   */\n    tag_409:\n        /* \"#utility.yul\":2709:2733   */\n      tag_541\n        /* \"#utility.yul\":2727:2732   */\n      dup2\n        /* \"#utility.yul\":2709:2733   */\n      tag_408\n      jump\t// in\n    tag_541:\n        /* \"#utility.yul\":2702:2707   */\n      dup2\n        /* \"#utility.yul\":2699:2734   */\n      eq\n        /* \"#utility.yul\":2689:2752   */\n      tag_542\n      jumpi\n        /* \"#utility.yul\":2748:2749   */\n      0x00\n        /* \"#utility.yul\":2745:2746   */\n      dup1\n        /* \"#utility.yul\":2738:2750   */\n      revert\n        /* \"#utility.yul\":2689:2752   */\n    tag_542:\n        /* \"#utility.yul\":2636:2758   */\n      pop\n      jump\t// out\n        /* \"#utility.yul\":2764:2903   */\n    tag_410:\n        /* \"#utility.yul\":2810:2815   */\n      0x00\n        /* \"#utility.yul\":2848:2854   */\n      dup2\n        /* \"#utility.yul\":2835:2855   */\n      calldataload\n        /* \"#utility.yul\":2826:2855   */\n      swap1\n      pop\n        /* \"#utility.yul\":2864:2897   */\n      tag_544\n        /* \"#utility.yul\":2891:2896   */\n      dup2\n        /* \"#utility.yul\":2864:2897   */\n      tag_409\n      jump\t// in\n    tag_544:\n        /* \"#utility.yul\":2764:2903   */\n      swap3\n      swap2\n      pop\n      pop\n      jump\t// out\n        /* \"#utility.yul\":2909:2986   */\n    tag_411:\n        /* \"#utility.yul\":2946:2953   */\n      0x00\n        /* \"#utility.yul\":2975:2980   */\n      dup2\n        /* \"#utility.yul\":2964:2980   */\n      swap1\n      pop\n        /* \"#utility.yul\":2909:2986   */\n      swap2\n      swap1\n      pop\n      jump\t// out\n        /* \"#utility.yul\":2992:3114   */\n    tag_412:\n        /* \"#utility.yul\":3065:3089   */\n      tag_547\n        /* \"#utility.yul\":3083:3088   */\n      dup2\n        /* \"#utility.yul\":3065:3089   */\n      tag_411\n      jump\t// in\n    tag_547:\n        /* \"#utility.yul\":3058:3063   */\n      dup2\n        /* \"#utility.yul\":3055:3090   */\n      eq\n        /* \"#utility.yul\":3045:3108   */\n      tag_548\n      jumpi\n        /* \"#utility.yul\":3104:3105   */\n      0x00\n        /* \"#utility.yul\":3101:3102   */\n      dup1\n        /* \"#utility.yul\":3094:3106   */\n      revert\n        /* \"#utility.yul\":3045:3108   */\n    tag_548:\n        /* \"#utility.yul\":2992:3114   */\n      pop\n      jump\t// out\n        /* \"#utility.yul\":3120:3259   */\n    tag_413:\n        /* \"#utility.yul\":3166:3171   */\n      0x00\n        /* \"#utility.yul\":3204:3210   */\n      dup2\n        /* \"#utility.yul\":3191:3211   */\n      calldataload\n        /* \"#utility.yul\":3182:3211   */\n      swap1\n      pop\n        /* \"#utility.yul\":3220:3253   */\n      tag_550\n        /* \"#utility.yul\":3247:3252   */\n      dup2\n        /* \"#utility.yul\":3220:3253   */\n      tag_412\n      jump\t// in\n    tag_550:\n        /* \"#utility.yul\":3120:3259   */\n      swap3\n      swap2\n      pop\n      pop\n      jump\t// out\n        /* \"#utility.yul\":3265:4648   */\n    tag_28:\n        /* \"#utility.yul\":3388:3394   */\n      0x00\n        /* \"#utility.yul\":3396:3402   */\n      dup1\n        /* \"#utility.yul\":3404:3410   */\n      0x00\n        /* \"#utility.yul\":3412:3418   */\n      dup1\n        /* \"#utility.yul\":3420:3426   */\n      0x00\n        /* \"#utility.yul\":3428:3434   */\n      dup1\n        /* \"#utility.yul\":3436:3442   */\n      0x00\n        /* \"#utility.yul\":3485:3488   */\n      0xe0\n        /* \"#utility.yul\":3473:3482   */\n      dup9\n        /* \"#utility.yul\":3464:3471   */\n      dup11\n        /* \"#utility.yul\":3460:3483   */\n      sub\n        /* \"#utility.yul\":3456:3489   */\n      slt\n        /* \"#utility.yul\":3453:3573   */\n      iszero\n      tag_552\n      jumpi\n        /* \"#utility.yul\":3492:3571   */\n      tag_553\n      tag_396\n      jump\t// in\n    tag_553:\n        /* \"#utility.yul\":3453:3573   */\n    tag_552:\n        /* \"#utility.yul\":3640:3641   */\n      0x00\n        /* \"#utility.yul\":3629:3638   */\n      dup9\n        /* \"#utility.yul\":3625:3642   */\n      add\n        /* \"#utility.yul\":3612:3643   */\n      calldataload\n        /* \"#utility.yul\":3670:3688   */\n      0xffffffffffffffff\n        /* \"#utility.yul\":3662:3668   */\n      dup2\n        /* \"#utility.yul\":3659:3689   */\n      gt\n        /* \"#utility.yul\":3656:3773   */\n      iszero\n      tag_554\n      jumpi\n        /* \"#utility.yul\":3692:3771   */\n      tag_555\n      tag_397\n      jump\t// in\n    tag_555:\n        /* \"#utility.yul\":3656:3773   */\n    tag_554:\n        /* \"#utility.yul\":3797:3860   */\n      tag_556\n        /* \"#utility.yul\":3852:3859   */\n      dup11\n        /* \"#utility.yul\":3843:3849   */\n      dup3\n        /* \"#utility.yul\":3832:3841   */\n      dup12\n        /* \"#utility.yul\":3828:3850   */\n      add\n        /* \"#utility.yul\":3797:3860   */\n      tag_407\n      jump\t// in\n    tag_556:\n        /* \"#utility.yul\":3787:3860   */\n      swap8\n      pop\n        /* \"#utility.yul\":3583:3870   */\n      pop\n        /* \"#utility.yul\":3909:3911   */\n      0x20\n        /* \"#utility.yul\":3935:3988   */\n      tag_557\n        /* \"#utility.yul\":3980:3987   */\n      dup11\n        /* \"#utility.yul\":3971:3977   */\n      dup3\n        /* \"#utility.yul\":3960:3969   */\n      dup12\n        /* \"#utility.yul\":3956:3978   */\n      add\n        /* \"#utility.yul\":3935:3988   */\n      tag_410\n      jump\t// in\n    tag_557:\n        /* \"#utility.yul\":3925:3988   */\n      swap7\n      pop\n        /* \"#utility.yul\":3880:3998   */\n      pop\n        /* \"#utility.yul\":4037:4039   */\n      0x40\n        /* \"#utility.yul\":4063:4116   */\n      tag_558\n        /* \"#utility.yul\":4108:4115   */\n      dup11\n        /* \"#utility.yul\":4099:4105   */\n      dup3\n        /* \"#utility.yul\":4088:4097   */\n      dup12\n        /* \"#utility.yul\":4084:4106   */\n      add\n        /* \"#utility.yul\":4063:4116   */\n      tag_413\n      jump\t// in\n    tag_558:\n        /* \"#utility.yul\":4053:4116   */\n      swap6\n      pop\n        /* \"#utility.yul\":4008:4126   */\n      pop\n        /* \"#utility.yul\":4165:4167   */\n      0x60\n        /* \"#utility.yul\":4191:4244   */\n      tag_559\n        /* \"#utility.yul\":4236:4243   */\n      dup11\n        /* \"#utility.yul\":4227:4233   */\n      dup3\n        /* \"#utility.yul\":4216:4225   */\n      dup12\n        /* \"#utility.yul\":4212:4234   */\n      add\n        /* \"#utility.yul\":4191:4244   */\n      tag_413\n      jump\t// in\n    tag_559:\n        /* \"#utility.yul\":4181:4244   */\n      swap5\n      pop\n        /* \"#utility.yul\":4136:4254   */\n      pop\n        /* \"#utility.yul\":4293:4296   */\n      0x80\n        /* \"#utility.yul\":4320:4373   */\n      tag_560\n        /* \"#utility.yul\":4365:4372   */\n      dup11\n        /* \"#utility.yul\":4356:4362   */\n      dup3\n        /* \"#utility.yul\":4345:4354   */\n      dup12\n        /* \"#utility.yul\":4341:4363   */\n      add\n        /* \"#utility.yul\":4320:4373   */\n      tag_413\n      jump\t// in\n    tag_560:\n        /* \"#utility.yul\":4310:4373   */\n      swap4\n      pop\n        /* \"#utility.yul\":4264:4383   */\n      pop\n        /* \"#utility.yul\":4422:4425   */\n      0xa0\n        /* \"#utility.yul\":4449:4502   */\n      tag_561\n        /* \"#utility.yul\":4494:4501   */\n      dup11\n        /* \"#utility.yul\":4485:4491   */\n      dup3\n        /* \"#utility.yul\":4474:4483   */\n      dup12\n        /* \"#utility.yul\":4470:4492   */\n      add\n        /* \"#utility.yul\":4449:4502   */\n      tag_413\n      jump\t// in\n    tag_561:\n        /* \"#utility.yul\":4439:4502   */\n      swap3\n      pop\n        /* \"#utility.yul\":4393:4512   */\n      pop\n        /* \"#utility.yul\":4551:4554   */\n      0xc0\n        /* \"#utility.yul\":4578:4631   */\n      tag_562\n        /* \"#utility.yul\":4623:4630   */\n      dup11\n        /* \"#utility.yul\":4614:4620   */\n      dup3\n        /* \"#utility.yul\":4603:4612   */\n      dup12\n        /* \"#utility.yul\":4599:4621   */\n      add\n        /* \"#utility.yul\":4578:4631   */\n      tag_413\n      jump\t// in\n    tag_562:\n        /* \"#utility.yul\":4568:4631   */\n      swap2\n      pop\n        /* \"#utility.yul\":4522:4641   */\n      pop\n        /* \"#utility.yul\":3265:4648   */\n      swap3\n      swap6\n      swap9\n      swap2\n      swap5\n      swap8\n      pop\n      swap3\n      swap6\n      pop\n      jump\t// out\n        /* \"#utility.yul\":4654:4772   */\n    tag_414:\n        /* \"#utility.yul\":4741:4765   */\n      tag_564\n        /* \"#utility.yul\":4759:4764   */\n      dup2\n        /* \"#utility.yul\":4741:4765   */\n      tag_408\n      jump\t// in\n    tag_564:\n        /* \"#utility.yul\":4736:4739   */\n      dup3\n        /* \"#utility.yul\":4729:4766   */\n      mstore\n        /* \"#utility.yul\":4654:4772   */\n      pop\n      pop\n      jump\t// out\n        /* \"#utility.yul\":4778:5000   */\n    tag_34:\n        /* \"#utility.yul\":4871:4875   */\n      0x00\n        /* \"#utility.yul\":4909:4911   */\n      0x20\n        /* \"#utility.yul\":4898:4907   */\n      dup3\n        /* \"#utility.yul\":4894:4912   */\n      add\n        /* \"#utility.yul\":4886:4912   */\n      swap1\n      pop\n        /* \"#utility.yul\":4922:4993   */\n      tag_566\n        /* \"#utility.yul\":4990:4991   */\n      0x00\n        /* \"#utility.yul\":4979:4988   */\n      dup4\n        /* \"#utility.yul\":4975:4992   */\n      add\n        /* \"#utility.yul\":4966:4972   */\n      dup5\n        /* \"#utility.yul\":4922:4993   */\n      tag_414\n      jump\t// in\n    tag_566:\n        /* \"#utility.yul\":4778:5000   */\n      swap3\n      swap2\n      pop\n      pop\n      jump\t// out\n        /* \"#utility.yul\":5006:5132   */\n    tag_415:\n        /* \"#utility.yul\":5043:5050   */\n      0x00\n        /* \"#utility.yul\":5083:5125   */\n      0xffffffffffffffffffffffffffffffffffffffff\n        /* \"#utility.yul\":5076:5081   */\n      dup3\n        /* \"#utility.yul\":5072:5126   */\n      and\n        /* \"#utility.yul\":5061:5126   */\n      swap1\n      pop\n        /* \"#utility.yul\":5006:5132   */\n      swap2\n      swap1\n      pop\n      jump\t// out\n        /* \"#utility.yul\":5138:5198   */\n    tag_416:\n        /* \"#utility.yul\":5166:5169   */\n      0x00\n        /* \"#utility.yul\":5187:5192   */\n      dup2\n        /* \"#utility.yul\":5180:5192   */\n      swap1\n      pop\n        /* \"#utility.yul\":5138:5198   */\n      swap2\n      swap1\n      pop\n      jump\t// out\n        /* \"#utility.yul\":5204:5346   */\n    tag_417:\n        /* \"#utility.yul\":5254:5263   */\n      0x00\n        /* \"#utility.yul\":5287:5340   */\n      tag_570\n        /* \"#utility.yul\":5305:5339   */\n      tag_571\n        /* \"#utility.yul\":5314:5338   */\n      tag_572\n        /* \"#utility.yul\":5332:5337   */\n      dup5\n        /* \"#utility.yul\":5314:5338   */\n      tag_415\n      jump\t// in\n    tag_572:\n        /* \"#utility.yul\":5305:5339   */\n      tag_416\n      jump\t// in\n    tag_571:\n        /* \"#utility.yul\":5287:5340   */\n      tag_415\n      jump\t// in\n    tag_570:\n        /* \"#utility.yul\":5274:5340   */\n      swap1\n      pop\n        /* \"#utility.yul\":5204:5346   */\n      swap2\n      swap1\n      pop\n      jump\t// out\n        /* \"#utility.yul\":5352:5478   */\n    tag_418:\n        /* \"#utility.yul\":5402:5411   */\n      0x00\n        /* \"#utility.yul\":5435:5472   */\n      tag_574\n        /* \"#utility.yul\":5466:5471   */\n      dup3\n        /* \"#utility.yul\":5435:5472   */\n      tag_417\n      jump\t// in\n    tag_574:\n        /* \"#utility.yul\":5422:5472   */\n      swap1\n      pop\n        /* \"#utility.yul\":5352:5478   */\n      swap2\n      swap1\n      pop\n      jump\t// out\n        /* \"#utility.yul\":5484:5633   */\n    tag_419:\n        /* \"#utility.yul\":5557:5566   */\n      0x00\n        /* \"#utility.yul\":5590:5627   */\n      tag_576\n        /* \"#utility.yul\":5621:5626   */\n      dup3\n        /* \"#utility.yul\":5590:5627   */\n      tag_418\n      jump\t// in\n    tag_576:\n        /* \"#utility.yul\":5577:5627   */\n      swap1\n      pop\n        /* \"#utility.yul\":5484:5633   */\n      swap2\n      swap1\n      pop\n      jump\t// out\n        /* \"#utility.yul\":5639:5816   */\n    tag_420:\n        /* \"#utility.yul\":5749:5809   */\n      tag_578\n        /* \"#utility.yul\":5803:5808   */\n      dup2\n        /* \"#utility.yul\":5749:5809   */\n      tag_419\n      jump\t// in\n    tag_578:\n        /* \"#utility.yul\":5744:5747   */\n      dup3\n        /* \"#utility.yul\":5737:5810   */\n      mstore\n        /* \"#utility.yul\":5639:5816   */\n      pop\n      pop\n      jump\t// out\n        /* \"#utility.yul\":5822:6090   */\n    tag_39:\n        /* \"#utility.yul\":5938:5942   */\n      0x00\n        /* \"#utility.yul\":5976:5978   */\n      0x20\n        /* \"#utility.yul\":5965:5974   */\n      dup3\n        /* \"#utility.yul\":5961:5979   */\n      add\n        /* \"#utility.yul\":5953:5979   */\n      swap1\n      pop\n        /* \"#utility.yul\":5989:6083   */\n      tag_580\n        /* \"#utility.yul\":6080:6081   */\n      0x00\n        /* \"#utility.yul\":6069:6078   */\n      dup4\n        /* \"#utility.yul\":6065:6082   */\n      add\n        /* \"#utility.yul\":6056:6062   */\n      dup5\n        /* \"#utility.yul\":5989:6083   */\n      tag_420\n      jump\t// in\n    tag_580:\n        /* \"#utility.yul\":5822:6090   */\n      swap3\n      swap2\n      pop\n      pop\n      jump\t// out\n        /* \"#utility.yul\":6096:6715   */\n    tag_43:\n        /* \"#utility.yul\":6173:6179   */\n      0x00\n        /* \"#utility.yul\":6181:6187   */\n      dup1\n        /* \"#utility.yul\":6189:6195   */\n      0x00\n        /* \"#utility.yul\":6238:6240   */\n      0x60\n        /* \"#utility.yul\":6226:6235   */\n      dup5\n        /* \"#utility.yul\":6217:6224   */\n      dup7\n        /* \"#utility.yul\":6213:6236   */\n      sub\n        /* \"#utility.yul\":6209:6241   */\n      slt\n        /* \"#utility.yul\":6206:6325   */\n      iszero\n      tag_582\n      jumpi\n        /* \"#utility.yul\":6244:6323   */\n      tag_583\n      tag_396\n      jump\t// in\n    tag_583:\n        /* \"#utility.yul\":6206:6325   */\n    tag_582:\n        /* \"#utility.yul\":6364:6365   */\n      0x00\n        /* \"#utility.yul\":6389:6442   */\n      tag_584\n        /* \"#utility.yul\":6434:6441   */\n      dup7\n        /* \"#utility.yul\":6425:6431   */\n      dup3\n        /* \"#utility.yul\":6414:6423   */\n      dup8\n        /* \"#utility.yul\":6410:6432   */\n      add\n        /* \"#utility.yul\":6389:6442   */\n      tag_413\n      jump\t// in\n    tag_584:\n        /* \"#utility.yul\":6379:6442   */\n      swap4\n      pop\n        /* \"#utility.yul\":6335:6452   */\n      pop\n        /* \"#utility.yul\":6491:6493   */\n      0x20\n        /* \"#utility.yul\":6517:6570   */\n      tag_585\n        /* \"#utility.yul\":6562:6569   */\n      dup7\n        /* \"#utility.yul\":6553:6559   */\n      dup3\n        /* \"#utility.yul\":6542:6551   */\n      dup8\n        /* \"#utility.yul\":6538:6560   */\n      add\n        /* \"#utility.yul\":6517:6570   */\n      tag_410\n      jump\t// in\n    tag_585:\n        /* \"#utility.yul\":6507:6570   */\n      swap3\n      pop\n        /* \"#utility.yul\":6462:6580   */\n      pop\n        /* \"#utility.yul\":6619:6621   */\n      0x40\n        /* \"#utility.yul\":6645:6698   */\n      tag_586\n        /* \"#utility.yul\":6690:6697   */\n      dup7\n        /* \"#utility.yul\":6681:6687   */\n      dup3\n        /* \"#utility.yul\":6670:6679   */\n      dup8\n        /* \"#utility.yul\":6666:6688   */\n      add\n        /* \"#utility.yul\":6645:6698   */\n      tag_410\n      jump\t// in\n    tag_586:\n        /* \"#utility.yul\":6635:6698   */\n      swap2\n      pop\n        /* \"#utility.yul\":6590:6708   */\n      pop\n        /* \"#utility.yul\":6096:6715   */\n      swap3\n      pop\n      swap3\n      pop\n      swap3\n      jump\t// out\n        /* \"#utility.yul\":6721:6861   */\n    tag_421:\n        /* \"#utility.yul\":6785:6794   */\n      0x00\n        /* \"#utility.yul\":6818:6855   */\n      tag_588\n        /* \"#utility.yul\":6849:6854   */\n      dup3\n        /* \"#utility.yul\":6818:6855   */\n      tag_418\n      jump\t// in\n    tag_588:\n        /* \"#utility.yul\":6805:6855   */\n      swap1\n      pop\n        /* \"#utility.yul\":6721:6861   */\n      swap2\n      swap1\n      pop\n      jump\t// out\n        /* \"#utility.yul\":6867:7026   */\n    tag_422:\n        /* \"#utility.yul\":6968:7019   */\n      tag_590\n        /* \"#utility.yul\":7013:7018   */\n      dup2\n        /* \"#utility.yul\":6968:7019   */\n      tag_421\n      jump\t// in\n    tag_590:\n        /* \"#utility.yul\":6963:6966   */\n      dup3\n        /* \"#utility.yul\":6956:7020   */\n      mstore\n        /* \"#utility.yul\":6867:7026   */\n      pop\n      pop\n      jump\t// out\n        /* \"#utility.yul\":7032:7282   */\n    tag_52:\n        /* \"#utility.yul\":7139:7143   */\n      0x00\n        /* \"#utility.yul\":7177:7179   */\n      0x20\n        /* \"#utility.yul\":7166:7175   */\n      dup3\n        /* \"#utility.yul\":7162:7180   */\n      add\n        /* \"#utility.yul\":7154:7180   */\n      swap1\n      pop\n        /* \"#utility.yul\":7190:7275   */\n      tag_592\n        /* \"#utility.yul\":7272:7273   */\n      0x00\n        /* \"#utility.yul\":7261:7270   */\n      dup4\n        /* \"#utility.yul\":7257:7274   */\n      add\n        /* \"#utility.yul\":7248:7254   */\n      dup5\n        /* \"#utility.yul\":7190:7275   */\n      tag_422\n      jump\t// in\n    tag_592:\n        /* \"#utility.yul\":7032:7282   */\n      swap3\n      swap2\n      pop\n      pop\n      jump\t// out\n        /* \"#utility.yul\":7288:7405   */\n    tag_423:\n        /* \"#utility.yul\":7397:7398   */\n      0x00\n        /* \"#utility.yul\":7394:7395   */\n      dup1\n        /* \"#utility.yul\":7387:7399   */\n      revert\n        /* \"#utility.yul\":7411:7528   */\n    tag_424:\n        /* \"#utility.yul\":7520:7521   */\n      0x00\n        /* \"#utility.yul\":7517:7518   */\n      dup1\n        /* \"#utility.yul\":7510:7522   */\n      revert\n        /* \"#utility.yul\":7551:8119   */\n    tag_425:\n        /* \"#utility.yul\":7624:7632   */\n      0x00\n        /* \"#utility.yul\":7634:7640   */\n      dup1\n        /* \"#utility.yul\":7684:7687   */\n      dup4\n        /* \"#utility.yul\":7677:7681   */\n      0x1f\n        /* \"#utility.yul\":7669:7675   */\n      dup5\n        /* \"#utility.yul\":7665:7682   */\n      add\n        /* \"#utility.yul\":7661:7688   */\n      slt\n        /* \"#utility.yul\":7651:7773   */\n      tag_596\n      jumpi\n        /* \"#utility.yul\":7692:7771   */\n      tag_597\n      tag_398\n      jump\t// in\n    tag_597:\n        /* \"#utility.yul\":7651:7773   */\n    tag_596:\n        /* \"#utility.yul\":7805:7811   */\n      dup3\n        /* \"#utility.yul\":7792:7812   */\n      calldataload\n        /* \"#utility.yul\":7782:7812   */\n      swap1\n      pop\n        /* \"#utility.yul\":7835:7853   */\n      0xffffffffffffffff\n        /* \"#utility.yul\":7827:7833   */\n      dup2\n        /* \"#utility.yul\":7824:7854   */\n      gt\n        /* \"#utility.yul\":7821:7938   */\n      iszero\n      tag_598\n      jumpi\n        /* \"#utility.yul\":7857:7936   */\n      tag_599\n      tag_423\n      jump\t// in\n    tag_599:\n        /* \"#utility.yul\":7821:7938   */\n    tag_598:\n        /* \"#utility.yul\":7971:7975   */\n      0x20\n        /* \"#utility.yul\":7963:7969   */\n      dup4\n        /* \"#utility.yul\":7959:7976   */\n      add\n        /* \"#utility.yul\":7947:7976   */\n      swap2\n      pop\n        /* \"#utility.yul\":8025:8028   */\n      dup4\n        /* \"#utility.yul\":8017:8021   */\n      0x20\n        /* \"#utility.yul\":8009:8015   */\n      dup3\n        /* \"#utility.yul\":8005:8022   */\n      mul\n        /* \"#utility.yul\":7995:8003   */\n      dup4\n        /* \"#utility.yul\":7991:8023   */\n      add\n        /* \"#utility.yul\":7988:8029   */\n      gt\n        /* \"#utility.yul\":7985:8113   */\n      iszero\n      tag_600\n      jumpi\n        /* \"#utility.yul\":8032:8111   */\n      tag_601\n      tag_424\n      jump\t// in\n    tag_601:\n        /* \"#utility.yul\":7985:8113   */\n    tag_600:\n        /* \"#utility.yul\":7551:8119   */\n      swap3\n      pop\n      swap3\n      swap1\n      pop\n      jump\t// out\n        /* \"#utility.yul\":8125:8829   */\n    tag_59:\n        /* \"#utility.yul\":8220:8226   */\n      0x00\n        /* \"#utility.yul\":8228:8234   */\n      dup1\n        /* \"#utility.yul\":8236:8242   */\n      0x00\n        /* \"#utility.yul\":8285:8287   */\n      0x40\n        /* \"#utility.yul\":8273:8282   */\n      dup5\n        /* \"#utility.yul\":8264:8271   */\n      dup7\n        /* \"#utility.yul\":8260:8283   */\n      sub\n        /* \"#utility.yul\":8256:8288   */\n      slt\n        /* \"#utility.yul\":8253:8372   */\n      iszero\n      tag_603\n      jumpi\n        /* \"#utility.yul\":8291:8370   */\n      tag_604\n      tag_396\n      jump\t// in\n    tag_604:\n        /* \"#utility.yul\":8253:8372   */\n    tag_603:\n        /* \"#utility.yul\":8411:8412   */\n      0x00\n        /* \"#utility.yul\":8436:8489   */\n      tag_605\n        /* \"#utility.yul\":8481:8488   */\n      dup7\n        /* \"#utility.yul\":8472:8478   */\n      dup3\n        /* \"#utility.yul\":8461:8470   */\n      dup8\n        /* \"#utility.yul\":8457:8479   */\n      add\n        /* \"#utility.yul\":8436:8489   */\n      tag_413\n      jump\t// in\n    tag_605:\n        /* \"#utility.yul\":8426:8489   */\n      swap4\n      pop\n        /* \"#utility.yul\":8382:8499   */\n      pop\n        /* \"#utility.yul\":8566:8568   */\n      0x20\n        /* \"#utility.yul\":8555:8564   */\n      dup5\n        /* \"#utility.yul\":8551:8569   */\n      add\n        /* \"#utility.yul\":8538:8570   */\n      calldataload\n        /* \"#utility.yul\":8597:8615   */\n      0xffffffffffffffff\n        /* \"#utility.yul\":8589:8595   */\n      dup2\n        /* \"#utility.yul\":8586:8616   */\n      gt\n        /* \"#utility.yul\":8583:8700   */\n      iszero\n      tag_606\n      jumpi\n        /* \"#utility.yul\":8619:8698   */\n      tag_607\n      tag_397\n      jump\t// in\n    tag_607:\n        /* \"#utility.yul\":8583:8700   */\n    tag_606:\n        /* \"#utility.yul\":8732:8812   */\n      tag_608\n        /* \"#utility.yul\":8804:8811   */\n      dup7\n        /* \"#utility.yul\":8795:8801   */\n      dup3\n        /* \"#utility.yul\":8784:8793   */\n      dup8\n        /* \"#utility.yul\":8780:8802   */\n      add\n        /* \"#utility.yul\":8732:8812   */\n      tag_425\n      jump\t// in\n    tag_608:\n        /* \"#utility.yul\":8714:8812   */\n      swap3\n      pop\n      swap3\n      pop\n        /* \"#utility.yul\":8509:8822   */\n      pop\n        /* \"#utility.yul\":8125:8829   */\n      swap3\n      pop\n      swap3\n      pop\n      swap3\n      jump\t// out\n        /* \"#utility.yul\":8835:8931   */\n    tag_426:\n        /* \"#utility.yul\":8872:8879   */\n      0x00\n        /* \"#utility.yul\":8901:8925   */\n      tag_610\n        /* \"#utility.yul\":8919:8924   */\n      dup3\n        /* \"#utility.yul\":8901:8925   */\n      tag_415\n      jump\t// in\n    tag_610:\n        /* \"#utility.yul\":8890:8925   */\n      swap1\n      pop\n        /* \"#utility.yul\":8835:8931   */\n      swap2\n      swap1\n      pop\n      jump\t// out\n        /* \"#utility.yul\":8937:9059   */\n    tag_427:\n        /* \"#utility.yul\":9010:9034   */\n      tag_612\n        /* \"#utility.yul\":9028:9033   */\n      dup2\n        /* \"#utility.yul\":9010:9034   */\n      tag_426\n      jump\t// in\n    tag_612:\n        /* \"#utility.yul\":9003:9008   */\n      dup2\n        /* \"#utility.yul\":9000:9035   */\n      eq\n        /* \"#utility.yul\":8990:9053   */\n      tag_613\n      jumpi\n        /* \"#utility.yul\":9049:9050   */\n      0x00\n        /* \"#utility.yul\":9046:9047   */\n      dup1\n        /* \"#utility.yul\":9039:9051   */\n      revert\n        /* \"#utility.yul\":8990:9053   */\n    tag_613:\n        /* \"#utility.yul\":8937:9059   */\n      pop\n      jump\t// out\n        /* \"#utility.yul\":9065:9204   */\n    tag_428:\n        /* \"#utility.yul\":9111:9116   */\n      0x00\n        /* \"#utility.yul\":9149:9155   */\n      dup2\n        /* \"#utility.yul\":9136:9156   */\n      calldataload\n        /* \"#utility.yul\":9127:9156   */\n      swap1\n      pop\n        /* \"#utility.yul\":9165:9198   */\n      tag_615\n        /* \"#utility.yul\":9192:9197   */\n      dup2\n        /* \"#utility.yul\":9165:9198   */\n      tag_427\n      jump\t// in\n    tag_615:\n        /* \"#utility.yul\":9065:9204   */\n      swap3\n      swap2\n      pop\n      pop\n      jump\t// out\n        /* \"#utility.yul\":9210:9539   */\n    tag_67:\n        /* \"#utility.yul\":9269:9275   */\n      0x00\n        /* \"#utility.yul\":9318:9320   */\n      0x20\n        /* \"#utility.yul\":9306:9315   */\n      dup3\n        /* \"#utility.yul\":9297:9304   */\n      dup5\n        /* \"#utility.yul\":9293:9316   */\n      sub\n        /* \"#utility.yul\":9289:9321   */\n      slt\n        /* \"#utility.yul\":9286:9405   */\n      iszero\n      tag_617\n      jumpi\n        /* \"#utility.yul\":9324:9403   */\n      tag_618\n      tag_396\n      jump\t// in\n    tag_618:\n        /* \"#utility.yul\":9286:9405   */\n    tag_617:\n        /* \"#utility.yul\":9444:9445   */\n      0x00\n        /* \"#utility.yul\":9469:9522   */\n      tag_619\n        /* \"#utility.yul\":9514:9521   */\n      dup5\n        /* \"#utility.yul\":9505:9511   */\n      dup3\n        /* \"#utility.yul\":9494:9503   */\n      dup6\n        /* \"#utility.yul\":9490:9512   */\n      add\n        /* \"#utility.yul\":9469:9522   */\n      tag_428\n      jump\t// in\n    tag_619:\n        /* \"#utility.yul\":9459:9522   */\n      swap2\n      pop\n        /* \"#utility.yul\":9415:9532   */\n      pop\n        /* \"#utility.yul\":9210:9539   */\n      swap3\n      swap2\n      pop\n      pop\n      jump\t// out\n        /* \"#utility.yul\":9545:9663   */\n    tag_429:\n        /* \"#utility.yul\":9632:9656   */\n      tag_621\n        /* \"#utility.yul\":9650:9655   */\n      dup2\n        /* \"#utility.yul\":9632:9656   */\n      tag_411\n      jump\t// in\n    tag_621:\n        /* \"#utility.yul\":9627:9630   */\n      dup3\n        /* \"#utility.yul\":9620:9657   */\n      mstore\n        /* \"#utility.yul\":9545:9663   */\n      pop\n      pop\n      jump\t// out\n        /* \"#utility.yul\":9669:9891   */\n    tag_70:\n        /* \"#utility.yul\":9762:9766   */\n      0x00\n        /* \"#utility.yul\":9800:9802   */\n      0x20\n        /* \"#utility.yul\":9789:9798   */\n      dup3\n        /* \"#utility.yul\":9785:9803   */\n      add\n        /* \"#utility.yul\":9777:9803   */\n      swap1\n      pop\n        /* \"#utility.yul\":9813:9884   */\n      tag_623\n        /* \"#utility.yul\":9881:9882   */\n      0x00\n        /* \"#utility.yul\":9870:9879   */\n      dup4\n        /* \"#utility.yul\":9866:9883   */\n      add\n        /* \"#utility.yul\":9857:9863   */\n      dup5\n        /* \"#utility.yul\":9813:9884   */\n      tag_429\n      jump\t// in\n    tag_623:\n        /* \"#utility.yul\":9669:9891   */\n      swap3\n      swap2\n      pop\n      pop\n      jump\t// out\n        /* \"#utility.yul\":9897:10226   */\n    tag_77:\n        /* \"#utility.yul\":9956:9962   */\n      0x00\n        /* \"#utility.yul\":10005:10007   */\n      0x20\n        /* \"#utility.yul\":9993:10002   */\n      dup3\n        /* \"#utility.yul\":9984:9991   */\n      dup5\n        /* \"#utility.yul\":9980:10003   */\n      sub\n        /* \"#utility.yul\":9976:10008   */\n      slt\n        /* \"#utility.yul\":9973:10092   */\n      iszero\n      tag_625\n      jumpi\n        /* \"#utility.yul\":10011:10090   */\n      tag_626\n      tag_396\n      jump\t// in\n    tag_626:\n        /* \"#utility.yul\":9973:10092   */\n    tag_625:\n        /* \"#utility.yul\":10131:10132   */\n      0x00\n        /* \"#utility.yul\":10156:10209   */\n      tag_627\n        /* \"#utility.yul\":10201:10208   */\n      dup5\n        /* \"#utility.yul\":10192:10198   */\n      dup3\n        /* \"#utility.yul\":10181:10190   */\n      dup6\n        /* \"#utility.yul\":10177:10199   */\n      add\n        /* \"#utility.yul\":10156:10209   */\n      tag_410\n      jump\t// in\n    tag_627:\n        /* \"#utility.yul\":10146:10209   */\n      swap2\n      pop\n        /* \"#utility.yul\":10102:10219   */\n      pop\n        /* \"#utility.yul\":9897:10226   */\n      swap3\n      swap2\n      pop\n      pop\n      jump\t// out\n        /* \"#utility.yul\":10232:10706   */\n    tag_82:\n        /* \"#utility.yul\":10300:10306   */\n      0x00\n        /* \"#utility.yul\":10308:10314   */\n      dup1\n        /* \"#utility.yul\":10357:10359   */\n      0x40\n        /* \"#utility.yul\":10345:10354   */\n      dup4\n        /* \"#utility.yul\":10336:10343   */\n      dup6\n        /* \"#utility.yul\":10332:10355   */\n      sub\n        /* \"#utility.yul\":10328:10360   */\n      slt\n        /* \"#utility.yul\":10325:10444   */\n      iszero\n      tag_629\n      jumpi\n        /* \"#utility.yul\":10363:10442   */\n      tag_630\n      tag_396\n      jump\t// in\n    tag_630:\n        /* \"#utility.yul\":10325:10444   */\n    tag_629:\n        /* \"#utility.yul\":10483:10484   */\n      0x00\n        /* \"#utility.yul\":10508:10561   */\n      tag_631\n        /* \"#utility.yul\":10553:10560   */\n      dup6\n        /* \"#utility.yul\":10544:10550   */\n      dup3\n        /* \"#utility.yul\":10533:10542   */\n      dup7\n        /* \"#utility.yul\":10529:10551   */\n      add\n        /* \"#utility.yul\":10508:10561   */\n      tag_413\n      jump\t// in\n    tag_631:\n        /* \"#utility.yul\":10498:10561   */\n      swap3\n      pop\n        /* \"#utility.yul\":10454:10571   */\n      pop\n        /* \"#utility.yul\":10610:10612   */\n      0x20\n        /* \"#utility.yul\":10636:10689   */\n      tag_632\n        /* \"#utility.yul\":10681:10688   */\n      dup6\n        /* \"#utility.yul\":10672:10678   */\n      dup3\n        /* \"#utility.yul\":10661:10670   */\n      dup7\n        /* \"#utility.yul\":10657:10679   */\n      add\n        /* \"#utility.yul\":10636:10689   */\n      tag_413\n      jump\t// in\n    tag_632:\n        /* \"#utility.yul\":10626:10689   */\n      swap2\n      pop\n        /* \"#utility.yul\":10581:10699   */\n      pop\n        /* \"#utility.yul\":10232:10706   */\n      swap3\n      pop\n      swap3\n      swap1\n      pop\n      jump\t// out\n        /* \"#utility.yul\":10712:11041   */\n    tag_90:\n        /* \"#utility.yul\":10771:10777   */\n      0x00\n        /* \"#utility.yul\":10820:10822   */\n      0x20\n        /* \"#utility.yul\":10808:10817   */\n      dup3\n        /* \"#utility.yul\":10799:10806   */\n      dup5\n        /* \"#utility.yul\":10795:10818   */\n      sub\n        /* \"#utility.yul\":10791:10823   */\n      slt\n        /* \"#utility.yul\":10788:10907   */\n      iszero\n      tag_634\n      jumpi\n        /* \"#utility.yul\":10826:10905   */\n      tag_635\n      tag_396\n      jump\t// in\n    tag_635:\n        /* \"#utility.yul\":10788:10907   */\n    tag_634:\n        /* \"#utility.yul\":10946:10947   */\n      0x00\n        /* \"#utility.yul\":10971:11024   */\n      tag_636\n        /* \"#utility.yul\":11016:11023   */\n      dup5\n        /* \"#utility.yul\":11007:11013   */\n      dup3\n        /* \"#utility.yul\":10996:11005   */\n      dup6\n        /* \"#utility.yul\":10992:11014   */\n      add\n        /* \"#utility.yul\":10971:11024   */\n      tag_413\n      jump\t// in\n    tag_636:\n        /* \"#utility.yul\":10961:11024   */\n      swap2\n      pop\n        /* \"#utility.yul\":10917:11034   */\n      pop\n        /* \"#utility.yul\":10712:11041   */\n      swap3\n      swap2\n      pop\n      pop\n      jump\t// out\n        /* \"#utility.yul\":11047:11165   */\n    tag_430:\n        /* \"#utility.yul\":11134:11158   */\n      tag_638\n        /* \"#utility.yul\":11152:11157   */\n      dup2\n        /* \"#utility.yul\":11134:11158   */\n      tag_426\n      jump\t// in\n    tag_638:\n        /* \"#utility.yul\":11129:11132   */\n      dup3\n        /* \"#utility.yul\":11122:11159   */\n      mstore\n        /* \"#utility.yul\":11047:11165   */\n      pop\n      pop\n      jump\t// out\n        /* \"#utility.yul\":11171:11393   */\n    tag_96:\n        /* \"#utility.yul\":11264:11268   */\n      0x00\n        /* \"#utility.yul\":11302:11304   */\n      0x20\n        /* \"#utility.yul\":11291:11300   */\n      dup3\n        /* \"#utility.yul\":11287:11305   */\n      add\n        /* \"#utility.yul\":11279:11305   */\n      swap1\n      pop\n        /* \"#utility.yul\":11315:11386   */\n      tag_640\n        /* \"#utility.yul\":11383:11384   */\n      0x00\n        /* \"#utility.yul\":11372:11381   */\n      dup4\n        /* \"#utility.yul\":11368:11385   */\n      add\n        /* \"#utility.yul\":11359:11365   */\n      dup5\n        /* \"#utility.yul\":11315:11386   */\n      tag_430\n      jump\t// in\n    tag_640:\n        /* \"#utility.yul\":11171:11393   */\n      swap3\n      swap2\n      pop\n      pop\n      jump\t// out\n        /* \"#utility.yul\":11399:11540   */\n    tag_431:\n        /* \"#utility.yul\":11464:11473   */\n      0x00\n        /* \"#utility.yul\":11497:11534   */\n      tag_642\n        /* \"#utility.yul\":11528:11533   */\n      dup3\n        /* \"#utility.yul\":11497:11534   */\n      tag_418\n      jump\t// in\n    tag_642:\n        /* \"#utility.yul\":11484:11534   */\n      swap1\n      pop\n        /* \"#utility.yul\":11399:11540   */\n      swap2\n      swap1\n      pop\n      jump\t// out\n        /* \"#utility.yul\":11546:11707   */\n    tag_432:\n        /* \"#utility.yul\":11648:11700   */\n      tag_644\n        /* \"#utility.yul\":11694:11699   */\n      dup2\n        /* \"#utility.yul\":11648:11700   */\n      tag_431\n      jump\t// in\n    tag_644:\n        /* \"#utility.yul\":11643:11646   */\n      dup3\n        /* \"#utility.yul\":11636:11701   */\n      mstore\n        /* \"#utility.yul\":11546:11707   */\n      pop\n      pop\n      jump\t// out\n        /* \"#utility.yul\":11713:11965   */\n    tag_101:\n        /* \"#utility.yul\":11821:11825   */\n      0x00\n        /* \"#utility.yul\":11859:11861   */\n      0x20\n        /* \"#utility.yul\":11848:11857   */\n      dup3\n        /* \"#utility.yul\":11844:11862   */\n      add\n        /* \"#utility.yul\":11836:11862   */\n      swap1\n      pop\n        /* \"#utility.yul\":11872:11958   */\n      tag_646\n        /* \"#utility.yul\":11955:11956   */\n      0x00\n        /* \"#utility.yul\":11944:11953   */\n      dup4\n        /* \"#utility.yul\":11940:11957   */\n      add\n        /* \"#utility.yul\":11931:11937   */\n      dup5\n        /* \"#utility.yul\":11872:11958   */\n      tag_432\n      jump\t// in\n    tag_646:\n        /* \"#utility.yul\":11713:11965   */\n      swap3\n      swap2\n      pop\n      pop\n      jump\t// out\n        /* \"#utility.yul\":11971:12070   */\n    tag_433:\n        /* \"#utility.yul\":12023:12029   */\n      0x00\n        /* \"#utility.yul\":12057:12062   */\n      dup2\n        /* \"#utility.yul\":12051:12063   */\n      mload\n        /* \"#utility.yul\":12041:12063   */\n      swap1\n      pop\n        /* \"#utility.yul\":11971:12070   */\n      swap2\n      swap1\n      pop\n      jump\t// out\n        /* \"#utility.yul\":12076:12245   */\n    tag_434:\n        /* \"#utility.yul\":12160:12171   */\n      0x00\n        /* \"#utility.yul\":12194:12200   */\n      dup3\n        /* \"#utility.yul\":12189:12192   */\n      dup3\n        /* \"#utility.yul\":12182:12201   */\n      mstore\n        /* \"#utility.yul\":12234:12238   */\n      0x20\n        /* \"#utility.yul\":12229:12232   */\n      dup3\n        /* \"#utility.yul\":12225:12239   */\n      add\n        /* \"#utility.yul\":12210:12239   */\n      swap1\n      pop\n        /* \"#utility.yul\":12076:12245   */\n      swap3\n      swap2\n      pop\n      pop\n      jump\t// out\n        /* \"#utility.yul\":12251:12497   */\n    tag_435:\n        /* \"#utility.yul\":12332:12333   */\n      0x00\n        /* \"#utility.yul\":12342:12455   */\n    tag_650:\n        /* \"#utility.yul\":12356:12362   */\n      dup4\n        /* \"#utility.yul\":12353:12354   */\n      dup2\n        /* \"#utility.yul\":12350:12363   */\n      lt\n        /* \"#utility.yul\":12342:12455   */\n      iszero\n      tag_652\n      jumpi\n        /* \"#utility.yul\":12441:12442   */\n      dup1\n        /* \"#utility.yul\":12436:12439   */\n      dup3\n        /* \"#utility.yul\":12432:12443   */\n      add\n        /* \"#utility.yul\":12426:12444   */\n      mload\n        /* \"#utility.yul\":12422:12423   */\n      dup2\n        /* \"#utility.yul\":12417:12420   */\n      dup5\n        /* \"#utility.yul\":12413:12424   */\n      add\n        /* \"#utility.yul\":12406:12445   */\n      mstore\n        /* \"#utility.yul\":12378:12380   */\n      0x20\n        /* \"#utility.yul\":12375:12376   */\n      dup2\n        /* \"#utility.yul\":12371:12381   */\n      add\n        /* \"#utility.yul\":12366:12381   */\n      swap1\n      pop\n        /* \"#utility.yul\":12342:12455   */\n      jump(tag_650)\n    tag_652:\n        /* \"#utility.yul\":12489:12490   */\n      0x00\n        /* \"#utility.yul\":12480:12486   */\n      dup5\n        /* \"#utility.yul\":12475:12478   */\n      dup5\n        /* \"#utility.yul\":12471:12487   */\n      add\n        /* \"#utility.yul\":12464:12491   */\n      mstore\n        /* \"#utility.yul\":12313:12497   */\n      pop\n        /* \"#utility.yul\":12251:12497   */\n      pop\n      pop\n      pop\n      jump\t// out\n        /* \"#utility.yul\":12503:12880   */\n    tag_436:\n        /* \"#utility.yul\":12591:12594   */\n      0x00\n        /* \"#utility.yul\":12619:12658   */\n      tag_654\n        /* \"#utility.yul\":12652:12657   */\n      dup3\n        /* \"#utility.yul\":12619:12658   */\n      tag_433\n      jump\t// in\n    tag_654:\n        /* \"#utility.yul\":12674:12745   */\n      tag_655\n        /* \"#utility.yul\":12738:12744   */\n      dup2\n        /* \"#utility.yul\":12733:12736   */\n      dup6\n        /* \"#utility.yul\":12674:12745   */\n      tag_434\n      jump\t// in\n    tag_655:\n        /* \"#utility.yul\":12667:12745   */\n      swap4\n      pop\n        /* \"#utility.yul\":12754:12819   */\n      tag_656\n        /* \"#utility.yul\":12812:12818   */\n      dup2\n        /* \"#utility.yul\":12807:12810   */\n      dup6\n        /* \"#utility.yul\":12800:12804   */\n      0x20\n        /* \"#utility.yul\":12793:12798   */\n      dup7\n        /* \"#utility.yul\":12789:12805   */\n      add\n        /* \"#utility.yul\":12754:12819   */\n      tag_435\n      jump\t// in\n    tag_656:\n        /* \"#utility.yul\":12844:12873   */\n      tag_657\n        /* \"#utility.yul\":12866:12872   */\n      dup2\n        /* \"#utility.yul\":12844:12873   */\n      tag_400\n      jump\t// in\n    tag_657:\n        /* \"#utility.yul\":12839:12842   */\n      dup5\n        /* \"#utility.yul\":12835:12874   */\n      add\n        /* \"#utility.yul\":12828:12874   */\n      swap2\n      pop\n        /* \"#utility.yul\":12595:12880   */\n      pop\n        /* \"#utility.yul\":12503:12880   */\n      swap3\n      swap2\n      pop\n      pop\n      jump\t// out\n        /* \"#utility.yul\":12886:12987   */\n    tag_437:\n        /* \"#utility.yul\":12922:12929   */\n      0x00\n        /* \"#utility.yul\":12962:12980   */\n      0xffffffffffffffff\n        /* \"#utility.yul\":12955:12960   */\n      dup3\n        /* \"#utility.yul\":12951:12981   */\n      and\n        /* \"#utility.yul\":12940:12981   */\n      swap1\n      pop\n        /* \"#utility.yul\":12886:12987   */\n      swap2\n      swap1\n      pop\n      jump\t// out\n        /* \"#utility.yul\":12993:13108   */\n    tag_438:\n        /* \"#utility.yul\":13078:13101   */\n      tag_660\n        /* \"#utility.yul\":13095:13100   */\n      dup2\n        /* \"#utility.yul\":13078:13101   */\n      tag_437\n      jump\t// in\n    tag_660:\n        /* \"#utility.yul\":13073:13076   */\n      dup3\n        /* \"#utility.yul\":13066:13102   */\n      mstore\n        /* \"#utility.yul\":12993:13108   */\n      pop\n      pop\n      jump\t// out\n        /* \"#utility.yul\":13114:14533   */\n    tag_115:\n        /* \"#utility.yul\":13506:13510   */\n      0x00\n        /* \"#utility.yul\":13544:13547   */\n      0x0160\n        /* \"#utility.yul\":13533:13542   */\n      dup3\n        /* \"#utility.yul\":13529:13548   */\n      add\n        /* \"#utility.yul\":13521:13548   */\n      swap1\n      pop\n        /* \"#utility.yul\":13594:13603   */\n      dup2\n        /* \"#utility.yul\":13588:13592   */\n      dup2\n        /* \"#utility.yul\":13584:13604   */\n      sub\n        /* \"#utility.yul\":13580:13581   */\n      0x00\n        /* \"#utility.yul\":13569:13578   */\n      dup4\n        /* \"#utility.yul\":13565:13582   */\n      add\n        /* \"#utility.yul\":13558:13605   */\n      mstore\n        /* \"#utility.yul\":13622:13700   */\n      tag_662\n        /* \"#utility.yul\":13695:13699   */\n      dup2\n        /* \"#utility.yul\":13686:13692   */\n      dup15\n        /* \"#utility.yul\":13622:13700   */\n      tag_436\n      jump\t// in\n    tag_662:\n        /* \"#utility.yul\":13614:13700   */\n      swap1\n      pop\n        /* \"#utility.yul\":13710:13782   */\n      tag_663\n        /* \"#utility.yul\":13778:13780   */\n      0x20\n        /* \"#utility.yul\":13767:13776   */\n      dup4\n        /* \"#utility.yul\":13763:13781   */\n      add\n        /* \"#utility.yul\":13754:13760   */\n      dup14\n        /* \"#utility.yul\":13710:13782   */\n      tag_429\n      jump\t// in\n    tag_663:\n        /* \"#utility.yul\":13792:13864   */\n      tag_664\n        /* \"#utility.yul\":13860:13862   */\n      0x40\n        /* \"#utility.yul\":13849:13858   */\n      dup4\n        /* \"#utility.yul\":13845:13863   */\n      add\n        /* \"#utility.yul\":13836:13842   */\n      dup13\n        /* \"#utility.yul\":13792:13864   */\n      tag_429\n      jump\t// in\n    tag_664:\n        /* \"#utility.yul\":13874:13946   */\n      tag_665\n        /* \"#utility.yul\":13942:13944   */\n      0x60\n        /* \"#utility.yul\":13931:13940   */\n      dup4\n        /* \"#utility.yul\":13927:13945   */\n      add\n        /* \"#utility.yul\":13918:13924   */\n      dup12\n        /* \"#utility.yul\":13874:13946   */\n      tag_429\n      jump\t// in\n    tag_665:\n        /* \"#utility.yul\":13956:14029   */\n      tag_666\n        /* \"#utility.yul\":14024:14027   */\n      0x80\n        /* \"#utility.yul\":14013:14022   */\n      dup4\n        /* \"#utility.yul\":14009:14028   */\n      add\n        /* \"#utility.yul\":14000:14006   */\n      dup11\n        /* \"#utility.yul\":13956:14029   */\n      tag_429\n      jump\t// in\n    tag_666:\n        /* \"#utility.yul\":14039:14112   */\n      tag_667\n        /* \"#utility.yul\":14107:14110   */\n      0xa0\n        /* \"#utility.yul\":14096:14105   */\n      dup4\n        /* \"#utility.yul\":14092:14111   */\n      add\n        /* \"#utility.yul\":14083:14089   */\n      dup10\n        /* \"#utility.yul\":14039:14112   */\n      tag_429\n      jump\t// in\n    tag_667:\n        /* \"#utility.yul\":14122:14195   */\n      tag_668\n        /* \"#utility.yul\":14190:14193   */\n      0xc0\n        /* \"#utility.yul\":14179:14188   */\n      dup4\n        /* \"#utility.yul\":14175:14194   */\n      add\n        /* \"#utility.yul\":14166:14172   */\n      dup9\n        /* \"#utility.yul\":14122:14195   */\n      tag_429\n      jump\t// in\n    tag_668:\n        /* \"#utility.yul\":14205:14278   */\n      tag_669\n        /* \"#utility.yul\":14273:14276   */\n      0xe0\n        /* \"#utility.yul\":14262:14271   */\n      dup4\n        /* \"#utility.yul\":14258:14277   */\n      add\n        /* \"#utility.yul\":14249:14255   */\n      dup8\n        /* \"#utility.yul\":14205:14278   */\n      tag_429\n      jump\t// in\n    tag_669:\n        /* \"#utility.yul\":14288:14361   */\n      tag_670\n        /* \"#utility.yul\":14356:14359   */\n      0x0100\n        /* \"#utility.yul\":14345:14354   */\n      dup4\n        /* \"#utility.yul\":14341:14360   */\n      add\n        /* \"#utility.yul\":14332:14338   */\n      dup7\n        /* \"#utility.yul\":14288:14361   */\n      tag_429\n      jump\t// in\n    tag_670:\n        /* \"#utility.yul\":14371:14442   */\n      tag_671\n        /* \"#utility.yul\":14437:14440   */\n      0x0120\n        /* \"#utility.yul\":14426:14435   */\n      dup4\n        /* \"#utility.yul\":14422:14441   */\n      add\n        /* \"#utility.yul\":14413:14419   */\n      dup6\n        /* \"#utility.yul\":14371:14442   */\n      tag_438\n      jump\t// in\n    tag_671:\n        /* \"#utility.yul\":14452:14526   */\n      tag_672\n        /* \"#utility.yul\":14521:14524   */\n      0x0140\n        /* \"#utility.yul\":14510:14519   */\n      dup4\n        /* \"#utility.yul\":14506:14525   */\n      add\n        /* \"#utility.yul\":14496:14503   */\n      dup5\n        /* \"#utility.yul\":14452:14526   */\n      tag_430\n      jump\t// in\n    tag_672:\n        /* \"#utility.yul\":13114:14533   */\n      swap13\n      swap12\n      pop\n      pop\n      pop\n      pop\n      pop\n      pop\n      pop\n      pop\n      pop\n      pop\n      pop\n      pop\n      jump\t// out\n        /* \"#utility.yul\":14539:14657   */\n    tag_439:\n        /* \"#utility.yul\":14576:14583   */\n      0x00\n        /* \"#utility.yul\":14616:14650   */\n      0xffffffffffffffffffffffffffffffff\n        /* \"#utility.yul\":14609:14614   */\n      dup3\n        /* \"#utility.yul\":14605:14651   */\n      and\n        /* \"#utility.yul\":14594:14651   */\n      swap1\n      pop\n        /* \"#utility.yul\":14539:14657   */\n      swap2\n      swap1\n      pop\n      jump\t// out\n        /* \"#utility.yul\":14663:14785   */\n    tag_440:\n        /* \"#utility.yul\":14736:14760   */\n      tag_675\n        /* \"#utility.yul\":14754:14759   */\n      dup2\n        /* \"#utility.yul\":14736:14760   */\n      tag_439\n      jump\t// in\n    tag_675:\n        /* \"#utility.yul\":14729:14734   */\n      dup2\n        /* \"#utility.yul\":14726:14761   */\n      eq\n        /* \"#utility.yul\":14716:14779   */\n      tag_676\n      jumpi\n        /* \"#utility.yul\":14775:14776   */\n      0x00\n        /* \"#utility.yul\":14772:14773   */\n      dup1\n        /* \"#utility.yul\":14765:14777   */\n      revert\n        /* \"#utility.yul\":14716:14779   */\n    tag_676:\n        /* \"#utility.yul\":14663:14785   */\n      pop\n      jump\t// out\n        /* \"#utility.yul\":14791:14934   */\n    tag_441:\n        /* \"#utility.yul\":14848:14853   */\n      0x00\n        /* \"#utility.yul\":14879:14885   */\n      dup2\n        /* \"#utility.yul\":14873:14886   */\n      mload\n        /* \"#utility.yul\":14864:14886   */\n      swap1\n      pop\n        /* \"#utility.yul\":14895:14928   */\n      tag_678\n        /* \"#utility.yul\":14922:14927   */\n      dup2\n        /* \"#utility.yul\":14895:14928   */\n      tag_440\n      jump\t// in\n    tag_678:\n        /* \"#utility.yul\":14791:14934   */\n      swap3\n      swap2\n      pop\n      pop\n      jump\t// out\n        /* \"#utility.yul\":14940:15291   */\n    tag_125:\n        /* \"#utility.yul\":15010:15016   */\n      0x00\n        /* \"#utility.yul\":15059:15061   */\n      0x20\n        /* \"#utility.yul\":15047:15056   */\n      dup3\n        /* \"#utility.yul\":15038:15045   */\n      dup5\n        /* \"#utility.yul\":15034:15057   */\n      sub\n        /* \"#utility.yul\":15030:15062   */\n      slt\n        /* \"#utility.yul\":15027:15146   */\n      iszero\n      tag_680\n      jumpi\n        /* \"#utility.yul\":15065:15144   */\n      tag_681\n      tag_396\n      jump\t// in\n    tag_681:\n        /* \"#utility.yul\":15027:15146   */\n    tag_680:\n        /* \"#utility.yul\":15185:15186   */\n      0x00\n        /* \"#utility.yul\":15210:15274   */\n      tag_682\n        /* \"#utility.yul\":15266:15273   */\n      dup5\n        /* \"#utility.yul\":15257:15263   */\n      dup3\n        /* \"#utility.yul\":15246:15255   */\n      dup6\n        /* \"#utility.yul\":15242:15264   */\n      add\n        /* \"#utility.yul\":15210:15274   */\n      tag_441\n      jump\t// in\n    tag_682:\n        /* \"#utility.yul\":15200:15274   */\n      swap2\n      pop\n        /* \"#utility.yul\":15156:15284   */\n      pop\n        /* \"#utility.yul\":14940:15291   */\n      swap3\n      swap2\n      pop\n      pop\n      jump\t// out\n        /* \"#utility.yul\":15297:15463   */\n    tag_442:\n        /* \"#utility.yul\":15437:15455   */\n      0x496e73756666696369656e742066656500000000000000000000000000000000\n        /* \"#utility.yul\":15433:15434   */\n      0x00\n        /* \"#utility.yul\":15425:15431   */\n      dup3\n        /* \"#utility.yul\":15421:15435   */\n      add\n        /* \"#utility.yul\":15414:15456   */\n      mstore\n        /* \"#utility.yul\":15297:15463   */\n      pop\n      jump\t// out\n        /* \"#utility.yul\":15469:15835   */\n    tag_443:\n        /* \"#utility.yul\":15611:15614   */\n      0x00\n        /* \"#utility.yul\":15632:15699   */\n      tag_685\n        /* \"#utility.yul\":15696:15698   */\n      0x10\n        /* \"#utility.yul\":15691:15694   */\n      dup4\n        /* \"#utility.yul\":15632:15699   */\n      tag_434\n      jump\t// in\n    tag_685:\n        /* \"#utility.yul\":15625:15699   */\n      swap2\n      pop\n        /* \"#utility.yul\":15708:15801   */\n      tag_686\n        /* \"#utility.yul\":15797:15800   */\n      dup3\n        /* \"#utility.yul\":15708:15801   */\n      tag_442\n      jump\t// in\n    tag_686:\n        /* \"#utility.yul\":15826:15828   */\n      0x20\n        /* \"#utility.yul\":15821:15824   */\n      dup3\n        /* \"#utility.yul\":15817:15829   */\n      add\n        /* \"#utility.yul\":15810:15829   */\n      swap1\n      pop\n        /* \"#utility.yul\":15469:15835   */\n      swap2\n      swap1\n      pop\n      jump\t// out\n        /* \"#utility.yul\":15841:16260   */\n    tag_128:\n        /* \"#utility.yul\":16007:16011   */\n      0x00\n        /* \"#utility.yul\":16045:16047   */\n      0x20\n        /* \"#utility.yul\":16034:16043   */\n      dup3\n        /* \"#utility.yul\":16030:16048   */\n      add\n        /* \"#utility.yul\":16022:16048   */\n      swap1\n      pop\n        /* \"#utility.yul\":16094:16103   */\n      dup2\n        /* \"#utility.yul\":16088:16092   */\n      dup2\n        /* \"#utility.yul\":16084:16104   */\n      sub\n        /* \"#utility.yul\":16080:16081   */\n      0x00\n        /* \"#utility.yul\":16069:16078   */\n      dup4\n        /* \"#utility.yul\":16065:16082   */\n      add\n        /* \"#utility.yul\":16058:16105   */\n      mstore\n        /* \"#utility.yul\":16122:16253   */\n      tag_688\n        /* \"#utility.yul\":16248:16252   */\n      dup2\n        /* \"#utility.yul\":16122:16253   */\n      tag_443\n      jump\t// in\n    tag_688:\n        /* \"#utility.yul\":16114:16253   */\n      swap1\n      pop\n        /* \"#utility.yul\":15841:16260   */\n      swap2\n      swap1\n      pop\n      jump\t// out\n        /* \"#utility.yul\":16266:16447   */\n    tag_444:\n        /* \"#utility.yul\":16406:16439   */\n      0x526f746174696f6e206379636c65206d75737420626520706f73697469766500\n        /* \"#utility.yul\":16402:16403   */\n      0x00\n        /* \"#utility.yul\":16394:16400   */\n      dup3\n        /* \"#utility.yul\":16390:16404   */\n      add\n        /* \"#utility.yul\":16383:16440   */\n      mstore\n        /* \"#utility.yul\":16266:16447   */\n      pop\n      jump\t// out\n        /* \"#utility.yul\":16453:16819   */\n    tag_445:\n        /* \"#utility.yul\":16595:16598   */\n      0x00\n        /* \"#utility.yul\":16616:16683   */\n      tag_691\n        /* \"#utility.yul\":16680:16682   */\n      0x1f\n        /* \"#utility.yul\":16675:16678   */\n      dup4\n        /* \"#utility.yul\":16616:16683   */\n      tag_434\n      jump\t// in\n    tag_691:\n        /* \"#utility.yul\":16609:16683   */\n      swap2\n      pop\n        /* \"#utility.yul\":16692:16785   */\n      tag_692\n        /* \"#utility.yul\":16781:16784   */\n      dup3\n        /* \"#utility.yul\":16692:16785   */\n      tag_444\n      jump\t// in\n    tag_692:\n        /* \"#utility.yul\":16810:16812   */\n      0x20\n        /* \"#utility.yul\":16805:16808   */\n      dup3\n        /* \"#utility.yul\":16801:16813   */\n      add\n        /* \"#utility.yul\":16794:16813   */\n      swap1\n      pop\n        /* \"#utility.yul\":16453:16819   */\n      swap2\n      swap1\n      pop\n      jump\t// out\n        /* \"#utility.yul\":16825:17244   */\n    tag_131:\n        /* \"#utility.yul\":16991:16995   */\n      0x00\n        /* \"#utility.yul\":17029:17031   */\n      0x20\n        /* \"#utility.yul\":17018:17027   */\n      dup3\n        /* \"#utility.yul\":17014:17032   */\n      add\n        /* \"#utility.yul\":17006:17032   */\n      swap1\n      pop\n        /* \"#utility.yul\":17078:17087   */\n      dup2\n        /* \"#utility.yul\":17072:17076   */\n      dup2\n        /* \"#utility.yul\":17068:17088   */\n      sub\n        /* \"#utility.yul\":17064:17065   */\n      0x00\n        /* \"#utility.yul\":17053:17062   */\n      dup4\n        /* \"#utility.yul\":17049:17066   */\n      add\n        /* \"#utility.yul\":17042:17089   */\n      mstore\n        /* \"#utility.yul\":17106:17237   */\n      tag_694\n        /* \"#utility.yul\":17232:17236   */\n      dup2\n        /* \"#utility.yul\":17106:17237   */\n      tag_445\n      jump\t// in\n    tag_694:\n        /* \"#utility.yul\":17098:17237   */\n      swap1\n      pop\n        /* \"#utility.yul\":16825:17244   */\n      swap2\n      swap1\n      pop\n      jump\t// out\n        /* \"#utility.yul\":17250:17474   */\n    tag_446:\n        /* \"#utility.yul\":17390:17424   */\n      0x496e7465726573742064656e6f6d696e61746f72206d75737420626520706f73\n        /* \"#utility.yul\":17386:17387   */\n      0x00\n        /* \"#utility.yul\":17378:17384   */\n      dup3\n        /* \"#utility.yul\":17374:17388   */\n      add\n        /* \"#utility.yul\":17367:17425   */\n      mstore\n        /* \"#utility.yul\":17459:17466   */\n      0x6974697665000000000000000000000000000000000000000000000000000000\n        /* \"#utility.yul\":17454:17456   */\n      0x20\n        /* \"#utility.yul\":17446:17452   */\n      dup3\n        /* \"#utility.yul\":17442:17457   */\n      add\n        /* \"#utility.yul\":17435:17467   */\n      mstore\n        /* \"#utility.yul\":17250:17474   */\n      pop\n      jump\t// out\n        /* \"#utility.yul\":17480:17846   */\n    tag_447:\n        /* \"#utility.yul\":17622:17625   */\n      0x00\n        /* \"#utility.yul\":17643:17710   */\n      tag_697\n        /* \"#utility.yul\":17707:17709   */\n      0x25\n        /* \"#utility.yul\":17702:17705   */\n      dup4\n        /* \"#utility.yul\":17643:17710   */\n      tag_434\n      jump\t// in\n    tag_697:\n        /* \"#utility.yul\":17636:17710   */\n      swap2\n      pop\n        /* \"#utility.yul\":17719:17812   */\n      tag_698\n        /* \"#utility.yul\":17808:17811   */\n      dup3\n        /* \"#utility.yul\":17719:17812   */\n      tag_446\n      jump\t// in\n    tag_698:\n        /* \"#utility.yul\":17837:17839   */\n      0x40\n        /* \"#utility.yul\":17832:17835   */\n      dup3\n        /* \"#utility.yul\":17828:17840   */\n      add\n        /* \"#utility.yul\":17821:17840   */\n      swap1\n      pop\n        /* \"#utility.yul\":17480:17846   */\n      swap2\n      swap1\n      pop\n      jump\t// out\n        /* \"#utility.yul\":17852:18271   */\n    tag_134:\n        /* \"#utility.yul\":18018:18022   */\n      0x00\n        /* \"#utility.yul\":18056:18058   */\n      0x20\n        /* \"#utility.yul\":18045:18054   */\n      dup3\n        /* \"#utility.yul\":18041:18059   */\n      add\n        /* \"#utility.yul\":18033:18059   */\n      swap1\n      pop\n        /* \"#utility.yul\":18105:18114   */\n      dup2\n        /* \"#utility.yul\":18099:18103   */\n      dup2\n        /* \"#utility.yul\":18095:18115   */\n      sub\n        /* \"#utility.yul\":18091:18092   */\n      0x00\n        /* \"#utility.yul\":18080:18089   */\n      dup4\n        /* \"#utility.yul\":18076:18093   */\n      add\n        /* \"#utility.yul\":18069:18116   */\n      mstore\n        /* \"#utility.yul\":18133:18264   */\n      tag_700\n        /* \"#utility.yul\":18259:18263   */\n      dup2\n        /* \"#utility.yul\":18133:18264   */\n      tag_447\n      jump\t// in\n    tag_700:\n        /* \"#utility.yul\":18125:18264   */\n      swap1\n      pop\n        /* \"#utility.yul\":17852:18271   */\n      swap2\n      swap1\n      pop\n      jump\t// out\n        /* \"#utility.yul\":18277:18515   */\n    tag_448:\n        /* \"#utility.yul\":18417:18451   */\n      0x4e756d657261746f72206d757374206265206c657373207468616e206f722065\n        /* \"#utility.yul\":18413:18414   */\n      0x00\n        /* \"#utility.yul\":18405:18411   */\n      dup3\n        /* \"#utility.yul\":18401:18415   */\n      add\n        /* \"#utility.yul\":18394:18452   */\n      mstore\n        /* \"#utility.yul\":18486:18507   */\n      0x7175616c20746f2064656e6f6d696e61746f7200000000000000000000000000\n        /* \"#utility.yul\":18481:18483   */\n      0x20\n        /* \"#utility.yul\":18473:18479   */\n      dup3\n        /* \"#utility.yul\":18469:18484   */\n      add\n        /* \"#utility.yul\":18462:18508   */\n      mstore\n        /* \"#utility.yul\":18277:18515   */\n      pop\n      jump\t// out\n        /* \"#utility.yul\":18521:18887   */\n    tag_449:\n        /* \"#utility.yul\":18663:18666   */\n      0x00\n        /* \"#utility.yul\":18684:18751   */\n      tag_703\n        /* \"#utility.yul\":18748:18750   */\n      0x33\n        /* \"#utility.yul\":18743:18746   */\n      dup4\n        /* \"#utility.yul\":18684:18751   */\n      tag_434\n      jump\t// in\n    tag_703:\n        /* \"#utility.yul\":18677:18751   */\n      swap2\n      pop\n        /* \"#utility.yul\":18760:18853   */\n      tag_704\n        /* \"#utility.yul\":18849:18852   */\n      dup3\n        /* \"#utility.yul\":18760:18853   */\n      tag_448\n      jump\t// in\n    tag_704:\n        /* \"#utility.yul\":18878:18880   */\n      0x40\n        /* \"#utility.yul\":18873:18876   */\n      dup3\n        /* \"#utility.yul\":18869:18881   */\n      add\n        /* \"#utility.yul\":18862:18881   */\n      swap1\n      pop\n        /* \"#utility.yul\":18521:18887   */\n      swap2\n      swap1\n      pop\n      jump\t// out\n        /* \"#utility.yul\":18893:19312   */\n    tag_137:\n        /* \"#utility.yul\":19059:19063   */\n      0x00\n        /* \"#utility.yul\":19097:19099   */\n      0x20\n        /* \"#utility.yul\":19086:19095   */\n      dup3\n        /* \"#utility.yul\":19082:19100   */\n      add\n        /* \"#utility.yul\":19074:19100   */\n      swap1\n      pop\n        /* \"#utility.yul\":19146:19155   */\n      dup2\n        /* \"#utility.yul\":19140:19144   */\n      dup2\n        /* \"#utility.yul\":19136:19156   */\n      sub\n        /* \"#utility.yul\":19132:19133   */\n      0x00\n        /* \"#utility.yul\":19121:19130   */\n      dup4\n        /* \"#utility.yul\":19117:19134   */\n      add\n        /* \"#utility.yul\":19110:19157   */\n      mstore\n        /* \"#utility.yul\":19174:19305   */\n      tag_706\n        /* \"#utility.yul\":19300:19304   */\n      dup2\n        /* \"#utility.yul\":19174:19305   */\n      tag_449\n      jump\t// in\n    tag_706:\n        /* \"#utility.yul\":19166:19305   */\n      swap1\n      pop\n        /* \"#utility.yul\":18893:19312   */\n      swap2\n      swap1\n      pop\n      jump\t// out\n        /* \"#utility.yul\":19318:19498   */\n    tag_450:\n        /* \"#utility.yul\":19366:19443   */\n      0x4e487b7100000000000000000000000000000000000000000000000000000000\n        /* \"#utility.yul\":19363:19364   */\n      0x00\n        /* \"#utility.yul\":19356:19444   */\n      mstore\n        /* \"#utility.yul\":19463:19467   */\n      0x11\n        /* \"#utility.yul\":19460:19461   */\n      0x04\n        /* \"#utility.yul\":19453:19468   */\n      mstore\n        /* \"#utility.yul\":19487:19491   */\n      0x24\n        /* \"#utility.yul\":19484:19485   */\n      0x00\n        /* \"#utility.yul\":19477:19492   */\n      revert\n        /* \"#utility.yul\":19504:19737   */\n    tag_139:\n        /* \"#utility.yul\":19543:19546   */\n      0x00\n        /* \"#utility.yul\":19566:19590   */\n      tag_709\n        /* \"#utility.yul\":19584:19589   */\n      dup3\n        /* \"#utility.yul\":19566:19590   */\n      tag_411\n      jump\t// in\n    tag_709:\n        /* \"#utility.yul\":19557:19590   */\n      swap2\n      pop\n        /* \"#utility.yul\":19612:19678   */\n      0xffffffffffffffffffffffffffffffffffffffffffffffffffffffffffffffff\n        /* \"#utility.yul\":19605:19610   */\n      dup3\n        /* \"#utility.yul\":19602:19679   */\n      sub\n        /* \"#utility.yul\":19599:19702   */\n      tag_710\n      jumpi\n        /* \"#utility.yul\":19682:19700   */\n      tag_711\n      tag_450\n      jump\t// in\n    tag_711:\n        /* \"#utility.yul\":19599:19702   */\n    tag_710:\n        /* \"#utility.yul\":19729:19730   */\n      0x01\n        /* \"#utility.yul\":19722:19727   */\n      dup3\n        /* \"#utility.yul\":19718:19731   */\n      add\n        /* \"#utility.yul\":19711:19731   */\n      swap1\n      pop\n        /* \"#utility.yul\":19504:19737   */\n      swap2\n      swap1\n      pop\n      jump\t// out\n        /* \"#utility.yul\":19743:20185   */\n    tag_141:\n        /* \"#utility.yul\":19892:19896   */\n      0x00\n        /* \"#utility.yul\":19930:19932   */\n      0x60\n        /* \"#utility.yul\":19919:19928   */\n      dup3\n        /* \"#utility.yul\":19915:19933   */\n      add\n        /* \"#utility.yul\":19907:19933   */\n      swap1\n      pop\n        /* \"#utility.yul\":19943:20014   */\n      tag_713\n        /* \"#utility.yul\":20011:20012   */\n      0x00\n        /* \"#utility.yul\":20000:20009   */\n      dup4\n        /* \"#utility.yul\":19996:20013   */\n      add\n        /* \"#utility.yul\":19987:19993   */\n      dup7\n        /* \"#utility.yul\":19943:20014   */\n      tag_430\n      jump\t// in\n    tag_713:\n        /* \"#utility.yul\":20024:20096   */\n      tag_714\n        /* \"#utility.yul\":20092:20094   */\n      0x20\n        /* \"#utility.yul\":20081:20090   */\n      dup4\n        /* \"#utility.yul\":20077:20095   */\n      add\n        /* \"#utility.yul\":20068:20074   */\n      dup6\n        /* \"#utility.yul\":20024:20096   */\n      tag_430\n      jump\t// in\n    tag_714:\n        /* \"#utility.yul\":20106:20178   */\n      tag_715\n        /* \"#utility.yul\":20174:20176   */\n      0x40\n        /* \"#utility.yul\":20163:20172   */\n      dup4\n        /* \"#utility.yul\":20159:20177   */\n      add\n        /* \"#utility.yul\":20150:20156   */\n      dup5\n        /* \"#utility.yul\":20106:20178   */\n      tag_429\n      jump\t// in\n    tag_715:\n        /* \"#utility.yul\":19743:20185   */\n      swap5\n      swap4\n      pop\n      pop\n      pop\n      pop\n      jump\t// out\n        /* \"#utility.yul\":20191:20281   */\n    tag_451:\n        /* \"#utility.yul\":20225:20232   */\n      0x00\n        /* \"#utility.yul\":20268:20273   */\n      dup2\n        /* \"#utility.yul\":20261:20274   */\n      iszero\n        /* \"#utility.yul\":20254:20275   */\n      iszero\n        /* \"#utility.yul\":20243:20275   */\n      swap1\n      pop\n        /* \"#utility.yul\":20191:20281   */\n      swap2\n      swap1\n      pop\n      jump\t// out\n        /* \"#utility.yul\":20287:20403   */\n    tag_452:\n        /* \"#utility.yul\":20357:20378   */\n      tag_718\n        /* \"#utility.yul\":20372:20377   */\n      dup2\n        /* \"#utility.yul\":20357:20378   */\n      tag_451\n      jump\t// in\n    tag_718:\n        /* \"#utility.yul\":20350:20355   */\n      dup2\n        /* \"#utility.yul\":20347:20379   */\n      eq\n        /* \"#utility.yul\":20337:20397   */\n      tag_719\n      jumpi\n        /* \"#utility.yul\":20393:20394   */\n      0x00\n        /* \"#utility.yul\":20390:20391   */\n      dup1\n        /* \"#utility.yul\":20383:20395   */\n      revert\n        /* \"#utility.yul\":20337:20397   */\n    tag_719:\n        /* \"#utility.yul\":20287:20403   */\n      pop\n      jump\t// out\n        /* \"#utility.yul\":20409:20546   */\n    tag_453:\n        /* \"#utility.yul\":20463:20468   */\n      0x00\n        /* \"#utility.yul\":20494:20500   */\n      dup2\n        /* \"#utility.yul\":20488:20501   */\n      mload\n        /* \"#utility.yul\":20479:20501   */\n      swap1\n      pop\n        /* \"#utility.yul\":20510:20540   */\n      tag_721\n        /* \"#utility.yul\":20534:20539   */\n      dup2\n        /* \"#utility.yul\":20510:20540   */\n      tag_452\n      jump\t// in\n    tag_721:\n        /* \"#utility.yul\":20409:20546   */\n      swap3\n      swap2\n      pop\n      pop\n      jump\t// out\n        /* \"#utility.yul\":20552:20897   */\n    tag_145:\n        /* \"#utility.yul\":20619:20625   */\n      0x00\n        /* \"#utility.yul\":20668:20670   */\n      0x20\n        /* \"#utility.yul\":20656:20665   */\n      dup3\n        /* \"#utility.yul\":20647:20654   */\n      dup5\n        /* \"#utility.yul\":20643:20666   */\n      sub\n        /* \"#utility.yul\":20639:20671   */\n      slt\n        /* \"#utility.yul\":20636:20755   */\n      iszero\n      tag_723\n      jumpi\n        /* \"#utility.yul\":20674:20753   */\n      tag_724\n      tag_396\n      jump\t// in\n    tag_724:\n        /* \"#utility.yul\":20636:20755   */\n    tag_723:\n        /* \"#utility.yul\":20794:20795   */\n      0x00\n        /* \"#utility.yul\":20819:20880   */\n      tag_725\n        /* \"#utility.yul\":20872:20879   */\n      dup5\n        /* \"#utility.yul\":20863:20869   */\n      dup3\n        /* \"#utility.yul\":20852:20861   */\n      dup6\n        /* \"#utility.yul\":20848:20870   */\n      add\n        /* \"#utility.yul\":20819:20880   */\n      tag_453\n      jump\t// in\n    tag_725:\n        /* \"#utility.yul\":20809:20880   */\n      swap2\n      pop\n        /* \"#utility.yul\":20765:20890   */\n      pop\n        /* \"#utility.yul\":20552:20897   */\n      swap3\n      swap2\n      pop\n      pop\n      jump\t// out\n        /* \"#utility.yul\":20903:21131   */\n    tag_454:\n        /* \"#utility.yul\":21043:21077   */\n      0x43726561746f722073686f756c64206465706f7369742074686520696e697469\n        /* \"#utility.yul\":21039:21040   */\n      0x00\n        /* \"#utility.yul\":21031:21037   */\n      dup3\n        /* \"#utility.yul\":21027:21041   */\n      add\n        /* \"#utility.yul\":21020:21078   */\n      mstore\n        /* \"#utility.yul\":21112:21123   */\n      0x616c20616d6f756e740000000000000000000000000000000000000000000000\n        /* \"#utility.yul\":21107:21109   */\n      0x20\n        /* \"#utility.yul\":21099:21105   */\n      dup3\n        /* \"#utility.yul\":21095:21110   */\n      add\n        /* \"#utility.yul\":21088:21124   */\n      mstore\n        /* \"#utility.yul\":20903:21131   */\n      pop\n      jump\t// out\n        /* \"#utility.yul\":21137:21503   */\n    tag_455:\n        /* \"#utility.yul\":21279:21282   */\n      0x00\n        /* \"#utility.yul\":21300:21367   */\n      tag_728\n        /* \"#utility.yul\":21364:21366   */\n      0x29\n        /* \"#utility.yul\":21359:21362   */\n      dup4\n        /* \"#utility.yul\":21300:21367   */\n      tag_434\n      jump\t// in\n    tag_728:\n        /* \"#utility.yul\":21293:21367   */\n      swap2\n      pop\n        /* \"#utility.yul\":21376:21469   */\n      tag_729\n        /* \"#utility.yul\":21465:21468   */\n      dup3\n        /* \"#utility.yul\":21376:21469   */\n      tag_454\n      jump\t// in\n    tag_729:\n        /* \"#utility.yul\":21494:21496   */\n      0x40\n        /* \"#utility.yul\":21489:21492   */\n      dup3\n        /* \"#utility.yul\":21485:21497   */\n      add\n        /* \"#utility.yul\":21478:21497   */\n      swap1\n      pop\n        /* \"#utility.yul\":21137:21503   */\n      swap2\n      swap1\n      pop\n      jump\t// out\n        /* \"#utility.yul\":21509:21928   */\n    tag_148:\n        /* \"#utility.yul\":21675:21679   */\n      0x00\n        /* \"#utility.yul\":21713:21715   */\n      0x20\n        /* \"#utility.yul\":21702:21711   */\n      dup3\n        /* \"#utility.yul\":21698:21716   */\n      add\n        /* \"#utility.yul\":21690:21716   */\n      swap1\n      pop\n        /* \"#utility.yul\":21762:21771   */\n      dup2\n        /* \"#utility.yul\":21756:21760   */\n      dup2\n        /* \"#utility.yul\":21752:21772   */\n      sub\n        /* \"#utility.yul\":21748:21749   */\n      0x00\n        /* \"#utility.yul\":21737:21746   */\n      dup4\n        /* \"#utility.yul\":21733:21750   */\n      add\n        /* \"#utility.yul\":21726:21773   */\n      mstore\n        /* \"#utility.yul\":21790:21921   */\n      tag_731\n        /* \"#utility.yul\":21916:21920   */\n      dup2\n        /* \"#utility.yul\":21790:21921   */\n      tag_455\n      jump\t// in\n    tag_731:\n        /* \"#utility.yul\":21782:21921   */\n      swap1\n      pop\n        /* \"#utility.yul\":21509:21928   */\n      swap2\n      swap1\n      pop\n      jump\t// out\n        /* \"#utility.yul\":21934:22043   */\n    tag_456:\n        /* \"#utility.yul\":22015:22036   */\n      tag_733\n        /* \"#utility.yul\":22030:22035   */\n      dup2\n        /* \"#utility.yul\":22015:22036   */\n      tag_451\n      jump\t// in\n    tag_733:\n        /* \"#utility.yul\":22010:22013   */\n      dup3\n        /* \"#utility.yul\":22003:22037   */\n      mstore\n        /* \"#utility.yul\":21934:22043   */\n      pop\n      pop\n      jump\t// out\n        /* \"#utility.yul\":22049:22479   */\n    tag_150:\n        /* \"#utility.yul\":22192:22196   */\n      0x00\n        /* \"#utility.yul\":22230:22232   */\n      0x60\n        /* \"#utility.yul\":22219:22228   */\n      dup3\n        /* \"#utility.yul\":22215:22233   */\n      add\n        /* \"#utility.yul\":22207:22233   */\n      swap1\n      pop\n        /* \"#utility.yul\":22243:22314   */\n      tag_735\n        /* \"#utility.yul\":22311:22312   */\n      0x00\n        /* \"#utility.yul\":22300:22309   */\n      dup4\n        /* \"#utility.yul\":22296:22313   */\n      add\n        /* \"#utility.yul\":22287:22293   */\n      dup7\n        /* \"#utility.yul\":22243:22314   */\n      tag_430\n      jump\t// in\n    tag_735:\n        /* \"#utility.yul\":22324:22396   */\n      tag_736\n        /* \"#utility.yul\":22392:22394   */\n      0x20\n        /* \"#utility.yul\":22381:22390   */\n      dup4\n        /* \"#utility.yul\":22377:22395   */\n      add\n        /* \"#utility.yul\":22368:22374   */\n      dup6\n        /* \"#utility.yul\":22324:22396   */\n      tag_414\n      jump\t// in\n    tag_736:\n        /* \"#utility.yul\":22406:22472   */\n      tag_737\n        /* \"#utility.yul\":22468:22470   */\n      0x40\n        /* \"#utility.yul\":22457:22466   */\n      dup4\n        /* \"#utility.yul\":22453:22471   */\n      add\n        /* \"#utility.yul\":22444:22450   */\n      dup5\n        /* \"#utility.yul\":22406:22472   */\n      tag_456\n      jump\t// in\n    tag_737:\n        /* \"#utility.yul\":22049:22479   */\n      swap5\n      swap4\n      pop\n      pop\n      pop\n      pop\n      jump\t// out\n        /* \"#utility.yul\":22485:22605   */\n    tag_457:\n        /* \"#utility.yul\":22557:22580   */\n      tag_739\n        /* \"#utility.yul\":22574:22579   */\n      dup2\n        /* \"#utility.yul\":22557:22580   */\n      tag_437\n      jump\t// in\n    tag_739:\n        /* \"#utility.yul\":22550:22555   */\n      dup2\n        /* \"#utility.yul\":22547:22581   */\n      eq\n        /* \"#utility.yul\":22537:22599   */\n      tag_740\n      jumpi\n        /* \"#utility.yul\":22595:22596   */\n      0x00\n        /* \"#utility.yul\":22592:22593   */\n      dup1\n        /* \"#utility.yul\":22585:22597   */\n      revert\n        /* \"#utility.yul\":22537:22599   */\n    tag_740:\n        /* \"#utility.yul\":22485:22605   */\n      pop\n      jump\t// out\n        /* \"#utility.yul\":22611:22752   */\n    tag_458:\n        /* \"#utility.yul\":22667:22672   */\n      0x00\n        /* \"#utility.yul\":22698:22704   */\n      dup2\n        /* \"#utility.yul\":22692:22705   */\n      mload\n        /* \"#utility.yul\":22683:22705   */\n      swap1\n      pop\n        /* \"#utility.yul\":22714:22746   */\n      tag_742\n        /* \"#utility.yul\":22740:22745   */\n      dup2\n        /* \"#utility.yul\":22714:22746   */\n      tag_457\n      jump\t// in\n    tag_742:\n        /* \"#utility.yul\":22611:22752   */\n      swap3\n      swap2\n      pop\n      pop\n      jump\t// out\n        /* \"#utility.yul\":22758:23107   */\n    tag_154:\n        /* \"#utility.yul\":22827:22833   */\n      0x00\n        /* \"#utility.yul\":22876:22878   */\n      0x20\n        /* \"#utility.yul\":22864:22873   */\n      dup3\n        /* \"#utility.yul\":22855:22862   */\n      dup5\n        /* \"#utility.yul\":22851:22874   */\n      sub\n        /* \"#utility.yul\":22847:22879   */\n      slt\n        /* \"#utility.yul\":22844:22963   */\n      iszero\n      tag_744\n      jumpi\n        /* \"#utility.yul\":22882:22961   */\n      tag_745\n      tag_396\n      jump\t// in\n    tag_745:\n        /* \"#utility.yul\":22844:22963   */\n    tag_744:\n        /* \"#utility.yul\":23002:23003   */\n      0x00\n        /* \"#utility.yul\":23027:23090   */\n      tag_746\n        /* \"#utility.yul\":23082:23089   */\n      dup5\n        /* \"#utility.yul\":23073:23079   */\n      dup3\n        /* \"#utility.yul\":23062:23071   */\n      dup6\n        /* \"#utility.yul\":23058:23080   */\n      add\n        /* \"#utility.yul\":23027:23090   */\n      tag_458\n      jump\t// in\n    tag_746:\n        /* \"#utility.yul\":23017:23090   */\n      swap2\n      pop\n        /* \"#utility.yul\":22973:23100   */\n      pop\n        /* \"#utility.yul\":22758:23107   */\n      swap3\n      swap2\n      pop\n      pop\n      jump\t// out\n        /* \"#utility.yul\":23113:23293   */\n    tag_459:\n        /* \"#utility.yul\":23161:23238   */\n      0x4e487b7100000000000000000000000000000000000000000000000000000000\n        /* \"#utility.yul\":23158:23159   */\n      0x00\n        /* \"#utility.yul\":23151:23239   */\n      mstore\n        /* \"#utility.yul\":23258:23262   */\n      0x22\n        /* \"#utility.yul\":23255:23256   */\n      0x04\n        /* \"#utility.yul\":23248:23263   */\n      mstore\n        /* \"#utility.yul\":23282:23286   */\n      0x24\n        /* \"#utility.yul\":23279:23280   */\n      0x00\n        /* \"#utility.yul\":23272:23287   */\n      revert\n        /* \"#utility.yul\":23299:23619   */\n    tag_327:\n        /* \"#utility.yul\":23343:23349   */\n      0x00\n        /* \"#utility.yul\":23380:23381   */\n      0x02\n        /* \"#utility.yul\":23374:23378   */\n      dup3\n        /* \"#utility.yul\":23370:23382   */\n      div\n        /* \"#utility.yul\":23360:23382   */\n      swap1\n      pop\n        /* \"#utility.yul\":23427:23428   */\n      0x01\n        /* \"#utility.yul\":23421:23425   */\n      dup3\n        /* \"#utility.yul\":23417:23429   */\n      and\n        /* \"#utility.yul\":23448:23466   */\n      dup1\n        /* \"#utility.yul\":23438:23519   */\n      tag_749\n      jumpi\n        /* \"#utility.yul\":23504:23508   */\n      0x7f\n        /* \"#utility.yul\":23496:23502   */\n      dup3\n        /* \"#utility.yul\":23492:23509   */\n      and\n        /* \"#utility.yul\":23482:23509   */\n      swap2\n      pop\n        /* \"#utility.yul\":23438:23519   */\n    tag_749:\n        /* \"#utility.yul\":23566:23568   */\n      0x20\n        /* \"#utility.yul\":23558:23564   */\n      dup3\n        /* \"#utility.yul\":23555:23569   */\n      lt\n        /* \"#utility.yul\":23535:23553   */\n      dup2\n        /* \"#utility.yul\":23532:23570   */\n      sub\n        /* \"#utility.yul\":23529:23613   */\n      tag_750\n      jumpi\n        /* \"#utility.yul\":23585:23603   */\n      tag_751\n      tag_459\n      jump\t// in\n    tag_751:\n        /* \"#utility.yul\":23529:23613   */\n    tag_750:\n        /* \"#utility.yul\":23350:23619   */\n      pop\n        /* \"#utility.yul\":23299:23619   */\n      swap2\n      swap1\n      pop\n      jump\t// out\n        /* \"#utility.yul\":23625:23766   */\n    tag_460:\n        /* \"#utility.yul\":23674:23678   */\n      0x00\n        /* \"#utility.yul\":23697:23700   */\n      dup2\n        /* \"#utility.yul\":23689:23700   */\n      swap1\n      pop\n        /* \"#utility.yul\":23720:23723   */\n      dup2\n        /* \"#utility.yul\":23717:23718   */\n      0x00\n        /* \"#utility.yul\":23710:23724   */\n      mstore\n        /* \"#utility.yul\":23754:23758   */\n      0x20\n        /* \"#utility.yul\":23751:23752   */\n      0x00\n        /* \"#utility.yul\":23741:23759   */\n      keccak256\n        /* \"#utility.yul\":23733:23759   */\n      swap1\n      pop\n        /* \"#utility.yul\":23625:23766   */\n      swap2\n      swap1\n      pop\n      jump\t// out\n        /* \"#utility.yul\":23772:23865   */\n    tag_461:\n        /* \"#utility.yul\":23809:23815   */\n      0x00\n        /* \"#utility.yul\":23856:23858   */\n      0x20\n        /* \"#utility.yul\":23851:23853   */\n      0x1f\n        /* \"#utility.yul\":23844:23849   */\n      dup4\n        /* \"#utility.yul\":23840:23854   */\n      add\n        /* \"#utility.yul\":23836:23859   */\n      div\n        /* \"#utility.yul\":23826:23859   */\n      swap1\n      pop\n        /* \"#utility.yul\":23772:23865   */\n      swap2\n      swap1\n      pop\n      jump\t// out\n        /* \"#utility.yul\":23871:23978   */\n    tag_462:\n        /* \"#utility.yul\":23915:23923   */\n      0x00\n        /* \"#utility.yul\":23965:23970   */\n      dup3\n        /* \"#utility.yul\":23959:23963   */\n      dup3\n        /* \"#utility.yul\":23955:23971   */\n      shl\n        /* \"#utility.yul\":23934:23971   */\n      swap1\n      pop\n        /* \"#utility.yul\":23871:23978   */\n      swap3\n      swap2\n      pop\n      pop\n      jump\t// out\n        /* \"#utility.yul\":23984:24377   */\n    tag_463:\n        /* \"#utility.yul\":24053:24059   */\n      0x00\n        /* \"#utility.yul\":24103:24104   */\n      0x08\n        /* \"#utility.yul\":24091:24101   */\n      dup4\n        /* \"#utility.yul\":24087:24105   */\n      mul\n        /* \"#utility.yul\":24126:24223   */\n      tag_756\n        /* \"#utility.yul\":24156:24222   */\n      0xffffffffffffffffffffffffffffffffffffffffffffffffffffffffffffffff\n        /* \"#utility.yul\":24145:24154   */\n      dup3\n        /* \"#utility.yul\":24126:24223   */\n      tag_462\n      jump\t// in\n    tag_756:\n        /* \"#utility.yul\":24244:24283   */\n      tag_757\n        /* \"#utility.yul\":24274:24282   */\n      dup7\n        /* \"#utility.yul\":24263:24272   */\n      dup4\n        /* \"#utility.yul\":24244:24283   */\n      tag_462\n      jump\t// in\n    tag_757:\n        /* \"#utility.yul\":24232:24283   */\n      swap6\n      pop\n        /* \"#utility.yul\":24316:24320   */\n      dup1\n        /* \"#utility.yul\":24312:24321   */\n      not\n        /* \"#utility.yul\":24305:24310   */\n      dup5\n        /* \"#utility.yul\":24301:24322   */\n      and\n        /* \"#utility.yul\":24292:24322   */\n      swap4\n      pop\n        /* \"#utility.yul\":24365:24369   */\n      dup1\n        /* \"#utility.yul\":24355:24363   */\n      dup7\n        /* \"#utility.yul\":24351:24370   */\n      and\n        /* \"#utility.yul\":24344:24349   */\n      dup5\n        /* \"#utility.yul\":24341:24371   */\n      or\n        /* \"#utility.yul\":24331:24371   */\n      swap3\n      pop\n        /* \"#utility.yul\":24060:24377   */\n      pop\n      pop\n        /* \"#utility.yul\":23984:24377   */\n      swap4\n      swap3\n      pop\n      pop\n      pop\n      jump\t// out\n        /* \"#utility.yul\":24383:24525   */\n    tag_464:\n        /* \"#utility.yul\":24433:24442   */\n      0x00\n        /* \"#utility.yul\":24466:24519   */\n      tag_759\n        /* \"#utility.yul\":24484:24518   */\n      tag_760\n        /* \"#utility.yul\":24493:24517   */\n      tag_761\n        /* \"#utility.yul\":24511:24516   */\n      dup5\n        /* \"#utility.yul\":24493:24517   */\n      tag_411\n      jump\t// in\n    tag_761:\n        /* \"#utility.yul\":24484:24518   */\n      tag_416\n      jump\t// in\n    tag_760:\n        /* \"#utility.yul\":24466:24519   */\n      tag_411\n      jump\t// in\n    tag_759:\n        /* \"#utility.yul\":24453:24519   */\n      swap1\n      pop\n        /* \"#utility.yul\":24383:24525   */\n      swap2\n      swap1\n      pop\n      jump\t// out\n        /* \"#utility.yul\":24531:24606   */\n    tag_465:\n        /* \"#utility.yul\":24574:24577   */\n      0x00\n        /* \"#utility.yul\":24595:24600   */\n      dup2\n        /* \"#utility.yul\":24588:24600   */\n      swap1\n      pop\n        /* \"#utility.yul\":24531:24606   */\n      swap2\n      swap1\n      pop\n      jump\t// out\n        /* \"#utility.yul\":24612:24881   */\n    tag_466:\n        /* \"#utility.yul\":24722:24761   */\n      tag_764\n        /* \"#utility.yul\":24753:24760   */\n      dup4\n        /* \"#utility.yul\":24722:24761   */\n      tag_464\n      jump\t// in\n    tag_764:\n        /* \"#utility.yul\":24783:24874   */\n      tag_765\n        /* \"#utility.yul\":24832:24873   */\n      tag_766\n        /* \"#utility.yul\":24856:24872   */\n      dup3\n        /* \"#utility.yul\":24832:24873   */\n      tag_465\n      jump\t// in\n    tag_766:\n        /* \"#utility.yul\":24824:24830   */\n      dup5\n        /* \"#utility.yul\":24817:24821   */\n      dup5\n        /* \"#utility.yul\":24811:24822   */\n      sload\n        /* \"#utility.yul\":24783:24874   */\n      tag_463\n      jump\t// in\n    tag_765:\n        /* \"#utility.yul\":24777:24781   */\n      dup3\n        /* \"#utility.yul\":24770:24875   */\n      sstore\n        /* \"#utility.yul\":24688:24881   */\n      pop\n        /* \"#utility.yul\":24612:24881   */\n      pop\n      pop\n      pop\n      jump\t// out\n        /* \"#utility.yul\":24887:24960   */\n    tag_467:\n        /* \"#utility.yul\":24932:24935   */\n      0x00\n        /* \"#utility.yul\":24887:24960   */\n      swap1\n      jump\t// out\n        /* \"#utility.yul\":24966:25155   */\n    tag_468:\n        /* \"#utility.yul\":25043:25075   */\n      tag_769\n      tag_467\n      jump\t// in\n    tag_769:\n        /* \"#utility.yul\":25084:25149   */\n      tag_770\n        /* \"#utility.yul\":25142:25148   */\n      dup2\n        /* \"#utility.yul\":25134:25140   */\n      dup5\n        /* \"#utility.yul\":25128:25132   */\n      dup5\n        /* \"#utility.yul\":25084:25149   */\n      tag_466\n      jump\t// in\n    tag_770:\n        /* \"#utility.yul\":25019:25155   */\n      pop\n        /* \"#utility.yul\":24966:25155   */\n      pop\n      pop\n      jump\t// out\n        /* \"#utility.yul\":25161:25347   */\n    tag_469:\n        /* \"#utility.yul\":25221:25341   */\n    tag_772:\n        /* \"#utility.yul\":25238:25241   */\n      dup2\n        /* \"#utility.yul\":25231:25236   */\n      dup2\n        /* \"#utility.yul\":25228:25242   */\n      lt\n        /* \"#utility.yul\":25221:25341   */\n      iszero\n      tag_774\n      jumpi\n        /* \"#utility.yul\":25292:25331   */\n      tag_775\n        /* \"#utility.yul\":25329:25330   */\n      0x00\n        /* \"#utility.yul\":25322:25327   */\n      dup3\n        /* \"#utility.yul\":25292:25331   */\n      tag_468\n      jump\t// in\n    tag_775:\n        /* \"#utility.yul\":25265:25266   */\n      0x01\n        /* \"#utility.yul\":25258:25263   */\n      dup2\n        /* \"#utility.yul\":25254:25267   */\n      add\n        /* \"#utility.yul\":25245:25267   */\n      swap1\n      pop\n        /* \"#utility.yul\":25221:25341   */\n      jump(tag_772)\n    tag_774:\n        /* \"#utility.yul\":25161:25347   */\n      pop\n      pop\n      jump\t// out\n        /* \"#utility.yul\":25353:25896   */\n    tag_470:\n        /* \"#utility.yul\":25454:25456   */\n      0x1f\n        /* \"#utility.yul\":25449:25452   */\n      dup3\n        /* \"#utility.yul\":25446:25457   */\n      gt\n        /* \"#utility.yul\":25443:25889   */\n      iszero\n      tag_777\n      jumpi\n        /* \"#utility.yul\":25488:25526   */\n      tag_778\n        /* \"#utility.yul\":25520:25525   */\n      dup2\n        /* \"#utility.yul\":25488:25526   */\n      tag_460\n      jump\t// in\n    tag_778:\n        /* \"#utility.yul\":25572:25601   */\n      tag_779\n        /* \"#utility.yul\":25590:25600   */\n      dup5\n        /* \"#utility.yul\":25572:25601   */\n      tag_461\n      jump\t// in\n    tag_779:\n        /* \"#utility.yul\":25562:25570   */\n      dup2\n        /* \"#utility.yul\":25558:25602   */\n      add\n        /* \"#utility.yul\":25755:25757   */\n      0x20\n        /* \"#utility.yul\":25743:25753   */\n      dup6\n        /* \"#utility.yul\":25740:25758   */\n      lt\n        /* \"#utility.yul\":25737:25786   */\n      iszero\n      tag_780\n      jumpi\n        /* \"#utility.yul\":25776:25784   */\n      dup2\n        /* \"#utility.yul\":25761:25784   */\n      swap1\n      pop\n        /* \"#utility.yul\":25737:25786   */\n    tag_780:\n        /* \"#utility.yul\":25799:25879   */\n      tag_781\n        /* \"#utility.yul\":25855:25877   */\n      tag_782\n        /* \"#utility.yul\":25873:25876   */\n      dup6\n        /* \"#utility.yul\":25855:25877   */\n      tag_461\n      jump\t// in\n    tag_782:\n        /* \"#utility.yul\":25845:25853   */\n      dup4\n        /* \"#utility.yul\":25841:25878   */\n      add\n        /* \"#utility.yul\":25828:25839   */\n      dup3\n        /* \"#utility.yul\":25799:25879   */\n      tag_469\n      jump\t// in\n    tag_781:\n        /* \"#utility.yul\":25458:25889   */\n      pop\n      pop\n        /* \"#utility.yul\":25443:25889   */\n    tag_777:\n        /* \"#utility.yul\":25353:25896   */\n      pop\n      pop\n      pop\n      jump\t// out\n        /* \"#utility.yul\":25902:26019   */\n    tag_471:\n        /* \"#utility.yul\":25956:25964   */\n      0x00\n        /* \"#utility.yul\":26006:26011   */\n      dup3\n        /* \"#utility.yul\":26000:26004   */\n      dup3\n        /* \"#utility.yul\":25996:26012   */\n      shr\n        /* \"#utility.yul\":25975:26012   */\n      swap1\n      pop\n        /* \"#utility.yul\":25902:26019   */\n      swap3\n      swap2\n      pop\n      pop\n      jump\t// out\n        /* \"#utility.yul\":26025:26194   */\n    tag_472:\n        /* \"#utility.yul\":26069:26075   */\n      0x00\n        /* \"#utility.yul\":26102:26153   */\n      tag_785\n        /* \"#utility.yul\":26150:26151   */\n      0x00\n        /* \"#utility.yul\":26146:26152   */\n      not\n        /* \"#utility.yul\":26138:26143   */\n      dup5\n        /* \"#utility.yul\":26135:26136   */\n      0x08\n        /* \"#utility.yul\":26131:26144   */\n      mul\n        /* \"#utility.yul\":26102:26153   */\n      tag_471\n      jump\t// in\n    tag_785:\n        /* \"#utility.yul\":26098:26154   */\n      not\n        /* \"#utility.yul\":26183:26187   */\n      dup1\n        /* \"#utility.yul\":26177:26181   */\n      dup4\n        /* \"#utility.yul\":26173:26188   */\n      and\n        /* \"#utility.yul\":26163:26188   */\n      swap2\n      pop\n        /* \"#utility.yul\":26076:26194   */\n      pop\n        /* \"#utility.yul\":26025:26194   */\n      swap3\n      swap2\n      pop\n      pop\n      jump\t// out\n        /* \"#utility.yul\":26199:26494   */\n    tag_473:\n        /* \"#utility.yul\":26275:26279   */\n      0x00\n        /* \"#utility.yul\":26421:26450   */\n      tag_787\n        /* \"#utility.yul\":26446:26449   */\n      dup4\n        /* \"#utility.yul\":26440:26444   */\n      dup4\n        /* \"#utility.yul\":26421:26450   */\n      tag_472\n      jump\t// in\n    tag_787:\n        /* \"#utility.yul\":26413:26450   */\n      swap2\n      pop\n        /* \"#utility.yul\":26483:26486   */\n      dup3\n        /* \"#utility.yul\":26480:26481   */\n      0x02\n        /* \"#utility.yul\":26476:26487   */\n      mul\n        /* \"#utility.yul\":26470:26474   */\n      dup3\n        /* \"#utility.yul\":26467:26488   */\n      or\n        /* \"#utility.yul\":26459:26488   */\n      swap1\n      pop\n        /* \"#utility.yul\":26199:26494   */\n      swap3\n      swap2\n      pop\n      pop\n      jump\t// out\n        /* \"#utility.yul\":26499:27894   */\n    tag_156:\n        /* \"#utility.yul\":26616:26653   */\n      tag_789\n        /* \"#utility.yul\":26649:26652   */\n      dup3\n        /* \"#utility.yul\":26616:26653   */\n      tag_433\n      jump\t// in\n    tag_789:\n        /* \"#utility.yul\":26718:26736   */\n      0xffffffffffffffff\n        /* \"#utility.yul\":26710:26716   */\n      dup2\n        /* \"#utility.yul\":26707:26737   */\n      gt\n        /* \"#utility.yul\":26704:26760   */\n      iszero\n      tag_790\n      jumpi\n        /* \"#utility.yul\":26740:26758   */\n      tag_791\n      tag_401\n      jump\t// in\n    tag_791:\n        /* \"#utility.yul\":26704:26760   */\n    tag_790:\n        /* \"#utility.yul\":26784:26822   */\n      tag_792\n        /* \"#utility.yul\":26816:26820   */\n      dup3\n        /* \"#utility.yul\":26810:26821   */\n      sload\n        /* \"#utility.yul\":26784:26822   */\n      tag_327\n      jump\t// in\n    tag_792:\n        /* \"#utility.yul\":26869:26936   */\n      tag_793\n        /* \"#utility.yul\":26929:26935   */\n      dup3\n        /* \"#utility.yul\":26921:26927   */\n      dup3\n        /* \"#utility.yul\":26915:26919   */\n      dup6\n        /* \"#utility.yul\":26869:26936   */\n      tag_470\n      jump\t// in\n    tag_793:\n        /* \"#utility.yul\":26963:26964   */\n      0x00\n        /* \"#utility.yul\":26987:26991   */\n      0x20\n        /* \"#utility.yul\":26974:26991   */\n      swap1\n      pop\n        /* \"#utility.yul\":27019:27021   */\n      0x1f\n        /* \"#utility.yul\":27011:27017   */\n      dup4\n        /* \"#utility.yul\":27008:27022   */\n      gt\n        /* \"#utility.yul\":27036:27037   */\n      0x01\n        /* \"#utility.yul\":27031:27649   */\n      dup2\n      eq\n      tag_795\n      jumpi\n        /* \"#utility.yul\":27693:27694   */\n      0x00\n        /* \"#utility.yul\":27710:27716   */\n      dup5\n        /* \"#utility.yul\":27707:27784   */\n      iszero\n      tag_796\n      jumpi\n        /* \"#utility.yul\":27759:27768   */\n      dup3\n        /* \"#utility.yul\":27754:27757   */\n      dup8\n        /* \"#utility.yul\":27750:27769   */\n      add\n        /* \"#utility.yul\":27744:27770   */\n      mload\n        /* \"#utility.yul\":27735:27770   */\n      swap1\n      pop\n        /* \"#utility.yul\":27707:27784   */\n    tag_796:\n        /* \"#utility.yul\":27810:27877   */\n      tag_797\n        /* \"#utility.yul\":27870:27876   */\n      dup6\n        /* \"#utility.yul\":27863:27868   */\n      dup3\n        /* \"#utility.yul\":27810:27877   */\n      tag_473\n      jump\t// in\n    tag_797:\n        /* \"#utility.yul\":27804:27808   */\n      dup7\n        /* \"#utility.yul\":27797:27878   */\n      sstore\n        /* \"#utility.yul\":27666:27888   */\n      pop\n        /* \"#utility.yul\":27001:27888   */\n      jump(tag_794)\n        /* \"#utility.yul\":27031:27649   */\n    tag_795:\n        /* \"#utility.yul\":27083:27087   */\n      0x1f\n        /* \"#utility.yul\":27079:27088   */\n      not\n        /* \"#utility.yul\":27071:27077   */\n      dup5\n        /* \"#utility.yul\":27067:27089   */\n      and\n        /* \"#utility.yul\":27117:27154   */\n      tag_798\n        /* \"#utility.yul\":27149:27153   */\n      dup7\n        /* \"#utility.yul\":27117:27154   */\n      tag_460\n      jump\t// in\n    tag_798:\n        /* \"#utility.yul\":27176:27177   */\n      0x00\n        /* \"#utility.yul\":27190:27398   */\n    tag_799:\n        /* \"#utility.yul\":27204:27211   */\n      dup3\n        /* \"#utility.yul\":27201:27202   */\n      dup2\n        /* \"#utility.yul\":27198:27212   */\n      lt\n        /* \"#utility.yul\":27190:27398   */\n      iszero\n      tag_801\n      jumpi\n        /* \"#utility.yul\":27283:27292   */\n      dup5\n        /* \"#utility.yul\":27278:27281   */\n      dup10\n        /* \"#utility.yul\":27274:27293   */\n      add\n        /* \"#utility.yul\":27268:27294   */\n      mload\n        /* \"#utility.yul\":27260:27266   */\n      dup3\n        /* \"#utility.yul\":27253:27295   */\n      sstore\n        /* \"#utility.yul\":27334:27335   */\n      0x01\n        /* \"#utility.yul\":27326:27332   */\n      dup3\n        /* \"#utility.yul\":27322:27336   */\n      add\n        /* \"#utility.yul\":27312:27336   */\n      swap2\n      pop\n        /* \"#utility.yul\":27381:27383   */\n      0x20\n        /* \"#utility.yul\":27370:27379   */\n      dup6\n        /* \"#utility.yul\":27366:27384   */\n      add\n        /* \"#utility.yul\":27353:27384   */\n      swap5\n      pop\n        /* \"#utility.yul\":27227:27231   */\n      0x20\n        /* \"#utility.yul\":27224:27225   */\n      dup2\n        /* \"#utility.yul\":27220:27232   */\n      add\n        /* \"#utility.yul\":27215:27232   */\n      swap1\n      pop\n        /* \"#utility.yul\":27190:27398   */\n      jump(tag_799)\n    tag_801:\n        /* \"#utility.yul\":27426:27432   */\n      dup7\n        /* \"#utility.yul\":27417:27424   */\n      dup4\n        /* \"#utility.yul\":27414:27433   */\n      lt\n        /* \"#utility.yul\":27411:27590   */\n      iszero\n      tag_802\n      jumpi\n        /* \"#utility.yul\":27484:27493   */\n      dup5\n        /* \"#utility.yul\":27479:27482   */\n      dup10\n        /* \"#utility.yul\":27475:27494   */\n      add\n        /* \"#utility.yul\":27469:27495   */\n      mload\n        /* \"#utility.yul\":27527:27575   */\n      tag_803\n        /* \"#utility.yul\":27569:27573   */\n      0x1f\n        /* \"#utility.yul\":27561:27567   */\n      dup10\n        /* \"#utility.yul\":27557:27574   */\n      and\n        /* \"#utility.yul\":27546:27555   */\n      dup3\n        /* \"#utility.yul\":27527:27575   */\n      tag_472\n      jump\t// in\n    tag_803:\n        /* \"#utility.yul\":27519:27525   */\n      dup4\n        /* \"#utility.yul\":27512:27576   */\n      sstore\n        /* \"#utility.yul\":27434:27590   */\n      pop\n        /* \"#utility.yul\":27411:27590   */\n    tag_802:\n        /* \"#utility.yul\":27636:27637   */\n      0x01\n        /* \"#utility.yul\":27632:27633   */\n      0x02\n        /* \"#utility.yul\":27624:27630   */\n      dup9\n        /* \"#utility.yul\":27620:27634   */\n      mul\n        /* \"#utility.yul\":27616:27638   */\n      add\n        /* \"#utility.yul\":27610:27614   */\n      dup9\n        /* \"#utility.yul\":27603:27639   */\n      sstore\n        /* \"#utility.yul\":27038:27649   */\n      pop\n      pop\n      pop\n        /* \"#utility.yul\":27001:27888   */\n    tag_794:\n      pop\n        /* \"#utility.yul\":26591:27894   */\n      pop\n      pop\n      pop\n        /* \"#utility.yul\":26499:27894   */\n      pop\n      pop\n      jump\t// out\n        /* \"#utility.yul\":27900:29095   */\n    tag_159:\n        /* \"#utility.yul\":28235:28239   */\n      0x00\n        /* \"#utility.yul\":28273:28276   */\n      0x0120\n        /* \"#utility.yul\":28262:28271   */\n      dup3\n        /* \"#utility.yul\":28258:28277   */\n      add\n        /* \"#utility.yul\":28250:28277   */\n      swap1\n      pop\n        /* \"#utility.yul\":28287:28358   */\n      tag_805\n        /* \"#utility.yul\":28355:28356   */\n      0x00\n        /* \"#utility.yul\":28344:28353   */\n      dup4\n        /* \"#utility.yul\":28340:28357   */\n      add\n        /* \"#utility.yul\":28331:28337   */\n      dup13\n        /* \"#utility.yul\":28287:28358   */\n      tag_429\n      jump\t// in\n    tag_805:\n        /* \"#utility.yul\":28405:28414   */\n      dup2\n        /* \"#utility.yul\":28399:28403   */\n      dup2\n        /* \"#utility.yul\":28395:28415   */\n      sub\n        /* \"#utility.yul\":28390:28392   */\n      0x20\n        /* \"#utility.yul\":28379:28388   */\n      dup4\n        /* \"#utility.yul\":28375:28393   */\n      add\n        /* \"#utility.yul\":28368:28416   */\n      mstore\n        /* \"#utility.yul\":28433:28511   */\n      tag_806\n        /* \"#utility.yul\":28506:28510   */\n      dup2\n        /* \"#utility.yul\":28497:28503   */\n      dup12\n        /* \"#utility.yul\":28433:28511   */\n      tag_436\n      jump\t// in\n    tag_806:\n        /* \"#utility.yul\":28425:28511   */\n      swap1\n      pop\n        /* \"#utility.yul\":28521:28593   */\n      tag_807\n        /* \"#utility.yul\":28589:28591   */\n      0x40\n        /* \"#utility.yul\":28578:28587   */\n      dup4\n        /* \"#utility.yul\":28574:28592   */\n      add\n        /* \"#utility.yul\":28565:28571   */\n      dup11\n        /* \"#utility.yul\":28521:28593   */\n      tag_430\n      jump\t// in\n    tag_807:\n        /* \"#utility.yul\":28603:28675   */\n      tag_808\n        /* \"#utility.yul\":28671:28673   */\n      0x60\n        /* \"#utility.yul\":28660:28669   */\n      dup4\n        /* \"#utility.yul\":28656:28674   */\n      add\n        /* \"#utility.yul\":28647:28653   */\n      dup10\n        /* \"#utility.yul\":28603:28675   */\n      tag_429\n      jump\t// in\n    tag_808:\n        /* \"#utility.yul\":28685:28758   */\n      tag_809\n        /* \"#utility.yul\":28753:28756   */\n      0x80\n        /* \"#utility.yul\":28742:28751   */\n      dup4\n        /* \"#utility.yul\":28738:28757   */\n      add\n        /* \"#utility.yul\":28729:28735   */\n      dup9\n        /* \"#utility.yul\":28685:28758   */\n      tag_429\n      jump\t// in\n    tag_809:\n        /* \"#utility.yul\":28768:28841   */\n      tag_810\n        /* \"#utility.yul\":28836:28839   */\n      0xa0\n        /* \"#utility.yul\":28825:28834   */\n      dup4\n        /* \"#utility.yul\":28821:28840   */\n      add\n        /* \"#utility.yul\":28812:28818   */\n      dup8\n        /* \"#utility.yul\":28768:28841   */\n      tag_429\n      jump\t// in\n    tag_810:\n        /* \"#utility.yul\":28851:28924   */\n      tag_811\n        /* \"#utility.yul\":28919:28922   */\n      0xc0\n        /* \"#utility.yul\":28908:28917   */\n      dup4\n        /* \"#utility.yul\":28904:28923   */\n      add\n        /* \"#utility.yul\":28895:28901   */\n      dup7\n        /* \"#utility.yul\":28851:28924   */\n      tag_429\n      jump\t// in\n    tag_811:\n        /* \"#utility.yul\":28934:29007   */\n      tag_812\n        /* \"#utility.yul\":29002:29005   */\n      0xe0\n        /* \"#utility.yul\":28991:29000   */\n      dup4\n        /* \"#utility.yul\":28987:29006   */\n      add\n        /* \"#utility.yul\":28978:28984   */\n      dup6\n        /* \"#utility.yul\":28934:29007   */\n      tag_429\n      jump\t// in\n    tag_812:\n        /* \"#utility.yul\":29017:29088   */\n      tag_813\n        /* \"#utility.yul\":29083:29086   */\n      0x0100\n        /* \"#utility.yul\":29072:29081   */\n      dup4\n        /* \"#utility.yul\":29068:29087   */\n      add\n        /* \"#utility.yul\":29059:29065   */\n      dup5\n        /* \"#utility.yul\":29017:29088   */\n      tag_438\n      jump\t// in\n    tag_813:\n        /* \"#utility.yul\":27900:29095   */\n      swap11\n      swap10\n      pop\n      pop\n      pop\n      pop\n      pop\n      pop\n      pop\n      pop\n      pop\n      pop\n      jump\t// out\n        /* \"#utility.yul\":29101:29330   */\n    tag_474:\n        /* \"#utility.yul\":29241:29275   */\n      0x4f6e6c792074686520706f742063726561746f722063616e2072657665616c20\n        /* \"#utility.yul\":29237:29238   */\n      0x00\n        /* \"#utility.yul\":29229:29235   */\n      dup3\n        /* \"#utility.yul\":29225:29239   */\n      add\n        /* \"#utility.yul\":29218:29276   */\n      mstore\n        /* \"#utility.yul\":29310:29322   */\n      0x7468652077696e6e657200000000000000000000000000000000000000000000\n        /* \"#utility.yul\":29305:29307   */\n      0x20\n        /* \"#utility.yul\":29297:29303   */\n      dup3\n        /* \"#utility.yul\":29293:29308   */\n      add\n        /* \"#utility.yul\":29286:29323   */\n      mstore\n        /* \"#utility.yul\":29101:29330   */\n      pop\n      jump\t// out\n        /* \"#utility.yul\":29336:29702   */\n    tag_475:\n        /* \"#utility.yul\":29478:29481   */\n      0x00\n        /* \"#utility.yul\":29499:29566   */\n      tag_816\n        /* \"#utility.yul\":29563:29565   */\n      0x2a\n        /* \"#utility.yul\":29558:29561   */\n      dup4\n        /* \"#utility.yul\":29499:29566   */\n      tag_434\n      jump\t// in\n    tag_816:\n        /* \"#utility.yul\":29492:29566   */\n      swap2\n      pop\n        /* \"#utility.yul\":29575:29668   */\n      tag_817\n        /* \"#utility.yul\":29664:29667   */\n      dup3\n        /* \"#utility.yul\":29575:29668   */\n      tag_474\n      jump\t// in\n    tag_817:\n        /* \"#utility.yul\":29693:29695   */\n      0x40\n        /* \"#utility.yul\":29688:29691   */\n      dup3\n        /* \"#utility.yul\":29684:29696   */\n      add\n        /* \"#utility.yul\":29677:29696   */\n      swap1\n      pop\n        /* \"#utility.yul\":29336:29702   */\n      swap2\n      swap1\n      pop\n      jump\t// out\n        /* \"#utility.yul\":29708:30127   */\n    tag_163:\n        /* \"#utility.yul\":29874:29878   */\n      0x00\n        /* \"#utility.yul\":29912:29914   */\n      0x20\n        /* \"#utility.yul\":29901:29910   */\n      dup3\n        /* \"#utility.yul\":29897:29915   */\n      add\n        /* \"#utility.yul\":29889:29915   */\n      swap1\n      pop\n        /* \"#utility.yul\":29961:29970   */\n      dup2\n        /* \"#utility.yul\":29955:29959   */\n      dup2\n        /* \"#utility.yul\":29951:29971   */\n      sub\n        /* \"#utility.yul\":29947:29948   */\n      0x00\n        /* \"#utility.yul\":29936:29945   */\n      dup4\n        /* \"#utility.yul\":29932:29949   */\n      add\n        /* \"#utility.yul\":29925:29972   */\n      mstore\n        /* \"#utility.yul\":29989:30120   */\n      tag_819\n        /* \"#utility.yul\":30115:30119   */\n      dup2\n        /* \"#utility.yul\":29989:30120   */\n      tag_475\n      jump\t// in\n    tag_819:\n        /* \"#utility.yul\":29981:30120   */\n      swap1\n      pop\n        /* \"#utility.yul\":29708:30127   */\n      swap2\n      swap1\n      pop\n      jump\t// out\n        /* \"#utility.yul\":30133:30324   */\n    tag_165:\n        /* \"#utility.yul\":30173:30176   */\n      0x00\n        /* \"#utility.yul\":30192:30212   */\n      tag_821\n        /* \"#utility.yul\":30210:30211   */\n      dup3\n        /* \"#utility.yul\":30192:30212   */\n      tag_411\n      jump\t// in\n    tag_821:\n        /* \"#utility.yul\":30187:30212   */\n      swap2\n      pop\n        /* \"#utility.yul\":30226:30246   */\n      tag_822\n        /* \"#utility.yul\":30244:30245   */\n      dup4\n        /* \"#utility.yul\":30226:30246   */\n      tag_411\n      jump\t// in\n    tag_822:\n        /* \"#utility.yul\":30221:30246   */\n      swap3\n      pop\n        /* \"#utility.yul\":30269:30270   */\n      dup3\n        /* \"#utility.yul\":30266:30267   */\n      dup3\n        /* \"#utility.yul\":30262:30271   */\n      add\n        /* \"#utility.yul\":30255:30271   */\n      swap1\n      pop\n        /* \"#utility.yul\":30290:30293   */\n      dup1\n        /* \"#utility.yul\":30287:30288   */\n      dup3\n        /* \"#utility.yul\":30284:30294   */\n      gt\n        /* \"#utility.yul\":30281:30317   */\n      iszero\n      tag_823\n      jumpi\n        /* \"#utility.yul\":30297:30315   */\n      tag_824\n      tag_450\n      jump\t// in\n    tag_824:\n        /* \"#utility.yul\":30281:30317   */\n    tag_823:\n        /* \"#utility.yul\":30133:30324   */\n      swap3\n      swap2\n      pop\n      pop\n      jump\t// out\n        /* \"#utility.yul\":30330:30505   */\n    tag_476:\n        /* \"#utility.yul\":30470:30497   */\n      0x4e65787420726f746174696f6e206e6f74207965742064756500000000000000\n        /* \"#utility.yul\":30466:30467   */\n      0x00\n        /* \"#utility.yul\":30458:30464   */\n      dup3\n        /* \"#utility.yul\":30454:30468   */\n      add\n        /* \"#utility.yul\":30447:30498   */\n      mstore\n        /* \"#utility.yul\":30330:30505   */\n      pop\n      jump\t// out\n        /* \"#utility.yul\":30511:30877   */\n    tag_477:\n        /* \"#utility.yul\":30653:30656   */\n      0x00\n        /* \"#utility.yul\":30674:30741   */\n      tag_827\n        /* \"#utility.yul\":30738:30740   */\n      0x19\n        /* \"#utility.yul\":30733:30736   */\n      dup4\n        /* \"#utility.yul\":30674:30741   */\n      tag_434\n      jump\t// in\n    tag_827:\n        /* \"#utility.yul\":30667:30741   */\n      swap2\n      pop\n        /* \"#utility.yul\":30750:30843   */\n      tag_828\n        /* \"#utility.yul\":30839:30842   */\n      dup3\n        /* \"#utility.yul\":30750:30843   */\n      tag_476\n      jump\t// in\n    tag_828:\n        /* \"#utility.yul\":30868:30870   */\n      0x20\n        /* \"#utility.yul\":30863:30866   */\n      dup3\n        /* \"#utility.yul\":30859:30871   */\n      add\n        /* \"#utility.yul\":30852:30871   */\n      swap1\n      pop\n        /* \"#utility.yul\":30511:30877   */\n      swap2\n      swap1\n      pop\n      jump\t// out\n        /* \"#utility.yul\":30883:31302   */\n    tag_168:\n        /* \"#utility.yul\":31049:31053   */\n      0x00\n        /* \"#utility.yul\":31087:31089   */\n      0x20\n        /* \"#utility.yul\":31076:31085   */\n      dup3\n        /* \"#utility.yul\":31072:31090   */\n      add\n        /* \"#utility.yul\":31064:31090   */\n      swap1\n      pop\n        /* \"#utility.yul\":31136:31145   */\n      dup2\n        /* \"#utility.yul\":31130:31134   */\n      dup2\n        /* \"#utility.yul\":31126:31146   */\n      sub\n        /* \"#utility.yul\":31122:31123   */\n      0x00\n        /* \"#utility.yul\":31111:31120   */\n      dup4\n        /* \"#utility.yul\":31107:31124   */\n      add\n        /* \"#utility.yul\":31100:31147   */\n      mstore\n        /* \"#utility.yul\":31164:31295   */\n      tag_830\n        /* \"#utility.yul\":31290:31294   */\n      dup2\n        /* \"#utility.yul\":31164:31295   */\n      tag_477\n      jump\t// in\n    tag_830:\n        /* \"#utility.yul\":31156:31295   */\n      swap1\n      pop\n        /* \"#utility.yul\":30883:31302   */\n      swap2\n      swap1\n      pop\n      jump\t// out\n        /* \"#utility.yul\":31308:31857   */\n    tag_170:\n        /* \"#utility.yul\":31483:31487   */\n      0x00\n        /* \"#utility.yul\":31521:31524   */\n      0x80\n        /* \"#utility.yul\":31510:31519   */\n      dup3\n        /* \"#utility.yul\":31506:31525   */\n      add\n        /* \"#utility.yul\":31498:31525   */\n      swap1\n      pop\n        /* \"#utility.yul\":31535:31606   */\n      tag_832\n        /* \"#utility.yul\":31603:31604   */\n      0x00\n        /* \"#utility.yul\":31592:31601   */\n      dup4\n        /* \"#utility.yul\":31588:31605   */\n      add\n        /* \"#utility.yul\":31579:31585   */\n      dup8\n        /* \"#utility.yul\":31535:31606   */\n      tag_430\n      jump\t// in\n    tag_832:\n        /* \"#utility.yul\":31616:31686   */\n      tag_833\n        /* \"#utility.yul\":31682:31684   */\n      0x20\n        /* \"#utility.yul\":31671:31680   */\n      dup4\n        /* \"#utility.yul\":31667:31685   */\n      add\n        /* \"#utility.yul\":31658:31664   */\n      dup7\n        /* \"#utility.yul\":31616:31686   */\n      tag_438\n      jump\t// in\n    tag_833:\n        /* \"#utility.yul\":31696:31768   */\n      tag_834\n        /* \"#utility.yul\":31764:31766   */\n      0x40\n        /* \"#utility.yul\":31753:31762   */\n      dup4\n        /* \"#utility.yul\":31749:31767   */\n      add\n        /* \"#utility.yul\":31740:31746   */\n      dup6\n        /* \"#utility.yul\":31696:31768   */\n      tag_414\n      jump\t// in\n    tag_834:\n        /* \"#utility.yul\":31778:31850   */\n      tag_835\n        /* \"#utility.yul\":31846:31848   */\n      0x60\n        /* \"#utility.yul\":31835:31844   */\n      dup4\n        /* \"#utility.yul\":31831:31849   */\n      add\n        /* \"#utility.yul\":31822:31828   */\n      dup5\n        /* \"#utility.yul\":31778:31850   */\n      tag_414\n      jump\t// in\n    tag_835:\n        /* \"#utility.yul\":31308:31857   */\n      swap6\n      swap5\n      pop\n      pop\n      pop\n      pop\n      pop\n      jump\t// out\n        /* \"#utility.yul\":31863:32006   */\n    tag_478:\n        /* \"#utility.yul\":31920:31925   */\n      0x00\n        /* \"#utility.yul\":31951:31957   */\n      dup2\n        /* \"#utility.yul\":31945:31958   */\n      mload\n        /* \"#utility.yul\":31936:31958   */\n      swap1\n      pop\n        /* \"#utility.yul\":31967:32000   */\n      tag_837\n        /* \"#utility.yul\":31994:31999   */\n      dup2\n        /* \"#utility.yul\":31967:32000   */\n      tag_409\n      jump\t// in\n    tag_837:\n        /* \"#utility.yul\":31863:32006   */\n      swap3\n      swap2\n      pop\n      pop\n      jump\t// out\n        /* \"#utility.yul\":32012:32363   */\n    tag_174:\n        /* \"#utility.yul\":32082:32088   */\n      0x00\n        /* \"#utility.yul\":32131:32133   */\n      0x20\n        /* \"#utility.yul\":32119:32128   */\n      dup3\n        /* \"#utility.yul\":32110:32117   */\n      dup5\n        /* \"#utility.yul\":32106:32129   */\n      sub\n        /* \"#utility.yul\":32102:32134   */\n      slt\n        /* \"#utility.yul\":32099:32218   */\n      iszero\n      tag_839\n      jumpi\n        /* \"#utility.yul\":32137:32216   */\n      tag_840\n      tag_396\n      jump\t// in\n    tag_840:\n        /* \"#utility.yul\":32099:32218   */\n    tag_839:\n        /* \"#utility.yul\":32257:32258   */\n      0x00\n        /* \"#utility.yul\":32282:32346   */\n      tag_841\n        /* \"#utility.yul\":32338:32345   */\n      dup5\n        /* \"#utility.yul\":32329:32335   */\n      dup3\n        /* \"#utility.yul\":32318:32327   */\n      dup6\n        /* \"#utility.yul\":32314:32336   */\n      add\n        /* \"#utility.yul\":32282:32346   */\n      tag_478\n      jump\t// in\n    tag_841:\n        /* \"#utility.yul\":32272:32346   */\n      swap2\n      pop\n        /* \"#utility.yul\":32228:32356   */\n      pop\n        /* \"#utility.yul\":32012:32363   */\n      swap3\n      swap2\n      pop\n      pop\n      jump\t// out\n        /* \"#utility.yul\":32369:32549   */\n    tag_479:\n        /* \"#utility.yul\":32417:32494   */\n      0x4e487b7100000000000000000000000000000000000000000000000000000000\n        /* \"#utility.yul\":32414:32415   */\n      0x00\n        /* \"#utility.yul\":32407:32495   */\n      mstore\n        /* \"#utility.yul\":32514:32518   */\n      0x12\n        /* \"#utility.yul\":32511:32512   */\n      0x04\n        /* \"#utility.yul\":32504:32519   */\n      mstore\n        /* \"#utility.yul\":32538:32542   */\n      0x24\n        /* \"#utility.yul\":32535:32536   */\n      0x00\n        /* \"#utility.yul\":32528:32543   */\n      revert\n        /* \"#utility.yul\":32555:32731   */\n    tag_176:\n        /* \"#utility.yul\":32587:32588   */\n      0x00\n        /* \"#utility.yul\":32604:32624   */\n      tag_844\n        /* \"#utility.yul\":32622:32623   */\n      dup3\n        /* \"#utility.yul\":32604:32624   */\n      tag_411\n      jump\t// in\n    tag_844:\n        /* \"#utility.yul\":32599:32624   */\n      swap2\n      pop\n        /* \"#utility.yul\":32638:32658   */\n      tag_845\n        /* \"#utility.yul\":32656:32657   */\n      dup4\n        /* \"#utility.yul\":32638:32658   */\n      tag_411\n      jump\t// in\n    tag_845:\n        /* \"#utility.yul\":32633:32658   */\n      swap3\n      pop\n        /* \"#utility.yul\":32677:32678   */\n      dup3\n        /* \"#utility.yul\":32667:32702   */\n      tag_846\n      jumpi\n        /* \"#utility.yul\":32682:32700   */\n      tag_847\n      tag_479\n      jump\t// in\n    tag_847:\n        /* \"#utility.yul\":32667:32702   */\n    tag_846:\n        /* \"#utility.yul\":32723:32724   */\n      dup3\n        /* \"#utility.yul\":32720:32721   */\n      dup3\n        /* \"#utility.yul\":32716:32725   */\n      mod\n        /* \"#utility.yul\":32711:32725   */\n      swap1\n      pop\n        /* \"#utility.yul\":32555:32731   */\n      swap3\n      swap2\n      pop\n      pop\n      jump\t// out\n        /* \"#utility.yul\":32737:32917   */\n    tag_179:\n        /* \"#utility.yul\":32785:32862   */\n      0x4e487b7100000000000000000000000000000000000000000000000000000000\n        /* \"#utility.yul\":32782:32783   */\n      0x00\n        /* \"#utility.yul\":32775:32863   */\n      mstore\n        /* \"#utility.yul\":32882:32886   */\n      0x32\n        /* \"#utility.yul\":32879:32880   */\n      0x04\n        /* \"#utility.yul\":32872:32887   */\n      mstore\n        /* \"#utility.yul\":32906:32910   */\n      0x24\n        /* \"#utility.yul\":32903:32904   */\n      0x00\n        /* \"#utility.yul\":32896:32911   */\n      revert\n        /* \"#utility.yul\":32923:33117   */\n    tag_183:\n        /* \"#utility.yul\":32963:32967   */\n      0x00\n        /* \"#utility.yul\":32983:33003   */\n      tag_850\n        /* \"#utility.yul\":33001:33002   */\n      dup3\n        /* \"#utility.yul\":32983:33003   */\n      tag_411\n      jump\t// in\n    tag_850:\n        /* \"#utility.yul\":32978:33003   */\n      swap2\n      pop\n        /* \"#utility.yul\":33017:33037   */\n      tag_851\n        /* \"#utility.yul\":33035:33036   */\n      dup4\n        /* \"#utility.yul\":33017:33037   */\n      tag_411\n      jump\t// in\n    tag_851:\n        /* \"#utility.yul\":33012:33037   */\n      swap3\n      pop\n        /* \"#utility.yul\":33061:33062   */\n      dup3\n        /* \"#utility.yul\":33058:33059   */\n      dup3\n        /* \"#utility.yul\":33054:33063   */\n      sub\n        /* \"#utility.yul\":33046:33063   */\n      swap1\n      pop\n        /* \"#utility.yul\":33085:33086   */\n      dup2\n        /* \"#utility.yul\":33079:33083   */\n      dup2\n        /* \"#utility.yul\":33076:33087   */\n      gt\n        /* \"#utility.yul\":33073:33110   */\n      iszero\n      tag_852\n      jumpi\n        /* \"#utility.yul\":33090:33108   */\n      tag_853\n      tag_450\n      jump\t// in\n    tag_853:\n        /* \"#utility.yul\":33073:33110   */\n    tag_852:\n        /* \"#utility.yul\":32923:33117   */\n      swap3\n      swap2\n      pop\n      pop\n      jump\t// out\n        /* \"#utility.yul\":33123:33303   */\n    tag_194:\n        /* \"#utility.yul\":33171:33248   */\n      0x4e487b7100000000000000000000000000000000000000000000000000000000\n        /* \"#utility.yul\":33168:33169   */\n      0x00\n        /* \"#utility.yul\":33161:33249   */\n      mstore\n        /* \"#utility.yul\":33268:33272   */\n      0x31\n        /* \"#utility.yul\":33265:33266   */\n      0x04\n        /* \"#utility.yul\":33258:33273   */\n      mstore\n        /* \"#utility.yul\":33292:33296   */\n      0x24\n        /* \"#utility.yul\":33289:33290   */\n      0x00\n        /* \"#utility.yul\":33282:33297   */\n      revert\n        /* \"#utility.yul\":33309:33719   */\n    tag_197:\n        /* \"#utility.yul\":33349:33356   */\n      0x00\n        /* \"#utility.yul\":33372:33392   */\n      tag_856\n        /* \"#utility.yul\":33390:33391   */\n      dup3\n        /* \"#utility.yul\":33372:33392   */\n      tag_411\n      jump\t// in\n    tag_856:\n        /* \"#utility.yul\":33367:33392   */\n      swap2\n      pop\n        /* \"#utility.yul\":33406:33426   */\n      tag_857\n        /* \"#utility.yul\":33424:33425   */\n      dup4\n        /* \"#utility.yul\":33406:33426   */\n      tag_411\n      jump\t// in\n    tag_857:\n        /* \"#utility.yul\":33401:33426   */\n      swap3\n      pop\n        /* \"#utility.yul\":33461:33462   */\n      dup3\n        /* \"#utility.yul\":33458:33459   */\n      dup3\n        /* \"#utility.yul\":33454:33463   */\n      mul\n        /* \"#utility.yul\":33483:33513   */\n      tag_858\n        /* \"#utility.yul\":33501:33512   */\n      dup2\n        /* \"#utility.yul\":33483:33513   */\n      tag_411\n      jump\t// in\n    tag_858:\n        /* \"#utility.yul\":33472:33513   */\n      swap2\n      pop\n        /* \"#utility.yul\":33662:33663   */\n      dup3\n        /* \"#utility.yul\":33653:33660   */\n      dup3\n        /* \"#utility.yul\":33649:33664   */\n      div\n        /* \"#utility.yul\":33646:33647   */\n      dup5\n        /* \"#utility.yul\":33643:33665   */\n      eq\n        /* \"#utility.yul\":33623:33624   */\n      dup4\n        /* \"#utility.yul\":33616:33625   */\n      iszero\n        /* \"#utility.yul\":33596:33679   */\n      or\n        /* \"#utility.yul\":33573:33712   */\n      tag_859\n      jumpi\n        /* \"#utility.yul\":33692:33710   */\n      tag_860\n      tag_450\n      jump\t// in\n    tag_860:\n        /* \"#utility.yul\":33573:33712   */\n    tag_859:\n        /* \"#utility.yul\":33357:33719   */\n      pop\n        /* \"#utility.yul\":33309:33719   */\n      swap3\n      swap2\n      pop\n      pop\n      jump\t// out\n        /* \"#utility.yul\":33725:34167   */\n    tag_212:\n        /* \"#utility.yul\":33874:33878   */\n      0x00\n        /* \"#utility.yul\":33912:33914   */\n      0x60\n        /* \"#utility.yul\":33901:33910   */\n      dup3\n        /* \"#utility.yul\":33897:33915   */\n      add\n        /* \"#utility.yul\":33889:33915   */\n      swap1\n      pop\n        /* \"#utility.yul\":33925:33996   */\n      tag_862\n        /* \"#utility.yul\":33993:33994   */\n      0x00\n        /* \"#utility.yul\":33982:33991   */\n      dup4\n        /* \"#utility.yul\":33978:33995   */\n      add\n        /* \"#utility.yul\":33969:33975   */\n      dup7\n        /* \"#utility.yul\":33925:33996   */\n      tag_429\n      jump\t// in\n    tag_862:\n        /* \"#utility.yul\":34006:34078   */\n      tag_863\n        /* \"#utility.yul\":34074:34076   */\n      0x20\n        /* \"#utility.yul\":34063:34072   */\n      dup4\n        /* \"#utility.yul\":34059:34077   */\n      add\n        /* \"#utility.yul\":34050:34056   */\n      dup6\n        /* \"#utility.yul\":34006:34078   */\n      tag_430\n      jump\t// in\n    tag_863:\n        /* \"#utility.yul\":34088:34160   */\n      tag_864\n        /* \"#utility.yul\":34156:34158   */\n      0x40\n        /* \"#utility.yul\":34145:34154   */\n      dup4\n        /* \"#utility.yul\":34141:34159   */\n      add\n        /* \"#utility.yul\":34132:34138   */\n      dup5\n        /* \"#utility.yul\":34088:34160   */\n      tag_429\n      jump\t// in\n    tag_864:\n        /* \"#utility.yul\":33725:34167   */\n      swap5\n      swap4\n      pop\n      pop\n      pop\n      pop\n      jump\t// out\n        /* \"#utility.yul\":34173:34316   */\n    tag_480:\n        /* \"#utility.yul\":34230:34235   */\n      0x00\n        /* \"#utility.yul\":34261:34267   */\n      dup2\n        /* \"#utility.yul\":34255:34268   */\n      mload\n        /* \"#utility.yul\":34246:34268   */\n      swap1\n      pop\n        /* \"#utility.yul\":34277:34310   */\n      tag_866\n        /* \"#utility.yul\":34304:34309   */\n      dup2\n        /* \"#utility.yul\":34277:34310   */\n      tag_412\n      jump\t// in\n    tag_866:\n        /* \"#utility.yul\":34173:34316   */\n      swap3\n      swap2\n      pop\n      pop\n      jump\t// out\n        /* \"#utility.yul\":34322:34673   */\n    tag_222:\n        /* \"#utility.yul\":34392:34398   */\n      0x00\n        /* \"#utility.yul\":34441:34443   */\n      0x20\n        /* \"#utility.yul\":34429:34438   */\n      dup3\n        /* \"#utility.yul\":34420:34427   */\n      dup5\n        /* \"#utility.yul\":34416:34439   */\n      sub\n        /* \"#utility.yul\":34412:34444   */\n      slt\n        /* \"#utility.yul\":34409:34528   */\n      iszero\n      tag_868\n      jumpi\n        /* \"#utility.yul\":34447:34526   */\n      tag_869\n      tag_396\n      jump\t// in\n    tag_869:\n        /* \"#utility.yul\":34409:34528   */\n    tag_868:\n        /* \"#utility.yul\":34567:34568   */\n      0x00\n        /* \"#utility.yul\":34592:34656   */\n      tag_870\n        /* \"#utility.yul\":34648:34655   */\n      dup5\n        /* \"#utility.yul\":34639:34645   */\n      dup3\n        /* \"#utility.yul\":34628:34637   */\n      dup6\n        /* \"#utility.yul\":34624:34646   */\n      add\n        /* \"#utility.yul\":34592:34656   */\n      tag_480\n      jump\t// in\n    tag_870:\n        /* \"#utility.yul\":34582:34656   */\n      swap2\n      pop\n        /* \"#utility.yul\":34538:34666   */\n      pop\n        /* \"#utility.yul\":34322:34673   */\n      swap3\n      swap2\n      pop\n      pop\n      jump\t// out\n        /* \"#utility.yul\":34679:35011   */\n    tag_224:\n        /* \"#utility.yul\":34800:34804   */\n      0x00\n        /* \"#utility.yul\":34838:34840   */\n      0x40\n        /* \"#utility.yul\":34827:34836   */\n      dup3\n        /* \"#utility.yul\":34823:34841   */\n      add\n        /* \"#utility.yul\":34815:34841   */\n      swap1\n      pop\n        /* \"#utility.yul\":34851:34922   */\n      tag_872\n        /* \"#utility.yul\":34919:34920   */\n      0x00\n        /* \"#utility.yul\":34908:34917   */\n      dup4\n        /* \"#utility.yul\":34904:34921   */\n      add\n        /* \"#utility.yul\":34895:34901   */\n      dup6\n        /* \"#utility.yul\":34851:34922   */\n      tag_430\n      jump\t// in\n    tag_872:\n        /* \"#utility.yul\":34932:35004   */\n      tag_873\n        /* \"#utility.yul\":35000:35002   */\n      0x20\n        /* \"#utility.yul\":34989:34998   */\n      dup4\n        /* \"#utility.yul\":34985:35003   */\n      add\n        /* \"#utility.yul\":34976:34982   */\n      dup5\n        /* \"#utility.yul\":34932:35004   */\n      tag_429\n      jump\t// in\n    tag_873:\n        /* \"#utility.yul\":34679:35011   */\n      swap4\n      swap3\n      pop\n      pop\n      pop\n      jump\t// out\n        /* \"#utility.yul\":35017:35189   */\n    tag_481:\n        /* \"#utility.yul\":35157:35181   */\n      0x4e6f20726576656e756520746f20776974686472617700000000000000000000\n        /* \"#utility.yul\":35153:35154   */\n      0x00\n        /* \"#utility.yul\":35145:35151   */\n      dup3\n        /* \"#utility.yul\":35141:35155   */\n      add\n        /* \"#utility.yul\":35134:35182   */\n      mstore\n        /* \"#utility.yul\":35017:35189   */\n      pop\n      jump\t// out\n        /* \"#utility.yul\":35195:35561   */\n    tag_482:\n        /* \"#utility.yul\":35337:35340   */\n      0x00\n        /* \"#utility.yul\":35358:35425   */\n      tag_876\n        /* \"#utility.yul\":35422:35424   */\n      0x16\n        /* \"#utility.yul\":35417:35420   */\n      dup4\n        /* \"#utility.yul\":35358:35425   */\n      tag_434\n      jump\t// in\n    tag_876:\n        /* \"#utility.yul\":35351:35425   */\n      swap2\n      pop\n        /* \"#utility.yul\":35434:35527   */\n      tag_877\n        /* \"#utility.yul\":35523:35526   */\n      dup3\n        /* \"#utility.yul\":35434:35527   */\n      tag_481\n      jump\t// in\n    tag_877:\n        /* \"#utility.yul\":35552:35554   */\n      0x20\n        /* \"#utility.yul\":35547:35550   */\n      dup3\n        /* \"#utility.yul\":35543:35555   */\n      add\n        /* \"#utility.yul\":35536:35555   */\n      swap1\n      pop\n        /* \"#utility.yul\":35195:35561   */\n      swap2\n      swap1\n      pop\n      jump\t// out\n        /* \"#utility.yul\":35567:35986   */\n    tag_233:\n        /* \"#utility.yul\":35733:35737   */\n      0x00\n        /* \"#utility.yul\":35771:35773   */\n      0x20\n        /* \"#utility.yul\":35760:35769   */\n      dup3\n        /* \"#utility.yul\":35756:35774   */\n      add\n        /* \"#utility.yul\":35748:35774   */\n      swap1\n      pop\n        /* \"#utility.yul\":35820:35829   */\n      dup2\n        /* \"#utility.yul\":35814:35818   */\n      dup2\n        /* \"#utility.yul\":35810:35830   */\n      sub\n        /* \"#utility.yul\":35806:35807   */\n      0x00\n        /* \"#utility.yul\":35795:35804   */\n      dup4\n        /* \"#utility.yul\":35791:35808   */\n      add\n        /* \"#utility.yul\":35784:35831   */\n      mstore\n        /* \"#utility.yul\":35848:35979   */\n      tag_879\n        /* \"#utility.yul\":35974:35978   */\n      dup2\n        /* \"#utility.yul\":35848:35979   */\n      tag_482\n      jump\t// in\n    tag_879:\n        /* \"#utility.yul\":35840:35979   */\n      swap1\n      pop\n        /* \"#utility.yul\":35567:35986   */\n      swap2\n      swap1\n      pop\n      jump\t// out\n        /* \"#utility.yul\":35992:36167   */\n    tag_483:\n        /* \"#utility.yul\":36132:36159   */\n      0x526576656e7565207769746864726177616c206661696c656400000000000000\n        /* \"#utility.yul\":36128:36129   */\n      0x00\n        /* \"#utility.yul\":36120:36126   */\n      dup3\n        /* \"#utility.yul\":36116:36130   */\n      add\n        /* \"#utility.yul\":36109:36160   */\n      mstore\n        /* \"#utility.yul\":35992:36167   */\n      pop\n      jump\t// out\n        /* \"#utility.yul\":36173:36539   */\n    tag_484:\n        /* \"#utility.yul\":36315:36318   */\n      0x00\n        /* \"#utility.yul\":36336:36403   */\n      tag_882\n        /* \"#utility.yul\":36400:36402   */\n      0x19\n        /* \"#utility.yul\":36395:36398   */\n      dup4\n        /* \"#utility.yul\":36336:36403   */\n      tag_434\n      jump\t// in\n    tag_882:\n        /* \"#utility.yul\":36329:36403   */\n      swap2\n      pop\n        /* \"#utility.yul\":36412:36505   */\n      tag_883\n        /* \"#utility.yul\":36501:36504   */\n      dup3\n        /* \"#utility.yul\":36412:36505   */\n      tag_483\n      jump\t// in\n    tag_883:\n        /* \"#utility.yul\":36530:36532   */\n      0x20\n        /* \"#utility.yul\":36525:36528   */\n      dup3\n        /* \"#utility.yul\":36521:36533   */\n      add\n        /* \"#utility.yul\":36514:36533   */\n      swap1\n      pop\n        /* \"#utility.yul\":36173:36539   */\n      swap2\n      swap1\n      pop\n      jump\t// out\n        /* \"#utility.yul\":36545:36964   */\n    tag_240:\n        /* \"#utility.yul\":36711:36715   */\n      0x00\n        /* \"#utility.yul\":36749:36751   */\n      0x20\n        /* \"#utility.yul\":36738:36747   */\n      dup3\n        /* \"#utility.yul\":36734:36752   */\n      add\n        /* \"#utility.yul\":36726:36752   */\n      swap1\n      pop\n        /* \"#utility.yul\":36798:36807   */\n      dup2\n        /* \"#utility.yul\":36792:36796   */\n      dup2\n        /* \"#utility.yul\":36788:36808   */\n      sub\n        /* \"#utility.yul\":36784:36785   */\n      0x00\n        /* \"#utility.yul\":36773:36782   */\n      dup4\n        /* \"#utility.yul\":36769:36786   */\n      add\n        /* \"#utility.yul\":36762:36809   */\n      mstore\n        /* \"#utility.yul\":36826:36957   */\n      tag_885\n        /* \"#utility.yul\":36952:36956   */\n      dup2\n        /* \"#utility.yul\":36826:36957   */\n      tag_484\n      jump\t// in\n    tag_885:\n        /* \"#utility.yul\":36818:36957   */\n      swap1\n      pop\n        /* \"#utility.yul\":36545:36964   */\n      swap2\n      swap1\n      pop\n      jump\t// out\n        /* \"#utility.yul\":36970:37064   */\n    tag_485:\n        /* \"#utility.yul\":37003:37011   */\n      0x00\n        /* \"#utility.yul\":37051:37056   */\n      dup2\n        /* \"#utility.yul\":37047:37049   */\n      0x60\n        /* \"#utility.yul\":37043:37057   */\n      shl\n        /* \"#utility.yul\":37022:37057   */\n      swap1\n      pop\n        /* \"#utility.yul\":36970:37064   */\n      swap2\n      swap1\n      pop\n      jump\t// out\n        /* \"#utility.yul\":37070:37164   */\n    tag_486:\n        /* \"#utility.yul\":37109:37116   */\n      0x00\n        /* \"#utility.yul\":37138:37158   */\n      tag_888\n        /* \"#utility.yul\":37152:37157   */\n      dup3\n        /* \"#utility.yul\":37138:37158   */\n      tag_485\n      jump\t// in\n    tag_888:\n        /* \"#utility.yul\":37127:37158   */\n      swap1\n      pop\n        /* \"#utility.yul\":37070:37164   */\n      swap2\n      swap1\n      pop\n      jump\t// out\n        /* \"#utility.yul\":37170:37270   */\n    tag_487:\n        /* \"#utility.yul\":37209:37216   */\n      0x00\n        /* \"#utility.yul\":37238:37264   */\n      tag_890\n        /* \"#utility.yul\":37258:37263   */\n      dup3\n        /* \"#utility.yul\":37238:37264   */\n      tag_486\n      jump\t// in\n    tag_890:\n        /* \"#utility.yul\":37227:37264   */\n      swap1\n      pop\n        /* \"#utility.yul\":37170:37270   */\n      swap2\n      swap1\n      pop\n      jump\t// out\n        /* \"#utility.yul\":37276:37433   */\n    tag_488:\n        /* \"#utility.yul\":37381:37426   */\n      tag_892\n        /* \"#utility.yul\":37401:37425   */\n      tag_893\n        /* \"#utility.yul\":37419:37424   */\n      dup3\n        /* \"#utility.yul\":37401:37425   */\n      tag_426\n      jump\t// in\n    tag_893:\n        /* \"#utility.yul\":37381:37426   */\n      tag_487\n      jump\t// in\n    tag_892:\n        /* \"#utility.yul\":37376:37379   */\n      dup3\n        /* \"#utility.yul\":37369:37427   */\n      mstore\n        /* \"#utility.yul\":37276:37433   */\n      pop\n      pop\n      jump\t// out\n        /* \"#utility.yul\":37439:37518   */\n    tag_489:\n        /* \"#utility.yul\":37478:37485   */\n      0x00\n        /* \"#utility.yul\":37507:37512   */\n      dup2\n        /* \"#utility.yul\":37496:37512   */\n      swap1\n      pop\n        /* \"#utility.yul\":37439:37518   */\n      swap2\n      swap1\n      pop\n      jump\t// out\n        /* \"#utility.yul\":37524:37681   */\n    tag_490:\n        /* \"#utility.yul\":37629:37674   */\n      tag_896\n        /* \"#utility.yul\":37649:37673   */\n      tag_897\n        /* \"#utility.yul\":37667:37672   */\n      dup3\n        /* \"#utility.yul\":37649:37673   */\n      tag_411\n      jump\t// in\n    tag_897:\n        /* \"#utility.yul\":37629:37674   */\n      tag_489\n      jump\t// in\n    tag_896:\n        /* \"#utility.yul\":37624:37627   */\n      dup3\n        /* \"#utility.yul\":37617:37675   */\n      mstore\n        /* \"#utility.yul\":37524:37681   */\n      pop\n      pop\n      jump\t// out\n        /* \"#utility.yul\":37687:38084   */\n    tag_243:\n        /* \"#utility.yul\":37827:37830   */\n      0x00\n        /* \"#utility.yul\":37842:37917   */\n      tag_899\n        /* \"#utility.yul\":37913:37916   */\n      dup3\n        /* \"#utility.yul\":37904:37910   */\n      dup6\n        /* \"#utility.yul\":37842:37917   */\n      tag_488\n      jump\t// in\n    tag_899:\n        /* \"#utility.yul\":37942:37944   */\n      0x14\n        /* \"#utility.yul\":37937:37940   */\n      dup3\n        /* \"#utility.yul\":37933:37945   */\n      add\n        /* \"#utility.yul\":37926:37945   */\n      swap2\n      pop\n        /* \"#utility.yul\":37955:38030   */\n      tag_900\n        /* \"#utility.yul\":38026:38029   */\n      dup3\n        /* \"#utility.yul\":38017:38023   */\n      dup5\n        /* \"#utility.yul\":37955:38030   */\n      tag_490\n      jump\t// in\n    tag_900:\n        /* \"#utility.yul\":38055:38057   */\n      0x20\n        /* \"#utility.yul\":38050:38053   */\n      dup3\n        /* \"#utility.yul\":38046:38058   */\n      add\n        /* \"#utility.yul\":38039:38058   */\n      swap2\n      pop\n        /* \"#utility.yul\":38075:38078   */\n      dup2\n        /* \"#utility.yul\":38068:38078   */\n      swap1\n      pop\n        /* \"#utility.yul\":37687:38084   */\n      swap4\n      swap3\n      pop\n      pop\n      pop\n      jump\t// out\n        /* \"#utility.yul\":38090:38254   */\n    tag_491:\n        /* \"#utility.yul\":38230:38246   */\n      0x496e76616c69642070726f6f662e000000000000000000000000000000000000\n        /* \"#utility.yul\":38226:38227   */\n      0x00\n        /* \"#utility.yul\":38218:38224   */\n      dup3\n        /* \"#utility.yul\":38214:38228   */\n      add\n        /* \"#utility.yul\":38207:38247   */\n      mstore\n        /* \"#utility.yul\":38090:38254   */\n      pop\n      jump\t// out\n        /* \"#utility.yul\":38260:38626   */\n    tag_492:\n        /* \"#utility.yul\":38402:38405   */\n      0x00\n        /* \"#utility.yul\":38423:38490   */\n      tag_903\n        /* \"#utility.yul\":38487:38489   */\n      0x0e\n        /* \"#utility.yul\":38482:38485   */\n      dup4\n        /* \"#utility.yul\":38423:38490   */\n      tag_434\n      jump\t// in\n    tag_903:\n        /* \"#utility.yul\":38416:38490   */\n      swap2\n      pop\n        /* \"#utility.yul\":38499:38592   */\n      tag_904\n        /* \"#utility.yul\":38588:38591   */\n      dup3\n        /* \"#utility.yul\":38499:38592   */\n      tag_491\n      jump\t// in\n    tag_904:\n        /* \"#utility.yul\":38617:38619   */\n      0x20\n        /* \"#utility.yul\":38612:38615   */\n      dup3\n        /* \"#utility.yul\":38608:38620   */\n      add\n        /* \"#utility.yul\":38601:38620   */\n      swap1\n      pop\n        /* \"#utility.yul\":38260:38626   */\n      swap2\n      swap1\n      pop\n      jump\t// out\n        /* \"#utility.yul\":38632:39051   */\n    tag_248:\n        /* \"#utility.yul\":38798:38802   */\n      0x00\n        /* \"#utility.yul\":38836:38838   */\n      0x20\n        /* \"#utility.yul\":38825:38834   */\n      dup3\n        /* \"#utility.yul\":38821:38839   */\n      add\n        /* \"#utility.yul\":38813:38839   */\n      swap1\n      pop\n        /* \"#utility.yul\":38885:38894   */\n      dup2\n        /* \"#utility.yul\":38879:38883   */\n      dup2\n        /* \"#utility.yul\":38875:38895   */\n      sub\n        /* \"#utility.yul\":38871:38872   */\n      0x00\n        /* \"#utility.yul\":38860:38869   */\n      dup4\n        /* \"#utility.yul\":38856:38873   */\n      add\n        /* \"#utility.yul\":38849:38896   */\n      mstore\n        /* \"#utility.yul\":38913:39044   */\n      tag_906\n        /* \"#utility.yul\":39039:39043   */\n      dup2\n        /* \"#utility.yul\":38913:39044   */\n      tag_492\n      jump\t// in\n    tag_906:\n        /* \"#utility.yul\":38905:39044   */\n      swap1\n      pop\n        /* \"#utility.yul\":38632:39051   */\n      swap2\n      swap1\n      pop\n      jump\t// out\n        /* \"#utility.yul\":39057:39286   */\n    tag_493:\n        /* \"#utility.yul\":39197:39231   */\n      0x4e6f2066756e6473206c65667420746f20636c61696d206f7220616c72656164\n        /* \"#utility.yul\":39193:39194   */\n      0x00\n        /* \"#utility.yul\":39185:39191   */\n      dup3\n        /* \"#utility.yul\":39181:39195   */\n      add\n        /* \"#utility.yul\":39174:39232   */\n      mstore\n        /* \"#utility.yul\":39266:39278   */\n      0x7920636c61696d65642e00000000000000000000000000000000000000000000\n        /* \"#utility.yul\":39261:39263   */\n      0x20\n        /* \"#utility.yul\":39253:39259   */\n      dup3\n        /* \"#utility.yul\":39249:39264   */\n      add\n        /* \"#utility.yul\":39242:39279   */\n      mstore\n        /* \"#utility.yul\":39057:39286   */\n      pop\n      jump\t// out\n        /* \"#utility.yul\":39292:39658   */\n    tag_494:\n        /* \"#utility.yul\":39434:39437   */\n      0x00\n        /* \"#utility.yul\":39455:39522   */\n      tag_909\n        /* \"#utility.yul\":39519:39521   */\n      0x2a\n        /* \"#utility.yul\":39514:39517   */\n      dup4\n        /* \"#utility.yul\":39455:39522   */\n      tag_434\n      jump\t// in\n    tag_909:\n        /* \"#utility.yul\":39448:39522   */\n      swap2\n      pop\n        /* \"#utility.yul\":39531:39624   */\n      tag_910\n        /* \"#utility.yul\":39620:39623   */\n      dup3\n        /* \"#utility.yul\":39531:39624   */\n      tag_493\n      jump\t// in\n    tag_910:\n        /* \"#utility.yul\":39649:39651   */\n      0x40\n        /* \"#utility.yul\":39644:39647   */\n      dup3\n        /* \"#utility.yul\":39640:39652   */\n      add\n        /* \"#utility.yul\":39633:39652   */\n      swap1\n      pop\n        /* \"#utility.yul\":39292:39658   */\n      swap2\n      swap1\n      pop\n      jump\t// out\n        /* \"#utility.yul\":39664:40083   */\n    tag_251:\n        /* \"#utility.yul\":39830:39834   */\n      0x00\n        /* \"#utility.yul\":39868:39870   */\n      0x20\n        /* \"#utility.yul\":39857:39866   */\n      dup3\n        /* \"#utility.yul\":39853:39871   */\n      add\n        /* \"#utility.yul\":39845:39871   */\n      swap1\n      pop\n        /* \"#utility.yul\":39917:39926   */\n      dup2\n        /* \"#utility.yul\":39911:39915   */\n      dup2\n        /* \"#utility.yul\":39907:39927   */\n      sub\n        /* \"#utility.yul\":39903:39904   */\n      0x00\n        /* \"#utility.yul\":39892:39901   */\n      dup4\n        /* \"#utility.yul\":39888:39905   */\n      add\n        /* \"#utility.yul\":39881:39928   */\n      mstore\n        /* \"#utility.yul\":39945:40076   */\n      tag_912\n        /* \"#utility.yul\":40071:40075   */\n      dup2\n        /* \"#utility.yul\":39945:40076   */\n      tag_494\n      jump\t// in\n    tag_912:\n        /* \"#utility.yul\":39937:40076   */\n      swap1\n      pop\n        /* \"#utility.yul\":39664:40083   */\n      swap2\n      swap1\n      pop\n      jump\t// out\n        /* \"#utility.yul\":40089:40260   */\n    tag_495:\n        /* \"#utility.yul\":40229:40252   */\n      0x5969656c64207472616e73666572206661696c65640000000000000000000000\n        /* \"#utility.yul\":40225:40226   */\n      0x00\n        /* \"#utility.yul\":40217:40223   */\n      dup3\n        /* \"#utility.yul\":40213:40227   */\n      add\n        /* \"#utility.yul\":40206:40253   */\n      mstore\n        /* \"#utility.yul\":40089:40260   */\n      pop\n      jump\t// out\n        /* \"#utility.yul\":40266:40632   */\n    tag_496:\n        /* \"#utility.yul\":40408:40411   */\n      0x00\n        /* \"#utility.yul\":40429:40496   */\n      tag_915\n        /* \"#utility.yul\":40493:40495   */\n      0x15\n        /* \"#utility.yul\":40488:40491   */\n      dup4\n        /* \"#utility.yul\":40429:40496   */\n      tag_434\n      jump\t// in\n    tag_915:\n        /* \"#utility.yul\":40422:40496   */\n      swap2\n      pop\n        /* \"#utility.yul\":40505:40598   */\n      tag_916\n        /* \"#utility.yul\":40594:40597   */\n      dup3\n        /* \"#utility.yul\":40505:40598   */\n      tag_495\n      jump\t// in\n    tag_916:\n        /* \"#utility.yul\":40623:40625   */\n      0x20\n        /* \"#utility.yul\":40618:40621   */\n      dup3\n        /* \"#utility.yul\":40614:40626   */\n      add\n        /* \"#utility.yul\":40607:40626   */\n      swap1\n      pop\n        /* \"#utility.yul\":40266:40632   */\n      swap2\n      swap1\n      pop\n      jump\t// out\n        /* \"#utility.yul\":40638:41057   */\n    tag_259:\n        /* \"#utility.yul\":40804:40808   */\n      0x00\n        /* \"#utility.yul\":40842:40844   */\n      0x20\n        /* \"#utility.yul\":40831:40840   */\n      dup3\n        /* \"#utility.yul\":40827:40845   */\n      add\n        /* \"#utility.yul\":40819:40845   */\n      swap1\n      pop\n        /* \"#utility.yul\":40891:40900   */\n      dup2\n        /* \"#utility.yul\":40885:40889   */\n      dup2\n        /* \"#utility.yul\":40881:40901   */\n      sub\n        /* \"#utility.yul\":40877:40878   */\n      0x00\n        /* \"#utility.yul\":40866:40875   */\n      dup4\n        /* \"#utility.yul\":40862:40879   */\n      add\n        /* \"#utility.yul\":40855:40902   */\n      mstore\n        /* \"#utility.yul\":40919:41050   */\n      tag_918\n        /* \"#utility.yul\":41045:41049   */\n      dup2\n        /* \"#utility.yul\":40919:41050   */\n      tag_496\n      jump\t// in\n    tag_918:\n        /* \"#utility.yul\":40911:41050   */\n      swap1\n      pop\n        /* \"#utility.yul\":40638:41057   */\n      swap2\n      swap1\n      pop\n      jump\t// out\n        /* \"#utility.yul\":41063:41395   */\n    tag_269:\n        /* \"#utility.yul\":41184:41188   */\n      0x00\n        /* \"#utility.yul\":41222:41224   */\n      0x40\n        /* \"#utility.yul\":41211:41220   */\n      dup3\n        /* \"#utility.yul\":41207:41225   */\n      add\n        /* \"#utility.yul\":41199:41225   */\n      swap1\n      pop\n        /* \"#utility.yul\":41235:41306   */\n      tag_920\n        /* \"#utility.yul\":41303:41304   */\n      0x00\n        /* \"#utility.yul\":41292:41301   */\n      dup4\n        /* \"#utility.yul\":41288:41305   */\n      add\n        /* \"#utility.yul\":41279:41285   */\n      dup6\n        /* \"#utility.yul\":41235:41306   */\n      tag_430\n      jump\t// in\n    tag_920:\n        /* \"#utility.yul\":41316:41388   */\n      tag_921\n        /* \"#utility.yul\":41384:41386   */\n      0x20\n        /* \"#utility.yul\":41373:41382   */\n      dup4\n        /* \"#utility.yul\":41369:41387   */\n      add\n        /* \"#utility.yul\":41360:41366   */\n      dup5\n        /* \"#utility.yul\":41316:41388   */\n      tag_430\n      jump\t// in\n    tag_921:\n        /* \"#utility.yul\":41063:41395   */\n      swap4\n      swap3\n      pop\n      pop\n      pop\n      jump\t// out\n        /* \"#utility.yul\":41401:41586   */\n    tag_279:\n        /* \"#utility.yul\":41441:41442   */\n      0x00\n        /* \"#utility.yul\":41458:41478   */\n      tag_923\n        /* \"#utility.yul\":41476:41477   */\n      dup3\n        /* \"#utility.yul\":41458:41478   */\n      tag_411\n      jump\t// in\n    tag_923:\n        /* \"#utility.yul\":41453:41478   */\n      swap2\n      pop\n        /* \"#utility.yul\":41492:41512   */\n      tag_924\n        /* \"#utility.yul\":41510:41511   */\n      dup4\n        /* \"#utility.yul\":41492:41512   */\n      tag_411\n      jump\t// in\n    tag_924:\n        /* \"#utility.yul\":41487:41512   */\n      swap3\n      pop\n        /* \"#utility.yul\":41531:41532   */\n      dup3\n        /* \"#utility.yul\":41521:41556   */\n      tag_925\n      jumpi\n        /* \"#utility.yul\":41536:41554   */\n      tag_926\n      tag_479\n      jump\t// in\n    tag_926:\n        /* \"#utility.yul\":41521:41556   */\n    tag_925:\n        /* \"#utility.yul\":41578:41579   */\n      dup3\n        /* \"#utility.yul\":41575:41576   */\n      dup3\n        /* \"#utility.yul\":41571:41580   */\n      div\n        /* \"#utility.yul\":41566:41580   */\n      swap1\n      pop\n        /* \"#utility.yul\":41401:41586   */\n      swap3\n      swap2\n      pop\n      pop\n      jump\t// out\n        /* \"#utility.yul\":41592:41677   */\n    tag_497:\n        /* \"#utility.yul\":41637:41644   */\n      0x00\n        /* \"#utility.yul\":41666:41671   */\n      dup2\n        /* \"#utility.yul\":41655:41671   */\n      swap1\n      pop\n        /* \"#utility.yul\":41592:41677   */\n      swap2\n      swap1\n      pop\n      jump\t// out\n        /* \"#utility.yul\":41683:41839   */\n    tag_498:\n        /* \"#utility.yul\":41740:41749   */\n      0x00\n        /* \"#utility.yul\":41773:41833   */\n      tag_929\n        /* \"#utility.yul\":41790:41832   */\n      tag_930\n        /* \"#utility.yul\":41799:41831   */\n      tag_931\n        /* \"#utility.yul\":41825:41830   */\n      dup5\n        /* \"#utility.yul\":41799:41831   */\n      tag_497\n      jump\t// in\n    tag_931:\n        /* \"#utility.yul\":41790:41832   */\n      tag_416\n      jump\t// in\n    tag_930:\n        /* \"#utility.yul\":41773:41833   */\n      tag_437\n      jump\t// in\n    tag_929:\n        /* \"#utility.yul\":41760:41833   */\n      swap1\n      pop\n        /* \"#utility.yul\":41683:41839   */\n      swap2\n      swap1\n      pop\n      jump\t// out\n        /* \"#utility.yul\":41845:41990   */\n    tag_499:\n        /* \"#utility.yul\":41939:41983   */\n      tag_933\n        /* \"#utility.yul\":41977:41982   */\n      dup2\n        /* \"#utility.yul\":41939:41983   */\n      tag_498\n      jump\t// in\n    tag_933:\n        /* \"#utility.yul\":41934:41937   */\n      dup3\n        /* \"#utility.yul\":41927:41984   */\n      mstore\n        /* \"#utility.yul\":41845:41990   */\n      pop\n      pop\n      jump\t// out\n        /* \"#utility.yul\":41996:42232   */\n    tag_293:\n        /* \"#utility.yul\":42096:42100   */\n      0x00\n        /* \"#utility.yul\":42134:42136   */\n      0x20\n        /* \"#utility.yul\":42123:42132   */\n      dup3\n        /* \"#utility.yul\":42119:42137   */\n      add\n        /* \"#utility.yul\":42111:42137   */\n      swap1\n      pop\n        /* \"#utility.yul\":42147:42225   */\n      tag_935\n        /* \"#utility.yul\":42222:42223   */\n      0x00\n        /* \"#utility.yul\":42211:42220   */\n      dup4\n        /* \"#utility.yul\":42207:42224   */\n      add\n        /* \"#utility.yul\":42198:42204   */\n      dup5\n        /* \"#utility.yul\":42147:42225   */\n      tag_499\n      jump\t// in\n    tag_935:\n        /* \"#utility.yul\":41996:42232   */\n      swap3\n      swap2\n      pop\n      pop\n      jump\t// out\n        /* \"#utility.yul\":42238:42399   */\n    tag_500:\n        /* \"#utility.yul\":42378:42391   */\n      0x506f742069732066756c6c000000000000000000000000000000000000000000\n        /* \"#utility.yul\":42374:42375   */\n      0x00\n        /* \"#utility.yul\":42366:42372   */\n      dup3\n        /* \"#utility.yul\":42362:42376   */\n      add\n        /* \"#utility.yul\":42355:42392   */\n      mstore\n        /* \"#utility.yul\":42238:42399   */\n      pop\n      jump\t// out\n        /* \"#utility.yul\":42405:42771   */\n    tag_501:\n        /* \"#utility.yul\":42547:42550   */\n      0x00\n        /* \"#utility.yul\":42568:42635   */\n      tag_938\n        /* \"#utility.yul\":42632:42634   */\n      0x0b\n        /* \"#utility.yul\":42627:42630   */\n      dup4\n        /* \"#utility.yul\":42568:42635   */\n      tag_434\n      jump\t// in\n    tag_938:\n        /* \"#utility.yul\":42561:42635   */\n      swap2\n      pop\n        /* \"#utility.yul\":42644:42737   */\n      tag_939\n        /* \"#utility.yul\":42733:42736   */\n      dup3\n        /* \"#utility.yul\":42644:42737   */\n      tag_500\n      jump\t// in\n    tag_939:\n        /* \"#utility.yul\":42762:42764   */\n      0x20\n        /* \"#utility.yul\":42757:42760   */\n      dup3\n        /* \"#utility.yul\":42753:42765   */\n      add\n        /* \"#utility.yul\":42746:42765   */\n      swap1\n      pop\n        /* \"#utility.yul\":42405:42771   */\n      swap2\n      swap1\n      pop\n      jump\t// out\n        /* \"#utility.yul\":42777:43196   */\n    tag_297:\n        /* \"#utility.yul\":42943:42947   */\n      0x00\n        /* \"#utility.yul\":42981:42983   */\n      0x20\n        /* \"#utility.yul\":42970:42979   */\n      dup3\n        /* \"#utility.yul\":42966:42984   */\n      add\n        /* \"#utility.yul\":42958:42984   */\n      swap1\n      pop\n        /* \"#utility.yul\":43030:43039   */\n      dup2\n        /* \"#utility.yul\":43024:43028   */\n      dup2\n        /* \"#utility.yul\":43020:43040   */\n      sub\n        /* \"#utility.yul\":43016:43017   */\n      0x00\n        /* \"#utility.yul\":43005:43014   */\n      dup4\n        /* \"#utility.yul\":43001:43018   */\n      add\n        /* \"#utility.yul\":42994:43041   */\n      mstore\n        /* \"#utility.yul\":43058:43189   */\n      tag_941\n        /* \"#utility.yul\":43184:43188   */\n      dup2\n        /* \"#utility.yul\":43058:43189   */\n      tag_501\n      jump\t// in\n    tag_941:\n        /* \"#utility.yul\":43050:43189   */\n      swap1\n      pop\n        /* \"#utility.yul\":42777:43196   */\n      swap2\n      swap1\n      pop\n      jump\t// out\n        /* \"#utility.yul\":43202:43423   */\n    tag_502:\n        /* \"#utility.yul\":43342:43376   */\n      0x416c7265616479206a6f696e6564206f72206d69737365642061206465706f73\n        /* \"#utility.yul\":43338:43339   */\n      0x00\n        /* \"#utility.yul\":43330:43336   */\n      dup3\n        /* \"#utility.yul\":43326:43340   */\n      add\n        /* \"#utility.yul\":43319:43377   */\n      mstore\n        /* \"#utility.yul\":43411:43415   */\n      0x6974000000000000000000000000000000000000000000000000000000000000\n        /* \"#utility.yul\":43406:43408   */\n      0x20\n        /* \"#utility.yul\":43398:43404   */\n      dup3\n        /* \"#utility.yul\":43394:43409   */\n      add\n        /* \"#utility.yul\":43387:43416   */\n      mstore\n        /* \"#utility.yul\":43202:43423   */\n      pop\n      jump\t// out\n        /* \"#utility.yul\":43429:43795   */\n    tag_503:\n        /* \"#utility.yul\":43571:43574   */\n      0x00\n        /* \"#utility.yul\":43592:43659   */\n      tag_944\n        /* \"#utility.yul\":43656:43658   */\n      0x22\n        /* \"#utility.yul\":43651:43654   */\n      dup4\n        /* \"#utility.yul\":43592:43659   */\n      tag_434\n      jump\t// in\n    tag_944:\n        /* \"#utility.yul\":43585:43659   */\n      swap2\n      pop\n        /* \"#utility.yul\":43668:43761   */\n      tag_945\n        /* \"#utility.yul\":43757:43760   */\n      dup3\n        /* \"#utility.yul\":43668:43761   */\n      tag_502\n      jump\t// in\n    tag_945:\n        /* \"#utility.yul\":43786:43788   */\n      0x40\n        /* \"#utility.yul\":43781:43784   */\n      dup3\n        /* \"#utility.yul\":43777:43789   */\n      add\n        /* \"#utility.yul\":43770:43789   */\n      swap1\n      pop\n        /* \"#utility.yul\":43429:43795   */\n      swap2\n      swap1\n      pop\n      jump\t// out\n        /* \"#utility.yul\":43801:44220   */\n    tag_301:\n        /* \"#utility.yul\":43967:43971   */\n      0x00\n        /* \"#utility.yul\":44005:44007   */\n      0x20\n        /* \"#utility.yul\":43994:44003   */\n      dup3\n        /* \"#utility.yul\":43990:44008   */\n      add\n        /* \"#utility.yul\":43982:44008   */\n      swap1\n      pop\n        /* \"#utility.yul\":44054:44063   */\n      dup2\n        /* \"#utility.yul\":44048:44052   */\n      dup2\n        /* \"#utility.yul\":44044:44064   */\n      sub\n        /* \"#utility.yul\":44040:44041   */\n      0x00\n        /* \"#utility.yul\":44029:44038   */\n      dup4\n        /* \"#utility.yul\":44025:44042   */\n      add\n        /* \"#utility.yul\":44018:44065   */\n      mstore\n        /* \"#utility.yul\":44082:44213   */\n      tag_947\n        /* \"#utility.yul\":44208:44212   */\n      dup2\n        /* \"#utility.yul\":44082:44213   */\n      tag_503\n      jump\t// in\n    tag_947:\n        /* \"#utility.yul\":44074:44213   */\n      swap1\n      pop\n        /* \"#utility.yul\":43801:44220   */\n      swap2\n      swap1\n      pop\n      jump\t// out\n        /* \"#utility.yul\":44226:44391   */\n    tag_504:\n        /* \"#utility.yul\":44366:44383   */\n      0x5472616e73666572206661696c65640000000000000000000000000000000000\n        /* \"#utility.yul\":44362:44363   */\n      0x00\n        /* \"#utility.yul\":44354:44360   */\n      dup3\n        /* \"#utility.yul\":44350:44364   */\n      add\n        /* \"#utility.yul\":44343:44384   */\n      mstore\n        /* \"#utility.yul\":44226:44391   */\n      pop\n      jump\t// out\n        /* \"#utility.yul\":44397:44763   */\n    tag_505:\n        /* \"#utility.yul\":44539:44542   */\n      0x00\n        /* \"#utility.yul\":44560:44627   */\n      tag_950\n        /* \"#utility.yul\":44624:44626   */\n      0x0f\n        /* \"#utility.yul\":44619:44622   */\n      dup4\n        /* \"#utility.yul\":44560:44627   */\n      tag_434\n      jump\t// in\n    tag_950:\n        /* \"#utility.yul\":44553:44627   */\n      swap2\n      pop\n        /* \"#utility.yul\":44636:44729   */\n      tag_951\n        /* \"#utility.yul\":44725:44728   */\n      dup3\n        /* \"#utility.yul\":44636:44729   */\n      tag_504\n      jump\t// in\n    tag_951:\n        /* \"#utility.yul\":44754:44756   */\n      0x20\n        /* \"#utility.yul\":44749:44752   */\n      dup3\n        /* \"#utility.yul\":44745:44757   */\n      add\n        /* \"#utility.yul\":44738:44757   */\n      swap1\n      pop\n        /* \"#utility.yul\":44397:44763   */\n      swap2\n      swap1\n      pop\n      jump\t// out\n        /* \"#utility.yul\":44769:45188   */\n    tag_308:\n        /* \"#utility.yul\":44935:44939   */\n      0x00\n        /* \"#utility.yul\":44973:44975   */\n      0x20\n        /* \"#utility.yul\":44962:44971   */\n      dup3\n        /* \"#utility.yul\":44958:44976   */\n      add\n        /* \"#utility.yul\":44950:44976   */\n      swap1\n      pop\n        /* \"#utility.yul\":45022:45031   */\n      dup2\n        /* \"#utility.yul\":45016:45020   */\n      dup2\n        /* \"#utility.yul\":45012:45032   */\n      sub\n        /* \"#utility.yul\":45008:45009   */\n      0x00\n        /* \"#utility.yul\":44997:45006   */\n      dup4\n        /* \"#utility.yul\":44993:45010   */\n      add\n        /* \"#utility.yul\":44986:45033   */\n      mstore\n        /* \"#utility.yul\":45050:45181   */\n      tag_953\n        /* \"#utility.yul\":45176:45180   */\n      dup2\n        /* \"#utility.yul\":45050:45181   */\n      tag_505\n      jump\t// in\n    tag_953:\n        /* \"#utility.yul\":45042:45181   */\n      swap1\n      pop\n        /* \"#utility.yul\":44769:45188   */\n      swap2\n      swap1\n      pop\n      jump\t// out\n        /* \"#utility.yul\":45218:46049   */\n    tag_506:\n        /* \"#utility.yul\":45303:45306   */\n      0x00\n        /* \"#utility.yul\":45340:45345   */\n      dup2\n        /* \"#utility.yul\":45334:45346   */\n      sload\n        /* \"#utility.yul\":45369:45405   */\n      tag_955\n        /* \"#utility.yul\":45395:45404   */\n      dup2\n        /* \"#utility.yul\":45369:45405   */\n      tag_327\n      jump\t// in\n    tag_955:\n        /* \"#utility.yul\":45421:45492   */\n      tag_956\n        /* \"#utility.yul\":45485:45491   */\n      dup2\n        /* \"#utility.yul\":45480:45483   */\n      dup7\n        /* \"#utility.yul\":45421:45492   */\n      tag_434\n      jump\t// in\n    tag_956:\n        /* \"#utility.yul\":45414:45492   */\n      swap5\n      pop\n        /* \"#utility.yul\":45523:45524   */\n      0x01\n        /* \"#utility.yul\":45512:45521   */\n      dup3\n        /* \"#utility.yul\":45508:45525   */\n      and\n        /* \"#utility.yul\":45539:45540   */\n      0x00\n        /* \"#utility.yul\":45534:45698   */\n      dup2\n      eq\n      tag_958\n      jumpi\n        /* \"#utility.yul\":45712:45713   */\n      0x01\n        /* \"#utility.yul\":45707:46043   */\n      dup2\n      eq\n      tag_959\n      jumpi\n        /* \"#utility.yul\":45501:46043   */\n      jump(tag_957)\n        /* \"#utility.yul\":45534:45698   */\n    tag_958:\n        /* \"#utility.yul\":45618:45622   */\n      0xff\n        /* \"#utility.yul\":45614:45623   */\n      not\n        /* \"#utility.yul\":45603:45612   */\n      dup4\n        /* \"#utility.yul\":45599:45624   */\n      and\n        /* \"#utility.yul\":45594:45597   */\n      dup7\n        /* \"#utility.yul\":45587:45625   */\n      mstore\n        /* \"#utility.yul\":45678:45684   */\n      dup2\n        /* \"#utility.yul\":45671:45685   */\n      iszero\n        /* \"#utility.yul\":45664:45686   */\n      iszero\n        /* \"#utility.yul\":45658:45662   */\n      0x20\n        /* \"#utility.yul\":45654:45687   */\n      mul\n        /* \"#utility.yul\":45649:45652   */\n      dup7\n        /* \"#utility.yul\":45645:45688   */\n      add\n        /* \"#utility.yul\":45638:45688   */\n      swap4\n      pop\n        /* \"#utility.yul\":45534:45698   */\n      jump(tag_957)\n        /* \"#utility.yul\":45707:46043   */\n    tag_959:\n        /* \"#utility.yul\":45774:45812   */\n      tag_960\n        /* \"#utility.yul\":45806:45811   */\n      dup6\n        /* \"#utility.yul\":45774:45812   */\n      tag_460\n      jump\t// in\n    tag_960:\n        /* \"#utility.yul\":45834:45835   */\n      0x00\n        /* \"#utility.yul\":45848:46002   */\n    tag_961:\n        /* \"#utility.yul\":45862:45868   */\n      dup4\n        /* \"#utility.yul\":45859:45860   */\n      dup2\n        /* \"#utility.yul\":45856:45869   */\n      lt\n        /* \"#utility.yul\":45848:46002   */\n      iszero\n      tag_963\n      jumpi\n        /* \"#utility.yul\":45936:45943   */\n      dup2\n        /* \"#utility.yul\":45930:45944   */\n      sload\n        /* \"#utility.yul\":45926:45927   */\n      dup2\n        /* \"#utility.yul\":45921:45924   */\n      dup10\n        /* \"#utility.yul\":45917:45928   */\n      add\n        /* \"#utility.yul\":45910:45945   */\n      mstore\n        /* \"#utility.yul\":45986:45987   */\n      0x01\n        /* \"#utility.yul\":45977:45984   */\n      dup3\n        /* \"#utility.yul\":45973:45988   */\n      add\n        /* \"#utility.yul\":45962:45988   */\n      swap2\n      pop\n        /* \"#utility.yul\":45884:45888   */\n      0x20\n        /* \"#utility.yul\":45881:45882   */\n      dup2\n        /* \"#utility.yul\":45877:45889   */\n      add\n        /* \"#utility.yul\":45872:45889   */\n      swap1\n      pop\n        /* \"#utility.yul\":45848:46002   */\n      jump(tag_961)\n    tag_963:\n        /* \"#utility.yul\":46031:46032   */\n      dup1\n        /* \"#utility.yul\":46026:46029   */\n      dup9\n        /* \"#utility.yul\":46022:46033   */\n      add\n        /* \"#utility.yul\":46015:46033   */\n      swap6\n      pop\n        /* \"#utility.yul\":45714:46043   */\n      pop\n      pop\n        /* \"#utility.yul\":45501:46043   */\n    tag_957:\n      pop\n        /* \"#utility.yul\":45307:46049   */\n      pop\n      pop\n        /* \"#utility.yul\":45218:46049   */\n      swap3\n      swap2\n      pop\n      pop\n      jump\t// out\n        /* \"#utility.yul\":46055:47137   */\n    tag_312:\n        /* \"#utility.yul\":46361:46365   */\n      0x00\n        /* \"#utility.yul\":46399:46402   */\n      0x0100\n        /* \"#utility.yul\":46388:46397   */\n      dup3\n        /* \"#utility.yul\":46384:46403   */\n      add\n        /* \"#utility.yul\":46376:46403   */\n      swap1\n      pop\n        /* \"#utility.yul\":46413:46484   */\n      tag_965\n        /* \"#utility.yul\":46481:46482   */\n      0x00\n        /* \"#utility.yul\":46470:46479   */\n      dup4\n        /* \"#utility.yul\":46466:46483   */\n      add\n        /* \"#utility.yul\":46457:46463   */\n      dup12\n        /* \"#utility.yul\":46413:46484   */\n      tag_429\n      jump\t// in\n    tag_965:\n        /* \"#utility.yul\":46531:46540   */\n      dup2\n        /* \"#utility.yul\":46525:46529   */\n      dup2\n        /* \"#utility.yul\":46521:46541   */\n      sub\n        /* \"#utility.yul\":46516:46518   */\n      0x20\n        /* \"#utility.yul\":46505:46514   */\n      dup4\n        /* \"#utility.yul\":46501:46519   */\n      add\n        /* \"#utility.yul\":46494:46542   */\n      mstore\n        /* \"#utility.yul\":46559:46634   */\n      tag_966\n        /* \"#utility.yul\":46629:46633   */\n      dup2\n        /* \"#utility.yul\":46620:46626   */\n      dup11\n        /* \"#utility.yul\":46559:46634   */\n      tag_506\n      jump\t// in\n    tag_966:\n        /* \"#utility.yul\":46551:46634   */\n      swap1\n      pop\n        /* \"#utility.yul\":46644:46716   */\n      tag_967\n        /* \"#utility.yul\":46712:46714   */\n      0x40\n        /* \"#utility.yul\":46701:46710   */\n      dup4\n        /* \"#utility.yul\":46697:46715   */\n      add\n        /* \"#utility.yul\":46688:46694   */\n      dup10\n        /* \"#utility.yul\":46644:46716   */\n      tag_430\n      jump\t// in\n    tag_967:\n        /* \"#utility.yul\":46726:46798   */\n      tag_968\n        /* \"#utility.yul\":46794:46796   */\n      0x60\n        /* \"#utility.yul\":46783:46792   */\n      dup4\n        /* \"#utility.yul\":46779:46797   */\n      add\n        /* \"#utility.yul\":46770:46776   */\n      dup9\n        /* \"#utility.yul\":46726:46798   */\n      tag_429\n      jump\t// in\n    tag_968:\n        /* \"#utility.yul\":46808:46881   */\n      tag_969\n        /* \"#utility.yul\":46876:46879   */\n      0x80\n        /* \"#utility.yul\":46865:46874   */\n      dup4\n        /* \"#utility.yul\":46861:46880   */\n      add\n        /* \"#utility.yul\":46852:46858   */\n      dup8\n        /* \"#utility.yul\":46808:46881   */\n      tag_429\n      jump\t// in\n    tag_969:\n        /* \"#utility.yul\":46891:46964   */\n      tag_970\n        /* \"#utility.yul\":46959:46962   */\n      0xa0\n        /* \"#utility.yul\":46948:46957   */\n      dup4\n        /* \"#utility.yul\":46944:46963   */\n      add\n        /* \"#utility.yul\":46935:46941   */\n      dup7\n        /* \"#utility.yul\":46891:46964   */\n      tag_429\n      jump\t// in\n    tag_970:\n        /* \"#utility.yul\":46974:47047   */\n      tag_971\n        /* \"#utility.yul\":47042:47045   */\n      0xc0\n        /* \"#utility.yul\":47031:47040   */\n      dup4\n        /* \"#utility.yul\":47027:47046   */\n      add\n        /* \"#utility.yul\":47018:47024   */\n      dup6\n        /* \"#utility.yul\":46974:47047   */\n      tag_429\n      jump\t// in\n    tag_971:\n        /* \"#utility.yul\":47057:47130   */\n      tag_972\n        /* \"#utility.yul\":47125:47128   */\n      0xe0\n        /* \"#utility.yul\":47114:47123   */\n      dup4\n        /* \"#utility.yul\":47110:47129   */\n      add\n        /* \"#utility.yul\":47101:47107   */\n      dup5\n        /* \"#utility.yul\":47057:47130   */\n      tag_429\n      jump\t// in\n    tag_972:\n        /* \"#utility.yul\":46055:47137   */\n      swap10\n      swap9\n      pop\n      pop\n      pop\n      pop\n      pop\n      pop\n      pop\n      pop\n      pop\n      jump\t// out\n        /* \"#utility.yul\":47143:47311   */\n    tag_507:\n        /* \"#utility.yul\":47283:47303   */\n      0x4e6f2072657761726420746f20636c61696d0000000000000000000000000000\n        /* \"#utility.yul\":47279:47280   */\n      0x00\n        /* \"#utility.yul\":47271:47277   */\n      dup3\n        /* \"#utility.yul\":47267:47281   */\n      add\n        /* \"#utility.yul\":47260:47304   */\n      mstore\n        /* \"#utility.yul\":47143:47311   */\n      pop\n      jump\t// out\n        /* \"#utility.yul\":47317:47683   */\n    tag_508:\n        /* \"#utility.yul\":47459:47462   */\n      0x00\n        /* \"#utility.yul\":47480:47547   */\n      tag_975\n        /* \"#utility.yul\":47544:47546   */\n      0x12\n        /* \"#utility.yul\":47539:47542   */\n      dup4\n        /* \"#utility.yul\":47480:47547   */\n      tag_434\n      jump\t// in\n    tag_975:\n        /* \"#utility.yul\":47473:47547   */\n      swap2\n      pop\n        /* \"#utility.yul\":47556:47649   */\n      tag_976\n        /* \"#utility.yul\":47645:47648   */\n      dup3\n        /* \"#utility.yul\":47556:47649   */\n      tag_507\n      jump\t// in\n    tag_976:\n        /* \"#utility.yul\":47674:47676   */\n      0x20\n        /* \"#utility.yul\":47669:47672   */\n      dup3\n        /* \"#utility.yul\":47665:47677   */\n      add\n        /* \"#utility.yul\":47658:47677   */\n      swap1\n      pop\n        /* \"#utility.yul\":47317:47683   */\n      swap2\n      swap1\n      pop\n      jump\t// out\n        /* \"#utility.yul\":47689:48108   */\n    tag_319:\n        /* \"#utility.yul\":47855:47859   */\n      0x00\n        /* \"#utility.yul\":47893:47895   */\n      0x20\n        /* \"#utility.yul\":47882:47891   */\n      dup3\n        /* \"#utility.yul\":47878:47896   */\n      add\n        /* \"#utility.yul\":47870:47896   */\n      swap1\n      pop\n        /* \"#utility.yul\":47942:47951   */\n      dup2\n        /* \"#utility.yul\":47936:47940   */\n      dup2\n        /* \"#utility.yul\":47932:47952   */\n      sub\n        /* \"#utility.yul\":47928:47929   */\n      0x00\n        /* \"#utility.yul\":47917:47926   */\n      dup4\n        /* \"#utility.yul\":47913:47930   */\n      add\n        /* \"#utility.yul\":47906:47953   */\n      mstore\n        /* \"#utility.yul\":47970:48101   */\n      tag_978\n        /* \"#utility.yul\":48096:48100   */\n      dup2\n        /* \"#utility.yul\":47970:48101   */\n      tag_508\n      jump\t// in\n    tag_978:\n        /* \"#utility.yul\":47962:48101   */\n      swap1\n      pop\n        /* \"#utility.yul\":47689:48108   */\n      swap2\n      swap1\n      pop\n      jump\t// out\n\n    auxdata: 0xa264697066735822122021f1b133d00f25b22604b9054b2975e2292cb3876cf3616942716c2ff253f1e764736f6c63430008180033\n}\n",
				"bytecode": {
					"linkReferences": {},
					"object": "6080604052600160035534801562000015575f80fd5b50604051620040473803806200404783398181016040528101906200003b919062000312565b73420000000000000000000000000000000000002273ffffffffffffffffffffffffffffffffffffffff16631a33757d60026040518263ffffffff1660e01b81526004016200008b9190620003d3565b6020604051808303815f875af1158015620000a8573d5f803e3d5ffd5b505050506040513d601f19601f82011682018060405250810190620000ce919062000426565b5073420000000000000000000000000000000000002260055f6101000a81548173ffffffffffffffffffffffffffffffffffffffff021916908373ffffffffffffffffffffffffffffffffffffffff16021790555073430000000000000000000000000000000000000273ffffffffffffffffffffffffffffffffffffffff16634e606c476040518163ffffffff1660e01b81526004015f604051808303815f87803b1580156200017d575f80fd5b505af115801562000190573d5f803e3d5ffd5b50505050732fc95838c71e76ec69ff817983bff17c710f34e073ffffffffffffffffffffffffffffffffffffffff166336b91f2b73e4860d3973802c7c42450d7b9741921c7711d0396040518263ffffffff1660e01b8152600401620001f7919062000467565b5f604051808303815f87803b1580156200020f575f80fd5b505af115801562000222573d5f803e3d5ffd5b50505050815f806101000a81548173ffffffffffffffffffffffffffffffffffffffff021916908373ffffffffffffffffffffffffffffffffffffffff1602179055508060015f6101000a81548173ffffffffffffffffffffffffffffffffffffffff021916908373ffffffffffffffffffffffffffffffffffffffff160217905550505062000482565b5f80fd5b5f73ffffffffffffffffffffffffffffffffffffffff82169050919050565b5f620002dc82620002b1565b9050919050565b620002ee81620002d0565b8114620002f9575f80fd5b50565b5f815190506200030c81620002e3565b92915050565b5f80604083850312156200032b576200032a620002ad565b5b5f6200033a85828601620002fc565b92505060206200034d85828601620002fc565b9150509250929050565b7f4e487b71000000000000000000000000000000000000000000000000000000005f52602160045260245ffd5b6003811062000398576200039762000357565b5b50565b5f819050620003aa8262000384565b919050565b5f620003bb826200039b565b9050919050565b620003cd81620003af565b82525050565b5f602082019050620003e85f830184620003c2565b92915050565b5f819050919050565b6200040281620003ee565b81146200040d575f80fd5b50565b5f815190506200042081620003f7565b92915050565b5f602082840312156200043e576200043d620002ad565b5b5f6200044d8482850162000410565b91505092915050565b6200046181620002d0565b82525050565b5f6020820190506200047c5f83018462000456565b92915050565b613bb780620004905f395ff3fe608060405260043610610129575f3560e01c806377d5d2dc116100aa5780638da5cb5b1161006e5780638da5cb5b1461034157806397d757761461036b578063ae169a5014610395578063bf2d9e0b146103bd578063c3c3df4f146103e7578063f2fde38b1461042d57610129565b806377d5d2dc146102955780637cb64759146102ab5780637d77990c146102d35780638129fc1c1461030f578063831d49ef1461032557610129565b80634a80409e116100f15780634a80409e146101db5780634f573cb21461020557806361e7d8051461021b578063715018a61461024357806373b2e80e1461025957610129565b80630fae64431461012d5780632eb4a7ab1461014957806331a0edec146101735780633cabfefd1461019d578063409a33ce146101c5575b5f80fd5b6101476004803603810190610142919061247b565b610455565b005b348015610154575f80fd5b5061015d6109bb565b60405161016a9190612543565b60405180910390f35b34801561017e575f80fd5b506101876109c1565b60405161019491906125d6565b60405180910390f35b3480156101a8575f80fd5b506101c360048036038101906101be91906125ef565b6109d9565b005b3480156101d0575f80fd5b506101d9611075565b005b3480156101e6575f80fd5b506101ef61119a565b6040516101fc919061265f565b60405180910390f35b348015610210575f80fd5b506102196111bf565b005b348015610226575f80fd5b50610241600480360381019061023c91906126d5565b6112f4565b005b34801561024e575f80fd5b50610257611563565b005b348015610264575f80fd5b5061027f600480360381019061027a919061276d565b611576565b60405161028c91906127a7565b60405180910390f35b3480156102a0575f80fd5b506102a961158b565b005b3480156102b6575f80fd5b506102d160048036038101906102cc91906127c0565b611625565b005b3480156102de575f80fd5b506102f960048036038101906102f491906127eb565b611637565b60405161030691906127a7565b60405180910390f35b34801561031a575f80fd5b50610323611674565b005b61033f600480360381019061033a9190612829565b6117f4565b005b34801561034c575f80fd5b50610355611b2b565b6040516103629190612863565b60405180910390f35b348015610376575f80fd5b5061037f611b60565b60405161038c919061289c565b60405180910390f35b3480156103a0575f80fd5b506103bb60048036038101906103b69190612829565b611b78565b005b3480156103c8575f80fd5b506103d1611d74565b6040516103de91906127a7565b60405180910390f35b3480156103f2575f80fd5b5061040d60048036038101906104089190612829565b611d7a565b6040516104249b9a99989796959493929190612951565b60405180910390f35b348015610438575f80fd5b50610453600480360381019061044e919061276d565b611e89565b005b5f805f9054906101000a900473ffffffffffffffffffffffffffffffffffffffff1673ffffffffffffffffffffffffffffffffffffffff1663b88c914860015f9054906101000a900473ffffffffffffffffffffffffffffffffffffffff166040518263ffffffff1660e01b81526004016104d09190612863565b602060405180830381865afa1580156104eb573d5f803e3d5ffd5b505050506040513d601f19601f8201168201806040525081019061050f9190612a46565b6fffffffffffffffffffffffffffffffff169050803410610565576040517f08c379a000000000000000000000000000000000000000000000000000000000815260040161055c90612abb565b60405180910390fd5b5f86116105a7576040517f08c379a000000000000000000000000000000000000000000000000000000000815260040161059e90612b23565b60405180910390fd5b5f85116105e9576040517f08c379a00000000000000000000000000000000000000000000000000000000081526004016105e090612bb1565b60405180910390fd5b8484111561062c576040517f08c379a000000000000000000000000000000000000000000000000000000000815260040161062390612c3f565b60405180910390fd5b5f60035f81548092919061063f90612c8a565b91905055905060055f9054906101000a900473ffffffffffffffffffffffffffffffffffffffff1673ffffffffffffffffffffffffffffffffffffffff166323b872dd3330866040518463ffffffff1660e01b81526004016106a393929190612cd1565b6020604051808303815f875af11580156106bf573d5f803e3d5ffd5b505050506040513d601f19601f820116820180604052508101906106e39190612d3b565b610722576040517f08c379a000000000000000000000000000000000000000000000000000000000815260040161071990612dd6565b60405180910390fd5b5f805f9054906101000a900473ffffffffffffffffffffffffffffffffffffffff1673ffffffffffffffffffffffffffffffffffffffff166393cbf2178460015f9054906101000a900473ffffffffffffffffffffffffffffffffffffffff168c60016040518563ffffffff1660e01b81526004016107a393929190612e03565b60206040518083038185885af11580156107bf573d5f803e3d5ffd5b50505050506040513d601f19601f820116820180604052508101906107e49190612e62565b90505f60075f8481526020019081526020015f2090508a815f01908161080a919061307e565b508481600101819055505f816002018190555081816009015f6101000a81548167ffffffffffffffff021916908367ffffffffffffffff160217905550338160090160086101000a81548173ffffffffffffffffffffffffffffffffffffffff021916908373ffffffffffffffffffffffffffffffffffffffff160217905550888160030181905550868160050181905550878160060181905550428160040181905550858160070181905550600181600801819055508481600c015f3373ffffffffffffffffffffffffffffffffffffffff1673ffffffffffffffffffffffffffffffffffffffff1681526020019081526020015f208190555080600a0133908060018154018082558091505060019003905f5260205f20015f9091909190916101000a81548173ffffffffffffffffffffffffffffffffffffffff021916908373ffffffffffffffffffffffffffffffffffffffff1602179055507f2ea75defa9ed86be5c1f296ba42849d00ed611c827f9f30a82ab2f1dadc50b88838c33888d8c8e8d8a6040516109a69998979695949392919061314d565b60405180910390a15050505050505050505050565b60025481565b73420000000000000000000000000000000000002281565b3373ffffffffffffffffffffffffffffffffffffffff1660075f8581526020019081526020015f2060090160089054906101000a900473ffffffffffffffffffffffffffffffffffffffff1673ffffffffffffffffffffffffffffffffffffffff1614610a7b576040517f08c379a0000000000000000000000000000000000000000000000000000000008152600401610a729061324f565b60405180910390fd5b5f60075f8581526020019081526020015f20905080600301548160040154610aa3919061326d565b421015610ae5576040517f08c379a0000000000000000000000000000000000000000000000000000000008152600401610adc906132ea565b60405180910390fd5b5f805f9054906101000a900473ffffffffffffffffffffffffffffffffffffffff1673ffffffffffffffffffffffffffffffffffffffff16639371df5160015f9054906101000a900473ffffffffffffffffffffffffffffffffffffffff16846009015f9054906101000a900467ffffffffffffffff1687876040518563ffffffff1660e01b8152600401610b7d9493929190613308565b6020604051808303815f875af1158015610b99573d5f803e3d5ffd5b505050506040513d601f19601f82011682018060405250810190610bbd919061335f565b90505f8260070154825f1c610bd291906133b7565b90505f83600a018281548110610beb57610bea6133e7565b5b905f5260205f20015f9054906101000a900473ffffffffffffffffffffffffffffffffffffffff16905083600b0181908060018154018082558091505060019003905f5260205f20015f9091909190916101000a81548173ffffffffffffffffffffffffffffffffffffffff021916908373ffffffffffffffffffffffffffffffffffffffff160217905550600160075f8981526020019081526020015f20600a0180549050610c9b9190613414565b8214610d7e5760075f8881526020019081526020015f20600a01600160075f8a81526020019081526020015f20600a0180549050610cd99190613414565b81548110610cea57610ce96133e7565b5b905f5260205f20015f9054906101000a900473ffffffffffffffffffffffffffffffffffffffff1660075f8981526020019081526020015f20600a018381548110610d3857610d376133e7565b5b905f5260205f20015f6101000a81548173ffffffffffffffffffffffffffffffffffffffff021916908373ffffffffffffffffffffffffffffffffffffffff1602179055505b60075f8881526020019081526020015f20600a01805480610da257610da1613447565b5b600190038181905f5260205f20015f6101000a81549073ffffffffffffffffffffffffffffffffffffffff021916905590555f846001015485600a0180549050610dec9190613474565b90505f610df882611f0d565b90505f610e058a83611637565b90508087600201819055508082610e1c9190613414565b87600d015f8673ffffffffffffffffffffffffffffffffffffffff1673ffffffffffffffffffffffffffffffffffffffff1681526020019081526020015f2081905550600187600e015f8673ffffffffffffffffffffffffffffffffffffffff1673ffffffffffffffffffffffffffffffffffffffff1681526020019081526020015f205f6101000a81548160ff02191690831515021790555042876004018190555086600a015f610ece919061228f565b60055f9054906101000a900473ffffffffffffffffffffffffffffffffffffffff1673ffffffffffffffffffffffffffffffffffffffff166323b872dd33308a600101546040518463ffffffff1660e01b8152600401610f3093929190612cd1565b6020604051808303815f875af1158015610f4c573d5f803e3d5ffd5b505050506040513d601f19601f82011682018060405250810190610f709190612d3b565b610faf576040517f08c379a0000000000000000000000000000000000000000000000000000000008152600401610fa690612dd6565b60405180910390fd5b86600a0133908060018154018082558091505060019003905f5260205f20015f9091909190916101000a81548173ffffffffffffffffffffffffffffffffffffffff021916908373ffffffffffffffffffffffffffffffffffffffff1602179055507f35cb3811461cb824b245820eee97ab50ee1cc609f2bdd3bb10f5f0010184a7d38a858960080154604051611048939291906134b5565b60405180910390a1866008015f81548092919061106490612c8a565b919050555050505050505050505050565b61107d611f4a565b73420000000000000000000000000000000000002273ffffffffffffffffffffffffffffffffffffffff1663aad3ec963073420000000000000000000000000000000000002273ffffffffffffffffffffffffffffffffffffffff1663e12f3a61306040518263ffffffff1660e01b81526004016110fb9190612863565b602060405180830381865afa158015611116573d5f803e3d5ffd5b505050506040513d601f19601f8201168201806040525081019061113a91906134fe565b6040518363ffffffff1660e01b8152600401611157929190613529565b6020604051808303815f875af1158015611173573d5f803e3d5ffd5b505050506040513d601f19601f8201168201806040525081019061119791906134fe565b50565b60055f9054906101000a900473ffffffffffffffffffffffffffffffffffffffff1681565b6111c7611f4a565b5f60045490505f811161120f576040517f08c379a00000000000000000000000000000000000000000000000000000000081526004016112069061359a565b60405180910390fd5b5f60048190555060055f9054906101000a900473ffffffffffffffffffffffffffffffffffffffff1673ffffffffffffffffffffffffffffffffffffffff1663a9059cbb30836040518363ffffffff1660e01b8152600401611272929190613529565b6020604051808303815f875af115801561128e573d5f803e3d5ffd5b505050506040513d601f19601f820116820180604052508101906112b29190612d3b565b6112f1576040517f08c379a00000000000000000000000000000000000000000000000000000000081526004016112e890613602565b60405180910390fd5b50565b5f3384604051602001611308929190613685565b60405160208183030381529060405280519060200120905061136d8383808060200260200160405190810160405280939291908181526020018383602002808284375f81840152601f19601f8201169050808301925050505050505060025483611fd1565b6113ac576040517f08c379a00000000000000000000000000000000000000000000000000000000081526004016113a3906136fa565b60405180910390fd5b5f60065f3373ffffffffffffffffffffffffffffffffffffffff1673ffffffffffffffffffffffffffffffffffffffff1681526020019081526020015f2054905084811061142f576040517f08c379a000000000000000000000000000000000000000000000000000000000815260040161142690613788565b60405180910390fd5b5f818661143c9190613414565b90508560065f3373ffffffffffffffffffffffffffffffffffffffff1673ffffffffffffffffffffffffffffffffffffffff1681526020019081526020015f208190555060055f9054906101000a900473ffffffffffffffffffffffffffffffffffffffff1673ffffffffffffffffffffffffffffffffffffffff1663a9059cbb33836040518363ffffffff1660e01b81526004016114dc929190613529565b6020604051808303815f875af11580156114f8573d5f803e3d5ffd5b505050506040513d601f19601f8201168201806040525081019061151c9190612d3b565b61155b576040517f08c379a0000000000000000000000000000000000000000000000000000000008152600401611552906137f0565b60405180910390fd5b505050505050565b61156b611f4a565b6115745f611fe7565b565b6006602052805f5260405f205f915090505481565b611593611f4a565b73430000000000000000000000000000000000000273ffffffffffffffffffffffffffffffffffffffff1663954fa5ee30306040518363ffffffff1660e01b81526004016115e292919061380e565b6020604051808303815f875af11580156115fe573d5f803e3d5ffd5b505050506040513d601f19601f8201168201806040525081019061162291906134fe565b50565b61162d611f4a565b8060028190555050565b5f8060075f8581526020019081526020015f20905080600601548160050154846116619190613474565b61166b9190613835565b91505092915050565b5f61167d6120b8565b90505f815f0160089054906101000a900460ff161590505f825f015f9054906101000a900467ffffffffffffffff1690505f808267ffffffffffffffff161480156116c55750825b90505f60018367ffffffffffffffff161480156116f857505f3073ffffffffffffffffffffffffffffffffffffffff163b145b905081158015611706575080155b1561173d576040517ff92ee8a900000000000000000000000000000000000000000000000000000000815260040160405180910390fd5b6001855f015f6101000a81548167ffffffffffffffff021916908367ffffffffffffffff160217905550831561178a576001855f0160086101000a81548160ff0219169083151502179055505b611793336120df565b83156117ed575f855f0160086101000a81548160ff0219169083151502179055507fc7f505b2f371ae2175ee4913f4499e1f2633a7b5936321eed1cdaeb6115181d260016040516117e4919061389e565b60405180910390a15b5050505050565b5f60075f8381526020019081526020015f209050806007015481600a018054905010611855576040517f08c379a000000000000000000000000000000000000000000000000000000000815260040161184c90613901565b60405180910390fd5b806008015481600101546118699190613474565b81600c015f3373ffffffffffffffffffffffffffffffffffffffff1673ffffffffffffffffffffffffffffffffffffffff1681526020019081526020015f2054146118e9576040517f08c379a00000000000000000000000000000000000000000000000000000000081526004016118e09061398f565b60405180910390fd5b60055f9054906101000a900473ffffffffffffffffffffffffffffffffffffffff1673ffffffffffffffffffffffffffffffffffffffff166323b872dd333084600101546040518463ffffffff1660e01b815260040161194b93929190612cd1565b6020604051808303815f875af1158015611967573d5f803e3d5ffd5b505050506040513d601f19601f8201168201806040525081019061198b9190612d3b565b6119ca576040517f08c379a00000000000000000000000000000000000000000000000000000000081526004016119c1906139f7565b60405180910390fd5b806001015481600c015f3373ffffffffffffffffffffffffffffffffffffffff1673ffffffffffffffffffffffffffffffffffffffff1681526020019081526020015f20819055506001151581600e015f3373ffffffffffffffffffffffffffffffffffffffff1673ffffffffffffffffffffffffffffffffffffffff1681526020019081526020015f205f9054906101000a900460ff16151514611acc5780600a0133908060018154018082558091505060019003905f5260205f20015f9091909190916101000a81548173ffffffffffffffffffffffffffffffffffffffff021916908373ffffffffffffffffffffffffffffffffffffffff1602179055505b7f43d2f309913f6afc5d717f60864d2d192b69963d25204b6a12765e2795bf027f82825f013384600101548560030154866005015487600601548860070154604051611b1f989796959493929190613a96565b60405180910390a15050565b5f80611b356120f3565b9050805f015f9054906101000a900473ffffffffffffffffffffffffffffffffffffffff1691505090565b73430000000000000000000000000000000000000281565b5f60075f8381526020019081526020015f2090505f81600d015f3373ffffffffffffffffffffffffffffffffffffffff1673ffffffffffffffffffffffffffffffffffffffff1681526020019081526020015f205411611c0d576040517f08c379a0000000000000000000000000000000000000000000000000000000008152600401611c0490613b63565b60405180910390fd5b5f81600d015f3373ffffffffffffffffffffffffffffffffffffffff1673ffffffffffffffffffffffffffffffffffffffff1681526020019081526020015f205490505f82600d015f3373ffffffffffffffffffffffffffffffffffffffff1673ffffffffffffffffffffffffffffffffffffffff1681526020019081526020015f208190555060055f9054906101000a900473ffffffffffffffffffffffffffffffffffffffff1673ffffffffffffffffffffffffffffffffffffffff1663a9059cbb33836040518363ffffffff1660e01b8152600401611cf0929190613529565b6020604051808303815f875af1158015611d0c573d5f803e3d5ffd5b505050506040513d601f19601f82011682018060405250810190611d309190612d3b565b611d6f576040517f08c379a0000000000000000000000000000000000000000000000000000000008152600401611d66906139f7565b60405180910390fd5b505050565b60045481565b6007602052805f5260405f205f91509050805f018054611d9990612eba565b80601f0160208091040260200160405190810160405280929190818152602001828054611dc590612eba565b8015611e105780601f10611de757610100808354040283529160200191611e10565b820191905f5260205f20905b815481529060010190602001808311611df357829003601f168201915b505050505090806001015490806002015490806003015490806004015490806005015490806006015490806007015490806008015490806009015f9054906101000a900467ffffffffffffffff16908060090160089054906101000a900473ffffffffffffffffffffffffffffffffffffffff1690508b565b611e91611f4a565b5f73ffffffffffffffffffffffffffffffffffffffff168173ffffffffffffffffffffffffffffffffffffffff1603611f01575f6040517f1e4fbdf7000000000000000000000000000000000000000000000000000000008152600401611ef89190612863565b60405180910390fd5b611f0a81611fe7565b50565b5f80606483611f1c9190613835565b90508083611f2a9190613414565b91508060045f828254611f3d919061326d565b9250508190555050919050565b611f5261211a565b73ffffffffffffffffffffffffffffffffffffffff16611f70611b2b565b73ffffffffffffffffffffffffffffffffffffffff1614611fcf57611f9361211a565b6040517f118cdaa7000000000000000000000000000000000000000000000000000000008152600401611fc69190612863565b60405180910390fd5b565b5f82611fdd8584612121565b1490509392505050565b5f611ff06120f3565b90505f815f015f9054906101000a900473ffffffffffffffffffffffffffffffffffffffff16905082825f015f6101000a81548173ffffffffffffffffffffffffffffffffffffffff021916908373ffffffffffffffffffffffffffffffffffffffff1602179055508273ffffffffffffffffffffffffffffffffffffffff168173ffffffffffffffffffffffffffffffffffffffff167f8be0079c531659141344cd1fd0a4f28419497f9722a3daafe3b4186f6b6457e060405160405180910390a3505050565b5f7ff0c57e16840df040f15088dc2f81fe391c3923bec73e23a9662efc9c229c6a00905090565b6120e761216f565b6120f0816121af565b50565b5f7f9016d09d72d40fdae2fd8ceac6b6234c7706214fd39c1cd1e609a0528c199300905090565b5f33905090565b5f808290505f5b84518110156121645761215582868381518110612148576121476133e7565b5b6020026020010151612233565b91508080600101915050612128565b508091505092915050565b61217761225d565b6121ad576040517fd7e6bcf800000000000000000000000000000000000000000000000000000000815260040160405180910390fd5b565b6121b761216f565b5f73ffffffffffffffffffffffffffffffffffffffff168173ffffffffffffffffffffffffffffffffffffffff1603612227575f6040517f1e4fbdf700000000000000000000000000000000000000000000000000000000815260040161221e9190612863565b60405180910390fd5b61223081611fe7565b50565b5f81831061224a57612245828461227b565b612255565b612254838361227b565b5b905092915050565b5f6122666120b8565b5f0160089054906101000a900460ff16905090565b5f825f528160205260405f20905092915050565b5080545f8255905f5260205f20908101906122aa91906122ad565b50565b5b808211156122c4575f815f9055506001016122ae565b5090565b5f604051905090565b5f80fd5b5f80fd5b5f80fd5b5f80fd5b5f601f19601f8301169050919050565b7f4e487b71000000000000000000000000000000000000000000000000000000005f52604160045260245ffd5b612327826122e1565b810181811067ffffffffffffffff82111715612346576123456122f1565b5b80604052505050565b5f6123586122c8565b9050612364828261231e565b919050565b5f67ffffffffffffffff821115612383576123826122f1565b5b61238c826122e1565b9050602081019050919050565b828183375f83830152505050565b5f6123b96123b484612369565b61234f565b9050828152602081018484840111156123d5576123d46122dd565b5b6123e0848285612399565b509392505050565b5f82601f8301126123fc576123fb6122d9565b5b813561240c8482602086016123a7565b91505092915050565b5f819050919050565b61242781612415565b8114612431575f80fd5b50565b5f813590506124428161241e565b92915050565b5f819050919050565b61245a81612448565b8114612464575f80fd5b50565b5f8135905061247581612451565b92915050565b5f805f805f805f60e0888a031215612496576124956122d1565b5b5f88013567ffffffffffffffff8111156124b3576124b26122d5565b5b6124bf8a828b016123e8565b97505060206124d08a828b01612434565b96505060406124e18a828b01612467565b95505060606124f28a828b01612467565b94505060806125038a828b01612467565b93505060a06125148a828b01612467565b92505060c06125258a828b01612467565b91505092959891949750929550565b61253d81612415565b82525050565b5f6020820190506125565f830184612534565b92915050565b5f73ffffffffffffffffffffffffffffffffffffffff82169050919050565b5f819050919050565b5f61259e6125996125948461255c565b61257b565b61255c565b9050919050565b5f6125af82612584565b9050919050565b5f6125c0826125a5565b9050919050565b6125d0816125b6565b82525050565b5f6020820190506125e95f8301846125c7565b92915050565b5f805f60608486031215612606576126056122d1565b5b5f61261386828701612467565b935050602061262486828701612434565b925050604061263586828701612434565b9150509250925092565b5f612649826125a5565b9050919050565b6126598161263f565b82525050565b5f6020820190506126725f830184612650565b92915050565b5f80fd5b5f80fd5b5f8083601f840112612695576126946122d9565b5b8235905067ffffffffffffffff8111156126b2576126b1612678565b5b6020830191508360208202830111156126ce576126cd61267c565b5b9250929050565b5f805f604084860312156126ec576126eb6122d1565b5b5f6126f986828701612467565b935050602084013567ffffffffffffffff81111561271a576127196122d5565b5b61272686828701612680565b92509250509250925092565b5f61273c8261255c565b9050919050565b61274c81612732565b8114612756575f80fd5b50565b5f8135905061276781612743565b92915050565b5f60208284031215612782576127816122d1565b5b5f61278f84828501612759565b91505092915050565b6127a181612448565b82525050565b5f6020820190506127ba5f830184612798565b92915050565b5f602082840312156127d5576127d46122d1565b5b5f6127e284828501612434565b91505092915050565b5f8060408385031215612801576128006122d1565b5b5f61280e85828601612467565b925050602061281f85828601612467565b9150509250929050565b5f6020828403121561283e5761283d6122d1565b5b5f61284b84828501612467565b91505092915050565b61285d81612732565b82525050565b5f6020820190506128765f830184612854565b92915050565b5f612886826125a5565b9050919050565b6128968161287c565b82525050565b5f6020820190506128af5f83018461288d565b92915050565b5f81519050919050565b5f82825260208201905092915050565b5f5b838110156128ec5780820151818401526020810190506128d1565b5f8484015250505050565b5f612901826128b5565b61290b81856128bf565b935061291b8185602086016128cf565b612924816122e1565b840191505092915050565b5f67ffffffffffffffff82169050919050565b61294b8161292f565b82525050565b5f610160820190508181035f83015261296a818e6128f7565b9050612979602083018d612798565b612986604083018c612798565b612993606083018b612798565b6129a0608083018a612798565b6129ad60a0830189612798565b6129ba60c0830188612798565b6129c760e0830187612798565b6129d5610100830186612798565b6129e3610120830185612942565b6129f1610140830184612854565b9c9b505050505050505050505050565b5f6fffffffffffffffffffffffffffffffff82169050919050565b612a2581612a01565b8114612a2f575f80fd5b50565b5f81519050612a4081612a1c565b92915050565b5f60208284031215612a5b57612a5a6122d1565b5b5f612a6884828501612a32565b91505092915050565b7f496e73756666696369656e7420666565000000000000000000000000000000005f82015250565b5f612aa56010836128bf565b9150612ab082612a71565b602082019050919050565b5f6020820190508181035f830152612ad281612a99565b9050919050565b7f526f746174696f6e206379636c65206d75737420626520706f736974697665005f82015250565b5f612b0d601f836128bf565b9150612b1882612ad9565b602082019050919050565b5f6020820190508181035f830152612b3a81612b01565b9050919050565b7f496e7465726573742064656e6f6d696e61746f72206d75737420626520706f735f8201527f6974697665000000000000000000000000000000000000000000000000000000602082015250565b5f612b9b6025836128bf565b9150612ba682612b41565b604082019050919050565b5f6020820190508181035f830152612bc881612b8f565b9050919050565b7f4e756d657261746f72206d757374206265206c657373207468616e206f7220655f8201527f7175616c20746f2064656e6f6d696e61746f7200000000000000000000000000602082015250565b5f612c296033836128bf565b9150612c3482612bcf565b604082019050919050565b5f6020820190508181035f830152612c5681612c1d565b9050919050565b7f4e487b71000000000000000000000000000000000000000000000000000000005f52601160045260245ffd5b5f612c9482612448565b91507fffffffffffffffffffffffffffffffffffffffffffffffffffffffffffffffff8203612cc657612cc5612c5d565b5b600182019050919050565b5f606082019050612ce45f830186612854565b612cf16020830185612854565b612cfe6040830184612798565b949350505050565b5f8115159050919050565b612d1a81612d06565b8114612d24575f80fd5b50565b5f81519050612d3581612d11565b92915050565b5f60208284031215612d5057612d4f6122d1565b5b5f612d5d84828501612d27565b91505092915050565b7f43726561746f722073686f756c64206465706f7369742074686520696e6974695f8201527f616c20616d6f756e740000000000000000000000000000000000000000000000602082015250565b5f612dc06029836128bf565b9150612dcb82612d66565b604082019050919050565b5f6020820190508181035f830152612ded81612db4565b9050919050565b612dfd81612d06565b82525050565b5f606082019050612e165f830186612854565b612e236020830185612534565b612e306040830184612df4565b949350505050565b612e418161292f565b8114612e4b575f80fd5b50565b5f81519050612e5c81612e38565b92915050565b5f60208284031215612e7757612e766122d1565b5b5f612e8484828501612e4e565b91505092915050565b7f4e487b71000000000000000000000000000000000000000000000000000000005f52602260045260245ffd5b5f6002820490506001821680612ed157607f821691505b602082108103612ee457612ee3612e8d565b5b50919050565b5f819050815f5260205f209050919050565b5f6020601f8301049050919050565b5f82821b905092915050565b5f60088302612f467fffffffffffffffffffffffffffffffffffffffffffffffffffffffffffffffff82612f0b565b612f508683612f0b565b95508019841693508086168417925050509392505050565b5f612f82612f7d612f7884612448565b61257b565b612448565b9050919050565b5f819050919050565b612f9b83612f68565b612faf612fa782612f89565b848454612f17565b825550505050565b5f90565b612fc3612fb7565b612fce818484612f92565b505050565b5b81811015612ff157612fe65f82612fbb565b600181019050612fd4565b5050565b601f8211156130365761300781612eea565b61301084612efc565b8101602085101561301f578190505b61303361302b85612efc565b830182612fd3565b50505b505050565b5f82821c905092915050565b5f6130565f198460080261303b565b1980831691505092915050565b5f61306e8383613047565b9150826002028217905092915050565b613087826128b5565b67ffffffffffffffff8111156130a05761309f6122f1565b5b6130aa8254612eba565b6130b5828285612ff5565b5f60209050601f8311600181146130e6575f84156130d4578287015190505b6130de8582613063565b865550613145565b601f1984166130f486612eea565b5f5b8281101561311b578489015182556001820191506020850194506020810190506130f6565b868310156131385784890151613134601f891682613047565b8355505b6001600288020188555050505b505050505050565b5f610120820190506131615f83018c612798565b8181036020830152613173818b6128f7565b9050613182604083018a612854565b61318f6060830189612798565b61319c6080830188612798565b6131a960a0830187612798565b6131b660c0830186612798565b6131c360e0830185612798565b6131d1610100830184612942565b9a9950505050505050505050565b7f4f6e6c792074686520706f742063726561746f722063616e2072657665616c205f8201527f7468652077696e6e657200000000000000000000000000000000000000000000602082015250565b5f613239602a836128bf565b9150613244826131df565b604082019050919050565b5f6020820190508181035f8301526132668161322d565b9050919050565b5f61327782612448565b915061328283612448565b925082820190508082111561329a57613299612c5d565b5b92915050565b7f4e65787420726f746174696f6e206e6f742079657420647565000000000000005f82015250565b5f6132d46019836128bf565b91506132df826132a0565b602082019050919050565b5f6020820190508181035f830152613301816132c8565b9050919050565b5f60808201905061331b5f830187612854565b6133286020830186612942565b6133356040830185612534565b6133426060830184612534565b95945050505050565b5f815190506133598161241e565b92915050565b5f60208284031215613374576133736122d1565b5b5f6133818482850161334b565b91505092915050565b7f4e487b71000000000000000000000000000000000000000000000000000000005f52601260045260245ffd5b5f6133c182612448565b91506133cc83612448565b9250826133dc576133db61338a565b5b828206905092915050565b7f4e487b71000000000000000000000000000000000000000000000000000000005f52603260045260245ffd5b5f61341e82612448565b915061342983612448565b925082820390508181111561344157613440612c5d565b5b92915050565b7f4e487b71000000000000000000000000000000000000000000000000000000005f52603160045260245ffd5b5f61347e82612448565b915061348983612448565b925082820261349781612448565b915082820484148315176134ae576134ad612c5d565b5b5092915050565b5f6060820190506134c85f830186612798565b6134d56020830185612854565b6134e26040830184612798565b949350505050565b5f815190506134f881612451565b92915050565b5f60208284031215613513576135126122d1565b5b5f613520848285016134ea565b91505092915050565b5f60408201905061353c5f830185612854565b6135496020830184612798565b9392505050565b7f4e6f20726576656e756520746f207769746864726177000000000000000000005f82015250565b5f6135846016836128bf565b915061358f82613550565b602082019050919050565b5f6020820190508181035f8301526135b181613578565b9050919050565b7f526576656e7565207769746864726177616c206661696c6564000000000000005f82015250565b5f6135ec6019836128bf565b91506135f7826135b8565b602082019050919050565b5f6020820190508181035f830152613619816135e0565b9050919050565b5f8160601b9050919050565b5f61363682613620565b9050919050565b5f6136478261362c565b9050919050565b61365f61365a82612732565b61363d565b82525050565b5f819050919050565b61367f61367a82612448565b613665565b82525050565b5f613690828561364e565b6014820191506136a0828461366e565b6020820191508190509392505050565b7f496e76616c69642070726f6f662e0000000000000000000000000000000000005f82015250565b5f6136e4600e836128bf565b91506136ef826136b0565b602082019050919050565b5f6020820190508181035f830152613711816136d8565b9050919050565b7f4e6f2066756e6473206c65667420746f20636c61696d206f7220616c726561645f8201527f7920636c61696d65642e00000000000000000000000000000000000000000000602082015250565b5f613772602a836128bf565b915061377d82613718565b604082019050919050565b5f6020820190508181035f83015261379f81613766565b9050919050565b7f5969656c64207472616e73666572206661696c656400000000000000000000005f82015250565b5f6137da6015836128bf565b91506137e5826137a6565b602082019050919050565b5f6020820190508181035f830152613807816137ce565b9050919050565b5f6040820190506138215f830185612854565b61382e6020830184612854565b9392505050565b5f61383f82612448565b915061384a83612448565b92508261385a5761385961338a565b5b828204905092915050565b5f819050919050565b5f61388861388361387e84613865565b61257b565b61292f565b9050919050565b6138988161386e565b82525050565b5f6020820190506138b15f83018461388f565b92915050565b7f506f742069732066756c6c0000000000000000000000000000000000000000005f82015250565b5f6138eb600b836128bf565b91506138f6826138b7565b602082019050919050565b5f6020820190508181035f830152613918816138df565b9050919050565b7f416c7265616479206a6f696e6564206f72206d69737365642061206465706f735f8201527f6974000000000000000000000000000000000000000000000000000000000000602082015250565b5f6139796022836128bf565b91506139848261391f565b604082019050919050565b5f6020820190508181035f8301526139a68161396d565b9050919050565b7f5472616e73666572206661696c656400000000000000000000000000000000005f82015250565b5f6139e1600f836128bf565b91506139ec826139ad565b602082019050919050565b5f6020820190508181035f830152613a0e816139d5565b9050919050565b5f8154613a2181612eba565b613a2b81866128bf565b9450600182165f8114613a455760018114613a5b57613a8d565b60ff198316865281151560200286019350613a8d565b613a6485612eea565b5f5b83811015613a8557815481890152600182019150602081019050613a66565b808801955050505b50505092915050565b5f61010082019050613aaa5f83018b612798565b8181036020830152613abc818a613a15565b9050613acb6040830189612854565b613ad86060830188612798565b613ae56080830187612798565b613af260a0830186612798565b613aff60c0830185612798565b613b0c60e0830184612798565b9998505050505050505050565b7f4e6f2072657761726420746f20636c61696d00000000000000000000000000005f82015250565b5f613b4d6012836128bf565b9150613b5882613b19565b602082019050919050565b5f6020820190508181035f830152613b7a81613b41565b905091905056fea264697066735822122021f1b133d00f25b22604b9054b2975e2292cb3876cf3616942716c2ff253f1e764736f6c63430008180033",
					"opcodes": "PUSH1 0x80 PUSH1 0x40 MSTORE PUSH1 0x1 PUSH1 0x3 SSTORE CALLVALUE DUP1 ISZERO PUSH3 0x15 JUMPI PUSH0 DUP1 REVERT JUMPDEST POP PUSH1 0x40 MLOAD PUSH3 0x4047 CODESIZE SUB DUP1 PUSH3 0x4047 DUP4 CODECOPY DUP2 DUP2 ADD PUSH1 0x40 MSTORE DUP2 ADD SWAP1 PUSH3 0x3B SWAP2 SWAP1 PUSH3 0x312 JUMP JUMPDEST PUSH20 0x4200000000000000000000000000000000000022 PUSH20 0xFFFFFFFFFFFFFFFFFFFFFFFFFFFFFFFFFFFFFFFF AND PUSH4 0x1A33757D PUSH1 0x2 PUSH1 0x40 MLOAD DUP3 PUSH4 0xFFFFFFFF AND PUSH1 0xE0 SHL DUP2 MSTORE PUSH1 0x4 ADD PUSH3 0x8B SWAP2 SWAP1 PUSH3 0x3D3 JUMP JUMPDEST PUSH1 0x20 PUSH1 0x40 MLOAD DUP1 DUP4 SUB DUP2 PUSH0 DUP8 GAS CALL ISZERO DUP1 ISZERO PUSH3 0xA8 JUMPI RETURNDATASIZE PUSH0 DUP1 RETURNDATACOPY RETURNDATASIZE PUSH0 REVERT JUMPDEST POP POP POP POP PUSH1 0x40 MLOAD RETURNDATASIZE PUSH1 0x1F NOT PUSH1 0x1F DUP3 ADD AND DUP3 ADD DUP1 PUSH1 0x40 MSTORE POP DUP2 ADD SWAP1 PUSH3 0xCE SWAP2 SWAP1 PUSH3 0x426 JUMP JUMPDEST POP PUSH20 0x4200000000000000000000000000000000000022 PUSH1 0x5 PUSH0 PUSH2 0x100 EXP DUP2 SLOAD DUP2 PUSH20 0xFFFFFFFFFFFFFFFFFFFFFFFFFFFFFFFFFFFFFFFF MUL NOT AND SWAP1 DUP4 PUSH20 0xFFFFFFFFFFFFFFFFFFFFFFFFFFFFFFFFFFFFFFFF AND MUL OR SWAP1 SSTORE POP PUSH20 0x4300000000000000000000000000000000000002 PUSH20 0xFFFFFFFFFFFFFFFFFFFFFFFFFFFFFFFFFFFFFFFF AND PUSH4 0x4E606C47 PUSH1 0x40 MLOAD DUP2 PUSH4 0xFFFFFFFF AND PUSH1 0xE0 SHL DUP2 MSTORE PUSH1 0x4 ADD PUSH0 PUSH1 0x40 MLOAD DUP1 DUP4 SUB DUP2 PUSH0 DUP8 DUP1 EXTCODESIZE ISZERO DUP1 ISZERO PUSH3 0x17D JUMPI PUSH0 DUP1 REVERT JUMPDEST POP GAS CALL ISZERO DUP1 ISZERO PUSH3 0x190 JUMPI RETURNDATASIZE PUSH0 DUP1 RETURNDATACOPY RETURNDATASIZE PUSH0 REVERT JUMPDEST POP POP POP POP PUSH20 0x2FC95838C71E76EC69FF817983BFF17C710F34E0 PUSH20 0xFFFFFFFFFFFFFFFFFFFFFFFFFFFFFFFFFFFFFFFF AND PUSH4 0x36B91F2B PUSH20 0xE4860D3973802C7C42450D7B9741921C7711D039 PUSH1 0x40 MLOAD DUP3 PUSH4 0xFFFFFFFF AND PUSH1 0xE0 SHL DUP2 MSTORE PUSH1 0x4 ADD PUSH3 0x1F7 SWAP2 SWAP1 PUSH3 0x467 JUMP JUMPDEST PUSH0 PUSH1 0x40 MLOAD DUP1 DUP4 SUB DUP2 PUSH0 DUP8 DUP1 EXTCODESIZE ISZERO DUP1 ISZERO PUSH3 0x20F JUMPI PUSH0 DUP1 REVERT JUMPDEST POP GAS CALL ISZERO DUP1 ISZERO PUSH3 0x222 JUMPI RETURNDATASIZE PUSH0 DUP1 RETURNDATACOPY RETURNDATASIZE PUSH0 REVERT JUMPDEST POP POP POP POP DUP2 PUSH0 DUP1 PUSH2 0x100 EXP DUP2 SLOAD DUP2 PUSH20 0xFFFFFFFFFFFFFFFFFFFFFFFFFFFFFFFFFFFFFFFF MUL NOT AND SWAP1 DUP4 PUSH20 0xFFFFFFFFFFFFFFFFFFFFFFFFFFFFFFFFFFFFFFFF AND MUL OR SWAP1 SSTORE POP DUP1 PUSH1 0x1 PUSH0 PUSH2 0x100 EXP DUP2 SLOAD DUP2 PUSH20 0xFFFFFFFFFFFFFFFFFFFFFFFFFFFFFFFFFFFFFFFF MUL NOT AND SWAP1 DUP4 PUSH20 0xFFFFFFFFFFFFFFFFFFFFFFFFFFFFFFFFFFFFFFFF AND MUL OR SWAP1 SSTORE POP POP POP PUSH3 0x482 JUMP JUMPDEST PUSH0 DUP1 REVERT JUMPDEST PUSH0 PUSH20 0xFFFFFFFFFFFFFFFFFFFFFFFFFFFFFFFFFFFFFFFF DUP3 AND SWAP1 POP SWAP2 SWAP1 POP JUMP JUMPDEST PUSH0 PUSH3 0x2DC DUP3 PUSH3 0x2B1 JUMP JUMPDEST SWAP1 POP SWAP2 SWAP1 POP JUMP JUMPDEST PUSH3 0x2EE DUP2 PUSH3 0x2D0 JUMP JUMPDEST DUP2 EQ PUSH3 0x2F9 JUMPI PUSH0 DUP1 REVERT JUMPDEST POP JUMP JUMPDEST PUSH0 DUP2 MLOAD SWAP1 POP PUSH3 0x30C DUP2 PUSH3 0x2E3 JUMP JUMPDEST SWAP3 SWAP2 POP POP JUMP JUMPDEST PUSH0 DUP1 PUSH1 0x40 DUP4 DUP6 SUB SLT ISZERO PUSH3 0x32B JUMPI PUSH3 0x32A PUSH3 0x2AD JUMP JUMPDEST JUMPDEST PUSH0 PUSH3 0x33A DUP6 DUP3 DUP7 ADD PUSH3 0x2FC JUMP JUMPDEST SWAP3 POP POP PUSH1 0x20 PUSH3 0x34D DUP6 DUP3 DUP7 ADD PUSH3 0x2FC JUMP JUMPDEST SWAP2 POP POP SWAP3 POP SWAP3 SWAP1 POP JUMP JUMPDEST PUSH32 0x4E487B7100000000000000000000000000000000000000000000000000000000 PUSH0 MSTORE PUSH1 0x21 PUSH1 0x4 MSTORE PUSH1 0x24 PUSH0 REVERT JUMPDEST PUSH1 0x3 DUP2 LT PUSH3 0x398 JUMPI PUSH3 0x397 PUSH3 0x357 JUMP JUMPDEST JUMPDEST POP JUMP JUMPDEST PUSH0 DUP2 SWAP1 POP PUSH3 0x3AA DUP3 PUSH3 0x384 JUMP JUMPDEST SWAP2 SWAP1 POP JUMP JUMPDEST PUSH0 PUSH3 0x3BB DUP3 PUSH3 0x39B JUMP JUMPDEST SWAP1 POP SWAP2 SWAP1 POP JUMP JUMPDEST PUSH3 0x3CD DUP2 PUSH3 0x3AF JUMP JUMPDEST DUP3 MSTORE POP POP JUMP JUMPDEST PUSH0 PUSH1 0x20 DUP3 ADD SWAP1 POP PUSH3 0x3E8 PUSH0 DUP4 ADD DUP5 PUSH3 0x3C2 JUMP JUMPDEST SWAP3 SWAP2 POP POP JUMP JUMPDEST PUSH0 DUP2 SWAP1 POP SWAP2 SWAP1 POP JUMP JUMPDEST PUSH3 0x402 DUP2 PUSH3 0x3EE JUMP JUMPDEST DUP2 EQ PUSH3 0x40D JUMPI PUSH0 DUP1 REVERT JUMPDEST POP JUMP JUMPDEST PUSH0 DUP2 MLOAD SWAP1 POP PUSH3 0x420 DUP2 PUSH3 0x3F7 JUMP JUMPDEST SWAP3 SWAP2 POP POP JUMP JUMPDEST PUSH0 PUSH1 0x20 DUP3 DUP5 SUB SLT ISZERO PUSH3 0x43E JUMPI PUSH3 0x43D PUSH3 0x2AD JUMP JUMPDEST JUMPDEST PUSH0 PUSH3 0x44D DUP5 DUP3 DUP6 ADD PUSH3 0x410 JUMP JUMPDEST SWAP2 POP POP SWAP3 SWAP2 POP POP JUMP JUMPDEST PUSH3 0x461 DUP2 PUSH3 0x2D0 JUMP JUMPDEST DUP3 MSTORE POP POP JUMP JUMPDEST PUSH0 PUSH1 0x20 DUP3 ADD SWAP1 POP PUSH3 0x47C PUSH0 DUP4 ADD DUP5 PUSH3 0x456 JUMP JUMPDEST SWAP3 SWAP2 POP POP JUMP JUMPDEST PUSH2 0x3BB7 DUP1 PUSH3 0x490 PUSH0 CODECOPY PUSH0 RETURN INVALID PUSH1 0x80 PUSH1 0x40 MSTORE PUSH1 0x4 CALLDATASIZE LT PUSH2 0x129 JUMPI PUSH0 CALLDATALOAD PUSH1 0xE0 SHR DUP1 PUSH4 0x77D5D2DC GT PUSH2 0xAA JUMPI DUP1 PUSH4 0x8DA5CB5B GT PUSH2 0x6E JUMPI DUP1 PUSH4 0x8DA5CB5B EQ PUSH2 0x341 JUMPI DUP1 PUSH4 0x97D75776 EQ PUSH2 0x36B JUMPI DUP1 PUSH4 0xAE169A50 EQ PUSH2 0x395 JUMPI DUP1 PUSH4 0xBF2D9E0B EQ PUSH2 0x3BD JUMPI DUP1 PUSH4 0xC3C3DF4F EQ PUSH2 0x3E7 JUMPI DUP1 PUSH4 0xF2FDE38B EQ PUSH2 0x42D JUMPI PUSH2 0x129 JUMP JUMPDEST DUP1 PUSH4 0x77D5D2DC EQ PUSH2 0x295 JUMPI DUP1 PUSH4 0x7CB64759 EQ PUSH2 0x2AB JUMPI DUP1 PUSH4 0x7D77990C EQ PUSH2 0x2D3 JUMPI DUP1 PUSH4 0x8129FC1C EQ PUSH2 0x30F JUMPI DUP1 PUSH4 0x831D49EF EQ PUSH2 0x325 JUMPI PUSH2 0x129 JUMP JUMPDEST DUP1 PUSH4 0x4A80409E GT PUSH2 0xF1 JUMPI DUP1 PUSH4 0x4A80409E EQ PUSH2 0x1DB JUMPI DUP1 PUSH4 0x4F573CB2 EQ PUSH2 0x205 JUMPI DUP1 PUSH4 0x61E7D805 EQ PUSH2 0x21B JUMPI DUP1 PUSH4 0x715018A6 EQ PUSH2 0x243 JUMPI DUP1 PUSH4 0x73B2E80E EQ PUSH2 0x259 JUMPI PUSH2 0x129 JUMP JUMPDEST DUP1 PUSH4 0xFAE6443 EQ PUSH2 0x12D JUMPI DUP1 PUSH4 0x2EB4A7AB EQ PUSH2 0x149 JUMPI DUP1 PUSH4 0x31A0EDEC EQ PUSH2 0x173 JUMPI DUP1 PUSH4 0x3CABFEFD EQ PUSH2 0x19D JUMPI DUP1 PUSH4 0x409A33CE EQ PUSH2 0x1C5 JUMPI JUMPDEST PUSH0 DUP1 REVERT JUMPDEST PUSH2 0x147 PUSH1 0x4 DUP1 CALLDATASIZE SUB DUP2 ADD SWAP1 PUSH2 0x142 SWAP2 SWAP1 PUSH2 0x247B JUMP JUMPDEST PUSH2 0x455 JUMP JUMPDEST STOP JUMPDEST CALLVALUE DUP1 ISZERO PUSH2 0x154 JUMPI PUSH0 DUP1 REVERT JUMPDEST POP PUSH2 0x15D PUSH2 0x9BB JUMP JUMPDEST PUSH1 0x40 MLOAD PUSH2 0x16A SWAP2 SWAP1 PUSH2 0x2543 JUMP JUMPDEST PUSH1 0x40 MLOAD DUP1 SWAP2 SUB SWAP1 RETURN JUMPDEST CALLVALUE DUP1 ISZERO PUSH2 0x17E JUMPI PUSH0 DUP1 REVERT JUMPDEST POP PUSH2 0x187 PUSH2 0x9C1 JUMP JUMPDEST PUSH1 0x40 MLOAD PUSH2 0x194 SWAP2 SWAP1 PUSH2 0x25D6 JUMP JUMPDEST PUSH1 0x40 MLOAD DUP1 SWAP2 SUB SWAP1 RETURN JUMPDEST CALLVALUE DUP1 ISZERO PUSH2 0x1A8 JUMPI PUSH0 DUP1 REVERT JUMPDEST POP PUSH2 0x1C3 PUSH1 0x4 DUP1 CALLDATASIZE SUB DUP2 ADD SWAP1 PUSH2 0x1BE SWAP2 SWAP1 PUSH2 0x25EF JUMP JUMPDEST PUSH2 0x9D9 JUMP JUMPDEST STOP JUMPDEST CALLVALUE DUP1 ISZERO PUSH2 0x1D0 JUMPI PUSH0 DUP1 REVERT JUMPDEST POP PUSH2 0x1D9 PUSH2 0x1075 JUMP JUMPDEST STOP JUMPDEST CALLVALUE DUP1 ISZERO PUSH2 0x1E6 JUMPI PUSH0 DUP1 REVERT JUMPDEST POP PUSH2 0x1EF PUSH2 0x119A JUMP JUMPDEST PUSH1 0x40 MLOAD PUSH2 0x1FC SWAP2 SWAP1 PUSH2 0x265F JUMP JUMPDEST PUSH1 0x40 MLOAD DUP1 SWAP2 SUB SWAP1 RETURN JUMPDEST CALLVALUE DUP1 ISZERO PUSH2 0x210 JUMPI PUSH0 DUP1 REVERT JUMPDEST POP PUSH2 0x219 PUSH2 0x11BF JUMP JUMPDEST STOP JUMPDEST CALLVALUE DUP1 ISZERO PUSH2 0x226 JUMPI PUSH0 DUP1 REVERT JUMPDEST POP PUSH2 0x241 PUSH1 0x4 DUP1 CALLDATASIZE SUB DUP2 ADD SWAP1 PUSH2 0x23C SWAP2 SWAP1 PUSH2 0x26D5 JUMP JUMPDEST PUSH2 0x12F4 JUMP JUMPDEST STOP JUMPDEST CALLVALUE DUP1 ISZERO PUSH2 0x24E JUMPI PUSH0 DUP1 REVERT JUMPDEST POP PUSH2 0x257 PUSH2 0x1563 JUMP JUMPDEST STOP JUMPDEST CALLVALUE DUP1 ISZERO PUSH2 0x264 JUMPI PUSH0 DUP1 REVERT JUMPDEST POP PUSH2 0x27F PUSH1 0x4 DUP1 CALLDATASIZE SUB DUP2 ADD SWAP1 PUSH2 0x27A SWAP2 SWAP1 PUSH2 0x276D JUMP JUMPDEST PUSH2 0x1576 JUMP JUMPDEST PUSH1 0x40 MLOAD PUSH2 0x28C SWAP2 SWAP1 PUSH2 0x27A7 JUMP JUMPDEST PUSH1 0x40 MLOAD DUP1 SWAP2 SUB SWAP1 RETURN JUMPDEST CALLVALUE DUP1 ISZERO PUSH2 0x2A0 JUMPI PUSH0 DUP1 REVERT JUMPDEST POP PUSH2 0x2A9 PUSH2 0x158B JUMP JUMPDEST STOP JUMPDEST CALLVALUE DUP1 ISZERO PUSH2 0x2B6 JUMPI PUSH0 DUP1 REVERT JUMPDEST POP PUSH2 0x2D1 PUSH1 0x4 DUP1 CALLDATASIZE SUB DUP2 ADD SWAP1 PUSH2 0x2CC SWAP2 SWAP1 PUSH2 0x27C0 JUMP JUMPDEST PUSH2 0x1625 JUMP JUMPDEST STOP JUMPDEST CALLVALUE DUP1 ISZERO PUSH2 0x2DE JUMPI PUSH0 DUP1 REVERT JUMPDEST POP PUSH2 0x2F9 PUSH1 0x4 DUP1 CALLDATASIZE SUB DUP2 ADD SWAP1 PUSH2 0x2F4 SWAP2 SWAP1 PUSH2 0x27EB JUMP JUMPDEST PUSH2 0x1637 JUMP JUMPDEST PUSH1 0x40 MLOAD PUSH2 0x306 SWAP2 SWAP1 PUSH2 0x27A7 JUMP JUMPDEST PUSH1 0x40 MLOAD DUP1 SWAP2 SUB SWAP1 RETURN JUMPDEST CALLVALUE DUP1 ISZERO PUSH2 0x31A JUMPI PUSH0 DUP1 REVERT JUMPDEST POP PUSH2 0x323 PUSH2 0x1674 JUMP JUMPDEST STOP JUMPDEST PUSH2 0x33F PUSH1 0x4 DUP1 CALLDATASIZE SUB DUP2 ADD SWAP1 PUSH2 0x33A SWAP2 SWAP1 PUSH2 0x2829 JUMP JUMPDEST PUSH2 0x17F4 JUMP JUMPDEST STOP JUMPDEST CALLVALUE DUP1 ISZERO PUSH2 0x34C JUMPI PUSH0 DUP1 REVERT JUMPDEST POP PUSH2 0x355 PUSH2 0x1B2B JUMP JUMPDEST PUSH1 0x40 MLOAD PUSH2 0x362 SWAP2 SWAP1 PUSH2 0x2863 JUMP JUMPDEST PUSH1 0x40 MLOAD DUP1 SWAP2 SUB SWAP1 RETURN JUMPDEST CALLVALUE DUP1 ISZERO PUSH2 0x376 JUMPI PUSH0 DUP1 REVERT JUMPDEST POP PUSH2 0x37F PUSH2 0x1B60 JUMP JUMPDEST PUSH1 0x40 MLOAD PUSH2 0x38C SWAP2 SWAP1 PUSH2 0x289C JUMP JUMPDEST PUSH1 0x40 MLOAD DUP1 SWAP2 SUB SWAP1 RETURN JUMPDEST CALLVALUE DUP1 ISZERO PUSH2 0x3A0 JUMPI PUSH0 DUP1 REVERT JUMPDEST POP PUSH2 0x3BB PUSH1 0x4 DUP1 CALLDATASIZE SUB DUP2 ADD SWAP1 PUSH2 0x3B6 SWAP2 SWAP1 PUSH2 0x2829 JUMP JUMPDEST PUSH2 0x1B78 JUMP JUMPDEST STOP JUMPDEST CALLVALUE DUP1 ISZERO PUSH2 0x3C8 JUMPI PUSH0 DUP1 REVERT JUMPDEST POP PUSH2 0x3D1 PUSH2 0x1D74 JUMP JUMPDEST PUSH1 0x40 MLOAD PUSH2 0x3DE SWAP2 SWAP1 PUSH2 0x27A7 JUMP JUMPDEST PUSH1 0x40 MLOAD DUP1 SWAP2 SUB SWAP1 RETURN JUMPDEST CALLVALUE DUP1 ISZERO PUSH2 0x3F2 JUMPI PUSH0 DUP1 REVERT JUMPDEST POP PUSH2 0x40D PUSH1 0x4 DUP1 CALLDATASIZE SUB DUP2 ADD SWAP1 PUSH2 0x408 SWAP2 SWAP1 PUSH2 0x2829 JUMP JUMPDEST PUSH2 0x1D7A JUMP JUMPDEST PUSH1 0x40 MLOAD PUSH2 0x424 SWAP12 SWAP11 SWAP10 SWAP9 SWAP8 SWAP7 SWAP6 SWAP5 SWAP4 SWAP3 SWAP2 SWAP1 PUSH2 0x2951 JUMP JUMPDEST PUSH1 0x40 MLOAD DUP1 SWAP2 SUB SWAP1 RETURN JUMPDEST CALLVALUE DUP1 ISZERO PUSH2 0x438 JUMPI PUSH0 DUP1 REVERT JUMPDEST POP PUSH2 0x453 PUSH1 0x4 DUP1 CALLDATASIZE SUB DUP2 ADD SWAP1 PUSH2 0x44E SWAP2 SWAP1 PUSH2 0x276D JUMP JUMPDEST PUSH2 0x1E89 JUMP JUMPDEST STOP JUMPDEST PUSH0 DUP1 PUSH0 SWAP1 SLOAD SWAP1 PUSH2 0x100 EXP SWAP1 DIV PUSH20 0xFFFFFFFFFFFFFFFFFFFFFFFFFFFFFFFFFFFFFFFF AND PUSH20 0xFFFFFFFFFFFFFFFFFFFFFFFFFFFFFFFFFFFFFFFF AND PUSH4 0xB88C9148 PUSH1 0x1 PUSH0 SWAP1 SLOAD SWAP1 PUSH2 0x100 EXP SWAP1 DIV PUSH20 0xFFFFFFFFFFFFFFFFFFFFFFFFFFFFFFFFFFFFFFFF AND PUSH1 0x40 MLOAD DUP3 PUSH4 0xFFFFFFFF AND PUSH1 0xE0 SHL DUP2 MSTORE PUSH1 0x4 ADD PUSH2 0x4D0 SWAP2 SWAP1 PUSH2 0x2863 JUMP JUMPDEST PUSH1 0x20 PUSH1 0x40 MLOAD DUP1 DUP4 SUB DUP2 DUP7 GAS STATICCALL ISZERO DUP1 ISZERO PUSH2 0x4EB JUMPI RETURNDATASIZE PUSH0 DUP1 RETURNDATACOPY RETURNDATASIZE PUSH0 REVERT JUMPDEST POP POP POP POP PUSH1 0x40 MLOAD RETURNDATASIZE PUSH1 0x1F NOT PUSH1 0x1F DUP3 ADD AND DUP3 ADD DUP1 PUSH1 0x40 MSTORE POP DUP2 ADD SWAP1 PUSH2 0x50F SWAP2 SWAP1 PUSH2 0x2A46 JUMP JUMPDEST PUSH16 0xFFFFFFFFFFFFFFFFFFFFFFFFFFFFFFFF AND SWAP1 POP DUP1 CALLVALUE LT PUSH2 0x565 JUMPI PUSH1 0x40 MLOAD PUSH32 0x8C379A000000000000000000000000000000000000000000000000000000000 DUP2 MSTORE PUSH1 0x4 ADD PUSH2 0x55C SWAP1 PUSH2 0x2ABB JUMP JUMPDEST PUSH1 0x40 MLOAD DUP1 SWAP2 SUB SWAP1 REVERT JUMPDEST PUSH0 DUP7 GT PUSH2 0x5A7 JUMPI PUSH1 0x40 MLOAD PUSH32 0x8C379A000000000000000000000000000000000000000000000000000000000 DUP2 MSTORE PUSH1 0x4 ADD PUSH2 0x59E SWAP1 PUSH2 0x2B23 JUMP JUMPDEST PUSH1 0x40 MLOAD DUP1 SWAP2 SUB SWAP1 REVERT JUMPDEST PUSH0 DUP6 GT PUSH2 0x5E9 JUMPI PUSH1 0x40 MLOAD PUSH32 0x8C379A000000000000000000000000000000000000000000000000000000000 DUP2 MSTORE PUSH1 0x4 ADD PUSH2 0x5E0 SWAP1 PUSH2 0x2BB1 JUMP JUMPDEST PUSH1 0x40 MLOAD DUP1 SWAP2 SUB SWAP1 REVERT JUMPDEST DUP5 DUP5 GT ISZERO PUSH2 0x62C JUMPI PUSH1 0x40 MLOAD PUSH32 0x8C379A000000000000000000000000000000000000000000000000000000000 DUP2 MSTORE PUSH1 0x4 ADD PUSH2 0x623 SWAP1 PUSH2 0x2C3F JUMP JUMPDEST PUSH1 0x40 MLOAD DUP1 SWAP2 SUB SWAP1 REVERT JUMPDEST PUSH0 PUSH1 0x3 PUSH0 DUP2 SLOAD DUP1 SWAP3 SWAP2 SWAP1 PUSH2 0x63F SWAP1 PUSH2 0x2C8A JUMP JUMPDEST SWAP2 SWAP1 POP SSTORE SWAP1 POP PUSH1 0x5 PUSH0 SWAP1 SLOAD SWAP1 PUSH2 0x100 EXP SWAP1 DIV PUSH20 0xFFFFFFFFFFFFFFFFFFFFFFFFFFFFFFFFFFFFFFFF AND PUSH20 0xFFFFFFFFFFFFFFFFFFFFFFFFFFFFFFFFFFFFFFFF AND PUSH4 0x23B872DD CALLER ADDRESS DUP7 PUSH1 0x40 MLOAD DUP5 PUSH4 0xFFFFFFFF AND PUSH1 0xE0 SHL DUP2 MSTORE PUSH1 0x4 ADD PUSH2 0x6A3 SWAP4 SWAP3 SWAP2 SWAP1 PUSH2 0x2CD1 JUMP JUMPDEST PUSH1 0x20 PUSH1 0x40 MLOAD DUP1 DUP4 SUB DUP2 PUSH0 DUP8 GAS CALL ISZERO DUP1 ISZERO PUSH2 0x6BF JUMPI RETURNDATASIZE PUSH0 DUP1 RETURNDATACOPY RETURNDATASIZE PUSH0 REVERT JUMPDEST POP POP POP POP PUSH1 0x40 MLOAD RETURNDATASIZE PUSH1 0x1F NOT PUSH1 0x1F DUP3 ADD AND DUP3 ADD DUP1 PUSH1 0x40 MSTORE POP DUP2 ADD SWAP1 PUSH2 0x6E3 SWAP2 SWAP1 PUSH2 0x2D3B JUMP JUMPDEST PUSH2 0x722 JUMPI PUSH1 0x40 MLOAD PUSH32 0x8C379A000000000000000000000000000000000000000000000000000000000 DUP2 MSTORE PUSH1 0x4 ADD PUSH2 0x719 SWAP1 PUSH2 0x2DD6 JUMP JUMPDEST PUSH1 0x40 MLOAD DUP1 SWAP2 SUB SWAP1 REVERT JUMPDEST PUSH0 DUP1 PUSH0 SWAP1 SLOAD SWAP1 PUSH2 0x100 EXP SWAP1 DIV PUSH20 0xFFFFFFFFFFFFFFFFFFFFFFFFFFFFFFFFFFFFFFFF AND PUSH20 0xFFFFFFFFFFFFFFFFFFFFFFFFFFFFFFFFFFFFFFFF AND PUSH4 0x93CBF217 DUP5 PUSH1 0x1 PUSH0 SWAP1 SLOAD SWAP1 PUSH2 0x100 EXP SWAP1 DIV PUSH20 0xFFFFFFFFFFFFFFFFFFFFFFFFFFFFFFFFFFFFFFFF AND DUP13 PUSH1 0x1 PUSH1 0x40 MLOAD DUP6 PUSH4 0xFFFFFFFF AND PUSH1 0xE0 SHL DUP2 MSTORE PUSH1 0x4 ADD PUSH2 0x7A3 SWAP4 SWAP3 SWAP2 SWAP1 PUSH2 0x2E03 JUMP JUMPDEST PUSH1 0x20 PUSH1 0x40 MLOAD DUP1 DUP4 SUB DUP2 DUP6 DUP9 GAS CALL ISZERO DUP1 ISZERO PUSH2 0x7BF JUMPI RETURNDATASIZE PUSH0 DUP1 RETURNDATACOPY RETURNDATASIZE PUSH0 REVERT JUMPDEST POP POP POP POP POP PUSH1 0x40 MLOAD RETURNDATASIZE PUSH1 0x1F NOT PUSH1 0x1F DUP3 ADD AND DUP3 ADD DUP1 PUSH1 0x40 MSTORE POP DUP2 ADD SWAP1 PUSH2 0x7E4 SWAP2 SWAP1 PUSH2 0x2E62 JUMP JUMPDEST SWAP1 POP PUSH0 PUSH1 0x7 PUSH0 DUP5 DUP2 MSTORE PUSH1 0x20 ADD SWAP1 DUP2 MSTORE PUSH1 0x20 ADD PUSH0 KECCAK256 SWAP1 POP DUP11 DUP2 PUSH0 ADD SWAP1 DUP2 PUSH2 0x80A SWAP2 SWAP1 PUSH2 0x307E JUMP JUMPDEST POP DUP5 DUP2 PUSH1 0x1 ADD DUP2 SWAP1 SSTORE POP PUSH0 DUP2 PUSH1 0x2 ADD DUP2 SWAP1 SSTORE POP DUP2 DUP2 PUSH1 0x9 ADD PUSH0 PUSH2 0x100 EXP DUP2 SLOAD DUP2 PUSH8 0xFFFFFFFFFFFFFFFF MUL NOT AND SWAP1 DUP4 PUSH8 0xFFFFFFFFFFFFFFFF AND MUL OR SWAP1 SSTORE POP CALLER DUP2 PUSH1 0x9 ADD PUSH1 0x8 PUSH2 0x100 EXP DUP2 SLOAD DUP2 PUSH20 0xFFFFFFFFFFFFFFFFFFFFFFFFFFFFFFFFFFFFFFFF MUL NOT AND SWAP1 DUP4 PUSH20 0xFFFFFFFFFFFFFFFFFFFFFFFFFFFFFFFFFFFFFFFF AND MUL OR SWAP1 SSTORE POP DUP9 DUP2 PUSH1 0x3 ADD DUP2 SWAP1 SSTORE POP DUP7 DUP2 PUSH1 0x5 ADD DUP2 SWAP1 SSTORE POP DUP8 DUP2 PUSH1 0x6 ADD DUP2 SWAP1 SSTORE POP TIMESTAMP DUP2 PUSH1 0x4 ADD DUP2 SWAP1 SSTORE POP DUP6 DUP2 PUSH1 0x7 ADD DUP2 SWAP1 SSTORE POP PUSH1 0x1 DUP2 PUSH1 0x8 ADD DUP2 SWAP1 SSTORE POP DUP5 DUP2 PUSH1 0xC ADD PUSH0 CALLER PUSH20 0xFFFFFFFFFFFFFFFFFFFFFFFFFFFFFFFFFFFFFFFF AND PUSH20 0xFFFFFFFFFFFFFFFFFFFFFFFFFFFFFFFFFFFFFFFF AND DUP2 MSTORE PUSH1 0x20 ADD SWAP1 DUP2 MSTORE PUSH1 0x20 ADD PUSH0 KECCAK256 DUP2 SWAP1 SSTORE POP DUP1 PUSH1 0xA ADD CALLER SWAP1 DUP1 PUSH1 0x1 DUP2 SLOAD ADD DUP1 DUP3 SSTORE DUP1 SWAP2 POP POP PUSH1 0x1 SWAP1 SUB SWAP1 PUSH0 MSTORE PUSH1 0x20 PUSH0 KECCAK256 ADD PUSH0 SWAP1 SWAP2 SWAP1 SWAP2 SWAP1 SWAP2 PUSH2 0x100 EXP DUP2 SLOAD DUP2 PUSH20 0xFFFFFFFFFFFFFFFFFFFFFFFFFFFFFFFFFFFFFFFF MUL NOT AND SWAP1 DUP4 PUSH20 0xFFFFFFFFFFFFFFFFFFFFFFFFFFFFFFFFFFFFFFFF AND MUL OR SWAP1 SSTORE POP PUSH32 0x2EA75DEFA9ED86BE5C1F296BA42849D00ED611C827F9F30A82AB2F1DADC50B88 DUP4 DUP13 CALLER DUP9 DUP14 DUP13 DUP15 DUP14 DUP11 PUSH1 0x40 MLOAD PUSH2 0x9A6 SWAP10 SWAP9 SWAP8 SWAP7 SWAP6 SWAP5 SWAP4 SWAP3 SWAP2 SWAP1 PUSH2 0x314D JUMP JUMPDEST PUSH1 0x40 MLOAD DUP1 SWAP2 SUB SWAP1 LOG1 POP POP POP POP POP POP POP POP POP POP POP JUMP JUMPDEST PUSH1 0x2 SLOAD DUP2 JUMP JUMPDEST PUSH20 0x4200000000000000000000000000000000000022 DUP2 JUMP JUMPDEST CALLER PUSH20 0xFFFFFFFFFFFFFFFFFFFFFFFFFFFFFFFFFFFFFFFF AND PUSH1 0x7 PUSH0 DUP6 DUP2 MSTORE PUSH1 0x20 ADD SWAP1 DUP2 MSTORE PUSH1 0x20 ADD PUSH0 KECCAK256 PUSH1 0x9 ADD PUSH1 0x8 SWAP1 SLOAD SWAP1 PUSH2 0x100 EXP SWAP1 DIV PUSH20 0xFFFFFFFFFFFFFFFFFFFFFFFFFFFFFFFFFFFFFFFF AND PUSH20 0xFFFFFFFFFFFFFFFFFFFFFFFFFFFFFFFFFFFFFFFF AND EQ PUSH2 0xA7B JUMPI PUSH1 0x40 MLOAD PUSH32 0x8C379A000000000000000000000000000000000000000000000000000000000 DUP2 MSTORE PUSH1 0x4 ADD PUSH2 0xA72 SWAP1 PUSH2 0x324F JUMP JUMPDEST PUSH1 0x40 MLOAD DUP1 SWAP2 SUB SWAP1 REVERT JUMPDEST PUSH0 PUSH1 0x7 PUSH0 DUP6 DUP2 MSTORE PUSH1 0x20 ADD SWAP1 DUP2 MSTORE PUSH1 0x20 ADD PUSH0 KECCAK256 SWAP1 POP DUP1 PUSH1 0x3 ADD SLOAD DUP2 PUSH1 0x4 ADD SLOAD PUSH2 0xAA3 SWAP2 SWAP1 PUSH2 0x326D JUMP JUMPDEST TIMESTAMP LT ISZERO PUSH2 0xAE5 JUMPI PUSH1 0x40 MLOAD PUSH32 0x8C379A000000000000000000000000000000000000000000000000000000000 DUP2 MSTORE PUSH1 0x4 ADD PUSH2 0xADC SWAP1 PUSH2 0x32EA JUMP JUMPDEST PUSH1 0x40 MLOAD DUP1 SWAP2 SUB SWAP1 REVERT JUMPDEST PUSH0 DUP1 PUSH0 SWAP1 SLOAD SWAP1 PUSH2 0x100 EXP SWAP1 DIV PUSH20 0xFFFFFFFFFFFFFFFFFFFFFFFFFFFFFFFFFFFFFFFF AND PUSH20 0xFFFFFFFFFFFFFFFFFFFFFFFFFFFFFFFFFFFFFFFF AND PUSH4 0x9371DF51 PUSH1 0x1 PUSH0 SWAP1 SLOAD SWAP1 PUSH2 0x100 EXP SWAP1 DIV PUSH20 0xFFFFFFFFFFFFFFFFFFFFFFFFFFFFFFFFFFFFFFFF AND DUP5 PUSH1 0x9 ADD PUSH0 SWAP1 SLOAD SWAP1 PUSH2 0x100 EXP SWAP1 DIV PUSH8 0xFFFFFFFFFFFFFFFF AND DUP8 DUP8 PUSH1 0x40 MLOAD DUP6 PUSH4 0xFFFFFFFF AND PUSH1 0xE0 SHL DUP2 MSTORE PUSH1 0x4 ADD PUSH2 0xB7D SWAP5 SWAP4 SWAP3 SWAP2 SWAP1 PUSH2 0x3308 JUMP JUMPDEST PUSH1 0x20 PUSH1 0x40 MLOAD DUP1 DUP4 SUB DUP2 PUSH0 DUP8 GAS CALL ISZERO DUP1 ISZERO PUSH2 0xB99 JUMPI RETURNDATASIZE PUSH0 DUP1 RETURNDATACOPY RETURNDATASIZE PUSH0 REVERT JUMPDEST POP POP POP POP PUSH1 0x40 MLOAD RETURNDATASIZE PUSH1 0x1F NOT PUSH1 0x1F DUP3 ADD AND DUP3 ADD DUP1 PUSH1 0x40 MSTORE POP DUP2 ADD SWAP1 PUSH2 0xBBD SWAP2 SWAP1 PUSH2 0x335F JUMP JUMPDEST SWAP1 POP PUSH0 DUP3 PUSH1 0x7 ADD SLOAD DUP3 PUSH0 SHR PUSH2 0xBD2 SWAP2 SWAP1 PUSH2 0x33B7 JUMP JUMPDEST SWAP1 POP PUSH0 DUP4 PUSH1 0xA ADD DUP3 DUP2 SLOAD DUP2 LT PUSH2 0xBEB JUMPI PUSH2 0xBEA PUSH2 0x33E7 JUMP JUMPDEST JUMPDEST SWAP1 PUSH0 MSTORE PUSH1 0x20 PUSH0 KECCAK256 ADD PUSH0 SWAP1 SLOAD SWAP1 PUSH2 0x100 EXP SWAP1 DIV PUSH20 0xFFFFFFFFFFFFFFFFFFFFFFFFFFFFFFFFFFFFFFFF AND SWAP1 POP DUP4 PUSH1 0xB ADD DUP2 SWAP1 DUP1 PUSH1 0x1 DUP2 SLOAD ADD DUP1 DUP3 SSTORE DUP1 SWAP2 POP POP PUSH1 0x1 SWAP1 SUB SWAP1 PUSH0 MSTORE PUSH1 0x20 PUSH0 KECCAK256 ADD PUSH0 SWAP1 SWAP2 SWAP1 SWAP2 SWAP1 SWAP2 PUSH2 0x100 EXP DUP2 SLOAD DUP2 PUSH20 0xFFFFFFFFFFFFFFFFFFFFFFFFFFFFFFFFFFFFFFFF MUL NOT AND SWAP1 DUP4 PUSH20 0xFFFFFFFFFFFFFFFFFFFFFFFFFFFFFFFFFFFFFFFF AND MUL OR SWAP1 SSTORE POP PUSH1 0x1 PUSH1 0x7 PUSH0 DUP10 DUP2 MSTORE PUSH1 0x20 ADD SWAP1 DUP2 MSTORE PUSH1 0x20 ADD PUSH0 KECCAK256 PUSH1 0xA ADD DUP1 SLOAD SWAP1 POP PUSH2 0xC9B SWAP2 SWAP1 PUSH2 0x3414 JUMP JUMPDEST DUP3 EQ PUSH2 0xD7E JUMPI PUSH1 0x7 PUSH0 DUP9 DUP2 MSTORE PUSH1 0x20 ADD SWAP1 DUP2 MSTORE PUSH1 0x20 ADD PUSH0 KECCAK256 PUSH1 0xA ADD PUSH1 0x1 PUSH1 0x7 PUSH0 DUP11 DUP2 MSTORE PUSH1 0x20 ADD SWAP1 DUP2 MSTORE PUSH1 0x20 ADD PUSH0 KECCAK256 PUSH1 0xA ADD DUP1 SLOAD SWAP1 POP PUSH2 0xCD9 SWAP2 SWAP1 PUSH2 0x3414 JUMP JUMPDEST DUP2 SLOAD DUP2 LT PUSH2 0xCEA JUMPI PUSH2 0xCE9 PUSH2 0x33E7 JUMP JUMPDEST JUMPDEST SWAP1 PUSH0 MSTORE PUSH1 0x20 PUSH0 KECCAK256 ADD PUSH0 SWAP1 SLOAD SWAP1 PUSH2 0x100 EXP SWAP1 DIV PUSH20 0xFFFFFFFFFFFFFFFFFFFFFFFFFFFFFFFFFFFFFFFF AND PUSH1 0x7 PUSH0 DUP10 DUP2 MSTORE PUSH1 0x20 ADD SWAP1 DUP2 MSTORE PUSH1 0x20 ADD PUSH0 KECCAK256 PUSH1 0xA ADD DUP4 DUP2 SLOAD DUP2 LT PUSH2 0xD38 JUMPI PUSH2 0xD37 PUSH2 0x33E7 JUMP JUMPDEST JUMPDEST SWAP1 PUSH0 MSTORE PUSH1 0x20 PUSH0 KECCAK256 ADD PUSH0 PUSH2 0x100 EXP DUP2 SLOAD DUP2 PUSH20 0xFFFFFFFFFFFFFFFFFFFFFFFFFFFFFFFFFFFFFFFF MUL NOT AND SWAP1 DUP4 PUSH20 0xFFFFFFFFFFFFFFFFFFFFFFFFFFFFFFFFFFFFFFFF AND MUL OR SWAP1 SSTORE POP JUMPDEST PUSH1 0x7 PUSH0 DUP9 DUP2 MSTORE PUSH1 0x20 ADD SWAP1 DUP2 MSTORE PUSH1 0x20 ADD PUSH0 KECCAK256 PUSH1 0xA ADD DUP1 SLOAD DUP1 PUSH2 0xDA2 JUMPI PUSH2 0xDA1 PUSH2 0x3447 JUMP JUMPDEST JUMPDEST PUSH1 0x1 SWAP1 SUB DUP2 DUP2 SWAP1 PUSH0 MSTORE PUSH1 0x20 PUSH0 KECCAK256 ADD PUSH0 PUSH2 0x100 EXP DUP2 SLOAD SWAP1 PUSH20 0xFFFFFFFFFFFFFFFFFFFFFFFFFFFFFFFFFFFFFFFF MUL NOT AND SWAP1 SSTORE SWAP1 SSTORE PUSH0 DUP5 PUSH1 0x1 ADD SLOAD DUP6 PUSH1 0xA ADD DUP1 SLOAD SWAP1 POP PUSH2 0xDEC SWAP2 SWAP1 PUSH2 0x3474 JUMP JUMPDEST SWAP1 POP PUSH0 PUSH2 0xDF8 DUP3 PUSH2 0x1F0D JUMP JUMPDEST SWAP1 POP PUSH0 PUSH2 0xE05 DUP11 DUP4 PUSH2 0x1637 JUMP JUMPDEST SWAP1 POP DUP1 DUP8 PUSH1 0x2 ADD DUP2 SWAP1 SSTORE POP DUP1 DUP3 PUSH2 0xE1C SWAP2 SWAP1 PUSH2 0x3414 JUMP JUMPDEST DUP8 PUSH1 0xD ADD PUSH0 DUP7 PUSH20 0xFFFFFFFFFFFFFFFFFFFFFFFFFFFFFFFFFFFFFFFF AND PUSH20 0xFFFFFFFFFFFFFFFFFFFFFFFFFFFFFFFFFFFFFFFF AND DUP2 MSTORE PUSH1 0x20 ADD SWAP1 DUP2 MSTORE PUSH1 0x20 ADD PUSH0 KECCAK256 DUP2 SWAP1 SSTORE POP PUSH1 0x1 DUP8 PUSH1 0xE ADD PUSH0 DUP7 PUSH20 0xFFFFFFFFFFFFFFFFFFFFFFFFFFFFFFFFFFFFFFFF AND PUSH20 0xFFFFFFFFFFFFFFFFFFFFFFFFFFFFFFFFFFFFFFFF AND DUP2 MSTORE PUSH1 0x20 ADD SWAP1 DUP2 MSTORE PUSH1 0x20 ADD PUSH0 KECCAK256 PUSH0 PUSH2 0x100 EXP DUP2 SLOAD DUP2 PUSH1 0xFF MUL NOT AND SWAP1 DUP4 ISZERO ISZERO MUL OR SWAP1 SSTORE POP TIMESTAMP DUP8 PUSH1 0x4 ADD DUP2 SWAP1 SSTORE POP DUP7 PUSH1 0xA ADD PUSH0 PUSH2 0xECE SWAP2 SWAP1 PUSH2 0x228F JUMP JUMPDEST PUSH1 0x5 PUSH0 SWAP1 SLOAD SWAP1 PUSH2 0x100 EXP SWAP1 DIV PUSH20 0xFFFFFFFFFFFFFFFFFFFFFFFFFFFFFFFFFFFFFFFF AND PUSH20 0xFFFFFFFFFFFFFFFFFFFFFFFFFFFFFFFFFFFFFFFF AND PUSH4 0x23B872DD CALLER ADDRESS DUP11 PUSH1 0x1 ADD SLOAD PUSH1 0x40 MLOAD DUP5 PUSH4 0xFFFFFFFF AND PUSH1 0xE0 SHL DUP2 MSTORE PUSH1 0x4 ADD PUSH2 0xF30 SWAP4 SWAP3 SWAP2 SWAP1 PUSH2 0x2CD1 JUMP JUMPDEST PUSH1 0x20 PUSH1 0x40 MLOAD DUP1 DUP4 SUB DUP2 PUSH0 DUP8 GAS CALL ISZERO DUP1 ISZERO PUSH2 0xF4C JUMPI RETURNDATASIZE PUSH0 DUP1 RETURNDATACOPY RETURNDATASIZE PUSH0 REVERT JUMPDEST POP POP POP POP PUSH1 0x40 MLOAD RETURNDATASIZE PUSH1 0x1F NOT PUSH1 0x1F DUP3 ADD AND DUP3 ADD DUP1 PUSH1 0x40 MSTORE POP DUP2 ADD SWAP1 PUSH2 0xF70 SWAP2 SWAP1 PUSH2 0x2D3B JUMP JUMPDEST PUSH2 0xFAF JUMPI PUSH1 0x40 MLOAD PUSH32 0x8C379A000000000000000000000000000000000000000000000000000000000 DUP2 MSTORE PUSH1 0x4 ADD PUSH2 0xFA6 SWAP1 PUSH2 0x2DD6 JUMP JUMPDEST PUSH1 0x40 MLOAD DUP1 SWAP2 SUB SWAP1 REVERT JUMPDEST DUP7 PUSH1 0xA ADD CALLER SWAP1 DUP1 PUSH1 0x1 DUP2 SLOAD ADD DUP1 DUP3 SSTORE DUP1 SWAP2 POP POP PUSH1 0x1 SWAP1 SUB SWAP1 PUSH0 MSTORE PUSH1 0x20 PUSH0 KECCAK256 ADD PUSH0 SWAP1 SWAP2 SWAP1 SWAP2 SWAP1 SWAP2 PUSH2 0x100 EXP DUP2 SLOAD DUP2 PUSH20 0xFFFFFFFFFFFFFFFFFFFFFFFFFFFFFFFFFFFFFFFF MUL NOT AND SWAP1 DUP4 PUSH20 0xFFFFFFFFFFFFFFFFFFFFFFFFFFFFFFFFFFFFFFFF AND MUL OR SWAP1 SSTORE POP PUSH32 0x35CB3811461CB824B245820EEE97AB50EE1CC609F2BDD3BB10F5F0010184A7D3 DUP11 DUP6 DUP10 PUSH1 0x8 ADD SLOAD PUSH1 0x40 MLOAD PUSH2 0x1048 SWAP4 SWAP3 SWAP2 SWAP1 PUSH2 0x34B5 JUMP JUMPDEST PUSH1 0x40 MLOAD DUP1 SWAP2 SUB SWAP1 LOG1 DUP7 PUSH1 0x8 ADD PUSH0 DUP2 SLOAD DUP1 SWAP3 SWAP2 SWAP1 PUSH2 0x1064 SWAP1 PUSH2 0x2C8A JUMP JUMPDEST SWAP2 SWAP1 POP SSTORE POP POP POP POP POP POP POP POP POP POP POP JUMP JUMPDEST PUSH2 0x107D PUSH2 0x1F4A JUMP JUMPDEST PUSH20 0x4200000000000000000000000000000000000022 PUSH20 0xFFFFFFFFFFFFFFFFFFFFFFFFFFFFFFFFFFFFFFFF AND PUSH4 0xAAD3EC96 ADDRESS PUSH20 0x4200000000000000000000000000000000000022 PUSH20 0xFFFFFFFFFFFFFFFFFFFFFFFFFFFFFFFFFFFFFFFF AND PUSH4 0xE12F3A61 ADDRESS PUSH1 0x40 MLOAD DUP3 PUSH4 0xFFFFFFFF AND PUSH1 0xE0 SHL DUP2 MSTORE PUSH1 0x4 ADD PUSH2 0x10FB SWAP2 SWAP1 PUSH2 0x2863 JUMP JUMPDEST PUSH1 0x20 PUSH1 0x40 MLOAD DUP1 DUP4 SUB DUP2 DUP7 GAS STATICCALL ISZERO DUP1 ISZERO PUSH2 0x1116 JUMPI RETURNDATASIZE PUSH0 DUP1 RETURNDATACOPY RETURNDATASIZE PUSH0 REVERT JUMPDEST POP POP POP POP PUSH1 0x40 MLOAD RETURNDATASIZE PUSH1 0x1F NOT PUSH1 0x1F DUP3 ADD AND DUP3 ADD DUP1 PUSH1 0x40 MSTORE POP DUP2 ADD SWAP1 PUSH2 0x113A SWAP2 SWAP1 PUSH2 0x34FE JUMP JUMPDEST PUSH1 0x40 MLOAD DUP4 PUSH4 0xFFFFFFFF AND PUSH1 0xE0 SHL DUP2 MSTORE PUSH1 0x4 ADD PUSH2 0x1157 SWAP3 SWAP2 SWAP1 PUSH2 0x3529 JUMP JUMPDEST PUSH1 0x20 PUSH1 0x40 MLOAD DUP1 DUP4 SUB DUP2 PUSH0 DUP8 GAS CALL ISZERO DUP1 ISZERO PUSH2 0x1173 JUMPI RETURNDATASIZE PUSH0 DUP1 RETURNDATACOPY RETURNDATASIZE PUSH0 REVERT JUMPDEST POP POP POP POP PUSH1 0x40 MLOAD RETURNDATASIZE PUSH1 0x1F NOT PUSH1 0x1F DUP3 ADD AND DUP3 ADD DUP1 PUSH1 0x40 MSTORE POP DUP2 ADD SWAP1 PUSH2 0x1197 SWAP2 SWAP1 PUSH2 0x34FE JUMP JUMPDEST POP JUMP JUMPDEST PUSH1 0x5 PUSH0 SWAP1 SLOAD SWAP1 PUSH2 0x100 EXP SWAP1 DIV PUSH20 0xFFFFFFFFFFFFFFFFFFFFFFFFFFFFFFFFFFFFFFFF AND DUP2 JUMP JUMPDEST PUSH2 0x11C7 PUSH2 0x1F4A JUMP JUMPDEST PUSH0 PUSH1 0x4 SLOAD SWAP1 POP PUSH0 DUP2 GT PUSH2 0x120F JUMPI PUSH1 0x40 MLOAD PUSH32 0x8C379A000000000000000000000000000000000000000000000000000000000 DUP2 MSTORE PUSH1 0x4 ADD PUSH2 0x1206 SWAP1 PUSH2 0x359A JUMP JUMPDEST PUSH1 0x40 MLOAD DUP1 SWAP2 SUB SWAP1 REVERT JUMPDEST PUSH0 PUSH1 0x4 DUP2 SWAP1 SSTORE POP PUSH1 0x5 PUSH0 SWAP1 SLOAD SWAP1 PUSH2 0x100 EXP SWAP1 DIV PUSH20 0xFFFFFFFFFFFFFFFFFFFFFFFFFFFFFFFFFFFFFFFF AND PUSH20 0xFFFFFFFFFFFFFFFFFFFFFFFFFFFFFFFFFFFFFFFF AND PUSH4 0xA9059CBB ADDRESS DUP4 PUSH1 0x40 MLOAD DUP4 PUSH4 0xFFFFFFFF AND PUSH1 0xE0 SHL DUP2 MSTORE PUSH1 0x4 ADD PUSH2 0x1272 SWAP3 SWAP2 SWAP1 PUSH2 0x3529 JUMP JUMPDEST PUSH1 0x20 PUSH1 0x40 MLOAD DUP1 DUP4 SUB DUP2 PUSH0 DUP8 GAS CALL ISZERO DUP1 ISZERO PUSH2 0x128E JUMPI RETURNDATASIZE PUSH0 DUP1 RETURNDATACOPY RETURNDATASIZE PUSH0 REVERT JUMPDEST POP POP POP POP PUSH1 0x40 MLOAD RETURNDATASIZE PUSH1 0x1F NOT PUSH1 0x1F DUP3 ADD AND DUP3 ADD DUP1 PUSH1 0x40 MSTORE POP DUP2 ADD SWAP1 PUSH2 0x12B2 SWAP2 SWAP1 PUSH2 0x2D3B JUMP JUMPDEST PUSH2 0x12F1 JUMPI PUSH1 0x40 MLOAD PUSH32 0x8C379A000000000000000000000000000000000000000000000000000000000 DUP2 MSTORE PUSH1 0x4 ADD PUSH2 0x12E8 SWAP1 PUSH2 0x3602 JUMP JUMPDEST PUSH1 0x40 MLOAD DUP1 SWAP2 SUB SWAP1 REVERT JUMPDEST POP JUMP JUMPDEST PUSH0 CALLER DUP5 PUSH1 0x40 MLOAD PUSH1 0x20 ADD PUSH2 0x1308 SWAP3 SWAP2 SWAP1 PUSH2 0x3685 JUMP JUMPDEST PUSH1 0x40 MLOAD PUSH1 0x20 DUP2 DUP4 SUB SUB DUP2 MSTORE SWAP1 PUSH1 0x40 MSTORE DUP1 MLOAD SWAP1 PUSH1 0x20 ADD KECCAK256 SWAP1 POP PUSH2 0x136D DUP4 DUP4 DUP1 DUP1 PUSH1 0x20 MUL PUSH1 0x20 ADD PUSH1 0x40 MLOAD SWAP1 DUP2 ADD PUSH1 0x40 MSTORE DUP1 SWAP4 SWAP3 SWAP2 SWAP1 DUP2 DUP2 MSTORE PUSH1 0x20 ADD DUP4 DUP4 PUSH1 0x20 MUL DUP1 DUP3 DUP5 CALLDATACOPY PUSH0 DUP2 DUP5 ADD MSTORE PUSH1 0x1F NOT PUSH1 0x1F DUP3 ADD AND SWAP1 POP DUP1 DUP4 ADD SWAP3 POP POP POP POP POP POP POP PUSH1 0x2 SLOAD DUP4 PUSH2 0x1FD1 JUMP JUMPDEST PUSH2 0x13AC JUMPI PUSH1 0x40 MLOAD PUSH32 0x8C379A000000000000000000000000000000000000000000000000000000000 DUP2 MSTORE PUSH1 0x4 ADD PUSH2 0x13A3 SWAP1 PUSH2 0x36FA JUMP JUMPDEST PUSH1 0x40 MLOAD DUP1 SWAP2 SUB SWAP1 REVERT JUMPDEST PUSH0 PUSH1 0x6 PUSH0 CALLER PUSH20 0xFFFFFFFFFFFFFFFFFFFFFFFFFFFFFFFFFFFFFFFF AND PUSH20 0xFFFFFFFFFFFFFFFFFFFFFFFFFFFFFFFFFFFFFFFF AND DUP2 MSTORE PUSH1 0x20 ADD SWAP1 DUP2 MSTORE PUSH1 0x20 ADD PUSH0 KECCAK256 SLOAD SWAP1 POP DUP5 DUP2 LT PUSH2 0x142F JUMPI PUSH1 0x40 MLOAD PUSH32 0x8C379A000000000000000000000000000000000000000000000000000000000 DUP2 MSTORE PUSH1 0x4 ADD PUSH2 0x1426 SWAP1 PUSH2 0x3788 JUMP JUMPDEST PUSH1 0x40 MLOAD DUP1 SWAP2 SUB SWAP1 REVERT JUMPDEST PUSH0 DUP2 DUP7 PUSH2 0x143C SWAP2 SWAP1 PUSH2 0x3414 JUMP JUMPDEST SWAP1 POP DUP6 PUSH1 0x6 PUSH0 CALLER PUSH20 0xFFFFFFFFFFFFFFFFFFFFFFFFFFFFFFFFFFFFFFFF AND PUSH20 0xFFFFFFFFFFFFFFFFFFFFFFFFFFFFFFFFFFFFFFFF AND DUP2 MSTORE PUSH1 0x20 ADD SWAP1 DUP2 MSTORE PUSH1 0x20 ADD PUSH0 KECCAK256 DUP2 SWAP1 SSTORE POP PUSH1 0x5 PUSH0 SWAP1 SLOAD SWAP1 PUSH2 0x100 EXP SWAP1 DIV PUSH20 0xFFFFFFFFFFFFFFFFFFFFFFFFFFFFFFFFFFFFFFFF AND PUSH20 0xFFFFFFFFFFFFFFFFFFFFFFFFFFFFFFFFFFFFFFFF AND PUSH4 0xA9059CBB CALLER DUP4 PUSH1 0x40 MLOAD DUP4 PUSH4 0xFFFFFFFF AND PUSH1 0xE0 SHL DUP2 MSTORE PUSH1 0x4 ADD PUSH2 0x14DC SWAP3 SWAP2 SWAP1 PUSH2 0x3529 JUMP JUMPDEST PUSH1 0x20 PUSH1 0x40 MLOAD DUP1 DUP4 SUB DUP2 PUSH0 DUP8 GAS CALL ISZERO DUP1 ISZERO PUSH2 0x14F8 JUMPI RETURNDATASIZE PUSH0 DUP1 RETURNDATACOPY RETURNDATASIZE PUSH0 REVERT JUMPDEST POP POP POP POP PUSH1 0x40 MLOAD RETURNDATASIZE PUSH1 0x1F NOT PUSH1 0x1F DUP3 ADD AND DUP3 ADD DUP1 PUSH1 0x40 MSTORE POP DUP2 ADD SWAP1 PUSH2 0x151C SWAP2 SWAP1 PUSH2 0x2D3B JUMP JUMPDEST PUSH2 0x155B JUMPI PUSH1 0x40 MLOAD PUSH32 0x8C379A000000000000000000000000000000000000000000000000000000000 DUP2 MSTORE PUSH1 0x4 ADD PUSH2 0x1552 SWAP1 PUSH2 0x37F0 JUMP JUMPDEST PUSH1 0x40 MLOAD DUP1 SWAP2 SUB SWAP1 REVERT JUMPDEST POP POP POP POP POP POP JUMP JUMPDEST PUSH2 0x156B PUSH2 0x1F4A JUMP JUMPDEST PUSH2 0x1574 PUSH0 PUSH2 0x1FE7 JUMP JUMPDEST JUMP JUMPDEST PUSH1 0x6 PUSH1 0x20 MSTORE DUP1 PUSH0 MSTORE PUSH1 0x40 PUSH0 KECCAK256 PUSH0 SWAP2 POP SWAP1 POP SLOAD DUP2 JUMP JUMPDEST PUSH2 0x1593 PUSH2 0x1F4A JUMP JUMPDEST PUSH20 0x4300000000000000000000000000000000000002 PUSH20 0xFFFFFFFFFFFFFFFFFFFFFFFFFFFFFFFFFFFFFFFF AND PUSH4 0x954FA5EE ADDRESS ADDRESS PUSH1 0x40 MLOAD DUP4 PUSH4 0xFFFFFFFF AND PUSH1 0xE0 SHL DUP2 MSTORE PUSH1 0x4 ADD PUSH2 0x15E2 SWAP3 SWAP2 SWAP1 PUSH2 0x380E JUMP JUMPDEST PUSH1 0x20 PUSH1 0x40 MLOAD DUP1 DUP4 SUB DUP2 PUSH0 DUP8 GAS CALL ISZERO DUP1 ISZERO PUSH2 0x15FE JUMPI RETURNDATASIZE PUSH0 DUP1 RETURNDATACOPY RETURNDATASIZE PUSH0 REVERT JUMPDEST POP POP POP POP PUSH1 0x40 MLOAD RETURNDATASIZE PUSH1 0x1F NOT PUSH1 0x1F DUP3 ADD AND DUP3 ADD DUP1 PUSH1 0x40 MSTORE POP DUP2 ADD SWAP1 PUSH2 0x1622 SWAP2 SWAP1 PUSH2 0x34FE JUMP JUMPDEST POP JUMP JUMPDEST PUSH2 0x162D PUSH2 0x1F4A JUMP JUMPDEST DUP1 PUSH1 0x2 DUP2 SWAP1 SSTORE POP POP JUMP JUMPDEST PUSH0 DUP1 PUSH1 0x7 PUSH0 DUP6 DUP2 MSTORE PUSH1 0x20 ADD SWAP1 DUP2 MSTORE PUSH1 0x20 ADD PUSH0 KECCAK256 SWAP1 POP DUP1 PUSH1 0x6 ADD SLOAD DUP2 PUSH1 0x5 ADD SLOAD DUP5 PUSH2 0x1661 SWAP2 SWAP1 PUSH2 0x3474 JUMP JUMPDEST PUSH2 0x166B SWAP2 SWAP1 PUSH2 0x3835 JUMP JUMPDEST SWAP2 POP POP SWAP3 SWAP2 POP POP JUMP JUMPDEST PUSH0 PUSH2 0x167D PUSH2 0x20B8 JUMP JUMPDEST SWAP1 POP PUSH0 DUP2 PUSH0 ADD PUSH1 0x8 SWAP1 SLOAD SWAP1 PUSH2 0x100 EXP SWAP1 DIV PUSH1 0xFF AND ISZERO SWAP1 POP PUSH0 DUP3 PUSH0 ADD PUSH0 SWAP1 SLOAD SWAP1 PUSH2 0x100 EXP SWAP1 DIV PUSH8 0xFFFFFFFFFFFFFFFF AND SWAP1 POP PUSH0 DUP1 DUP3 PUSH8 0xFFFFFFFFFFFFFFFF AND EQ DUP1 ISZERO PUSH2 0x16C5 JUMPI POP DUP3 JUMPDEST SWAP1 POP PUSH0 PUSH1 0x1 DUP4 PUSH8 0xFFFFFFFFFFFFFFFF AND EQ DUP1 ISZERO PUSH2 0x16F8 JUMPI POP PUSH0 ADDRESS PUSH20 0xFFFFFFFFFFFFFFFFFFFFFFFFFFFFFFFFFFFFFFFF AND EXTCODESIZE EQ JUMPDEST SWAP1 POP DUP2 ISZERO DUP1 ISZERO PUSH2 0x1706 JUMPI POP DUP1 ISZERO JUMPDEST ISZERO PUSH2 0x173D JUMPI PUSH1 0x40 MLOAD PUSH32 0xF92EE8A900000000000000000000000000000000000000000000000000000000 DUP2 MSTORE PUSH1 0x4 ADD PUSH1 0x40 MLOAD DUP1 SWAP2 SUB SWAP1 REVERT JUMPDEST PUSH1 0x1 DUP6 PUSH0 ADD PUSH0 PUSH2 0x100 EXP DUP2 SLOAD DUP2 PUSH8 0xFFFFFFFFFFFFFFFF MUL NOT AND SWAP1 DUP4 PUSH8 0xFFFFFFFFFFFFFFFF AND MUL OR SWAP1 SSTORE POP DUP4 ISZERO PUSH2 0x178A JUMPI PUSH1 0x1 DUP6 PUSH0 ADD PUSH1 0x8 PUSH2 0x100 EXP DUP2 SLOAD DUP2 PUSH1 0xFF MUL NOT AND SWAP1 DUP4 ISZERO ISZERO MUL OR SWAP1 SSTORE POP JUMPDEST PUSH2 0x1793 CALLER PUSH2 0x20DF JUMP JUMPDEST DUP4 ISZERO PUSH2 0x17ED JUMPI PUSH0 DUP6 PUSH0 ADD PUSH1 0x8 PUSH2 0x100 EXP DUP2 SLOAD DUP2 PUSH1 0xFF MUL NOT AND SWAP1 DUP4 ISZERO ISZERO MUL OR SWAP1 SSTORE POP PUSH32 0xC7F505B2F371AE2175EE4913F4499E1F2633A7B5936321EED1CDAEB6115181D2 PUSH1 0x1 PUSH1 0x40 MLOAD PUSH2 0x17E4 SWAP2 SWAP1 PUSH2 0x389E JUMP JUMPDEST PUSH1 0x40 MLOAD DUP1 SWAP2 SUB SWAP1 LOG1 JUMPDEST POP POP POP POP POP JUMP JUMPDEST PUSH0 PUSH1 0x7 PUSH0 DUP4 DUP2 MSTORE PUSH1 0x20 ADD SWAP1 DUP2 MSTORE PUSH1 0x20 ADD PUSH0 KECCAK256 SWAP1 POP DUP1 PUSH1 0x7 ADD SLOAD DUP2 PUSH1 0xA ADD DUP1 SLOAD SWAP1 POP LT PUSH2 0x1855 JUMPI PUSH1 0x40 MLOAD PUSH32 0x8C379A000000000000000000000000000000000000000000000000000000000 DUP2 MSTORE PUSH1 0x4 ADD PUSH2 0x184C SWAP1 PUSH2 0x3901 JUMP JUMPDEST PUSH1 0x40 MLOAD DUP1 SWAP2 SUB SWAP1 REVERT JUMPDEST DUP1 PUSH1 0x8 ADD SLOAD DUP2 PUSH1 0x1 ADD SLOAD PUSH2 0x1869 SWAP2 SWAP1 PUSH2 0x3474 JUMP JUMPDEST DUP2 PUSH1 0xC ADD PUSH0 CALLER PUSH20 0xFFFFFFFFFFFFFFFFFFFFFFFFFFFFFFFFFFFFFFFF AND PUSH20 0xFFFFFFFFFFFFFFFFFFFFFFFFFFFFFFFFFFFFFFFF AND DUP2 MSTORE PUSH1 0x20 ADD SWAP1 DUP2 MSTORE PUSH1 0x20 ADD PUSH0 KECCAK256 SLOAD EQ PUSH2 0x18E9 JUMPI PUSH1 0x40 MLOAD PUSH32 0x8C379A000000000000000000000000000000000000000000000000000000000 DUP2 MSTORE PUSH1 0x4 ADD PUSH2 0x18E0 SWAP1 PUSH2 0x398F JUMP JUMPDEST PUSH1 0x40 MLOAD DUP1 SWAP2 SUB SWAP1 REVERT JUMPDEST PUSH1 0x5 PUSH0 SWAP1 SLOAD SWAP1 PUSH2 0x100 EXP SWAP1 DIV PUSH20 0xFFFFFFFFFFFFFFFFFFFFFFFFFFFFFFFFFFFFFFFF AND PUSH20 0xFFFFFFFFFFFFFFFFFFFFFFFFFFFFFFFFFFFFFFFF AND PUSH4 0x23B872DD CALLER ADDRESS DUP5 PUSH1 0x1 ADD SLOAD PUSH1 0x40 MLOAD DUP5 PUSH4 0xFFFFFFFF AND PUSH1 0xE0 SHL DUP2 MSTORE PUSH1 0x4 ADD PUSH2 0x194B SWAP4 SWAP3 SWAP2 SWAP1 PUSH2 0x2CD1 JUMP JUMPDEST PUSH1 0x20 PUSH1 0x40 MLOAD DUP1 DUP4 SUB DUP2 PUSH0 DUP8 GAS CALL ISZERO DUP1 ISZERO PUSH2 0x1967 JUMPI RETURNDATASIZE PUSH0 DUP1 RETURNDATACOPY RETURNDATASIZE PUSH0 REVERT JUMPDEST POP POP POP POP PUSH1 0x40 MLOAD RETURNDATASIZE PUSH1 0x1F NOT PUSH1 0x1F DUP3 ADD AND DUP3 ADD DUP1 PUSH1 0x40 MSTORE POP DUP2 ADD SWAP1 PUSH2 0x198B SWAP2 SWAP1 PUSH2 0x2D3B JUMP JUMPDEST PUSH2 0x19CA JUMPI PUSH1 0x40 MLOAD PUSH32 0x8C379A000000000000000000000000000000000000000000000000000000000 DUP2 MSTORE PUSH1 0x4 ADD PUSH2 0x19C1 SWAP1 PUSH2 0x39F7 JUMP JUMPDEST PUSH1 0x40 MLOAD DUP1 SWAP2 SUB SWAP1 REVERT JUMPDEST DUP1 PUSH1 0x1 ADD SLOAD DUP2 PUSH1 0xC ADD PUSH0 CALLER PUSH20 0xFFFFFFFFFFFFFFFFFFFFFFFFFFFFFFFFFFFFFFFF AND PUSH20 0xFFFFFFFFFFFFFFFFFFFFFFFFFFFFFFFFFFFFFFFF AND DUP2 MSTORE PUSH1 0x20 ADD SWAP1 DUP2 MSTORE PUSH1 0x20 ADD PUSH0 KECCAK256 DUP2 SWAP1 SSTORE POP PUSH1 0x1 ISZERO ISZERO DUP2 PUSH1 0xE ADD PUSH0 CALLER PUSH20 0xFFFFFFFFFFFFFFFFFFFFFFFFFFFFFFFFFFFFFFFF AND PUSH20 0xFFFFFFFFFFFFFFFFFFFFFFFFFFFFFFFFFFFFFFFF AND DUP2 MSTORE PUSH1 0x20 ADD SWAP1 DUP2 MSTORE PUSH1 0x20 ADD PUSH0 KECCAK256 PUSH0 SWAP1 SLOAD SWAP1 PUSH2 0x100 EXP SWAP1 DIV PUSH1 0xFF AND ISZERO ISZERO EQ PUSH2 0x1ACC JUMPI DUP1 PUSH1 0xA ADD CALLER SWAP1 DUP1 PUSH1 0x1 DUP2 SLOAD ADD DUP1 DUP3 SSTORE DUP1 SWAP2 POP POP PUSH1 0x1 SWAP1 SUB SWAP1 PUSH0 MSTORE PUSH1 0x20 PUSH0 KECCAK256 ADD PUSH0 SWAP1 SWAP2 SWAP1 SWAP2 SWAP1 SWAP2 PUSH2 0x100 EXP DUP2 SLOAD DUP2 PUSH20 0xFFFFFFFFFFFFFFFFFFFFFFFFFFFFFFFFFFFFFFFF MUL NOT AND SWAP1 DUP4 PUSH20 0xFFFFFFFFFFFFFFFFFFFFFFFFFFFFFFFFFFFFFFFF AND MUL OR SWAP1 SSTORE POP JUMPDEST PUSH32 0x43D2F309913F6AFC5D717F60864D2D192B69963D25204B6A12765E2795BF027F DUP3 DUP3 PUSH0 ADD CALLER DUP5 PUSH1 0x1 ADD SLOAD DUP6 PUSH1 0x3 ADD SLOAD DUP7 PUSH1 0x5 ADD SLOAD DUP8 PUSH1 0x6 ADD SLOAD DUP9 PUSH1 0x7 ADD SLOAD PUSH1 0x40 MLOAD PUSH2 0x1B1F SWAP9 SWAP8 SWAP7 SWAP6 SWAP5 SWAP4 SWAP3 SWAP2 SWAP1 PUSH2 0x3A96 JUMP JUMPDEST PUSH1 0x40 MLOAD DUP1 SWAP2 SUB SWAP1 LOG1 POP POP JUMP JUMPDEST PUSH0 DUP1 PUSH2 0x1B35 PUSH2 0x20F3 JUMP JUMPDEST SWAP1 POP DUP1 PUSH0 ADD PUSH0 SWAP1 SLOAD SWAP1 PUSH2 0x100 EXP SWAP1 DIV PUSH20 0xFFFFFFFFFFFFFFFFFFFFFFFFFFFFFFFFFFFFFFFF AND SWAP2 POP POP SWAP1 JUMP JUMPDEST PUSH20 0x4300000000000000000000000000000000000002 DUP2 JUMP JUMPDEST PUSH0 PUSH1 0x7 PUSH0 DUP4 DUP2 MSTORE PUSH1 0x20 ADD SWAP1 DUP2 MSTORE PUSH1 0x20 ADD PUSH0 KECCAK256 SWAP1 POP PUSH0 DUP2 PUSH1 0xD ADD PUSH0 CALLER PUSH20 0xFFFFFFFFFFFFFFFFFFFFFFFFFFFFFFFFFFFFFFFF AND PUSH20 0xFFFFFFFFFFFFFFFFFFFFFFFFFFFFFFFFFFFFFFFF AND DUP2 MSTORE PUSH1 0x20 ADD SWAP1 DUP2 MSTORE PUSH1 0x20 ADD PUSH0 KECCAK256 SLOAD GT PUSH2 0x1C0D JUMPI PUSH1 0x40 MLOAD PUSH32 0x8C379A000000000000000000000000000000000000000000000000000000000 DUP2 MSTORE PUSH1 0x4 ADD PUSH2 0x1C04 SWAP1 PUSH2 0x3B63 JUMP JUMPDEST PUSH1 0x40 MLOAD DUP1 SWAP2 SUB SWAP1 REVERT JUMPDEST PUSH0 DUP2 PUSH1 0xD ADD PUSH0 CALLER PUSH20 0xFFFFFFFFFFFFFFFFFFFFFFFFFFFFFFFFFFFFFFFF AND PUSH20 0xFFFFFFFFFFFFFFFFFFFFFFFFFFFFFFFFFFFFFFFF AND DUP2 MSTORE PUSH1 0x20 ADD SWAP1 DUP2 MSTORE PUSH1 0x20 ADD PUSH0 KECCAK256 SLOAD SWAP1 POP PUSH0 DUP3 PUSH1 0xD ADD PUSH0 CALLER PUSH20 0xFFFFFFFFFFFFFFFFFFFFFFFFFFFFFFFFFFFFFFFF AND PUSH20 0xFFFFFFFFFFFFFFFFFFFFFFFFFFFFFFFFFFFFFFFF AND DUP2 MSTORE PUSH1 0x20 ADD SWAP1 DUP2 MSTORE PUSH1 0x20 ADD PUSH0 KECCAK256 DUP2 SWAP1 SSTORE POP PUSH1 0x5 PUSH0 SWAP1 SLOAD SWAP1 PUSH2 0x100 EXP SWAP1 DIV PUSH20 0xFFFFFFFFFFFFFFFFFFFFFFFFFFFFFFFFFFFFFFFF AND PUSH20 0xFFFFFFFFFFFFFFFFFFFFFFFFFFFFFFFFFFFFFFFF AND PUSH4 0xA9059CBB CALLER DUP4 PUSH1 0x40 MLOAD DUP4 PUSH4 0xFFFFFFFF AND PUSH1 0xE0 SHL DUP2 MSTORE PUSH1 0x4 ADD PUSH2 0x1CF0 SWAP3 SWAP2 SWAP1 PUSH2 0x3529 JUMP JUMPDEST PUSH1 0x20 PUSH1 0x40 MLOAD DUP1 DUP4 SUB DUP2 PUSH0 DUP8 GAS CALL ISZERO DUP1 ISZERO PUSH2 0x1D0C JUMPI RETURNDATASIZE PUSH0 DUP1 RETURNDATACOPY RETURNDATASIZE PUSH0 REVERT JUMPDEST POP POP POP POP PUSH1 0x40 MLOAD RETURNDATASIZE PUSH1 0x1F NOT PUSH1 0x1F DUP3 ADD AND DUP3 ADD DUP1 PUSH1 0x40 MSTORE POP DUP2 ADD SWAP1 PUSH2 0x1D30 SWAP2 SWAP1 PUSH2 0x2D3B JUMP JUMPDEST PUSH2 0x1D6F JUMPI PUSH1 0x40 MLOAD PUSH32 0x8C379A000000000000000000000000000000000000000000000000000000000 DUP2 MSTORE PUSH1 0x4 ADD PUSH2 0x1D66 SWAP1 PUSH2 0x39F7 JUMP JUMPDEST PUSH1 0x40 MLOAD DUP1 SWAP2 SUB SWAP1 REVERT JUMPDEST POP POP POP JUMP JUMPDEST PUSH1 0x4 SLOAD DUP2 JUMP JUMPDEST PUSH1 0x7 PUSH1 0x20 MSTORE DUP1 PUSH0 MSTORE PUSH1 0x40 PUSH0 KECCAK256 PUSH0 SWAP2 POP SWAP1 POP DUP1 PUSH0 ADD DUP1 SLOAD PUSH2 0x1D99 SWAP1 PUSH2 0x2EBA JUMP JUMPDEST DUP1 PUSH1 0x1F ADD PUSH1 0x20 DUP1 SWAP2 DIV MUL PUSH1 0x20 ADD PUSH1 0x40 MLOAD SWAP1 DUP2 ADD PUSH1 0x40 MSTORE DUP1 SWAP3 SWAP2 SWAP1 DUP2 DUP2 MSTORE PUSH1 0x20 ADD DUP3 DUP1 SLOAD PUSH2 0x1DC5 SWAP1 PUSH2 0x2EBA JUMP JUMPDEST DUP1 ISZERO PUSH2 0x1E10 JUMPI DUP1 PUSH1 0x1F LT PUSH2 0x1DE7 JUMPI PUSH2 0x100 DUP1 DUP4 SLOAD DIV MUL DUP4 MSTORE SWAP2 PUSH1 0x20 ADD SWAP2 PUSH2 0x1E10 JUMP JUMPDEST DUP3 ADD SWAP2 SWAP1 PUSH0 MSTORE PUSH1 0x20 PUSH0 KECCAK256 SWAP1 JUMPDEST DUP2 SLOAD DUP2 MSTORE SWAP1 PUSH1 0x1 ADD SWAP1 PUSH1 0x20 ADD DUP1 DUP4 GT PUSH2 0x1DF3 JUMPI DUP3 SWAP1 SUB PUSH1 0x1F AND DUP3 ADD SWAP2 JUMPDEST POP POP POP POP POP SWAP1 DUP1 PUSH1 0x1 ADD SLOAD SWAP1 DUP1 PUSH1 0x2 ADD SLOAD SWAP1 DUP1 PUSH1 0x3 ADD SLOAD SWAP1 DUP1 PUSH1 0x4 ADD SLOAD SWAP1 DUP1 PUSH1 0x5 ADD SLOAD SWAP1 DUP1 PUSH1 0x6 ADD SLOAD SWAP1 DUP1 PUSH1 0x7 ADD SLOAD SWAP1 DUP1 PUSH1 0x8 ADD SLOAD SWAP1 DUP1 PUSH1 0x9 ADD PUSH0 SWAP1 SLOAD SWAP1 PUSH2 0x100 EXP SWAP1 DIV PUSH8 0xFFFFFFFFFFFFFFFF AND SWAP1 DUP1 PUSH1 0x9 ADD PUSH1 0x8 SWAP1 SLOAD SWAP1 PUSH2 0x100 EXP SWAP1 DIV PUSH20 0xFFFFFFFFFFFFFFFFFFFFFFFFFFFFFFFFFFFFFFFF AND SWAP1 POP DUP12 JUMP JUMPDEST PUSH2 0x1E91 PUSH2 0x1F4A JUMP JUMPDEST PUSH0 PUSH20 0xFFFFFFFFFFFFFFFFFFFFFFFFFFFFFFFFFFFFFFFF AND DUP2 PUSH20 0xFFFFFFFFFFFFFFFFFFFFFFFFFFFFFFFFFFFFFFFF AND SUB PUSH2 0x1F01 JUMPI PUSH0 PUSH1 0x40 MLOAD PUSH32 0x1E4FBDF700000000000000000000000000000000000000000000000000000000 DUP2 MSTORE PUSH1 0x4 ADD PUSH2 0x1EF8 SWAP2 SWAP1 PUSH2 0x2863 JUMP JUMPDEST PUSH1 0x40 MLOAD DUP1 SWAP2 SUB SWAP1 REVERT JUMPDEST PUSH2 0x1F0A DUP2 PUSH2 0x1FE7 JUMP JUMPDEST POP JUMP JUMPDEST PUSH0 DUP1 PUSH1 0x64 DUP4 PUSH2 0x1F1C SWAP2 SWAP1 PUSH2 0x3835 JUMP JUMPDEST SWAP1 POP DUP1 DUP4 PUSH2 0x1F2A SWAP2 SWAP1 PUSH2 0x3414 JUMP JUMPDEST SWAP2 POP DUP1 PUSH1 0x4 PUSH0 DUP3 DUP3 SLOAD PUSH2 0x1F3D SWAP2 SWAP1 PUSH2 0x326D JUMP JUMPDEST SWAP3 POP POP DUP2 SWAP1 SSTORE POP POP SWAP2 SWAP1 POP JUMP JUMPDEST PUSH2 0x1F52 PUSH2 0x211A JUMP JUMPDEST PUSH20 0xFFFFFFFFFFFFFFFFFFFFFFFFFFFFFFFFFFFFFFFF AND PUSH2 0x1F70 PUSH2 0x1B2B JUMP JUMPDEST PUSH20 0xFFFFFFFFFFFFFFFFFFFFFFFFFFFFFFFFFFFFFFFF AND EQ PUSH2 0x1FCF JUMPI PUSH2 0x1F93 PUSH2 0x211A JUMP JUMPDEST PUSH1 0x40 MLOAD PUSH32 0x118CDAA700000000000000000000000000000000000000000000000000000000 DUP2 MSTORE PUSH1 0x4 ADD PUSH2 0x1FC6 SWAP2 SWAP1 PUSH2 0x2863 JUMP JUMPDEST PUSH1 0x40 MLOAD DUP1 SWAP2 SUB SWAP1 REVERT JUMPDEST JUMP JUMPDEST PUSH0 DUP3 PUSH2 0x1FDD DUP6 DUP5 PUSH2 0x2121 JUMP JUMPDEST EQ SWAP1 POP SWAP4 SWAP3 POP POP POP JUMP JUMPDEST PUSH0 PUSH2 0x1FF0 PUSH2 0x20F3 JUMP JUMPDEST SWAP1 POP PUSH0 DUP2 PUSH0 ADD PUSH0 SWAP1 SLOAD SWAP1 PUSH2 0x100 EXP SWAP1 DIV PUSH20 0xFFFFFFFFFFFFFFFFFFFFFFFFFFFFFFFFFFFFFFFF AND SWAP1 POP DUP3 DUP3 PUSH0 ADD PUSH0 PUSH2 0x100 EXP DUP2 SLOAD DUP2 PUSH20 0xFFFFFFFFFFFFFFFFFFFFFFFFFFFFFFFFFFFFFFFF MUL NOT AND SWAP1 DUP4 PUSH20 0xFFFFFFFFFFFFFFFFFFFFFFFFFFFFFFFFFFFFFFFF AND MUL OR SWAP1 SSTORE POP DUP3 PUSH20 0xFFFFFFFFFFFFFFFFFFFFFFFFFFFFFFFFFFFFFFFF AND DUP2 PUSH20 0xFFFFFFFFFFFFFFFFFFFFFFFFFFFFFFFFFFFFFFFF AND PUSH32 0x8BE0079C531659141344CD1FD0A4F28419497F9722A3DAAFE3B4186F6B6457E0 PUSH1 0x40 MLOAD PUSH1 0x40 MLOAD DUP1 SWAP2 SUB SWAP1 LOG3 POP POP POP JUMP JUMPDEST PUSH0 PUSH32 0xF0C57E16840DF040F15088DC2F81FE391C3923BEC73E23A9662EFC9C229C6A00 SWAP1 POP SWAP1 JUMP JUMPDEST PUSH2 0x20E7 PUSH2 0x216F JUMP JUMPDEST PUSH2 0x20F0 DUP2 PUSH2 0x21AF JUMP JUMPDEST POP JUMP JUMPDEST PUSH0 PUSH32 0x9016D09D72D40FDAE2FD8CEAC6B6234C7706214FD39C1CD1E609A0528C199300 SWAP1 POP SWAP1 JUMP JUMPDEST PUSH0 CALLER SWAP1 POP SWAP1 JUMP JUMPDEST PUSH0 DUP1 DUP3 SWAP1 POP PUSH0 JUMPDEST DUP5 MLOAD DUP2 LT ISZERO PUSH2 0x2164 JUMPI PUSH2 0x2155 DUP3 DUP7 DUP4 DUP2 MLOAD DUP2 LT PUSH2 0x2148 JUMPI PUSH2 0x2147 PUSH2 0x33E7 JUMP JUMPDEST JUMPDEST PUSH1 0x20 MUL PUSH1 0x20 ADD ADD MLOAD PUSH2 0x2233 JUMP JUMPDEST SWAP2 POP DUP1 DUP1 PUSH1 0x1 ADD SWAP2 POP POP PUSH2 0x2128 JUMP JUMPDEST POP DUP1 SWAP2 POP POP SWAP3 SWAP2 POP POP JUMP JUMPDEST PUSH2 0x2177 PUSH2 0x225D JUMP JUMPDEST PUSH2 0x21AD JUMPI PUSH1 0x40 MLOAD PUSH32 0xD7E6BCF800000000000000000000000000000000000000000000000000000000 DUP2 MSTORE PUSH1 0x4 ADD PUSH1 0x40 MLOAD DUP1 SWAP2 SUB SWAP1 REVERT JUMPDEST JUMP JUMPDEST PUSH2 0x21B7 PUSH2 0x216F JUMP JUMPDEST PUSH0 PUSH20 0xFFFFFFFFFFFFFFFFFFFFFFFFFFFFFFFFFFFFFFFF AND DUP2 PUSH20 0xFFFFFFFFFFFFFFFFFFFFFFFFFFFFFFFFFFFFFFFF AND SUB PUSH2 0x2227 JUMPI PUSH0 PUSH1 0x40 MLOAD PUSH32 0x1E4FBDF700000000000000000000000000000000000000000000000000000000 DUP2 MSTORE PUSH1 0x4 ADD PUSH2 0x221E SWAP2 SWAP1 PUSH2 0x2863 JUMP JUMPDEST PUSH1 0x40 MLOAD DUP1 SWAP2 SUB SWAP1 REVERT JUMPDEST PUSH2 0x2230 DUP2 PUSH2 0x1FE7 JUMP JUMPDEST POP JUMP JUMPDEST PUSH0 DUP2 DUP4 LT PUSH2 0x224A JUMPI PUSH2 0x2245 DUP3 DUP5 PUSH2 0x227B JUMP JUMPDEST PUSH2 0x2255 JUMP JUMPDEST PUSH2 0x2254 DUP4 DUP4 PUSH2 0x227B JUMP JUMPDEST JUMPDEST SWAP1 POP SWAP3 SWAP2 POP POP JUMP JUMPDEST PUSH0 PUSH2 0x2266 PUSH2 0x20B8 JUMP JUMPDEST PUSH0 ADD PUSH1 0x8 SWAP1 SLOAD SWAP1 PUSH2 0x100 EXP SWAP1 DIV PUSH1 0xFF AND SWAP1 POP SWAP1 JUMP JUMPDEST PUSH0 DUP3 PUSH0 MSTORE DUP2 PUSH1 0x20 MSTORE PUSH1 0x40 PUSH0 KECCAK256 SWAP1 POP SWAP3 SWAP2 POP POP JUMP JUMPDEST POP DUP1 SLOAD PUSH0 DUP3 SSTORE SWAP1 PUSH0 MSTORE PUSH1 0x20 PUSH0 KECCAK256 SWAP1 DUP2 ADD SWAP1 PUSH2 0x22AA SWAP2 SWAP1 PUSH2 0x22AD JUMP JUMPDEST POP JUMP JUMPDEST JUMPDEST DUP1 DUP3 GT ISZERO PUSH2 0x22C4 JUMPI PUSH0 DUP2 PUSH0 SWAP1 SSTORE POP PUSH1 0x1 ADD PUSH2 0x22AE JUMP JUMPDEST POP SWAP1 JUMP JUMPDEST PUSH0 PUSH1 0x40 MLOAD SWAP1 POP SWAP1 JUMP JUMPDEST PUSH0 DUP1 REVERT JUMPDEST PUSH0 DUP1 REVERT JUMPDEST PUSH0 DUP1 REVERT JUMPDEST PUSH0 DUP1 REVERT JUMPDEST PUSH0 PUSH1 0x1F NOT PUSH1 0x1F DUP4 ADD AND SWAP1 POP SWAP2 SWAP1 POP JUMP JUMPDEST PUSH32 0x4E487B7100000000000000000000000000000000000000000000000000000000 PUSH0 MSTORE PUSH1 0x41 PUSH1 0x4 MSTORE PUSH1 0x24 PUSH0 REVERT JUMPDEST PUSH2 0x2327 DUP3 PUSH2 0x22E1 JUMP JUMPDEST DUP2 ADD DUP2 DUP2 LT PUSH8 0xFFFFFFFFFFFFFFFF DUP3 GT OR ISZERO PUSH2 0x2346 JUMPI PUSH2 0x2345 PUSH2 0x22F1 JUMP JUMPDEST JUMPDEST DUP1 PUSH1 0x40 MSTORE POP POP POP JUMP JUMPDEST PUSH0 PUSH2 0x2358 PUSH2 0x22C8 JUMP JUMPDEST SWAP1 POP PUSH2 0x2364 DUP3 DUP3 PUSH2 0x231E JUMP JUMPDEST SWAP2 SWAP1 POP JUMP JUMPDEST PUSH0 PUSH8 0xFFFFFFFFFFFFFFFF DUP3 GT ISZERO PUSH2 0x2383 JUMPI PUSH2 0x2382 PUSH2 0x22F1 JUMP JUMPDEST JUMPDEST PUSH2 0x238C DUP3 PUSH2 0x22E1 JUMP JUMPDEST SWAP1 POP PUSH1 0x20 DUP2 ADD SWAP1 POP SWAP2 SWAP1 POP JUMP JUMPDEST DUP3 DUP2 DUP4 CALLDATACOPY PUSH0 DUP4 DUP4 ADD MSTORE POP POP POP JUMP JUMPDEST PUSH0 PUSH2 0x23B9 PUSH2 0x23B4 DUP5 PUSH2 0x2369 JUMP JUMPDEST PUSH2 0x234F JUMP JUMPDEST SWAP1 POP DUP3 DUP2 MSTORE PUSH1 0x20 DUP2 ADD DUP5 DUP5 DUP5 ADD GT ISZERO PUSH2 0x23D5 JUMPI PUSH2 0x23D4 PUSH2 0x22DD JUMP JUMPDEST JUMPDEST PUSH2 0x23E0 DUP5 DUP3 DUP6 PUSH2 0x2399 JUMP JUMPDEST POP SWAP4 SWAP3 POP POP POP JUMP JUMPDEST PUSH0 DUP3 PUSH1 0x1F DUP4 ADD SLT PUSH2 0x23FC JUMPI PUSH2 0x23FB PUSH2 0x22D9 JUMP JUMPDEST JUMPDEST DUP2 CALLDATALOAD PUSH2 0x240C DUP5 DUP3 PUSH1 0x20 DUP7 ADD PUSH2 0x23A7 JUMP JUMPDEST SWAP2 POP POP SWAP3 SWAP2 POP POP JUMP JUMPDEST PUSH0 DUP2 SWAP1 POP SWAP2 SWAP1 POP JUMP JUMPDEST PUSH2 0x2427 DUP2 PUSH2 0x2415 JUMP JUMPDEST DUP2 EQ PUSH2 0x2431 JUMPI PUSH0 DUP1 REVERT JUMPDEST POP JUMP JUMPDEST PUSH0 DUP2 CALLDATALOAD SWAP1 POP PUSH2 0x2442 DUP2 PUSH2 0x241E JUMP JUMPDEST SWAP3 SWAP2 POP POP JUMP JUMPDEST PUSH0 DUP2 SWAP1 POP SWAP2 SWAP1 POP JUMP JUMPDEST PUSH2 0x245A DUP2 PUSH2 0x2448 JUMP JUMPDEST DUP2 EQ PUSH2 0x2464 JUMPI PUSH0 DUP1 REVERT JUMPDEST POP JUMP JUMPDEST PUSH0 DUP2 CALLDATALOAD SWAP1 POP PUSH2 0x2475 DUP2 PUSH2 0x2451 JUMP JUMPDEST SWAP3 SWAP2 POP POP JUMP JUMPDEST PUSH0 DUP1 PUSH0 DUP1 PUSH0 DUP1 PUSH0 PUSH1 0xE0 DUP9 DUP11 SUB SLT ISZERO PUSH2 0x2496 JUMPI PUSH2 0x2495 PUSH2 0x22D1 JUMP JUMPDEST JUMPDEST PUSH0 DUP9 ADD CALLDATALOAD PUSH8 0xFFFFFFFFFFFFFFFF DUP2 GT ISZERO PUSH2 0x24B3 JUMPI PUSH2 0x24B2 PUSH2 0x22D5 JUMP JUMPDEST JUMPDEST PUSH2 0x24BF DUP11 DUP3 DUP12 ADD PUSH2 0x23E8 JUMP JUMPDEST SWAP8 POP POP PUSH1 0x20 PUSH2 0x24D0 DUP11 DUP3 DUP12 ADD PUSH2 0x2434 JUMP JUMPDEST SWAP7 POP POP PUSH1 0x40 PUSH2 0x24E1 DUP11 DUP3 DUP12 ADD PUSH2 0x2467 JUMP JUMPDEST SWAP6 POP POP PUSH1 0x60 PUSH2 0x24F2 DUP11 DUP3 DUP12 ADD PUSH2 0x2467 JUMP JUMPDEST SWAP5 POP POP PUSH1 0x80 PUSH2 0x2503 DUP11 DUP3 DUP12 ADD PUSH2 0x2467 JUMP JUMPDEST SWAP4 POP POP PUSH1 0xA0 PUSH2 0x2514 DUP11 DUP3 DUP12 ADD PUSH2 0x2467 JUMP JUMPDEST SWAP3 POP POP PUSH1 0xC0 PUSH2 0x2525 DUP11 DUP3 DUP12 ADD PUSH2 0x2467 JUMP JUMPDEST SWAP2 POP POP SWAP3 SWAP6 SWAP9 SWAP2 SWAP5 SWAP8 POP SWAP3 SWAP6 POP JUMP JUMPDEST PUSH2 0x253D DUP2 PUSH2 0x2415 JUMP JUMPDEST DUP3 MSTORE POP POP JUMP JUMPDEST PUSH0 PUSH1 0x20 DUP3 ADD SWAP1 POP PUSH2 0x2556 PUSH0 DUP4 ADD DUP5 PUSH2 0x2534 JUMP JUMPDEST SWAP3 SWAP2 POP POP JUMP JUMPDEST PUSH0 PUSH20 0xFFFFFFFFFFFFFFFFFFFFFFFFFFFFFFFFFFFFFFFF DUP3 AND SWAP1 POP SWAP2 SWAP1 POP JUMP JUMPDEST PUSH0 DUP2 SWAP1 POP SWAP2 SWAP1 POP JUMP JUMPDEST PUSH0 PUSH2 0x259E PUSH2 0x2599 PUSH2 0x2594 DUP5 PUSH2 0x255C JUMP JUMPDEST PUSH2 0x257B JUMP JUMPDEST PUSH2 0x255C JUMP JUMPDEST SWAP1 POP SWAP2 SWAP1 POP JUMP JUMPDEST PUSH0 PUSH2 0x25AF DUP3 PUSH2 0x2584 JUMP JUMPDEST SWAP1 POP SWAP2 SWAP1 POP JUMP JUMPDEST PUSH0 PUSH2 0x25C0 DUP3 PUSH2 0x25A5 JUMP JUMPDEST SWAP1 POP SWAP2 SWAP1 POP JUMP JUMPDEST PUSH2 0x25D0 DUP2 PUSH2 0x25B6 JUMP JUMPDEST DUP3 MSTORE POP POP JUMP JUMPDEST PUSH0 PUSH1 0x20 DUP3 ADD SWAP1 POP PUSH2 0x25E9 PUSH0 DUP4 ADD DUP5 PUSH2 0x25C7 JUMP JUMPDEST SWAP3 SWAP2 POP POP JUMP JUMPDEST PUSH0 DUP1 PUSH0 PUSH1 0x60 DUP5 DUP7 SUB SLT ISZERO PUSH2 0x2606 JUMPI PUSH2 0x2605 PUSH2 0x22D1 JUMP JUMPDEST JUMPDEST PUSH0 PUSH2 0x2613 DUP7 DUP3 DUP8 ADD PUSH2 0x2467 JUMP JUMPDEST SWAP4 POP POP PUSH1 0x20 PUSH2 0x2624 DUP7 DUP3 DUP8 ADD PUSH2 0x2434 JUMP JUMPDEST SWAP3 POP POP PUSH1 0x40 PUSH2 0x2635 DUP7 DUP3 DUP8 ADD PUSH2 0x2434 JUMP JUMPDEST SWAP2 POP POP SWAP3 POP SWAP3 POP SWAP3 JUMP JUMPDEST PUSH0 PUSH2 0x2649 DUP3 PUSH2 0x25A5 JUMP JUMPDEST SWAP1 POP SWAP2 SWAP1 POP JUMP JUMPDEST PUSH2 0x2659 DUP2 PUSH2 0x263F JUMP JUMPDEST DUP3 MSTORE POP POP JUMP JUMPDEST PUSH0 PUSH1 0x20 DUP3 ADD SWAP1 POP PUSH2 0x2672 PUSH0 DUP4 ADD DUP5 PUSH2 0x2650 JUMP JUMPDEST SWAP3 SWAP2 POP POP JUMP JUMPDEST PUSH0 DUP1 REVERT JUMPDEST PUSH0 DUP1 REVERT JUMPDEST PUSH0 DUP1 DUP4 PUSH1 0x1F DUP5 ADD SLT PUSH2 0x2695 JUMPI PUSH2 0x2694 PUSH2 0x22D9 JUMP JUMPDEST JUMPDEST DUP3 CALLDATALOAD SWAP1 POP PUSH8 0xFFFFFFFFFFFFFFFF DUP2 GT ISZERO PUSH2 0x26B2 JUMPI PUSH2 0x26B1 PUSH2 0x2678 JUMP JUMPDEST JUMPDEST PUSH1 0x20 DUP4 ADD SWAP2 POP DUP4 PUSH1 0x20 DUP3 MUL DUP4 ADD GT ISZERO PUSH2 0x26CE JUMPI PUSH2 0x26CD PUSH2 0x267C JUMP JUMPDEST JUMPDEST SWAP3 POP SWAP3 SWAP1 POP JUMP JUMPDEST PUSH0 DUP1 PUSH0 PUSH1 0x40 DUP5 DUP7 SUB SLT ISZERO PUSH2 0x26EC JUMPI PUSH2 0x26EB PUSH2 0x22D1 JUMP JUMPDEST JUMPDEST PUSH0 PUSH2 0x26F9 DUP7 DUP3 DUP8 ADD PUSH2 0x2467 JUMP JUMPDEST SWAP4 POP POP PUSH1 0x20 DUP5 ADD CALLDATALOAD PUSH8 0xFFFFFFFFFFFFFFFF DUP2 GT ISZERO PUSH2 0x271A JUMPI PUSH2 0x2719 PUSH2 0x22D5 JUMP JUMPDEST JUMPDEST PUSH2 0x2726 DUP7 DUP3 DUP8 ADD PUSH2 0x2680 JUMP JUMPDEST SWAP3 POP SWAP3 POP POP SWAP3 POP SWAP3 POP SWAP3 JUMP JUMPDEST PUSH0 PUSH2 0x273C DUP3 PUSH2 0x255C JUMP JUMPDEST SWAP1 POP SWAP2 SWAP1 POP JUMP JUMPDEST PUSH2 0x274C DUP2 PUSH2 0x2732 JUMP JUMPDEST DUP2 EQ PUSH2 0x2756 JUMPI PUSH0 DUP1 REVERT JUMPDEST POP JUMP JUMPDEST PUSH0 DUP2 CALLDATALOAD SWAP1 POP PUSH2 0x2767 DUP2 PUSH2 0x2743 JUMP JUMPDEST SWAP3 SWAP2 POP POP JUMP JUMPDEST PUSH0 PUSH1 0x20 DUP3 DUP5 SUB SLT ISZERO PUSH2 0x2782 JUMPI PUSH2 0x2781 PUSH2 0x22D1 JUMP JUMPDEST JUMPDEST PUSH0 PUSH2 0x278F DUP5 DUP3 DUP6 ADD PUSH2 0x2759 JUMP JUMPDEST SWAP2 POP POP SWAP3 SWAP2 POP POP JUMP JUMPDEST PUSH2 0x27A1 DUP2 PUSH2 0x2448 JUMP JUMPDEST DUP3 MSTORE POP POP JUMP JUMPDEST PUSH0 PUSH1 0x20 DUP3 ADD SWAP1 POP PUSH2 0x27BA PUSH0 DUP4 ADD DUP5 PUSH2 0x2798 JUMP JUMPDEST SWAP3 SWAP2 POP POP JUMP JUMPDEST PUSH0 PUSH1 0x20 DUP3 DUP5 SUB SLT ISZERO PUSH2 0x27D5 JUMPI PUSH2 0x27D4 PUSH2 0x22D1 JUMP JUMPDEST JUMPDEST PUSH0 PUSH2 0x27E2 DUP5 DUP3 DUP6 ADD PUSH2 0x2434 JUMP JUMPDEST SWAP2 POP POP SWAP3 SWAP2 POP POP JUMP JUMPDEST PUSH0 DUP1 PUSH1 0x40 DUP4 DUP6 SUB SLT ISZERO PUSH2 0x2801 JUMPI PUSH2 0x2800 PUSH2 0x22D1 JUMP JUMPDEST JUMPDEST PUSH0 PUSH2 0x280E DUP6 DUP3 DUP7 ADD PUSH2 0x2467 JUMP JUMPDEST SWAP3 POP POP PUSH1 0x20 PUSH2 0x281F DUP6 DUP3 DUP7 ADD PUSH2 0x2467 JUMP JUMPDEST SWAP2 POP POP SWAP3 POP SWAP3 SWAP1 POP JUMP JUMPDEST PUSH0 PUSH1 0x20 DUP3 DUP5 SUB SLT ISZERO PUSH2 0x283E JUMPI PUSH2 0x283D PUSH2 0x22D1 JUMP JUMPDEST JUMPDEST PUSH0 PUSH2 0x284B DUP5 DUP3 DUP6 ADD PUSH2 0x2467 JUMP JUMPDEST SWAP2 POP POP SWAP3 SWAP2 POP POP JUMP JUMPDEST PUSH2 0x285D DUP2 PUSH2 0x2732 JUMP JUMPDEST DUP3 MSTORE POP POP JUMP JUMPDEST PUSH0 PUSH1 0x20 DUP3 ADD SWAP1 POP PUSH2 0x2876 PUSH0 DUP4 ADD DUP5 PUSH2 0x2854 JUMP JUMPDEST SWAP3 SWAP2 POP POP JUMP JUMPDEST PUSH0 PUSH2 0x2886 DUP3 PUSH2 0x25A5 JUMP JUMPDEST SWAP1 POP SWAP2 SWAP1 POP JUMP JUMPDEST PUSH2 0x2896 DUP2 PUSH2 0x287C JUMP JUMPDEST DUP3 MSTORE POP POP JUMP JUMPDEST PUSH0 PUSH1 0x20 DUP3 ADD SWAP1 POP PUSH2 0x28AF PUSH0 DUP4 ADD DUP5 PUSH2 0x288D JUMP JUMPDEST SWAP3 SWAP2 POP POP JUMP JUMPDEST PUSH0 DUP2 MLOAD SWAP1 POP SWAP2 SWAP1 POP JUMP JUMPDEST PUSH0 DUP3 DUP3 MSTORE PUSH1 0x20 DUP3 ADD SWAP1 POP SWAP3 SWAP2 POP POP JUMP JUMPDEST PUSH0 JUMPDEST DUP4 DUP2 LT ISZERO PUSH2 0x28EC JUMPI DUP1 DUP3 ADD MLOAD DUP2 DUP5 ADD MSTORE PUSH1 0x20 DUP2 ADD SWAP1 POP PUSH2 0x28D1 JUMP JUMPDEST PUSH0 DUP5 DUP5 ADD MSTORE POP POP POP POP JUMP JUMPDEST PUSH0 PUSH2 0x2901 DUP3 PUSH2 0x28B5 JUMP JUMPDEST PUSH2 0x290B DUP2 DUP6 PUSH2 0x28BF JUMP JUMPDEST SWAP4 POP PUSH2 0x291B DUP2 DUP6 PUSH1 0x20 DUP7 ADD PUSH2 0x28CF JUMP JUMPDEST PUSH2 0x2924 DUP2 PUSH2 0x22E1 JUMP JUMPDEST DUP5 ADD SWAP2 POP POP SWAP3 SWAP2 POP POP JUMP JUMPDEST PUSH0 PUSH8 0xFFFFFFFFFFFFFFFF DUP3 AND SWAP1 POP SWAP2 SWAP1 POP JUMP JUMPDEST PUSH2 0x294B DUP2 PUSH2 0x292F JUMP JUMPDEST DUP3 MSTORE POP POP JUMP JUMPDEST PUSH0 PUSH2 0x160 DUP3 ADD SWAP1 POP DUP2 DUP2 SUB PUSH0 DUP4 ADD MSTORE PUSH2 0x296A DUP2 DUP15 PUSH2 0x28F7 JUMP JUMPDEST SWAP1 POP PUSH2 0x2979 PUSH1 0x20 DUP4 ADD DUP14 PUSH2 0x2798 JUMP JUMPDEST PUSH2 0x2986 PUSH1 0x40 DUP4 ADD DUP13 PUSH2 0x2798 JUMP JUMPDEST PUSH2 0x2993 PUSH1 0x60 DUP4 ADD DUP12 PUSH2 0x2798 JUMP JUMPDEST PUSH2 0x29A0 PUSH1 0x80 DUP4 ADD DUP11 PUSH2 0x2798 JUMP JUMPDEST PUSH2 0x29AD PUSH1 0xA0 DUP4 ADD DUP10 PUSH2 0x2798 JUMP JUMPDEST PUSH2 0x29BA PUSH1 0xC0 DUP4 ADD DUP9 PUSH2 0x2798 JUMP JUMPDEST PUSH2 0x29C7 PUSH1 0xE0 DUP4 ADD DUP8 PUSH2 0x2798 JUMP JUMPDEST PUSH2 0x29D5 PUSH2 0x100 DUP4 ADD DUP7 PUSH2 0x2798 JUMP JUMPDEST PUSH2 0x29E3 PUSH2 0x120 DUP4 ADD DUP6 PUSH2 0x2942 JUMP JUMPDEST PUSH2 0x29F1 PUSH2 0x140 DUP4 ADD DUP5 PUSH2 0x2854 JUMP JUMPDEST SWAP13 SWAP12 POP POP POP POP POP POP POP POP POP POP POP POP JUMP JUMPDEST PUSH0 PUSH16 0xFFFFFFFFFFFFFFFFFFFFFFFFFFFFFFFF DUP3 AND SWAP1 POP SWAP2 SWAP1 POP JUMP JUMPDEST PUSH2 0x2A25 DUP2 PUSH2 0x2A01 JUMP JUMPDEST DUP2 EQ PUSH2 0x2A2F JUMPI PUSH0 DUP1 REVERT JUMPDEST POP JUMP JUMPDEST PUSH0 DUP2 MLOAD SWAP1 POP PUSH2 0x2A40 DUP2 PUSH2 0x2A1C JUMP JUMPDEST SWAP3 SWAP2 POP POP JUMP JUMPDEST PUSH0 PUSH1 0x20 DUP3 DUP5 SUB SLT ISZERO PUSH2 0x2A5B JUMPI PUSH2 0x2A5A PUSH2 0x22D1 JUMP JUMPDEST JUMPDEST PUSH0 PUSH2 0x2A68 DUP5 DUP3 DUP6 ADD PUSH2 0x2A32 JUMP JUMPDEST SWAP2 POP POP SWAP3 SWAP2 POP POP JUMP JUMPDEST PUSH32 0x496E73756666696369656E742066656500000000000000000000000000000000 PUSH0 DUP3 ADD MSTORE POP JUMP JUMPDEST PUSH0 PUSH2 0x2AA5 PUSH1 0x10 DUP4 PUSH2 0x28BF JUMP JUMPDEST SWAP2 POP PUSH2 0x2AB0 DUP3 PUSH2 0x2A71 JUMP JUMPDEST PUSH1 0x20 DUP3 ADD SWAP1 POP SWAP2 SWAP1 POP JUMP JUMPDEST PUSH0 PUSH1 0x20 DUP3 ADD SWAP1 POP DUP2 DUP2 SUB PUSH0 DUP4 ADD MSTORE PUSH2 0x2AD2 DUP2 PUSH2 0x2A99 JUMP JUMPDEST SWAP1 POP SWAP2 SWAP1 POP JUMP JUMPDEST PUSH32 0x526F746174696F6E206379636C65206D75737420626520706F73697469766500 PUSH0 DUP3 ADD MSTORE POP JUMP JUMPDEST PUSH0 PUSH2 0x2B0D PUSH1 0x1F DUP4 PUSH2 0x28BF JUMP JUMPDEST SWAP2 POP PUSH2 0x2B18 DUP3 PUSH2 0x2AD9 JUMP JUMPDEST PUSH1 0x20 DUP3 ADD SWAP1 POP SWAP2 SWAP1 POP JUMP JUMPDEST PUSH0 PUSH1 0x20 DUP3 ADD SWAP1 POP DUP2 DUP2 SUB PUSH0 DUP4 ADD MSTORE PUSH2 0x2B3A DUP2 PUSH2 0x2B01 JUMP JUMPDEST SWAP1 POP SWAP2 SWAP1 POP JUMP JUMPDEST PUSH32 0x496E7465726573742064656E6F6D696E61746F72206D75737420626520706F73 PUSH0 DUP3 ADD MSTORE PUSH32 0x6974697665000000000000000000000000000000000000000000000000000000 PUSH1 0x20 DUP3 ADD MSTORE POP JUMP JUMPDEST PUSH0 PUSH2 0x2B9B PUSH1 0x25 DUP4 PUSH2 0x28BF JUMP JUMPDEST SWAP2 POP PUSH2 0x2BA6 DUP3 PUSH2 0x2B41 JUMP JUMPDEST PUSH1 0x40 DUP3 ADD SWAP1 POP SWAP2 SWAP1 POP JUMP JUMPDEST PUSH0 PUSH1 0x20 DUP3 ADD SWAP1 POP DUP2 DUP2 SUB PUSH0 DUP4 ADD MSTORE PUSH2 0x2BC8 DUP2 PUSH2 0x2B8F JUMP JUMPDEST SWAP1 POP SWAP2 SWAP1 POP JUMP JUMPDEST PUSH32 0x4E756D657261746F72206D757374206265206C657373207468616E206F722065 PUSH0 DUP3 ADD MSTORE PUSH32 0x7175616C20746F2064656E6F6D696E61746F7200000000000000000000000000 PUSH1 0x20 DUP3 ADD MSTORE POP JUMP JUMPDEST PUSH0 PUSH2 0x2C29 PUSH1 0x33 DUP4 PUSH2 0x28BF JUMP JUMPDEST SWAP2 POP PUSH2 0x2C34 DUP3 PUSH2 0x2BCF JUMP JUMPDEST PUSH1 0x40 DUP3 ADD SWAP1 POP SWAP2 SWAP1 POP JUMP JUMPDEST PUSH0 PUSH1 0x20 DUP3 ADD SWAP1 POP DUP2 DUP2 SUB PUSH0 DUP4 ADD MSTORE PUSH2 0x2C56 DUP2 PUSH2 0x2C1D JUMP JUMPDEST SWAP1 POP SWAP2 SWAP1 POP JUMP JUMPDEST PUSH32 0x4E487B7100000000000000000000000000000000000000000000000000000000 PUSH0 MSTORE PUSH1 0x11 PUSH1 0x4 MSTORE PUSH1 0x24 PUSH0 REVERT JUMPDEST PUSH0 PUSH2 0x2C94 DUP3 PUSH2 0x2448 JUMP JUMPDEST SWAP2 POP PUSH32 0xFFFFFFFFFFFFFFFFFFFFFFFFFFFFFFFFFFFFFFFFFFFFFFFFFFFFFFFFFFFFFFFF DUP3 SUB PUSH2 0x2CC6 JUMPI PUSH2 0x2CC5 PUSH2 0x2C5D JUMP JUMPDEST JUMPDEST PUSH1 0x1 DUP3 ADD SWAP1 POP SWAP2 SWAP1 POP JUMP JUMPDEST PUSH0 PUSH1 0x60 DUP3 ADD SWAP1 POP PUSH2 0x2CE4 PUSH0 DUP4 ADD DUP7 PUSH2 0x2854 JUMP JUMPDEST PUSH2 0x2CF1 PUSH1 0x20 DUP4 ADD DUP6 PUSH2 0x2854 JUMP JUMPDEST PUSH2 0x2CFE PUSH1 0x40 DUP4 ADD DUP5 PUSH2 0x2798 JUMP JUMPDEST SWAP5 SWAP4 POP POP POP POP JUMP JUMPDEST PUSH0 DUP2 ISZERO ISZERO SWAP1 POP SWAP2 SWAP1 POP JUMP JUMPDEST PUSH2 0x2D1A DUP2 PUSH2 0x2D06 JUMP JUMPDEST DUP2 EQ PUSH2 0x2D24 JUMPI PUSH0 DUP1 REVERT JUMPDEST POP JUMP JUMPDEST PUSH0 DUP2 MLOAD SWAP1 POP PUSH2 0x2D35 DUP2 PUSH2 0x2D11 JUMP JUMPDEST SWAP3 SWAP2 POP POP JUMP JUMPDEST PUSH0 PUSH1 0x20 DUP3 DUP5 SUB SLT ISZERO PUSH2 0x2D50 JUMPI PUSH2 0x2D4F PUSH2 0x22D1 JUMP JUMPDEST JUMPDEST PUSH0 PUSH2 0x2D5D DUP5 DUP3 DUP6 ADD PUSH2 0x2D27 JUMP JUMPDEST SWAP2 POP POP SWAP3 SWAP2 POP POP JUMP JUMPDEST PUSH32 0x43726561746F722073686F756C64206465706F7369742074686520696E697469 PUSH0 DUP3 ADD MSTORE PUSH32 0x616C20616D6F756E740000000000000000000000000000000000000000000000 PUSH1 0x20 DUP3 ADD MSTORE POP JUMP JUMPDEST PUSH0 PUSH2 0x2DC0 PUSH1 0x29 DUP4 PUSH2 0x28BF JUMP JUMPDEST SWAP2 POP PUSH2 0x2DCB DUP3 PUSH2 0x2D66 JUMP JUMPDEST PUSH1 0x40 DUP3 ADD SWAP1 POP SWAP2 SWAP1 POP JUMP JUMPDEST PUSH0 PUSH1 0x20 DUP3 ADD SWAP1 POP DUP2 DUP2 SUB PUSH0 DUP4 ADD MSTORE PUSH2 0x2DED DUP2 PUSH2 0x2DB4 JUMP JUMPDEST SWAP1 POP SWAP2 SWAP1 POP JUMP JUMPDEST PUSH2 0x2DFD DUP2 PUSH2 0x2D06 JUMP JUMPDEST DUP3 MSTORE POP POP JUMP JUMPDEST PUSH0 PUSH1 0x60 DUP3 ADD SWAP1 POP PUSH2 0x2E16 PUSH0 DUP4 ADD DUP7 PUSH2 0x2854 JUMP JUMPDEST PUSH2 0x2E23 PUSH1 0x20 DUP4 ADD DUP6 PUSH2 0x2534 JUMP JUMPDEST PUSH2 0x2E30 PUSH1 0x40 DUP4 ADD DUP5 PUSH2 0x2DF4 JUMP JUMPDEST SWAP5 SWAP4 POP POP POP POP JUMP JUMPDEST PUSH2 0x2E41 DUP2 PUSH2 0x292F JUMP JUMPDEST DUP2 EQ PUSH2 0x2E4B JUMPI PUSH0 DUP1 REVERT JUMPDEST POP JUMP JUMPDEST PUSH0 DUP2 MLOAD SWAP1 POP PUSH2 0x2E5C DUP2 PUSH2 0x2E38 JUMP JUMPDEST SWAP3 SWAP2 POP POP JUMP JUMPDEST PUSH0 PUSH1 0x20 DUP3 DUP5 SUB SLT ISZERO PUSH2 0x2E77 JUMPI PUSH2 0x2E76 PUSH2 0x22D1 JUMP JUMPDEST JUMPDEST PUSH0 PUSH2 0x2E84 DUP5 DUP3 DUP6 ADD PUSH2 0x2E4E JUMP JUMPDEST SWAP2 POP POP SWAP3 SWAP2 POP POP JUMP JUMPDEST PUSH32 0x4E487B7100000000000000000000000000000000000000000000000000000000 PUSH0 MSTORE PUSH1 0x22 PUSH1 0x4 MSTORE PUSH1 0x24 PUSH0 REVERT JUMPDEST PUSH0 PUSH1 0x2 DUP3 DIV SWAP1 POP PUSH1 0x1 DUP3 AND DUP1 PUSH2 0x2ED1 JUMPI PUSH1 0x7F DUP3 AND SWAP2 POP JUMPDEST PUSH1 0x20 DUP3 LT DUP2 SUB PUSH2 0x2EE4 JUMPI PUSH2 0x2EE3 PUSH2 0x2E8D JUMP JUMPDEST JUMPDEST POP SWAP2 SWAP1 POP JUMP JUMPDEST PUSH0 DUP2 SWAP1 POP DUP2 PUSH0 MSTORE PUSH1 0x20 PUSH0 KECCAK256 SWAP1 POP SWAP2 SWAP1 POP JUMP JUMPDEST PUSH0 PUSH1 0x20 PUSH1 0x1F DUP4 ADD DIV SWAP1 POP SWAP2 SWAP1 POP JUMP JUMPDEST PUSH0 DUP3 DUP3 SHL SWAP1 POP SWAP3 SWAP2 POP POP JUMP JUMPDEST PUSH0 PUSH1 0x8 DUP4 MUL PUSH2 0x2F46 PUSH32 0xFFFFFFFFFFFFFFFFFFFFFFFFFFFFFFFFFFFFFFFFFFFFFFFFFFFFFFFFFFFFFFFF DUP3 PUSH2 0x2F0B JUMP JUMPDEST PUSH2 0x2F50 DUP7 DUP4 PUSH2 0x2F0B JUMP JUMPDEST SWAP6 POP DUP1 NOT DUP5 AND SWAP4 POP DUP1 DUP7 AND DUP5 OR SWAP3 POP POP POP SWAP4 SWAP3 POP POP POP JUMP JUMPDEST PUSH0 PUSH2 0x2F82 PUSH2 0x2F7D PUSH2 0x2F78 DUP5 PUSH2 0x2448 JUMP JUMPDEST PUSH2 0x257B JUMP JUMPDEST PUSH2 0x2448 JUMP JUMPDEST SWAP1 POP SWAP2 SWAP1 POP JUMP JUMPDEST PUSH0 DUP2 SWAP1 POP SWAP2 SWAP1 POP JUMP JUMPDEST PUSH2 0x2F9B DUP4 PUSH2 0x2F68 JUMP JUMPDEST PUSH2 0x2FAF PUSH2 0x2FA7 DUP3 PUSH2 0x2F89 JUMP JUMPDEST DUP5 DUP5 SLOAD PUSH2 0x2F17 JUMP JUMPDEST DUP3 SSTORE POP POP POP POP JUMP JUMPDEST PUSH0 SWAP1 JUMP JUMPDEST PUSH2 0x2FC3 PUSH2 0x2FB7 JUMP JUMPDEST PUSH2 0x2FCE DUP2 DUP5 DUP5 PUSH2 0x2F92 JUMP JUMPDEST POP POP POP JUMP JUMPDEST JUMPDEST DUP2 DUP2 LT ISZERO PUSH2 0x2FF1 JUMPI PUSH2 0x2FE6 PUSH0 DUP3 PUSH2 0x2FBB JUMP JUMPDEST PUSH1 0x1 DUP2 ADD SWAP1 POP PUSH2 0x2FD4 JUMP JUMPDEST POP POP JUMP JUMPDEST PUSH1 0x1F DUP3 GT ISZERO PUSH2 0x3036 JUMPI PUSH2 0x3007 DUP2 PUSH2 0x2EEA JUMP JUMPDEST PUSH2 0x3010 DUP5 PUSH2 0x2EFC JUMP JUMPDEST DUP2 ADD PUSH1 0x20 DUP6 LT ISZERO PUSH2 0x301F JUMPI DUP2 SWAP1 POP JUMPDEST PUSH2 0x3033 PUSH2 0x302B DUP6 PUSH2 0x2EFC JUMP JUMPDEST DUP4 ADD DUP3 PUSH2 0x2FD3 JUMP JUMPDEST POP POP JUMPDEST POP POP POP JUMP JUMPDEST PUSH0 DUP3 DUP3 SHR SWAP1 POP SWAP3 SWAP2 POP POP JUMP JUMPDEST PUSH0 PUSH2 0x3056 PUSH0 NOT DUP5 PUSH1 0x8 MUL PUSH2 0x303B JUMP JUMPDEST NOT DUP1 DUP4 AND SWAP2 POP POP SWAP3 SWAP2 POP POP JUMP JUMPDEST PUSH0 PUSH2 0x306E DUP4 DUP4 PUSH2 0x3047 JUMP JUMPDEST SWAP2 POP DUP3 PUSH1 0x2 MUL DUP3 OR SWAP1 POP SWAP3 SWAP2 POP POP JUMP JUMPDEST PUSH2 0x3087 DUP3 PUSH2 0x28B5 JUMP JUMPDEST PUSH8 0xFFFFFFFFFFFFFFFF DUP2 GT ISZERO PUSH2 0x30A0 JUMPI PUSH2 0x309F PUSH2 0x22F1 JUMP JUMPDEST JUMPDEST PUSH2 0x30AA DUP3 SLOAD PUSH2 0x2EBA JUMP JUMPDEST PUSH2 0x30B5 DUP3 DUP3 DUP6 PUSH2 0x2FF5 JUMP JUMPDEST PUSH0 PUSH1 0x20 SWAP1 POP PUSH1 0x1F DUP4 GT PUSH1 0x1 DUP2 EQ PUSH2 0x30E6 JUMPI PUSH0 DUP5 ISZERO PUSH2 0x30D4 JUMPI DUP3 DUP8 ADD MLOAD SWAP1 POP JUMPDEST PUSH2 0x30DE DUP6 DUP3 PUSH2 0x3063 JUMP JUMPDEST DUP7 SSTORE POP PUSH2 0x3145 JUMP JUMPDEST PUSH1 0x1F NOT DUP5 AND PUSH2 0x30F4 DUP7 PUSH2 0x2EEA JUMP JUMPDEST PUSH0 JUMPDEST DUP3 DUP2 LT ISZERO PUSH2 0x311B JUMPI DUP5 DUP10 ADD MLOAD DUP3 SSTORE PUSH1 0x1 DUP3 ADD SWAP2 POP PUSH1 0x20 DUP6 ADD SWAP5 POP PUSH1 0x20 DUP2 ADD SWAP1 POP PUSH2 0x30F6 JUMP JUMPDEST DUP7 DUP4 LT ISZERO PUSH2 0x3138 JUMPI DUP5 DUP10 ADD MLOAD PUSH2 0x3134 PUSH1 0x1F DUP10 AND DUP3 PUSH2 0x3047 JUMP JUMPDEST DUP4 SSTORE POP JUMPDEST PUSH1 0x1 PUSH1 0x2 DUP9 MUL ADD DUP9 SSTORE POP POP POP JUMPDEST POP POP POP POP POP POP JUMP JUMPDEST PUSH0 PUSH2 0x120 DUP3 ADD SWAP1 POP PUSH2 0x3161 PUSH0 DUP4 ADD DUP13 PUSH2 0x2798 JUMP JUMPDEST DUP2 DUP2 SUB PUSH1 0x20 DUP4 ADD MSTORE PUSH2 0x3173 DUP2 DUP12 PUSH2 0x28F7 JUMP JUMPDEST SWAP1 POP PUSH2 0x3182 PUSH1 0x40 DUP4 ADD DUP11 PUSH2 0x2854 JUMP JUMPDEST PUSH2 0x318F PUSH1 0x60 DUP4 ADD DUP10 PUSH2 0x2798 JUMP JUMPDEST PUSH2 0x319C PUSH1 0x80 DUP4 ADD DUP9 PUSH2 0x2798 JUMP JUMPDEST PUSH2 0x31A9 PUSH1 0xA0 DUP4 ADD DUP8 PUSH2 0x2798 JUMP JUMPDEST PUSH2 0x31B6 PUSH1 0xC0 DUP4 ADD DUP7 PUSH2 0x2798 JUMP JUMPDEST PUSH2 0x31C3 PUSH1 0xE0 DUP4 ADD DUP6 PUSH2 0x2798 JUMP JUMPDEST PUSH2 0x31D1 PUSH2 0x100 DUP4 ADD DUP5 PUSH2 0x2942 JUMP JUMPDEST SWAP11 SWAP10 POP POP POP POP POP POP POP POP POP POP JUMP JUMPDEST PUSH32 0x4F6E6C792074686520706F742063726561746F722063616E2072657665616C20 PUSH0 DUP3 ADD MSTORE PUSH32 0x7468652077696E6E657200000000000000000000000000000000000000000000 PUSH1 0x20 DUP3 ADD MSTORE POP JUMP JUMPDEST PUSH0 PUSH2 0x3239 PUSH1 0x2A DUP4 PUSH2 0x28BF JUMP JUMPDEST SWAP2 POP PUSH2 0x3244 DUP3 PUSH2 0x31DF JUMP JUMPDEST PUSH1 0x40 DUP3 ADD SWAP1 POP SWAP2 SWAP1 POP JUMP JUMPDEST PUSH0 PUSH1 0x20 DUP3 ADD SWAP1 POP DUP2 DUP2 SUB PUSH0 DUP4 ADD MSTORE PUSH2 0x3266 DUP2 PUSH2 0x322D JUMP JUMPDEST SWAP1 POP SWAP2 SWAP1 POP JUMP JUMPDEST PUSH0 PUSH2 0x3277 DUP3 PUSH2 0x2448 JUMP JUMPDEST SWAP2 POP PUSH2 0x3282 DUP4 PUSH2 0x2448 JUMP JUMPDEST SWAP3 POP DUP3 DUP3 ADD SWAP1 POP DUP1 DUP3 GT ISZERO PUSH2 0x329A JUMPI PUSH2 0x3299 PUSH2 0x2C5D JUMP JUMPDEST JUMPDEST SWAP3 SWAP2 POP POP JUMP JUMPDEST PUSH32 0x4E65787420726F746174696F6E206E6F74207965742064756500000000000000 PUSH0 DUP3 ADD MSTORE POP JUMP JUMPDEST PUSH0 PUSH2 0x32D4 PUSH1 0x19 DUP4 PUSH2 0x28BF JUMP JUMPDEST SWAP2 POP PUSH2 0x32DF DUP3 PUSH2 0x32A0 JUMP JUMPDEST PUSH1 0x20 DUP3 ADD SWAP1 POP SWAP2 SWAP1 POP JUMP JUMPDEST PUSH0 PUSH1 0x20 DUP3 ADD SWAP1 POP DUP2 DUP2 SUB PUSH0 DUP4 ADD MSTORE PUSH2 0x3301 DUP2 PUSH2 0x32C8 JUMP JUMPDEST SWAP1 POP SWAP2 SWAP1 POP JUMP JUMPDEST PUSH0 PUSH1 0x80 DUP3 ADD SWAP1 POP PUSH2 0x331B PUSH0 DUP4 ADD DUP8 PUSH2 0x2854 JUMP JUMPDEST PUSH2 0x3328 PUSH1 0x20 DUP4 ADD DUP7 PUSH2 0x2942 JUMP JUMPDEST PUSH2 0x3335 PUSH1 0x40 DUP4 ADD DUP6 PUSH2 0x2534 JUMP JUMPDEST PUSH2 0x3342 PUSH1 0x60 DUP4 ADD DUP5 PUSH2 0x2534 JUMP JUMPDEST SWAP6 SWAP5 POP POP POP POP POP JUMP JUMPDEST PUSH0 DUP2 MLOAD SWAP1 POP PUSH2 0x3359 DUP2 PUSH2 0x241E JUMP JUMPDEST SWAP3 SWAP2 POP POP JUMP JUMPDEST PUSH0 PUSH1 0x20 DUP3 DUP5 SUB SLT ISZERO PUSH2 0x3374 JUMPI PUSH2 0x3373 PUSH2 0x22D1 JUMP JUMPDEST JUMPDEST PUSH0 PUSH2 0x3381 DUP5 DUP3 DUP6 ADD PUSH2 0x334B JUMP JUMPDEST SWAP2 POP POP SWAP3 SWAP2 POP POP JUMP JUMPDEST PUSH32 0x4E487B7100000000000000000000000000000000000000000000000000000000 PUSH0 MSTORE PUSH1 0x12 PUSH1 0x4 MSTORE PUSH1 0x24 PUSH0 REVERT JUMPDEST PUSH0 PUSH2 0x33C1 DUP3 PUSH2 0x2448 JUMP JUMPDEST SWAP2 POP PUSH2 0x33CC DUP4 PUSH2 0x2448 JUMP JUMPDEST SWAP3 POP DUP3 PUSH2 0x33DC JUMPI PUSH2 0x33DB PUSH2 0x338A JUMP JUMPDEST JUMPDEST DUP3 DUP3 MOD SWAP1 POP SWAP3 SWAP2 POP POP JUMP JUMPDEST PUSH32 0x4E487B7100000000000000000000000000000000000000000000000000000000 PUSH0 MSTORE PUSH1 0x32 PUSH1 0x4 MSTORE PUSH1 0x24 PUSH0 REVERT JUMPDEST PUSH0 PUSH2 0x341E DUP3 PUSH2 0x2448 JUMP JUMPDEST SWAP2 POP PUSH2 0x3429 DUP4 PUSH2 0x2448 JUMP JUMPDEST SWAP3 POP DUP3 DUP3 SUB SWAP1 POP DUP2 DUP2 GT ISZERO PUSH2 0x3441 JUMPI PUSH2 0x3440 PUSH2 0x2C5D JUMP JUMPDEST JUMPDEST SWAP3 SWAP2 POP POP JUMP JUMPDEST PUSH32 0x4E487B7100000000000000000000000000000000000000000000000000000000 PUSH0 MSTORE PUSH1 0x31 PUSH1 0x4 MSTORE PUSH1 0x24 PUSH0 REVERT JUMPDEST PUSH0 PUSH2 0x347E DUP3 PUSH2 0x2448 JUMP JUMPDEST SWAP2 POP PUSH2 0x3489 DUP4 PUSH2 0x2448 JUMP JUMPDEST SWAP3 POP DUP3 DUP3 MUL PUSH2 0x3497 DUP2 PUSH2 0x2448 JUMP JUMPDEST SWAP2 POP DUP3 DUP3 DIV DUP5 EQ DUP4 ISZERO OR PUSH2 0x34AE JUMPI PUSH2 0x34AD PUSH2 0x2C5D JUMP JUMPDEST JUMPDEST POP SWAP3 SWAP2 POP POP JUMP JUMPDEST PUSH0 PUSH1 0x60 DUP3 ADD SWAP1 POP PUSH2 0x34C8 PUSH0 DUP4 ADD DUP7 PUSH2 0x2798 JUMP JUMPDEST PUSH2 0x34D5 PUSH1 0x20 DUP4 ADD DUP6 PUSH2 0x2854 JUMP JUMPDEST PUSH2 0x34E2 PUSH1 0x40 DUP4 ADD DUP5 PUSH2 0x2798 JUMP JUMPDEST SWAP5 SWAP4 POP POP POP POP JUMP JUMPDEST PUSH0 DUP2 MLOAD SWAP1 POP PUSH2 0x34F8 DUP2 PUSH2 0x2451 JUMP JUMPDEST SWAP3 SWAP2 POP POP JUMP JUMPDEST PUSH0 PUSH1 0x20 DUP3 DUP5 SUB SLT ISZERO PUSH2 0x3513 JUMPI PUSH2 0x3512 PUSH2 0x22D1 JUMP JUMPDEST JUMPDEST PUSH0 PUSH2 0x3520 DUP5 DUP3 DUP6 ADD PUSH2 0x34EA JUMP JUMPDEST SWAP2 POP POP SWAP3 SWAP2 POP POP JUMP JUMPDEST PUSH0 PUSH1 0x40 DUP3 ADD SWAP1 POP PUSH2 0x353C PUSH0 DUP4 ADD DUP6 PUSH2 0x2854 JUMP JUMPDEST PUSH2 0x3549 PUSH1 0x20 DUP4 ADD DUP5 PUSH2 0x2798 JUMP JUMPDEST SWAP4 SWAP3 POP POP POP JUMP JUMPDEST PUSH32 0x4E6F20726576656E756520746F20776974686472617700000000000000000000 PUSH0 DUP3 ADD MSTORE POP JUMP JUMPDEST PUSH0 PUSH2 0x3584 PUSH1 0x16 DUP4 PUSH2 0x28BF JUMP JUMPDEST SWAP2 POP PUSH2 0x358F DUP3 PUSH2 0x3550 JUMP JUMPDEST PUSH1 0x20 DUP3 ADD SWAP1 POP SWAP2 SWAP1 POP JUMP JUMPDEST PUSH0 PUSH1 0x20 DUP3 ADD SWAP1 POP DUP2 DUP2 SUB PUSH0 DUP4 ADD MSTORE PUSH2 0x35B1 DUP2 PUSH2 0x3578 JUMP JUMPDEST SWAP1 POP SWAP2 SWAP1 POP JUMP JUMPDEST PUSH32 0x526576656E7565207769746864726177616C206661696C656400000000000000 PUSH0 DUP3 ADD MSTORE POP JUMP JUMPDEST PUSH0 PUSH2 0x35EC PUSH1 0x19 DUP4 PUSH2 0x28BF JUMP JUMPDEST SWAP2 POP PUSH2 0x35F7 DUP3 PUSH2 0x35B8 JUMP JUMPDEST PUSH1 0x20 DUP3 ADD SWAP1 POP SWAP2 SWAP1 POP JUMP JUMPDEST PUSH0 PUSH1 0x20 DUP3 ADD SWAP1 POP DUP2 DUP2 SUB PUSH0 DUP4 ADD MSTORE PUSH2 0x3619 DUP2 PUSH2 0x35E0 JUMP JUMPDEST SWAP1 POP SWAP2 SWAP1 POP JUMP JUMPDEST PUSH0 DUP2 PUSH1 0x60 SHL SWAP1 POP SWAP2 SWAP1 POP JUMP JUMPDEST PUSH0 PUSH2 0x3636 DUP3 PUSH2 0x3620 JUMP JUMPDEST SWAP1 POP SWAP2 SWAP1 POP JUMP JUMPDEST PUSH0 PUSH2 0x3647 DUP3 PUSH2 0x362C JUMP JUMPDEST SWAP1 POP SWAP2 SWAP1 POP JUMP JUMPDEST PUSH2 0x365F PUSH2 0x365A DUP3 PUSH2 0x2732 JUMP JUMPDEST PUSH2 0x363D JUMP JUMPDEST DUP3 MSTORE POP POP JUMP JUMPDEST PUSH0 DUP2 SWAP1 POP SWAP2 SWAP1 POP JUMP JUMPDEST PUSH2 0x367F PUSH2 0x367A DUP3 PUSH2 0x2448 JUMP JUMPDEST PUSH2 0x3665 JUMP JUMPDEST DUP3 MSTORE POP POP JUMP JUMPDEST PUSH0 PUSH2 0x3690 DUP3 DUP6 PUSH2 0x364E JUMP JUMPDEST PUSH1 0x14 DUP3 ADD SWAP2 POP PUSH2 0x36A0 DUP3 DUP5 PUSH2 0x366E JUMP JUMPDEST PUSH1 0x20 DUP3 ADD SWAP2 POP DUP2 SWAP1 POP SWAP4 SWAP3 POP POP POP JUMP JUMPDEST PUSH32 0x496E76616C69642070726F6F662E000000000000000000000000000000000000 PUSH0 DUP3 ADD MSTORE POP JUMP JUMPDEST PUSH0 PUSH2 0x36E4 PUSH1 0xE DUP4 PUSH2 0x28BF JUMP JUMPDEST SWAP2 POP PUSH2 0x36EF DUP3 PUSH2 0x36B0 JUMP JUMPDEST PUSH1 0x20 DUP3 ADD SWAP1 POP SWAP2 SWAP1 POP JUMP JUMPDEST PUSH0 PUSH1 0x20 DUP3 ADD SWAP1 POP DUP2 DUP2 SUB PUSH0 DUP4 ADD MSTORE PUSH2 0x3711 DUP2 PUSH2 0x36D8 JUMP JUMPDEST SWAP1 POP SWAP2 SWAP1 POP JUMP JUMPDEST PUSH32 0x4E6F2066756E6473206C65667420746F20636C61696D206F7220616C72656164 PUSH0 DUP3 ADD MSTORE PUSH32 0x7920636C61696D65642E00000000000000000000000000000000000000000000 PUSH1 0x20 DUP3 ADD MSTORE POP JUMP JUMPDEST PUSH0 PUSH2 0x3772 PUSH1 0x2A DUP4 PUSH2 0x28BF JUMP JUMPDEST SWAP2 POP PUSH2 0x377D DUP3 PUSH2 0x3718 JUMP JUMPDEST PUSH1 0x40 DUP3 ADD SWAP1 POP SWAP2 SWAP1 POP JUMP JUMPDEST PUSH0 PUSH1 0x20 DUP3 ADD SWAP1 POP DUP2 DUP2 SUB PUSH0 DUP4 ADD MSTORE PUSH2 0x379F DUP2 PUSH2 0x3766 JUMP JUMPDEST SWAP1 POP SWAP2 SWAP1 POP JUMP JUMPDEST PUSH32 0x5969656C64207472616E73666572206661696C65640000000000000000000000 PUSH0 DUP3 ADD MSTORE POP JUMP JUMPDEST PUSH0 PUSH2 0x37DA PUSH1 0x15 DUP4 PUSH2 0x28BF JUMP JUMPDEST SWAP2 POP PUSH2 0x37E5 DUP3 PUSH2 0x37A6 JUMP JUMPDEST PUSH1 0x20 DUP3 ADD SWAP1 POP SWAP2 SWAP1 POP JUMP JUMPDEST PUSH0 PUSH1 0x20 DUP3 ADD SWAP1 POP DUP2 DUP2 SUB PUSH0 DUP4 ADD MSTORE PUSH2 0x3807 DUP2 PUSH2 0x37CE JUMP JUMPDEST SWAP1 POP SWAP2 SWAP1 POP JUMP JUMPDEST PUSH0 PUSH1 0x40 DUP3 ADD SWAP1 POP PUSH2 0x3821 PUSH0 DUP4 ADD DUP6 PUSH2 0x2854 JUMP JUMPDEST PUSH2 0x382E PUSH1 0x20 DUP4 ADD DUP5 PUSH2 0x2854 JUMP JUMPDEST SWAP4 SWAP3 POP POP POP JUMP JUMPDEST PUSH0 PUSH2 0x383F DUP3 PUSH2 0x2448 JUMP JUMPDEST SWAP2 POP PUSH2 0x384A DUP4 PUSH2 0x2448 JUMP JUMPDEST SWAP3 POP DUP3 PUSH2 0x385A JUMPI PUSH2 0x3859 PUSH2 0x338A JUMP JUMPDEST JUMPDEST DUP3 DUP3 DIV SWAP1 POP SWAP3 SWAP2 POP POP JUMP JUMPDEST PUSH0 DUP2 SWAP1 POP SWAP2 SWAP1 POP JUMP JUMPDEST PUSH0 PUSH2 0x3888 PUSH2 0x3883 PUSH2 0x387E DUP5 PUSH2 0x3865 JUMP JUMPDEST PUSH2 0x257B JUMP JUMPDEST PUSH2 0x292F JUMP JUMPDEST SWAP1 POP SWAP2 SWAP1 POP JUMP JUMPDEST PUSH2 0x3898 DUP2 PUSH2 0x386E JUMP JUMPDEST DUP3 MSTORE POP POP JUMP JUMPDEST PUSH0 PUSH1 0x20 DUP3 ADD SWAP1 POP PUSH2 0x38B1 PUSH0 DUP4 ADD DUP5 PUSH2 0x388F JUMP JUMPDEST SWAP3 SWAP2 POP POP JUMP JUMPDEST PUSH32 0x506F742069732066756C6C000000000000000000000000000000000000000000 PUSH0 DUP3 ADD MSTORE POP JUMP JUMPDEST PUSH0 PUSH2 0x38EB PUSH1 0xB DUP4 PUSH2 0x28BF JUMP JUMPDEST SWAP2 POP PUSH2 0x38F6 DUP3 PUSH2 0x38B7 JUMP JUMPDEST PUSH1 0x20 DUP3 ADD SWAP1 POP SWAP2 SWAP1 POP JUMP JUMPDEST PUSH0 PUSH1 0x20 DUP3 ADD SWAP1 POP DUP2 DUP2 SUB PUSH0 DUP4 ADD MSTORE PUSH2 0x3918 DUP2 PUSH2 0x38DF JUMP JUMPDEST SWAP1 POP SWAP2 SWAP1 POP JUMP JUMPDEST PUSH32 0x416C7265616479206A6F696E6564206F72206D69737365642061206465706F73 PUSH0 DUP3 ADD MSTORE PUSH32 0x6974000000000000000000000000000000000000000000000000000000000000 PUSH1 0x20 DUP3 ADD MSTORE POP JUMP JUMPDEST PUSH0 PUSH2 0x3979 PUSH1 0x22 DUP4 PUSH2 0x28BF JUMP JUMPDEST SWAP2 POP PUSH2 0x3984 DUP3 PUSH2 0x391F JUMP JUMPDEST PUSH1 0x40 DUP3 ADD SWAP1 POP SWAP2 SWAP1 POP JUMP JUMPDEST PUSH0 PUSH1 0x20 DUP3 ADD SWAP1 POP DUP2 DUP2 SUB PUSH0 DUP4 ADD MSTORE PUSH2 0x39A6 DUP2 PUSH2 0x396D JUMP JUMPDEST SWAP1 POP SWAP2 SWAP1 POP JUMP JUMPDEST PUSH32 0x5472616E73666572206661696C65640000000000000000000000000000000000 PUSH0 DUP3 ADD MSTORE POP JUMP JUMPDEST PUSH0 PUSH2 0x39E1 PUSH1 0xF DUP4 PUSH2 0x28BF JUMP JUMPDEST SWAP2 POP PUSH2 0x39EC DUP3 PUSH2 0x39AD JUMP JUMPDEST PUSH1 0x20 DUP3 ADD SWAP1 POP SWAP2 SWAP1 POP JUMP JUMPDEST PUSH0 PUSH1 0x20 DUP3 ADD SWAP1 POP DUP2 DUP2 SUB PUSH0 DUP4 ADD MSTORE PUSH2 0x3A0E DUP2 PUSH2 0x39D5 JUMP JUMPDEST SWAP1 POP SWAP2 SWAP1 POP JUMP JUMPDEST PUSH0 DUP2 SLOAD PUSH2 0x3A21 DUP2 PUSH2 0x2EBA JUMP JUMPDEST PUSH2 0x3A2B DUP2 DUP7 PUSH2 0x28BF JUMP JUMPDEST SWAP5 POP PUSH1 0x1 DUP3 AND PUSH0 DUP2 EQ PUSH2 0x3A45 JUMPI PUSH1 0x1 DUP2 EQ PUSH2 0x3A5B JUMPI PUSH2 0x3A8D JUMP JUMPDEST PUSH1 0xFF NOT DUP4 AND DUP7 MSTORE DUP2 ISZERO ISZERO PUSH1 0x20 MUL DUP7 ADD SWAP4 POP PUSH2 0x3A8D JUMP JUMPDEST PUSH2 0x3A64 DUP6 PUSH2 0x2EEA JUMP JUMPDEST PUSH0 JUMPDEST DUP4 DUP2 LT ISZERO PUSH2 0x3A85 JUMPI DUP2 SLOAD DUP2 DUP10 ADD MSTORE PUSH1 0x1 DUP3 ADD SWAP2 POP PUSH1 0x20 DUP2 ADD SWAP1 POP PUSH2 0x3A66 JUMP JUMPDEST DUP1 DUP9 ADD SWAP6 POP POP POP JUMPDEST POP POP POP SWAP3 SWAP2 POP POP JUMP JUMPDEST PUSH0 PUSH2 0x100 DUP3 ADD SWAP1 POP PUSH2 0x3AAA PUSH0 DUP4 ADD DUP12 PUSH2 0x2798 JUMP JUMPDEST DUP2 DUP2 SUB PUSH1 0x20 DUP4 ADD MSTORE PUSH2 0x3ABC DUP2 DUP11 PUSH2 0x3A15 JUMP JUMPDEST SWAP1 POP PUSH2 0x3ACB PUSH1 0x40 DUP4 ADD DUP10 PUSH2 0x2854 JUMP JUMPDEST PUSH2 0x3AD8 PUSH1 0x60 DUP4 ADD DUP9 PUSH2 0x2798 JUMP JUMPDEST PUSH2 0x3AE5 PUSH1 0x80 DUP4 ADD DUP8 PUSH2 0x2798 JUMP JUMPDEST PUSH2 0x3AF2 PUSH1 0xA0 DUP4 ADD DUP7 PUSH2 0x2798 JUMP JUMPDEST PUSH2 0x3AFF PUSH1 0xC0 DUP4 ADD DUP6 PUSH2 0x2798 JUMP JUMPDEST PUSH2 0x3B0C PUSH1 0xE0 DUP4 ADD DUP5 PUSH2 0x2798 JUMP JUMPDEST SWAP10 SWAP9 POP POP POP POP POP POP POP POP POP JUMP JUMPDEST PUSH32 0x4E6F2072657761726420746F20636C61696D0000000000000000000000000000 PUSH0 DUP3 ADD MSTORE POP JUMP JUMPDEST PUSH0 PUSH2 0x3B4D PUSH1 0x12 DUP4 PUSH2 0x28BF JUMP JUMPDEST SWAP2 POP PUSH2 0x3B58 DUP3 PUSH2 0x3B19 JUMP JUMPDEST PUSH1 0x20 DUP3 ADD SWAP1 POP SWAP2 SWAP1 POP JUMP JUMPDEST PUSH0 PUSH1 0x20 DUP3 ADD SWAP1 POP DUP2 DUP2 SUB PUSH0 DUP4 ADD MSTORE PUSH2 0x3B7A DUP2 PUSH2 0x3B41 JUMP JUMPDEST SWAP1 POP SWAP2 SWAP1 POP JUMP INVALID LOG2 PUSH5 0x6970667358 0x22 SLT KECCAK256 0x21 CALL 0xB1 CALLER 0xD0 0xF 0x25 0xB2 0x26 DIV 0xB9 SDIV 0x4B 0x29 PUSH22 0xE2292CB3876CF3616942716C2FF253F1E764736F6C63 NUMBER STOP ADDMOD XOR STOP CALLER "
				},
				"gasEstimates": {
					"creation": {
						"codeDepositCost": "3057400",
						"executionCost": "infinite",
						"totalCost": "infinite"
					},
					"external": {
						"BLAST()": "infinite",
						"USDB()": "infinite",
						"calculateRiskPoolBalance(uint256,uint256)": "infinite",
						"claimAllYield()": "infinite",
						"claimFunds(uint256,bytes32[])": "infinite",
						"claimMyContractsGas()": "infinite",
						"claimReward(uint256)": "infinite",
						"createPot(string,bytes32,uint256,uint256,uint256,uint256,uint256)": "infinite",
						"hasClaimed(address)": "2913",
						"initialize()": "infinite",
						"joinPot(uint256)": "infinite",
						"merkleRoot()": "2471",
						"owner()": "2589",
						"pots(uint256)": "infinite",
						"renounceOwnership()": "infinite",
						"rotateLiquidity(uint256,bytes32,bytes32)": "infinite",
						"setMerkleRoot(bytes32)": "infinite",
						"totalRevenue()": "2513",
						"transferOwnership(address)": "infinite",
						"usdbToken()": "infinite",
						"withdrawRevenue()": "infinite"
					},
					"internal": {
						"deductRevenue(uint256)": "infinite",
						"updateUserYield(address,uint256)": "infinite"
					}
				},
				"methodIdentifiers": {
					"BLAST()": "97d75776",
					"USDB()": "31a0edec",
					"calculateRiskPoolBalance(uint256,uint256)": "7d77990c",
					"claimAllYield()": "409a33ce",
					"claimFunds(uint256,bytes32[])": "61e7d805",
					"claimMyContractsGas()": "77d5d2dc",
					"claimReward(uint256)": "ae169a50",
					"createPot(string,bytes32,uint256,uint256,uint256,uint256,uint256)": "0fae6443",
					"hasClaimed(address)": "73b2e80e",
					"initialize()": "8129fc1c",
					"joinPot(uint256)": "831d49ef",
					"merkleRoot()": "2eb4a7ab",
					"owner()": "8da5cb5b",
					"pots(uint256)": "c3c3df4f",
					"renounceOwnership()": "715018a6",
					"rotateLiquidity(uint256,bytes32,bytes32)": "3cabfefd",
					"setMerkleRoot(bytes32)": "7cb64759",
					"totalRevenue()": "bf2d9e0b",
					"transferOwnership(address)": "f2fde38b",
					"usdbToken()": "4a80409e",
					"withdrawRevenue()": "4f573cb2"
				}
			},
			"storageLayout": {
				"storage": [
					{
						"astId": 1373,
						"contract": "contracts/QuailFinance.sol:QuailFinance",
						"label": "entropy",
						"offset": 0,
						"slot": "0",
						"type": "t_contract(IEntropy)1302"
					},
					{
						"astId": 1375,
						"contract": "contracts/QuailFinance.sol:QuailFinance",
						"label": "entropyProvider",
						"offset": 0,
						"slot": "1",
						"type": "t_address"
					},
					{
						"astId": 1377,
						"contract": "contracts/QuailFinance.sol:QuailFinance",
						"label": "merkleRoot",
						"offset": 0,
						"slot": "2",
						"type": "t_bytes32"
					},
					{
						"astId": 1380,
						"contract": "contracts/QuailFinance.sol:QuailFinance",
						"label": "nextPotId",
						"offset": 0,
						"slot": "3",
						"type": "t_uint256"
					},
					{
						"astId": 1388,
						"contract": "contracts/QuailFinance.sol:QuailFinance",
						"label": "totalRevenue",
						"offset": 0,
						"slot": "4",
						"type": "t_uint256"
					},
					{
						"astId": 1391,
						"contract": "contracts/QuailFinance.sol:QuailFinance",
						"label": "usdbToken",
						"offset": 0,
						"slot": "5",
						"type": "t_contract(IERC20)572"
					},
					{
						"astId": 1395,
						"contract": "contracts/QuailFinance.sol:QuailFinance",
						"label": "hasClaimed",
						"offset": 0,
						"slot": "6",
						"type": "t_mapping(t_address,t_uint256)"
					},
					{
						"astId": 1400,
						"contract": "contracts/QuailFinance.sol:QuailFinance",
						"label": "pots",
						"offset": 0,
						"slot": "7",
						"type": "t_mapping(t_uint256,t_struct(Pot)1445_storage)"
					},
					{
						"astId": 1404,
						"contract": "contracts/QuailFinance.sol:QuailFinance",
						"label": "userYield",
						"offset": 0,
						"slot": "8",
						"type": "t_mapping(t_address,t_uint256)"
					}
				],
				"types": {
					"t_address": {
						"encoding": "inplace",
						"label": "address",
						"numberOfBytes": "20"
					},
					"t_array(t_address)dyn_storage": {
						"base": "t_address",
						"encoding": "dynamic_array",
						"label": "address[]",
						"numberOfBytes": "32"
					},
					"t_bool": {
						"encoding": "inplace",
						"label": "bool",
						"numberOfBytes": "1"
					},
					"t_bytes32": {
						"encoding": "inplace",
						"label": "bytes32",
						"numberOfBytes": "32"
					},
					"t_contract(IERC20)572": {
						"encoding": "inplace",
						"label": "contract IERC20",
						"numberOfBytes": "20"
					},
					"t_contract(IEntropy)1302": {
						"encoding": "inplace",
						"label": "contract IEntropy",
						"numberOfBytes": "20"
					},
					"t_mapping(t_address,t_bool)": {
						"encoding": "mapping",
						"key": "t_address",
						"label": "mapping(address => bool)",
						"numberOfBytes": "32",
						"value": "t_bool"
					},
					"t_mapping(t_address,t_uint256)": {
						"encoding": "mapping",
						"key": "t_address",
						"label": "mapping(address => uint256)",
						"numberOfBytes": "32",
						"value": "t_uint256"
					},
					"t_mapping(t_uint256,t_struct(Pot)1445_storage)": {
						"encoding": "mapping",
						"key": "t_uint256",
						"label": "mapping(uint256 => struct QuailFinance.Pot)",
						"numberOfBytes": "32",
						"value": "t_struct(Pot)1445_storage"
					},
					"t_string_storage": {
						"encoding": "bytes",
						"label": "string",
						"numberOfBytes": "32"
					},
					"t_struct(Pot)1445_storage": {
						"encoding": "inplace",
						"label": "struct QuailFinance.Pot",
						"members": [
							{
								"astId": 1406,
								"contract": "contracts/QuailFinance.sol:QuailFinance",
								"label": "name",
								"offset": 0,
								"slot": "0",
								"type": "t_string_storage"
							},
							{
								"astId": 1408,
								"contract": "contracts/QuailFinance.sol:QuailFinance",
								"label": "amount",
								"offset": 0,
								"slot": "1",
								"type": "t_uint256"
							},
							{
								"astId": 1410,
								"contract": "contracts/QuailFinance.sol:QuailFinance",
								"label": "riskPoolBalance",
								"offset": 0,
								"slot": "2",
								"type": "t_uint256"
							},
							{
								"astId": 1412,
								"contract": "contracts/QuailFinance.sol:QuailFinance",
								"label": "rotationCycleInSeconds",
								"offset": 0,
								"slot": "3",
								"type": "t_uint256"
							},
							{
								"astId": 1414,
								"contract": "contracts/QuailFinance.sol:QuailFinance",
								"label": "lastRotationTime",
								"offset": 0,
								"slot": "4",
								"type": "t_uint256"
							},
							{
								"astId": 1416,
								"contract": "contracts/QuailFinance.sol:QuailFinance",
								"label": "interestNumerator",
								"offset": 0,
								"slot": "5",
								"type": "t_uint256"
							},
							{
								"astId": 1418,
								"contract": "contracts/QuailFinance.sol:QuailFinance",
								"label": "interestDenominator",
								"offset": 0,
								"slot": "6",
								"type": "t_uint256"
							},
							{
								"astId": 1420,
								"contract": "contracts/QuailFinance.sol:QuailFinance",
								"label": "numParticipants",
								"offset": 0,
								"slot": "7",
								"type": "t_uint256"
							},
							{
								"astId": 1422,
								"contract": "contracts/QuailFinance.sol:QuailFinance",
								"label": "currentRound",
								"offset": 0,
								"slot": "8",
								"type": "t_uint256"
							},
							{
								"astId": 1424,
								"contract": "contracts/QuailFinance.sol:QuailFinance",
								"label": "sequenceNumber",
								"offset": 0,
								"slot": "9",
								"type": "t_uint64"
							},
							{
								"astId": 1426,
								"contract": "contracts/QuailFinance.sol:QuailFinance",
								"label": "potCreator",
								"offset": 8,
								"slot": "9",
								"type": "t_address"
							},
							{
								"astId": 1429,
								"contract": "contracts/QuailFinance.sol:QuailFinance",
								"label": "participants",
								"offset": 0,
								"slot": "10",
								"type": "t_array(t_address)dyn_storage"
							},
							{
								"astId": 1432,
								"contract": "contracts/QuailFinance.sol:QuailFinance",
								"label": "winners",
								"offset": 0,
								"slot": "11",
								"type": "t_array(t_address)dyn_storage"
							},
							{
								"astId": 1436,
								"contract": "contracts/QuailFinance.sol:QuailFinance",
								"label": "contributions",
								"offset": 0,
								"slot": "12",
								"type": "t_mapping(t_address,t_uint256)"
							},
							{
								"astId": 1440,
								"contract": "contracts/QuailFinance.sol:QuailFinance",
								"label": "amountWon",
								"offset": 0,
								"slot": "13",
								"type": "t_mapping(t_address,t_uint256)"
							},
							{
								"astId": 1444,
								"contract": "contracts/QuailFinance.sol:QuailFinance",
								"label": "hasWon",
								"offset": 0,
								"slot": "14",
								"type": "t_mapping(t_address,t_bool)"
							}
						],
						"numberOfBytes": "480"
					},
					"t_uint256": {
						"encoding": "inplace",
						"label": "uint256",
						"numberOfBytes": "32"
					},
					"t_uint64": {
						"encoding": "inplace",
						"label": "uint64",
						"numberOfBytes": "8"
					}
				}
			},
			"userdoc": {
				"kind": "user",
				"methods": {},
				"version": 1
			}
		}
	}
}