{
	"data": {
		"bytecode": {
			"linkReferences": {},
			"object": "6080604052600160035534801562000015575f80fd5b50604051620040473803806200404783398181016040528101906200003b919062000312565b73420000000000000000000000000000000000002273ffffffffffffffffffffffffffffffffffffffff16631a33757d60026040518263ffffffff1660e01b81526004016200008b9190620003d3565b6020604051808303815f875af1158015620000a8573d5f803e3d5ffd5b505050506040513d601f19601f82011682018060405250810190620000ce919062000426565b5073420000000000000000000000000000000000002260055f6101000a81548173ffffffffffffffffffffffffffffffffffffffff021916908373ffffffffffffffffffffffffffffffffffffffff16021790555073430000000000000000000000000000000000000273ffffffffffffffffffffffffffffffffffffffff16634e606c476040518163ffffffff1660e01b81526004015f604051808303815f87803b1580156200017d575f80fd5b505af115801562000190573d5f803e3d5ffd5b50505050732fc95838c71e76ec69ff817983bff17c710f34e073ffffffffffffffffffffffffffffffffffffffff166336b91f2b73e4860d3973802c7c42450d7b9741921c7711d0396040518263ffffffff1660e01b8152600401620001f7919062000467565b5f604051808303815f87803b1580156200020f575f80fd5b505af115801562000222573d5f803e3d5ffd5b50505050815f806101000a81548173ffffffffffffffffffffffffffffffffffffffff021916908373ffffffffffffffffffffffffffffffffffffffff1602179055508060015f6101000a81548173ffffffffffffffffffffffffffffffffffffffff021916908373ffffffffffffffffffffffffffffffffffffffff160217905550505062000482565b5f80fd5b5f73ffffffffffffffffffffffffffffffffffffffff82169050919050565b5f620002dc82620002b1565b9050919050565b620002ee81620002d0565b8114620002f9575f80fd5b50565b5f815190506200030c81620002e3565b92915050565b5f80604083850312156200032b576200032a620002ad565b5b5f6200033a85828601620002fc565b92505060206200034d85828601620002fc565b9150509250929050565b7f4e487b71000000000000000000000000000000000000000000000000000000005f52602160045260245ffd5b6003811062000398576200039762000357565b5b50565b5f819050620003aa8262000384565b919050565b5f620003bb826200039b565b9050919050565b620003cd81620003af565b82525050565b5f602082019050620003e85f830184620003c2565b92915050565b5f819050919050565b6200040281620003ee565b81146200040d575f80fd5b50565b5f815190506200042081620003f7565b92915050565b5f602082840312156200043e576200043d620002ad565b5b5f6200044d8482850162000410565b91505092915050565b6200046181620002d0565b82525050565b5f6020820190506200047c5f83018462000456565b92915050565b613bb780620004905f395ff3fe608060405260043610610129575f3560e01c806377d5d2dc116100aa5780638da5cb5b1161006e5780638da5cb5b1461034157806397d757761461036b578063ae169a5014610395578063bf2d9e0b146103bd578063c3c3df4f146103e7578063f2fde38b1461042d57610129565b806377d5d2dc146102955780637cb64759146102ab5780637d77990c146102d35780638129fc1c1461030f578063831d49ef1461032557610129565b80634a80409e116100f15780634a80409e146101db5780634f573cb21461020557806361e7d8051461021b578063715018a61461024357806373b2e80e1461025957610129565b80630fae64431461012d5780632eb4a7ab1461014957806331a0edec146101735780633cabfefd1461019d578063409a33ce146101c5575b5f80fd5b6101476004803603810190610142919061247b565b610455565b005b348015610154575f80fd5b5061015d6109bb565b60405161016a9190612543565b60405180910390f35b34801561017e575f80fd5b506101876109c1565b60405161019491906125d6565b60405180910390f35b3480156101a8575f80fd5b506101c360048036038101906101be91906125ef565b6109d9565b005b3480156101d0575f80fd5b506101d9611075565b005b3480156101e6575f80fd5b506101ef61119a565b6040516101fc919061265f565b60405180910390f35b348015610210575f80fd5b506102196111bf565b005b348015610226575f80fd5b50610241600480360381019061023c91906126d5565b6112f4565b005b34801561024e575f80fd5b50610257611563565b005b348015610264575f80fd5b5061027f600480360381019061027a919061276d565b611576565b60405161028c91906127a7565b60405180910390f35b3480156102a0575f80fd5b506102a961158b565b005b3480156102b6575f80fd5b506102d160048036038101906102cc91906127c0565b611625565b005b3480156102de575f80fd5b506102f960048036038101906102f491906127eb565b611637565b60405161030691906127a7565b60405180910390f35b34801561031a575f80fd5b50610323611674565b005b61033f600480360381019061033a9190612829565b6117f4565b005b34801561034c575f80fd5b50610355611b2b565b6040516103629190612863565b60405180910390f35b348015610376575f80fd5b5061037f611b60565b60405161038c919061289c565b60405180910390f35b3480156103a0575f80fd5b506103bb60048036038101906103b69190612829565b611b78565b005b3480156103c8575f80fd5b506103d1611d74565b6040516103de91906127a7565b60405180910390f35b3480156103f2575f80fd5b5061040d60048036038101906104089190612829565b611d7a565b6040516104249b9a99989796959493929190612951565b60405180910390f35b348015610438575f80fd5b50610453600480360381019061044e919061276d565b611e89565b005b5f805f9054906101000a900473ffffffffffffffffffffffffffffffffffffffff1673ffffffffffffffffffffffffffffffffffffffff1663b88c914860015f9054906101000a900473ffffffffffffffffffffffffffffffffffffffff166040518263ffffffff1660e01b81526004016104d09190612863565b602060405180830381865afa1580156104eb573d5f803e3d5ffd5b505050506040513d601f19601f8201168201806040525081019061050f9190612a46565b6fffffffffffffffffffffffffffffffff169050803410610565576040517f08c379a000000000000000000000000000000000000000000000000000000000815260040161055c90612abb565b60405180910390fd5b5f86116105a7576040517f08c379a000000000000000000000000000000000000000000000000000000000815260040161059e90612b23565b60405180910390fd5b5f85116105e9576040517f08c379a00000000000000000000000000000000000000000000000000000000081526004016105e090612bb1565b60405180910390fd5b8484111561062c576040517f08c379a000000000000000000000000000000000000000000000000000000000815260040161062390612c3f565b60405180910390fd5b5f60035f81548092919061063f90612c8a565b91905055905060055f9054906101000a900473ffffffffffffffffffffffffffffffffffffffff1673ffffffffffffffffffffffffffffffffffffffff166323b872dd3330866040518463ffffffff1660e01b81526004016106a393929190612cd1565b6020604051808303815f875af11580156106bf573d5f803e3d5ffd5b505050506040513d601f19601f820116820180604052508101906106e39190612d3b565b610722576040517f08c379a000000000000000000000000000000000000000000000000000000000815260040161071990612dd6565b60405180910390fd5b5f805f9054906101000a900473ffffffffffffffffffffffffffffffffffffffff1673ffffffffffffffffffffffffffffffffffffffff166393cbf2178460015f9054906101000a900473ffffffffffffffffffffffffffffffffffffffff168c60016040518563ffffffff1660e01b81526004016107a393929190612e03565b60206040518083038185885af11580156107bf573d5f803e3d5ffd5b50505050506040513d601f19601f820116820180604052508101906107e49190612e62565b90505f60075f8481526020019081526020015f2090508a815f01908161080a919061307e565b508481600101819055505f816002018190555081816009015f6101000a81548167ffffffffffffffff021916908367ffffffffffffffff160217905550338160090160086101000a81548173ffffffffffffffffffffffffffffffffffffffff021916908373ffffffffffffffffffffffffffffffffffffffff160217905550888160030181905550868160050181905550878160060181905550428160040181905550858160070181905550600181600801819055508481600c015f3373ffffffffffffffffffffffffffffffffffffffff1673ffffffffffffffffffffffffffffffffffffffff1681526020019081526020015f208190555080600a0133908060018154018082558091505060019003905f5260205f20015f9091909190916101000a81548173ffffffffffffffffffffffffffffffffffffffff021916908373ffffffffffffffffffffffffffffffffffffffff1602179055507f2ea75defa9ed86be5c1f296ba42849d00ed611c827f9f30a82ab2f1dadc50b88838c33888d8c8e8d8a6040516109a69998979695949392919061314d565b60405180910390a15050505050505050505050565b60025481565b73420000000000000000000000000000000000002281565b3373ffffffffffffffffffffffffffffffffffffffff1660075f8581526020019081526020015f2060090160089054906101000a900473ffffffffffffffffffffffffffffffffffffffff1673ffffffffffffffffffffffffffffffffffffffff1614610a7b576040517f08c379a0000000000000000000000000000000000000000000000000000000008152600401610a729061324f565b60405180910390fd5b5f60075f8581526020019081526020015f20905080600301548160040154610aa3919061326d565b421015610ae5576040517f08c379a0000000000000000000000000000000000000000000000000000000008152600401610adc906132ea565b60405180910390fd5b5f805f9054906101000a900473ffffffffffffffffffffffffffffffffffffffff1673ffffffffffffffffffffffffffffffffffffffff16639371df5160015f9054906101000a900473ffffffffffffffffffffffffffffffffffffffff16846009015f9054906101000a900467ffffffffffffffff1687876040518563ffffffff1660e01b8152600401610b7d9493929190613308565b6020604051808303815f875af1158015610b99573d5f803e3d5ffd5b505050506040513d601f19601f82011682018060405250810190610bbd919061335f565b90505f8260070154825f1c610bd291906133b7565b90505f83600a018281548110610beb57610bea6133e7565b5b905f5260205f20015f9054906101000a900473ffffffffffffffffffffffffffffffffffffffff16905083600b0181908060018154018082558091505060019003905f5260205f20015f9091909190916101000a81548173ffffffffffffffffffffffffffffffffffffffff021916908373ffffffffffffffffffffffffffffffffffffffff160217905550600160075f8981526020019081526020015f20600a0180549050610c9b9190613414565b8214610d7e5760075f8881526020019081526020015f20600a01600160075f8a81526020019081526020015f20600a0180549050610cd99190613414565b81548110610cea57610ce96133e7565b5b905f5260205f20015f9054906101000a900473ffffffffffffffffffffffffffffffffffffffff1660075f8981526020019081526020015f20600a018381548110610d3857610d376133e7565b5b905f5260205f20015f6101000a81548173ffffffffffffffffffffffffffffffffffffffff021916908373ffffffffffffffffffffffffffffffffffffffff1602179055505b60075f8881526020019081526020015f20600a01805480610da257610da1613447565b5b600190038181905f5260205f20015f6101000a81549073ffffffffffffffffffffffffffffffffffffffff021916905590555f846001015485600a0180549050610dec9190613474565b90505f610df882611f0d565b90505f610e058a83611637565b90508087600201819055508082610e1c9190613414565b87600d015f8673ffffffffffffffffffffffffffffffffffffffff1673ffffffffffffffffffffffffffffffffffffffff1681526020019081526020015f2081905550600187600e015f8673ffffffffffffffffffffffffffffffffffffffff1673ffffffffffffffffffffffffffffffffffffffff1681526020019081526020015f205f6101000a81548160ff02191690831515021790555042876004018190555086600a015f610ece919061228f565b60055f9054906101000a900473ffffffffffffffffffffffffffffffffffffffff1673ffffffffffffffffffffffffffffffffffffffff166323b872dd33308a600101546040518463ffffffff1660e01b8152600401610f3093929190612cd1565b6020604051808303815f875af1158015610f4c573d5f803e3d5ffd5b505050506040513d601f19601f82011682018060405250810190610f709190612d3b565b610faf576040517f08c379a0000000000000000000000000000000000000000000000000000000008152600401610fa690612dd6565b60405180910390fd5b86600a0133908060018154018082558091505060019003905f5260205f20015f9091909190916101000a81548173ffffffffffffffffffffffffffffffffffffffff021916908373ffffffffffffffffffffffffffffffffffffffff1602179055507f35cb3811461cb824b245820eee97ab50ee1cc609f2bdd3bb10f5f0010184a7d38a858960080154604051611048939291906134b5565b60405180910390a1866008015f81548092919061106490612c8a565b919050555050505050505050505050565b61107d611f4a565b73420000000000000000000000000000000000002273ffffffffffffffffffffffffffffffffffffffff1663aad3ec963073420000000000000000000000000000000000002273ffffffffffffffffffffffffffffffffffffffff1663e12f3a61306040518263ffffffff1660e01b81526004016110fb9190612863565b602060405180830381865afa158015611116573d5f803e3d5ffd5b505050506040513d601f19601f8201168201806040525081019061113a91906134fe565b6040518363ffffffff1660e01b8152600401611157929190613529565b6020604051808303815f875af1158015611173573d5f803e3d5ffd5b505050506040513d601f19601f8201168201806040525081019061119791906134fe565b50565b60055f9054906101000a900473ffffffffffffffffffffffffffffffffffffffff1681565b6111c7611f4a565b5f60045490505f811161120f576040517f08c379a00000000000000000000000000000000000000000000000000000000081526004016112069061359a565b60405180910390fd5b5f60048190555060055f9054906101000a900473ffffffffffffffffffffffffffffffffffffffff1673ffffffffffffffffffffffffffffffffffffffff1663a9059cbb30836040518363ffffffff1660e01b8152600401611272929190613529565b6020604051808303815f875af115801561128e573d5f803e3d5ffd5b505050506040513d601f19601f820116820180604052508101906112b29190612d3b565b6112f1576040517f08c379a00000000000000000000000000000000000000000000000000000000081526004016112e890613602565b60405180910390fd5b50565b5f3384604051602001611308929190613685565b60405160208183030381529060405280519060200120905061136d8383808060200260200160405190810160405280939291908181526020018383602002808284375f81840152601f19601f8201169050808301925050505050505060025483611fd1565b6113ac576040517f08c379a00000000000000000000000000000000000000000000000000000000081526004016113a3906136fa565b60405180910390fd5b5f60065f3373ffffffffffffffffffffffffffffffffffffffff1673ffffffffffffffffffffffffffffffffffffffff1681526020019081526020015f2054905084811061142f576040517f08c379a000000000000000000000000000000000000000000000000000000000815260040161142690613788565b60405180910390fd5b5f818661143c9190613414565b90508560065f3373ffffffffffffffffffffffffffffffffffffffff1673ffffffffffffffffffffffffffffffffffffffff1681526020019081526020015f208190555060055f9054906101000a900473ffffffffffffffffffffffffffffffffffffffff1673ffffffffffffffffffffffffffffffffffffffff1663a9059cbb33836040518363ffffffff1660e01b81526004016114dc929190613529565b6020604051808303815f875af11580156114f8573d5f803e3d5ffd5b505050506040513d601f19601f8201168201806040525081019061151c9190612d3b565b61155b576040517f08c379a0000000000000000000000000000000000000000000000000000000008152600401611552906137f0565b60405180910390fd5b505050505050565b61156b611f4a565b6115745f611fe7565b565b6006602052805f5260405f205f915090505481565b611593611f4a565b73430000000000000000000000000000000000000273ffffffffffffffffffffffffffffffffffffffff1663954fa5ee30306040518363ffffffff1660e01b81526004016115e292919061380e565b6020604051808303815f875af11580156115fe573d5f803e3d5ffd5b505050506040513d601f19601f8201168201806040525081019061162291906134fe565b50565b61162d611f4a565b8060028190555050565b5f8060075f8581526020019081526020015f20905080600601548160050154846116619190613474565b61166b9190613835565b91505092915050565b5f61167d6120b8565b90505f815f0160089054906101000a900460ff161590505f825f015f9054906101000a900467ffffffffffffffff1690505f808267ffffffffffffffff161480156116c55750825b90505f60018367ffffffffffffffff161480156116f857505f3073ffffffffffffffffffffffffffffffffffffffff163b145b905081158015611706575080155b1561173d576040517ff92ee8a900000000000000000000000000000000000000000000000000000000815260040160405180910390fd5b6001855f015f6101000a81548167ffffffffffffffff021916908367ffffffffffffffff160217905550831561178a576001855f0160086101000a81548160ff0219169083151502179055505b611793336120df565b83156117ed575f855f0160086101000a81548160ff0219169083151502179055507fc7f505b2f371ae2175ee4913f4499e1f2633a7b5936321eed1cdaeb6115181d260016040516117e4919061389e565b60405180910390a15b5050505050565b5f60075f8381526020019081526020015f209050806007015481600a018054905010611855576040517f08c379a000000000000000000000000000000000000000000000000000000000815260040161184c90613901565b60405180910390fd5b806008015481600101546118699190613474565b81600c015f3373ffffffffffffffffffffffffffffffffffffffff1673ffffffffffffffffffffffffffffffffffffffff1681526020019081526020015f2054146118e9576040517f08c379a00000000000000000000000000000000000000000000000000000000081526004016118e09061398f565b60405180910390fd5b60055f9054906101000a900473ffffffffffffffffffffffffffffffffffffffff1673ffffffffffffffffffffffffffffffffffffffff166323b872dd333084600101546040518463ffffffff1660e01b815260040161194b93929190612cd1565b6020604051808303815f875af1158015611967573d5f803e3d5ffd5b505050506040513d601f19601f8201168201806040525081019061198b9190612d3b565b6119ca576040517f08c379a00000000000000000000000000000000000000000000000000000000081526004016119c1906139f7565b60405180910390fd5b806001015481600c015f3373ffffffffffffffffffffffffffffffffffffffff1673ffffffffffffffffffffffffffffffffffffffff1681526020019081526020015f20819055506001151581600e015f3373ffffffffffffffffffffffffffffffffffffffff1673ffffffffffffffffffffffffffffffffffffffff1681526020019081526020015f205f9054906101000a900460ff16151514611acc5780600a0133908060018154018082558091505060019003905f5260205f20015f9091909190916101000a81548173ffffffffffffffffffffffffffffffffffffffff021916908373ffffffffffffffffffffffffffffffffffffffff1602179055505b7f43d2f309913f6afc5d717f60864d2d192b69963d25204b6a12765e2795bf027f82825f013384600101548560030154866005015487600601548860070154604051611b1f989796959493929190613a96565b60405180910390a15050565b5f80611b356120f3565b9050805f015f9054906101000a900473ffffffffffffffffffffffffffffffffffffffff1691505090565b73430000000000000000000000000000000000000281565b5f60075f8381526020019081526020015f2090505f81600d015f3373ffffffffffffffffffffffffffffffffffffffff1673ffffffffffffffffffffffffffffffffffffffff1681526020019081526020015f205411611c0d576040517f08c379a0000000000000000000000000000000000000000000000000000000008152600401611c0490613b63565b60405180910390fd5b5f81600d015f3373ffffffffffffffffffffffffffffffffffffffff1673ffffffffffffffffffffffffffffffffffffffff1681526020019081526020015f205490505f82600d015f3373ffffffffffffffffffffffffffffffffffffffff1673ffffffffffffffffffffffffffffffffffffffff1681526020019081526020015f208190555060055f9054906101000a900473ffffffffffffffffffffffffffffffffffffffff1673ffffffffffffffffffffffffffffffffffffffff1663a9059cbb33836040518363ffffffff1660e01b8152600401611cf0929190613529565b6020604051808303815f875af1158015611d0c573d5f803e3d5ffd5b505050506040513d601f19601f82011682018060405250810190611d309190612d3b565b611d6f576040517f08c379a0000000000000000000000000000000000000000000000000000000008152600401611d66906139f7565b60405180910390fd5b505050565b60045481565b6007602052805f5260405f205f91509050805f018054611d9990612eba565b80601f0160208091040260200160405190810160405280929190818152602001828054611dc590612eba565b8015611e105780601f10611de757610100808354040283529160200191611e10565b820191905f5260205f20905b815481529060010190602001808311611df357829003601f168201915b505050505090806001015490806002015490806003015490806004015490806005015490806006015490806007015490806008015490806009015f9054906101000a900467ffffffffffffffff16908060090160089054906101000a900473ffffffffffffffffffffffffffffffffffffffff1690508b565b611e91611f4a565b5f73ffffffffffffffffffffffffffffffffffffffff168173ffffffffffffffffffffffffffffffffffffffff1603611f01575f6040517f1e4fbdf7000000000000000000000000000000000000000000000000000000008152600401611ef89190612863565b60405180910390fd5b611f0a81611fe7565b50565b5f80606483611f1c9190613835565b90508083611f2a9190613414565b91508060045f828254611f3d919061326d565b9250508190555050919050565b611f5261211a565b73ffffffffffffffffffffffffffffffffffffffff16611f70611b2b565b73ffffffffffffffffffffffffffffffffffffffff1614611fcf57611f9361211a565b6040517f118cdaa7000000000000000000000000000000000000000000000000000000008152600401611fc69190612863565b60405180910390fd5b565b5f82611fdd8584612121565b1490509392505050565b5f611ff06120f3565b90505f815f015f9054906101000a900473ffffffffffffffffffffffffffffffffffffffff16905082825f015f6101000a81548173ffffffffffffffffffffffffffffffffffffffff021916908373ffffffffffffffffffffffffffffffffffffffff1602179055508273ffffffffffffffffffffffffffffffffffffffff168173ffffffffffffffffffffffffffffffffffffffff167f8be0079c531659141344cd1fd0a4f28419497f9722a3daafe3b4186f6b6457e060405160405180910390a3505050565b5f7ff0c57e16840df040f15088dc2f81fe391c3923bec73e23a9662efc9c229c6a00905090565b6120e761216f565b6120f0816121af565b50565b5f7f9016d09d72d40fdae2fd8ceac6b6234c7706214fd39c1cd1e609a0528c199300905090565b5f33905090565b5f808290505f5b84518110156121645761215582868381518110612148576121476133e7565b5b6020026020010151612233565b91508080600101915050612128565b508091505092915050565b61217761225d565b6121ad576040517fd7e6bcf800000000000000000000000000000000000000000000000000000000815260040160405180910390fd5b565b6121b761216f565b5f73ffffffffffffffffffffffffffffffffffffffff168173ffffffffffffffffffffffffffffffffffffffff1603612227575f6040517f1e4fbdf700000000000000000000000000000000000000000000000000000000815260040161221e9190612863565b60405180910390fd5b61223081611fe7565b50565b5f81831061224a57612245828461227b565b612255565b612254838361227b565b5b905092915050565b5f6122666120b8565b5f0160089054906101000a900460ff16905090565b5f825f528160205260405f20905092915050565b5080545f8255905f5260205f20908101906122aa91906122ad565b50565b5b808211156122c4575f815f9055506001016122ae565b5090565b5f604051905090565b5f80fd5b5f80fd5b5f80fd5b5f80fd5b5f601f19601f8301169050919050565b7f4e487b71000000000000000000000000000000000000000000000000000000005f52604160045260245ffd5b612327826122e1565b810181811067ffffffffffffffff82111715612346576123456122f1565b5b80604052505050565b5f6123586122c8565b9050612364828261231e565b919050565b5f67ffffffffffffffff821115612383576123826122f1565b5b61238c826122e1565b9050602081019050919050565b828183375f83830152505050565b5f6123b96123b484612369565b61234f565b9050828152602081018484840111156123d5576123d46122dd565b5b6123e0848285612399565b509392505050565b5f82601f8301126123fc576123fb6122d9565b5b813561240c8482602086016123a7565b91505092915050565b5f819050919050565b61242781612415565b8114612431575f80fd5b50565b5f813590506124428161241e565b92915050565b5f819050919050565b61245a81612448565b8114612464575f80fd5b50565b5f8135905061247581612451565b92915050565b5f805f805f805f60e0888a031215612496576124956122d1565b5b5f88013567ffffffffffffffff8111156124b3576124b26122d5565b5b6124bf8a828b016123e8565b97505060206124d08a828b01612434565b96505060406124e18a828b01612467565b95505060606124f28a828b01612467565b94505060806125038a828b01612467565b93505060a06125148a828b01612467565b92505060c06125258a828b01612467565b91505092959891949750929550565b61253d81612415565b82525050565b5f6020820190506125565f830184612534565b92915050565b5f73ffffffffffffffffffffffffffffffffffffffff82169050919050565b5f819050919050565b5f61259e6125996125948461255c565b61257b565b61255c565b9050919050565b5f6125af82612584565b9050919050565b5f6125c0826125a5565b9050919050565b6125d0816125b6565b82525050565b5f6020820190506125e95f8301846125c7565b92915050565b5f805f60608486031215612606576126056122d1565b5b5f61261386828701612467565b935050602061262486828701612434565b925050604061263586828701612434565b9150509250925092565b5f612649826125a5565b9050919050565b6126598161263f565b82525050565b5f6020820190506126725f830184612650565b92915050565b5f80fd5b5f80fd5b5f8083601f840112612695576126946122d9565b5b8235905067ffffffffffffffff8111156126b2576126b1612678565b5b6020830191508360208202830111156126ce576126cd61267c565b5b9250929050565b5f805f604084860312156126ec576126eb6122d1565b5b5f6126f986828701612467565b935050602084013567ffffffffffffffff81111561271a576127196122d5565b5b61272686828701612680565b92509250509250925092565b5f61273c8261255c565b9050919050565b61274c81612732565b8114612756575f80fd5b50565b5f8135905061276781612743565b92915050565b5f60208284031215612782576127816122d1565b5b5f61278f84828501612759565b91505092915050565b6127a181612448565b82525050565b5f6020820190506127ba5f830184612798565b92915050565b5f602082840312156127d5576127d46122d1565b5b5f6127e284828501612434565b91505092915050565b5f8060408385031215612801576128006122d1565b5b5f61280e85828601612467565b925050602061281f85828601612467565b9150509250929050565b5f6020828403121561283e5761283d6122d1565b5b5f61284b84828501612467565b91505092915050565b61285d81612732565b82525050565b5f6020820190506128765f830184612854565b92915050565b5f612886826125a5565b9050919050565b6128968161287c565b82525050565b5f6020820190506128af5f83018461288d565b92915050565b5f81519050919050565b5f82825260208201905092915050565b5f5b838110156128ec5780820151818401526020810190506128d1565b5f8484015250505050565b5f612901826128b5565b61290b81856128bf565b935061291b8185602086016128cf565b612924816122e1565b840191505092915050565b5f67ffffffffffffffff82169050919050565b61294b8161292f565b82525050565b5f610160820190508181035f83015261296a818e6128f7565b9050612979602083018d612798565b612986604083018c612798565b612993606083018b612798565b6129a0608083018a612798565b6129ad60a0830189612798565b6129ba60c0830188612798565b6129c760e0830187612798565b6129d5610100830186612798565b6129e3610120830185612942565b6129f1610140830184612854565b9c9b505050505050505050505050565b5f6fffffffffffffffffffffffffffffffff82169050919050565b612a2581612a01565b8114612a2f575f80fd5b50565b5f81519050612a4081612a1c565b92915050565b5f60208284031215612a5b57612a5a6122d1565b5b5f612a6884828501612a32565b91505092915050565b7f496e73756666696369656e7420666565000000000000000000000000000000005f82015250565b5f612aa56010836128bf565b9150612ab082612a71565b602082019050919050565b5f6020820190508181035f830152612ad281612a99565b9050919050565b7f526f746174696f6e206379636c65206d75737420626520706f736974697665005f82015250565b5f612b0d601f836128bf565b9150612b1882612ad9565b602082019050919050565b5f6020820190508181035f830152612b3a81612b01565b9050919050565b7f496e7465726573742064656e6f6d696e61746f72206d75737420626520706f735f8201527f6974697665000000000000000000000000000000000000000000000000000000602082015250565b5f612b9b6025836128bf565b9150612ba682612b41565b604082019050919050565b5f6020820190508181035f830152612bc881612b8f565b9050919050565b7f4e756d657261746f72206d757374206265206c657373207468616e206f7220655f8201527f7175616c20746f2064656e6f6d696e61746f7200000000000000000000000000602082015250565b5f612c296033836128bf565b9150612c3482612bcf565b604082019050919050565b5f6020820190508181035f830152612c5681612c1d565b9050919050565b7f4e487b71000000000000000000000000000000000000000000000000000000005f52601160045260245ffd5b5f612c9482612448565b91507fffffffffffffffffffffffffffffffffffffffffffffffffffffffffffffffff8203612cc657612cc5612c5d565b5b600182019050919050565b5f606082019050612ce45f830186612854565b612cf16020830185612854565b612cfe6040830184612798565b949350505050565b5f8115159050919050565b612d1a81612d06565b8114612d24575f80fd5b50565b5f81519050612d3581612d11565b92915050565b5f60208284031215612d5057612d4f6122d1565b5b5f612d5d84828501612d27565b91505092915050565b7f43726561746f722073686f756c64206465706f7369742074686520696e6974695f8201527f616c20616d6f756e740000000000000000000000000000000000000000000000602082015250565b5f612dc06029836128bf565b9150612dcb82612d66565b604082019050919050565b5f6020820190508181035f830152612ded81612db4565b9050919050565b612dfd81612d06565b82525050565b5f606082019050612e165f830186612854565b612e236020830185612534565b612e306040830184612df4565b949350505050565b612e418161292f565b8114612e4b575f80fd5b50565b5f81519050612e5c81612e38565b92915050565b5f60208284031215612e7757612e766122d1565b5b5f612e8484828501612e4e565b91505092915050565b7f4e487b71000000000000000000000000000000000000000000000000000000005f52602260045260245ffd5b5f6002820490506001821680612ed157607f821691505b602082108103612ee457612ee3612e8d565b5b50919050565b5f819050815f5260205f209050919050565b5f6020601f8301049050919050565b5f82821b905092915050565b5f60088302612f467fffffffffffffffffffffffffffffffffffffffffffffffffffffffffffffffff82612f0b565b612f508683612f0b565b95508019841693508086168417925050509392505050565b5f612f82612f7d612f7884612448565b61257b565b612448565b9050919050565b5f819050919050565b612f9b83612f68565b612faf612fa782612f89565b848454612f17565b825550505050565b5f90565b612fc3612fb7565b612fce818484612f92565b505050565b5b81811015612ff157612fe65f82612fbb565b600181019050612fd4565b5050565b601f8211156130365761300781612eea565b61301084612efc565b8101602085101561301f578190505b61303361302b85612efc565b830182612fd3565b50505b505050565b5f82821c905092915050565b5f6130565f198460080261303b565b1980831691505092915050565b5f61306e8383613047565b9150826002028217905092915050565b613087826128b5565b67ffffffffffffffff8111156130a05761309f6122f1565b5b6130aa8254612eba565b6130b5828285612ff5565b5f60209050601f8311600181146130e6575f84156130d4578287015190505b6130de8582613063565b865550613145565b601f1984166130f486612eea565b5f5b8281101561311b578489015182556001820191506020850194506020810190506130f6565b868310156131385784890151613134601f891682613047565b8355505b6001600288020188555050505b505050505050565b5f610120820190506131615f83018c612798565b8181036020830152613173818b6128f7565b9050613182604083018a612854565b61318f6060830189612798565b61319c6080830188612798565b6131a960a0830187612798565b6131b660c0830186612798565b6131c360e0830185612798565b6131d1610100830184612942565b9a9950505050505050505050565b7f4f6e6c792074686520706f742063726561746f722063616e2072657665616c205f8201527f7468652077696e6e657200000000000000000000000000000000000000000000602082015250565b5f613239602a836128bf565b9150613244826131df565b604082019050919050565b5f6020820190508181035f8301526132668161322d565b9050919050565b5f61327782612448565b915061328283612448565b925082820190508082111561329a57613299612c5d565b5b92915050565b7f4e65787420726f746174696f6e206e6f742079657420647565000000000000005f82015250565b5f6132d46019836128bf565b91506132df826132a0565b602082019050919050565b5f6020820190508181035f830152613301816132c8565b9050919050565b5f60808201905061331b5f830187612854565b6133286020830186612942565b6133356040830185612534565b6133426060830184612534565b95945050505050565b5f815190506133598161241e565b92915050565b5f60208284031215613374576133736122d1565b5b5f6133818482850161334b565b91505092915050565b7f4e487b71000000000000000000000000000000000000000000000000000000005f52601260045260245ffd5b5f6133c182612448565b91506133cc83612448565b9250826133dc576133db61338a565b5b828206905092915050565b7f4e487b71000000000000000000000000000000000000000000000000000000005f52603260045260245ffd5b5f61341e82612448565b915061342983612448565b925082820390508181111561344157613440612c5d565b5b92915050565b7f4e487b71000000000000000000000000000000000000000000000000000000005f52603160045260245ffd5b5f61347e82612448565b915061348983612448565b925082820261349781612448565b915082820484148315176134ae576134ad612c5d565b5b5092915050565b5f6060820190506134c85f830186612798565b6134d56020830185612854565b6134e26040830184612798565b949350505050565b5f815190506134f881612451565b92915050565b5f60208284031215613513576135126122d1565b5b5f613520848285016134ea565b91505092915050565b5f60408201905061353c5f830185612854565b6135496020830184612798565b9392505050565b7f4e6f20726576656e756520746f207769746864726177000000000000000000005f82015250565b5f6135846016836128bf565b915061358f82613550565b602082019050919050565b5f6020820190508181035f8301526135b181613578565b9050919050565b7f526576656e7565207769746864726177616c206661696c6564000000000000005f82015250565b5f6135ec6019836128bf565b91506135f7826135b8565b602082019050919050565b5f6020820190508181035f830152613619816135e0565b9050919050565b5f8160601b9050919050565b5f61363682613620565b9050919050565b5f6136478261362c565b9050919050565b61365f61365a82612732565b61363d565b82525050565b5f819050919050565b61367f61367a82612448565b613665565b82525050565b5f613690828561364e565b6014820191506136a0828461366e565b6020820191508190509392505050565b7f496e76616c69642070726f6f662e0000000000000000000000000000000000005f82015250565b5f6136e4600e836128bf565b91506136ef826136b0565b602082019050919050565b5f6020820190508181035f830152613711816136d8565b9050919050565b7f4e6f2066756e6473206c65667420746f20636c61696d206f7220616c726561645f8201527f7920636c61696d65642e00000000000000000000000000000000000000000000602082015250565b5f613772602a836128bf565b915061377d82613718565b604082019050919050565b5f6020820190508181035f83015261379f81613766565b9050919050565b7f5969656c64207472616e73666572206661696c656400000000000000000000005f82015250565b5f6137da6015836128bf565b91506137e5826137a6565b602082019050919050565b5f6020820190508181035f830152613807816137ce565b9050919050565b5f6040820190506138215f830185612854565b61382e6020830184612854565b9392505050565b5f61383f82612448565b915061384a83612448565b92508261385a5761385961338a565b5b828204905092915050565b5f819050919050565b5f61388861388361387e84613865565b61257b565b61292f565b9050919050565b6138988161386e565b82525050565b5f6020820190506138b15f83018461388f565b92915050565b7f506f742069732066756c6c0000000000000000000000000000000000000000005f82015250565b5f6138eb600b836128bf565b91506138f6826138b7565b602082019050919050565b5f6020820190508181035f830152613918816138df565b9050919050565b7f416c7265616479206a6f696e6564206f72206d69737365642061206465706f735f8201527f6974000000000000000000000000000000000000000000000000000000000000602082015250565b5f6139796022836128bf565b91506139848261391f565b604082019050919050565b5f6020820190508181035f8301526139a68161396d565b9050919050565b7f5472616e73666572206661696c656400000000000000000000000000000000005f82015250565b5f6139e1600f836128bf565b91506139ec826139ad565b602082019050919050565b5f6020820190508181035f830152613a0e816139d5565b9050919050565b5f8154613a2181612eba565b613a2b81866128bf565b9450600182165f8114613a455760018114613a5b57613a8d565b60ff198316865281151560200286019350613a8d565b613a6485612eea565b5f5b83811015613a8557815481890152600182019150602081019050613a66565b808801955050505b50505092915050565b5f61010082019050613aaa5f83018b612798565b8181036020830152613abc818a613a15565b9050613acb6040830189612854565b613ad86060830188612798565b613ae56080830187612798565b613af260a0830186612798565b613aff60c0830185612798565b613b0c60e0830184612798565b9998505050505050505050565b7f4e6f2072657761726420746f20636c61696d00000000000000000000000000005f82015250565b5f613b4d6012836128bf565b9150613b5882613b19565b602082019050919050565b5f6020820190508181035f830152613b7a81613b41565b905091905056fea264697066735822122021f1b133d00f25b22604b9054b2975e2292cb3876cf3616942716c2ff253f1e764736f6c63430008180033",
			"opcodes": "PUSH1 0x80 PUSH1 0x40 MSTORE PUSH1 0x1 PUSH1 0x3 SSTORE CALLVALUE DUP1 ISZERO PUSH3 0x15 JUMPI PUSH0 DUP1 REVERT JUMPDEST POP PUSH1 0x40 MLOAD PUSH3 0x4047 CODESIZE SUB DUP1 PUSH3 0x4047 DUP4 CODECOPY DUP2 DUP2 ADD PUSH1 0x40 MSTORE DUP2 ADD SWAP1 PUSH3 0x3B SWAP2 SWAP1 PUSH3 0x312 JUMP JUMPDEST PUSH20 0x4200000000000000000000000000000000000022 PUSH20 0xFFFFFFFFFFFFFFFFFFFFFFFFFFFFFFFFFFFFFFFF AND PUSH4 0x1A33757D PUSH1 0x2 PUSH1 0x40 MLOAD DUP3 PUSH4 0xFFFFFFFF AND PUSH1 0xE0 SHL DUP2 MSTORE PUSH1 0x4 ADD PUSH3 0x8B SWAP2 SWAP1 PUSH3 0x3D3 JUMP JUMPDEST PUSH1 0x20 PUSH1 0x40 MLOAD DUP1 DUP4 SUB DUP2 PUSH0 DUP8 GAS CALL ISZERO DUP1 ISZERO PUSH3 0xA8 JUMPI RETURNDATASIZE PUSH0 DUP1 RETURNDATACOPY RETURNDATASIZE PUSH0 REVERT JUMPDEST POP POP POP POP PUSH1 0x40 MLOAD RETURNDATASIZE PUSH1 0x1F NOT PUSH1 0x1F DUP3 ADD AND DUP3 ADD DUP1 PUSH1 0x40 MSTORE POP DUP2 ADD SWAP1 PUSH3 0xCE SWAP2 SWAP1 PUSH3 0x426 JUMP JUMPDEST POP PUSH20 0x4200000000000000000000000000000000000022 PUSH1 0x5 PUSH0 PUSH2 0x100 EXP DUP2 SLOAD DUP2 PUSH20 0xFFFFFFFFFFFFFFFFFFFFFFFFFFFFFFFFFFFFFFFF MUL NOT AND SWAP1 DUP4 PUSH20 0xFFFFFFFFFFFFFFFFFFFFFFFFFFFFFFFFFFFFFFFF AND MUL OR SWAP1 SSTORE POP PUSH20 0x4300000000000000000000000000000000000002 PUSH20 0xFFFFFFFFFFFFFFFFFFFFFFFFFFFFFFFFFFFFFFFF AND PUSH4 0x4E606C47 PUSH1 0x40 MLOAD DUP2 PUSH4 0xFFFFFFFF AND PUSH1 0xE0 SHL DUP2 MSTORE PUSH1 0x4 ADD PUSH0 PUSH1 0x40 MLOAD DUP1 DUP4 SUB DUP2 PUSH0 DUP8 DUP1 EXTCODESIZE ISZERO DUP1 ISZERO PUSH3 0x17D JUMPI PUSH0 DUP1 REVERT JUMPDEST POP GAS CALL ISZERO DUP1 ISZERO PUSH3 0x190 JUMPI RETURNDATASIZE PUSH0 DUP1 RETURNDATACOPY RETURNDATASIZE PUSH0 REVERT JUMPDEST POP POP POP POP PUSH20 0x2FC95838C71E76EC69FF817983BFF17C710F34E0 PUSH20 0xFFFFFFFFFFFFFFFFFFFFFFFFFFFFFFFFFFFFFFFF AND PUSH4 0x36B91F2B PUSH20 0xE4860D3973802C7C42450D7B9741921C7711D039 PUSH1 0x40 MLOAD DUP3 PUSH4 0xFFFFFFFF AND PUSH1 0xE0 SHL DUP2 MSTORE PUSH1 0x4 ADD PUSH3 0x1F7 SWAP2 SWAP1 PUSH3 0x467 JUMP JUMPDEST PUSH0 PUSH1 0x40 MLOAD DUP1 DUP4 SUB DUP2 PUSH0 DUP8 DUP1 EXTCODESIZE ISZERO DUP1 ISZERO PUSH3 0x20F JUMPI PUSH0 DUP1 REVERT JUMPDEST POP GAS CALL ISZERO DUP1 ISZERO PUSH3 0x222 JUMPI RETURNDATASIZE PUSH0 DUP1 RETURNDATACOPY RETURNDATASIZE PUSH0 REVERT JUMPDEST POP POP POP POP DUP2 PUSH0 DUP1 PUSH2 0x100 EXP DUP2 SLOAD DUP2 PUSH20 0xFFFFFFFFFFFFFFFFFFFFFFFFFFFFFFFFFFFFFFFF MUL NOT AND SWAP1 DUP4 PUSH20 0xFFFFFFFFFFFFFFFFFFFFFFFFFFFFFFFFFFFFFFFF AND MUL OR SWAP1 SSTORE POP DUP1 PUSH1 0x1 PUSH0 PUSH2 0x100 EXP DUP2 SLOAD DUP2 PUSH20 0xFFFFFFFFFFFFFFFFFFFFFFFFFFFFFFFFFFFFFFFF MUL NOT AND SWAP1 DUP4 PUSH20 0xFFFFFFFFFFFFFFFFFFFFFFFFFFFFFFFFFFFFFFFF AND MUL OR SWAP1 SSTORE POP POP POP PUSH3 0x482 JUMP JUMPDEST PUSH0 DUP1 REVERT JUMPDEST PUSH0 PUSH20 0xFFFFFFFFFFFFFFFFFFFFFFFFFFFFFFFFFFFFFFFF DUP3 AND SWAP1 POP SWAP2 SWAP1 POP JUMP JUMPDEST PUSH0 PUSH3 0x2DC DUP3 PUSH3 0x2B1 JUMP JUMPDEST SWAP1 POP SWAP2 SWAP1 POP JUMP JUMPDEST PUSH3 0x2EE DUP2 PUSH3 0x2D0 JUMP JUMPDEST DUP2 EQ PUSH3 0x2F9 JUMPI PUSH0 DUP1 REVERT JUMPDEST POP JUMP JUMPDEST PUSH0 DUP2 MLOAD SWAP1 POP PUSH3 0x30C DUP2 PUSH3 0x2E3 JUMP JUMPDEST SWAP3 SWAP2 POP POP JUMP JUMPDEST PUSH0 DUP1 PUSH1 0x40 DUP4 DUP6 SUB SLT ISZERO PUSH3 0x32B JUMPI PUSH3 0x32A PUSH3 0x2AD JUMP JUMPDEST JUMPDEST PUSH0 PUSH3 0x33A DUP6 DUP3 DUP7 ADD PUSH3 0x2FC JUMP JUMPDEST SWAP3 POP POP PUSH1 0x20 PUSH3 0x34D DUP6 DUP3 DUP7 ADD PUSH3 0x2FC JUMP JUMPDEST SWAP2 POP POP SWAP3 POP SWAP3 SWAP1 POP JUMP JUMPDEST PUSH32 0x4E487B7100000000000000000000000000000000000000000000000000000000 PUSH0 MSTORE PUSH1 0x21 PUSH1 0x4 MSTORE PUSH1 0x24 PUSH0 REVERT JUMPDEST PUSH1 0x3 DUP2 LT PUSH3 0x398 JUMPI PUSH3 0x397 PUSH3 0x357 JUMP JUMPDEST JUMPDEST POP JUMP JUMPDEST PUSH0 DUP2 SWAP1 POP PUSH3 0x3AA DUP3 PUSH3 0x384 JUMP JUMPDEST SWAP2 SWAP1 POP JUMP JUMPDEST PUSH0 PUSH3 0x3BB DUP3 PUSH3 0x39B JUMP JUMPDEST SWAP1 POP SWAP2 SWAP1 POP JUMP JUMPDEST PUSH3 0x3CD DUP2 PUSH3 0x3AF JUMP JUMPDEST DUP3 MSTORE POP POP JUMP JUMPDEST PUSH0 PUSH1 0x20 DUP3 ADD SWAP1 POP PUSH3 0x3E8 PUSH0 DUP4 ADD DUP5 PUSH3 0x3C2 JUMP JUMPDEST SWAP3 SWAP2 POP POP JUMP JUMPDEST PUSH0 DUP2 SWAP1 POP SWAP2 SWAP1 POP JUMP JUMPDEST PUSH3 0x402 DUP2 PUSH3 0x3EE JUMP JUMPDEST DUP2 EQ PUSH3 0x40D JUMPI PUSH0 DUP1 REVERT JUMPDEST POP JUMP JUMPDEST PUSH0 DUP2 MLOAD SWAP1 POP PUSH3 0x420 DUP2 PUSH3 0x3F7 JUMP JUMPDEST SWAP3 SWAP2 POP POP JUMP JUMPDEST PUSH0 PUSH1 0x20 DUP3 DUP5 SUB SLT ISZERO PUSH3 0x43E JUMPI PUSH3 0x43D PUSH3 0x2AD JUMP JUMPDEST JUMPDEST PUSH0 PUSH3 0x44D DUP5 DUP3 DUP6 ADD PUSH3 0x410 JUMP JUMPDEST SWAP2 POP POP SWAP3 SWAP2 POP POP JUMP JUMPDEST PUSH3 0x461 DUP2 PUSH3 0x2D0 JUMP JUMPDEST DUP3 MSTORE POP POP JUMP JUMPDEST PUSH0 PUSH1 0x20 DUP3 ADD SWAP1 POP PUSH3 0x47C PUSH0 DUP4 ADD DUP5 PUSH3 0x456 JUMP JUMPDEST SWAP3 SWAP2 POP POP JUMP JUMPDEST PUSH2 0x3BB7 DUP1 PUSH3 0x490 PUSH0 CODECOPY PUSH0 RETURN INVALID PUSH1 0x80 PUSH1 0x40 MSTORE PUSH1 0x4 CALLDATASIZE LT PUSH2 0x129 JUMPI PUSH0 CALLDATALOAD PUSH1 0xE0 SHR DUP1 PUSH4 0x77D5D2DC GT PUSH2 0xAA JUMPI DUP1 PUSH4 0x8DA5CB5B GT PUSH2 0x6E JUMPI DUP1 PUSH4 0x8DA5CB5B EQ PUSH2 0x341 JUMPI DUP1 PUSH4 0x97D75776 EQ PUSH2 0x36B JUMPI DUP1 PUSH4 0xAE169A50 EQ PUSH2 0x395 JUMPI DUP1 PUSH4 0xBF2D9E0B EQ PUSH2 0x3BD JUMPI DUP1 PUSH4 0xC3C3DF4F EQ PUSH2 0x3E7 JUMPI DUP1 PUSH4 0xF2FDE38B EQ PUSH2 0x42D JUMPI PUSH2 0x129 JUMP JUMPDEST DUP1 PUSH4 0x77D5D2DC EQ PUSH2 0x295 JUMPI DUP1 PUSH4 0x7CB64759 EQ PUSH2 0x2AB JUMPI DUP1 PUSH4 0x7D77990C EQ PUSH2 0x2D3 JUMPI DUP1 PUSH4 0x8129FC1C EQ PUSH2 0x30F JUMPI DUP1 PUSH4 0x831D49EF EQ PUSH2 0x325 JUMPI PUSH2 0x129 JUMP JUMPDEST DUP1 PUSH4 0x4A80409E GT PUSH2 0xF1 JUMPI DUP1 PUSH4 0x4A80409E EQ PUSH2 0x1DB JUMPI DUP1 PUSH4 0x4F573CB2 EQ PUSH2 0x205 JUMPI DUP1 PUSH4 0x61E7D805 EQ PUSH2 0x21B JUMPI DUP1 PUSH4 0x715018A6 EQ PUSH2 0x243 JUMPI DUP1 PUSH4 0x73B2E80E EQ PUSH2 0x259 JUMPI PUSH2 0x129 JUMP JUMPDEST DUP1 PUSH4 0xFAE6443 EQ PUSH2 0x12D JUMPI DUP1 PUSH4 0x2EB4A7AB EQ PUSH2 0x149 JUMPI DUP1 PUSH4 0x31A0EDEC EQ PUSH2 0x173 JUMPI DUP1 PUSH4 0x3CABFEFD EQ PUSH2 0x19D JUMPI DUP1 PUSH4 0x409A33CE EQ PUSH2 0x1C5 JUMPI JUMPDEST PUSH0 DUP1 REVERT JUMPDEST PUSH2 0x147 PUSH1 0x4 DUP1 CALLDATASIZE SUB DUP2 ADD SWAP1 PUSH2 0x142 SWAP2 SWAP1 PUSH2 0x247B JUMP JUMPDEST PUSH2 0x455 JUMP JUMPDEST STOP JUMPDEST CALLVALUE DUP1 ISZERO PUSH2 0x154 JUMPI PUSH0 DUP1 REVERT JUMPDEST POP PUSH2 0x15D PUSH2 0x9BB JUMP JUMPDEST PUSH1 0x40 MLOAD PUSH2 0x16A SWAP2 SWAP1 PUSH2 0x2543 JUMP JUMPDEST PUSH1 0x40 MLOAD DUP1 SWAP2 SUB SWAP1 RETURN JUMPDEST CALLVALUE DUP1 ISZERO PUSH2 0x17E JUMPI PUSH0 DUP1 REVERT JUMPDEST POP PUSH2 0x187 PUSH2 0x9C1 JUMP JUMPDEST PUSH1 0x40 MLOAD PUSH2 0x194 SWAP2 SWAP1 PUSH2 0x25D6 JUMP JUMPDEST PUSH1 0x40 MLOAD DUP1 SWAP2 SUB SWAP1 RETURN JUMPDEST CALLVALUE DUP1 ISZERO PUSH2 0x1A8 JUMPI PUSH0 DUP1 REVERT JUMPDEST POP PUSH2 0x1C3 PUSH1 0x4 DUP1 CALLDATASIZE SUB DUP2 ADD SWAP1 PUSH2 0x1BE SWAP2 SWAP1 PUSH2 0x25EF JUMP JUMPDEST PUSH2 0x9D9 JUMP JUMPDEST STOP JUMPDEST CALLVALUE DUP1 ISZERO PUSH2 0x1D0 JUMPI PUSH0 DUP1 REVERT JUMPDEST POP PUSH2 0x1D9 PUSH2 0x1075 JUMP JUMPDEST STOP JUMPDEST CALLVALUE DUP1 ISZERO PUSH2 0x1E6 JUMPI PUSH0 DUP1 REVERT JUMPDEST POP PUSH2 0x1EF PUSH2 0x119A JUMP JUMPDEST PUSH1 0x40 MLOAD PUSH2 0x1FC SWAP2 SWAP1 PUSH2 0x265F JUMP JUMPDEST PUSH1 0x40 MLOAD DUP1 SWAP2 SUB SWAP1 RETURN JUMPDEST CALLVALUE DUP1 ISZERO PUSH2 0x210 JUMPI PUSH0 DUP1 REVERT JUMPDEST POP PUSH2 0x219 PUSH2 0x11BF JUMP JUMPDEST STOP JUMPDEST CALLVALUE DUP1 ISZERO PUSH2 0x226 JUMPI PUSH0 DUP1 REVERT JUMPDEST POP PUSH2 0x241 PUSH1 0x4 DUP1 CALLDATASIZE SUB DUP2 ADD SWAP1 PUSH2 0x23C SWAP2 SWAP1 PUSH2 0x26D5 JUMP JUMPDEST PUSH2 0x12F4 JUMP JUMPDEST STOP JUMPDEST CALLVALUE DUP1 ISZERO PUSH2 0x24E JUMPI PUSH0 DUP1 REVERT JUMPDEST POP PUSH2 0x257 PUSH2 0x1563 JUMP JUMPDEST STOP JUMPDEST CALLVALUE DUP1 ISZERO PUSH2 0x264 JUMPI PUSH0 DUP1 REVERT JUMPDEST POP PUSH2 0x27F PUSH1 0x4 DUP1 CALLDATASIZE SUB DUP2 ADD SWAP1 PUSH2 0x27A SWAP2 SWAP1 PUSH2 0x276D JUMP JUMPDEST PUSH2 0x1576 JUMP JUMPDEST PUSH1 0x40 MLOAD PUSH2 0x28C SWAP2 SWAP1 PUSH2 0x27A7 JUMP JUMPDEST PUSH1 0x40 MLOAD DUP1 SWAP2 SUB SWAP1 RETURN JUMPDEST CALLVALUE DUP1 ISZERO PUSH2 0x2A0 JUMPI PUSH0 DUP1 REVERT JUMPDEST POP PUSH2 0x2A9 PUSH2 0x158B JUMP JUMPDEST STOP JUMPDEST CALLVALUE DUP1 ISZERO PUSH2 0x2B6 JUMPI PUSH0 DUP1 REVERT JUMPDEST POP PUSH2 0x2D1 PUSH1 0x4 DUP1 CALLDATASIZE SUB DUP2 ADD SWAP1 PUSH2 0x2CC SWAP2 SWAP1 PUSH2 0x27C0 JUMP JUMPDEST PUSH2 0x1625 JUMP JUMPDEST STOP JUMPDEST CALLVALUE DUP1 ISZERO PUSH2 0x2DE JUMPI PUSH0 DUP1 REVERT JUMPDEST POP PUSH2 0x2F9 PUSH1 0x4 DUP1 CALLDATASIZE SUB DUP2 ADD SWAP1 PUSH2 0x2F4 SWAP2 SWAP1 PUSH2 0x27EB JUMP JUMPDEST PUSH2 0x1637 JUMP JUMPDEST PUSH1 0x40 MLOAD PUSH2 0x306 SWAP2 SWAP1 PUSH2 0x27A7 JUMP JUMPDEST PUSH1 0x40 MLOAD DUP1 SWAP2 SUB SWAP1 RETURN JUMPDEST CALLVALUE DUP1 ISZERO PUSH2 0x31A JUMPI PUSH0 DUP1 REVERT JUMPDEST POP PUSH2 0x323 PUSH2 0x1674 JUMP JUMPDEST STOP JUMPDEST PUSH2 0x33F PUSH1 0x4 DUP1 CALLDATASIZE SUB DUP2 ADD SWAP1 PUSH2 0x33A SWAP2 SWAP1 PUSH2 0x2829 JUMP JUMPDEST PUSH2 0x17F4 JUMP JUMPDEST STOP JUMPDEST CALLVALUE DUP1 ISZERO PUSH2 0x34C JUMPI PUSH0 DUP1 REVERT JUMPDEST POP PUSH2 0x355 PUSH2 0x1B2B JUMP JUMPDEST PUSH1 0x40 MLOAD PUSH2 0x362 SWAP2 SWAP1 PUSH2 0x2863 JUMP JUMPDEST PUSH1 0x40 MLOAD DUP1 SWAP2 SUB SWAP1 RETURN JUMPDEST CALLVALUE DUP1 ISZERO PUSH2 0x376 JUMPI PUSH0 DUP1 REVERT JUMPDEST POP PUSH2 0x37F PUSH2 0x1B60 JUMP JUMPDEST PUSH1 0x40 MLOAD PUSH2 0x38C SWAP2 SWAP1 PUSH2 0x289C JUMP JUMPDEST PUSH1 0x40 MLOAD DUP1 SWAP2 SUB SWAP1 RETURN JUMPDEST CALLVALUE DUP1 ISZERO PUSH2 0x3A0 JUMPI PUSH0 DUP1 REVERT JUMPDEST POP PUSH2 0x3BB PUSH1 0x4 DUP1 CALLDATASIZE SUB DUP2 ADD SWAP1 PUSH2 0x3B6 SWAP2 SWAP1 PUSH2 0x2829 JUMP JUMPDEST PUSH2 0x1B78 JUMP JUMPDEST STOP JUMPDEST CALLVALUE DUP1 ISZERO PUSH2 0x3C8 JUMPI PUSH0 DUP1 REVERT JUMPDEST POP PUSH2 0x3D1 PUSH2 0x1D74 JUMP JUMPDEST PUSH1 0x40 MLOAD PUSH2 0x3DE SWAP2 SWAP1 PUSH2 0x27A7 JUMP JUMPDEST PUSH1 0x40 MLOAD DUP1 SWAP2 SUB SWAP1 RETURN JUMPDEST CALLVALUE DUP1 ISZERO PUSH2 0x3F2 JUMPI PUSH0 DUP1 REVERT JUMPDEST POP PUSH2 0x40D PUSH1 0x4 DUP1 CALLDATASIZE SUB DUP2 ADD SWAP1 PUSH2 0x408 SWAP2 SWAP1 PUSH2 0x2829 JUMP JUMPDEST PUSH2 0x1D7A JUMP JUMPDEST PUSH1 0x40 MLOAD PUSH2 0x424 SWAP12 SWAP11 SWAP10 SWAP9 SWAP8 SWAP7 SWAP6 SWAP5 SWAP4 SWAP3 SWAP2 SWAP1 PUSH2 0x2951 JUMP JUMPDEST PUSH1 0x40 MLOAD DUP1 SWAP2 SUB SWAP1 RETURN JUMPDEST CALLVALUE DUP1 ISZERO PUSH2 0x438 JUMPI PUSH0 DUP1 REVERT JUMPDEST POP PUSH2 0x453 PUSH1 0x4 DUP1 CALLDATASIZE SUB DUP2 ADD SWAP1 PUSH2 0x44E SWAP2 SWAP1 PUSH2 0x276D JUMP JUMPDEST PUSH2 0x1E89 JUMP JUMPDEST STOP JUMPDEST PUSH0 DUP1 PUSH0 SWAP1 SLOAD SWAP1 PUSH2 0x100 EXP SWAP1 DIV PUSH20 0xFFFFFFFFFFFFFFFFFFFFFFFFFFFFFFFFFFFFFFFF AND PUSH20 0xFFFFFFFFFFFFFFFFFFFFFFFFFFFFFFFFFFFFFFFF AND PUSH4 0xB88C9148 PUSH1 0x1 PUSH0 SWAP1 SLOAD SWAP1 PUSH2 0x100 EXP SWAP1 DIV PUSH20 0xFFFFFFFFFFFFFFFFFFFFFFFFFFFFFFFFFFFFFFFF AND PUSH1 0x40 MLOAD DUP3 PUSH4 0xFFFFFFFF AND PUSH1 0xE0 SHL DUP2 MSTORE PUSH1 0x4 ADD PUSH2 0x4D0 SWAP2 SWAP1 PUSH2 0x2863 JUMP JUMPDEST PUSH1 0x20 PUSH1 0x40 MLOAD DUP1 DUP4 SUB DUP2 DUP7 GAS STATICCALL ISZERO DUP1 ISZERO PUSH2 0x4EB JUMPI RETURNDATASIZE PUSH0 DUP1 RETURNDATACOPY RETURNDATASIZE PUSH0 REVERT JUMPDEST POP POP POP POP PUSH1 0x40 MLOAD RETURNDATASIZE PUSH1 0x1F NOT PUSH1 0x1F DUP3 ADD AND DUP3 ADD DUP1 PUSH1 0x40 MSTORE POP DUP2 ADD SWAP1 PUSH2 0x50F SWAP2 SWAP1 PUSH2 0x2A46 JUMP JUMPDEST PUSH16 0xFFFFFFFFFFFFFFFFFFFFFFFFFFFFFFFF AND SWAP1 POP DUP1 CALLVALUE LT PUSH2 0x565 JUMPI PUSH1 0x40 MLOAD PUSH32 0x8C379A000000000000000000000000000000000000000000000000000000000 DUP2 MSTORE PUSH1 0x4 ADD PUSH2 0x55C SWAP1 PUSH2 0x2ABB JUMP JUMPDEST PUSH1 0x40 MLOAD DUP1 SWAP2 SUB SWAP1 REVERT JUMPDEST PUSH0 DUP7 GT PUSH2 0x5A7 JUMPI PUSH1 0x40 MLOAD PUSH32 0x8C379A000000000000000000000000000000000000000000000000000000000 DUP2 MSTORE PUSH1 0x4 ADD PUSH2 0x59E SWAP1 PUSH2 0x2B23 JUMP JUMPDEST PUSH1 0x40 MLOAD DUP1 SWAP2 SUB SWAP1 REVERT JUMPDEST PUSH0 DUP6 GT PUSH2 0x5E9 JUMPI PUSH1 0x40 MLOAD PUSH32 0x8C379A000000000000000000000000000000000000000000000000000000000 DUP2 MSTORE PUSH1 0x4 ADD PUSH2 0x5E0 SWAP1 PUSH2 0x2BB1 JUMP JUMPDEST PUSH1 0x40 MLOAD DUP1 SWAP2 SUB SWAP1 REVERT JUMPDEST DUP5 DUP5 GT ISZERO PUSH2 0x62C JUMPI PUSH1 0x40 MLOAD PUSH32 0x8C379A000000000000000000000000000000000000000000000000000000000 DUP2 MSTORE PUSH1 0x4 ADD PUSH2 0x623 SWAP1 PUSH2 0x2C3F JUMP JUMPDEST PUSH1 0x40 MLOAD DUP1 SWAP2 SUB SWAP1 REVERT JUMPDEST PUSH0 PUSH1 0x3 PUSH0 DUP2 SLOAD DUP1 SWAP3 SWAP2 SWAP1 PUSH2 0x63F SWAP1 PUSH2 0x2C8A JUMP JUMPDEST SWAP2 SWAP1 POP SSTORE SWAP1 POP PUSH1 0x5 PUSH0 SWAP1 SLOAD SWAP1 PUSH2 0x100 EXP SWAP1 DIV PUSH20 0xFFFFFFFFFFFFFFFFFFFFFFFFFFFFFFFFFFFFFFFF AND PUSH20 0xFFFFFFFFFFFFFFFFFFFFFFFFFFFFFFFFFFFFFFFF AND PUSH4 0x23B872DD CALLER ADDRESS DUP7 PUSH1 0x40 MLOAD DUP5 PUSH4 0xFFFFFFFF AND PUSH1 0xE0 SHL DUP2 MSTORE PUSH1 0x4 ADD PUSH2 0x6A3 SWAP4 SWAP3 SWAP2 SWAP1 PUSH2 0x2CD1 JUMP JUMPDEST PUSH1 0x20 PUSH1 0x40 MLOAD DUP1 DUP4 SUB DUP2 PUSH0 DUP8 GAS CALL ISZERO DUP1 ISZERO PUSH2 0x6BF JUMPI RETURNDATASIZE PUSH0 DUP1 RETURNDATACOPY RETURNDATASIZE PUSH0 REVERT JUMPDEST POP POP POP POP PUSH1 0x40 MLOAD RETURNDATASIZE PUSH1 0x1F NOT PUSH1 0x1F DUP3 ADD AND DUP3 ADD DUP1 PUSH1 0x40 MSTORE POP DUP2 ADD SWAP1 PUSH2 0x6E3 SWAP2 SWAP1 PUSH2 0x2D3B JUMP JUMPDEST PUSH2 0x722 JUMPI PUSH1 0x40 MLOAD PUSH32 0x8C379A000000000000000000000000000000000000000000000000000000000 DUP2 MSTORE PUSH1 0x4 ADD PUSH2 0x719 SWAP1 PUSH2 0x2DD6 JUMP JUMPDEST PUSH1 0x40 MLOAD DUP1 SWAP2 SUB SWAP1 REVERT JUMPDEST PUSH0 DUP1 PUSH0 SWAP1 SLOAD SWAP1 PUSH2 0x100 EXP SWAP1 DIV PUSH20 0xFFFFFFFFFFFFFFFFFFFFFFFFFFFFFFFFFFFFFFFF AND PUSH20 0xFFFFFFFFFFFFFFFFFFFFFFFFFFFFFFFFFFFFFFFF AND PUSH4 0x93CBF217 DUP5 PUSH1 0x1 PUSH0 SWAP1 SLOAD SWAP1 PUSH2 0x100 EXP SWAP1 DIV PUSH20 0xFFFFFFFFFFFFFFFFFFFFFFFFFFFFFFFFFFFFFFFF AND DUP13 PUSH1 0x1 PUSH1 0x40 MLOAD DUP6 PUSH4 0xFFFFFFFF AND PUSH1 0xE0 SHL DUP2 MSTORE PUSH1 0x4 ADD PUSH2 0x7A3 SWAP4 SWAP3 SWAP2 SWAP1 PUSH2 0x2E03 JUMP JUMPDEST PUSH1 0x20 PUSH1 0x40 MLOAD DUP1 DUP4 SUB DUP2 DUP6 DUP9 GAS CALL ISZERO DUP1 ISZERO PUSH2 0x7BF JUMPI RETURNDATASIZE PUSH0 DUP1 RETURNDATACOPY RETURNDATASIZE PUSH0 REVERT JUMPDEST POP POP POP POP POP PUSH1 0x40 MLOAD RETURNDATASIZE PUSH1 0x1F NOT PUSH1 0x1F DUP3 ADD AND DUP3 ADD DUP1 PUSH1 0x40 MSTORE POP DUP2 ADD SWAP1 PUSH2 0x7E4 SWAP2 SWAP1 PUSH2 0x2E62 JUMP JUMPDEST SWAP1 POP PUSH0 PUSH1 0x7 PUSH0 DUP5 DUP2 MSTORE PUSH1 0x20 ADD SWAP1 DUP2 MSTORE PUSH1 0x20 ADD PUSH0 KECCAK256 SWAP1 POP DUP11 DUP2 PUSH0 ADD SWAP1 DUP2 PUSH2 0x80A SWAP2 SWAP1 PUSH2 0x307E JUMP JUMPDEST POP DUP5 DUP2 PUSH1 0x1 ADD DUP2 SWAP1 SSTORE POP PUSH0 DUP2 PUSH1 0x2 ADD DUP2 SWAP1 SSTORE POP DUP2 DUP2 PUSH1 0x9 ADD PUSH0 PUSH2 0x100 EXP DUP2 SLOAD DUP2 PUSH8 0xFFFFFFFFFFFFFFFF MUL NOT AND SWAP1 DUP4 PUSH8 0xFFFFFFFFFFFFFFFF AND MUL OR SWAP1 SSTORE POP CALLER DUP2 PUSH1 0x9 ADD PUSH1 0x8 PUSH2 0x100 EXP DUP2 SLOAD DUP2 PUSH20 0xFFFFFFFFFFFFFFFFFFFFFFFFFFFFFFFFFFFFFFFF MUL NOT AND SWAP1 DUP4 PUSH20 0xFFFFFFFFFFFFFFFFFFFFFFFFFFFFFFFFFFFFFFFF AND MUL OR SWAP1 SSTORE POP DUP9 DUP2 PUSH1 0x3 ADD DUP2 SWAP1 SSTORE POP DUP7 DUP2 PUSH1 0x5 ADD DUP2 SWAP1 SSTORE POP DUP8 DUP2 PUSH1 0x6 ADD DUP2 SWAP1 SSTORE POP TIMESTAMP DUP2 PUSH1 0x4 ADD DUP2 SWAP1 SSTORE POP DUP6 DUP2 PUSH1 0x7 ADD DUP2 SWAP1 SSTORE POP PUSH1 0x1 DUP2 PUSH1 0x8 ADD DUP2 SWAP1 SSTORE POP DUP5 DUP2 PUSH1 0xC ADD PUSH0 CALLER PUSH20 0xFFFFFFFFFFFFFFFFFFFFFFFFFFFFFFFFFFFFFFFF AND PUSH20 0xFFFFFFFFFFFFFFFFFFFFFFFFFFFFFFFFFFFFFFFF AND DUP2 MSTORE PUSH1 0x20 ADD SWAP1 DUP2 MSTORE PUSH1 0x20 ADD PUSH0 KECCAK256 DUP2 SWAP1 SSTORE POP DUP1 PUSH1 0xA ADD CALLER SWAP1 DUP1 PUSH1 0x1 DUP2 SLOAD ADD DUP1 DUP3 SSTORE DUP1 SWAP2 POP POP PUSH1 0x1 SWAP1 SUB SWAP1 PUSH0 MSTORE PUSH1 0x20 PUSH0 KECCAK256 ADD PUSH0 SWAP1 SWAP2 SWAP1 SWAP2 SWAP1 SWAP2 PUSH2 0x100 EXP DUP2 SLOAD DUP2 PUSH20 0xFFFFFFFFFFFFFFFFFFFFFFFFFFFFFFFFFFFFFFFF MUL NOT AND SWAP1 DUP4 PUSH20 0xFFFFFFFFFFFFFFFFFFFFFFFFFFFFFFFFFFFFFFFF AND MUL OR SWAP1 SSTORE POP PUSH32 0x2EA75DEFA9ED86BE5C1F296BA42849D00ED611C827F9F30A82AB2F1DADC50B88 DUP4 DUP13 CALLER DUP9 DUP14 DUP13 DUP15 DUP14 DUP11 PUSH1 0x40 MLOAD PUSH2 0x9A6 SWAP10 SWAP9 SWAP8 SWAP7 SWAP6 SWAP5 SWAP4 SWAP3 SWAP2 SWAP1 PUSH2 0x314D JUMP JUMPDEST PUSH1 0x40 MLOAD DUP1 SWAP2 SUB SWAP1 LOG1 POP POP POP POP POP POP POP POP POP POP POP JUMP JUMPDEST PUSH1 0x2 SLOAD DUP2 JUMP JUMPDEST PUSH20 0x4200000000000000000000000000000000000022 DUP2 JUMP JUMPDEST CALLER PUSH20 0xFFFFFFFFFFFFFFFFFFFFFFFFFFFFFFFFFFFFFFFF AND PUSH1 0x7 PUSH0 DUP6 DUP2 MSTORE PUSH1 0x20 ADD SWAP1 DUP2 MSTORE PUSH1 0x20 ADD PUSH0 KECCAK256 PUSH1 0x9 ADD PUSH1 0x8 SWAP1 SLOAD SWAP1 PUSH2 0x100 EXP SWAP1 DIV PUSH20 0xFFFFFFFFFFFFFFFFFFFFFFFFFFFFFFFFFFFFFFFF AND PUSH20 0xFFFFFFFFFFFFFFFFFFFFFFFFFFFFFFFFFFFFFFFF AND EQ PUSH2 0xA7B JUMPI PUSH1 0x40 MLOAD PUSH32 0x8C379A000000000000000000000000000000000000000000000000000000000 DUP2 MSTORE PUSH1 0x4 ADD PUSH2 0xA72 SWAP1 PUSH2 0x324F JUMP JUMPDEST PUSH1 0x40 MLOAD DUP1 SWAP2 SUB SWAP1 REVERT JUMPDEST PUSH0 PUSH1 0x7 PUSH0 DUP6 DUP2 MSTORE PUSH1 0x20 ADD SWAP1 DUP2 MSTORE PUSH1 0x20 ADD PUSH0 KECCAK256 SWAP1 POP DUP1 PUSH1 0x3 ADD SLOAD DUP2 PUSH1 0x4 ADD SLOAD PUSH2 0xAA3 SWAP2 SWAP1 PUSH2 0x326D JUMP JUMPDEST TIMESTAMP LT ISZERO PUSH2 0xAE5 JUMPI PUSH1 0x40 MLOAD PUSH32 0x8C379A000000000000000000000000000000000000000000000000000000000 DUP2 MSTORE PUSH1 0x4 ADD PUSH2 0xADC SWAP1 PUSH2 0x32EA JUMP JUMPDEST PUSH1 0x40 MLOAD DUP1 SWAP2 SUB SWAP1 REVERT JUMPDEST PUSH0 DUP1 PUSH0 SWAP1 SLOAD SWAP1 PUSH2 0x100 EXP SWAP1 DIV PUSH20 0xFFFFFFFFFFFFFFFFFFFFFFFFFFFFFFFFFFFFFFFF AND PUSH20 0xFFFFFFFFFFFFFFFFFFFFFFFFFFFFFFFFFFFFFFFF AND PUSH4 0x9371DF51 PUSH1 0x1 PUSH0 SWAP1 SLOAD SWAP1 PUSH2 0x100 EXP SWAP1 DIV PUSH20 0xFFFFFFFFFFFFFFFFFFFFFFFFFFFFFFFFFFFFFFFF AND DUP5 PUSH1 0x9 ADD PUSH0 SWAP1 SLOAD SWAP1 PUSH2 0x100 EXP SWAP1 DIV PUSH8 0xFFFFFFFFFFFFFFFF AND DUP8 DUP8 PUSH1 0x40 MLOAD DUP6 PUSH4 0xFFFFFFFF AND PUSH1 0xE0 SHL DUP2 MSTORE PUSH1 0x4 ADD PUSH2 0xB7D SWAP5 SWAP4 SWAP3 SWAP2 SWAP1 PUSH2 0x3308 JUMP JUMPDEST PUSH1 0x20 PUSH1 0x40 MLOAD DUP1 DUP4 SUB DUP2 PUSH0 DUP8 GAS CALL ISZERO DUP1 ISZERO PUSH2 0xB99 JUMPI RETURNDATASIZE PUSH0 DUP1 RETURNDATACOPY RETURNDATASIZE PUSH0 REVERT JUMPDEST POP POP POP POP PUSH1 0x40 MLOAD RETURNDATASIZE PUSH1 0x1F NOT PUSH1 0x1F DUP3 ADD AND DUP3 ADD DUP1 PUSH1 0x40 MSTORE POP DUP2 ADD SWAP1 PUSH2 0xBBD SWAP2 SWAP1 PUSH2 0x335F JUMP JUMPDEST SWAP1 POP PUSH0 DUP3 PUSH1 0x7 ADD SLOAD DUP3 PUSH0 SHR PUSH2 0xBD2 SWAP2 SWAP1 PUSH2 0x33B7 JUMP JUMPDEST SWAP1 POP PUSH0 DUP4 PUSH1 0xA ADD DUP3 DUP2 SLOAD DUP2 LT PUSH2 0xBEB JUMPI PUSH2 0xBEA PUSH2 0x33E7 JUMP JUMPDEST JUMPDEST SWAP1 PUSH0 MSTORE PUSH1 0x20 PUSH0 KECCAK256 ADD PUSH0 SWAP1 SLOAD SWAP1 PUSH2 0x100 EXP SWAP1 DIV PUSH20 0xFFFFFFFFFFFFFFFFFFFFFFFFFFFFFFFFFFFFFFFF AND SWAP1 POP DUP4 PUSH1 0xB ADD DUP2 SWAP1 DUP1 PUSH1 0x1 DUP2 SLOAD ADD DUP1 DUP3 SSTORE DUP1 SWAP2 POP POP PUSH1 0x1 SWAP1 SUB SWAP1 PUSH0 MSTORE PUSH1 0x20 PUSH0 KECCAK256 ADD PUSH0 SWAP1 SWAP2 SWAP1 SWAP2 SWAP1 SWAP2 PUSH2 0x100 EXP DUP2 SLOAD DUP2 PUSH20 0xFFFFFFFFFFFFFFFFFFFFFFFFFFFFFFFFFFFFFFFF MUL NOT AND SWAP1 DUP4 PUSH20 0xFFFFFFFFFFFFFFFFFFFFFFFFFFFFFFFFFFFFFFFF AND MUL OR SWAP1 SSTORE POP PUSH1 0x1 PUSH1 0x7 PUSH0 DUP10 DUP2 MSTORE PUSH1 0x20 ADD SWAP1 DUP2 MSTORE PUSH1 0x20 ADD PUSH0 KECCAK256 PUSH1 0xA ADD DUP1 SLOAD SWAP1 POP PUSH2 0xC9B SWAP2 SWAP1 PUSH2 0x3414 JUMP JUMPDEST DUP3 EQ PUSH2 0xD7E JUMPI PUSH1 0x7 PUSH0 DUP9 DUP2 MSTORE PUSH1 0x20 ADD SWAP1 DUP2 MSTORE PUSH1 0x20 ADD PUSH0 KECCAK256 PUSH1 0xA ADD PUSH1 0x1 PUSH1 0x7 PUSH0 DUP11 DUP2 MSTORE PUSH1 0x20 ADD SWAP1 DUP2 MSTORE PUSH1 0x20 ADD PUSH0 KECCAK256 PUSH1 0xA ADD DUP1 SLOAD SWAP1 POP PUSH2 0xCD9 SWAP2 SWAP1 PUSH2 0x3414 JUMP JUMPDEST DUP2 SLOAD DUP2 LT PUSH2 0xCEA JUMPI PUSH2 0xCE9 PUSH2 0x33E7 JUMP JUMPDEST JUMPDEST SWAP1 PUSH0 MSTORE PUSH1 0x20 PUSH0 KECCAK256 ADD PUSH0 SWAP1 SLOAD SWAP1 PUSH2 0x100 EXP SWAP1 DIV PUSH20 0xFFFFFFFFFFFFFFFFFFFFFFFFFFFFFFFFFFFFFFFF AND PUSH1 0x7 PUSH0 DUP10 DUP2 MSTORE PUSH1 0x20 ADD SWAP1 DUP2 MSTORE PUSH1 0x20 ADD PUSH0 KECCAK256 PUSH1 0xA ADD DUP4 DUP2 SLOAD DUP2 LT PUSH2 0xD38 JUMPI PUSH2 0xD37 PUSH2 0x33E7 JUMP JUMPDEST JUMPDEST SWAP1 PUSH0 MSTORE PUSH1 0x20 PUSH0 KECCAK256 ADD PUSH0 PUSH2 0x100 EXP DUP2 SLOAD DUP2 PUSH20 0xFFFFFFFFFFFFFFFFFFFFFFFFFFFFFFFFFFFFFFFF MUL NOT AND SWAP1 DUP4 PUSH20 0xFFFFFFFFFFFFFFFFFFFFFFFFFFFFFFFFFFFFFFFF AND MUL OR SWAP1 SSTORE POP JUMPDEST PUSH1 0x7 PUSH0 DUP9 DUP2 MSTORE PUSH1 0x20 ADD SWAP1 DUP2 MSTORE PUSH1 0x20 ADD PUSH0 KECCAK256 PUSH1 0xA ADD DUP1 SLOAD DUP1 PUSH2 0xDA2 JUMPI PUSH2 0xDA1 PUSH2 0x3447 JUMP JUMPDEST JUMPDEST PUSH1 0x1 SWAP1 SUB DUP2 DUP2 SWAP1 PUSH0 MSTORE PUSH1 0x20 PUSH0 KECCAK256 ADD PUSH0 PUSH2 0x100 EXP DUP2 SLOAD SWAP1 PUSH20 0xFFFFFFFFFFFFFFFFFFFFFFFFFFFFFFFFFFFFFFFF MUL NOT AND SWAP1 SSTORE SWAP1 SSTORE PUSH0 DUP5 PUSH1 0x1 ADD SLOAD DUP6 PUSH1 0xA ADD DUP1 SLOAD SWAP1 POP PUSH2 0xDEC SWAP2 SWAP1 PUSH2 0x3474 JUMP JUMPDEST SWAP1 POP PUSH0 PUSH2 0xDF8 DUP3 PUSH2 0x1F0D JUMP JUMPDEST SWAP1 POP PUSH0 PUSH2 0xE05 DUP11 DUP4 PUSH2 0x1637 JUMP JUMPDEST SWAP1 POP DUP1 DUP8 PUSH1 0x2 ADD DUP2 SWAP1 SSTORE POP DUP1 DUP3 PUSH2 0xE1C SWAP2 SWAP1 PUSH2 0x3414 JUMP JUMPDEST DUP8 PUSH1 0xD ADD PUSH0 DUP7 PUSH20 0xFFFFFFFFFFFFFFFFFFFFFFFFFFFFFFFFFFFFFFFF AND PUSH20 0xFFFFFFFFFFFFFFFFFFFFFFFFFFFFFFFFFFFFFFFF AND DUP2 MSTORE PUSH1 0x20 ADD SWAP1 DUP2 MSTORE PUSH1 0x20 ADD PUSH0 KECCAK256 DUP2 SWAP1 SSTORE POP PUSH1 0x1 DUP8 PUSH1 0xE ADD PUSH0 DUP7 PUSH20 0xFFFFFFFFFFFFFFFFFFFFFFFFFFFFFFFFFFFFFFFF AND PUSH20 0xFFFFFFFFFFFFFFFFFFFFFFFFFFFFFFFFFFFFFFFF AND DUP2 MSTORE PUSH1 0x20 ADD SWAP1 DUP2 MSTORE PUSH1 0x20 ADD PUSH0 KECCAK256 PUSH0 PUSH2 0x100 EXP DUP2 SLOAD DUP2 PUSH1 0xFF MUL NOT AND SWAP1 DUP4 ISZERO ISZERO MUL OR SWAP1 SSTORE POP TIMESTAMP DUP8 PUSH1 0x4 ADD DUP2 SWAP1 SSTORE POP DUP7 PUSH1 0xA ADD PUSH0 PUSH2 0xECE SWAP2 SWAP1 PUSH2 0x228F JUMP JUMPDEST PUSH1 0x5 PUSH0 SWAP1 SLOAD SWAP1 PUSH2 0x100 EXP SWAP1 DIV PUSH20 0xFFFFFFFFFFFFFFFFFFFFFFFFFFFFFFFFFFFFFFFF AND PUSH20 0xFFFFFFFFFFFFFFFFFFFFFFFFFFFFFFFFFFFFFFFF AND PUSH4 0x23B872DD CALLER ADDRESS DUP11 PUSH1 0x1 ADD SLOAD PUSH1 0x40 MLOAD DUP5 PUSH4 0xFFFFFFFF AND PUSH1 0xE0 SHL DUP2 MSTORE PUSH1 0x4 ADD PUSH2 0xF30 SWAP4 SWAP3 SWAP2 SWAP1 PUSH2 0x2CD1 JUMP JUMPDEST PUSH1 0x20 PUSH1 0x40 MLOAD DUP1 DUP4 SUB DUP2 PUSH0 DUP8 GAS CALL ISZERO DUP1 ISZERO PUSH2 0xF4C JUMPI RETURNDATASIZE PUSH0 DUP1 RETURNDATACOPY RETURNDATASIZE PUSH0 REVERT JUMPDEST POP POP POP POP PUSH1 0x40 MLOAD RETURNDATASIZE PUSH1 0x1F NOT PUSH1 0x1F DUP3 ADD AND DUP3 ADD DUP1 PUSH1 0x40 MSTORE POP DUP2 ADD SWAP1 PUSH2 0xF70 SWAP2 SWAP1 PUSH2 0x2D3B JUMP JUMPDEST PUSH2 0xFAF JUMPI PUSH1 0x40 MLOAD PUSH32 0x8C379A000000000000000000000000000000000000000000000000000000000 DUP2 MSTORE PUSH1 0x4 ADD PUSH2 0xFA6 SWAP1 PUSH2 0x2DD6 JUMP JUMPDEST PUSH1 0x40 MLOAD DUP1 SWAP2 SUB SWAP1 REVERT JUMPDEST DUP7 PUSH1 0xA ADD CALLER SWAP1 DUP1 PUSH1 0x1 DUP2 SLOAD ADD DUP1 DUP3 SSTORE DUP1 SWAP2 POP POP PUSH1 0x1 SWAP1 SUB SWAP1 PUSH0 MSTORE PUSH1 0x20 PUSH0 KECCAK256 ADD PUSH0 SWAP1 SWAP2 SWAP1 SWAP2 SWAP1 SWAP2 PUSH2 0x100 EXP DUP2 SLOAD DUP2 PUSH20 0xFFFFFFFFFFFFFFFFFFFFFFFFFFFFFFFFFFFFFFFF MUL NOT AND SWAP1 DUP4 PUSH20 0xFFFFFFFFFFFFFFFFFFFFFFFFFFFFFFFFFFFFFFFF AND MUL OR SWAP1 SSTORE POP PUSH32 0x35CB3811461CB824B245820EEE97AB50EE1CC609F2BDD3BB10F5F0010184A7D3 DUP11 DUP6 DUP10 PUSH1 0x8 ADD SLOAD PUSH1 0x40 MLOAD PUSH2 0x1048 SWAP4 SWAP3 SWAP2 SWAP1 PUSH2 0x34B5 JUMP JUMPDEST PUSH1 0x40 MLOAD DUP1 SWAP2 SUB SWAP1 LOG1 DUP7 PUSH1 0x8 ADD PUSH0 DUP2 SLOAD DUP1 SWAP3 SWAP2 SWAP1 PUSH2 0x1064 SWAP1 PUSH2 0x2C8A JUMP JUMPDEST SWAP2 SWAP1 POP SSTORE POP POP POP POP POP POP POP POP POP POP POP JUMP JUMPDEST PUSH2 0x107D PUSH2 0x1F4A JUMP JUMPDEST PUSH20 0x4200000000000000000000000000000000000022 PUSH20 0xFFFFFFFFFFFFFFFFFFFFFFFFFFFFFFFFFFFFFFFF AND PUSH4 0xAAD3EC96 ADDRESS PUSH20 0x4200000000000000000000000000000000000022 PUSH20 0xFFFFFFFFFFFFFFFFFFFFFFFFFFFFFFFFFFFFFFFF AND PUSH4 0xE12F3A61 ADDRESS PUSH1 0x40 MLOAD DUP3 PUSH4 0xFFFFFFFF AND PUSH1 0xE0 SHL DUP2 MSTORE PUSH1 0x4 ADD PUSH2 0x10FB SWAP2 SWAP1 PUSH2 0x2863 JUMP JUMPDEST PUSH1 0x20 PUSH1 0x40 MLOAD DUP1 DUP4 SUB DUP2 DUP7 GAS STATICCALL ISZERO DUP1 ISZERO PUSH2 0x1116 JUMPI RETURNDATASIZE PUSH0 DUP1 RETURNDATACOPY RETURNDATASIZE PUSH0 REVERT JUMPDEST POP POP POP POP PUSH1 0x40 MLOAD RETURNDATASIZE PUSH1 0x1F NOT PUSH1 0x1F DUP3 ADD AND DUP3 ADD DUP1 PUSH1 0x40 MSTORE POP DUP2 ADD SWAP1 PUSH2 0x113A SWAP2 SWAP1 PUSH2 0x34FE JUMP JUMPDEST PUSH1 0x40 MLOAD DUP4 PUSH4 0xFFFFFFFF AND PUSH1 0xE0 SHL DUP2 MSTORE PUSH1 0x4 ADD PUSH2 0x1157 SWAP3 SWAP2 SWAP1 PUSH2 0x3529 JUMP JUMPDEST PUSH1 0x20 PUSH1 0x40 MLOAD DUP1 DUP4 SUB DUP2 PUSH0 DUP8 GAS CALL ISZERO DUP1 ISZERO PUSH2 0x1173 JUMPI RETURNDATASIZE PUSH0 DUP1 RETURNDATACOPY RETURNDATASIZE PUSH0 REVERT JUMPDEST POP POP POP POP PUSH1 0x40 MLOAD RETURNDATASIZE PUSH1 0x1F NOT PUSH1 0x1F DUP3 ADD AND DUP3 ADD DUP1 PUSH1 0x40 MSTORE POP DUP2 ADD SWAP1 PUSH2 0x1197 SWAP2 SWAP1 PUSH2 0x34FE JUMP JUMPDEST POP JUMP JUMPDEST PUSH1 0x5 PUSH0 SWAP1 SLOAD SWAP1 PUSH2 0x100 EXP SWAP1 DIV PUSH20 0xFFFFFFFFFFFFFFFFFFFFFFFFFFFFFFFFFFFFFFFF AND DUP2 JUMP JUMPDEST PUSH2 0x11C7 PUSH2 0x1F4A JUMP JUMPDEST PUSH0 PUSH1 0x4 SLOAD SWAP1 POP PUSH0 DUP2 GT PUSH2 0x120F JUMPI PUSH1 0x40 MLOAD PUSH32 0x8C379A000000000000000000000000000000000000000000000000000000000 DUP2 MSTORE PUSH1 0x4 ADD PUSH2 0x1206 SWAP1 PUSH2 0x359A JUMP JUMPDEST PUSH1 0x40 MLOAD DUP1 SWAP2 SUB SWAP1 REVERT JUMPDEST PUSH0 PUSH1 0x4 DUP2 SWAP1 SSTORE POP PUSH1 0x5 PUSH0 SWAP1 SLOAD SWAP1 PUSH2 0x100 EXP SWAP1 DIV PUSH20 0xFFFFFFFFFFFFFFFFFFFFFFFFFFFFFFFFFFFFFFFF AND PUSH20 0xFFFFFFFFFFFFFFFFFFFFFFFFFFFFFFFFFFFFFFFF AND PUSH4 0xA9059CBB ADDRESS DUP4 PUSH1 0x40 MLOAD DUP4 PUSH4 0xFFFFFFFF AND PUSH1 0xE0 SHL DUP2 MSTORE PUSH1 0x4 ADD PUSH2 0x1272 SWAP3 SWAP2 SWAP1 PUSH2 0x3529 JUMP JUMPDEST PUSH1 0x20 PUSH1 0x40 MLOAD DUP1 DUP4 SUB DUP2 PUSH0 DUP8 GAS CALL ISZERO DUP1 ISZERO PUSH2 0x128E JUMPI RETURNDATASIZE PUSH0 DUP1 RETURNDATACOPY RETURNDATASIZE PUSH0 REVERT JUMPDEST POP POP POP POP PUSH1 0x40 MLOAD RETURNDATASIZE PUSH1 0x1F NOT PUSH1 0x1F DUP3 ADD AND DUP3 ADD DUP1 PUSH1 0x40 MSTORE POP DUP2 ADD SWAP1 PUSH2 0x12B2 SWAP2 SWAP1 PUSH2 0x2D3B JUMP JUMPDEST PUSH2 0x12F1 JUMPI PUSH1 0x40 MLOAD PUSH32 0x8C379A000000000000000000000000000000000000000000000000000000000 DUP2 MSTORE PUSH1 0x4 ADD PUSH2 0x12E8 SWAP1 PUSH2 0x3602 JUMP JUMPDEST PUSH1 0x40 MLOAD DUP1 SWAP2 SUB SWAP1 REVERT JUMPDEST POP JUMP JUMPDEST PUSH0 CALLER DUP5 PUSH1 0x40 MLOAD PUSH1 0x20 ADD PUSH2 0x1308 SWAP3 SWAP2 SWAP1 PUSH2 0x3685 JUMP JUMPDEST PUSH1 0x40 MLOAD PUSH1 0x20 DUP2 DUP4 SUB SUB DUP2 MSTORE SWAP1 PUSH1 0x40 MSTORE DUP1 MLOAD SWAP1 PUSH1 0x20 ADD KECCAK256 SWAP1 POP PUSH2 0x136D DUP4 DUP4 DUP1 DUP1 PUSH1 0x20 MUL PUSH1 0x20 ADD PUSH1 0x40 MLOAD SWAP1 DUP2 ADD PUSH1 0x40 MSTORE DUP1 SWAP4 SWAP3 SWAP2 SWAP1 DUP2 DUP2 MSTORE PUSH1 0x20 ADD DUP4 DUP4 PUSH1 0x20 MUL DUP1 DUP3 DUP5 CALLDATACOPY PUSH0 DUP2 DUP5 ADD MSTORE PUSH1 0x1F NOT PUSH1 0x1F DUP3 ADD AND SWAP1 POP DUP1 DUP4 ADD SWAP3 POP POP POP POP POP POP POP PUSH1 0x2 SLOAD DUP4 PUSH2 0x1FD1 JUMP JUMPDEST PUSH2 0x13AC JUMPI PUSH1 0x40 MLOAD PUSH32 0x8C379A000000000000000000000000000000000000000000000000000000000 DUP2 MSTORE PUSH1 0x4 ADD PUSH2 0x13A3 SWAP1 PUSH2 0x36FA JUMP JUMPDEST PUSH1 0x40 MLOAD DUP1 SWAP2 SUB SWAP1 REVERT JUMPDEST PUSH0 PUSH1 0x6 PUSH0 CALLER PUSH20 0xFFFFFFFFFFFFFFFFFFFFFFFFFFFFFFFFFFFFFFFF AND PUSH20 0xFFFFFFFFFFFFFFFFFFFFFFFFFFFFFFFFFFFFFFFF AND DUP2 MSTORE PUSH1 0x20 ADD SWAP1 DUP2 MSTORE PUSH1 0x20 ADD PUSH0 KECCAK256 SLOAD SWAP1 POP DUP5 DUP2 LT PUSH2 0x142F JUMPI PUSH1 0x40 MLOAD PUSH32 0x8C379A000000000000000000000000000000000000000000000000000000000 DUP2 MSTORE PUSH1 0x4 ADD PUSH2 0x1426 SWAP1 PUSH2 0x3788 JUMP JUMPDEST PUSH1 0x40 MLOAD DUP1 SWAP2 SUB SWAP1 REVERT JUMPDEST PUSH0 DUP2 DUP7 PUSH2 0x143C SWAP2 SWAP1 PUSH2 0x3414 JUMP JUMPDEST SWAP1 POP DUP6 PUSH1 0x6 PUSH0 CALLER PUSH20 0xFFFFFFFFFFFFFFFFFFFFFFFFFFFFFFFFFFFFFFFF AND PUSH20 0xFFFFFFFFFFFFFFFFFFFFFFFFFFFFFFFFFFFFFFFF AND DUP2 MSTORE PUSH1 0x20 ADD SWAP1 DUP2 MSTORE PUSH1 0x20 ADD PUSH0 KECCAK256 DUP2 SWAP1 SSTORE POP PUSH1 0x5 PUSH0 SWAP1 SLOAD SWAP1 PUSH2 0x100 EXP SWAP1 DIV PUSH20 0xFFFFFFFFFFFFFFFFFFFFFFFFFFFFFFFFFFFFFFFF AND PUSH20 0xFFFFFFFFFFFFFFFFFFFFFFFFFFFFFFFFFFFFFFFF AND PUSH4 0xA9059CBB CALLER DUP4 PUSH1 0x40 MLOAD DUP4 PUSH4 0xFFFFFFFF AND PUSH1 0xE0 SHL DUP2 MSTORE PUSH1 0x4 ADD PUSH2 0x14DC SWAP3 SWAP2 SWAP1 PUSH2 0x3529 JUMP JUMPDEST PUSH1 0x20 PUSH1 0x40 MLOAD DUP1 DUP4 SUB DUP2 PUSH0 DUP8 GAS CALL ISZERO DUP1 ISZERO PUSH2 0x14F8 JUMPI RETURNDATASIZE PUSH0 DUP1 RETURNDATACOPY RETURNDATASIZE PUSH0 REVERT JUMPDEST POP POP POP POP PUSH1 0x40 MLOAD RETURNDATASIZE PUSH1 0x1F NOT PUSH1 0x1F DUP3 ADD AND DUP3 ADD DUP1 PUSH1 0x40 MSTORE POP DUP2 ADD SWAP1 PUSH2 0x151C SWAP2 SWAP1 PUSH2 0x2D3B JUMP JUMPDEST PUSH2 0x155B JUMPI PUSH1 0x40 MLOAD PUSH32 0x8C379A000000000000000000000000000000000000000000000000000000000 DUP2 MSTORE PUSH1 0x4 ADD PUSH2 0x1552 SWAP1 PUSH2 0x37F0 JUMP JUMPDEST PUSH1 0x40 MLOAD DUP1 SWAP2 SUB SWAP1 REVERT JUMPDEST POP POP POP POP POP POP JUMP JUMPDEST PUSH2 0x156B PUSH2 0x1F4A JUMP JUMPDEST PUSH2 0x1574 PUSH0 PUSH2 0x1FE7 JUMP JUMPDEST JUMP JUMPDEST PUSH1 0x6 PUSH1 0x20 MSTORE DUP1 PUSH0 MSTORE PUSH1 0x40 PUSH0 KECCAK256 PUSH0 SWAP2 POP SWAP1 POP SLOAD DUP2 JUMP JUMPDEST PUSH2 0x1593 PUSH2 0x1F4A JUMP JUMPDEST PUSH20 0x4300000000000000000000000000000000000002 PUSH20 0xFFFFFFFFFFFFFFFFFFFFFFFFFFFFFFFFFFFFFFFF AND PUSH4 0x954FA5EE ADDRESS ADDRESS PUSH1 0x40 MLOAD DUP4 PUSH4 0xFFFFFFFF AND PUSH1 0xE0 SHL DUP2 MSTORE PUSH1 0x4 ADD PUSH2 0x15E2 SWAP3 SWAP2 SWAP1 PUSH2 0x380E JUMP JUMPDEST PUSH1 0x20 PUSH1 0x40 MLOAD DUP1 DUP4 SUB DUP2 PUSH0 DUP8 GAS CALL ISZERO DUP1 ISZERO PUSH2 0x15FE JUMPI RETURNDATASIZE PUSH0 DUP1 RETURNDATACOPY RETURNDATASIZE PUSH0 REVERT JUMPDEST POP POP POP POP PUSH1 0x40 MLOAD RETURNDATASIZE PUSH1 0x1F NOT PUSH1 0x1F DUP3 ADD AND DUP3 ADD DUP1 PUSH1 0x40 MSTORE POP DUP2 ADD SWAP1 PUSH2 0x1622 SWAP2 SWAP1 PUSH2 0x34FE JUMP JUMPDEST POP JUMP JUMPDEST PUSH2 0x162D PUSH2 0x1F4A JUMP JUMPDEST DUP1 PUSH1 0x2 DUP2 SWAP1 SSTORE POP POP JUMP JUMPDEST PUSH0 DUP1 PUSH1 0x7 PUSH0 DUP6 DUP2 MSTORE PUSH1 0x20 ADD SWAP1 DUP2 MSTORE PUSH1 0x20 ADD PUSH0 KECCAK256 SWAP1 POP DUP1 PUSH1 0x6 ADD SLOAD DUP2 PUSH1 0x5 ADD SLOAD DUP5 PUSH2 0x1661 SWAP2 SWAP1 PUSH2 0x3474 JUMP JUMPDEST PUSH2 0x166B SWAP2 SWAP1 PUSH2 0x3835 JUMP JUMPDEST SWAP2 POP POP SWAP3 SWAP2 POP POP JUMP JUMPDEST PUSH0 PUSH2 0x167D PUSH2 0x20B8 JUMP JUMPDEST SWAP1 POP PUSH0 DUP2 PUSH0 ADD PUSH1 0x8 SWAP1 SLOAD SWAP1 PUSH2 0x100 EXP SWAP1 DIV PUSH1 0xFF AND ISZERO SWAP1 POP PUSH0 DUP3 PUSH0 ADD PUSH0 SWAP1 SLOAD SWAP1 PUSH2 0x100 EXP SWAP1 DIV PUSH8 0xFFFFFFFFFFFFFFFF AND SWAP1 POP PUSH0 DUP1 DUP3 PUSH8 0xFFFFFFFFFFFFFFFF AND EQ DUP1 ISZERO PUSH2 0x16C5 JUMPI POP DUP3 JUMPDEST SWAP1 POP PUSH0 PUSH1 0x1 DUP4 PUSH8 0xFFFFFFFFFFFFFFFF AND EQ DUP1 ISZERO PUSH2 0x16F8 JUMPI POP PUSH0 ADDRESS PUSH20 0xFFFFFFFFFFFFFFFFFFFFFFFFFFFFFFFFFFFFFFFF AND EXTCODESIZE EQ JUMPDEST SWAP1 POP DUP2 ISZERO DUP1 ISZERO PUSH2 0x1706 JUMPI POP DUP1 ISZERO JUMPDEST ISZERO PUSH2 0x173D JUMPI PUSH1 0x40 MLOAD PUSH32 0xF92EE8A900000000000000000000000000000000000000000000000000000000 DUP2 MSTORE PUSH1 0x4 ADD PUSH1 0x40 MLOAD DUP1 SWAP2 SUB SWAP1 REVERT JUMPDEST PUSH1 0x1 DUP6 PUSH0 ADD PUSH0 PUSH2 0x100 EXP DUP2 SLOAD DUP2 PUSH8 0xFFFFFFFFFFFFFFFF MUL NOT AND SWAP1 DUP4 PUSH8 0xFFFFFFFFFFFFFFFF AND MUL OR SWAP1 SSTORE POP DUP4 ISZERO PUSH2 0x178A JUMPI PUSH1 0x1 DUP6 PUSH0 ADD PUSH1 0x8 PUSH2 0x100 EXP DUP2 SLOAD DUP2 PUSH1 0xFF MUL NOT AND SWAP1 DUP4 ISZERO ISZERO MUL OR SWAP1 SSTORE POP JUMPDEST PUSH2 0x1793 CALLER PUSH2 0x20DF JUMP JUMPDEST DUP4 ISZERO PUSH2 0x17ED JUMPI PUSH0 DUP6 PUSH0 ADD PUSH1 0x8 PUSH2 0x100 EXP DUP2 SLOAD DUP2 PUSH1 0xFF MUL NOT AND SWAP1 DUP4 ISZERO ISZERO MUL OR SWAP1 SSTORE POP PUSH32 0xC7F505B2F371AE2175EE4913F4499E1F2633A7B5936321EED1CDAEB6115181D2 PUSH1 0x1 PUSH1 0x40 MLOAD PUSH2 0x17E4 SWAP2 SWAP1 PUSH2 0x389E JUMP JUMPDEST PUSH1 0x40 MLOAD DUP1 SWAP2 SUB SWAP1 LOG1 JUMPDEST POP POP POP POP POP JUMP JUMPDEST PUSH0 PUSH1 0x7 PUSH0 DUP4 DUP2 MSTORE PUSH1 0x20 ADD SWAP1 DUP2 MSTORE PUSH1 0x20 ADD PUSH0 KECCAK256 SWAP1 POP DUP1 PUSH1 0x7 ADD SLOAD DUP2 PUSH1 0xA ADD DUP1 SLOAD SWAP1 POP LT PUSH2 0x1855 JUMPI PUSH1 0x40 MLOAD PUSH32 0x8C379A000000000000000000000000000000000000000000000000000000000 DUP2 MSTORE PUSH1 0x4 ADD PUSH2 0x184C SWAP1 PUSH2 0x3901 JUMP JUMPDEST PUSH1 0x40 MLOAD DUP1 SWAP2 SUB SWAP1 REVERT JUMPDEST DUP1 PUSH1 0x8 ADD SLOAD DUP2 PUSH1 0x1 ADD SLOAD PUSH2 0x1869 SWAP2 SWAP1 PUSH2 0x3474 JUMP JUMPDEST DUP2 PUSH1 0xC ADD PUSH0 CALLER PUSH20 0xFFFFFFFFFFFFFFFFFFFFFFFFFFFFFFFFFFFFFFFF AND PUSH20 0xFFFFFFFFFFFFFFFFFFFFFFFFFFFFFFFFFFFFFFFF AND DUP2 MSTORE PUSH1 0x20 ADD SWAP1 DUP2 MSTORE PUSH1 0x20 ADD PUSH0 KECCAK256 SLOAD EQ PUSH2 0x18E9 JUMPI PUSH1 0x40 MLOAD PUSH32 0x8C379A000000000000000000000000000000000000000000000000000000000 DUP2 MSTORE PUSH1 0x4 ADD PUSH2 0x18E0 SWAP1 PUSH2 0x398F JUMP JUMPDEST PUSH1 0x40 MLOAD DUP1 SWAP2 SUB SWAP1 REVERT JUMPDEST PUSH1 0x5 PUSH0 SWAP1 SLOAD SWAP1 PUSH2 0x100 EXP SWAP1 DIV PUSH20 0xFFFFFFFFFFFFFFFFFFFFFFFFFFFFFFFFFFFFFFFF AND PUSH20 0xFFFFFFFFFFFFFFFFFFFFFFFFFFFFFFFFFFFFFFFF AND PUSH4 0x23B872DD CALLER ADDRESS DUP5 PUSH1 0x1 ADD SLOAD PUSH1 0x40 MLOAD DUP5 PUSH4 0xFFFFFFFF AND PUSH1 0xE0 SHL DUP2 MSTORE PUSH1 0x4 ADD PUSH2 0x194B SWAP4 SWAP3 SWAP2 SWAP1 PUSH2 0x2CD1 JUMP JUMPDEST PUSH1 0x20 PUSH1 0x40 MLOAD DUP1 DUP4 SUB DUP2 PUSH0 DUP8 GAS CALL ISZERO DUP1 ISZERO PUSH2 0x1967 JUMPI RETURNDATASIZE PUSH0 DUP1 RETURNDATACOPY RETURNDATASIZE PUSH0 REVERT JUMPDEST POP POP POP POP PUSH1 0x40 MLOAD RETURNDATASIZE PUSH1 0x1F NOT PUSH1 0x1F DUP3 ADD AND DUP3 ADD DUP1 PUSH1 0x40 MSTORE POP DUP2 ADD SWAP1 PUSH2 0x198B SWAP2 SWAP1 PUSH2 0x2D3B JUMP JUMPDEST PUSH2 0x19CA JUMPI PUSH1 0x40 MLOAD PUSH32 0x8C379A000000000000000000000000000000000000000000000000000000000 DUP2 MSTORE PUSH1 0x4 ADD PUSH2 0x19C1 SWAP1 PUSH2 0x39F7 JUMP JUMPDEST PUSH1 0x40 MLOAD DUP1 SWAP2 SUB SWAP1 REVERT JUMPDEST DUP1 PUSH1 0x1 ADD SLOAD DUP2 PUSH1 0xC ADD PUSH0 CALLER PUSH20 0xFFFFFFFFFFFFFFFFFFFFFFFFFFFFFFFFFFFFFFFF AND PUSH20 0xFFFFFFFFFFFFFFFFFFFFFFFFFFFFFFFFFFFFFFFF AND DUP2 MSTORE PUSH1 0x20 ADD SWAP1 DUP2 MSTORE PUSH1 0x20 ADD PUSH0 KECCAK256 DUP2 SWAP1 SSTORE POP PUSH1 0x1 ISZERO ISZERO DUP2 PUSH1 0xE ADD PUSH0 CALLER PUSH20 0xFFFFFFFFFFFFFFFFFFFFFFFFFFFFFFFFFFFFFFFF AND PUSH20 0xFFFFFFFFFFFFFFFFFFFFFFFFFFFFFFFFFFFFFFFF AND DUP2 MSTORE PUSH1 0x20 ADD SWAP1 DUP2 MSTORE PUSH1 0x20 ADD PUSH0 KECCAK256 PUSH0 SWAP1 SLOAD SWAP1 PUSH2 0x100 EXP SWAP1 DIV PUSH1 0xFF AND ISZERO ISZERO EQ PUSH2 0x1ACC JUMPI DUP1 PUSH1 0xA ADD CALLER SWAP1 DUP1 PUSH1 0x1 DUP2 SLOAD ADD DUP1 DUP3 SSTORE DUP1 SWAP2 POP POP PUSH1 0x1 SWAP1 SUB SWAP1 PUSH0 MSTORE PUSH1 0x20 PUSH0 KECCAK256 ADD PUSH0 SWAP1 SWAP2 SWAP1 SWAP2 SWAP1 SWAP2 PUSH2 0x100 EXP DUP2 SLOAD DUP2 PUSH20 0xFFFFFFFFFFFFFFFFFFFFFFFFFFFFFFFFFFFFFFFF MUL NOT AND SWAP1 DUP4 PUSH20 0xFFFFFFFFFFFFFFFFFFFFFFFFFFFFFFFFFFFFFFFF AND MUL OR SWAP1 SSTORE POP JUMPDEST PUSH32 0x43D2F309913F6AFC5D717F60864D2D192B69963D25204B6A12765E2795BF027F DUP3 DUP3 PUSH0 ADD CALLER DUP5 PUSH1 0x1 ADD SLOAD DUP6 PUSH1 0x3 ADD SLOAD DUP7 PUSH1 0x5 ADD SLOAD DUP8 PUSH1 0x6 ADD SLOAD DUP9 PUSH1 0x7 ADD SLOAD PUSH1 0x40 MLOAD PUSH2 0x1B1F SWAP9 SWAP8 SWAP7 SWAP6 SWAP5 SWAP4 SWAP3 SWAP2 SWAP1 PUSH2 0x3A96 JUMP JUMPDEST PUSH1 0x40 MLOAD DUP1 SWAP2 SUB SWAP1 LOG1 POP POP JUMP JUMPDEST PUSH0 DUP1 PUSH2 0x1B35 PUSH2 0x20F3 JUMP JUMPDEST SWAP1 POP DUP1 PUSH0 ADD PUSH0 SWAP1 SLOAD SWAP1 PUSH2 0x100 EXP SWAP1 DIV PUSH20 0xFFFFFFFFFFFFFFFFFFFFFFFFFFFFFFFFFFFFFFFF AND SWAP2 POP POP SWAP1 JUMP JUMPDEST PUSH20 0x4300000000000000000000000000000000000002 DUP2 JUMP JUMPDEST PUSH0 PUSH1 0x7 PUSH0 DUP4 DUP2 MSTORE PUSH1 0x20 ADD SWAP1 DUP2 MSTORE PUSH1 0x20 ADD PUSH0 KECCAK256 SWAP1 POP PUSH0 DUP2 PUSH1 0xD ADD PUSH0 CALLER PUSH20 0xFFFFFFFFFFFFFFFFFFFFFFFFFFFFFFFFFFFFFFFF AND PUSH20 0xFFFFFFFFFFFFFFFFFFFFFFFFFFFFFFFFFFFFFFFF AND DUP2 MSTORE PUSH1 0x20 ADD SWAP1 DUP2 MSTORE PUSH1 0x20 ADD PUSH0 KECCAK256 SLOAD GT PUSH2 0x1C0D JUMPI PUSH1 0x40 MLOAD PUSH32 0x8C379A000000000000000000000000000000000000000000000000000000000 DUP2 MSTORE PUSH1 0x4 ADD PUSH2 0x1C04 SWAP1 PUSH2 0x3B63 JUMP JUMPDEST PUSH1 0x40 MLOAD DUP1 SWAP2 SUB SWAP1 REVERT JUMPDEST PUSH0 DUP2 PUSH1 0xD ADD PUSH0 CALLER PUSH20 0xFFFFFFFFFFFFFFFFFFFFFFFFFFFFFFFFFFFFFFFF AND PUSH20 0xFFFFFFFFFFFFFFFFFFFFFFFFFFFFFFFFFFFFFFFF AND DUP2 MSTORE PUSH1 0x20 ADD SWAP1 DUP2 MSTORE PUSH1 0x20 ADD PUSH0 KECCAK256 SLOAD SWAP1 POP PUSH0 DUP3 PUSH1 0xD ADD PUSH0 CALLER PUSH20 0xFFFFFFFFFFFFFFFFFFFFFFFFFFFFFFFFFFFFFFFF AND PUSH20 0xFFFFFFFFFFFFFFFFFFFFFFFFFFFFFFFFFFFFFFFF AND DUP2 MSTORE PUSH1 0x20 ADD SWAP1 DUP2 MSTORE PUSH1 0x20 ADD PUSH0 KECCAK256 DUP2 SWAP1 SSTORE POP PUSH1 0x5 PUSH0 SWAP1 SLOAD SWAP1 PUSH2 0x100 EXP SWAP1 DIV PUSH20 0xFFFFFFFFFFFFFFFFFFFFFFFFFFFFFFFFFFFFFFFF AND PUSH20 0xFFFFFFFFFFFFFFFFFFFFFFFFFFFFFFFFFFFFFFFF AND PUSH4 0xA9059CBB CALLER DUP4 PUSH1 0x40 MLOAD DUP4 PUSH4 0xFFFFFFFF AND PUSH1 0xE0 SHL DUP2 MSTORE PUSH1 0x4 ADD PUSH2 0x1CF0 SWAP3 SWAP2 SWAP1 PUSH2 0x3529 JUMP JUMPDEST PUSH1 0x20 PUSH1 0x40 MLOAD DUP1 DUP4 SUB DUP2 PUSH0 DUP8 GAS CALL ISZERO DUP1 ISZERO PUSH2 0x1D0C JUMPI RETURNDATASIZE PUSH0 DUP1 RETURNDATACOPY RETURNDATASIZE PUSH0 REVERT JUMPDEST POP POP POP POP PUSH1 0x40 MLOAD RETURNDATASIZE PUSH1 0x1F NOT PUSH1 0x1F DUP3 ADD AND DUP3 ADD DUP1 PUSH1 0x40 MSTORE POP DUP2 ADD SWAP1 PUSH2 0x1D30 SWAP2 SWAP1 PUSH2 0x2D3B JUMP JUMPDEST PUSH2 0x1D6F JUMPI PUSH1 0x40 MLOAD PUSH32 0x8C379A000000000000000000000000000000000000000000000000000000000 DUP2 MSTORE PUSH1 0x4 ADD PUSH2 0x1D66 SWAP1 PUSH2 0x39F7 JUMP JUMPDEST PUSH1 0x40 MLOAD DUP1 SWAP2 SUB SWAP1 REVERT JUMPDEST POP POP POP JUMP JUMPDEST PUSH1 0x4 SLOAD DUP2 JUMP JUMPDEST PUSH1 0x7 PUSH1 0x20 MSTORE DUP1 PUSH0 MSTORE PUSH1 0x40 PUSH0 KECCAK256 PUSH0 SWAP2 POP SWAP1 POP DUP1 PUSH0 ADD DUP1 SLOAD PUSH2 0x1D99 SWAP1 PUSH2 0x2EBA JUMP JUMPDEST DUP1 PUSH1 0x1F ADD PUSH1 0x20 DUP1 SWAP2 DIV MUL PUSH1 0x20 ADD PUSH1 0x40 MLOAD SWAP1 DUP2 ADD PUSH1 0x40 MSTORE DUP1 SWAP3 SWAP2 SWAP1 DUP2 DUP2 MSTORE PUSH1 0x20 ADD DUP3 DUP1 SLOAD PUSH2 0x1DC5 SWAP1 PUSH2 0x2EBA JUMP JUMPDEST DUP1 ISZERO PUSH2 0x1E10 JUMPI DUP1 PUSH1 0x1F LT PUSH2 0x1DE7 JUMPI PUSH2 0x100 DUP1 DUP4 SLOAD DIV MUL DUP4 MSTORE SWAP2 PUSH1 0x20 ADD SWAP2 PUSH2 0x1E10 JUMP JUMPDEST DUP3 ADD SWAP2 SWAP1 PUSH0 MSTORE PUSH1 0x20 PUSH0 KECCAK256 SWAP1 JUMPDEST DUP2 SLOAD DUP2 MSTORE SWAP1 PUSH1 0x1 ADD SWAP1 PUSH1 0x20 ADD DUP1 DUP4 GT PUSH2 0x1DF3 JUMPI DUP3 SWAP1 SUB PUSH1 0x1F AND DUP3 ADD SWAP2 JUMPDEST POP POP POP POP POP SWAP1 DUP1 PUSH1 0x1 ADD SLOAD SWAP1 DUP1 PUSH1 0x2 ADD SLOAD SWAP1 DUP1 PUSH1 0x3 ADD SLOAD SWAP1 DUP1 PUSH1 0x4 ADD SLOAD SWAP1 DUP1 PUSH1 0x5 ADD SLOAD SWAP1 DUP1 PUSH1 0x6 ADD SLOAD SWAP1 DUP1 PUSH1 0x7 ADD SLOAD SWAP1 DUP1 PUSH1 0x8 ADD SLOAD SWAP1 DUP1 PUSH1 0x9 ADD PUSH0 SWAP1 SLOAD SWAP1 PUSH2 0x100 EXP SWAP1 DIV PUSH8 0xFFFFFFFFFFFFFFFF AND SWAP1 DUP1 PUSH1 0x9 ADD PUSH1 0x8 SWAP1 SLOAD SWAP1 PUSH2 0x100 EXP SWAP1 DIV PUSH20 0xFFFFFFFFFFFFFFFFFFFFFFFFFFFFFFFFFFFFFFFF AND SWAP1 POP DUP12 JUMP JUMPDEST PUSH2 0x1E91 PUSH2 0x1F4A JUMP JUMPDEST PUSH0 PUSH20 0xFFFFFFFFFFFFFFFFFFFFFFFFFFFFFFFFFFFFFFFF AND DUP2 PUSH20 0xFFFFFFFFFFFFFFFFFFFFFFFFFFFFFFFFFFFFFFFF AND SUB PUSH2 0x1F01 JUMPI PUSH0 PUSH1 0x40 MLOAD PUSH32 0x1E4FBDF700000000000000000000000000000000000000000000000000000000 DUP2 MSTORE PUSH1 0x4 ADD PUSH2 0x1EF8 SWAP2 SWAP1 PUSH2 0x2863 JUMP JUMPDEST PUSH1 0x40 MLOAD DUP1 SWAP2 SUB SWAP1 REVERT JUMPDEST PUSH2 0x1F0A DUP2 PUSH2 0x1FE7 JUMP JUMPDEST POP JUMP JUMPDEST PUSH0 DUP1 PUSH1 0x64 DUP4 PUSH2 0x1F1C SWAP2 SWAP1 PUSH2 0x3835 JUMP JUMPDEST SWAP1 POP DUP1 DUP4 PUSH2 0x1F2A SWAP2 SWAP1 PUSH2 0x3414 JUMP JUMPDEST SWAP2 POP DUP1 PUSH1 0x4 PUSH0 DUP3 DUP3 SLOAD PUSH2 0x1F3D SWAP2 SWAP1 PUSH2 0x326D JUMP JUMPDEST SWAP3 POP POP DUP2 SWAP1 SSTORE POP POP SWAP2 SWAP1 POP JUMP JUMPDEST PUSH2 0x1F52 PUSH2 0x211A JUMP JUMPDEST PUSH20 0xFFFFFFFFFFFFFFFFFFFFFFFFFFFFFFFFFFFFFFFF AND PUSH2 0x1F70 PUSH2 0x1B2B JUMP JUMPDEST PUSH20 0xFFFFFFFFFFFFFFFFFFFFFFFFFFFFFFFFFFFFFFFF AND EQ PUSH2 0x1FCF JUMPI PUSH2 0x1F93 PUSH2 0x211A JUMP JUMPDEST PUSH1 0x40 MLOAD PUSH32 0x118CDAA700000000000000000000000000000000000000000000000000000000 DUP2 MSTORE PUSH1 0x4 ADD PUSH2 0x1FC6 SWAP2 SWAP1 PUSH2 0x2863 JUMP JUMPDEST PUSH1 0x40 MLOAD DUP1 SWAP2 SUB SWAP1 REVERT JUMPDEST JUMP JUMPDEST PUSH0 DUP3 PUSH2 0x1FDD DUP6 DUP5 PUSH2 0x2121 JUMP JUMPDEST EQ SWAP1 POP SWAP4 SWAP3 POP POP POP JUMP JUMPDEST PUSH0 PUSH2 0x1FF0 PUSH2 0x20F3 JUMP JUMPDEST SWAP1 POP PUSH0 DUP2 PUSH0 ADD PUSH0 SWAP1 SLOAD SWAP1 PUSH2 0x100 EXP SWAP1 DIV PUSH20 0xFFFFFFFFFFFFFFFFFFFFFFFFFFFFFFFFFFFFFFFF AND SWAP1 POP DUP3 DUP3 PUSH0 ADD PUSH0 PUSH2 0x100 EXP DUP2 SLOAD DUP2 PUSH20 0xFFFFFFFFFFFFFFFFFFFFFFFFFFFFFFFFFFFFFFFF MUL NOT AND SWAP1 DUP4 PUSH20 0xFFFFFFFFFFFFFFFFFFFFFFFFFFFFFFFFFFFFFFFF AND MUL OR SWAP1 SSTORE POP DUP3 PUSH20 0xFFFFFFFFFFFFFFFFFFFFFFFFFFFFFFFFFFFFFFFF AND DUP2 PUSH20 0xFFFFFFFFFFFFFFFFFFFFFFFFFFFFFFFFFFFFFFFF AND PUSH32 0x8BE0079C531659141344CD1FD0A4F28419497F9722A3DAAFE3B4186F6B6457E0 PUSH1 0x40 MLOAD PUSH1 0x40 MLOAD DUP1 SWAP2 SUB SWAP1 LOG3 POP POP POP JUMP JUMPDEST PUSH0 PUSH32 0xF0C57E16840DF040F15088DC2F81FE391C3923BEC73E23A9662EFC9C229C6A00 SWAP1 POP SWAP1 JUMP JUMPDEST PUSH2 0x20E7 PUSH2 0x216F JUMP JUMPDEST PUSH2 0x20F0 DUP2 PUSH2 0x21AF JUMP JUMPDEST POP JUMP JUMPDEST PUSH0 PUSH32 0x9016D09D72D40FDAE2FD8CEAC6B6234C7706214FD39C1CD1E609A0528C199300 SWAP1 POP SWAP1 JUMP JUMPDEST PUSH0 CALLER SWAP1 POP SWAP1 JUMP JUMPDEST PUSH0 DUP1 DUP3 SWAP1 POP PUSH0 JUMPDEST DUP5 MLOAD DUP2 LT ISZERO PUSH2 0x2164 JUMPI PUSH2 0x2155 DUP3 DUP7 DUP4 DUP2 MLOAD DUP2 LT PUSH2 0x2148 JUMPI PUSH2 0x2147 PUSH2 0x33E7 JUMP JUMPDEST JUMPDEST PUSH1 0x20 MUL PUSH1 0x20 ADD ADD MLOAD PUSH2 0x2233 JUMP JUMPDEST SWAP2 POP DUP1 DUP1 PUSH1 0x1 ADD SWAP2 POP POP PUSH2 0x2128 JUMP JUMPDEST POP DUP1 SWAP2 POP POP SWAP3 SWAP2 POP POP JUMP JUMPDEST PUSH2 0x2177 PUSH2 0x225D JUMP JUMPDEST PUSH2 0x21AD JUMPI PUSH1 0x40 MLOAD PUSH32 0xD7E6BCF800000000000000000000000000000000000000000000000000000000 DUP2 MSTORE PUSH1 0x4 ADD PUSH1 0x40 MLOAD DUP1 SWAP2 SUB SWAP1 REVERT JUMPDEST JUMP JUMPDEST PUSH2 0x21B7 PUSH2 0x216F JUMP JUMPDEST PUSH0 PUSH20 0xFFFFFFFFFFFFFFFFFFFFFFFFFFFFFFFFFFFFFFFF AND DUP2 PUSH20 0xFFFFFFFFFFFFFFFFFFFFFFFFFFFFFFFFFFFFFFFF AND SUB PUSH2 0x2227 JUMPI PUSH0 PUSH1 0x40 MLOAD PUSH32 0x1E4FBDF700000000000000000000000000000000000000000000000000000000 DUP2 MSTORE PUSH1 0x4 ADD PUSH2 0x221E SWAP2 SWAP1 PUSH2 0x2863 JUMP JUMPDEST PUSH1 0x40 MLOAD DUP1 SWAP2 SUB SWAP1 REVERT JUMPDEST PUSH2 0x2230 DUP2 PUSH2 0x1FE7 JUMP JUMPDEST POP JUMP JUMPDEST PUSH0 DUP2 DUP4 LT PUSH2 0x224A JUMPI PUSH2 0x2245 DUP3 DUP5 PUSH2 0x227B JUMP JUMPDEST PUSH2 0x2255 JUMP JUMPDEST PUSH2 0x2254 DUP4 DUP4 PUSH2 0x227B JUMP JUMPDEST JUMPDEST SWAP1 POP SWAP3 SWAP2 POP POP JUMP JUMPDEST PUSH0 PUSH2 0x2266 PUSH2 0x20B8 JUMP JUMPDEST PUSH0 ADD PUSH1 0x8 SWAP1 SLOAD SWAP1 PUSH2 0x100 EXP SWAP1 DIV PUSH1 0xFF AND SWAP1 POP SWAP1 JUMP JUMPDEST PUSH0 DUP3 PUSH0 MSTORE DUP2 PUSH1 0x20 MSTORE PUSH1 0x40 PUSH0 KECCAK256 SWAP1 POP SWAP3 SWAP2 POP POP JUMP JUMPDEST POP DUP1 SLOAD PUSH0 DUP3 SSTORE SWAP1 PUSH0 MSTORE PUSH1 0x20 PUSH0 KECCAK256 SWAP1 DUP2 ADD SWAP1 PUSH2 0x22AA SWAP2 SWAP1 PUSH2 0x22AD JUMP JUMPDEST POP JUMP JUMPDEST JUMPDEST DUP1 DUP3 GT ISZERO PUSH2 0x22C4 JUMPI PUSH0 DUP2 PUSH0 SWAP1 SSTORE POP PUSH1 0x1 ADD PUSH2 0x22AE JUMP JUMPDEST POP SWAP1 JUMP JUMPDEST PUSH0 PUSH1 0x40 MLOAD SWAP1 POP SWAP1 JUMP JUMPDEST PUSH0 DUP1 REVERT JUMPDEST PUSH0 DUP1 REVERT JUMPDEST PUSH0 DUP1 REVERT JUMPDEST PUSH0 DUP1 REVERT JUMPDEST PUSH0 PUSH1 0x1F NOT PUSH1 0x1F DUP4 ADD AND SWAP1 POP SWAP2 SWAP1 POP JUMP JUMPDEST PUSH32 0x4E487B7100000000000000000000000000000000000000000000000000000000 PUSH0 MSTORE PUSH1 0x41 PUSH1 0x4 MSTORE PUSH1 0x24 PUSH0 REVERT JUMPDEST PUSH2 0x2327 DUP3 PUSH2 0x22E1 JUMP JUMPDEST DUP2 ADD DUP2 DUP2 LT PUSH8 0xFFFFFFFFFFFFFFFF DUP3 GT OR ISZERO PUSH2 0x2346 JUMPI PUSH2 0x2345 PUSH2 0x22F1 JUMP JUMPDEST JUMPDEST DUP1 PUSH1 0x40 MSTORE POP POP POP JUMP JUMPDEST PUSH0 PUSH2 0x2358 PUSH2 0x22C8 JUMP JUMPDEST SWAP1 POP PUSH2 0x2364 DUP3 DUP3 PUSH2 0x231E JUMP JUMPDEST SWAP2 SWAP1 POP JUMP JUMPDEST PUSH0 PUSH8 0xFFFFFFFFFFFFFFFF DUP3 GT ISZERO PUSH2 0x2383 JUMPI PUSH2 0x2382 PUSH2 0x22F1 JUMP JUMPDEST JUMPDEST PUSH2 0x238C DUP3 PUSH2 0x22E1 JUMP JUMPDEST SWAP1 POP PUSH1 0x20 DUP2 ADD SWAP1 POP SWAP2 SWAP1 POP JUMP JUMPDEST DUP3 DUP2 DUP4 CALLDATACOPY PUSH0 DUP4 DUP4 ADD MSTORE POP POP POP JUMP JUMPDEST PUSH0 PUSH2 0x23B9 PUSH2 0x23B4 DUP5 PUSH2 0x2369 JUMP JUMPDEST PUSH2 0x234F JUMP JUMPDEST SWAP1 POP DUP3 DUP2 MSTORE PUSH1 0x20 DUP2 ADD DUP5 DUP5 DUP5 ADD GT ISZERO PUSH2 0x23D5 JUMPI PUSH2 0x23D4 PUSH2 0x22DD JUMP JUMPDEST JUMPDEST PUSH2 0x23E0 DUP5 DUP3 DUP6 PUSH2 0x2399 JUMP JUMPDEST POP SWAP4 SWAP3 POP POP POP JUMP JUMPDEST PUSH0 DUP3 PUSH1 0x1F DUP4 ADD SLT PUSH2 0x23FC JUMPI PUSH2 0x23FB PUSH2 0x22D9 JUMP JUMPDEST JUMPDEST DUP2 CALLDATALOAD PUSH2 0x240C DUP5 DUP3 PUSH1 0x20 DUP7 ADD PUSH2 0x23A7 JUMP JUMPDEST SWAP2 POP POP SWAP3 SWAP2 POP POP JUMP JUMPDEST PUSH0 DUP2 SWAP1 POP SWAP2 SWAP1 POP JUMP JUMPDEST PUSH2 0x2427 DUP2 PUSH2 0x2415 JUMP JUMPDEST DUP2 EQ PUSH2 0x2431 JUMPI PUSH0 DUP1 REVERT JUMPDEST POP JUMP JUMPDEST PUSH0 DUP2 CALLDATALOAD SWAP1 POP PUSH2 0x2442 DUP2 PUSH2 0x241E JUMP JUMPDEST SWAP3 SWAP2 POP POP JUMP JUMPDEST PUSH0 DUP2 SWAP1 POP SWAP2 SWAP1 POP JUMP JUMPDEST PUSH2 0x245A DUP2 PUSH2 0x2448 JUMP JUMPDEST DUP2 EQ PUSH2 0x2464 JUMPI PUSH0 DUP1 REVERT JUMPDEST POP JUMP JUMPDEST PUSH0 DUP2 CALLDATALOAD SWAP1 POP PUSH2 0x2475 DUP2 PUSH2 0x2451 JUMP JUMPDEST SWAP3 SWAP2 POP POP JUMP JUMPDEST PUSH0 DUP1 PUSH0 DUP1 PUSH0 DUP1 PUSH0 PUSH1 0xE0 DUP9 DUP11 SUB SLT ISZERO PUSH2 0x2496 JUMPI PUSH2 0x2495 PUSH2 0x22D1 JUMP JUMPDEST JUMPDEST PUSH0 DUP9 ADD CALLDATALOAD PUSH8 0xFFFFFFFFFFFFFFFF DUP2 GT ISZERO PUSH2 0x24B3 JUMPI PUSH2 0x24B2 PUSH2 0x22D5 JUMP JUMPDEST JUMPDEST PUSH2 0x24BF DUP11 DUP3 DUP12 ADD PUSH2 0x23E8 JUMP JUMPDEST SWAP8 POP POP PUSH1 0x20 PUSH2 0x24D0 DUP11 DUP3 DUP12 ADD PUSH2 0x2434 JUMP JUMPDEST SWAP7 POP POP PUSH1 0x40 PUSH2 0x24E1 DUP11 DUP3 DUP12 ADD PUSH2 0x2467 JUMP JUMPDEST SWAP6 POP POP PUSH1 0x60 PUSH2 0x24F2 DUP11 DUP3 DUP12 ADD PUSH2 0x2467 JUMP JUMPDEST SWAP5 POP POP PUSH1 0x80 PUSH2 0x2503 DUP11 DUP3 DUP12 ADD PUSH2 0x2467 JUMP JUMPDEST SWAP4 POP POP PUSH1 0xA0 PUSH2 0x2514 DUP11 DUP3 DUP12 ADD PUSH2 0x2467 JUMP JUMPDEST SWAP3 POP POP PUSH1 0xC0 PUSH2 0x2525 DUP11 DUP3 DUP12 ADD PUSH2 0x2467 JUMP JUMPDEST SWAP2 POP POP SWAP3 SWAP6 SWAP9 SWAP2 SWAP5 SWAP8 POP SWAP3 SWAP6 POP JUMP JUMPDEST PUSH2 0x253D DUP2 PUSH2 0x2415 JUMP JUMPDEST DUP3 MSTORE POP POP JUMP JUMPDEST PUSH0 PUSH1 0x20 DUP3 ADD SWAP1 POP PUSH2 0x2556 PUSH0 DUP4 ADD DUP5 PUSH2 0x2534 JUMP JUMPDEST SWAP3 SWAP2 POP POP JUMP JUMPDEST PUSH0 PUSH20 0xFFFFFFFFFFFFFFFFFFFFFFFFFFFFFFFFFFFFFFFF DUP3 AND SWAP1 POP SWAP2 SWAP1 POP JUMP JUMPDEST PUSH0 DUP2 SWAP1 POP SWAP2 SWAP1 POP JUMP JUMPDEST PUSH0 PUSH2 0x259E PUSH2 0x2599 PUSH2 0x2594 DUP5 PUSH2 0x255C JUMP JUMPDEST PUSH2 0x257B JUMP JUMPDEST PUSH2 0x255C JUMP JUMPDEST SWAP1 POP SWAP2 SWAP1 POP JUMP JUMPDEST PUSH0 PUSH2 0x25AF DUP3 PUSH2 0x2584 JUMP JUMPDEST SWAP1 POP SWAP2 SWAP1 POP JUMP JUMPDEST PUSH0 PUSH2 0x25C0 DUP3 PUSH2 0x25A5 JUMP JUMPDEST SWAP1 POP SWAP2 SWAP1 POP JUMP JUMPDEST PUSH2 0x25D0 DUP2 PUSH2 0x25B6 JUMP JUMPDEST DUP3 MSTORE POP POP JUMP JUMPDEST PUSH0 PUSH1 0x20 DUP3 ADD SWAP1 POP PUSH2 0x25E9 PUSH0 DUP4 ADD DUP5 PUSH2 0x25C7 JUMP JUMPDEST SWAP3 SWAP2 POP POP JUMP JUMPDEST PUSH0 DUP1 PUSH0 PUSH1 0x60 DUP5 DUP7 SUB SLT ISZERO PUSH2 0x2606 JUMPI PUSH2 0x2605 PUSH2 0x22D1 JUMP JUMPDEST JUMPDEST PUSH0 PUSH2 0x2613 DUP7 DUP3 DUP8 ADD PUSH2 0x2467 JUMP JUMPDEST SWAP4 POP POP PUSH1 0x20 PUSH2 0x2624 DUP7 DUP3 DUP8 ADD PUSH2 0x2434 JUMP JUMPDEST SWAP3 POP POP PUSH1 0x40 PUSH2 0x2635 DUP7 DUP3 DUP8 ADD PUSH2 0x2434 JUMP JUMPDEST SWAP2 POP POP SWAP3 POP SWAP3 POP SWAP3 JUMP JUMPDEST PUSH0 PUSH2 0x2649 DUP3 PUSH2 0x25A5 JUMP JUMPDEST SWAP1 POP SWAP2 SWAP1 POP JUMP JUMPDEST PUSH2 0x2659 DUP2 PUSH2 0x263F JUMP JUMPDEST DUP3 MSTORE POP POP JUMP JUMPDEST PUSH0 PUSH1 0x20 DUP3 ADD SWAP1 POP PUSH2 0x2672 PUSH0 DUP4 ADD DUP5 PUSH2 0x2650 JUMP JUMPDEST SWAP3 SWAP2 POP POP JUMP JUMPDEST PUSH0 DUP1 REVERT JUMPDEST PUSH0 DUP1 REVERT JUMPDEST PUSH0 DUP1 DUP4 PUSH1 0x1F DUP5 ADD SLT PUSH2 0x2695 JUMPI PUSH2 0x2694 PUSH2 0x22D9 JUMP JUMPDEST JUMPDEST DUP3 CALLDATALOAD SWAP1 POP PUSH8 0xFFFFFFFFFFFFFFFF DUP2 GT ISZERO PUSH2 0x26B2 JUMPI PUSH2 0x26B1 PUSH2 0x2678 JUMP JUMPDEST JUMPDEST PUSH1 0x20 DUP4 ADD SWAP2 POP DUP4 PUSH1 0x20 DUP3 MUL DUP4 ADD GT ISZERO PUSH2 0x26CE JUMPI PUSH2 0x26CD PUSH2 0x267C JUMP JUMPDEST JUMPDEST SWAP3 POP SWAP3 SWAP1 POP JUMP JUMPDEST PUSH0 DUP1 PUSH0 PUSH1 0x40 DUP5 DUP7 SUB SLT ISZERO PUSH2 0x26EC JUMPI PUSH2 0x26EB PUSH2 0x22D1 JUMP JUMPDEST JUMPDEST PUSH0 PUSH2 0x26F9 DUP7 DUP3 DUP8 ADD PUSH2 0x2467 JUMP JUMPDEST SWAP4 POP POP PUSH1 0x20 DUP5 ADD CALLDATALOAD PUSH8 0xFFFFFFFFFFFFFFFF DUP2 GT ISZERO PUSH2 0x271A JUMPI PUSH2 0x2719 PUSH2 0x22D5 JUMP JUMPDEST JUMPDEST PUSH2 0x2726 DUP7 DUP3 DUP8 ADD PUSH2 0x2680 JUMP JUMPDEST SWAP3 POP SWAP3 POP POP SWAP3 POP SWAP3 POP SWAP3 JUMP JUMPDEST PUSH0 PUSH2 0x273C DUP3 PUSH2 0x255C JUMP JUMPDEST SWAP1 POP SWAP2 SWAP1 POP JUMP JUMPDEST PUSH2 0x274C DUP2 PUSH2 0x2732 JUMP JUMPDEST DUP2 EQ PUSH2 0x2756 JUMPI PUSH0 DUP1 REVERT JUMPDEST POP JUMP JUMPDEST PUSH0 DUP2 CALLDATALOAD SWAP1 POP PUSH2 0x2767 DUP2 PUSH2 0x2743 JUMP JUMPDEST SWAP3 SWAP2 POP POP JUMP JUMPDEST PUSH0 PUSH1 0x20 DUP3 DUP5 SUB SLT ISZERO PUSH2 0x2782 JUMPI PUSH2 0x2781 PUSH2 0x22D1 JUMP JUMPDEST JUMPDEST PUSH0 PUSH2 0x278F DUP5 DUP3 DUP6 ADD PUSH2 0x2759 JUMP JUMPDEST SWAP2 POP POP SWAP3 SWAP2 POP POP JUMP JUMPDEST PUSH2 0x27A1 DUP2 PUSH2 0x2448 JUMP JUMPDEST DUP3 MSTORE POP POP JUMP JUMPDEST PUSH0 PUSH1 0x20 DUP3 ADD SWAP1 POP PUSH2 0x27BA PUSH0 DUP4 ADD DUP5 PUSH2 0x2798 JUMP JUMPDEST SWAP3 SWAP2 POP POP JUMP JUMPDEST PUSH0 PUSH1 0x20 DUP3 DUP5 SUB SLT ISZERO PUSH2 0x27D5 JUMPI PUSH2 0x27D4 PUSH2 0x22D1 JUMP JUMPDEST JUMPDEST PUSH0 PUSH2 0x27E2 DUP5 DUP3 DUP6 ADD PUSH2 0x2434 JUMP JUMPDEST SWAP2 POP POP SWAP3 SWAP2 POP POP JUMP JUMPDEST PUSH0 DUP1 PUSH1 0x40 DUP4 DUP6 SUB SLT ISZERO PUSH2 0x2801 JUMPI PUSH2 0x2800 PUSH2 0x22D1 JUMP JUMPDEST JUMPDEST PUSH0 PUSH2 0x280E DUP6 DUP3 DUP7 ADD PUSH2 0x2467 JUMP JUMPDEST SWAP3 POP POP PUSH1 0x20 PUSH2 0x281F DUP6 DUP3 DUP7 ADD PUSH2 0x2467 JUMP JUMPDEST SWAP2 POP POP SWAP3 POP SWAP3 SWAP1 POP JUMP JUMPDEST PUSH0 PUSH1 0x20 DUP3 DUP5 SUB SLT ISZERO PUSH2 0x283E JUMPI PUSH2 0x283D PUSH2 0x22D1 JUMP JUMPDEST JUMPDEST PUSH0 PUSH2 0x284B DUP5 DUP3 DUP6 ADD PUSH2 0x2467 JUMP JUMPDEST SWAP2 POP POP SWAP3 SWAP2 POP POP JUMP JUMPDEST PUSH2 0x285D DUP2 PUSH2 0x2732 JUMP JUMPDEST DUP3 MSTORE POP POP JUMP JUMPDEST PUSH0 PUSH1 0x20 DUP3 ADD SWAP1 POP PUSH2 0x2876 PUSH0 DUP4 ADD DUP5 PUSH2 0x2854 JUMP JUMPDEST SWAP3 SWAP2 POP POP JUMP JUMPDEST PUSH0 PUSH2 0x2886 DUP3 PUSH2 0x25A5 JUMP JUMPDEST SWAP1 POP SWAP2 SWAP1 POP JUMP JUMPDEST PUSH2 0x2896 DUP2 PUSH2 0x287C JUMP JUMPDEST DUP3 MSTORE POP POP JUMP JUMPDEST PUSH0 PUSH1 0x20 DUP3 ADD SWAP1 POP PUSH2 0x28AF PUSH0 DUP4 ADD DUP5 PUSH2 0x288D JUMP JUMPDEST SWAP3 SWAP2 POP POP JUMP JUMPDEST PUSH0 DUP2 MLOAD SWAP1 POP SWAP2 SWAP1 POP JUMP JUMPDEST PUSH0 DUP3 DUP3 MSTORE PUSH1 0x20 DUP3 ADD SWAP1 POP SWAP3 SWAP2 POP POP JUMP JUMPDEST PUSH0 JUMPDEST DUP4 DUP2 LT ISZERO PUSH2 0x28EC JUMPI DUP1 DUP3 ADD MLOAD DUP2 DUP5 ADD MSTORE PUSH1 0x20 DUP2 ADD SWAP1 POP PUSH2 0x28D1 JUMP JUMPDEST PUSH0 DUP5 DUP5 ADD MSTORE POP POP POP POP JUMP JUMPDEST PUSH0 PUSH2 0x2901 DUP3 PUSH2 0x28B5 JUMP JUMPDEST PUSH2 0x290B DUP2 DUP6 PUSH2 0x28BF JUMP JUMPDEST SWAP4 POP PUSH2 0x291B DUP2 DUP6 PUSH1 0x20 DUP7 ADD PUSH2 0x28CF JUMP JUMPDEST PUSH2 0x2924 DUP2 PUSH2 0x22E1 JUMP JUMPDEST DUP5 ADD SWAP2 POP POP SWAP3 SWAP2 POP POP JUMP JUMPDEST PUSH0 PUSH8 0xFFFFFFFFFFFFFFFF DUP3 AND SWAP1 POP SWAP2 SWAP1 POP JUMP JUMPDEST PUSH2 0x294B DUP2 PUSH2 0x292F JUMP JUMPDEST DUP3 MSTORE POP POP JUMP JUMPDEST PUSH0 PUSH2 0x160 DUP3 ADD SWAP1 POP DUP2 DUP2 SUB PUSH0 DUP4 ADD MSTORE PUSH2 0x296A DUP2 DUP15 PUSH2 0x28F7 JUMP JUMPDEST SWAP1 POP PUSH2 0x2979 PUSH1 0x20 DUP4 ADD DUP14 PUSH2 0x2798 JUMP JUMPDEST PUSH2 0x2986 PUSH1 0x40 DUP4 ADD DUP13 PUSH2 0x2798 JUMP JUMPDEST PUSH2 0x2993 PUSH1 0x60 DUP4 ADD DUP12 PUSH2 0x2798 JUMP JUMPDEST PUSH2 0x29A0 PUSH1 0x80 DUP4 ADD DUP11 PUSH2 0x2798 JUMP JUMPDEST PUSH2 0x29AD PUSH1 0xA0 DUP4 ADD DUP10 PUSH2 0x2798 JUMP JUMPDEST PUSH2 0x29BA PUSH1 0xC0 DUP4 ADD DUP9 PUSH2 0x2798 JUMP JUMPDEST PUSH2 0x29C7 PUSH1 0xE0 DUP4 ADD DUP8 PUSH2 0x2798 JUMP JUMPDEST PUSH2 0x29D5 PUSH2 0x100 DUP4 ADD DUP7 PUSH2 0x2798 JUMP JUMPDEST PUSH2 0x29E3 PUSH2 0x120 DUP4 ADD DUP6 PUSH2 0x2942 JUMP JUMPDEST PUSH2 0x29F1 PUSH2 0x140 DUP4 ADD DUP5 PUSH2 0x2854 JUMP JUMPDEST SWAP13 SWAP12 POP POP POP POP POP POP POP POP POP POP POP POP JUMP JUMPDEST PUSH0 PUSH16 0xFFFFFFFFFFFFFFFFFFFFFFFFFFFFFFFF DUP3 AND SWAP1 POP SWAP2 SWAP1 POP JUMP JUMPDEST PUSH2 0x2A25 DUP2 PUSH2 0x2A01 JUMP JUMPDEST DUP2 EQ PUSH2 0x2A2F JUMPI PUSH0 DUP1 REVERT JUMPDEST POP JUMP JUMPDEST PUSH0 DUP2 MLOAD SWAP1 POP PUSH2 0x2A40 DUP2 PUSH2 0x2A1C JUMP JUMPDEST SWAP3 SWAP2 POP POP JUMP JUMPDEST PUSH0 PUSH1 0x20 DUP3 DUP5 SUB SLT ISZERO PUSH2 0x2A5B JUMPI PUSH2 0x2A5A PUSH2 0x22D1 JUMP JUMPDEST JUMPDEST PUSH0 PUSH2 0x2A68 DUP5 DUP3 DUP6 ADD PUSH2 0x2A32 JUMP JUMPDEST SWAP2 POP POP SWAP3 SWAP2 POP POP JUMP JUMPDEST PUSH32 0x496E73756666696369656E742066656500000000000000000000000000000000 PUSH0 DUP3 ADD MSTORE POP JUMP JUMPDEST PUSH0 PUSH2 0x2AA5 PUSH1 0x10 DUP4 PUSH2 0x28BF JUMP JUMPDEST SWAP2 POP PUSH2 0x2AB0 DUP3 PUSH2 0x2A71 JUMP JUMPDEST PUSH1 0x20 DUP3 ADD SWAP1 POP SWAP2 SWAP1 POP JUMP JUMPDEST PUSH0 PUSH1 0x20 DUP3 ADD SWAP1 POP DUP2 DUP2 SUB PUSH0 DUP4 ADD MSTORE PUSH2 0x2AD2 DUP2 PUSH2 0x2A99 JUMP JUMPDEST SWAP1 POP SWAP2 SWAP1 POP JUMP JUMPDEST PUSH32 0x526F746174696F6E206379636C65206D75737420626520706F73697469766500 PUSH0 DUP3 ADD MSTORE POP JUMP JUMPDEST PUSH0 PUSH2 0x2B0D PUSH1 0x1F DUP4 PUSH2 0x28BF JUMP JUMPDEST SWAP2 POP PUSH2 0x2B18 DUP3 PUSH2 0x2AD9 JUMP JUMPDEST PUSH1 0x20 DUP3 ADD SWAP1 POP SWAP2 SWAP1 POP JUMP JUMPDEST PUSH0 PUSH1 0x20 DUP3 ADD SWAP1 POP DUP2 DUP2 SUB PUSH0 DUP4 ADD MSTORE PUSH2 0x2B3A DUP2 PUSH2 0x2B01 JUMP JUMPDEST SWAP1 POP SWAP2 SWAP1 POP JUMP JUMPDEST PUSH32 0x496E7465726573742064656E6F6D696E61746F72206D75737420626520706F73 PUSH0 DUP3 ADD MSTORE PUSH32 0x6974697665000000000000000000000000000000000000000000000000000000 PUSH1 0x20 DUP3 ADD MSTORE POP JUMP JUMPDEST PUSH0 PUSH2 0x2B9B PUSH1 0x25 DUP4 PUSH2 0x28BF JUMP JUMPDEST SWAP2 POP PUSH2 0x2BA6 DUP3 PUSH2 0x2B41 JUMP JUMPDEST PUSH1 0x40 DUP3 ADD SWAP1 POP SWAP2 SWAP1 POP JUMP JUMPDEST PUSH0 PUSH1 0x20 DUP3 ADD SWAP1 POP DUP2 DUP2 SUB PUSH0 DUP4 ADD MSTORE PUSH2 0x2BC8 DUP2 PUSH2 0x2B8F JUMP JUMPDEST SWAP1 POP SWAP2 SWAP1 POP JUMP JUMPDEST PUSH32 0x4E756D657261746F72206D757374206265206C657373207468616E206F722065 PUSH0 DUP3 ADD MSTORE PUSH32 0x7175616C20746F2064656E6F6D696E61746F7200000000000000000000000000 PUSH1 0x20 DUP3 ADD MSTORE POP JUMP JUMPDEST PUSH0 PUSH2 0x2C29 PUSH1 0x33 DUP4 PUSH2 0x28BF JUMP JUMPDEST SWAP2 POP PUSH2 0x2C34 DUP3 PUSH2 0x2BCF JUMP JUMPDEST PUSH1 0x40 DUP3 ADD SWAP1 POP SWAP2 SWAP1 POP JUMP JUMPDEST PUSH0 PUSH1 0x20 DUP3 ADD SWAP1 POP DUP2 DUP2 SUB PUSH0 DUP4 ADD MSTORE PUSH2 0x2C56 DUP2 PUSH2 0x2C1D JUMP JUMPDEST SWAP1 POP SWAP2 SWAP1 POP JUMP JUMPDEST PUSH32 0x4E487B7100000000000000000000000000000000000000000000000000000000 PUSH0 MSTORE PUSH1 0x11 PUSH1 0x4 MSTORE PUSH1 0x24 PUSH0 REVERT JUMPDEST PUSH0 PUSH2 0x2C94 DUP3 PUSH2 0x2448 JUMP JUMPDEST SWAP2 POP PUSH32 0xFFFFFFFFFFFFFFFFFFFFFFFFFFFFFFFFFFFFFFFFFFFFFFFFFFFFFFFFFFFFFFFF DUP3 SUB PUSH2 0x2CC6 JUMPI PUSH2 0x2CC5 PUSH2 0x2C5D JUMP JUMPDEST JUMPDEST PUSH1 0x1 DUP3 ADD SWAP1 POP SWAP2 SWAP1 POP JUMP JUMPDEST PUSH0 PUSH1 0x60 DUP3 ADD SWAP1 POP PUSH2 0x2CE4 PUSH0 DUP4 ADD DUP7 PUSH2 0x2854 JUMP JUMPDEST PUSH2 0x2CF1 PUSH1 0x20 DUP4 ADD DUP6 PUSH2 0x2854 JUMP JUMPDEST PUSH2 0x2CFE PUSH1 0x40 DUP4 ADD DUP5 PUSH2 0x2798 JUMP JUMPDEST SWAP5 SWAP4 POP POP POP POP JUMP JUMPDEST PUSH0 DUP2 ISZERO ISZERO SWAP1 POP SWAP2 SWAP1 POP JUMP JUMPDEST PUSH2 0x2D1A DUP2 PUSH2 0x2D06 JUMP JUMPDEST DUP2 EQ PUSH2 0x2D24 JUMPI PUSH0 DUP1 REVERT JUMPDEST POP JUMP JUMPDEST PUSH0 DUP2 MLOAD SWAP1 POP PUSH2 0x2D35 DUP2 PUSH2 0x2D11 JUMP JUMPDEST SWAP3 SWAP2 POP POP JUMP JUMPDEST PUSH0 PUSH1 0x20 DUP3 DUP5 SUB SLT ISZERO PUSH2 0x2D50 JUMPI PUSH2 0x2D4F PUSH2 0x22D1 JUMP JUMPDEST JUMPDEST PUSH0 PUSH2 0x2D5D DUP5 DUP3 DUP6 ADD PUSH2 0x2D27 JUMP JUMPDEST SWAP2 POP POP SWAP3 SWAP2 POP POP JUMP JUMPDEST PUSH32 0x43726561746F722073686F756C64206465706F7369742074686520696E697469 PUSH0 DUP3 ADD MSTORE PUSH32 0x616C20616D6F756E740000000000000000000000000000000000000000000000 PUSH1 0x20 DUP3 ADD MSTORE POP JUMP JUMPDEST PUSH0 PUSH2 0x2DC0 PUSH1 0x29 DUP4 PUSH2 0x28BF JUMP JUMPDEST SWAP2 POP PUSH2 0x2DCB DUP3 PUSH2 0x2D66 JUMP JUMPDEST PUSH1 0x40 DUP3 ADD SWAP1 POP SWAP2 SWAP1 POP JUMP JUMPDEST PUSH0 PUSH1 0x20 DUP3 ADD SWAP1 POP DUP2 DUP2 SUB PUSH0 DUP4 ADD MSTORE PUSH2 0x2DED DUP2 PUSH2 0x2DB4 JUMP JUMPDEST SWAP1 POP SWAP2 SWAP1 POP JUMP JUMPDEST PUSH2 0x2DFD DUP2 PUSH2 0x2D06 JUMP JUMPDEST DUP3 MSTORE POP POP JUMP JUMPDEST PUSH0 PUSH1 0x60 DUP3 ADD SWAP1 POP PUSH2 0x2E16 PUSH0 DUP4 ADD DUP7 PUSH2 0x2854 JUMP JUMPDEST PUSH2 0x2E23 PUSH1 0x20 DUP4 ADD DUP6 PUSH2 0x2534 JUMP JUMPDEST PUSH2 0x2E30 PUSH1 0x40 DUP4 ADD DUP5 PUSH2 0x2DF4 JUMP JUMPDEST SWAP5 SWAP4 POP POP POP POP JUMP JUMPDEST PUSH2 0x2E41 DUP2 PUSH2 0x292F JUMP JUMPDEST DUP2 EQ PUSH2 0x2E4B JUMPI PUSH0 DUP1 REVERT JUMPDEST POP JUMP JUMPDEST PUSH0 DUP2 MLOAD SWAP1 POP PUSH2 0x2E5C DUP2 PUSH2 0x2E38 JUMP JUMPDEST SWAP3 SWAP2 POP POP JUMP JUMPDEST PUSH0 PUSH1 0x20 DUP3 DUP5 SUB SLT ISZERO PUSH2 0x2E77 JUMPI PUSH2 0x2E76 PUSH2 0x22D1 JUMP JUMPDEST JUMPDEST PUSH0 PUSH2 0x2E84 DUP5 DUP3 DUP6 ADD PUSH2 0x2E4E JUMP JUMPDEST SWAP2 POP POP SWAP3 SWAP2 POP POP JUMP JUMPDEST PUSH32 0x4E487B7100000000000000000000000000000000000000000000000000000000 PUSH0 MSTORE PUSH1 0x22 PUSH1 0x4 MSTORE PUSH1 0x24 PUSH0 REVERT JUMPDEST PUSH0 PUSH1 0x2 DUP3 DIV SWAP1 POP PUSH1 0x1 DUP3 AND DUP1 PUSH2 0x2ED1 JUMPI PUSH1 0x7F DUP3 AND SWAP2 POP JUMPDEST PUSH1 0x20 DUP3 LT DUP2 SUB PUSH2 0x2EE4 JUMPI PUSH2 0x2EE3 PUSH2 0x2E8D JUMP JUMPDEST JUMPDEST POP SWAP2 SWAP1 POP JUMP JUMPDEST PUSH0 DUP2 SWAP1 POP DUP2 PUSH0 MSTORE PUSH1 0x20 PUSH0 KECCAK256 SWAP1 POP SWAP2 SWAP1 POP JUMP JUMPDEST PUSH0 PUSH1 0x20 PUSH1 0x1F DUP4 ADD DIV SWAP1 POP SWAP2 SWAP1 POP JUMP JUMPDEST PUSH0 DUP3 DUP3 SHL SWAP1 POP SWAP3 SWAP2 POP POP JUMP JUMPDEST PUSH0 PUSH1 0x8 DUP4 MUL PUSH2 0x2F46 PUSH32 0xFFFFFFFFFFFFFFFFFFFFFFFFFFFFFFFFFFFFFFFFFFFFFFFFFFFFFFFFFFFFFFFF DUP3 PUSH2 0x2F0B JUMP JUMPDEST PUSH2 0x2F50 DUP7 DUP4 PUSH2 0x2F0B JUMP JUMPDEST SWAP6 POP DUP1 NOT DUP5 AND SWAP4 POP DUP1 DUP7 AND DUP5 OR SWAP3 POP POP POP SWAP4 SWAP3 POP POP POP JUMP JUMPDEST PUSH0 PUSH2 0x2F82 PUSH2 0x2F7D PUSH2 0x2F78 DUP5 PUSH2 0x2448 JUMP JUMPDEST PUSH2 0x257B JUMP JUMPDEST PUSH2 0x2448 JUMP JUMPDEST SWAP1 POP SWAP2 SWAP1 POP JUMP JUMPDEST PUSH0 DUP2 SWAP1 POP SWAP2 SWAP1 POP JUMP JUMPDEST PUSH2 0x2F9B DUP4 PUSH2 0x2F68 JUMP JUMPDEST PUSH2 0x2FAF PUSH2 0x2FA7 DUP3 PUSH2 0x2F89 JUMP JUMPDEST DUP5 DUP5 SLOAD PUSH2 0x2F17 JUMP JUMPDEST DUP3 SSTORE POP POP POP POP JUMP JUMPDEST PUSH0 SWAP1 JUMP JUMPDEST PUSH2 0x2FC3 PUSH2 0x2FB7 JUMP JUMPDEST PUSH2 0x2FCE DUP2 DUP5 DUP5 PUSH2 0x2F92 JUMP JUMPDEST POP POP POP JUMP JUMPDEST JUMPDEST DUP2 DUP2 LT ISZERO PUSH2 0x2FF1 JUMPI PUSH2 0x2FE6 PUSH0 DUP3 PUSH2 0x2FBB JUMP JUMPDEST PUSH1 0x1 DUP2 ADD SWAP1 POP PUSH2 0x2FD4 JUMP JUMPDEST POP POP JUMP JUMPDEST PUSH1 0x1F DUP3 GT ISZERO PUSH2 0x3036 JUMPI PUSH2 0x3007 DUP2 PUSH2 0x2EEA JUMP JUMPDEST PUSH2 0x3010 DUP5 PUSH2 0x2EFC JUMP JUMPDEST DUP2 ADD PUSH1 0x20 DUP6 LT ISZERO PUSH2 0x301F JUMPI DUP2 SWAP1 POP JUMPDEST PUSH2 0x3033 PUSH2 0x302B DUP6 PUSH2 0x2EFC JUMP JUMPDEST DUP4 ADD DUP3 PUSH2 0x2FD3 JUMP JUMPDEST POP POP JUMPDEST POP POP POP JUMP JUMPDEST PUSH0 DUP3 DUP3 SHR SWAP1 POP SWAP3 SWAP2 POP POP JUMP JUMPDEST PUSH0 PUSH2 0x3056 PUSH0 NOT DUP5 PUSH1 0x8 MUL PUSH2 0x303B JUMP JUMPDEST NOT DUP1 DUP4 AND SWAP2 POP POP SWAP3 SWAP2 POP POP JUMP JUMPDEST PUSH0 PUSH2 0x306E DUP4 DUP4 PUSH2 0x3047 JUMP JUMPDEST SWAP2 POP DUP3 PUSH1 0x2 MUL DUP3 OR SWAP1 POP SWAP3 SWAP2 POP POP JUMP JUMPDEST PUSH2 0x3087 DUP3 PUSH2 0x28B5 JUMP JUMPDEST PUSH8 0xFFFFFFFFFFFFFFFF DUP2 GT ISZERO PUSH2 0x30A0 JUMPI PUSH2 0x309F PUSH2 0x22F1 JUMP JUMPDEST JUMPDEST PUSH2 0x30AA DUP3 SLOAD PUSH2 0x2EBA JUMP JUMPDEST PUSH2 0x30B5 DUP3 DUP3 DUP6 PUSH2 0x2FF5 JUMP JUMPDEST PUSH0 PUSH1 0x20 SWAP1 POP PUSH1 0x1F DUP4 GT PUSH1 0x1 DUP2 EQ PUSH2 0x30E6 JUMPI PUSH0 DUP5 ISZERO PUSH2 0x30D4 JUMPI DUP3 DUP8 ADD MLOAD SWAP1 POP JUMPDEST PUSH2 0x30DE DUP6 DUP3 PUSH2 0x3063 JUMP JUMPDEST DUP7 SSTORE POP PUSH2 0x3145 JUMP JUMPDEST PUSH1 0x1F NOT DUP5 AND PUSH2 0x30F4 DUP7 PUSH2 0x2EEA JUMP JUMPDEST PUSH0 JUMPDEST DUP3 DUP2 LT ISZERO PUSH2 0x311B JUMPI DUP5 DUP10 ADD MLOAD DUP3 SSTORE PUSH1 0x1 DUP3 ADD SWAP2 POP PUSH1 0x20 DUP6 ADD SWAP5 POP PUSH1 0x20 DUP2 ADD SWAP1 POP PUSH2 0x30F6 JUMP JUMPDEST DUP7 DUP4 LT ISZERO PUSH2 0x3138 JUMPI DUP5 DUP10 ADD MLOAD PUSH2 0x3134 PUSH1 0x1F DUP10 AND DUP3 PUSH2 0x3047 JUMP JUMPDEST DUP4 SSTORE POP JUMPDEST PUSH1 0x1 PUSH1 0x2 DUP9 MUL ADD DUP9 SSTORE POP POP POP JUMPDEST POP POP POP POP POP POP JUMP JUMPDEST PUSH0 PUSH2 0x120 DUP3 ADD SWAP1 POP PUSH2 0x3161 PUSH0 DUP4 ADD DUP13 PUSH2 0x2798 JUMP JUMPDEST DUP2 DUP2 SUB PUSH1 0x20 DUP4 ADD MSTORE PUSH2 0x3173 DUP2 DUP12 PUSH2 0x28F7 JUMP JUMPDEST SWAP1 POP PUSH2 0x3182 PUSH1 0x40 DUP4 ADD DUP11 PUSH2 0x2854 JUMP JUMPDEST PUSH2 0x318F PUSH1 0x60 DUP4 ADD DUP10 PUSH2 0x2798 JUMP JUMPDEST PUSH2 0x319C PUSH1 0x80 DUP4 ADD DUP9 PUSH2 0x2798 JUMP JUMPDEST PUSH2 0x31A9 PUSH1 0xA0 DUP4 ADD DUP8 PUSH2 0x2798 JUMP JUMPDEST PUSH2 0x31B6 PUSH1 0xC0 DUP4 ADD DUP7 PUSH2 0x2798 JUMP JUMPDEST PUSH2 0x31C3 PUSH1 0xE0 DUP4 ADD DUP6 PUSH2 0x2798 JUMP JUMPDEST PUSH2 0x31D1 PUSH2 0x100 DUP4 ADD DUP5 PUSH2 0x2942 JUMP JUMPDEST SWAP11 SWAP10 POP POP POP POP POP POP POP POP POP POP JUMP JUMPDEST PUSH32 0x4F6E6C792074686520706F742063726561746F722063616E2072657665616C20 PUSH0 DUP3 ADD MSTORE PUSH32 0x7468652077696E6E657200000000000000000000000000000000000000000000 PUSH1 0x20 DUP3 ADD MSTORE POP JUMP JUMPDEST PUSH0 PUSH2 0x3239 PUSH1 0x2A DUP4 PUSH2 0x28BF JUMP JUMPDEST SWAP2 POP PUSH2 0x3244 DUP3 PUSH2 0x31DF JUMP JUMPDEST PUSH1 0x40 DUP3 ADD SWAP1 POP SWAP2 SWAP1 POP JUMP JUMPDEST PUSH0 PUSH1 0x20 DUP3 ADD SWAP1 POP DUP2 DUP2 SUB PUSH0 DUP4 ADD MSTORE PUSH2 0x3266 DUP2 PUSH2 0x322D JUMP JUMPDEST SWAP1 POP SWAP2 SWAP1 POP JUMP JUMPDEST PUSH0 PUSH2 0x3277 DUP3 PUSH2 0x2448 JUMP JUMPDEST SWAP2 POP PUSH2 0x3282 DUP4 PUSH2 0x2448 JUMP JUMPDEST SWAP3 POP DUP3 DUP3 ADD SWAP1 POP DUP1 DUP3 GT ISZERO PUSH2 0x329A JUMPI PUSH2 0x3299 PUSH2 0x2C5D JUMP JUMPDEST JUMPDEST SWAP3 SWAP2 POP POP JUMP JUMPDEST PUSH32 0x4E65787420726F746174696F6E206E6F74207965742064756500000000000000 PUSH0 DUP3 ADD MSTORE POP JUMP JUMPDEST PUSH0 PUSH2 0x32D4 PUSH1 0x19 DUP4 PUSH2 0x28BF JUMP JUMPDEST SWAP2 POP PUSH2 0x32DF DUP3 PUSH2 0x32A0 JUMP JUMPDEST PUSH1 0x20 DUP3 ADD SWAP1 POP SWAP2 SWAP1 POP JUMP JUMPDEST PUSH0 PUSH1 0x20 DUP3 ADD SWAP1 POP DUP2 DUP2 SUB PUSH0 DUP4 ADD MSTORE PUSH2 0x3301 DUP2 PUSH2 0x32C8 JUMP JUMPDEST SWAP1 POP SWAP2 SWAP1 POP JUMP JUMPDEST PUSH0 PUSH1 0x80 DUP3 ADD SWAP1 POP PUSH2 0x331B PUSH0 DUP4 ADD DUP8 PUSH2 0x2854 JUMP JUMPDEST PUSH2 0x3328 PUSH1 0x20 DUP4 ADD DUP7 PUSH2 0x2942 JUMP JUMPDEST PUSH2 0x3335 PUSH1 0x40 DUP4 ADD DUP6 PUSH2 0x2534 JUMP JUMPDEST PUSH2 0x3342 PUSH1 0x60 DUP4 ADD DUP5 PUSH2 0x2534 JUMP JUMPDEST SWAP6 SWAP5 POP POP POP POP POP JUMP JUMPDEST PUSH0 DUP2 MLOAD SWAP1 POP PUSH2 0x3359 DUP2 PUSH2 0x241E JUMP JUMPDEST SWAP3 SWAP2 POP POP JUMP JUMPDEST PUSH0 PUSH1 0x20 DUP3 DUP5 SUB SLT ISZERO PUSH2 0x3374 JUMPI PUSH2 0x3373 PUSH2 0x22D1 JUMP JUMPDEST JUMPDEST PUSH0 PUSH2 0x3381 DUP5 DUP3 DUP6 ADD PUSH2 0x334B JUMP JUMPDEST SWAP2 POP POP SWAP3 SWAP2 POP POP JUMP JUMPDEST PUSH32 0x4E487B7100000000000000000000000000000000000000000000000000000000 PUSH0 MSTORE PUSH1 0x12 PUSH1 0x4 MSTORE PUSH1 0x24 PUSH0 REVERT JUMPDEST PUSH0 PUSH2 0x33C1 DUP3 PUSH2 0x2448 JUMP JUMPDEST SWAP2 POP PUSH2 0x33CC DUP4 PUSH2 0x2448 JUMP JUMPDEST SWAP3 POP DUP3 PUSH2 0x33DC JUMPI PUSH2 0x33DB PUSH2 0x338A JUMP JUMPDEST JUMPDEST DUP3 DUP3 MOD SWAP1 POP SWAP3 SWAP2 POP POP JUMP JUMPDEST PUSH32 0x4E487B7100000000000000000000000000000000000000000000000000000000 PUSH0 MSTORE PUSH1 0x32 PUSH1 0x4 MSTORE PUSH1 0x24 PUSH0 REVERT JUMPDEST PUSH0 PUSH2 0x341E DUP3 PUSH2 0x2448 JUMP JUMPDEST SWAP2 POP PUSH2 0x3429 DUP4 PUSH2 0x2448 JUMP JUMPDEST SWAP3 POP DUP3 DUP3 SUB SWAP1 POP DUP2 DUP2 GT ISZERO PUSH2 0x3441 JUMPI PUSH2 0x3440 PUSH2 0x2C5D JUMP JUMPDEST JUMPDEST SWAP3 SWAP2 POP POP JUMP JUMPDEST PUSH32 0x4E487B7100000000000000000000000000000000000000000000000000000000 PUSH0 MSTORE PUSH1 0x31 PUSH1 0x4 MSTORE PUSH1 0x24 PUSH0 REVERT JUMPDEST PUSH0 PUSH2 0x347E DUP3 PUSH2 0x2448 JUMP JUMPDEST SWAP2 POP PUSH2 0x3489 DUP4 PUSH2 0x2448 JUMP JUMPDEST SWAP3 POP DUP3 DUP3 MUL PUSH2 0x3497 DUP2 PUSH2 0x2448 JUMP JUMPDEST SWAP2 POP DUP3 DUP3 DIV DUP5 EQ DUP4 ISZERO OR PUSH2 0x34AE JUMPI PUSH2 0x34AD PUSH2 0x2C5D JUMP JUMPDEST JUMPDEST POP SWAP3 SWAP2 POP POP JUMP JUMPDEST PUSH0 PUSH1 0x60 DUP3 ADD SWAP1 POP PUSH2 0x34C8 PUSH0 DUP4 ADD DUP7 PUSH2 0x2798 JUMP JUMPDEST PUSH2 0x34D5 PUSH1 0x20 DUP4 ADD DUP6 PUSH2 0x2854 JUMP JUMPDEST PUSH2 0x34E2 PUSH1 0x40 DUP4 ADD DUP5 PUSH2 0x2798 JUMP JUMPDEST SWAP5 SWAP4 POP POP POP POP JUMP JUMPDEST PUSH0 DUP2 MLOAD SWAP1 POP PUSH2 0x34F8 DUP2 PUSH2 0x2451 JUMP JUMPDEST SWAP3 SWAP2 POP POP JUMP JUMPDEST PUSH0 PUSH1 0x20 DUP3 DUP5 SUB SLT ISZERO PUSH2 0x3513 JUMPI PUSH2 0x3512 PUSH2 0x22D1 JUMP JUMPDEST JUMPDEST PUSH0 PUSH2 0x3520 DUP5 DUP3 DUP6 ADD PUSH2 0x34EA JUMP JUMPDEST SWAP2 POP POP SWAP3 SWAP2 POP POP JUMP JUMPDEST PUSH0 PUSH1 0x40 DUP3 ADD SWAP1 POP PUSH2 0x353C PUSH0 DUP4 ADD DUP6 PUSH2 0x2854 JUMP JUMPDEST PUSH2 0x3549 PUSH1 0x20 DUP4 ADD DUP5 PUSH2 0x2798 JUMP JUMPDEST SWAP4 SWAP3 POP POP POP JUMP JUMPDEST PUSH32 0x4E6F20726576656E756520746F20776974686472617700000000000000000000 PUSH0 DUP3 ADD MSTORE POP JUMP JUMPDEST PUSH0 PUSH2 0x3584 PUSH1 0x16 DUP4 PUSH2 0x28BF JUMP JUMPDEST SWAP2 POP PUSH2 0x358F DUP3 PUSH2 0x3550 JUMP JUMPDEST PUSH1 0x20 DUP3 ADD SWAP1 POP SWAP2 SWAP1 POP JUMP JUMPDEST PUSH0 PUSH1 0x20 DUP3 ADD SWAP1 POP DUP2 DUP2 SUB PUSH0 DUP4 ADD MSTORE PUSH2 0x35B1 DUP2 PUSH2 0x3578 JUMP JUMPDEST SWAP1 POP SWAP2 SWAP1 POP JUMP JUMPDEST PUSH32 0x526576656E7565207769746864726177616C206661696C656400000000000000 PUSH0 DUP3 ADD MSTORE POP JUMP JUMPDEST PUSH0 PUSH2 0x35EC PUSH1 0x19 DUP4 PUSH2 0x28BF JUMP JUMPDEST SWAP2 POP PUSH2 0x35F7 DUP3 PUSH2 0x35B8 JUMP JUMPDEST PUSH1 0x20 DUP3 ADD SWAP1 POP SWAP2 SWAP1 POP JUMP JUMPDEST PUSH0 PUSH1 0x20 DUP3 ADD SWAP1 POP DUP2 DUP2 SUB PUSH0 DUP4 ADD MSTORE PUSH2 0x3619 DUP2 PUSH2 0x35E0 JUMP JUMPDEST SWAP1 POP SWAP2 SWAP1 POP JUMP JUMPDEST PUSH0 DUP2 PUSH1 0x60 SHL SWAP1 POP SWAP2 SWAP1 POP JUMP JUMPDEST PUSH0 PUSH2 0x3636 DUP3 PUSH2 0x3620 JUMP JUMPDEST SWAP1 POP SWAP2 SWAP1 POP JUMP JUMPDEST PUSH0 PUSH2 0x3647 DUP3 PUSH2 0x362C JUMP JUMPDEST SWAP1 POP SWAP2 SWAP1 POP JUMP JUMPDEST PUSH2 0x365F PUSH2 0x365A DUP3 PUSH2 0x2732 JUMP JUMPDEST PUSH2 0x363D JUMP JUMPDEST DUP3 MSTORE POP POP JUMP JUMPDEST PUSH0 DUP2 SWAP1 POP SWAP2 SWAP1 POP JUMP JUMPDEST PUSH2 0x367F PUSH2 0x367A DUP3 PUSH2 0x2448 JUMP JUMPDEST PUSH2 0x3665 JUMP JUMPDEST DUP3 MSTORE POP POP JUMP JUMPDEST PUSH0 PUSH2 0x3690 DUP3 DUP6 PUSH2 0x364E JUMP JUMPDEST PUSH1 0x14 DUP3 ADD SWAP2 POP PUSH2 0x36A0 DUP3 DUP5 PUSH2 0x366E JUMP JUMPDEST PUSH1 0x20 DUP3 ADD SWAP2 POP DUP2 SWAP1 POP SWAP4 SWAP3 POP POP POP JUMP JUMPDEST PUSH32 0x496E76616C69642070726F6F662E000000000000000000000000000000000000 PUSH0 DUP3 ADD MSTORE POP JUMP JUMPDEST PUSH0 PUSH2 0x36E4 PUSH1 0xE DUP4 PUSH2 0x28BF JUMP JUMPDEST SWAP2 POP PUSH2 0x36EF DUP3 PUSH2 0x36B0 JUMP JUMPDEST PUSH1 0x20 DUP3 ADD SWAP1 POP SWAP2 SWAP1 POP JUMP JUMPDEST PUSH0 PUSH1 0x20 DUP3 ADD SWAP1 POP DUP2 DUP2 SUB PUSH0 DUP4 ADD MSTORE PUSH2 0x3711 DUP2 PUSH2 0x36D8 JUMP JUMPDEST SWAP1 POP SWAP2 SWAP1 POP JUMP JUMPDEST PUSH32 0x4E6F2066756E6473206C65667420746F20636C61696D206F7220616C72656164 PUSH0 DUP3 ADD MSTORE PUSH32 0x7920636C61696D65642E00000000000000000000000000000000000000000000 PUSH1 0x20 DUP3 ADD MSTORE POP JUMP JUMPDEST PUSH0 PUSH2 0x3772 PUSH1 0x2A DUP4 PUSH2 0x28BF JUMP JUMPDEST SWAP2 POP PUSH2 0x377D DUP3 PUSH2 0x3718 JUMP JUMPDEST PUSH1 0x40 DUP3 ADD SWAP1 POP SWAP2 SWAP1 POP JUMP JUMPDEST PUSH0 PUSH1 0x20 DUP3 ADD SWAP1 POP DUP2 DUP2 SUB PUSH0 DUP4 ADD MSTORE PUSH2 0x379F DUP2 PUSH2 0x3766 JUMP JUMPDEST SWAP1 POP SWAP2 SWAP1 POP JUMP JUMPDEST PUSH32 0x5969656C64207472616E73666572206661696C65640000000000000000000000 PUSH0 DUP3 ADD MSTORE POP JUMP JUMPDEST PUSH0 PUSH2 0x37DA PUSH1 0x15 DUP4 PUSH2 0x28BF JUMP JUMPDEST SWAP2 POP PUSH2 0x37E5 DUP3 PUSH2 0x37A6 JUMP JUMPDEST PUSH1 0x20 DUP3 ADD SWAP1 POP SWAP2 SWAP1 POP JUMP JUMPDEST PUSH0 PUSH1 0x20 DUP3 ADD SWAP1 POP DUP2 DUP2 SUB PUSH0 DUP4 ADD MSTORE PUSH2 0x3807 DUP2 PUSH2 0x37CE JUMP JUMPDEST SWAP1 POP SWAP2 SWAP1 POP JUMP JUMPDEST PUSH0 PUSH1 0x40 DUP3 ADD SWAP1 POP PUSH2 0x3821 PUSH0 DUP4 ADD DUP6 PUSH2 0x2854 JUMP JUMPDEST PUSH2 0x382E PUSH1 0x20 DUP4 ADD DUP5 PUSH2 0x2854 JUMP JUMPDEST SWAP4 SWAP3 POP POP POP JUMP JUMPDEST PUSH0 PUSH2 0x383F DUP3 PUSH2 0x2448 JUMP JUMPDEST SWAP2 POP PUSH2 0x384A DUP4 PUSH2 0x2448 JUMP JUMPDEST SWAP3 POP DUP3 PUSH2 0x385A JUMPI PUSH2 0x3859 PUSH2 0x338A JUMP JUMPDEST JUMPDEST DUP3 DUP3 DIV SWAP1 POP SWAP3 SWAP2 POP POP JUMP JUMPDEST PUSH0 DUP2 SWAP1 POP SWAP2 SWAP1 POP JUMP JUMPDEST PUSH0 PUSH2 0x3888 PUSH2 0x3883 PUSH2 0x387E DUP5 PUSH2 0x3865 JUMP JUMPDEST PUSH2 0x257B JUMP JUMPDEST PUSH2 0x292F JUMP JUMPDEST SWAP1 POP SWAP2 SWAP1 POP JUMP JUMPDEST PUSH2 0x3898 DUP2 PUSH2 0x386E JUMP JUMPDEST DUP3 MSTORE POP POP JUMP JUMPDEST PUSH0 PUSH1 0x20 DUP3 ADD SWAP1 POP PUSH2 0x38B1 PUSH0 DUP4 ADD DUP5 PUSH2 0x388F JUMP JUMPDEST SWAP3 SWAP2 POP POP JUMP JUMPDEST PUSH32 0x506F742069732066756C6C000000000000000000000000000000000000000000 PUSH0 DUP3 ADD MSTORE POP JUMP JUMPDEST PUSH0 PUSH2 0x38EB PUSH1 0xB DUP4 PUSH2 0x28BF JUMP JUMPDEST SWAP2 POP PUSH2 0x38F6 DUP3 PUSH2 0x38B7 JUMP JUMPDEST PUSH1 0x20 DUP3 ADD SWAP1 POP SWAP2 SWAP1 POP JUMP JUMPDEST PUSH0 PUSH1 0x20 DUP3 ADD SWAP1 POP DUP2 DUP2 SUB PUSH0 DUP4 ADD MSTORE PUSH2 0x3918 DUP2 PUSH2 0x38DF JUMP JUMPDEST SWAP1 POP SWAP2 SWAP1 POP JUMP JUMPDEST PUSH32 0x416C7265616479206A6F696E6564206F72206D69737365642061206465706F73 PUSH0 DUP3 ADD MSTORE PUSH32 0x6974000000000000000000000000000000000000000000000000000000000000 PUSH1 0x20 DUP3 ADD MSTORE POP JUMP JUMPDEST PUSH0 PUSH2 0x3979 PUSH1 0x22 DUP4 PUSH2 0x28BF JUMP JUMPDEST SWAP2 POP PUSH2 0x3984 DUP3 PUSH2 0x391F JUMP JUMPDEST PUSH1 0x40 DUP3 ADD SWAP1 POP SWAP2 SWAP1 POP JUMP JUMPDEST PUSH0 PUSH1 0x20 DUP3 ADD SWAP1 POP DUP2 DUP2 SUB PUSH0 DUP4 ADD MSTORE PUSH2 0x39A6 DUP2 PUSH2 0x396D JUMP JUMPDEST SWAP1 POP SWAP2 SWAP1 POP JUMP JUMPDEST PUSH32 0x5472616E73666572206661696C65640000000000000000000000000000000000 PUSH0 DUP3 ADD MSTORE POP JUMP JUMPDEST PUSH0 PUSH2 0x39E1 PUSH1 0xF DUP4 PUSH2 0x28BF JUMP JUMPDEST SWAP2 POP PUSH2 0x39EC DUP3 PUSH2 0x39AD JUMP JUMPDEST PUSH1 0x20 DUP3 ADD SWAP1 POP SWAP2 SWAP1 POP JUMP JUMPDEST PUSH0 PUSH1 0x20 DUP3 ADD SWAP1 POP DUP2 DUP2 SUB PUSH0 DUP4 ADD MSTORE PUSH2 0x3A0E DUP2 PUSH2 0x39D5 JUMP JUMPDEST SWAP1 POP SWAP2 SWAP1 POP JUMP JUMPDEST PUSH0 DUP2 SLOAD PUSH2 0x3A21 DUP2 PUSH2 0x2EBA JUMP JUMPDEST PUSH2 0x3A2B DUP2 DUP7 PUSH2 0x28BF JUMP JUMPDEST SWAP5 POP PUSH1 0x1 DUP3 AND PUSH0 DUP2 EQ PUSH2 0x3A45 JUMPI PUSH1 0x1 DUP2 EQ PUSH2 0x3A5B JUMPI PUSH2 0x3A8D JUMP JUMPDEST PUSH1 0xFF NOT DUP4 AND DUP7 MSTORE DUP2 ISZERO ISZERO PUSH1 0x20 MUL DUP7 ADD SWAP4 POP PUSH2 0x3A8D JUMP JUMPDEST PUSH2 0x3A64 DUP6 PUSH2 0x2EEA JUMP JUMPDEST PUSH0 JUMPDEST DUP4 DUP2 LT ISZERO PUSH2 0x3A85 JUMPI DUP2 SLOAD DUP2 DUP10 ADD MSTORE PUSH1 0x1 DUP3 ADD SWAP2 POP PUSH1 0x20 DUP2 ADD SWAP1 POP PUSH2 0x3A66 JUMP JUMPDEST DUP1 DUP9 ADD SWAP6 POP POP POP JUMPDEST POP POP POP SWAP3 SWAP2 POP POP JUMP JUMPDEST PUSH0 PUSH2 0x100 DUP3 ADD SWAP1 POP PUSH2 0x3AAA PUSH0 DUP4 ADD DUP12 PUSH2 0x2798 JUMP JUMPDEST DUP2 DUP2 SUB PUSH1 0x20 DUP4 ADD MSTORE PUSH2 0x3ABC DUP2 DUP11 PUSH2 0x3A15 JUMP JUMPDEST SWAP1 POP PUSH2 0x3ACB PUSH1 0x40 DUP4 ADD DUP10 PUSH2 0x2854 JUMP JUMPDEST PUSH2 0x3AD8 PUSH1 0x60 DUP4 ADD DUP9 PUSH2 0x2798 JUMP JUMPDEST PUSH2 0x3AE5 PUSH1 0x80 DUP4 ADD DUP8 PUSH2 0x2798 JUMP JUMPDEST PUSH2 0x3AF2 PUSH1 0xA0 DUP4 ADD DUP7 PUSH2 0x2798 JUMP JUMPDEST PUSH2 0x3AFF PUSH1 0xC0 DUP4 ADD DUP6 PUSH2 0x2798 JUMP JUMPDEST PUSH2 0x3B0C PUSH1 0xE0 DUP4 ADD DUP5 PUSH2 0x2798 JUMP JUMPDEST SWAP10 SWAP9 POP POP POP POP POP POP POP POP POP JUMP JUMPDEST PUSH32 0x4E6F2072657761726420746F20636C61696D0000000000000000000000000000 PUSH0 DUP3 ADD MSTORE POP JUMP JUMPDEST PUSH0 PUSH2 0x3B4D PUSH1 0x12 DUP4 PUSH2 0x28BF JUMP JUMPDEST SWAP2 POP PUSH2 0x3B58 DUP3 PUSH2 0x3B19 JUMP JUMPDEST PUSH1 0x20 DUP3 ADD SWAP1 POP SWAP2 SWAP1 POP JUMP JUMPDEST PUSH0 PUSH1 0x20 DUP3 ADD SWAP1 POP DUP2 DUP2 SUB PUSH0 DUP4 ADD MSTORE PUSH2 0x3B7A DUP2 PUSH2 0x3B41 JUMP JUMPDEST SWAP1 POP SWAP2 SWAP1 POP JUMP INVALID LOG2 PUSH5 0x6970667358 0x22 SLT KECCAK256 0x21 CALL 0xB1 CALLER 0xD0 0xF 0x25 0xB2 0x26 DIV 0xB9 SDIV 0x4B 0x29 PUSH22 0xE2292CB3876CF3616942716C2FF253F1E764736F6C63 NUMBER STOP ADDMOD XOR STOP CALLER "
		},
		"gasEstimates": {
			"creation": {
				"codeDepositCost": "3057400",
				"executionCost": "infinite",
				"totalCost": "infinite"
			},
			"external": {
				"BLAST()": "infinite",
				"USDB()": "infinite",
				"calculateRiskPoolBalance(uint256,uint256)": "infinite",
				"claimAllYield()": "infinite",
				"claimFunds(uint256,bytes32[])": "infinite",
				"claimMyContractsGas()": "infinite",
				"claimReward(uint256)": "infinite",
				"createPot(string,bytes32,uint256,uint256,uint256,uint256,uint256)": "infinite",
				"hasClaimed(address)": "2913",
				"initialize()": "infinite",
				"joinPot(uint256)": "infinite",
				"merkleRoot()": "2471",
				"owner()": "2589",
				"pots(uint256)": "infinite",
				"renounceOwnership()": "infinite",
				"rotateLiquidity(uint256,bytes32,bytes32)": "infinite",
				"setMerkleRoot(bytes32)": "infinite",
				"totalRevenue()": "2513",
				"transferOwnership(address)": "infinite",
				"usdbToken()": "infinite",
				"withdrawRevenue()": "infinite"
			},
			"internal": {
				"deductRevenue(uint256)": "infinite",
				"updateUserYield(address,uint256)": "infinite"
			}
		},
		"methodIdentifiers": {
			"BLAST()": "97d75776",
			"USDB()": "31a0edec",
			"calculateRiskPoolBalance(uint256,uint256)": "7d77990c",
			"claimAllYield()": "409a33ce",
			"claimFunds(uint256,bytes32[])": "61e7d805",
			"claimMyContractsGas()": "77d5d2dc",
			"claimReward(uint256)": "ae169a50",
			"createPot(string,bytes32,uint256,uint256,uint256,uint256,uint256)": "0fae6443",
			"hasClaimed(address)": "73b2e80e",
			"initialize()": "8129fc1c",
			"joinPot(uint256)": "831d49ef",
			"merkleRoot()": "2eb4a7ab",
			"owner()": "8da5cb5b",
			"pots(uint256)": "c3c3df4f",
			"renounceOwnership()": "715018a6",
			"rotateLiquidity(uint256,bytes32,bytes32)": "3cabfefd",
			"setMerkleRoot(bytes32)": "7cb64759",
			"totalRevenue()": "bf2d9e0b",
			"transferOwnership(address)": "f2fde38b",
			"usdbToken()": "4a80409e",
			"withdrawRevenue()": "4f573cb2"
		}
	},
	"abi": [
		{
			"inputs": [
				{
					"internalType": "address",
					"name": "_entropy",
					"type": "address"
				},
				{
					"internalType": "address",
					"name": "_entropyProvider",
					"type": "address"
				}
			],
			"stateMutability": "nonpayable",
			"type": "constructor"
		},
		{
			"inputs": [],
			"name": "InvalidInitialization",
			"type": "error"
		},
		{
			"inputs": [],
			"name": "NotInitializing",
			"type": "error"
		},
		{
			"inputs": [
				{
					"internalType": "address",
					"name": "owner",
					"type": "address"
				}
			],
			"name": "OwnableInvalidOwner",
			"type": "error"
		},
		{
			"inputs": [
				{
					"internalType": "address",
					"name": "account",
					"type": "address"
				}
			],
			"name": "OwnableUnauthorizedAccount",
			"type": "error"
		},
		{
			"anonymous": false,
			"inputs": [
				{
					"indexed": false,
					"internalType": "uint64",
					"name": "version",
					"type": "uint64"
				}
			],
			"name": "Initialized",
			"type": "event"
		},
		{
			"anonymous": false,
			"inputs": [
				{
					"indexed": true,
					"internalType": "address",
					"name": "previousOwner",
					"type": "address"
				},
				{
					"indexed": true,
					"internalType": "address",
					"name": "newOwner",
					"type": "address"
				}
			],
			"name": "OwnershipTransferred",
			"type": "event"
		},
		{
			"anonymous": false,
			"inputs": [
				{
					"indexed": false,
					"internalType": "uint256",
					"name": "potId",
					"type": "uint256"
				},
				{
					"indexed": false,
					"internalType": "string",
					"name": "name",
					"type": "string"
				},
				{
					"indexed": false,
					"internalType": "address",
					"name": "participant",
					"type": "address"
				},
				{
					"indexed": false,
					"internalType": "uint256",
					"name": "amount",
					"type": "uint256"
				},
				{
					"indexed": false,
					"internalType": "uint256",
					"name": "rotationCycleInSeconds",
					"type": "uint256"
				},
				{
					"indexed": false,
					"internalType": "uint256",
					"name": "_interestDenominator",
					"type": "uint256"
				},
				{
					"indexed": false,
					"internalType": "uint256",
					"name": "_interestNumerator",
					"type": "uint256"
				},
				{
					"indexed": false,
					"internalType": "uint256",
					"name": "_numParticipants",
					"type": "uint256"
				}
			],
			"name": "ParticipantJoined",
			"type": "event"
		},
		{
			"anonymous": false,
			"inputs": [
				{
					"indexed": false,
					"internalType": "uint256",
					"name": "potId",
					"type": "uint256"
				},
				{
					"indexed": false,
					"internalType": "string",
					"name": "name",
					"type": "string"
				},
				{
					"indexed": false,
					"internalType": "address",
					"name": "creator",
					"type": "address"
				},
				{
					"indexed": false,
					"internalType": "uint256",
					"name": "amount",
					"type": "uint256"
				},
				{
					"indexed": false,
					"internalType": "uint256",
					"name": "rotationCycleInSeconds",
					"type": "uint256"
				},
				{
					"indexed": false,
					"internalType": "uint256",
					"name": "_interestDenominator",
					"type": "uint256"
				},
				{
					"indexed": false,
					"internalType": "uint256",
					"name": "_interestNumerator",
					"type": "uint256"
				},
				{
					"indexed": false,
					"internalType": "uint256",
					"name": "_numParticipants",
					"type": "uint256"
				},
				{
					"indexed": false,
					"internalType": "uint64",
					"name": "sequenceNumber",
					"type": "uint64"
				}
			],
			"name": "PotCreated",
			"type": "event"
		},
		{
			"anonymous": false,
			"inputs": [
				{
					"indexed": false,
					"internalType": "uint256",
					"name": "potId",
					"type": "uint256"
				},
				{
					"indexed": false,
					"internalType": "address",
					"name": "winner",
					"type": "address"
				},
				{
					"indexed": false,
					"internalType": "uint256",
					"name": "round",
					"type": "uint256"
				}
			],
			"name": "RotationCompleted",
			"type": "event"
		},
		{
			"inputs": [],
			"name": "BLAST",
			"outputs": [
				{
					"internalType": "contract IBlast",
					"name": "",
					"type": "address"
				}
			],
			"stateMutability": "view",
			"type": "function"
		},
		{
			"inputs": [],
			"name": "USDB",
			"outputs": [
				{
					"internalType": "contract IERC20Rebasing",
					"name": "",
					"type": "address"
				}
			],
			"stateMutability": "view",
			"type": "function"
		},
		{
			"inputs": [
				{
					"internalType": "uint256",
					"name": "_potId",
					"type": "uint256"
				},
				{
					"internalType": "uint256",
					"name": "_amount",
					"type": "uint256"
				}
			],
			"name": "calculateRiskPoolBalance",
			"outputs": [
				{
					"internalType": "uint256",
					"name": "",
					"type": "uint256"
				}
			],
			"stateMutability": "view",
			"type": "function"
		},
		{
			"inputs": [],
			"name": "claimAllYield",
			"outputs": [],
			"stateMutability": "nonpayable",
			"type": "function"
		},
		{
			"inputs": [
				{
					"internalType": "uint256",
					"name": "claimAmount",
					"type": "uint256"
				},
				{
					"internalType": "bytes32[]",
					"name": "merkleProof",
					"type": "bytes32[]"
				}
			],
			"name": "claimFunds",
			"outputs": [],
			"stateMutability": "nonpayable",
			"type": "function"
		},
		{
			"inputs": [],
			"name": "claimMyContractsGas",
			"outputs": [],
			"stateMutability": "nonpayable",
			"type": "function"
		},
		{
			"inputs": [
				{
					"internalType": "uint256",
					"name": "_potId",
					"type": "uint256"
				}
			],
			"name": "claimReward",
			"outputs": [],
			"stateMutability": "nonpayable",
			"type": "function"
		},
		{
			"inputs": [
				{
					"internalType": "string",
					"name": "_name",
					"type": "string"
				},
				{
					"internalType": "bytes32",
					"name": "userCommitment",
					"type": "bytes32"
				},
				{
					"internalType": "uint256",
					"name": "_rotationCycleInSeconds",
					"type": "uint256"
				},
				{
					"internalType": "uint256",
					"name": "_interestDenominator",
					"type": "uint256"
				},
				{
					"internalType": "uint256",
					"name": "_interestNumerator",
					"type": "uint256"
				},
				{
					"internalType": "uint256",
					"name": "_numParticipants",
					"type": "uint256"
				},
				{
					"internalType": "uint256",
					"name": "_amount",
					"type": "uint256"
				}
			],
			"name": "createPot",
			"outputs": [],
			"stateMutability": "payable",
			"type": "function"
		},
		{
			"inputs": [
				{
					"internalType": "address",
					"name": "",
					"type": "address"
				}
			],
			"name": "hasClaimed",
			"outputs": [
				{
					"internalType": "uint256",
					"name": "",
					"type": "uint256"
				}
			],
			"stateMutability": "view",
			"type": "function"
		},
		{
			"inputs": [],
			"name": "initialize",
			"outputs": [],
			"stateMutability": "nonpayable",
			"type": "function"
		},
		{
			"inputs": [
				{
					"internalType": "uint256",
					"name": "_potId",
					"type": "uint256"
				}
			],
			"name": "joinPot",
			"outputs": [],
			"stateMutability": "payable",
			"type": "function"
		},
		{
			"inputs": [],
			"name": "merkleRoot",
			"outputs": [
				{
					"internalType": "bytes32",
					"name": "",
					"type": "bytes32"
				}
			],
			"stateMutability": "view",
			"type": "function"
		},
		{
			"inputs": [],
			"name": "owner",
			"outputs": [
				{
					"internalType": "address",
					"name": "",
					"type": "address"
				}
			],
			"stateMutability": "view",
			"type": "function"
		},
		{
			"inputs": [
				{
					"internalType": "uint256",
					"name": "",
					"type": "uint256"
				}
			],
			"name": "pots",
			"outputs": [
				{
					"internalType": "string",
					"name": "name",
					"type": "string"
				},
				{
					"internalType": "uint256",
					"name": "amount",
					"type": "uint256"
				},
				{
					"internalType": "uint256",
					"name": "riskPoolBalance",
					"type": "uint256"
				},
				{
					"internalType": "uint256",
					"name": "rotationCycleInSeconds",
					"type": "uint256"
				},
				{
					"internalType": "uint256",
					"name": "lastRotationTime",
					"type": "uint256"
				},
				{
					"internalType": "uint256",
					"name": "interestNumerator",
					"type": "uint256"
				},
				{
					"internalType": "uint256",
					"name": "interestDenominator",
					"type": "uint256"
				},
				{
					"internalType": "uint256",
					"name": "numParticipants",
					"type": "uint256"
				},
				{
					"internalType": "uint256",
					"name": "currentRound",
					"type": "uint256"
				},
				{
					"internalType": "uint64",
					"name": "sequenceNumber",
					"type": "uint64"
				},
				{
					"internalType": "address",
					"name": "potCreator",
					"type": "address"
				}
			],
			"stateMutability": "view",
			"type": "function"
		},
		{
			"inputs": [],
			"name": "renounceOwnership",
			"outputs": [],
			"stateMutability": "nonpayable",
			"type": "function"
		},
		{
			"inputs": [
				{
					"internalType": "uint256",
					"name": "_potId",
					"type": "uint256"
				},
				{
					"internalType": "bytes32",
					"name": "userRandom",
					"type": "bytes32"
				},
				{
					"internalType": "bytes32",
					"name": "providerRandom",
					"type": "bytes32"
				}
			],
			"name": "rotateLiquidity",
			"outputs": [],
			"stateMutability": "nonpayable",
			"type": "function"
		},
		{
			"inputs": [
				{
					"internalType": "bytes32",
					"name": "_merkleRoot",
					"type": "bytes32"
				}
			],
			"name": "setMerkleRoot",
			"outputs": [],
			"stateMutability": "nonpayable",
			"type": "function"
		},
		{
			"inputs": [],
			"name": "totalRevenue",
			"outputs": [
				{
					"internalType": "uint256",
					"name": "",
					"type": "uint256"
				}
			],
			"stateMutability": "view",
			"type": "function"
		},
		{
			"inputs": [
				{
					"internalType": "address",
					"name": "newOwner",
					"type": "address"
				}
			],
			"name": "transferOwnership",
			"outputs": [],
			"stateMutability": "nonpayable",
			"type": "function"
		},
		{
			"inputs": [],
			"name": "usdbToken",
			"outputs": [
				{
					"internalType": "contract IERC20",
					"name": "",
					"type": "address"
				}
			],
			"stateMutability": "view",
			"type": "function"
		},
		{
			"inputs": [],
			"name": "withdrawRevenue",
			"outputs": [],
			"stateMutability": "nonpayable",
			"type": "function"
		}
	]
}