{
	"data": {
		"bytecode": {
			"linkReferences": {},
			"object": "608060405260015f5534801562000014575f80fd5b5073420000000000000000000000000000000000002273ffffffffffffffffffffffffffffffffffffffff16631a33757d60026040518263ffffffff1660e01b81526004016200006591906200017f565b6020604051808303815f875af115801562000082573d5f803e3d5ffd5b505050506040513d601f19601f82011682018060405250810190620000a89190620001d6565b5073420000000000000000000000000000000000002260025f6101000a81548173ffffffffffffffffffffffffffffffffffffffff021916908373ffffffffffffffffffffffffffffffffffffffff16021790555062000206565b7f4e487b71000000000000000000000000000000000000000000000000000000005f52602160045260245ffd5b6003811062000144576200014362000103565b5b50565b5f819050620001568262000130565b919050565b5f620001678262000147565b9050919050565b62000179816200015b565b82525050565b5f602082019050620001945f8301846200016e565b92915050565b5f80fd5b5f819050919050565b620001b2816200019e565b8114620001bd575f80fd5b50565b5f81519050620001d081620001a7565b92915050565b5f60208284031215620001ee57620001ed6200019a565b5b5f620001fd84828501620001c0565b91505092915050565b61179680620002145f395ff3fe60806040526004361061007a575f3560e01c8063c3c3df4f1161004d578063c3c3df4f14610118578063ca0ea3d11461015b578063ef922b8714610183578063efdd7c07146101ab5761007a565b806331a0edec1461007e5780634a80409e146100a8578063831d49ef146100d2578063bf2d9e0b146100ee575b5f80fd5b348015610089575f80fd5b506100926101e7565b60405161009f9190610cb9565b60405180910390f35b3480156100b3575f80fd5b506100bc6101ff565b6040516100c99190610cf2565b60405180910390f35b6100ec60048036038101906100e79190610d42565b610224565b005b3480156100f9575f80fd5b5061010261051d565b60405161010f9190610d7c565b60405180910390f35b348015610123575f80fd5b5061013e60048036038101906101399190610d42565b610523565b604051610152989796959493929190610db5565b60405180910390f35b348015610166575f80fd5b50610181600480360381019061017c9190610e31565b610586565b005b34801561018e575f80fd5b506101a960048036038101906101a49190610d42565b61084b565b005b3480156101b6575f80fd5b506101d160048036038101906101cc9190610ea8565b610b23565b6040516101de9190610d7c565b60405180910390f35b73420000000000000000000000000000000000002281565b60025f9054906101000a900473ffffffffffffffffffffffffffffffffffffffff1681565b5f60035f8381526020019081526020015f2090508060050154816008018054905010610285576040517f08c379a000000000000000000000000000000000000000000000000000000000815260040161027c90610f40565b60405180910390fd5b60018160060154106102cc576040517f08c379a00000000000000000000000000000000000000000000000000000000081526004016102c390610fa8565b60405180910390fd5b5f816009015f3373ffffffffffffffffffffffffffffffffffffffff1673ffffffffffffffffffffffffffffffffffffffff1681526020019081526020015f20541461034d576040517f08c379a000000000000000000000000000000000000000000000000000000000815260040161034490611010565b60405180910390fd5b5f61035a825f0154610b60565b905060025f9054906101000a900473ffffffffffffffffffffffffffffffffffffffff1673ffffffffffffffffffffffffffffffffffffffff166323b872dd3330846040518463ffffffff1660e01b81526004016103ba9392919061102e565b6020604051808303815f875af11580156103d6573d5f803e3d5ffd5b505050506040513d601f19601f820116820180604052508101906103fa9190611098565b610439576040517f08c379a00000000000000000000000000000000000000000000000000000000081526004016104309061110d565b60405180910390fd5b80826009015f3373ffffffffffffffffffffffffffffffffffffffff1673ffffffffffffffffffffffffffffffffffffffff1681526020019081526020015f20819055508160080133908060018154018082558091505060019003905f5260205f20015f9091909190916101000a81548173ffffffffffffffffffffffffffffffffffffffff021916908373ffffffffffffffffffffffffffffffffffffffff1602179055507f7dd8cb04159701bc1976c246434d7d96812782e7489e6c5c34db49a388fe9e80833360405161051092919061112b565b60405180910390a1505050565b60015481565b6003602052805f5260405f205f91509050805f015490806001015490806002015490806003015490806004015490806005015490806006015490806007015f9054906101000a900473ffffffffffffffffffffffffffffffffffffffff16905088565b5f85116105c8576040517f08c379a00000000000000000000000000000000000000000000000000000000081526004016105bf9061119c565b60405180910390fd5b5f841161060a576040517f08c379a00000000000000000000000000000000000000000000000000000000081526004016106019061122a565b60405180910390fd5b8383111561064d576040517f08c379a0000000000000000000000000000000000000000000000000000000008152600401610644906112b8565b60405180910390fd5b5f805f81548092919061065f90611303565b91905055905060605f61067184610b60565b905060025f9054906101000a900473ffffffffffffffffffffffffffffffffffffffff1673ffffffffffffffffffffffffffffffffffffffff166323b872dd3330846040518463ffffffff1660e01b81526004016106d19392919061102e565b6020604051808303815f875af11580156106ed573d5f803e3d5ffd5b505050506040513d601f19601f820116820180604052508101906107119190611098565b610750576040517f08c379a0000000000000000000000000000000000000000000000000000000008152600401610747906113ba565b60405180910390fd5b5f60035f8581526020019081526020015f20905084815f018190555033816007015f6101000a81548173ffffffffffffffffffffffffffffffffffffffff021916908373ffffffffffffffffffffffffffffffffffffffff1602179055508881600101819055508681600301819055508781600401819055504281600201819055508581600501819055505f8160060181905550828160080190805190602001906107fc929190610b9d565b507fbf5a50c239a5f6ef5cf2dcc347e3402e3b8ca1424a9e01c38ec78d2406cbd8e08433878c8b8d8c60405161083897969594939291906113d8565b60405180910390a1505050505050505050565b3373ffffffffffffffffffffffffffffffffffffffff1660035f8381526020019081526020015f206007015f9054906101000a900473ffffffffffffffffffffffffffffffffffffffff1673ffffffffffffffffffffffffffffffffffffffff16146108ec576040517f08c379a00000000000000000000000000000000000000000000000000000000081526004016108e3906114b5565b60405180910390fd5b5f60035f8381526020019081526020015f2090508060010154816002015461091491906114d3565b421015610956576040517f08c379a000000000000000000000000000000000000000000000000000000000815260040161094d90611550565b60405180910390fd5b5f8160050154826006015461096b919061159b565b90505f826008018281548110610984576109836115cb565b5b905f5260205f20015f9054906101000a900473ffffffffffffffffffffffffffffffffffffffff1690505f835f015484600801805490506109c591906115f8565b90505f6109d28683610b23565b905060025f9054906101000a900473ffffffffffffffffffffffffffffffffffffffff1673ffffffffffffffffffffffffffffffffffffffff1663a9059cbb338385610a1e9190611639565b6040518363ffffffff1660e01b8152600401610a3b92919061166c565b6020604051808303815f875af1158015610a57573d5f803e3d5ffd5b505050506040513d601f19601f82011682018060405250810190610a7b9190611098565b610aba576040517f08c379a0000000000000000000000000000000000000000000000000000000008152600401610ab1906116dd565b60405180910390fd5b4285600201819055507f35cb3811461cb824b245820eee97ab50ee1cc609f2bdd3bb10f5f0010184a7d386848760060154604051610afa939291906116fb565b60405180910390a1846006015f815480929190610b1690611303565b9190505550505050505050565b5f8060035f8581526020019081526020015f2090508060040154816003015484610b4d91906115f8565b610b579190611730565b91505092915050565b5f80606483610b6f9190611730565b90508083610b7d9190611639565b91508060015f828254610b9091906114d3565b9250508190555050919050565b828054828255905f5260205f20908101928215610c13579160200282015b82811115610c12578251825f6101000a81548173ffffffffffffffffffffffffffffffffffffffff021916908373ffffffffffffffffffffffffffffffffffffffff16021790555091602001919060010190610bbb565b5b509050610c209190610c24565b5090565b5b80821115610c3b575f815f905550600101610c25565b5090565b5f73ffffffffffffffffffffffffffffffffffffffff82169050919050565b5f819050919050565b5f610c81610c7c610c7784610c3f565b610c5e565b610c3f565b9050919050565b5f610c9282610c67565b9050919050565b5f610ca382610c88565b9050919050565b610cb381610c99565b82525050565b5f602082019050610ccc5f830184610caa565b92915050565b5f610cdc82610c88565b9050919050565b610cec81610cd2565b82525050565b5f602082019050610d055f830184610ce3565b92915050565b5f80fd5b5f819050919050565b610d2181610d0f565b8114610d2b575f80fd5b50565b5f81359050610d3c81610d18565b92915050565b5f60208284031215610d5757610d56610d0b565b5b5f610d6484828501610d2e565b91505092915050565b610d7681610d0f565b82525050565b5f602082019050610d8f5f830184610d6d565b92915050565b5f610d9f82610c3f565b9050919050565b610daf81610d95565b82525050565b5f61010082019050610dc95f83018b610d6d565b610dd6602083018a610d6d565b610de36040830189610d6d565b610df06060830188610d6d565b610dfd6080830187610d6d565b610e0a60a0830186610d6d565b610e1760c0830185610d6d565b610e2460e0830184610da6565b9998505050505050505050565b5f805f805f60a08688031215610e4a57610e49610d0b565b5b5f610e5788828901610d2e565b9550506020610e6888828901610d2e565b9450506040610e7988828901610d2e565b9350506060610e8a88828901610d2e565b9250506080610e9b88828901610d2e565b9150509295509295909350565b5f8060408385031215610ebe57610ebd610d0b565b5b5f610ecb85828601610d2e565b9250506020610edc85828601610d2e565b9150509250929050565b5f82825260208201905092915050565b7f506f742069732066756c6c0000000000000000000000000000000000000000005f82015250565b5f610f2a600b83610ee6565b9150610f3582610ef6565b602082019050919050565b5f6020820190508181035f830152610f5781610f1e565b9050919050565b7f526f746174696e6720706f74732063616e6e6f74206265206a6f696e656400005f82015250565b5f610f92601e83610ee6565b9150610f9d82610f5e565b602082019050919050565b5f6020820190508181035f830152610fbf81610f86565b9050919050565b7f416c7265616479206a6f696e65640000000000000000000000000000000000005f82015250565b5f610ffa600e83610ee6565b915061100582610fc6565b602082019050919050565b5f6020820190508181035f83015261102781610fee565b9050919050565b5f6060820190506110415f830186610da6565b61104e6020830185610da6565b61105b6040830184610d6d565b949350505050565b5f8115159050919050565b61107781611063565b8114611081575f80fd5b50565b5f815190506110928161106e565b92915050565b5f602082840312156110ad576110ac610d0b565b5b5f6110ba84828501611084565b91505092915050565b7f5472616e73666572206661696c656400000000000000000000000000000000005f82015250565b5f6110f7600f83610ee6565b9150611102826110c3565b602082019050919050565b5f6020820190508181035f830152611124816110eb565b9050919050565b5f60408201905061113e5f830185610d6d565b61114b6020830184610da6565b9392505050565b7f526f746174696f6e206379636c65206d75737420626520706f736974697665005f82015250565b5f611186601f83610ee6565b915061119182611152565b602082019050919050565b5f6020820190508181035f8301526111b38161117a565b9050919050565b7f496e7465726573742064656e6f6d696e61746f72206d75737420626520706f735f8201527f6974697665000000000000000000000000000000000000000000000000000000602082015250565b5f611214602583610ee6565b915061121f826111ba565b604082019050919050565b5f6020820190508181035f83015261124181611208565b9050919050565b7f4e756d657261746f72206d757374206265206c657373207468616e206f7220655f8201527f7175616c20746f2064656e6f6d696e61746f7200000000000000000000000000602082015250565b5f6112a2603383610ee6565b91506112ad82611248565b604082019050919050565b5f6020820190508181035f8301526112cf81611296565b9050919050565b7f4e487b71000000000000000000000000000000000000000000000000000000005f52601160045260245ffd5b5f61130d82610d0f565b91507fffffffffffffffffffffffffffffffffffffffffffffffffffffffffffffffff820361133f5761133e6112d6565b5b600182019050919050565b7f43726561746f722073686f756c64206465706f7369742074686520696e6974695f8201527f616c20616d6f756e740000000000000000000000000000000000000000000000602082015250565b5f6113a4602983610ee6565b91506113af8261134a565b604082019050919050565b5f6020820190508181035f8301526113d181611398565b9050919050565b5f60e0820190506113eb5f83018a610d6d565b6113f86020830189610da6565b6114056040830188610d6d565b6114126060830187610d6d565b61141f6080830186610d6d565b61142c60a0830185610d6d565b61143960c0830184610d6d565b98975050505050505050565b7f4f6e6c792074686520706f742063726561746f722063616e2072657665616c205f8201527f7468652077696e6e657200000000000000000000000000000000000000000000602082015250565b5f61149f602a83610ee6565b91506114aa82611445565b604082019050919050565b5f6020820190508181035f8301526114cc81611493565b9050919050565b5f6114dd82610d0f565b91506114e883610d0f565b9250828201905080821115611500576114ff6112d6565b5b92915050565b7f4e65787420726f746174696f6e206e6f742079657420647565000000000000005f82015250565b5f61153a601983610ee6565b915061154582611506565b602082019050919050565b5f6020820190508181035f8301526115678161152e565b9050919050565b7f4e487b71000000000000000000000000000000000000000000000000000000005f52601260045260245ffd5b5f6115a582610d0f565b91506115b083610d0f565b9250826115c0576115bf61156e565b5b828206905092915050565b7f4e487b71000000000000000000000000000000000000000000000000000000005f52603260045260245ffd5b5f61160282610d0f565b915061160d83610d0f565b925082820261161b81610d0f565b91508282048414831517611632576116316112d6565b5b5092915050565b5f61164382610d0f565b915061164e83610d0f565b9250828203905081811115611666576116656112d6565b5b92915050565b5f60408201905061167f5f830185610da6565b61168c6020830184610d6d565b9392505050565b7f5969656c64207472616e73666572206661696c656400000000000000000000005f82015250565b5f6116c7601583610ee6565b91506116d282611693565b602082019050919050565b5f6020820190508181035f8301526116f4816116bb565b9050919050565b5f60608201905061170e5f830186610d6d565b61171b6020830185610da6565b6117286040830184610d6d565b949350505050565b5f61173a82610d0f565b915061174583610d0f565b9250826117555761175461156e565b5b82820490509291505056fea2646970667358221220066d95432cc1ecb74bfc0ff0e4ebfaef1d8c76f376fe814bf6e527062ebef99264736f6c63430008180033",
			"opcodes": "PUSH1 0x80 PUSH1 0x40 MSTORE PUSH1 0x1 PUSH0 SSTORE CALLVALUE DUP1 ISZERO PUSH3 0x14 JUMPI PUSH0 DUP1 REVERT JUMPDEST POP PUSH20 0x4200000000000000000000000000000000000022 PUSH20 0xFFFFFFFFFFFFFFFFFFFFFFFFFFFFFFFFFFFFFFFF AND PUSH4 0x1A33757D PUSH1 0x2 PUSH1 0x40 MLOAD DUP3 PUSH4 0xFFFFFFFF AND PUSH1 0xE0 SHL DUP2 MSTORE PUSH1 0x4 ADD PUSH3 0x65 SWAP2 SWAP1 PUSH3 0x17F JUMP JUMPDEST PUSH1 0x20 PUSH1 0x40 MLOAD DUP1 DUP4 SUB DUP2 PUSH0 DUP8 GAS CALL ISZERO DUP1 ISZERO PUSH3 0x82 JUMPI RETURNDATASIZE PUSH0 DUP1 RETURNDATACOPY RETURNDATASIZE PUSH0 REVERT JUMPDEST POP POP POP POP PUSH1 0x40 MLOAD RETURNDATASIZE PUSH1 0x1F NOT PUSH1 0x1F DUP3 ADD AND DUP3 ADD DUP1 PUSH1 0x40 MSTORE POP DUP2 ADD SWAP1 PUSH3 0xA8 SWAP2 SWAP1 PUSH3 0x1D6 JUMP JUMPDEST POP PUSH20 0x4200000000000000000000000000000000000022 PUSH1 0x2 PUSH0 PUSH2 0x100 EXP DUP2 SLOAD DUP2 PUSH20 0xFFFFFFFFFFFFFFFFFFFFFFFFFFFFFFFFFFFFFFFF MUL NOT AND SWAP1 DUP4 PUSH20 0xFFFFFFFFFFFFFFFFFFFFFFFFFFFFFFFFFFFFFFFF AND MUL OR SWAP1 SSTORE POP PUSH3 0x206 JUMP JUMPDEST PUSH32 0x4E487B7100000000000000000000000000000000000000000000000000000000 PUSH0 MSTORE PUSH1 0x21 PUSH1 0x4 MSTORE PUSH1 0x24 PUSH0 REVERT JUMPDEST PUSH1 0x3 DUP2 LT PUSH3 0x144 JUMPI PUSH3 0x143 PUSH3 0x103 JUMP JUMPDEST JUMPDEST POP JUMP JUMPDEST PUSH0 DUP2 SWAP1 POP PUSH3 0x156 DUP3 PUSH3 0x130 JUMP JUMPDEST SWAP2 SWAP1 POP JUMP JUMPDEST PUSH0 PUSH3 0x167 DUP3 PUSH3 0x147 JUMP JUMPDEST SWAP1 POP SWAP2 SWAP1 POP JUMP JUMPDEST PUSH3 0x179 DUP2 PUSH3 0x15B JUMP JUMPDEST DUP3 MSTORE POP POP JUMP JUMPDEST PUSH0 PUSH1 0x20 DUP3 ADD SWAP1 POP PUSH3 0x194 PUSH0 DUP4 ADD DUP5 PUSH3 0x16E JUMP JUMPDEST SWAP3 SWAP2 POP POP JUMP JUMPDEST PUSH0 DUP1 REVERT JUMPDEST PUSH0 DUP2 SWAP1 POP SWAP2 SWAP1 POP JUMP JUMPDEST PUSH3 0x1B2 DUP2 PUSH3 0x19E JUMP JUMPDEST DUP2 EQ PUSH3 0x1BD JUMPI PUSH0 DUP1 REVERT JUMPDEST POP JUMP JUMPDEST PUSH0 DUP2 MLOAD SWAP1 POP PUSH3 0x1D0 DUP2 PUSH3 0x1A7 JUMP JUMPDEST SWAP3 SWAP2 POP POP JUMP JUMPDEST PUSH0 PUSH1 0x20 DUP3 DUP5 SUB SLT ISZERO PUSH3 0x1EE JUMPI PUSH3 0x1ED PUSH3 0x19A JUMP JUMPDEST JUMPDEST PUSH0 PUSH3 0x1FD DUP5 DUP3 DUP6 ADD PUSH3 0x1C0 JUMP JUMPDEST SWAP2 POP POP SWAP3 SWAP2 POP POP JUMP JUMPDEST PUSH2 0x1796 DUP1 PUSH3 0x214 PUSH0 CODECOPY PUSH0 RETURN INVALID PUSH1 0x80 PUSH1 0x40 MSTORE PUSH1 0x4 CALLDATASIZE LT PUSH2 0x7A JUMPI PUSH0 CALLDATALOAD PUSH1 0xE0 SHR DUP1 PUSH4 0xC3C3DF4F GT PUSH2 0x4D JUMPI DUP1 PUSH4 0xC3C3DF4F EQ PUSH2 0x118 JUMPI DUP1 PUSH4 0xCA0EA3D1 EQ PUSH2 0x15B JUMPI DUP1 PUSH4 0xEF922B87 EQ PUSH2 0x183 JUMPI DUP1 PUSH4 0xEFDD7C07 EQ PUSH2 0x1AB JUMPI PUSH2 0x7A JUMP JUMPDEST DUP1 PUSH4 0x31A0EDEC EQ PUSH2 0x7E JUMPI DUP1 PUSH4 0x4A80409E EQ PUSH2 0xA8 JUMPI DUP1 PUSH4 0x831D49EF EQ PUSH2 0xD2 JUMPI DUP1 PUSH4 0xBF2D9E0B EQ PUSH2 0xEE JUMPI JUMPDEST PUSH0 DUP1 REVERT JUMPDEST CALLVALUE DUP1 ISZERO PUSH2 0x89 JUMPI PUSH0 DUP1 REVERT JUMPDEST POP PUSH2 0x92 PUSH2 0x1E7 JUMP JUMPDEST PUSH1 0x40 MLOAD PUSH2 0x9F SWAP2 SWAP1 PUSH2 0xCB9 JUMP JUMPDEST PUSH1 0x40 MLOAD DUP1 SWAP2 SUB SWAP1 RETURN JUMPDEST CALLVALUE DUP1 ISZERO PUSH2 0xB3 JUMPI PUSH0 DUP1 REVERT JUMPDEST POP PUSH2 0xBC PUSH2 0x1FF JUMP JUMPDEST PUSH1 0x40 MLOAD PUSH2 0xC9 SWAP2 SWAP1 PUSH2 0xCF2 JUMP JUMPDEST PUSH1 0x40 MLOAD DUP1 SWAP2 SUB SWAP1 RETURN JUMPDEST PUSH2 0xEC PUSH1 0x4 DUP1 CALLDATASIZE SUB DUP2 ADD SWAP1 PUSH2 0xE7 SWAP2 SWAP1 PUSH2 0xD42 JUMP JUMPDEST PUSH2 0x224 JUMP JUMPDEST STOP JUMPDEST CALLVALUE DUP1 ISZERO PUSH2 0xF9 JUMPI PUSH0 DUP1 REVERT JUMPDEST POP PUSH2 0x102 PUSH2 0x51D JUMP JUMPDEST PUSH1 0x40 MLOAD PUSH2 0x10F SWAP2 SWAP1 PUSH2 0xD7C JUMP JUMPDEST PUSH1 0x40 MLOAD DUP1 SWAP2 SUB SWAP1 RETURN JUMPDEST CALLVALUE DUP1 ISZERO PUSH2 0x123 JUMPI PUSH0 DUP1 REVERT JUMPDEST POP PUSH2 0x13E PUSH1 0x4 DUP1 CALLDATASIZE SUB DUP2 ADD SWAP1 PUSH2 0x139 SWAP2 SWAP1 PUSH2 0xD42 JUMP JUMPDEST PUSH2 0x523 JUMP JUMPDEST PUSH1 0x40 MLOAD PUSH2 0x152 SWAP9 SWAP8 SWAP7 SWAP6 SWAP5 SWAP4 SWAP3 SWAP2 SWAP1 PUSH2 0xDB5 JUMP JUMPDEST PUSH1 0x40 MLOAD DUP1 SWAP2 SUB SWAP1 RETURN JUMPDEST CALLVALUE DUP1 ISZERO PUSH2 0x166 JUMPI PUSH0 DUP1 REVERT JUMPDEST POP PUSH2 0x181 PUSH1 0x4 DUP1 CALLDATASIZE SUB DUP2 ADD SWAP1 PUSH2 0x17C SWAP2 SWAP1 PUSH2 0xE31 JUMP JUMPDEST PUSH2 0x586 JUMP JUMPDEST STOP JUMPDEST CALLVALUE DUP1 ISZERO PUSH2 0x18E JUMPI PUSH0 DUP1 REVERT JUMPDEST POP PUSH2 0x1A9 PUSH1 0x4 DUP1 CALLDATASIZE SUB DUP2 ADD SWAP1 PUSH2 0x1A4 SWAP2 SWAP1 PUSH2 0xD42 JUMP JUMPDEST PUSH2 0x84B JUMP JUMPDEST STOP JUMPDEST CALLVALUE DUP1 ISZERO PUSH2 0x1B6 JUMPI PUSH0 DUP1 REVERT JUMPDEST POP PUSH2 0x1D1 PUSH1 0x4 DUP1 CALLDATASIZE SUB DUP2 ADD SWAP1 PUSH2 0x1CC SWAP2 SWAP1 PUSH2 0xEA8 JUMP JUMPDEST PUSH2 0xB23 JUMP JUMPDEST PUSH1 0x40 MLOAD PUSH2 0x1DE SWAP2 SWAP1 PUSH2 0xD7C JUMP JUMPDEST PUSH1 0x40 MLOAD DUP1 SWAP2 SUB SWAP1 RETURN JUMPDEST PUSH20 0x4200000000000000000000000000000000000022 DUP2 JUMP JUMPDEST PUSH1 0x2 PUSH0 SWAP1 SLOAD SWAP1 PUSH2 0x100 EXP SWAP1 DIV PUSH20 0xFFFFFFFFFFFFFFFFFFFFFFFFFFFFFFFFFFFFFFFF AND DUP2 JUMP JUMPDEST PUSH0 PUSH1 0x3 PUSH0 DUP4 DUP2 MSTORE PUSH1 0x20 ADD SWAP1 DUP2 MSTORE PUSH1 0x20 ADD PUSH0 KECCAK256 SWAP1 POP DUP1 PUSH1 0x5 ADD SLOAD DUP2 PUSH1 0x8 ADD DUP1 SLOAD SWAP1 POP LT PUSH2 0x285 JUMPI PUSH1 0x40 MLOAD PUSH32 0x8C379A000000000000000000000000000000000000000000000000000000000 DUP2 MSTORE PUSH1 0x4 ADD PUSH2 0x27C SWAP1 PUSH2 0xF40 JUMP JUMPDEST PUSH1 0x40 MLOAD DUP1 SWAP2 SUB SWAP1 REVERT JUMPDEST PUSH1 0x1 DUP2 PUSH1 0x6 ADD SLOAD LT PUSH2 0x2CC JUMPI PUSH1 0x40 MLOAD PUSH32 0x8C379A000000000000000000000000000000000000000000000000000000000 DUP2 MSTORE PUSH1 0x4 ADD PUSH2 0x2C3 SWAP1 PUSH2 0xFA8 JUMP JUMPDEST PUSH1 0x40 MLOAD DUP1 SWAP2 SUB SWAP1 REVERT JUMPDEST PUSH0 DUP2 PUSH1 0x9 ADD PUSH0 CALLER PUSH20 0xFFFFFFFFFFFFFFFFFFFFFFFFFFFFFFFFFFFFFFFF AND PUSH20 0xFFFFFFFFFFFFFFFFFFFFFFFFFFFFFFFFFFFFFFFF AND DUP2 MSTORE PUSH1 0x20 ADD SWAP1 DUP2 MSTORE PUSH1 0x20 ADD PUSH0 KECCAK256 SLOAD EQ PUSH2 0x34D JUMPI PUSH1 0x40 MLOAD PUSH32 0x8C379A000000000000000000000000000000000000000000000000000000000 DUP2 MSTORE PUSH1 0x4 ADD PUSH2 0x344 SWAP1 PUSH2 0x1010 JUMP JUMPDEST PUSH1 0x40 MLOAD DUP1 SWAP2 SUB SWAP1 REVERT JUMPDEST PUSH0 PUSH2 0x35A DUP3 PUSH0 ADD SLOAD PUSH2 0xB60 JUMP JUMPDEST SWAP1 POP PUSH1 0x2 PUSH0 SWAP1 SLOAD SWAP1 PUSH2 0x100 EXP SWAP1 DIV PUSH20 0xFFFFFFFFFFFFFFFFFFFFFFFFFFFFFFFFFFFFFFFF AND PUSH20 0xFFFFFFFFFFFFFFFFFFFFFFFFFFFFFFFFFFFFFFFF AND PUSH4 0x23B872DD CALLER ADDRESS DUP5 PUSH1 0x40 MLOAD DUP5 PUSH4 0xFFFFFFFF AND PUSH1 0xE0 SHL DUP2 MSTORE PUSH1 0x4 ADD PUSH2 0x3BA SWAP4 SWAP3 SWAP2 SWAP1 PUSH2 0x102E JUMP JUMPDEST PUSH1 0x20 PUSH1 0x40 MLOAD DUP1 DUP4 SUB DUP2 PUSH0 DUP8 GAS CALL ISZERO DUP1 ISZERO PUSH2 0x3D6 JUMPI RETURNDATASIZE PUSH0 DUP1 RETURNDATACOPY RETURNDATASIZE PUSH0 REVERT JUMPDEST POP POP POP POP PUSH1 0x40 MLOAD RETURNDATASIZE PUSH1 0x1F NOT PUSH1 0x1F DUP3 ADD AND DUP3 ADD DUP1 PUSH1 0x40 MSTORE POP DUP2 ADD SWAP1 PUSH2 0x3FA SWAP2 SWAP1 PUSH2 0x1098 JUMP JUMPDEST PUSH2 0x439 JUMPI PUSH1 0x40 MLOAD PUSH32 0x8C379A000000000000000000000000000000000000000000000000000000000 DUP2 MSTORE PUSH1 0x4 ADD PUSH2 0x430 SWAP1 PUSH2 0x110D JUMP JUMPDEST PUSH1 0x40 MLOAD DUP1 SWAP2 SUB SWAP1 REVERT JUMPDEST DUP1 DUP3 PUSH1 0x9 ADD PUSH0 CALLER PUSH20 0xFFFFFFFFFFFFFFFFFFFFFFFFFFFFFFFFFFFFFFFF AND PUSH20 0xFFFFFFFFFFFFFFFFFFFFFFFFFFFFFFFFFFFFFFFF AND DUP2 MSTORE PUSH1 0x20 ADD SWAP1 DUP2 MSTORE PUSH1 0x20 ADD PUSH0 KECCAK256 DUP2 SWAP1 SSTORE POP DUP2 PUSH1 0x8 ADD CALLER SWAP1 DUP1 PUSH1 0x1 DUP2 SLOAD ADD DUP1 DUP3 SSTORE DUP1 SWAP2 POP POP PUSH1 0x1 SWAP1 SUB SWAP1 PUSH0 MSTORE PUSH1 0x20 PUSH0 KECCAK256 ADD PUSH0 SWAP1 SWAP2 SWAP1 SWAP2 SWAP1 SWAP2 PUSH2 0x100 EXP DUP2 SLOAD DUP2 PUSH20 0xFFFFFFFFFFFFFFFFFFFFFFFFFFFFFFFFFFFFFFFF MUL NOT AND SWAP1 DUP4 PUSH20 0xFFFFFFFFFFFFFFFFFFFFFFFFFFFFFFFFFFFFFFFF AND MUL OR SWAP1 SSTORE POP PUSH32 0x7DD8CB04159701BC1976C246434D7D96812782E7489E6C5C34DB49A388FE9E80 DUP4 CALLER PUSH1 0x40 MLOAD PUSH2 0x510 SWAP3 SWAP2 SWAP1 PUSH2 0x112B JUMP JUMPDEST PUSH1 0x40 MLOAD DUP1 SWAP2 SUB SWAP1 LOG1 POP POP POP JUMP JUMPDEST PUSH1 0x1 SLOAD DUP2 JUMP JUMPDEST PUSH1 0x3 PUSH1 0x20 MSTORE DUP1 PUSH0 MSTORE PUSH1 0x40 PUSH0 KECCAK256 PUSH0 SWAP2 POP SWAP1 POP DUP1 PUSH0 ADD SLOAD SWAP1 DUP1 PUSH1 0x1 ADD SLOAD SWAP1 DUP1 PUSH1 0x2 ADD SLOAD SWAP1 DUP1 PUSH1 0x3 ADD SLOAD SWAP1 DUP1 PUSH1 0x4 ADD SLOAD SWAP1 DUP1 PUSH1 0x5 ADD SLOAD SWAP1 DUP1 PUSH1 0x6 ADD SLOAD SWAP1 DUP1 PUSH1 0x7 ADD PUSH0 SWAP1 SLOAD SWAP1 PUSH2 0x100 EXP SWAP1 DIV PUSH20 0xFFFFFFFFFFFFFFFFFFFFFFFFFFFFFFFFFFFFFFFF AND SWAP1 POP DUP9 JUMP JUMPDEST PUSH0 DUP6 GT PUSH2 0x5C8 JUMPI PUSH1 0x40 MLOAD PUSH32 0x8C379A000000000000000000000000000000000000000000000000000000000 DUP2 MSTORE PUSH1 0x4 ADD PUSH2 0x5BF SWAP1 PUSH2 0x119C JUMP JUMPDEST PUSH1 0x40 MLOAD DUP1 SWAP2 SUB SWAP1 REVERT JUMPDEST PUSH0 DUP5 GT PUSH2 0x60A JUMPI PUSH1 0x40 MLOAD PUSH32 0x8C379A000000000000000000000000000000000000000000000000000000000 DUP2 MSTORE PUSH1 0x4 ADD PUSH2 0x601 SWAP1 PUSH2 0x122A JUMP JUMPDEST PUSH1 0x40 MLOAD DUP1 SWAP2 SUB SWAP1 REVERT JUMPDEST DUP4 DUP4 GT ISZERO PUSH2 0x64D JUMPI PUSH1 0x40 MLOAD PUSH32 0x8C379A000000000000000000000000000000000000000000000000000000000 DUP2 MSTORE PUSH1 0x4 ADD PUSH2 0x644 SWAP1 PUSH2 0x12B8 JUMP JUMPDEST PUSH1 0x40 MLOAD DUP1 SWAP2 SUB SWAP1 REVERT JUMPDEST PUSH0 DUP1 PUSH0 DUP2 SLOAD DUP1 SWAP3 SWAP2 SWAP1 PUSH2 0x65F SWAP1 PUSH2 0x1303 JUMP JUMPDEST SWAP2 SWAP1 POP SSTORE SWAP1 POP PUSH1 0x60 PUSH0 PUSH2 0x671 DUP5 PUSH2 0xB60 JUMP JUMPDEST SWAP1 POP PUSH1 0x2 PUSH0 SWAP1 SLOAD SWAP1 PUSH2 0x100 EXP SWAP1 DIV PUSH20 0xFFFFFFFFFFFFFFFFFFFFFFFFFFFFFFFFFFFFFFFF AND PUSH20 0xFFFFFFFFFFFFFFFFFFFFFFFFFFFFFFFFFFFFFFFF AND PUSH4 0x23B872DD CALLER ADDRESS DUP5 PUSH1 0x40 MLOAD DUP5 PUSH4 0xFFFFFFFF AND PUSH1 0xE0 SHL DUP2 MSTORE PUSH1 0x4 ADD PUSH2 0x6D1 SWAP4 SWAP3 SWAP2 SWAP1 PUSH2 0x102E JUMP JUMPDEST PUSH1 0x20 PUSH1 0x40 MLOAD DUP1 DUP4 SUB DUP2 PUSH0 DUP8 GAS CALL ISZERO DUP1 ISZERO PUSH2 0x6ED JUMPI RETURNDATASIZE PUSH0 DUP1 RETURNDATACOPY RETURNDATASIZE PUSH0 REVERT JUMPDEST POP POP POP POP PUSH1 0x40 MLOAD RETURNDATASIZE PUSH1 0x1F NOT PUSH1 0x1F DUP3 ADD AND DUP3 ADD DUP1 PUSH1 0x40 MSTORE POP DUP2 ADD SWAP1 PUSH2 0x711 SWAP2 SWAP1 PUSH2 0x1098 JUMP JUMPDEST PUSH2 0x750 JUMPI PUSH1 0x40 MLOAD PUSH32 0x8C379A000000000000000000000000000000000000000000000000000000000 DUP2 MSTORE PUSH1 0x4 ADD PUSH2 0x747 SWAP1 PUSH2 0x13BA JUMP JUMPDEST PUSH1 0x40 MLOAD DUP1 SWAP2 SUB SWAP1 REVERT JUMPDEST PUSH0 PUSH1 0x3 PUSH0 DUP6 DUP2 MSTORE PUSH1 0x20 ADD SWAP1 DUP2 MSTORE PUSH1 0x20 ADD PUSH0 KECCAK256 SWAP1 POP DUP5 DUP2 PUSH0 ADD DUP2 SWAP1 SSTORE POP CALLER DUP2 PUSH1 0x7 ADD PUSH0 PUSH2 0x100 EXP DUP2 SLOAD DUP2 PUSH20 0xFFFFFFFFFFFFFFFFFFFFFFFFFFFFFFFFFFFFFFFF MUL NOT AND SWAP1 DUP4 PUSH20 0xFFFFFFFFFFFFFFFFFFFFFFFFFFFFFFFFFFFFFFFF AND MUL OR SWAP1 SSTORE POP DUP9 DUP2 PUSH1 0x1 ADD DUP2 SWAP1 SSTORE POP DUP7 DUP2 PUSH1 0x3 ADD DUP2 SWAP1 SSTORE POP DUP8 DUP2 PUSH1 0x4 ADD DUP2 SWAP1 SSTORE POP TIMESTAMP DUP2 PUSH1 0x2 ADD DUP2 SWAP1 SSTORE POP DUP6 DUP2 PUSH1 0x5 ADD DUP2 SWAP1 SSTORE POP PUSH0 DUP2 PUSH1 0x6 ADD DUP2 SWAP1 SSTORE POP DUP3 DUP2 PUSH1 0x8 ADD SWAP1 DUP1 MLOAD SWAP1 PUSH1 0x20 ADD SWAP1 PUSH2 0x7FC SWAP3 SWAP2 SWAP1 PUSH2 0xB9D JUMP JUMPDEST POP PUSH32 0xBF5A50C239A5F6EF5CF2DCC347E3402E3B8CA1424A9E01C38EC78D2406CBD8E0 DUP5 CALLER DUP8 DUP13 DUP12 DUP14 DUP13 PUSH1 0x40 MLOAD PUSH2 0x838 SWAP8 SWAP7 SWAP6 SWAP5 SWAP4 SWAP3 SWAP2 SWAP1 PUSH2 0x13D8 JUMP JUMPDEST PUSH1 0x40 MLOAD DUP1 SWAP2 SUB SWAP1 LOG1 POP POP POP POP POP POP POP POP POP JUMP JUMPDEST CALLER PUSH20 0xFFFFFFFFFFFFFFFFFFFFFFFFFFFFFFFFFFFFFFFF AND PUSH1 0x3 PUSH0 DUP4 DUP2 MSTORE PUSH1 0x20 ADD SWAP1 DUP2 MSTORE PUSH1 0x20 ADD PUSH0 KECCAK256 PUSH1 0x7 ADD PUSH0 SWAP1 SLOAD SWAP1 PUSH2 0x100 EXP SWAP1 DIV PUSH20 0xFFFFFFFFFFFFFFFFFFFFFFFFFFFFFFFFFFFFFFFF AND PUSH20 0xFFFFFFFFFFFFFFFFFFFFFFFFFFFFFFFFFFFFFFFF AND EQ PUSH2 0x8EC JUMPI PUSH1 0x40 MLOAD PUSH32 0x8C379A000000000000000000000000000000000000000000000000000000000 DUP2 MSTORE PUSH1 0x4 ADD PUSH2 0x8E3 SWAP1 PUSH2 0x14B5 JUMP JUMPDEST PUSH1 0x40 MLOAD DUP1 SWAP2 SUB SWAP1 REVERT JUMPDEST PUSH0 PUSH1 0x3 PUSH0 DUP4 DUP2 MSTORE PUSH1 0x20 ADD SWAP1 DUP2 MSTORE PUSH1 0x20 ADD PUSH0 KECCAK256 SWAP1 POP DUP1 PUSH1 0x1 ADD SLOAD DUP2 PUSH1 0x2 ADD SLOAD PUSH2 0x914 SWAP2 SWAP1 PUSH2 0x14D3 JUMP JUMPDEST TIMESTAMP LT ISZERO PUSH2 0x956 JUMPI PUSH1 0x40 MLOAD PUSH32 0x8C379A000000000000000000000000000000000000000000000000000000000 DUP2 MSTORE PUSH1 0x4 ADD PUSH2 0x94D SWAP1 PUSH2 0x1550 JUMP JUMPDEST PUSH1 0x40 MLOAD DUP1 SWAP2 SUB SWAP1 REVERT JUMPDEST PUSH0 DUP2 PUSH1 0x5 ADD SLOAD DUP3 PUSH1 0x6 ADD SLOAD PUSH2 0x96B SWAP2 SWAP1 PUSH2 0x159B JUMP JUMPDEST SWAP1 POP PUSH0 DUP3 PUSH1 0x8 ADD DUP3 DUP2 SLOAD DUP2 LT PUSH2 0x984 JUMPI PUSH2 0x983 PUSH2 0x15CB JUMP JUMPDEST JUMPDEST SWAP1 PUSH0 MSTORE PUSH1 0x20 PUSH0 KECCAK256 ADD PUSH0 SWAP1 SLOAD SWAP1 PUSH2 0x100 EXP SWAP1 DIV PUSH20 0xFFFFFFFFFFFFFFFFFFFFFFFFFFFFFFFFFFFFFFFF AND SWAP1 POP PUSH0 DUP4 PUSH0 ADD SLOAD DUP5 PUSH1 0x8 ADD DUP1 SLOAD SWAP1 POP PUSH2 0x9C5 SWAP2 SWAP1 PUSH2 0x15F8 JUMP JUMPDEST SWAP1 POP PUSH0 PUSH2 0x9D2 DUP7 DUP4 PUSH2 0xB23 JUMP JUMPDEST SWAP1 POP PUSH1 0x2 PUSH0 SWAP1 SLOAD SWAP1 PUSH2 0x100 EXP SWAP1 DIV PUSH20 0xFFFFFFFFFFFFFFFFFFFFFFFFFFFFFFFFFFFFFFFF AND PUSH20 0xFFFFFFFFFFFFFFFFFFFFFFFFFFFFFFFFFFFFFFFF AND PUSH4 0xA9059CBB CALLER DUP4 DUP6 PUSH2 0xA1E SWAP2 SWAP1 PUSH2 0x1639 JUMP JUMPDEST PUSH1 0x40 MLOAD DUP4 PUSH4 0xFFFFFFFF AND PUSH1 0xE0 SHL DUP2 MSTORE PUSH1 0x4 ADD PUSH2 0xA3B SWAP3 SWAP2 SWAP1 PUSH2 0x166C JUMP JUMPDEST PUSH1 0x20 PUSH1 0x40 MLOAD DUP1 DUP4 SUB DUP2 PUSH0 DUP8 GAS CALL ISZERO DUP1 ISZERO PUSH2 0xA57 JUMPI RETURNDATASIZE PUSH0 DUP1 RETURNDATACOPY RETURNDATASIZE PUSH0 REVERT JUMPDEST POP POP POP POP PUSH1 0x40 MLOAD RETURNDATASIZE PUSH1 0x1F NOT PUSH1 0x1F DUP3 ADD AND DUP3 ADD DUP1 PUSH1 0x40 MSTORE POP DUP2 ADD SWAP1 PUSH2 0xA7B SWAP2 SWAP1 PUSH2 0x1098 JUMP JUMPDEST PUSH2 0xABA JUMPI PUSH1 0x40 MLOAD PUSH32 0x8C379A000000000000000000000000000000000000000000000000000000000 DUP2 MSTORE PUSH1 0x4 ADD PUSH2 0xAB1 SWAP1 PUSH2 0x16DD JUMP JUMPDEST PUSH1 0x40 MLOAD DUP1 SWAP2 SUB SWAP1 REVERT JUMPDEST TIMESTAMP DUP6 PUSH1 0x2 ADD DUP2 SWAP1 SSTORE POP PUSH32 0x35CB3811461CB824B245820EEE97AB50EE1CC609F2BDD3BB10F5F0010184A7D3 DUP7 DUP5 DUP8 PUSH1 0x6 ADD SLOAD PUSH1 0x40 MLOAD PUSH2 0xAFA SWAP4 SWAP3 SWAP2 SWAP1 PUSH2 0x16FB JUMP JUMPDEST PUSH1 0x40 MLOAD DUP1 SWAP2 SUB SWAP1 LOG1 DUP5 PUSH1 0x6 ADD PUSH0 DUP2 SLOAD DUP1 SWAP3 SWAP2 SWAP1 PUSH2 0xB16 SWAP1 PUSH2 0x1303 JUMP JUMPDEST SWAP2 SWAP1 POP SSTORE POP POP POP POP POP POP POP JUMP JUMPDEST PUSH0 DUP1 PUSH1 0x3 PUSH0 DUP6 DUP2 MSTORE PUSH1 0x20 ADD SWAP1 DUP2 MSTORE PUSH1 0x20 ADD PUSH0 KECCAK256 SWAP1 POP DUP1 PUSH1 0x4 ADD SLOAD DUP2 PUSH1 0x3 ADD SLOAD DUP5 PUSH2 0xB4D SWAP2 SWAP1 PUSH2 0x15F8 JUMP JUMPDEST PUSH2 0xB57 SWAP2 SWAP1 PUSH2 0x1730 JUMP JUMPDEST SWAP2 POP POP SWAP3 SWAP2 POP POP JUMP JUMPDEST PUSH0 DUP1 PUSH1 0x64 DUP4 PUSH2 0xB6F SWAP2 SWAP1 PUSH2 0x1730 JUMP JUMPDEST SWAP1 POP DUP1 DUP4 PUSH2 0xB7D SWAP2 SWAP1 PUSH2 0x1639 JUMP JUMPDEST SWAP2 POP DUP1 PUSH1 0x1 PUSH0 DUP3 DUP3 SLOAD PUSH2 0xB90 SWAP2 SWAP1 PUSH2 0x14D3 JUMP JUMPDEST SWAP3 POP POP DUP2 SWAP1 SSTORE POP POP SWAP2 SWAP1 POP JUMP JUMPDEST DUP3 DUP1 SLOAD DUP3 DUP3 SSTORE SWAP1 PUSH0 MSTORE PUSH1 0x20 PUSH0 KECCAK256 SWAP1 DUP2 ADD SWAP3 DUP3 ISZERO PUSH2 0xC13 JUMPI SWAP2 PUSH1 0x20 MUL DUP3 ADD JUMPDEST DUP3 DUP2 GT ISZERO PUSH2 0xC12 JUMPI DUP3 MLOAD DUP3 PUSH0 PUSH2 0x100 EXP DUP2 SLOAD DUP2 PUSH20 0xFFFFFFFFFFFFFFFFFFFFFFFFFFFFFFFFFFFFFFFF MUL NOT AND SWAP1 DUP4 PUSH20 0xFFFFFFFFFFFFFFFFFFFFFFFFFFFFFFFFFFFFFFFF AND MUL OR SWAP1 SSTORE POP SWAP2 PUSH1 0x20 ADD SWAP2 SWAP1 PUSH1 0x1 ADD SWAP1 PUSH2 0xBBB JUMP JUMPDEST JUMPDEST POP SWAP1 POP PUSH2 0xC20 SWAP2 SWAP1 PUSH2 0xC24 JUMP JUMPDEST POP SWAP1 JUMP JUMPDEST JUMPDEST DUP1 DUP3 GT ISZERO PUSH2 0xC3B JUMPI PUSH0 DUP2 PUSH0 SWAP1 SSTORE POP PUSH1 0x1 ADD PUSH2 0xC25 JUMP JUMPDEST POP SWAP1 JUMP JUMPDEST PUSH0 PUSH20 0xFFFFFFFFFFFFFFFFFFFFFFFFFFFFFFFFFFFFFFFF DUP3 AND SWAP1 POP SWAP2 SWAP1 POP JUMP JUMPDEST PUSH0 DUP2 SWAP1 POP SWAP2 SWAP1 POP JUMP JUMPDEST PUSH0 PUSH2 0xC81 PUSH2 0xC7C PUSH2 0xC77 DUP5 PUSH2 0xC3F JUMP JUMPDEST PUSH2 0xC5E JUMP JUMPDEST PUSH2 0xC3F JUMP JUMPDEST SWAP1 POP SWAP2 SWAP1 POP JUMP JUMPDEST PUSH0 PUSH2 0xC92 DUP3 PUSH2 0xC67 JUMP JUMPDEST SWAP1 POP SWAP2 SWAP1 POP JUMP JUMPDEST PUSH0 PUSH2 0xCA3 DUP3 PUSH2 0xC88 JUMP JUMPDEST SWAP1 POP SWAP2 SWAP1 POP JUMP JUMPDEST PUSH2 0xCB3 DUP2 PUSH2 0xC99 JUMP JUMPDEST DUP3 MSTORE POP POP JUMP JUMPDEST PUSH0 PUSH1 0x20 DUP3 ADD SWAP1 POP PUSH2 0xCCC PUSH0 DUP4 ADD DUP5 PUSH2 0xCAA JUMP JUMPDEST SWAP3 SWAP2 POP POP JUMP JUMPDEST PUSH0 PUSH2 0xCDC DUP3 PUSH2 0xC88 JUMP JUMPDEST SWAP1 POP SWAP2 SWAP1 POP JUMP JUMPDEST PUSH2 0xCEC DUP2 PUSH2 0xCD2 JUMP JUMPDEST DUP3 MSTORE POP POP JUMP JUMPDEST PUSH0 PUSH1 0x20 DUP3 ADD SWAP1 POP PUSH2 0xD05 PUSH0 DUP4 ADD DUP5 PUSH2 0xCE3 JUMP JUMPDEST SWAP3 SWAP2 POP POP JUMP JUMPDEST PUSH0 DUP1 REVERT JUMPDEST PUSH0 DUP2 SWAP1 POP SWAP2 SWAP1 POP JUMP JUMPDEST PUSH2 0xD21 DUP2 PUSH2 0xD0F JUMP JUMPDEST DUP2 EQ PUSH2 0xD2B JUMPI PUSH0 DUP1 REVERT JUMPDEST POP JUMP JUMPDEST PUSH0 DUP2 CALLDATALOAD SWAP1 POP PUSH2 0xD3C DUP2 PUSH2 0xD18 JUMP JUMPDEST SWAP3 SWAP2 POP POP JUMP JUMPDEST PUSH0 PUSH1 0x20 DUP3 DUP5 SUB SLT ISZERO PUSH2 0xD57 JUMPI PUSH2 0xD56 PUSH2 0xD0B JUMP JUMPDEST JUMPDEST PUSH0 PUSH2 0xD64 DUP5 DUP3 DUP6 ADD PUSH2 0xD2E JUMP JUMPDEST SWAP2 POP POP SWAP3 SWAP2 POP POP JUMP JUMPDEST PUSH2 0xD76 DUP2 PUSH2 0xD0F JUMP JUMPDEST DUP3 MSTORE POP POP JUMP JUMPDEST PUSH0 PUSH1 0x20 DUP3 ADD SWAP1 POP PUSH2 0xD8F PUSH0 DUP4 ADD DUP5 PUSH2 0xD6D JUMP JUMPDEST SWAP3 SWAP2 POP POP JUMP JUMPDEST PUSH0 PUSH2 0xD9F DUP3 PUSH2 0xC3F JUMP JUMPDEST SWAP1 POP SWAP2 SWAP1 POP JUMP JUMPDEST PUSH2 0xDAF DUP2 PUSH2 0xD95 JUMP JUMPDEST DUP3 MSTORE POP POP JUMP JUMPDEST PUSH0 PUSH2 0x100 DUP3 ADD SWAP1 POP PUSH2 0xDC9 PUSH0 DUP4 ADD DUP12 PUSH2 0xD6D JUMP JUMPDEST PUSH2 0xDD6 PUSH1 0x20 DUP4 ADD DUP11 PUSH2 0xD6D JUMP JUMPDEST PUSH2 0xDE3 PUSH1 0x40 DUP4 ADD DUP10 PUSH2 0xD6D JUMP JUMPDEST PUSH2 0xDF0 PUSH1 0x60 DUP4 ADD DUP9 PUSH2 0xD6D JUMP JUMPDEST PUSH2 0xDFD PUSH1 0x80 DUP4 ADD DUP8 PUSH2 0xD6D JUMP JUMPDEST PUSH2 0xE0A PUSH1 0xA0 DUP4 ADD DUP7 PUSH2 0xD6D JUMP JUMPDEST PUSH2 0xE17 PUSH1 0xC0 DUP4 ADD DUP6 PUSH2 0xD6D JUMP JUMPDEST PUSH2 0xE24 PUSH1 0xE0 DUP4 ADD DUP5 PUSH2 0xDA6 JUMP JUMPDEST SWAP10 SWAP9 POP POP POP POP POP POP POP POP POP JUMP JUMPDEST PUSH0 DUP1 PUSH0 DUP1 PUSH0 PUSH1 0xA0 DUP7 DUP9 SUB SLT ISZERO PUSH2 0xE4A JUMPI PUSH2 0xE49 PUSH2 0xD0B JUMP JUMPDEST JUMPDEST PUSH0 PUSH2 0xE57 DUP9 DUP3 DUP10 ADD PUSH2 0xD2E JUMP JUMPDEST SWAP6 POP POP PUSH1 0x20 PUSH2 0xE68 DUP9 DUP3 DUP10 ADD PUSH2 0xD2E JUMP JUMPDEST SWAP5 POP POP PUSH1 0x40 PUSH2 0xE79 DUP9 DUP3 DUP10 ADD PUSH2 0xD2E JUMP JUMPDEST SWAP4 POP POP PUSH1 0x60 PUSH2 0xE8A DUP9 DUP3 DUP10 ADD PUSH2 0xD2E JUMP JUMPDEST SWAP3 POP POP PUSH1 0x80 PUSH2 0xE9B DUP9 DUP3 DUP10 ADD PUSH2 0xD2E JUMP JUMPDEST SWAP2 POP POP SWAP3 SWAP6 POP SWAP3 SWAP6 SWAP1 SWAP4 POP JUMP JUMPDEST PUSH0 DUP1 PUSH1 0x40 DUP4 DUP6 SUB SLT ISZERO PUSH2 0xEBE JUMPI PUSH2 0xEBD PUSH2 0xD0B JUMP JUMPDEST JUMPDEST PUSH0 PUSH2 0xECB DUP6 DUP3 DUP7 ADD PUSH2 0xD2E JUMP JUMPDEST SWAP3 POP POP PUSH1 0x20 PUSH2 0xEDC DUP6 DUP3 DUP7 ADD PUSH2 0xD2E JUMP JUMPDEST SWAP2 POP POP SWAP3 POP SWAP3 SWAP1 POP JUMP JUMPDEST PUSH0 DUP3 DUP3 MSTORE PUSH1 0x20 DUP3 ADD SWAP1 POP SWAP3 SWAP2 POP POP JUMP JUMPDEST PUSH32 0x506F742069732066756C6C000000000000000000000000000000000000000000 PUSH0 DUP3 ADD MSTORE POP JUMP JUMPDEST PUSH0 PUSH2 0xF2A PUSH1 0xB DUP4 PUSH2 0xEE6 JUMP JUMPDEST SWAP2 POP PUSH2 0xF35 DUP3 PUSH2 0xEF6 JUMP JUMPDEST PUSH1 0x20 DUP3 ADD SWAP1 POP SWAP2 SWAP1 POP JUMP JUMPDEST PUSH0 PUSH1 0x20 DUP3 ADD SWAP1 POP DUP2 DUP2 SUB PUSH0 DUP4 ADD MSTORE PUSH2 0xF57 DUP2 PUSH2 0xF1E JUMP JUMPDEST SWAP1 POP SWAP2 SWAP1 POP JUMP JUMPDEST PUSH32 0x526F746174696E6720706F74732063616E6E6F74206265206A6F696E65640000 PUSH0 DUP3 ADD MSTORE POP JUMP JUMPDEST PUSH0 PUSH2 0xF92 PUSH1 0x1E DUP4 PUSH2 0xEE6 JUMP JUMPDEST SWAP2 POP PUSH2 0xF9D DUP3 PUSH2 0xF5E JUMP JUMPDEST PUSH1 0x20 DUP3 ADD SWAP1 POP SWAP2 SWAP1 POP JUMP JUMPDEST PUSH0 PUSH1 0x20 DUP3 ADD SWAP1 POP DUP2 DUP2 SUB PUSH0 DUP4 ADD MSTORE PUSH2 0xFBF DUP2 PUSH2 0xF86 JUMP JUMPDEST SWAP1 POP SWAP2 SWAP1 POP JUMP JUMPDEST PUSH32 0x416C7265616479206A6F696E6564000000000000000000000000000000000000 PUSH0 DUP3 ADD MSTORE POP JUMP JUMPDEST PUSH0 PUSH2 0xFFA PUSH1 0xE DUP4 PUSH2 0xEE6 JUMP JUMPDEST SWAP2 POP PUSH2 0x1005 DUP3 PUSH2 0xFC6 JUMP JUMPDEST PUSH1 0x20 DUP3 ADD SWAP1 POP SWAP2 SWAP1 POP JUMP JUMPDEST PUSH0 PUSH1 0x20 DUP3 ADD SWAP1 POP DUP2 DUP2 SUB PUSH0 DUP4 ADD MSTORE PUSH2 0x1027 DUP2 PUSH2 0xFEE JUMP JUMPDEST SWAP1 POP SWAP2 SWAP1 POP JUMP JUMPDEST PUSH0 PUSH1 0x60 DUP3 ADD SWAP1 POP PUSH2 0x1041 PUSH0 DUP4 ADD DUP7 PUSH2 0xDA6 JUMP JUMPDEST PUSH2 0x104E PUSH1 0x20 DUP4 ADD DUP6 PUSH2 0xDA6 JUMP JUMPDEST PUSH2 0x105B PUSH1 0x40 DUP4 ADD DUP5 PUSH2 0xD6D JUMP JUMPDEST SWAP5 SWAP4 POP POP POP POP JUMP JUMPDEST PUSH0 DUP2 ISZERO ISZERO SWAP1 POP SWAP2 SWAP1 POP JUMP JUMPDEST PUSH2 0x1077 DUP2 PUSH2 0x1063 JUMP JUMPDEST DUP2 EQ PUSH2 0x1081 JUMPI PUSH0 DUP1 REVERT JUMPDEST POP JUMP JUMPDEST PUSH0 DUP2 MLOAD SWAP1 POP PUSH2 0x1092 DUP2 PUSH2 0x106E JUMP JUMPDEST SWAP3 SWAP2 POP POP JUMP JUMPDEST PUSH0 PUSH1 0x20 DUP3 DUP5 SUB SLT ISZERO PUSH2 0x10AD JUMPI PUSH2 0x10AC PUSH2 0xD0B JUMP JUMPDEST JUMPDEST PUSH0 PUSH2 0x10BA DUP5 DUP3 DUP6 ADD PUSH2 0x1084 JUMP JUMPDEST SWAP2 POP POP SWAP3 SWAP2 POP POP JUMP JUMPDEST PUSH32 0x5472616E73666572206661696C65640000000000000000000000000000000000 PUSH0 DUP3 ADD MSTORE POP JUMP JUMPDEST PUSH0 PUSH2 0x10F7 PUSH1 0xF DUP4 PUSH2 0xEE6 JUMP JUMPDEST SWAP2 POP PUSH2 0x1102 DUP3 PUSH2 0x10C3 JUMP JUMPDEST PUSH1 0x20 DUP3 ADD SWAP1 POP SWAP2 SWAP1 POP JUMP JUMPDEST PUSH0 PUSH1 0x20 DUP3 ADD SWAP1 POP DUP2 DUP2 SUB PUSH0 DUP4 ADD MSTORE PUSH2 0x1124 DUP2 PUSH2 0x10EB JUMP JUMPDEST SWAP1 POP SWAP2 SWAP1 POP JUMP JUMPDEST PUSH0 PUSH1 0x40 DUP3 ADD SWAP1 POP PUSH2 0x113E PUSH0 DUP4 ADD DUP6 PUSH2 0xD6D JUMP JUMPDEST PUSH2 0x114B PUSH1 0x20 DUP4 ADD DUP5 PUSH2 0xDA6 JUMP JUMPDEST SWAP4 SWAP3 POP POP POP JUMP JUMPDEST PUSH32 0x526F746174696F6E206379636C65206D75737420626520706F73697469766500 PUSH0 DUP3 ADD MSTORE POP JUMP JUMPDEST PUSH0 PUSH2 0x1186 PUSH1 0x1F DUP4 PUSH2 0xEE6 JUMP JUMPDEST SWAP2 POP PUSH2 0x1191 DUP3 PUSH2 0x1152 JUMP JUMPDEST PUSH1 0x20 DUP3 ADD SWAP1 POP SWAP2 SWAP1 POP JUMP JUMPDEST PUSH0 PUSH1 0x20 DUP3 ADD SWAP1 POP DUP2 DUP2 SUB PUSH0 DUP4 ADD MSTORE PUSH2 0x11B3 DUP2 PUSH2 0x117A JUMP JUMPDEST SWAP1 POP SWAP2 SWAP1 POP JUMP JUMPDEST PUSH32 0x496E7465726573742064656E6F6D696E61746F72206D75737420626520706F73 PUSH0 DUP3 ADD MSTORE PUSH32 0x6974697665000000000000000000000000000000000000000000000000000000 PUSH1 0x20 DUP3 ADD MSTORE POP JUMP JUMPDEST PUSH0 PUSH2 0x1214 PUSH1 0x25 DUP4 PUSH2 0xEE6 JUMP JUMPDEST SWAP2 POP PUSH2 0x121F DUP3 PUSH2 0x11BA JUMP JUMPDEST PUSH1 0x40 DUP3 ADD SWAP1 POP SWAP2 SWAP1 POP JUMP JUMPDEST PUSH0 PUSH1 0x20 DUP3 ADD SWAP1 POP DUP2 DUP2 SUB PUSH0 DUP4 ADD MSTORE PUSH2 0x1241 DUP2 PUSH2 0x1208 JUMP JUMPDEST SWAP1 POP SWAP2 SWAP1 POP JUMP JUMPDEST PUSH32 0x4E756D657261746F72206D757374206265206C657373207468616E206F722065 PUSH0 DUP3 ADD MSTORE PUSH32 0x7175616C20746F2064656E6F6D696E61746F7200000000000000000000000000 PUSH1 0x20 DUP3 ADD MSTORE POP JUMP JUMPDEST PUSH0 PUSH2 0x12A2 PUSH1 0x33 DUP4 PUSH2 0xEE6 JUMP JUMPDEST SWAP2 POP PUSH2 0x12AD DUP3 PUSH2 0x1248 JUMP JUMPDEST PUSH1 0x40 DUP3 ADD SWAP1 POP SWAP2 SWAP1 POP JUMP JUMPDEST PUSH0 PUSH1 0x20 DUP3 ADD SWAP1 POP DUP2 DUP2 SUB PUSH0 DUP4 ADD MSTORE PUSH2 0x12CF DUP2 PUSH2 0x1296 JUMP JUMPDEST SWAP1 POP SWAP2 SWAP1 POP JUMP JUMPDEST PUSH32 0x4E487B7100000000000000000000000000000000000000000000000000000000 PUSH0 MSTORE PUSH1 0x11 PUSH1 0x4 MSTORE PUSH1 0x24 PUSH0 REVERT JUMPDEST PUSH0 PUSH2 0x130D DUP3 PUSH2 0xD0F JUMP JUMPDEST SWAP2 POP PUSH32 0xFFFFFFFFFFFFFFFFFFFFFFFFFFFFFFFFFFFFFFFFFFFFFFFFFFFFFFFFFFFFFFFF DUP3 SUB PUSH2 0x133F JUMPI PUSH2 0x133E PUSH2 0x12D6 JUMP JUMPDEST JUMPDEST PUSH1 0x1 DUP3 ADD SWAP1 POP SWAP2 SWAP1 POP JUMP JUMPDEST PUSH32 0x43726561746F722073686F756C64206465706F7369742074686520696E697469 PUSH0 DUP3 ADD MSTORE PUSH32 0x616C20616D6F756E740000000000000000000000000000000000000000000000 PUSH1 0x20 DUP3 ADD MSTORE POP JUMP JUMPDEST PUSH0 PUSH2 0x13A4 PUSH1 0x29 DUP4 PUSH2 0xEE6 JUMP JUMPDEST SWAP2 POP PUSH2 0x13AF DUP3 PUSH2 0x134A JUMP JUMPDEST PUSH1 0x40 DUP3 ADD SWAP1 POP SWAP2 SWAP1 POP JUMP JUMPDEST PUSH0 PUSH1 0x20 DUP3 ADD SWAP1 POP DUP2 DUP2 SUB PUSH0 DUP4 ADD MSTORE PUSH2 0x13D1 DUP2 PUSH2 0x1398 JUMP JUMPDEST SWAP1 POP SWAP2 SWAP1 POP JUMP JUMPDEST PUSH0 PUSH1 0xE0 DUP3 ADD SWAP1 POP PUSH2 0x13EB PUSH0 DUP4 ADD DUP11 PUSH2 0xD6D JUMP JUMPDEST PUSH2 0x13F8 PUSH1 0x20 DUP4 ADD DUP10 PUSH2 0xDA6 JUMP JUMPDEST PUSH2 0x1405 PUSH1 0x40 DUP4 ADD DUP9 PUSH2 0xD6D JUMP JUMPDEST PUSH2 0x1412 PUSH1 0x60 DUP4 ADD DUP8 PUSH2 0xD6D JUMP JUMPDEST PUSH2 0x141F PUSH1 0x80 DUP4 ADD DUP7 PUSH2 0xD6D JUMP JUMPDEST PUSH2 0x142C PUSH1 0xA0 DUP4 ADD DUP6 PUSH2 0xD6D JUMP JUMPDEST PUSH2 0x1439 PUSH1 0xC0 DUP4 ADD DUP5 PUSH2 0xD6D JUMP JUMPDEST SWAP9 SWAP8 POP POP POP POP POP POP POP POP JUMP JUMPDEST PUSH32 0x4F6E6C792074686520706F742063726561746F722063616E2072657665616C20 PUSH0 DUP3 ADD MSTORE PUSH32 0x7468652077696E6E657200000000000000000000000000000000000000000000 PUSH1 0x20 DUP3 ADD MSTORE POP JUMP JUMPDEST PUSH0 PUSH2 0x149F PUSH1 0x2A DUP4 PUSH2 0xEE6 JUMP JUMPDEST SWAP2 POP PUSH2 0x14AA DUP3 PUSH2 0x1445 JUMP JUMPDEST PUSH1 0x40 DUP3 ADD SWAP1 POP SWAP2 SWAP1 POP JUMP JUMPDEST PUSH0 PUSH1 0x20 DUP3 ADD SWAP1 POP DUP2 DUP2 SUB PUSH0 DUP4 ADD MSTORE PUSH2 0x14CC DUP2 PUSH2 0x1493 JUMP JUMPDEST SWAP1 POP SWAP2 SWAP1 POP JUMP JUMPDEST PUSH0 PUSH2 0x14DD DUP3 PUSH2 0xD0F JUMP JUMPDEST SWAP2 POP PUSH2 0x14E8 DUP4 PUSH2 0xD0F JUMP JUMPDEST SWAP3 POP DUP3 DUP3 ADD SWAP1 POP DUP1 DUP3 GT ISZERO PUSH2 0x1500 JUMPI PUSH2 0x14FF PUSH2 0x12D6 JUMP JUMPDEST JUMPDEST SWAP3 SWAP2 POP POP JUMP JUMPDEST PUSH32 0x4E65787420726F746174696F6E206E6F74207965742064756500000000000000 PUSH0 DUP3 ADD MSTORE POP JUMP JUMPDEST PUSH0 PUSH2 0x153A PUSH1 0x19 DUP4 PUSH2 0xEE6 JUMP JUMPDEST SWAP2 POP PUSH2 0x1545 DUP3 PUSH2 0x1506 JUMP JUMPDEST PUSH1 0x20 DUP3 ADD SWAP1 POP SWAP2 SWAP1 POP JUMP JUMPDEST PUSH0 PUSH1 0x20 DUP3 ADD SWAP1 POP DUP2 DUP2 SUB PUSH0 DUP4 ADD MSTORE PUSH2 0x1567 DUP2 PUSH2 0x152E JUMP JUMPDEST SWAP1 POP SWAP2 SWAP1 POP JUMP JUMPDEST PUSH32 0x4E487B7100000000000000000000000000000000000000000000000000000000 PUSH0 MSTORE PUSH1 0x12 PUSH1 0x4 MSTORE PUSH1 0x24 PUSH0 REVERT JUMPDEST PUSH0 PUSH2 0x15A5 DUP3 PUSH2 0xD0F JUMP JUMPDEST SWAP2 POP PUSH2 0x15B0 DUP4 PUSH2 0xD0F JUMP JUMPDEST SWAP3 POP DUP3 PUSH2 0x15C0 JUMPI PUSH2 0x15BF PUSH2 0x156E JUMP JUMPDEST JUMPDEST DUP3 DUP3 MOD SWAP1 POP SWAP3 SWAP2 POP POP JUMP JUMPDEST PUSH32 0x4E487B7100000000000000000000000000000000000000000000000000000000 PUSH0 MSTORE PUSH1 0x32 PUSH1 0x4 MSTORE PUSH1 0x24 PUSH0 REVERT JUMPDEST PUSH0 PUSH2 0x1602 DUP3 PUSH2 0xD0F JUMP JUMPDEST SWAP2 POP PUSH2 0x160D DUP4 PUSH2 0xD0F JUMP JUMPDEST SWAP3 POP DUP3 DUP3 MUL PUSH2 0x161B DUP2 PUSH2 0xD0F JUMP JUMPDEST SWAP2 POP DUP3 DUP3 DIV DUP5 EQ DUP4 ISZERO OR PUSH2 0x1632 JUMPI PUSH2 0x1631 PUSH2 0x12D6 JUMP JUMPDEST JUMPDEST POP SWAP3 SWAP2 POP POP JUMP JUMPDEST PUSH0 PUSH2 0x1643 DUP3 PUSH2 0xD0F JUMP JUMPDEST SWAP2 POP PUSH2 0x164E DUP4 PUSH2 0xD0F JUMP JUMPDEST SWAP3 POP DUP3 DUP3 SUB SWAP1 POP DUP2 DUP2 GT ISZERO PUSH2 0x1666 JUMPI PUSH2 0x1665 PUSH2 0x12D6 JUMP JUMPDEST JUMPDEST SWAP3 SWAP2 POP POP JUMP JUMPDEST PUSH0 PUSH1 0x40 DUP3 ADD SWAP1 POP PUSH2 0x167F PUSH0 DUP4 ADD DUP6 PUSH2 0xDA6 JUMP JUMPDEST PUSH2 0x168C PUSH1 0x20 DUP4 ADD DUP5 PUSH2 0xD6D JUMP JUMPDEST SWAP4 SWAP3 POP POP POP JUMP JUMPDEST PUSH32 0x5969656C64207472616E73666572206661696C65640000000000000000000000 PUSH0 DUP3 ADD MSTORE POP JUMP JUMPDEST PUSH0 PUSH2 0x16C7 PUSH1 0x15 DUP4 PUSH2 0xEE6 JUMP JUMPDEST SWAP2 POP PUSH2 0x16D2 DUP3 PUSH2 0x1693 JUMP JUMPDEST PUSH1 0x20 DUP3 ADD SWAP1 POP SWAP2 SWAP1 POP JUMP JUMPDEST PUSH0 PUSH1 0x20 DUP3 ADD SWAP1 POP DUP2 DUP2 SUB PUSH0 DUP4 ADD MSTORE PUSH2 0x16F4 DUP2 PUSH2 0x16BB JUMP JUMPDEST SWAP1 POP SWAP2 SWAP1 POP JUMP JUMPDEST PUSH0 PUSH1 0x60 DUP3 ADD SWAP1 POP PUSH2 0x170E PUSH0 DUP4 ADD DUP7 PUSH2 0xD6D JUMP JUMPDEST PUSH2 0x171B PUSH1 0x20 DUP4 ADD DUP6 PUSH2 0xDA6 JUMP JUMPDEST PUSH2 0x1728 PUSH1 0x40 DUP4 ADD DUP5 PUSH2 0xD6D JUMP JUMPDEST SWAP5 SWAP4 POP POP POP POP JUMP JUMPDEST PUSH0 PUSH2 0x173A DUP3 PUSH2 0xD0F JUMP JUMPDEST SWAP2 POP PUSH2 0x1745 DUP4 PUSH2 0xD0F JUMP JUMPDEST SWAP3 POP DUP3 PUSH2 0x1755 JUMPI PUSH2 0x1754 PUSH2 0x156E JUMP JUMPDEST JUMPDEST DUP3 DUP3 DIV SWAP1 POP SWAP3 SWAP2 POP POP JUMP INVALID LOG2 PUSH5 0x6970667358 0x22 SLT KECCAK256 MOD PUSH14 0x95432CC1ECB74BFC0FF0E4EBFAEF SAR DUP13 PUSH23 0xF376FE814BF6E527062EBEF99264736F6C634300081800 CALLER "
		},
		"gasEstimates": {
			"creation": {
				"codeDepositCost": "1207600",
				"executionCost": "infinite",
				"totalCost": "infinite"
			},
			"external": {
				"USDB()": "infinite",
				"calculateInterest(uint256,uint256)": "infinite",
				"createPot(uint256,uint256,uint256,uint256,uint256)": "infinite",
				"joinPot(uint256)": "infinite",
				"pots(uint256)": "infinite",
				"rotateLiquidity(uint256)": "infinite",
				"totalRevenue()": "2492",
				"usdbToken()": "infinite"
			},
			"internal": {
				"deductRevenue(uint256)": "infinite",
				"updateUserYield(address,uint256)": "infinite"
			}
		},
		"methodIdentifiers": {
			"USDB()": "31a0edec",
			"calculateInterest(uint256,uint256)": "efdd7c07",
			"createPot(uint256,uint256,uint256,uint256,uint256)": "ca0ea3d1",
			"joinPot(uint256)": "831d49ef",
			"pots(uint256)": "c3c3df4f",
			"rotateLiquidity(uint256)": "ef922b87",
			"totalRevenue()": "bf2d9e0b",
			"usdbToken()": "4a80409e"
		}
	},
	"abi": [
		{
			"inputs": [],
			"stateMutability": "nonpayable",
			"type": "constructor"
		},
		{
			"anonymous": false,
			"inputs": [
				{
					"indexed": false,
					"internalType": "uint256",
					"name": "potId",
					"type": "uint256"
				},
				{
					"indexed": false,
					"internalType": "address",
					"name": "participant",
					"type": "address"
				}
			],
			"name": "ParticipantJoined",
			"type": "event"
		},
		{
			"anonymous": false,
			"inputs": [
				{
					"indexed": false,
					"internalType": "uint256",
					"name": "potId",
					"type": "uint256"
				},
				{
					"indexed": false,
					"internalType": "address",
					"name": "creator",
					"type": "address"
				},
				{
					"indexed": false,
					"internalType": "uint256",
					"name": "amount",
					"type": "uint256"
				},
				{
					"indexed": false,
					"internalType": "uint256",
					"name": "rotationCycleInSeconds",
					"type": "uint256"
				},
				{
					"indexed": false,
					"internalType": "uint256",
					"name": "_interestDenominator",
					"type": "uint256"
				},
				{
					"indexed": false,
					"internalType": "uint256",
					"name": "_interestNumerator",
					"type": "uint256"
				},
				{
					"indexed": false,
					"internalType": "uint256",
					"name": "_numParticipants",
					"type": "uint256"
				}
			],
			"name": "PotCreated",
			"type": "event"
		},
		{
			"anonymous": false,
			"inputs": [
				{
					"indexed": false,
					"internalType": "uint256",
					"name": "potId",
					"type": "uint256"
				},
				{
					"indexed": false,
					"internalType": "address",
					"name": "winner",
					"type": "address"
				},
				{
					"indexed": false,
					"internalType": "uint256",
					"name": "round",
					"type": "uint256"
				}
			],
			"name": "RotationCompleted",
			"type": "event"
		},
		{
			"inputs": [],
			"name": "USDB",
			"outputs": [
				{
					"internalType": "contract IERC20Rebasing",
					"name": "",
					"type": "address"
				}
			],
			"stateMutability": "view",
			"type": "function"
		},
		{
			"inputs": [
				{
					"internalType": "uint256",
					"name": "_potId",
					"type": "uint256"
				},
				{
					"internalType": "uint256",
					"name": "_amount",
					"type": "uint256"
				}
			],
			"name": "calculateInterest",
			"outputs": [
				{
					"internalType": "uint256",
					"name": "",
					"type": "uint256"
				}
			],
			"stateMutability": "view",
			"type": "function"
		},
		{
			"inputs": [
				{
					"internalType": "uint256",
					"name": "_rotationCycleInSeconds",
					"type": "uint256"
				},
				{
					"internalType": "uint256",
					"name": "_interestDenominator",
					"type": "uint256"
				},
				{
					"internalType": "uint256",
					"name": "_interestNumerator",
					"type": "uint256"
				},
				{
					"internalType": "uint256",
					"name": "_numParticipants",
					"type": "uint256"
				},
				{
					"internalType": "uint256",
					"name": "_amount",
					"type": "uint256"
				}
			],
			"name": "createPot",
			"outputs": [],
			"stateMutability": "nonpayable",
			"type": "function"
		},
		{
			"inputs": [
				{
					"internalType": "uint256",
					"name": "_potId",
					"type": "uint256"
				}
			],
			"name": "joinPot",
			"outputs": [],
			"stateMutability": "payable",
			"type": "function"
		},
		{
			"inputs": [
				{
					"internalType": "uint256",
					"name": "",
					"type": "uint256"
				}
			],
			"name": "pots",
			"outputs": [
				{
					"internalType": "uint256",
					"name": "amount",
					"type": "uint256"
				},
				{
					"internalType": "uint256",
					"name": "rotationCycleInSeconds",
					"type": "uint256"
				},
				{
					"internalType": "uint256",
					"name": "lastRotationTime",
					"type": "uint256"
				},
				{
					"internalType": "uint256",
					"name": "interestNumerator",
					"type": "uint256"
				},
				{
					"internalType": "uint256",
					"name": "interestDenominator",
					"type": "uint256"
				},
				{
					"internalType": "uint256",
					"name": "numParticipants",
					"type": "uint256"
				},
				{
					"internalType": "uint256",
					"name": "currentRound",
					"type": "uint256"
				},
				{
					"internalType": "address",
					"name": "potCreator",
					"type": "address"
				}
			],
			"stateMutability": "view",
			"type": "function"
		},
		{
			"inputs": [
				{
					"internalType": "uint256",
					"name": "_potId",
					"type": "uint256"
				}
			],
			"name": "rotateLiquidity",
			"outputs": [],
			"stateMutability": "nonpayable",
			"type": "function"
		},
		{
			"inputs": [],
			"name": "totalRevenue",
			"outputs": [
				{
					"internalType": "uint256",
					"name": "",
					"type": "uint256"
				}
			],
			"stateMutability": "view",
			"type": "function"
		},
		{
			"inputs": [],
			"name": "usdbToken",
			"outputs": [
				{
					"internalType": "contract IERC20",
					"name": "",
					"type": "address"
				}
			],
			"stateMutability": "view",
			"type": "function"
		}
	]
}