{
	"data": {
		"bytecode": {
			"linkReferences": {},
			"object": "6080604052600160045534801562000015575f80fd5b50604051620047193803806200471983398181016040528101906200003b919062000353565b73420000000000000000000000000000000000002273ffffffffffffffffffffffffffffffffffffffff16631a33757d60026040518263ffffffff1660e01b81526004016200008b919062000428565b6020604051808303815f875af1158015620000a8573d5f803e3d5ffd5b505050506040513d601f19601f82011682018060405250810190620000ce91906200047b565b5073420000000000000000000000000000000000002260065f6101000a81548173ffffffffffffffffffffffffffffffffffffffff021916908373ffffffffffffffffffffffffffffffffffffffff16021790555073430000000000000000000000000000000000000273ffffffffffffffffffffffffffffffffffffffff16634e606c476040518163ffffffff1660e01b81526004015f604051808303815f87803b1580156200017d575f80fd5b505af115801562000190573d5f803e3d5ffd5b50505050732fc95838c71e76ec69ff817983bff17c710f34e073ffffffffffffffffffffffffffffffffffffffff166336b91f2b73e4860d3973802c7c42450d7b9741921c7711d0396040518263ffffffff1660e01b8152600401620001f79190620004bc565b5f604051808303815f87803b1580156200020f575f80fd5b505af115801562000222573d5f803e3d5ffd5b50505050825f806101000a81548173ffffffffffffffffffffffffffffffffffffffff021916908373ffffffffffffffffffffffffffffffffffffffff1602179055508160015f6101000a81548173ffffffffffffffffffffffffffffffffffffffff021916908373ffffffffffffffffffffffffffffffffffffffff1602179055508060025f6101000a81548173ffffffffffffffffffffffffffffffffffffffff021916908373ffffffffffffffffffffffffffffffffffffffff160217905550505050620004d7565b5f80fd5b5f73ffffffffffffffffffffffffffffffffffffffff82169050919050565b5f6200031d82620002f2565b9050919050565b6200032f8162000311565b81146200033a575f80fd5b50565b5f815190506200034d8162000324565b92915050565b5f805f606084860312156200036d576200036c620002ee565b5b5f6200037c868287016200033d565b93505060206200038f868287016200033d565b9250506040620003a2868287016200033d565b9150509250925092565b7f4e487b71000000000000000000000000000000000000000000000000000000005f52602160045260245ffd5b60038110620003ed57620003ec620003ac565b5b50565b5f819050620003ff82620003d9565b919050565b5f6200041082620003f0565b9050919050565b620004228162000404565b82525050565b5f6020820190506200043d5f83018462000417565b92915050565b5f819050919050565b620004578162000443565b811462000462575f80fd5b50565b5f8151905062000475816200044c565b92915050565b5f60208284031215620004935762000492620002ee565b5b5f620004a28482850162000465565b91505092915050565b620004b68162000311565b82525050565b5f602082019050620004d15f830184620004ab565b92915050565b61423480620004e55f395ff3fe60806040526004361061013f575f3560e01c80637cb64759116100b5578063ae169a501161006e578063ae169a50146103b7578063bf2d9e0b146103df578063c3c3df4f14610409578063f2fde38b1461044f578063f78aedf914610477578063f851a440146104935761013f565b80637cb64759146102c15780637d77990c146102e95780638129fc1c146103255780638da5cb5b1461033b57806391dc969e1461036557806397d757761461038d5761013f565b80634a80409e116101075780634a80409e146101f15780634f573cb21461021b57806361e7d80514610231578063715018a61461025957806373b2e80e1461026f57806377d5d2dc146102ab5761013f565b80630fae6443146101435780632eb4a7ab1461015f57806331a0edec146101895780633cabfefd146101b3578063409a33ce146101db575b5f80fd5b61015d600480360381019061015891906128d4565b6104bd565b005b34801561016a575f80fd5b50610173610a23565b604051610180919061299c565b60405180910390f35b348015610194575f80fd5b5061019d610a29565b6040516101aa9190612a2f565b60405180910390f35b3480156101be575f80fd5b506101d960048036038101906101d49190612a48565b610a41565b005b3480156101e6575f80fd5b506101ef6110dd565b005b3480156101fc575f80fd5b50610205611202565b6040516102129190612ab8565b60405180910390f35b348015610226575f80fd5b5061022f611227565b005b34801561023c575f80fd5b5061025760048036038101906102529190612b2e565b61135c565b005b348015610264575f80fd5b5061026d6115cb565b005b34801561027a575f80fd5b5061029560048036038101906102909190612bc6565b6115de565b6040516102a29190612c00565b60405180910390f35b3480156102b6575f80fd5b506102bf6115f3565b005b3480156102cc575f80fd5b506102e760048036038101906102e29190612c19565b61168d565b005b3480156102f4575f80fd5b5061030f600480360381019061030a9190612c44565b61169f565b60405161031c9190612c00565b60405180910390f35b348015610330575f80fd5b506103396116dc565b005b348015610346575f80fd5b5061034f6118d1565b60405161035c9190612c91565b60405180910390f35b348015610370575f80fd5b5061038b60048036038101906103869190612bc6565b611906565b005b348015610398575f80fd5b506103a1611951565b6040516103ae9190612cca565b60405180910390f35b3480156103c2575f80fd5b506103dd60048036038101906103d89190612ce3565b611969565b005b3480156103ea575f80fd5b506103f3611b65565b6040516104009190612c00565b60405180910390f35b348015610414575f80fd5b5061042f600480360381019061042a9190612ce3565b611b6b565b6040516104469b9a99989796959493929190612daa565b60405180910390f35b34801561045a575f80fd5b5061047560048036038101906104709190612bc6565b611c7a565b005b610491600480360381019061048c9190612ef8565b611cfe565b005b34801561049e575f80fd5b506104a7612079565b6040516104b49190612c91565b60405180910390f35b5f805f9054906101000a900473ffffffffffffffffffffffffffffffffffffffff1673ffffffffffffffffffffffffffffffffffffffff1663b88c914860015f9054906101000a900473ffffffffffffffffffffffffffffffffffffffff166040518263ffffffff1660e01b81526004016105389190612c91565b602060405180830381865afa158015610553573d5f803e3d5ffd5b505050506040513d601f19601f820116820180604052508101906105779190612fa9565b6fffffffffffffffffffffffffffffffff1690508034106105cd576040517f08c379a00000000000000000000000000000000000000000000000000000000081526004016105c49061301e565b60405180910390fd5b5f861161060f576040517f08c379a000000000000000000000000000000000000000000000000000000000815260040161060690613086565b60405180910390fd5b5f8511610651576040517f08c379a000000000000000000000000000000000000000000000000000000000815260040161064890613114565b60405180910390fd5b84841115610694576040517f08c379a000000000000000000000000000000000000000000000000000000000815260040161068b906131a2565b60405180910390fd5b5f60045f8154809291906106a7906131ed565b91905055905060065f9054906101000a900473ffffffffffffffffffffffffffffffffffffffff1673ffffffffffffffffffffffffffffffffffffffff166323b872dd3330866040518463ffffffff1660e01b815260040161070b93929190613234565b6020604051808303815f875af1158015610727573d5f803e3d5ffd5b505050506040513d601f19601f8201168201806040525081019061074b919061329e565b61078a576040517f08c379a000000000000000000000000000000000000000000000000000000000815260040161078190613339565b60405180910390fd5b5f805f9054906101000a900473ffffffffffffffffffffffffffffffffffffffff1673ffffffffffffffffffffffffffffffffffffffff166393cbf2178460015f9054906101000a900473ffffffffffffffffffffffffffffffffffffffff168c60016040518563ffffffff1660e01b815260040161080b93929190613366565b60206040518083038185885af1158015610827573d5f803e3d5ffd5b50505050506040513d601f19601f8201168201806040525081019061084c91906133c5565b90505f60085f8481526020019081526020015f2090508a815f01908161087291906135e1565b508481600101819055505f816002018190555081816009015f6101000a81548167ffffffffffffffff021916908367ffffffffffffffff160217905550338160090160086101000a81548173ffffffffffffffffffffffffffffffffffffffff021916908373ffffffffffffffffffffffffffffffffffffffff160217905550888160030181905550868160050181905550878160060181905550428160040181905550858160070181905550600181600801819055508481600c015f3373ffffffffffffffffffffffffffffffffffffffff1673ffffffffffffffffffffffffffffffffffffffff1681526020019081526020015f208190555080600a0133908060018154018082558091505060019003905f5260205f20015f9091909190916101000a81548173ffffffffffffffffffffffffffffffffffffffff021916908373ffffffffffffffffffffffffffffffffffffffff1602179055507f2ea75defa9ed86be5c1f296ba42849d00ed611c827f9f30a82ab2f1dadc50b88838c33888d8c8e8d8a604051610a0e999897969594939291906136b0565b60405180910390a15050505050505050505050565b60035481565b73420000000000000000000000000000000000002281565b3373ffffffffffffffffffffffffffffffffffffffff1660085f8581526020019081526020015f2060090160089054906101000a900473ffffffffffffffffffffffffffffffffffffffff1673ffffffffffffffffffffffffffffffffffffffff1614610ae3576040517f08c379a0000000000000000000000000000000000000000000000000000000008152600401610ada906137b2565b60405180910390fd5b5f60085f8581526020019081526020015f20905080600301548160040154610b0b91906137d0565b421015610b4d576040517f08c379a0000000000000000000000000000000000000000000000000000000008152600401610b449061384d565b60405180910390fd5b5f805f9054906101000a900473ffffffffffffffffffffffffffffffffffffffff1673ffffffffffffffffffffffffffffffffffffffff16639371df5160015f9054906101000a900473ffffffffffffffffffffffffffffffffffffffff16846009015f9054906101000a900467ffffffffffffffff1687876040518563ffffffff1660e01b8152600401610be5949392919061386b565b6020604051808303815f875af1158015610c01573d5f803e3d5ffd5b505050506040513d601f19601f82011682018060405250810190610c2591906138c2565b90505f8260070154825f1c610c3a919061391a565b90505f83600a018281548110610c5357610c5261394a565b5b905f5260205f20015f9054906101000a900473ffffffffffffffffffffffffffffffffffffffff16905083600b0181908060018154018082558091505060019003905f5260205f20015f9091909190916101000a81548173ffffffffffffffffffffffffffffffffffffffff021916908373ffffffffffffffffffffffffffffffffffffffff160217905550600160085f8981526020019081526020015f20600a0180549050610d039190613977565b8214610de65760085f8881526020019081526020015f20600a01600160085f8a81526020019081526020015f20600a0180549050610d419190613977565b81548110610d5257610d5161394a565b5b905f5260205f20015f9054906101000a900473ffffffffffffffffffffffffffffffffffffffff1660085f8981526020019081526020015f20600a018381548110610da057610d9f61394a565b5b905f5260205f20015f6101000a81548173ffffffffffffffffffffffffffffffffffffffff021916908373ffffffffffffffffffffffffffffffffffffffff1602179055505b60085f8881526020019081526020015f20600a01805480610e0a57610e096139aa565b5b600190038181905f5260205f20015f6101000a81549073ffffffffffffffffffffffffffffffffffffffff021916905590555f846001015485600a0180549050610e5491906139d7565b90505f610e608261209e565b90505f610e6d8a8361169f565b90508087600201819055508082610e849190613977565b87600d015f8673ffffffffffffffffffffffffffffffffffffffff1673ffffffffffffffffffffffffffffffffffffffff1681526020019081526020015f2081905550600187600e015f8673ffffffffffffffffffffffffffffffffffffffff1673ffffffffffffffffffffffffffffffffffffffff1681526020019081526020015f205f6101000a81548160ff02191690831515021790555042876004018190555086600a015f610f3691906126e8565b60065f9054906101000a900473ffffffffffffffffffffffffffffffffffffffff1673ffffffffffffffffffffffffffffffffffffffff166323b872dd33308a600101546040518463ffffffff1660e01b8152600401610f9893929190613234565b6020604051808303815f875af1158015610fb4573d5f803e3d5ffd5b505050506040513d601f19601f82011682018060405250810190610fd8919061329e565b611017576040517f08c379a000000000000000000000000000000000000000000000000000000000815260040161100e90613339565b60405180910390fd5b86600a0133908060018154018082558091505060019003905f5260205f20015f9091909190916101000a81548173ffffffffffffffffffffffffffffffffffffffff021916908373ffffffffffffffffffffffffffffffffffffffff1602179055507f35cb3811461cb824b245820eee97ab50ee1cc609f2bdd3bb10f5f0010184a7d38a8589600801546040516110b093929190613a18565b60405180910390a1866008015f8154809291906110cc906131ed565b919050555050505050505050505050565b6110e56120db565b73420000000000000000000000000000000000002273ffffffffffffffffffffffffffffffffffffffff1663aad3ec963073420000000000000000000000000000000000002273ffffffffffffffffffffffffffffffffffffffff1663e12f3a61306040518263ffffffff1660e01b81526004016111639190612c91565b602060405180830381865afa15801561117e573d5f803e3d5ffd5b505050506040513d601f19601f820116820180604052508101906111a29190613a61565b6040518363ffffffff1660e01b81526004016111bf929190613a8c565b6020604051808303815f875af11580156111db573d5f803e3d5ffd5b505050506040513d601f19601f820116820180604052508101906111ff9190613a61565b50565b60065f9054906101000a900473ffffffffffffffffffffffffffffffffffffffff1681565b61122f6120db565b5f60055490505f8111611277576040517f08c379a000000000000000000000000000000000000000000000000000000000815260040161126e90613afd565b60405180910390fd5b5f60058190555060065f9054906101000a900473ffffffffffffffffffffffffffffffffffffffff1673ffffffffffffffffffffffffffffffffffffffff1663a9059cbb30836040518363ffffffff1660e01b81526004016112da929190613a8c565b6020604051808303815f875af11580156112f6573d5f803e3d5ffd5b505050506040513d601f19601f8201168201806040525081019061131a919061329e565b611359576040517f08c379a000000000000000000000000000000000000000000000000000000000815260040161135090613b65565b60405180910390fd5b50565b5f3384604051602001611370929190613be8565b6040516020818303038152906040528051906020012090506113d58383808060200260200160405190810160405280939291908181526020018383602002808284375f81840152601f19601f8201169050808301925050505050505060035483612162565b611414576040517f08c379a000000000000000000000000000000000000000000000000000000000815260040161140b90613c5d565b60405180910390fd5b5f60075f3373ffffffffffffffffffffffffffffffffffffffff1673ffffffffffffffffffffffffffffffffffffffff1681526020019081526020015f20549050848110611497576040517f08c379a000000000000000000000000000000000000000000000000000000000815260040161148e90613ceb565b60405180910390fd5b5f81866114a49190613977565b90508560075f3373ffffffffffffffffffffffffffffffffffffffff1673ffffffffffffffffffffffffffffffffffffffff1681526020019081526020015f208190555060065f9054906101000a900473ffffffffffffffffffffffffffffffffffffffff1673ffffffffffffffffffffffffffffffffffffffff1663a9059cbb33836040518363ffffffff1660e01b8152600401611544929190613a8c565b6020604051808303815f875af1158015611560573d5f803e3d5ffd5b505050506040513d601f19601f82011682018060405250810190611584919061329e565b6115c3576040517f08c379a00000000000000000000000000000000000000000000000000000000081526004016115ba90613d53565b60405180910390fd5b505050505050565b6115d36120db565b6115dc5f612178565b565b6007602052805f5260405f205f915090505481565b6115fb6120db565b73430000000000000000000000000000000000000273ffffffffffffffffffffffffffffffffffffffff1663954fa5ee30306040518363ffffffff1660e01b815260040161164a929190613d71565b6020604051808303815f875af1158015611666573d5f803e3d5ffd5b505050506040513d601f19601f8201168201806040525081019061168a9190613a61565b50565b6116956120db565b8060038190555050565b5f8060085f8581526020019081526020015f20905080600601548160050154846116c991906139d7565b6116d39190613d98565b91505092915050565b5f6116e5612249565b90505f815f0160089054906101000a900460ff161590505f825f015f9054906101000a900467ffffffffffffffff1690505f808267ffffffffffffffff1614801561172d5750825b90505f60018367ffffffffffffffff1614801561176057505f3073ffffffffffffffffffffffffffffffffffffffff163b145b90508115801561176e575080155b156117a5576040517ff92ee8a900000000000000000000000000000000000000000000000000000000815260040160405180910390fd5b6001855f015f6101000a81548167ffffffffffffffff021916908367ffffffffffffffff16021790555083156117f2576001855f0160086101000a81548160ff0219169083151502179055505b6117fa6118d1565b73ffffffffffffffffffffffffffffffffffffffff163373ffffffffffffffffffffffffffffffffffffffff1614611867576040517f08c379a000000000000000000000000000000000000000000000000000000000815260040161185e90613e12565b60405180910390fd5b61187033612270565b83156118ca575f855f0160086101000a81548160ff0219169083151502179055507fc7f505b2f371ae2175ee4913f4499e1f2633a7b5936321eed1cdaeb6115181d260016040516118c19190613e69565b60405180910390a15b5050505050565b5f806118db612284565b9050805f015f9054906101000a900473ffffffffffffffffffffffffffffffffffffffff1691505090565b61190e6120db565b8060025f6101000a81548173ffffffffffffffffffffffffffffffffffffffff021916908373ffffffffffffffffffffffffffffffffffffffff16021790555050565b73430000000000000000000000000000000000000281565b5f60085f8381526020019081526020015f2090505f81600d015f3373ffffffffffffffffffffffffffffffffffffffff1673ffffffffffffffffffffffffffffffffffffffff1681526020019081526020015f2054116119fe576040517f08c379a00000000000000000000000000000000000000000000000000000000081526004016119f590613ecc565b60405180910390fd5b5f81600d015f3373ffffffffffffffffffffffffffffffffffffffff1673ffffffffffffffffffffffffffffffffffffffff1681526020019081526020015f205490505f82600d015f3373ffffffffffffffffffffffffffffffffffffffff1673ffffffffffffffffffffffffffffffffffffffff1681526020019081526020015f208190555060065f9054906101000a900473ffffffffffffffffffffffffffffffffffffffff1673ffffffffffffffffffffffffffffffffffffffff1663a9059cbb33836040518363ffffffff1660e01b8152600401611ae1929190613a8c565b6020604051808303815f875af1158015611afd573d5f803e3d5ffd5b505050506040513d601f19601f82011682018060405250810190611b21919061329e565b611b60576040517f08c379a0000000000000000000000000000000000000000000000000000000008152600401611b5790613f34565b60405180910390fd5b505050565b60055481565b6008602052805f5260405f205f91509050805f018054611b8a9061341d565b80601f0160208091040260200160405190810160405280929190818152602001828054611bb69061341d565b8015611c015780601f10611bd857610100808354040283529160200191611c01565b820191905f5260205f20905b815481529060010190602001808311611be457829003601f168201915b505050505090806001015490806002015490806003015490806004015490806005015490806006015490806007015490806008015490806009015f9054906101000a900467ffffffffffffffff16908060090160089054906101000a900473ffffffffffffffffffffffffffffffffffffffff1690508b565b611c826120db565b5f73ffffffffffffffffffffffffffffffffffffffff168173ffffffffffffffffffffffffffffffffffffffff1603611cf2575f6040517f1e4fbdf7000000000000000000000000000000000000000000000000000000008152600401611ce99190612c91565b60405180910390fd5b611cfb81612178565b50565b5f60085f8581526020019081526020015f209050806007015481600a018054905010611d5f576040517f08c379a0000000000000000000000000000000000000000000000000000000008152600401611d5690613f9c565b60405180910390fd5b5f8433836008015485604051602001611d7b9493929190613fba565b604051602081830303815290604052805190602001209050611da684826122ab90919063ffffffff16565b73ffffffffffffffffffffffffffffffffffffffff1660025f9054906101000a900473ffffffffffffffffffffffffffffffffffffffff1673ffffffffffffffffffffffffffffffffffffffff1614611e34576040517f08c379a0000000000000000000000000000000000000000000000000000000008152600401611e2b90614051565b60405180910390fd5b60065f9054906101000a900473ffffffffffffffffffffffffffffffffffffffff1673ffffffffffffffffffffffffffffffffffffffff166323b872dd333085600101546040518463ffffffff1660e01b8152600401611e9693929190613234565b6020604051808303815f875af1158015611eb2573d5f803e3d5ffd5b505050506040513d601f19601f82011682018060405250810190611ed6919061329e565b611f15576040517f08c379a0000000000000000000000000000000000000000000000000000000008152600401611f0c90613f34565b60405180910390fd5b816001015482600c015f3373ffffffffffffffffffffffffffffffffffffffff1673ffffffffffffffffffffffffffffffffffffffff1681526020019081526020015f20819055506001151582600e015f3373ffffffffffffffffffffffffffffffffffffffff1673ffffffffffffffffffffffffffffffffffffffff1681526020019081526020015f205f9054906101000a900460ff161515146120175781600a0133908060018154018082558091505060019003905f5260205f20015f9091909190916101000a81548173ffffffffffffffffffffffffffffffffffffffff021916908373ffffffffffffffffffffffffffffffffffffffff1602179055505b7f43d2f309913f6afc5d717f60864d2d192b69963d25204b6a12765e2795bf027f85835f01338560010154866003015487600501548860060154896007015460405161206a9897969594939291906140f0565b60405180910390a15050505050565b60025f9054906101000a900473ffffffffffffffffffffffffffffffffffffffff1681565b5f806064836120ad9190613d98565b905080836120bb9190613977565b91508060055f8282546120ce91906137d0565b9250508190555050919050565b6120e36122d5565b73ffffffffffffffffffffffffffffffffffffffff166121016118d1565b73ffffffffffffffffffffffffffffffffffffffff1614612160576121246122d5565b6040517f118cdaa70000000000000000000000000000000000000000000000000000000081526004016121579190612c91565b60405180910390fd5b565b5f8261216e85846122dc565b1490509392505050565b5f612181612284565b90505f815f015f9054906101000a900473ffffffffffffffffffffffffffffffffffffffff16905082825f015f6101000a81548173ffffffffffffffffffffffffffffffffffffffff021916908373ffffffffffffffffffffffffffffffffffffffff1602179055508273ffffffffffffffffffffffffffffffffffffffff168173ffffffffffffffffffffffffffffffffffffffff167f8be0079c531659141344cd1fd0a4f28419497f9722a3daafe3b4186f6b6457e060405160405180910390a3505050565b5f7ff0c57e16840df040f15088dc2f81fe391c3923bec73e23a9662efc9c229c6a00905090565b61227861232a565b6122818161236a565b50565b5f7f9016d09d72d40fdae2fd8ceac6b6234c7706214fd39c1cd1e609a0528c199300905090565b5f805f806122b986866123ee565b9250925092506122c98282612443565b82935050505092915050565b5f33905090565b5f808290505f5b845181101561231f57612310828683815181106123035761230261394a565b5b60200260200101516125a5565b915080806001019150506122e3565b508091505092915050565b6123326125cf565b612368576040517fd7e6bcf800000000000000000000000000000000000000000000000000000000815260040160405180910390fd5b565b61237261232a565b5f73ffffffffffffffffffffffffffffffffffffffff168173ffffffffffffffffffffffffffffffffffffffff16036123e2575f6040517f1e4fbdf70000000000000000000000000000000000000000000000000000000081526004016123d99190612c91565b60405180910390fd5b6123eb81612178565b50565b5f805f604184510361242e575f805f602087015192506040870151915060608701515f1a9050612420888285856125ed565b95509550955050505061243c565b5f600285515f1b9250925092505b9250925092565b5f600381111561245657612455614173565b5b82600381111561246957612468614173565b5b03156125a1576001600381111561248357612482614173565b5b82600381111561249657612495614173565b5b036124cd576040517ff645eedf00000000000000000000000000000000000000000000000000000000815260040160405180910390fd5b600260038111156124e1576124e0614173565b5b8260038111156124f4576124f3614173565b5b0361253857805f1c6040517ffce698f700000000000000000000000000000000000000000000000000000000815260040161252f9190612c00565b60405180910390fd5b60038081111561254b5761254a614173565b5b82600381111561255e5761255d614173565b5b036125a057806040517fd78bce0c000000000000000000000000000000000000000000000000000000008152600401612597919061299c565b60405180910390fd5b5b5050565b5f8183106125bc576125b782846126d4565b6125c7565b6125c683836126d4565b5b905092915050565b5f6125d8612249565b5f0160089054906101000a900460ff16905090565b5f805f7f7fffffffffffffffffffffffffffffff5d576e7357a4501ddfe92f46681b20a0845f1c1115612629575f6003859250925092506126ca565b5f6001888888886040515f815260200160405260405161264c94939291906141bb565b6020604051602081039080840390855afa15801561266c573d5f803e3d5ffd5b5050506020604051035190505f73ffffffffffffffffffffffffffffffffffffffff168173ffffffffffffffffffffffffffffffffffffffff16036126bd575f60015f801b935093509350506126ca565b805f805f1b935093509350505b9450945094915050565b5f825f528160205260405f20905092915050565b5080545f8255905f5260205f20908101906127039190612706565b50565b5b8082111561271d575f815f905550600101612707565b5090565b5f604051905090565b5f80fd5b5f80fd5b5f80fd5b5f80fd5b5f601f19601f8301169050919050565b7f4e487b71000000000000000000000000000000000000000000000000000000005f52604160045260245ffd5b6127808261273a565b810181811067ffffffffffffffff8211171561279f5761279e61274a565b5b80604052505050565b5f6127b1612721565b90506127bd8282612777565b919050565b5f67ffffffffffffffff8211156127dc576127db61274a565b5b6127e58261273a565b9050602081019050919050565b828183375f83830152505050565b5f61281261280d846127c2565b6127a8565b90508281526020810184848401111561282e5761282d612736565b5b6128398482856127f2565b509392505050565b5f82601f83011261285557612854612732565b5b8135612865848260208601612800565b91505092915050565b5f819050919050565b6128808161286e565b811461288a575f80fd5b50565b5f8135905061289b81612877565b92915050565b5f819050919050565b6128b3816128a1565b81146128bd575f80fd5b50565b5f813590506128ce816128aa565b92915050565b5f805f805f805f60e0888a0312156128ef576128ee61272a565b5b5f88013567ffffffffffffffff81111561290c5761290b61272e565b5b6129188a828b01612841565b97505060206129298a828b0161288d565b965050604061293a8a828b016128c0565b955050606061294b8a828b016128c0565b945050608061295c8a828b016128c0565b93505060a061296d8a828b016128c0565b92505060c061297e8a828b016128c0565b91505092959891949750929550565b6129968161286e565b82525050565b5f6020820190506129af5f83018461298d565b92915050565b5f73ffffffffffffffffffffffffffffffffffffffff82169050919050565b5f819050919050565b5f6129f76129f26129ed846129b5565b6129d4565b6129b5565b9050919050565b5f612a08826129dd565b9050919050565b5f612a19826129fe565b9050919050565b612a2981612a0f565b82525050565b5f602082019050612a425f830184612a20565b92915050565b5f805f60608486031215612a5f57612a5e61272a565b5b5f612a6c868287016128c0565b9350506020612a7d8682870161288d565b9250506040612a8e8682870161288d565b9150509250925092565b5f612aa2826129fe565b9050919050565b612ab281612a98565b82525050565b5f602082019050612acb5f830184612aa9565b92915050565b5f80fd5b5f80fd5b5f8083601f840112612aee57612aed612732565b5b8235905067ffffffffffffffff811115612b0b57612b0a612ad1565b5b602083019150836020820283011115612b2757612b26612ad5565b5b9250929050565b5f805f60408486031215612b4557612b4461272a565b5b5f612b52868287016128c0565b935050602084013567ffffffffffffffff811115612b7357612b7261272e565b5b612b7f86828701612ad9565b92509250509250925092565b5f612b95826129b5565b9050919050565b612ba581612b8b565b8114612baf575f80fd5b50565b5f81359050612bc081612b9c565b92915050565b5f60208284031215612bdb57612bda61272a565b5b5f612be884828501612bb2565b91505092915050565b612bfa816128a1565b82525050565b5f602082019050612c135f830184612bf1565b92915050565b5f60208284031215612c2e57612c2d61272a565b5b5f612c3b8482850161288d565b91505092915050565b5f8060408385031215612c5a57612c5961272a565b5b5f612c67858286016128c0565b9250506020612c78858286016128c0565b9150509250929050565b612c8b81612b8b565b82525050565b5f602082019050612ca45f830184612c82565b92915050565b5f612cb4826129fe565b9050919050565b612cc481612caa565b82525050565b5f602082019050612cdd5f830184612cbb565b92915050565b5f60208284031215612cf857612cf761272a565b5b5f612d05848285016128c0565b91505092915050565b5f81519050919050565b5f82825260208201905092915050565b5f5b83811015612d45578082015181840152602081019050612d2a565b5f8484015250505050565b5f612d5a82612d0e565b612d648185612d18565b9350612d74818560208601612d28565b612d7d8161273a565b840191505092915050565b5f67ffffffffffffffff82169050919050565b612da481612d88565b82525050565b5f610160820190508181035f830152612dc3818e612d50565b9050612dd2602083018d612bf1565b612ddf604083018c612bf1565b612dec606083018b612bf1565b612df9608083018a612bf1565b612e0660a0830189612bf1565b612e1360c0830188612bf1565b612e2060e0830187612bf1565b612e2e610100830186612bf1565b612e3c610120830185612d9b565b612e4a610140830184612c82565b9c9b505050505050505050505050565b5f67ffffffffffffffff821115612e7457612e7361274a565b5b612e7d8261273a565b9050602081019050919050565b5f612e9c612e9784612e5a565b6127a8565b905082815260208101848484011115612eb857612eb7612736565b5b612ec38482856127f2565b509392505050565b5f82601f830112612edf57612ede612732565b5b8135612eef848260208601612e8a565b91505092915050565b5f805f60608486031215612f0f57612f0e61272a565b5b5f612f1c868287016128c0565b935050602084013567ffffffffffffffff811115612f3d57612f3c61272e565b5b612f4986828701612ecb565b9250506040612f5a868287016128c0565b9150509250925092565b5f6fffffffffffffffffffffffffffffffff82169050919050565b612f8881612f64565b8114612f92575f80fd5b50565b5f81519050612fa381612f7f565b92915050565b5f60208284031215612fbe57612fbd61272a565b5b5f612fcb84828501612f95565b91505092915050565b7f496e73756666696369656e7420666565000000000000000000000000000000005f82015250565b5f613008601083612d18565b915061301382612fd4565b602082019050919050565b5f6020820190508181035f83015261303581612ffc565b9050919050565b7f526f746174696f6e206379636c65206d75737420626520706f736974697665005f82015250565b5f613070601f83612d18565b915061307b8261303c565b602082019050919050565b5f6020820190508181035f83015261309d81613064565b9050919050565b7f496e7465726573742064656e6f6d696e61746f72206d75737420626520706f735f8201527f6974697665000000000000000000000000000000000000000000000000000000602082015250565b5f6130fe602583612d18565b9150613109826130a4565b604082019050919050565b5f6020820190508181035f83015261312b816130f2565b9050919050565b7f4e756d657261746f72206d757374206265206c657373207468616e206f7220655f8201527f7175616c20746f2064656e6f6d696e61746f7200000000000000000000000000602082015250565b5f61318c603383612d18565b915061319782613132565b604082019050919050565b5f6020820190508181035f8301526131b981613180565b9050919050565b7f4e487b71000000000000000000000000000000000000000000000000000000005f52601160045260245ffd5b5f6131f7826128a1565b91507fffffffffffffffffffffffffffffffffffffffffffffffffffffffffffffffff8203613229576132286131c0565b5b600182019050919050565b5f6060820190506132475f830186612c82565b6132546020830185612c82565b6132616040830184612bf1565b949350505050565b5f8115159050919050565b61327d81613269565b8114613287575f80fd5b50565b5f8151905061329881613274565b92915050565b5f602082840312156132b3576132b261272a565b5b5f6132c08482850161328a565b91505092915050565b7f43726561746f722073686f756c64206465706f7369742074686520696e6974695f8201527f616c20616d6f756e740000000000000000000000000000000000000000000000602082015250565b5f613323602983612d18565b915061332e826132c9565b604082019050919050565b5f6020820190508181035f83015261335081613317565b9050919050565b61336081613269565b82525050565b5f6060820190506133795f830186612c82565b613386602083018561298d565b6133936040830184613357565b949350505050565b6133a481612d88565b81146133ae575f80fd5b50565b5f815190506133bf8161339b565b92915050565b5f602082840312156133da576133d961272a565b5b5f6133e7848285016133b1565b91505092915050565b7f4e487b71000000000000000000000000000000000000000000000000000000005f52602260045260245ffd5b5f600282049050600182168061343457607f821691505b602082108103613447576134466133f0565b5b50919050565b5f819050815f5260205f209050919050565b5f6020601f8301049050919050565b5f82821b905092915050565b5f600883026134a97fffffffffffffffffffffffffffffffffffffffffffffffffffffffffffffffff8261346e565b6134b3868361346e565b95508019841693508086168417925050509392505050565b5f6134e56134e06134db846128a1565b6129d4565b6128a1565b9050919050565b5f819050919050565b6134fe836134cb565b61351261350a826134ec565b84845461347a565b825550505050565b5f90565b61352661351a565b6135318184846134f5565b505050565b5b81811015613554576135495f8261351e565b600181019050613537565b5050565b601f8211156135995761356a8161344d565b6135738461345f565b81016020851015613582578190505b61359661358e8561345f565b830182613536565b50505b505050565b5f82821c905092915050565b5f6135b95f198460080261359e565b1980831691505092915050565b5f6135d183836135aa565b9150826002028217905092915050565b6135ea82612d0e565b67ffffffffffffffff8111156136035761360261274a565b5b61360d825461341d565b613618828285613558565b5f60209050601f831160018114613649575f8415613637578287015190505b61364185826135c6565b8655506136a8565b601f1984166136578661344d565b5f5b8281101561367e57848901518255600182019150602085019450602081019050613659565b8683101561369b5784890151613697601f8916826135aa565b8355505b6001600288020188555050505b505050505050565b5f610120820190506136c45f83018c612bf1565b81810360208301526136d6818b612d50565b90506136e5604083018a612c82565b6136f26060830189612bf1565b6136ff6080830188612bf1565b61370c60a0830187612bf1565b61371960c0830186612bf1565b61372660e0830185612bf1565b613734610100830184612d9b565b9a9950505050505050505050565b7f4f6e6c792074686520706f742063726561746f722063616e2072657665616c205f8201527f7468652077696e6e657200000000000000000000000000000000000000000000602082015250565b5f61379c602a83612d18565b91506137a782613742565b604082019050919050565b5f6020820190508181035f8301526137c981613790565b9050919050565b5f6137da826128a1565b91506137e5836128a1565b92508282019050808211156137fd576137fc6131c0565b5b92915050565b7f4e65787420726f746174696f6e206e6f742079657420647565000000000000005f82015250565b5f613837601983612d18565b915061384282613803565b602082019050919050565b5f6020820190508181035f8301526138648161382b565b9050919050565b5f60808201905061387e5f830187612c82565b61388b6020830186612d9b565b613898604083018561298d565b6138a5606083018461298d565b95945050505050565b5f815190506138bc81612877565b92915050565b5f602082840312156138d7576138d661272a565b5b5f6138e4848285016138ae565b91505092915050565b7f4e487b71000000000000000000000000000000000000000000000000000000005f52601260045260245ffd5b5f613924826128a1565b915061392f836128a1565b92508261393f5761393e6138ed565b5b828206905092915050565b7f4e487b71000000000000000000000000000000000000000000000000000000005f52603260045260245ffd5b5f613981826128a1565b915061398c836128a1565b92508282039050818111156139a4576139a36131c0565b5b92915050565b7f4e487b71000000000000000000000000000000000000000000000000000000005f52603160045260245ffd5b5f6139e1826128a1565b91506139ec836128a1565b92508282026139fa816128a1565b91508282048414831517613a1157613a106131c0565b5b5092915050565b5f606082019050613a2b5f830186612bf1565b613a386020830185612c82565b613a456040830184612bf1565b949350505050565b5f81519050613a5b816128aa565b92915050565b5f60208284031215613a7657613a7561272a565b5b5f613a8384828501613a4d565b91505092915050565b5f604082019050613a9f5f830185612c82565b613aac6020830184612bf1565b9392505050565b7f4e6f20726576656e756520746f207769746864726177000000000000000000005f82015250565b5f613ae7601683612d18565b9150613af282613ab3565b602082019050919050565b5f6020820190508181035f830152613b1481613adb565b9050919050565b7f526576656e7565207769746864726177616c206661696c6564000000000000005f82015250565b5f613b4f601983612d18565b9150613b5a82613b1b565b602082019050919050565b5f6020820190508181035f830152613b7c81613b43565b9050919050565b5f8160601b9050919050565b5f613b9982613b83565b9050919050565b5f613baa82613b8f565b9050919050565b613bc2613bbd82612b8b565b613ba0565b82525050565b5f819050919050565b613be2613bdd826128a1565b613bc8565b82525050565b5f613bf38285613bb1565b601482019150613c038284613bd1565b6020820191508190509392505050565b7f496e76616c69642070726f6f662e0000000000000000000000000000000000005f82015250565b5f613c47600e83612d18565b9150613c5282613c13565b602082019050919050565b5f6020820190508181035f830152613c7481613c3b565b9050919050565b7f4e6f2066756e6473206c65667420746f20636c61696d206f7220616c726561645f8201527f7920636c61696d65642e00000000000000000000000000000000000000000000602082015250565b5f613cd5602a83612d18565b9150613ce082613c7b565b604082019050919050565b5f6020820190508181035f830152613d0281613cc9565b9050919050565b7f5969656c64207472616e73666572206661696c656400000000000000000000005f82015250565b5f613d3d601583612d18565b9150613d4882613d09565b602082019050919050565b5f6020820190508181035f830152613d6a81613d31565b9050919050565b5f604082019050613d845f830185612c82565b613d916020830184612c82565b9392505050565b5f613da2826128a1565b9150613dad836128a1565b925082613dbd57613dbc6138ed565b5b828204905092915050565b7f4f6e6c7920746865206f776e65722063616e20696e697469616c697a650000005f82015250565b5f613dfc601d83612d18565b9150613e0782613dc8565b602082019050919050565b5f6020820190508181035f830152613e2981613df0565b9050919050565b5f819050919050565b5f613e53613e4e613e4984613e30565b6129d4565b612d88565b9050919050565b613e6381613e39565b82525050565b5f602082019050613e7c5f830184613e5a565b92915050565b7f4e6f2072657761726420746f20636c61696d00000000000000000000000000005f82015250565b5f613eb6601283612d18565b9150613ec182613e82565b602082019050919050565b5f6020820190508181035f830152613ee381613eaa565b9050919050565b7f5472616e73666572206661696c656400000000000000000000000000000000005f82015250565b5f613f1e600f83612d18565b9150613f2982613eea565b602082019050919050565b5f6020820190508181035f830152613f4b81613f12565b9050919050565b7f506f742069732066756c6c0000000000000000000000000000000000000000005f82015250565b5f613f86600b83612d18565b9150613f9182613f52565b602082019050919050565b5f6020820190508181035f830152613fb381613f7a565b9050919050565b5f613fc58287613bd1565b602082019150613fd58286613bb1565b601482019150613fe58285613bd1565b602082019150613ff58284613bd1565b60208201915081905095945050505050565b7f5369676e617475726520766572696669636174696f6e206661696c65640000005f82015250565b5f61403b601d83612d18565b915061404682614007565b602082019050919050565b5f6020820190508181035f8301526140688161402f565b9050919050565b5f815461407b8161341d565b6140858186612d18565b9450600182165f811461409f57600181146140b5576140e7565b60ff1983168652811515602002860193506140e7565b6140be8561344d565b5f5b838110156140df578154818901526001820191506020810190506140c0565b808801955050505b50505092915050565b5f610100820190506141045f83018b612bf1565b8181036020830152614116818a61406f565b90506141256040830189612c82565b6141326060830188612bf1565b61413f6080830187612bf1565b61414c60a0830186612bf1565b61415960c0830185612bf1565b61416660e0830184612bf1565b9998505050505050505050565b7f4e487b71000000000000000000000000000000000000000000000000000000005f52602160045260245ffd5b5f60ff82169050919050565b6141b5816141a0565b82525050565b5f6080820190506141ce5f83018761298d565b6141db60208301866141ac565b6141e8604083018561298d565b6141f5606083018461298d565b9594505050505056fea2646970667358221220352464a00ec37c95840323c40eec9b31e91b6e0b8d0709f289cb52e5ea947eb664736f6c63430008180033",
			"opcodes": "PUSH1 0x80 PUSH1 0x40 MSTORE PUSH1 0x1 PUSH1 0x4 SSTORE CALLVALUE DUP1 ISZERO PUSH3 0x15 JUMPI PUSH0 DUP1 REVERT JUMPDEST POP PUSH1 0x40 MLOAD PUSH3 0x4719 CODESIZE SUB DUP1 PUSH3 0x4719 DUP4 CODECOPY DUP2 DUP2 ADD PUSH1 0x40 MSTORE DUP2 ADD SWAP1 PUSH3 0x3B SWAP2 SWAP1 PUSH3 0x353 JUMP JUMPDEST PUSH20 0x4200000000000000000000000000000000000022 PUSH20 0xFFFFFFFFFFFFFFFFFFFFFFFFFFFFFFFFFFFFFFFF AND PUSH4 0x1A33757D PUSH1 0x2 PUSH1 0x40 MLOAD DUP3 PUSH4 0xFFFFFFFF AND PUSH1 0xE0 SHL DUP2 MSTORE PUSH1 0x4 ADD PUSH3 0x8B SWAP2 SWAP1 PUSH3 0x428 JUMP JUMPDEST PUSH1 0x20 PUSH1 0x40 MLOAD DUP1 DUP4 SUB DUP2 PUSH0 DUP8 GAS CALL ISZERO DUP1 ISZERO PUSH3 0xA8 JUMPI RETURNDATASIZE PUSH0 DUP1 RETURNDATACOPY RETURNDATASIZE PUSH0 REVERT JUMPDEST POP POP POP POP PUSH1 0x40 MLOAD RETURNDATASIZE PUSH1 0x1F NOT PUSH1 0x1F DUP3 ADD AND DUP3 ADD DUP1 PUSH1 0x40 MSTORE POP DUP2 ADD SWAP1 PUSH3 0xCE SWAP2 SWAP1 PUSH3 0x47B JUMP JUMPDEST POP PUSH20 0x4200000000000000000000000000000000000022 PUSH1 0x6 PUSH0 PUSH2 0x100 EXP DUP2 SLOAD DUP2 PUSH20 0xFFFFFFFFFFFFFFFFFFFFFFFFFFFFFFFFFFFFFFFF MUL NOT AND SWAP1 DUP4 PUSH20 0xFFFFFFFFFFFFFFFFFFFFFFFFFFFFFFFFFFFFFFFF AND MUL OR SWAP1 SSTORE POP PUSH20 0x4300000000000000000000000000000000000002 PUSH20 0xFFFFFFFFFFFFFFFFFFFFFFFFFFFFFFFFFFFFFFFF AND PUSH4 0x4E606C47 PUSH1 0x40 MLOAD DUP2 PUSH4 0xFFFFFFFF AND PUSH1 0xE0 SHL DUP2 MSTORE PUSH1 0x4 ADD PUSH0 PUSH1 0x40 MLOAD DUP1 DUP4 SUB DUP2 PUSH0 DUP8 DUP1 EXTCODESIZE ISZERO DUP1 ISZERO PUSH3 0x17D JUMPI PUSH0 DUP1 REVERT JUMPDEST POP GAS CALL ISZERO DUP1 ISZERO PUSH3 0x190 JUMPI RETURNDATASIZE PUSH0 DUP1 RETURNDATACOPY RETURNDATASIZE PUSH0 REVERT JUMPDEST POP POP POP POP PUSH20 0x2FC95838C71E76EC69FF817983BFF17C710F34E0 PUSH20 0xFFFFFFFFFFFFFFFFFFFFFFFFFFFFFFFFFFFFFFFF AND PUSH4 0x36B91F2B PUSH20 0xE4860D3973802C7C42450D7B9741921C7711D039 PUSH1 0x40 MLOAD DUP3 PUSH4 0xFFFFFFFF AND PUSH1 0xE0 SHL DUP2 MSTORE PUSH1 0x4 ADD PUSH3 0x1F7 SWAP2 SWAP1 PUSH3 0x4BC JUMP JUMPDEST PUSH0 PUSH1 0x40 MLOAD DUP1 DUP4 SUB DUP2 PUSH0 DUP8 DUP1 EXTCODESIZE ISZERO DUP1 ISZERO PUSH3 0x20F JUMPI PUSH0 DUP1 REVERT JUMPDEST POP GAS CALL ISZERO DUP1 ISZERO PUSH3 0x222 JUMPI RETURNDATASIZE PUSH0 DUP1 RETURNDATACOPY RETURNDATASIZE PUSH0 REVERT JUMPDEST POP POP POP POP DUP3 PUSH0 DUP1 PUSH2 0x100 EXP DUP2 SLOAD DUP2 PUSH20 0xFFFFFFFFFFFFFFFFFFFFFFFFFFFFFFFFFFFFFFFF MUL NOT AND SWAP1 DUP4 PUSH20 0xFFFFFFFFFFFFFFFFFFFFFFFFFFFFFFFFFFFFFFFF AND MUL OR SWAP1 SSTORE POP DUP2 PUSH1 0x1 PUSH0 PUSH2 0x100 EXP DUP2 SLOAD DUP2 PUSH20 0xFFFFFFFFFFFFFFFFFFFFFFFFFFFFFFFFFFFFFFFF MUL NOT AND SWAP1 DUP4 PUSH20 0xFFFFFFFFFFFFFFFFFFFFFFFFFFFFFFFFFFFFFFFF AND MUL OR SWAP1 SSTORE POP DUP1 PUSH1 0x2 PUSH0 PUSH2 0x100 EXP DUP2 SLOAD DUP2 PUSH20 0xFFFFFFFFFFFFFFFFFFFFFFFFFFFFFFFFFFFFFFFF MUL NOT AND SWAP1 DUP4 PUSH20 0xFFFFFFFFFFFFFFFFFFFFFFFFFFFFFFFFFFFFFFFF AND MUL OR SWAP1 SSTORE POP POP POP POP PUSH3 0x4D7 JUMP JUMPDEST PUSH0 DUP1 REVERT JUMPDEST PUSH0 PUSH20 0xFFFFFFFFFFFFFFFFFFFFFFFFFFFFFFFFFFFFFFFF DUP3 AND SWAP1 POP SWAP2 SWAP1 POP JUMP JUMPDEST PUSH0 PUSH3 0x31D DUP3 PUSH3 0x2F2 JUMP JUMPDEST SWAP1 POP SWAP2 SWAP1 POP JUMP JUMPDEST PUSH3 0x32F DUP2 PUSH3 0x311 JUMP JUMPDEST DUP2 EQ PUSH3 0x33A JUMPI PUSH0 DUP1 REVERT JUMPDEST POP JUMP JUMPDEST PUSH0 DUP2 MLOAD SWAP1 POP PUSH3 0x34D DUP2 PUSH3 0x324 JUMP JUMPDEST SWAP3 SWAP2 POP POP JUMP JUMPDEST PUSH0 DUP1 PUSH0 PUSH1 0x60 DUP5 DUP7 SUB SLT ISZERO PUSH3 0x36D JUMPI PUSH3 0x36C PUSH3 0x2EE JUMP JUMPDEST JUMPDEST PUSH0 PUSH3 0x37C DUP7 DUP3 DUP8 ADD PUSH3 0x33D JUMP JUMPDEST SWAP4 POP POP PUSH1 0x20 PUSH3 0x38F DUP7 DUP3 DUP8 ADD PUSH3 0x33D JUMP JUMPDEST SWAP3 POP POP PUSH1 0x40 PUSH3 0x3A2 DUP7 DUP3 DUP8 ADD PUSH3 0x33D JUMP JUMPDEST SWAP2 POP POP SWAP3 POP SWAP3 POP SWAP3 JUMP JUMPDEST PUSH32 0x4E487B7100000000000000000000000000000000000000000000000000000000 PUSH0 MSTORE PUSH1 0x21 PUSH1 0x4 MSTORE PUSH1 0x24 PUSH0 REVERT JUMPDEST PUSH1 0x3 DUP2 LT PUSH3 0x3ED JUMPI PUSH3 0x3EC PUSH3 0x3AC JUMP JUMPDEST JUMPDEST POP JUMP JUMPDEST PUSH0 DUP2 SWAP1 POP PUSH3 0x3FF DUP3 PUSH3 0x3D9 JUMP JUMPDEST SWAP2 SWAP1 POP JUMP JUMPDEST PUSH0 PUSH3 0x410 DUP3 PUSH3 0x3F0 JUMP JUMPDEST SWAP1 POP SWAP2 SWAP1 POP JUMP JUMPDEST PUSH3 0x422 DUP2 PUSH3 0x404 JUMP JUMPDEST DUP3 MSTORE POP POP JUMP JUMPDEST PUSH0 PUSH1 0x20 DUP3 ADD SWAP1 POP PUSH3 0x43D PUSH0 DUP4 ADD DUP5 PUSH3 0x417 JUMP JUMPDEST SWAP3 SWAP2 POP POP JUMP JUMPDEST PUSH0 DUP2 SWAP1 POP SWAP2 SWAP1 POP JUMP JUMPDEST PUSH3 0x457 DUP2 PUSH3 0x443 JUMP JUMPDEST DUP2 EQ PUSH3 0x462 JUMPI PUSH0 DUP1 REVERT JUMPDEST POP JUMP JUMPDEST PUSH0 DUP2 MLOAD SWAP1 POP PUSH3 0x475 DUP2 PUSH3 0x44C JUMP JUMPDEST SWAP3 SWAP2 POP POP JUMP JUMPDEST PUSH0 PUSH1 0x20 DUP3 DUP5 SUB SLT ISZERO PUSH3 0x493 JUMPI PUSH3 0x492 PUSH3 0x2EE JUMP JUMPDEST JUMPDEST PUSH0 PUSH3 0x4A2 DUP5 DUP3 DUP6 ADD PUSH3 0x465 JUMP JUMPDEST SWAP2 POP POP SWAP3 SWAP2 POP POP JUMP JUMPDEST PUSH3 0x4B6 DUP2 PUSH3 0x311 JUMP JUMPDEST DUP3 MSTORE POP POP JUMP JUMPDEST PUSH0 PUSH1 0x20 DUP3 ADD SWAP1 POP PUSH3 0x4D1 PUSH0 DUP4 ADD DUP5 PUSH3 0x4AB JUMP JUMPDEST SWAP3 SWAP2 POP POP JUMP JUMPDEST PUSH2 0x4234 DUP1 PUSH3 0x4E5 PUSH0 CODECOPY PUSH0 RETURN INVALID PUSH1 0x80 PUSH1 0x40 MSTORE PUSH1 0x4 CALLDATASIZE LT PUSH2 0x13F JUMPI PUSH0 CALLDATALOAD PUSH1 0xE0 SHR DUP1 PUSH4 0x7CB64759 GT PUSH2 0xB5 JUMPI DUP1 PUSH4 0xAE169A50 GT PUSH2 0x6E JUMPI DUP1 PUSH4 0xAE169A50 EQ PUSH2 0x3B7 JUMPI DUP1 PUSH4 0xBF2D9E0B EQ PUSH2 0x3DF JUMPI DUP1 PUSH4 0xC3C3DF4F EQ PUSH2 0x409 JUMPI DUP1 PUSH4 0xF2FDE38B EQ PUSH2 0x44F JUMPI DUP1 PUSH4 0xF78AEDF9 EQ PUSH2 0x477 JUMPI DUP1 PUSH4 0xF851A440 EQ PUSH2 0x493 JUMPI PUSH2 0x13F JUMP JUMPDEST DUP1 PUSH4 0x7CB64759 EQ PUSH2 0x2C1 JUMPI DUP1 PUSH4 0x7D77990C EQ PUSH2 0x2E9 JUMPI DUP1 PUSH4 0x8129FC1C EQ PUSH2 0x325 JUMPI DUP1 PUSH4 0x8DA5CB5B EQ PUSH2 0x33B JUMPI DUP1 PUSH4 0x91DC969E EQ PUSH2 0x365 JUMPI DUP1 PUSH4 0x97D75776 EQ PUSH2 0x38D JUMPI PUSH2 0x13F JUMP JUMPDEST DUP1 PUSH4 0x4A80409E GT PUSH2 0x107 JUMPI DUP1 PUSH4 0x4A80409E EQ PUSH2 0x1F1 JUMPI DUP1 PUSH4 0x4F573CB2 EQ PUSH2 0x21B JUMPI DUP1 PUSH4 0x61E7D805 EQ PUSH2 0x231 JUMPI DUP1 PUSH4 0x715018A6 EQ PUSH2 0x259 JUMPI DUP1 PUSH4 0x73B2E80E EQ PUSH2 0x26F JUMPI DUP1 PUSH4 0x77D5D2DC EQ PUSH2 0x2AB JUMPI PUSH2 0x13F JUMP JUMPDEST DUP1 PUSH4 0xFAE6443 EQ PUSH2 0x143 JUMPI DUP1 PUSH4 0x2EB4A7AB EQ PUSH2 0x15F JUMPI DUP1 PUSH4 0x31A0EDEC EQ PUSH2 0x189 JUMPI DUP1 PUSH4 0x3CABFEFD EQ PUSH2 0x1B3 JUMPI DUP1 PUSH4 0x409A33CE EQ PUSH2 0x1DB JUMPI JUMPDEST PUSH0 DUP1 REVERT JUMPDEST PUSH2 0x15D PUSH1 0x4 DUP1 CALLDATASIZE SUB DUP2 ADD SWAP1 PUSH2 0x158 SWAP2 SWAP1 PUSH2 0x28D4 JUMP JUMPDEST PUSH2 0x4BD JUMP JUMPDEST STOP JUMPDEST CALLVALUE DUP1 ISZERO PUSH2 0x16A JUMPI PUSH0 DUP1 REVERT JUMPDEST POP PUSH2 0x173 PUSH2 0xA23 JUMP JUMPDEST PUSH1 0x40 MLOAD PUSH2 0x180 SWAP2 SWAP1 PUSH2 0x299C JUMP JUMPDEST PUSH1 0x40 MLOAD DUP1 SWAP2 SUB SWAP1 RETURN JUMPDEST CALLVALUE DUP1 ISZERO PUSH2 0x194 JUMPI PUSH0 DUP1 REVERT JUMPDEST POP PUSH2 0x19D PUSH2 0xA29 JUMP JUMPDEST PUSH1 0x40 MLOAD PUSH2 0x1AA SWAP2 SWAP1 PUSH2 0x2A2F JUMP JUMPDEST PUSH1 0x40 MLOAD DUP1 SWAP2 SUB SWAP1 RETURN JUMPDEST CALLVALUE DUP1 ISZERO PUSH2 0x1BE JUMPI PUSH0 DUP1 REVERT JUMPDEST POP PUSH2 0x1D9 PUSH1 0x4 DUP1 CALLDATASIZE SUB DUP2 ADD SWAP1 PUSH2 0x1D4 SWAP2 SWAP1 PUSH2 0x2A48 JUMP JUMPDEST PUSH2 0xA41 JUMP JUMPDEST STOP JUMPDEST CALLVALUE DUP1 ISZERO PUSH2 0x1E6 JUMPI PUSH0 DUP1 REVERT JUMPDEST POP PUSH2 0x1EF PUSH2 0x10DD JUMP JUMPDEST STOP JUMPDEST CALLVALUE DUP1 ISZERO PUSH2 0x1FC JUMPI PUSH0 DUP1 REVERT JUMPDEST POP PUSH2 0x205 PUSH2 0x1202 JUMP JUMPDEST PUSH1 0x40 MLOAD PUSH2 0x212 SWAP2 SWAP1 PUSH2 0x2AB8 JUMP JUMPDEST PUSH1 0x40 MLOAD DUP1 SWAP2 SUB SWAP1 RETURN JUMPDEST CALLVALUE DUP1 ISZERO PUSH2 0x226 JUMPI PUSH0 DUP1 REVERT JUMPDEST POP PUSH2 0x22F PUSH2 0x1227 JUMP JUMPDEST STOP JUMPDEST CALLVALUE DUP1 ISZERO PUSH2 0x23C JUMPI PUSH0 DUP1 REVERT JUMPDEST POP PUSH2 0x257 PUSH1 0x4 DUP1 CALLDATASIZE SUB DUP2 ADD SWAP1 PUSH2 0x252 SWAP2 SWAP1 PUSH2 0x2B2E JUMP JUMPDEST PUSH2 0x135C JUMP JUMPDEST STOP JUMPDEST CALLVALUE DUP1 ISZERO PUSH2 0x264 JUMPI PUSH0 DUP1 REVERT JUMPDEST POP PUSH2 0x26D PUSH2 0x15CB JUMP JUMPDEST STOP JUMPDEST CALLVALUE DUP1 ISZERO PUSH2 0x27A JUMPI PUSH0 DUP1 REVERT JUMPDEST POP PUSH2 0x295 PUSH1 0x4 DUP1 CALLDATASIZE SUB DUP2 ADD SWAP1 PUSH2 0x290 SWAP2 SWAP1 PUSH2 0x2BC6 JUMP JUMPDEST PUSH2 0x15DE JUMP JUMPDEST PUSH1 0x40 MLOAD PUSH2 0x2A2 SWAP2 SWAP1 PUSH2 0x2C00 JUMP JUMPDEST PUSH1 0x40 MLOAD DUP1 SWAP2 SUB SWAP1 RETURN JUMPDEST CALLVALUE DUP1 ISZERO PUSH2 0x2B6 JUMPI PUSH0 DUP1 REVERT JUMPDEST POP PUSH2 0x2BF PUSH2 0x15F3 JUMP JUMPDEST STOP JUMPDEST CALLVALUE DUP1 ISZERO PUSH2 0x2CC JUMPI PUSH0 DUP1 REVERT JUMPDEST POP PUSH2 0x2E7 PUSH1 0x4 DUP1 CALLDATASIZE SUB DUP2 ADD SWAP1 PUSH2 0x2E2 SWAP2 SWAP1 PUSH2 0x2C19 JUMP JUMPDEST PUSH2 0x168D JUMP JUMPDEST STOP JUMPDEST CALLVALUE DUP1 ISZERO PUSH2 0x2F4 JUMPI PUSH0 DUP1 REVERT JUMPDEST POP PUSH2 0x30F PUSH1 0x4 DUP1 CALLDATASIZE SUB DUP2 ADD SWAP1 PUSH2 0x30A SWAP2 SWAP1 PUSH2 0x2C44 JUMP JUMPDEST PUSH2 0x169F JUMP JUMPDEST PUSH1 0x40 MLOAD PUSH2 0x31C SWAP2 SWAP1 PUSH2 0x2C00 JUMP JUMPDEST PUSH1 0x40 MLOAD DUP1 SWAP2 SUB SWAP1 RETURN JUMPDEST CALLVALUE DUP1 ISZERO PUSH2 0x330 JUMPI PUSH0 DUP1 REVERT JUMPDEST POP PUSH2 0x339 PUSH2 0x16DC JUMP JUMPDEST STOP JUMPDEST CALLVALUE DUP1 ISZERO PUSH2 0x346 JUMPI PUSH0 DUP1 REVERT JUMPDEST POP PUSH2 0x34F PUSH2 0x18D1 JUMP JUMPDEST PUSH1 0x40 MLOAD PUSH2 0x35C SWAP2 SWAP1 PUSH2 0x2C91 JUMP JUMPDEST PUSH1 0x40 MLOAD DUP1 SWAP2 SUB SWAP1 RETURN JUMPDEST CALLVALUE DUP1 ISZERO PUSH2 0x370 JUMPI PUSH0 DUP1 REVERT JUMPDEST POP PUSH2 0x38B PUSH1 0x4 DUP1 CALLDATASIZE SUB DUP2 ADD SWAP1 PUSH2 0x386 SWAP2 SWAP1 PUSH2 0x2BC6 JUMP JUMPDEST PUSH2 0x1906 JUMP JUMPDEST STOP JUMPDEST CALLVALUE DUP1 ISZERO PUSH2 0x398 JUMPI PUSH0 DUP1 REVERT JUMPDEST POP PUSH2 0x3A1 PUSH2 0x1951 JUMP JUMPDEST PUSH1 0x40 MLOAD PUSH2 0x3AE SWAP2 SWAP1 PUSH2 0x2CCA JUMP JUMPDEST PUSH1 0x40 MLOAD DUP1 SWAP2 SUB SWAP1 RETURN JUMPDEST CALLVALUE DUP1 ISZERO PUSH2 0x3C2 JUMPI PUSH0 DUP1 REVERT JUMPDEST POP PUSH2 0x3DD PUSH1 0x4 DUP1 CALLDATASIZE SUB DUP2 ADD SWAP1 PUSH2 0x3D8 SWAP2 SWAP1 PUSH2 0x2CE3 JUMP JUMPDEST PUSH2 0x1969 JUMP JUMPDEST STOP JUMPDEST CALLVALUE DUP1 ISZERO PUSH2 0x3EA JUMPI PUSH0 DUP1 REVERT JUMPDEST POP PUSH2 0x3F3 PUSH2 0x1B65 JUMP JUMPDEST PUSH1 0x40 MLOAD PUSH2 0x400 SWAP2 SWAP1 PUSH2 0x2C00 JUMP JUMPDEST PUSH1 0x40 MLOAD DUP1 SWAP2 SUB SWAP1 RETURN JUMPDEST CALLVALUE DUP1 ISZERO PUSH2 0x414 JUMPI PUSH0 DUP1 REVERT JUMPDEST POP PUSH2 0x42F PUSH1 0x4 DUP1 CALLDATASIZE SUB DUP2 ADD SWAP1 PUSH2 0x42A SWAP2 SWAP1 PUSH2 0x2CE3 JUMP JUMPDEST PUSH2 0x1B6B JUMP JUMPDEST PUSH1 0x40 MLOAD PUSH2 0x446 SWAP12 SWAP11 SWAP10 SWAP9 SWAP8 SWAP7 SWAP6 SWAP5 SWAP4 SWAP3 SWAP2 SWAP1 PUSH2 0x2DAA JUMP JUMPDEST PUSH1 0x40 MLOAD DUP1 SWAP2 SUB SWAP1 RETURN JUMPDEST CALLVALUE DUP1 ISZERO PUSH2 0x45A JUMPI PUSH0 DUP1 REVERT JUMPDEST POP PUSH2 0x475 PUSH1 0x4 DUP1 CALLDATASIZE SUB DUP2 ADD SWAP1 PUSH2 0x470 SWAP2 SWAP1 PUSH2 0x2BC6 JUMP JUMPDEST PUSH2 0x1C7A JUMP JUMPDEST STOP JUMPDEST PUSH2 0x491 PUSH1 0x4 DUP1 CALLDATASIZE SUB DUP2 ADD SWAP1 PUSH2 0x48C SWAP2 SWAP1 PUSH2 0x2EF8 JUMP JUMPDEST PUSH2 0x1CFE JUMP JUMPDEST STOP JUMPDEST CALLVALUE DUP1 ISZERO PUSH2 0x49E JUMPI PUSH0 DUP1 REVERT JUMPDEST POP PUSH2 0x4A7 PUSH2 0x2079 JUMP JUMPDEST PUSH1 0x40 MLOAD PUSH2 0x4B4 SWAP2 SWAP1 PUSH2 0x2C91 JUMP JUMPDEST PUSH1 0x40 MLOAD DUP1 SWAP2 SUB SWAP1 RETURN JUMPDEST PUSH0 DUP1 PUSH0 SWAP1 SLOAD SWAP1 PUSH2 0x100 EXP SWAP1 DIV PUSH20 0xFFFFFFFFFFFFFFFFFFFFFFFFFFFFFFFFFFFFFFFF AND PUSH20 0xFFFFFFFFFFFFFFFFFFFFFFFFFFFFFFFFFFFFFFFF AND PUSH4 0xB88C9148 PUSH1 0x1 PUSH0 SWAP1 SLOAD SWAP1 PUSH2 0x100 EXP SWAP1 DIV PUSH20 0xFFFFFFFFFFFFFFFFFFFFFFFFFFFFFFFFFFFFFFFF AND PUSH1 0x40 MLOAD DUP3 PUSH4 0xFFFFFFFF AND PUSH1 0xE0 SHL DUP2 MSTORE PUSH1 0x4 ADD PUSH2 0x538 SWAP2 SWAP1 PUSH2 0x2C91 JUMP JUMPDEST PUSH1 0x20 PUSH1 0x40 MLOAD DUP1 DUP4 SUB DUP2 DUP7 GAS STATICCALL ISZERO DUP1 ISZERO PUSH2 0x553 JUMPI RETURNDATASIZE PUSH0 DUP1 RETURNDATACOPY RETURNDATASIZE PUSH0 REVERT JUMPDEST POP POP POP POP PUSH1 0x40 MLOAD RETURNDATASIZE PUSH1 0x1F NOT PUSH1 0x1F DUP3 ADD AND DUP3 ADD DUP1 PUSH1 0x40 MSTORE POP DUP2 ADD SWAP1 PUSH2 0x577 SWAP2 SWAP1 PUSH2 0x2FA9 JUMP JUMPDEST PUSH16 0xFFFFFFFFFFFFFFFFFFFFFFFFFFFFFFFF AND SWAP1 POP DUP1 CALLVALUE LT PUSH2 0x5CD JUMPI PUSH1 0x40 MLOAD PUSH32 0x8C379A000000000000000000000000000000000000000000000000000000000 DUP2 MSTORE PUSH1 0x4 ADD PUSH2 0x5C4 SWAP1 PUSH2 0x301E JUMP JUMPDEST PUSH1 0x40 MLOAD DUP1 SWAP2 SUB SWAP1 REVERT JUMPDEST PUSH0 DUP7 GT PUSH2 0x60F JUMPI PUSH1 0x40 MLOAD PUSH32 0x8C379A000000000000000000000000000000000000000000000000000000000 DUP2 MSTORE PUSH1 0x4 ADD PUSH2 0x606 SWAP1 PUSH2 0x3086 JUMP JUMPDEST PUSH1 0x40 MLOAD DUP1 SWAP2 SUB SWAP1 REVERT JUMPDEST PUSH0 DUP6 GT PUSH2 0x651 JUMPI PUSH1 0x40 MLOAD PUSH32 0x8C379A000000000000000000000000000000000000000000000000000000000 DUP2 MSTORE PUSH1 0x4 ADD PUSH2 0x648 SWAP1 PUSH2 0x3114 JUMP JUMPDEST PUSH1 0x40 MLOAD DUP1 SWAP2 SUB SWAP1 REVERT JUMPDEST DUP5 DUP5 GT ISZERO PUSH2 0x694 JUMPI PUSH1 0x40 MLOAD PUSH32 0x8C379A000000000000000000000000000000000000000000000000000000000 DUP2 MSTORE PUSH1 0x4 ADD PUSH2 0x68B SWAP1 PUSH2 0x31A2 JUMP JUMPDEST PUSH1 0x40 MLOAD DUP1 SWAP2 SUB SWAP1 REVERT JUMPDEST PUSH0 PUSH1 0x4 PUSH0 DUP2 SLOAD DUP1 SWAP3 SWAP2 SWAP1 PUSH2 0x6A7 SWAP1 PUSH2 0x31ED JUMP JUMPDEST SWAP2 SWAP1 POP SSTORE SWAP1 POP PUSH1 0x6 PUSH0 SWAP1 SLOAD SWAP1 PUSH2 0x100 EXP SWAP1 DIV PUSH20 0xFFFFFFFFFFFFFFFFFFFFFFFFFFFFFFFFFFFFFFFF AND PUSH20 0xFFFFFFFFFFFFFFFFFFFFFFFFFFFFFFFFFFFFFFFF AND PUSH4 0x23B872DD CALLER ADDRESS DUP7 PUSH1 0x40 MLOAD DUP5 PUSH4 0xFFFFFFFF AND PUSH1 0xE0 SHL DUP2 MSTORE PUSH1 0x4 ADD PUSH2 0x70B SWAP4 SWAP3 SWAP2 SWAP1 PUSH2 0x3234 JUMP JUMPDEST PUSH1 0x20 PUSH1 0x40 MLOAD DUP1 DUP4 SUB DUP2 PUSH0 DUP8 GAS CALL ISZERO DUP1 ISZERO PUSH2 0x727 JUMPI RETURNDATASIZE PUSH0 DUP1 RETURNDATACOPY RETURNDATASIZE PUSH0 REVERT JUMPDEST POP POP POP POP PUSH1 0x40 MLOAD RETURNDATASIZE PUSH1 0x1F NOT PUSH1 0x1F DUP3 ADD AND DUP3 ADD DUP1 PUSH1 0x40 MSTORE POP DUP2 ADD SWAP1 PUSH2 0x74B SWAP2 SWAP1 PUSH2 0x329E JUMP JUMPDEST PUSH2 0x78A JUMPI PUSH1 0x40 MLOAD PUSH32 0x8C379A000000000000000000000000000000000000000000000000000000000 DUP2 MSTORE PUSH1 0x4 ADD PUSH2 0x781 SWAP1 PUSH2 0x3339 JUMP JUMPDEST PUSH1 0x40 MLOAD DUP1 SWAP2 SUB SWAP1 REVERT JUMPDEST PUSH0 DUP1 PUSH0 SWAP1 SLOAD SWAP1 PUSH2 0x100 EXP SWAP1 DIV PUSH20 0xFFFFFFFFFFFFFFFFFFFFFFFFFFFFFFFFFFFFFFFF AND PUSH20 0xFFFFFFFFFFFFFFFFFFFFFFFFFFFFFFFFFFFFFFFF AND PUSH4 0x93CBF217 DUP5 PUSH1 0x1 PUSH0 SWAP1 SLOAD SWAP1 PUSH2 0x100 EXP SWAP1 DIV PUSH20 0xFFFFFFFFFFFFFFFFFFFFFFFFFFFFFFFFFFFFFFFF AND DUP13 PUSH1 0x1 PUSH1 0x40 MLOAD DUP6 PUSH4 0xFFFFFFFF AND PUSH1 0xE0 SHL DUP2 MSTORE PUSH1 0x4 ADD PUSH2 0x80B SWAP4 SWAP3 SWAP2 SWAP1 PUSH2 0x3366 JUMP JUMPDEST PUSH1 0x20 PUSH1 0x40 MLOAD DUP1 DUP4 SUB DUP2 DUP6 DUP9 GAS CALL ISZERO DUP1 ISZERO PUSH2 0x827 JUMPI RETURNDATASIZE PUSH0 DUP1 RETURNDATACOPY RETURNDATASIZE PUSH0 REVERT JUMPDEST POP POP POP POP POP PUSH1 0x40 MLOAD RETURNDATASIZE PUSH1 0x1F NOT PUSH1 0x1F DUP3 ADD AND DUP3 ADD DUP1 PUSH1 0x40 MSTORE POP DUP2 ADD SWAP1 PUSH2 0x84C SWAP2 SWAP1 PUSH2 0x33C5 JUMP JUMPDEST SWAP1 POP PUSH0 PUSH1 0x8 PUSH0 DUP5 DUP2 MSTORE PUSH1 0x20 ADD SWAP1 DUP2 MSTORE PUSH1 0x20 ADD PUSH0 KECCAK256 SWAP1 POP DUP11 DUP2 PUSH0 ADD SWAP1 DUP2 PUSH2 0x872 SWAP2 SWAP1 PUSH2 0x35E1 JUMP JUMPDEST POP DUP5 DUP2 PUSH1 0x1 ADD DUP2 SWAP1 SSTORE POP PUSH0 DUP2 PUSH1 0x2 ADD DUP2 SWAP1 SSTORE POP DUP2 DUP2 PUSH1 0x9 ADD PUSH0 PUSH2 0x100 EXP DUP2 SLOAD DUP2 PUSH8 0xFFFFFFFFFFFFFFFF MUL NOT AND SWAP1 DUP4 PUSH8 0xFFFFFFFFFFFFFFFF AND MUL OR SWAP1 SSTORE POP CALLER DUP2 PUSH1 0x9 ADD PUSH1 0x8 PUSH2 0x100 EXP DUP2 SLOAD DUP2 PUSH20 0xFFFFFFFFFFFFFFFFFFFFFFFFFFFFFFFFFFFFFFFF MUL NOT AND SWAP1 DUP4 PUSH20 0xFFFFFFFFFFFFFFFFFFFFFFFFFFFFFFFFFFFFFFFF AND MUL OR SWAP1 SSTORE POP DUP9 DUP2 PUSH1 0x3 ADD DUP2 SWAP1 SSTORE POP DUP7 DUP2 PUSH1 0x5 ADD DUP2 SWAP1 SSTORE POP DUP8 DUP2 PUSH1 0x6 ADD DUP2 SWAP1 SSTORE POP TIMESTAMP DUP2 PUSH1 0x4 ADD DUP2 SWAP1 SSTORE POP DUP6 DUP2 PUSH1 0x7 ADD DUP2 SWAP1 SSTORE POP PUSH1 0x1 DUP2 PUSH1 0x8 ADD DUP2 SWAP1 SSTORE POP DUP5 DUP2 PUSH1 0xC ADD PUSH0 CALLER PUSH20 0xFFFFFFFFFFFFFFFFFFFFFFFFFFFFFFFFFFFFFFFF AND PUSH20 0xFFFFFFFFFFFFFFFFFFFFFFFFFFFFFFFFFFFFFFFF AND DUP2 MSTORE PUSH1 0x20 ADD SWAP1 DUP2 MSTORE PUSH1 0x20 ADD PUSH0 KECCAK256 DUP2 SWAP1 SSTORE POP DUP1 PUSH1 0xA ADD CALLER SWAP1 DUP1 PUSH1 0x1 DUP2 SLOAD ADD DUP1 DUP3 SSTORE DUP1 SWAP2 POP POP PUSH1 0x1 SWAP1 SUB SWAP1 PUSH0 MSTORE PUSH1 0x20 PUSH0 KECCAK256 ADD PUSH0 SWAP1 SWAP2 SWAP1 SWAP2 SWAP1 SWAP2 PUSH2 0x100 EXP DUP2 SLOAD DUP2 PUSH20 0xFFFFFFFFFFFFFFFFFFFFFFFFFFFFFFFFFFFFFFFF MUL NOT AND SWAP1 DUP4 PUSH20 0xFFFFFFFFFFFFFFFFFFFFFFFFFFFFFFFFFFFFFFFF AND MUL OR SWAP1 SSTORE POP PUSH32 0x2EA75DEFA9ED86BE5C1F296BA42849D00ED611C827F9F30A82AB2F1DADC50B88 DUP4 DUP13 CALLER DUP9 DUP14 DUP13 DUP15 DUP14 DUP11 PUSH1 0x40 MLOAD PUSH2 0xA0E SWAP10 SWAP9 SWAP8 SWAP7 SWAP6 SWAP5 SWAP4 SWAP3 SWAP2 SWAP1 PUSH2 0x36B0 JUMP JUMPDEST PUSH1 0x40 MLOAD DUP1 SWAP2 SUB SWAP1 LOG1 POP POP POP POP POP POP POP POP POP POP POP JUMP JUMPDEST PUSH1 0x3 SLOAD DUP2 JUMP JUMPDEST PUSH20 0x4200000000000000000000000000000000000022 DUP2 JUMP JUMPDEST CALLER PUSH20 0xFFFFFFFFFFFFFFFFFFFFFFFFFFFFFFFFFFFFFFFF AND PUSH1 0x8 PUSH0 DUP6 DUP2 MSTORE PUSH1 0x20 ADD SWAP1 DUP2 MSTORE PUSH1 0x20 ADD PUSH0 KECCAK256 PUSH1 0x9 ADD PUSH1 0x8 SWAP1 SLOAD SWAP1 PUSH2 0x100 EXP SWAP1 DIV PUSH20 0xFFFFFFFFFFFFFFFFFFFFFFFFFFFFFFFFFFFFFFFF AND PUSH20 0xFFFFFFFFFFFFFFFFFFFFFFFFFFFFFFFFFFFFFFFF AND EQ PUSH2 0xAE3 JUMPI PUSH1 0x40 MLOAD PUSH32 0x8C379A000000000000000000000000000000000000000000000000000000000 DUP2 MSTORE PUSH1 0x4 ADD PUSH2 0xADA SWAP1 PUSH2 0x37B2 JUMP JUMPDEST PUSH1 0x40 MLOAD DUP1 SWAP2 SUB SWAP1 REVERT JUMPDEST PUSH0 PUSH1 0x8 PUSH0 DUP6 DUP2 MSTORE PUSH1 0x20 ADD SWAP1 DUP2 MSTORE PUSH1 0x20 ADD PUSH0 KECCAK256 SWAP1 POP DUP1 PUSH1 0x3 ADD SLOAD DUP2 PUSH1 0x4 ADD SLOAD PUSH2 0xB0B SWAP2 SWAP1 PUSH2 0x37D0 JUMP JUMPDEST TIMESTAMP LT ISZERO PUSH2 0xB4D JUMPI PUSH1 0x40 MLOAD PUSH32 0x8C379A000000000000000000000000000000000000000000000000000000000 DUP2 MSTORE PUSH1 0x4 ADD PUSH2 0xB44 SWAP1 PUSH2 0x384D JUMP JUMPDEST PUSH1 0x40 MLOAD DUP1 SWAP2 SUB SWAP1 REVERT JUMPDEST PUSH0 DUP1 PUSH0 SWAP1 SLOAD SWAP1 PUSH2 0x100 EXP SWAP1 DIV PUSH20 0xFFFFFFFFFFFFFFFFFFFFFFFFFFFFFFFFFFFFFFFF AND PUSH20 0xFFFFFFFFFFFFFFFFFFFFFFFFFFFFFFFFFFFFFFFF AND PUSH4 0x9371DF51 PUSH1 0x1 PUSH0 SWAP1 SLOAD SWAP1 PUSH2 0x100 EXP SWAP1 DIV PUSH20 0xFFFFFFFFFFFFFFFFFFFFFFFFFFFFFFFFFFFFFFFF AND DUP5 PUSH1 0x9 ADD PUSH0 SWAP1 SLOAD SWAP1 PUSH2 0x100 EXP SWAP1 DIV PUSH8 0xFFFFFFFFFFFFFFFF AND DUP8 DUP8 PUSH1 0x40 MLOAD DUP6 PUSH4 0xFFFFFFFF AND PUSH1 0xE0 SHL DUP2 MSTORE PUSH1 0x4 ADD PUSH2 0xBE5 SWAP5 SWAP4 SWAP3 SWAP2 SWAP1 PUSH2 0x386B JUMP JUMPDEST PUSH1 0x20 PUSH1 0x40 MLOAD DUP1 DUP4 SUB DUP2 PUSH0 DUP8 GAS CALL ISZERO DUP1 ISZERO PUSH2 0xC01 JUMPI RETURNDATASIZE PUSH0 DUP1 RETURNDATACOPY RETURNDATASIZE PUSH0 REVERT JUMPDEST POP POP POP POP PUSH1 0x40 MLOAD RETURNDATASIZE PUSH1 0x1F NOT PUSH1 0x1F DUP3 ADD AND DUP3 ADD DUP1 PUSH1 0x40 MSTORE POP DUP2 ADD SWAP1 PUSH2 0xC25 SWAP2 SWAP1 PUSH2 0x38C2 JUMP JUMPDEST SWAP1 POP PUSH0 DUP3 PUSH1 0x7 ADD SLOAD DUP3 PUSH0 SHR PUSH2 0xC3A SWAP2 SWAP1 PUSH2 0x391A JUMP JUMPDEST SWAP1 POP PUSH0 DUP4 PUSH1 0xA ADD DUP3 DUP2 SLOAD DUP2 LT PUSH2 0xC53 JUMPI PUSH2 0xC52 PUSH2 0x394A JUMP JUMPDEST JUMPDEST SWAP1 PUSH0 MSTORE PUSH1 0x20 PUSH0 KECCAK256 ADD PUSH0 SWAP1 SLOAD SWAP1 PUSH2 0x100 EXP SWAP1 DIV PUSH20 0xFFFFFFFFFFFFFFFFFFFFFFFFFFFFFFFFFFFFFFFF AND SWAP1 POP DUP4 PUSH1 0xB ADD DUP2 SWAP1 DUP1 PUSH1 0x1 DUP2 SLOAD ADD DUP1 DUP3 SSTORE DUP1 SWAP2 POP POP PUSH1 0x1 SWAP1 SUB SWAP1 PUSH0 MSTORE PUSH1 0x20 PUSH0 KECCAK256 ADD PUSH0 SWAP1 SWAP2 SWAP1 SWAP2 SWAP1 SWAP2 PUSH2 0x100 EXP DUP2 SLOAD DUP2 PUSH20 0xFFFFFFFFFFFFFFFFFFFFFFFFFFFFFFFFFFFFFFFF MUL NOT AND SWAP1 DUP4 PUSH20 0xFFFFFFFFFFFFFFFFFFFFFFFFFFFFFFFFFFFFFFFF AND MUL OR SWAP1 SSTORE POP PUSH1 0x1 PUSH1 0x8 PUSH0 DUP10 DUP2 MSTORE PUSH1 0x20 ADD SWAP1 DUP2 MSTORE PUSH1 0x20 ADD PUSH0 KECCAK256 PUSH1 0xA ADD DUP1 SLOAD SWAP1 POP PUSH2 0xD03 SWAP2 SWAP1 PUSH2 0x3977 JUMP JUMPDEST DUP3 EQ PUSH2 0xDE6 JUMPI PUSH1 0x8 PUSH0 DUP9 DUP2 MSTORE PUSH1 0x20 ADD SWAP1 DUP2 MSTORE PUSH1 0x20 ADD PUSH0 KECCAK256 PUSH1 0xA ADD PUSH1 0x1 PUSH1 0x8 PUSH0 DUP11 DUP2 MSTORE PUSH1 0x20 ADD SWAP1 DUP2 MSTORE PUSH1 0x20 ADD PUSH0 KECCAK256 PUSH1 0xA ADD DUP1 SLOAD SWAP1 POP PUSH2 0xD41 SWAP2 SWAP1 PUSH2 0x3977 JUMP JUMPDEST DUP2 SLOAD DUP2 LT PUSH2 0xD52 JUMPI PUSH2 0xD51 PUSH2 0x394A JUMP JUMPDEST JUMPDEST SWAP1 PUSH0 MSTORE PUSH1 0x20 PUSH0 KECCAK256 ADD PUSH0 SWAP1 SLOAD SWAP1 PUSH2 0x100 EXP SWAP1 DIV PUSH20 0xFFFFFFFFFFFFFFFFFFFFFFFFFFFFFFFFFFFFFFFF AND PUSH1 0x8 PUSH0 DUP10 DUP2 MSTORE PUSH1 0x20 ADD SWAP1 DUP2 MSTORE PUSH1 0x20 ADD PUSH0 KECCAK256 PUSH1 0xA ADD DUP4 DUP2 SLOAD DUP2 LT PUSH2 0xDA0 JUMPI PUSH2 0xD9F PUSH2 0x394A JUMP JUMPDEST JUMPDEST SWAP1 PUSH0 MSTORE PUSH1 0x20 PUSH0 KECCAK256 ADD PUSH0 PUSH2 0x100 EXP DUP2 SLOAD DUP2 PUSH20 0xFFFFFFFFFFFFFFFFFFFFFFFFFFFFFFFFFFFFFFFF MUL NOT AND SWAP1 DUP4 PUSH20 0xFFFFFFFFFFFFFFFFFFFFFFFFFFFFFFFFFFFFFFFF AND MUL OR SWAP1 SSTORE POP JUMPDEST PUSH1 0x8 PUSH0 DUP9 DUP2 MSTORE PUSH1 0x20 ADD SWAP1 DUP2 MSTORE PUSH1 0x20 ADD PUSH0 KECCAK256 PUSH1 0xA ADD DUP1 SLOAD DUP1 PUSH2 0xE0A JUMPI PUSH2 0xE09 PUSH2 0x39AA JUMP JUMPDEST JUMPDEST PUSH1 0x1 SWAP1 SUB DUP2 DUP2 SWAP1 PUSH0 MSTORE PUSH1 0x20 PUSH0 KECCAK256 ADD PUSH0 PUSH2 0x100 EXP DUP2 SLOAD SWAP1 PUSH20 0xFFFFFFFFFFFFFFFFFFFFFFFFFFFFFFFFFFFFFFFF MUL NOT AND SWAP1 SSTORE SWAP1 SSTORE PUSH0 DUP5 PUSH1 0x1 ADD SLOAD DUP6 PUSH1 0xA ADD DUP1 SLOAD SWAP1 POP PUSH2 0xE54 SWAP2 SWAP1 PUSH2 0x39D7 JUMP JUMPDEST SWAP1 POP PUSH0 PUSH2 0xE60 DUP3 PUSH2 0x209E JUMP JUMPDEST SWAP1 POP PUSH0 PUSH2 0xE6D DUP11 DUP4 PUSH2 0x169F JUMP JUMPDEST SWAP1 POP DUP1 DUP8 PUSH1 0x2 ADD DUP2 SWAP1 SSTORE POP DUP1 DUP3 PUSH2 0xE84 SWAP2 SWAP1 PUSH2 0x3977 JUMP JUMPDEST DUP8 PUSH1 0xD ADD PUSH0 DUP7 PUSH20 0xFFFFFFFFFFFFFFFFFFFFFFFFFFFFFFFFFFFFFFFF AND PUSH20 0xFFFFFFFFFFFFFFFFFFFFFFFFFFFFFFFFFFFFFFFF AND DUP2 MSTORE PUSH1 0x20 ADD SWAP1 DUP2 MSTORE PUSH1 0x20 ADD PUSH0 KECCAK256 DUP2 SWAP1 SSTORE POP PUSH1 0x1 DUP8 PUSH1 0xE ADD PUSH0 DUP7 PUSH20 0xFFFFFFFFFFFFFFFFFFFFFFFFFFFFFFFFFFFFFFFF AND PUSH20 0xFFFFFFFFFFFFFFFFFFFFFFFFFFFFFFFFFFFFFFFF AND DUP2 MSTORE PUSH1 0x20 ADD SWAP1 DUP2 MSTORE PUSH1 0x20 ADD PUSH0 KECCAK256 PUSH0 PUSH2 0x100 EXP DUP2 SLOAD DUP2 PUSH1 0xFF MUL NOT AND SWAP1 DUP4 ISZERO ISZERO MUL OR SWAP1 SSTORE POP TIMESTAMP DUP8 PUSH1 0x4 ADD DUP2 SWAP1 SSTORE POP DUP7 PUSH1 0xA ADD PUSH0 PUSH2 0xF36 SWAP2 SWAP1 PUSH2 0x26E8 JUMP JUMPDEST PUSH1 0x6 PUSH0 SWAP1 SLOAD SWAP1 PUSH2 0x100 EXP SWAP1 DIV PUSH20 0xFFFFFFFFFFFFFFFFFFFFFFFFFFFFFFFFFFFFFFFF AND PUSH20 0xFFFFFFFFFFFFFFFFFFFFFFFFFFFFFFFFFFFFFFFF AND PUSH4 0x23B872DD CALLER ADDRESS DUP11 PUSH1 0x1 ADD SLOAD PUSH1 0x40 MLOAD DUP5 PUSH4 0xFFFFFFFF AND PUSH1 0xE0 SHL DUP2 MSTORE PUSH1 0x4 ADD PUSH2 0xF98 SWAP4 SWAP3 SWAP2 SWAP1 PUSH2 0x3234 JUMP JUMPDEST PUSH1 0x20 PUSH1 0x40 MLOAD DUP1 DUP4 SUB DUP2 PUSH0 DUP8 GAS CALL ISZERO DUP1 ISZERO PUSH2 0xFB4 JUMPI RETURNDATASIZE PUSH0 DUP1 RETURNDATACOPY RETURNDATASIZE PUSH0 REVERT JUMPDEST POP POP POP POP PUSH1 0x40 MLOAD RETURNDATASIZE PUSH1 0x1F NOT PUSH1 0x1F DUP3 ADD AND DUP3 ADD DUP1 PUSH1 0x40 MSTORE POP DUP2 ADD SWAP1 PUSH2 0xFD8 SWAP2 SWAP1 PUSH2 0x329E JUMP JUMPDEST PUSH2 0x1017 JUMPI PUSH1 0x40 MLOAD PUSH32 0x8C379A000000000000000000000000000000000000000000000000000000000 DUP2 MSTORE PUSH1 0x4 ADD PUSH2 0x100E SWAP1 PUSH2 0x3339 JUMP JUMPDEST PUSH1 0x40 MLOAD DUP1 SWAP2 SUB SWAP1 REVERT JUMPDEST DUP7 PUSH1 0xA ADD CALLER SWAP1 DUP1 PUSH1 0x1 DUP2 SLOAD ADD DUP1 DUP3 SSTORE DUP1 SWAP2 POP POP PUSH1 0x1 SWAP1 SUB SWAP1 PUSH0 MSTORE PUSH1 0x20 PUSH0 KECCAK256 ADD PUSH0 SWAP1 SWAP2 SWAP1 SWAP2 SWAP1 SWAP2 PUSH2 0x100 EXP DUP2 SLOAD DUP2 PUSH20 0xFFFFFFFFFFFFFFFFFFFFFFFFFFFFFFFFFFFFFFFF MUL NOT AND SWAP1 DUP4 PUSH20 0xFFFFFFFFFFFFFFFFFFFFFFFFFFFFFFFFFFFFFFFF AND MUL OR SWAP1 SSTORE POP PUSH32 0x35CB3811461CB824B245820EEE97AB50EE1CC609F2BDD3BB10F5F0010184A7D3 DUP11 DUP6 DUP10 PUSH1 0x8 ADD SLOAD PUSH1 0x40 MLOAD PUSH2 0x10B0 SWAP4 SWAP3 SWAP2 SWAP1 PUSH2 0x3A18 JUMP JUMPDEST PUSH1 0x40 MLOAD DUP1 SWAP2 SUB SWAP1 LOG1 DUP7 PUSH1 0x8 ADD PUSH0 DUP2 SLOAD DUP1 SWAP3 SWAP2 SWAP1 PUSH2 0x10CC SWAP1 PUSH2 0x31ED JUMP JUMPDEST SWAP2 SWAP1 POP SSTORE POP POP POP POP POP POP POP POP POP POP POP JUMP JUMPDEST PUSH2 0x10E5 PUSH2 0x20DB JUMP JUMPDEST PUSH20 0x4200000000000000000000000000000000000022 PUSH20 0xFFFFFFFFFFFFFFFFFFFFFFFFFFFFFFFFFFFFFFFF AND PUSH4 0xAAD3EC96 ADDRESS PUSH20 0x4200000000000000000000000000000000000022 PUSH20 0xFFFFFFFFFFFFFFFFFFFFFFFFFFFFFFFFFFFFFFFF AND PUSH4 0xE12F3A61 ADDRESS PUSH1 0x40 MLOAD DUP3 PUSH4 0xFFFFFFFF AND PUSH1 0xE0 SHL DUP2 MSTORE PUSH1 0x4 ADD PUSH2 0x1163 SWAP2 SWAP1 PUSH2 0x2C91 JUMP JUMPDEST PUSH1 0x20 PUSH1 0x40 MLOAD DUP1 DUP4 SUB DUP2 DUP7 GAS STATICCALL ISZERO DUP1 ISZERO PUSH2 0x117E JUMPI RETURNDATASIZE PUSH0 DUP1 RETURNDATACOPY RETURNDATASIZE PUSH0 REVERT JUMPDEST POP POP POP POP PUSH1 0x40 MLOAD RETURNDATASIZE PUSH1 0x1F NOT PUSH1 0x1F DUP3 ADD AND DUP3 ADD DUP1 PUSH1 0x40 MSTORE POP DUP2 ADD SWAP1 PUSH2 0x11A2 SWAP2 SWAP1 PUSH2 0x3A61 JUMP JUMPDEST PUSH1 0x40 MLOAD DUP4 PUSH4 0xFFFFFFFF AND PUSH1 0xE0 SHL DUP2 MSTORE PUSH1 0x4 ADD PUSH2 0x11BF SWAP3 SWAP2 SWAP1 PUSH2 0x3A8C JUMP JUMPDEST PUSH1 0x20 PUSH1 0x40 MLOAD DUP1 DUP4 SUB DUP2 PUSH0 DUP8 GAS CALL ISZERO DUP1 ISZERO PUSH2 0x11DB JUMPI RETURNDATASIZE PUSH0 DUP1 RETURNDATACOPY RETURNDATASIZE PUSH0 REVERT JUMPDEST POP POP POP POP PUSH1 0x40 MLOAD RETURNDATASIZE PUSH1 0x1F NOT PUSH1 0x1F DUP3 ADD AND DUP3 ADD DUP1 PUSH1 0x40 MSTORE POP DUP2 ADD SWAP1 PUSH2 0x11FF SWAP2 SWAP1 PUSH2 0x3A61 JUMP JUMPDEST POP JUMP JUMPDEST PUSH1 0x6 PUSH0 SWAP1 SLOAD SWAP1 PUSH2 0x100 EXP SWAP1 DIV PUSH20 0xFFFFFFFFFFFFFFFFFFFFFFFFFFFFFFFFFFFFFFFF AND DUP2 JUMP JUMPDEST PUSH2 0x122F PUSH2 0x20DB JUMP JUMPDEST PUSH0 PUSH1 0x5 SLOAD SWAP1 POP PUSH0 DUP2 GT PUSH2 0x1277 JUMPI PUSH1 0x40 MLOAD PUSH32 0x8C379A000000000000000000000000000000000000000000000000000000000 DUP2 MSTORE PUSH1 0x4 ADD PUSH2 0x126E SWAP1 PUSH2 0x3AFD JUMP JUMPDEST PUSH1 0x40 MLOAD DUP1 SWAP2 SUB SWAP1 REVERT JUMPDEST PUSH0 PUSH1 0x5 DUP2 SWAP1 SSTORE POP PUSH1 0x6 PUSH0 SWAP1 SLOAD SWAP1 PUSH2 0x100 EXP SWAP1 DIV PUSH20 0xFFFFFFFFFFFFFFFFFFFFFFFFFFFFFFFFFFFFFFFF AND PUSH20 0xFFFFFFFFFFFFFFFFFFFFFFFFFFFFFFFFFFFFFFFF AND PUSH4 0xA9059CBB ADDRESS DUP4 PUSH1 0x40 MLOAD DUP4 PUSH4 0xFFFFFFFF AND PUSH1 0xE0 SHL DUP2 MSTORE PUSH1 0x4 ADD PUSH2 0x12DA SWAP3 SWAP2 SWAP1 PUSH2 0x3A8C JUMP JUMPDEST PUSH1 0x20 PUSH1 0x40 MLOAD DUP1 DUP4 SUB DUP2 PUSH0 DUP8 GAS CALL ISZERO DUP1 ISZERO PUSH2 0x12F6 JUMPI RETURNDATASIZE PUSH0 DUP1 RETURNDATACOPY RETURNDATASIZE PUSH0 REVERT JUMPDEST POP POP POP POP PUSH1 0x40 MLOAD RETURNDATASIZE PUSH1 0x1F NOT PUSH1 0x1F DUP3 ADD AND DUP3 ADD DUP1 PUSH1 0x40 MSTORE POP DUP2 ADD SWAP1 PUSH2 0x131A SWAP2 SWAP1 PUSH2 0x329E JUMP JUMPDEST PUSH2 0x1359 JUMPI PUSH1 0x40 MLOAD PUSH32 0x8C379A000000000000000000000000000000000000000000000000000000000 DUP2 MSTORE PUSH1 0x4 ADD PUSH2 0x1350 SWAP1 PUSH2 0x3B65 JUMP JUMPDEST PUSH1 0x40 MLOAD DUP1 SWAP2 SUB SWAP1 REVERT JUMPDEST POP JUMP JUMPDEST PUSH0 CALLER DUP5 PUSH1 0x40 MLOAD PUSH1 0x20 ADD PUSH2 0x1370 SWAP3 SWAP2 SWAP1 PUSH2 0x3BE8 JUMP JUMPDEST PUSH1 0x40 MLOAD PUSH1 0x20 DUP2 DUP4 SUB SUB DUP2 MSTORE SWAP1 PUSH1 0x40 MSTORE DUP1 MLOAD SWAP1 PUSH1 0x20 ADD KECCAK256 SWAP1 POP PUSH2 0x13D5 DUP4 DUP4 DUP1 DUP1 PUSH1 0x20 MUL PUSH1 0x20 ADD PUSH1 0x40 MLOAD SWAP1 DUP2 ADD PUSH1 0x40 MSTORE DUP1 SWAP4 SWAP3 SWAP2 SWAP1 DUP2 DUP2 MSTORE PUSH1 0x20 ADD DUP4 DUP4 PUSH1 0x20 MUL DUP1 DUP3 DUP5 CALLDATACOPY PUSH0 DUP2 DUP5 ADD MSTORE PUSH1 0x1F NOT PUSH1 0x1F DUP3 ADD AND SWAP1 POP DUP1 DUP4 ADD SWAP3 POP POP POP POP POP POP POP PUSH1 0x3 SLOAD DUP4 PUSH2 0x2162 JUMP JUMPDEST PUSH2 0x1414 JUMPI PUSH1 0x40 MLOAD PUSH32 0x8C379A000000000000000000000000000000000000000000000000000000000 DUP2 MSTORE PUSH1 0x4 ADD PUSH2 0x140B SWAP1 PUSH2 0x3C5D JUMP JUMPDEST PUSH1 0x40 MLOAD DUP1 SWAP2 SUB SWAP1 REVERT JUMPDEST PUSH0 PUSH1 0x7 PUSH0 CALLER PUSH20 0xFFFFFFFFFFFFFFFFFFFFFFFFFFFFFFFFFFFFFFFF AND PUSH20 0xFFFFFFFFFFFFFFFFFFFFFFFFFFFFFFFFFFFFFFFF AND DUP2 MSTORE PUSH1 0x20 ADD SWAP1 DUP2 MSTORE PUSH1 0x20 ADD PUSH0 KECCAK256 SLOAD SWAP1 POP DUP5 DUP2 LT PUSH2 0x1497 JUMPI PUSH1 0x40 MLOAD PUSH32 0x8C379A000000000000000000000000000000000000000000000000000000000 DUP2 MSTORE PUSH1 0x4 ADD PUSH2 0x148E SWAP1 PUSH2 0x3CEB JUMP JUMPDEST PUSH1 0x40 MLOAD DUP1 SWAP2 SUB SWAP1 REVERT JUMPDEST PUSH0 DUP2 DUP7 PUSH2 0x14A4 SWAP2 SWAP1 PUSH2 0x3977 JUMP JUMPDEST SWAP1 POP DUP6 PUSH1 0x7 PUSH0 CALLER PUSH20 0xFFFFFFFFFFFFFFFFFFFFFFFFFFFFFFFFFFFFFFFF AND PUSH20 0xFFFFFFFFFFFFFFFFFFFFFFFFFFFFFFFFFFFFFFFF AND DUP2 MSTORE PUSH1 0x20 ADD SWAP1 DUP2 MSTORE PUSH1 0x20 ADD PUSH0 KECCAK256 DUP2 SWAP1 SSTORE POP PUSH1 0x6 PUSH0 SWAP1 SLOAD SWAP1 PUSH2 0x100 EXP SWAP1 DIV PUSH20 0xFFFFFFFFFFFFFFFFFFFFFFFFFFFFFFFFFFFFFFFF AND PUSH20 0xFFFFFFFFFFFFFFFFFFFFFFFFFFFFFFFFFFFFFFFF AND PUSH4 0xA9059CBB CALLER DUP4 PUSH1 0x40 MLOAD DUP4 PUSH4 0xFFFFFFFF AND PUSH1 0xE0 SHL DUP2 MSTORE PUSH1 0x4 ADD PUSH2 0x1544 SWAP3 SWAP2 SWAP1 PUSH2 0x3A8C JUMP JUMPDEST PUSH1 0x20 PUSH1 0x40 MLOAD DUP1 DUP4 SUB DUP2 PUSH0 DUP8 GAS CALL ISZERO DUP1 ISZERO PUSH2 0x1560 JUMPI RETURNDATASIZE PUSH0 DUP1 RETURNDATACOPY RETURNDATASIZE PUSH0 REVERT JUMPDEST POP POP POP POP PUSH1 0x40 MLOAD RETURNDATASIZE PUSH1 0x1F NOT PUSH1 0x1F DUP3 ADD AND DUP3 ADD DUP1 PUSH1 0x40 MSTORE POP DUP2 ADD SWAP1 PUSH2 0x1584 SWAP2 SWAP1 PUSH2 0x329E JUMP JUMPDEST PUSH2 0x15C3 JUMPI PUSH1 0x40 MLOAD PUSH32 0x8C379A000000000000000000000000000000000000000000000000000000000 DUP2 MSTORE PUSH1 0x4 ADD PUSH2 0x15BA SWAP1 PUSH2 0x3D53 JUMP JUMPDEST PUSH1 0x40 MLOAD DUP1 SWAP2 SUB SWAP1 REVERT JUMPDEST POP POP POP POP POP POP JUMP JUMPDEST PUSH2 0x15D3 PUSH2 0x20DB JUMP JUMPDEST PUSH2 0x15DC PUSH0 PUSH2 0x2178 JUMP JUMPDEST JUMP JUMPDEST PUSH1 0x7 PUSH1 0x20 MSTORE DUP1 PUSH0 MSTORE PUSH1 0x40 PUSH0 KECCAK256 PUSH0 SWAP2 POP SWAP1 POP SLOAD DUP2 JUMP JUMPDEST PUSH2 0x15FB PUSH2 0x20DB JUMP JUMPDEST PUSH20 0x4300000000000000000000000000000000000002 PUSH20 0xFFFFFFFFFFFFFFFFFFFFFFFFFFFFFFFFFFFFFFFF AND PUSH4 0x954FA5EE ADDRESS ADDRESS PUSH1 0x40 MLOAD DUP4 PUSH4 0xFFFFFFFF AND PUSH1 0xE0 SHL DUP2 MSTORE PUSH1 0x4 ADD PUSH2 0x164A SWAP3 SWAP2 SWAP1 PUSH2 0x3D71 JUMP JUMPDEST PUSH1 0x20 PUSH1 0x40 MLOAD DUP1 DUP4 SUB DUP2 PUSH0 DUP8 GAS CALL ISZERO DUP1 ISZERO PUSH2 0x1666 JUMPI RETURNDATASIZE PUSH0 DUP1 RETURNDATACOPY RETURNDATASIZE PUSH0 REVERT JUMPDEST POP POP POP POP PUSH1 0x40 MLOAD RETURNDATASIZE PUSH1 0x1F NOT PUSH1 0x1F DUP3 ADD AND DUP3 ADD DUP1 PUSH1 0x40 MSTORE POP DUP2 ADD SWAP1 PUSH2 0x168A SWAP2 SWAP1 PUSH2 0x3A61 JUMP JUMPDEST POP JUMP JUMPDEST PUSH2 0x1695 PUSH2 0x20DB JUMP JUMPDEST DUP1 PUSH1 0x3 DUP2 SWAP1 SSTORE POP POP JUMP JUMPDEST PUSH0 DUP1 PUSH1 0x8 PUSH0 DUP6 DUP2 MSTORE PUSH1 0x20 ADD SWAP1 DUP2 MSTORE PUSH1 0x20 ADD PUSH0 KECCAK256 SWAP1 POP DUP1 PUSH1 0x6 ADD SLOAD DUP2 PUSH1 0x5 ADD SLOAD DUP5 PUSH2 0x16C9 SWAP2 SWAP1 PUSH2 0x39D7 JUMP JUMPDEST PUSH2 0x16D3 SWAP2 SWAP1 PUSH2 0x3D98 JUMP JUMPDEST SWAP2 POP POP SWAP3 SWAP2 POP POP JUMP JUMPDEST PUSH0 PUSH2 0x16E5 PUSH2 0x2249 JUMP JUMPDEST SWAP1 POP PUSH0 DUP2 PUSH0 ADD PUSH1 0x8 SWAP1 SLOAD SWAP1 PUSH2 0x100 EXP SWAP1 DIV PUSH1 0xFF AND ISZERO SWAP1 POP PUSH0 DUP3 PUSH0 ADD PUSH0 SWAP1 SLOAD SWAP1 PUSH2 0x100 EXP SWAP1 DIV PUSH8 0xFFFFFFFFFFFFFFFF AND SWAP1 POP PUSH0 DUP1 DUP3 PUSH8 0xFFFFFFFFFFFFFFFF AND EQ DUP1 ISZERO PUSH2 0x172D JUMPI POP DUP3 JUMPDEST SWAP1 POP PUSH0 PUSH1 0x1 DUP4 PUSH8 0xFFFFFFFFFFFFFFFF AND EQ DUP1 ISZERO PUSH2 0x1760 JUMPI POP PUSH0 ADDRESS PUSH20 0xFFFFFFFFFFFFFFFFFFFFFFFFFFFFFFFFFFFFFFFF AND EXTCODESIZE EQ JUMPDEST SWAP1 POP DUP2 ISZERO DUP1 ISZERO PUSH2 0x176E JUMPI POP DUP1 ISZERO JUMPDEST ISZERO PUSH2 0x17A5 JUMPI PUSH1 0x40 MLOAD PUSH32 0xF92EE8A900000000000000000000000000000000000000000000000000000000 DUP2 MSTORE PUSH1 0x4 ADD PUSH1 0x40 MLOAD DUP1 SWAP2 SUB SWAP1 REVERT JUMPDEST PUSH1 0x1 DUP6 PUSH0 ADD PUSH0 PUSH2 0x100 EXP DUP2 SLOAD DUP2 PUSH8 0xFFFFFFFFFFFFFFFF MUL NOT AND SWAP1 DUP4 PUSH8 0xFFFFFFFFFFFFFFFF AND MUL OR SWAP1 SSTORE POP DUP4 ISZERO PUSH2 0x17F2 JUMPI PUSH1 0x1 DUP6 PUSH0 ADD PUSH1 0x8 PUSH2 0x100 EXP DUP2 SLOAD DUP2 PUSH1 0xFF MUL NOT AND SWAP1 DUP4 ISZERO ISZERO MUL OR SWAP1 SSTORE POP JUMPDEST PUSH2 0x17FA PUSH2 0x18D1 JUMP JUMPDEST PUSH20 0xFFFFFFFFFFFFFFFFFFFFFFFFFFFFFFFFFFFFFFFF AND CALLER PUSH20 0xFFFFFFFFFFFFFFFFFFFFFFFFFFFFFFFFFFFFFFFF AND EQ PUSH2 0x1867 JUMPI PUSH1 0x40 MLOAD PUSH32 0x8C379A000000000000000000000000000000000000000000000000000000000 DUP2 MSTORE PUSH1 0x4 ADD PUSH2 0x185E SWAP1 PUSH2 0x3E12 JUMP JUMPDEST PUSH1 0x40 MLOAD DUP1 SWAP2 SUB SWAP1 REVERT JUMPDEST PUSH2 0x1870 CALLER PUSH2 0x2270 JUMP JUMPDEST DUP4 ISZERO PUSH2 0x18CA JUMPI PUSH0 DUP6 PUSH0 ADD PUSH1 0x8 PUSH2 0x100 EXP DUP2 SLOAD DUP2 PUSH1 0xFF MUL NOT AND SWAP1 DUP4 ISZERO ISZERO MUL OR SWAP1 SSTORE POP PUSH32 0xC7F505B2F371AE2175EE4913F4499E1F2633A7B5936321EED1CDAEB6115181D2 PUSH1 0x1 PUSH1 0x40 MLOAD PUSH2 0x18C1 SWAP2 SWAP1 PUSH2 0x3E69 JUMP JUMPDEST PUSH1 0x40 MLOAD DUP1 SWAP2 SUB SWAP1 LOG1 JUMPDEST POP POP POP POP POP JUMP JUMPDEST PUSH0 DUP1 PUSH2 0x18DB PUSH2 0x2284 JUMP JUMPDEST SWAP1 POP DUP1 PUSH0 ADD PUSH0 SWAP1 SLOAD SWAP1 PUSH2 0x100 EXP SWAP1 DIV PUSH20 0xFFFFFFFFFFFFFFFFFFFFFFFFFFFFFFFFFFFFFFFF AND SWAP2 POP POP SWAP1 JUMP JUMPDEST PUSH2 0x190E PUSH2 0x20DB JUMP JUMPDEST DUP1 PUSH1 0x2 PUSH0 PUSH2 0x100 EXP DUP2 SLOAD DUP2 PUSH20 0xFFFFFFFFFFFFFFFFFFFFFFFFFFFFFFFFFFFFFFFF MUL NOT AND SWAP1 DUP4 PUSH20 0xFFFFFFFFFFFFFFFFFFFFFFFFFFFFFFFFFFFFFFFF AND MUL OR SWAP1 SSTORE POP POP JUMP JUMPDEST PUSH20 0x4300000000000000000000000000000000000002 DUP2 JUMP JUMPDEST PUSH0 PUSH1 0x8 PUSH0 DUP4 DUP2 MSTORE PUSH1 0x20 ADD SWAP1 DUP2 MSTORE PUSH1 0x20 ADD PUSH0 KECCAK256 SWAP1 POP PUSH0 DUP2 PUSH1 0xD ADD PUSH0 CALLER PUSH20 0xFFFFFFFFFFFFFFFFFFFFFFFFFFFFFFFFFFFFFFFF AND PUSH20 0xFFFFFFFFFFFFFFFFFFFFFFFFFFFFFFFFFFFFFFFF AND DUP2 MSTORE PUSH1 0x20 ADD SWAP1 DUP2 MSTORE PUSH1 0x20 ADD PUSH0 KECCAK256 SLOAD GT PUSH2 0x19FE JUMPI PUSH1 0x40 MLOAD PUSH32 0x8C379A000000000000000000000000000000000000000000000000000000000 DUP2 MSTORE PUSH1 0x4 ADD PUSH2 0x19F5 SWAP1 PUSH2 0x3ECC JUMP JUMPDEST PUSH1 0x40 MLOAD DUP1 SWAP2 SUB SWAP1 REVERT JUMPDEST PUSH0 DUP2 PUSH1 0xD ADD PUSH0 CALLER PUSH20 0xFFFFFFFFFFFFFFFFFFFFFFFFFFFFFFFFFFFFFFFF AND PUSH20 0xFFFFFFFFFFFFFFFFFFFFFFFFFFFFFFFFFFFFFFFF AND DUP2 MSTORE PUSH1 0x20 ADD SWAP1 DUP2 MSTORE PUSH1 0x20 ADD PUSH0 KECCAK256 SLOAD SWAP1 POP PUSH0 DUP3 PUSH1 0xD ADD PUSH0 CALLER PUSH20 0xFFFFFFFFFFFFFFFFFFFFFFFFFFFFFFFFFFFFFFFF AND PUSH20 0xFFFFFFFFFFFFFFFFFFFFFFFFFFFFFFFFFFFFFFFF AND DUP2 MSTORE PUSH1 0x20 ADD SWAP1 DUP2 MSTORE PUSH1 0x20 ADD PUSH0 KECCAK256 DUP2 SWAP1 SSTORE POP PUSH1 0x6 PUSH0 SWAP1 SLOAD SWAP1 PUSH2 0x100 EXP SWAP1 DIV PUSH20 0xFFFFFFFFFFFFFFFFFFFFFFFFFFFFFFFFFFFFFFFF AND PUSH20 0xFFFFFFFFFFFFFFFFFFFFFFFFFFFFFFFFFFFFFFFF AND PUSH4 0xA9059CBB CALLER DUP4 PUSH1 0x40 MLOAD DUP4 PUSH4 0xFFFFFFFF AND PUSH1 0xE0 SHL DUP2 MSTORE PUSH1 0x4 ADD PUSH2 0x1AE1 SWAP3 SWAP2 SWAP1 PUSH2 0x3A8C JUMP JUMPDEST PUSH1 0x20 PUSH1 0x40 MLOAD DUP1 DUP4 SUB DUP2 PUSH0 DUP8 GAS CALL ISZERO DUP1 ISZERO PUSH2 0x1AFD JUMPI RETURNDATASIZE PUSH0 DUP1 RETURNDATACOPY RETURNDATASIZE PUSH0 REVERT JUMPDEST POP POP POP POP PUSH1 0x40 MLOAD RETURNDATASIZE PUSH1 0x1F NOT PUSH1 0x1F DUP3 ADD AND DUP3 ADD DUP1 PUSH1 0x40 MSTORE POP DUP2 ADD SWAP1 PUSH2 0x1B21 SWAP2 SWAP1 PUSH2 0x329E JUMP JUMPDEST PUSH2 0x1B60 JUMPI PUSH1 0x40 MLOAD PUSH32 0x8C379A000000000000000000000000000000000000000000000000000000000 DUP2 MSTORE PUSH1 0x4 ADD PUSH2 0x1B57 SWAP1 PUSH2 0x3F34 JUMP JUMPDEST PUSH1 0x40 MLOAD DUP1 SWAP2 SUB SWAP1 REVERT JUMPDEST POP POP POP JUMP JUMPDEST PUSH1 0x5 SLOAD DUP2 JUMP JUMPDEST PUSH1 0x8 PUSH1 0x20 MSTORE DUP1 PUSH0 MSTORE PUSH1 0x40 PUSH0 KECCAK256 PUSH0 SWAP2 POP SWAP1 POP DUP1 PUSH0 ADD DUP1 SLOAD PUSH2 0x1B8A SWAP1 PUSH2 0x341D JUMP JUMPDEST DUP1 PUSH1 0x1F ADD PUSH1 0x20 DUP1 SWAP2 DIV MUL PUSH1 0x20 ADD PUSH1 0x40 MLOAD SWAP1 DUP2 ADD PUSH1 0x40 MSTORE DUP1 SWAP3 SWAP2 SWAP1 DUP2 DUP2 MSTORE PUSH1 0x20 ADD DUP3 DUP1 SLOAD PUSH2 0x1BB6 SWAP1 PUSH2 0x341D JUMP JUMPDEST DUP1 ISZERO PUSH2 0x1C01 JUMPI DUP1 PUSH1 0x1F LT PUSH2 0x1BD8 JUMPI PUSH2 0x100 DUP1 DUP4 SLOAD DIV MUL DUP4 MSTORE SWAP2 PUSH1 0x20 ADD SWAP2 PUSH2 0x1C01 JUMP JUMPDEST DUP3 ADD SWAP2 SWAP1 PUSH0 MSTORE PUSH1 0x20 PUSH0 KECCAK256 SWAP1 JUMPDEST DUP2 SLOAD DUP2 MSTORE SWAP1 PUSH1 0x1 ADD SWAP1 PUSH1 0x20 ADD DUP1 DUP4 GT PUSH2 0x1BE4 JUMPI DUP3 SWAP1 SUB PUSH1 0x1F AND DUP3 ADD SWAP2 JUMPDEST POP POP POP POP POP SWAP1 DUP1 PUSH1 0x1 ADD SLOAD SWAP1 DUP1 PUSH1 0x2 ADD SLOAD SWAP1 DUP1 PUSH1 0x3 ADD SLOAD SWAP1 DUP1 PUSH1 0x4 ADD SLOAD SWAP1 DUP1 PUSH1 0x5 ADD SLOAD SWAP1 DUP1 PUSH1 0x6 ADD SLOAD SWAP1 DUP1 PUSH1 0x7 ADD SLOAD SWAP1 DUP1 PUSH1 0x8 ADD SLOAD SWAP1 DUP1 PUSH1 0x9 ADD PUSH0 SWAP1 SLOAD SWAP1 PUSH2 0x100 EXP SWAP1 DIV PUSH8 0xFFFFFFFFFFFFFFFF AND SWAP1 DUP1 PUSH1 0x9 ADD PUSH1 0x8 SWAP1 SLOAD SWAP1 PUSH2 0x100 EXP SWAP1 DIV PUSH20 0xFFFFFFFFFFFFFFFFFFFFFFFFFFFFFFFFFFFFFFFF AND SWAP1 POP DUP12 JUMP JUMPDEST PUSH2 0x1C82 PUSH2 0x20DB JUMP JUMPDEST PUSH0 PUSH20 0xFFFFFFFFFFFFFFFFFFFFFFFFFFFFFFFFFFFFFFFF AND DUP2 PUSH20 0xFFFFFFFFFFFFFFFFFFFFFFFFFFFFFFFFFFFFFFFF AND SUB PUSH2 0x1CF2 JUMPI PUSH0 PUSH1 0x40 MLOAD PUSH32 0x1E4FBDF700000000000000000000000000000000000000000000000000000000 DUP2 MSTORE PUSH1 0x4 ADD PUSH2 0x1CE9 SWAP2 SWAP1 PUSH2 0x2C91 JUMP JUMPDEST PUSH1 0x40 MLOAD DUP1 SWAP2 SUB SWAP1 REVERT JUMPDEST PUSH2 0x1CFB DUP2 PUSH2 0x2178 JUMP JUMPDEST POP JUMP JUMPDEST PUSH0 PUSH1 0x8 PUSH0 DUP6 DUP2 MSTORE PUSH1 0x20 ADD SWAP1 DUP2 MSTORE PUSH1 0x20 ADD PUSH0 KECCAK256 SWAP1 POP DUP1 PUSH1 0x7 ADD SLOAD DUP2 PUSH1 0xA ADD DUP1 SLOAD SWAP1 POP LT PUSH2 0x1D5F JUMPI PUSH1 0x40 MLOAD PUSH32 0x8C379A000000000000000000000000000000000000000000000000000000000 DUP2 MSTORE PUSH1 0x4 ADD PUSH2 0x1D56 SWAP1 PUSH2 0x3F9C JUMP JUMPDEST PUSH1 0x40 MLOAD DUP1 SWAP2 SUB SWAP1 REVERT JUMPDEST PUSH0 DUP5 CALLER DUP4 PUSH1 0x8 ADD SLOAD DUP6 PUSH1 0x40 MLOAD PUSH1 0x20 ADD PUSH2 0x1D7B SWAP5 SWAP4 SWAP3 SWAP2 SWAP1 PUSH2 0x3FBA JUMP JUMPDEST PUSH1 0x40 MLOAD PUSH1 0x20 DUP2 DUP4 SUB SUB DUP2 MSTORE SWAP1 PUSH1 0x40 MSTORE DUP1 MLOAD SWAP1 PUSH1 0x20 ADD KECCAK256 SWAP1 POP PUSH2 0x1DA6 DUP5 DUP3 PUSH2 0x22AB SWAP1 SWAP2 SWAP1 PUSH4 0xFFFFFFFF AND JUMP JUMPDEST PUSH20 0xFFFFFFFFFFFFFFFFFFFFFFFFFFFFFFFFFFFFFFFF AND PUSH1 0x2 PUSH0 SWAP1 SLOAD SWAP1 PUSH2 0x100 EXP SWAP1 DIV PUSH20 0xFFFFFFFFFFFFFFFFFFFFFFFFFFFFFFFFFFFFFFFF AND PUSH20 0xFFFFFFFFFFFFFFFFFFFFFFFFFFFFFFFFFFFFFFFF AND EQ PUSH2 0x1E34 JUMPI PUSH1 0x40 MLOAD PUSH32 0x8C379A000000000000000000000000000000000000000000000000000000000 DUP2 MSTORE PUSH1 0x4 ADD PUSH2 0x1E2B SWAP1 PUSH2 0x4051 JUMP JUMPDEST PUSH1 0x40 MLOAD DUP1 SWAP2 SUB SWAP1 REVERT JUMPDEST PUSH1 0x6 PUSH0 SWAP1 SLOAD SWAP1 PUSH2 0x100 EXP SWAP1 DIV PUSH20 0xFFFFFFFFFFFFFFFFFFFFFFFFFFFFFFFFFFFFFFFF AND PUSH20 0xFFFFFFFFFFFFFFFFFFFFFFFFFFFFFFFFFFFFFFFF AND PUSH4 0x23B872DD CALLER ADDRESS DUP6 PUSH1 0x1 ADD SLOAD PUSH1 0x40 MLOAD DUP5 PUSH4 0xFFFFFFFF AND PUSH1 0xE0 SHL DUP2 MSTORE PUSH1 0x4 ADD PUSH2 0x1E96 SWAP4 SWAP3 SWAP2 SWAP1 PUSH2 0x3234 JUMP JUMPDEST PUSH1 0x20 PUSH1 0x40 MLOAD DUP1 DUP4 SUB DUP2 PUSH0 DUP8 GAS CALL ISZERO DUP1 ISZERO PUSH2 0x1EB2 JUMPI RETURNDATASIZE PUSH0 DUP1 RETURNDATACOPY RETURNDATASIZE PUSH0 REVERT JUMPDEST POP POP POP POP PUSH1 0x40 MLOAD RETURNDATASIZE PUSH1 0x1F NOT PUSH1 0x1F DUP3 ADD AND DUP3 ADD DUP1 PUSH1 0x40 MSTORE POP DUP2 ADD SWAP1 PUSH2 0x1ED6 SWAP2 SWAP1 PUSH2 0x329E JUMP JUMPDEST PUSH2 0x1F15 JUMPI PUSH1 0x40 MLOAD PUSH32 0x8C379A000000000000000000000000000000000000000000000000000000000 DUP2 MSTORE PUSH1 0x4 ADD PUSH2 0x1F0C SWAP1 PUSH2 0x3F34 JUMP JUMPDEST PUSH1 0x40 MLOAD DUP1 SWAP2 SUB SWAP1 REVERT JUMPDEST DUP2 PUSH1 0x1 ADD SLOAD DUP3 PUSH1 0xC ADD PUSH0 CALLER PUSH20 0xFFFFFFFFFFFFFFFFFFFFFFFFFFFFFFFFFFFFFFFF AND PUSH20 0xFFFFFFFFFFFFFFFFFFFFFFFFFFFFFFFFFFFFFFFF AND DUP2 MSTORE PUSH1 0x20 ADD SWAP1 DUP2 MSTORE PUSH1 0x20 ADD PUSH0 KECCAK256 DUP2 SWAP1 SSTORE POP PUSH1 0x1 ISZERO ISZERO DUP3 PUSH1 0xE ADD PUSH0 CALLER PUSH20 0xFFFFFFFFFFFFFFFFFFFFFFFFFFFFFFFFFFFFFFFF AND PUSH20 0xFFFFFFFFFFFFFFFFFFFFFFFFFFFFFFFFFFFFFFFF AND DUP2 MSTORE PUSH1 0x20 ADD SWAP1 DUP2 MSTORE PUSH1 0x20 ADD PUSH0 KECCAK256 PUSH0 SWAP1 SLOAD SWAP1 PUSH2 0x100 EXP SWAP1 DIV PUSH1 0xFF AND ISZERO ISZERO EQ PUSH2 0x2017 JUMPI DUP2 PUSH1 0xA ADD CALLER SWAP1 DUP1 PUSH1 0x1 DUP2 SLOAD ADD DUP1 DUP3 SSTORE DUP1 SWAP2 POP POP PUSH1 0x1 SWAP1 SUB SWAP1 PUSH0 MSTORE PUSH1 0x20 PUSH0 KECCAK256 ADD PUSH0 SWAP1 SWAP2 SWAP1 SWAP2 SWAP1 SWAP2 PUSH2 0x100 EXP DUP2 SLOAD DUP2 PUSH20 0xFFFFFFFFFFFFFFFFFFFFFFFFFFFFFFFFFFFFFFFF MUL NOT AND SWAP1 DUP4 PUSH20 0xFFFFFFFFFFFFFFFFFFFFFFFFFFFFFFFFFFFFFFFF AND MUL OR SWAP1 SSTORE POP JUMPDEST PUSH32 0x43D2F309913F6AFC5D717F60864D2D192B69963D25204B6A12765E2795BF027F DUP6 DUP4 PUSH0 ADD CALLER DUP6 PUSH1 0x1 ADD SLOAD DUP7 PUSH1 0x3 ADD SLOAD DUP8 PUSH1 0x5 ADD SLOAD DUP9 PUSH1 0x6 ADD SLOAD DUP10 PUSH1 0x7 ADD SLOAD PUSH1 0x40 MLOAD PUSH2 0x206A SWAP9 SWAP8 SWAP7 SWAP6 SWAP5 SWAP4 SWAP3 SWAP2 SWAP1 PUSH2 0x40F0 JUMP JUMPDEST PUSH1 0x40 MLOAD DUP1 SWAP2 SUB SWAP1 LOG1 POP POP POP POP POP JUMP JUMPDEST PUSH1 0x2 PUSH0 SWAP1 SLOAD SWAP1 PUSH2 0x100 EXP SWAP1 DIV PUSH20 0xFFFFFFFFFFFFFFFFFFFFFFFFFFFFFFFFFFFFFFFF AND DUP2 JUMP JUMPDEST PUSH0 DUP1 PUSH1 0x64 DUP4 PUSH2 0x20AD SWAP2 SWAP1 PUSH2 0x3D98 JUMP JUMPDEST SWAP1 POP DUP1 DUP4 PUSH2 0x20BB SWAP2 SWAP1 PUSH2 0x3977 JUMP JUMPDEST SWAP2 POP DUP1 PUSH1 0x5 PUSH0 DUP3 DUP3 SLOAD PUSH2 0x20CE SWAP2 SWAP1 PUSH2 0x37D0 JUMP JUMPDEST SWAP3 POP POP DUP2 SWAP1 SSTORE POP POP SWAP2 SWAP1 POP JUMP JUMPDEST PUSH2 0x20E3 PUSH2 0x22D5 JUMP JUMPDEST PUSH20 0xFFFFFFFFFFFFFFFFFFFFFFFFFFFFFFFFFFFFFFFF AND PUSH2 0x2101 PUSH2 0x18D1 JUMP JUMPDEST PUSH20 0xFFFFFFFFFFFFFFFFFFFFFFFFFFFFFFFFFFFFFFFF AND EQ PUSH2 0x2160 JUMPI PUSH2 0x2124 PUSH2 0x22D5 JUMP JUMPDEST PUSH1 0x40 MLOAD PUSH32 0x118CDAA700000000000000000000000000000000000000000000000000000000 DUP2 MSTORE PUSH1 0x4 ADD PUSH2 0x2157 SWAP2 SWAP1 PUSH2 0x2C91 JUMP JUMPDEST PUSH1 0x40 MLOAD DUP1 SWAP2 SUB SWAP1 REVERT JUMPDEST JUMP JUMPDEST PUSH0 DUP3 PUSH2 0x216E DUP6 DUP5 PUSH2 0x22DC JUMP JUMPDEST EQ SWAP1 POP SWAP4 SWAP3 POP POP POP JUMP JUMPDEST PUSH0 PUSH2 0x2181 PUSH2 0x2284 JUMP JUMPDEST SWAP1 POP PUSH0 DUP2 PUSH0 ADD PUSH0 SWAP1 SLOAD SWAP1 PUSH2 0x100 EXP SWAP1 DIV PUSH20 0xFFFFFFFFFFFFFFFFFFFFFFFFFFFFFFFFFFFFFFFF AND SWAP1 POP DUP3 DUP3 PUSH0 ADD PUSH0 PUSH2 0x100 EXP DUP2 SLOAD DUP2 PUSH20 0xFFFFFFFFFFFFFFFFFFFFFFFFFFFFFFFFFFFFFFFF MUL NOT AND SWAP1 DUP4 PUSH20 0xFFFFFFFFFFFFFFFFFFFFFFFFFFFFFFFFFFFFFFFF AND MUL OR SWAP1 SSTORE POP DUP3 PUSH20 0xFFFFFFFFFFFFFFFFFFFFFFFFFFFFFFFFFFFFFFFF AND DUP2 PUSH20 0xFFFFFFFFFFFFFFFFFFFFFFFFFFFFFFFFFFFFFFFF AND PUSH32 0x8BE0079C531659141344CD1FD0A4F28419497F9722A3DAAFE3B4186F6B6457E0 PUSH1 0x40 MLOAD PUSH1 0x40 MLOAD DUP1 SWAP2 SUB SWAP1 LOG3 POP POP POP JUMP JUMPDEST PUSH0 PUSH32 0xF0C57E16840DF040F15088DC2F81FE391C3923BEC73E23A9662EFC9C229C6A00 SWAP1 POP SWAP1 JUMP JUMPDEST PUSH2 0x2278 PUSH2 0x232A JUMP JUMPDEST PUSH2 0x2281 DUP2 PUSH2 0x236A JUMP JUMPDEST POP JUMP JUMPDEST PUSH0 PUSH32 0x9016D09D72D40FDAE2FD8CEAC6B6234C7706214FD39C1CD1E609A0528C199300 SWAP1 POP SWAP1 JUMP JUMPDEST PUSH0 DUP1 PUSH0 DUP1 PUSH2 0x22B9 DUP7 DUP7 PUSH2 0x23EE JUMP JUMPDEST SWAP3 POP SWAP3 POP SWAP3 POP PUSH2 0x22C9 DUP3 DUP3 PUSH2 0x2443 JUMP JUMPDEST DUP3 SWAP4 POP POP POP POP SWAP3 SWAP2 POP POP JUMP JUMPDEST PUSH0 CALLER SWAP1 POP SWAP1 JUMP JUMPDEST PUSH0 DUP1 DUP3 SWAP1 POP PUSH0 JUMPDEST DUP5 MLOAD DUP2 LT ISZERO PUSH2 0x231F JUMPI PUSH2 0x2310 DUP3 DUP7 DUP4 DUP2 MLOAD DUP2 LT PUSH2 0x2303 JUMPI PUSH2 0x2302 PUSH2 0x394A JUMP JUMPDEST JUMPDEST PUSH1 0x20 MUL PUSH1 0x20 ADD ADD MLOAD PUSH2 0x25A5 JUMP JUMPDEST SWAP2 POP DUP1 DUP1 PUSH1 0x1 ADD SWAP2 POP POP PUSH2 0x22E3 JUMP JUMPDEST POP DUP1 SWAP2 POP POP SWAP3 SWAP2 POP POP JUMP JUMPDEST PUSH2 0x2332 PUSH2 0x25CF JUMP JUMPDEST PUSH2 0x2368 JUMPI PUSH1 0x40 MLOAD PUSH32 0xD7E6BCF800000000000000000000000000000000000000000000000000000000 DUP2 MSTORE PUSH1 0x4 ADD PUSH1 0x40 MLOAD DUP1 SWAP2 SUB SWAP1 REVERT JUMPDEST JUMP JUMPDEST PUSH2 0x2372 PUSH2 0x232A JUMP JUMPDEST PUSH0 PUSH20 0xFFFFFFFFFFFFFFFFFFFFFFFFFFFFFFFFFFFFFFFF AND DUP2 PUSH20 0xFFFFFFFFFFFFFFFFFFFFFFFFFFFFFFFFFFFFFFFF AND SUB PUSH2 0x23E2 JUMPI PUSH0 PUSH1 0x40 MLOAD PUSH32 0x1E4FBDF700000000000000000000000000000000000000000000000000000000 DUP2 MSTORE PUSH1 0x4 ADD PUSH2 0x23D9 SWAP2 SWAP1 PUSH2 0x2C91 JUMP JUMPDEST PUSH1 0x40 MLOAD DUP1 SWAP2 SUB SWAP1 REVERT JUMPDEST PUSH2 0x23EB DUP2 PUSH2 0x2178 JUMP JUMPDEST POP JUMP JUMPDEST PUSH0 DUP1 PUSH0 PUSH1 0x41 DUP5 MLOAD SUB PUSH2 0x242E JUMPI PUSH0 DUP1 PUSH0 PUSH1 0x20 DUP8 ADD MLOAD SWAP3 POP PUSH1 0x40 DUP8 ADD MLOAD SWAP2 POP PUSH1 0x60 DUP8 ADD MLOAD PUSH0 BYTE SWAP1 POP PUSH2 0x2420 DUP9 DUP3 DUP6 DUP6 PUSH2 0x25ED JUMP JUMPDEST SWAP6 POP SWAP6 POP SWAP6 POP POP POP POP PUSH2 0x243C JUMP JUMPDEST PUSH0 PUSH1 0x2 DUP6 MLOAD PUSH0 SHL SWAP3 POP SWAP3 POP SWAP3 POP JUMPDEST SWAP3 POP SWAP3 POP SWAP3 JUMP JUMPDEST PUSH0 PUSH1 0x3 DUP2 GT ISZERO PUSH2 0x2456 JUMPI PUSH2 0x2455 PUSH2 0x4173 JUMP JUMPDEST JUMPDEST DUP3 PUSH1 0x3 DUP2 GT ISZERO PUSH2 0x2469 JUMPI PUSH2 0x2468 PUSH2 0x4173 JUMP JUMPDEST JUMPDEST SUB ISZERO PUSH2 0x25A1 JUMPI PUSH1 0x1 PUSH1 0x3 DUP2 GT ISZERO PUSH2 0x2483 JUMPI PUSH2 0x2482 PUSH2 0x4173 JUMP JUMPDEST JUMPDEST DUP3 PUSH1 0x3 DUP2 GT ISZERO PUSH2 0x2496 JUMPI PUSH2 0x2495 PUSH2 0x4173 JUMP JUMPDEST JUMPDEST SUB PUSH2 0x24CD JUMPI PUSH1 0x40 MLOAD PUSH32 0xF645EEDF00000000000000000000000000000000000000000000000000000000 DUP2 MSTORE PUSH1 0x4 ADD PUSH1 0x40 MLOAD DUP1 SWAP2 SUB SWAP1 REVERT JUMPDEST PUSH1 0x2 PUSH1 0x3 DUP2 GT ISZERO PUSH2 0x24E1 JUMPI PUSH2 0x24E0 PUSH2 0x4173 JUMP JUMPDEST JUMPDEST DUP3 PUSH1 0x3 DUP2 GT ISZERO PUSH2 0x24F4 JUMPI PUSH2 0x24F3 PUSH2 0x4173 JUMP JUMPDEST JUMPDEST SUB PUSH2 0x2538 JUMPI DUP1 PUSH0 SHR PUSH1 0x40 MLOAD PUSH32 0xFCE698F700000000000000000000000000000000000000000000000000000000 DUP2 MSTORE PUSH1 0x4 ADD PUSH2 0x252F SWAP2 SWAP1 PUSH2 0x2C00 JUMP JUMPDEST PUSH1 0x40 MLOAD DUP1 SWAP2 SUB SWAP1 REVERT JUMPDEST PUSH1 0x3 DUP1 DUP2 GT ISZERO PUSH2 0x254B JUMPI PUSH2 0x254A PUSH2 0x4173 JUMP JUMPDEST JUMPDEST DUP3 PUSH1 0x3 DUP2 GT ISZERO PUSH2 0x255E JUMPI PUSH2 0x255D PUSH2 0x4173 JUMP JUMPDEST JUMPDEST SUB PUSH2 0x25A0 JUMPI DUP1 PUSH1 0x40 MLOAD PUSH32 0xD78BCE0C00000000000000000000000000000000000000000000000000000000 DUP2 MSTORE PUSH1 0x4 ADD PUSH2 0x2597 SWAP2 SWAP1 PUSH2 0x299C JUMP JUMPDEST PUSH1 0x40 MLOAD DUP1 SWAP2 SUB SWAP1 REVERT JUMPDEST JUMPDEST POP POP JUMP JUMPDEST PUSH0 DUP2 DUP4 LT PUSH2 0x25BC JUMPI PUSH2 0x25B7 DUP3 DUP5 PUSH2 0x26D4 JUMP JUMPDEST PUSH2 0x25C7 JUMP JUMPDEST PUSH2 0x25C6 DUP4 DUP4 PUSH2 0x26D4 JUMP JUMPDEST JUMPDEST SWAP1 POP SWAP3 SWAP2 POP POP JUMP JUMPDEST PUSH0 PUSH2 0x25D8 PUSH2 0x2249 JUMP JUMPDEST PUSH0 ADD PUSH1 0x8 SWAP1 SLOAD SWAP1 PUSH2 0x100 EXP SWAP1 DIV PUSH1 0xFF AND SWAP1 POP SWAP1 JUMP JUMPDEST PUSH0 DUP1 PUSH0 PUSH32 0x7FFFFFFFFFFFFFFFFFFFFFFFFFFFFFFF5D576E7357A4501DDFE92F46681B20A0 DUP5 PUSH0 SHR GT ISZERO PUSH2 0x2629 JUMPI PUSH0 PUSH1 0x3 DUP6 SWAP3 POP SWAP3 POP SWAP3 POP PUSH2 0x26CA JUMP JUMPDEST PUSH0 PUSH1 0x1 DUP9 DUP9 DUP9 DUP9 PUSH1 0x40 MLOAD PUSH0 DUP2 MSTORE PUSH1 0x20 ADD PUSH1 0x40 MSTORE PUSH1 0x40 MLOAD PUSH2 0x264C SWAP5 SWAP4 SWAP3 SWAP2 SWAP1 PUSH2 0x41BB JUMP JUMPDEST PUSH1 0x20 PUSH1 0x40 MLOAD PUSH1 0x20 DUP2 SUB SWAP1 DUP1 DUP5 SUB SWAP1 DUP6 GAS STATICCALL ISZERO DUP1 ISZERO PUSH2 0x266C JUMPI RETURNDATASIZE PUSH0 DUP1 RETURNDATACOPY RETURNDATASIZE PUSH0 REVERT JUMPDEST POP POP POP PUSH1 0x20 PUSH1 0x40 MLOAD SUB MLOAD SWAP1 POP PUSH0 PUSH20 0xFFFFFFFFFFFFFFFFFFFFFFFFFFFFFFFFFFFFFFFF AND DUP2 PUSH20 0xFFFFFFFFFFFFFFFFFFFFFFFFFFFFFFFFFFFFFFFF AND SUB PUSH2 0x26BD JUMPI PUSH0 PUSH1 0x1 PUSH0 DUP1 SHL SWAP4 POP SWAP4 POP SWAP4 POP POP PUSH2 0x26CA JUMP JUMPDEST DUP1 PUSH0 DUP1 PUSH0 SHL SWAP4 POP SWAP4 POP SWAP4 POP POP JUMPDEST SWAP5 POP SWAP5 POP SWAP5 SWAP2 POP POP JUMP JUMPDEST PUSH0 DUP3 PUSH0 MSTORE DUP2 PUSH1 0x20 MSTORE PUSH1 0x40 PUSH0 KECCAK256 SWAP1 POP SWAP3 SWAP2 POP POP JUMP JUMPDEST POP DUP1 SLOAD PUSH0 DUP3 SSTORE SWAP1 PUSH0 MSTORE PUSH1 0x20 PUSH0 KECCAK256 SWAP1 DUP2 ADD SWAP1 PUSH2 0x2703 SWAP2 SWAP1 PUSH2 0x2706 JUMP JUMPDEST POP JUMP JUMPDEST JUMPDEST DUP1 DUP3 GT ISZERO PUSH2 0x271D JUMPI PUSH0 DUP2 PUSH0 SWAP1 SSTORE POP PUSH1 0x1 ADD PUSH2 0x2707 JUMP JUMPDEST POP SWAP1 JUMP JUMPDEST PUSH0 PUSH1 0x40 MLOAD SWAP1 POP SWAP1 JUMP JUMPDEST PUSH0 DUP1 REVERT JUMPDEST PUSH0 DUP1 REVERT JUMPDEST PUSH0 DUP1 REVERT JUMPDEST PUSH0 DUP1 REVERT JUMPDEST PUSH0 PUSH1 0x1F NOT PUSH1 0x1F DUP4 ADD AND SWAP1 POP SWAP2 SWAP1 POP JUMP JUMPDEST PUSH32 0x4E487B7100000000000000000000000000000000000000000000000000000000 PUSH0 MSTORE PUSH1 0x41 PUSH1 0x4 MSTORE PUSH1 0x24 PUSH0 REVERT JUMPDEST PUSH2 0x2780 DUP3 PUSH2 0x273A JUMP JUMPDEST DUP2 ADD DUP2 DUP2 LT PUSH8 0xFFFFFFFFFFFFFFFF DUP3 GT OR ISZERO PUSH2 0x279F JUMPI PUSH2 0x279E PUSH2 0x274A JUMP JUMPDEST JUMPDEST DUP1 PUSH1 0x40 MSTORE POP POP POP JUMP JUMPDEST PUSH0 PUSH2 0x27B1 PUSH2 0x2721 JUMP JUMPDEST SWAP1 POP PUSH2 0x27BD DUP3 DUP3 PUSH2 0x2777 JUMP JUMPDEST SWAP2 SWAP1 POP JUMP JUMPDEST PUSH0 PUSH8 0xFFFFFFFFFFFFFFFF DUP3 GT ISZERO PUSH2 0x27DC JUMPI PUSH2 0x27DB PUSH2 0x274A JUMP JUMPDEST JUMPDEST PUSH2 0x27E5 DUP3 PUSH2 0x273A JUMP JUMPDEST SWAP1 POP PUSH1 0x20 DUP2 ADD SWAP1 POP SWAP2 SWAP1 POP JUMP JUMPDEST DUP3 DUP2 DUP4 CALLDATACOPY PUSH0 DUP4 DUP4 ADD MSTORE POP POP POP JUMP JUMPDEST PUSH0 PUSH2 0x2812 PUSH2 0x280D DUP5 PUSH2 0x27C2 JUMP JUMPDEST PUSH2 0x27A8 JUMP JUMPDEST SWAP1 POP DUP3 DUP2 MSTORE PUSH1 0x20 DUP2 ADD DUP5 DUP5 DUP5 ADD GT ISZERO PUSH2 0x282E JUMPI PUSH2 0x282D PUSH2 0x2736 JUMP JUMPDEST JUMPDEST PUSH2 0x2839 DUP5 DUP3 DUP6 PUSH2 0x27F2 JUMP JUMPDEST POP SWAP4 SWAP3 POP POP POP JUMP JUMPDEST PUSH0 DUP3 PUSH1 0x1F DUP4 ADD SLT PUSH2 0x2855 JUMPI PUSH2 0x2854 PUSH2 0x2732 JUMP JUMPDEST JUMPDEST DUP2 CALLDATALOAD PUSH2 0x2865 DUP5 DUP3 PUSH1 0x20 DUP7 ADD PUSH2 0x2800 JUMP JUMPDEST SWAP2 POP POP SWAP3 SWAP2 POP POP JUMP JUMPDEST PUSH0 DUP2 SWAP1 POP SWAP2 SWAP1 POP JUMP JUMPDEST PUSH2 0x2880 DUP2 PUSH2 0x286E JUMP JUMPDEST DUP2 EQ PUSH2 0x288A JUMPI PUSH0 DUP1 REVERT JUMPDEST POP JUMP JUMPDEST PUSH0 DUP2 CALLDATALOAD SWAP1 POP PUSH2 0x289B DUP2 PUSH2 0x2877 JUMP JUMPDEST SWAP3 SWAP2 POP POP JUMP JUMPDEST PUSH0 DUP2 SWAP1 POP SWAP2 SWAP1 POP JUMP JUMPDEST PUSH2 0x28B3 DUP2 PUSH2 0x28A1 JUMP JUMPDEST DUP2 EQ PUSH2 0x28BD JUMPI PUSH0 DUP1 REVERT JUMPDEST POP JUMP JUMPDEST PUSH0 DUP2 CALLDATALOAD SWAP1 POP PUSH2 0x28CE DUP2 PUSH2 0x28AA JUMP JUMPDEST SWAP3 SWAP2 POP POP JUMP JUMPDEST PUSH0 DUP1 PUSH0 DUP1 PUSH0 DUP1 PUSH0 PUSH1 0xE0 DUP9 DUP11 SUB SLT ISZERO PUSH2 0x28EF JUMPI PUSH2 0x28EE PUSH2 0x272A JUMP JUMPDEST JUMPDEST PUSH0 DUP9 ADD CALLDATALOAD PUSH8 0xFFFFFFFFFFFFFFFF DUP2 GT ISZERO PUSH2 0x290C JUMPI PUSH2 0x290B PUSH2 0x272E JUMP JUMPDEST JUMPDEST PUSH2 0x2918 DUP11 DUP3 DUP12 ADD PUSH2 0x2841 JUMP JUMPDEST SWAP8 POP POP PUSH1 0x20 PUSH2 0x2929 DUP11 DUP3 DUP12 ADD PUSH2 0x288D JUMP JUMPDEST SWAP7 POP POP PUSH1 0x40 PUSH2 0x293A DUP11 DUP3 DUP12 ADD PUSH2 0x28C0 JUMP JUMPDEST SWAP6 POP POP PUSH1 0x60 PUSH2 0x294B DUP11 DUP3 DUP12 ADD PUSH2 0x28C0 JUMP JUMPDEST SWAP5 POP POP PUSH1 0x80 PUSH2 0x295C DUP11 DUP3 DUP12 ADD PUSH2 0x28C0 JUMP JUMPDEST SWAP4 POP POP PUSH1 0xA0 PUSH2 0x296D DUP11 DUP3 DUP12 ADD PUSH2 0x28C0 JUMP JUMPDEST SWAP3 POP POP PUSH1 0xC0 PUSH2 0x297E DUP11 DUP3 DUP12 ADD PUSH2 0x28C0 JUMP JUMPDEST SWAP2 POP POP SWAP3 SWAP6 SWAP9 SWAP2 SWAP5 SWAP8 POP SWAP3 SWAP6 POP JUMP JUMPDEST PUSH2 0x2996 DUP2 PUSH2 0x286E JUMP JUMPDEST DUP3 MSTORE POP POP JUMP JUMPDEST PUSH0 PUSH1 0x20 DUP3 ADD SWAP1 POP PUSH2 0x29AF PUSH0 DUP4 ADD DUP5 PUSH2 0x298D JUMP JUMPDEST SWAP3 SWAP2 POP POP JUMP JUMPDEST PUSH0 PUSH20 0xFFFFFFFFFFFFFFFFFFFFFFFFFFFFFFFFFFFFFFFF DUP3 AND SWAP1 POP SWAP2 SWAP1 POP JUMP JUMPDEST PUSH0 DUP2 SWAP1 POP SWAP2 SWAP1 POP JUMP JUMPDEST PUSH0 PUSH2 0x29F7 PUSH2 0x29F2 PUSH2 0x29ED DUP5 PUSH2 0x29B5 JUMP JUMPDEST PUSH2 0x29D4 JUMP JUMPDEST PUSH2 0x29B5 JUMP JUMPDEST SWAP1 POP SWAP2 SWAP1 POP JUMP JUMPDEST PUSH0 PUSH2 0x2A08 DUP3 PUSH2 0x29DD JUMP JUMPDEST SWAP1 POP SWAP2 SWAP1 POP JUMP JUMPDEST PUSH0 PUSH2 0x2A19 DUP3 PUSH2 0x29FE JUMP JUMPDEST SWAP1 POP SWAP2 SWAP1 POP JUMP JUMPDEST PUSH2 0x2A29 DUP2 PUSH2 0x2A0F JUMP JUMPDEST DUP3 MSTORE POP POP JUMP JUMPDEST PUSH0 PUSH1 0x20 DUP3 ADD SWAP1 POP PUSH2 0x2A42 PUSH0 DUP4 ADD DUP5 PUSH2 0x2A20 JUMP JUMPDEST SWAP3 SWAP2 POP POP JUMP JUMPDEST PUSH0 DUP1 PUSH0 PUSH1 0x60 DUP5 DUP7 SUB SLT ISZERO PUSH2 0x2A5F JUMPI PUSH2 0x2A5E PUSH2 0x272A JUMP JUMPDEST JUMPDEST PUSH0 PUSH2 0x2A6C DUP7 DUP3 DUP8 ADD PUSH2 0x28C0 JUMP JUMPDEST SWAP4 POP POP PUSH1 0x20 PUSH2 0x2A7D DUP7 DUP3 DUP8 ADD PUSH2 0x288D JUMP JUMPDEST SWAP3 POP POP PUSH1 0x40 PUSH2 0x2A8E DUP7 DUP3 DUP8 ADD PUSH2 0x288D JUMP JUMPDEST SWAP2 POP POP SWAP3 POP SWAP3 POP SWAP3 JUMP JUMPDEST PUSH0 PUSH2 0x2AA2 DUP3 PUSH2 0x29FE JUMP JUMPDEST SWAP1 POP SWAP2 SWAP1 POP JUMP JUMPDEST PUSH2 0x2AB2 DUP2 PUSH2 0x2A98 JUMP JUMPDEST DUP3 MSTORE POP POP JUMP JUMPDEST PUSH0 PUSH1 0x20 DUP3 ADD SWAP1 POP PUSH2 0x2ACB PUSH0 DUP4 ADD DUP5 PUSH2 0x2AA9 JUMP JUMPDEST SWAP3 SWAP2 POP POP JUMP JUMPDEST PUSH0 DUP1 REVERT JUMPDEST PUSH0 DUP1 REVERT JUMPDEST PUSH0 DUP1 DUP4 PUSH1 0x1F DUP5 ADD SLT PUSH2 0x2AEE JUMPI PUSH2 0x2AED PUSH2 0x2732 JUMP JUMPDEST JUMPDEST DUP3 CALLDATALOAD SWAP1 POP PUSH8 0xFFFFFFFFFFFFFFFF DUP2 GT ISZERO PUSH2 0x2B0B JUMPI PUSH2 0x2B0A PUSH2 0x2AD1 JUMP JUMPDEST JUMPDEST PUSH1 0x20 DUP4 ADD SWAP2 POP DUP4 PUSH1 0x20 DUP3 MUL DUP4 ADD GT ISZERO PUSH2 0x2B27 JUMPI PUSH2 0x2B26 PUSH2 0x2AD5 JUMP JUMPDEST JUMPDEST SWAP3 POP SWAP3 SWAP1 POP JUMP JUMPDEST PUSH0 DUP1 PUSH0 PUSH1 0x40 DUP5 DUP7 SUB SLT ISZERO PUSH2 0x2B45 JUMPI PUSH2 0x2B44 PUSH2 0x272A JUMP JUMPDEST JUMPDEST PUSH0 PUSH2 0x2B52 DUP7 DUP3 DUP8 ADD PUSH2 0x28C0 JUMP JUMPDEST SWAP4 POP POP PUSH1 0x20 DUP5 ADD CALLDATALOAD PUSH8 0xFFFFFFFFFFFFFFFF DUP2 GT ISZERO PUSH2 0x2B73 JUMPI PUSH2 0x2B72 PUSH2 0x272E JUMP JUMPDEST JUMPDEST PUSH2 0x2B7F DUP7 DUP3 DUP8 ADD PUSH2 0x2AD9 JUMP JUMPDEST SWAP3 POP SWAP3 POP POP SWAP3 POP SWAP3 POP SWAP3 JUMP JUMPDEST PUSH0 PUSH2 0x2B95 DUP3 PUSH2 0x29B5 JUMP JUMPDEST SWAP1 POP SWAP2 SWAP1 POP JUMP JUMPDEST PUSH2 0x2BA5 DUP2 PUSH2 0x2B8B JUMP JUMPDEST DUP2 EQ PUSH2 0x2BAF JUMPI PUSH0 DUP1 REVERT JUMPDEST POP JUMP JUMPDEST PUSH0 DUP2 CALLDATALOAD SWAP1 POP PUSH2 0x2BC0 DUP2 PUSH2 0x2B9C JUMP JUMPDEST SWAP3 SWAP2 POP POP JUMP JUMPDEST PUSH0 PUSH1 0x20 DUP3 DUP5 SUB SLT ISZERO PUSH2 0x2BDB JUMPI PUSH2 0x2BDA PUSH2 0x272A JUMP JUMPDEST JUMPDEST PUSH0 PUSH2 0x2BE8 DUP5 DUP3 DUP6 ADD PUSH2 0x2BB2 JUMP JUMPDEST SWAP2 POP POP SWAP3 SWAP2 POP POP JUMP JUMPDEST PUSH2 0x2BFA DUP2 PUSH2 0x28A1 JUMP JUMPDEST DUP3 MSTORE POP POP JUMP JUMPDEST PUSH0 PUSH1 0x20 DUP3 ADD SWAP1 POP PUSH2 0x2C13 PUSH0 DUP4 ADD DUP5 PUSH2 0x2BF1 JUMP JUMPDEST SWAP3 SWAP2 POP POP JUMP JUMPDEST PUSH0 PUSH1 0x20 DUP3 DUP5 SUB SLT ISZERO PUSH2 0x2C2E JUMPI PUSH2 0x2C2D PUSH2 0x272A JUMP JUMPDEST JUMPDEST PUSH0 PUSH2 0x2C3B DUP5 DUP3 DUP6 ADD PUSH2 0x288D JUMP JUMPDEST SWAP2 POP POP SWAP3 SWAP2 POP POP JUMP JUMPDEST PUSH0 DUP1 PUSH1 0x40 DUP4 DUP6 SUB SLT ISZERO PUSH2 0x2C5A JUMPI PUSH2 0x2C59 PUSH2 0x272A JUMP JUMPDEST JUMPDEST PUSH0 PUSH2 0x2C67 DUP6 DUP3 DUP7 ADD PUSH2 0x28C0 JUMP JUMPDEST SWAP3 POP POP PUSH1 0x20 PUSH2 0x2C78 DUP6 DUP3 DUP7 ADD PUSH2 0x28C0 JUMP JUMPDEST SWAP2 POP POP SWAP3 POP SWAP3 SWAP1 POP JUMP JUMPDEST PUSH2 0x2C8B DUP2 PUSH2 0x2B8B JUMP JUMPDEST DUP3 MSTORE POP POP JUMP JUMPDEST PUSH0 PUSH1 0x20 DUP3 ADD SWAP1 POP PUSH2 0x2CA4 PUSH0 DUP4 ADD DUP5 PUSH2 0x2C82 JUMP JUMPDEST SWAP3 SWAP2 POP POP JUMP JUMPDEST PUSH0 PUSH2 0x2CB4 DUP3 PUSH2 0x29FE JUMP JUMPDEST SWAP1 POP SWAP2 SWAP1 POP JUMP JUMPDEST PUSH2 0x2CC4 DUP2 PUSH2 0x2CAA JUMP JUMPDEST DUP3 MSTORE POP POP JUMP JUMPDEST PUSH0 PUSH1 0x20 DUP3 ADD SWAP1 POP PUSH2 0x2CDD PUSH0 DUP4 ADD DUP5 PUSH2 0x2CBB JUMP JUMPDEST SWAP3 SWAP2 POP POP JUMP JUMPDEST PUSH0 PUSH1 0x20 DUP3 DUP5 SUB SLT ISZERO PUSH2 0x2CF8 JUMPI PUSH2 0x2CF7 PUSH2 0x272A JUMP JUMPDEST JUMPDEST PUSH0 PUSH2 0x2D05 DUP5 DUP3 DUP6 ADD PUSH2 0x28C0 JUMP JUMPDEST SWAP2 POP POP SWAP3 SWAP2 POP POP JUMP JUMPDEST PUSH0 DUP2 MLOAD SWAP1 POP SWAP2 SWAP1 POP JUMP JUMPDEST PUSH0 DUP3 DUP3 MSTORE PUSH1 0x20 DUP3 ADD SWAP1 POP SWAP3 SWAP2 POP POP JUMP JUMPDEST PUSH0 JUMPDEST DUP4 DUP2 LT ISZERO PUSH2 0x2D45 JUMPI DUP1 DUP3 ADD MLOAD DUP2 DUP5 ADD MSTORE PUSH1 0x20 DUP2 ADD SWAP1 POP PUSH2 0x2D2A JUMP JUMPDEST PUSH0 DUP5 DUP5 ADD MSTORE POP POP POP POP JUMP JUMPDEST PUSH0 PUSH2 0x2D5A DUP3 PUSH2 0x2D0E JUMP JUMPDEST PUSH2 0x2D64 DUP2 DUP6 PUSH2 0x2D18 JUMP JUMPDEST SWAP4 POP PUSH2 0x2D74 DUP2 DUP6 PUSH1 0x20 DUP7 ADD PUSH2 0x2D28 JUMP JUMPDEST PUSH2 0x2D7D DUP2 PUSH2 0x273A JUMP JUMPDEST DUP5 ADD SWAP2 POP POP SWAP3 SWAP2 POP POP JUMP JUMPDEST PUSH0 PUSH8 0xFFFFFFFFFFFFFFFF DUP3 AND SWAP1 POP SWAP2 SWAP1 POP JUMP JUMPDEST PUSH2 0x2DA4 DUP2 PUSH2 0x2D88 JUMP JUMPDEST DUP3 MSTORE POP POP JUMP JUMPDEST PUSH0 PUSH2 0x160 DUP3 ADD SWAP1 POP DUP2 DUP2 SUB PUSH0 DUP4 ADD MSTORE PUSH2 0x2DC3 DUP2 DUP15 PUSH2 0x2D50 JUMP JUMPDEST SWAP1 POP PUSH2 0x2DD2 PUSH1 0x20 DUP4 ADD DUP14 PUSH2 0x2BF1 JUMP JUMPDEST PUSH2 0x2DDF PUSH1 0x40 DUP4 ADD DUP13 PUSH2 0x2BF1 JUMP JUMPDEST PUSH2 0x2DEC PUSH1 0x60 DUP4 ADD DUP12 PUSH2 0x2BF1 JUMP JUMPDEST PUSH2 0x2DF9 PUSH1 0x80 DUP4 ADD DUP11 PUSH2 0x2BF1 JUMP JUMPDEST PUSH2 0x2E06 PUSH1 0xA0 DUP4 ADD DUP10 PUSH2 0x2BF1 JUMP JUMPDEST PUSH2 0x2E13 PUSH1 0xC0 DUP4 ADD DUP9 PUSH2 0x2BF1 JUMP JUMPDEST PUSH2 0x2E20 PUSH1 0xE0 DUP4 ADD DUP8 PUSH2 0x2BF1 JUMP JUMPDEST PUSH2 0x2E2E PUSH2 0x100 DUP4 ADD DUP7 PUSH2 0x2BF1 JUMP JUMPDEST PUSH2 0x2E3C PUSH2 0x120 DUP4 ADD DUP6 PUSH2 0x2D9B JUMP JUMPDEST PUSH2 0x2E4A PUSH2 0x140 DUP4 ADD DUP5 PUSH2 0x2C82 JUMP JUMPDEST SWAP13 SWAP12 POP POP POP POP POP POP POP POP POP POP POP POP JUMP JUMPDEST PUSH0 PUSH8 0xFFFFFFFFFFFFFFFF DUP3 GT ISZERO PUSH2 0x2E74 JUMPI PUSH2 0x2E73 PUSH2 0x274A JUMP JUMPDEST JUMPDEST PUSH2 0x2E7D DUP3 PUSH2 0x273A JUMP JUMPDEST SWAP1 POP PUSH1 0x20 DUP2 ADD SWAP1 POP SWAP2 SWAP1 POP JUMP JUMPDEST PUSH0 PUSH2 0x2E9C PUSH2 0x2E97 DUP5 PUSH2 0x2E5A JUMP JUMPDEST PUSH2 0x27A8 JUMP JUMPDEST SWAP1 POP DUP3 DUP2 MSTORE PUSH1 0x20 DUP2 ADD DUP5 DUP5 DUP5 ADD GT ISZERO PUSH2 0x2EB8 JUMPI PUSH2 0x2EB7 PUSH2 0x2736 JUMP JUMPDEST JUMPDEST PUSH2 0x2EC3 DUP5 DUP3 DUP6 PUSH2 0x27F2 JUMP JUMPDEST POP SWAP4 SWAP3 POP POP POP JUMP JUMPDEST PUSH0 DUP3 PUSH1 0x1F DUP4 ADD SLT PUSH2 0x2EDF JUMPI PUSH2 0x2EDE PUSH2 0x2732 JUMP JUMPDEST JUMPDEST DUP2 CALLDATALOAD PUSH2 0x2EEF DUP5 DUP3 PUSH1 0x20 DUP7 ADD PUSH2 0x2E8A JUMP JUMPDEST SWAP2 POP POP SWAP3 SWAP2 POP POP JUMP JUMPDEST PUSH0 DUP1 PUSH0 PUSH1 0x60 DUP5 DUP7 SUB SLT ISZERO PUSH2 0x2F0F JUMPI PUSH2 0x2F0E PUSH2 0x272A JUMP JUMPDEST JUMPDEST PUSH0 PUSH2 0x2F1C DUP7 DUP3 DUP8 ADD PUSH2 0x28C0 JUMP JUMPDEST SWAP4 POP POP PUSH1 0x20 DUP5 ADD CALLDATALOAD PUSH8 0xFFFFFFFFFFFFFFFF DUP2 GT ISZERO PUSH2 0x2F3D JUMPI PUSH2 0x2F3C PUSH2 0x272E JUMP JUMPDEST JUMPDEST PUSH2 0x2F49 DUP7 DUP3 DUP8 ADD PUSH2 0x2ECB JUMP JUMPDEST SWAP3 POP POP PUSH1 0x40 PUSH2 0x2F5A DUP7 DUP3 DUP8 ADD PUSH2 0x28C0 JUMP JUMPDEST SWAP2 POP POP SWAP3 POP SWAP3 POP SWAP3 JUMP JUMPDEST PUSH0 PUSH16 0xFFFFFFFFFFFFFFFFFFFFFFFFFFFFFFFF DUP3 AND SWAP1 POP SWAP2 SWAP1 POP JUMP JUMPDEST PUSH2 0x2F88 DUP2 PUSH2 0x2F64 JUMP JUMPDEST DUP2 EQ PUSH2 0x2F92 JUMPI PUSH0 DUP1 REVERT JUMPDEST POP JUMP JUMPDEST PUSH0 DUP2 MLOAD SWAP1 POP PUSH2 0x2FA3 DUP2 PUSH2 0x2F7F JUMP JUMPDEST SWAP3 SWAP2 POP POP JUMP JUMPDEST PUSH0 PUSH1 0x20 DUP3 DUP5 SUB SLT ISZERO PUSH2 0x2FBE JUMPI PUSH2 0x2FBD PUSH2 0x272A JUMP JUMPDEST JUMPDEST PUSH0 PUSH2 0x2FCB DUP5 DUP3 DUP6 ADD PUSH2 0x2F95 JUMP JUMPDEST SWAP2 POP POP SWAP3 SWAP2 POP POP JUMP JUMPDEST PUSH32 0x496E73756666696369656E742066656500000000000000000000000000000000 PUSH0 DUP3 ADD MSTORE POP JUMP JUMPDEST PUSH0 PUSH2 0x3008 PUSH1 0x10 DUP4 PUSH2 0x2D18 JUMP JUMPDEST SWAP2 POP PUSH2 0x3013 DUP3 PUSH2 0x2FD4 JUMP JUMPDEST PUSH1 0x20 DUP3 ADD SWAP1 POP SWAP2 SWAP1 POP JUMP JUMPDEST PUSH0 PUSH1 0x20 DUP3 ADD SWAP1 POP DUP2 DUP2 SUB PUSH0 DUP4 ADD MSTORE PUSH2 0x3035 DUP2 PUSH2 0x2FFC JUMP JUMPDEST SWAP1 POP SWAP2 SWAP1 POP JUMP JUMPDEST PUSH32 0x526F746174696F6E206379636C65206D75737420626520706F73697469766500 PUSH0 DUP3 ADD MSTORE POP JUMP JUMPDEST PUSH0 PUSH2 0x3070 PUSH1 0x1F DUP4 PUSH2 0x2D18 JUMP JUMPDEST SWAP2 POP PUSH2 0x307B DUP3 PUSH2 0x303C JUMP JUMPDEST PUSH1 0x20 DUP3 ADD SWAP1 POP SWAP2 SWAP1 POP JUMP JUMPDEST PUSH0 PUSH1 0x20 DUP3 ADD SWAP1 POP DUP2 DUP2 SUB PUSH0 DUP4 ADD MSTORE PUSH2 0x309D DUP2 PUSH2 0x3064 JUMP JUMPDEST SWAP1 POP SWAP2 SWAP1 POP JUMP JUMPDEST PUSH32 0x496E7465726573742064656E6F6D696E61746F72206D75737420626520706F73 PUSH0 DUP3 ADD MSTORE PUSH32 0x6974697665000000000000000000000000000000000000000000000000000000 PUSH1 0x20 DUP3 ADD MSTORE POP JUMP JUMPDEST PUSH0 PUSH2 0x30FE PUSH1 0x25 DUP4 PUSH2 0x2D18 JUMP JUMPDEST SWAP2 POP PUSH2 0x3109 DUP3 PUSH2 0x30A4 JUMP JUMPDEST PUSH1 0x40 DUP3 ADD SWAP1 POP SWAP2 SWAP1 POP JUMP JUMPDEST PUSH0 PUSH1 0x20 DUP3 ADD SWAP1 POP DUP2 DUP2 SUB PUSH0 DUP4 ADD MSTORE PUSH2 0x312B DUP2 PUSH2 0x30F2 JUMP JUMPDEST SWAP1 POP SWAP2 SWAP1 POP JUMP JUMPDEST PUSH32 0x4E756D657261746F72206D757374206265206C657373207468616E206F722065 PUSH0 DUP3 ADD MSTORE PUSH32 0x7175616C20746F2064656E6F6D696E61746F7200000000000000000000000000 PUSH1 0x20 DUP3 ADD MSTORE POP JUMP JUMPDEST PUSH0 PUSH2 0x318C PUSH1 0x33 DUP4 PUSH2 0x2D18 JUMP JUMPDEST SWAP2 POP PUSH2 0x3197 DUP3 PUSH2 0x3132 JUMP JUMPDEST PUSH1 0x40 DUP3 ADD SWAP1 POP SWAP2 SWAP1 POP JUMP JUMPDEST PUSH0 PUSH1 0x20 DUP3 ADD SWAP1 POP DUP2 DUP2 SUB PUSH0 DUP4 ADD MSTORE PUSH2 0x31B9 DUP2 PUSH2 0x3180 JUMP JUMPDEST SWAP1 POP SWAP2 SWAP1 POP JUMP JUMPDEST PUSH32 0x4E487B7100000000000000000000000000000000000000000000000000000000 PUSH0 MSTORE PUSH1 0x11 PUSH1 0x4 MSTORE PUSH1 0x24 PUSH0 REVERT JUMPDEST PUSH0 PUSH2 0x31F7 DUP3 PUSH2 0x28A1 JUMP JUMPDEST SWAP2 POP PUSH32 0xFFFFFFFFFFFFFFFFFFFFFFFFFFFFFFFFFFFFFFFFFFFFFFFFFFFFFFFFFFFFFFFF DUP3 SUB PUSH2 0x3229 JUMPI PUSH2 0x3228 PUSH2 0x31C0 JUMP JUMPDEST JUMPDEST PUSH1 0x1 DUP3 ADD SWAP1 POP SWAP2 SWAP1 POP JUMP JUMPDEST PUSH0 PUSH1 0x60 DUP3 ADD SWAP1 POP PUSH2 0x3247 PUSH0 DUP4 ADD DUP7 PUSH2 0x2C82 JUMP JUMPDEST PUSH2 0x3254 PUSH1 0x20 DUP4 ADD DUP6 PUSH2 0x2C82 JUMP JUMPDEST PUSH2 0x3261 PUSH1 0x40 DUP4 ADD DUP5 PUSH2 0x2BF1 JUMP JUMPDEST SWAP5 SWAP4 POP POP POP POP JUMP JUMPDEST PUSH0 DUP2 ISZERO ISZERO SWAP1 POP SWAP2 SWAP1 POP JUMP JUMPDEST PUSH2 0x327D DUP2 PUSH2 0x3269 JUMP JUMPDEST DUP2 EQ PUSH2 0x3287 JUMPI PUSH0 DUP1 REVERT JUMPDEST POP JUMP JUMPDEST PUSH0 DUP2 MLOAD SWAP1 POP PUSH2 0x3298 DUP2 PUSH2 0x3274 JUMP JUMPDEST SWAP3 SWAP2 POP POP JUMP JUMPDEST PUSH0 PUSH1 0x20 DUP3 DUP5 SUB SLT ISZERO PUSH2 0x32B3 JUMPI PUSH2 0x32B2 PUSH2 0x272A JUMP JUMPDEST JUMPDEST PUSH0 PUSH2 0x32C0 DUP5 DUP3 DUP6 ADD PUSH2 0x328A JUMP JUMPDEST SWAP2 POP POP SWAP3 SWAP2 POP POP JUMP JUMPDEST PUSH32 0x43726561746F722073686F756C64206465706F7369742074686520696E697469 PUSH0 DUP3 ADD MSTORE PUSH32 0x616C20616D6F756E740000000000000000000000000000000000000000000000 PUSH1 0x20 DUP3 ADD MSTORE POP JUMP JUMPDEST PUSH0 PUSH2 0x3323 PUSH1 0x29 DUP4 PUSH2 0x2D18 JUMP JUMPDEST SWAP2 POP PUSH2 0x332E DUP3 PUSH2 0x32C9 JUMP JUMPDEST PUSH1 0x40 DUP3 ADD SWAP1 POP SWAP2 SWAP1 POP JUMP JUMPDEST PUSH0 PUSH1 0x20 DUP3 ADD SWAP1 POP DUP2 DUP2 SUB PUSH0 DUP4 ADD MSTORE PUSH2 0x3350 DUP2 PUSH2 0x3317 JUMP JUMPDEST SWAP1 POP SWAP2 SWAP1 POP JUMP JUMPDEST PUSH2 0x3360 DUP2 PUSH2 0x3269 JUMP JUMPDEST DUP3 MSTORE POP POP JUMP JUMPDEST PUSH0 PUSH1 0x60 DUP3 ADD SWAP1 POP PUSH2 0x3379 PUSH0 DUP4 ADD DUP7 PUSH2 0x2C82 JUMP JUMPDEST PUSH2 0x3386 PUSH1 0x20 DUP4 ADD DUP6 PUSH2 0x298D JUMP JUMPDEST PUSH2 0x3393 PUSH1 0x40 DUP4 ADD DUP5 PUSH2 0x3357 JUMP JUMPDEST SWAP5 SWAP4 POP POP POP POP JUMP JUMPDEST PUSH2 0x33A4 DUP2 PUSH2 0x2D88 JUMP JUMPDEST DUP2 EQ PUSH2 0x33AE JUMPI PUSH0 DUP1 REVERT JUMPDEST POP JUMP JUMPDEST PUSH0 DUP2 MLOAD SWAP1 POP PUSH2 0x33BF DUP2 PUSH2 0x339B JUMP JUMPDEST SWAP3 SWAP2 POP POP JUMP JUMPDEST PUSH0 PUSH1 0x20 DUP3 DUP5 SUB SLT ISZERO PUSH2 0x33DA JUMPI PUSH2 0x33D9 PUSH2 0x272A JUMP JUMPDEST JUMPDEST PUSH0 PUSH2 0x33E7 DUP5 DUP3 DUP6 ADD PUSH2 0x33B1 JUMP JUMPDEST SWAP2 POP POP SWAP3 SWAP2 POP POP JUMP JUMPDEST PUSH32 0x4E487B7100000000000000000000000000000000000000000000000000000000 PUSH0 MSTORE PUSH1 0x22 PUSH1 0x4 MSTORE PUSH1 0x24 PUSH0 REVERT JUMPDEST PUSH0 PUSH1 0x2 DUP3 DIV SWAP1 POP PUSH1 0x1 DUP3 AND DUP1 PUSH2 0x3434 JUMPI PUSH1 0x7F DUP3 AND SWAP2 POP JUMPDEST PUSH1 0x20 DUP3 LT DUP2 SUB PUSH2 0x3447 JUMPI PUSH2 0x3446 PUSH2 0x33F0 JUMP JUMPDEST JUMPDEST POP SWAP2 SWAP1 POP JUMP JUMPDEST PUSH0 DUP2 SWAP1 POP DUP2 PUSH0 MSTORE PUSH1 0x20 PUSH0 KECCAK256 SWAP1 POP SWAP2 SWAP1 POP JUMP JUMPDEST PUSH0 PUSH1 0x20 PUSH1 0x1F DUP4 ADD DIV SWAP1 POP SWAP2 SWAP1 POP JUMP JUMPDEST PUSH0 DUP3 DUP3 SHL SWAP1 POP SWAP3 SWAP2 POP POP JUMP JUMPDEST PUSH0 PUSH1 0x8 DUP4 MUL PUSH2 0x34A9 PUSH32 0xFFFFFFFFFFFFFFFFFFFFFFFFFFFFFFFFFFFFFFFFFFFFFFFFFFFFFFFFFFFFFFFF DUP3 PUSH2 0x346E JUMP JUMPDEST PUSH2 0x34B3 DUP7 DUP4 PUSH2 0x346E JUMP JUMPDEST SWAP6 POP DUP1 NOT DUP5 AND SWAP4 POP DUP1 DUP7 AND DUP5 OR SWAP3 POP POP POP SWAP4 SWAP3 POP POP POP JUMP JUMPDEST PUSH0 PUSH2 0x34E5 PUSH2 0x34E0 PUSH2 0x34DB DUP5 PUSH2 0x28A1 JUMP JUMPDEST PUSH2 0x29D4 JUMP JUMPDEST PUSH2 0x28A1 JUMP JUMPDEST SWAP1 POP SWAP2 SWAP1 POP JUMP JUMPDEST PUSH0 DUP2 SWAP1 POP SWAP2 SWAP1 POP JUMP JUMPDEST PUSH2 0x34FE DUP4 PUSH2 0x34CB JUMP JUMPDEST PUSH2 0x3512 PUSH2 0x350A DUP3 PUSH2 0x34EC JUMP JUMPDEST DUP5 DUP5 SLOAD PUSH2 0x347A JUMP JUMPDEST DUP3 SSTORE POP POP POP POP JUMP JUMPDEST PUSH0 SWAP1 JUMP JUMPDEST PUSH2 0x3526 PUSH2 0x351A JUMP JUMPDEST PUSH2 0x3531 DUP2 DUP5 DUP5 PUSH2 0x34F5 JUMP JUMPDEST POP POP POP JUMP JUMPDEST JUMPDEST DUP2 DUP2 LT ISZERO PUSH2 0x3554 JUMPI PUSH2 0x3549 PUSH0 DUP3 PUSH2 0x351E JUMP JUMPDEST PUSH1 0x1 DUP2 ADD SWAP1 POP PUSH2 0x3537 JUMP JUMPDEST POP POP JUMP JUMPDEST PUSH1 0x1F DUP3 GT ISZERO PUSH2 0x3599 JUMPI PUSH2 0x356A DUP2 PUSH2 0x344D JUMP JUMPDEST PUSH2 0x3573 DUP5 PUSH2 0x345F JUMP JUMPDEST DUP2 ADD PUSH1 0x20 DUP6 LT ISZERO PUSH2 0x3582 JUMPI DUP2 SWAP1 POP JUMPDEST PUSH2 0x3596 PUSH2 0x358E DUP6 PUSH2 0x345F JUMP JUMPDEST DUP4 ADD DUP3 PUSH2 0x3536 JUMP JUMPDEST POP POP JUMPDEST POP POP POP JUMP JUMPDEST PUSH0 DUP3 DUP3 SHR SWAP1 POP SWAP3 SWAP2 POP POP JUMP JUMPDEST PUSH0 PUSH2 0x35B9 PUSH0 NOT DUP5 PUSH1 0x8 MUL PUSH2 0x359E JUMP JUMPDEST NOT DUP1 DUP4 AND SWAP2 POP POP SWAP3 SWAP2 POP POP JUMP JUMPDEST PUSH0 PUSH2 0x35D1 DUP4 DUP4 PUSH2 0x35AA JUMP JUMPDEST SWAP2 POP DUP3 PUSH1 0x2 MUL DUP3 OR SWAP1 POP SWAP3 SWAP2 POP POP JUMP JUMPDEST PUSH2 0x35EA DUP3 PUSH2 0x2D0E JUMP JUMPDEST PUSH8 0xFFFFFFFFFFFFFFFF DUP2 GT ISZERO PUSH2 0x3603 JUMPI PUSH2 0x3602 PUSH2 0x274A JUMP JUMPDEST JUMPDEST PUSH2 0x360D DUP3 SLOAD PUSH2 0x341D JUMP JUMPDEST PUSH2 0x3618 DUP3 DUP3 DUP6 PUSH2 0x3558 JUMP JUMPDEST PUSH0 PUSH1 0x20 SWAP1 POP PUSH1 0x1F DUP4 GT PUSH1 0x1 DUP2 EQ PUSH2 0x3649 JUMPI PUSH0 DUP5 ISZERO PUSH2 0x3637 JUMPI DUP3 DUP8 ADD MLOAD SWAP1 POP JUMPDEST PUSH2 0x3641 DUP6 DUP3 PUSH2 0x35C6 JUMP JUMPDEST DUP7 SSTORE POP PUSH2 0x36A8 JUMP JUMPDEST PUSH1 0x1F NOT DUP5 AND PUSH2 0x3657 DUP7 PUSH2 0x344D JUMP JUMPDEST PUSH0 JUMPDEST DUP3 DUP2 LT ISZERO PUSH2 0x367E JUMPI DUP5 DUP10 ADD MLOAD DUP3 SSTORE PUSH1 0x1 DUP3 ADD SWAP2 POP PUSH1 0x20 DUP6 ADD SWAP5 POP PUSH1 0x20 DUP2 ADD SWAP1 POP PUSH2 0x3659 JUMP JUMPDEST DUP7 DUP4 LT ISZERO PUSH2 0x369B JUMPI DUP5 DUP10 ADD MLOAD PUSH2 0x3697 PUSH1 0x1F DUP10 AND DUP3 PUSH2 0x35AA JUMP JUMPDEST DUP4 SSTORE POP JUMPDEST PUSH1 0x1 PUSH1 0x2 DUP9 MUL ADD DUP9 SSTORE POP POP POP JUMPDEST POP POP POP POP POP POP JUMP JUMPDEST PUSH0 PUSH2 0x120 DUP3 ADD SWAP1 POP PUSH2 0x36C4 PUSH0 DUP4 ADD DUP13 PUSH2 0x2BF1 JUMP JUMPDEST DUP2 DUP2 SUB PUSH1 0x20 DUP4 ADD MSTORE PUSH2 0x36D6 DUP2 DUP12 PUSH2 0x2D50 JUMP JUMPDEST SWAP1 POP PUSH2 0x36E5 PUSH1 0x40 DUP4 ADD DUP11 PUSH2 0x2C82 JUMP JUMPDEST PUSH2 0x36F2 PUSH1 0x60 DUP4 ADD DUP10 PUSH2 0x2BF1 JUMP JUMPDEST PUSH2 0x36FF PUSH1 0x80 DUP4 ADD DUP9 PUSH2 0x2BF1 JUMP JUMPDEST PUSH2 0x370C PUSH1 0xA0 DUP4 ADD DUP8 PUSH2 0x2BF1 JUMP JUMPDEST PUSH2 0x3719 PUSH1 0xC0 DUP4 ADD DUP7 PUSH2 0x2BF1 JUMP JUMPDEST PUSH2 0x3726 PUSH1 0xE0 DUP4 ADD DUP6 PUSH2 0x2BF1 JUMP JUMPDEST PUSH2 0x3734 PUSH2 0x100 DUP4 ADD DUP5 PUSH2 0x2D9B JUMP JUMPDEST SWAP11 SWAP10 POP POP POP POP POP POP POP POP POP POP JUMP JUMPDEST PUSH32 0x4F6E6C792074686520706F742063726561746F722063616E2072657665616C20 PUSH0 DUP3 ADD MSTORE PUSH32 0x7468652077696E6E657200000000000000000000000000000000000000000000 PUSH1 0x20 DUP3 ADD MSTORE POP JUMP JUMPDEST PUSH0 PUSH2 0x379C PUSH1 0x2A DUP4 PUSH2 0x2D18 JUMP JUMPDEST SWAP2 POP PUSH2 0x37A7 DUP3 PUSH2 0x3742 JUMP JUMPDEST PUSH1 0x40 DUP3 ADD SWAP1 POP SWAP2 SWAP1 POP JUMP JUMPDEST PUSH0 PUSH1 0x20 DUP3 ADD SWAP1 POP DUP2 DUP2 SUB PUSH0 DUP4 ADD MSTORE PUSH2 0x37C9 DUP2 PUSH2 0x3790 JUMP JUMPDEST SWAP1 POP SWAP2 SWAP1 POP JUMP JUMPDEST PUSH0 PUSH2 0x37DA DUP3 PUSH2 0x28A1 JUMP JUMPDEST SWAP2 POP PUSH2 0x37E5 DUP4 PUSH2 0x28A1 JUMP JUMPDEST SWAP3 POP DUP3 DUP3 ADD SWAP1 POP DUP1 DUP3 GT ISZERO PUSH2 0x37FD JUMPI PUSH2 0x37FC PUSH2 0x31C0 JUMP JUMPDEST JUMPDEST SWAP3 SWAP2 POP POP JUMP JUMPDEST PUSH32 0x4E65787420726F746174696F6E206E6F74207965742064756500000000000000 PUSH0 DUP3 ADD MSTORE POP JUMP JUMPDEST PUSH0 PUSH2 0x3837 PUSH1 0x19 DUP4 PUSH2 0x2D18 JUMP JUMPDEST SWAP2 POP PUSH2 0x3842 DUP3 PUSH2 0x3803 JUMP JUMPDEST PUSH1 0x20 DUP3 ADD SWAP1 POP SWAP2 SWAP1 POP JUMP JUMPDEST PUSH0 PUSH1 0x20 DUP3 ADD SWAP1 POP DUP2 DUP2 SUB PUSH0 DUP4 ADD MSTORE PUSH2 0x3864 DUP2 PUSH2 0x382B JUMP JUMPDEST SWAP1 POP SWAP2 SWAP1 POP JUMP JUMPDEST PUSH0 PUSH1 0x80 DUP3 ADD SWAP1 POP PUSH2 0x387E PUSH0 DUP4 ADD DUP8 PUSH2 0x2C82 JUMP JUMPDEST PUSH2 0x388B PUSH1 0x20 DUP4 ADD DUP7 PUSH2 0x2D9B JUMP JUMPDEST PUSH2 0x3898 PUSH1 0x40 DUP4 ADD DUP6 PUSH2 0x298D JUMP JUMPDEST PUSH2 0x38A5 PUSH1 0x60 DUP4 ADD DUP5 PUSH2 0x298D JUMP JUMPDEST SWAP6 SWAP5 POP POP POP POP POP JUMP JUMPDEST PUSH0 DUP2 MLOAD SWAP1 POP PUSH2 0x38BC DUP2 PUSH2 0x2877 JUMP JUMPDEST SWAP3 SWAP2 POP POP JUMP JUMPDEST PUSH0 PUSH1 0x20 DUP3 DUP5 SUB SLT ISZERO PUSH2 0x38D7 JUMPI PUSH2 0x38D6 PUSH2 0x272A JUMP JUMPDEST JUMPDEST PUSH0 PUSH2 0x38E4 DUP5 DUP3 DUP6 ADD PUSH2 0x38AE JUMP JUMPDEST SWAP2 POP POP SWAP3 SWAP2 POP POP JUMP JUMPDEST PUSH32 0x4E487B7100000000000000000000000000000000000000000000000000000000 PUSH0 MSTORE PUSH1 0x12 PUSH1 0x4 MSTORE PUSH1 0x24 PUSH0 REVERT JUMPDEST PUSH0 PUSH2 0x3924 DUP3 PUSH2 0x28A1 JUMP JUMPDEST SWAP2 POP PUSH2 0x392F DUP4 PUSH2 0x28A1 JUMP JUMPDEST SWAP3 POP DUP3 PUSH2 0x393F JUMPI PUSH2 0x393E PUSH2 0x38ED JUMP JUMPDEST JUMPDEST DUP3 DUP3 MOD SWAP1 POP SWAP3 SWAP2 POP POP JUMP JUMPDEST PUSH32 0x4E487B7100000000000000000000000000000000000000000000000000000000 PUSH0 MSTORE PUSH1 0x32 PUSH1 0x4 MSTORE PUSH1 0x24 PUSH0 REVERT JUMPDEST PUSH0 PUSH2 0x3981 DUP3 PUSH2 0x28A1 JUMP JUMPDEST SWAP2 POP PUSH2 0x398C DUP4 PUSH2 0x28A1 JUMP JUMPDEST SWAP3 POP DUP3 DUP3 SUB SWAP1 POP DUP2 DUP2 GT ISZERO PUSH2 0x39A4 JUMPI PUSH2 0x39A3 PUSH2 0x31C0 JUMP JUMPDEST JUMPDEST SWAP3 SWAP2 POP POP JUMP JUMPDEST PUSH32 0x4E487B7100000000000000000000000000000000000000000000000000000000 PUSH0 MSTORE PUSH1 0x31 PUSH1 0x4 MSTORE PUSH1 0x24 PUSH0 REVERT JUMPDEST PUSH0 PUSH2 0x39E1 DUP3 PUSH2 0x28A1 JUMP JUMPDEST SWAP2 POP PUSH2 0x39EC DUP4 PUSH2 0x28A1 JUMP JUMPDEST SWAP3 POP DUP3 DUP3 MUL PUSH2 0x39FA DUP2 PUSH2 0x28A1 JUMP JUMPDEST SWAP2 POP DUP3 DUP3 DIV DUP5 EQ DUP4 ISZERO OR PUSH2 0x3A11 JUMPI PUSH2 0x3A10 PUSH2 0x31C0 JUMP JUMPDEST JUMPDEST POP SWAP3 SWAP2 POP POP JUMP JUMPDEST PUSH0 PUSH1 0x60 DUP3 ADD SWAP1 POP PUSH2 0x3A2B PUSH0 DUP4 ADD DUP7 PUSH2 0x2BF1 JUMP JUMPDEST PUSH2 0x3A38 PUSH1 0x20 DUP4 ADD DUP6 PUSH2 0x2C82 JUMP JUMPDEST PUSH2 0x3A45 PUSH1 0x40 DUP4 ADD DUP5 PUSH2 0x2BF1 JUMP JUMPDEST SWAP5 SWAP4 POP POP POP POP JUMP JUMPDEST PUSH0 DUP2 MLOAD SWAP1 POP PUSH2 0x3A5B DUP2 PUSH2 0x28AA JUMP JUMPDEST SWAP3 SWAP2 POP POP JUMP JUMPDEST PUSH0 PUSH1 0x20 DUP3 DUP5 SUB SLT ISZERO PUSH2 0x3A76 JUMPI PUSH2 0x3A75 PUSH2 0x272A JUMP JUMPDEST JUMPDEST PUSH0 PUSH2 0x3A83 DUP5 DUP3 DUP6 ADD PUSH2 0x3A4D JUMP JUMPDEST SWAP2 POP POP SWAP3 SWAP2 POP POP JUMP JUMPDEST PUSH0 PUSH1 0x40 DUP3 ADD SWAP1 POP PUSH2 0x3A9F PUSH0 DUP4 ADD DUP6 PUSH2 0x2C82 JUMP JUMPDEST PUSH2 0x3AAC PUSH1 0x20 DUP4 ADD DUP5 PUSH2 0x2BF1 JUMP JUMPDEST SWAP4 SWAP3 POP POP POP JUMP JUMPDEST PUSH32 0x4E6F20726576656E756520746F20776974686472617700000000000000000000 PUSH0 DUP3 ADD MSTORE POP JUMP JUMPDEST PUSH0 PUSH2 0x3AE7 PUSH1 0x16 DUP4 PUSH2 0x2D18 JUMP JUMPDEST SWAP2 POP PUSH2 0x3AF2 DUP3 PUSH2 0x3AB3 JUMP JUMPDEST PUSH1 0x20 DUP3 ADD SWAP1 POP SWAP2 SWAP1 POP JUMP JUMPDEST PUSH0 PUSH1 0x20 DUP3 ADD SWAP1 POP DUP2 DUP2 SUB PUSH0 DUP4 ADD MSTORE PUSH2 0x3B14 DUP2 PUSH2 0x3ADB JUMP JUMPDEST SWAP1 POP SWAP2 SWAP1 POP JUMP JUMPDEST PUSH32 0x526576656E7565207769746864726177616C206661696C656400000000000000 PUSH0 DUP3 ADD MSTORE POP JUMP JUMPDEST PUSH0 PUSH2 0x3B4F PUSH1 0x19 DUP4 PUSH2 0x2D18 JUMP JUMPDEST SWAP2 POP PUSH2 0x3B5A DUP3 PUSH2 0x3B1B JUMP JUMPDEST PUSH1 0x20 DUP3 ADD SWAP1 POP SWAP2 SWAP1 POP JUMP JUMPDEST PUSH0 PUSH1 0x20 DUP3 ADD SWAP1 POP DUP2 DUP2 SUB PUSH0 DUP4 ADD MSTORE PUSH2 0x3B7C DUP2 PUSH2 0x3B43 JUMP JUMPDEST SWAP1 POP SWAP2 SWAP1 POP JUMP JUMPDEST PUSH0 DUP2 PUSH1 0x60 SHL SWAP1 POP SWAP2 SWAP1 POP JUMP JUMPDEST PUSH0 PUSH2 0x3B99 DUP3 PUSH2 0x3B83 JUMP JUMPDEST SWAP1 POP SWAP2 SWAP1 POP JUMP JUMPDEST PUSH0 PUSH2 0x3BAA DUP3 PUSH2 0x3B8F JUMP JUMPDEST SWAP1 POP SWAP2 SWAP1 POP JUMP JUMPDEST PUSH2 0x3BC2 PUSH2 0x3BBD DUP3 PUSH2 0x2B8B JUMP JUMPDEST PUSH2 0x3BA0 JUMP JUMPDEST DUP3 MSTORE POP POP JUMP JUMPDEST PUSH0 DUP2 SWAP1 POP SWAP2 SWAP1 POP JUMP JUMPDEST PUSH2 0x3BE2 PUSH2 0x3BDD DUP3 PUSH2 0x28A1 JUMP JUMPDEST PUSH2 0x3BC8 JUMP JUMPDEST DUP3 MSTORE POP POP JUMP JUMPDEST PUSH0 PUSH2 0x3BF3 DUP3 DUP6 PUSH2 0x3BB1 JUMP JUMPDEST PUSH1 0x14 DUP3 ADD SWAP2 POP PUSH2 0x3C03 DUP3 DUP5 PUSH2 0x3BD1 JUMP JUMPDEST PUSH1 0x20 DUP3 ADD SWAP2 POP DUP2 SWAP1 POP SWAP4 SWAP3 POP POP POP JUMP JUMPDEST PUSH32 0x496E76616C69642070726F6F662E000000000000000000000000000000000000 PUSH0 DUP3 ADD MSTORE POP JUMP JUMPDEST PUSH0 PUSH2 0x3C47 PUSH1 0xE DUP4 PUSH2 0x2D18 JUMP JUMPDEST SWAP2 POP PUSH2 0x3C52 DUP3 PUSH2 0x3C13 JUMP JUMPDEST PUSH1 0x20 DUP3 ADD SWAP1 POP SWAP2 SWAP1 POP JUMP JUMPDEST PUSH0 PUSH1 0x20 DUP3 ADD SWAP1 POP DUP2 DUP2 SUB PUSH0 DUP4 ADD MSTORE PUSH2 0x3C74 DUP2 PUSH2 0x3C3B JUMP JUMPDEST SWAP1 POP SWAP2 SWAP1 POP JUMP JUMPDEST PUSH32 0x4E6F2066756E6473206C65667420746F20636C61696D206F7220616C72656164 PUSH0 DUP3 ADD MSTORE PUSH32 0x7920636C61696D65642E00000000000000000000000000000000000000000000 PUSH1 0x20 DUP3 ADD MSTORE POP JUMP JUMPDEST PUSH0 PUSH2 0x3CD5 PUSH1 0x2A DUP4 PUSH2 0x2D18 JUMP JUMPDEST SWAP2 POP PUSH2 0x3CE0 DUP3 PUSH2 0x3C7B JUMP JUMPDEST PUSH1 0x40 DUP3 ADD SWAP1 POP SWAP2 SWAP1 POP JUMP JUMPDEST PUSH0 PUSH1 0x20 DUP3 ADD SWAP1 POP DUP2 DUP2 SUB PUSH0 DUP4 ADD MSTORE PUSH2 0x3D02 DUP2 PUSH2 0x3CC9 JUMP JUMPDEST SWAP1 POP SWAP2 SWAP1 POP JUMP JUMPDEST PUSH32 0x5969656C64207472616E73666572206661696C65640000000000000000000000 PUSH0 DUP3 ADD MSTORE POP JUMP JUMPDEST PUSH0 PUSH2 0x3D3D PUSH1 0x15 DUP4 PUSH2 0x2D18 JUMP JUMPDEST SWAP2 POP PUSH2 0x3D48 DUP3 PUSH2 0x3D09 JUMP JUMPDEST PUSH1 0x20 DUP3 ADD SWAP1 POP SWAP2 SWAP1 POP JUMP JUMPDEST PUSH0 PUSH1 0x20 DUP3 ADD SWAP1 POP DUP2 DUP2 SUB PUSH0 DUP4 ADD MSTORE PUSH2 0x3D6A DUP2 PUSH2 0x3D31 JUMP JUMPDEST SWAP1 POP SWAP2 SWAP1 POP JUMP JUMPDEST PUSH0 PUSH1 0x40 DUP3 ADD SWAP1 POP PUSH2 0x3D84 PUSH0 DUP4 ADD DUP6 PUSH2 0x2C82 JUMP JUMPDEST PUSH2 0x3D91 PUSH1 0x20 DUP4 ADD DUP5 PUSH2 0x2C82 JUMP JUMPDEST SWAP4 SWAP3 POP POP POP JUMP JUMPDEST PUSH0 PUSH2 0x3DA2 DUP3 PUSH2 0x28A1 JUMP JUMPDEST SWAP2 POP PUSH2 0x3DAD DUP4 PUSH2 0x28A1 JUMP JUMPDEST SWAP3 POP DUP3 PUSH2 0x3DBD JUMPI PUSH2 0x3DBC PUSH2 0x38ED JUMP JUMPDEST JUMPDEST DUP3 DUP3 DIV SWAP1 POP SWAP3 SWAP2 POP POP JUMP JUMPDEST PUSH32 0x4F6E6C7920746865206F776E65722063616E20696E697469616C697A65000000 PUSH0 DUP3 ADD MSTORE POP JUMP JUMPDEST PUSH0 PUSH2 0x3DFC PUSH1 0x1D DUP4 PUSH2 0x2D18 JUMP JUMPDEST SWAP2 POP PUSH2 0x3E07 DUP3 PUSH2 0x3DC8 JUMP JUMPDEST PUSH1 0x20 DUP3 ADD SWAP1 POP SWAP2 SWAP1 POP JUMP JUMPDEST PUSH0 PUSH1 0x20 DUP3 ADD SWAP1 POP DUP2 DUP2 SUB PUSH0 DUP4 ADD MSTORE PUSH2 0x3E29 DUP2 PUSH2 0x3DF0 JUMP JUMPDEST SWAP1 POP SWAP2 SWAP1 POP JUMP JUMPDEST PUSH0 DUP2 SWAP1 POP SWAP2 SWAP1 POP JUMP JUMPDEST PUSH0 PUSH2 0x3E53 PUSH2 0x3E4E PUSH2 0x3E49 DUP5 PUSH2 0x3E30 JUMP JUMPDEST PUSH2 0x29D4 JUMP JUMPDEST PUSH2 0x2D88 JUMP JUMPDEST SWAP1 POP SWAP2 SWAP1 POP JUMP JUMPDEST PUSH2 0x3E63 DUP2 PUSH2 0x3E39 JUMP JUMPDEST DUP3 MSTORE POP POP JUMP JUMPDEST PUSH0 PUSH1 0x20 DUP3 ADD SWAP1 POP PUSH2 0x3E7C PUSH0 DUP4 ADD DUP5 PUSH2 0x3E5A JUMP JUMPDEST SWAP3 SWAP2 POP POP JUMP JUMPDEST PUSH32 0x4E6F2072657761726420746F20636C61696D0000000000000000000000000000 PUSH0 DUP3 ADD MSTORE POP JUMP JUMPDEST PUSH0 PUSH2 0x3EB6 PUSH1 0x12 DUP4 PUSH2 0x2D18 JUMP JUMPDEST SWAP2 POP PUSH2 0x3EC1 DUP3 PUSH2 0x3E82 JUMP JUMPDEST PUSH1 0x20 DUP3 ADD SWAP1 POP SWAP2 SWAP1 POP JUMP JUMPDEST PUSH0 PUSH1 0x20 DUP3 ADD SWAP1 POP DUP2 DUP2 SUB PUSH0 DUP4 ADD MSTORE PUSH2 0x3EE3 DUP2 PUSH2 0x3EAA JUMP JUMPDEST SWAP1 POP SWAP2 SWAP1 POP JUMP JUMPDEST PUSH32 0x5472616E73666572206661696C65640000000000000000000000000000000000 PUSH0 DUP3 ADD MSTORE POP JUMP JUMPDEST PUSH0 PUSH2 0x3F1E PUSH1 0xF DUP4 PUSH2 0x2D18 JUMP JUMPDEST SWAP2 POP PUSH2 0x3F29 DUP3 PUSH2 0x3EEA JUMP JUMPDEST PUSH1 0x20 DUP3 ADD SWAP1 POP SWAP2 SWAP1 POP JUMP JUMPDEST PUSH0 PUSH1 0x20 DUP3 ADD SWAP1 POP DUP2 DUP2 SUB PUSH0 DUP4 ADD MSTORE PUSH2 0x3F4B DUP2 PUSH2 0x3F12 JUMP JUMPDEST SWAP1 POP SWAP2 SWAP1 POP JUMP JUMPDEST PUSH32 0x506F742069732066756C6C000000000000000000000000000000000000000000 PUSH0 DUP3 ADD MSTORE POP JUMP JUMPDEST PUSH0 PUSH2 0x3F86 PUSH1 0xB DUP4 PUSH2 0x2D18 JUMP JUMPDEST SWAP2 POP PUSH2 0x3F91 DUP3 PUSH2 0x3F52 JUMP JUMPDEST PUSH1 0x20 DUP3 ADD SWAP1 POP SWAP2 SWAP1 POP JUMP JUMPDEST PUSH0 PUSH1 0x20 DUP3 ADD SWAP1 POP DUP2 DUP2 SUB PUSH0 DUP4 ADD MSTORE PUSH2 0x3FB3 DUP2 PUSH2 0x3F7A JUMP JUMPDEST SWAP1 POP SWAP2 SWAP1 POP JUMP JUMPDEST PUSH0 PUSH2 0x3FC5 DUP3 DUP8 PUSH2 0x3BD1 JUMP JUMPDEST PUSH1 0x20 DUP3 ADD SWAP2 POP PUSH2 0x3FD5 DUP3 DUP7 PUSH2 0x3BB1 JUMP JUMPDEST PUSH1 0x14 DUP3 ADD SWAP2 POP PUSH2 0x3FE5 DUP3 DUP6 PUSH2 0x3BD1 JUMP JUMPDEST PUSH1 0x20 DUP3 ADD SWAP2 POP PUSH2 0x3FF5 DUP3 DUP5 PUSH2 0x3BD1 JUMP JUMPDEST PUSH1 0x20 DUP3 ADD SWAP2 POP DUP2 SWAP1 POP SWAP6 SWAP5 POP POP POP POP POP JUMP JUMPDEST PUSH32 0x5369676E617475726520766572696669636174696F6E206661696C6564000000 PUSH0 DUP3 ADD MSTORE POP JUMP JUMPDEST PUSH0 PUSH2 0x403B PUSH1 0x1D DUP4 PUSH2 0x2D18 JUMP JUMPDEST SWAP2 POP PUSH2 0x4046 DUP3 PUSH2 0x4007 JUMP JUMPDEST PUSH1 0x20 DUP3 ADD SWAP1 POP SWAP2 SWAP1 POP JUMP JUMPDEST PUSH0 PUSH1 0x20 DUP3 ADD SWAP1 POP DUP2 DUP2 SUB PUSH0 DUP4 ADD MSTORE PUSH2 0x4068 DUP2 PUSH2 0x402F JUMP JUMPDEST SWAP1 POP SWAP2 SWAP1 POP JUMP JUMPDEST PUSH0 DUP2 SLOAD PUSH2 0x407B DUP2 PUSH2 0x341D JUMP JUMPDEST PUSH2 0x4085 DUP2 DUP7 PUSH2 0x2D18 JUMP JUMPDEST SWAP5 POP PUSH1 0x1 DUP3 AND PUSH0 DUP2 EQ PUSH2 0x409F JUMPI PUSH1 0x1 DUP2 EQ PUSH2 0x40B5 JUMPI PUSH2 0x40E7 JUMP JUMPDEST PUSH1 0xFF NOT DUP4 AND DUP7 MSTORE DUP2 ISZERO ISZERO PUSH1 0x20 MUL DUP7 ADD SWAP4 POP PUSH2 0x40E7 JUMP JUMPDEST PUSH2 0x40BE DUP6 PUSH2 0x344D JUMP JUMPDEST PUSH0 JUMPDEST DUP4 DUP2 LT ISZERO PUSH2 0x40DF JUMPI DUP2 SLOAD DUP2 DUP10 ADD MSTORE PUSH1 0x1 DUP3 ADD SWAP2 POP PUSH1 0x20 DUP2 ADD SWAP1 POP PUSH2 0x40C0 JUMP JUMPDEST DUP1 DUP9 ADD SWAP6 POP POP POP JUMPDEST POP POP POP SWAP3 SWAP2 POP POP JUMP JUMPDEST PUSH0 PUSH2 0x100 DUP3 ADD SWAP1 POP PUSH2 0x4104 PUSH0 DUP4 ADD DUP12 PUSH2 0x2BF1 JUMP JUMPDEST DUP2 DUP2 SUB PUSH1 0x20 DUP4 ADD MSTORE PUSH2 0x4116 DUP2 DUP11 PUSH2 0x406F JUMP JUMPDEST SWAP1 POP PUSH2 0x4125 PUSH1 0x40 DUP4 ADD DUP10 PUSH2 0x2C82 JUMP JUMPDEST PUSH2 0x4132 PUSH1 0x60 DUP4 ADD DUP9 PUSH2 0x2BF1 JUMP JUMPDEST PUSH2 0x413F PUSH1 0x80 DUP4 ADD DUP8 PUSH2 0x2BF1 JUMP JUMPDEST PUSH2 0x414C PUSH1 0xA0 DUP4 ADD DUP7 PUSH2 0x2BF1 JUMP JUMPDEST PUSH2 0x4159 PUSH1 0xC0 DUP4 ADD DUP6 PUSH2 0x2BF1 JUMP JUMPDEST PUSH2 0x4166 PUSH1 0xE0 DUP4 ADD DUP5 PUSH2 0x2BF1 JUMP JUMPDEST SWAP10 SWAP9 POP POP POP POP POP POP POP POP POP JUMP JUMPDEST PUSH32 0x4E487B7100000000000000000000000000000000000000000000000000000000 PUSH0 MSTORE PUSH1 0x21 PUSH1 0x4 MSTORE PUSH1 0x24 PUSH0 REVERT JUMPDEST PUSH0 PUSH1 0xFF DUP3 AND SWAP1 POP SWAP2 SWAP1 POP JUMP JUMPDEST PUSH2 0x41B5 DUP2 PUSH2 0x41A0 JUMP JUMPDEST DUP3 MSTORE POP POP JUMP JUMPDEST PUSH0 PUSH1 0x80 DUP3 ADD SWAP1 POP PUSH2 0x41CE PUSH0 DUP4 ADD DUP8 PUSH2 0x298D JUMP JUMPDEST PUSH2 0x41DB PUSH1 0x20 DUP4 ADD DUP7 PUSH2 0x41AC JUMP JUMPDEST PUSH2 0x41E8 PUSH1 0x40 DUP4 ADD DUP6 PUSH2 0x298D JUMP JUMPDEST PUSH2 0x41F5 PUSH1 0x60 DUP4 ADD DUP5 PUSH2 0x298D JUMP JUMPDEST SWAP6 SWAP5 POP POP POP POP POP JUMP INVALID LOG2 PUSH5 0x6970667358 0x22 SLT KECCAK256 CALLDATALOAD 0x24 PUSH5 0xA00EC37C95 DUP5 SUB 0x23 0xC4 0xE 0xEC SWAP12 BALANCE 0xE9 SHL PUSH15 0xB8D0709F289CB52E5EA947EB66473 PUSH16 0x6C634300081800330000000000000000 "
		},
		"gasEstimates": {
			"creation": {
				"codeDepositCost": "3389600",
				"executionCost": "infinite",
				"totalCost": "infinite"
			},
			"external": {
				"BLAST()": "infinite",
				"USDB()": "infinite",
				"admin()": "2640",
				"calculateRiskPoolBalance(uint256,uint256)": "infinite",
				"changeAdminSigner(address)": "infinite",
				"claimAllYield()": "infinite",
				"claimFunds(uint256,bytes32[])": "infinite",
				"claimMyContractsGas()": "infinite",
				"claimReward(uint256)": "infinite",
				"createPot(string,bytes32,uint256,uint256,uint256,uint256,uint256)": "infinite",
				"hasClaimed(address)": "2913",
				"initialize()": "infinite",
				"joinPot(uint256,bytes,uint256)": "infinite",
				"merkleRoot()": "2471",
				"owner()": "2656",
				"pots(uint256)": "infinite",
				"renounceOwnership()": "infinite",
				"rotateLiquidity(uint256,bytes32,bytes32)": "infinite",
				"setMerkleRoot(bytes32)": "infinite",
				"totalRevenue()": "2469",
				"transferOwnership(address)": "infinite",
				"usdbToken()": "infinite",
				"withdrawRevenue()": "infinite"
			},
			"internal": {
				"deductRevenue(uint256)": "infinite",
				"updateUserYield(address,uint256)": "infinite"
			}
		},
		"methodIdentifiers": {
			"BLAST()": "97d75776",
			"USDB()": "31a0edec",
			"admin()": "f851a440",
			"calculateRiskPoolBalance(uint256,uint256)": "7d77990c",
			"changeAdminSigner(address)": "91dc969e",
			"claimAllYield()": "409a33ce",
			"claimFunds(uint256,bytes32[])": "61e7d805",
			"claimMyContractsGas()": "77d5d2dc",
			"claimReward(uint256)": "ae169a50",
			"createPot(string,bytes32,uint256,uint256,uint256,uint256,uint256)": "0fae6443",
			"hasClaimed(address)": "73b2e80e",
			"initialize()": "8129fc1c",
			"joinPot(uint256,bytes,uint256)": "f78aedf9",
			"merkleRoot()": "2eb4a7ab",
			"owner()": "8da5cb5b",
			"pots(uint256)": "c3c3df4f",
			"renounceOwnership()": "715018a6",
			"rotateLiquidity(uint256,bytes32,bytes32)": "3cabfefd",
			"setMerkleRoot(bytes32)": "7cb64759",
			"totalRevenue()": "bf2d9e0b",
			"transferOwnership(address)": "f2fde38b",
			"usdbToken()": "4a80409e",
			"withdrawRevenue()": "4f573cb2"
		}
	},
	"abi": [
		{
			"inputs": [
				{
					"internalType": "address",
					"name": "_entropy",
					"type": "address"
				},
				{
					"internalType": "address",
					"name": "_entropyProvider",
					"type": "address"
				},
				{
					"internalType": "address",
					"name": "adminSigner",
					"type": "address"
				}
			],
			"stateMutability": "nonpayable",
			"type": "constructor"
		},
		{
			"inputs": [],
			"name": "ECDSAInvalidSignature",
			"type": "error"
		},
		{
			"inputs": [
				{
					"internalType": "uint256",
					"name": "length",
					"type": "uint256"
				}
			],
			"name": "ECDSAInvalidSignatureLength",
			"type": "error"
		},
		{
			"inputs": [
				{
					"internalType": "bytes32",
					"name": "s",
					"type": "bytes32"
				}
			],
			"name": "ECDSAInvalidSignatureS",
			"type": "error"
		},
		{
			"inputs": [],
			"name": "InvalidInitialization",
			"type": "error"
		},
		{
			"inputs": [],
			"name": "NotInitializing",
			"type": "error"
		},
		{
			"inputs": [
				{
					"internalType": "address",
					"name": "owner",
					"type": "address"
				}
			],
			"name": "OwnableInvalidOwner",
			"type": "error"
		},
		{
			"inputs": [
				{
					"internalType": "address",
					"name": "account",
					"type": "address"
				}
			],
			"name": "OwnableUnauthorizedAccount",
			"type": "error"
		},
		{
			"anonymous": false,
			"inputs": [
				{
					"indexed": false,
					"internalType": "uint64",
					"name": "version",
					"type": "uint64"
				}
			],
			"name": "Initialized",
			"type": "event"
		},
		{
			"anonymous": false,
			"inputs": [
				{
					"indexed": true,
					"internalType": "address",
					"name": "previousOwner",
					"type": "address"
				},
				{
					"indexed": true,
					"internalType": "address",
					"name": "newOwner",
					"type": "address"
				}
			],
			"name": "OwnershipTransferred",
			"type": "event"
		},
		{
			"anonymous": false,
			"inputs": [
				{
					"indexed": false,
					"internalType": "uint256",
					"name": "potId",
					"type": "uint256"
				},
				{
					"indexed": false,
					"internalType": "string",
					"name": "name",
					"type": "string"
				},
				{
					"indexed": false,
					"internalType": "address",
					"name": "participant",
					"type": "address"
				},
				{
					"indexed": false,
					"internalType": "uint256",
					"name": "amount",
					"type": "uint256"
				},
				{
					"indexed": false,
					"internalType": "uint256",
					"name": "rotationCycleInSeconds",
					"type": "uint256"
				},
				{
					"indexed": false,
					"internalType": "uint256",
					"name": "_interestDenominator",
					"type": "uint256"
				},
				{
					"indexed": false,
					"internalType": "uint256",
					"name": "_interestNumerator",
					"type": "uint256"
				},
				{
					"indexed": false,
					"internalType": "uint256",
					"name": "_numParticipants",
					"type": "uint256"
				}
			],
			"name": "ParticipantJoined",
			"type": "event"
		},
		{
			"anonymous": false,
			"inputs": [
				{
					"indexed": false,
					"internalType": "uint256",
					"name": "potId",
					"type": "uint256"
				},
				{
					"indexed": false,
					"internalType": "string",
					"name": "name",
					"type": "string"
				},
				{
					"indexed": false,
					"internalType": "address",
					"name": "creator",
					"type": "address"
				},
				{
					"indexed": false,
					"internalType": "uint256",
					"name": "amount",
					"type": "uint256"
				},
				{
					"indexed": false,
					"internalType": "uint256",
					"name": "rotationCycleInSeconds",
					"type": "uint256"
				},
				{
					"indexed": false,
					"internalType": "uint256",
					"name": "_interestDenominator",
					"type": "uint256"
				},
				{
					"indexed": false,
					"internalType": "uint256",
					"name": "_interestNumerator",
					"type": "uint256"
				},
				{
					"indexed": false,
					"internalType": "uint256",
					"name": "_numParticipants",
					"type": "uint256"
				},
				{
					"indexed": false,
					"internalType": "uint64",
					"name": "sequenceNumber",
					"type": "uint64"
				}
			],
			"name": "PotCreated",
			"type": "event"
		},
		{
			"anonymous": false,
			"inputs": [
				{
					"indexed": false,
					"internalType": "uint256",
					"name": "potId",
					"type": "uint256"
				},
				{
					"indexed": false,
					"internalType": "address",
					"name": "winner",
					"type": "address"
				},
				{
					"indexed": false,
					"internalType": "uint256",
					"name": "round",
					"type": "uint256"
				}
			],
			"name": "RotationCompleted",
			"type": "event"
		},
		{
			"inputs": [],
			"name": "BLAST",
			"outputs": [
				{
					"internalType": "contract IBlast",
					"name": "",
					"type": "address"
				}
			],
			"stateMutability": "view",
			"type": "function"
		},
		{
			"inputs": [],
			"name": "USDB",
			"outputs": [
				{
					"internalType": "contract IERC20Rebasing",
					"name": "",
					"type": "address"
				}
			],
			"stateMutability": "view",
			"type": "function"
		},
		{
			"inputs": [],
			"name": "admin",
			"outputs": [
				{
					"internalType": "address",
					"name": "",
					"type": "address"
				}
			],
			"stateMutability": "view",
			"type": "function"
		},
		{
			"inputs": [
				{
					"internalType": "uint256",
					"name": "_potId",
					"type": "uint256"
				},
				{
					"internalType": "uint256",
					"name": "_amount",
					"type": "uint256"
				}
			],
			"name": "calculateRiskPoolBalance",
			"outputs": [
				{
					"internalType": "uint256",
					"name": "",
					"type": "uint256"
				}
			],
			"stateMutability": "view",
			"type": "function"
		},
		{
			"inputs": [
				{
					"internalType": "address",
					"name": "newAdmin",
					"type": "address"
				}
			],
			"name": "changeAdminSigner",
			"outputs": [],
			"stateMutability": "nonpayable",
			"type": "function"
		},
		{
			"inputs": [],
			"name": "claimAllYield",
			"outputs": [],
			"stateMutability": "nonpayable",
			"type": "function"
		},
		{
			"inputs": [
				{
					"internalType": "uint256",
					"name": "claimAmount",
					"type": "uint256"
				},
				{
					"internalType": "bytes32[]",
					"name": "merkleProof",
					"type": "bytes32[]"
				}
			],
			"name": "claimFunds",
			"outputs": [],
			"stateMutability": "nonpayable",
			"type": "function"
		},
		{
			"inputs": [],
			"name": "claimMyContractsGas",
			"outputs": [],
			"stateMutability": "nonpayable",
			"type": "function"
		},
		{
			"inputs": [
				{
					"internalType": "uint256",
					"name": "_potId",
					"type": "uint256"
				}
			],
			"name": "claimReward",
			"outputs": [],
			"stateMutability": "nonpayable",
			"type": "function"
		},
		{
			"inputs": [
				{
					"internalType": "string",
					"name": "_name",
					"type": "string"
				},
				{
					"internalType": "bytes32",
					"name": "userCommitment",
					"type": "bytes32"
				},
				{
					"internalType": "uint256",
					"name": "_rotationCycleInSeconds",
					"type": "uint256"
				},
				{
					"internalType": "uint256",
					"name": "_interestDenominator",
					"type": "uint256"
				},
				{
					"internalType": "uint256",
					"name": "_interestNumerator",
					"type": "uint256"
				},
				{
					"internalType": "uint256",
					"name": "_numParticipants",
					"type": "uint256"
				},
				{
					"internalType": "uint256",
					"name": "_amount",
					"type": "uint256"
				}
			],
			"name": "createPot",
			"outputs": [],
			"stateMutability": "payable",
			"type": "function"
		},
		{
			"inputs": [
				{
					"internalType": "address",
					"name": "",
					"type": "address"
				}
			],
			"name": "hasClaimed",
			"outputs": [
				{
					"internalType": "uint256",
					"name": "",
					"type": "uint256"
				}
			],
			"stateMutability": "view",
			"type": "function"
		},
		{
			"inputs": [],
			"name": "initialize",
			"outputs": [],
			"stateMutability": "nonpayable",
			"type": "function"
		},
		{
			"inputs": [
				{
					"internalType": "uint256",
					"name": "_potId",
					"type": "uint256"
				},
				{
					"internalType": "bytes",
					"name": "signature",
					"type": "bytes"
				},
				{
					"internalType": "uint256",
					"name": "nonce",
					"type": "uint256"
				}
			],
			"name": "joinPot",
			"outputs": [],
			"stateMutability": "payable",
			"type": "function"
		},
		{
			"inputs": [],
			"name": "merkleRoot",
			"outputs": [
				{
					"internalType": "bytes32",
					"name": "",
					"type": "bytes32"
				}
			],
			"stateMutability": "view",
			"type": "function"
		},
		{
			"inputs": [],
			"name": "owner",
			"outputs": [
				{
					"internalType": "address",
					"name": "",
					"type": "address"
				}
			],
			"stateMutability": "view",
			"type": "function"
		},
		{
			"inputs": [
				{
					"internalType": "uint256",
					"name": "",
					"type": "uint256"
				}
			],
			"name": "pots",
			"outputs": [
				{
					"internalType": "string",
					"name": "name",
					"type": "string"
				},
				{
					"internalType": "uint256",
					"name": "amount",
					"type": "uint256"
				},
				{
					"internalType": "uint256",
					"name": "riskPoolBalance",
					"type": "uint256"
				},
				{
					"internalType": "uint256",
					"name": "rotationCycleInSeconds",
					"type": "uint256"
				},
				{
					"internalType": "uint256",
					"name": "lastRotationTime",
					"type": "uint256"
				},
				{
					"internalType": "uint256",
					"name": "interestNumerator",
					"type": "uint256"
				},
				{
					"internalType": "uint256",
					"name": "interestDenominator",
					"type": "uint256"
				},
				{
					"internalType": "uint256",
					"name": "numParticipants",
					"type": "uint256"
				},
				{
					"internalType": "uint256",
					"name": "currentRound",
					"type": "uint256"
				},
				{
					"internalType": "uint64",
					"name": "sequenceNumber",
					"type": "uint64"
				},
				{
					"internalType": "address",
					"name": "potCreator",
					"type": "address"
				}
			],
			"stateMutability": "view",
			"type": "function"
		},
		{
			"inputs": [],
			"name": "renounceOwnership",
			"outputs": [],
			"stateMutability": "nonpayable",
			"type": "function"
		},
		{
			"inputs": [
				{
					"internalType": "uint256",
					"name": "_potId",
					"type": "uint256"
				},
				{
					"internalType": "bytes32",
					"name": "userRandom",
					"type": "bytes32"
				},
				{
					"internalType": "bytes32",
					"name": "providerRandom",
					"type": "bytes32"
				}
			],
			"name": "rotateLiquidity",
			"outputs": [],
			"stateMutability": "nonpayable",
			"type": "function"
		},
		{
			"inputs": [
				{
					"internalType": "bytes32",
					"name": "_merkleRoot",
					"type": "bytes32"
				}
			],
			"name": "setMerkleRoot",
			"outputs": [],
			"stateMutability": "nonpayable",
			"type": "function"
		},
		{
			"inputs": [],
			"name": "totalRevenue",
			"outputs": [
				{
					"internalType": "uint256",
					"name": "",
					"type": "uint256"
				}
			],
			"stateMutability": "view",
			"type": "function"
		},
		{
			"inputs": [
				{
					"internalType": "address",
					"name": "newOwner",
					"type": "address"
				}
			],
			"name": "transferOwnership",
			"outputs": [],
			"stateMutability": "nonpayable",
			"type": "function"
		},
		{
			"inputs": [],
			"name": "usdbToken",
			"outputs": [
				{
					"internalType": "contract IERC20",
					"name": "",
					"type": "address"
				}
			],
			"stateMutability": "view",
			"type": "function"
		},
		{
			"inputs": [],
			"name": "withdrawRevenue",
			"outputs": [],
			"stateMutability": "nonpayable",
			"type": "function"
		}
	]
}